{
  "_format": "hh-sol-artifact-1",
  "contractName": "BaseTokenV1",
  "sourceName": "contracts/BaseTokenV1.sol",
  "abi": [
    {
      "anonymous": false,
      "inputs": [
        {
          "indexed": true,
          "internalType": "address",
          "name": "owner",
          "type": "address"
        },
        {
          "indexed": true,
          "internalType": "address",
          "name": "spender",
          "type": "address"
        },
        {
          "indexed": false,
          "internalType": "uint256",
          "name": "value",
          "type": "uint256"
        }
      ],
      "name": "Approval",
      "type": "event"
    },
    {
      "anonymous": false,
      "inputs": [
        {
          "indexed": true,
          "internalType": "address",
          "name": "delegator",
          "type": "address"
        },
        {
          "indexed": true,
          "internalType": "address",
          "name": "fromDelegate",
          "type": "address"
        },
        {
          "indexed": true,
          "internalType": "address",
          "name": "toDelegate",
          "type": "address"
        }
      ],
      "name": "DelegateChanged",
      "type": "event"
    },
    {
      "anonymous": false,
      "inputs": [
        {
          "indexed": true,
          "internalType": "address",
          "name": "delegate",
          "type": "address"
        },
        {
          "indexed": false,
          "internalType": "uint256",
          "name": "previousBalance",
          "type": "uint256"
        },
        {
          "indexed": false,
          "internalType": "uint256",
          "name": "newBalance",
          "type": "uint256"
        }
      ],
      "name": "DelegateVotesChanged",
      "type": "event"
    },
    {
      "anonymous": false,
      "inputs": [
        {
          "indexed": false,
          "internalType": "uint8",
          "name": "version",
          "type": "uint8"
        }
      ],
      "name": "Initialized",
      "type": "event"
    },
    {
      "anonymous": false,
      "inputs": [
        {
          "indexed": true,
          "internalType": "address",
          "name": "previousOwner",
          "type": "address"
        },
        {
          "indexed": true,
          "internalType": "address",
          "name": "newOwner",
          "type": "address"
        }
      ],
      "name": "OwnershipTransferred",
      "type": "event"
    },
    {
      "anonymous": false,
      "inputs": [
        {
          "indexed": true,
          "internalType": "address",
          "name": "from",
          "type": "address"
        },
        {
          "indexed": true,
          "internalType": "address",
          "name": "to",
          "type": "address"
        },
        {
          "indexed": false,
          "internalType": "uint256",
          "name": "value",
          "type": "uint256"
        }
      ],
      "name": "Transfer",
      "type": "event"
    },
    {
      "inputs": [],
      "name": "DOMAIN_SEPARATOR",
      "outputs": [
        {
          "internalType": "bytes32",
          "name": "",
          "type": "bytes32"
        }
      ],
      "stateMutability": "view",
      "type": "function"
    },
    {
      "inputs": [
        {
          "internalType": "address",
          "name": "owner",
          "type": "address"
        },
        {
          "internalType": "address",
          "name": "spender",
          "type": "address"
        }
      ],
      "name": "allowance",
      "outputs": [
        {
          "internalType": "uint256",
          "name": "",
          "type": "uint256"
        }
      ],
      "stateMutability": "view",
      "type": "function"
    },
    {
      "inputs": [
        {
          "internalType": "address",
          "name": "spender",
          "type": "address"
        },
        {
          "internalType": "uint256",
          "name": "amount",
          "type": "uint256"
        }
      ],
      "name": "approve",
      "outputs": [
        {
          "internalType": "bool",
          "name": "",
          "type": "bool"
        }
      ],
      "stateMutability": "nonpayable",
      "type": "function"
    },
    {
      "inputs": [
        {
          "internalType": "address",
          "name": "account",
          "type": "address"
        }
      ],
      "name": "balanceOf",
      "outputs": [
        {
          "internalType": "uint256",
          "name": "",
          "type": "uint256"
        }
      ],
      "stateMutability": "view",
      "type": "function"
    },
    {
      "inputs": [
        {
          "internalType": "address",
          "name": "account",
          "type": "address"
        },
        {
          "internalType": "uint256",
          "name": "amount",
          "type": "uint256"
        }
      ],
      "name": "bridgeBurn",
      "outputs": [],
      "stateMutability": "nonpayable",
      "type": "function"
    },
    {
      "inputs": [
        {
          "internalType": "address",
          "name": "account",
          "type": "address"
        },
        {
          "internalType": "uint256",
          "name": "amount",
          "type": "uint256"
        }
      ],
      "name": "bridgeMint",
      "outputs": [],
      "stateMutability": "nonpayable",
      "type": "function"
    },
    {
      "inputs": [
        {
          "internalType": "address",
          "name": "account",
          "type": "address"
        },
        {
          "internalType": "uint32",
          "name": "pos",
          "type": "uint32"
        }
      ],
      "name": "checkpoints",
      "outputs": [
        {
          "components": [
            {
              "internalType": "uint32",
              "name": "fromBlock",
              "type": "uint32"
            },
            {
              "internalType": "uint224",
              "name": "votes",
              "type": "uint224"
            }
          ],
          "internalType": "struct ERC20VotesUpgradeable.Checkpoint",
          "name": "",
          "type": "tuple"
        }
      ],
      "stateMutability": "view",
      "type": "function"
    },
    {
      "inputs": [],
      "name": "decimals",
      "outputs": [
        {
          "internalType": "uint8",
          "name": "",
          "type": "uint8"
        }
      ],
      "stateMutability": "view",
      "type": "function"
    },
    {
      "inputs": [
        {
          "internalType": "address",
          "name": "spender",
          "type": "address"
        },
        {
          "internalType": "uint256",
          "name": "subtractedValue",
          "type": "uint256"
        }
      ],
      "name": "decreaseAllowance",
      "outputs": [
        {
          "internalType": "bool",
          "name": "",
          "type": "bool"
        }
      ],
      "stateMutability": "nonpayable",
      "type": "function"
    },
    {
      "inputs": [
        {
          "internalType": "address",
          "name": "delegatee",
          "type": "address"
        }
      ],
      "name": "delegate",
      "outputs": [],
      "stateMutability": "nonpayable",
      "type": "function"
    },
    {
      "inputs": [
        {
          "internalType": "address",
          "name": "delegatee",
          "type": "address"
        },
        {
          "internalType": "uint256",
          "name": "nonce",
          "type": "uint256"
        },
        {
          "internalType": "uint256",
          "name": "expiry",
          "type": "uint256"
        },
        {
          "internalType": "uint8",
          "name": "v",
          "type": "uint8"
        },
        {
          "internalType": "bytes32",
          "name": "r",
          "type": "bytes32"
        },
        {
          "internalType": "bytes32",
          "name": "s",
          "type": "bytes32"
        }
      ],
      "name": "delegateBySig",
      "outputs": [],
      "stateMutability": "nonpayable",
      "type": "function"
    },
    {
      "inputs": [
        {
          "internalType": "address",
          "name": "account",
          "type": "address"
        }
      ],
      "name": "delegates",
      "outputs": [
        {
          "internalType": "address",
          "name": "",
          "type": "address"
        }
      ],
      "stateMutability": "view",
      "type": "function"
    },
    {
      "inputs": [
        {
          "internalType": "uint256",
          "name": "blockNumber",
          "type": "uint256"
        }
      ],
      "name": "getPastTotalSupply",
      "outputs": [
        {
          "internalType": "uint256",
          "name": "",
          "type": "uint256"
        }
      ],
      "stateMutability": "view",
      "type": "function"
    },
    {
      "inputs": [
        {
          "internalType": "address",
          "name": "account",
          "type": "address"
        },
        {
          "internalType": "uint256",
          "name": "blockNumber",
          "type": "uint256"
        }
      ],
      "name": "getPastVotes",
      "outputs": [
        {
          "internalType": "uint256",
          "name": "",
          "type": "uint256"
        }
      ],
      "stateMutability": "view",
      "type": "function"
    },
    {
      "inputs": [
        {
          "internalType": "address",
          "name": "account",
          "type": "address"
        }
      ],
      "name": "getVotes",
      "outputs": [
        {
          "internalType": "uint256",
          "name": "",
          "type": "uint256"
        }
      ],
      "stateMutability": "view",
      "type": "function"
    },
    {
      "inputs": [
        {
          "internalType": "address",
          "name": "spender",
          "type": "address"
        },
        {
          "internalType": "uint256",
          "name": "addedValue",
          "type": "uint256"
        }
      ],
      "name": "increaseAllowance",
      "outputs": [
        {
          "internalType": "bool",
          "name": "",
          "type": "bool"
        }
      ],
      "stateMutability": "nonpayable",
      "type": "function"
    },
    {
      "inputs": [
        {
          "internalType": "address",
          "name": "_l2Gateway",
          "type": "address"
        },
        {
          "internalType": "address",
          "name": "_l1TokenAddress",
          "type": "address"
        }
      ],
      "name": "initialize",
      "outputs": [],
      "stateMutability": "nonpayable",
      "type": "function"
    },
    {
      "inputs": [],
      "name": "l1Address",
      "outputs": [
        {
          "internalType": "address",
          "name": "",
          "type": "address"
        }
      ],
      "stateMutability": "view",
      "type": "function"
    },
    {
      "inputs": [],
      "name": "l2Gateway",
      "outputs": [
        {
          "internalType": "address",
          "name": "",
          "type": "address"
        }
      ],
      "stateMutability": "view",
      "type": "function"
    },
    {
      "inputs": [],
      "name": "name",
      "outputs": [
        {
          "internalType": "string",
          "name": "",
          "type": "string"
        }
      ],
      "stateMutability": "view",
      "type": "function"
    },
    {
      "inputs": [
        {
          "internalType": "address",
          "name": "owner",
          "type": "address"
        }
      ],
      "name": "nonces",
      "outputs": [
        {
          "internalType": "uint256",
          "name": "",
          "type": "uint256"
        }
      ],
      "stateMutability": "view",
      "type": "function"
    },
    {
      "inputs": [
        {
          "internalType": "address",
          "name": "account",
          "type": "address"
        }
      ],
      "name": "numCheckpoints",
      "outputs": [
        {
          "internalType": "uint32",
          "name": "",
          "type": "uint32"
        }
      ],
      "stateMutability": "view",
      "type": "function"
    },
    {
      "inputs": [],
      "name": "owner",
      "outputs": [
        {
          "internalType": "address",
          "name": "",
          "type": "address"
        }
      ],
      "stateMutability": "view",
      "type": "function"
    },
    {
      "inputs": [
        {
          "internalType": "address",
          "name": "owner",
          "type": "address"
        },
        {
          "internalType": "address",
          "name": "spender",
          "type": "address"
        },
        {
          "internalType": "uint256",
          "name": "value",
          "type": "uint256"
        },
        {
          "internalType": "uint256",
          "name": "deadline",
          "type": "uint256"
        },
        {
          "internalType": "uint8",
          "name": "v",
          "type": "uint8"
        },
        {
          "internalType": "bytes32",
          "name": "r",
          "type": "bytes32"
        },
        {
          "internalType": "bytes32",
          "name": "s",
          "type": "bytes32"
        }
      ],
      "name": "permit",
      "outputs": [],
      "stateMutability": "nonpayable",
      "type": "function"
    },
    {
      "inputs": [],
      "name": "renounceOwnership",
      "outputs": [],
      "stateMutability": "nonpayable",
      "type": "function"
    },
    {
      "inputs": [],
      "name": "symbol",
      "outputs": [
        {
          "internalType": "string",
          "name": "",
          "type": "string"
        }
      ],
      "stateMutability": "view",
      "type": "function"
    },
    {
      "inputs": [],
      "name": "totalSupply",
      "outputs": [
        {
          "internalType": "uint256",
          "name": "",
          "type": "uint256"
        }
      ],
      "stateMutability": "view",
      "type": "function"
    },
    {
      "inputs": [
        {
          "internalType": "address",
          "name": "to",
          "type": "address"
        },
        {
          "internalType": "uint256",
          "name": "amount",
          "type": "uint256"
        }
      ],
      "name": "transfer",
      "outputs": [
        {
          "internalType": "bool",
          "name": "",
          "type": "bool"
        }
      ],
      "stateMutability": "nonpayable",
      "type": "function"
    },
    {
      "inputs": [
        {
          "internalType": "address",
          "name": "from",
          "type": "address"
        },
        {
          "internalType": "address",
          "name": "to",
          "type": "address"
        },
        {
          "internalType": "uint256",
          "name": "amount",
          "type": "uint256"
        }
      ],
      "name": "transferFrom",
      "outputs": [
        {
          "internalType": "bool",
          "name": "",
          "type": "bool"
        }
      ],
      "stateMutability": "nonpayable",
      "type": "function"
    },
    {
      "inputs": [
        {
          "internalType": "address",
          "name": "to_",
          "type": "address"
        }
      ],
      "name": "transferOwnership",
      "outputs": [],
      "stateMutability": "nonpayable",
      "type": "function"
    }
  ],
  "bytecode": "0x608060405234801561001057600080fd5b50612516806100206000396000f3fe608060405234801561001057600080fd5b50600436106101da5760003560e01c80637ecebe0011610104578063a457c2d7116100a2578063d505accf11610071578063d505accf14610420578063dd62ed3e14610433578063f1127ed814610446578063f2fde38b1461048357600080fd5b8063a457c2d7146103d3578063a9059cbb146103e6578063c2eeeebd146103f9578063c3cda5201461040d57600080fd5b80638e539e8c116100de5780638e539e8c146103915780638fa74a0e146103a457806395d89b41146103b85780639ab24eb0146103c057600080fd5b80637ecebe001461035a5780638c2a993e1461036d5780638da5cb5b1461038057600080fd5b80633a46b1a81161017c5780636fcfff451161014b5780636fcfff45146102ee57806370a0823114610316578063715018a61461033f57806374f4f5471461034757600080fd5b80633a46b1a81461026f578063485cc95514610282578063587cde1e146102975780635c19a95c146102db57600080fd5b806323b872dd116101b857806323b872dd14610232578063313ce567146102455780633644e51514610254578063395093511461025c57600080fd5b806306fdde03146101df578063095ea7b3146101fd57806318160ddd14610220575b600080fd5b6101e7610496565b6040516101f49190612053565b60405180910390f35b61021061020b3660046120bd565b610528565b60405190151581526020016101f4565b6035545b6040519081526020016101f4565b6102106102403660046120e7565b610542565b604051601281526020016101f4565b610224610566565b61021061026a3660046120bd565b610575565b61022461027d3660046120bd565b610597565b610295610290366004612123565b610616565b005b6102c36102a5366004612156565b6001600160a01b03908116600090815260cc60205260409020541690565b6040516001600160a01b0390911681526020016101f4565b6102956102e9366004612156565b6107c9565b6103016102fc366004612156565b6107d6565b60405163ffffffff90911681526020016101f4565b610224610324366004612156565b6001600160a01b031660009081526033602052604090205490565b6102956107f8565b6102956103553660046120bd565b61080c565b610224610368366004612156565b610863565b61029561037b3660046120bd565b610881565b60fe546001600160a01b03166102c3565b61022461039f366004612171565b6108d4565b610130546102c3906001600160a01b031681565b6101e7610930565b6102246103ce366004612156565b61093f565b6102106103e13660046120bd565b6109c6565b6102106103f43660046120bd565b610a41565b610131546102c3906001600160a01b031681565b61029561041b36600461219b565b610a4f565b61029561042e3660046121f3565b610b85565b610224610441366004612123565b610ce9565b61045961045436600461225d565b610d14565b60408051825163ffffffff1681526020928301516001600160e01b031692810192909252016101f4565b610295610491366004612156565b610d98565b6060603680546104a59061229d565b80601f01602080910402602001604051908101604052809291908181526020018280546104d19061229d565b801561051e5780601f106104f35761010080835404028352916020019161051e565b820191906000526020600020905b81548152906001019060200180831161050157829003601f168201915b5050505050905090565b600033610536818585610da9565b60019150505b92915050565b600033610550858285610ecd565b61055b858585610f47565b506001949350505050565b60006105706110f8565b905090565b6000336105368185856105888383610ce9565b61059291906122e7565b610da9565b60004382106105ed5760405162461bcd60e51b815260206004820152601f60248201527f4552433230566f7465733a20626c6f636b206e6f7420796574206d696e65640060448201526064015b60405180910390fd5b6001600160a01b038316600090815260cd6020526040902061060f9083611173565b9392505050565b600054610100900460ff16158080156106365750600054600160ff909116105b806106505750303b158015610650575060005460ff166001145b6106b35760405162461bcd60e51b815260206004820152602e60248201527f496e697469616c697a61626c653a20636f6e747261637420697320616c72656160448201526d191e481a5b9a5d1a585b1a5e995960921b60648201526084016105e4565b6000805460ff1916600117905580156106d6576000805461ff0019166101001790555b6107176040518060400160405280600481526020016315195cdd60e21b815250604051806040016040528060038152602001621514d560ea1b81525061126a565b61073c6040518060400160405280600481526020016315195cdd60e21b81525061129b565b6107446112e5565b61074c61130c565b61013080546001600160a01b038086166001600160a01b03199283161790925561013180549285169290911691909117905580156107c4576000805461ff0019169055604051600181527f7f26b83ff96e1f2b6a682f133852f6798a09c465da95921460cefb38474024989060200160405180910390a15b505050565b6107d3338261133b565b50565b6001600160a01b038116600090815260cd602052604081205461053c906113b5565b61080061141e565b61080a6000611478565b565b610130546001600160a01b031633146108555760405162461bcd60e51b815260206004820152600b60248201526a4e4f545f4741544557415960a81b60448201526064016105e4565b61085f82826114ca565b5050565b6001600160a01b03811660009081526099602052604081205461053c565b610130546001600160a01b031633146108ca5760405162461bcd60e51b815260206004820152600b60248201526a4e4f545f4741544557415960a81b60448201526064016105e4565b61085f82826114d4565b60004382106109255760405162461bcd60e51b815260206004820152601f60248201527f4552433230566f7465733a20626c6f636b206e6f7420796574206d696e65640060448201526064016105e4565b61053c60ce83611173565b6060603780546104a59061229d565b6001600160a01b038116600090815260cd602052604081205480156109b3576001600160a01b038316600090815260cd602052604090206109816001836122fa565b815481106109915761099161230d565b60009182526020909120015464010000000090046001600160e01b03166109b6565b60005b6001600160e01b03169392505050565b600033816109d48286610ce9565b905083811015610a345760405162461bcd60e51b815260206004820152602560248201527f45524332303a2064656372656173656420616c6c6f77616e63652062656c6f77604482015264207a65726f60d81b60648201526084016105e4565b61055b8286868403610da9565b600033610536818585610f47565b83421115610a9f5760405162461bcd60e51b815260206004820152601d60248201527f4552433230566f7465733a207369676e6174757265206578706972656400000060448201526064016105e4565b604080517fe48329057bfd03d55e49b547132e39cffd9c1820ad7b9d4c5307691425d15adf60208201526001600160a01b038816918101919091526060810186905260808101859052600090610b1990610b119060a001604051602081830303815290604052805190602001206114de565b85858561152c565b9050610b2481611554565b8614610b725760405162461bcd60e51b815260206004820152601960248201527f4552433230566f7465733a20696e76616c6964206e6f6e63650000000000000060448201526064016105e4565b610b7c818861133b565b50505050505050565b83421115610bd55760405162461bcd60e51b815260206004820152601d60248201527f45524332305065726d69743a206578706972656420646561646c696e6500000060448201526064016105e4565b60007f6e71edae12b1b97f4d1f60370fef10105fa2faae0126114a169c64845d6126c9888888610c048c611554565b6040805160208101969096526001600160a01b0394851690860152929091166060840152608083015260a082015260c0810186905260e0016040516020818303038152906040528051906020012090506000610c5f826114de565b90506000610c6f8287878761152c565b9050896001600160a01b0316816001600160a01b031614610cd25760405162461bcd60e51b815260206004820152601e60248201527f45524332305065726d69743a20696e76616c6964207369676e6174757265000060448201526064016105e4565b610cdd8a8a8a610da9565b50505050505050505050565b6001600160a01b03918216600090815260346020908152604080832093909416825291909152205490565b60408051808201909152600080825260208201526001600160a01b038316600090815260cd60205260409020805463ffffffff8416908110610d5857610d5861230d565b60009182526020918290206040805180820190915291015463ffffffff8116825264010000000090046001600160e01b0316918101919091529392505050565b610da061141e565b6107d38161157c565b6001600160a01b038316610e0b5760405162461bcd60e51b8152602060048201526024808201527f45524332303a20617070726f76652066726f6d20746865207a65726f206164646044820152637265737360e01b60648201526084016105e4565b6001600160a01b038216610e6c5760405162461bcd60e51b815260206004820152602260248201527f45524332303a20617070726f766520746f20746865207a65726f206164647265604482015261737360f01b60648201526084016105e4565b6001600160a01b0383811660008181526034602090815260408083209487168084529482529182902085905590518481527f8c5be1e5ebec7d5bd14f71427d1e84f3dd0314c0f7b2291e5b200ac8c7c3b925910160405180910390a3505050565b6000610ed98484610ce9565b90506000198114610f415781811015610f345760405162461bcd60e51b815260206004820152601d60248201527f45524332303a20696e73756666696369656e7420616c6c6f77616e636500000060448201526064016105e4565b610f418484848403610da9565b50505050565b6001600160a01b038316610fab5760405162461bcd60e51b815260206004820152602560248201527f45524332303a207472616e736665722066726f6d20746865207a65726f206164604482015264647265737360d81b60648201526084016105e4565b6001600160a01b03821661100d5760405162461bcd60e51b815260206004820152602360248201527f45524332303a207472616e7366657220746f20746865207a65726f206164647260448201526265737360e81b60648201526084016105e4565b6001600160a01b038316600090815260336020526040902054818110156110855760405162461bcd60e51b815260206004820152602660248201527f45524332303a207472616e7366657220616d6f756e7420657863656564732062604482015265616c616e636560d01b60648201526084016105e4565b6001600160a01b0380851660008181526033602052604080822086860390559286168082529083902080548601905591517fddf252ad1be2c89b69c2b068fc378daa952ba7f163c4a11628f55a4df523b3ef906110e59086815260200190565b60405180910390a3610f418484846115f2565b60006105707f8b73c3c69bb8fe3d512ecc4cf759cc79239f7b179b0ffacaa9a75d522b39400f61112760655490565b6066546040805160208101859052908101839052606081018290524660808201523060a082015260009060c0016040516020818303038152906040528051906020012090509392505050565b8154600090818160058111156111cd57600061118e846115fd565b61119890856122fa565b600088815260209020909150869082015463ffffffff1611156111bd578091506111cb565b6111c88160016122e7565b92505b505b8082101561121a5760006111e183836116e5565b600088815260209020909150869082015463ffffffff16111561120657809150611214565b6112118160016122e7565b92505b506111cd565b80156112545761123d8661122f6001846122fa565b600091825260209091200190565b5464010000000090046001600160e01b0316611257565b60005b6001600160e01b03169695505050505050565b600054610100900460ff166112915760405162461bcd60e51b81526004016105e490612323565b61085f8282611700565b600054610100900460ff166112c25760405162461bcd60e51b81526004016105e490612323565b6107d381604051806040016040528060018152602001603160f81b815250611740565b600054610100900460ff1661080a5760405162461bcd60e51b81526004016105e490612323565b600054610100900460ff166113335760405162461bcd60e51b81526004016105e490612323565b61080a611781565b6001600160a01b03828116600081815260cc6020818152604080842080546033845282862054949093528787166001600160a01b03198416811790915590519190951694919391928592917f3134e8a2e6d97e929a7e54011ea5485d7d196dd5f0ba4d4ef95803e8e3fc257f9190a4610f418284836117b1565b600063ffffffff82111561141a5760405162461bcd60e51b815260206004820152602660248201527f53616665436173743a2076616c756520646f65736e27742066697420696e203360448201526532206269747360d01b60648201526084016105e4565b5090565b60fe546001600160a01b0316331461080a5760405162461bcd60e51b815260206004820181905260248201527f4f776e61626c653a2063616c6c6572206973206e6f7420746865206f776e657260448201526064016105e4565b60fe80546001600160a01b038381166001600160a01b0319831681179093556040519116919082907f8be0079c531659141344cd1fd0a4f28419497f9722a3daafe3b4186f6b6457e090600090a35050565b61085f82826118ee565b61085f8282611906565b600061053c6114eb6110f8565b8360405161190160f01b6020820152602281018390526042810182905260009060620160405160208183030381529060405280519060200120905092915050565b600080600061153d87878787611990565b9150915061154a81611a54565b5095945050505050565b6001600160a01b03811660009081526099602052604090208054600181018255905b50919050565b61158461141e565b6001600160a01b0381166115e95760405162461bcd60e51b815260206004820152602660248201527f4f776e61626c653a206e6577206f776e657220697320746865207a65726f206160448201526564647265737360d01b60648201526084016105e4565b6107d381611478565b6107c4838383611b9e565b60008160000361160f57506000919050565b6000600161161c84611bd0565b901c6001901b905060018184816116355761163561236e565b048201901c9050600181848161164d5761164d61236e565b048201901c905060018184816116655761166561236e565b048201901c9050600181848161167d5761167d61236e565b048201901c905060018184816116955761169561236e565b048201901c905060018184816116ad576116ad61236e565b048201901c905060018184816116c5576116c561236e565b048201901c905061060f818285816116df576116df61236e565b04611c64565b60006116f46002848418612384565b61060f908484166122e7565b600054610100900460ff166117275760405162461bcd60e51b81526004016105e490612323565b6036611733838261240a565b5060376107c4828261240a565b600054610100900460ff166117675760405162461bcd60e51b81526004016105e490612323565b815160209283012081519190920120606591909155606655565b600054610100900460ff166117a85760405162461bcd60e51b81526004016105e490612323565b61080a33611478565b816001600160a01b0316836001600160a01b0316141580156117d35750600081115b156107c4576001600160a01b03831615611861576001600160a01b038316600090815260cd60205260408120819061180e90611c7a85611c86565b91509150846001600160a01b03167fdec2bacdd2f05b59de34da9b523dff8be42e5e38e818c82fdb0bae774387a7248383604051611856929190918252602082015260400190565b60405180910390a250505b6001600160a01b038216156107c4576001600160a01b038216600090815260cd60205260408120819061189790611dda85611c86565b91509150836001600160a01b03167fdec2bacdd2f05b59de34da9b523dff8be42e5e38e818c82fdb0bae774387a72483836040516118df929190918252602082015260400190565b60405180910390a25050505050565b6118f88282611de6565b610f4160ce611c7a83611c86565b6119108282611f21565b6035546001600160e01b0310156119825760405162461bcd60e51b815260206004820152603060248201527f4552433230566f7465733a20746f74616c20737570706c79207269736b73206f60448201526f766572666c6f77696e6720766f74657360801b60648201526084016105e4565b610f4160ce611dda83611c86565b6000807f7fffffffffffffffffffffffffffffff5d576e7357a4501ddfe92f46681b20a08311156119c75750600090506003611a4b565b6040805160008082526020820180845289905260ff881692820192909252606081018690526080810185905260019060a0016020604051602081039080840390855afa158015611a1b573d6000803e3d6000fd5b5050604051601f1901519150506001600160a01b038116611a4457600060019250925050611a4b565b9150600090505b94509492505050565b6000816004811115611a6857611a686124ca565b03611a705750565b6001816004811115611a8457611a846124ca565b03611ad15760405162461bcd60e51b815260206004820152601860248201527f45434453413a20696e76616c6964207369676e6174757265000000000000000060448201526064016105e4565b6002816004811115611ae557611ae56124ca565b03611b325760405162461bcd60e51b815260206004820152601f60248201527f45434453413a20696e76616c6964207369676e6174757265206c656e6774680060448201526064016105e4565b6003816004811115611b4657611b466124ca565b036107d35760405162461bcd60e51b815260206004820152602260248201527f45434453413a20696e76616c6964207369676e6174757265202773272076616c604482015261756560f01b60648201526084016105e4565b6001600160a01b03838116600090815260cc60205260408082205485841683529120546107c4929182169116836117b1565b600080608083901c15611be557608092831c92015b604083901c15611bf757604092831c92015b602083901c15611c0957602092831c92015b601083901c15611c1b57601092831c92015b600883901c15611c2d57600892831c92015b600483901c15611c3f57600492831c92015b600283901c15611c5157600292831c92015b600183901c1561053c5760010192915050565b6000818310611c73578161060f565b5090919050565b600061060f82846122fa565b82546000908190818115611cd357611ca38761122f6001856122fa565b60408051808201909152905463ffffffff8116825264010000000090046001600160e01b03166020820152611ce8565b60408051808201909152600080825260208201525b905080602001516001600160e01b03169350611d0884868863ffffffff16565b9250600082118015611d205750805163ffffffff1643145b15611d6557611d2e83611fea565b611d3d8861122f6001866122fa565b80546001600160e01b03929092166401000000000263ffffffff909216919091179055611dd0565b866040518060400160405280611d7a436113b5565b63ffffffff168152602001611d8e86611fea565b6001600160e01b0390811690915282546001810184556000938452602093849020835194909301519091166401000000000263ffffffff909316929092179101555b5050935093915050565b600061060f82846122e7565b6001600160a01b038216611e465760405162461bcd60e51b815260206004820152602160248201527f45524332303a206275726e2066726f6d20746865207a65726f206164647265736044820152607360f81b60648201526084016105e4565b6001600160a01b03821660009081526033602052604090205481811015611eba5760405162461bcd60e51b815260206004820152602260248201527f45524332303a206275726e20616d6f756e7420657863656564732062616c616e604482015261636560f01b60648201526084016105e4565b6001600160a01b03831660008181526033602090815260408083208686039055603580548790039055518581529192917fddf252ad1be2c89b69c2b068fc378daa952ba7f163c4a11628f55a4df523b3ef910160405180910390a36107c4836000846115f2565b6001600160a01b038216611f775760405162461bcd60e51b815260206004820152601f60248201527f45524332303a206d696e7420746f20746865207a65726f20616464726573730060448201526064016105e4565b8060356000828254611f8991906122e7565b90915550506001600160a01b0382166000818152603360209081526040808320805486019055518481527fddf252ad1be2c89b69c2b068fc378daa952ba7f163c4a11628f55a4df523b3ef910160405180910390a361085f600083836115f2565b60006001600160e01b0382111561141a5760405162461bcd60e51b815260206004820152602760248201527f53616665436173743a2076616c756520646f65736e27742066697420696e20326044820152663234206269747360c81b60648201526084016105e4565b600060208083528351808285015260005b8181101561208057858101830151858201604001528201612064565b506000604082860101526040601f19601f8301168501019250505092915050565b80356001600160a01b03811681146120b857600080fd5b919050565b600080604083850312156120d057600080fd5b6120d9836120a1565b946020939093013593505050565b6000806000606084860312156120fc57600080fd5b612105846120a1565b9250612113602085016120a1565b9150604084013590509250925092565b6000806040838503121561213657600080fd5b61213f836120a1565b915061214d602084016120a1565b90509250929050565b60006020828403121561216857600080fd5b61060f826120a1565b60006020828403121561218357600080fd5b5035919050565b803560ff811681146120b857600080fd5b60008060008060008060c087890312156121b457600080fd5b6121bd876120a1565b955060208701359450604087013593506121d96060880161218a565b92506080870135915060a087013590509295509295509295565b600080600080600080600060e0888a03121561220e57600080fd5b612217886120a1565b9650612225602089016120a1565b955060408801359450606088013593506122416080890161218a565b925060a0880135915060c0880135905092959891949750929550565b6000806040838503121561227057600080fd5b612279836120a1565b9150602083013563ffffffff8116811461229257600080fd5b809150509250929050565b600181811c908216806122b157607f821691505b60208210810361157657634e487b7160e01b600052602260045260246000fd5b634e487b7160e01b600052601160045260246000fd5b8082018082111561053c5761053c6122d1565b8181038181111561053c5761053c6122d1565b634e487b7160e01b600052603260045260246000fd5b6020808252602b908201527f496e697469616c697a61626c653a20636f6e7472616374206973206e6f74206960408201526a6e697469616c697a696e6760a81b606082015260800190565b634e487b7160e01b600052601260045260246000fd5b6000826123a157634e487b7160e01b600052601260045260246000fd5b500490565b634e487b7160e01b600052604160045260246000fd5b601f8211156107c457600081815260208120601f850160051c810160208610156123e35750805b601f850160051c820191505b81811015612402578281556001016123ef565b505050505050565b815167ffffffffffffffff811115612424576124246123a6565b61243881612432845461229d565b846123bc565b602080601f83116001811461246d57600084156124555750858301515b600019600386901b1c1916600185901b178555612402565b600085815260208120601f198616915b8281101561249c5788860151825594840194600190910190840161247d565b50858210156124ba5787850151600019600388901b60f8161c191681555b5050505050600190811b01905550565b634e487b7160e01b600052602160045260246000fdfea2646970667358221220c30d28634adafc6b2011819bb8d7313da05eca8e9b8b46e9d92d61b62a31370864736f6c63430008130033",
  "linkReferences": {},
  "deployedLinkReferences": {}
}