{
  "_format": "hh-sol-artifact-1",
  "contractName": "LookupContestationValidator",
  "sourceName": "contracts/Example/LookupContestationValidator.sol",
  "abi": [
    {
      "inputs": [
        {
          "internalType": "contract IArbius",
          "name": "_arbius",
          "type": "address"
        }
      ],
      "stateMutability": "nonpayable",
      "type": "constructor"
    },
    {
      "inputs": [
        {
          "internalType": "bytes32",
          "name": "taskid",
          "type": "bytes32"
        }
      ],
      "name": "lookupContestationValidator",
      "outputs": [
        {
          "internalType": "address",
          "name": "",
          "type": "address"
        }
      ],
      "stateMutability": "view",
      "type": "function"
    }
  ],
  "bytecode": "0x60803461007457601f61020438819003918201601f19168301916001600160401b038311848410176100795780849260209460405283398101031261007457516001600160a01b0381169081900361007457600080546001600160a01b03191691909117905560405161017490816100908239f35b600080fd5b634e487b7160e01b600052604160045260246000fdfe60806040818152600436101561001457600080fd5b600091823560e01c63337d62a21461002b57600080fd5b3461013a57602036600319011261013a5760018060a01b03906060816024818588541663d33b2ef560e01b825260043560048301525afa90811561012d57849161007e575b506020935051169051908152f35b905060603d8111610126575b601f8101601f191682019167ffffffffffffffff918284118285101761011257816060918101031261010a5760608301838110838211176101125785528051848116810361010e5783526020810151918216820361010a5784916020840152015163ffffffff8116810361010657602094508382015238610070565b8480fd5b8580fd5b8680fd5b634e487b7160e01b87526041600452602487fd5b503d61008a565b50505051903d90823e3d90fd5b8280fdfea264697066735822122083528503dbc3a5ad2d419b1adca941081e3d32d4a2b4b420816edec565a1148364736f6c63430008130033",
  "linkReferences": {},
  "deployedLinkReferences": {}
}