{
  "_format": "hh-sol-artifact-1",
  "contractName": "VotingEscrow",
  "sourceName": "contracts/ve/VotingEscrow.sol",
  "abi": [
    {
      "inputs": [
        {
          "internalType": "address",
          "name": "token_addr",
          "type": "address"
        },
        {
          "internalType": "address",
          "name": "art_proxy",
          "type": "address"
        },
        {
          "internalType": "address",
          "name": "_veStaking",
          "type": "address"
        }
      ],
      "stateMutability": "nonpayable",
      "type": "constructor"
    },
    {
      "anonymous": false,
      "inputs": [
        {
          "indexed": true,
          "internalType": "address",
          "name": "owner",
          "type": "address"
        },
        {
          "indexed": true,
          "internalType": "address",
          "name": "approved",
          "type": "address"
        },
        {
          "indexed": true,
          "internalType": "uint256",
          "name": "tokenId",
          "type": "uint256"
        }
      ],
      "name": "Approval",
      "type": "event"
    },
    {
      "anonymous": false,
      "inputs": [
        {
          "indexed": true,
          "internalType": "address",
          "name": "owner",
          "type": "address"
        },
        {
          "indexed": true,
          "internalType": "address",
          "name": "operator",
          "type": "address"
        },
        {
          "indexed": false,
          "internalType": "bool",
          "name": "approved",
          "type": "bool"
        }
      ],
      "name": "ApprovalForAll",
      "type": "event"
    },
    {
      "anonymous": false,
      "inputs": [
        {
          "indexed": true,
          "internalType": "address",
          "name": "delegator",
          "type": "address"
        },
        {
          "indexed": true,
          "internalType": "address",
          "name": "fromDelegate",
          "type": "address"
        },
        {
          "indexed": true,
          "internalType": "address",
          "name": "toDelegate",
          "type": "address"
        }
      ],
      "name": "DelegateChanged",
      "type": "event"
    },
    {
      "anonymous": false,
      "inputs": [
        {
          "indexed": true,
          "internalType": "address",
          "name": "delegate",
          "type": "address"
        },
        {
          "indexed": false,
          "internalType": "uint256",
          "name": "previousBalance",
          "type": "uint256"
        },
        {
          "indexed": false,
          "internalType": "uint256",
          "name": "newBalance",
          "type": "uint256"
        }
      ],
      "name": "DelegateVotesChanged",
      "type": "event"
    },
    {
      "anonymous": false,
      "inputs": [
        {
          "indexed": true,
          "internalType": "address",
          "name": "provider",
          "type": "address"
        },
        {
          "indexed": false,
          "internalType": "uint256",
          "name": "tokenId",
          "type": "uint256"
        },
        {
          "indexed": false,
          "internalType": "uint256",
          "name": "value",
          "type": "uint256"
        },
        {
          "indexed": true,
          "internalType": "uint256",
          "name": "locktime",
          "type": "uint256"
        },
        {
          "indexed": false,
          "internalType": "enum VotingEscrow.DepositType",
          "name": "deposit_type",
          "type": "uint8"
        },
        {
          "indexed": false,
          "internalType": "uint256",
          "name": "ts",
          "type": "uint256"
        }
      ],
      "name": "Deposit",
      "type": "event"
    },
    {
      "anonymous": false,
      "inputs": [
        {
          "indexed": true,
          "internalType": "address",
          "name": "previousOwner",
          "type": "address"
        },
        {
          "indexed": true,
          "internalType": "address",
          "name": "newOwner",
          "type": "address"
        }
      ],
      "name": "OwnershipTransferred",
      "type": "event"
    },
    {
      "anonymous": false,
      "inputs": [
        {
          "indexed": false,
          "internalType": "uint256",
          "name": "prevSupply",
          "type": "uint256"
        },
        {
          "indexed": false,
          "internalType": "uint256",
          "name": "supply",
          "type": "uint256"
        }
      ],
      "name": "Supply",
      "type": "event"
    },
    {
      "anonymous": false,
      "inputs": [
        {
          "indexed": true,
          "internalType": "address",
          "name": "from",
          "type": "address"
        },
        {
          "indexed": true,
          "internalType": "address",
          "name": "to",
          "type": "address"
        },
        {
          "indexed": true,
          "internalType": "uint256",
          "name": "tokenId",
          "type": "uint256"
        }
      ],
      "name": "Transfer",
      "type": "event"
    },
    {
      "anonymous": false,
      "inputs": [
        {
          "indexed": true,
          "internalType": "address",
          "name": "provider",
          "type": "address"
        },
        {
          "indexed": false,
          "internalType": "uint256",
          "name": "tokenId",
          "type": "uint256"
        },
        {
          "indexed": false,
          "internalType": "uint256",
          "name": "value",
          "type": "uint256"
        },
        {
          "indexed": false,
          "internalType": "uint256",
          "name": "ts",
          "type": "uint256"
        }
      ],
      "name": "Withdraw",
      "type": "event"
    },
    {
      "inputs": [],
      "name": "CLOCK_MODE",
      "outputs": [
        {
          "internalType": "string",
          "name": "",
          "type": "string"
        }
      ],
      "stateMutability": "pure",
      "type": "function"
    },
    {
      "inputs": [],
      "name": "DELEGATION_TYPEHASH",
      "outputs": [
        {
          "internalType": "bytes32",
          "name": "",
          "type": "bytes32"
        }
      ],
      "stateMutability": "view",
      "type": "function"
    },
    {
      "inputs": [],
      "name": "DOMAIN_TYPEHASH",
      "outputs": [
        {
          "internalType": "bytes32",
          "name": "",
          "type": "bytes32"
        }
      ],
      "stateMutability": "view",
      "type": "function"
    },
    {
      "inputs": [],
      "name": "MAX_DELEGATES",
      "outputs": [
        {
          "internalType": "uint256",
          "name": "",
          "type": "uint256"
        }
      ],
      "stateMutability": "view",
      "type": "function"
    },
    {
      "inputs": [
        {
          "internalType": "uint256",
          "name": "_tokenId",
          "type": "uint256"
        }
      ],
      "name": "abstain",
      "outputs": [],
      "stateMutability": "nonpayable",
      "type": "function"
    },
    {
      "inputs": [
        {
          "internalType": "address",
          "name": "_approved",
          "type": "address"
        },
        {
          "internalType": "uint256",
          "name": "_tokenId",
          "type": "uint256"
        }
      ],
      "name": "approve",
      "outputs": [],
      "stateMutability": "nonpayable",
      "type": "function"
    },
    {
      "inputs": [],
      "name": "artProxy",
      "outputs": [
        {
          "internalType": "address",
          "name": "",
          "type": "address"
        }
      ],
      "stateMutability": "view",
      "type": "function"
    },
    {
      "inputs": [
        {
          "internalType": "address",
          "name": "_owner",
          "type": "address"
        }
      ],
      "name": "balanceOf",
      "outputs": [
        {
          "internalType": "uint256",
          "name": "",
          "type": "uint256"
        }
      ],
      "stateMutability": "view",
      "type": "function"
    },
    {
      "inputs": [
        {
          "internalType": "uint256",
          "name": "_tokenId",
          "type": "uint256"
        }
      ],
      "name": "balanceOfNFT",
      "outputs": [
        {
          "internalType": "uint256",
          "name": "",
          "type": "uint256"
        }
      ],
      "stateMutability": "view",
      "type": "function"
    },
    {
      "inputs": [
        {
          "internalType": "uint256",
          "name": "_tokenId",
          "type": "uint256"
        },
        {
          "internalType": "uint256",
          "name": "_t",
          "type": "uint256"
        }
      ],
      "name": "balanceOfNFTAt",
      "outputs": [
        {
          "internalType": "uint256",
          "name": "",
          "type": "uint256"
        }
      ],
      "stateMutability": "view",
      "type": "function"
    },
    {
      "inputs": [],
      "name": "block_number",
      "outputs": [
        {
          "internalType": "uint256",
          "name": "",
          "type": "uint256"
        }
      ],
      "stateMutability": "view",
      "type": "function"
    },
    {
      "inputs": [],
      "name": "checkpoint",
      "outputs": [],
      "stateMutability": "nonpayable",
      "type": "function"
    },
    {
      "inputs": [
        {
          "internalType": "address",
          "name": "",
          "type": "address"
        },
        {
          "internalType": "uint32",
          "name": "",
          "type": "uint32"
        }
      ],
      "name": "checkpoints",
      "outputs": [
        {
          "internalType": "uint256",
          "name": "timestamp",
          "type": "uint256"
        }
      ],
      "stateMutability": "view",
      "type": "function"
    },
    {
      "inputs": [],
      "name": "clock",
      "outputs": [
        {
          "internalType": "uint48",
          "name": "",
          "type": "uint48"
        }
      ],
      "stateMutability": "view",
      "type": "function"
    },
    {
      "inputs": [
        {
          "internalType": "uint256",
          "name": "_value",
          "type": "uint256"
        },
        {
          "internalType": "uint256",
          "name": "_lock_duration",
          "type": "uint256"
        }
      ],
      "name": "create_lock",
      "outputs": [
        {
          "internalType": "uint256",
          "name": "",
          "type": "uint256"
        }
      ],
      "stateMutability": "nonpayable",
      "type": "function"
    },
    {
      "inputs": [
        {
          "internalType": "uint256",
          "name": "_value",
          "type": "uint256"
        },
        {
          "internalType": "uint256",
          "name": "_lock_duration",
          "type": "uint256"
        },
        {
          "internalType": "address",
          "name": "_to",
          "type": "address"
        }
      ],
      "name": "create_lock_for",
      "outputs": [
        {
          "internalType": "uint256",
          "name": "",
          "type": "uint256"
        }
      ],
      "stateMutability": "nonpayable",
      "type": "function"
    },
    {
      "inputs": [],
      "name": "decimals",
      "outputs": [
        {
          "internalType": "uint8",
          "name": "",
          "type": "uint8"
        }
      ],
      "stateMutability": "view",
      "type": "function"
    },
    {
      "inputs": [
        {
          "internalType": "address",
          "name": "delegatee",
          "type": "address"
        }
      ],
      "name": "delegate",
      "outputs": [],
      "stateMutability": "nonpayable",
      "type": "function"
    },
    {
      "inputs": [
        {
          "internalType": "address",
          "name": "delegatee",
          "type": "address"
        },
        {
          "internalType": "uint256",
          "name": "nonce",
          "type": "uint256"
        },
        {
          "internalType": "uint256",
          "name": "expiry",
          "type": "uint256"
        },
        {
          "internalType": "uint8",
          "name": "v",
          "type": "uint8"
        },
        {
          "internalType": "bytes32",
          "name": "r",
          "type": "bytes32"
        },
        {
          "internalType": "bytes32",
          "name": "s",
          "type": "bytes32"
        }
      ],
      "name": "delegateBySig",
      "outputs": [],
      "stateMutability": "nonpayable",
      "type": "function"
    },
    {
      "inputs": [
        {
          "internalType": "address",
          "name": "delegator",
          "type": "address"
        }
      ],
      "name": "delegates",
      "outputs": [
        {
          "internalType": "address",
          "name": "",
          "type": "address"
        }
      ],
      "stateMutability": "view",
      "type": "function"
    },
    {
      "inputs": [
        {
          "internalType": "uint256",
          "name": "_tokenId",
          "type": "uint256"
        },
        {
          "internalType": "uint256",
          "name": "_value",
          "type": "uint256"
        }
      ],
      "name": "deposit_for",
      "outputs": [],
      "stateMutability": "nonpayable",
      "type": "function"
    },
    {
      "inputs": [],
      "name": "epoch",
      "outputs": [
        {
          "internalType": "uint256",
          "name": "",
          "type": "uint256"
        }
      ],
      "stateMutability": "view",
      "type": "function"
    },
    {
      "inputs": [
        {
          "internalType": "uint256",
          "name": "_tokenId",
          "type": "uint256"
        }
      ],
      "name": "getApproved",
      "outputs": [
        {
          "internalType": "address",
          "name": "",
          "type": "address"
        }
      ],
      "stateMutability": "view",
      "type": "function"
    },
    {
      "inputs": [
        {
          "internalType": "uint256",
          "name": "timestamp",
          "type": "uint256"
        }
      ],
      "name": "getPastTotalSupply",
      "outputs": [
        {
          "internalType": "uint256",
          "name": "",
          "type": "uint256"
        }
      ],
      "stateMutability": "view",
      "type": "function"
    },
    {
      "inputs": [
        {
          "internalType": "address",
          "name": "account",
          "type": "address"
        },
        {
          "internalType": "uint256",
          "name": "timestamp",
          "type": "uint256"
        }
      ],
      "name": "getPastVotes",
      "outputs": [
        {
          "internalType": "uint256",
          "name": "",
          "type": "uint256"
        }
      ],
      "stateMutability": "view",
      "type": "function"
    },
    {
      "inputs": [
        {
          "internalType": "address",
          "name": "account",
          "type": "address"
        },
        {
          "internalType": "uint256",
          "name": "timestamp",
          "type": "uint256"
        }
      ],
      "name": "getPastVotesIndex",
      "outputs": [
        {
          "internalType": "uint32",
          "name": "",
          "type": "uint32"
        }
      ],
      "stateMutability": "view",
      "type": "function"
    },
    {
      "inputs": [
        {
          "internalType": "address",
          "name": "account",
          "type": "address"
        }
      ],
      "name": "getVotes",
      "outputs": [
        {
          "internalType": "uint256",
          "name": "",
          "type": "uint256"
        }
      ],
      "stateMutability": "view",
      "type": "function"
    },
    {
      "inputs": [
        {
          "internalType": "uint256",
          "name": "_tokenId",
          "type": "uint256"
        }
      ],
      "name": "get_last_user_slope",
      "outputs": [
        {
          "internalType": "int128",
          "name": "",
          "type": "int128"
        }
      ],
      "stateMutability": "view",
      "type": "function"
    },
    {
      "inputs": [
        {
          "internalType": "uint256",
          "name": "_tokenId",
          "type": "uint256"
        },
        {
          "internalType": "uint256",
          "name": "_value",
          "type": "uint256"
        }
      ],
      "name": "increase_amount",
      "outputs": [],
      "stateMutability": "nonpayable",
      "type": "function"
    },
    {
      "inputs": [
        {
          "internalType": "uint256",
          "name": "_tokenId",
          "type": "uint256"
        },
        {
          "internalType": "uint256",
          "name": "_lock_duration",
          "type": "uint256"
        }
      ],
      "name": "increase_unlock_time",
      "outputs": [],
      "stateMutability": "nonpayable",
      "type": "function"
    },
    {
      "inputs": [
        {
          "internalType": "address",
          "name": "_owner",
          "type": "address"
        },
        {
          "internalType": "address",
          "name": "_operator",
          "type": "address"
        }
      ],
      "name": "isApprovedForAll",
      "outputs": [
        {
          "internalType": "bool",
          "name": "",
          "type": "bool"
        }
      ],
      "stateMutability": "view",
      "type": "function"
    },
    {
      "inputs": [
        {
          "internalType": "address",
          "name": "_spender",
          "type": "address"
        },
        {
          "internalType": "uint256",
          "name": "_tokenId",
          "type": "uint256"
        }
      ],
      "name": "isApprovedOrOwner",
      "outputs": [
        {
          "internalType": "bool",
          "name": "",
          "type": "bool"
        }
      ],
      "stateMutability": "view",
      "type": "function"
    },
    {
      "inputs": [
        {
          "internalType": "uint256",
          "name": "",
          "type": "uint256"
        }
      ],
      "name": "locked",
      "outputs": [
        {
          "internalType": "int128",
          "name": "amount",
          "type": "int128"
        },
        {
          "internalType": "uint256",
          "name": "end",
          "type": "uint256"
        }
      ],
      "stateMutability": "view",
      "type": "function"
    },
    {
      "inputs": [
        {
          "internalType": "uint256",
          "name": "_tokenId",
          "type": "uint256"
        }
      ],
      "name": "locked__end",
      "outputs": [
        {
          "internalType": "uint256",
          "name": "",
          "type": "uint256"
        }
      ],
      "stateMutability": "view",
      "type": "function"
    },
    {
      "inputs": [],
      "name": "name",
      "outputs": [
        {
          "internalType": "string",
          "name": "",
          "type": "string"
        }
      ],
      "stateMutability": "view",
      "type": "function"
    },
    {
      "inputs": [
        {
          "internalType": "address",
          "name": "",
          "type": "address"
        }
      ],
      "name": "nonces",
      "outputs": [
        {
          "internalType": "uint256",
          "name": "",
          "type": "uint256"
        }
      ],
      "stateMutability": "view",
      "type": "function"
    },
    {
      "inputs": [
        {
          "internalType": "address",
          "name": "",
          "type": "address"
        }
      ],
      "name": "numCheckpoints",
      "outputs": [
        {
          "internalType": "uint32",
          "name": "",
          "type": "uint32"
        }
      ],
      "stateMutability": "view",
      "type": "function"
    },
    {
      "inputs": [],
      "name": "owner",
      "outputs": [
        {
          "internalType": "address",
          "name": "",
          "type": "address"
        }
      ],
      "stateMutability": "view",
      "type": "function"
    },
    {
      "inputs": [
        {
          "internalType": "uint256",
          "name": "_tokenId",
          "type": "uint256"
        }
      ],
      "name": "ownerOf",
      "outputs": [
        {
          "internalType": "address",
          "name": "",
          "type": "address"
        }
      ],
      "stateMutability": "view",
      "type": "function"
    },
    {
      "inputs": [
        {
          "internalType": "uint256",
          "name": "",
          "type": "uint256"
        }
      ],
      "name": "ownership_change",
      "outputs": [
        {
          "internalType": "uint256",
          "name": "",
          "type": "uint256"
        }
      ],
      "stateMutability": "view",
      "type": "function"
    },
    {
      "inputs": [
        {
          "internalType": "uint256",
          "name": "",
          "type": "uint256"
        }
      ],
      "name": "point_history",
      "outputs": [
        {
          "internalType": "int128",
          "name": "bias",
          "type": "int128"
        },
        {
          "internalType": "int128",
          "name": "slope",
          "type": "int128"
        },
        {
          "internalType": "uint256",
          "name": "ts",
          "type": "uint256"
        },
        {
          "internalType": "uint256",
          "name": "blk",
          "type": "uint256"
        }
      ],
      "stateMutability": "view",
      "type": "function"
    },
    {
      "inputs": [],
      "name": "renounceOwnership",
      "outputs": [],
      "stateMutability": "nonpayable",
      "type": "function"
    },
    {
      "inputs": [
        {
          "internalType": "address",
          "name": "_from",
          "type": "address"
        },
        {
          "internalType": "address",
          "name": "_to",
          "type": "address"
        },
        {
          "internalType": "uint256",
          "name": "_tokenId",
          "type": "uint256"
        }
      ],
      "name": "safeTransferFrom",
      "outputs": [],
      "stateMutability": "nonpayable",
      "type": "function"
    },
    {
      "inputs": [
        {
          "internalType": "address",
          "name": "_from",
          "type": "address"
        },
        {
          "internalType": "address",
          "name": "_to",
          "type": "address"
        },
        {
          "internalType": "uint256",
          "name": "_tokenId",
          "type": "uint256"
        },
        {
          "internalType": "bytes",
          "name": "_data",
          "type": "bytes"
        }
      ],
      "name": "safeTransferFrom",
      "outputs": [],
      "stateMutability": "nonpayable",
      "type": "function"
    },
    {
      "inputs": [
        {
          "internalType": "address",
          "name": "_operator",
          "type": "address"
        },
        {
          "internalType": "bool",
          "name": "_approved",
          "type": "bool"
        }
      ],
      "name": "setApprovalForAll",
      "outputs": [],
      "stateMutability": "nonpayable",
      "type": "function"
    },
    {
      "inputs": [
        {
          "internalType": "address",
          "name": "_proxy",
          "type": "address"
        }
      ],
      "name": "setArtProxy",
      "outputs": [],
      "stateMutability": "nonpayable",
      "type": "function"
    },
    {
      "inputs": [
        {
          "internalType": "address",
          "name": "_veStaking",
          "type": "address"
        }
      ],
      "name": "setVeStaking",
      "outputs": [],
      "stateMutability": "nonpayable",
      "type": "function"
    },
    {
      "inputs": [
        {
          "internalType": "address",
          "name": "_voter",
          "type": "address"
        }
      ],
      "name": "setVoter",
      "outputs": [],
      "stateMutability": "nonpayable",
      "type": "function"
    },
    {
      "inputs": [
        {
          "internalType": "uint256",
          "name": "",
          "type": "uint256"
        }
      ],
      "name": "slope_changes",
      "outputs": [
        {
          "internalType": "int128",
          "name": "",
          "type": "int128"
        }
      ],
      "stateMutability": "view",
      "type": "function"
    },
    {
      "inputs": [],
      "name": "supply",
      "outputs": [
        {
          "internalType": "uint256",
          "name": "",
          "type": "uint256"
        }
      ],
      "stateMutability": "view",
      "type": "function"
    },
    {
      "inputs": [
        {
          "internalType": "bytes4",
          "name": "_interfaceID",
          "type": "bytes4"
        }
      ],
      "name": "supportsInterface",
      "outputs": [
        {
          "internalType": "bool",
          "name": "",
          "type": "bool"
        }
      ],
      "stateMutability": "view",
      "type": "function"
    },
    {
      "inputs": [],
      "name": "symbol",
      "outputs": [
        {
          "internalType": "string",
          "name": "",
          "type": "string"
        }
      ],
      "stateMutability": "view",
      "type": "function"
    },
    {
      "inputs": [],
      "name": "token",
      "outputs": [
        {
          "internalType": "address",
          "name": "",
          "type": "address"
        }
      ],
      "stateMutability": "view",
      "type": "function"
    },
    {
      "inputs": [
        {
          "internalType": "address",
          "name": "_owner",
          "type": "address"
        },
        {
          "internalType": "uint256",
          "name": "_tokenIndex",
          "type": "uint256"
        }
      ],
      "name": "tokenOfOwnerByIndex",
      "outputs": [
        {
          "internalType": "uint256",
          "name": "",
          "type": "uint256"
        }
      ],
      "stateMutability": "view",
      "type": "function"
    },
    {
      "inputs": [
        {
          "internalType": "uint256",
          "name": "_tokenId",
          "type": "uint256"
        }
      ],
      "name": "tokenURI",
      "outputs": [
        {
          "internalType": "string",
          "name": "",
          "type": "string"
        }
      ],
      "stateMutability": "view",
      "type": "function"
    },
    {
      "inputs": [],
      "name": "totalSupply",
      "outputs": [
        {
          "internalType": "uint256",
          "name": "",
          "type": "uint256"
        }
      ],
      "stateMutability": "view",
      "type": "function"
    },
    {
      "inputs": [
        {
          "internalType": "uint256",
          "name": "t",
          "type": "uint256"
        }
      ],
      "name": "totalSupplyAtT",
      "outputs": [
        {
          "internalType": "uint256",
          "name": "",
          "type": "uint256"
        }
      ],
      "stateMutability": "view",
      "type": "function"
    },
    {
      "inputs": [
        {
          "internalType": "address",
          "name": "_from",
          "type": "address"
        },
        {
          "internalType": "address",
          "name": "_to",
          "type": "address"
        },
        {
          "internalType": "uint256",
          "name": "_tokenId",
          "type": "uint256"
        }
      ],
      "name": "transferFrom",
      "outputs": [],
      "stateMutability": "nonpayable",
      "type": "function"
    },
    {
      "inputs": [
        {
          "internalType": "address",
          "name": "newOwner",
          "type": "address"
        }
      ],
      "name": "transferOwnership",
      "outputs": [],
      "stateMutability": "nonpayable",
      "type": "function"
    },
    {
      "inputs": [
        {
          "internalType": "uint256",
          "name": "",
          "type": "uint256"
        }
      ],
      "name": "user_point_epoch",
      "outputs": [
        {
          "internalType": "uint256",
          "name": "",
          "type": "uint256"
        }
      ],
      "stateMutability": "view",
      "type": "function"
    },
    {
      "inputs": [
        {
          "internalType": "uint256",
          "name": "",
          "type": "uint256"
        },
        {
          "internalType": "uint256",
          "name": "",
          "type": "uint256"
        }
      ],
      "name": "user_point_history",
      "outputs": [
        {
          "internalType": "int128",
          "name": "bias",
          "type": "int128"
        },
        {
          "internalType": "int128",
          "name": "slope",
          "type": "int128"
        },
        {
          "internalType": "uint256",
          "name": "ts",
          "type": "uint256"
        },
        {
          "internalType": "uint256",
          "name": "blk",
          "type": "uint256"
        }
      ],
      "stateMutability": "view",
      "type": "function"
    },
    {
      "inputs": [
        {
          "internalType": "uint256",
          "name": "_tokenId",
          "type": "uint256"
        },
        {
          "internalType": "uint256",
          "name": "_idx",
          "type": "uint256"
        }
      ],
      "name": "user_point_history__ts",
      "outputs": [
        {
          "internalType": "uint256",
          "name": "",
          "type": "uint256"
        }
      ],
      "stateMutability": "view",
      "type": "function"
    },
    {
      "inputs": [],
      "name": "veStaking",
      "outputs": [
        {
          "internalType": "address",
          "name": "",
          "type": "address"
        }
      ],
      "stateMutability": "view",
      "type": "function"
    },
    {
      "inputs": [],
      "name": "version",
      "outputs": [
        {
          "internalType": "string",
          "name": "",
          "type": "string"
        }
      ],
      "stateMutability": "view",
      "type": "function"
    },
    {
      "inputs": [
        {
          "internalType": "uint256",
          "name": "",
          "type": "uint256"
        }
      ],
      "name": "voted",
      "outputs": [
        {
          "internalType": "bool",
          "name": "",
          "type": "bool"
        }
      ],
      "stateMutability": "view",
      "type": "function"
    },
    {
      "inputs": [],
      "name": "voter",
      "outputs": [
        {
          "internalType": "address",
          "name": "",
          "type": "address"
        }
      ],
      "stateMutability": "view",
      "type": "function"
    },
    {
      "inputs": [
        {
          "internalType": "uint256",
          "name": "_tokenId",
          "type": "uint256"
        }
      ],
      "name": "voting",
      "outputs": [],
      "stateMutability": "nonpayable",
      "type": "function"
    },
    {
      "inputs": [
        {
          "internalType": "uint256",
          "name": "_tokenId",
          "type": "uint256"
        }
      ],
      "name": "withdraw",
      "outputs": [],
      "stateMutability": "nonpayable",
      "type": "function"
    }
  ],
  "bytecode": "0x60a034620001a557601f620049d038819003918201601f1916830191906001600160401b03831184841017620001aa578160609285926040958652833981010312620001a5576200005082620001c0565b6200006b826200006360208601620001c0565b9401620001c0565b60008054336001600160a01b0319808316821784558651979396939490926001600160a01b03929083167f8be0079c531659141344cd1fd0a4f28419497f9722a3daafe3b4186f6b6457e08980a38160019560ff19978789600754161760075560805233858854161787551683600254161760025516906003541617600355838052600460205280842043600282015582429101556301ffc9a760e01b8452600560205280842082848254161790556380ac58cd60e01b84528084208284825416179055635b5e139f60e01b8452832091825416179055600654907fddf252ad1be2c89b69c2b068fc378daa952ba7f163c4a11628f55a4df523b3ef823083838180a430908280a46147fa9081620001d68239608051818181610b8001528181612059015281816130d10152818161342a015261360e0152f35b600080fd5b634e487b7160e01b600052604160045260246000fd5b51906001600160a01b0382168203620001a55756fe6080604052600436101561001257600080fd5b60003560e01c806301ffc9a71461044d578063047fc9aa1461044857806306fdde031461037b5780630758c7d814610443578063081812fc1461043e578063095ea7b3146104395780631376f3da1461043457806318160ddd1461042f5780631c984bc31461042a57806320606b701461042557806323b872dd1461042057806325a58b561461041b5780632943a490146104165780632e1a7d4d146104115780632e720f7d1461040c5780632f745c5914610407578063313ce567146104025780633a46b1a8146103fd57806342842e0e146103f8578063430c2081146103f3578063461f711c146103ee57806346c96aac146103e95780634bc2a657146103e45780634bf5d7e9146103df57806354fd4d50146103da5780635594a045146103d5578063587cde1e146103d05780635c19a95c146103cb5780635f5b0c32146103c65780636352211e146103c157806365fc3873146103bc5780636f548837146103b75780636fcfff45146103b257806370a08231146103ad5780637116c60c1461038f57806371197484146103a8578063715018a6146103a35780637ecebe001461039e57806382b5077f146103995780638da5cb5b146103945780638e539e8c1461038f5780638fbb38ff1461038a578063900cf0cf1461038557806391ddadf41461038057806395d89b411461037b5780639ab24eb014610376578063a183af5214610371578063a22cb4651461036c578063a4d855df14610367578063b45a3c0e14610362578063b88d4fde1461035d578063c1f0fb9f14610358578063c2c4c5c114610353578063c3cda5201461034e578063c87b56dd14610349578063d1febfb914610344578063d4e54c3b1461033f578063e0514aba1461033a578063e441135c14610335578063e7a324dc14610330578063e7e242d41461032b578063e985e9c514610326578063ee99fe2814610321578063f1127ed81461031c578063f2fde38b14610317578063f8a0576314610312578063fc0c546a1461030d5763fd4a77f11461030857600080fd5b612088565b612043565b612014565b611f63565b611f10565b611e67565b611e16565b611df8565b611dcf565b611da3565b611d82565b611d16565b611cd2565b611b5d565b611970565b6116dd565b61169f565b611617565b6115df565b611508565b611476565b6113c0565b61139d565b610610565b61137a565b61135c565b61132b565b611206565b611302565b6112d9565b61129f565b611253565b611224565b6111cc565b61118c565b6110c7565b611077565b611043565b611026565b610fec565b610fb7565b610f8e565b610f72565b610f02565b610ebf565b610e96565b610e51565b610e20565b610de5565b610d46565b610d2a565b610ce2565b610c9f565b6109cd565b61098a565b61096f565b610954565b6108f6565b6108bb565b610897565b610839565b6106e5565b6106b1565b61067c565b6104b7565b610469565b6001600160e01b031981160361046457565b600080fd5b346104645760203660031901126104645760043561048681610452565b63ffffffff60e01b166000526005602052602060ff604060002054166040519015158152f35b600091031261046457565b34610464576000366003190112610464576020601454604051908152f35b634e487b7160e01b600052604160045260246000fd5b6001600160401b0381116104fe57604052565b6104d5565b604081019081106001600160401b038211176104fe57604052565b608081019081106001600160401b038211176104fe57604052565b601f909101601f19168101906001600160401b038211908210176104fe57604052565b6040519061056982610503565b565b604051906105698261051e565b6001600160401b0381116104fe57601f01601f191660200190565b604051906105a082610503565b60058252641d9953919560da1b6020830152565b60005b8381106105c75750506000910152565b81810151838201526020016105b7565b906020916105f0815180928185528580860191016105b4565b601f01601f1916010190565b90602061060d9281815201906105d7565b90565b346104645760003660031901126104645761064061062c610593565b6040519182916020835260208301906105d7565b0390f35b6001600160a01b031690565b600435906001600160a01b038216820361046457565b602435906001600160a01b038216820361046457565b346104645760403660031901126104645760206106a361069a610650565b60243590613f09565b63ffffffff60405191168152f35b3461046457602036600319011261046457600435600052600a602052602060018060a01b0360406000205416604051908152f35b34610464576040366003190112610464576106fe610650565b6024356000818152600860205260408120549092906001600160a01b039081169081156107a1578083169282841461079d5761076761078092610740876107b5565b5416331460ff61075833610753886110f3565b611175565b54168115610795575b50612224565b61077b85600052600a602052604060002090565b612121565b6000805160206147a58339815191528480a480f35b905038610761565b8580fd5b8480fd5b6000526011602052604060002090565b6000526008602052604060002090565b6000526013602052604060002090565b6000526004602052604060002090565b634e487b7160e01b600052603260045260246000fd5b90633b9aca00811015610812576003020190600090565b6107e5565b909493926060926080830196600f0b8352600f0b602083015260408201520152565b34610464576040366003190112610464576024356004356000526010602052604060002090633b9aca0081101561046457610873916107fb565b508054610640600260018401549301546040519383859460801d90600f0b85610817565b346104645760003660031901126104645760206108b342613c72565b604051908152f35b34610464576040366003190112610464576004356000526010602052602060016108eb60243560406000206107fb565b500154604051908152f35b346104645760003660031901126104645760206040516000805160206146c58339815191528152f35b6060906003190112610464576001600160a01b0390600435828116810361046457916024359081168103610464579060443590565b346104645761096d6109653661091f565b9033926122e4565b005b34610464576000366003190112610464576020604051438152f35b34610464576020366003190112610464576109a3610650565b6109ab6120c9565b600380546001600160a01b0319166001600160a01b0392909216919091179055005b34610464576020806003193601126104645760043590600754600160ff8216036104645760ff1916600217600755610a0d610a088333612248565b61222b565b610a3a610a35610a31610a2a856000526015602052604060002090565b5460ff1690565b1590565b6122b0565b610a4b610a46836107a5565b61218a565b610a5a82820151421015613a47565b610a6e610a688251600f0b90565b600f0b90565b92610a7761055c565b93610a946000958681528686820152610a8f846107a5565b612f1a565b610ac460145493610aad610aa88487612679565b601455565b610ab561055c565b9087825287878301528461294e565b610ada610ad5610ad5600354610644565b610644565b803b1561079d5760405163ac6a2b5d60e01b8152600481018490529086908290602490829084905af18015610c6e57610c8c575b50610b20610ad5610ad5600354610644565b803b1561079d57604051631c4b774b60e01b8152600481018490529086908290602490829084905af18015610c6e57610c73575b5060405163a9059cbb60e01b815233600482015260248101829052918483604481896001600160a01b037f0000000000000000000000000000000000000000000000000000000000000000165af1948515610c6e5760008051602061472583398151915295610c1994610bcf928992610c41575b505061222b565b610bd881613a8c565b6040805191825260208201839052429082015233907f02f25270a4d87bea75db541cdfe559334a275b4a233520ed6c0a2429667cca9490606090a282612679565b90610c2960405192839283612f35565b0390a1610c3e600160ff196007541617600755565b80f35b610c609250803d10610c67575b610c588183610539565b810190612f46565b3880610bc8565b503d610c4e565b6121ba565b80610c80610c86926104eb565b806104ac565b38610b54565b80610c80610c99926104eb565b38610b0e565b3461046457602036600319011261046457610cb8610650565b610cc06120c9565b600280546001600160a01b0319166001600160a01b0392909216919091179055005b34610464576040366003190112610464576001600160a01b03610d03610650565b16600052600d60205260406000206024356000526020526020604060002054604051908152f35b3461046457600036600319011261046457602060405160128152f35b3461046457604036600319011261046457610d5f610650565b6001610d8c60243592610d728482613f09565b90838060a01b031660005260176020526040600020611efb565b01805460009283925b828510610da757604051848152602090f35b909192610dc483610db88785613e5e565b90549060031b1c613ba0565b8101809111610de057610dd79094612848565b93929190610d95565b6125a3565b3461046457610df33661091f565b60405160208101939092906001600160401b038511848610176104fe5761096d9460405260008452612432565b34610464576040366003190112610464576020610e47610e3e610650565b60243590612248565b6040519015158152f35b3461046457602036600319011261046457600435600052600f6020526020610e866040600020546010835260406000206107fb565b505460801d60405190600f0b8152f35b34610464576000366003190112610464576001546040516001600160a01b039091168152602090f35b3461046457602036600319011261046457610ed8610650565b610ee06120c9565b600180546001600160a01b0319166001600160a01b0392909216919091179055005b3461046457600036600319011261046457610640604051610f2281610503565b600e81526d06d6f64653d74696d657374616d760941b60208201526040519182916020835260208301906105d7565b60405190610f5e82610503565b60058252640312e302e360dc1b6020830152565b346104645760003660031901126104645761064061062c610f51565b34610464576000366003190112610464576002546040516001600160a01b039091168152602090f35b34610464576020366003190112610464576020610fda610fd5610650565b613e0e565b6040516001600160a01b039091168152f35b3461046457602036600319011261046457611005610650565b6001600160a01b0381161561101f575b61096d90336140fa565b5033611015565b346104645760003660031901126104645760206040516104008152f35b34610464576020366003190112610464576004356000526008602052602060018060a01b0360406000205416604051908152f35b3461046457604036600319011261046457600754600160ff8216036104645760ff1990811660021760075560209060016110b63360243560043561370b565b916007541617600755604051908152f35b3461046457602036600319011261046457600435600052600c6020526020604060002054604051908152f35b6001600160a01b03166000908152600b6020526040902090565b6001600160a01b0316600090815260096020526040902090565b6001600160a01b03166000908152600d6020526040902090565b6001600160a01b0316600090815260176020526040902090565b6001600160a01b0316600090815260186020526040902090565b9060018060a01b0316600052602052604060002090565b34610464576020366003190112610464576001600160a01b036111ad610650565b166000526018602052602063ffffffff60406000205416604051908152f35b34610464576020366003190112610464576001600160a01b036111ed610650565b1660005260096020526020604060002054604051908152f35b346104645760203660031901126104645760206108b3600435613c72565b346104645760203660031901126104645760043560005260136020526020604060002054600f0b604051908152f35b346104645760008060031936011261129c5761126d6120c9565b80546001600160a01b03198116825581906001600160a01b03166000805160206147458339815191528280a380f35b80fd5b34610464576020366003190112610464576001600160a01b036112c0610650565b1660005260196020526020604060002054604051908152f35b34610464576000366003190112610464576003546040516001600160a01b039091168152602090f35b34610464576000366003190112610464576000546040516001600160a01b039091168152602090f35b34610464576020366003190112610464576004356000526015602052602060ff604060002054166040519015158152f35b34610464576000366003190112610464576020601254604051908152f35b3461046457600036600319011261046457602060405165ffffffffffff42168152f35b346104645760203660031901126104645760206108b36113bb610650565b613e76565b346104645760403660031901126104645760075460043560243560001960ff84160161046457600261145a9360ff191617600755611401610a088333612248565b81600052601160205260406000209161145560016040519461142286610503565b8054600f0b865201546020850190815261143d84151561222b565b61144d60008651600f0b13612e64565b514210612ea9565b612f7d565b61096d600160ff196007541617600755565b8015150361046457565b346104645760403660031901126104645761148f610650565b60243561149b8161146c565b6001600160a01b038216916114c9906114b63385141561222b565b33600052600b6020526040600020611175565b9015159060ff1981541660ff83161790556040519081527f17307eab39ab6107e8899845ad3d59bd9653f200f220920489ca2b5937696c3160203392a3005b346104645760403660031901126104645760075460043560001960ff83160161046457600261145a9260ff191617600755611546610a088233612248565b80600052601160205260406000209060016040519261156484610503565b8054600f0b8452015490602083019182526115c661159861159361158a602435426125e8565b62093a80900490565b6127e5565b926115a542825111613980565b6115be60006115b58751600f0b90565b600f0b136139bb565b5183116139fb565b6115da6115d2426125b9565b8311156136bf565b613199565b3461046457602036600319011261046457600435600052601160205260408060002060018154600f0b91015482519182526020820152f35b3461046457608036600319011261046457611630610650565b611638610666565b606435916001600160401b03831161046457366023840112156104645782600401359161166483610578565b926116726040519485610539565b808452366024828701011161046457602081600092602461096d9801838801378501015260443591612432565b34610464576020366003190112610464576001546001600160a01b03163303610464576004356000908152601560205260409020805460ff19169055005b346104645760008060031936011261129c57604051906116fc82610503565b80825280602080930152808260405161171481610503565b8281520152611721612772565b5061172a612772565b506012549161173761056b565b90828252828183015242604083015260609143838201529184611957575b60408301918251928592844211611926575b96939061177b62093a8083959495046127e5565b9787985b60ff8a106117a4575b88610c3e8961179f8a61179a81601255565b6107d5565b6128e1565b6117ae89916125d8565b93888783964281116000146118f05750610a689661180c611805611822946118006117f861181b966117f2429e8f925b86019b6117ec8d51600f0b90565b93612679565b90612797565b9151600f0b90565b612857565b600f0b8d52565b8351600f0b61289c565b61289c565b600f0b8252565b81611831610a688b51600f0b90565b126118e8575b81611846610a688351600f0b90565b126118e0575b5050829483835261189082890197611889895161188361187561186f8a80612679565b8b612815565b670de0b6b3a7640000900490565b906125e8565b89526125ca565b994285036118b75750505050505050610c3e929361179f9143905290849338808080611788565b6118d491929394959697506118cf8961179f8d6107d5565b612848565b9895929190949361177f565b52873861184c565b818952611837565b965061181b9061180c611805611822946118006117f88c6117f2610a68611920611919846107c5565b54600f0b90565b986117de565b925061195161194061193b8588015143612679565b6127fd565b61194b835142612679565b90612828565b92611767565b915061196a611965856107d5565b6127ae565b91611755565b346104645760c036600319011261046457611989610650565b606435906044359060243560ff841684036104645760a4356119c36fa2a8918ca85bafe22016d0b997e4df60600160ff1b03821115613ff9565b611aef6119ce610593565b91611a2c611ab8611ac485516020809701206119e8610f51565b805190880120604080516000805160206146c5833981519152818b0190815260208101949094529083019190915246606083015230608083015293849060a0830190565b0393611a40601f1995868101835282610539565b519020604080516000805160206146e58339815191528982019081526001600160a01b038c1660208201529182018a9052606082018c9052919491611a8f816080840103848101835282610539565b5190206040519384918983019687909160429261190160f01b8352600283015260228201520190565b03908101835282610539565b5190206040519760843591899094939260ff6060936080840197845216602083015260408201520152565b856000968792838052039060015afa15610c6e57611b58610c3e93611b50865193611b2360018060a01b0386161515613ff9565b6001600160a01b038516600090815260196020526040902090815491611b4883612848565b90551461404a565b421115614097565b6140fa565b3461046457602036600319011261046457600435611b9d6001600160a01b03611b95611b88846107b5565b546001600160a01b031690565b161515612140565b611ba9610a46826107a5565b90611bbb610ad5610ad5600254610644565b90611bc64282613ba0565b91611bd8610ad5610ad5600354610644565b604051631398fee160e31b8152600481018490529390602090859060249082905afa928315610c6e576000948594611ca2575b50611c5e611c22610a6860208901519851600f0b90565b6040519788968795869563f6ad4c9760e01b8752600487019192608093969594919660a084019784526020840152604083015260608201520152565b03915afa8015610c6e5761064091600091611c81575b50604051918291826105fc565b611c9c913d8091833e611c948183610539565b8101906121c6565b38611c74565b611cc491945060203d8111611ccb575b611cbc8183610539565b8101906121ab565b9238611c0b565b503d611cb2565b3461046457602036600319011261046457600435600052600460205260406000208054610640600260018401549301546040519383859460801d90600f0b85610817565b34610464576060366003190112610464576044356001600160a01b038116810361046457600754600160ff821603610464576001611d6861064093600260ff198095161760075560243560043561370b565b916007541617600755604051918291829190602083019252565b346104645760403660031901126104645760206108b3602435600435613ba0565b3461046457602036600319011261046457600435600052600f6020526020604060002054604051908152f35b346104645760003660031901126104645760206040516000805160206146e58339815191528152f35b346104645760203660031901126104645760206108b3600435613c4c565b3461046457604036600319011261046457602060ff611e5b611e36610650565b611e3e610666565b6001600160a01b039091166000908152600b855260409020611175565b54166040519015158152f35b3461046457604036600319011261046457600435602435600754600160ff8216036104645760029060ff1916176007556000918083526011602052604083209160405191611eb483610503565b8460018554600f0b958686520154602085019081528315611ef75761144d611ee092611ee59713612e64565b613344565b610c3e600160ff196007541617600755565b5080fd5b9063ffffffff16600052602052604060002090565b3461046457604036600319011261046457611f29610650565b6024359063ffffffff8216820361046457602091611f5a9160018060a01b0316600052601783526040600020611efb565b54604051908152f35b3461046457602036600319011261046457611f7c610650565b611f846120c9565b6001600160a01b039081168015611fc057600080546001600160a01b03198116831782559092166000805160206147458339815191528380a380f35b60405162461bcd60e51b815260206004820152602660248201527f4f776e61626c653a206e6577206f776e657220697320746865207a65726f206160448201526564647265737360d01b6064820152608490fd5b346104645760203660031901126104645760043560005260116020526020600160406000200154604051908152f35b34610464576000366003190112610464576040517f00000000000000000000000000000000000000000000000000000000000000006001600160a01b03168152602090f35b34610464576020366003190112610464576001546001600160a01b03163303610464576004356000908152601560205260409020805460ff19166001179055005b6000546001600160a01b031633036120dd57565b606460405162461bcd60e51b815260206004820152602060248201527f4f776e61626c653a2063616c6c6572206973206e6f7420746865206f776e65726044820152fd5b80546001600160a01b0319166001600160a01b03909216919091179055565b1561214757565b60405162461bcd60e51b815260206004820152601b60248201527a28bab2b93c903337b9103737b732bc34b9ba32b73a103a37b5b2b760291b6044820152606490fd5b9060405161219781610503565b6020600182948054600f0b84520154910152565b90816020910312610464575190565b6040513d6000823e3d90fd5b602081830312610464578051906001600160401b038211610464570181601f820112156104645780516121f881610578565b926122066040519485610539565b818452602082840101116104645761060d91602080850191016105b4565b1561046457565b1561223257565b634e487b7160e01b600052600160045260246000fd5b90600052600860205260018060a01b039060ff61228e83604060002054169284811680851495600a602052604060002054161493600052600b6020526040600020611175565b54169082156122a8575b5081156122a3575090565b905090565b915038612298565b156122b757565b60405162461bcd60e51b81526020600482015260056024820152641d9bdd195960da1b6044820152606490fd5b9092919261230d84600094818652601560205261230860ff604088205416156122b0565b612248565b156123b85760008051602061476583398151915290848452600860205260018060a01b039061237e8661236f846040892054169661234f86821680991461222b565b828952600a60205260408920868154166123a4575b50610fd58382612686565b61237884613e0e565b906144d2565b61238886826125f5565b4361239d87600052600c602052604060002090565b55169280a4565b80546001600160a01b031916905538612364565b8280fd5b90816020910312610464575161060d81610452565b6001600160a01b03918216815291166020820152604081019190915260806060820181905261060d929101906105d7565b3d1561242d573d9061241382610578565b916124216040519384610539565b82523d6000602084013e565b606090565b92919091612442338385876122e4565b823b61244f575b50505050565b612477926020926000604051809681958294630a85bd0160e11b9a8b855233600486016123d1565b03926001600160a01b03165af160009181612573575b506125075761249a612402565b805190816125025760405162461bcd60e51b815260206004820152603260248201527f4552433732313a207472616e7366657220746f206e6f6e20455243373231526560448201527131b2b4bb32b91034b6b83632b6b2b73a32b960711b6064820152608490fd5b602001fd5b6001600160e01b0319160361251f5738808080612449565b60405162461bcd60e51b815260206004820152602660248201527f4552433732313a2045524337323152656365697665722072656a656374656420604482015265746f6b656e7360d01b6064820152608490fd5b61259591925060203d811161259c575b61258d8183610539565b8101906123bc565b903861248d565b503d612583565b634e487b7160e01b600052601160045260246000fd5b906303c267008201809211610de057565b9060018201809211610de057565b9062093a808201809211610de057565b91908201809211610de057565b61265c91600081815260209060088252600e60018060a01b03926040936126218186862054161561222b565b8584526008825261263487868620612121565b86168352600981528383205494600d825284842086855282528085852055835252205561110d565b61266681546125ca565b9055565b600019810191908211610de057565b91908203918211610de057565b6000828152600860205260408120546001600160a01b03838116916126ad9116821461222b565b83825260086020526040822080546001600160a01b03191690558152600960205260408120546000198101908111610de05783826126f861273796600052600e602052604060002090565b5483810361274157506127206127319361271187611127565b90600052602052604060002090565b55600052600e602052604060002090565b5561110d565b612666815461266a565b8361272091612768612759612731976127118b611127565b5480612720846127118d611127565b5561271187611127565b6040519061277f8261051e565b60006060838281528260208201528260408201520152565b90600f0b90600f0b029081600f0b918203610de057565b906040516127bb8161051e565b606060028294805480600f0b855260801d600f0b6020850152600181015460408501520154910152565b9062093a8091828102928184041490151715610de057565b90670de0b6b3a76400009180830292830403610de057565b81810292918115918404141715610de057565b8115612832570490565b634e487b7160e01b600052601260045260246000fd5b6000198114610de05760010190565b600f91820b910b039060016001607f1b0319821260016001607f1b03831317610de057565b600f0b9060016001607f1b03821360016001607f1b0319831217610de057565b600f91820b910b019060016001607f1b0319821260016001607f1b03831317610de057565b80546001600160801b0319166001600160801b0392909216919091179055565b9060606002916128f58151600f0b856128c1565b602081015184546001600160801b031660809190911b6001600160801b031916178455604081015160018501550151910155565b919061293857610569916128e1565b634e487b7160e01b600052600060045260246000fd5b9091612958612772565b91612961612772565b9260009182601254908215159485612d35575b61297c61056b565b9560008752602093600085890152426040890152606097438982015281612d23575b85604082018051906000918c814211612d06575b6129c562093a80839896959498046127e5565b966000975b60ff8910612bdb575b50505050506129fb93509061179f918d8b876129ee85601255565b612b32575b5050506107d5565b612a0b575b505050505050505050565b82612a8e97612a89968280612a949d019542875111612ae1575b5050500191825190428211612aa2575b5050505050612a57612a5182600052600f602052604060002090565b546125ca565b9283612a6d83600052600f602052604060002090565b5542604087015243908601526000526010602052604060002090565b6107fb565b90612929565b388080808080808080612a00565b5110612ab0575b8080612a35565b612acd612ad491612ac7612ad9958b0151600f0b90565b90612857565b91516107c5565b6128c1565b388080612aa9565b612af4612afa92612b14940151600f0b90565b9061289c565b838c81850151885114612b1c575b5050612ad486516107c5565b388281612a25565b0151612b2b9190600f0b612ac7565b838c612b08565b612b82612b8c91612ac76117f885612b7b612b74612b65612b598b612b939b0151600f0b90565b878c0151600f0b612ac7565b998d01996118168b51600f0b90565b600f0b8952565b51600f0b90565b8651600f0b61289c565b600f0b8552565b6000612ba3610a688351600f0b90565b12612bd1575b506000612bba610a688551600f0b90565b12612bc8575b878d8b6129f3565b60008352612bc0565b6000905238612ba9565b612be4906125d8565b6000939042811115612cdd5750612c2561181b610a689561180c612c1e8c6118006117f88d6117f2429d8e9286019b6117ec8d51600f0b90565b600f0b8c52565b6000612c35610a688a51600f0b90565b12612cd4575b6000612c4b610a688351600f0b90565b12612cca575b50612c7f8392848352880196612c788851611883611875612c728980612679565b8a612815565b88526125ca565b9788428503612ca757505050505050506129fb9261179f9143905290508638808c81806129d3565b612cbe929394959697508861179f6118cf926107d5565b96949392908e916129ca565b6000905238612c51565b60008852612c3b565b9350612c2561181b8761180c612c1e8c6118006117f88b6117f2610a68611920611919846107c5565b612d1c91935061193b6119409187015143612679565b918c6129b2565b50612d30611965826107d5565b61299e565b60208901898151421080612e4e575b612e0d575b5087896020820194428651119081612df6575b50612da6575b5050612d7161191982516107c5565b92519081612d81575b5050612974565b519091508103612d955750805b3880612d7a565b611919612da1916107c5565b612d8e565b612dda612de891612b7b6020612dd0612dc3612def9751600f0b90565b6303c2670090600f0b0590565b600f0b9201918252565b6117f2610a68428851612679565b600f0b8a52565b8789612d62565b9050612e06610a688451600f0b90565b1338612d5c565b612e41612e33612e24612dc3612e489451600f0b90565b600f0b60208a01908152612b7b565b6117f2610a68428651612679565b600f0b8752565b89612d49565b5083612e5e610a688351600f0b90565b13612d44565b15612e6b57565b60405162461bcd60e51b8152602060048201526016602482015275139bc8195e1a5cdd1a5b99c81b1bd8dac8199bdd5b9960521b6044820152606490fd5b15612eb057565b60405162461bcd60e51b8152602060048201526024808201527f43616e6e6f742061646420746f2065787069726564206c6f636b2e20576974686044820152636472617760e01b6064820152608490fd5b60405190612f0e82610503565b60006020838281520152565b906020600191612f2e8151600f0b856128c1565b0151910155565b908152602081019190915260400190565b90816020910312610464575161060d8161146c565b6001600160a01b03918216815291166020820152604081019190915260600190565b91601454612f8e610aa884836125e8565b613002612f99612f01565b612ff3612fa78551600f0b90565b94612fc06020820196875160208601528490600f0b9052565b612fd561181b88600f0b6118168451600f0b90565b612fe281610a8f8a6107a5565b612fec4289613ba0565b928861294e565b612ffd4287613ba0565b612679565b80151580613191575b1561318b57613021610ad5610ad5600354610644565b803b15610464576040516330ee161b60e11b815291600091839182908490829061304f908c60048401612f35565b03925af18015610c6e57613178575b505b826130a9575b506130a46000805160206147058339815191529151936040519182913395429184606091949392608082019582526020820152600260408201520152565b0390a3565b6040516323b872dd60e01b81529091602082806130cb87303360048501612f5b565b038160007f00000000000000000000000000000000000000000000000000000000000000006001600160a01b03165af18015610c6e5760008051602061470583398151915293613136600080516020614725833981519152926130a49560009161315a575b5061222b565b61314086826125e8565b9061315060405192839283612f35565b0390a19150613066565b613172915060203d8111610c6757610c588183610539565b38613130565b80610c80613185926104eb565b3861305e565b50613060565b50600161300b565b9161320c6131a5612f01565b916131b18151600f0b90565b936131ca6020830195865160208701528590600f0b9052565b6131e76131e06131db8451600f0b90565b61287c565b600f0b8352565b8061333c575b506131fb81610a8f876107a5565b6132054286613ba0565b928561294e565b6132206132194285613ba0565b9182612679565b9081151580613334575b156132cb5750613241610ad5610ad5600354610644565b803b15610464576040516330ee161b60e11b815291600091839182908490829061326f908a60048401612f35565b03925af18015610c6e576132b8575b505b5160408051928352600060208401526003908301524260608301529033906000805160206147058339815191529080608081016130a4565b80610c806132c5926104eb565b3861327e565b90506132de610ad5610ad5600354610644565b803b1561046457604051636d69d55b60e11b815291600091839182908490829061330c908a60048401612f35565b03925af18015610c6e57613321575b50613280565b80610c8061332e926104eb565b3861331b565b50600061322a565b8452386131ed565b91601454613355610aa884836125e8565b613360612f99612f01565b801515806134cb575b156134c55761337f610ad5610ad5600354610644565b803b15610464576040516330ee161b60e11b81529160009183918290849082906133ad908c60048401612f35565b03925af18015610c6e576134b2575b505b82613402575b506130a46000805160206147058339815191529151936040519182913395429184606091949392608082019582526020820152600060408201520152565b6040516323b872dd60e01b815290916020828061342487303360048501612f5b565b038160007f00000000000000000000000000000000000000000000000000000000000000006001600160a01b03165af18015610c6e576000805160206147058339815191529361348e600080516020614725833981519152926130a49560009161315a575061222b565b61349886826125e8565b906134a860405192839283612f35565b0390a191506133c4565b80610c806134bf926104eb565b386133bc565b506133be565b506001613369565b92919091613544601454916134eb610aa886856125e8565b612ff36134f6612f01565b916135028151600f0b90565b9561351b6020830197885160208701528590600f0b9052565b6135306131e089600f0b6118168551600f0b90565b806136b7575b50612fe281610a8f8a6107a5565b801515806136af575b156136a957613563610ad5610ad5600354610644565b803b15610464576040516330ee161b60e11b8152916000918391829084908290613591908c60048401612f35565b03925af18015610c6e57613696575b505b826135e6575b506130a46000805160206147058339815191529151936040519182913395429184606091949392608082019582526020820152600160408201520152565b6040516323b872dd60e01b815290916020828061360887303360048501612f5b565b038160007f00000000000000000000000000000000000000000000000000000000000000006001600160a01b03165af18015610c6e5760008051602061470583398151915293613672600080516020614725833981519152926130a49560009161315a575061222b565b61367c86826125e8565b9061368c60405192839283612f35565b0390a191506135a8565b80610c806136a3926104eb565b386135a0565b506135a2565b50600161354d565b865238613536565b156136c657565b60405162461bcd60e51b815260206004820152601e60248201527f566f74696e67206c6f636b2063616e2062652032207965617273206d617800006044820152606490fd5b90420190814211610de05762093a80809204828102928184041490151715610de057801561046457428211156137875761060d9161375361374b426125b9565b8211156136bf565b613766613761600654612848565b600655565b61377360065480956137db565b50613780610a46856107a5565b91846134d3565b60405162461bcd60e51b815260206004820152602660248201527f43616e206f6e6c79206c6f636b20756e74696c2074696d6520696e207468652060448201526566757475726560d01b6064820152608490fd5b6001600160a01b03818116919083906137f584151561222b565b6137fe83613e0e565b90811615158080613977575b613833575b505061381a916125f5565b60006000805160206147658339815191528180a4600190565b61383e575b8061380f565b905061385661384c8261115b565b5463ffffffff1690565b63ffffffff81161561395057600161387f61387084611141565b61387984613e32565b90611efb565b01908592915b6001806138a26138948661466f565b61389d87611141565b611efb565b01916138bb6104006138b483546125ca565b11156143a1565b6000825b613906575b505050916138eb6138e5613900936138e08761381a9997614357565b61438c565b9161115b565b9063ffffffff1663ffffffff19825416179055565b91613838565b90919293949582548210156139475750806118cf61393461392a61393a9486613e5e565b90549060031b1c90565b86614357565b90829189969594936138bf565b959493926138c4565b600161396d61395e84611141565b60008052602052604060002090565b0190859291613885565b5082151561380a565b1561398757565b60405162461bcd60e51b815260206004820152600c60248201526b131bd8dac8195e1c1a5c995960a21b6044820152606490fd5b156139c257565b60405162461bcd60e51b8152602060048201526011602482015270139bdd1a1a5b99c81a5cc81b1bd8dad959607a1b6044820152606490fd5b15613a0257565b60405162461bcd60e51b815260206004820152601f60248201527f43616e206f6e6c7920696e637265617365206c6f636b206475726174696f6e006044820152606490fd5b15613a4e57565b60405162461bcd60e51b8152602060048201526016602482015275546865206c6f636b206469646e27742065787069726560501b6044820152606490fd5b613a968133612248565b15613b5c576000818152600860205260408120546001600160a01b039081169081156123b8573390613ac7856107b5565b54161460ff613ad933610753856110f3565b54168115613b54575b5015611ef757613b0f613aff84600052600a602052604060002090565b80546001600160a01b0319169055565b8282826000805160206147a58339815191528280a4613b3683613b3183613e0e565b6143f9565b613b408333612686565b6000805160206147658339815191528280a4565b905038613ae2565b606460405162461bcd60e51b815260206004820152602060248201527f63616c6c6572206973206e6f74206f776e6572206e6f7220617070726f7665646044820152fd5b6000818152600f6020526040812054909181613bbd575050905090565b613bde91612a89613bd8926000526010602052604060002090565b506127ae565b6020810151600f0b91604082015193818582039512818612811691861390151617610de057613c276131e0613c1d610a689561060d97600f0b90612797565b8451600f0b612857565b80613c338351600f0b90565b600f0b12613c44575b5051600f0b90565b815238613c3c565b80600052600c6020526040600020544314613c6c5761060d904290613ba0565b50600090565b906000916012549280935b60808510613ca7575b5061060d9293506000526004602052613ca260406000206127ae565b613d0a565b9081811015613d045781810190818111610de057600191828101809111610de0578490831c92613cd6846107d5565b015411613cef5750613ce89094612848565b9390613c7d565b949150613cfe613ce89161266a565b91612848565b90613c86565b9060408201613d20611593825162093a80900490565b906000915b60ff8310613d6d575b50505050613d58613d58826000613d4c610a6861060d9651600f0b90565b12613d645751600f0b90565b6001600160801b031690565b60008152612b7b565b613d76906125d8565b600092908085811115613dfa57505083925b6020860190613dc0613db9613daf613da18551600f0b90565b6117f2610a6889518b612679565b8951600f0b612857565b600f0b8852565b858514613df35781613dde613de592611816613ded969551600f0b90565b600f0b9052565b838352612848565b91613d25565b5050613d2e565b613e09919450611919906107c5565b613d88565b6001600160a01b0381811660009081526016602052604090205416806122a3575090565b63ffffffff9081166000190191908211610de057565b63ffffffff9182169082160391908211610de057565b80548210156108125760005260206000200190600090565b6001600160a01b03811660009081526018602052604090205463ffffffff16908115613f0257600191613879613eae613eb493611141565b91613e32565b0160009081908054905b818310613ecb5750505090565b909192613ee8613edb8584613e5e565b9054429160031b1c613ba0565b8101809111610de057613efb9093612848565b9190613ebe565b5050600090565b613f1561384c8261115b565b9163ffffffff80841615613fe45781613f39613f3085611141565b61387987613e32565b541115613fed5781613f4d61395e85611141565b5411613fe4579190613f60600094613e32565b83851684821611613f72575050505090565b613f94613f8e613f828784613e48565b60011c637fffffff1690565b82613e48565b9485613fa38161389d87611141565b54848103613fb5575050505050505090565b9380959697939410600014613fd0575050935b929190613f60565b90959250613fde9150613e32565b90613fc8565b50505050600090565b50505061060d90613e32565b1561400057565b60405162461bcd60e51b815260206004820152602e602482015260008051602061478583398151915260448201526d616c6964207369676e617475726560901b6064820152608490fd5b1561405157565b60405162461bcd60e51b815260206004820152602a6024820152600080516020614785833981519152604482015269616c6964206e6f6e636560b01b6064820152608490fd5b1561409e57565b60405162461bcd60e51b815260206004820152602e60248201527f566f74696e67457363726f773a3a64656c656761746542795369673a2073696760448201526d1b985d1d5c9948195e1c1a5c995960921b6064820152608490fd5b919061410583613e0e565b60018060a01b03908185169060009282845260166020526141298560408620612121565b848116928282168481837f3134e8a2e6d97e929a7e54011ea5485d7d196dd5f0ba4d4ef95803e8e3fc257f8980a484810361416a575b505050505050509050565b61427e575b505050614181575b808080808061415f565b61418d61384c8361115b565b9063ffffffff8216156142695760016141b16141a885611141565b61387985613e32565b01905b600190816141cd6141c48761466f565b61389d88611141565b01916141d88861110d565b54936141eb6104006138b48784546125e8565b82825b61423b575b5050505b82811061421b575050506142139293506138e56138eb9161438c565b803880614177565b806118cf61422f614236936127118b611127565b5484614357565b6141f7565b815481101561426457806118cf61425861392a61425e9486613e5e565b87614357565b826141ee565b6141f3565b600161427761395e85611141565b01906141b4565b61428a61384c8461115b565b9163ffffffff8316156143425760016142ae6142a586611141565b61387986613e32565b01915b600191826142ca6142c18861466f565b61389d89611141565b019188845b6142f2575b505050505050906138eb6138e56142ea9361438c565b38808061416f565b855481101561433d578061430c61392a6143279389613e5e565b838561431a611b88846107b5565b160361432d575b50612848565b846142cf565b6143379086614357565b38614321565b6142d4565b600161435061395e86611141565b01916142b1565b8054600160401b8110156104fe5761437491600182018155613e5e565b819291549060031b91821b91600019901b1916179055565b90600163ffffffff80931601918211610de057565b156143a857565b60405162461bcd60e51b815260206004820152602360248201527f64737452657020776f756c64206861766520746f6f206d616e7920746f6b656e60448201526249647360e81b6064820152608490fd5b906001600160a01b038216151580806144c9575b61441657505050565b61441e575050565b61442a61384c8361115b565b9063ffffffff8216156144b45760016144456141a885611141565b01905b600190816144586141c48761466f565b01906000835b614478575b5050505050906138eb6138e56105699361438c565b84548110156144af578061449261392a61449f9388613e5e565b8381036144a55750612848565b8361445e565b6143379085614357565b614463565b60016144c261395e85611141565b0190614448565b5081151561440d565b9091906001600160a01b03808416919081168083141580614666575b6144fa575b5050505050565b6145bb575b5061450d575b8080806144f3565b61451961384c8361115b565b9063ffffffff8216156145a75760016145346141a885611141565b015b6001806145456141c48761466f565b01916145576104006138b483546125ca565b6000825b61457f575b50505061457893926138e06138eb936138e593614357565b3880614505565b81548110156145a257806118cf61393461392a61459c9486613e5e565b8261455b565b614560565b60016145b561395e85611141565b01614536565b6145c761384c8261115b565b63ffffffff8116156146525760016145e161387084611141565b015b6001806145f26138948661466f565b016000825b614616575b50505050906138eb6138e56146109361438c565b386144ff565b835481101561464d578061463061392a61463d9387613e5e565b8981036146435750612848565b826145f7565b6143379084614357565b6145fc565b600161466061395e84611141565b016145e3565b508315156144ee565b6001600160a01b031660009081526018602052604090205463ffffffff16801515806146a4575b1561060d5761060d90613e32565b50601760205260406000206146bd429161387984613e32565b541461469656fe8cad95687ba82c2ce50e74f7b754645e5117c3a5bec8151c0726d5857980a866e48329057bfd03d55e49b547132e39cffd9c1820ad7b9d4c5307691425d15adfff04ccafc360e16b67d682d17bd9503c4c6b9a131f6be6325762dc9ffc7de6245e2aa66efd74cce82b21852e317e5490d9ecc9e6bb953ae24d90851258cc2f5c8be0079c531659141344cd1fd0a4f28419497f9722a3daafe3b4186f6b6457e0ddf252ad1be2c89b69c2b068fc378daa952ba7f163c4a11628f55a4df523b3ef566f74696e67457363726f773a3a64656c656761746542795369673a20696e768c5be1e5ebec7d5bd14f71427d1e84f3dd0314c0f7b2291e5b200ac8c7c3b925a2646970667358221220ea22e36a9b8853fb7416cc56b074bd997f070a938f3dc2b9f54b36908c6ae4c764736f6c63430008130033",
  "linkReferences": {},
  "deployedLinkReferences": {}
}