{
  "_format": "hh-sol-artifact-1",
  "contractName": "VotingEscrow",
  "sourceName": "contracts/ve/VotingEscrow.sol",
  "abi": [
    {
      "inputs": [
        {
          "internalType": "address",
          "name": "token_addr",
          "type": "address"
        },
        {
          "internalType": "address",
          "name": "art_proxy",
          "type": "address"
        },
        {
          "internalType": "address",
          "name": "_veStaking",
          "type": "address"
        }
      ],
      "stateMutability": "nonpayable",
      "type": "constructor"
    },
    {
      "anonymous": false,
      "inputs": [
        {
          "indexed": true,
          "internalType": "address",
          "name": "owner",
          "type": "address"
        },
        {
          "indexed": true,
          "internalType": "address",
          "name": "approved",
          "type": "address"
        },
        {
          "indexed": true,
          "internalType": "uint256",
          "name": "tokenId",
          "type": "uint256"
        }
      ],
      "name": "Approval",
      "type": "event"
    },
    {
      "anonymous": false,
      "inputs": [
        {
          "indexed": true,
          "internalType": "address",
          "name": "owner",
          "type": "address"
        },
        {
          "indexed": true,
          "internalType": "address",
          "name": "operator",
          "type": "address"
        },
        {
          "indexed": false,
          "internalType": "bool",
          "name": "approved",
          "type": "bool"
        }
      ],
      "name": "ApprovalForAll",
      "type": "event"
    },
    {
      "anonymous": false,
      "inputs": [
        {
          "indexed": true,
          "internalType": "address",
          "name": "delegator",
          "type": "address"
        },
        {
          "indexed": true,
          "internalType": "address",
          "name": "fromDelegate",
          "type": "address"
        },
        {
          "indexed": true,
          "internalType": "address",
          "name": "toDelegate",
          "type": "address"
        }
      ],
      "name": "DelegateChanged",
      "type": "event"
    },
    {
      "anonymous": false,
      "inputs": [
        {
          "indexed": true,
          "internalType": "address",
          "name": "delegate",
          "type": "address"
        },
        {
          "indexed": false,
          "internalType": "uint256",
          "name": "previousBalance",
          "type": "uint256"
        },
        {
          "indexed": false,
          "internalType": "uint256",
          "name": "newBalance",
          "type": "uint256"
        }
      ],
      "name": "DelegateVotesChanged",
      "type": "event"
    },
    {
      "anonymous": false,
      "inputs": [
        {
          "indexed": true,
          "internalType": "address",
          "name": "provider",
          "type": "address"
        },
        {
          "indexed": false,
          "internalType": "uint256",
          "name": "tokenId",
          "type": "uint256"
        },
        {
          "indexed": false,
          "internalType": "uint256",
          "name": "value",
          "type": "uint256"
        },
        {
          "indexed": true,
          "internalType": "uint256",
          "name": "locktime",
          "type": "uint256"
        },
        {
          "indexed": false,
          "internalType": "enum VotingEscrow.DepositType",
          "name": "deposit_type",
          "type": "uint8"
        },
        {
          "indexed": false,
          "internalType": "uint256",
          "name": "ts",
          "type": "uint256"
        }
      ],
      "name": "Deposit",
      "type": "event"
    },
    {
      "anonymous": false,
      "inputs": [
        {
          "indexed": true,
          "internalType": "address",
          "name": "previousOwner",
          "type": "address"
        },
        {
          "indexed": true,
          "internalType": "address",
          "name": "newOwner",
          "type": "address"
        }
      ],
      "name": "OwnershipTransferred",
      "type": "event"
    },
    {
      "anonymous": false,
      "inputs": [
        {
          "indexed": false,
          "internalType": "uint256",
          "name": "prevSupply",
          "type": "uint256"
        },
        {
          "indexed": false,
          "internalType": "uint256",
          "name": "supply",
          "type": "uint256"
        }
      ],
      "name": "Supply",
      "type": "event"
    },
    {
      "anonymous": false,
      "inputs": [
        {
          "indexed": true,
          "internalType": "address",
          "name": "from",
          "type": "address"
        },
        {
          "indexed": true,
          "internalType": "address",
          "name": "to",
          "type": "address"
        },
        {
          "indexed": true,
          "internalType": "uint256",
          "name": "tokenId",
          "type": "uint256"
        }
      ],
      "name": "Transfer",
      "type": "event"
    },
    {
      "anonymous": false,
      "inputs": [
        {
          "indexed": true,
          "internalType": "address",
          "name": "provider",
          "type": "address"
        },
        {
          "indexed": false,
          "internalType": "uint256",
          "name": "tokenId",
          "type": "uint256"
        },
        {
          "indexed": false,
          "internalType": "uint256",
          "name": "value",
          "type": "uint256"
        },
        {
          "indexed": false,
          "internalType": "uint256",
          "name": "ts",
          "type": "uint256"
        }
      ],
      "name": "Withdraw",
      "type": "event"
    },
    {
      "inputs": [],
      "name": "CLOCK_MODE",
      "outputs": [
        {
          "internalType": "string",
          "name": "",
          "type": "string"
        }
      ],
      "stateMutability": "pure",
      "type": "function"
    },
    {
      "inputs": [],
      "name": "DELEGATION_TYPEHASH",
      "outputs": [
        {
          "internalType": "bytes32",
          "name": "",
          "type": "bytes32"
        }
      ],
      "stateMutability": "view",
      "type": "function"
    },
    {
      "inputs": [],
      "name": "DOMAIN_TYPEHASH",
      "outputs": [
        {
          "internalType": "bytes32",
          "name": "",
          "type": "bytes32"
        }
      ],
      "stateMutability": "view",
      "type": "function"
    },
    {
      "inputs": [],
      "name": "MAX_DELEGATES",
      "outputs": [
        {
          "internalType": "uint256",
          "name": "",
          "type": "uint256"
        }
      ],
      "stateMutability": "view",
      "type": "function"
    },
    {
      "inputs": [
        {
          "internalType": "uint256",
          "name": "_tokenId",
          "type": "uint256"
        }
      ],
      "name": "abstain",
      "outputs": [],
      "stateMutability": "nonpayable",
      "type": "function"
    },
    {
      "inputs": [
        {
          "internalType": "address",
          "name": "_approved",
          "type": "address"
        },
        {
          "internalType": "uint256",
          "name": "_tokenId",
          "type": "uint256"
        }
      ],
      "name": "approve",
      "outputs": [],
      "stateMutability": "nonpayable",
      "type": "function"
    },
    {
      "inputs": [],
      "name": "artProxy",
      "outputs": [
        {
          "internalType": "address",
          "name": "",
          "type": "address"
        }
      ],
      "stateMutability": "view",
      "type": "function"
    },
    {
      "inputs": [
        {
          "internalType": "address",
          "name": "_owner",
          "type": "address"
        }
      ],
      "name": "balanceOf",
      "outputs": [
        {
          "internalType": "uint256",
          "name": "",
          "type": "uint256"
        }
      ],
      "stateMutability": "view",
      "type": "function"
    },
    {
      "inputs": [
        {
          "internalType": "uint256",
          "name": "_tokenId",
          "type": "uint256"
        },
        {
          "internalType": "uint256",
          "name": "_block",
          "type": "uint256"
        }
      ],
      "name": "balanceOfAtNFT",
      "outputs": [
        {
          "internalType": "uint256",
          "name": "",
          "type": "uint256"
        }
      ],
      "stateMutability": "view",
      "type": "function"
    },
    {
      "inputs": [
        {
          "internalType": "uint256",
          "name": "_tokenId",
          "type": "uint256"
        }
      ],
      "name": "balanceOfNFT",
      "outputs": [
        {
          "internalType": "uint256",
          "name": "",
          "type": "uint256"
        }
      ],
      "stateMutability": "view",
      "type": "function"
    },
    {
      "inputs": [
        {
          "internalType": "uint256",
          "name": "_tokenId",
          "type": "uint256"
        },
        {
          "internalType": "uint256",
          "name": "_t",
          "type": "uint256"
        }
      ],
      "name": "balanceOfNFTAt",
      "outputs": [
        {
          "internalType": "uint256",
          "name": "",
          "type": "uint256"
        }
      ],
      "stateMutability": "view",
      "type": "function"
    },
    {
      "inputs": [],
      "name": "block_number",
      "outputs": [
        {
          "internalType": "uint256",
          "name": "",
          "type": "uint256"
        }
      ],
      "stateMutability": "view",
      "type": "function"
    },
    {
      "inputs": [],
      "name": "checkpoint",
      "outputs": [],
      "stateMutability": "nonpayable",
      "type": "function"
    },
    {
      "inputs": [
        {
          "internalType": "address",
          "name": "",
          "type": "address"
        },
        {
          "internalType": "uint32",
          "name": "",
          "type": "uint32"
        }
      ],
      "name": "checkpoints",
      "outputs": [
        {
          "internalType": "uint256",
          "name": "timestamp",
          "type": "uint256"
        }
      ],
      "stateMutability": "view",
      "type": "function"
    },
    {
      "inputs": [],
      "name": "clock",
      "outputs": [
        {
          "internalType": "uint48",
          "name": "",
          "type": "uint48"
        }
      ],
      "stateMutability": "view",
      "type": "function"
    },
    {
      "inputs": [
        {
          "internalType": "uint256",
          "name": "_value",
          "type": "uint256"
        },
        {
          "internalType": "uint256",
          "name": "_lock_duration",
          "type": "uint256"
        }
      ],
      "name": "create_lock",
      "outputs": [
        {
          "internalType": "uint256",
          "name": "",
          "type": "uint256"
        }
      ],
      "stateMutability": "nonpayable",
      "type": "function"
    },
    {
      "inputs": [
        {
          "internalType": "uint256",
          "name": "_value",
          "type": "uint256"
        },
        {
          "internalType": "uint256",
          "name": "_lock_duration",
          "type": "uint256"
        },
        {
          "internalType": "address",
          "name": "_to",
          "type": "address"
        }
      ],
      "name": "create_lock_for",
      "outputs": [
        {
          "internalType": "uint256",
          "name": "",
          "type": "uint256"
        }
      ],
      "stateMutability": "nonpayable",
      "type": "function"
    },
    {
      "inputs": [],
      "name": "decimals",
      "outputs": [
        {
          "internalType": "uint8",
          "name": "",
          "type": "uint8"
        }
      ],
      "stateMutability": "view",
      "type": "function"
    },
    {
      "inputs": [
        {
          "internalType": "address",
          "name": "delegatee",
          "type": "address"
        }
      ],
      "name": "delegate",
      "outputs": [],
      "stateMutability": "nonpayable",
      "type": "function"
    },
    {
      "inputs": [
        {
          "internalType": "address",
          "name": "delegatee",
          "type": "address"
        },
        {
          "internalType": "uint256",
          "name": "nonce",
          "type": "uint256"
        },
        {
          "internalType": "uint256",
          "name": "expiry",
          "type": "uint256"
        },
        {
          "internalType": "uint8",
          "name": "v",
          "type": "uint8"
        },
        {
          "internalType": "bytes32",
          "name": "r",
          "type": "bytes32"
        },
        {
          "internalType": "bytes32",
          "name": "s",
          "type": "bytes32"
        }
      ],
      "name": "delegateBySig",
      "outputs": [],
      "stateMutability": "nonpayable",
      "type": "function"
    },
    {
      "inputs": [
        {
          "internalType": "address",
          "name": "delegator",
          "type": "address"
        }
      ],
      "name": "delegates",
      "outputs": [
        {
          "internalType": "address",
          "name": "",
          "type": "address"
        }
      ],
      "stateMutability": "view",
      "type": "function"
    },
    {
      "inputs": [
        {
          "internalType": "uint256",
          "name": "_tokenId",
          "type": "uint256"
        },
        {
          "internalType": "uint256",
          "name": "_value",
          "type": "uint256"
        }
      ],
      "name": "deposit_for",
      "outputs": [],
      "stateMutability": "nonpayable",
      "type": "function"
    },
    {
      "inputs": [],
      "name": "epoch",
      "outputs": [
        {
          "internalType": "uint256",
          "name": "",
          "type": "uint256"
        }
      ],
      "stateMutability": "view",
      "type": "function"
    },
    {
      "inputs": [
        {
          "internalType": "uint256",
          "name": "_tokenId",
          "type": "uint256"
        }
      ],
      "name": "getApproved",
      "outputs": [
        {
          "internalType": "address",
          "name": "",
          "type": "address"
        }
      ],
      "stateMutability": "view",
      "type": "function"
    },
    {
      "inputs": [
        {
          "internalType": "uint256",
          "name": "timestamp",
          "type": "uint256"
        }
      ],
      "name": "getPastTotalSupply",
      "outputs": [
        {
          "internalType": "uint256",
          "name": "",
          "type": "uint256"
        }
      ],
      "stateMutability": "view",
      "type": "function"
    },
    {
      "inputs": [
        {
          "internalType": "address",
          "name": "account",
          "type": "address"
        },
        {
          "internalType": "uint256",
          "name": "timestamp",
          "type": "uint256"
        }
      ],
      "name": "getPastVotes",
      "outputs": [
        {
          "internalType": "uint256",
          "name": "",
          "type": "uint256"
        }
      ],
      "stateMutability": "view",
      "type": "function"
    },
    {
      "inputs": [
        {
          "internalType": "address",
          "name": "account",
          "type": "address"
        },
        {
          "internalType": "uint256",
          "name": "timestamp",
          "type": "uint256"
        }
      ],
      "name": "getPastVotesIndex",
      "outputs": [
        {
          "internalType": "uint32",
          "name": "",
          "type": "uint32"
        }
      ],
      "stateMutability": "view",
      "type": "function"
    },
    {
      "inputs": [
        {
          "internalType": "address",
          "name": "account",
          "type": "address"
        }
      ],
      "name": "getVotes",
      "outputs": [
        {
          "internalType": "uint256",
          "name": "",
          "type": "uint256"
        }
      ],
      "stateMutability": "view",
      "type": "function"
    },
    {
      "inputs": [
        {
          "internalType": "uint256",
          "name": "_tokenId",
          "type": "uint256"
        }
      ],
      "name": "get_last_user_slope",
      "outputs": [
        {
          "internalType": "int128",
          "name": "",
          "type": "int128"
        }
      ],
      "stateMutability": "view",
      "type": "function"
    },
    {
      "inputs": [
        {
          "internalType": "uint256",
          "name": "_tokenId",
          "type": "uint256"
        },
        {
          "internalType": "uint256",
          "name": "_value",
          "type": "uint256"
        }
      ],
      "name": "increase_amount",
      "outputs": [],
      "stateMutability": "nonpayable",
      "type": "function"
    },
    {
      "inputs": [
        {
          "internalType": "uint256",
          "name": "_tokenId",
          "type": "uint256"
        },
        {
          "internalType": "uint256",
          "name": "_lock_duration",
          "type": "uint256"
        }
      ],
      "name": "increase_unlock_time",
      "outputs": [],
      "stateMutability": "nonpayable",
      "type": "function"
    },
    {
      "inputs": [
        {
          "internalType": "address",
          "name": "_owner",
          "type": "address"
        },
        {
          "internalType": "address",
          "name": "_operator",
          "type": "address"
        }
      ],
      "name": "isApprovedForAll",
      "outputs": [
        {
          "internalType": "bool",
          "name": "",
          "type": "bool"
        }
      ],
      "stateMutability": "view",
      "type": "function"
    },
    {
      "inputs": [
        {
          "internalType": "address",
          "name": "_spender",
          "type": "address"
        },
        {
          "internalType": "uint256",
          "name": "_tokenId",
          "type": "uint256"
        }
      ],
      "name": "isApprovedOrOwner",
      "outputs": [
        {
          "internalType": "bool",
          "name": "",
          "type": "bool"
        }
      ],
      "stateMutability": "view",
      "type": "function"
    },
    {
      "inputs": [
        {
          "internalType": "uint256",
          "name": "",
          "type": "uint256"
        }
      ],
      "name": "locked",
      "outputs": [
        {
          "internalType": "int128",
          "name": "amount",
          "type": "int128"
        },
        {
          "internalType": "uint256",
          "name": "end",
          "type": "uint256"
        }
      ],
      "stateMutability": "view",
      "type": "function"
    },
    {
      "inputs": [
        {
          "internalType": "uint256",
          "name": "_tokenId",
          "type": "uint256"
        }
      ],
      "name": "locked__end",
      "outputs": [
        {
          "internalType": "uint256",
          "name": "",
          "type": "uint256"
        }
      ],
      "stateMutability": "view",
      "type": "function"
    },
    {
      "inputs": [],
      "name": "name",
      "outputs": [
        {
          "internalType": "string",
          "name": "",
          "type": "string"
        }
      ],
      "stateMutability": "view",
      "type": "function"
    },
    {
      "inputs": [
        {
          "internalType": "address",
          "name": "",
          "type": "address"
        }
      ],
      "name": "nonces",
      "outputs": [
        {
          "internalType": "uint256",
          "name": "",
          "type": "uint256"
        }
      ],
      "stateMutability": "view",
      "type": "function"
    },
    {
      "inputs": [
        {
          "internalType": "address",
          "name": "",
          "type": "address"
        }
      ],
      "name": "numCheckpoints",
      "outputs": [
        {
          "internalType": "uint32",
          "name": "",
          "type": "uint32"
        }
      ],
      "stateMutability": "view",
      "type": "function"
    },
    {
      "inputs": [],
      "name": "owner",
      "outputs": [
        {
          "internalType": "address",
          "name": "",
          "type": "address"
        }
      ],
      "stateMutability": "view",
      "type": "function"
    },
    {
      "inputs": [
        {
          "internalType": "uint256",
          "name": "_tokenId",
          "type": "uint256"
        }
      ],
      "name": "ownerOf",
      "outputs": [
        {
          "internalType": "address",
          "name": "",
          "type": "address"
        }
      ],
      "stateMutability": "view",
      "type": "function"
    },
    {
      "inputs": [
        {
          "internalType": "uint256",
          "name": "",
          "type": "uint256"
        }
      ],
      "name": "ownership_change",
      "outputs": [
        {
          "internalType": "uint256",
          "name": "",
          "type": "uint256"
        }
      ],
      "stateMutability": "view",
      "type": "function"
    },
    {
      "inputs": [
        {
          "internalType": "uint256",
          "name": "",
          "type": "uint256"
        }
      ],
      "name": "point_history",
      "outputs": [
        {
          "internalType": "int128",
          "name": "bias",
          "type": "int128"
        },
        {
          "internalType": "int128",
          "name": "slope",
          "type": "int128"
        },
        {
          "internalType": "uint256",
          "name": "ts",
          "type": "uint256"
        },
        {
          "internalType": "uint256",
          "name": "blk",
          "type": "uint256"
        }
      ],
      "stateMutability": "view",
      "type": "function"
    },
    {
      "inputs": [],
      "name": "renounceOwnership",
      "outputs": [],
      "stateMutability": "nonpayable",
      "type": "function"
    },
    {
      "inputs": [
        {
          "internalType": "address",
          "name": "_from",
          "type": "address"
        },
        {
          "internalType": "address",
          "name": "_to",
          "type": "address"
        },
        {
          "internalType": "uint256",
          "name": "_tokenId",
          "type": "uint256"
        }
      ],
      "name": "safeTransferFrom",
      "outputs": [],
      "stateMutability": "nonpayable",
      "type": "function"
    },
    {
      "inputs": [
        {
          "internalType": "address",
          "name": "_from",
          "type": "address"
        },
        {
          "internalType": "address",
          "name": "_to",
          "type": "address"
        },
        {
          "internalType": "uint256",
          "name": "_tokenId",
          "type": "uint256"
        },
        {
          "internalType": "bytes",
          "name": "_data",
          "type": "bytes"
        }
      ],
      "name": "safeTransferFrom",
      "outputs": [],
      "stateMutability": "nonpayable",
      "type": "function"
    },
    {
      "inputs": [
        {
          "internalType": "address",
          "name": "_operator",
          "type": "address"
        },
        {
          "internalType": "bool",
          "name": "_approved",
          "type": "bool"
        }
      ],
      "name": "setApprovalForAll",
      "outputs": [],
      "stateMutability": "nonpayable",
      "type": "function"
    },
    {
      "inputs": [
        {
          "internalType": "address",
          "name": "_proxy",
          "type": "address"
        }
      ],
      "name": "setArtProxy",
      "outputs": [],
      "stateMutability": "nonpayable",
      "type": "function"
    },
    {
      "inputs": [
        {
          "internalType": "address",
          "name": "_veStaking",
          "type": "address"
        }
      ],
      "name": "setVeStaking",
      "outputs": [],
      "stateMutability": "nonpayable",
      "type": "function"
    },
    {
      "inputs": [
        {
          "internalType": "address",
          "name": "_voter",
          "type": "address"
        }
      ],
      "name": "setVoter",
      "outputs": [],
      "stateMutability": "nonpayable",
      "type": "function"
    },
    {
      "inputs": [
        {
          "internalType": "uint256",
          "name": "",
          "type": "uint256"
        }
      ],
      "name": "slope_changes",
      "outputs": [
        {
          "internalType": "int128",
          "name": "",
          "type": "int128"
        }
      ],
      "stateMutability": "view",
      "type": "function"
    },
    {
      "inputs": [],
      "name": "supply",
      "outputs": [
        {
          "internalType": "uint256",
          "name": "",
          "type": "uint256"
        }
      ],
      "stateMutability": "view",
      "type": "function"
    },
    {
      "inputs": [
        {
          "internalType": "bytes4",
          "name": "_interfaceID",
          "type": "bytes4"
        }
      ],
      "name": "supportsInterface",
      "outputs": [
        {
          "internalType": "bool",
          "name": "",
          "type": "bool"
        }
      ],
      "stateMutability": "view",
      "type": "function"
    },
    {
      "inputs": [],
      "name": "symbol",
      "outputs": [
        {
          "internalType": "string",
          "name": "",
          "type": "string"
        }
      ],
      "stateMutability": "view",
      "type": "function"
    },
    {
      "inputs": [],
      "name": "token",
      "outputs": [
        {
          "internalType": "address",
          "name": "",
          "type": "address"
        }
      ],
      "stateMutability": "view",
      "type": "function"
    },
    {
      "inputs": [
        {
          "internalType": "address",
          "name": "_owner",
          "type": "address"
        },
        {
          "internalType": "uint256",
          "name": "_tokenIndex",
          "type": "uint256"
        }
      ],
      "name": "tokenOfOwnerByIndex",
      "outputs": [
        {
          "internalType": "uint256",
          "name": "",
          "type": "uint256"
        }
      ],
      "stateMutability": "view",
      "type": "function"
    },
    {
      "inputs": [
        {
          "internalType": "uint256",
          "name": "_tokenId",
          "type": "uint256"
        }
      ],
      "name": "tokenURI",
      "outputs": [
        {
          "internalType": "string",
          "name": "",
          "type": "string"
        }
      ],
      "stateMutability": "view",
      "type": "function"
    },
    {
      "inputs": [],
      "name": "totalSupply",
      "outputs": [
        {
          "internalType": "uint256",
          "name": "",
          "type": "uint256"
        }
      ],
      "stateMutability": "view",
      "type": "function"
    },
    {
      "inputs": [
        {
          "internalType": "uint256",
          "name": "_block",
          "type": "uint256"
        }
      ],
      "name": "totalSupplyAt",
      "outputs": [
        {
          "internalType": "uint256",
          "name": "",
          "type": "uint256"
        }
      ],
      "stateMutability": "view",
      "type": "function"
    },
    {
      "inputs": [
        {
          "internalType": "uint256",
          "name": "t",
          "type": "uint256"
        }
      ],
      "name": "totalSupplyAtT",
      "outputs": [
        {
          "internalType": "uint256",
          "name": "",
          "type": "uint256"
        }
      ],
      "stateMutability": "view",
      "type": "function"
    },
    {
      "inputs": [
        {
          "internalType": "address",
          "name": "_from",
          "type": "address"
        },
        {
          "internalType": "address",
          "name": "_to",
          "type": "address"
        },
        {
          "internalType": "uint256",
          "name": "_tokenId",
          "type": "uint256"
        }
      ],
      "name": "transferFrom",
      "outputs": [],
      "stateMutability": "nonpayable",
      "type": "function"
    },
    {
      "inputs": [
        {
          "internalType": "address",
          "name": "newOwner",
          "type": "address"
        }
      ],
      "name": "transferOwnership",
      "outputs": [],
      "stateMutability": "nonpayable",
      "type": "function"
    },
    {
      "inputs": [
        {
          "internalType": "uint256",
          "name": "",
          "type": "uint256"
        }
      ],
      "name": "user_point_epoch",
      "outputs": [
        {
          "internalType": "uint256",
          "name": "",
          "type": "uint256"
        }
      ],
      "stateMutability": "view",
      "type": "function"
    },
    {
      "inputs": [
        {
          "internalType": "uint256",
          "name": "",
          "type": "uint256"
        },
        {
          "internalType": "uint256",
          "name": "",
          "type": "uint256"
        }
      ],
      "name": "user_point_history",
      "outputs": [
        {
          "internalType": "int128",
          "name": "bias",
          "type": "int128"
        },
        {
          "internalType": "int128",
          "name": "slope",
          "type": "int128"
        },
        {
          "internalType": "uint256",
          "name": "ts",
          "type": "uint256"
        },
        {
          "internalType": "uint256",
          "name": "blk",
          "type": "uint256"
        }
      ],
      "stateMutability": "view",
      "type": "function"
    },
    {
      "inputs": [
        {
          "internalType": "uint256",
          "name": "_tokenId",
          "type": "uint256"
        },
        {
          "internalType": "uint256",
          "name": "_idx",
          "type": "uint256"
        }
      ],
      "name": "user_point_history__ts",
      "outputs": [
        {
          "internalType": "uint256",
          "name": "",
          "type": "uint256"
        }
      ],
      "stateMutability": "view",
      "type": "function"
    },
    {
      "inputs": [],
      "name": "veStaking",
      "outputs": [
        {
          "internalType": "address",
          "name": "",
          "type": "address"
        }
      ],
      "stateMutability": "view",
      "type": "function"
    },
    {
      "inputs": [],
      "name": "version",
      "outputs": [
        {
          "internalType": "string",
          "name": "",
          "type": "string"
        }
      ],
      "stateMutability": "view",
      "type": "function"
    },
    {
      "inputs": [
        {
          "internalType": "uint256",
          "name": "",
          "type": "uint256"
        }
      ],
      "name": "voted",
      "outputs": [
        {
          "internalType": "bool",
          "name": "",
          "type": "bool"
        }
      ],
      "stateMutability": "view",
      "type": "function"
    },
    {
      "inputs": [],
      "name": "voter",
      "outputs": [
        {
          "internalType": "address",
          "name": "",
          "type": "address"
        }
      ],
      "stateMutability": "view",
      "type": "function"
    },
    {
      "inputs": [
        {
          "internalType": "uint256",
          "name": "_tokenId",
          "type": "uint256"
        }
      ],
      "name": "voting",
      "outputs": [],
      "stateMutability": "nonpayable",
      "type": "function"
    },
    {
      "inputs": [
        {
          "internalType": "uint256",
          "name": "_tokenId",
          "type": "uint256"
        }
      ],
      "name": "withdraw",
      "outputs": [],
      "stateMutability": "nonpayable",
      "type": "function"
    }
  ],
  "bytecode": "0x60a034620001a557601f6200508638819003918201601f1916830191906001600160401b03831184841017620001aa578160609285926040958652833981010312620001a5576200005082620001c0565b6200006b826200006360208601620001c0565b9401620001c0565b60008054336001600160a01b0319808316821784558651979396939490926001600160a01b03929083167f8be0079c531659141344cd1fd0a4f28419497f9722a3daafe3b4186f6b6457e08980a38160019560ff19978789600754161760075560805233858854161787551683600254161760025516906003541617600355838052600460205280842043600282015582429101556301ffc9a760e01b8452600560205280842082848254161790556380ac58cd60e01b84528084208284825416179055635b5e139f60e01b8452832091825416179055600654907fddf252ad1be2c89b69c2b068fc378daa952ba7f163c4a11628f55a4df523b3ef823083838180a430908280a4614eb09081620001d68239608051818181610bdc015281816121e301528181613339015281816136af01526138a50152f35b600080fd5b634e487b7160e01b600052604160045260246000fd5b51906001600160a01b0382168203620001a55756fe6080604052600436101561001257600080fd5b60003560e01c806301ffc9a71461046d578063047fc9aa1461046857806306fdde03146103965780630758c7d814610463578063081812fc1461045e578063095ea7b3146104595780631376f3da1461045457806318160ddd1461044f5780631c984bc31461044a57806320606b701461044557806323b872dd1461044057806325a58b561461043b5780632943a490146104365780632e1a7d4d146104315780632e720f7d1461042c5780632f745c5914610427578063313ce567146104225780633a46b1a81461041d57806342842e0e14610418578063430c208114610413578063461f711c1461040e57806346c96aac146104095780634bc2a657146104045780634bf5d7e9146103ff57806354fd4d50146103fa5780635594a045146103f5578063587cde1e146103f05780635c19a95c146103eb5780635f5b0c32146103e65780636352211e146103e157806365fc3873146103dc5780636f548837146103d75780636fcfff45146103d257806370a08231146103cd5780637116c60c146103aa57806371197484146103c8578063715018a6146103c35780637ecebe00146103be57806382b5077f146103b95780638c2c9baf146103b45780638da5cb5b146103af5780638e539e8c146103aa5780638fbb38ff146103a5578063900cf0cf146103a057806391ddadf41461039b57806395d89b4114610396578063981b24d0146103915780639ab24eb01461038c578063a183af5214610387578063a22cb46514610382578063a4d855df1461037d578063b45a3c0e14610378578063b88d4fde14610373578063c1f0fb9f1461036e578063c2c4c5c114610369578063c3cda52014610364578063c87b56dd1461035f578063d1febfb91461035a578063d4e54c3b14610355578063e0514aba14610350578063e441135c1461034b578063e7a324dc14610346578063e7e242d414610341578063e985e9c51461033c578063ee99fe2814610337578063f1127ed814610332578063f2fde38b1461032d578063f8a0576314610328578063fc0c546a146103235763fd4a77f11461031e57600080fd5b612212565b6121cd565b61219e565b6120db565b61207e565b611fea565b611f8d565b611f6f565b611f34565b611f08565b611ee7565b611e7b565b611e1a565b611d08565b611aed565b611849565b61180b565b611782565b61174a565b611673565b6115cf565b611519565b6114f6565b6113a8565b610633565b611385565b611367565b611336565b6111de565b61130d565b6112ec565b6112c3565b611289565b61122b565b6111fc565b6111a4565b611164565b611138565b6110e8565b6110b4565b611097565b61105d565b611028565b610fff565b610fe3565b610f73565b610f28565b610eff565b610eba565b610e89565b610e4f565b610da0565b610d84565b610d3c565b610cf9565b610a00565b6109bd565b6109a2565b610987565b610917565b6108dc565b6108b8565b61084a565b6106fc565b6106c8565b610693565b6104d7565b610489565b6001600160e01b031981160361048457565b600080fd5b34610484576020366003190112610484576004356104a681610472565b63ffffffff60e01b166000526005602052602060ff604060002054166040519015158152f35b600091031261048457565b34610484576000366003190112610484576020601454604051908152f35b634e487b7160e01b600052604160045260246000fd5b67ffffffffffffffff811161051f57604052565b6104f5565b6040810190811067ffffffffffffffff82111761051f57604052565b6080810190811067ffffffffffffffff82111761051f57604052565b90601f8019910116810190811067ffffffffffffffff82111761051f57604052565b6040519061058b82610524565b565b6040519061058b82610540565b67ffffffffffffffff811161051f57601f01601f191660200190565b604051906105c382610524565b60058252641d9953919560da1b6020830152565b60005b8381106105ea5750506000910152565b81810151838201526020016105da565b90602091610613815180928185528580860191016105d7565b601f01601f1916010190565b9060206106309281815201906105fa565b90565b346104845760003660031901126104845761066361064f6105b6565b6040519182916020835260208301906105fa565b0390f35b600435906001600160a01b038216820361048457565b602435906001600160a01b038216820361048457565b346104845760403660031901126104845760206106ba6106b1610667565b6024359061446a565b63ffffffff60405191168152f35b3461048457602036600319011261048457600435600052600a602052602060018060a01b0360406000205416604051908152f35b3461048457604036600319011261048457610715610667565b6024356000818152600860205260408120549092906001600160a01b039081169081156108145780831692828414610810576107ae6107e192610762876000526008602052604060002090565b5416331460ff61079f336107888860018060a01b0316600052600b602052604060002090565b9060018060a01b0316600052602052604060002090565b54168115610808575b50612383565b6107c285600052600a602052604060002090565b80546001600160a01b0319166001600160a01b03909216919091179055565b7f8c5be1e5ebec7d5bd14f71427d1e84f3dd0314c0f7b2291e5b200ac8c7c3b9258480a480f35b9050386107a8565b8580fd5b8480fd5b634e487b7160e01b600052603260045260246000fd5b90633b9aca00811015610845576003020190600090565b610818565b34610484576040366003190112610484576024356004356000526010602052604060002090633b9aca00811015610484576108849161082e565b508054600182015460029092015460408051600f84810b8252608094851d900b602082015290810193909352606083015290f35b346104845760003660031901126104845760206108d44261433e565b604051908152f35b346104845760403660031901126104845760043560005260106020526020600161090c602435604060002061082e565b500154604051908152f35b346104845760003660031901126104845760206040517f8cad95687ba82c2ce50e74f7b754645e5117c3a5bec8151c0726d5857980a8668152f35b6060906003190112610484576001600160a01b0390600435828116810361048457916024359081168103610484579060443590565b34610484576109a061099836610952565b903392612446565b005b34610484576000366003190112610484576020604051438152f35b34610484576020366003190112610484576109d6610667565b6109de612253565b600380546001600160a01b0319166001600160a01b0392909216919091179055005b34610484576020806003193601126104845760043590600754600160ff8216036104845760ff1916600217600755610a40610a3b83336123a7565b61238a565b610a6d610a68610a64610a5d856000526015602052604060002090565b5460ff1690565b1590565b612412565b610a89610a84836000526011602052604060002090565b6122f7565b610a9882820151421015613d6b565b610aac610aa68251600f0b90565b600f0b90565b92610ab561057e565b93610add6000958681528686820152610ad8846000526011602052604060002090565b613182565b610b0d60145493610af6610af18487612810565b601455565b610afe61057e565b90878252878783015284612b46565b600354610b3090610b24906001600160a01b031681565b6001600160a01b031690565b803b156108105760405163ac6a2b5d60e01b8152600481018490529086908290602490829084905af18015610cc857610ce6575b50600354610b7c90610b24906001600160a01b031681565b803b1561081057604051631c4b774b60e01b8152600481018490529086908290602490829084905af18015610cc857610ccd575b5060405163a9059cbb60e01b815233600482015260248101829052918483604481896001600160a01b037f0000000000000000000000000000000000000000000000000000000000000000165af1948515610cc857600080516020614e5b83398151915295610c7594610c2b928992610c9b575b505061238a565b610c3481613db0565b6040805191825260208201839052429082015233907f02f25270a4d87bea75db541cdfe559334a275b4a233520ed6c0a2429667cca9490606090a282612810565b60408051928352602083019190915290a1610c98600160ff196007541617600755565b80f35b610cba9250803d10610cc1575b610cb2818361055c565b8101906131b4565b3880610c24565b503d610ca8565b612377565b80610cda610ce09261050b565b806104cc565b38610bb0565b80610cda610cf39261050b565b38610b64565b3461048457602036600319011261048457610d12610667565b610d1a612253565b600280546001600160a01b0319166001600160a01b0392909216919091179055005b34610484576040366003190112610484576001600160a01b03610d5d610667565b16600052600d60205260406000206024356000526020526020604060002054604051908152f35b3461048457600036600319011261048457602060405160128152f35b3461048457604036600319011261048457610db9610667565b6001610df660243592610dcc848261446a565b90838060a01b0316600052601760205260406000209063ffffffff16600052602052604060002090565b01805460009283925b828510610e1157604051848152602090f35b909192610e2e83610e2287856143af565b90549060031b1c613f06565b8101809111610e4a57610e419094612a3f565b93929190610dff565b612717565b3461048457610e5d36610952565b60405191602083019383851067ffffffffffffffff86111761051f576109a094604052600084526125a6565b34610484576040366003190112610484576020610eb0610ea7610667565b602435906123a7565b6040519015158152f35b3461048457602036600319011261048457600435600052600f6020526020610eef60406000205460108352604060002061082e565b505460801d60405190600f0b8152f35b34610484576000366003190112610484576001546040516001600160a01b039091168152602090f35b3461048457602036600319011261048457610f41610667565b610f49612253565b600154906001600160a01b03908183163303610484576001600160a01b0319909216911617600155005b3461048457600036600319011261048457610663604051610f9381610524565b600e81526d06d6f64653d74696d657374616d760941b60208201526040519182916020835260208301906105fa565b60405190610fcf82610524565b60058252640312e302e360dc1b6020830152565b346104845760003660031901126104845761066361064f610fc2565b34610484576000366003190112610484576002546040516001600160a01b039091168152602090f35b3461048457602036600319011261048457602061104b611046610667565b61435f565b6040516001600160a01b039091168152f35b3461048457602036600319011261048457611076610667565b6001600160a01b03811615611090575b6109a090336146ce565b5033611086565b346104845760003660031901126104845760206040516104008152f35b34610484576020366003190112610484576004356000526008602052602060018060a01b0360406000205416604051908152f35b3461048457604036600319011261048457600754600160ff8216036104845760ff19908116600217600755602090600161112733602435600435613998565b916007541617600755604051908152f35b3461048457602036600319011261048457600435600052600c6020526020604060002054604051908152f35b34610484576020366003190112610484576001600160a01b03611185610667565b166000526018602052602063ffffffff60406000205416604051908152f35b34610484576020366003190112610484576001600160a01b036111c5610667565b1660005260096020526020604060002054604051908152f35b346104845760203660031901126104845760206108d460043561433e565b346104845760203660031901126104845760043560005260136020526020604060002054600f0b604051908152f35b346104845760008060031936011261128657611245612253565b80546001600160a01b03198116825581906001600160a01b03167f8be0079c531659141344cd1fd0a4f28419497f9722a3daafe3b4186f6b6457e08280a380f35b80fd5b34610484576020366003190112610484576001600160a01b036112aa610667565b1660005260196020526020604060002054604051908152f35b34610484576000366003190112610484576003546040516001600160a01b039091168152602090f35b346104845760403660031901126104845760206108d4602435600435613fd8565b34610484576000366003190112610484576000546040516001600160a01b039091168152602090f35b34610484576020366003190112610484576004356000526015602052602060ff604060002054166040519015158152f35b34610484576000366003190112610484576020601254604051908152f35b3461048457600036600319011261048457602060405165ffffffffffff42168152f35b34610484576020366003190112610484576106636114506004356113ce4382111561238a565b61144a6012546113de81846141ac565b926113fb6113f6856000526004602052604060002090565b6129a5565b936000928110156114aa576113f66114156114259261272d565b6000526004602052604060002090565b60608501908151606082019384518203611460575b50505050505b604083015161275c565b9061422f565b6040519081529081906020820190565b6114a095509161148a604061147c6114909461149a9796612810565b92015160408a015190612810565b90612a0c565b9251905190612810565b90612a1f565b388080808061143a565b5060608401908151904382036114c3575b505050611440565b6114ee93506114d861149a926114e692612810565b61148a604088015142612810565b915143612810565b3880806114bb565b346104845760203660031901126104845760206108d4611514610667565b6143c7565b346104845760403660031901126104845760075460043560243560001960ff8416016104845760026115b39360ff19161760075561155a610a3b83336123a7565b8160005260116020526040600020916115ae60016040519461157b86610524565b8054600f0b865201546020850190815261159684151561238a565b6115a660008651600f0b136130cc565b514210613111565b6131c9565b6109a0600160ff196007541617600755565b8015150361048457565b34610484576040366003190112610484576115e8610667565b6024356115f4816115c5565b6001600160a01b038216916116349061160f3385141561238a565b33600052600b60205260406000209060018060a01b0316600052602052604060002090565b9015159060ff1981541660ff83161790556040519081527f17307eab39ab6107e8899845ad3d59bd9653f200f220920489ca2b5937696c3160203392a3005b346104845760403660031901126104845760075460043560001960ff8316016104845760026115b39260ff1916176007556116b1610a3b82336123a7565b8060005260116020526040600020906001604051926116cf84610524565b8054600f0b8452015490602083019182526117316117036116fe6116f56024354261275c565b62093a80900490565b6129dc565b9261171042825111613ca4565b61172960006117208751600f0b90565b600f0b13613cdf565b518311613d1f565b61174561173d4261273b565b83111561394c565b6133f7565b3461048457602036600319011261048457600435600052601160205260408060002060018154600f0b91015482519182526020820152f35b346104845760803660031901126104845761179b610667565b6117a361067d565b6064359167ffffffffffffffff83116104845736602384011215610484578260040135916117d08361059a565b926117de604051948561055c565b80845236602482870101116104845760208160009260246109a098018388013785010152604435916125a6565b34610484576020366003190112610484576001546001600160a01b03163303610484576004356000908152601560205260409020805460ff19169055005b3461048457600080600319360112611286576040519061186882610524565b80825280602080930152808260405161188081610524565b828152015261188d612969565b50611896612969565b50601254916118a361058d565b90828252828183015242604083015260609143838201529184611ace575b60408301918251928592844211611aa3575b9693906118e762093a8083959495046129dc565b9787985b60ff8a1061190b575b88610c98896119068a61141581601255565b612ab9565b611915899161274c565b9388878396428111600014611a625750610aa69661197361196c6119899461196761195f61198296611959429e8f925b86019b6119538d51600f0b90565b93612810565b9061298e565b9151600f0b90565b612a4e565b600f0b8d52565b8351600f0b612a93565b612a93565b600f0b8252565b81611998610aa68b51600f0b90565b12611a5a575b816119ad610aa68351600f0b90565b12611a52575b505082948383526119f7828901976119f089516119ea6119dc6119d68a80612810565b8b612a0c565b670de0b6b3a7640000900490565b9061275c565b895261272d565b99428503611a1e5750505050505050610c98929361190691439052908493388080806118f4565b611a469192939495969750611a41896119068d6000526004602052604060002090565b612a3f565b989592919094936118eb565b5287386119b3565b81895261199e565b96506119829061197361196c6119899461196761195f8c611959610aa6611a9d611a96846000526013602052604060002090565b54600f0b90565b98611945565b9250611ac8611abd611ab88588015143612810565b6129f4565b61149a835142612810565b926118d3565b9150611ae76113f6856000526004602052604060002090565b916118c1565b346104845760c036600319011261048457611b06610667565b606435906044359060243560ff841684036104845760a435611b4a7f7fffffffffffffffffffffffffffffff5d576e7357a4501ddfe92f46681b20a08211156145a9565b611c9a611b556105b6565b91611bc5611c63611c6f8551602080970120611b6f610fc2565b805190880120604080517f8cad95687ba82c2ce50e74f7b754645e5117c3a5bec8151c0726d5857980a866818b0190815260208101949094529083019190915246606083015230608083015293849060a0830190565b0393611bd9601f199586810183528261055c565b519020604080517fe48329057bfd03d55e49b547132e39cffd9c1820ad7b9d4c5307691425d15adf8982019081526001600160a01b038c1660208201529182018a9052606082018c9052919491611c3a81608084010384810183528261055c565b5190206040519384918983019687909160429261190160f01b8352600283015260228201520190565b0390810183528261055c565b5190206040519760843591899094939260ff6060936080840197845216602083015260408201520152565b856000968792838052039060015afa15610cc857611d03610c9893611cfb865193611cce60018060a01b03861615156145a9565b6001600160a01b038516600090815260196020526040902090815491611cf383612a3f565b90551461460c565b42111561466b565b6146ce565b34610484576020366003190112610484576004356000818152600860205260409020611d51906001600160a01b0390611d49905b546001600160a01b031690565b1615156122ab565b6000611d6a610a84836000526011602052604060002090565b600254611d8190610b24906001600160a01b031681565b611d8b4285613f06565b611d9e610aa660208501519451600f0b90565b94611dd66040519687958694859463dd9ec14960e01b8652600486019094939260609260808301968352602083015260408201520152565b03915afa8015610cc85761066391600091611df9575b506040519182918261061f565b611e14913d8091833e611e0c818361055c565b810190612318565b38611dec565b3461048457602036600319011261048457600435600052600460205260406000208054610663600260018401549301546040519383859460801d90600f0b85909493926060926080830196600f0b8352600f0b602083015260408201520152565b34610484576060366003190112610484576044356001600160a01b038116810361048457600754600160ff821603610484576001611ecd61066393600260ff1980951617600755602435600435613998565b916007541617600755604051918291829190602083019252565b346104845760403660031901126104845760206108d4602435600435613f06565b3461048457602036600319011261048457600435600052600f6020526020604060002054604051908152f35b346104845760003660031901126104845760206040517fe48329057bfd03d55e49b547132e39cffd9c1820ad7b9d4c5307691425d15adf8152f35b346104845760203660031901126104845760206108d4600435613fb2565b3461048457604036600319011261048457602060ff611fde611fad610667565b611fb561067d565b6001600160a01b039182166000908152600b865260408082209290931681526020919091522090565b54166040519015158152f35b3461048457604036600319011261048457600435602435600754600160ff8216036104845760029060ff191617600755600091808352601160205260408320916040519161203783610524565b8460018554600f0b95868652015460208501908152831561207a576115a66120639261206897136130cc565b6135b8565b610c98600160ff196007541617600755565b5080fd5b3461048457604036600319011261048457612097610667565b6024359063ffffffff82168203610484576001600160a01b0316600090815260176020908152604080832063ffffffff909416835292815291902054604051908152f35b34610484576020366003190112610484576120f4610667565b6120fc612253565b6001600160a01b03908116801561214a57600080546001600160a01b03198116831782559092167f8be0079c531659141344cd1fd0a4f28419497f9722a3daafe3b4186f6b6457e08380a380f35b60405162461bcd60e51b815260206004820152602660248201527f4f776e61626c653a206e6577206f776e657220697320746865207a65726f206160448201526564647265737360d01b6064820152608490fd5b346104845760203660031901126104845760043560005260116020526020600160406000200154604051908152f35b34610484576000366003190112610484576040517f00000000000000000000000000000000000000000000000000000000000000006001600160a01b03168152602090f35b34610484576020366003190112610484576001546001600160a01b03163303610484576004356000908152601560205260409020805460ff19166001179055005b6000546001600160a01b0316330361226757565b606460405162461bcd60e51b815260206004820152602060248201527f4f776e61626c653a2063616c6c6572206973206e6f7420746865206f776e65726044820152fd5b156122b257565b60405162461bcd60e51b815260206004820152601b60248201527f517565727920666f72206e6f6e6578697374656e7420746f6b656e00000000006044820152606490fd5b9060405161230481610524565b6020600182948054600f0b84520154910152565b6020818303126104845780519067ffffffffffffffff8211610484570181601f8201121561048457805161234b8161059a565b92612359604051948561055c565b818452602082840101116104845761063091602080850191016105d7565b6040513d6000823e3d90fd5b1561048457565b1561239157565b634e487b7160e01b600052600160045260246000fd5b600091825260086020908152604080842054600a8352818520546001600160a01b03918216808752600b8552838720958316808852959094529190942091831493169091149060ff90541690821561240a575b508115612405575090565b905090565b9150386123fa565b1561241957565b60405162461bcd60e51b81526020600482015260056024820152641d9bdd195960da1b6044820152606490fd5b9092919261246f84600094818652601560205261246a60ff60408820541615612412565b6123a7565b1561252c577fddf252ad1be2c89b69c2b068fc378daa952ba7f163c4a11628f55a4df523b3ef90848452600860205260018060a01b03906124f2866124e384604089205416966124c386821680991461238a565b828952600a6020526040892086815416612518575b50611046838261281d565b6124ec8461435f565b90614bc6565b6124fc8682612769565b4361251187600052600c602052604060002090565b55169280a4565b80546001600160a01b0319169055386124d8565b8280fd5b90816020910312610484575161063081610472565b6001600160a01b039182168152911660208201526040810191909152608060608201819052610630929101906105fa565b3d156125a1573d906125878261059a565b91612595604051938461055c565b82523d6000602084013e565b606090565b929190916125b633838587612446565b823b6125c3575b50505050565b6125eb926020926000604051809681958294630a85bd0160e11b9a8b85523360048601612545565b03926001600160a01b03165af1600091816126e7575b5061267b5761260e612576565b805190816126765760405162461bcd60e51b815260206004820152603260248201527f4552433732313a207472616e7366657220746f206e6f6e20455243373231526560448201527131b2b4bb32b91034b6b83632b6b2b73a32b960711b6064820152608490fd5b602001fd5b6001600160e01b0319160361269357388080806125bd565b60405162461bcd60e51b815260206004820152602660248201527f4552433732313a2045524337323152656365697665722072656a656374656420604482015265746f6b656e7360d01b6064820152608490fd5b61270991925060203d8111612710575b612701818361055c565b810190612530565b9038612601565b503d6126f7565b634e487b7160e01b600052601160045260246000fd5b9060018201809211610e4a57565b906303c267008201809211610e4a57565b9062093a808201809211610e4a57565b91908201809211610e4a57565b6127f391600081815260209060088252600e60018060a01b03926040936127958186862054161561238a565b8584526008825284842080546001600160a01b0319166001600160a01b03891617905586168352600981528383205494600d825284842086855282528085852055835252205560018060a01b03166000526009602052604060002090565b6127fd815461272d565b9055565b600019810191908211610e4a57565b91908203918211610e4a57565b6000828152600860205260408120546001600160a01b03838116916128449116821461238a565b83825260086020526040822080546001600160a01b03191690558152600960205260408120546000198101908111610e4a57838261288f6128f496600052600e602052604060002090565b548381036128fe57506001600160a01b0385166000908152600d602052604090206128d9936128c8915b90600052602052604060002090565b55600052600e602052604060002090565b556001600160a01b0316600090815260096020526040902090565b6127fd8154612801565b836128c89161294b6129296128d9976128b98b60018060a01b0316600052600d602052604060002090565b54806128c8846128b98d60018060a01b0316600052600d602052604060002090565b556001600160a01b0387166000908152600d602052604090206128b9565b6040519061297682610540565b60006060838281528260208201528260408201520152565b90600f0b90600f0b029081600f0b918203610e4a57565b906040516129b281610540565b606060028294805480600f0b855260801d600f0b6020850152600181015460408501520154910152565b9062093a8091828102928184041490151715610e4a57565b90670de0b6b3a76400009180830292830403610e4a57565b81810292918115918404141715610e4a57565b8115612a29570490565b634e487b7160e01b600052601260045260246000fd5b6000198114610e4a5760010190565b600f91820b910b039060016001607f1b0319821260016001607f1b03831317610e4a57565b600f0b9060016001607f1b03821360016001607f1b0319831217610e4a57565b90600f0b90600f0b019060016001607f1b0319821260016001607f1b03831317610e4a57565b906060600291612ae48151600f0b85906001600160801b0319825416906001600160801b0316179055565b602081015184546001600160801b031660809190911b6fffffffffffffffffffffffffffffffff1916178455604081015160018501550151910155565b9190612b305761058b91612ab9565b634e487b7160e01b600052600060045260246000fd5b9091612b50612969565b91612b59612969565b9260009182601254908215159485612f87575b612b7461058d565b9560008752602093600085890152426040890152606097438982015281612f6a575b85604082018051906000918c814211612f4d575b612bbd62093a80839896959498046129dc565b966000975b60ff8910612e0e575b5050505050612bfe935090611906918d8b87612be685601255565b612d65575b5050506000526004602052604060002090565b612c0e575b505050505050505050565b82612c9197612c8c968280612c979d019542875111612d06575b5050500191825190428211612ca5575b5050505050612c5a612c5482600052600f602052604060002090565b5461272d565b9283612c7083600052600f602052604060002090565b5542604087015243908601526000526010602052604060002090565b61082e565b90612b21565b388080808080808080612c03565b5110612cb3575b8080612c38565b612cd0612ce291612cca612cfe958b0151600f0b90565b90612a4e565b91516000526013602052604060002090565b906001600160801b0319825416906001600160801b0316179055565b388080612cac565b612d19612d1f92612d46940151600f0b90565b90612a93565b80848d81860151895114612d4e575b505050612ce286516000526013602052604060002090565b388281612c28565b0151612d5d9250600f0b612cca565b38848d612d2e565b612db5612dbf91612cca61195f85612dae612da7612d98612d8c8b612dc69b0151600f0b90565b878c0151600f0b612cca565b998d019961197d8b51600f0b90565b600f0b8952565b51600f0b90565b8651600f0b612a93565b600f0b8552565b6000612dd6610aa68351600f0b90565b12612e04575b506000612ded610aa68551600f0b90565b12612dfb575b878d8b612beb565b60008352612df3565b6000905238612ddc565b612e179061274c565b6000939042811115612f195750612e58611982610aa695611973612e518c61196761195f8d611959429d8e9286019b6119538d51600f0b90565b600f0b8c52565b6000612e68610aa68a51600f0b90565b12612f10575b6000612e7e610aa68351600f0b90565b12612f06575b50612eb28392848352880196612eab88516119ea6119dc612ea58980612810565b8a612a0c565b885261272d565b97428403612ed857505050505050612bfe926119069143905290508638808c8180612bcb565b612efa91929394959650611a41886119068b6000526004602052604060002090565b96949392908e91612bc2565b6000905238612e84565b60008852612e6e565b9350612e5861198287611973612e518c61196761195f8b611959610aa6611a9d611a96846000526013602052604060002090565b612f63919350611ab8611abd9187015143612810565b918c612baa565b50612f826113f6826000526004602052604060002090565b612b96565b602089018981514210806130b6575b613075575b508789602082019442865111908161305e575b5061300e575b5050612fce611a9682516000526013602052604060002090565b92519081612fde575b5050612b6c565b519091508103612ff25750805b3880612fd7565b611a96613009916000526013602052604060002090565b612feb565b61304261305091612dae602061303861302b6130579751600f0b90565b6303c2670090600f0b0590565b600f0b9201918252565b611959610aa6428851612810565b600f0b8a52565b8789612fb4565b905061306e610aa68451600f0b90565b1338612fae565b6130a961309b61308c61302b6130b09451600f0b90565b600f0b60208a01908152612dae565b611959610aa6428651612810565b600f0b8752565b89612f9b565b50836130c6610aa68351600f0b90565b13612f96565b156130d357565b60405162461bcd60e51b8152602060048201526016602482015275139bc8195e1a5cdd1a5b99c81b1bd8dac8199bdd5b9960521b6044820152606490fd5b1561311857565b60405162461bcd60e51b8152602060048201526024808201527f43616e6e6f742061646420746f2065787069726564206c6f636b2e20576974686044820152636472617760e01b6064820152608490fd5b6040519061317682610524565b60006020838281520152565b9060206001916131ad8151600f0b85906001600160801b0319825416906001600160801b0316179055565b0151910155565b908160209103126104845751610630816115c5565b916014546131da610af1848361275c565b6132596131e5613169565b61324a6131f38551600f0b90565b9461320c6020820196875160208601528490600f0b9052565b61322161198288600f0b61197d8451600f0b90565b61323981610ad88a6000526011602052604060002090565b6132434289613f06565b9288612b46565b6132544287613f06565b612810565b801515806133ef575b156133e95760035461327e90610b24906001600160a01b031681565b803b15610484576040516330ee161b60e11b81526004810187905260248101929092526000908290604490829084905af18015610cc8576133d6575b505b82613305575b50613300600080516020614e3b8339815191529151936040519182913395429184606091949392608082019582526020820152600260408201520152565b0390a3565b6040516323b872dd60e01b815233600482015230602482015260448101849052909160208260648160006001600160a01b037f0000000000000000000000000000000000000000000000000000000000000000165af18015610cc857600080516020614e3b83398151915293613396600080516020614e5b83398151915292613300956000916133b8575b5061238a565b6133a0868261275c565b60408051928352602083019190915290a191506132c2565b6133d0915060203d8111610cc157610cb2818361055c565b38613390565b80610cda6133e39261050b565b386132ba565b506132bc565b506001613262565b91613475613403613169565b9161340f8151600f0b90565b936134286020830195865160208701528590600f0b9052565b61344561343e6134398451600f0b90565b612a73565b600f0b8352565b806135b0575b5061346481610ad8876000526011602052604060002090565b61346e4286613f06565b9285612b46565b6134896134824285613f06565b9182612810565b90811515806135a8575b1561353957506003546134b090610b24906001600160a01b031681565b803b15610484576040516330ee161b60e11b81526004810185905260248101929092526000908290604490829084905af18015610cc857613526575b505b516040805192835260006020840152600390830152426060830152903390600080516020614e3b833981519152908060808101613300565b80610cda6135339261050b565b386134ec565b60035490915061355390610b24906001600160a01b031681565b803b1561048457604051636d69d55b60e11b81526004810185905260248101929092526000908290604490829084905af18015610cc857613595575b506134ee565b80610cda6135a29261050b565b3861358f565b506000613493565b84523861344b565b916014546135c9610af1848361275c565b6135d46131e5613169565b80151580613746575b15613740576003546135f990610b24906001600160a01b031681565b803b15610484576040516330ee161b60e11b81526004810187905260248101929092526000908290604490829084905af18015610cc85761372d575b505b8261367b575b50613300600080516020614e3b8339815191529151936040519182913395429184606091949392608082019582526020820152600060408201520152565b6040516323b872dd60e01b815233600482015230602482015260448101849052909160208260648160006001600160a01b037f0000000000000000000000000000000000000000000000000000000000000000165af18015610cc857600080516020614e3b8339815191529361370b600080516020614e5b83398151915292613300956000916133b8575061238a565b613715868261275c565b60408051928352602083019190915290a1915061363d565b80610cda61373a9261050b565b38613635565b50613637565b5060016135dd565b929190916137ca60145491613766610af1868561275c565b61324a613771613169565b9161377d8151600f0b90565b956137966020830197885160208701528590600f0b9052565b6137ab61343e89600f0b61197d8551600f0b90565b80613944575b5061323981610ad88a6000526011602052604060002090565b8015158061393c575b15613936576003546137ef90610b24906001600160a01b031681565b803b15610484576040516330ee161b60e11b81526004810187905260248101929092526000908290604490829084905af18015610cc857613923575b505b82613871575b50613300600080516020614e3b8339815191529151936040519182913395429184606091949392608082019582526020820152600160408201520152565b6040516323b872dd60e01b815233600482015230602482015260448101849052909160208260648160006001600160a01b037f0000000000000000000000000000000000000000000000000000000000000000165af18015610cc857600080516020614e3b83398151915293613901600080516020614e5b83398151915292613300956000916133b8575061238a565b61390b868261275c565b60408051928352602083019190915290a19150613833565b80610cda6139309261050b565b3861382b565b5061382d565b5060016137d3565b8652386137b1565b1561395357565b60405162461bcd60e51b815260206004820152601e60248201527f566f74696e67206c6f636b2063616e2062652032207965617273206d617800006044820152606490fd5b90420190814211610e4a5762093a80809204828102928184041490151715610e4a5780156104845742821115613a1f57610630916139e06139d84261273b565b82111561394c565b6139f36139ee600654612a3f565b600655565b613a006006548095613a73565b50613a18610a84856000526011602052604060002090565b918461374e565b60405162461bcd60e51b815260206004820152602660248201527f43616e206f6e6c79206c6f636b20756e74696c2074696d6520696e207468652060448201526566757475726560d01b6064820152608490fd5b6001600160a01b0381811691908390613a8d84151561238a565b613a968361435f565b90811615158080613c9b575b613add575b5050613ab291612769565b60007fddf252ad1be2c89b69c2b068fc378daa952ba7f163c4a11628f55a4df523b3ef8180a4600190565b613ae8575b80613aa7565b6001600160a01b0381166000908152601860205260409020909150613b12905b5463ffffffff1690565b63ffffffff811615613c62576001600160a01b0382166000908152601760205260409020600190613b5b905b613b4784614383565b63ffffffff16600052602052604060002090565b01908592915b600180613b9e613b7086614de5565b6001600160a01b03871660009081526017602052604090205b9063ffffffff16600052602052604060002090565b0191613bb7610400613bb0835461272d565b1115614a54565b6000825b613c18575b50505091613bfd613be1613c1293613bdc87613ab29997614a05565b614a3f565b6001600160a01b03909216600090815260186020526040902090565b9063ffffffff1663ffffffff19825416179055565b91613ae2565b9091929394958254821015613c59575080611a41613c46613c3c613c4c94866143af565b90549060031b1c90565b86614a05565b9082918996959493613bbb565b95949392613bc0565b6001600160a01b0382166000908152601760205260409020600190613c91905b60008052602052604060002090565b0190859291613b61565b50821515613aa2565b15613cab57565b60405162461bcd60e51b815260206004820152600c60248201526b131bd8dac8195e1c1a5c995960a21b6044820152606490fd5b15613ce657565b60405162461bcd60e51b8152602060048201526011602482015270139bdd1a1a5b99c81a5cc81b1bd8dad959607a1b6044820152606490fd5b15613d2657565b60405162461bcd60e51b815260206004820152601f60248201527f43616e206f6e6c7920696e637265617365206c6f636b206475726174696f6e006044820152606490fd5b15613d7257565b60405162461bcd60e51b8152602060048201526016602482015275546865206c6f636b206469646e27742065787069726560501b6044820152606490fd5b613dba81336123a7565b15613ec2576000818152600860205260408120546001600160a01b0390811690811561252c573390613df6856000526008602052604060002090565b54161460ff613e1b336107888560018060a01b0316600052600b602052604060002090565b54168115613eba575b501561207a57613e51613e4184600052600a602052604060002090565b80546001600160a01b0319169055565b8282827f8c5be1e5ebec7d5bd14f71427d1e84f3dd0314c0f7b2291e5b200ac8c7c3b9258280a4613e8a83613e858361435f565b614aac565b613e94833361281d565b7fddf252ad1be2c89b69c2b068fc378daa952ba7f163c4a11628f55a4df523b3ef8280a4565b905038613e24565b606460405162461bcd60e51b815260206004820152602060248201527f63616c6c6572206973206e6f74206f776e6572206e6f7220617070726f7665646044820152fd5b6000818152600f6020526040812054909181613f23575050905090565b613f4491612c8c613f3e926000526010602052604060002090565b506129a5565b6020810151600f0b91604082015193818582039512818612811691861390151617610e4a57613f8d61343e613f83610aa69561063097600f0b9061298e565b8451600f0b612a4e565b80613f998351600f0b90565b600f0b12613faa575b5051600f0b90565b815238613fa2565b80600052600c6020526040600020544314613fd257610630904290613f06565b50600090565b613fe44383111561238a565b600090613ffb81600052600f602052604060002090565b5482905b60808210614137575b50506119826140c8614032613f3e6140d29695612c8c612dae966000526010602052604060002090565b936012549061404182826141ac565b6140586113f6826000526004602052604060002090565b92811015614113576113f661141561406f9261272d565b9061409660406140886060850151606087015190612810565b930151604085015190612810565b905b604084015193836140ea575b50505050611959610aa66140bc6020880151600f0b90565b92604088015190612810565b8351600f0b612a4e565b6000600f82900b12613fd2576001600160801b031690565b6119ea9261148a61410a969593606061410594015190612810565b612a1f565b388080806140a4565b50614122606083015143612810565b90614131604084015142612810565b90614098565b9092818110156141a65761415c614156614151848461275c565b61272d565b60011c90565b9085600261417884612c8c886000526010602052604060002090565b50015411614191575061418b9093612a3f565b90613fff565b9391506141a061418b91612801565b91612a3f565b92614008565b60009182915b608083106141c1575b50505090565b9091928281101561422957828101808211610e4a576001808201809211610e4a571c908260026141fb846000526004602052604060002090565b015411614214575061420d9093612a3f565b91906141b2565b93925061422361420d91612801565b92612a3f565b926141bb565b90604082016142456116fe825162093a80900490565b906000915b60ff8310614292575b5050505061427d61427d826000614271610aa66106309651600f0b90565b126142895751600f0b90565b6001600160801b031690565b60008152612dae565b61429b9061274c565b60009290808581111561431f57505083925b60208601906142e56142de6142d46142c68551600f0b90565b611959610aa689518b612810565b8951600f0b612a4e565b600f0b8852565b858514614318578161430361430a9261197d614312969551600f0b90565b600f0b9052565b838352612a3f565b9161424a565b5050614253565b614339919450611a96906000526013602052604060002090565b6142ad565b61063090601254600052600460205261435a60406000206129a5565b61422f565b6001600160a01b038181166000908152601660205260409020541680612405575090565b63ffffffff9081166000190191908211610e4a57565b63ffffffff9182169082160391908211610e4a57565b80548210156108455760005260206000200190600090565b6001600160a01b03811660009081526018602052604090205463ffffffff16908115614463576001600160a01b0316600090815260176020526040902060019161441591613b479091614383565b0160009081908054905b81831061442c5750505090565b90919261444961443c85846143af565b9054429160031b1c613f06565b8101809111610e4a5761445c9093612a3f565b919061441f565b5050600090565b6001600160a01b038116600090815260186020526040902061448b90613b08565b9163ffffffff80841615614594576001600160a01b038316600090815260176020526040902082906144c090613b4787614383565b54111561459d576001600160a01b038316600090815260176020526040902082906144ea90613c82565b54116145945791906144fd600094614383565b8385168482161161450f575050505090565b61453161452b61451f8784614399565b60011c637fffffff1690565b82614399565b948561455381613b898760018060a01b03166000526017602052604060002090565b54848103614565575050505050505090565b9380959697939410600014614580575050935b9291906144fd565b9095925061458e9150614383565b90614578565b50505050600090565b50505061063090614383565b156145b057565b60405162461bcd60e51b815260206004820152602e60248201527f566f74696e67457363726f773a3a64656c656761746542795369673a20696e7660448201526d616c6964207369676e617475726560901b6064820152608490fd5b1561461357565b60405162461bcd60e51b815260206004820152602a60248201527f566f74696e67457363726f773a3a64656c656761746542795369673a20696e76604482015269616c6964206e6f6e636560b01b6064820152608490fd5b1561467257565b60405162461bcd60e51b815260206004820152602e60248201527f566f74696e67457363726f773a3a64656c656761746542795369673a2073696760448201526d1b985d1d5c9948195e1c1a5c995960921b6064820152608490fd5b91906146d98361435f565b6001600160a01b03848116600081815260166020526040812080546001600160a01b031916868516179055929091848116928282168481837f3134e8a2e6d97e929a7e54011ea5485d7d196dd5f0ba4d4ef95803e8e3fc257f8980a4848103614748575b505050505050509050565b6148d1575b50505061475f575b808080808061473d565b6001600160a01b038216600090815260186020526040902061478090613b08565b9063ffffffff8216156148a6576001600160a01b03831660009081526017602052604090206001906147b6905b613b4785614383565b01905b600190816147e66147c987614de5565b6001600160a01b0388166000908152601760205260409020613b89565b6001600160a01b0389166000908152600960205260409020910192905493614815610400613bb087845461275c565b82825b614878575b5050505b8281106148455750505061483d929350613be1613bfd91614a3f565b803880614755565b80611a4161486c614873936128b98b60018060a01b0316600052600d602052604060002090565b5484614a05565b614821565b81548110156148a15780611a41614895613c3c61489b94866143af565b87614a05565b82614818565b61481d565b6001600160a01b03831660009081526017602052604090206001906148ca90613c82565b01906147b9565b6001600160a01b03831660009081526018602052604090206148f290613b08565b9163ffffffff8316156149da576001600160a01b038416600090815260176020526040902060019061492790613b4786614383565b01915b6001918261495761493a88614de5565b6001600160a01b0389166000908152601760205260409020613b89565b019188845b61497f575b50505050505090613bfd613be161497793614a3f565b38808061474d565b85548110156149d55780614999613c3c6149bf93896143af565b83856149b2611d3c846000526008602052604060002090565b16036149c5575b50612a3f565b8461495c565b6149cf9086614a05565b386149b9565b614961565b6001600160a01b03841660009081526017602052604090206001906149fe90613c82565b019161492a565b80546801000000000000000081101561051f57614a27916001820181556143af565b819291549060031b91821b91600019901b1916179055565b90600163ffffffff80931601918211610e4a57565b15614a5b57565b60405162461bcd60e51b815260206004820152602360248201527f64737452657020776f756c64206861766520746f6f206d616e7920746f6b656e60448201526249647360e81b6064820152608490fd5b906001600160a01b03821615158080614bbd575b614ac957505050565b614ad1575050565b6001600160a01b0382166000908152601860205260409020614af290613b08565b9063ffffffff821615614b92576001600160a01b0383166000908152601760205260409020600190614b23906147ad565b01905b60019081614b366147c987614de5565b01906000835b614b56575b505050505090613bfd613be161058b93614a3f565b8454811015614b8d5780614b70613c3c614b7d93886143af565b838103614b835750612a3f565b83614b3c565b6149cf9085614a05565b614b41565b6001600160a01b0383166000908152601760205260409020600190614bb690613c82565b0190614b26565b50811515614ac0565b9091906001600160a01b03808416919081168083141580614ddc575b614bee575b5050505050565b614cf0575b50614c01575b808080614be7565b6001600160a01b0382166000908152601860205260409020614c2290613b08565b9063ffffffff821615614cc6576001600160a01b0383166000908152601760205260409020600190614c53906147ad565b015b600180614c646147c987614de5565b0191614c76610400613bb0835461272d565b6000825b614c9e575b505050614c979392613bdc613bfd93613be193614a05565b3880614bf9565b8154811015614cc15780611a41613c46613c3c614cbb94866143af565b82614c7a565b614c7f565b6001600160a01b0383166000908152601760205260409020600190614cea90613c82565b01614c55565b6001600160a01b0381166000908152601860205260409020614d1190613b08565b63ffffffff811615614db2576001600160a01b0382166000908152601760205260409020600190614d4190613b3e565b015b600180614d52613b7086614de5565b016000825b614d76575b5050505090613bfd613be1614d7093614a3f565b38614bf3565b8354811015614dad5780614d90613c3c614d9d93876143af565b898103614da35750612a3f565b82614d57565b6149cf9084614a05565b614d5c565b6001600160a01b0382166000908152601760205260409020600190614dd690613c82565b01614d43565b50831515614be2565b6001600160a01b031660009081526018602052604090205463ffffffff1680151580614e1a575b156106305761063090614383565b5060176020526040600020614e334291613b4784614383565b5414614e0c56feff04ccafc360e16b67d682d17bd9503c4c6b9a131f6be6325762dc9ffc7de6245e2aa66efd74cce82b21852e317e5490d9ecc9e6bb953ae24d90851258cc2f5ca2646970667358221220638d73cb54ab753dc08525c89585520232da38f92af8dedc8a54147d008abe5464736f6c63430008130033",
  "linkReferences": {},
  "deployedLinkReferences": {}
}