{
  "_format": "hh-sol-artifact-1",
  "contractName": "VotingEscrow",
  "sourceName": "contracts/ve/VotingEscrow.sol",
  "abi": [
    {
      "inputs": [
        {
          "internalType": "address",
          "name": "token_addr",
          "type": "address"
        },
        {
          "internalType": "address",
          "name": "art_proxy",
          "type": "address"
        },
        {
          "internalType": "address",
          "name": "_veStaking",
          "type": "address"
        }
      ],
      "stateMutability": "nonpayable",
      "type": "constructor"
    },
    {
      "anonymous": false,
      "inputs": [
        {
          "indexed": true,
          "internalType": "address",
          "name": "owner",
          "type": "address"
        },
        {
          "indexed": true,
          "internalType": "address",
          "name": "approved",
          "type": "address"
        },
        {
          "indexed": true,
          "internalType": "uint256",
          "name": "tokenId",
          "type": "uint256"
        }
      ],
      "name": "Approval",
      "type": "event"
    },
    {
      "anonymous": false,
      "inputs": [
        {
          "indexed": true,
          "internalType": "address",
          "name": "owner",
          "type": "address"
        },
        {
          "indexed": true,
          "internalType": "address",
          "name": "operator",
          "type": "address"
        },
        {
          "indexed": false,
          "internalType": "bool",
          "name": "approved",
          "type": "bool"
        }
      ],
      "name": "ApprovalForAll",
      "type": "event"
    },
    {
      "anonymous": false,
      "inputs": [
        {
          "indexed": true,
          "internalType": "address",
          "name": "delegator",
          "type": "address"
        },
        {
          "indexed": true,
          "internalType": "address",
          "name": "fromDelegate",
          "type": "address"
        },
        {
          "indexed": true,
          "internalType": "address",
          "name": "toDelegate",
          "type": "address"
        }
      ],
      "name": "DelegateChanged",
      "type": "event"
    },
    {
      "anonymous": false,
      "inputs": [
        {
          "indexed": true,
          "internalType": "address",
          "name": "delegate",
          "type": "address"
        },
        {
          "indexed": false,
          "internalType": "uint256",
          "name": "previousBalance",
          "type": "uint256"
        },
        {
          "indexed": false,
          "internalType": "uint256",
          "name": "newBalance",
          "type": "uint256"
        }
      ],
      "name": "DelegateVotesChanged",
      "type": "event"
    },
    {
      "anonymous": false,
      "inputs": [
        {
          "indexed": true,
          "internalType": "address",
          "name": "provider",
          "type": "address"
        },
        {
          "indexed": false,
          "internalType": "uint256",
          "name": "tokenId",
          "type": "uint256"
        },
        {
          "indexed": false,
          "internalType": "uint256",
          "name": "value",
          "type": "uint256"
        },
        {
          "indexed": true,
          "internalType": "uint256",
          "name": "locktime",
          "type": "uint256"
        },
        {
          "indexed": false,
          "internalType": "enum VotingEscrow.DepositType",
          "name": "deposit_type",
          "type": "uint8"
        },
        {
          "indexed": false,
          "internalType": "uint256",
          "name": "ts",
          "type": "uint256"
        }
      ],
      "name": "Deposit",
      "type": "event"
    },
    {
      "anonymous": false,
      "inputs": [
        {
          "indexed": false,
          "internalType": "uint256",
          "name": "prevSupply",
          "type": "uint256"
        },
        {
          "indexed": false,
          "internalType": "uint256",
          "name": "supply",
          "type": "uint256"
        }
      ],
      "name": "Supply",
      "type": "event"
    },
    {
      "anonymous": false,
      "inputs": [
        {
          "indexed": true,
          "internalType": "address",
          "name": "from",
          "type": "address"
        },
        {
          "indexed": true,
          "internalType": "address",
          "name": "to",
          "type": "address"
        },
        {
          "indexed": true,
          "internalType": "uint256",
          "name": "tokenId",
          "type": "uint256"
        }
      ],
      "name": "Transfer",
      "type": "event"
    },
    {
      "anonymous": false,
      "inputs": [
        {
          "indexed": true,
          "internalType": "address",
          "name": "provider",
          "type": "address"
        },
        {
          "indexed": false,
          "internalType": "uint256",
          "name": "tokenId",
          "type": "uint256"
        },
        {
          "indexed": false,
          "internalType": "uint256",
          "name": "value",
          "type": "uint256"
        },
        {
          "indexed": false,
          "internalType": "uint256",
          "name": "ts",
          "type": "uint256"
        }
      ],
      "name": "Withdraw",
      "type": "event"
    },
    {
      "inputs": [],
      "name": "CLOCK_MODE",
      "outputs": [
        {
          "internalType": "string",
          "name": "",
          "type": "string"
        }
      ],
      "stateMutability": "pure",
      "type": "function"
    },
    {
      "inputs": [],
      "name": "DELEGATION_TYPEHASH",
      "outputs": [
        {
          "internalType": "bytes32",
          "name": "",
          "type": "bytes32"
        }
      ],
      "stateMutability": "view",
      "type": "function"
    },
    {
      "inputs": [],
      "name": "DOMAIN_TYPEHASH",
      "outputs": [
        {
          "internalType": "bytes32",
          "name": "",
          "type": "bytes32"
        }
      ],
      "stateMutability": "view",
      "type": "function"
    },
    {
      "inputs": [],
      "name": "MAX_DELEGATES",
      "outputs": [
        {
          "internalType": "uint256",
          "name": "",
          "type": "uint256"
        }
      ],
      "stateMutability": "view",
      "type": "function"
    },
    {
      "inputs": [
        {
          "internalType": "uint256",
          "name": "_tokenId",
          "type": "uint256"
        }
      ],
      "name": "abstain",
      "outputs": [],
      "stateMutability": "nonpayable",
      "type": "function"
    },
    {
      "inputs": [
        {
          "internalType": "address",
          "name": "_approved",
          "type": "address"
        },
        {
          "internalType": "uint256",
          "name": "_tokenId",
          "type": "uint256"
        }
      ],
      "name": "approve",
      "outputs": [],
      "stateMutability": "nonpayable",
      "type": "function"
    },
    {
      "inputs": [],
      "name": "artProxy",
      "outputs": [
        {
          "internalType": "address",
          "name": "",
          "type": "address"
        }
      ],
      "stateMutability": "view",
      "type": "function"
    },
    {
      "inputs": [
        {
          "internalType": "address",
          "name": "_owner",
          "type": "address"
        }
      ],
      "name": "balanceOf",
      "outputs": [
        {
          "internalType": "uint256",
          "name": "",
          "type": "uint256"
        }
      ],
      "stateMutability": "view",
      "type": "function"
    },
    {
      "inputs": [
        {
          "internalType": "uint256",
          "name": "_tokenId",
          "type": "uint256"
        },
        {
          "internalType": "uint256",
          "name": "_block",
          "type": "uint256"
        }
      ],
      "name": "balanceOfAtNFT",
      "outputs": [
        {
          "internalType": "uint256",
          "name": "",
          "type": "uint256"
        }
      ],
      "stateMutability": "view",
      "type": "function"
    },
    {
      "inputs": [
        {
          "internalType": "uint256",
          "name": "_tokenId",
          "type": "uint256"
        }
      ],
      "name": "balanceOfNFT",
      "outputs": [
        {
          "internalType": "uint256",
          "name": "",
          "type": "uint256"
        }
      ],
      "stateMutability": "view",
      "type": "function"
    },
    {
      "inputs": [
        {
          "internalType": "uint256",
          "name": "_tokenId",
          "type": "uint256"
        },
        {
          "internalType": "uint256",
          "name": "_t",
          "type": "uint256"
        }
      ],
      "name": "balanceOfNFTAt",
      "outputs": [
        {
          "internalType": "uint256",
          "name": "",
          "type": "uint256"
        }
      ],
      "stateMutability": "view",
      "type": "function"
    },
    {
      "inputs": [],
      "name": "block_number",
      "outputs": [
        {
          "internalType": "uint256",
          "name": "",
          "type": "uint256"
        }
      ],
      "stateMutability": "view",
      "type": "function"
    },
    {
      "inputs": [],
      "name": "checkpoint",
      "outputs": [],
      "stateMutability": "nonpayable",
      "type": "function"
    },
    {
      "inputs": [
        {
          "internalType": "address",
          "name": "",
          "type": "address"
        },
        {
          "internalType": "uint32",
          "name": "",
          "type": "uint32"
        }
      ],
      "name": "checkpoints",
      "outputs": [
        {
          "internalType": "uint256",
          "name": "timestamp",
          "type": "uint256"
        }
      ],
      "stateMutability": "view",
      "type": "function"
    },
    {
      "inputs": [],
      "name": "clock",
      "outputs": [
        {
          "internalType": "uint48",
          "name": "",
          "type": "uint48"
        }
      ],
      "stateMutability": "view",
      "type": "function"
    },
    {
      "inputs": [
        {
          "internalType": "uint256",
          "name": "_value",
          "type": "uint256"
        },
        {
          "internalType": "uint256",
          "name": "_lock_duration",
          "type": "uint256"
        }
      ],
      "name": "create_lock",
      "outputs": [
        {
          "internalType": "uint256",
          "name": "",
          "type": "uint256"
        }
      ],
      "stateMutability": "nonpayable",
      "type": "function"
    },
    {
      "inputs": [
        {
          "internalType": "uint256",
          "name": "_value",
          "type": "uint256"
        },
        {
          "internalType": "uint256",
          "name": "_lock_duration",
          "type": "uint256"
        },
        {
          "internalType": "address",
          "name": "_to",
          "type": "address"
        }
      ],
      "name": "create_lock_for",
      "outputs": [
        {
          "internalType": "uint256",
          "name": "",
          "type": "uint256"
        }
      ],
      "stateMutability": "nonpayable",
      "type": "function"
    },
    {
      "inputs": [],
      "name": "decimals",
      "outputs": [
        {
          "internalType": "uint8",
          "name": "",
          "type": "uint8"
        }
      ],
      "stateMutability": "view",
      "type": "function"
    },
    {
      "inputs": [
        {
          "internalType": "address",
          "name": "delegatee",
          "type": "address"
        }
      ],
      "name": "delegate",
      "outputs": [],
      "stateMutability": "nonpayable",
      "type": "function"
    },
    {
      "inputs": [
        {
          "internalType": "address",
          "name": "delegatee",
          "type": "address"
        },
        {
          "internalType": "uint256",
          "name": "nonce",
          "type": "uint256"
        },
        {
          "internalType": "uint256",
          "name": "expiry",
          "type": "uint256"
        },
        {
          "internalType": "uint8",
          "name": "v",
          "type": "uint8"
        },
        {
          "internalType": "bytes32",
          "name": "r",
          "type": "bytes32"
        },
        {
          "internalType": "bytes32",
          "name": "s",
          "type": "bytes32"
        }
      ],
      "name": "delegateBySig",
      "outputs": [],
      "stateMutability": "nonpayable",
      "type": "function"
    },
    {
      "inputs": [
        {
          "internalType": "address",
          "name": "delegator",
          "type": "address"
        }
      ],
      "name": "delegates",
      "outputs": [
        {
          "internalType": "address",
          "name": "",
          "type": "address"
        }
      ],
      "stateMutability": "view",
      "type": "function"
    },
    {
      "inputs": [
        {
          "internalType": "uint256",
          "name": "_tokenId",
          "type": "uint256"
        },
        {
          "internalType": "uint256",
          "name": "_value",
          "type": "uint256"
        }
      ],
      "name": "deposit_for",
      "outputs": [],
      "stateMutability": "nonpayable",
      "type": "function"
    },
    {
      "inputs": [],
      "name": "epoch",
      "outputs": [
        {
          "internalType": "uint256",
          "name": "",
          "type": "uint256"
        }
      ],
      "stateMutability": "view",
      "type": "function"
    },
    {
      "inputs": [
        {
          "internalType": "uint256",
          "name": "_tokenId",
          "type": "uint256"
        }
      ],
      "name": "getApproved",
      "outputs": [
        {
          "internalType": "address",
          "name": "",
          "type": "address"
        }
      ],
      "stateMutability": "view",
      "type": "function"
    },
    {
      "inputs": [
        {
          "internalType": "uint256",
          "name": "timestamp",
          "type": "uint256"
        }
      ],
      "name": "getPastTotalSupply",
      "outputs": [
        {
          "internalType": "uint256",
          "name": "",
          "type": "uint256"
        }
      ],
      "stateMutability": "view",
      "type": "function"
    },
    {
      "inputs": [
        {
          "internalType": "address",
          "name": "account",
          "type": "address"
        },
        {
          "internalType": "uint256",
          "name": "timestamp",
          "type": "uint256"
        }
      ],
      "name": "getPastVotes",
      "outputs": [
        {
          "internalType": "uint256",
          "name": "",
          "type": "uint256"
        }
      ],
      "stateMutability": "view",
      "type": "function"
    },
    {
      "inputs": [
        {
          "internalType": "address",
          "name": "account",
          "type": "address"
        },
        {
          "internalType": "uint256",
          "name": "timestamp",
          "type": "uint256"
        }
      ],
      "name": "getPastVotesIndex",
      "outputs": [
        {
          "internalType": "uint32",
          "name": "",
          "type": "uint32"
        }
      ],
      "stateMutability": "view",
      "type": "function"
    },
    {
      "inputs": [
        {
          "internalType": "address",
          "name": "account",
          "type": "address"
        }
      ],
      "name": "getVotes",
      "outputs": [
        {
          "internalType": "uint256",
          "name": "",
          "type": "uint256"
        }
      ],
      "stateMutability": "view",
      "type": "function"
    },
    {
      "inputs": [
        {
          "internalType": "uint256",
          "name": "_tokenId",
          "type": "uint256"
        }
      ],
      "name": "get_last_user_slope",
      "outputs": [
        {
          "internalType": "int128",
          "name": "",
          "type": "int128"
        }
      ],
      "stateMutability": "view",
      "type": "function"
    },
    {
      "inputs": [
        {
          "internalType": "uint256",
          "name": "_tokenId",
          "type": "uint256"
        },
        {
          "internalType": "uint256",
          "name": "_value",
          "type": "uint256"
        }
      ],
      "name": "increase_amount",
      "outputs": [],
      "stateMutability": "nonpayable",
      "type": "function"
    },
    {
      "inputs": [
        {
          "internalType": "uint256",
          "name": "_tokenId",
          "type": "uint256"
        },
        {
          "internalType": "uint256",
          "name": "_lock_duration",
          "type": "uint256"
        }
      ],
      "name": "increase_unlock_time",
      "outputs": [],
      "stateMutability": "nonpayable",
      "type": "function"
    },
    {
      "inputs": [
        {
          "internalType": "address",
          "name": "_owner",
          "type": "address"
        },
        {
          "internalType": "address",
          "name": "_operator",
          "type": "address"
        }
      ],
      "name": "isApprovedForAll",
      "outputs": [
        {
          "internalType": "bool",
          "name": "",
          "type": "bool"
        }
      ],
      "stateMutability": "view",
      "type": "function"
    },
    {
      "inputs": [
        {
          "internalType": "address",
          "name": "_spender",
          "type": "address"
        },
        {
          "internalType": "uint256",
          "name": "_tokenId",
          "type": "uint256"
        }
      ],
      "name": "isApprovedOrOwner",
      "outputs": [
        {
          "internalType": "bool",
          "name": "",
          "type": "bool"
        }
      ],
      "stateMutability": "view",
      "type": "function"
    },
    {
      "inputs": [
        {
          "internalType": "uint256",
          "name": "",
          "type": "uint256"
        }
      ],
      "name": "locked",
      "outputs": [
        {
          "internalType": "int128",
          "name": "amount",
          "type": "int128"
        },
        {
          "internalType": "uint256",
          "name": "end",
          "type": "uint256"
        }
      ],
      "stateMutability": "view",
      "type": "function"
    },
    {
      "inputs": [
        {
          "internalType": "uint256",
          "name": "_tokenId",
          "type": "uint256"
        }
      ],
      "name": "locked__end",
      "outputs": [
        {
          "internalType": "uint256",
          "name": "",
          "type": "uint256"
        }
      ],
      "stateMutability": "view",
      "type": "function"
    },
    {
      "inputs": [
        {
          "internalType": "uint256",
          "name": "_from",
          "type": "uint256"
        },
        {
          "internalType": "uint256",
          "name": "_to",
          "type": "uint256"
        }
      ],
      "name": "merge",
      "outputs": [],
      "stateMutability": "nonpayable",
      "type": "function"
    },
    {
      "inputs": [],
      "name": "name",
      "outputs": [
        {
          "internalType": "string",
          "name": "",
          "type": "string"
        }
      ],
      "stateMutability": "view",
      "type": "function"
    },
    {
      "inputs": [
        {
          "internalType": "address",
          "name": "",
          "type": "address"
        }
      ],
      "name": "nonces",
      "outputs": [
        {
          "internalType": "uint256",
          "name": "",
          "type": "uint256"
        }
      ],
      "stateMutability": "view",
      "type": "function"
    },
    {
      "inputs": [
        {
          "internalType": "address",
          "name": "",
          "type": "address"
        }
      ],
      "name": "numCheckpoints",
      "outputs": [
        {
          "internalType": "uint32",
          "name": "",
          "type": "uint32"
        }
      ],
      "stateMutability": "view",
      "type": "function"
    },
    {
      "inputs": [
        {
          "internalType": "uint256",
          "name": "_tokenId",
          "type": "uint256"
        }
      ],
      "name": "ownerOf",
      "outputs": [
        {
          "internalType": "address",
          "name": "",
          "type": "address"
        }
      ],
      "stateMutability": "view",
      "type": "function"
    },
    {
      "inputs": [
        {
          "internalType": "uint256",
          "name": "",
          "type": "uint256"
        }
      ],
      "name": "ownership_change",
      "outputs": [
        {
          "internalType": "uint256",
          "name": "",
          "type": "uint256"
        }
      ],
      "stateMutability": "view",
      "type": "function"
    },
    {
      "inputs": [
        {
          "internalType": "uint256",
          "name": "",
          "type": "uint256"
        }
      ],
      "name": "point_history",
      "outputs": [
        {
          "internalType": "int128",
          "name": "bias",
          "type": "int128"
        },
        {
          "internalType": "int128",
          "name": "slope",
          "type": "int128"
        },
        {
          "internalType": "uint256",
          "name": "ts",
          "type": "uint256"
        },
        {
          "internalType": "uint256",
          "name": "blk",
          "type": "uint256"
        }
      ],
      "stateMutability": "view",
      "type": "function"
    },
    {
      "inputs": [
        {
          "internalType": "address",
          "name": "_from",
          "type": "address"
        },
        {
          "internalType": "address",
          "name": "_to",
          "type": "address"
        },
        {
          "internalType": "uint256",
          "name": "_tokenId",
          "type": "uint256"
        }
      ],
      "name": "safeTransferFrom",
      "outputs": [],
      "stateMutability": "nonpayable",
      "type": "function"
    },
    {
      "inputs": [
        {
          "internalType": "address",
          "name": "_from",
          "type": "address"
        },
        {
          "internalType": "address",
          "name": "_to",
          "type": "address"
        },
        {
          "internalType": "uint256",
          "name": "_tokenId",
          "type": "uint256"
        },
        {
          "internalType": "bytes",
          "name": "_data",
          "type": "bytes"
        }
      ],
      "name": "safeTransferFrom",
      "outputs": [],
      "stateMutability": "nonpayable",
      "type": "function"
    },
    {
      "inputs": [
        {
          "internalType": "address",
          "name": "_operator",
          "type": "address"
        },
        {
          "internalType": "bool",
          "name": "_approved",
          "type": "bool"
        }
      ],
      "name": "setApprovalForAll",
      "outputs": [],
      "stateMutability": "nonpayable",
      "type": "function"
    },
    {
      "inputs": [
        {
          "internalType": "address",
          "name": "_proxy",
          "type": "address"
        }
      ],
      "name": "setArtProxy",
      "outputs": [],
      "stateMutability": "nonpayable",
      "type": "function"
    },
    {
      "inputs": [
        {
          "internalType": "address",
          "name": "_team",
          "type": "address"
        }
      ],
      "name": "setTeam",
      "outputs": [],
      "stateMutability": "nonpayable",
      "type": "function"
    },
    {
      "inputs": [
        {
          "internalType": "address",
          "name": "_veStaking",
          "type": "address"
        }
      ],
      "name": "setVeStaking",
      "outputs": [],
      "stateMutability": "nonpayable",
      "type": "function"
    },
    {
      "inputs": [
        {
          "internalType": "address",
          "name": "_voter",
          "type": "address"
        }
      ],
      "name": "setVoter",
      "outputs": [],
      "stateMutability": "nonpayable",
      "type": "function"
    },
    {
      "inputs": [
        {
          "internalType": "uint256",
          "name": "",
          "type": "uint256"
        }
      ],
      "name": "slope_changes",
      "outputs": [
        {
          "internalType": "int128",
          "name": "",
          "type": "int128"
        }
      ],
      "stateMutability": "view",
      "type": "function"
    },
    {
      "inputs": [],
      "name": "supply",
      "outputs": [
        {
          "internalType": "uint256",
          "name": "",
          "type": "uint256"
        }
      ],
      "stateMutability": "view",
      "type": "function"
    },
    {
      "inputs": [
        {
          "internalType": "bytes4",
          "name": "_interfaceID",
          "type": "bytes4"
        }
      ],
      "name": "supportsInterface",
      "outputs": [
        {
          "internalType": "bool",
          "name": "",
          "type": "bool"
        }
      ],
      "stateMutability": "view",
      "type": "function"
    },
    {
      "inputs": [],
      "name": "symbol",
      "outputs": [
        {
          "internalType": "string",
          "name": "",
          "type": "string"
        }
      ],
      "stateMutability": "view",
      "type": "function"
    },
    {
      "inputs": [],
      "name": "team",
      "outputs": [
        {
          "internalType": "address",
          "name": "",
          "type": "address"
        }
      ],
      "stateMutability": "view",
      "type": "function"
    },
    {
      "inputs": [],
      "name": "token",
      "outputs": [
        {
          "internalType": "address",
          "name": "",
          "type": "address"
        }
      ],
      "stateMutability": "view",
      "type": "function"
    },
    {
      "inputs": [
        {
          "internalType": "address",
          "name": "_owner",
          "type": "address"
        },
        {
          "internalType": "uint256",
          "name": "_tokenIndex",
          "type": "uint256"
        }
      ],
      "name": "tokenOfOwnerByIndex",
      "outputs": [
        {
          "internalType": "uint256",
          "name": "",
          "type": "uint256"
        }
      ],
      "stateMutability": "view",
      "type": "function"
    },
    {
      "inputs": [
        {
          "internalType": "uint256",
          "name": "_tokenId",
          "type": "uint256"
        }
      ],
      "name": "tokenURI",
      "outputs": [
        {
          "internalType": "string",
          "name": "",
          "type": "string"
        }
      ],
      "stateMutability": "view",
      "type": "function"
    },
    {
      "inputs": [],
      "name": "totalSupply",
      "outputs": [
        {
          "internalType": "uint256",
          "name": "",
          "type": "uint256"
        }
      ],
      "stateMutability": "view",
      "type": "function"
    },
    {
      "inputs": [
        {
          "internalType": "uint256",
          "name": "_block",
          "type": "uint256"
        }
      ],
      "name": "totalSupplyAt",
      "outputs": [
        {
          "internalType": "uint256",
          "name": "",
          "type": "uint256"
        }
      ],
      "stateMutability": "view",
      "type": "function"
    },
    {
      "inputs": [
        {
          "internalType": "uint256",
          "name": "t",
          "type": "uint256"
        }
      ],
      "name": "totalSupplyAtT",
      "outputs": [
        {
          "internalType": "uint256",
          "name": "",
          "type": "uint256"
        }
      ],
      "stateMutability": "view",
      "type": "function"
    },
    {
      "inputs": [
        {
          "internalType": "address",
          "name": "_from",
          "type": "address"
        },
        {
          "internalType": "address",
          "name": "_to",
          "type": "address"
        },
        {
          "internalType": "uint256",
          "name": "_tokenId",
          "type": "uint256"
        }
      ],
      "name": "transferFrom",
      "outputs": [],
      "stateMutability": "nonpayable",
      "type": "function"
    },
    {
      "inputs": [
        {
          "internalType": "uint256",
          "name": "",
          "type": "uint256"
        }
      ],
      "name": "user_point_epoch",
      "outputs": [
        {
          "internalType": "uint256",
          "name": "",
          "type": "uint256"
        }
      ],
      "stateMutability": "view",
      "type": "function"
    },
    {
      "inputs": [
        {
          "internalType": "uint256",
          "name": "",
          "type": "uint256"
        },
        {
          "internalType": "uint256",
          "name": "",
          "type": "uint256"
        }
      ],
      "name": "user_point_history",
      "outputs": [
        {
          "internalType": "int128",
          "name": "bias",
          "type": "int128"
        },
        {
          "internalType": "int128",
          "name": "slope",
          "type": "int128"
        },
        {
          "internalType": "uint256",
          "name": "ts",
          "type": "uint256"
        },
        {
          "internalType": "uint256",
          "name": "blk",
          "type": "uint256"
        }
      ],
      "stateMutability": "view",
      "type": "function"
    },
    {
      "inputs": [
        {
          "internalType": "uint256",
          "name": "_tokenId",
          "type": "uint256"
        },
        {
          "internalType": "uint256",
          "name": "_idx",
          "type": "uint256"
        }
      ],
      "name": "user_point_history__ts",
      "outputs": [
        {
          "internalType": "uint256",
          "name": "",
          "type": "uint256"
        }
      ],
      "stateMutability": "view",
      "type": "function"
    },
    {
      "inputs": [],
      "name": "veStaking",
      "outputs": [
        {
          "internalType": "address",
          "name": "",
          "type": "address"
        }
      ],
      "stateMutability": "view",
      "type": "function"
    },
    {
      "inputs": [],
      "name": "version",
      "outputs": [
        {
          "internalType": "string",
          "name": "",
          "type": "string"
        }
      ],
      "stateMutability": "view",
      "type": "function"
    },
    {
      "inputs": [
        {
          "internalType": "uint256",
          "name": "",
          "type": "uint256"
        }
      ],
      "name": "voted",
      "outputs": [
        {
          "internalType": "bool",
          "name": "",
          "type": "bool"
        }
      ],
      "stateMutability": "view",
      "type": "function"
    },
    {
      "inputs": [],
      "name": "voter",
      "outputs": [
        {
          "internalType": "address",
          "name": "",
          "type": "address"
        }
      ],
      "stateMutability": "view",
      "type": "function"
    },
    {
      "inputs": [
        {
          "internalType": "uint256",
          "name": "_tokenId",
          "type": "uint256"
        }
      ],
      "name": "voting",
      "outputs": [],
      "stateMutability": "nonpayable",
      "type": "function"
    },
    {
      "inputs": [
        {
          "internalType": "uint256",
          "name": "_tokenId",
          "type": "uint256"
        }
      ],
      "name": "withdraw",
      "outputs": [],
      "stateMutability": "nonpayable",
      "type": "function"
    }
  ],
  "bytecode": "0x60a0346200017e57601f620052d938819003918201601f1916830191906001600160401b03831184841017620001835781606092859260409586528339810103126200017e57620000508262000199565b6200006b82620000636020860162000199565b940162000199565b9260019060ff19928284600754161760075560805260018060a01b0319906000953383885416178755338385541617845560018060a01b0380921683600254161760025516906003541617600355838052600460205282842043600282015581429101556301ffc9a760e01b8452600560205282842081838254161790556380ac58cd60e01b84528284208183825416179055635b5e139f60e01b8452828420918254161790556006549051917fddf252ad1be2c89b69c2b068fc378daa952ba7f163c4a11628f55a4df523b3ef823083838180a430908280a461512a9081620001af8239608051818181610c23015281816122e6015281816133eb015281816137c4015281816139720152613b1f0152f35b600080fd5b634e487b7160e01b600052604160045260246000fd5b51906001600160a01b03821682036200017e5756fe6080604052600436101561001257600080fd5b60003560e01c806301ffc9a71461046d578063047fc9aa1461046857806306fdde03146103965780630758c7d814610463578063081812fc1461045e578063095cf5c614610459578063095ea7b3146104545780631376f3da1461044f57806318160ddd1461044a5780631c984bc31461044557806320606b701461044057806323b872dd1461043b57806325a58b56146104365780632943a490146104315780632e1a7d4d1461042c5780632e720f7d146104275780632f745c5914610422578063313ce5671461041d5780633a46b1a81461041857806342842e0e14610413578063430c20811461040e578063461f711c1461040957806346c96aac146104045780634bc2a657146103ff5780634bf5d7e9146103fa57806354fd4d50146103f55780635594a045146103f0578063587cde1e146103eb5780635c19a95c146103e65780635f5b0c32146103e15780636352211e146103dc57806365fc3873146103d75780636f548837146103d25780636fcfff45146103cd57806370a08231146103c85780637116c60c146103aa57806371197484146103c35780637ecebe00146103be57806382b5077f146103b957806385f2aef2146103b45780638c2c9baf146103af5780638e539e8c146103aa5780638fbb38ff146103a5578063900cf0cf146103a057806391ddadf41461039b57806395d89b4114610396578063981b24d0146103915780639ab24eb01461038c578063a183af5214610387578063a22cb46514610382578063a4d855df1461037d578063b45a3c0e14610378578063b88d4fde14610373578063c1f0fb9f1461036e578063c2c4c5c114610369578063c3cda52014610364578063c87b56dd1461035f578063d1c2babb1461035a578063d1febfb914610355578063d4e54c3b14610350578063e0514aba1461034b578063e441135c14610346578063e7a324dc14610341578063e7e242d41461033c578063e985e9c514610337578063ee99fe2814610332578063f1127ed81461032d578063f8a0576314610328578063fc0c546a146103235763fd4a77f11461031e57600080fd5b612315565b6122d0565b6122a1565b612244565b6121b0565b612153565b612135565b6120fa565b6120ce565b6120ad565b612041565b611fe0565b611e07565b611cf5565b611ada565b611836565b6117f6565b61176d565b611735565b61165e565b6115ba565b611504565b6114e1565b611393565b610633565b611370565b611352565b611321565b611227565b611300565b6112d7565b6112ae565b611274565b611245565b6111ed565b6111ad565b611181565b611131565b6110fd565b6110e0565b6110a6565b611071565b611048565b61102c565b610fbc565b610f73565b610f4a565b610f05565b610ed4565b610e9a565b610deb565b610dcf565b610d87565b610d40565b610a47565b610a00565b6109e5565b6109ca565b61095a565b61091f565b6108fb565b61088d565b61073f565b6106fc565b6106c8565b610693565b6104d7565b610489565b6001600160e01b031981160361048457565b600080fd5b34610484576020366003190112610484576004356104a681610472565b63ffffffff60e01b166000526005602052602060ff604060002054166040519015158152f35b600091031261048457565b34610484576000366003190112610484576020601454604051908152f35b634e487b7160e01b600052604160045260246000fd5b67ffffffffffffffff811161051f57604052565b6104f5565b6040810190811067ffffffffffffffff82111761051f57604052565b6080810190811067ffffffffffffffff82111761051f57604052565b90601f8019910116810190811067ffffffffffffffff82111761051f57604052565b6040519061058b82610524565b565b6040519061058b82610540565b67ffffffffffffffff811161051f57601f01601f191660200190565b604051906105c382610524565b60058252641d9953919560da1b6020830152565b60005b8381106105ea5750506000910152565b81810151838201526020016105da565b90602091610613815180928185528580860191016105d7565b601f01601f1916010190565b9060206106309281815201906105fa565b90565b346104845760003660031901126104845761066361064f6105b6565b6040519182916020835260208301906105fa565b0390f35b600435906001600160a01b038216820361048457565b602435906001600160a01b038216820361048457565b346104845760403660031901126104845760206106ba6106b1610667565b602435906146e4565b63ffffffff60405191168152f35b3461048457602036600319011261048457600435600052600a602052602060018060a01b0360406000205416604051908152f35b3461048457602036600319011261048457610715610667565b600154906001600160a01b03908183163303610484576001600160a01b0319909216911617600155005b3461048457604036600319011261048457610758610667565b6024356000818152600860205260408120549092906001600160a01b039081169081156108575780831692828414610853576107f1610824926107a5876000526008602052604060002090565b5416331460ff6107e2336107cb8860018060a01b0316600052600b602052604060002090565b9060018060a01b0316600052602052604060002090565b5416811561084b575b50612355565b61080585600052600a602052604060002090565b80546001600160a01b0319166001600160a01b03909216919091179055565b7f8c5be1e5ebec7d5bd14f71427d1e84f3dd0314c0f7b2291e5b200ac8c7c3b9258480a480f35b9050386107eb565b8580fd5b8480fd5b634e487b7160e01b600052603260045260246000fd5b90633b9aca00811015610888576003020190600090565b61085b565b34610484576040366003190112610484576024356004356000526010602052604060002090633b9aca00811015610484576108c791610871565b508054600182015460029092015460408051600f84810b8252608094851d900b602082015290810193909352606083015290f35b34610484576000366003190112610484576020610917426145b8565b604051908152f35b346104845760403660031901126104845760043560005260106020526020600161094f6024356040600020610871565b500154604051908152f35b346104845760003660031901126104845760206040517f8cad95687ba82c2ce50e74f7b754645e5117c3a5bec8151c0726d5857980a8668152f35b6060906003190112610484576001600160a01b0390600435828116810361048457916024359081168103610484579060443590565b34610484576109e36109db36610995565b9033926124f0565b005b34610484576000366003190112610484576020604051438152f35b3461048457602036600319011261048457610a19610667565b6001546001600160a01b0391908216330361048457166001600160601b0360a01b6003541617600355600080f35b34610484576020806003193601126104845760043590600754600160ff8216036104845760ff1916600217600755610a87610a828333612451565b612434565b610ab4610aaf610aab610aa4856000526015602052604060002090565b5460ff1690565b1590565b6124bc565b610ad0610acb836000526011602052604060002090565b6123a8565b610adf82820151421015613fe5565b610af3610aed8251600f0b90565b600f0b90565b92610afc61057e565b93610b246000958681528686820152610b1f846000526011602052604060002090565b61322c565b610b5460145493610b3d610b3884876128ba565b601455565b610b4561057e565b90878252878783015284612bf0565b600354610b7790610b6b906001600160a01b031681565b6001600160a01b031690565b803b156108535760405163ac6a2b5d60e01b8152600481018490529086908290602490829084905af18015610d0f57610d2d575b50600354610bc390610b6b906001600160a01b031681565b803b1561085357604051631c4b774b60e01b8152600481018490529086908290602490829084905af18015610d0f57610d14575b5060405163a9059cbb60e01b815233600482015260248101829052918483604481896001600160a01b037f0000000000000000000000000000000000000000000000000000000000000000165af1948515610d0f576000805160206150d583398151915295610cbc94610c72928992610ce2575b5050612434565b610c7b8161402a565b6040805191825260208201839052429082015233907f02f25270a4d87bea75db541cdfe559334a275b4a233520ed6c0a2429667cca9490606090a2826128ba565b60408051928352602083019190915290a1610cdf600160ff196007541617600755565b80f35b610d019250803d10610d08575b610cf9818361055c565b81019061325e565b3880610c6b565b503d610cef565b612428565b80610d21610d279261050b565b806104cc565b38610bf7565b80610d21610d3a9261050b565b38610bab565b3461048457602036600319011261048457610d59610667565b6001546001600160a01b0391908216330361048457166001600160601b0360a01b6002541617600255600080f35b34610484576040366003190112610484576001600160a01b03610da8610667565b16600052600d60205260406000206024356000526020526020604060002054604051908152f35b3461048457600036600319011261048457602060405160128152f35b3461048457604036600319011261048457610e04610667565b6001610e4160243592610e1784826146e4565b90838060a01b0316600052601760205260406000209063ffffffff16600052602052604060002090565b01805460009283925b828510610e5c57604051848152602090f35b909192610e7983610e6d8785614629565b90549060031b1c614180565b8101809111610e9557610e8c9094612ae9565b93929190610e4a565b6127c1565b3461048457610ea836610995565b60405191602083019383851067ffffffffffffffff86111761051f576109e39460405260008452612650565b34610484576040366003190112610484576020610efb610ef2610667565b60243590612451565b6040519015158152f35b3461048457602036600319011261048457600435600052600f6020526020610f3a604060002054601083526040600020610871565b505460801d60405190600f0b8152f35b34610484576000366003190112610484576000546040516001600160a01b039091168152602090f35b3461048457602036600319011261048457610f8c610667565b6000805490916001600160a01b03908183163303610fb85716906001600160601b0360a01b1617815580f35b8380fd5b3461048457600036600319011261048457610663604051610fdc81610524565b600e81526d06d6f64653d74696d657374616d760941b60208201526040519182916020835260208301906105fa565b6040519061101882610524565b60058252640312e302e360dc1b6020830152565b346104845760003660031901126104845761066361064f61100b565b34610484576000366003190112610484576002546040516001600160a01b039091168152602090f35b3461048457602036600319011261048457602061109461108f610667565b6145d9565b6040516001600160a01b039091168152f35b34610484576020366003190112610484576110bf610667565b6001600160a01b038116156110d9575b6109e39033614c81565b50336110cf565b346104845760003660031901126104845760206040516104008152f35b34610484576020366003190112610484576004356000526008602052602060018060a01b0360406000205416604051908152f35b3461048457604036600319011261048457600754600160ff8216036104845760ff19908116600217600755602090600161117033602435600435613c12565b916007541617600755604051908152f35b3461048457602036600319011261048457600435600052600c6020526020604060002054604051908152f35b34610484576020366003190112610484576001600160a01b036111ce610667565b166000526018602052602063ffffffff60406000205416604051908152f35b34610484576020366003190112610484576001600160a01b0361120e610667565b1660005260096020526020604060002054604051908152f35b346104845760203660031901126104845760206109176004356145b8565b346104845760203660031901126104845760043560005260136020526020604060002054600f0b604051908152f35b34610484576020366003190112610484576001600160a01b03611295610667565b1660005260196020526020604060002054604051908152f35b34610484576000366003190112610484576003546040516001600160a01b039091168152602090f35b34610484576000366003190112610484576001546040516001600160a01b039091168152602090f35b34610484576040366003190112610484576020610917602435600435614252565b34610484576020366003190112610484576004356000526015602052602060ff604060002054166040519015158152f35b34610484576000366003190112610484576020601254604051908152f35b3461048457600036600319011261048457602060405165ffffffffffff42168152f35b346104845760203660031901126104845761066361143b6004356113b943821115612434565b6114356012546113c98184614426565b926113e66113e1856000526004602052604060002090565b612a4f565b93600092811015611495576113e1611400611410926127d7565b6000526004602052604060002090565b6060850190815160608201938451820361144b575b50505050505b6040830151612806565b906144a9565b6040519081529081906020820190565b61148b955091611475604061146761147b9461148597966128ba565b92015160408a0151906128ba565b90612ab6565b92519051906128ba565b90612ac9565b3880808080611425565b5060608401908151904382036114ae575b50505061142b565b6114d993506114c3611485926114d1926128ba565b6114756040880151426128ba565b9151436128ba565b3880806114a6565b346104845760203660031901126104845760206109176114ff610667565b614641565b346104845760403660031901126104845760075460043560243560001960ff84160161048457600261159e9360ff191617600755611545610a828333612451565b81600052601160205260406000209161159960016040519461156686610524565b8054600f0b8652015460208501908152611581841515612434565b61159160008651600f0b13613176565b5142106131bb565b613273565b6109e3600160ff196007541617600755565b8015150361048457565b34610484576040366003190112610484576115d3610667565b6024356115df816115b0565b6001600160a01b0382169161161f906115fa33851415612434565b33600052600b60205260406000209060018060a01b0316600052602052604060002090565b9015159060ff1981541660ff83161790556040519081527f17307eab39ab6107e8899845ad3d59bd9653f200f220920489ca2b5937696c3160203392a3005b346104845760403660031901126104845760075460043560001960ff83160161048457600261159e9260ff19161760075561169c610a828233612451565b8060005260116020526040600020906001604051926116ba84610524565b8054600f0b84520154906020830191825261171c6116ee6116e96116e060243542612806565b62093a80900490565b612a86565b926116fb42825111613f1e565b611714600061170b8751600f0b90565b600f0b13613f59565b518311613f99565b611730611728426127e5565b831115613bc6565b6134b1565b3461048457602036600319011261048457600435600052601160205260408060002060018154600f0b91015482519182526020820152f35b3461048457608036600319011261048457611786610667565b61178e61067d565b6064359167ffffffffffffffff83116104845736602384011215610484578260040135916117bb8361059a565b926117c9604051948561055c565b80845236602482870101116104845760208160009260246109e39801838801378501015260443591612650565b3461048457602036600319011261048457600080546001600160a01b03163303611833576004358152601560205260408120805460ff1916905580f35b80fd5b3461048457600080600319360112611833576040519061185582610524565b80825280602080930152808260405161186d81610524565b828152015261187a612a13565b50611883612a13565b506012549161189061058d565b90828252828183015242604083015260609143838201529184611abb575b60408301918251928592844211611a90575b9693906118d462093a808395949504612a86565b9787985b60ff8a106118f8575b88610cdf896118f38a61140081601255565b612b63565b61190289916127f6565b9388878396428111600014611a4f5750610aed966119606119596119769461195461194c61196f96611946429e8f925b86019b6119408d51600f0b90565b936128ba565b90612a38565b9151600f0b90565b612af8565b600f0b8d52565b8351600f0b612b3d565b612b3d565b600f0b8252565b81611985610aed8b51600f0b90565b12611a47575b8161199a610aed8351600f0b90565b12611a3f575b505082948383526119e4828901976119dd89516119d76119c96119c38a806128ba565b8b612ab6565b670de0b6b3a7640000900490565b90612806565b89526127d7565b99428503611a0b5750505050505050610cdf92936118f391439052908493388080806118e1565b611a339192939495969750611a2e896118f38d6000526004602052604060002090565b612ae9565b989592919094936118d8565b5287386119a0565b81895261198b565b965061196f906119606119596119769461195461194c8c611946610aed611a8a611a83846000526013602052604060002090565b54600f0b90565b98611932565b9250611ab5611aaa611aa585880151436128ba565b612a9e565b6114858351426128ba565b926118c0565b9150611ad46113e1856000526004602052604060002090565b916118ae565b346104845760c036600319011261048457611af3610667565b606435906044359060243560ff841684036104845760a435611b377f7fffffffffffffffffffffffffffffff5d576e7357a4501ddfe92f46681b20a0821115614f8f565b611c87611b426105b6565b91611bb2611c50611c5c8551602080970120611b5c61100b565b805190880120604080517f8cad95687ba82c2ce50e74f7b754645e5117c3a5bec8151c0726d5857980a866818b0190815260208101949094529083019190915246606083015230608083015293849060a0830190565b0393611bc6601f199586810183528261055c565b519020604080517fe48329057bfd03d55e49b547132e39cffd9c1820ad7b9d4c5307691425d15adf8982019081526001600160a01b038c1660208201529182018a9052606082018c9052919491611c2781608084010384810183528261055c565b5190206040519384918983019687909160429261190160f01b8352600283015260228201520190565b0390810183528261055c565b5190206040519760843591899094939260ff6060936080840197845216602083015260408201520152565b856000968792838052039060015afa15610d0f57611cf0610cdf93611ce8865193611cbb60018060a01b0386161515614f8f565b6001600160a01b038516600090815260196020526040902090815491611ce083612ae9565b905514614ff2565b421115615051565b614c81565b34610484576020366003190112610484576004356000818152600860205260409020611d3e906001600160a01b0390611d36905b546001600160a01b031690565b16151561235c565b6000611d57610acb836000526011602052604060002090565b600254611d6e90610b6b906001600160a01b031681565b611d784285614180565b611d8b610aed60208501519451600f0b90565b94611dc36040519687958694859463dd9ec14960e01b8652600486019094939260609260808301968352602083015260408201520152565b03915afa8015610d0f5761066391600091611de6575b506040519182918261061f565b611e01913d8091833e611df9818361055c565b8101906123c9565b38611dd9565b3461048457604036600319011261048457600435602435611e3b610aaf610aab610aa4856000526015602052604060002090565b611e4781831415612355565b611e59611e548333612451565b612355565b611e66611e548233612451565b611e7d610acb836000526011602052604060002090565b91611e95610acb836000526011602052604060002090565b91611ea4610aed8551600f0b90565b906020850151602085015180821015600014611fd85750925b600354611ed490610b6b906001600160a01b031681565b803b156104845760405163ac6a2b5d60e01b815260048101839052906000908290602490829084905af18015610d0f57611fc5575b50600354611f2190610b6b906001600160a01b031681565b90813b1561048457604051631c4b774b60e01b815260048101829052916000908390602490829084905af18015610d0f576109e397611fad93611fa892611fb2575b50611f8e611f6f61057e565b6000815260006020820152610b1f856000526011602052604060002090565b611f9661057e565b90600082526000602083015283612bf0565b61402a565b613672565b80610d21611fbf9261050b565b38611f63565b80610d21611fd29261050b565b38611f09565b905092611ebd565b3461048457602036600319011261048457600435600052600460205260406000208054610663600260018401549301546040519383859460801d90600f0b85909493926060926080830196600f0b8352600f0b602083015260408201520152565b34610484576060366003190112610484576044356001600160a01b038116810361048457600754600160ff82160361048457600161209361066393600260ff1980951617600755602435600435613c12565b916007541617600755604051918291829190602083019252565b34610484576040366003190112610484576020610917602435600435614180565b3461048457602036600319011261048457600435600052600f6020526020604060002054604051908152f35b346104845760003660031901126104845760206040517fe48329057bfd03d55e49b547132e39cffd9c1820ad7b9d4c5307691425d15adf8152f35b3461048457602036600319011261048457602061091760043561422c565b3461048457604036600319011261048457602060ff6121a4612173610667565b61217b61067d565b6001600160a01b039182166000908152600b865260408082209290931681526020919091522090565b54166040519015158152f35b3461048457604036600319011261048457600435602435600754600160ff8216036104845760029060ff19161760075560009180835260116020526040832091604051916121fd83610524565b8460018554600f0b958686520154602085019081528315612240576115916122299261222e9713613176565b613873565b610cdf600160ff196007541617600755565b5080fd5b346104845760403660031901126104845761225d610667565b6024359063ffffffff82168203610484576001600160a01b0316600090815260176020908152604080832063ffffffff909416835292815291902054604051908152f35b346104845760203660031901126104845760043560005260116020526020600160406000200154604051908152f35b34610484576000366003190112610484576040517f00000000000000000000000000000000000000000000000000000000000000006001600160a01b03168152602090f35b3461048457602036600319011261048457600080546001600160a01b03163303611833576004358152601560205260408120805460ff1916600117905580f35b1561048457565b1561236357565b60405162461bcd60e51b815260206004820152601b60248201527f517565727920666f72206e6f6e6578697374656e7420746f6b656e00000000006044820152606490fd5b906040516123b581610524565b6020600182948054600f0b84520154910152565b6020818303126104845780519067ffffffffffffffff8211610484570181601f820112156104845780516123fc8161059a565b9261240a604051948561055c565b818452602082840101116104845761063091602080850191016105d7565b6040513d6000823e3d90fd5b1561243b57565b634e487b7160e01b600052600160045260246000fd5b600091825260086020908152604080842054600a8352818520546001600160a01b03918216808752600b8552838720958316808852959094529190942091831493169091149060ff9054169082156124b4575b5081156124af575090565b905090565b9150386124a4565b156124c357565b60405162461bcd60e51b81526020600482015260056024820152641d9bdd195960da1b6044820152606490fd5b9092919261251984600094818652601560205261251460ff604088205416156124bc565b612451565b156125d6577fddf252ad1be2c89b69c2b068fc378daa952ba7f163c4a11628f55a4df523b3ef90848452600860205260018060a01b039061259c8661258d846040892054169661256d868216809914612434565b828952600a60205260408920868154166125c2575b5061108f83826128c7565b612596846145d9565b90614a0d565b6125a68682612813565b436125bb87600052600c602052604060002090565b55169280a4565b80546001600160a01b031916905538612582565b8280fd5b90816020910312610484575161063081610472565b6001600160a01b039182168152911660208201526040810191909152608060608201819052610630929101906105fa565b3d1561264b573d906126318261059a565b9161263f604051938461055c565b82523d6000602084013e565b606090565b92919091612660338385876124f0565b823b61266d575b50505050565b612695926020926000604051809681958294630a85bd0160e11b9a8b855233600486016125ef565b03926001600160a01b03165af160009181612791575b50612725576126b8612620565b805190816127205760405162461bcd60e51b815260206004820152603260248201527f4552433732313a207472616e7366657220746f206e6f6e20455243373231526560448201527131b2b4bb32b91034b6b83632b6b2b73a32b960711b6064820152608490fd5b602001fd5b6001600160e01b0319160361273d5738808080612667565b60405162461bcd60e51b815260206004820152602660248201527f4552433732313a2045524337323152656365697665722072656a656374656420604482015265746f6b656e7360d01b6064820152608490fd5b6127b391925060203d81116127ba575b6127ab818361055c565b8101906125da565b90386126ab565b503d6127a1565b634e487b7160e01b600052601160045260246000fd5b9060018201809211610e9557565b906303c267008201809211610e9557565b9062093a808201809211610e9557565b91908201809211610e9557565b61289d91600081815260209060088252600e60018060a01b039260409361283f81868620541615612434565b8584526008825284842080546001600160a01b0319166001600160a01b03891617905586168352600981528383205494600d825284842086855282528085852055835252205560018060a01b03166000526009602052604060002090565b6128a781546127d7565b9055565b600019810191908211610e9557565b91908203918211610e9557565b6000828152600860205260408120546001600160a01b03838116916128ee91168214612434565b83825260086020526040822080546001600160a01b03191690558152600960205260408120546000198101908111610e9557838261293961299e96600052600e602052604060002090565b548381036129a857506001600160a01b0385166000908152600d6020526040902061298393612972915b90600052602052604060002090565b55600052600e602052604060002090565b556001600160a01b0316600090815260096020526040902090565b6128a781546128ab565b83612972916129f56129d3612983976129638b60018060a01b0316600052600d602052604060002090565b5480612972846129638d60018060a01b0316600052600d602052604060002090565b556001600160a01b0387166000908152600d60205260409020612963565b60405190612a2082610540565b60006060838281528260208201528260408201520152565b90600f0b90600f0b029081600f0b918203610e9557565b90604051612a5c81610540565b606060028294805480600f0b855260801d600f0b6020850152600181015460408501520154910152565b9062093a8091828102928184041490151715610e9557565b90670de0b6b3a76400009180830292830403610e9557565b81810292918115918404141715610e9557565b8115612ad3570490565b634e487b7160e01b600052601260045260246000fd5b6000198114610e955760010190565b600f91820b910b039060016001607f1b0319821260016001607f1b03831317610e9557565b600f0b9060016001607f1b03821360016001607f1b0319831217610e9557565b90600f0b90600f0b019060016001607f1b0319821260016001607f1b03831317610e9557565b906060600291612b8e8151600f0b85906001600160801b0319825416906001600160801b0316179055565b602081015184546001600160801b031660809190911b6fffffffffffffffffffffffffffffffff1916178455604081015160018501550151910155565b9190612bda5761058b91612b63565b634e487b7160e01b600052600060045260246000fd5b9091612bfa612a13565b91612c03612a13565b9260009182601254908215159485613031575b612c1e61058d565b9560008752602093600085890152426040890152606097438982015281613014575b85604082018051906000918c814211612ff7575b612c6762093a8083989695949804612a86565b966000975b60ff8910612eb8575b5050505050612ca89350906118f3918d8b87612c9085601255565b612e0f575b5050506000526004602052604060002090565b612cb8575b505050505050505050565b82612d3b97612d36968280612d419d019542875111612db0575b5050500191825190428211612d4f575b5050505050612d04612cfe82600052600f602052604060002090565b546127d7565b9283612d1a83600052600f602052604060002090565b5542604087015243908601526000526010602052604060002090565b610871565b90612bcb565b388080808080808080612cad565b5110612d5d575b8080612ce2565b612d7a612d8c91612d74612da8958b0151600f0b90565b90612af8565b91516000526013602052604060002090565b906001600160801b0319825416906001600160801b0316179055565b388080612d56565b612dc3612dc992612df0940151600f0b90565b90612b3d565b80848d81860151895114612df8575b505050612d8c86516000526013602052604060002090565b388281612cd2565b0151612e079250600f0b612d74565b38848d612dd8565b612e5f612e6991612d7461194c85612e58612e51612e42612e368b612e709b0151600f0b90565b878c0151600f0b612d74565b998d019961196a8b51600f0b90565b600f0b8952565b51600f0b90565b8651600f0b612b3d565b600f0b8552565b6000612e80610aed8351600f0b90565b12612eae575b506000612e97610aed8551600f0b90565b12612ea5575b878d8b612c95565b60008352612e9d565b6000905238612e86565b612ec1906127f6565b6000939042811115612fc35750612f0261196f610aed95611960612efb8c61195461194c8d611946429d8e9286019b6119408d51600f0b90565b600f0b8c52565b6000612f12610aed8a51600f0b90565b12612fba575b6000612f28610aed8351600f0b90565b12612fb0575b50612f5c8392848352880196612f5588516119d76119c9612f4f89806128ba565b8a612ab6565b88526127d7565b97428403612f8257505050505050612ca8926118f39143905290508638808c8180612c75565b612fa491929394959650611a2e886118f38b6000526004602052604060002090565b96949392908e91612c6c565b6000905238612f2e565b60008852612f18565b9350612f0261196f87611960612efb8c61195461194c8b611946610aed611a8a611a83846000526013602052604060002090565b61300d919350611aa5611aaa91870151436128ba565b918c612c54565b5061302c6113e1826000526004602052604060002090565b612c40565b60208901898151421080613160575b61311f575b5087896020820194428651119081613108575b506130b8575b5050613078611a8382516000526013602052604060002090565b92519081613088575b5050612c16565b51909150810361309c5750805b3880613081565b611a836130b3916000526013602052604060002090565b613095565b6130ec6130fa91612e5860206130e26130d56131019751600f0b90565b6303c2670090600f0b0590565b600f0b9201918252565b611946610aed4288516128ba565b600f0b8a52565b878961305e565b9050613118610aed8451600f0b90565b1338613058565b6131536131456131366130d561315a9451600f0b90565b600f0b60208a01908152612e58565b611946610aed4286516128ba565b600f0b8752565b89613045565b5083613170610aed8351600f0b90565b13613040565b1561317d57565b60405162461bcd60e51b8152602060048201526016602482015275139bc8195e1a5cdd1a5b99c81b1bd8dac8199bdd5b9960521b6044820152606490fd5b156131c257565b60405162461bcd60e51b8152602060048201526024808201527f43616e6e6f742061646420746f2065787069726564206c6f636b2e20576974686044820152636472617760e01b6064820152608490fd5b6040519061322082610524565b60006020838281520152565b9060206001916132578151600f0b85906001600160801b0319825416906001600160801b0316179055565b0151910155565b908160209103126104845751610630816115b0565b91601454613284610b388483612806565b61330361328f613213565b6132f461329d8551600f0b90565b946132b66020820196875160208601528490600f0b9052565b6132cb61196f88600f0b61196a8451600f0b90565b6132e381610b1f8a6000526011602052604060002090565b6132ed4289614180565b9288612bf0565b6132fe4287614180565b6128ba565b801515806134a9575b156134a35760035461332890610b6b906001600160a01b031681565b803b15610484576040516330ee161b60e11b81526004810187905260248101929092526000908290604490829084905af18015610d0f57613490575b505b82151580613488575b6133b7575b506133b26000805160206150b58339815191529151936040519182913395429184606091949392608082019582526020820152600260408201520152565b0390a3565b6040516323b872dd60e01b815233600482015230602482015260448101849052909160208260648160006001600160a01b037f0000000000000000000000000000000000000000000000000000000000000000165af18015610d0f576000805160206150b5833981519152936134486000805160206150d5833981519152926133b29560009161346a575b50612434565b6134528682612806565b60408051928352602083019190915290a19150613374565b613482915060203d8111610d0857610cf9818361055c565b38613442565b50600161336f565b80610d2161349d9261050b565b38613364565b50613366565b50600161330c565b9161352f6134bd613213565b916134c98151600f0b90565b936134e26020830195865160208701528590600f0b9052565b6134ff6134f86134f38451600f0b90565b612b1d565b600f0b8352565b8061366a575b5061351e81610b1f876000526011602052604060002090565b6135284286614180565b9285612bf0565b61354361353c4285614180565b91826128ba565b9081151580613662575b156135f3575060035461356a90610b6b906001600160a01b031681565b803b15610484576040516330ee161b60e11b81526004810185905260248101929092526000908290604490829084905af18015610d0f576135e0575b505b5160408051928352600060208401526003908301524260608301529033906000805160206150b58339815191529080608081016133b2565b80610d216135ed9261050b565b386135a6565b60035490915061360d90610b6b906001600160a01b031681565b803b1561048457604051636d69d55b60e11b81526004810185905260248101929092526000908290604490829084905af18015610d0f5761364f575b506135a8565b80610d2161365c9261050b565b38613649565b50600061354d565b845238613505565b929190916136e1601454916132f4613688613213565b916136948151600f0b90565b956136ad6020830197885160208701528590600f0b9052565b6136c26134f889600f0b61196a8551600f0b90565b8061386b575b506132e381610b1f8a6000526011602052604060002090565b80151580613863575b1561385d5760035461370690610b6b906001600160a01b031681565b803b15610484576040516330ee161b60e11b81526004810187905260248101929092526000908290604490829084905af18015610d0f5761384a575b505b82151580613842575b613790575b506133b26000805160206150b58339815191529151936040519182913395429184606091949392608082019582526020820152600460408201520152565b6040516323b872dd60e01b815233600482015230602482015260448101849052909160208260648160006001600160a01b037f0000000000000000000000000000000000000000000000000000000000000000165af18015610d0f576000805160206150b5833981519152936138206000805160206150d5833981519152926133b29560009161346a5750612434565b61382a8682612806565b60408051928352602083019190915290a19150613752565b50600061374d565b80610d216138579261050b565b38613742565b50613744565b5060016136ea565b8652386136c8565b91601454613884610b388483612806565b61388f61328f613213565b80151580613a11575b15613a0b576003546138b490610b6b906001600160a01b031681565b803b15610484576040516330ee161b60e11b81526004810187905260248101929092526000908290604490829084905af18015610d0f576139f8575b505b821515806139f0575b61393e575b506133b26000805160206150b58339815191529151936040519182913395429184606091949392608082019582526020820152600060408201520152565b6040516323b872dd60e01b815233600482015230602482015260448101849052909160208260648160006001600160a01b037f0000000000000000000000000000000000000000000000000000000000000000165af18015610d0f576000805160206150b5833981519152936139ce6000805160206150d5833981519152926133b29560009161346a5750612434565b6139d88682612806565b60408051928352602083019190915290a19150613900565b5060016138fb565b80610d21613a059261050b565b386138f0565b506138f2565b506001613898565b92919091613a3c60145491613a31610b388685612806565b6132f4613688613213565b80151580613bbe575b15613bb857600354613a6190610b6b906001600160a01b031681565b803b15610484576040516330ee161b60e11b81526004810187905260248101929092526000908290604490829084905af18015610d0f57613ba5575b505b82151580613b9d575b613aeb575b506133b26000805160206150b58339815191529151936040519182913395429184606091949392608082019582526020820152600160408201520152565b6040516323b872dd60e01b815233600482015230602482015260448101849052909160208260648160006001600160a01b037f0000000000000000000000000000000000000000000000000000000000000000165af18015610d0f576000805160206150b583398151915293613b7b6000805160206150d5833981519152926133b29560009161346a5750612434565b613b858682612806565b60408051928352602083019190915290a19150613aad565b506001613aa8565b80610d21613bb29261050b565b38613a9d565b50613a9f565b506001613a45565b15613bcd57565b60405162461bcd60e51b815260206004820152601e60248201527f566f74696e67206c6f636b2063616e2062652032207965617273206d617800006044820152606490fd5b90420190814211610e955762093a80809204828102928184041490151715610e955780156104845742821115613c995761063091613c5a613c52426127e5565b821115613bc6565b613c6d613c68600654612ae9565b600655565b613c7a6006548095613ced565b50613c92610acb856000526011602052604060002090565b9184613a19565b60405162461bcd60e51b815260206004820152602660248201527f43616e206f6e6c79206c6f636b20756e74696c2074696d6520696e207468652060448201526566757475726560d01b6064820152608490fd5b6001600160a01b0381811691908390613d07841515612434565b613d10836145d9565b90811615158080613f15575b613d57575b5050613d2c91612813565b60007fddf252ad1be2c89b69c2b068fc378daa952ba7f163c4a11628f55a4df523b3ef8180a4600190565b613d62575b80613d21565b6001600160a01b0381166000908152601860205260409020909150613d8c905b5463ffffffff1690565b63ffffffff811615613edc576001600160a01b0382166000908152601760205260409020600190613dd5905b613dc1846145fd565b63ffffffff16600052602052604060002090565b01908592915b600180613e18613dea86614c2c565b6001600160a01b03871660009081526017602052604090205b9063ffffffff16600052602052604060002090565b0191613e31610400613e2a83546127d7565b1115614872565b6000825b613e92575b50505091613e77613e5b613e8c93613e5687613d2c9997614823565b61485d565b6001600160a01b03909216600090815260186020526040902090565b9063ffffffff1663ffffffff19825416179055565b91613d5c565b9091929394958254821015613ed3575080611a2e613ec0613eb6613ec69486614629565b90549060031b1c90565b86614823565b9082918996959493613e35565b95949392613e3a565b6001600160a01b0382166000908152601760205260409020600190613f0b905b60008052602052604060002090565b0190859291613ddb565b50821515613d1c565b15613f2557565b60405162461bcd60e51b815260206004820152600c60248201526b131bd8dac8195e1c1a5c995960a21b6044820152606490fd5b15613f6057565b60405162461bcd60e51b8152602060048201526011602482015270139bdd1a1a5b99c81a5cc81b1bd8dad959607a1b6044820152606490fd5b15613fa057565b60405162461bcd60e51b815260206004820152601f60248201527f43616e206f6e6c7920696e637265617365206c6f636b206475726174696f6e006044820152606490fd5b15613fec57565b60405162461bcd60e51b8152602060048201526016602482015275546865206c6f636b206469646e27742065787069726560501b6044820152606490fd5b6140348133612451565b1561413c576000818152600860205260408120546001600160a01b039081169081156125d6573390614070856000526008602052604060002090565b54161460ff614095336107cb8560018060a01b0316600052600b602052604060002090565b54168115614134575b5015612240576140cb6140bb84600052600a602052604060002090565b80546001600160a01b0319169055565b8282827f8c5be1e5ebec7d5bd14f71427d1e84f3dd0314c0f7b2291e5b200ac8c7c3b9258280a4614104836140ff836145d9565b6148ca565b61410e83336128c7565b7fddf252ad1be2c89b69c2b068fc378daa952ba7f163c4a11628f55a4df523b3ef8280a4565b90503861409e565b606460405162461bcd60e51b815260206004820152602060248201527f63616c6c6572206973206e6f74206f776e6572206e6f7220617070726f7665646044820152fd5b6000818152600f602052604081205490918161419d575050905090565b6141be91612d366141b8926000526010602052604060002090565b50612a4f565b6020810151600f0b91604082015193818582039512818612811691861390151617610e95576142076134f86141fd610aed9561063097600f0b90612a38565b8451600f0b612af8565b806142138351600f0b90565b600f0b12614224575b5051600f0b90565b81523861421c565b80600052600c602052604060002054431461424c57610630904290614180565b50600090565b61425e43831115612434565b60009061427581600052600f602052604060002090565b5482905b608082106143b1575b505061196f6143426142ac6141b861434c9695612d36612e58966000526010602052604060002090565b93601254906142bb8282614426565b6142d26113e1826000526004602052604060002090565b9281101561438d576113e16114006142e9926127d7565b90614310604061430260608501516060870151906128ba565b9301516040850151906128ba565b905b60408401519383614364575b50505050611946610aed6143366020880151600f0b90565b926040880151906128ba565b8351600f0b612af8565b6000600f82900b1261424c576001600160801b031690565b6119d792611475614384969593606061437f940151906128ba565b612ac9565b3880808061431e565b5061439c6060830151436128ba565b906143ab6040840151426128ba565b90614312565b909281811015614420576143d66143d06143cb8484612806565b6127d7565b60011c90565b908560026143f284612d36886000526010602052604060002090565b5001541161440b57506144059093612ae9565b90614279565b93915061441a614405916128ab565b91612ae9565b92614282565b60009182915b6080831061443b575b50505090565b909192828110156144a357828101808211610e95576001808201809211610e95571c90826002614475846000526004602052604060002090565b01541161448e57506144879093612ae9565b919061442c565b93925061449d614487916128ab565b92612ae9565b92614435565b90604082016144bf6116e9825162093a80900490565b906000915b60ff831061450c575b505050506144f76144f78260006144eb610aed6106309651600f0b90565b126145035751600f0b90565b6001600160801b031690565b60008152612e58565b614515906127f6565b60009290808581111561459957505083925b602086019061455f61455861454e6145408551600f0b90565b611946610aed89518b6128ba565b8951600f0b612af8565b600f0b8852565b858514614592578161457d6145849261196a61458c969551600f0b90565b600f0b9052565b838352612ae9565b916144c4565b50506144cd565b6145b3919450611a83906000526013602052604060002090565b614527565b6106309060125460005260046020526145d46040600020612a4f565b6144a9565b6001600160a01b0381811660009081526016602052604090205416806124af575090565b63ffffffff9081166000190191908211610e9557565b63ffffffff9182169082160391908211610e9557565b80548210156108885760005260206000200190600090565b6001600160a01b03811660009081526018602052604090205463ffffffff169081156146dd576001600160a01b0316600090815260176020526040902060019161468f91613dc190916145fd565b0160009081908054905b8183106146a65750505090565b9091926146c36146b68584614629565b9054429160031b1c614180565b8101809111610e95576146d69093612ae9565b9190614699565b5050600090565b6001600160a01b038116600090815260186020526040902061470590613d82565b9163ffffffff8084161561480e576001600160a01b0383166000908152601760205260409020829061473a90613dc1876145fd565b541115614817576001600160a01b0383166000908152601760205260409020829061476490613efc565b541161480e5791906147776000946145fd565b83851684821611614789575050505090565b6147ab6147a56147998784614613565b60011c637fffffff1690565b82614613565b94856147cd81613e038760018060a01b03166000526017602052604060002090565b548481036147df575050505050505090565b93809596979394106000146147fa575050935b929190614777565b9095925061480891506145fd565b906147f2565b50505050600090565b505050610630906145fd565b80546801000000000000000081101561051f5761484591600182018155614629565b819291549060031b91821b91600019901b1916179055565b90600163ffffffff80931601918211610e9557565b1561487957565b60405162461bcd60e51b815260206004820152602360248201527f64737452657020776f756c64206861766520746f6f206d616e7920746f6b656e60448201526249647360e81b6064820152608490fd5b906001600160a01b03821615158080614a04575b6148e757505050565b6148ef575050565b6001600160a01b038216600090815260186020526040902061491090613d82565b9063ffffffff8216156149d9576001600160a01b0383166000908152601760205260409020600190614946905b613dc1856145fd565b01905b6001908161497661495987614c2c565b6001600160a01b0388166000908152601760205260409020613e03565b01906000835b614996575b505050505090613e77613e5b61058b9361485d565b84548110156149d457806149b0613eb66149be9388614629565b8381036149c4575b50612ae9565b8361497c565b6149ce9085614823565b386149b8565b614981565b6001600160a01b03831660009081526017602052604090206001906149fd90613efc565b0190614949565b508115156148de565b9091906001600160a01b03808416919081168083141580614c23575b614a35575b5050505050565b614b37575b50614a48575b808080614a2e565b6001600160a01b0382166000908152601860205260409020614a6990613d82565b9063ffffffff821615614b0d576001600160a01b0383166000908152601760205260409020600190614a9a9061493d565b015b600180614aab61495987614c2c565b0191614abd610400613e2a83546127d7565b6000825b614ae5575b505050614ade9392613e56613e7793613e5b93614823565b3880614a40565b8154811015614b085780611a2e613ec0613eb6614b029486614629565b82614ac1565b614ac6565b6001600160a01b0383166000908152601760205260409020600190614b3190613efc565b01614a9c565b6001600160a01b0381166000908152601860205260409020614b5890613d82565b63ffffffff811615614bf9576001600160a01b0382166000908152601760205260409020600190614b8890613db8565b015b600180614b99613dea86614c2c565b016000825b614bbd575b5050505090613e77613e5b614bb79361485d565b38614a3a565b8354811015614bf45780614bd7613eb6614be49387614629565b898103614bea5750612ae9565b82614b9e565b6149ce9084614823565b614ba3565b6001600160a01b0382166000908152601760205260409020600190614c1d90613efc565b01614b8a565b50831515614a29565b6001600160a01b031660009081526018602052604090205463ffffffff1680151580614c61575b1561063057610630906145fd565b5060176020526040600020614c7a4291613dc1846145fd565b5414614c53565b9190614c8c836145d9565b6001600160a01b03848116600081815260166020526040812080546001600160a01b031916868516179055929091848116928282168481837f3134e8a2e6d97e929a7e54011ea5485d7d196dd5f0ba4d4ef95803e8e3fc257f8980a4848103614cfb575b505050505050509050565b614e62575b505050614d12575b8080808080614cf0565b6001600160a01b0382166000908152601860205260409020614d3390613d82565b9063ffffffff821615614e37576001600160a01b0383166000908152601760205260409020600190614d649061493d565b01905b60019081614d7761495987614c2c565b6001600160a01b0389166000908152600960205260409020910192905493614da6610400613e2a878454612806565b82825b614e09575b5050505b828110614dd657505050614dce929350613e5b613e779161485d565b803880614d08565b80611a2e614dfd614e04936129638b60018060a01b0316600052600d602052604060002090565b5484614823565b614db2565b8154811015614e325780611a2e614e26613eb6614e2c9486614629565b87614823565b82614da9565b614dae565b6001600160a01b0383166000908152601760205260409020600190614e5b90613efc565b0190614d67565b6001600160a01b0383166000908152601860205260409020614e8390613d82565b9163ffffffff831615614f64576001600160a01b0384166000908152601760205260409020600190614eb890613dc1866145fd565b01915b60019182614ee8614ecb88614c2c565b6001600160a01b0389166000908152601760205260409020613e03565b019188845b614f10575b50505050505090613e77613e5b614f089361485d565b388080614d00565b8554811015614f5f5780614f2a613eb6614f4f9389614629565b8385614f43611d29846000526008602052604060002090565b1603614f555750612ae9565b84614eed565b6149ce9086614823565b614ef2565b6001600160a01b0384166000908152601760205260409020600190614f8890613efc565b0191614ebb565b15614f9657565b60405162461bcd60e51b815260206004820152602e60248201527f566f74696e67457363726f773a3a64656c656761746542795369673a20696e7660448201526d616c6964207369676e617475726560901b6064820152608490fd5b15614ff957565b60405162461bcd60e51b815260206004820152602a60248201527f566f74696e67457363726f773a3a64656c656761746542795369673a20696e76604482015269616c6964206e6f6e636560b01b6064820152608490fd5b1561505857565b60405162461bcd60e51b815260206004820152602e60248201527f566f74696e67457363726f773a3a64656c656761746542795369673a2073696760448201526d1b985d1d5c9948195e1c1a5c995960921b6064820152608490fdfeff04ccafc360e16b67d682d17bd9503c4c6b9a131f6be6325762dc9ffc7de6245e2aa66efd74cce82b21852e317e5490d9ecc9e6bb953ae24d90851258cc2f5ca26469706673582212209211bd02d5d9314ab91ba10974b71e63ee959fbf16ae320a23a0909654a4a19b64736f6c63430008130033",
  "linkReferences": {},
  "deployedLinkReferences": {}
}