{
  "_format": "hh-sol-artifact-1",
  "contractName": "RegisterModel",
  "sourceName": "contracts/Example/RegisterModel.sol",
  "abi": [
    {
      "inputs": [
        {
          "internalType": "contract IArbius",
          "name": "_arbius",
          "type": "address"
        }
      ],
      "stateMutability": "nonpayable",
      "type": "constructor"
    },
    {
      "inputs": [
        {
          "internalType": "bytes",
          "name": "_template",
          "type": "bytes"
        }
      ],
      "name": "registerModel",
      "outputs": [],
      "stateMutability": "nonpayable",
      "type": "function"
    }
  ],
  "bytecode": "0x608060405234801561001057600080fd5b506040516102d83803806102d883398101604081905261002f91610054565b600080546001600160a01b0319166001600160a01b0392909216919091179055610084565b60006020828403121561006657600080fd5b81516001600160a01b038116811461007d57600080fd5b9392505050565b610245806100936000396000f3fe608060405234801561001057600080fd5b506004361061002b5760003560e01c80630131ebac14610030575b600080fd5b61004361003e3660046100e0565b610045565b005b600080546040516327f81f7d60e11b81526001600160a01b0390911690634ff03efa9061008290309067016345785d8a0000908790600401610191565b6020604051808303816000875af11580156100a1573d6000803e3d6000fd5b505050506040513d601f19601f820116820180604052508101906100c591906101f6565b505050565b634e487b7160e01b600052604160045260246000fd5b6000602082840312156100f257600080fd5b813567ffffffffffffffff8082111561010a57600080fd5b818401915084601f83011261011e57600080fd5b813581811115610130576101306100ca565b604051601f8201601f19908116603f01168101908382118183101715610158576101586100ca565b8160405282815287602084870101111561017157600080fd5b826020860160208301376000928101602001929092525095945050505050565b60018060a01b038416815260006020848184015260606040840152835180606085015260005b818110156101d3578581018301518582016080015282016101b7565b506000608082860101526080601f19601f83011685010192505050949350505050565b60006020828403121561020857600080fd5b505191905056fea26469706673582212207e5a712bea121afb63153978119f3c93ceec000a5a2ce556a6fb4b15365c9b4464736f6c63430008130033",
  "linkReferences": {},
  "deployedLinkReferences": {}
}