{
  "_format": "hh-sol-artifact-1",
  "contractName": "RegisterModel",
  "sourceName": "contracts/Example/RegisterModel.sol",
  "abi": [
    {
      "inputs": [
        {
          "internalType": "contract IArbius",
          "name": "_arbius",
          "type": "address"
        }
      ],
      "stateMutability": "nonpayable",
      "type": "constructor"
    },
    {
      "inputs": [
        {
          "internalType": "bytes",
          "name": "_template",
          "type": "bytes"
        }
      ],
      "name": "registerModel",
      "outputs": [],
      "stateMutability": "nonpayable",
      "type": "function"
    }
  ],
  "bytecode": "0x60803461007457601f61028138819003918201601f19168301916001600160401b038311848410176100795780849260209460405283398101031261007457516001600160a01b0381169081900361007457600080546001600160a01b0319169190911790556040516101f190816100908239f35b600080fd5b634e487b7160e01b600052604160045260246000fdfe608080604052600436101561001357600080fd5b600090813560e01c630131ebac1461002a57600080fd5b3461017e5760209081600319360112610162576001600160401b0360043581811161017a573660238201121561017a578060040135918211610166578490601f199261007d8685601f8401160186610182565b808552366024828401011161016257808694959392916024869301838601378301015260018060a01b03855416856040519485936327f81f7d60e11b855230600486015267016345785d8a0000602486015260606044860152805190816064870152835b828110610147575050848392601f8383966084809686010152011681010301925af1801561013c57610111578280f35b813d8311610135575b6101248183610182565b810103126101325738808280f35b80fd5b503d61011a565b6040513d85823e3d90fd5b8082018801518982016084015289978997508b9550016100e1565b8280fd5b634e487b7160e01b85526041600452602485fd5b8480fd5b5080fd5b601f909101601f19168101906001600160401b038211908210176101a557604052565b634e487b7160e01b600052604160045260246000fdfea26469706673582212201734e29d00efe7e2cafcf5720049e7e2a79184e3b8ec6f1e2a47c54c13810c1f64736f6c63430008130033",
  "linkReferences": {},
  "deployedLinkReferences": {}
}