{
  "_format": "hh-sol-artifact-1",
  "contractName": "ModelTokenV1",
  "sourceName": "contracts/modeltokens/ModelTokenV1.sol",
  "abi": [
    {
      "inputs": [
        {
          "internalType": "string",
          "name": "_name",
          "type": "string"
        },
        {
          "internalType": "string",
          "name": "_symbol",
          "type": "string"
        },
        {
          "internalType": "uint256",
          "name": "_initialSupply",
          "type": "uint256"
        },
        {
          "internalType": "address",
          "name": "_treasury",
          "type": "address"
        },
        {
          "internalType": "address",
          "name": "_arbius",
          "type": "address"
        },
        {
          "internalType": "address",
          "name": "_arbiusToken",
          "type": "address"
        },
        {
          "internalType": "address",
          "name": "_arbiusTreasury",
          "type": "address"
        },
        {
          "internalType": "address",
          "name": "_router",
          "type": "address"
        }
      ],
      "stateMutability": "nonpayable",
      "type": "constructor"
    },
    {
      "inputs": [],
      "name": "InvalidShortString",
      "type": "error"
    },
    {
      "inputs": [
        {
          "internalType": "string",
          "name": "str",
          "type": "string"
        }
      ],
      "name": "StringTooLong",
      "type": "error"
    },
    {
      "anonymous": false,
      "inputs": [
        {
          "indexed": true,
          "internalType": "address",
          "name": "owner",
          "type": "address"
        },
        {
          "indexed": true,
          "internalType": "address",
          "name": "spender",
          "type": "address"
        },
        {
          "indexed": false,
          "internalType": "uint256",
          "name": "value",
          "type": "uint256"
        }
      ],
      "name": "Approval",
      "type": "event"
    },
    {
      "anonymous": false,
      "inputs": [
        {
          "indexed": true,
          "internalType": "address",
          "name": "caller",
          "type": "address"
        }
      ],
      "name": "ArbiusWithdrawn",
      "type": "event"
    },
    {
      "anonymous": false,
      "inputs": [
        {
          "indexed": true,
          "internalType": "address",
          "name": "delegator",
          "type": "address"
        },
        {
          "indexed": true,
          "internalType": "address",
          "name": "fromDelegate",
          "type": "address"
        },
        {
          "indexed": true,
          "internalType": "address",
          "name": "toDelegate",
          "type": "address"
        }
      ],
      "name": "DelegateChanged",
      "type": "event"
    },
    {
      "anonymous": false,
      "inputs": [
        {
          "indexed": true,
          "internalType": "address",
          "name": "delegate",
          "type": "address"
        },
        {
          "indexed": false,
          "internalType": "uint256",
          "name": "previousBalance",
          "type": "uint256"
        },
        {
          "indexed": false,
          "internalType": "uint256",
          "name": "newBalance",
          "type": "uint256"
        }
      ],
      "name": "DelegateVotesChanged",
      "type": "event"
    },
    {
      "anonymous": false,
      "inputs": [],
      "name": "EIP712DomainChanged",
      "type": "event"
    },
    {
      "anonymous": false,
      "inputs": [
        {
          "indexed": true,
          "internalType": "address",
          "name": "caller",
          "type": "address"
        }
      ],
      "name": "Liquidation",
      "type": "event"
    },
    {
      "anonymous": false,
      "inputs": [
        {
          "indexed": false,
          "internalType": "uint256",
          "name": "liquidityDivisor",
          "type": "uint256"
        }
      ],
      "name": "LiquidityDivisorSet",
      "type": "event"
    },
    {
      "anonymous": false,
      "inputs": [
        {
          "indexed": true,
          "internalType": "address",
          "name": "previousOwner",
          "type": "address"
        },
        {
          "indexed": true,
          "internalType": "address",
          "name": "newOwner",
          "type": "address"
        }
      ],
      "name": "OwnershipTransferred",
      "type": "event"
    },
    {
      "anonymous": false,
      "inputs": [
        {
          "indexed": true,
          "internalType": "bytes32",
          "name": "model",
          "type": "bytes32"
        },
        {
          "indexed": true,
          "internalType": "address",
          "name": "addr",
          "type": "address"
        }
      ],
      "name": "PricingTokenSet",
      "type": "event"
    },
    {
      "anonymous": false,
      "inputs": [
        {
          "indexed": true,
          "internalType": "bytes32",
          "name": "model",
          "type": "bytes32"
        },
        {
          "indexed": false,
          "internalType": "bool",
          "name": "enabled",
          "type": "bool"
        }
      ],
      "name": "PublicSyncingEnabled",
      "type": "event"
    },
    {
      "anonymous": false,
      "inputs": [
        {
          "indexed": false,
          "internalType": "uint256",
          "name": "rewardDivisor",
          "type": "uint256"
        }
      ],
      "name": "RewardDivisorSet",
      "type": "event"
    },
    {
      "anonymous": false,
      "inputs": [
        {
          "indexed": true,
          "internalType": "address",
          "name": "addr",
          "type": "address"
        }
      ],
      "name": "SwapReceiverSet",
      "type": "event"
    },
    {
      "anonymous": false,
      "inputs": [
        {
          "indexed": true,
          "internalType": "bytes32",
          "name": "model",
          "type": "bytes32"
        },
        {
          "indexed": false,
          "internalType": "uint256",
          "name": "price",
          "type": "uint256"
        }
      ],
      "name": "Sync",
      "type": "event"
    },
    {
      "anonymous": false,
      "inputs": [
        {
          "indexed": true,
          "internalType": "bytes32",
          "name": "model",
          "type": "bytes32"
        },
        {
          "indexed": false,
          "internalType": "uint256",
          "name": "targetPrice",
          "type": "uint256"
        }
      ],
      "name": "TargetPriceSet",
      "type": "event"
    },
    {
      "anonymous": false,
      "inputs": [
        {
          "indexed": false,
          "internalType": "uint256",
          "name": "taxDivisor",
          "type": "uint256"
        }
      ],
      "name": "TaxDivisorSet",
      "type": "event"
    },
    {
      "anonymous": false,
      "inputs": [],
      "name": "TaxEnabled",
      "type": "event"
    },
    {
      "anonymous": false,
      "inputs": [
        {
          "indexed": true,
          "internalType": "address",
          "name": "from",
          "type": "address"
        },
        {
          "indexed": true,
          "internalType": "address",
          "name": "to",
          "type": "address"
        },
        {
          "indexed": false,
          "internalType": "uint256",
          "name": "value",
          "type": "uint256"
        }
      ],
      "name": "Transfer",
      "type": "event"
    },
    {
      "inputs": [],
      "name": "CLOCK_MODE",
      "outputs": [
        {
          "internalType": "string",
          "name": "",
          "type": "string"
        }
      ],
      "stateMutability": "view",
      "type": "function"
    },
    {
      "inputs": [],
      "name": "DOMAIN_SEPARATOR",
      "outputs": [
        {
          "internalType": "bytes32",
          "name": "",
          "type": "bytes32"
        }
      ],
      "stateMutability": "view",
      "type": "function"
    },
    {
      "inputs": [
        {
          "internalType": "address",
          "name": "owner",
          "type": "address"
        },
        {
          "internalType": "address",
          "name": "spender",
          "type": "address"
        }
      ],
      "name": "allowance",
      "outputs": [
        {
          "internalType": "uint256",
          "name": "",
          "type": "uint256"
        }
      ],
      "stateMutability": "view",
      "type": "function"
    },
    {
      "inputs": [
        {
          "internalType": "address",
          "name": "spender",
          "type": "address"
        },
        {
          "internalType": "uint256",
          "name": "amount",
          "type": "uint256"
        }
      ],
      "name": "approve",
      "outputs": [
        {
          "internalType": "bool",
          "name": "",
          "type": "bool"
        }
      ],
      "stateMutability": "nonpayable",
      "type": "function"
    },
    {
      "inputs": [],
      "name": "arbius",
      "outputs": [
        {
          "internalType": "contract IArbius",
          "name": "",
          "type": "address"
        }
      ],
      "stateMutability": "view",
      "type": "function"
    },
    {
      "inputs": [],
      "name": "arbiusToken",
      "outputs": [
        {
          "internalType": "contract IERC20",
          "name": "",
          "type": "address"
        }
      ],
      "stateMutability": "view",
      "type": "function"
    },
    {
      "inputs": [],
      "name": "arbiusTreasury",
      "outputs": [
        {
          "internalType": "address",
          "name": "",
          "type": "address"
        }
      ],
      "stateMutability": "view",
      "type": "function"
    },
    {
      "inputs": [
        {
          "internalType": "address",
          "name": "account",
          "type": "address"
        }
      ],
      "name": "balanceOf",
      "outputs": [
        {
          "internalType": "uint256",
          "name": "",
          "type": "uint256"
        }
      ],
      "stateMutability": "view",
      "type": "function"
    },
    {
      "inputs": [
        {
          "internalType": "address",
          "name": "account",
          "type": "address"
        },
        {
          "internalType": "uint32",
          "name": "pos",
          "type": "uint32"
        }
      ],
      "name": "checkpoints",
      "outputs": [
        {
          "components": [
            {
              "internalType": "uint32",
              "name": "fromBlock",
              "type": "uint32"
            },
            {
              "internalType": "uint224",
              "name": "votes",
              "type": "uint224"
            }
          ],
          "internalType": "struct ERC20Votes.Checkpoint",
          "name": "",
          "type": "tuple"
        }
      ],
      "stateMutability": "view",
      "type": "function"
    },
    {
      "inputs": [],
      "name": "clock",
      "outputs": [
        {
          "internalType": "uint48",
          "name": "",
          "type": "uint48"
        }
      ],
      "stateMutability": "view",
      "type": "function"
    },
    {
      "inputs": [],
      "name": "decimals",
      "outputs": [
        {
          "internalType": "uint8",
          "name": "",
          "type": "uint8"
        }
      ],
      "stateMutability": "view",
      "type": "function"
    },
    {
      "inputs": [
        {
          "internalType": "address",
          "name": "spender",
          "type": "address"
        },
        {
          "internalType": "uint256",
          "name": "subtractedValue",
          "type": "uint256"
        }
      ],
      "name": "decreaseAllowance",
      "outputs": [
        {
          "internalType": "bool",
          "name": "",
          "type": "bool"
        }
      ],
      "stateMutability": "nonpayable",
      "type": "function"
    },
    {
      "inputs": [
        {
          "internalType": "address",
          "name": "delegatee",
          "type": "address"
        }
      ],
      "name": "delegate",
      "outputs": [],
      "stateMutability": "nonpayable",
      "type": "function"
    },
    {
      "inputs": [
        {
          "internalType": "address",
          "name": "delegatee",
          "type": "address"
        },
        {
          "internalType": "uint256",
          "name": "nonce",
          "type": "uint256"
        },
        {
          "internalType": "uint256",
          "name": "expiry",
          "type": "uint256"
        },
        {
          "internalType": "uint8",
          "name": "v",
          "type": "uint8"
        },
        {
          "internalType": "bytes32",
          "name": "r",
          "type": "bytes32"
        },
        {
          "internalType": "bytes32",
          "name": "s",
          "type": "bytes32"
        }
      ],
      "name": "delegateBySig",
      "outputs": [],
      "stateMutability": "nonpayable",
      "type": "function"
    },
    {
      "inputs": [
        {
          "internalType": "address",
          "name": "account",
          "type": "address"
        }
      ],
      "name": "delegates",
      "outputs": [
        {
          "internalType": "address",
          "name": "",
          "type": "address"
        }
      ],
      "stateMutability": "view",
      "type": "function"
    },
    {
      "inputs": [],
      "name": "eip712Domain",
      "outputs": [
        {
          "internalType": "bytes1",
          "name": "fields",
          "type": "bytes1"
        },
        {
          "internalType": "string",
          "name": "name",
          "type": "string"
        },
        {
          "internalType": "string",
          "name": "version",
          "type": "string"
        },
        {
          "internalType": "uint256",
          "name": "chainId",
          "type": "uint256"
        },
        {
          "internalType": "address",
          "name": "verifyingContract",
          "type": "address"
        },
        {
          "internalType": "bytes32",
          "name": "salt",
          "type": "bytes32"
        },
        {
          "internalType": "uint256[]",
          "name": "extensions",
          "type": "uint256[]"
        }
      ],
      "stateMutability": "view",
      "type": "function"
    },
    {
      "inputs": [],
      "name": "enableTax",
      "outputs": [],
      "stateMutability": "nonpayable",
      "type": "function"
    },
    {
      "inputs": [
        {
          "internalType": "uint256",
          "name": "timepoint",
          "type": "uint256"
        }
      ],
      "name": "getPastTotalSupply",
      "outputs": [
        {
          "internalType": "uint256",
          "name": "",
          "type": "uint256"
        }
      ],
      "stateMutability": "view",
      "type": "function"
    },
    {
      "inputs": [
        {
          "internalType": "address",
          "name": "account",
          "type": "address"
        },
        {
          "internalType": "uint256",
          "name": "timepoint",
          "type": "uint256"
        }
      ],
      "name": "getPastVotes",
      "outputs": [
        {
          "internalType": "uint256",
          "name": "",
          "type": "uint256"
        }
      ],
      "stateMutability": "view",
      "type": "function"
    },
    {
      "inputs": [
        {
          "internalType": "address",
          "name": "account",
          "type": "address"
        }
      ],
      "name": "getVotes",
      "outputs": [
        {
          "internalType": "uint256",
          "name": "",
          "type": "uint256"
        }
      ],
      "stateMutability": "view",
      "type": "function"
    },
    {
      "inputs": [
        {
          "internalType": "address",
          "name": "spender",
          "type": "address"
        },
        {
          "internalType": "uint256",
          "name": "addedValue",
          "type": "uint256"
        }
      ],
      "name": "increaseAllowance",
      "outputs": [
        {
          "internalType": "bool",
          "name": "",
          "type": "bool"
        }
      ],
      "stateMutability": "nonpayable",
      "type": "function"
    },
    {
      "inputs": [],
      "name": "liquidate",
      "outputs": [],
      "stateMutability": "nonpayable",
      "type": "function"
    },
    {
      "inputs": [],
      "name": "liquidityDivisor",
      "outputs": [
        {
          "internalType": "uint256",
          "name": "",
          "type": "uint256"
        }
      ],
      "stateMutability": "view",
      "type": "function"
    },
    {
      "inputs": [],
      "name": "name",
      "outputs": [
        {
          "internalType": "string",
          "name": "",
          "type": "string"
        }
      ],
      "stateMutability": "view",
      "type": "function"
    },
    {
      "inputs": [
        {
          "internalType": "address",
          "name": "owner",
          "type": "address"
        }
      ],
      "name": "nonces",
      "outputs": [
        {
          "internalType": "uint256",
          "name": "",
          "type": "uint256"
        }
      ],
      "stateMutability": "view",
      "type": "function"
    },
    {
      "inputs": [
        {
          "internalType": "address",
          "name": "account",
          "type": "address"
        }
      ],
      "name": "numCheckpoints",
      "outputs": [
        {
          "internalType": "uint32",
          "name": "",
          "type": "uint32"
        }
      ],
      "stateMutability": "view",
      "type": "function"
    },
    {
      "inputs": [],
      "name": "owner",
      "outputs": [
        {
          "internalType": "address",
          "name": "",
          "type": "address"
        }
      ],
      "stateMutability": "view",
      "type": "function"
    },
    {
      "inputs": [
        {
          "internalType": "address",
          "name": "owner",
          "type": "address"
        },
        {
          "internalType": "address",
          "name": "spender",
          "type": "address"
        },
        {
          "internalType": "uint256",
          "name": "value",
          "type": "uint256"
        },
        {
          "internalType": "uint256",
          "name": "deadline",
          "type": "uint256"
        },
        {
          "internalType": "uint8",
          "name": "v",
          "type": "uint8"
        },
        {
          "internalType": "bytes32",
          "name": "r",
          "type": "bytes32"
        },
        {
          "internalType": "bytes32",
          "name": "s",
          "type": "bytes32"
        }
      ],
      "name": "permit",
      "outputs": [],
      "stateMutability": "nonpayable",
      "type": "function"
    },
    {
      "inputs": [
        {
          "internalType": "bytes32",
          "name": "",
          "type": "bytes32"
        }
      ],
      "name": "pricingToken",
      "outputs": [
        {
          "internalType": "contract IERC20Metadata",
          "name": "",
          "type": "address"
        }
      ],
      "stateMutability": "view",
      "type": "function"
    },
    {
      "inputs": [
        {
          "internalType": "bytes32",
          "name": "",
          "type": "bytes32"
        }
      ],
      "name": "pricingTokenDecimals",
      "outputs": [
        {
          "internalType": "uint256",
          "name": "",
          "type": "uint256"
        }
      ],
      "stateMutability": "view",
      "type": "function"
    },
    {
      "inputs": [
        {
          "internalType": "bytes32",
          "name": "",
          "type": "bytes32"
        }
      ],
      "name": "publicSyncingEnabled",
      "outputs": [
        {
          "internalType": "bool",
          "name": "",
          "type": "bool"
        }
      ],
      "stateMutability": "view",
      "type": "function"
    },
    {
      "inputs": [],
      "name": "renounceOwnership",
      "outputs": [],
      "stateMutability": "nonpayable",
      "type": "function"
    },
    {
      "inputs": [],
      "name": "rewardDivisor",
      "outputs": [
        {
          "internalType": "uint256",
          "name": "",
          "type": "uint256"
        }
      ],
      "stateMutability": "view",
      "type": "function"
    },
    {
      "inputs": [],
      "name": "router",
      "outputs": [
        {
          "internalType": "contract IUniswapV2Router02",
          "name": "",
          "type": "address"
        }
      ],
      "stateMutability": "view",
      "type": "function"
    },
    {
      "inputs": [
        {
          "internalType": "uint256",
          "name": "_liquidityDivisor",
          "type": "uint256"
        }
      ],
      "name": "setLiquidityDivisor",
      "outputs": [],
      "stateMutability": "nonpayable",
      "type": "function"
    },
    {
      "inputs": [
        {
          "internalType": "bytes32",
          "name": "_model",
          "type": "bytes32"
        },
        {
          "internalType": "address",
          "name": "_addr",
          "type": "address"
        }
      ],
      "name": "setPricingToken",
      "outputs": [],
      "stateMutability": "nonpayable",
      "type": "function"
    },
    {
      "inputs": [
        {
          "internalType": "bytes32",
          "name": "_model",
          "type": "bytes32"
        },
        {
          "internalType": "bool",
          "name": "_enabled",
          "type": "bool"
        }
      ],
      "name": "setPublicSyncingEnabled",
      "outputs": [],
      "stateMutability": "nonpayable",
      "type": "function"
    },
    {
      "inputs": [
        {
          "internalType": "uint256",
          "name": "_rewardDivisor",
          "type": "uint256"
        }
      ],
      "name": "setRewardDivisor",
      "outputs": [],
      "stateMutability": "nonpayable",
      "type": "function"
    },
    {
      "inputs": [
        {
          "internalType": "address",
          "name": "_addr",
          "type": "address"
        }
      ],
      "name": "setSwapReceiver",
      "outputs": [],
      "stateMutability": "nonpayable",
      "type": "function"
    },
    {
      "inputs": [
        {
          "internalType": "bytes32",
          "name": "_model",
          "type": "bytes32"
        },
        {
          "internalType": "uint256",
          "name": "_targetPrice",
          "type": "uint256"
        }
      ],
      "name": "setTargetPrice",
      "outputs": [],
      "stateMutability": "nonpayable",
      "type": "function"
    },
    {
      "inputs": [
        {
          "internalType": "uint256",
          "name": "_taxDivisor",
          "type": "uint256"
        }
      ],
      "name": "setTaxDivisor",
      "outputs": [],
      "stateMutability": "nonpayable",
      "type": "function"
    },
    {
      "inputs": [],
      "name": "swapReceiver",
      "outputs": [
        {
          "internalType": "contract ModelTokenSwapReceiver",
          "name": "",
          "type": "address"
        }
      ],
      "stateMutability": "view",
      "type": "function"
    },
    {
      "inputs": [],
      "name": "symbol",
      "outputs": [
        {
          "internalType": "string",
          "name": "",
          "type": "string"
        }
      ],
      "stateMutability": "view",
      "type": "function"
    },
    {
      "inputs": [
        {
          "internalType": "bytes32",
          "name": "_model",
          "type": "bytes32"
        }
      ],
      "name": "sync",
      "outputs": [],
      "stateMutability": "nonpayable",
      "type": "function"
    },
    {
      "inputs": [
        {
          "internalType": "bytes32",
          "name": "",
          "type": "bytes32"
        }
      ],
      "name": "targetPrice",
      "outputs": [
        {
          "internalType": "uint256",
          "name": "",
          "type": "uint256"
        }
      ],
      "stateMutability": "view",
      "type": "function"
    },
    {
      "inputs": [],
      "name": "taxDivisor",
      "outputs": [
        {
          "internalType": "uint256",
          "name": "",
          "type": "uint256"
        }
      ],
      "stateMutability": "view",
      "type": "function"
    },
    {
      "inputs": [],
      "name": "taxEnabled",
      "outputs": [
        {
          "internalType": "bool",
          "name": "",
          "type": "bool"
        }
      ],
      "stateMutability": "view",
      "type": "function"
    },
    {
      "inputs": [],
      "name": "totalSupply",
      "outputs": [
        {
          "internalType": "uint256",
          "name": "",
          "type": "uint256"
        }
      ],
      "stateMutability": "view",
      "type": "function"
    },
    {
      "inputs": [
        {
          "internalType": "address",
          "name": "to",
          "type": "address"
        },
        {
          "internalType": "uint256",
          "name": "amount",
          "type": "uint256"
        }
      ],
      "name": "transfer",
      "outputs": [
        {
          "internalType": "bool",
          "name": "",
          "type": "bool"
        }
      ],
      "stateMutability": "nonpayable",
      "type": "function"
    },
    {
      "inputs": [
        {
          "internalType": "address",
          "name": "from",
          "type": "address"
        },
        {
          "internalType": "address",
          "name": "to",
          "type": "address"
        },
        {
          "internalType": "uint256",
          "name": "amount",
          "type": "uint256"
        }
      ],
      "name": "transferFrom",
      "outputs": [
        {
          "internalType": "bool",
          "name": "",
          "type": "bool"
        }
      ],
      "stateMutability": "nonpayable",
      "type": "function"
    },
    {
      "inputs": [
        {
          "internalType": "address",
          "name": "to_",
          "type": "address"
        }
      ],
      "name": "transferOwnership",
      "outputs": [],
      "stateMutability": "nonpayable",
      "type": "function"
    },
    {
      "inputs": [],
      "name": "treasury",
      "outputs": [
        {
          "internalType": "address",
          "name": "",
          "type": "address"
        }
      ],
      "stateMutability": "view",
      "type": "function"
    },
    {
      "inputs": [
        {
          "internalType": "bytes32",
          "name": "_model",
          "type": "bytes32"
        },
        {
          "internalType": "address",
          "name": "_addr",
          "type": "address"
        }
      ],
      "name": "updateModelAddr",
      "outputs": [],
      "stateMutability": "nonpayable",
      "type": "function"
    },
    {
      "inputs": [
        {
          "internalType": "bytes32",
          "name": "_model",
          "type": "bytes32"
        },
        {
          "internalType": "uint256",
          "name": "_fee",
          "type": "uint256"
        }
      ],
      "name": "updateModelFee",
      "outputs": [],
      "stateMutability": "nonpayable",
      "type": "function"
    },
    {
      "inputs": [],
      "name": "withdrawArbius",
      "outputs": [],
      "stateMutability": "nonpayable",
      "type": "function"
    }
  ],
  "bytecode": "0x6101608060405234620001005762004db890813803809262000021826200011b565b8239818101610100809312620001005781516001600160401b03929083811162000100578262000053918301620001bd565b91610180519384116200010057620000b193620000719201620001bd565b6101a0516200007f62000218565b6200008962000230565b906200009462000248565b926200009f62000260565b94620000aa62000278565b96620002b6565b604051613887918262001511833960805182612bd7015260a05182612c92015260c05182612ba1015260e05182612c2601525181612c4c0152610120518161127e015261014051816112a70152f35b600080fd5b634e487b7160e01b600052604160045260246000fd5b601f01601f1916610160908101906001600160401b038211908210176200014157604052565b62000105565b604081019081106001600160401b038211176200014157604052565b601f909101601f19168101906001600160401b038211908210176200014157604052565b60405190620001968262000147565b565b60005b838110620001ac5750506000910152565b81810151838201526020016200019b565b81601f82011215620001005780516001600160401b038111620001415760405192620001f4601f8301601f19166020018562000163565b81845260208284010111620001005762000215916020808501910162000198565b90565b6101c051906001600160a01b03821682036200010057565b6101e051906001600160a01b03821682036200010057565b61020051906001600160a01b03821682036200010057565b61022051906001600160a01b03821682036200010057565b61024051906001600160a01b03821682036200010057565b908160209103126200010057518015158103620001005790565b6040513d6000823e3d90fd5b6200036f94620003d5966200034c620003dc9a96620002e1620003b3979b96620003919680620004bc565b620002f160ff1960165416601655565b6200030569021e19e0c9bab2400000601755565b620003186802b5e3af16b1880000601855565b6200032a671bc16d674ec80000601955565b600d80546001600160a01b0319166001600160a01b0392909216919091179055565b600e80546001600160a01b0319166001600160a01b039384161790559095869190565b600f8054919092166001600160a01b03166001600160a01b0319909116179055565b601080546001600160a01b0319166001600160a01b0392909216919091179055565b60118054919092166001600160a01b03166001600160a01b0319909116179055565b3362000d88565b6011546200040690620003ff906001600160a01b03165b6001600160a01b031690565b306200090c565b600f54600090602090620004739062000428906001600160a01b0316620003f3565b6011546200043f906001600160a01b0316620003f3565b60405163095ea7b360e01b81526001600160a01b039091166004820152600019602482015293849283919082906044820190565b03925af18015620004b657620004865750565b620004ab9060203d8111620004ae575b620004a2818362000163565b81019062000290565b50565b503d62000496565b620002aa565b9291909260405190620004cf8262000147565b60019283835260209081840194603160f81b865287519060018060401b03821162000141576200050c82620005066003546200062f565b6200066c565b8398601f8311600114620005a25782916200054995969798999a839260009462000596575b50501b916000199060031b1c191617600355620007d0565b620005548262000a27565b61012052620005638362000b37565b61014052815191012060e052519020610100524660a0526200058462000cb6565b6080523060c0526200019633620008c3565b01519250388062000531565b6003600052601f198316999192917fc2575a0e9e593c00f959f8c92f12db2869c3395a3b0502d05e2516446f71f85b9160005b8c811062000619575083620005499798999a9b9c10620005ff575b505050811b01600355620007d0565b015160001960f88460031b161c19169055388080620005f0565b81830151845592850192918701918701620005d5565b90600182811c9216801562000661575b60208310146200064b57565b634e487b7160e01b600052602260045260246000fd5b91607f16916200063f565b601f811162000679575050565b6000906003825260208220906020601f850160051c83019410620006ba575b601f0160051c01915b828110620006ae57505050565b818155600101620006a1565b909250829062000698565b601f8111620006d2575050565b6000906004825260208220906020601f850160051c8301941062000713575b601f0160051c01915b8281106200070757505050565b818155600101620006fa565b9092508290620006f1565b601f81116200072b575050565b6000906005825260208220906020601f850160051c830194106200076c575b601f0160051c01915b8281106200076057505050565b81815560010162000753565b90925082906200074a565b601f811162000784575050565b6000906006825260208220906020601f850160051c83019410620007c5575b601f0160051c01915b828110620007b957505050565b818155600101620007ac565b9092508290620007a3565b80519091906001600160401b0381116200014157620007fc81620007f66004546200062f565b620006c5565b602080601f83116001146200083b57508192936000926200082f575b50508160011b916000199060031b1c191617600455565b01519050388062000818565b6004600052601f198316949091907f8a35acfbc15ff81a39ae7d344fd709f28e8600b4aa8c65c6b64bfe7fe36bd19b926000905b878210620008aa57505083600195961062000890575b505050811b01600455565b015160001960f88460031b161c1916905538808062000885565b806001859682949686015181550195019301906200086f565b600c80546001600160a01b039283166001600160a01b0319821681179092559091167f8be0079c531659141344cd1fd0a4f28419497f9722a3daafe3b4186f6b6457e0600080a3565b6001600160a01b0381811691908215620009d657831692831562000986576001600160a01b0391821660009081526001602090815260408083209390941682529190915220600019905560405160001981527f8c5be1e5ebec7d5bd14f71427d1e84f3dd0314c0f7b2291e5b200ac8c7c3b92590602090a3565b60405162461bcd60e51b815260206004820152602260248201527f45524332303a20617070726f766520746f20746865207a65726f206164647265604482015261737360f01b6064820152608490fd5b60405162461bcd60e51b8152602060048201526024808201527f45524332303a20617070726f76652066726f6d20746865207a65726f206164646044820152637265737360e01b6064820152608490fd5b908151602080821060001462000a4557505090620002159062000c47565b6001600160401b038211620001415762000a6c8262000a666005546200062f565b6200071e565b80601f831160011462000aac575081929360009262000aa0575b50508160011b916000199060031b1c19161760055560ff90565b01519050388062000a86565b6005600052601f198316949091907f036b6384b5eca791c62761152d0c79bb0604c104a5fb6f4eb0703f3154bb3db0926000905b87821062000b1e57505083600195961062000b04575b505050811b0160055560ff90565b015160001960f88460031b161c1916905538808062000af6565b8060018596829496860151815501950193019062000ae0565b908151602080821060001462000b5557505090620002159062000c47565b6001600160401b038211620001415762000b7c8262000b766006546200062f565b62000777565b80601f831160011462000bbc575081929360009262000bb0575b50508160011b916000199060031b1c19161760065560ff90565b01519050388062000b96565b6006600052601f198316949091907ff652222313e28459528d920b65115c16c04f3efc82aaedc97be59f3f377c0d3f926000905b87821062000c2e57505083600195961062000c14575b505050811b0160065560ff90565b015160001960f88460031b161c1916905538808062000c06565b8060018596829496860151815501950193019062000bf0565b601f81511162000c7557602081519101516020821062000c65571790565b6000198260200360031b1b161790565b6044604051809263305a27a960e01b82526020600483015262000ca8815180928160248601526020868601910162000198565b601f01601f19168101030190fd5b60e051610100516040519060208201927f8b73c3c69bb8fe3d512ecc4cf759cc79239f7b179b0ffacaa9a75d522b39400f8452604083015260608201524660808201523060a082015260a0815260c0810181811060018060401b03821117620001415760405251902090565b1562000d2a57565b60405162461bcd60e51b815260206004820152603060248201527f4552433230566f7465733a20746f74616c20737570706c79207269736b73206f60448201526f766572666c6f77696e6720766f74657360801b6064820152608490fd5b906001600160a01b038216801562000e325760025482810180911162000e2c5762000e289362000e0a9262000dbd8593600255565b6001600160a01b038216600090815260208181526040808320805487019055518581527fddf252ad1be2c89b69c2b068fc378daa952ba7f163c4a11628f55a4df523b3ef9190a3620013e6565b60025462000e22906001600160e01b03101562000d22565b62000f97565b5050565b62000e77565b60405162461bcd60e51b815260206004820152601f60248201527f45524332303a206d696e7420746f20746865207a65726f2061646472657373006044820152606490fd5b634e487b7160e01b600052601160045260246000fd5b604080519192919081016001600160401b038111828210176200014157604052602081935463ffffffff81168352811c910152565b600b54906801000000000000000082101562000141576001820180600b5582101562000f3057600b600052805160209182015190911b63ffffffff191663ffffffff91909116177f0175b7a638427703f0dbe7bb9bbf987a2551717b34e79f33b5b1008d1fa01db990910155565b634e487b7160e01b600052603260045260246000fd5b9081546801000000000000000081101562000141576001810180845581101562000f3057600092835260209283902082519284015190931b63ffffffff191663ffffffff9290921691909117910155565b600b5490918115918215620010df5762000fb062000187565b60008152600060208201525b602081015162000fe99062000fe1906001600160e01b03165b6001600160e01b031690565b9586620014f4565b93159081620010b8575b501562001050576200019690620010396200100e85620012ae565b600b600052917f0175b7a638427703f0dbe7bb9bbf987a2551717b34e79f33b5b1008d1fa01db80190565b9063ffffffff82549181199060201b169116179055565b50620001966200107962001073620010684362001318565b65ffffffffffff1690565b62001380565b620010b26200108885620012ae565b620010a26200109662000187565b63ffffffff9094168452565b6001600160e01b03166020830152565b62000ec2565b5163ffffffff16905063ffffffff620010d5620010684362001318565b9116143862000ff3565b600b600052620011177f0175b7a638427703f0dbe7bb9bbf987a2551717b34e79f33b5b1008d1fa01db8820162000e8d565b62000e8d565b62000fbc565b90918154918215928360001462001221576200113862000187565b60008152600060208201525b60208101516200116a9062001162906001600160e01b031662000fd5565b968762001502565b94159081620011fa575b5015620011a1576200103962000196926200118f86620012ae565b92600019019060005260206000200190565b506200019690620011ba62001073620010684362001318565b90620011f4620011ca86620012ae565b620011e4620011d862000187565b63ffffffff9095168552565b6001600160e01b03166020840152565b62000f46565b5163ffffffff16905063ffffffff62001217620010684362001318565b9116143862001174565b6200123b6200111160001983018460005260206000200190565b62001144565b9091815491821592836000146200128e576200125c62000187565b60008152600060208201525b60208101516200116a9062001286906001600160e01b031662000fd5565b9687620014f4565b620012a86200111160001983018460005260206000200190565b62001268565b6001600160e01b0390818111620012c3571690565b60405162461bcd60e51b815260206004820152602760248201527f53616665436173743a2076616c756520646f65736e27742066697420696e20326044820152663234206269747360c81b6064820152608490fd5b65ffffffffffff908181116200132c571690565b60405162461bcd60e51b815260206004820152602660248201527f53616665436173743a2076616c756520646f65736e27742066697420696e203460448201526538206269747360d01b6064820152608490fd5b63ffffffff9081811162001392571690565b60405162461bcd60e51b815260206004820152602660248201527f53616665436173743a2076616c756520646f65736e27742066697420696e203360448201526532206269747360d01b6064820152608490fd5b60096020527fec8156718a8372b1db44bb411437d0870f3e3790d4a08526d024ce1b0b668f6b546001600160a01b039182166000908152604081205483169392909116908184141580620014ea575b62001441575b50505050565b829082620014a9575b505050816200145c575b80806200143b565b6001600160a01b0382166000908152600a6020526040902060008051602062004d9883398151915291620014909162001241565b60408051928352602083019190915290a2388062001454565b60008051602062004d988339815191529160408285620014d09452600a602052206200111d565b60408051928352602083019190915290a23881816200144a565b5082151562001435565b90810180911162000e2c5790565b90810390811162000e2c579056fe6080604052600436101561001257600080fd5b60003560e01c806306fdde0314610387578063095ea7b3146103825780631632070c1461037d57806318160ddd146103785780631da17ffc1461037357806323b872dd1461036e578063259800831461036957806328a07025146103645780632c7127971461035f578063313ce5671461035a5780633644e5151461035557806339509351146103505780633a46b1a81461034b5780633a6f43ef146103465780633dfb2369146103415780634bf5d7e91461033c5780634e0eae831461033757806353eb3bcf1461033257806357880e3c1461032d578063587cde1e146103285780635c19a95c1461032357806361d027b31461031e57806362d1d1dc1461031957806367a4793e1461031457806369c622501461030f5780636fcfff451461030a57806370a0823114610305578063715018a6146103005780637ecebe00146102fb57806383f23e77146102f657806384b0196e146102f15780638629cc7d146102ec578063870bd30b146102e75780638da5cb5b146102e25780638e539e8c146102dd57806391ddadf4146102d857806395d89b41146102d35780639ab24eb0146102ce578063a457c2d7146102c9578063a9059cbb146102c4578063ae4b2551146102bf578063be654834146102ba578063c3cda520146102b5578063cb5e0cca146102b0578063cf7c8667146102ab578063d093c7df146102a6578063d505accf146102a1578063dd62ed3e1461029c578063e0d61b0714610297578063f1127ed814610292578063f2fde38b1461028d578063f49c87e714610288578063f820ed4814610283578063f887ea401461027e5763fa6d5a491461027957600080fd5b612107565b6120de565b6120b2565b612094565b611fd7565b611f4c565b611f23565b611ed0565b611d9a565b611c04565b611b9b565b611b1b565b611a02565b611985565b611702565b6116d8565b611638565b6115d5565b611531565b611505565b6113d0565b6113a7565b611384565b61135b565b611263565b6111ed565b6111b0565b611164565b611127565b6110dc565b6110b3565b611067565b611049565b611020565b610ff8565b610fb9565b610f88565b610ee3565b610e97565b610de5565b610d8b565b610d57565b610c02565b610bb2565b610b8f565b610b73565b610b46565b6106b7565b610686565b6105b8565b61058c565b61056e565b610522565b6104ed565b6103f0565b600091031261039757565b600080fd5b919082519283825260005b8481106103c8575050826000602080949584010152601f8019910116010190565b6020818301810151848301820152016103a7565b9060206103ed92818152019061039c565b90565b34610397576000806003193601126104cd576040518160035461041281612274565b808452906001908181169081156104a5575060011461044c575b6104488461043c8188038261232d565b604051918291826103dc565b0390f35b60038352602094507fc2575a0e9e593c00f959f8c92f12db2869c3395a3b0502d05e2516446f71f85b5b82841061049257505050816104489361043c928201019361042c565b8054858501870152928501928101610476565b610448965061043c9450602092508593915060ff191682840152151560051b8201019361042c565b80fd5b6001600160a01b031690565b6001600160a01b0381160361039757565b346103975760403660031901126103975761051760043561050d816104dc565b60243590336123a5565b602060405160018152f35b34610397576020366003190112610397577f99225027f97777a7dc6cae4551309848a101c5029506ea7d8332bb8135a2bbf360206004356105616121fd565b80601755604051908152a1005b34610397576000366003190112610397576020600254604051908152f35b346103975760203660031901126103975760043560005260146020526020604060002054604051908152f35b34610397576060366003190112610397576004356105d5816104dc565b6024356105e1816104dc565b6044359060018060a01b038316600052600160205261060433604060002061236a565b549260018401610625575b610619935061350c565b60405160018152602090f35b8284106106415761063c83610619950333836123a5565b61060f565b60405162461bcd60e51b815260206004820152601d60248201527f45524332303a20696e73756666696369656e7420616c6c6f77616e63650000006044820152606490fd5b34610397576020366003190112610397576004356000526012602052602060ff604060002054166040519015158152f35b34610397576000806003193601126104cd576106ee6016546106db60ff8216613178565b60081c6001600160a01b031615156131c4565b6106fd60ff1960165416601655565b61071b61071261070c30612350565b5461321c565b60175490612ea7565b80610b35575b5061074361073d61073461070c30612350565b60195490612ea7565b60011c90565b806108ad575b5061075330612350565b5480610795575b5061076d600160ff196016541617601655565b337f1dcefe5e2cf98dcdab6edf65c40992d609d7d4befae237a9e41954d0abd43e928280a280f35b61079d613278565b6107b9306107aa836132a3565b6001600160a01b039091169052565b6107d86107cf6107ca600f546104d0565b6104d0565b6107aa836132b0565b6107e66107ca6011546104d0565b6040516315ab88c960e31b81529290602084600481845afa92831561087a5761081f869461084996869161087f575b506107aa836132c0565b8361082b600d546104d0565b6040516318cbafe560e01b8152968795869485939160048501613386565b03925af1801561087a571561075a57610873903d8084833e61086b818361232d565b8101906132d0565b503861075a565b612b1a565b6108a0915060203d81116108a6575b610898818361232d565b810190613408565b38610815565b503d61088e565b61091c826108b961324c565b6108c6306107aa836132a3565b6108d76107cf6107ca600f546104d0565b6108e56107ca6011546104d0565b6016546108fd9060081c6001600160a01b03166104d0565b91836040518096819582946338ed173960e01b84528a60048501613386565b03925af1801561087a57610b1b575b506016546109449060081c6001600160a01b03166104d0565b6109526107ca600f546104d0565b6040516370a0823160e01b8082529260209291908382806109768460048301610fa6565b0381865afa90811561087a5787928392610afc575b50803b15610af8576109b49383604051809681958294635705ae4360e01b8452600484016133d2565b03925af1801561087a57610adf575b506109d26107ca6011546104d0565b6109e06107ca600f546104d0565b936040519384528284806109f73060048301610fa6565b0381885afa92831561087a57610a739560609588928396610ab0575b505060405162e8e33760e81b81523060048201526001600160a01b0390911660248201526044810192909252606482019390935260006084820181905260a4820181905260c482015260001960e482015293849283918290610104820190565b03925af1801561087a571561074957610aa29060603d8111610aa9575b610a9a818361232d565b8101906133ed565b5050610749565b503d610a90565b610ad0929650803d10610ad8575b610ac8818361232d565b8101906133c3565b933880610a13565b503d610abe565b80610aec610af2926122c4565b8061038c565b386109c3565b8280fd5b610b14919250853d8711610ad857610ac8818361232d565b903861098b565b610b2e903d8085833e61086b818361232d565b503861092b565b610b4090333061350c565b38610721565b346103975760003660031901126103975760165460405160089190911c6001600160a01b03168152602090f35b3461039757600036600319011261039757602060405160128152f35b34610397576000366003190112610397576020610baa612b9e565b604051908152f35b3461039757604036600319011261039757600435610bcf816104dc565b336000526001602052610be681604060002061236a565b546024358101809111610bfd5761051791336123a5565b612381565b3461039757604036600319011261039757600435610c1f816104dc565b60243590610c3e65ffffffffffff610c3643613097565b168310612596565b6001600160a01b03166000908152600a6020526040812080549290918360058111610d06575b50905b838210610cb557505081610c8e575050602060005b6040516001600160e01b039091168152f35b610ca9610cb091602093600019019060005260206000200190565b5460201c90565b610c7c565b9092610cc18185612ec7565b908263ffffffff610ce6610cdc858860005260206000200190565b5463ffffffff1690565b161115610cf65750925b90610c67565b9350610d0190612397565b610cf0565b80610d16610d1c92969396612edc565b906125de565b908263ffffffff610d37610cdc858860005260206000200190565b161115610d475750925b38610c64565b9350610d5290612397565b610d41565b34610397576020366003190112610397576004356000526013602052602060018060a01b0360406000205416604051908152f35b34610397576040366003190112610397576004357fa42b608e8b0d70e8e405f35ed49661029099f5edd9072119c8773c823cebb40a6020602435610dcd6121fd565b836000526015825280604060002055604051908152a2005b34610397576000366003190112610397574365ffffffffffff610e0743613097565b1603610e5257610448604051610e1c816122dc565b601d81527f6d6f64653d626c6f636b6e756d6265722666726f6d3d64656661756c740000006020820152604051918291826103dc565b60405162461bcd60e51b815260206004820152601d60248201527f4552433230566f7465733a2062726f6b656e20636c6f636b206d6f64650000006044820152606490fd5b34610397576020366003190112610397577f13a9fa9f67f8430a37b306ad4aed74d218c8da209567a360a7847c1de7b0f3816020600435610ed66121fd565b80601855604051908152a1005b34610397576000806003193601126104cd57610efd6121fd565b60165460ff8116610f395760ff19166001176016557fd2e80fb3f28dfb650beb9c059dadd2a8936a8bdc1abd1563608cd49227a090218180a180f35b60405162461bcd60e51b815260206004820152602160248201527f4d6f64656c546f6b656e56313a2074617820616c726561647920656e61626c656044820152601960fa1b6064820152608490fd5b34610397576000366003190112610397576020601854604051908152f35b6001600160a01b03909116815260200190565b34610397576020366003190112610397576020600435610fd8816104dc565b60018060a01b038091166000526009825260406000205416604051908152f35b346103975760203660031901126103975761101e600435611018816104dc565b33612633565b005b3461039757600036600319011261039757600d546040516001600160a01b039091168152602090f35b34610397576000366003190112610397576020601954604051908152f35b34610397576020366003190112610397577f96d9a66159ad4f39593a024aa30803b86d798374ee746065f0f8a0fba5962d1c60206004356110a66121fd565b80601955604051908152a1005b34610397576000366003190112610397576010546040516001600160a01b039091168152602090f35b34610397576020366003190112610397576004356110f9816104dc565b60018060a01b0316600052600a60205260206111196040600020546130fe565b63ffffffff60405191168152f35b3461039757602036600319011261039757600435611144816104dc565b60018060a01b031660005260006020526020604060002054604051908152f35b34610397576000806003193601126104cd5761117e6121fd565b600c80546001600160a01b0319811690915581906001600160a01b03166000805160206137f28339815191528280a380f35b34610397576020366003190112610397576004356111cd816104dc565b60018060a01b031660005260076020526020604060002054604051908152f35b346103975760203660031901126103975760043561120a816104dc565b6112126121fd565b60168054610100600160a81b031916600883901b610100600160a81b03161790556001600160a01b03167f984dc45c0b359cf0b181f6522bcbe9c73bb2514d1aa5973a63aa0069237ebfb3600080a2005b34610397576000806003193601126104cd5761130d906112a27f0000000000000000000000000000000000000000000000000000000000000000612cf5565b6112cb7f0000000000000000000000000000000000000000000000000000000000000000612ded565b91604051916112d9836122f7565b818352604051948594600f60f81b86526112ff60209360e08589015260e088019061039c565b90868203604088015261039c565b904660608601523060808601528260a086015284820360c08601528080855193848152019401925b82811061134457505050500390f35b835185528695509381019392810192600101611335565b3461039757600036600319011261039757600f546040516001600160a01b039091168152602090f35b3461039757600036600319011261039757602060ff601654166040519015158152f35b3461039757600036600319011261039757600c546040516001600160a01b039091168152602090f35b34610397576020366003190112610397576004356113ff65ffffffffffff6113f743613097565b168210612596565b600b5490600082600581116114b0575b50905b82821061145f57828061142c575060405160008152602090f35b600b600052602090610cb0907f0175b7a638427703f0dbe7bb9bbf987a2551717b34e79f33b5b1008d1fa01db801610ca9565b909161146b8184612ec7565b600b600052908263ffffffff6114906000805160206138128339815191528501610cdc565b1611156114a05750915b90611412565b92506114ab90612397565b61149a565b80610d166114c092959395612edc565b600b600052908263ffffffff6114e56000805160206138128339815191528501610cdc565b1611156114f55750915b3861140f565b925061150090612397565b6114ef565b3461039757600036600319011261039757602061152143613097565b65ffffffffffff60405191168152f35b34610397576000806003193601126104cd576040518160045461155381612274565b808452906001908181169081156104a5575060011461157c576104488461043c8188038261232d565b60048352602094507f8a35acfbc15ff81a39ae7d344fd709f28e8600b4aa8c65c6b64bfe7fe36bd19b5b8284106115c257505050816104489361043c928201019361042c565b80548585018701529285019281016115a6565b34610397576020366003190112610397576004356115f2816104dc565b6001600160a01b03166000908152600a6020526040902080548061161e57505060405160008152602090f35b60209161162f916000190190612557565b5054811c610c7c565b3461039757604036600319011261039757600435611655816104dc565b6024359033600052600160205261167081604060002061236a565b549180831061168557610619920390336123a5565b60405162461bcd60e51b815260206004820152602560248201527f45524332303a2064656372656173656420616c6c6f77616e63652062656c6f77604482015264207a65726f60d81b6064820152608490fd5b34610397576040366003190112610397576105176004356116f8816104dc565b602435903361350c565b346103975760203660031901126103975760043561173461172d826000526012602052604060002090565b5460ff1690565b8015611960575b61174490613432565b61177d60018060a01b036117756107ca611768856000526013602052604060002090565b546001600160a01b031690565b16151561348f565b611785613278565b6117ab6117a26107ca611768856000526013602052604060002090565b6107aa836132a3565b6117b96107ca6011546104d0565b6040516315ab88c960e31b815291602083600481855afa91821561087a576117f2600093611845958591611942575b506107aa846132b0565b61180c6118036107ca600f546104d0565b6107aa846132c0565b611829611823866000526014602052604060002090565b546134e7565b60405180958194829363d06ca61f60e01b8452600484016134f5565b03915afa801561087a576118686118849161189293600091611929575b506132c0565b5161187d846000526015602052604060002090565b5490613239565b670de0b6b3a7640000900490565b6118a06107ca600e546104d0565b90813b156103975760006040518093637814d61f60e11b82528183816118ca878a6004840161269b565b03925af190811561087a577ff30880bfb1403d567b70f02fcd633b6164a8cedacf171db795d88e9f41adbade9261191192611916575b506040519081529081906020820190565b0390a2005b80610aec611923926122c4565b38611900565b61193c913d8091833e61086b818361232d565b38611862565b61195a915060203d81116108a657610898818361232d565b386117e8565b506117446119726107ca600c546104d0565b3314905061173b565b8015150361039757565b34610397576040366003190112610397576004357fa97028012082ab82a8b2d4fda0612ddd9b572d4ab01f82d5cdd97b68e163ac8c60206024356119c88161197b565b6119d06121fd565b836000526012825260406000209015159060ff1981541660ff8316179055604051908152a2005b60ff81160361039757565b346103975760c036600319011261039757600435611a1f816104dc565b60643590602435604435611a32846119f7565b804211611ad657611ac1611ad19161101e9560405190611aa982611a9b6020820195898b8860609194939260808201957fe48329057bfd03d55e49b547132e39cffd9c1820ad7b9d4c5307691425d15adf835260018060a01b0316602083015260408201520152565b03601f19810184528361232d565b611abc60a4359360843593519020612cb8565b6129c8565b91611acb8361250f565b146125eb565b612633565b60405162461bcd60e51b815260206004820152601d60248201527f4552433230566f7465733a207369676e617475726520657870697265640000006044820152606490fd5b3461039757600060403660031901126104cd57602435611b3a816104dc565b611b426121fd565b600e546001600160a01b0390811691839190833b15610af857604490836040519586948593636d7da19160e11b855260043560048601521660248401525af1801561087a57611b8f575080f35b611b98906122c4565b80f35b3461039757600060403660031901126104cd57611bb66121fd565b600e546001600160a01b0316803b15611c0057816040518092637814d61f60e11b8252818381611bee6024356004356004840161269b565b03925af1801561087a57611b8f575080f35b5080fd5b34610397576000806003193601126104cd57611c246107ca600f546104d0565b6040516370a0823160e01b815260209190828180611c453060048301610fa6565b0381855afa801561087a57849284928492611d7b575b50611c72611c6b6107128461321c565b80936125de565b9180611d1c575b5050611cb69250611c8e6107ca600f546104d0565b611c996010546104d0565b8660405180968195829463a9059cbb60e01b8452600484016133d2565b03925af1801561087a57611cee575b82337f1b9d4cca2d7da035bf26e420852492d6c1c97516d5da45bffc1296d710d8ea268280a280f35b81611d0d92903d10611d15575b611d05818361232d565b81019061341d565b503880611cc5565b503d611cfb565b90611d419160409493945195868094819363a9059cbb60e01b835233600484016133d2565b03925af190811561087a57611cb6928492611d5e575b8593611c79565b611d7490833d8511611d1557611d05818361232d565b5038611d57565b611d93919250833d8511610ad857610ac8818361232d565b9038611c5b565b346103975760e036600319011261039757600435611db7816104dc565b602435611dc3816104dc565b604435906064359260843593611dd8856119f7565b804211611e8b57611e73611e8691611a9b61101e97611e60611df98761250f565b604080517f6e71edae12b1b97f4d1f60370fef10105fa2faae0126114a169c64845d6126c9602082019081526001600160a01b03808c1693830193909352918b166060820152608081018c905260a081019290925260c082019590955292839060e0820190565b611abc60c4359360a43593519020612cb8565b6001600160a01b038381169116146124c3565b6123a5565b60405162461bcd60e51b815260206004820152601d60248201527f45524332305065726d69743a206578706972656420646561646c696e650000006044820152606490fd5b34610397576040366003190112610397576020611f1a600435611ef2816104dc565b60243590611eff826104dc565b6001600160a01b03166000908152600184526040902061236a565b54604051908152f35b3461039757600036600319011261039757600e546040516001600160a01b039091168152602090f35b3461039757604036600319011261039757600435611f69816104dc565b63ffffffff602435818116810361039757611fb3611fb991604094600060208751611f93816122dc565b82815201526001600160a01b03166000908152600a602052859020612557565b50612574565b8251815190921682526020908101516001600160e01b031690820152f35b3461039757602036600319011261039757600435611ff4816104dc565b611ffc6121fd565b6120046121fd565b6001600160a01b0390811690811561204057600c80546001600160a01b031981168417909155166000805160206137f2833981519152600080a3005b60405162461bcd60e51b815260206004820152602660248201527f4f776e61626c653a206e6577206f776e657220697320746865207a65726f206160448201526564647265737360d01b6064820152608490fd5b34610397576000366003190112610397576020601754604051908152f35b346103975760203660031901126103975760043560005260156020526020604060002054604051908152f35b34610397576000366003190112610397576011546040516001600160a01b039091168152602090f35b3461039757604036600319011261039757600435602435612127816104dc565b61212f6121fd565b60018060a01b0316600091808352601360205261214f8260408520612255565b6004602061216d6107ca611768856000526013602052604060002090565b60405163313ce56760e01b815292839182905afa801561087a5760ff9185916121cf575b50166121a7826000526014602052604060002090565b557f951e24d80f8f9bcce0910a001c8da92cdb33cc8bb276d3cc8e2d2d6aeb2a25ba8380a380f35b6121f0915060203d81116121f6575b6121e8818361232d565b810190613163565b38612191565b503d6121de565b600c546001600160a01b0316330361221157565b606460405162461bcd60e51b815260206004820152602060248201527f4f776e61626c653a2063616c6c6572206973206e6f7420746865206f776e65726044820152fd5b80546001600160a01b0319166001600160a01b03909216919091179055565b90600182811c921680156122a4575b602083101461228e57565b634e487b7160e01b600052602260045260246000fd5b91607f1691612283565b634e487b7160e01b600052604160045260246000fd5b6001600160401b0381116122d757604052565b6122ae565b604081019081106001600160401b038211176122d757604052565b602081019081106001600160401b038211176122d757604052565b60c081019081106001600160401b038211176122d757604052565b601f909101601f19168101906001600160401b038211908210176122d757604052565b6001600160a01b0316600090815260208190526040902090565b9060018060a01b0316600052602052604060002090565b634e487b7160e01b600052601160045260246000fd5b9060018201809211610bfd57565b6001600160a01b038082169291908315612472578216938415612422578061240c7f8c5be1e5ebec7d5bd14f71427d1e84f3dd0314c0f7b2291e5b200ac8c7c3b9259461240761241d9560018060a01b03166000526001602052604060002090565b61236a565b556040519081529081906020820190565b0390a3565b60405162461bcd60e51b815260206004820152602260248201527f45524332303a20617070726f766520746f20746865207a65726f206164647265604482015261737360f01b6064820152608490fd5b60405162461bcd60e51b8152602060048201526024808201527f45524332303a20617070726f76652066726f6d20746865207a65726f206164646044820152637265737360e01b6064820152608490fd5b156124ca57565b60405162461bcd60e51b815260206004820152601e60248201527f45524332305065726d69743a20696e76616c6964207369676e617475726500006044820152606490fd5b6001600160a01b0316600090815260076020526040902080546001810190915590565b6040519061253f826122dc565b565b634e487b7160e01b600052603260045260246000fd5b805482101561256f5760005260206000200190600090565b612541565b90604051612581816122dc565b602081935463ffffffff81168352811c910152565b1561259d57565b60405162461bcd60e51b815260206004820152601960248201527804552433230566f7465733a20667574757265206c6f6f6b757603c1b6044820152606490fd5b91908203918211610bfd57565b156125f257565b60405162461bcd60e51b81526020600482015260196024820152784552433230566f7465733a20696e76616c6964206e6f6e636560381b6044820152606490fd5b61253f9160018060a01b0380921660008181526009602052836040822054168092826020527f3134e8a2e6d97e929a7e54011ea5485d7d196dd5f0ba4d4ef95803e8e3fc257f60408420549660096020526126918760408720612255565b86169380a46126ac565b908152602081019190915260400190565b6001600160a01b0380831693929116808414158061288d575b6126d0575b50505050565b8061272e575b50826126e3575b806126ca565b6001600160a01b03166000908152600a60205260409020600080516020613832833981519152916127139161290f565b906127236040519283928361269b565b0390a23880806126dd565b80600052600a602052600080516020613832833981519152604060002080548015918260001461286a57612760612532565b6000815260006020820152915b602083015161278c906001600160e01b03165b6001600160e01b031690565b9261279789856137d7565b94159081612847575b50156127e5576127c86127cd926127b68661302e565b92600019019060005260206000200190565b612896565b6127dc6040519283928361269b565b0390a2386126d6565b50612842906128096128046127f943613097565b65ffffffffffff1690565b6130fe565b9061283d6128168661302e565b61282d612821612532565b63ffffffff9095168552565b6001600160e01b03166020840152565b6128ad565b6127cd565b5163ffffffff16905063ffffffff6128616127f943613097565b911614386127a0565b61288761288260001984018360005260206000200190565b612574565b9161276d565b508215156126c5565b9063ffffffff82549181199060201b169116179055565b8054600160401b8110156122d7576128ca91600182018155612557565b6128f9578163ffffffff61253f93511663ffffffff19835416178255602060018060e01b039101511690612896565b634e487b7160e01b600052600060045260246000fd5b9091815491821592836000146129ab57612927612532565b60008152600060208201525b60208101516129559061294e906001600160e01b0316612780565b96876137e4565b94159081612988575b5015612974576127c861253f926127b68661302e565b5061253f906128096128046127f943613097565b5163ffffffff16905063ffffffff6129a26127f943613097565b9116143861295e565b6129c361288260001983018460005260206000200190565b612933565b916103ed93916129d793612b26565b9190916129ff565b600511156129e957565b634e487b7160e01b600052602160045260246000fd5b612a08816129df565b80612a105750565b612a19816129df565b60018103612a615760405162461bcd60e51b815260206004820152601860248201527745434453413a20696e76616c6964207369676e617475726560401b6044820152606490fd5b612a6a816129df565b60028103612ab75760405162461bcd60e51b815260206004820152601f60248201527f45434453413a20696e76616c6964207369676e6174757265206c656e677468006044820152606490fd5b80612ac36003926129df565b14612aca57565b60405162461bcd60e51b815260206004820152602260248201527f45434453413a20696e76616c6964207369676e6174757265202773272076616c604482015261756560f01b6064820152608490fd5b6040513d6000823e3d90fd5b9291906fa2a8918ca85bafe22016d0b997e4df60600160ff1b038311612b925791608094939160ff602094604051948552168484015260408301526060820152600093849182805260015afa1561087a5781516001600160a01b03811615612b8c579190565b50600190565b50505050600090600390565b307f00000000000000000000000000000000000000000000000000000000000000006001600160a01b03161480612c8f575b15612bf9577f000000000000000000000000000000000000000000000000000000000000000090565b60405160208101907f8b73c3c69bb8fe3d512ecc4cf759cc79239f7b179b0ffacaa9a75d522b39400f82527f000000000000000000000000000000000000000000000000000000000000000060408201527f000000000000000000000000000000000000000000000000000000000000000060608201524660808201523060a082015260a08152612c8981612312565b51902090565b507f00000000000000000000000000000000000000000000000000000000000000004614612bd0565b604290612cc3612b9e565b906040519161190160f01b8352600283015260228201522090565b6001600160401b0381116122d75760051b60200190565b60ff8114612d335760ff811690601f8211612d215760405191612d17836122dc565b8252602082015290565b604051632cd44ac360e21b8152600490fd5b50604051600554816000612d4683612274565b808352600193808516908115612dcc5750600114612d6c575b506103ed9250038261232d565b600560009081527f036b6384b5eca791c62761152d0c79bb0604c104a5fb6f4eb0703f3154bb3db094602093509091905b818310612db45750506103ed935082010138612d5f565b85548784018501529485019486945091830191612d9d565b90506103ed94506020925060ff191682840152151560051b82010138612d5f565b60ff8114612e0f5760ff811690601f8211612d215760405191612d17836122dc565b50604051600654816000612e2283612274565b808352600193808516908115612dcc5750600114612e4757506103ed9250038261232d565b600660009081527ff652222313e28459528d920b65115c16c04f3efc82aaedc97be59f3f377c0d3f94602093509091905b818310612e8f5750506103ed935082010138612d5f565b85548784018501529485019486945091830191612e78565b8115612eb1570490565b634e487b7160e01b600052601260045260246000fd5b90808216911860011c8101809111610bfd5790565b80156130165780612faf612fa8612f9e612f94612f8a612f80612f76612f6c60016103ed9a6000908b60801c8061300a575b508060401c80612ffd575b508060201c80612ff0575b508060101c80612fe3575b508060081c80612fd6575b508060041c80612fc9575b508060021c80612fbc575b50821c612fb5575b811c1b612f65818b612ea7565b0160011c90565b612f65818a612ea7565b612f658189612ea7565b612f658188612ea7565b612f658187612ea7565b612f658186612ea7565b612f658185612ea7565b8092612ea7565b9061301c565b8101612f58565b6002915091019038612f50565b6004915091019038612f45565b6008915091019038612f3a565b6010915091019038612f2f565b6020915091019038612f24565b6040915091019038612f19565b91505060809038612f0e565b50600090565b9080821015613029575090565b905090565b6001600160e01b0390818111613042571690565b60405162461bcd60e51b815260206004820152602760248201527f53616665436173743a2076616c756520646f65736e27742066697420696e20326044820152663234206269747360c81b6064820152608490fd5b65ffffffffffff908181116130aa571690565b60405162461bcd60e51b815260206004820152602660248201527f53616665436173743a2076616c756520646f65736e27742066697420696e203460448201526538206269747360d01b6064820152608490fd5b63ffffffff9081811161310f571690565b60405162461bcd60e51b815260206004820152602660248201527f53616665436173743a2076616c756520646f65736e27742066697420696e203360448201526532206269747360d01b6064820152608490fd5b9081602091031261039757516103ed816119f7565b1561317f57565b60405162461bcd60e51b815260206004820152601d60248201527f4d6f64656c546f6b656e56313a20746178206e6f7420656e61626c65640000006044820152606490fd5b156131cb57565b60405162461bcd60e51b815260206004820152602360248201527f4d6f64656c546f6b656e56313a2073776170207265636569766572206e6f74206044820152621cd95d60ea1b6064820152608490fd5b90670de0b6b3a764000091828102928184041490151715610bfd57565b81810292918115918404141715610bfd57565b60405190606082016001600160401b038111838210176122d75760405260028252604082602036910137565b60405190608082016001600160401b038111838210176122d757604052600382526060366020840137565b80511561256f5760200190565b80516001101561256f5760400190565b80516002101561256f5760600190565b6020908181840312610397578051906001600160401b03821161039757019180601f8401121561039757825161330581612cde565b93613313604051958661232d565b818552838086019260051b820101928311610397578301905b82821061333a575050505090565b8151815290830190830161332c565b90815180825260208080930193019160005b828110613369575050505090565b83516001600160a01b03168552938101939281019260010161335b565b916133a89194939483526000602084015260a0604084015260a0830190613349565b6001600160a01b039093166060820152600019608090910152565b90816020910312610397575190565b6001600160a01b039091168152602081019190915260400190565b90816060910312610397578051916040602083015192015190565b9081602091031261039757516103ed816104dc565b9081602091031261039757516103ed8161197b565b1561343957565b60405162461bcd60e51b815260206004820152602860248201527f4d6f64656c546f6b656e56313a207075626c69632073796e63696e67206e6f7460448201526708195b98589b195960c21b6064820152608490fd5b1561349657565b60405162461bcd60e51b815260206004820152602360248201527f4d6f64656c546f6b656e56313a2070726963696e6720746f6b656e206e6f74206044820152621cd95d60ea1b6064820152608490fd5b604d8111610bfd57600a0a90565b6040906103ed939281528160208201520190613349565b919061352161351d60165460ff1690565b1590565b8015613606575b80156135f4575b80156135d5575b80156135c4575b80156135b2575b8015613593575b61357957613567611c6b61355e8461321c565b60185490612ea7565b9180613582575b508161357957505050565b61253f926136ca565b61358d9030856136ca565b3861356e565b506135a26107ca600d546104d0565b6001600160a01b0382161461354b565b506001600160a01b0381163014613544565b506001600160a01b0381161561353d565b506135e46107ca600d546104d0565b6001600160a01b03841614613536565b506001600160a01b038316301461352f565b506001600160a01b03831615613528565b1561361e57565b60405162461bcd60e51b815260206004820152602360248201527f45524332303a207472616e7366657220746f20746865207a65726f206164647260448201526265737360e81b6064820152608490fd5b1561367657565b60405162461bcd60e51b815260206004820152602660248201527f45524332303a207472616e7366657220616d6f756e7420657863656564732062604482015265616c616e636560d01b6064820152608490fd5b6001600160a01b0392919083811680156137525761253f948316906136f0821515613617565b846136fa84612350565b546137078282101561366f565b0361371184612350565b5561371b84612350565b8054860190556040518581527fddf252ad1be2c89b69c2b068fc378daa952ba7f163c4a11628f55a4df523b3ef90602090a36137a5565b60405162461bcd60e51b815260206004820152602560248201527f45524332303a207472616e736665722066726f6d20746865207a65726f206164604482015264647265737360d81b6064820152608490fd5b6001600160a01b0390811660009081526009602052604080822054938316825290205461253f939290821691166126ac565b908103908111610bfd5790565b908101809111610bfd579056fe8be0079c531659141344cd1fd0a4f28419497f9722a3daafe3b4186f6b6457e00175b7a638427703f0dbe7bb9bbf987a2551717b34e79f33b5b1008d1fa01db9dec2bacdd2f05b59de34da9b523dff8be42e5e38e818c82fdb0bae774387a724a26469706673582212208b2ed52ccb81f8c4dde858d55da6a8971b58d25300c5ee69eb3d0e43e0a7dec264736f6c63430008130033dec2bacdd2f05b59de34da9b523dff8be42e5e38e818c82fdb0bae774387a724",
  "linkReferences": {},
  "deployedLinkReferences": {}
}