{
  "_format": "hh-sol-artifact-1",
  "contractName": "L1Token",
  "sourceName": "contracts/L1Token.sol",
  "abi": [
    {
      "inputs": [
        {
          "internalType": "address",
          "name": "_customGatewayAddress",
          "type": "address"
        },
        {
          "internalType": "address",
          "name": "_routerAddress",
          "type": "address"
        },
        {
          "internalType": "uint256",
          "name": "_initialSupply",
          "type": "uint256"
        }
      ],
      "stateMutability": "nonpayable",
      "type": "constructor"
    },
    {
      "anonymous": false,
      "inputs": [
        {
          "indexed": true,
          "internalType": "address",
          "name": "owner",
          "type": "address"
        },
        {
          "indexed": true,
          "internalType": "address",
          "name": "spender",
          "type": "address"
        },
        {
          "indexed": false,
          "internalType": "uint256",
          "name": "value",
          "type": "uint256"
        }
      ],
      "name": "Approval",
      "type": "event"
    },
    {
      "anonymous": false,
      "inputs": [
        {
          "indexed": true,
          "internalType": "address",
          "name": "previousOwner",
          "type": "address"
        },
        {
          "indexed": true,
          "internalType": "address",
          "name": "newOwner",
          "type": "address"
        }
      ],
      "name": "OwnershipTransferred",
      "type": "event"
    },
    {
      "anonymous": false,
      "inputs": [
        {
          "indexed": true,
          "internalType": "address",
          "name": "from",
          "type": "address"
        },
        {
          "indexed": true,
          "internalType": "address",
          "name": "to",
          "type": "address"
        },
        {
          "indexed": false,
          "internalType": "uint256",
          "name": "value",
          "type": "uint256"
        }
      ],
      "name": "Transfer",
      "type": "event"
    },
    {
      "inputs": [
        {
          "internalType": "address",
          "name": "owner",
          "type": "address"
        },
        {
          "internalType": "address",
          "name": "spender",
          "type": "address"
        }
      ],
      "name": "allowance",
      "outputs": [
        {
          "internalType": "uint256",
          "name": "",
          "type": "uint256"
        }
      ],
      "stateMutability": "view",
      "type": "function"
    },
    {
      "inputs": [
        {
          "internalType": "address",
          "name": "spender",
          "type": "address"
        },
        {
          "internalType": "uint256",
          "name": "amount",
          "type": "uint256"
        }
      ],
      "name": "approve",
      "outputs": [
        {
          "internalType": "bool",
          "name": "",
          "type": "bool"
        }
      ],
      "stateMutability": "nonpayable",
      "type": "function"
    },
    {
      "inputs": [
        {
          "internalType": "address",
          "name": "account",
          "type": "address"
        }
      ],
      "name": "balanceOf",
      "outputs": [
        {
          "internalType": "uint256",
          "name": "",
          "type": "uint256"
        }
      ],
      "stateMutability": "view",
      "type": "function"
    },
    {
      "inputs": [],
      "name": "decimals",
      "outputs": [
        {
          "internalType": "uint8",
          "name": "",
          "type": "uint8"
        }
      ],
      "stateMutability": "view",
      "type": "function"
    },
    {
      "inputs": [
        {
          "internalType": "address",
          "name": "spender",
          "type": "address"
        },
        {
          "internalType": "uint256",
          "name": "subtractedValue",
          "type": "uint256"
        }
      ],
      "name": "decreaseAllowance",
      "outputs": [
        {
          "internalType": "bool",
          "name": "",
          "type": "bool"
        }
      ],
      "stateMutability": "nonpayable",
      "type": "function"
    },
    {
      "inputs": [
        {
          "internalType": "address",
          "name": "spender",
          "type": "address"
        },
        {
          "internalType": "uint256",
          "name": "addedValue",
          "type": "uint256"
        }
      ],
      "name": "increaseAllowance",
      "outputs": [
        {
          "internalType": "bool",
          "name": "",
          "type": "bool"
        }
      ],
      "stateMutability": "nonpayable",
      "type": "function"
    },
    {
      "inputs": [],
      "name": "isArbitrumEnabled",
      "outputs": [
        {
          "internalType": "uint8",
          "name": "",
          "type": "uint8"
        }
      ],
      "stateMutability": "view",
      "type": "function"
    },
    {
      "inputs": [],
      "name": "name",
      "outputs": [
        {
          "internalType": "string",
          "name": "",
          "type": "string"
        }
      ],
      "stateMutability": "view",
      "type": "function"
    },
    {
      "inputs": [],
      "name": "owner",
      "outputs": [
        {
          "internalType": "address",
          "name": "",
          "type": "address"
        }
      ],
      "stateMutability": "view",
      "type": "function"
    },
    {
      "inputs": [
        {
          "internalType": "address",
          "name": "l2CustomTokenAddress",
          "type": "address"
        },
        {
          "internalType": "uint256",
          "name": "maxSubmissionCostForCustomGateway",
          "type": "uint256"
        },
        {
          "internalType": "uint256",
          "name": "maxSubmissionCostForRouter",
          "type": "uint256"
        },
        {
          "internalType": "uint256",
          "name": "maxGasForCustomGateway",
          "type": "uint256"
        },
        {
          "internalType": "uint256",
          "name": "maxGasForRouter",
          "type": "uint256"
        },
        {
          "internalType": "uint256",
          "name": "gasPriceBid",
          "type": "uint256"
        },
        {
          "internalType": "uint256",
          "name": "valueForGateway",
          "type": "uint256"
        },
        {
          "internalType": "uint256",
          "name": "valueForRouter",
          "type": "uint256"
        },
        {
          "internalType": "address",
          "name": "creditBackAddress",
          "type": "address"
        }
      ],
      "name": "registerTokenOnL2",
      "outputs": [],
      "stateMutability": "payable",
      "type": "function"
    },
    {
      "inputs": [],
      "name": "renounceOwnership",
      "outputs": [],
      "stateMutability": "nonpayable",
      "type": "function"
    },
    {
      "inputs": [],
      "name": "symbol",
      "outputs": [
        {
          "internalType": "string",
          "name": "",
          "type": "string"
        }
      ],
      "stateMutability": "view",
      "type": "function"
    },
    {
      "inputs": [],
      "name": "totalSupply",
      "outputs": [
        {
          "internalType": "uint256",
          "name": "",
          "type": "uint256"
        }
      ],
      "stateMutability": "view",
      "type": "function"
    },
    {
      "inputs": [
        {
          "internalType": "address",
          "name": "to",
          "type": "address"
        },
        {
          "internalType": "uint256",
          "name": "amount",
          "type": "uint256"
        }
      ],
      "name": "transfer",
      "outputs": [
        {
          "internalType": "bool",
          "name": "",
          "type": "bool"
        }
      ],
      "stateMutability": "nonpayable",
      "type": "function"
    },
    {
      "inputs": [
        {
          "internalType": "address",
          "name": "sender",
          "type": "address"
        },
        {
          "internalType": "address",
          "name": "recipient",
          "type": "address"
        },
        {
          "internalType": "uint256",
          "name": "amount",
          "type": "uint256"
        }
      ],
      "name": "transferFrom",
      "outputs": [
        {
          "internalType": "bool",
          "name": "",
          "type": "bool"
        }
      ],
      "stateMutability": "nonpayable",
      "type": "function"
    },
    {
      "inputs": [
        {
          "internalType": "address",
          "name": "newOwner",
          "type": "address"
        }
      ],
      "name": "transferOwnership",
      "outputs": [],
      "stateMutability": "nonpayable",
      "type": "function"
    }
  ],
  "bytecode": "0x60806040523480156200001157600080fd5b50604051620012ce380380620012ce83398101604081905262000034916200024e565b6040518060400160405280600681526020016541726269757360d01b815250604051806040016040528060048152602001634149555360e01b8152506200008a620000846200011060201b60201c565b62000114565b600462000098838262000333565b506005620000a7828262000333565b5050600680546001600160a01b038087166001600160a01b0319928316179092556007805492861692909116919091179055506200010733620000e8601290565b620000f590600a62000514565b6200010190846200052c565b62000164565b5050506200055c565b3390565b600080546001600160a01b038381166001600160a01b0319831681178455604051919092169283917f8be0079c531659141344cd1fd0a4f28419497f9722a3daafe3b4186f6b6457e09190a35050565b6001600160a01b038216620001bf5760405162461bcd60e51b815260206004820152601f60248201527f45524332303a206d696e7420746f20746865207a65726f206164647265737300604482015260640160405180910390fd5b8060036000828254620001d3919062000546565b90915550506001600160a01b0382166000818152600160209081526040808320805486019055518481527fddf252ad1be2c89b69c2b068fc378daa952ba7f163c4a11628f55a4df523b3ef910160405180910390a35050565b505050565b80516001600160a01b03811681146200024957600080fd5b919050565b6000806000606084860312156200026457600080fd5b6200026f8462000231565b92506200027f6020850162000231565b9150604084015190509250925092565b634e487b7160e01b600052604160045260246000fd5b600181811c90821680620002ba57607f821691505b602082108103620002db57634e487b7160e01b600052602260045260246000fd5b50919050565b601f8211156200022c57600081815260208120601f850160051c810160208610156200030a5750805b601f850160051c820191505b818110156200032b5782815560010162000316565b505050505050565b81516001600160401b038111156200034f576200034f6200028f565b6200036781620003608454620002a5565b84620002e1565b602080601f8311600181146200039f5760008415620003865750858301515b600019600386901b1c1916600185901b1785556200032b565b600085815260208120601f198616915b82811015620003d057888601518255948401946001909101908401620003af565b5085821015620003ef5787850151600019600388901b60f8161c191681555b5050505050600190811b01905550565b634e487b7160e01b600052601160045260246000fd5b600181815b80851115620004565781600019048211156200043a576200043a620003ff565b808516156200044857918102915b93841c93908002906200041a565b509250929050565b6000826200046f575060016200050e565b816200047e575060006200050e565b8160018114620004975760028114620004a257620004c2565b60019150506200050e565b60ff841115620004b657620004b6620003ff565b50506001821b6200050e565b5060208310610133831016604e8410600b8410161715620004e7575081810a6200050e565b620004f3838362000415565b80600019048211156200050a576200050a620003ff565b0290505b92915050565b60006200052560ff8416836200045e565b9392505050565b80820281158282048414176200050e576200050e620003ff565b808201808211156200050e576200050e620003ff565b610d62806200056c6000396000f3fe6080604052600436106100f35760003560e01c80638da5cb5b1161008a578063a9059cbb11610059578063a9059cbb1461027d578063dd62ed3e1461029d578063f2fde38b146102bd578063fc792d8e146102dd57600080fd5b80638da5cb5b1461020b5780638e5f5ad11461023357806395d89b4114610248578063a457c2d71461025d57600080fd5b8063313ce567116100c6578063313ce5671461019257806339509351146101b457806370a08231146101d4578063715018a6146101f457600080fd5b806306fdde03146100f8578063095ea7b31461012357806318160ddd1461015357806323b872dd14610172575b600080fd5b34801561010457600080fd5b5061010d6102f0565b60405161011a9190610b1c565b60405180910390f35b34801561012f57600080fd5b5061014361013e366004610b86565b610382565b604051901515815260200161011a565b34801561015f57600080fd5b506003545b60405190815260200161011a565b34801561017e57600080fd5b5061014361018d366004610bb0565b61039c565b34801561019e57600080fd5b5060125b60405160ff909116815260200161011a565b3480156101c057600080fd5b506101436101cf366004610b86565b6103b1565b3480156101e057600080fd5b506101646101ef366004610bec565b6103d3565b34801561020057600080fd5b506102096103f1565b005b34801561021757600080fd5b506000546040516001600160a01b03909116815260200161011a565b34801561023f57600080fd5b506101a2610405565b34801561025457600080fd5b5061010d610460565b34801561026957600080fd5b50610143610278366004610b86565b61046f565b34801561028957600080fd5b50610143610298366004610b86565b6104f5565b3480156102a957600080fd5b506101646102b8366004610c0e565b610503565b3480156102c957600080fd5b506102096102d8366004610bec565b61052e565b6102096102eb366004610c41565b6105a7565b6060600480546102ff90610cb8565b80601f016020809104026020016040519081016040528092919081815260200182805461032b90610cb8565b80156103785780601f1061034d57610100808354040283529160200191610378565b820191906000526020600020905b81548152906001019060200180831161035b57829003601f168201915b5050505050905090565b600033610390818585610714565b60019150505b92915050565b60006103a9848484610838565b949350505050565b6000336103908185856103c48383610503565b6103ce9190610cf2565b610714565b6001600160a01b038116600090815260016020526040812054610396565b6103f9610851565b61040360006108ab565b565b600754600090600160a01b900460ff1661045a5760405162461bcd60e51b81526020600482015260116024820152701393d517d156141150d5115117d0d05313607a1b60448201526064015b60405180910390fd5b5060b190565b6060600580546102ff90610cb8565b6000338161047d8286610503565b9050838110156104dd5760405162461bcd60e51b815260206004820152602560248201527f45524332303a2064656372656173656420616c6c6f77616e63652062656c6f77604482015264207a65726f60d81b6064820152608401610451565b6104ea8286868403610714565b506001949350505050565b6000336103908185856108fb565b6001600160a01b03918216600090815260026020908152604080832093909416825291909152205490565b610536610851565b6001600160a01b03811661059b5760405162461bcd60e51b815260206004820152602660248201527f4f776e61626c653a206e6577206f776e657220697320746865207a65726f206160448201526564647265737360d01b6064820152608401610451565b6105a4816108ab565b50565b6105af610851565b60078054600160a01b60ff60a01b198216811790925560065460405163651a36a560e11b81526001600160a01b038d81166004830152602482018b905260448201899052606482018d905285811660848301529390920460ff1692169063ca346d4a90869060a40160206040518083038185885af1158015610635573d6000803e3d6000fd5b50505050506040513d601f19601f8201168201806040525081019061065a9190610d13565b50600754600654604051632d67b72d60e01b81526001600160a01b0391821660048201526024810189905260448101889052606481018b90528482166084820152911690632d67b72d90859060a40160206040518083038185885af11580156106c7573d6000803e3d6000fd5b50505050506040513d601f19601f820116820180604052508101906106ec9190610d13565b5060078054911515600160a01b0260ff60a01b19909216919091179055505050505050505050565b6001600160a01b0383166107765760405162461bcd60e51b8152602060048201526024808201527f45524332303a20617070726f76652066726f6d20746865207a65726f206164646044820152637265737360e01b6064820152608401610451565b6001600160a01b0382166107d75760405162461bcd60e51b815260206004820152602260248201527f45524332303a20617070726f766520746f20746865207a65726f206164647265604482015261737360f01b6064820152608401610451565b6001600160a01b0383811660008181526002602090815260408083209487168084529482529182902085905590518481527f8c5be1e5ebec7d5bd14f71427d1e84f3dd0314c0f7b2291e5b200ac8c7c3b925910160405180910390a3505050565b600033610846858285610aa8565b6104ea8585856108fb565b6000546001600160a01b031633146104035760405162461bcd60e51b815260206004820181905260248201527f4f776e61626c653a2063616c6c6572206973206e6f7420746865206f776e65726044820152606401610451565b600080546001600160a01b038381166001600160a01b0319831681178455604051919092169283917f8be0079c531659141344cd1fd0a4f28419497f9722a3daafe3b4186f6b6457e09190a35050565b6001600160a01b03831661095f5760405162461bcd60e51b815260206004820152602560248201527f45524332303a207472616e736665722066726f6d20746865207a65726f206164604482015264647265737360d81b6064820152608401610451565b6001600160a01b0382166109c15760405162461bcd60e51b815260206004820152602360248201527f45524332303a207472616e7366657220746f20746865207a65726f206164647260448201526265737360e81b6064820152608401610451565b6001600160a01b03831660009081526001602052604090205481811015610a395760405162461bcd60e51b815260206004820152602660248201527f45524332303a207472616e7366657220616d6f756e7420657863656564732062604482015265616c616e636560d01b6064820152608401610451565b6001600160a01b0380851660008181526001602052604080822086860390559286168082529083902080548601905591517fddf252ad1be2c89b69c2b068fc378daa952ba7f163c4a11628f55a4df523b3ef90610a999086815260200190565b60405180910390a35b50505050565b6000610ab48484610503565b90506000198114610aa25781811015610b0f5760405162461bcd60e51b815260206004820152601d60248201527f45524332303a20696e73756666696369656e7420616c6c6f77616e63650000006044820152606401610451565b610aa28484848403610714565b600060208083528351808285015260005b81811015610b4957858101830151858201604001528201610b2d565b506000604082860101526040601f19601f8301168501019250505092915050565b80356001600160a01b0381168114610b8157600080fd5b919050565b60008060408385031215610b9957600080fd5b610ba283610b6a565b946020939093013593505050565b600080600060608486031215610bc557600080fd5b610bce84610b6a565b9250610bdc60208501610b6a565b9150604084013590509250925092565b600060208284031215610bfe57600080fd5b610c0782610b6a565b9392505050565b60008060408385031215610c2157600080fd5b610c2a83610b6a565b9150610c3860208401610b6a565b90509250929050565b60008060008060008060008060006101208a8c031215610c6057600080fd5b610c698a610b6a565b985060208a0135975060408a0135965060608a0135955060808a0135945060a08a0135935060c08a0135925060e08a01359150610ca96101008b01610b6a565b90509295985092959850929598565b600181811c90821680610ccc57607f821691505b602082108103610cec57634e487b7160e01b600052602260045260246000fd5b50919050565b8082018082111561039657634e487b7160e01b600052601160045260246000fd5b600060208284031215610d2557600080fd5b505191905056fea26469706673582212206e2744b2558713822d92db0a98776a756778231e4698f07452a85777c880650464736f6c63430008130033",
  "linkReferences": {},
  "deployedLinkReferences": {}
}