{
  "_format": "hh-sol-artifact-1",
  "contractName": "BaseTokenV1",
  "sourceName": "contracts/BaseTokenV1.sol",
  "abi": [
    {
      "inputs": [],
      "stateMutability": "nonpayable",
      "type": "constructor"
    },
    {
      "anonymous": false,
      "inputs": [
        {
          "indexed": true,
          "internalType": "address",
          "name": "owner",
          "type": "address"
        },
        {
          "indexed": true,
          "internalType": "address",
          "name": "spender",
          "type": "address"
        },
        {
          "indexed": false,
          "internalType": "uint256",
          "name": "value",
          "type": "uint256"
        }
      ],
      "name": "Approval",
      "type": "event"
    },
    {
      "anonymous": false,
      "inputs": [
        {
          "indexed": true,
          "internalType": "address",
          "name": "delegator",
          "type": "address"
        },
        {
          "indexed": true,
          "internalType": "address",
          "name": "fromDelegate",
          "type": "address"
        },
        {
          "indexed": true,
          "internalType": "address",
          "name": "toDelegate",
          "type": "address"
        }
      ],
      "name": "DelegateChanged",
      "type": "event"
    },
    {
      "anonymous": false,
      "inputs": [
        {
          "indexed": true,
          "internalType": "address",
          "name": "delegate",
          "type": "address"
        },
        {
          "indexed": false,
          "internalType": "uint256",
          "name": "previousBalance",
          "type": "uint256"
        },
        {
          "indexed": false,
          "internalType": "uint256",
          "name": "newBalance",
          "type": "uint256"
        }
      ],
      "name": "DelegateVotesChanged",
      "type": "event"
    },
    {
      "anonymous": false,
      "inputs": [],
      "name": "EIP712DomainChanged",
      "type": "event"
    },
    {
      "anonymous": false,
      "inputs": [
        {
          "indexed": false,
          "internalType": "uint8",
          "name": "version",
          "type": "uint8"
        }
      ],
      "name": "Initialized",
      "type": "event"
    },
    {
      "anonymous": false,
      "inputs": [
        {
          "indexed": true,
          "internalType": "address",
          "name": "previousOwner",
          "type": "address"
        },
        {
          "indexed": true,
          "internalType": "address",
          "name": "newOwner",
          "type": "address"
        }
      ],
      "name": "OwnershipTransferred",
      "type": "event"
    },
    {
      "anonymous": false,
      "inputs": [
        {
          "indexed": true,
          "internalType": "address",
          "name": "from",
          "type": "address"
        },
        {
          "indexed": true,
          "internalType": "address",
          "name": "to",
          "type": "address"
        },
        {
          "indexed": false,
          "internalType": "uint256",
          "name": "value",
          "type": "uint256"
        }
      ],
      "name": "Transfer",
      "type": "event"
    },
    {
      "inputs": [],
      "name": "CLOCK_MODE",
      "outputs": [
        {
          "internalType": "string",
          "name": "",
          "type": "string"
        }
      ],
      "stateMutability": "view",
      "type": "function"
    },
    {
      "inputs": [],
      "name": "DOMAIN_SEPARATOR",
      "outputs": [
        {
          "internalType": "bytes32",
          "name": "",
          "type": "bytes32"
        }
      ],
      "stateMutability": "view",
      "type": "function"
    },
    {
      "inputs": [
        {
          "internalType": "address",
          "name": "owner",
          "type": "address"
        },
        {
          "internalType": "address",
          "name": "spender",
          "type": "address"
        }
      ],
      "name": "allowance",
      "outputs": [
        {
          "internalType": "uint256",
          "name": "",
          "type": "uint256"
        }
      ],
      "stateMutability": "view",
      "type": "function"
    },
    {
      "inputs": [
        {
          "internalType": "address",
          "name": "spender",
          "type": "address"
        },
        {
          "internalType": "uint256",
          "name": "amount",
          "type": "uint256"
        }
      ],
      "name": "approve",
      "outputs": [
        {
          "internalType": "bool",
          "name": "",
          "type": "bool"
        }
      ],
      "stateMutability": "nonpayable",
      "type": "function"
    },
    {
      "inputs": [
        {
          "internalType": "address",
          "name": "account",
          "type": "address"
        }
      ],
      "name": "balanceOf",
      "outputs": [
        {
          "internalType": "uint256",
          "name": "",
          "type": "uint256"
        }
      ],
      "stateMutability": "view",
      "type": "function"
    },
    {
      "inputs": [
        {
          "internalType": "address",
          "name": "account",
          "type": "address"
        },
        {
          "internalType": "uint256",
          "name": "amount",
          "type": "uint256"
        }
      ],
      "name": "bridgeBurn",
      "outputs": [],
      "stateMutability": "nonpayable",
      "type": "function"
    },
    {
      "inputs": [
        {
          "internalType": "address",
          "name": "account",
          "type": "address"
        },
        {
          "internalType": "uint256",
          "name": "amount",
          "type": "uint256"
        }
      ],
      "name": "bridgeMint",
      "outputs": [],
      "stateMutability": "nonpayable",
      "type": "function"
    },
    {
      "inputs": [
        {
          "internalType": "address",
          "name": "account",
          "type": "address"
        },
        {
          "internalType": "uint32",
          "name": "pos",
          "type": "uint32"
        }
      ],
      "name": "checkpoints",
      "outputs": [
        {
          "components": [
            {
              "internalType": "uint32",
              "name": "fromBlock",
              "type": "uint32"
            },
            {
              "internalType": "uint224",
              "name": "votes",
              "type": "uint224"
            }
          ],
          "internalType": "struct ERC20VotesUpgradeable.Checkpoint",
          "name": "",
          "type": "tuple"
        }
      ],
      "stateMutability": "view",
      "type": "function"
    },
    {
      "inputs": [],
      "name": "clock",
      "outputs": [
        {
          "internalType": "uint48",
          "name": "",
          "type": "uint48"
        }
      ],
      "stateMutability": "view",
      "type": "function"
    },
    {
      "inputs": [],
      "name": "decimals",
      "outputs": [
        {
          "internalType": "uint8",
          "name": "",
          "type": "uint8"
        }
      ],
      "stateMutability": "view",
      "type": "function"
    },
    {
      "inputs": [
        {
          "internalType": "address",
          "name": "spender",
          "type": "address"
        },
        {
          "internalType": "uint256",
          "name": "subtractedValue",
          "type": "uint256"
        }
      ],
      "name": "decreaseAllowance",
      "outputs": [
        {
          "internalType": "bool",
          "name": "",
          "type": "bool"
        }
      ],
      "stateMutability": "nonpayable",
      "type": "function"
    },
    {
      "inputs": [
        {
          "internalType": "address",
          "name": "delegatee",
          "type": "address"
        }
      ],
      "name": "delegate",
      "outputs": [],
      "stateMutability": "nonpayable",
      "type": "function"
    },
    {
      "inputs": [
        {
          "internalType": "address",
          "name": "delegatee",
          "type": "address"
        },
        {
          "internalType": "uint256",
          "name": "nonce",
          "type": "uint256"
        },
        {
          "internalType": "uint256",
          "name": "expiry",
          "type": "uint256"
        },
        {
          "internalType": "uint8",
          "name": "v",
          "type": "uint8"
        },
        {
          "internalType": "bytes32",
          "name": "r",
          "type": "bytes32"
        },
        {
          "internalType": "bytes32",
          "name": "s",
          "type": "bytes32"
        }
      ],
      "name": "delegateBySig",
      "outputs": [],
      "stateMutability": "nonpayable",
      "type": "function"
    },
    {
      "inputs": [
        {
          "internalType": "address",
          "name": "account",
          "type": "address"
        }
      ],
      "name": "delegates",
      "outputs": [
        {
          "internalType": "address",
          "name": "",
          "type": "address"
        }
      ],
      "stateMutability": "view",
      "type": "function"
    },
    {
      "inputs": [],
      "name": "eip712Domain",
      "outputs": [
        {
          "internalType": "bytes1",
          "name": "fields",
          "type": "bytes1"
        },
        {
          "internalType": "string",
          "name": "name",
          "type": "string"
        },
        {
          "internalType": "string",
          "name": "version",
          "type": "string"
        },
        {
          "internalType": "uint256",
          "name": "chainId",
          "type": "uint256"
        },
        {
          "internalType": "address",
          "name": "verifyingContract",
          "type": "address"
        },
        {
          "internalType": "bytes32",
          "name": "salt",
          "type": "bytes32"
        },
        {
          "internalType": "uint256[]",
          "name": "extensions",
          "type": "uint256[]"
        }
      ],
      "stateMutability": "view",
      "type": "function"
    },
    {
      "inputs": [
        {
          "internalType": "uint256",
          "name": "timepoint",
          "type": "uint256"
        }
      ],
      "name": "getPastTotalSupply",
      "outputs": [
        {
          "internalType": "uint256",
          "name": "",
          "type": "uint256"
        }
      ],
      "stateMutability": "view",
      "type": "function"
    },
    {
      "inputs": [
        {
          "internalType": "address",
          "name": "account",
          "type": "address"
        },
        {
          "internalType": "uint256",
          "name": "timepoint",
          "type": "uint256"
        }
      ],
      "name": "getPastVotes",
      "outputs": [
        {
          "internalType": "uint256",
          "name": "",
          "type": "uint256"
        }
      ],
      "stateMutability": "view",
      "type": "function"
    },
    {
      "inputs": [
        {
          "internalType": "address",
          "name": "account",
          "type": "address"
        }
      ],
      "name": "getVotes",
      "outputs": [
        {
          "internalType": "uint256",
          "name": "",
          "type": "uint256"
        }
      ],
      "stateMutability": "view",
      "type": "function"
    },
    {
      "inputs": [
        {
          "internalType": "address",
          "name": "spender",
          "type": "address"
        },
        {
          "internalType": "uint256",
          "name": "addedValue",
          "type": "uint256"
        }
      ],
      "name": "increaseAllowance",
      "outputs": [
        {
          "internalType": "bool",
          "name": "",
          "type": "bool"
        }
      ],
      "stateMutability": "nonpayable",
      "type": "function"
    },
    {
      "inputs": [
        {
          "internalType": "address",
          "name": "_l2Gateway",
          "type": "address"
        },
        {
          "internalType": "address",
          "name": "_l1TokenAddress",
          "type": "address"
        }
      ],
      "name": "initialize",
      "outputs": [],
      "stateMutability": "nonpayable",
      "type": "function"
    },
    {
      "inputs": [],
      "name": "l1Address",
      "outputs": [
        {
          "internalType": "address",
          "name": "",
          "type": "address"
        }
      ],
      "stateMutability": "view",
      "type": "function"
    },
    {
      "inputs": [],
      "name": "l2Gateway",
      "outputs": [
        {
          "internalType": "address",
          "name": "",
          "type": "address"
        }
      ],
      "stateMutability": "view",
      "type": "function"
    },
    {
      "inputs": [],
      "name": "name",
      "outputs": [
        {
          "internalType": "string",
          "name": "",
          "type": "string"
        }
      ],
      "stateMutability": "view",
      "type": "function"
    },
    {
      "inputs": [
        {
          "internalType": "address",
          "name": "owner",
          "type": "address"
        }
      ],
      "name": "nonces",
      "outputs": [
        {
          "internalType": "uint256",
          "name": "",
          "type": "uint256"
        }
      ],
      "stateMutability": "view",
      "type": "function"
    },
    {
      "inputs": [
        {
          "internalType": "address",
          "name": "account",
          "type": "address"
        }
      ],
      "name": "numCheckpoints",
      "outputs": [
        {
          "internalType": "uint32",
          "name": "",
          "type": "uint32"
        }
      ],
      "stateMutability": "view",
      "type": "function"
    },
    {
      "inputs": [],
      "name": "owner",
      "outputs": [
        {
          "internalType": "address",
          "name": "",
          "type": "address"
        }
      ],
      "stateMutability": "view",
      "type": "function"
    },
    {
      "inputs": [
        {
          "internalType": "address",
          "name": "owner",
          "type": "address"
        },
        {
          "internalType": "address",
          "name": "spender",
          "type": "address"
        },
        {
          "internalType": "uint256",
          "name": "value",
          "type": "uint256"
        },
        {
          "internalType": "uint256",
          "name": "deadline",
          "type": "uint256"
        },
        {
          "internalType": "uint8",
          "name": "v",
          "type": "uint8"
        },
        {
          "internalType": "bytes32",
          "name": "r",
          "type": "bytes32"
        },
        {
          "internalType": "bytes32",
          "name": "s",
          "type": "bytes32"
        }
      ],
      "name": "permit",
      "outputs": [],
      "stateMutability": "nonpayable",
      "type": "function"
    },
    {
      "inputs": [],
      "name": "renounceOwnership",
      "outputs": [],
      "stateMutability": "nonpayable",
      "type": "function"
    },
    {
      "inputs": [],
      "name": "symbol",
      "outputs": [
        {
          "internalType": "string",
          "name": "",
          "type": "string"
        }
      ],
      "stateMutability": "view",
      "type": "function"
    },
    {
      "inputs": [],
      "name": "totalSupply",
      "outputs": [
        {
          "internalType": "uint256",
          "name": "",
          "type": "uint256"
        }
      ],
      "stateMutability": "view",
      "type": "function"
    },
    {
      "inputs": [
        {
          "internalType": "address",
          "name": "to",
          "type": "address"
        },
        {
          "internalType": "uint256",
          "name": "amount",
          "type": "uint256"
        }
      ],
      "name": "transfer",
      "outputs": [
        {
          "internalType": "bool",
          "name": "",
          "type": "bool"
        }
      ],
      "stateMutability": "nonpayable",
      "type": "function"
    },
    {
      "inputs": [
        {
          "internalType": "address",
          "name": "from",
          "type": "address"
        },
        {
          "internalType": "address",
          "name": "to",
          "type": "address"
        },
        {
          "internalType": "uint256",
          "name": "amount",
          "type": "uint256"
        }
      ],
      "name": "transferFrom",
      "outputs": [
        {
          "internalType": "bool",
          "name": "",
          "type": "bool"
        }
      ],
      "stateMutability": "nonpayable",
      "type": "function"
    },
    {
      "inputs": [
        {
          "internalType": "address",
          "name": "to_",
          "type": "address"
        }
      ],
      "name": "transferOwnership",
      "outputs": [],
      "stateMutability": "nonpayable",
      "type": "function"
    }
  ],
  "bytecode": "0x60806040523480156200001157600080fd5b506200001c62000022565b620000e3565b600054610100900460ff16156200008f5760405162461bcd60e51b815260206004820152602760248201527f496e697469616c697a61626c653a20636f6e747261637420697320696e697469604482015266616c697a696e6760c81b606482015260840160405180910390fd5b60005460ff90811614620000e1576000805460ff191660ff9081179091556040519081527f7f26b83ff96e1f2b6a682f133852f6798a09c465da95921460cefb38474024989060200160405180910390a15b565b61288380620000f36000396000f3fe608060405234801561001057600080fd5b50600436106101fb5760003560e01c80637ecebe001161011a5780639ab24eb0116100ad578063c3cda5201161007c578063c3cda52014610470578063d505accf14610483578063dd62ed3e14610496578063f1127ed8146104a9578063f2fde38b146104e657600080fd5b80639ab24eb014610423578063a457c2d714610436578063a9059cbb14610449578063c2eeeebd1461045c57600080fd5b80638e539e8c116100e95780638e539e8c146103d55780638fa74a0e146103e857806391ddadf4146103fc57806395d89b411461041b57600080fd5b80637ecebe001461038357806384b0196e146103965780638c2a993e146103b15780638da5cb5b146103c457600080fd5b8063485cc955116101925780636fcfff45116101615780636fcfff451461031757806370a082311461033f578063715018a61461036857806374f4f5471461037057600080fd5b8063485cc955146102a35780634bf5d7e9146102b8578063587cde1e146102c05780635c19a95c1461030457600080fd5b8063313ce567116101ce578063313ce567146102665780633644e51514610275578063395093511461027d5780633a46b1a81461029057600080fd5b806306fdde0314610200578063095ea7b31461021e57806318160ddd1461024157806323b872dd14610253575b600080fd5b6102086104f9565b6040516102159190612365565b60405180910390f35b61023161022c366004612394565b61058b565b6040519015158152602001610215565b6035545b604051908152602001610215565b6102316102613660046123be565b6105a5565b60405160128152602001610215565b6102456105c9565b61023161028b366004612394565b6105d8565b61024561029e366004612394565b6105fa565b6102b66102b13660046123fa565b610684565b005b61020861083c565b6102ec6102ce36600461242d565b6001600160a01b03908116600090815260cc60205260409020541690565b6040516001600160a01b039091168152602001610215565b6102b661031236600461242d565b6108d4565b61032a61032536600461242d565b6108e1565b60405163ffffffff9091168152602001610215565b61024561034d36600461242d565b6001600160a01b031660009081526033602052604090205490565b6102b6610903565b6102b661037e366004612394565b610917565b61024561039136600461242d565b61096e565b61039e61098c565b6040516102159796959493929190612448565b6102b66103bf366004612394565b610a2a565b60fe546001600160a01b03166102ec565b6102456103e33660046124de565b610a7d565b610130546102ec906001600160a01b031681565b610404610ae4565b60405165ffffffffffff9091168152602001610215565b610208610aef565b61024561043136600461242d565b610afe565b610231610444366004612394565b610b80565b610231610457366004612394565b610bfb565b610131546102ec906001600160a01b031681565b6102b661047e366004612508565b610c09565b6102b6610491366004612560565b610d3f565b6102456104a43660046123fa565b610ea3565b6104bc6104b73660046125ca565b610ece565b60408051825163ffffffff1681526020928301516001600160e01b03169281019290925201610215565b6102b66104f436600461242d565b610f52565b6060603680546105089061260a565b80601f01602080910402602001604051908101604052809291908181526020018280546105349061260a565b80156105815780601f1061055657610100808354040283529160200191610581565b820191906000526020600020905b81548152906001019060200180831161056457829003601f168201915b5050505050905090565b600033610599818585610f63565b60019150505b92915050565b6000336105b3858285611087565b6105be858585611101565b506001949350505050565b60006105d36112b2565b905090565b6000336105998185856105eb8383610ea3565b6105f59190612654565b610f63565b6000610604610ae4565b65ffffffffffff16821061065b5760405162461bcd60e51b815260206004820152601960248201527804552433230566f7465733a20667574757265206c6f6f6b757603c1b60448201526064015b60405180910390fd5b6001600160a01b038316600090815260cd6020526040902061067d90836112bc565b9392505050565b600054610100900460ff16158080156106a45750600054600160ff909116105b806106be5750303b1580156106be575060005460ff166001145b6107215760405162461bcd60e51b815260206004820152602e60248201527f496e697469616c697a61626c653a20636f6e747261637420697320616c72656160448201526d191e481a5b9a5d1a585b1a5e995960921b6064820152608401610652565b6000805460ff191660011790558015610744576000805461ff0019166101001790555b6107886040518060400160405280600681526020016541726269757360d01b815250604051806040016040528060048152602001634149555360e01b8152506113a5565b6107af6040518060400160405280600681526020016541726269757360d01b8152506113d6565b6107b7611420565b6107bf611447565b61013080546001600160a01b038086166001600160a01b0319928316179092556101318054928516929091169190911790558015610837576000805461ff0019169055604051600181527f7f26b83ff96e1f2b6a682f133852f6798a09c465da95921460cefb38474024989060200160405180910390a15b505050565b606043610847610ae4565b65ffffffffffff161461089c5760405162461bcd60e51b815260206004820152601d60248201527f4552433230566f7465733a2062726f6b656e20636c6f636b206d6f64650000006044820152606401610652565b5060408051808201909152601d81527f6d6f64653d626c6f636b6e756d6265722666726f6d3d64656661756c74000000602082015290565b6108de3382611476565b50565b6001600160a01b038116600090815260cd602052604081205461059f906114f0565b61090b611559565b61091560006115b3565b565b610130546001600160a01b031633146109605760405162461bcd60e51b815260206004820152600b60248201526a4e4f545f4741544557415960a81b6044820152606401610652565b61096a8282611605565b5050565b6001600160a01b03811660009081526099602052604081205461059f565b6000606080600080600060606065546000801b1480156109ac5750606654155b6109f05760405162461bcd60e51b81526020600482015260156024820152741152540dcc4c8e88155b9a5b9a5d1a585b1a5e9959605a1b6044820152606401610652565b6109f861160f565b610a0061161e565b60408051600080825260208201909252600f60f81b9b939a50919850469750309650945092509050565b610130546001600160a01b03163314610a735760405162461bcd60e51b815260206004820152600b60248201526a4e4f545f4741544557415960a81b6044820152606401610652565b61096a828261162d565b6000610a87610ae4565b65ffffffffffff168210610ad95760405162461bcd60e51b815260206004820152601960248201527804552433230566f7465733a20667574757265206c6f6f6b757603c1b6044820152606401610652565b61059f60ce836112bc565b60006105d343611637565b6060603780546105089061260a565b6001600160a01b038116600090815260cd60205260408120548015610b6d576001600160a01b038316600090815260cd6020526040902080546000198301908110610b4b57610b4b61267d565b60009182526020909120015464010000000090046001600160e01b0316610b70565b60005b6001600160e01b03169392505050565b60003381610b8e8286610ea3565b905083811015610bee5760405162461bcd60e51b815260206004820152602560248201527f45524332303a2064656372656173656420616c6c6f77616e63652062656c6f77604482015264207a65726f60d81b6064820152608401610652565b6105be8286868403610f63565b600033610599818585611101565b83421115610c595760405162461bcd60e51b815260206004820152601d60248201527f4552433230566f7465733a207369676e617475726520657870697265640000006044820152606401610652565b604080517fe48329057bfd03d55e49b547132e39cffd9c1820ad7b9d4c5307691425d15adf60208201526001600160a01b038816918101919091526060810186905260808101859052600090610cd390610ccb9060a0016040516020818303038152906040528051906020012061169e565b8585856116cb565b9050610cde816116f3565b8614610d2c5760405162461bcd60e51b815260206004820152601960248201527f4552433230566f7465733a20696e76616c6964206e6f6e6365000000000000006044820152606401610652565b610d368188611476565b50505050505050565b83421115610d8f5760405162461bcd60e51b815260206004820152601d60248201527f45524332305065726d69743a206578706972656420646561646c696e650000006044820152606401610652565b60007f6e71edae12b1b97f4d1f60370fef10105fa2faae0126114a169c64845d6126c9888888610dbe8c6116f3565b6040805160208101969096526001600160a01b0394851690860152929091166060840152608083015260a082015260c0810186905260e0016040516020818303038152906040528051906020012090506000610e198261169e565b90506000610e29828787876116cb565b9050896001600160a01b0316816001600160a01b031614610e8c5760405162461bcd60e51b815260206004820152601e60248201527f45524332305065726d69743a20696e76616c6964207369676e617475726500006044820152606401610652565b610e978a8a8a610f63565b50505050505050505050565b6001600160a01b03918216600090815260346020908152604080832093909416825291909152205490565b60408051808201909152600080825260208201526001600160a01b038316600090815260cd60205260409020805463ffffffff8416908110610f1257610f1261267d565b60009182526020918290206040805180820190915291015463ffffffff8116825264010000000090046001600160e01b0316918101919091529392505050565b610f5a611559565b6108de8161171b565b6001600160a01b038316610fc55760405162461bcd60e51b8152602060048201526024808201527f45524332303a20617070726f76652066726f6d20746865207a65726f206164646044820152637265737360e01b6064820152608401610652565b6001600160a01b0382166110265760405162461bcd60e51b815260206004820152602260248201527f45524332303a20617070726f766520746f20746865207a65726f206164647265604482015261737360f01b6064820152608401610652565b6001600160a01b0383811660008181526034602090815260408083209487168084529482529182902085905590518481527f8c5be1e5ebec7d5bd14f71427d1e84f3dd0314c0f7b2291e5b200ac8c7c3b925910160405180910390a3505050565b60006110938484610ea3565b905060001981146110fb57818110156110ee5760405162461bcd60e51b815260206004820152601d60248201527f45524332303a20696e73756666696369656e7420616c6c6f77616e63650000006044820152606401610652565b6110fb8484848403610f63565b50505050565b6001600160a01b0383166111655760405162461bcd60e51b815260206004820152602560248201527f45524332303a207472616e736665722066726f6d20746865207a65726f206164604482015264647265737360d81b6064820152608401610652565b6001600160a01b0382166111c75760405162461bcd60e51b815260206004820152602360248201527f45524332303a207472616e7366657220746f20746865207a65726f206164647260448201526265737360e81b6064820152608401610652565b6001600160a01b0383166000908152603360205260409020548181101561123f5760405162461bcd60e51b815260206004820152602660248201527f45524332303a207472616e7366657220616d6f756e7420657863656564732062604482015265616c616e636560d01b6064820152608401610652565b6001600160a01b0380851660008181526033602052604080822086860390559286168082529083902080548601905591517fddf252ad1be2c89b69c2b068fc378daa952ba7f163c4a11628f55a4df523b3ef9061129f9086815260200190565b60405180910390a36110fb848484611791565b60006105d361179c565b8154600090818160058111156113165760006112d784611810565b6112e19085612693565b600088815260209020909150869082015463ffffffff16111561130657809150611314565b611311816001612654565b92505b505b8082101561136357600061132a83836118f8565b600088815260209020909150869082015463ffffffff16111561134f5780915061135d565b61135a816001612654565b92505b50611316565b801561138f576000868152602090208101600019015464010000000090046001600160e01b0316611392565b60005b6001600160e01b03169695505050505050565b600054610100900460ff166113cc5760405162461bcd60e51b8152600401610652906126a6565b61096a8282611913565b600054610100900460ff166113fd5760405162461bcd60e51b8152600401610652906126a6565b6108de81604051806040016040528060018152602001603160f81b815250611953565b600054610100900460ff166109155760405162461bcd60e51b8152600401610652906126a6565b600054610100900460ff1661146e5760405162461bcd60e51b8152600401610652906126a6565b6109156119a2565b6001600160a01b03828116600081815260cc6020818152604080842080546033845282862054949093528787166001600160a01b03198416811790915590519190951694919391928592917f3134e8a2e6d97e929a7e54011ea5485d7d196dd5f0ba4d4ef95803e8e3fc257f9190a46110fb8284836119d2565b600063ffffffff8211156115555760405162461bcd60e51b815260206004820152602660248201527f53616665436173743a2076616c756520646f65736e27742066697420696e203360448201526532206269747360d01b6064820152608401610652565b5090565b60fe546001600160a01b031633146109155760405162461bcd60e51b815260206004820181905260248201527f4f776e61626c653a2063616c6c6572206973206e6f7420746865206f776e65726044820152606401610652565b60fe80546001600160a01b038381166001600160a01b0319831681179093556040519116919082907f8be0079c531659141344cd1fd0a4f28419497f9722a3daafe3b4186f6b6457e090600090a35050565b61096a8282611b0f565b6060606780546105089061260a565b6060606880546105089061260a565b61096a8282611b27565b600065ffffffffffff8211156115555760405162461bcd60e51b815260206004820152602660248201527f53616665436173743a2076616c756520646f65736e27742066697420696e203460448201526538206269747360d01b6064820152608401610652565b600061059f6116ab6112b2565b8360405161190160f01b8152600281019290925260228201526042902090565b60008060006116dc87878787611bb1565b915091506116e981611c75565b5095945050505050565b6001600160a01b03811660009081526099602052604090208054600181018255905b50919050565b611723611559565b6001600160a01b0381166117885760405162461bcd60e51b815260206004820152602660248201527f4f776e61626c653a206e6577206f776e657220697320746865207a65726f206160448201526564647265737360d01b6064820152608401610652565b6108de816115b3565b610837838383611dbf565b60007f8b73c3c69bb8fe3d512ecc4cf759cc79239f7b179b0ffacaa9a75d522b39400f6117c7611df1565b6117cf611e4a565b60408051602081019490945283019190915260608201524660808201523060a082015260c00160405160208183030381529060405280519060200120905090565b60008160000361182257506000919050565b6000600161182f84611e7b565b901c6001901b90506001818481611848576118486126f1565b048201901c90506001818481611860576118606126f1565b048201901c90506001818481611878576118786126f1565b048201901c90506001818481611890576118906126f1565b048201901c905060018184816118a8576118a86126f1565b048201901c905060018184816118c0576118c06126f1565b048201901c905060018184816118d8576118d86126f1565b048201901c905061067d818285816118f2576118f26126f1565b04611f0f565b60006119076002848418612707565b61067d90848416612654565b600054610100900460ff1661193a5760405162461bcd60e51b8152600401610652906126a6565b60366119468382612777565b5060376108378282612777565b600054610100900460ff1661197a5760405162461bcd60e51b8152600401610652906126a6565b60676119868382612777565b5060686119938282612777565b50506000606581905560665550565b600054610100900460ff166119c95760405162461bcd60e51b8152600401610652906126a6565b610915336115b3565b816001600160a01b0316836001600160a01b0316141580156119f45750600081115b15610837576001600160a01b03831615611a82576001600160a01b038316600090815260cd602052604081208190611a2f90611f2585611f31565b91509150846001600160a01b03167fdec2bacdd2f05b59de34da9b523dff8be42e5e38e818c82fdb0bae774387a7248383604051611a77929190918252602082015260400190565b60405180910390a250505b6001600160a01b03821615610837576001600160a01b038216600090815260cd602052604081208190611ab8906120a685611f31565b91509150836001600160a01b03167fdec2bacdd2f05b59de34da9b523dff8be42e5e38e818c82fdb0bae774387a7248383604051611b00929190918252602082015260400190565b60405180910390a25050505050565b611b1982826120b2565b6110fb60ce611f2583611f31565b611b3182826121ed565b6035546001600160e01b031015611ba35760405162461bcd60e51b815260206004820152603060248201527f4552433230566f7465733a20746f74616c20737570706c79207269736b73206f60448201526f766572666c6f77696e6720766f74657360801b6064820152608401610652565b6110fb60ce6120a683611f31565b6000807f7fffffffffffffffffffffffffffffff5d576e7357a4501ddfe92f46681b20a0831115611be85750600090506003611c6c565b6040805160008082526020820180845289905260ff881692820192909252606081018690526080810185905260019060a0016020604051602081039080840390855afa158015611c3c573d6000803e3d6000fd5b5050604051601f1901519150506001600160a01b038116611c6557600060019250925050611c6c565b9150600090505b94509492505050565b6000816004811115611c8957611c89612837565b03611c915750565b6001816004811115611ca557611ca5612837565b03611cf25760405162461bcd60e51b815260206004820152601860248201527f45434453413a20696e76616c6964207369676e617475726500000000000000006044820152606401610652565b6002816004811115611d0657611d06612837565b03611d535760405162461bcd60e51b815260206004820152601f60248201527f45434453413a20696e76616c6964207369676e6174757265206c656e677468006044820152606401610652565b6003816004811115611d6757611d67612837565b036108de5760405162461bcd60e51b815260206004820152602260248201527f45434453413a20696e76616c6964207369676e6174757265202773272076616c604482015261756560f01b6064820152608401610652565b6001600160a01b03838116600090815260cc6020526040808220548584168352912054610837929182169116836119d2565b600080611dfc61160f565b805190915015611e13578051602090910120919050565b6065548015611e225792915050565b7fc5d2460186f7233c927e7db2dcc703c0e500b653ca82273b7bfad8045d85a4709250505090565b600080611e5561161e565b805190915015611e6c578051602090910120919050565b6066548015611e225792915050565b600080608083901c15611e9057608092831c92015b604083901c15611ea257604092831c92015b602083901c15611eb457602092831c92015b601083901c15611ec657601092831c92015b600883901c15611ed857600892831c92015b600483901c15611eea57600492831c92015b600283901c15611efc57600292831c92015b600183901c1561059f5760010192915050565b6000818310611f1e578161067d565b5090919050565b600061067d8284612693565b82546000908190818115611f7e5760008781526020902082016000190160408051808201909152905463ffffffff8116825264010000000090046001600160e01b03166020820152611f93565b60408051808201909152600080825260208201525b905080602001516001600160e01b03169350611fb384868863ffffffff16565b9250600082118015611fdd5750611fc8610ae4565b65ffffffffffff16816000015163ffffffff16145b1561202257611feb836122b6565b60008881526020902083016000190180546001600160e01b03929092166401000000000263ffffffff90921691909117905561209c565b866040518060400160405280612046612039610ae4565b65ffffffffffff166114f0565b63ffffffff16815260200161205a866122b6565b6001600160e01b0390811690915282546001810184556000938452602093849020835194909301519091166401000000000263ffffffff909316929092179101555b5050935093915050565b600061067d8284612654565b6001600160a01b0382166121125760405162461bcd60e51b815260206004820152602160248201527f45524332303a206275726e2066726f6d20746865207a65726f206164647265736044820152607360f81b6064820152608401610652565b6001600160a01b038216600090815260336020526040902054818110156121865760405162461bcd60e51b815260206004820152602260248201527f45524332303a206275726e20616d6f756e7420657863656564732062616c616e604482015261636560f01b6064820152608401610652565b6001600160a01b03831660008181526033602090815260408083208686039055603580548790039055518581529192917fddf252ad1be2c89b69c2b068fc378daa952ba7f163c4a11628f55a4df523b3ef910160405180910390a361083783600084611791565b6001600160a01b0382166122435760405162461bcd60e51b815260206004820152601f60248201527f45524332303a206d696e7420746f20746865207a65726f2061646472657373006044820152606401610652565b80603560008282546122559190612654565b90915550506001600160a01b0382166000818152603360209081526040808320805486019055518481527fddf252ad1be2c89b69c2b068fc378daa952ba7f163c4a11628f55a4df523b3ef910160405180910390a361096a60008383611791565b60006001600160e01b038211156115555760405162461bcd60e51b815260206004820152602760248201527f53616665436173743a2076616c756520646f65736e27742066697420696e20326044820152663234206269747360c81b6064820152608401610652565b6000815180845260005b8181101561234557602081850181015186830182015201612329565b506000602082860101526020601f19601f83011685010191505092915050565b60208152600061067d602083018461231f565b80356001600160a01b038116811461238f57600080fd5b919050565b600080604083850312156123a757600080fd5b6123b083612378565b946020939093013593505050565b6000806000606084860312156123d357600080fd5b6123dc84612378565b92506123ea60208501612378565b9150604084013590509250925092565b6000806040838503121561240d57600080fd5b61241683612378565b915061242460208401612378565b90509250929050565b60006020828403121561243f57600080fd5b61067d82612378565b60ff60f81b881681526000602060e08184015261246860e084018a61231f565b838103604085015261247a818a61231f565b606085018990526001600160a01b038816608086015260a0850187905284810360c0860152855180825283870192509083019060005b818110156124cc578351835292840192918401916001016124b0565b50909c9b505050505050505050505050565b6000602082840312156124f057600080fd5b5035919050565b803560ff8116811461238f57600080fd5b60008060008060008060c0878903121561252157600080fd5b61252a87612378565b95506020870135945060408701359350612546606088016124f7565b92506080870135915060a087013590509295509295509295565b600080600080600080600060e0888a03121561257b57600080fd5b61258488612378565b965061259260208901612378565b955060408801359450606088013593506125ae608089016124f7565b925060a0880135915060c0880135905092959891949750929550565b600080604083850312156125dd57600080fd5b6125e683612378565b9150602083013563ffffffff811681146125ff57600080fd5b809150509250929050565b600181811c9082168061261e57607f821691505b60208210810361171557634e487b7160e01b600052602260045260246000fd5b634e487b7160e01b600052601160045260246000fd5b8082018082111561059f5761059f61263e565b634e487b7160e01b600052604160045260246000fd5b634e487b7160e01b600052603260045260246000fd5b8181038181111561059f5761059f61263e565b6020808252602b908201527f496e697469616c697a61626c653a20636f6e7472616374206973206e6f74206960408201526a6e697469616c697a696e6760a81b606082015260800190565b634e487b7160e01b600052601260045260246000fd5b60008261272457634e487b7160e01b600052601260045260246000fd5b500490565b601f82111561083757600081815260208120601f850160051c810160208610156127505750805b601f850160051c820191505b8181101561276f5782815560010161275c565b505050505050565b815167ffffffffffffffff81111561279157612791612667565b6127a58161279f845461260a565b84612729565b602080601f8311600181146127da57600084156127c25750858301515b600019600386901b1c1916600185901b17855561276f565b600085815260208120601f198616915b82811015612809578886015182559484019460019091019084016127ea565b50858210156128275787850151600019600388901b60f8161c191681555b5050505050600190811b01905550565b634e487b7160e01b600052602160045260246000fdfea2646970667358221220726c3cbb8068603ecc694e04fa43f079fce1ce7a3ca007c122ebe0ca1c46a1fa64736f6c63430008130033",
  "linkReferences": {},
  "deployedLinkReferences": {}
}