{
  "_format": "hh-sol-artifact-1",
  "contractName": "GovernorV1",
  "sourceName": "contracts/GovernorV1.sol",
  "abi": [
    {
      "inputs": [
        {
          "internalType": "contract IVotes",
          "name": "_token",
          "type": "address"
        },
        {
          "internalType": "contract TimelockController",
          "name": "_timelock",
          "type": "address"
        }
      ],
      "stateMutability": "nonpayable",
      "type": "constructor"
    },
    {
      "inputs": [],
      "name": "Empty",
      "type": "error"
    },
    {
      "anonymous": false,
      "inputs": [
        {
          "indexed": false,
          "internalType": "uint256",
          "name": "proposalId",
          "type": "uint256"
        }
      ],
      "name": "ProposalCanceled",
      "type": "event"
    },
    {
      "anonymous": false,
      "inputs": [
        {
          "indexed": false,
          "internalType": "uint256",
          "name": "proposalId",
          "type": "uint256"
        },
        {
          "indexed": false,
          "internalType": "address",
          "name": "proposer",
          "type": "address"
        },
        {
          "indexed": false,
          "internalType": "address[]",
          "name": "targets",
          "type": "address[]"
        },
        {
          "indexed": false,
          "internalType": "uint256[]",
          "name": "values",
          "type": "uint256[]"
        },
        {
          "indexed": false,
          "internalType": "string[]",
          "name": "signatures",
          "type": "string[]"
        },
        {
          "indexed": false,
          "internalType": "bytes[]",
          "name": "calldatas",
          "type": "bytes[]"
        },
        {
          "indexed": false,
          "internalType": "uint256",
          "name": "startBlock",
          "type": "uint256"
        },
        {
          "indexed": false,
          "internalType": "uint256",
          "name": "endBlock",
          "type": "uint256"
        },
        {
          "indexed": false,
          "internalType": "string",
          "name": "description",
          "type": "string"
        }
      ],
      "name": "ProposalCreated",
      "type": "event"
    },
    {
      "anonymous": false,
      "inputs": [
        {
          "indexed": false,
          "internalType": "uint256",
          "name": "proposalId",
          "type": "uint256"
        }
      ],
      "name": "ProposalExecuted",
      "type": "event"
    },
    {
      "anonymous": false,
      "inputs": [
        {
          "indexed": false,
          "internalType": "uint256",
          "name": "proposalId",
          "type": "uint256"
        },
        {
          "indexed": false,
          "internalType": "uint256",
          "name": "eta",
          "type": "uint256"
        }
      ],
      "name": "ProposalQueued",
      "type": "event"
    },
    {
      "anonymous": false,
      "inputs": [
        {
          "indexed": false,
          "internalType": "uint256",
          "name": "oldProposalThreshold",
          "type": "uint256"
        },
        {
          "indexed": false,
          "internalType": "uint256",
          "name": "newProposalThreshold",
          "type": "uint256"
        }
      ],
      "name": "ProposalThresholdSet",
      "type": "event"
    },
    {
      "anonymous": false,
      "inputs": [
        {
          "indexed": false,
          "internalType": "uint256",
          "name": "oldQuorumNumerator",
          "type": "uint256"
        },
        {
          "indexed": false,
          "internalType": "uint256",
          "name": "newQuorumNumerator",
          "type": "uint256"
        }
      ],
      "name": "QuorumNumeratorUpdated",
      "type": "event"
    },
    {
      "anonymous": false,
      "inputs": [
        {
          "indexed": false,
          "internalType": "address",
          "name": "oldTimelock",
          "type": "address"
        },
        {
          "indexed": false,
          "internalType": "address",
          "name": "newTimelock",
          "type": "address"
        }
      ],
      "name": "TimelockChange",
      "type": "event"
    },
    {
      "anonymous": false,
      "inputs": [
        {
          "indexed": true,
          "internalType": "address",
          "name": "voter",
          "type": "address"
        },
        {
          "indexed": false,
          "internalType": "uint256",
          "name": "proposalId",
          "type": "uint256"
        },
        {
          "indexed": false,
          "internalType": "uint8",
          "name": "support",
          "type": "uint8"
        },
        {
          "indexed": false,
          "internalType": "uint256",
          "name": "weight",
          "type": "uint256"
        },
        {
          "indexed": false,
          "internalType": "string",
          "name": "reason",
          "type": "string"
        }
      ],
      "name": "VoteCast",
      "type": "event"
    },
    {
      "anonymous": false,
      "inputs": [
        {
          "indexed": true,
          "internalType": "address",
          "name": "voter",
          "type": "address"
        },
        {
          "indexed": false,
          "internalType": "uint256",
          "name": "proposalId",
          "type": "uint256"
        },
        {
          "indexed": false,
          "internalType": "uint8",
          "name": "support",
          "type": "uint8"
        },
        {
          "indexed": false,
          "internalType": "uint256",
          "name": "weight",
          "type": "uint256"
        },
        {
          "indexed": false,
          "internalType": "string",
          "name": "reason",
          "type": "string"
        },
        {
          "indexed": false,
          "internalType": "bytes",
          "name": "params",
          "type": "bytes"
        }
      ],
      "name": "VoteCastWithParams",
      "type": "event"
    },
    {
      "anonymous": false,
      "inputs": [
        {
          "indexed": false,
          "internalType": "uint256",
          "name": "oldVotingDelay",
          "type": "uint256"
        },
        {
          "indexed": false,
          "internalType": "uint256",
          "name": "newVotingDelay",
          "type": "uint256"
        }
      ],
      "name": "VotingDelaySet",
      "type": "event"
    },
    {
      "anonymous": false,
      "inputs": [
        {
          "indexed": false,
          "internalType": "uint256",
          "name": "oldVotingPeriod",
          "type": "uint256"
        },
        {
          "indexed": false,
          "internalType": "uint256",
          "name": "newVotingPeriod",
          "type": "uint256"
        }
      ],
      "name": "VotingPeriodSet",
      "type": "event"
    },
    {
      "inputs": [],
      "name": "BALLOT_TYPEHASH",
      "outputs": [
        {
          "internalType": "bytes32",
          "name": "",
          "type": "bytes32"
        }
      ],
      "stateMutability": "view",
      "type": "function"
    },
    {
      "inputs": [],
      "name": "COUNTING_MODE",
      "outputs": [
        {
          "internalType": "string",
          "name": "",
          "type": "string"
        }
      ],
      "stateMutability": "pure",
      "type": "function"
    },
    {
      "inputs": [],
      "name": "EXTENDED_BALLOT_TYPEHASH",
      "outputs": [
        {
          "internalType": "bytes32",
          "name": "",
          "type": "bytes32"
        }
      ],
      "stateMutability": "view",
      "type": "function"
    },
    {
      "inputs": [
        {
          "internalType": "uint256",
          "name": "proposalId",
          "type": "uint256"
        }
      ],
      "name": "cancel",
      "outputs": [],
      "stateMutability": "nonpayable",
      "type": "function"
    },
    {
      "inputs": [
        {
          "internalType": "uint256",
          "name": "proposalId",
          "type": "uint256"
        },
        {
          "internalType": "uint8",
          "name": "support",
          "type": "uint8"
        }
      ],
      "name": "castVote",
      "outputs": [
        {
          "internalType": "uint256",
          "name": "",
          "type": "uint256"
        }
      ],
      "stateMutability": "nonpayable",
      "type": "function"
    },
    {
      "inputs": [
        {
          "internalType": "uint256",
          "name": "proposalId",
          "type": "uint256"
        },
        {
          "internalType": "uint8",
          "name": "support",
          "type": "uint8"
        },
        {
          "internalType": "uint8",
          "name": "v",
          "type": "uint8"
        },
        {
          "internalType": "bytes32",
          "name": "r",
          "type": "bytes32"
        },
        {
          "internalType": "bytes32",
          "name": "s",
          "type": "bytes32"
        }
      ],
      "name": "castVoteBySig",
      "outputs": [
        {
          "internalType": "uint256",
          "name": "",
          "type": "uint256"
        }
      ],
      "stateMutability": "nonpayable",
      "type": "function"
    },
    {
      "inputs": [
        {
          "internalType": "uint256",
          "name": "proposalId",
          "type": "uint256"
        },
        {
          "internalType": "uint8",
          "name": "support",
          "type": "uint8"
        },
        {
          "internalType": "string",
          "name": "reason",
          "type": "string"
        }
      ],
      "name": "castVoteWithReason",
      "outputs": [
        {
          "internalType": "uint256",
          "name": "",
          "type": "uint256"
        }
      ],
      "stateMutability": "nonpayable",
      "type": "function"
    },
    {
      "inputs": [
        {
          "internalType": "uint256",
          "name": "proposalId",
          "type": "uint256"
        },
        {
          "internalType": "uint8",
          "name": "support",
          "type": "uint8"
        },
        {
          "internalType": "string",
          "name": "reason",
          "type": "string"
        },
        {
          "internalType": "bytes",
          "name": "params",
          "type": "bytes"
        }
      ],
      "name": "castVoteWithReasonAndParams",
      "outputs": [
        {
          "internalType": "uint256",
          "name": "",
          "type": "uint256"
        }
      ],
      "stateMutability": "nonpayable",
      "type": "function"
    },
    {
      "inputs": [
        {
          "internalType": "uint256",
          "name": "proposalId",
          "type": "uint256"
        },
        {
          "internalType": "uint8",
          "name": "support",
          "type": "uint8"
        },
        {
          "internalType": "string",
          "name": "reason",
          "type": "string"
        },
        {
          "internalType": "bytes",
          "name": "params",
          "type": "bytes"
        },
        {
          "internalType": "uint8",
          "name": "v",
          "type": "uint8"
        },
        {
          "internalType": "bytes32",
          "name": "r",
          "type": "bytes32"
        },
        {
          "internalType": "bytes32",
          "name": "s",
          "type": "bytes32"
        }
      ],
      "name": "castVoteWithReasonAndParamsBySig",
      "outputs": [
        {
          "internalType": "uint256",
          "name": "",
          "type": "uint256"
        }
      ],
      "stateMutability": "nonpayable",
      "type": "function"
    },
    {
      "inputs": [
        {
          "internalType": "uint256",
          "name": "",
          "type": "uint256"
        }
      ],
      "name": "descriptionCids",
      "outputs": [
        {
          "internalType": "bytes",
          "name": "",
          "type": "bytes"
        }
      ],
      "stateMutability": "view",
      "type": "function"
    },
    {
      "inputs": [
        {
          "internalType": "uint256",
          "name": "",
          "type": "uint256"
        }
      ],
      "name": "descriptionHashes",
      "outputs": [
        {
          "internalType": "bytes32",
          "name": "",
          "type": "bytes32"
        }
      ],
      "stateMutability": "view",
      "type": "function"
    },
    {
      "inputs": [
        {
          "internalType": "address[]",
          "name": "targets",
          "type": "address[]"
        },
        {
          "internalType": "uint256[]",
          "name": "values",
          "type": "uint256[]"
        },
        {
          "internalType": "bytes[]",
          "name": "calldatas",
          "type": "bytes[]"
        },
        {
          "internalType": "bytes32",
          "name": "descriptionHash",
          "type": "bytes32"
        }
      ],
      "name": "execute",
      "outputs": [
        {
          "internalType": "uint256",
          "name": "",
          "type": "uint256"
        }
      ],
      "stateMutability": "payable",
      "type": "function"
    },
    {
      "inputs": [
        {
          "internalType": "uint256",
          "name": "proposalId",
          "type": "uint256"
        }
      ],
      "name": "execute",
      "outputs": [],
      "stateMutability": "payable",
      "type": "function"
    },
    {
      "inputs": [
        {
          "internalType": "uint256",
          "name": "proposalId",
          "type": "uint256"
        }
      ],
      "name": "getActions",
      "outputs": [
        {
          "internalType": "address[]",
          "name": "targets",
          "type": "address[]"
        },
        {
          "internalType": "uint256[]",
          "name": "values",
          "type": "uint256[]"
        },
        {
          "internalType": "string[]",
          "name": "signatures",
          "type": "string[]"
        },
        {
          "internalType": "bytes[]",
          "name": "calldatas",
          "type": "bytes[]"
        }
      ],
      "stateMutability": "view",
      "type": "function"
    },
    {
      "inputs": [
        {
          "internalType": "uint256",
          "name": "proposalId",
          "type": "uint256"
        },
        {
          "internalType": "address",
          "name": "voter",
          "type": "address"
        }
      ],
      "name": "getReceipt",
      "outputs": [
        {
          "components": [
            {
              "internalType": "bool",
              "name": "hasVoted",
              "type": "bool"
            },
            {
              "internalType": "uint8",
              "name": "support",
              "type": "uint8"
            },
            {
              "internalType": "uint96",
              "name": "votes",
              "type": "uint96"
            }
          ],
          "internalType": "struct IGovernorCompatibilityBravo.Receipt",
          "name": "",
          "type": "tuple"
        }
      ],
      "stateMutability": "view",
      "type": "function"
    },
    {
      "inputs": [
        {
          "internalType": "address",
          "name": "account",
          "type": "address"
        },
        {
          "internalType": "uint256",
          "name": "blockNumber",
          "type": "uint256"
        }
      ],
      "name": "getVotes",
      "outputs": [
        {
          "internalType": "uint256",
          "name": "",
          "type": "uint256"
        }
      ],
      "stateMutability": "view",
      "type": "function"
    },
    {
      "inputs": [
        {
          "internalType": "address",
          "name": "account",
          "type": "address"
        },
        {
          "internalType": "uint256",
          "name": "blockNumber",
          "type": "uint256"
        },
        {
          "internalType": "bytes",
          "name": "params",
          "type": "bytes"
        }
      ],
      "name": "getVotesWithParams",
      "outputs": [
        {
          "internalType": "uint256",
          "name": "",
          "type": "uint256"
        }
      ],
      "stateMutability": "view",
      "type": "function"
    },
    {
      "inputs": [
        {
          "internalType": "uint256",
          "name": "proposalId",
          "type": "uint256"
        },
        {
          "internalType": "address",
          "name": "account",
          "type": "address"
        }
      ],
      "name": "hasVoted",
      "outputs": [
        {
          "internalType": "bool",
          "name": "",
          "type": "bool"
        }
      ],
      "stateMutability": "view",
      "type": "function"
    },
    {
      "inputs": [
        {
          "internalType": "address[]",
          "name": "targets",
          "type": "address[]"
        },
        {
          "internalType": "uint256[]",
          "name": "values",
          "type": "uint256[]"
        },
        {
          "internalType": "bytes[]",
          "name": "calldatas",
          "type": "bytes[]"
        },
        {
          "internalType": "bytes32",
          "name": "descriptionHash",
          "type": "bytes32"
        }
      ],
      "name": "hashProposal",
      "outputs": [
        {
          "internalType": "uint256",
          "name": "",
          "type": "uint256"
        }
      ],
      "stateMutability": "pure",
      "type": "function"
    },
    {
      "inputs": [],
      "name": "name",
      "outputs": [
        {
          "internalType": "string",
          "name": "",
          "type": "string"
        }
      ],
      "stateMutability": "view",
      "type": "function"
    },
    {
      "inputs": [
        {
          "internalType": "address",
          "name": "",
          "type": "address"
        },
        {
          "internalType": "address",
          "name": "",
          "type": "address"
        },
        {
          "internalType": "uint256[]",
          "name": "",
          "type": "uint256[]"
        },
        {
          "internalType": "uint256[]",
          "name": "",
          "type": "uint256[]"
        },
        {
          "internalType": "bytes",
          "name": "",
          "type": "bytes"
        }
      ],
      "name": "onERC1155BatchReceived",
      "outputs": [
        {
          "internalType": "bytes4",
          "name": "",
          "type": "bytes4"
        }
      ],
      "stateMutability": "nonpayable",
      "type": "function"
    },
    {
      "inputs": [
        {
          "internalType": "address",
          "name": "",
          "type": "address"
        },
        {
          "internalType": "address",
          "name": "",
          "type": "address"
        },
        {
          "internalType": "uint256",
          "name": "",
          "type": "uint256"
        },
        {
          "internalType": "uint256",
          "name": "",
          "type": "uint256"
        },
        {
          "internalType": "bytes",
          "name": "",
          "type": "bytes"
        }
      ],
      "name": "onERC1155Received",
      "outputs": [
        {
          "internalType": "bytes4",
          "name": "",
          "type": "bytes4"
        }
      ],
      "stateMutability": "nonpayable",
      "type": "function"
    },
    {
      "inputs": [
        {
          "internalType": "address",
          "name": "",
          "type": "address"
        },
        {
          "internalType": "address",
          "name": "",
          "type": "address"
        },
        {
          "internalType": "uint256",
          "name": "",
          "type": "uint256"
        },
        {
          "internalType": "bytes",
          "name": "",
          "type": "bytes"
        }
      ],
      "name": "onERC721Received",
      "outputs": [
        {
          "internalType": "bytes4",
          "name": "",
          "type": "bytes4"
        }
      ],
      "stateMutability": "nonpayable",
      "type": "function"
    },
    {
      "inputs": [
        {
          "internalType": "uint256",
          "name": "proposalId",
          "type": "uint256"
        }
      ],
      "name": "proposalDeadline",
      "outputs": [
        {
          "internalType": "uint256",
          "name": "",
          "type": "uint256"
        }
      ],
      "stateMutability": "view",
      "type": "function"
    },
    {
      "inputs": [
        {
          "internalType": "uint256",
          "name": "proposalId",
          "type": "uint256"
        }
      ],
      "name": "proposalEta",
      "outputs": [
        {
          "internalType": "uint256",
          "name": "",
          "type": "uint256"
        }
      ],
      "stateMutability": "view",
      "type": "function"
    },
    {
      "inputs": [
        {
          "internalType": "uint256",
          "name": "proposalId",
          "type": "uint256"
        }
      ],
      "name": "proposalSnapshot",
      "outputs": [
        {
          "internalType": "uint256",
          "name": "",
          "type": "uint256"
        }
      ],
      "stateMutability": "view",
      "type": "function"
    },
    {
      "inputs": [],
      "name": "proposalThreshold",
      "outputs": [
        {
          "internalType": "uint256",
          "name": "",
          "type": "uint256"
        }
      ],
      "stateMutability": "view",
      "type": "function"
    },
    {
      "inputs": [
        {
          "internalType": "uint256",
          "name": "proposalId",
          "type": "uint256"
        }
      ],
      "name": "proposals",
      "outputs": [
        {
          "internalType": "uint256",
          "name": "id",
          "type": "uint256"
        },
        {
          "internalType": "address",
          "name": "proposer",
          "type": "address"
        },
        {
          "internalType": "uint256",
          "name": "eta",
          "type": "uint256"
        },
        {
          "internalType": "uint256",
          "name": "startBlock",
          "type": "uint256"
        },
        {
          "internalType": "uint256",
          "name": "endBlock",
          "type": "uint256"
        },
        {
          "internalType": "uint256",
          "name": "forVotes",
          "type": "uint256"
        },
        {
          "internalType": "uint256",
          "name": "againstVotes",
          "type": "uint256"
        },
        {
          "internalType": "uint256",
          "name": "abstainVotes",
          "type": "uint256"
        },
        {
          "internalType": "bool",
          "name": "canceled",
          "type": "bool"
        },
        {
          "internalType": "bool",
          "name": "executed",
          "type": "bool"
        }
      ],
      "stateMutability": "view",
      "type": "function"
    },
    {
      "inputs": [
        {
          "internalType": "uint256",
          "name": "",
          "type": "uint256"
        }
      ],
      "name": "proposalsCreated",
      "outputs": [
        {
          "internalType": "uint256",
          "name": "",
          "type": "uint256"
        }
      ],
      "stateMutability": "view",
      "type": "function"
    },
    {
      "inputs": [],
      "name": "proposalsCreatedLength",
      "outputs": [
        {
          "internalType": "uint256",
          "name": "",
          "type": "uint256"
        }
      ],
      "stateMutability": "view",
      "type": "function"
    },
    {
      "inputs": [
        {
          "internalType": "address[]",
          "name": "targets",
          "type": "address[]"
        },
        {
          "internalType": "uint256[]",
          "name": "values",
          "type": "uint256[]"
        },
        {
          "internalType": "bytes[]",
          "name": "calldatas",
          "type": "bytes[]"
        },
        {
          "internalType": "string",
          "name": "description",
          "type": "string"
        }
      ],
      "name": "propose",
      "outputs": [
        {
          "internalType": "uint256",
          "name": "",
          "type": "uint256"
        }
      ],
      "stateMutability": "nonpayable",
      "type": "function"
    },
    {
      "inputs": [
        {
          "internalType": "address[]",
          "name": "targets",
          "type": "address[]"
        },
        {
          "internalType": "uint256[]",
          "name": "values",
          "type": "uint256[]"
        },
        {
          "internalType": "string[]",
          "name": "signatures",
          "type": "string[]"
        },
        {
          "internalType": "bytes[]",
          "name": "calldatas",
          "type": "bytes[]"
        },
        {
          "internalType": "string",
          "name": "description",
          "type": "string"
        }
      ],
      "name": "propose",
      "outputs": [
        {
          "internalType": "uint256",
          "name": "",
          "type": "uint256"
        }
      ],
      "stateMutability": "nonpayable",
      "type": "function"
    },
    {
      "inputs": [
        {
          "internalType": "address[]",
          "name": "targets",
          "type": "address[]"
        },
        {
          "internalType": "uint256[]",
          "name": "values",
          "type": "uint256[]"
        },
        {
          "internalType": "bytes[]",
          "name": "calldatas",
          "type": "bytes[]"
        },
        {
          "internalType": "bytes32",
          "name": "descriptionHash",
          "type": "bytes32"
        }
      ],
      "name": "queue",
      "outputs": [
        {
          "internalType": "uint256",
          "name": "",
          "type": "uint256"
        }
      ],
      "stateMutability": "nonpayable",
      "type": "function"
    },
    {
      "inputs": [
        {
          "internalType": "uint256",
          "name": "proposalId",
          "type": "uint256"
        }
      ],
      "name": "queue",
      "outputs": [],
      "stateMutability": "nonpayable",
      "type": "function"
    },
    {
      "inputs": [
        {
          "internalType": "uint256",
          "name": "blockNumber",
          "type": "uint256"
        }
      ],
      "name": "quorum",
      "outputs": [
        {
          "internalType": "uint256",
          "name": "",
          "type": "uint256"
        }
      ],
      "stateMutability": "view",
      "type": "function"
    },
    {
      "inputs": [],
      "name": "quorumDenominator",
      "outputs": [
        {
          "internalType": "uint256",
          "name": "",
          "type": "uint256"
        }
      ],
      "stateMutability": "view",
      "type": "function"
    },
    {
      "inputs": [
        {
          "internalType": "uint256",
          "name": "blockNumber",
          "type": "uint256"
        }
      ],
      "name": "quorumNumerator",
      "outputs": [
        {
          "internalType": "uint256",
          "name": "",
          "type": "uint256"
        }
      ],
      "stateMutability": "view",
      "type": "function"
    },
    {
      "inputs": [],
      "name": "quorumNumerator",
      "outputs": [
        {
          "internalType": "uint256",
          "name": "",
          "type": "uint256"
        }
      ],
      "stateMutability": "view",
      "type": "function"
    },
    {
      "inputs": [],
      "name": "quorumVotes",
      "outputs": [
        {
          "internalType": "uint256",
          "name": "",
          "type": "uint256"
        }
      ],
      "stateMutability": "view",
      "type": "function"
    },
    {
      "inputs": [
        {
          "internalType": "address",
          "name": "target",
          "type": "address"
        },
        {
          "internalType": "uint256",
          "name": "value",
          "type": "uint256"
        },
        {
          "internalType": "bytes",
          "name": "data",
          "type": "bytes"
        }
      ],
      "name": "relay",
      "outputs": [],
      "stateMutability": "payable",
      "type": "function"
    },
    {
      "inputs": [
        {
          "internalType": "uint256",
          "name": "newProposalThreshold",
          "type": "uint256"
        }
      ],
      "name": "setProposalThreshold",
      "outputs": [],
      "stateMutability": "nonpayable",
      "type": "function"
    },
    {
      "inputs": [
        {
          "internalType": "uint256",
          "name": "newVotingDelay",
          "type": "uint256"
        }
      ],
      "name": "setVotingDelay",
      "outputs": [],
      "stateMutability": "nonpayable",
      "type": "function"
    },
    {
      "inputs": [
        {
          "internalType": "uint256",
          "name": "newVotingPeriod",
          "type": "uint256"
        }
      ],
      "name": "setVotingPeriod",
      "outputs": [],
      "stateMutability": "nonpayable",
      "type": "function"
    },
    {
      "inputs": [
        {
          "internalType": "uint256",
          "name": "proposalId",
          "type": "uint256"
        }
      ],
      "name": "state",
      "outputs": [
        {
          "internalType": "enum IGovernor.ProposalState",
          "name": "",
          "type": "uint8"
        }
      ],
      "stateMutability": "view",
      "type": "function"
    },
    {
      "inputs": [
        {
          "internalType": "bytes4",
          "name": "interfaceId",
          "type": "bytes4"
        }
      ],
      "name": "supportsInterface",
      "outputs": [
        {
          "internalType": "bool",
          "name": "",
          "type": "bool"
        }
      ],
      "stateMutability": "view",
      "type": "function"
    },
    {
      "inputs": [],
      "name": "timelock",
      "outputs": [
        {
          "internalType": "address",
          "name": "",
          "type": "address"
        }
      ],
      "stateMutability": "view",
      "type": "function"
    },
    {
      "inputs": [],
      "name": "token",
      "outputs": [
        {
          "internalType": "contract IVotes",
          "name": "",
          "type": "address"
        }
      ],
      "stateMutability": "view",
      "type": "function"
    },
    {
      "inputs": [
        {
          "internalType": "uint256",
          "name": "newQuorumNumerator",
          "type": "uint256"
        }
      ],
      "name": "updateQuorumNumerator",
      "outputs": [],
      "stateMutability": "nonpayable",
      "type": "function"
    },
    {
      "inputs": [
        {
          "internalType": "contract TimelockController",
          "name": "newTimelock",
          "type": "address"
        }
      ],
      "name": "updateTimelock",
      "outputs": [],
      "stateMutability": "nonpayable",
      "type": "function"
    },
    {
      "inputs": [],
      "name": "version",
      "outputs": [
        {
          "internalType": "string",
          "name": "",
          "type": "string"
        }
      ],
      "stateMutability": "view",
      "type": "function"
    },
    {
      "inputs": [],
      "name": "votingDelay",
      "outputs": [
        {
          "internalType": "uint256",
          "name": "",
          "type": "uint256"
        }
      ],
      "stateMutability": "view",
      "type": "function"
    },
    {
      "inputs": [],
      "name": "votingPeriod",
      "outputs": [
        {
          "internalType": "uint256",
          "name": "",
          "type": "uint256"
        }
      ],
      "stateMutability": "view",
      "type": "function"
    },
    {
      "stateMutability": "payable",
      "type": "receive"
    }
  ],
  "bytecode": "0x6101606040523480156200001257600080fd5b5060405162005fe938038062005fe98339810160408190526200003591620007c4565b806004836119af80670de0b6b3a76400006040518060400160405280600881526020016723b7bb32b93737b960c11b81525080620000786200016960201b60201c565b815160209283012081519183019190912060e08290526101008190524660a0818152604080517f8b73c3c69bb8fe3d512ecc4cf759cc79239f7b179b0ffacaa9a75d522b39400f818801819052818301969096526060810194909452608080850193909352308483018190528151808603909301835260c094850190915281519190950120905291909152610120526000620001158282620008a8565b506200012390508362000184565b6200012e82620001c5565b62000139816200026c565b5050506001600160a01b0316610140526200015481620002ad565b50620001608162000404565b5050506200099c565b6040805180820190915260018152603160f81b602082015290565b60055460408051918252602082018390527fc565b045403dc03c2eea82b81a0465edad9e2e7fc4d97e11421c209da93d7a93910160405180910390a1600555565b600081116200022b5760405162461bcd60e51b815260206004820152602760248201527f476f7665726e6f7253657474696e67733a20766f74696e6720706572696f6420604482015266746f6f206c6f7760c81b60648201526084015b60405180910390fd5b60065460408051918252602082018390527f7e3f7f0708a84de9203036abaa450dccc85ad5ff52f78c170f3edb55cf5e8828910160405180910390a1600655565b60075460408051918252602082018390527fccb45da8d5717e6c4544694297c4ba5cf151d455c9bb0ed4fc7a38411bc05461910160405180910390a1600755565b6064811115620003325760405162461bcd60e51b815260206004820152604360248201527f476f7665726e6f72566f74657351756f72756d4672616374696f6e3a2071756f60448201527f72756d4e756d657261746f72206f7665722071756f72756d44656e6f6d696e616064820152623a37b960e91b608482015260a40162000222565b60006200033e6200046d565b90508015801590620003505750600954155b15620003b85760408051808201909152600081526009906020810162000376846200049a565b6001600160e01b0390811690915282546001810184556000938452602093849020835194909301519091166401000000000263ffffffff909316929092179101555b620003c560098362000509565b505060408051828152602081018490527f0553476bf02ef2726e8ce5ced78d63e26e602e4a2257b1f559418e24b4633997910160405180910390a15050565b600a54604080516001600160a01b03928316815291831660208301527f08f74ea46ef7894f65eabfb5e6e695de773a000b47c529ab559178069b226401910160405180910390a1600a80546001600160a01b0319166001600160a01b0392909216919091179055565b60095460009015620004935762000485600962000543565b6001600160e01b0316905090565b5060085490565b60006001600160e01b03821115620005055760405162461bcd60e51b815260206004820152602760248201527f53616665436173743a2076616c756520646f65736e27742066697420696e20326044820152663234206269747360c81b606482015260840162000222565b5090565b6000806200052d846200051c4362000591565b62000527866200049a565b620005f8565b6001600160e01b03918216969116945092505050565b8054600090801562000587576200056f836200056160018462000974565b600091825260209091200190565b5464010000000090046001600160e01b03166200058a565b60005b9392505050565b600063ffffffff821115620005055760405162461bcd60e51b815260206004820152602660248201527f53616665436173743a2076616c756520646f65736e27742066697420696e203360448201526532206269747360d01b606482015260840162000222565b8254600090819080156200074d5760006200061a876200056160018562000974565b60408051808201909152905463ffffffff8082168084526401000000009092046001600160e01b0316602084015291925090871610156200069e5760405162461bcd60e51b815260206004820152601760248201527f436865636b706f696e743a20696e76616c6964206b6579000000000000000000604482015260640162000222565b805163ffffffff808816911603620006ec5784620006c3886200056160018662000974565b80546001600160e01b03929092166401000000000263ffffffff9092169190911790556200073c565b6040805180820190915263ffffffff80881682526001600160e01b0380881660208085019182528b54600181018d5560008d81529190912094519151909216640100000000029216919091179101555b602001519250839150620007a39050565b50506040805180820190915263ffffffff80851682526001600160e01b0380851660208085019182528854600181018a5560008a8152918220955192519093166401000000000291909316179201919091559050815b935093915050565b6001600160a01b0381168114620007c157600080fd5b50565b60008060408385031215620007d857600080fd5b8251620007e581620007ab565b6020840151909250620007f881620007ab565b809150509250929050565b634e487b7160e01b600052604160045260246000fd5b600181811c908216806200082e57607f821691505b6020821081036200084f57634e487b7160e01b600052602260045260246000fd5b50919050565b601f821115620008a357600081815260208120601f850160051c810160208610156200087e5750805b601f850160051c820191505b818110156200089f578281556001016200088a565b5050505b505050565b81516001600160401b03811115620008c457620008c462000803565b620008dc81620008d5845462000819565b8462000855565b602080601f831160018114620009145760008415620008fb5750858301515b600019600386901b1c1916600185901b1785556200089f565b600085815260208120601f198616915b82811015620009455788860151825594840194600190910190840162000924565b5085821015620009645787850151600019600388901b60f8161c191681555b5050505050600190811b01905550565b818103818111156200099657634e487b7160e01b600052601160045260246000fd5b92915050565b60805160a05160c05160e0516101005161012051610140516155e462000a0560003960008181610b34015281816121b60152612ed001526000613283015260006132d2015260006132ad01526000613206015260006132300152600061325a01526155e46000f3fe6080604052600436106103035760003560e01c80637d5e81e211610190578063da95691a116100dc578063eb9019d411610095578063f82e95291161006f578063f82e952914610ad5578063f8ce560a14610b02578063fc0c546a14610b22578063fe0d94c114610b5657600080fd5b8063eb9019d414610a69578063ece40cc114610a89578063f23a6e6114610aa957600080fd5b8063da95691a146108c5578063dd4e2ba5146108e5578063ddf0b0091461092b578063deaaa7cc1461094b578063e23a9a521461097f578063ea0217cf14610a4957600080fd5b8063ab58fb8e11610149578063c01f9e3711610123578063c01f9e3714610840578063c28bc2fa14610860578063c59057e414610873578063d33219b41461089357600080fd5b8063ab58fb8e146107df578063b58131b0146107ff578063bc197c811461081457600080fd5b80637d5e81e2146107365780637f7e4e1a1461075657806397c3d334146107765780639a802a6d1461078a578063a7713a70146107aa578063a890c910146107bf57600080fd5b8063328dd9821161024f5780635289e6ad116102085780635f398a14116101e25780635f398a14146106b657806360c4247f146106d657806370b0f660146106f65780637b3c71d31461071657600080fd5b80635289e6ad1461064c57806354fd4d501461066c578063567813881461069657600080fd5b8063328dd982146105505780633932abb1146105805780633bccf4fd146105955780633e4f49e6146105b557806340e58ee5146105e2578063438596321461060257600080fd5b8063150b7a02116102bc5780632656227d116102965780632656227d146104d45780632d63f693146104e75780632fe3e261146105075780633224cef11461053b57600080fd5b8063150b7a021461045b578063160cbed71461049f57806324bc1a64146104bf57600080fd5b8063013cf08b1461032b57806301ffc9a7146103a657806302a251a3146103d657806303420181146103f957806306f3f9e61461041957806306fdde031461043957600080fd5b366103265730610311610b69565b6001600160a01b03161461032457600080fd5b005b600080fd5b34801561033757600080fd5b5061034b61034636600461446c565b610b82565b604080519a8b526001600160a01b0390991660208b0152978901969096526060880194909452608087019290925260a086015260c085015260e084015215156101008301521515610120820152610140015b60405180910390f35b3480156103b257600080fd5b506103c66103c1366004614485565b610c2b565b604051901515815260200161039d565b3480156103e257600080fd5b506103eb610c3c565b60405190815260200161039d565b34801561040557600080fd5b506103eb6104143660046145bb565b610c47565b34801561042557600080fd5b5061032461043436600461446c565b610d3f565b34801561044557600080fd5b5061044e610dd2565b60405161039d91906146b1565b34801561046757600080fd5b506104866104763660046146d9565b630a85bd0160e11b949350505050565b6040516001600160e01b0319909116815260200161039d565b3480156104ab57600080fd5b506103eb6104ba3660046148b5565b610e64565b3480156104cb57600080fd5b506103eb611065565b6103eb6104e23660046148b5565b611075565b3480156104f357600080fd5b506103eb61050236600461446c565b611162565b34801561051357600080fd5b506103eb7fb3b3f3b703cd84ce352197dcff232b1b5d3cfb2025ce47cf04742d0651f1af8881565b34801561054757600080fd5b50600c546103eb565b34801561055c57600080fd5b5061057061056b36600461446c565b611199565b60405161039d9493929190614a0d565b34801561058c57600080fd5b506103eb61142a565b3480156105a157600080fd5b506103eb6105b0366004614a5a565b611435565b3480156105c157600080fd5b506105d56105d036600461446c565b6114ab565b60405161039d9190614abe565b3480156105ee57600080fd5b506103246105fd36600461446c565b6114b6565b34801561060e57600080fd5b506103c661061d366004614ae6565b60008281526004602090815260408083206001600160a01b038516845260080190915290205460ff1692915050565b34801561065857600080fd5b506103eb61066736600461446c565b6117ce565b34801561067857600080fd5b506040805180820190915260018152603160f81b602082015261044e565b3480156106a257600080fd5b506103eb6106b1366004614b16565b6117ef565b3480156106c257600080fd5b506103eb6106d1366004614b42565b611818565b3480156106e257600080fd5b506103eb6106f136600461446c565b611862565b34801561070257600080fd5b5061032461071136600461446c565b6118f9565b34801561072257600080fd5b506103eb610731366004614bc5565b611980565b34801561074257600080fd5b506103eb610751366004614c1e565b6119d2565b34801561076257600080fd5b5061044e61077136600461446c565b611a52565b34801561078257600080fd5b5060646103eb565b34801561079657600080fd5b506103eb6107a5366004614cbe565b611aec565b3480156107b657600080fd5b506103eb611b03565b3480156107cb57600080fd5b506103246107da366004614d16565b611b2d565b3480156107eb57600080fd5b506103eb6107fa36600461446c565b611bb4565b34801561080b57600080fd5b506103eb611c4e565b34801561082057600080fd5b5061048661082f366004614d33565b63bc197c8160e01b95945050505050565b34801561084c57600080fd5b506103eb61085b36600461446c565b611c59565b61032461086e366004614dc6565b611c88565b34801561087f57600080fd5b506103eb61088e3660046148b5565b611d97565b34801561089f57600080fd5b50600a546001600160a01b03165b6040516001600160a01b03909116815260200161039d565b3480156108d157600080fd5b506103eb6108e0366004614e09565b611dd1565b3480156108f157600080fd5b5060408051808201909152601a81527f737570706f72743d627261766f2671756f72756d3d627261766f000000000000602082015261044e565b34801561093757600080fd5b5061032461094636600461446c565b611df6565b34801561095757600080fd5b506103eb7f150214d74d59b7d1e90c73fc22ef3d991dd0a76b046543d4d80ab92d2a50328f81565b34801561098b57600080fd5b50610a1961099a366004614ae6565b60408051606081018252600080825260208201819052918101919091525060009182526004602090815260408084206001600160a01b0393909316845260089092018152918190208151606081018352905460ff8082161515835261010082041693820193909352620100009092046001600160601b03169082015290565b6040805182511515815260208084015160ff1690820152918101516001600160601b03169082015260600161039d565b348015610a5557600080fd5b50610324610a6436600461446c565b612064565b348015610a7557600080fd5b506103eb610a84366004614eaa565b6120eb565b348015610a9557600080fd5b50610324610aa436600461446c565b61210c565b348015610ab557600080fd5b50610486610ac4366004614ed6565b63f23a6e6160e01b95945050505050565b348015610ae157600080fd5b506103eb610af036600461446c565b600d6020526000908152604090205481565b348015610b0e57600080fd5b506103eb610b1d36600461446c565b612193565b348015610b2e57600080fd5b506108ad7f000000000000000000000000000000000000000000000000000000000000000081565b610324610b6436600461446c565b61223d565b6000610b7d600a546001600160a01b031690565b905090565b8060008080808080808080610b968a611bb4565b9750610ba18b611162565b9650610bac8b611c59565b60008c815260046020526040812080546005820154600683015460078401546001600160a01b039093169e50949a509850929650919450610bec8d6114ab565b90506002816007811115610c0257610c02614aa8565b1493506007816007811115610c1957610c19614aa8565b14925050509193959799509193959799565b6000610c36826124ab565b92915050565b6000610b7d60065490565b600080610ceb610ce37fb3b3f3b703cd84ce352197dcff232b1b5d3cfb2025ce47cf04742d0651f1af888c8c8c8c604051610c83929190614f3e565b60405180910390208b80519060200120604051602001610cc8959493929190948552602085019390935260ff9190911660408401526060830152608082015260a00190565b604051602081830303815290604052805190602001206124d0565b86868661251e565b9050610d318a828b8b8b8080601f0160208091040260200160405190810160405280939291908181526020018383808284376000920191909152508d925061253c915050565b9a9950505050505050505050565b610d47610b69565b6001600160a01b0316336001600160a01b031614610d805760405162461bcd60e51b8152600401610d7790614f4e565b60405180910390fd5b30610d89610b69565b6001600160a01b031614610dc65760008036604051610da9929190614f3e565b604051809103902090505b80610dbf60026126a1565b03610db457505b610dcf81612720565b50565b606060008054610de190614f85565b80601f0160208091040260200160405190810160405280929190818152602001828054610e0d90614f85565b8015610e5a5780601f10610e2f57610100808354040283529160200191610e5a565b820191906000526020600020905b815481529060010190602001808311610e3d57829003601f168201915b5050505050905090565b600080610e7386868686611d97565b90506004610e80826114ab565b6007811115610e9157610e91614aa8565b14610eae5760405162461bcd60e51b8152600401610d7790614fbf565b600a546040805163793d064960e11b815290516000926001600160a01b03169163f27a0c929160048083019260209291908290030181865afa158015610ef8573d6000803e3d6000fd5b505050506040513d601f19601f82011682018060405250810190610f1c9190615000565b600a5460405163b1c5f42760e01b81529192506001600160a01b03169063b1c5f42790610f56908a908a908a906000908b90600401615019565b602060405180830381865afa158015610f73573d6000803e3d6000fd5b505050506040513d601f19601f82011682018060405250810190610f979190615000565b6000838152600b602052604080822092909255600a5491516308f2a0bb60e41b81526001600160a01b0390921691638f2a0bb091610fe2918b918b918b91908b908990600401615067565b600060405180830381600087803b158015610ffc57600080fd5b505af1158015611010573d6000803e3d6000fd5b505050507f9a2e42fd6722813d69113e7d0079d3d940171428df7373df9c7f7617cfda289282824261104291906150d5565b604080519283526020830191909152015b60405180910390a15095945050505050565b6000610b7d610b1d6001436150e8565b60008061108486868686611d97565b90506000611091826114ab565b905060048160078111156110a7576110a7614aa8565b14806110c4575060058160078111156110c2576110c2614aa8565b145b6110e05760405162461bcd60e51b8152600401610d7790614fbf565b600082815260016020818152604092839020600201805460ff191690921790915590518381527f712ae1383f79ac853f8d882153778e0260ef8f03b504e2866e0593e04d2b291f910160405180910390a161113e828888888861286c565b61114b828888888861290e565b611158828888888861291b565b5095945050505050565b60008181526001602090815260408083208151928301909152546001600160401b0316908190525b6001600160401b031692915050565b6060806060806000600460008781526020019081526020016000209050806001018160020182600301836004018380548060200260200160405190810160405280929190818152602001828054801561121b57602002820191906000526020600020905b81546001600160a01b031681526001909101906020018083116111fd575b505050505093508280548060200260200160405190810160405280929190818152602001828054801561126d57602002820191906000526020600020905b815481526020019060010190808311611259575b5050505050925081805480602002602001604051908101604052809291908181526020016000905b828210156113415783829060005260206000200180546112b490614f85565b80601f01602080910402602001604051908101604052809291908181526020018280546112e090614f85565b801561132d5780601f106113025761010080835404028352916020019161132d565b820191906000526020600020905b81548152906001019060200180831161131057829003601f168201915b505050505081526020019060010190611295565b50505050915080805480602002602001604051908101604052809291908181526020016000905b8282101561141457838290600052602060002001805461138790614f85565b80601f01602080910402602001604051908101604052809291908181526020018280546113b390614f85565b80156114005780601f106113d557610100808354040283529160200191611400565b820191906000526020600020905b8154815290600101906020018083116113e357829003601f168201915b505050505081526020019060010190611368565b5050505090509450945094509450509193509193565b6000610b7d60055490565b604080517f150214d74d59b7d1e90c73fc22ef3d991dd0a76b046543d4d80ab92d2a50328f602082015290810186905260ff85166060820152600090819061148390610ce390608001610cc8565b90506114a087828860405180602001604052806000815250612954565b979650505050505050565b6000610c3682612980565b600081815260046020526040902080546001600160a01b0316336001600160a01b0316148061150457506114e8611c4e565b8154611502906001600160a01b0316610a846001436150e8565b105b6115605760405162461bcd60e51b815260206004820152602760248201527f476f7665726e6f72427261766f3a2070726f706f7365722061626f76652074686044820152661c995cda1bdb1960ca1b6064820152608401610d77565b6117c9816001018054806020026020016040519081016040528092919081815260200182805480156115bb57602002820191906000526020600020905b81546001600160a01b0316815260019091019060200180831161159d575b50505050508260020180548060200260200160405190810160405280929190818152602001828054801561160e57602002820191906000526020600020905b8154815260200190600101908083116115fa575b50505050506117bf84600301805480602002602001604051908101604052809291908181526020016000905b828210156116e657838290600052602060002001805461165990614f85565b80601f016020809104026020016040519081016040528092919081815260200182805461168590614f85565b80156116d25780601f106116a7576101008083540402835291602001916116d2565b820191906000526020600020905b8154815290600101906020018083116116b557829003601f168201915b50505050508152602001906001019061163a565b50505060048701805460408051602080840282018101909252828152935060009084015b828210156117b657838290600052602060002001805461172990614f85565b80601f016020809104026020016040519081016040528092919081815260200182805461175590614f85565b80156117a25780601f10611777576101008083540402835291602001916117a2565b820191906000526020600020905b81548152906001019060200180831161178557829003601f168201915b50505050508152602001906001019061170a565b50505050612aca565b8460090154612bfc565b505050565b600c81815481106117de57600080fd5b600091825260209091200154905081565b60008033905061181084828560405180602001604052806000815250612954565b949350505050565b6000803390506114a087828888888080601f0160208091040260200160405190810160405280939291908181526020018383808284376000920191909152508a925061253c915050565b600954600090808203611879575050600854919050565b600060096118886001846150e8565b81548110611898576118986150fb565b60009182526020918290206040805180820190915291015463ffffffff8116808352600160201b9091046001600160e01b031692820192909252915084106118ee57602001516001600160e01b03169392505050565b611810600985612c0a565b611901610b69565b6001600160a01b0316336001600160a01b0316146119315760405162461bcd60e51b8152600401610d7790614f4e565b3061193a610b69565b6001600160a01b031614611977576000803660405161195a929190614f3e565b604051809103902090505b8061197060026126a1565b0361196557505b610dcf81612cca565b6000803390506119c886828787878080601f01602080910402602001604051908101604052809392919081815260200183838082843760009201919091525061295492505050565b9695505050505050565b6000806119e186868686612d0b565b600c805460018101825560009182527fdf6966c971051c3d54ec59162606531493a51404a002842f56009d7e5cf4a8c7018290558451602086810191909120838352600d9091526040909120559050611a3983612d73565b6000828152600e60205260409020906111589082615157565b600e6020526000908152604090208054611a6b90614f85565b80601f0160208091040260200160405190810160405280929190818152602001828054611a9790614f85565b8015611ae45780601f10611ab957610100808354040283529160200191611ae4565b820191906000526020600020905b815481529060010190602001808311611ac757829003601f168201915b505050505081565b6000611af9848484612ea7565b90505b9392505050565b60095460009015611b2657611b186009612f3d565b6001600160e01b0316905090565b5060085490565b611b35610b69565b6001600160a01b0316336001600160a01b031614611b655760405162461bcd60e51b8152600401610d7790614f4e565b30611b6e610b69565b6001600160a01b031614611bab5760008036604051611b8e929190614f3e565b604051809103902090505b80611ba460026126a1565b03611b9957505b610dcf81612f6d565b600a546000828152600b602052604080822054905163d45c443560e01b81526004810191909152909182916001600160a01b039091169063d45c443590602401602060405180830381865afa158015611c11573d6000803e3d6000fd5b505050506040513d601f19601f82011682018060405250810190611c359190615000565b905080600114611c455780611afc565b60009392505050565b6000610b7d60075490565b60008181526001602081815260408084208151928301909152909101546001600160401b03169081905261118a565b611c90610b69565b6001600160a01b0316336001600160a01b031614611cc05760405162461bcd60e51b8152600401610d7790614f4e565b30611cc9610b69565b6001600160a01b031614611d065760008036604051611ce9929190614f3e565b604051809103902090505b80611cff60026126a1565b03611cf457505b600080856001600160a01b0316858585604051611d24929190614f3e565b60006040518083038185875af1925050503d8060008114611d61576040519150601f19603f3d011682016040523d82523d6000602084013e611d66565b606091505b5091509150611d8e828260405180606001604052806028815260200161558760289139612fd6565b50505050505050565b600084848484604051602001611db09493929190615216565b60408051601f19818403018152919052805160209091012095945050505050565b6000611de1338787878787612fef565b6119c88686611df08787612aca565b856119d2565b60008181526004602090815260409182902060018101805484518185028101850190955280855291936117c993909290830182828015611e5f57602002820191906000526020600020905b81546001600160a01b03168152600190910190602001808311611e41575b505050505082600201805480602002602001604051908101604052809291908181526020018280548015611eb257602002820191906000526020600020905b815481526020019060010190808311611e9e575b505050505061205a84600301805480602002602001604051908101604052809291908181526020016000905b82821015611f8a578382906000526020600020018054611efd90614f85565b80601f0160208091040260200160405190810160405280929190818152602001828054611f2990614f85565b8015611f765780601f10611f4b57610100808354040283529160200191611f76565b820191906000526020600020905b815481529060010190602001808311611f5957829003601f168201915b505050505081526020019060010190611ede565b50505060048701805460408051602080840282018101909252828152935060009084015b828210156117b6578382906000526020600020018054611fcd90614f85565b80601f0160208091040260200160405190810160405280929190818152602001828054611ff990614f85565b80156120465780601f1061201b57610100808354040283529160200191612046565b820191906000526020600020905b81548152906001019060200180831161202957829003601f168201915b505050505081526020019060010190611fae565b8460090154610e64565b61206c610b69565b6001600160a01b0316336001600160a01b03161461209c5760405162461bcd60e51b8152600401610d7790614f4e565b306120a5610b69565b6001600160a01b0316146120e257600080366040516120c5929190614f3e565b604051809103902090505b806120db60026126a1565b036120d057505b610dcf816130ac565b6000611afc838361210760408051602081019091526000815290565b612ea7565b612114610b69565b6001600160a01b0316336001600160a01b0316146121445760405162461bcd60e51b8152600401610d7790614f4e565b3061214d610b69565b6001600160a01b03161461218a576000803660405161216d929190614f3e565b604051809103902090505b8061218360026126a1565b0361217857505b610dcf8161314d565b600060646121a083611862565b604051632394e7a360e21b8152600481018590527f00000000000000000000000000000000000000000000000000000000000000006001600160a01b031690638e539e8c90602401602060405180830381865afa158015612205573d6000803e3d6000fd5b505050506040513d601f19601f820116820180604052508101906122299190615000565b6122339190615261565b610c369190615278565b60008181526004602090815260409182902060018101805484518185028101850190955280855291936117c9939092908301828280156122a657602002820191906000526020600020905b81546001600160a01b03168152600190910190602001808311612288575b5050505050826002018054806020026020016040519081016040528092919081815260200182805480156122f957602002820191906000526020600020905b8154815260200190600101908083116122e5575b50505050506124a184600301805480602002602001604051908101604052809291908181526020016000905b828210156123d157838290600052602060002001805461234490614f85565b80601f016020809104026020016040519081016040528092919081815260200182805461237090614f85565b80156123bd5780601f10612392576101008083540402835291602001916123bd565b820191906000526020600020905b8154815290600101906020018083116123a057829003601f168201915b505050505081526020019060010190612325565b50505060048701805460408051602080840282018101909252828152935060009084015b828210156117b657838290600052602060002001805461241490614f85565b80601f016020809104026020016040519081016040528092919081815260200182805461244090614f85565b801561248d5780601f106124625761010080835404028352916020019161248d565b820191906000526020600020905b81548152906001019060200180831161247057829003601f168201915b5050505050815260200190600101906123f5565b8460090154611075565b60006001600160e01b03198216636e665ced60e01b1480610c365750610c368261318e565b6000610c366124dd6131f9565b8360405161190160f01b6020820152602281018390526042810182905260009060620160405160208183030381529060405280519060200120905092915050565b600080600061252f87878787613320565b91509150611158816133e4565b6000858152600160208190526040822090612556886114ab565b600781111561256757612567614aa8565b146125c05760405162461bcd60e51b815260206004820152602360248201527f476f7665726e6f723a20766f7465206e6f742063757272656e746c792061637460448201526269766560e81b6064820152608401610d77565b604080516020810190915281546001600160401b0316908190526000906125e990889086612ea7565b90506125f8888888848861352e565b835160000361264d57866001600160a01b03167fb8e138887d0aa13bab447e82de9d5c1777041ecd21ca36ba824ff1e6c07ddda489888489604051612640949392919061529a565b60405180910390a26114a0565b866001600160a01b03167fe2babfbac5889a709b63bb7f598b324e08bc5a4fb9ec647fb3cbc9ec07eb8712898884898960405161268e9594939291906152c2565b60405180910390a2979650505050505050565b60006126bc8254600f81810b600160801b909204900b131590565b156126da57604051631ed9509560e11b815260040160405180910390fd5b508054600f0b6000818152600180840160205260408220805492905583546fffffffffffffffffffffffffffffffff191692016001600160801b03169190911790915590565b60648111156127a35760405162461bcd60e51b815260206004820152604360248201527f476f7665726e6f72566f74657351756f72756d4672616374696f6e3a2071756f60448201527f72756d4e756d657261746f72206f7665722071756f72756d44656e6f6d696e616064820152623a37b960e91b608482015260a401610d77565b60006127ad611b03565b905080158015906127be5750600954155b15612822576040805180820190915260008152600990602081016127e1846136cb565b6001600160e01b039081169091528254600181018455600093845260209384902083519490930151909116600160201b0263ffffffff909316929092179101555b61282d600983613738565b505060408051828152602081018490527f0553476bf02ef2726e8ce5ced78d63e26e602e4a2257b1f559418e24b4633997910160405180910390a15050565b30612875610b69565b6001600160a01b0316146129075760005b845181101561290557306001600160a01b03168582815181106128ab576128ab6150fb565b60200260200101516001600160a01b0316036128f5576128f58382815181106128d6576128d66150fb565b602002602001015180519060200120600261376e90919063ffffffff16565b6128fe81615308565b9050612886565b505b5050505050565b61290785858585856137aa565b30612924610b69565b6001600160a01b03161461290757600254600f81810b600160801b909204900b1315612907576000600255612907565b60006129778585858561297260408051602081019091526000815290565b61253c565b95945050505050565b60008061298c8361381e565b905060048160078111156129a2576129a2614aa8565b146129ad5792915050565b6000838152600b6020526040902054806129c8575092915050565b600a54604051632ab0f52960e01b8152600481018390526001600160a01b0390911690632ab0f52990602401602060405180830381865afa158015612a11573d6000803e3d6000fd5b505050506040513d601f19601f82011682018060405250810190612a359190615321565b15612a44575060079392505050565b600a54604051632c258a9f60e11b8152600481018390526001600160a01b039091169063584b153e90602401602060405180830381865afa158015612a8d573d6000803e3d6000fd5b505050506040513d601f19601f82011682018060405250810190612ab19190615321565b15612ac0575060059392505050565b5060029392505050565b6060600082516001600160401b03811115612ae757612ae7614506565b604051908082528060200260200182016040528015612b1a57816020015b6060815260200190600190039081612b055790505b50905060005b8451811015612bf457848181518110612b3b57612b3b6150fb565b602002602001015151600014612bab57848181518110612b5d57612b5d6150fb565b602002602001015180519060200120848281518110612b7e57612b7e6150fb565b6020026020010151604051602001612b97929190615343565b604051602081830303815290604052612bc6565b838181518110612bbd57612bbd6150fb565b60200260200101515b828281518110612bd857612bd86150fb565b602002602001018190525080612bed90615308565b9050612b20565b509392505050565b600061297785858585613930565b6000438210612c5b5760405162461bcd60e51b815260206004820181905260248201527f436865636b706f696e74733a20626c6f636b206e6f7420796574206d696e65646044820152606401610d77565b6000612c66836139e2565b84549091506000612c7986848385613a47565b90508015612cb457612c9e86612c906001846150e8565b600091825260209091200190565b54600160201b90046001600160e01b0316612cb7565b60005b6001600160e01b03169695505050505050565b60055460408051918252602082018390527fc565b045403dc03c2eea82b81a0465edad9e2e7fc4d97e11421c209da93d7a93910160405180910390a1600555565b6000612d6733868686516001600160401b03811115612d2c57612d2c614506565b604051908082528060200260200182016040528015612d5f57816020015b6060815260200190600190039081612d4a5790505b508787612fef565b61297785858585613a9d565b60606201000082511115612dc95760405162461bcd60e51b815260206004820152601f60248201527f4d617820636f6e74656e742073697a65206973203635353336206279746573006044820152606401610d77565b6000612dd58351613d60565b90506000818483604051602001612dee93929190615374565b60405160208183030381529060405290506002612e0b8251613d60565b82604051602001612e1d9291906153d9565b60408051601f1981840301815290829052612e3791615419565b602060405180830381855afa158015612e54573d6000803e3d6000fd5b5050506040513d601f19601f82011682018060405250810190612e779190615000565b604051609160f51b6020820152602281019190915260420160405160208183030381529060405292505050919050565b604051630748d63560e31b81526001600160a01b038481166004830152602482018490526000917f000000000000000000000000000000000000000000000000000000000000000090911690633a46b1a890604401602060405180830381865afa158015612f19573d6000803e3d6000fd5b505050506040513d601f19601f82011682018060405250810190611af99190615000565b80546000908015611c4557612f5783612c906001846150e8565b54600160201b90046001600160e01b0316611afc565b600a54604080516001600160a01b03928316815291831660208301527f08f74ea46ef7894f65eabfb5e6e695de773a000b47c529ab559178069b226401910160405180910390a1600a80546001600160a01b0319166001600160a01b0392909216919091179055565b60608315612fe5575081611afc565b611afc8383613eb7565b80516020820120600061300d87876130078888612aca565b85611d97565b60008181526004602052604090206009810154919250906130a15780546001600160a01b0319166001600160a01b038a16178155875161305690600183019060208b01906142a3565b50865161306c90600283019060208a0190614304565b508551613082906003830190602089019061433f565b5084516130989060048301906020880190614391565b50600981018390555b505050505050505050565b6000811161310c5760405162461bcd60e51b815260206004820152602760248201527f476f7665726e6f7253657474696e67733a20766f74696e6720706572696f6420604482015266746f6f206c6f7760c81b6064820152608401610d77565b60065460408051918252602082018390527f7e3f7f0708a84de9203036abaa450dccc85ad5ff52f78c170f3edb55cf5e8828910160405180910390a1600655565b60075460408051918252602082018390527fccb45da8d5717e6c4544694297c4ba5cf151d455c9bb0ed4fc7a38411bc05461910160405180910390a1600755565b60006001600160e01b0319821663bf26d89760e01b14806131bf57506001600160e01b031982166379dd796f60e01b145b806131da57506001600160e01b03198216630271189760e51b145b80610c3657506301ffc9a760e01b6001600160e01b0319831614610c36565b6000306001600160a01b037f00000000000000000000000000000000000000000000000000000000000000001614801561325257507f000000000000000000000000000000000000000000000000000000000000000046145b1561327c57507f000000000000000000000000000000000000000000000000000000000000000090565b50604080517f00000000000000000000000000000000000000000000000000000000000000006020808301919091527f0000000000000000000000000000000000000000000000000000000000000000828401527f000000000000000000000000000000000000000000000000000000000000000060608301524660808301523060a0808401919091528351808403909101815260c0909201909252805191012090565b6000807f7fffffffffffffffffffffffffffffff5d576e7357a4501ddfe92f46681b20a083111561335757506000905060036133db565b6040805160008082526020820180845289905260ff881692820192909252606081018690526080810185905260019060a0016020604051602081039080840390855afa1580156133ab573d6000803e3d6000fd5b5050604051601f1901519150506001600160a01b0381166133d4576000600192509250506133db565b9150600090505b94509492505050565b60008160048111156133f8576133f8614aa8565b036134005750565b600181600481111561341457613414614aa8565b036134615760405162461bcd60e51b815260206004820152601860248201527f45434453413a20696e76616c6964207369676e617475726500000000000000006044820152606401610d77565b600281600481111561347557613475614aa8565b036134c25760405162461bcd60e51b815260206004820152601f60248201527f45434453413a20696e76616c6964207369676e6174757265206c656e677468006044820152606401610d77565b60038160048111156134d6576134d6614aa8565b03610dcf5760405162461bcd60e51b815260206004820152602260248201527f45434453413a20696e76616c6964207369676e6174757265202773272076616c604482015261756560f01b6064820152608401610d77565b60008581526004602090815260408083206001600160a01b038816845260088101909252909120805460ff16156135bd5760405162461bcd60e51b815260206004820152602d60248201527f476f7665726e6f72436f6d7061746962696c697479427261766f3a20766f746560448201526c08185b1c9958591e4818d85cdd609a1b6064820152608401610d77565b805460ff86166101000261ffff199091161760011781556135dd84613ee1565b81546001600160601b039190911662010000026dffffffffffffffffffffffff00001990911617815560ff851661362d578382600601600082825461362291906150d5565b90915550611d8e9050565b60001960ff86160161364d578382600501600082825461362291906150d5565b60011960ff86160161366d578382600701600082825461362291906150d5565b60405162461bcd60e51b815260206004820152602d60248201527f476f7665726e6f72436f6d7061746962696c697479427261766f3a20696e766160448201526c6c696420766f7465207479706560981b6064820152608401610d77565b60006001600160e01b038211156137345760405162461bcd60e51b815260206004820152602760248201527f53616665436173743a2076616c756520646f65736e27742066697420696e20326044820152663234206269747360c81b6064820152608401610d77565b5090565b60008061375684613748436139e2565b613751866136cb565b613f49565b6001600160e01b0391821693501690505b9250929050565b8154600160801b90819004600f0b6000818152600180860160205260409091209390935583546001600160801b03908116939091011602179055565b600a5460405163e38335e560e01b81526001600160a01b039091169063e38335e59034906137e5908890889088906000908990600401615019565b6000604051808303818588803b1580156137fe57600080fd5b505af1158015613812573d6000803e3d6000fd5b50505050505050505050565b6000818152600160205260408120600281015460ff16156138425750600792915050565b6002810154610100900460ff161561385d5750600292915050565b600061386884611162565b9050806000036138ba5760405162461bcd60e51b815260206004820152601d60248201527f476f7665726e6f723a20756e6b6e6f776e2070726f706f73616c2069640000006044820152606401610d77565b4381106138cb575060009392505050565b60006138d685611c59565b90504381106138ea57506001949350505050565b6138f3856140ec565b8015613915575060008581526004602052604090206006810154600590910154115b1561392557506004949350505050565b506003949350505050565b60008061393f86868686614114565b6000818152600b60205260409020549091501561297757600a546000828152600b60205260409081902054905163c4d252f560e01b81526001600160a01b039092169163c4d252f5916139989160040190815260200190565b600060405180830381600087803b1580156139b257600080fd5b505af11580156139c6573d6000803e3d6000fd5b5050506000828152600b60205260408120555095945050505050565b600063ffffffff8211156137345760405162461bcd60e51b815260206004820152602660248201527f53616665436173743a2076616c756520646f65736e27742066697420696e203360448201526532206269747360d01b6064820152608401610d77565b60005b81831015612bf4576000613a5e8484614220565b60008781526020902090915063ffffffff86169082015463ffffffff161115613a8957809250613a97565b613a948160016150d5565b93505b50613a4a565b6000613aa7611c4e565b613ab633610a846001436150e8565b1015613b1e5760405162461bcd60e51b815260206004820152603160248201527f476f7665726e6f723a2070726f706f73657220766f7465732062656c6f7720706044820152701c9bdc1bdcd85b081d1a1c995cda1bdb19607a1b6064820152608401610d77565b6000613b338686868680519060200120611d97565b90508451865114613b565760405162461bcd60e51b8152600401610d7790615435565b8351865114613b775760405162461bcd60e51b8152600401610d7790615435565b6000865111613bc85760405162461bcd60e51b815260206004820152601860248201527f476f7665726e6f723a20656d7074792070726f706f73616c00000000000000006044820152606401610d77565b600081815260016020908152604091829020825191820190925281546001600160401b03169081905215613c485760405162461bcd60e51b815260206004820152602160248201527f476f7665726e6f723a2070726f706f73616c20616c72656164792065786973746044820152607360f81b6064820152608401610d77565b6000613c5a613c5561142a565b61423b565b613c634361423b565b613c6d9190615476565b90506000613c7c613c55610c3c565b613c869083615476565b835467ffffffffffffffff19166001600160401b038416178455905060018301805467ffffffffffffffff19166001600160401b0383161790557f7d84a6263ae0d98d3329bd7b46bb4e8d6f98cd35a7adb45c274c8b7fd5ebd5e084338b8b8d516001600160401b03811115613cfe57613cfe614506565b604051908082528060200260200182016040528015613d3157816020015b6060815260200190600190039081613d1c5790505b508c88888e604051613d4b9998979695949392919061549d565b60405180910390a15091979650505050505050565b60608160015b607f826001600160401b03161115613d99576007826001600160401b0316901c915080613d9290615540565b9050613d66565b6000816001600160401b03166001600160401b03811115613dbc57613dbc614506565b6040519080825280601f01601f191660200182016040528015613de6576020820181803683370190505b50905084925060005b826001600160401b0316816001600160401b03161015613e685783607f1660801760f81b82826001600160401b031681518110613e2e57613e2e6150fb565b60200101906001600160f81b031916908160001a9053506007846001600160401b0316901c93508080613e6090615540565b915050613def565b50607f60f81b81613e7a600185615566565b6001600160401b031681518110613e9357613e936150fb565b0160200180519091166001600160f81b03191690600082901a905350949350505050565b815115613ec75781518083602001fd5b8060405162461bcd60e51b8152600401610d7791906146b1565b60006001600160601b038211156137345760405162461bcd60e51b815260206004820152602660248201527f53616665436173743a2076616c756520646f65736e27742066697420696e203960448201526536206269747360d01b6064820152608401610d77565b82546000908190801561408f576000613f6787612c906001856150e8565b60408051808201909152905463ffffffff808216808452600160201b9092046001600160e01b031660208401529192509087161015613fe85760405162461bcd60e51b815260206004820152601760248201527f436865636b706f696e743a20696e76616c6964206b65790000000000000000006044820152606401610d77565b805163ffffffff808816911603614030578461400988612c906001866150e8565b80546001600160e01b0392909216600160201b0263ffffffff90921691909117905561407f565b6040805180820190915263ffffffff80881682526001600160e01b0380881660208085019182528b54600181018d5560008d81529190912094519151909216600160201b029216919091179101555b6020015192508391506140e49050565b50506040805180820190915263ffffffff80851682526001600160e01b0380851660208085019182528854600181018a5560008a815291822095519251909316600160201b0291909316179201919091559050815b935093915050565b6000818152600460205260408120600581015461410b610b1d85611162565b11159392505050565b60008061412386868686611d97565b90506000614130826114ab565b9050600281600781111561414657614146614aa8565b141580156141665750600681600781111561416357614163614aa8565b14155b80156141845750600781600781111561418157614181614aa8565b14155b6141d05760405162461bcd60e51b815260206004820152601d60248201527f476f7665726e6f723a2070726f706f73616c206e6f74206163746976650000006044820152606401610d77565b60008281526001602052604090819020600201805461ff001916610100179055517f789cf55be980739dad1d0699b93b58e806b51c9d96619bfa8fe0a28abaa7b30c906110539084815260200190565b600061422f6002848418615278565b611afc908484166150d5565b60006001600160401b038211156137345760405162461bcd60e51b815260206004820152602660248201527f53616665436173743a2076616c756520646f65736e27742066697420696e203660448201526534206269747360d01b6064820152608401610d77565b8280548282559060005260206000209081019282156142f8579160200282015b828111156142f857825182546001600160a01b0319166001600160a01b039091161782556020909201916001909101906142c3565b506137349291506143e3565b8280548282559060005260206000209081019282156142f8579160200282015b828111156142f8578251825591602001919060010190614324565b828054828255906000526020600020908101928215614385579160200282015b8281111561438557825182906143759082615157565b509160200191906001019061435f565b506137349291506143f8565b8280548282559060005260206000209081019282156143d7579160200282015b828111156143d757825182906143c79082615157565b50916020019190600101906143b1565b50613734929150614415565b5b8082111561373457600081556001016143e4565b8082111561373457600061440c8282614432565b506001016143f8565b808211156137345760006144298282614432565b50600101614415565b50805461443e90614f85565b6000825580601f1061444e575050565b601f016020900490600052602060002090810190610dcf91906143e3565b60006020828403121561447e57600080fd5b5035919050565b60006020828403121561449757600080fd5b81356001600160e01b031981168114611afc57600080fd5b803560ff811681146144c057600080fd5b919050565b60008083601f8401126144d757600080fd5b5081356001600160401b038111156144ee57600080fd5b60208301915083602082850101111561376757600080fd5b634e487b7160e01b600052604160045260246000fd5b604051601f8201601f191681016001600160401b038111828210171561454457614544614506565b604052919050565b600082601f83011261455d57600080fd5b81356001600160401b0381111561457657614576614506565b614589601f8201601f191660200161451c565b81815284602083860101111561459e57600080fd5b816020850160208301376000918101602001919091529392505050565b60008060008060008060008060e0898b0312156145d757600080fd5b883597506145e760208a016144af565b965060408901356001600160401b038082111561460357600080fd5b61460f8c838d016144c5565b909850965060608b013591508082111561462857600080fd5b506146358b828c0161454c565b94505061464460808a016144af565b925060a0890135915060c089013590509295985092959890939650565b60005b8381101561467c578181015183820152602001614664565b50506000910152565b6000815180845261469d816020860160208601614661565b601f01601f19169290920160200192915050565b602081526000611afc6020830184614685565b6001600160a01b0381168114610dcf57600080fd5b600080600080608085870312156146ef57600080fd5b84356146fa816146c4565b9350602085013561470a816146c4565b92506040850135915060608501356001600160401b0381111561472c57600080fd5b6147388782880161454c565b91505092959194509250565b60006001600160401b0382111561475d5761475d614506565b5060051b60200190565b600082601f83011261477857600080fd5b8135602061478d61478883614744565b61451c565b82815260059290921b840181019181810190868411156147ac57600080fd5b8286015b848110156147d05780356147c3816146c4565b83529183019183016147b0565b509695505050505050565b600082601f8301126147ec57600080fd5b813560206147fc61478883614744565b82815260059290921b8401810191818101908684111561481b57600080fd5b8286015b848110156147d0578035835291830191830161481f565b600082601f83011261484757600080fd5b8135602061485761478883614744565b82815260059290921b8401810191818101908684111561487657600080fd5b8286015b848110156147d05780356001600160401b038111156148995760008081fd5b6148a78986838b010161454c565b84525091830191830161487a565b600080600080608085870312156148cb57600080fd5b84356001600160401b03808211156148e257600080fd5b6148ee88838901614767565b9550602087013591508082111561490457600080fd5b614910888389016147db565b9450604087013591508082111561492657600080fd5b5061493387828801614836565b949793965093946060013593505050565b600081518084526020808501945080840160005b8381101561497d5781516001600160a01b031687529582019590820190600101614958565b509495945050505050565b600081518084526020808501945080840160005b8381101561497d5781518752958201959082019060010161499c565b600081518084526020808501808196508360051b8101915082860160005b85811015614a005782840389526149ee848351614685565b988501989350908401906001016149d6565b5091979650505050505050565b608081526000614a206080830187614944565b8281036020840152614a328187614988565b90508281036040840152614a4681866149b8565b905082810360608401526114a081856149b8565b600080600080600060a08688031215614a7257600080fd5b85359450614a82602087016144af565b9350614a90604087016144af565b94979396509394606081013594506080013592915050565b634e487b7160e01b600052602160045260246000fd5b6020810160088310614ae057634e487b7160e01b600052602160045260246000fd5b91905290565b60008060408385031215614af957600080fd5b823591506020830135614b0b816146c4565b809150509250929050565b60008060408385031215614b2957600080fd5b82359150614b39602084016144af565b90509250929050565b600080600080600060808688031215614b5a57600080fd5b85359450614b6a602087016144af565b935060408601356001600160401b0380821115614b8657600080fd5b614b9289838a016144c5565b90955093506060880135915080821115614bab57600080fd5b50614bb88882890161454c565b9150509295509295909350565b60008060008060608587031215614bdb57600080fd5b84359350614beb602086016144af565b925060408501356001600160401b03811115614c0657600080fd5b614c12878288016144c5565b95989497509550505050565b60008060008060808587031215614c3457600080fd5b84356001600160401b0380821115614c4b57600080fd5b614c5788838901614767565b95506020870135915080821115614c6d57600080fd5b614c79888389016147db565b94506040870135915080821115614c8f57600080fd5b614c9b88838901614836565b93506060870135915080821115614cb157600080fd5b506147388782880161454c565b600080600060608486031215614cd357600080fd5b8335614cde816146c4565b92506020840135915060408401356001600160401b03811115614d0057600080fd5b614d0c8682870161454c565b9150509250925092565b600060208284031215614d2857600080fd5b8135611afc816146c4565b600080600080600060a08688031215614d4b57600080fd5b8535614d56816146c4565b94506020860135614d66816146c4565b935060408601356001600160401b0380821115614d8257600080fd5b614d8e89838a016147db565b94506060880135915080821115614da457600080fd5b614db089838a016147db565b93506080880135915080821115614bab57600080fd5b60008060008060608587031215614ddc57600080fd5b8435614de7816146c4565b93506020850135925060408501356001600160401b03811115614c0657600080fd5b600080600080600060a08688031215614e2157600080fd5b85356001600160401b0380821115614e3857600080fd5b614e4489838a01614767565b96506020880135915080821115614e5a57600080fd5b614e6689838a016147db565b95506040880135915080821115614e7c57600080fd5b614e8889838a01614836565b94506060880135915080821115614e9e57600080fd5b614db089838a01614836565b60008060408385031215614ebd57600080fd5b8235614ec8816146c4565b946020939093013593505050565b600080600080600060a08688031215614eee57600080fd5b8535614ef9816146c4565b94506020860135614f09816146c4565b9350604086013592506060860135915060808601356001600160401b03811115614f3257600080fd5b614bb88882890161454c565b8183823760009101908152919050565b60208082526018908201527f476f7665726e6f723a206f6e6c79476f7665726e616e63650000000000000000604082015260600190565b600181811c90821680614f9957607f821691505b602082108103614fb957634e487b7160e01b600052602260045260246000fd5b50919050565b60208082526021908201527f476f7665726e6f723a2070726f706f73616c206e6f74207375636365737366756040820152601b60fa1b606082015260800190565b60006020828403121561501257600080fd5b5051919050565b60a08152600061502c60a0830188614944565b828103602084015261503e8188614988565b9050828103604084015261505281876149b8565b60608401959095525050608001529392505050565b60c08152600061507a60c0830189614944565b828103602084015261508c8189614988565b905082810360408401526150a081886149b8565b60608401969096525050608081019290925260a0909101529392505050565b634e487b7160e01b600052601160045260246000fd5b80820180821115610c3657610c366150bf565b81810381811115610c3657610c366150bf565b634e487b7160e01b600052603260045260246000fd5b601f8211156117c957600081815260208120601f850160051c810160208610156151385750805b601f850160051c820191505b8181101561290557828155600101615144565b81516001600160401b0381111561517057615170614506565b6151848161517e8454614f85565b84615111565b602080601f8311600181146151b957600084156151a15750858301515b600019600386901b1c1916600185901b178555612905565b600085815260208120601f198616915b828110156151e8578886015182559484019460019091019084016151c9565b50858210156152065787850151600019600388901b60f8161c191681555b5050505050600190811b01905550565b6080815260006152296080830187614944565b828103602084015261523b8187614988565b9050828103604084015261524f81866149b8565b91505082606083015295945050505050565b8082028115828204841417610c3657610c366150bf565b60008261529557634e487b7160e01b600052601260045260246000fd5b500490565b84815260ff841660208201528260408201526080606082015260006119c86080830184614685565b85815260ff8516602082015283604082015260a0606082015260006152ea60a0830185614685565b82810360808401526152fc8185614685565b98975050505050505050565b60006001820161531a5761531a6150bf565b5060010190565b60006020828403121561533357600080fd5b81518015158114611afc57600080fd5b6001600160e01b0319831681528151600090615366816004850160208701614661565b919091016004019392505050565b6204010960e91b81528351600090615393816003850160208901614661565b8451908301906153aa816003840160208901614661565b600360fb1b6003929091019182015283516153cc816004840160208801614661565b0160040195945050505050565b600560f91b815282516000906153f6816001850160208801614661565b83519083019061540d816001840160208801614661565b01600101949350505050565b6000825161542b818460208701614661565b9190910192915050565b60208082526021908201527f476f7665726e6f723a20696e76616c69642070726f706f73616c206c656e67746040820152600d60fb1b606082015260800190565b6001600160401b03818116838216019080821115615496576154966150bf565b5092915050565b8981526001600160a01b0389166020820152610120604082018190526000906154c88382018b614944565b905082810360608401526154dc818a614988565b905082810360808401526154f081896149b8565b905082810360a084015261550481886149b8565b6001600160401b0387811660c0860152861660e085015283810361010085015290506155308185614685565b9c9b505050505050505050505050565b60006001600160401b0380831681810361555c5761555c6150bf565b6001019392505050565b6001600160401b03828116828216039080821115615496576154966150bf56fe476f7665726e6f723a2072656c617920726576657274656420776974686f7574206d657373616765a2646970667358221220dcd8a94eecf567d8996b68ff0e7a5949b4d70952170b29c4ab22a9268f318a9864736f6c63430008130033",
  "linkReferences": {},
  "deployedLinkReferences": {}
}