{
  "_format": "hh-sol-artifact-1",
  "contractName": "GovernorV1",
  "sourceName": "contracts/GovernorV1.sol",
  "abi": [
    {
      "inputs": [
        {
          "internalType": "contract IVotes",
          "name": "_token",
          "type": "address"
        },
        {
          "internalType": "contract TimelockController",
          "name": "_timelock",
          "type": "address"
        }
      ],
      "stateMutability": "nonpayable",
      "type": "constructor"
    },
    {
      "inputs": [],
      "name": "Empty",
      "type": "error"
    },
    {
      "inputs": [],
      "name": "InvalidShortString",
      "type": "error"
    },
    {
      "inputs": [
        {
          "internalType": "string",
          "name": "str",
          "type": "string"
        }
      ],
      "name": "StringTooLong",
      "type": "error"
    },
    {
      "anonymous": false,
      "inputs": [],
      "name": "EIP712DomainChanged",
      "type": "event"
    },
    {
      "anonymous": false,
      "inputs": [
        {
          "indexed": false,
          "internalType": "uint256",
          "name": "proposalId",
          "type": "uint256"
        }
      ],
      "name": "ProposalCanceled",
      "type": "event"
    },
    {
      "anonymous": false,
      "inputs": [
        {
          "indexed": false,
          "internalType": "uint256",
          "name": "proposalId",
          "type": "uint256"
        },
        {
          "indexed": false,
          "internalType": "address",
          "name": "proposer",
          "type": "address"
        },
        {
          "indexed": false,
          "internalType": "address[]",
          "name": "targets",
          "type": "address[]"
        },
        {
          "indexed": false,
          "internalType": "uint256[]",
          "name": "values",
          "type": "uint256[]"
        },
        {
          "indexed": false,
          "internalType": "string[]",
          "name": "signatures",
          "type": "string[]"
        },
        {
          "indexed": false,
          "internalType": "bytes[]",
          "name": "calldatas",
          "type": "bytes[]"
        },
        {
          "indexed": false,
          "internalType": "uint256",
          "name": "voteStart",
          "type": "uint256"
        },
        {
          "indexed": false,
          "internalType": "uint256",
          "name": "voteEnd",
          "type": "uint256"
        },
        {
          "indexed": false,
          "internalType": "string",
          "name": "description",
          "type": "string"
        }
      ],
      "name": "ProposalCreated",
      "type": "event"
    },
    {
      "anonymous": false,
      "inputs": [
        {
          "indexed": false,
          "internalType": "uint256",
          "name": "proposalId",
          "type": "uint256"
        }
      ],
      "name": "ProposalExecuted",
      "type": "event"
    },
    {
      "anonymous": false,
      "inputs": [
        {
          "indexed": false,
          "internalType": "uint256",
          "name": "proposalId",
          "type": "uint256"
        },
        {
          "indexed": false,
          "internalType": "uint256",
          "name": "eta",
          "type": "uint256"
        }
      ],
      "name": "ProposalQueued",
      "type": "event"
    },
    {
      "anonymous": false,
      "inputs": [
        {
          "indexed": false,
          "internalType": "uint256",
          "name": "oldProposalThreshold",
          "type": "uint256"
        },
        {
          "indexed": false,
          "internalType": "uint256",
          "name": "newProposalThreshold",
          "type": "uint256"
        }
      ],
      "name": "ProposalThresholdSet",
      "type": "event"
    },
    {
      "anonymous": false,
      "inputs": [
        {
          "indexed": false,
          "internalType": "uint256",
          "name": "oldQuorumNumerator",
          "type": "uint256"
        },
        {
          "indexed": false,
          "internalType": "uint256",
          "name": "newQuorumNumerator",
          "type": "uint256"
        }
      ],
      "name": "QuorumNumeratorUpdated",
      "type": "event"
    },
    {
      "anonymous": false,
      "inputs": [
        {
          "indexed": false,
          "internalType": "address",
          "name": "oldTimelock",
          "type": "address"
        },
        {
          "indexed": false,
          "internalType": "address",
          "name": "newTimelock",
          "type": "address"
        }
      ],
      "name": "TimelockChange",
      "type": "event"
    },
    {
      "anonymous": false,
      "inputs": [
        {
          "indexed": true,
          "internalType": "address",
          "name": "voter",
          "type": "address"
        },
        {
          "indexed": false,
          "internalType": "uint256",
          "name": "proposalId",
          "type": "uint256"
        },
        {
          "indexed": false,
          "internalType": "uint8",
          "name": "support",
          "type": "uint8"
        },
        {
          "indexed": false,
          "internalType": "uint256",
          "name": "weight",
          "type": "uint256"
        },
        {
          "indexed": false,
          "internalType": "string",
          "name": "reason",
          "type": "string"
        }
      ],
      "name": "VoteCast",
      "type": "event"
    },
    {
      "anonymous": false,
      "inputs": [
        {
          "indexed": true,
          "internalType": "address",
          "name": "voter",
          "type": "address"
        },
        {
          "indexed": false,
          "internalType": "uint256",
          "name": "proposalId",
          "type": "uint256"
        },
        {
          "indexed": false,
          "internalType": "uint8",
          "name": "support",
          "type": "uint8"
        },
        {
          "indexed": false,
          "internalType": "uint256",
          "name": "weight",
          "type": "uint256"
        },
        {
          "indexed": false,
          "internalType": "string",
          "name": "reason",
          "type": "string"
        },
        {
          "indexed": false,
          "internalType": "bytes",
          "name": "params",
          "type": "bytes"
        }
      ],
      "name": "VoteCastWithParams",
      "type": "event"
    },
    {
      "anonymous": false,
      "inputs": [
        {
          "indexed": false,
          "internalType": "uint256",
          "name": "oldVotingDelay",
          "type": "uint256"
        },
        {
          "indexed": false,
          "internalType": "uint256",
          "name": "newVotingDelay",
          "type": "uint256"
        }
      ],
      "name": "VotingDelaySet",
      "type": "event"
    },
    {
      "anonymous": false,
      "inputs": [
        {
          "indexed": false,
          "internalType": "uint256",
          "name": "oldVotingPeriod",
          "type": "uint256"
        },
        {
          "indexed": false,
          "internalType": "uint256",
          "name": "newVotingPeriod",
          "type": "uint256"
        }
      ],
      "name": "VotingPeriodSet",
      "type": "event"
    },
    {
      "inputs": [],
      "name": "BALLOT_TYPEHASH",
      "outputs": [
        {
          "internalType": "bytes32",
          "name": "",
          "type": "bytes32"
        }
      ],
      "stateMutability": "view",
      "type": "function"
    },
    {
      "inputs": [],
      "name": "CLOCK_MODE",
      "outputs": [
        {
          "internalType": "string",
          "name": "",
          "type": "string"
        }
      ],
      "stateMutability": "view",
      "type": "function"
    },
    {
      "inputs": [],
      "name": "COUNTING_MODE",
      "outputs": [
        {
          "internalType": "string",
          "name": "",
          "type": "string"
        }
      ],
      "stateMutability": "pure",
      "type": "function"
    },
    {
      "inputs": [],
      "name": "EXTENDED_BALLOT_TYPEHASH",
      "outputs": [
        {
          "internalType": "bytes32",
          "name": "",
          "type": "bytes32"
        }
      ],
      "stateMutability": "view",
      "type": "function"
    },
    {
      "inputs": [
        {
          "internalType": "uint256",
          "name": "proposalId",
          "type": "uint256"
        }
      ],
      "name": "cancel",
      "outputs": [],
      "stateMutability": "nonpayable",
      "type": "function"
    },
    {
      "inputs": [
        {
          "internalType": "address[]",
          "name": "targets",
          "type": "address[]"
        },
        {
          "internalType": "uint256[]",
          "name": "values",
          "type": "uint256[]"
        },
        {
          "internalType": "bytes[]",
          "name": "calldatas",
          "type": "bytes[]"
        },
        {
          "internalType": "bytes32",
          "name": "descriptionHash",
          "type": "bytes32"
        }
      ],
      "name": "cancel",
      "outputs": [
        {
          "internalType": "uint256",
          "name": "",
          "type": "uint256"
        }
      ],
      "stateMutability": "nonpayable",
      "type": "function"
    },
    {
      "inputs": [
        {
          "internalType": "uint256",
          "name": "proposalId",
          "type": "uint256"
        },
        {
          "internalType": "uint8",
          "name": "support",
          "type": "uint8"
        }
      ],
      "name": "castVote",
      "outputs": [
        {
          "internalType": "uint256",
          "name": "",
          "type": "uint256"
        }
      ],
      "stateMutability": "nonpayable",
      "type": "function"
    },
    {
      "inputs": [
        {
          "internalType": "uint256",
          "name": "proposalId",
          "type": "uint256"
        },
        {
          "internalType": "uint8",
          "name": "support",
          "type": "uint8"
        },
        {
          "internalType": "uint8",
          "name": "v",
          "type": "uint8"
        },
        {
          "internalType": "bytes32",
          "name": "r",
          "type": "bytes32"
        },
        {
          "internalType": "bytes32",
          "name": "s",
          "type": "bytes32"
        }
      ],
      "name": "castVoteBySig",
      "outputs": [
        {
          "internalType": "uint256",
          "name": "",
          "type": "uint256"
        }
      ],
      "stateMutability": "nonpayable",
      "type": "function"
    },
    {
      "inputs": [
        {
          "internalType": "uint256",
          "name": "proposalId",
          "type": "uint256"
        },
        {
          "internalType": "uint8",
          "name": "support",
          "type": "uint8"
        },
        {
          "internalType": "string",
          "name": "reason",
          "type": "string"
        }
      ],
      "name": "castVoteWithReason",
      "outputs": [
        {
          "internalType": "uint256",
          "name": "",
          "type": "uint256"
        }
      ],
      "stateMutability": "nonpayable",
      "type": "function"
    },
    {
      "inputs": [
        {
          "internalType": "uint256",
          "name": "proposalId",
          "type": "uint256"
        },
        {
          "internalType": "uint8",
          "name": "support",
          "type": "uint8"
        },
        {
          "internalType": "string",
          "name": "reason",
          "type": "string"
        },
        {
          "internalType": "bytes",
          "name": "params",
          "type": "bytes"
        }
      ],
      "name": "castVoteWithReasonAndParams",
      "outputs": [
        {
          "internalType": "uint256",
          "name": "",
          "type": "uint256"
        }
      ],
      "stateMutability": "nonpayable",
      "type": "function"
    },
    {
      "inputs": [
        {
          "internalType": "uint256",
          "name": "proposalId",
          "type": "uint256"
        },
        {
          "internalType": "uint8",
          "name": "support",
          "type": "uint8"
        },
        {
          "internalType": "string",
          "name": "reason",
          "type": "string"
        },
        {
          "internalType": "bytes",
          "name": "params",
          "type": "bytes"
        },
        {
          "internalType": "uint8",
          "name": "v",
          "type": "uint8"
        },
        {
          "internalType": "bytes32",
          "name": "r",
          "type": "bytes32"
        },
        {
          "internalType": "bytes32",
          "name": "s",
          "type": "bytes32"
        }
      ],
      "name": "castVoteWithReasonAndParamsBySig",
      "outputs": [
        {
          "internalType": "uint256",
          "name": "",
          "type": "uint256"
        }
      ],
      "stateMutability": "nonpayable",
      "type": "function"
    },
    {
      "inputs": [],
      "name": "clock",
      "outputs": [
        {
          "internalType": "uint48",
          "name": "",
          "type": "uint48"
        }
      ],
      "stateMutability": "view",
      "type": "function"
    },
    {
      "inputs": [
        {
          "internalType": "uint256",
          "name": "",
          "type": "uint256"
        }
      ],
      "name": "descriptionCids",
      "outputs": [
        {
          "internalType": "bytes",
          "name": "",
          "type": "bytes"
        }
      ],
      "stateMutability": "view",
      "type": "function"
    },
    {
      "inputs": [
        {
          "internalType": "uint256",
          "name": "",
          "type": "uint256"
        }
      ],
      "name": "descriptionHashes",
      "outputs": [
        {
          "internalType": "bytes32",
          "name": "",
          "type": "bytes32"
        }
      ],
      "stateMutability": "view",
      "type": "function"
    },
    {
      "inputs": [],
      "name": "eip712Domain",
      "outputs": [
        {
          "internalType": "bytes1",
          "name": "fields",
          "type": "bytes1"
        },
        {
          "internalType": "string",
          "name": "name",
          "type": "string"
        },
        {
          "internalType": "string",
          "name": "version",
          "type": "string"
        },
        {
          "internalType": "uint256",
          "name": "chainId",
          "type": "uint256"
        },
        {
          "internalType": "address",
          "name": "verifyingContract",
          "type": "address"
        },
        {
          "internalType": "bytes32",
          "name": "salt",
          "type": "bytes32"
        },
        {
          "internalType": "uint256[]",
          "name": "extensions",
          "type": "uint256[]"
        }
      ],
      "stateMutability": "view",
      "type": "function"
    },
    {
      "inputs": [
        {
          "internalType": "address[]",
          "name": "targets",
          "type": "address[]"
        },
        {
          "internalType": "uint256[]",
          "name": "values",
          "type": "uint256[]"
        },
        {
          "internalType": "bytes[]",
          "name": "calldatas",
          "type": "bytes[]"
        },
        {
          "internalType": "bytes32",
          "name": "descriptionHash",
          "type": "bytes32"
        }
      ],
      "name": "execute",
      "outputs": [
        {
          "internalType": "uint256",
          "name": "",
          "type": "uint256"
        }
      ],
      "stateMutability": "payable",
      "type": "function"
    },
    {
      "inputs": [
        {
          "internalType": "uint256",
          "name": "proposalId",
          "type": "uint256"
        }
      ],
      "name": "execute",
      "outputs": [],
      "stateMutability": "payable",
      "type": "function"
    },
    {
      "inputs": [
        {
          "internalType": "uint256",
          "name": "proposalId",
          "type": "uint256"
        }
      ],
      "name": "getActions",
      "outputs": [
        {
          "internalType": "address[]",
          "name": "targets",
          "type": "address[]"
        },
        {
          "internalType": "uint256[]",
          "name": "values",
          "type": "uint256[]"
        },
        {
          "internalType": "string[]",
          "name": "signatures",
          "type": "string[]"
        },
        {
          "internalType": "bytes[]",
          "name": "calldatas",
          "type": "bytes[]"
        }
      ],
      "stateMutability": "view",
      "type": "function"
    },
    {
      "inputs": [
        {
          "internalType": "uint256",
          "name": "proposalId",
          "type": "uint256"
        },
        {
          "internalType": "address",
          "name": "voter",
          "type": "address"
        }
      ],
      "name": "getReceipt",
      "outputs": [
        {
          "components": [
            {
              "internalType": "bool",
              "name": "hasVoted",
              "type": "bool"
            },
            {
              "internalType": "uint8",
              "name": "support",
              "type": "uint8"
            },
            {
              "internalType": "uint96",
              "name": "votes",
              "type": "uint96"
            }
          ],
          "internalType": "struct IGovernorCompatibilityBravo.Receipt",
          "name": "",
          "type": "tuple"
        }
      ],
      "stateMutability": "view",
      "type": "function"
    },
    {
      "inputs": [
        {
          "internalType": "address",
          "name": "account",
          "type": "address"
        },
        {
          "internalType": "uint256",
          "name": "timepoint",
          "type": "uint256"
        }
      ],
      "name": "getVotes",
      "outputs": [
        {
          "internalType": "uint256",
          "name": "",
          "type": "uint256"
        }
      ],
      "stateMutability": "view",
      "type": "function"
    },
    {
      "inputs": [
        {
          "internalType": "address",
          "name": "account",
          "type": "address"
        },
        {
          "internalType": "uint256",
          "name": "timepoint",
          "type": "uint256"
        },
        {
          "internalType": "bytes",
          "name": "params",
          "type": "bytes"
        }
      ],
      "name": "getVotesWithParams",
      "outputs": [
        {
          "internalType": "uint256",
          "name": "",
          "type": "uint256"
        }
      ],
      "stateMutability": "view",
      "type": "function"
    },
    {
      "inputs": [
        {
          "internalType": "uint256",
          "name": "proposalId",
          "type": "uint256"
        },
        {
          "internalType": "address",
          "name": "account",
          "type": "address"
        }
      ],
      "name": "hasVoted",
      "outputs": [
        {
          "internalType": "bool",
          "name": "",
          "type": "bool"
        }
      ],
      "stateMutability": "view",
      "type": "function"
    },
    {
      "inputs": [
        {
          "internalType": "address[]",
          "name": "targets",
          "type": "address[]"
        },
        {
          "internalType": "uint256[]",
          "name": "values",
          "type": "uint256[]"
        },
        {
          "internalType": "bytes[]",
          "name": "calldatas",
          "type": "bytes[]"
        },
        {
          "internalType": "bytes32",
          "name": "descriptionHash",
          "type": "bytes32"
        }
      ],
      "name": "hashProposal",
      "outputs": [
        {
          "internalType": "uint256",
          "name": "",
          "type": "uint256"
        }
      ],
      "stateMutability": "pure",
      "type": "function"
    },
    {
      "inputs": [],
      "name": "name",
      "outputs": [
        {
          "internalType": "string",
          "name": "",
          "type": "string"
        }
      ],
      "stateMutability": "view",
      "type": "function"
    },
    {
      "inputs": [
        {
          "internalType": "address",
          "name": "",
          "type": "address"
        },
        {
          "internalType": "address",
          "name": "",
          "type": "address"
        },
        {
          "internalType": "uint256[]",
          "name": "",
          "type": "uint256[]"
        },
        {
          "internalType": "uint256[]",
          "name": "",
          "type": "uint256[]"
        },
        {
          "internalType": "bytes",
          "name": "",
          "type": "bytes"
        }
      ],
      "name": "onERC1155BatchReceived",
      "outputs": [
        {
          "internalType": "bytes4",
          "name": "",
          "type": "bytes4"
        }
      ],
      "stateMutability": "nonpayable",
      "type": "function"
    },
    {
      "inputs": [
        {
          "internalType": "address",
          "name": "",
          "type": "address"
        },
        {
          "internalType": "address",
          "name": "",
          "type": "address"
        },
        {
          "internalType": "uint256",
          "name": "",
          "type": "uint256"
        },
        {
          "internalType": "uint256",
          "name": "",
          "type": "uint256"
        },
        {
          "internalType": "bytes",
          "name": "",
          "type": "bytes"
        }
      ],
      "name": "onERC1155Received",
      "outputs": [
        {
          "internalType": "bytes4",
          "name": "",
          "type": "bytes4"
        }
      ],
      "stateMutability": "nonpayable",
      "type": "function"
    },
    {
      "inputs": [
        {
          "internalType": "address",
          "name": "",
          "type": "address"
        },
        {
          "internalType": "address",
          "name": "",
          "type": "address"
        },
        {
          "internalType": "uint256",
          "name": "",
          "type": "uint256"
        },
        {
          "internalType": "bytes",
          "name": "",
          "type": "bytes"
        }
      ],
      "name": "onERC721Received",
      "outputs": [
        {
          "internalType": "bytes4",
          "name": "",
          "type": "bytes4"
        }
      ],
      "stateMutability": "nonpayable",
      "type": "function"
    },
    {
      "inputs": [
        {
          "internalType": "uint256",
          "name": "proposalId",
          "type": "uint256"
        }
      ],
      "name": "proposalDeadline",
      "outputs": [
        {
          "internalType": "uint256",
          "name": "",
          "type": "uint256"
        }
      ],
      "stateMutability": "view",
      "type": "function"
    },
    {
      "inputs": [
        {
          "internalType": "uint256",
          "name": "proposalId",
          "type": "uint256"
        }
      ],
      "name": "proposalEta",
      "outputs": [
        {
          "internalType": "uint256",
          "name": "",
          "type": "uint256"
        }
      ],
      "stateMutability": "view",
      "type": "function"
    },
    {
      "inputs": [
        {
          "internalType": "uint256",
          "name": "proposalId",
          "type": "uint256"
        }
      ],
      "name": "proposalProposer",
      "outputs": [
        {
          "internalType": "address",
          "name": "",
          "type": "address"
        }
      ],
      "stateMutability": "view",
      "type": "function"
    },
    {
      "inputs": [
        {
          "internalType": "uint256",
          "name": "proposalId",
          "type": "uint256"
        }
      ],
      "name": "proposalSnapshot",
      "outputs": [
        {
          "internalType": "uint256",
          "name": "",
          "type": "uint256"
        }
      ],
      "stateMutability": "view",
      "type": "function"
    },
    {
      "inputs": [],
      "name": "proposalThreshold",
      "outputs": [
        {
          "internalType": "uint256",
          "name": "",
          "type": "uint256"
        }
      ],
      "stateMutability": "view",
      "type": "function"
    },
    {
      "inputs": [
        {
          "internalType": "uint256",
          "name": "proposalId",
          "type": "uint256"
        }
      ],
      "name": "proposals",
      "outputs": [
        {
          "internalType": "uint256",
          "name": "id",
          "type": "uint256"
        },
        {
          "internalType": "address",
          "name": "proposer",
          "type": "address"
        },
        {
          "internalType": "uint256",
          "name": "eta",
          "type": "uint256"
        },
        {
          "internalType": "uint256",
          "name": "startBlock",
          "type": "uint256"
        },
        {
          "internalType": "uint256",
          "name": "endBlock",
          "type": "uint256"
        },
        {
          "internalType": "uint256",
          "name": "forVotes",
          "type": "uint256"
        },
        {
          "internalType": "uint256",
          "name": "againstVotes",
          "type": "uint256"
        },
        {
          "internalType": "uint256",
          "name": "abstainVotes",
          "type": "uint256"
        },
        {
          "internalType": "bool",
          "name": "canceled",
          "type": "bool"
        },
        {
          "internalType": "bool",
          "name": "executed",
          "type": "bool"
        }
      ],
      "stateMutability": "view",
      "type": "function"
    },
    {
      "inputs": [
        {
          "internalType": "uint256",
          "name": "",
          "type": "uint256"
        }
      ],
      "name": "proposalsCreated",
      "outputs": [
        {
          "internalType": "uint256",
          "name": "",
          "type": "uint256"
        }
      ],
      "stateMutability": "view",
      "type": "function"
    },
    {
      "inputs": [],
      "name": "proposalsCreatedLength",
      "outputs": [
        {
          "internalType": "uint256",
          "name": "",
          "type": "uint256"
        }
      ],
      "stateMutability": "view",
      "type": "function"
    },
    {
      "inputs": [
        {
          "internalType": "address[]",
          "name": "targets",
          "type": "address[]"
        },
        {
          "internalType": "uint256[]",
          "name": "values",
          "type": "uint256[]"
        },
        {
          "internalType": "bytes[]",
          "name": "calldatas",
          "type": "bytes[]"
        },
        {
          "internalType": "string",
          "name": "description",
          "type": "string"
        }
      ],
      "name": "propose",
      "outputs": [
        {
          "internalType": "uint256",
          "name": "",
          "type": "uint256"
        }
      ],
      "stateMutability": "nonpayable",
      "type": "function"
    },
    {
      "inputs": [
        {
          "internalType": "address[]",
          "name": "targets",
          "type": "address[]"
        },
        {
          "internalType": "uint256[]",
          "name": "values",
          "type": "uint256[]"
        },
        {
          "internalType": "string[]",
          "name": "signatures",
          "type": "string[]"
        },
        {
          "internalType": "bytes[]",
          "name": "calldatas",
          "type": "bytes[]"
        },
        {
          "internalType": "string",
          "name": "description",
          "type": "string"
        }
      ],
      "name": "propose",
      "outputs": [
        {
          "internalType": "uint256",
          "name": "",
          "type": "uint256"
        }
      ],
      "stateMutability": "nonpayable",
      "type": "function"
    },
    {
      "inputs": [
        {
          "internalType": "address[]",
          "name": "targets",
          "type": "address[]"
        },
        {
          "internalType": "uint256[]",
          "name": "values",
          "type": "uint256[]"
        },
        {
          "internalType": "bytes[]",
          "name": "calldatas",
          "type": "bytes[]"
        },
        {
          "internalType": "bytes32",
          "name": "descriptionHash",
          "type": "bytes32"
        }
      ],
      "name": "queue",
      "outputs": [
        {
          "internalType": "uint256",
          "name": "",
          "type": "uint256"
        }
      ],
      "stateMutability": "nonpayable",
      "type": "function"
    },
    {
      "inputs": [
        {
          "internalType": "uint256",
          "name": "proposalId",
          "type": "uint256"
        }
      ],
      "name": "queue",
      "outputs": [],
      "stateMutability": "nonpayable",
      "type": "function"
    },
    {
      "inputs": [
        {
          "internalType": "uint256",
          "name": "timepoint",
          "type": "uint256"
        }
      ],
      "name": "quorum",
      "outputs": [
        {
          "internalType": "uint256",
          "name": "",
          "type": "uint256"
        }
      ],
      "stateMutability": "view",
      "type": "function"
    },
    {
      "inputs": [],
      "name": "quorumDenominator",
      "outputs": [
        {
          "internalType": "uint256",
          "name": "",
          "type": "uint256"
        }
      ],
      "stateMutability": "view",
      "type": "function"
    },
    {
      "inputs": [
        {
          "internalType": "uint256",
          "name": "timepoint",
          "type": "uint256"
        }
      ],
      "name": "quorumNumerator",
      "outputs": [
        {
          "internalType": "uint256",
          "name": "",
          "type": "uint256"
        }
      ],
      "stateMutability": "view",
      "type": "function"
    },
    {
      "inputs": [],
      "name": "quorumNumerator",
      "outputs": [
        {
          "internalType": "uint256",
          "name": "",
          "type": "uint256"
        }
      ],
      "stateMutability": "view",
      "type": "function"
    },
    {
      "inputs": [],
      "name": "quorumVotes",
      "outputs": [
        {
          "internalType": "uint256",
          "name": "",
          "type": "uint256"
        }
      ],
      "stateMutability": "view",
      "type": "function"
    },
    {
      "inputs": [
        {
          "internalType": "address",
          "name": "target",
          "type": "address"
        },
        {
          "internalType": "uint256",
          "name": "value",
          "type": "uint256"
        },
        {
          "internalType": "bytes",
          "name": "data",
          "type": "bytes"
        }
      ],
      "name": "relay",
      "outputs": [],
      "stateMutability": "payable",
      "type": "function"
    },
    {
      "inputs": [
        {
          "internalType": "uint256",
          "name": "newProposalThreshold",
          "type": "uint256"
        }
      ],
      "name": "setProposalThreshold",
      "outputs": [],
      "stateMutability": "nonpayable",
      "type": "function"
    },
    {
      "inputs": [
        {
          "internalType": "uint256",
          "name": "newVotingDelay",
          "type": "uint256"
        }
      ],
      "name": "setVotingDelay",
      "outputs": [],
      "stateMutability": "nonpayable",
      "type": "function"
    },
    {
      "inputs": [
        {
          "internalType": "uint256",
          "name": "newVotingPeriod",
          "type": "uint256"
        }
      ],
      "name": "setVotingPeriod",
      "outputs": [],
      "stateMutability": "nonpayable",
      "type": "function"
    },
    {
      "inputs": [
        {
          "internalType": "uint256",
          "name": "proposalId",
          "type": "uint256"
        }
      ],
      "name": "state",
      "outputs": [
        {
          "internalType": "enum IGovernor.ProposalState",
          "name": "",
          "type": "uint8"
        }
      ],
      "stateMutability": "view",
      "type": "function"
    },
    {
      "inputs": [
        {
          "internalType": "bytes4",
          "name": "interfaceId",
          "type": "bytes4"
        }
      ],
      "name": "supportsInterface",
      "outputs": [
        {
          "internalType": "bool",
          "name": "",
          "type": "bool"
        }
      ],
      "stateMutability": "view",
      "type": "function"
    },
    {
      "inputs": [],
      "name": "timelock",
      "outputs": [
        {
          "internalType": "address",
          "name": "",
          "type": "address"
        }
      ],
      "stateMutability": "view",
      "type": "function"
    },
    {
      "inputs": [],
      "name": "token",
      "outputs": [
        {
          "internalType": "contract IERC5805",
          "name": "",
          "type": "address"
        }
      ],
      "stateMutability": "view",
      "type": "function"
    },
    {
      "inputs": [
        {
          "internalType": "uint256",
          "name": "newQuorumNumerator",
          "type": "uint256"
        }
      ],
      "name": "updateQuorumNumerator",
      "outputs": [],
      "stateMutability": "nonpayable",
      "type": "function"
    },
    {
      "inputs": [
        {
          "internalType": "contract TimelockController",
          "name": "newTimelock",
          "type": "address"
        }
      ],
      "name": "updateTimelock",
      "outputs": [],
      "stateMutability": "nonpayable",
      "type": "function"
    },
    {
      "inputs": [],
      "name": "version",
      "outputs": [
        {
          "internalType": "string",
          "name": "",
          "type": "string"
        }
      ],
      "stateMutability": "view",
      "type": "function"
    },
    {
      "inputs": [],
      "name": "votingDelay",
      "outputs": [
        {
          "internalType": "uint256",
          "name": "",
          "type": "uint256"
        }
      ],
      "stateMutability": "view",
      "type": "function"
    },
    {
      "inputs": [],
      "name": "votingPeriod",
      "outputs": [
        {
          "internalType": "uint256",
          "name": "",
          "type": "uint256"
        }
      ],
      "stateMutability": "view",
      "type": "function"
    },
    {
      "stateMutability": "payable",
      "type": "receive"
    }
  ],
  "bytecode": "0x61018060405234620000ad5762000020620000196200014d565b90620001c1565b604051615065908162000e02823960805181613b52015260a05181613c07015260c05181613b1c015260e05181613ba101526101005181613bc7015261012051816115b1015261014051816115dd01526101605181818161171701528181611e2301528181611fb2015281816123440152818161326d015281816133440152818161343a01526136e10152f35b600080fd5b634e487b7160e01b600052604160045260246000fd5b604081019081106001600160401b03821117620000e457604052565b620000b2565b60c081019081106001600160401b03821117620000e457604052565b601f909101601f19168101906001600160401b03821190821017620000e457604052565b604051906200013982620000c8565b565b6001600160a01b03811603620000ad57565b62005e87906040823803928382519485926200016a828562000106565b833981010312620000ad57602082519262000185846200013b565b01519162000193836200013b565b9190565b60405190620001a682620000c8565b60088252565b60405190620001bb82620000c8565b60018252565b90620001399162000292620001d562000197565b602081016723b7bb32b93737b960c11b8152620001f1620001ac565b906020820190603160f81b8252620002098462000a26565b61012052620002188362000b34565b6101405283519020918260e05251902080610100524660a0526040519060208201927f8b73c3c69bb8fe3d512ecc4cf759cc79239f7b179b0ffacaa9a75d522b39400f8452604083015260608201524660808201523060a082015260a081526200028281620000ea565b5190206080523060c05262000417565b6200029c6200050a565b620002a662000546565b620002b062000582565b6001600160a01b031661016052620002c762000677565b620005c4565b90600182811c92168015620002ff575b6020831014620002e957565b634e487b7160e01b600052602260045260246000fd5b91607f1691620002dd565b601f811162000317575050565b6000906002825260208220906020601f850160051c8301941062000358575b601f0160051c01915b8281106200034c57505050565b8181556001016200033f565b909250829062000336565b601f811162000370575050565b60009081805260208220906020601f850160051c83019410620003b0575b601f0160051c01915b828110620003a457505050565b81815560010162000397565b90925082906200038e565b90601f8211620003c9575050565b60019160009083825260208220906020601f850160051c830194106200040c575b601f0160051c01915b828110620004015750505050565b8181558301620003f3565b9092508290620003ea565b80519091906001600160401b038111620000e45762000443816200043d600254620002cd565b6200030a565b602080601f831160011462000482575081929360009262000476575b50508160011b916000199060031b1c191617600255565b0151905038806200045f565b6002600052601f198316949091907f405787fa12a823e0f2b7631cc41b3ba8828b3321ca811111fa75cd3aa3bb5ace926000905b878210620004f1575050836001959610620004d7575b505050811b01600255565b015160001960f88460031b161c19169055388080620004cc565b80600185968294968601518155019501930190620004b6565b6007546040519081527fc565b045403dc03c2eea82b81a0465edad9e2e7fc4d97e11421c209da93d7a9360406119af92836020820152a1600755565b6008546040519081527f7e3f7f0708a84de9203036abaa450dccc85ad5ff52f78c170f3edb55cf5e882860406119af92836020820152a1600855565b6009546040519081527fccb45da8d5717e6c4544694297c4ba5cf151d455c9bb0ed4fc7a38411bc054616040670de0b6b3a764000092836020820152a1600955565b600c547f08f74ea46ef7894f65eabfb5e6e695de773a000b47c529ab559178069b226401604060018060a01b038094169381519084168152846020820152a16001600160a01b03191617600c55565b600b5468010000000000000000811015620000e4576001810180600b558110156200066157600b6000526020600020019063ffffffff81511690602063ffffffff1991015160201b16179055565b634e487b7160e01b600052603260045260246000fd5b600b54801590600090821562000748575050620006fb60008051602062005e6783398151915291600a54905b81151590816200073f575b5062000700575b620006e2620006dc620006d6620006cb620007b2565b65ffffffffffff1690565b62000d9b565b620008f0565b5050604080519182526004602083015290918291820190565b0390a1565b620007396200070f8262000cc9565b620007336200071d6200012a565b600081526001600160e01b039092166020830152565b62000613565b620006b5565b905038620006ae565b6000199181838101116200079e57600b9052017f0175b7a638427703f0dbe7bb9bbf987a2551717b34e79f33b5b1008d1fa01db9015460008051602062005e6783398151915291620006fb9160201c90620006a3565b634e487b7160e01b81526011600452602490fd5b610160516040516324776b7d60e21b815290602090829060049082906001600160a01b03165afa8091600091620007fa575b5090620007f75750620007f74362000d33565b90565b6020813d82116200083f575b81620008156020938362000106565b810103126200083b57519065ffffffffffff8216820362000838575038620007e4565b80fd5b5080fd5b3d915062000806565b6000198101919082116200085857565b634e487b7160e01b600052601160045260246000fd5b604080519192919081016001600160401b03811182821017620000e457604052602081935463ffffffff81168352811c910152565b15620008ab57565b60405162461bcd60e51b815260206004820152601b60248201527f436865636b706f696e743a2064656372656173696e67206b65797300000000006044820152606490fd5b600b548015620009fd57620009c59181620009456200093f6200091560209562000848565b600b6000527f0175b7a638427703f0dbe7bb9bbf987a2551717b34e79f33b5b1008d1fa01db90190565b6200086e565b9162000955835163ffffffff1690565b6200096e63ffffffff91828416928391161115620008a3565b6200098a62000981855163ffffffff1690565b63ffffffff1690565b03620009cb5750620009a462000915620009b79262000848565b64040000000063ffffffff825416179055565b01516001600160e01b031690565b90600490565b620009f79150620009eb620009df6200012a565b63ffffffff9092168252565b60048185015262000613565b620009b7565b5062000a1e9062000a11620009df6200012a565b6004602082015262000613565b600090600490565b90815160209081811060001462000a4557505090620007f79062000c4c565b6001600160401b038111620000e45760009162000a6e8262000a688554620002cd565b62000363565b80601f831160011462000aad575082939482939262000aa1575b50508160011b916000199060031b1c191617905560ff90565b01519050388062000a88565b60008052601f198316957f290decd9548b62a8d60345a988386fc84ba6bc95484008f6362f93160ef3e563929185905b88821062000b1b5750508360019596971062000b01575b505050811b01905560ff90565b015160001960f88460031b161c1916905538808062000af4565b8060018596829496860151815501950193019062000add565b90815160209081811060001462000b5357505090620007f79062000c4c565b6001600160401b038111620000e45760019162000b7c8262000b768554620002cd565b620003bb565b80601f831160011462000bbb57508192939460009262000baf575b5050600019600383901b1c191690821b17905560ff90565b01519050388062000b97565b6001600052601f198316959091907fb10e2d527612073b26eecdfd717e6a320cf44b4afac2b0732d9fcbe2b7fa0cf6926000905b88821062000c10575050838596971062000b0157505050811b01905560ff90565b80878596829496860151815501950193019062000bef565b60208151910151906020811062000c3d575090565b6000199060200360031b1b1690565b601f81511162000c675762000c618162000c28565b90511790565b6040519063305a27a960e01b82528160208060048301528251908160248401526000935b82851062000caf575050604492506000838284010152601f80199101168101030190fd5b848101820151868601604401529381019385935062000c8b565b6001600160e01b039081811162000cde571690565b60405162461bcd60e51b815260206004820152602760248201527f53616665436173743a2076616c756520646f65736e27742066697420696e20326044820152663234206269747360c81b6064820152608490fd5b65ffffffffffff9081811162000d47571690565b60405162461bcd60e51b815260206004820152602660248201527f53616665436173743a2076616c756520646f65736e27742066697420696e203460448201526538206269747360d01b6064820152608490fd5b63ffffffff9081811162000dad571690565b60405162461bcd60e51b815260206004820152602660248201527f53616665436173743a2076616c756520646f65736e27742066697420696e203360448201526532206269747360d01b6064820152608490fdfe60806040526004361015610023575b361561001957600080fd5b610021611ffb565b005b60003560e01c8063013cf08b146103b357806301ffc9a7146103ae57806302a251a3146103a957806303420181146103a457806306f3f9e61461039f57806306fdde031461039a578063143489d014610395578063150b7a0214610390578063160cbed71461038b57806324bc1a64146103865780632656227d146103815780632d63f6931461037c5780632fe3e261146103775780633224cef114610372578063328dd9821461036d5780633932abb1146103685780633bccf4fd146103635780633e4f49e61461035e57806340e58ee5146103595780634385963214610354578063452115d61461034f5780634bf5d7e91461034a5780635289e6ad1461034557806354fd4d5014610340578063567813881461033b5780635f398a141461033657806360c4247f1461033157806370b0f6601461032c5780637b3c71d3146103275780637d5e81e2146103225780637f7e4e1a1461031d57806384b0196e1461031857806391ddadf41461031357806397c3d3341461030e5780639a802a6d14610309578063a7713a7014610304578063a890c910146102ff578063ab58fb8e146102fa578063b58131b0146102f5578063bc197c81146102f0578063c01f9e37146102eb578063c28bc2fa146102e6578063c59057e4146102e1578063d33219b4146102dc578063da95691a146102d7578063dd4e2ba5146102d2578063ddf0b009146102cd578063deaaa7cc146102c8578063e23a9a52146102c3578063ea0217cf146102be578063eb9019d4146102b9578063ece40cc1146102b4578063f23a6e61146102af578063f82e9529146102aa578063f8ce560a146102a5578063fc0c546a146102a05763fe0d94c10361000e57611fe1565b611f9c565b611f7e565b611f52565b611ef9565b611e67565b611dc7565b611cda565b611c0e565b611bd3565b611bb4565b611b56565b611abc565b611a93565b611a77565b611956565b61191e565b611892565b611874565b611856565b6117aa565b61178f565b6116a9565b61168d565b611662565b611598565b61155b565b611403565b6113ae565b61131c565b6112fe565b61128f565b611247565b611205565b6111b4565b61116e565b61115b565b611102565b6110da565b6110ab565b610fd9565b610fbb565b610f1d565b610e32565b610df7565b610dc2565b610dab565b610d78565b610d54565b610b3c565b610af4565b610a13565b610825565b61079d565b610589565b6104bd565b346104b85760203660031901126104b8576004356103d081612f96565b908060005260036020526104b460406000206104036001600160401b03600181845416930154166001600160401b031690565b92610418816000526006602052604060002090565b80549094906001600160a01b0316946005810154600760068301549201549261044085614140565b9561044a8761109c565b6104538761109c565b604051998a99600260078a149914978b9895926101209895929b9a9794919b6101408b019c8b5260018060a01b031660208b015260408a01526060890152608088015260a087015260c086015260e085015215156101008401521515910152565b0390f35b600080fd5b346104b85760203660031901126104b85760043563ffffffff60e01b81168091036104b8576104b490636e665ced60e01b811490811561050b575b5060405190151581529081906020820190565b63bf26d89760e01b81149150811561056d575b811561055c575b811561054b575b811561053a575b50386104f8565b6301ffc9a760e01b14905038610533565b630271189760e51b8114915061052c565b63288ace0360e11b81149150610525565b6379dd796f60e01b8114915061051e565b60009103126104b857565b346104b85760003660031901126104b8576020600854604051908152f35b6024359060ff821682036104b857565b6044359060ff821682036104b857565b9181601f840112156104b8578235916001600160401b0383116104b857602083818601950101116104b857565b634e487b7160e01b600052604160045260246000fd5b606081019081106001600160401b0382111761062557604052565b6105f4565b6001600160401b03811161062557604052565b604081019081106001600160401b0382111761062557604052565b608081019081106001600160401b0382111761062557604052565b602081019081106001600160401b0382111761062557604052565b60c081019081106001600160401b0382111761062557604052565b90601f801991011681019081106001600160401b0382111761062557604052565b604051906106d78261063d565b565b6040519060e082018281106001600160401b0382111761062557604052565b6001600160401b03811161062557601f01601f191660200190565b91909161071f816106f8565b61072c60405191826106a9565b809382825282116104b857818160009384602080950137010152565b929192610754826106f8565b9161076260405193846106a9565b8294818452818301116104b8578281602093846000960137010152565b9080601f830112156104b85781602061079a93359101610748565b90565b346104b85760e03660031901126104b8576107b66105a7565b6001600160401b036044358181116104b8576107d69036906004016105c7565b916064359081116104b8576107ef90369060040161077f565b9260843560ff811681036104b8576104b4946108159460c4359460a43594600435612390565b6040519081529081906020820190565b346104b85760203660031901126104b857600c54600435906001600160a01b03166108513382146125dc565b3003610994575b6064811161091d577f0553476bf02ef2726e8ce5ced78d63e26e602e4a2257b1f559418e24b46339979061088a61346e565b80151580610913575b6108dc575b6108c86108b96108b46108a9613258565b65ffffffffffff1690565b614066565b6108c284613f2e565b90613841565b5050604080519182526020820192909252a1005b61090e6108e882613f2e565b6109096108f36106ca565b600081526001600160e01b039092166020830152565b613760565b610898565b50600b5415610893565b60405162461bcd60e51b815260206004820152604360248201527f476f7665726e6f72566f74657351756f72756d4672616374696f6e3a2071756f60448201527f72756d4e756d657261746f72206f7665722071756f72756d44656e6f6d696e616064820152623a37b960e91b608482015260a490fd5b61099e3636610713565b602081519101205b806109af6140cb565b036109a65750610858565b60005b8381106109cd5750506000910152565b81810151838201526020016109bd565b906020916109f6815180928185528580860191016109ba565b601f01601f1916010190565b90602061079a9281815201906109dd565b346104b857600080600319360112610af1576040519080600254610a368161148b565b80855291600191808316908115610ac75750600114610a6c575b6104b485610a60818703826106a9565b60405191829182610a02565b9250600283527f405787fa12a823e0f2b7631cc41b3ba8828b3321ca811111fa75cd3aa3bb5ace5b828410610aaf575050508101602001610a60826104b4610a50565b80546020858701810191909152909301928101610a94565b8695506104b496935060209250610a6094915060ff191682840152151560051b8201019293610a50565b80fd5b346104b85760203660031901126104b8576004356000526003602052602060018060a01b0360406000205460401c16604051908152f35b6001600160a01b038116036104b857565b346104b85760803660031901126104b857610b58600435610b2b565b610b63602435610b2b565b6064356001600160401b0381116104b857610b8290369060040161077f565b50604051630a85bd0160e11b8152602090f35b6001600160401b0381116106255760051b60200190565b81601f820112156104b857803591610bc383610b95565b92610bd160405194856106a9565b808452602092838086019260051b8201019283116104b8578301905b828210610bfb575050505090565b8380918335610c0981610b2b565b815201910190610bed565b81601f820112156104b857803591610c2b83610b95565b92610c3960405194856106a9565b808452602092838086019260051b8201019283116104b8578301905b828210610c63575050505090565b81358152908301908301610c55565b9080601f830112156104b857813590610c8a82610b95565b92610c9860405194856106a9565b828452602092838086019160051b830101928084116104b857848301915b848310610cc65750505050505090565b82356001600160401b0381116104b8578691610ce78484809489010161077f565b815201920191610cb6565b60806003198201126104b8576001600160401b03916004358381116104b85782610d1e91600401610bac565b926024358181116104b85783610d3691600401610c14565b926044359182116104b857610d4d91600401610c72565b9060643590565b346104b8576020610d70610d6736610cf2565b929190916130a2565b604051908152f35b346104b85760003660031901126104b8576020610d7065ffffffffffff610da5610da0613258565b612d9b565b166136c4565b6020610d70610db936610cf2565b9291909161210e565b346104b85760203660031901126104b857600435600052600360205260206001600160401b0360406000205416604051908152f35b346104b85760003660031901126104b85760206040517fb3b3f3b703cd84ce352197dcff232b1b5d3cfb2025ce47cf04742d0651f1af888152f35b346104b85760003660031901126104b8576020600e54604051908152f35b90815180825260208080930193019160005b828110610e70575050505090565b83516001600160a01b031685529381019392810192600101610e62565b90815180825260208080930193019160005b828110610ead575050505090565b835185529381019392810192600101610e9f565b908082519081815260208091019281808460051b8301019501936000915b848310610eef5750505050505090565b9091929394958480610f0d600193601f198682030187528a516109dd565b9801930193019194939290610edf565b346104b85760203660031901126104b8576004356000526006602052610f9160406000206104b4610f5060018301612843565b91610fad610f606002830161289b565b91610f9f610f7c6004610f75600385016127de565b93016127de565b93604051978897608089526080890190610e50565b908782036020890152610e8d565b908582036040870152610ec1565b908382036060850152610ec1565b346104b85760003660031901126104b8576020600754604051908152f35b346104b85760a03660031901126104b8576104b4610815600435610ffb6105a7565b6110706110686110096105b7565b60405160208101917f150214d74d59b7d1e90c73fc22ef3d991dd0a76b046543d4d80ab92d2a50328f835286604083015260ff861660608301526060825261105082610658565b6110636084359360643593519020613af3565b613a71565b919091613951565b6040519261107d84610673565b6000845261242b565b634e487b7160e01b600052602160045260246000fd5b600811156110a657565b611086565b346104b85760203660031901126104b8576110c7600435614140565b60405160088210156110a6576020918152f35b346104b85760203660031901126104b8576100216110f96004356128ea565b92919091614a7b565b346104b85760403660031901126104b857602060ff61114f60243561112681610b2b565b6004356000526006845260086040600020019060018060a01b0316600052602052604060002090565b54166040519015158152f35b346104b8576020610d706110f936610cf2565b346104b85760003660031901126104b8576104b461118a61332e565b6040519182916020835260208301906109dd565b634e487b7160e01b600052603260045260246000fd5b346104b85760203660031901126104b857600435600e548110156104b857602090600e6000527fbb7b4a454dc3493923482f07822329ed19e8244eff582cc204f8554c3620c3fd0154604051908152f35b346104b85760003660031901126104b8576104b46040516112258161063d565b60018152603160f81b60208201526040519182916020835260208301906109dd565b346104b85760403660031901126104b8576020610d706112656105a7565b60405161127181610673565b600081526040519161128283610673565b60008352336004356124a7565b346104b85760803660031901126104b8576112a86105a7565b6001600160401b03906044358281116104b8576112c99036906004016105c7565b90916064359384116104b8576112f4610d70936112ec602096369060040161077f565b933691610748565b90336004356124a7565b346104b85760203660031901126104b8576020610d70600435613509565b346104b85760203660031901126104b857600c54600435906001600160a01b03166113483382146125dc565b3003611388575b60075460408051918252602082018390527fc565b045403dc03c2eea82b81a0465edad9e2e7fc4d97e11421c209da93d7a9391a1600755005b6113923636610713565b602081519101205b806113a36140cb565b0361139a575061134f565b346104b85760603660031901126104b8576113c76105a7565b6044356001600160401b0381116104b8576020916113f66113ef610d709336906004016105c7565b3691610748565b6040519161128283610673565b346104b85760803660031901126104b8576001600160401b036004358181116104b857611434903690600401610bac565b906024358181116104b85761144d903690600401610c14565b916044358281116104b857611466903690600401610c72565b6064359283116104b8576104b49361148561081594369060040161077f565b92614411565b90600182811c921680156114bb575b60208310146114a557565b634e487b7160e01b600052602260045260246000fd5b91607f169161149a565b90600092918054916114d68361148b565b91828252600193848116908160001461153857506001146114f8575b50505050565b90919394506000526020928360002092846000945b8386106115245750505050010190388080806114f2565b80548587018301529401938590820161150d565b9294505050602093945060ff191683830152151560051b010190388080806114f2565b346104b85760203660031901126104b85760043560005260106020526104b461159161118a6040600020604051928380926114c5565b03826106a9565b346104b85760003660031901126104b8576116336115d57f0000000000000000000000000000000000000000000000000000000000000000613c2d565b6104b46116017f0000000000000000000000000000000000000000000000000000000000000000613d24565b6116416040519161161183610673565b60008352604051958695600f60f81b875260e0602088015260e08701906109dd565b9085820360408701526109dd565b90466060850152306080850152600060a085015283820360c0850152610e8d565b346104b85760003660031901126104b857602061167d613258565b65ffffffffffff60405191168152f35b346104b85760003660031901126104b857602060405160648152f35b346104b85760603660031901126104b8576004356116c681610b2b565b6044356001600160401b0381116104b8576044916116ea602092369060040161077f565b50604051630748d63560e31b81526001600160a01b039182166004820152602480359082015292839182907f0000000000000000000000000000000000000000000000000000000000000000165afa801561178a576104b49160009161175c575b506040519081529081906020820190565b61177d915060203d8111611783575b61177581836106a9565b810190612f7b565b3861174b565b503d61176b565b612f8a565b346104b85760003660031901126104b8576020610d7061346e565b346104b85760203660031901126104b8576004356117c781610b2b565b600c546001600160a01b03919082166117e13382146125dc565b3003611830575b7f08f74ea46ef7894f65eabfb5e6e695de773a000b47c529ab559178069b226401604083600c5493169381519084168152846020820152a16001600160a01b03191617600c55005b61183a3636610713565b602081519101205b8061184b6140cb565b0361184257506117e8565b346104b85760203660031901126104b8576020610d70600435612f96565b346104b85760003660031901126104b8576020600954604051908152f35b346104b85760a03660031901126104b8576118ae600435610b2b565b6118b9602435610b2b565b6001600160401b036044358181116104b8576118d9903690600401610c14565b506064358181116104b8576118f2903690600401610c14565b506084359081116104b85761190b90369060040161077f565b5060405163bc197c8160e01b8152602090f35b346104b85760203660031901126104b857600435600052600360205260206001600160401b0360016040600020015416604051908152f35b60603660031901126104b85760043561196e81610b2b565b6044356001600160401b0381116104b85761198d9036906004016105c7565b600c54909291906001600160a01b03166119a83382146125dc565b3003611a51575b611a4691836040519485938437820190600094859383858095520391602435905af13d15611a4a573d6119e1816106f8565b906119ef60405192836106a9565b81523d84602083013e5b60405191611a068361060a565b602883527f476f7665726e6f723a2072656c617920726576657274656420776974686f7574602084015267206d65737361676560c01b60408401526137b5565b5080f35b60606119f9565b611a5b3636610713565b602081519101205b80611a6c6140cb565b03611a6357506119af565b346104b8576020610d70611a8a36610cf2565b92919091612054565b346104b85760003660031901126104b857600c546040516001600160a01b039091168152602090f35b346104b85760a03660031901126104b8576001600160401b03600480358281116104b857611aed9036908301610bac565b6024358381116104b857611b049036908401610c14565b6044358481116104b857611b1b9036908501610c72565b6064358581116104b857611b329036908601610c72565b916084359586116104b857611b50610815956104b49736910161077f565b93612628565b346104b85760003660031901126104b8576104b4604051611b768161063d565b601a81527f737570706f72743d627261766f2671756f72756d3d627261766f00000000000060208201526040519182916020835260208301906109dd565b346104b85760203660031901126104b857610021610d676004356128ea565b346104b85760003660031901126104b85760206040517f150214d74d59b7d1e90c73fc22ef3d991dd0a76b046543d4d80ab92d2a50328f8152f35b346104b8576040806003193601126104b8576104b490611c75602435611c3381610b2b565b6000838051611c418161060a565b82815282602082015201526004356000526006602052600883600020019060018060a01b0316600052602052604060002090565b906001600160601b03815192611c8a8461060a565b5460ff81161515845260ff8160081c16602085015260101c1681830152519182918291909160406001600160601b0381606084019580511515855260ff6020820151166020860152015116910152565b346104b85760203660031901126104b857600c54600435906001600160a01b0316611d063382146125dc565b3003611da1575b8015611d4c5760085460408051918252602082018390527f7e3f7f0708a84de9203036abaa450dccc85ad5ff52f78c170f3edb55cf5e882891a1600855005b60405162461bcd60e51b815260206004820152602760248201527f476f7665726e6f7253657474696e67733a20766f74696e6720706572696f6420604482015266746f6f206c6f7760c81b6064820152608490fd5b611dab3636610713565b602081519101205b80611dbc6140cb565b03611db35750611d0d565b346104b85760403660031901126104b85760446020600435611de881610b2b565b6000604051611df681610673565b52604051630748d63560e31b81526001600160a01b039182166004820152602480359082015292839182907f0000000000000000000000000000000000000000000000000000000000000000165afa801561178a576104b49160009161175c57506040519081529081906020820190565b346104b85760203660031901126104b857600c54600435906001600160a01b0316611e933382146125dc565b3003611ed3575b60095460408051918252602082018390527fccb45da8d5717e6c4544694297c4ba5cf151d455c9bb0ed4fc7a38411bc0546191a1600955005b611edd3636610713565b602081519101205b80611eee6140cb565b03611ee55750611e9a565b346104b85760a03660031901126104b857611f15600435610b2b565b611f20602435610b2b565b6084356001600160401b0381116104b857611f3f90369060040161077f565b5060405163f23a6e6160e01b8152602090f35b346104b85760203660031901126104b857600435600052600f6020526020604060002054604051908152f35b346104b85760203660031901126104b8576020610d706004356136c4565b346104b85760003660031901126104b8576040517f00000000000000000000000000000000000000000000000000000000000000006001600160a01b03168152602090f35b60203660031901126104b857610021610db96004356128ea565b600c546001600160a01b0316300361200f57565b60405162461bcd60e51b815260206004820152601f60248201527f476f7665726e6f723a206d7573742073656e6420746f206578656375746f72006044820152606490fd5b92906120a0926120b29260405194859261209061207d602086019960808b5260a0870190610e50565b601f199687878303016040880152610e8d565b9085858303016060860152610ec1565b906080830152039081018352826106a9565b51902090565b156120bf57565b60405162461bcd60e51b815260206004820152602160248201527f476f7665726e6f723a2070726f706f73616c206e6f74207375636365737366756044820152601b60fa1b6064820152608490fd5b9392909161211e82828588612054565b9261212884614140565b9560088710156110a65761214960049788811490811561227b575b506120b8565b6121706002612162876000526003602052604060002090565b01805460ff19166001179055565b6040968751908682527f712ae1383f79ac853f8d882153778e0260ef8f03b504e2866e0593e04d2b291f60208093a1600c546001600160a01b0390811630036121cb575b5050506121c394959650614b37565b61079a6122d2565b91959893979094966000998a5b855181101561226257808a8a828f8c8c8c8c6121f861220b9a30936122b9565b511614612210575b5050505050506122a5565b6121d8565b61221f600194612257976122b9565b51858151910120915460801d926005600f9685880b835252205501900b6001600160801b036004549181199060801b16911617600455565b8a8a828f8c8c612200565b5096509793509750506121c394925086959438806121b4565b600591506122888161109c565b1438612143565b634e487b7160e01b600052601160045260246000fd5b60001981146122b45760010190565b61228f565b80518210156122cd5760209160051b010190565b61119e565b600c546001600160a01b031630036122e657565b60045480600f0b9060801d600f0b136122fb57565b6000600455565b90602090600060405161231481610673565b52604051630748d63560e31b81526001600160a01b039384166004820152602481019190915291829060449082907f0000000000000000000000000000000000000000000000000000000000000000165afa90811561178a57600091612378575090565b61079a915060203d81116117835761177581836106a9565b949261241d61079a98612425949396986113ef966110638a8a8d6123b5368a8c610748565b6020815191012090602081519101209060ff6040519360208501957fb3b3f3b703cd84ce352197dcff232b1b5d3cfb2025ce47cf04742d0651f1af8887526040860152166060840152608083015260a082015260a081526124158161068e565b519020613af3565b949094613951565b926124a7565b9161079a93916040519361243e85610673565b600085526124a7565b93909260ff6124739361079a97958752166020860152604085015260a0606085015260a08401906109dd565b9160808184039101526109dd565b909260ff60809361079a96958452166020830152604082015281606082015201906109dd565b929190836000526003602052604060002060016124c386614140565b6124cc8161109c565b0361258b576124f46124e86124fa92546001600160401b031690565b6001600160401b031690565b82613409565b9461250786848488612e34565b805161254f57506125497fb8e138887d0aa13bab447e82de9d5c1777041ecd21ca36ba824ff1e6c07ddda4938660405194859460018060a01b03169785612481565b0390a290565b612549907fe2babfbac5889a709b63bb7f598b324e08bc5a4fb9ec647fb3cbc9ec07eb8712948760405195869560018060a01b03169886612447565b60405162461bcd60e51b815260206004820152602360248201527f476f7665726e6f723a20766f7465206e6f742063757272656e746c792061637460448201526269766560e81b6064820152608490fd5b156125e357565b60405162461bcd60e51b815260206004820152601860248201527f476f7665726e6f723a206f6e6c79476f7665726e616e636500000000000000006044820152606490fd5b91939293805185510361265657848161264b8661079a9861265095878933612c9c565b612734565b91614411565b60405162461bcd60e51b815260206004820152602860248201527f476f7665726e6f72427261766f3a20696e76616c6964207369676e61747572656044820152670e640d8cadccee8d60c31b6064820152608490fd5b906126b682610b95565b6126c360405191826106a9565b82815280926126d4601f1991610b95565b019060005b8281106126e557505050565b8060606020809385010152016126d9565b90612709602092828151948592016109ba565b0190565b6004929163ffffffff60e01b16815261272f82518093602086850191016109ba565b010190565b919061274081516126ac565b926000805b85518110156114f2578061275c61278992856122b9565b515161278e5761276c81866122b9565b515b61277882896122b9565b5261278381886122b9565b506122a5565b612745565b61279881856122b9565b5180516020918201206127d9906001600160e01b031916916127cb6127bd858a6122b9565b51604051948593840161270d565b03601f1981018352826106a9565b61276e565b9081546127ea81610b95565b926040936127fa855191826106a9565b828152809460208092019260005281600020906000935b85851061282057505050505050565b6001848192845161283581611591818a6114c5565b815201930194019391612811565b9060405191828154918282526020928383019160005283600020936000905b828210612878575050506106d7925003836106a9565b85546001600160a01b031684526001958601958895509381019390910190612862565b9060405191828154918282526020928383019160005283600020936000905b8282106128d0575050506106d7925003836106a9565b8554845260019586019588955093810193909101906128ba565b6000526006602052604060002090612919612907600384016127de565b612913600485016127de565b90612734565b90600983015490612938600261293160018701612843565b950161289b565b929190565b818110612948575050565b6000815560010161293d565b9181811061296157505050565b6106d7926000526020600020918201910161293d565b8151916001600160401b03831161062557600160401b8311610625576129a283835481855584612954565b602080910191600052806000209060005b8481106129c1575050505050565b835183820155928101926001016129b3565b9190601f81116129e257505050565b6106d7926000526020600020906020601f840160051c83019310612a0e575b601f0160051c019061293d565b9091508190612a01565b91909182516001600160401b03811161062557612a3f81612a39845461148b565b846129d3565b602080601f8311600114612a7b575081929394600092612a70575b50508160011b916000199060031b1c1916179055565b015190503880612a5a565b90601f19831695612a9185600052602060002090565b926000905b888210612ace57505083600195969710612ab5575b505050811b019055565b015160001960f88460031b161c19169055388080612aab565b80600185968294968601518155019501930190612a96565b815191600160401b8311610625578154838355808410612b44575b50612b16602080920192600052602060002090565b6000925b848410612b28575050505050565b60018382612b3883945186612a18565b01920193019290612b1a565b6000838152846020822092830192015b828110612b62575050612b01565b80612b6f6001925461148b565b80612b7c575b5001612b54565b601f908181118414612b945750508281555b38612b75565b83612bb692612ba885600052602060002090565b920160051c8201910161293d565b60008181526020812081835555612b8e565b815191600160401b8311610625578154838355808410612c26575b50612bf8602080920192600052602060002090565b6000925b848410612c0a575050505050565b60018382612c1a83945186612a18565b01920193019290612bfc565b6000838152846020822092830192015b828110612c44575050612be3565b80612c516001925461148b565b80612c5e575b5001612c36565b601f908181118414612c765750508281555b38612c57565b83612c8a92612ba885600052602060002090565b60008181526020812081835555612c70565b93929091855160208097012095612cbe87612cb78786612734565b8487612054565b600052600681526040600020936009850196875415612ce3575b505050505050505050565b85546001600160a01b0319166001600160a01b03909116178555600191828601908251926001600160401b03841161062557600160401b8411610625578190612d3185855481875586612954565b0191600052806000209060005b848110612d815750505050505091612d6c600492612d63612d72969560028501612977565b60038301612ae6565b01612bc8565b55388080808080808080612cd8565b83516001600160a01b031683820155928101928501612d3e565b65ffffffffffff90811660001901919082116122b457565b15612dba57565b60405162461bcd60e51b815260206004820152602d60248201527f476f7665726e6f72436f6d7061746962696c697479427261766f3a20766f746560448201526c08185b1c9958591e4818d85cdd609a1b6064820152608490fd5b9055565b90600182018092116122b457565b919082018092116122b457565b91612ed8612e70612e5260ff94956000526006602052604060002090565b6001600160a01b039095166000908152600886016020526040902090565b612e8a612e85612e81835460ff1690565b1590565b612db3565b805461ff00600885901b1661ffff19909116176001178155612eab86613f97565b6dffffffffffffffffffffffff000082549160101b16906dffffffffffffffffffffffff00001916179055565b1680612eee57506006612e159101918254612e27565b60018103612f0657506005612e159101918254612e27565b600203612f1c576007612e159101918254612e27565b60405162461bcd60e51b815260206004820152602d60248201527f476f7665726e6f72436f6d7061746962696c697479427261766f3a20696e766160448201526c6c696420766f7465207479706560981b6064820152608490fd5b0390fd5b908160209103126104b8575190565b6040513d6000823e3d90fd5b6020612fb760018060a01b03600c541692600052600d602052604060002090565b5460246040518094819363d45c443560e01b835260048301525afa90811561178a57600091612ff0575b506001810361079a5750600090565b613008915060203d81116117835761177581836106a9565b38612fe1565b94939261303a60809361302c6130489460a08a5260a08a0190610e50565b9088820360208a0152610e8d565b908682036040880152610ec1565b93600060608201520152565b919261308360a094613075613091949998979960c0875260c0870190610e50565b908582036020870152610e8d565b908382036040850152610ec1565b946000606083015260808201520152565b929091926130b282858584612054565b936130d060046130c187614140565b6130ca8161109c565b146120b8565b600c546130ed906001600160a01b03165b6001600160a01b031690565b60405163793d064960e11b815294906020908187600481845afa96871561178a57600097613239575b5081604051809263b1c5f42760e01b825281806131398b8a8a8d6004860161300e565b03915afa91821561178a5760009261321c575b505061316287600052600d602052604060002090565b55600c54613178906001600160a01b03166130e1565b90813b156104b857600080946131a588604051988997889687956308f2a0bb60e41b875260048701613054565b03925af1801561178a577f9a2e42fd6722813d69113e7d0079d3d940171428df7373df9c7f7617cfda2892926131fd926131e592613203575b5042612e27565b60408051858152602081019290925290918291820190565b0390a190565b806132106132169261062a565b8061057e565b386131de565b6132329250803d106117835761177581836106a9565b388061314c565b613251919750823d84116117835761177581836106a9565b9538613116565b6040516324776b7d60e21b81526020816004817f00000000000000000000000000000000000000000000000000000000000000006001600160a01b03165afa80916000916132b1575b509061079a575061079a43613fff565b6020813d82116132ed575b816132c9602093836106a9565b810103126132e957519065ffffffffffff82168203610af15750386132a1565b5080fd5b3d91506132bc565b604051906133028261063d565b601d82527f6d6f64653d626c6f636b6e756d6265722666726f6d3d64656661756c740000006020830152565b604051634bf5d7e960e01b8152600080826004817f00000000000000000000000000000000000000000000000000000000000000006001600160a01b03165afa90918282613386575b505061079a575061079a6132f5565b909192503d8082843e61339981846106a9565b8201916020818403126132e9578051906001600160401b038211613405570182601f820112156132e9578051916133cf836106f8565b936133dd60405195866106a9565b83855260208484010111610af15750906133fd91602080850191016109ba565b903880613377565b8280fd5b604051630748d63560e31b81526001600160a01b0391821660048201526024810192909252602090829060449082907f0000000000000000000000000000000000000000000000000000000000000000165afa90811561178a57600091612378575090565b600b5460009080613481575050600a5490565b806000198101116122b457600b7f0175b7a638427703f0dbe7bb9bbf987a2551717b34e79f33b5b1008d1fa01db89252015460201c90565b6000198101919082116122b457565b6027198101919082116122b457565b90604051604081018181106001600160401b0382111761062557604052602081935463ffffffff81168352811c910152565b600b908154801561369b5760001981018181116122b4578111156122cd576000928084526135587f0175b7a638427703f0dbe7bb9bbf987a2551717b34e79f33b5b1008d1fa01db883016134d7565b9263ffffffff9381858251161115613685575061357490614066565b92848360058111613635575b5092939192918116905b8483106135e1575050505080156000146135ac57505b6001600160e01b031690565b6135dc91506135bd6135d5916134b9565b600b6000526000805160206150108339815191520190565b5460201c90565b6135a0565b909192938084169080851860011c82018092116122b457858752838383600080516020615010833981519152015416116000146136235750935b92919061358a565b94935061362f90612e19565b9261361b565b909361364082613ddc565b82039182116122b4578387526000805160206150108339815191528201548316868416101561367457508190935b90613580565b93506136808291612e19565b61366e565b602001516001600160e01b031695945050505050565b505050600a5490565b81156136ae570490565b634e487b7160e01b600052601260045260246000fd5b604051632394e7a360e21b815260048101829052906020826024817f00000000000000000000000000000000000000000000000000000000000000006001600160a01b03165afa91821561178a5760009261373c575b5061372490613509565b908181029181830414901517156122b4576064900490565b6137249192506137599060203d81116117835761177581836106a9565b919061371a565b600b5490600160401b821015610625576001820180600b558210156122cd57600b600052805160209182015190911b63ffffffff191663ffffffff919091161760008051602061501083398151915290910155565b909190156137c1575090565b8151156137d15750805190602001fd5b60405162461bcd60e51b815260206004820152908190612f779060248301906109dd565b156137fc57565b60405162461bcd60e51b815260206004820152601b60248201527f436865636b706f696e743a2064656372656173696e67206b65797300000000006044820152606490fd5b600b54919291801561391d576138e39181856138696138646135bd6020966134b9565b6134d7565b92613878845163ffffffff1690565b61388f63ffffffff918284169283911611156137f5565b6138a96138a0865163ffffffff1690565b63ffffffff1690565b036138e757506138be6135bd6138d5936134b9565b9063ffffffff82549181199060201b169116179055565b01516001600160e01b031690565b9190565b905061391891506139056138f96106ca565b63ffffffff9092168252565b6001600160e01b03871681850152613760565b6138d5565b506139419061392d6138f96106ca565b6001600160e01b0384166020820152613760565b60009190565b600511156110a657565b61395a81613947565b806139625750565b61396b81613947565b600181036139b85760405162461bcd60e51b815260206004820152601860248201527f45434453413a20696e76616c6964207369676e617475726500000000000000006044820152606490fd5b6139c181613947565b60028103613a0e5760405162461bcd60e51b815260206004820152601f60248201527f45434453413a20696e76616c6964207369676e6174757265206c656e677468006044820152606490fd5b80613a1a600392613947565b14613a2157565b60405162461bcd60e51b815260206004820152602260248201527f45434453413a20696e76616c6964207369676e6174757265202773272076616c604482015261756560f01b6064820152608490fd5b9291907f7fffffffffffffffffffffffffffffff5d576e7357a4501ddfe92f46681b20a08311613ae75791608094939160ff602094604051948552168484015260408301526060820152600093849182805260015afa1561178a5781516001600160a01b03811615613ae1579190565b50600190565b50505050600090600390565b604290613afe613b19565b906040519161190160f01b8352600283015260228201522090565b307f00000000000000000000000000000000000000000000000000000000000000006001600160a01b03161480613c04575b15613b74577f000000000000000000000000000000000000000000000000000000000000000090565b60405160208101907f8b73c3c69bb8fe3d512ecc4cf759cc79239f7b179b0ffacaa9a75d522b39400f82527f000000000000000000000000000000000000000000000000000000000000000060408201527f000000000000000000000000000000000000000000000000000000000000000060608201524660808201523060a082015260a081526120b28161068e565b507f00000000000000000000000000000000000000000000000000000000000000004614613b4b565b60ff8114613c6b5760ff811690601f8211613c595760405191613c4f8361063d565b8252602082015290565b604051632cd44ac360e21b8152600490fd5b50604051600081815491613c7e8361148b565b80835292600190818116908115613d025750600114613ca5575b5061079a925003826106a9565b600080805291507f290decd9548b62a8d60345a988386fc84ba6bc95484008f6362f93160ef3e5635b848310613ce7575061079a935050810160200138613c98565b81935090816020925483858901015201910190918492613cce565b90506020925061079a94915060ff191682840152151560051b82010138613c98565b60ff8114613d465760ff811690601f8211613c595760405191613c4f8361063d565b50604051600081600191825492613d5c8461148b565b80845293818116908115613d025750600114613d7f575061079a925003826106a9565b600081815291507fb10e2d527612073b26eecdfd717e6a320cf44b4afac2b0732d9fcbe2b7fa0cf65b848310613dc1575061079a935050810160200138613c98565b81935090816020925483858901015201910190918492613da8565b8015613f165780613eaf613ea8613e9e613e94613e8a613e80613e76613e6c600161079a9a6000908b60801c80613f0a575b508060401c80613efd575b508060201c80613ef0575b508060101c80613ee3575b508060081c80613ed6575b508060041c80613ec9575b508060021c80613ebc575b50821c613eb5575b811c1b613e65818b6136a4565b0160011c90565b613e65818a6136a4565b613e6581896136a4565b613e6581886136a4565b613e6581876136a4565b613e6581866136a4565b613e6581856136a4565b80926136a4565b90613f1c565b8101613e58565b6002915091019038613e50565b6004915091019038613e45565b6008915091019038613e3a565b6010915091019038613e2f565b6020915091019038613e24565b6040915091019038613e19565b91505060809038613e0e565b50600090565b9080821015613f29575090565b905090565b6001600160e01b0390818111613f42571690565b60405162461bcd60e51b815260206004820152602760248201527f53616665436173743a2076616c756520646f65736e27742066697420696e20326044820152663234206269747360c81b6064820152608490fd5b6001600160601b0390818111613fab571690565b60405162461bcd60e51b815260206004820152602660248201527f53616665436173743a2076616c756520646f65736e27742066697420696e203960448201526536206269747360d01b6064820152608490fd5b65ffffffffffff90818111614012571690565b60405162461bcd60e51b815260206004820152602660248201527f53616665436173743a2076616c756520646f65736e27742066697420696e203460448201526538206269747360d01b6064820152608490fd5b63ffffffff90818111614077571690565b60405162461bcd60e51b815260206004820152602660248201527f53616665436173743a2076616c756520646f65736e27742066697420696e203360448201526532206269747360d01b6064820152608490fd5b6004549081600f0b809260801d600f0b13156141165781600052600560205260406000209160008354935560016001600160801b03196004541691016001600160801b031617600455565b604051631ed9509560e11b8152600490fd5b908160209103126104b8575180151581036104b85790565b6141498161425d565b906141538261109c565b600482036142595761416f90600052600d602052604060002090565b5480614179575090565b600c54909150614191906001600160a01b03166130e1565b604051632ab0f52960e01b81526004810183905260209291908381602481855afa90811561178a5760009161423c575b50156141cf57505050600790565b604051632c258a9f60e11b815260048101929092528290829060249082905afa91821561178a5760009261420f575b50501561420a57600590565b600290565b61422e9250803d10614235575b61422681836106a9565b810190614128565b38806141fe565b503d61421c565b6142539150843d86116142355761422681836106a9565b386141c1565b5090565b6002614273826000526003602052604060002090565b015460ff811661438f5760081c60ff16614389576142ae6124e86142a1836000526003602052604060002090565b546001600160401b031690565b8015614344576142bf6108a9613258565b8091101561433d576142f16124e860016142e3856000526003602052604060002090565b01546001600160401b031690565b1015613ae15761430081614396565b9081614317575b501561431257600490565b600390565b614337915060005260066020526040600020600660058201549101541090565b38614307565b5050600090565b60405162461bcd60e51b815260206004820152601d60248201527f476f7665726e6f723a20756e6b6e6f776e2070726f706f73616c2069640000006044820152606490fd5b50600290565b5050600790565b60005260066020526040600020600360205260056143c16001600160401b03604060002054166136c4565b910154101590565b600e54600160401b811015610625576001810180600e558110156122cd57600e6000527fbb7b4a454dc3493923482f07822329ed19e8244eff582cc204f8554c3620c3fd0155565b9261079a927f7d84a6263ae0d98d3329bd7b46bb4e8d6f98cd35a7adb45c274c8b7fd5ebd5e0614507956145d594614456858561444e81516126ac565b848633612c9c565b61446861446386336148d6565b6145ee565b6145ab856144776108a9613258565b9261449761448d614487866134b9565b33612302565b600954111561463a565b8151966144ac60208401988920828489612054565b9b8c956144bc88518551146146a0565b6144c988518451146146a0565b6144d5885115156146f6565b6144fe6001600160401b036144f76142a18a6000526003602052604060002090565b1615614742565b60075490612e27565b9061451460085483612e27565b9261459261452184614a13565b61456461452d87614a13565b6145476145386106d9565b6001600160401b039094168452565b336020840152600060408401526001600160401b03166060830152565b60006080820152600060a0820152600060c082015261458d896000526003602052604060002090565b614798565b61459c88516126ac565b9060405198899833908a614849565b0390a16145b7856143c9565b815190206145cf85600052600f602052604060002090565b55614e16565b6145e9836000526010602052604060002090565b612a18565b156145f557565b60405162461bcd60e51b815260206004820152601d60248201527f476f7665726e6f723a2070726f706f73657220726573747269637465640000006044820152606490fd5b1561464157565b60405162461bcd60e51b815260206004820152603160248201527f476f7665726e6f723a2070726f706f73657220766f7465732062656c6f7720706044820152701c9bdc1bdcd85b081d1a1c995cda1bdb19607a1b6064820152608490fd5b156146a757565b60405162461bcd60e51b815260206004820152602160248201527f476f7665726e6f723a20696e76616c69642070726f706f73616c206c656e67746044820152600d60fb1b6064820152608490fd5b156146fd57565b60405162461bcd60e51b815260206004820152601860248201527f476f7665726e6f723a20656d7074792070726f706f73616c00000000000000006044820152606490fd5b1561474957565b60405162461bcd60e51b815260206004820152602160248201527f476f7665726e6f723a2070726f706f73616c20616c72656164792065786973746044820152607360f81b6064820152608490fd5b815160208301516040808501516001600160401b039384169290911b68010000000000000000600160e01b0316919091176001600160e01b03199091161782556060830151608084015167ffffffffffffffff191691161760018201556106d7919061482e9060c0906002019261482761481560a0830151151590565b859060ff801983541691151516179055565b0151151590565b908054909161ff001990911690151560081b61ff0016179055565b95926148ac946148826148909261489e9561079a9d9b9c99958b5260018060a01b031660208b01526101208060408c01528a0190610e50565b9088820360608a0152610e8d565b908682036080880152610ec1565b9084820360a0860152610ec1565b9360c083015260e08201526101008184039101526109dd565b9081518110156122cd570160200190565b81516034811061498d5760131981840101516001600160a01b0319166b1b91f1b211f2119351b859f160a31b0161498d5791600092614914816134c8565b915b818310614931575050506001600160a01b0391821691161490565b90919361495761495261494487856148c5565b516001600160f81b03191690565b614995565b9190156149825760041b6010600160a01b031660ff91909116179361497b906122a5565b9190614916565b505050505050600190565b505050600190565b60f81c9081602f1080614a09575b156149b557600191602f190160ff1690565b81604010806149ff575b156149d1576001916036190160ff1690565b81606010806149f5575b156149ed576001916056190160ff1690565b600091508190565b50606782106149db565b50604782106149bf565b50603a82106149a3565b6001600160401b0390818111614a27571690565b60405162461bcd60e51b815260206004820152602660248201527f53616665436173743a2076616c756520646f65736e27742066697420696e203660448201526534206269747360d01b6064820152608490fd5b929190614a8a83838387612054565b600052600660205260018060a01b0360406000205416803314908115614b0f575b5015614aba5761079a93614b8b565b60405162461bcd60e51b815260206004820152602760248201527f476f7665726e6f72427261766f3a2070726f706f7365722061626f76652074686044820152661c995cda1bdb1960ca1b6064820152608490fd5b614b2d915065ffffffffffff614b26610da0613258565b1690612302565b6009541138614aab565b919060018060a01b03600c541690813b156104b857600093614b6f6040519687958694859463e38335e560e01b86526004860161300e565b039134905af1801561178a57614b825750565b6106d79061062a565b90614b97939291612054565b614ba081614140565b60088110156110a657806002614bc59214159081614cd1575b81614cbc575b50614ce7565b614bee6002614bde836000526003602052604060002090565b01805461ff001916610100179055565b6040518181527f789cf55be980739dad1d0699b93b58e806b51c9d96619bfa8fe0a28abaa7b30c90602090a1614c2e81600052600d602052604060002090565b54614c365790565b600c54614c4b906001600160a01b03166130e1565b614c5f82600052600d602052604060002090565b5490803b156104b85760405163c4d252f560e01b815260048101929092526000908290602490829084905af1801561178a57614ca9575b506000818152600d602052604081205590565b80613210614cb69261062a565b38614c96565b60079150614cc98161109c565b141538614bbf565b9050614cdc8161109c565b600681141590614bb9565b15614cee57565b60405162461bcd60e51b815260206004820152601d60248201527f476f7665726e6f723a2070726f706f73616c206e6f74206163746976650000006044820152606490fd5b6024906106d79294936040519586926204010960e91b6020850152614d628151809260206023880191016109ba565b8301614d788251809360206023850191016109ba565b01600360fb1b6023820152614d9682518093602087850191016109ba565b010360048101855201836106a9565b60216106d791939293604051948591600560f91b6020840152614dd181518092602087870191016109ba565b8201614de682518093602087850191016109ba565b010360018101855201836106a9565b9060405191609160f51b60208401526022830152602282526106d78261060a565b62010000815111614e89576000614e73614e67614e4984614e426001600160401b036020975116614f31565b9081614d33565b614e62614e5d82516001600160401b031690565b614f31565b614da5565b604051918280926126f6565b039060025afa1561178a5761079a600051614df5565b60405162461bcd60e51b815260206004820152601f60248201527f4d617820636f6e74656e742073697a65206973203635353336206279746573006044820152606490fd5b6001600160401b038091169081146122b45760010190565b90614ef0826106f8565b614efd60405191826106a9565b8281528092614f0e601f19916106f8565b0190602036910137565b6001600160401b0390811660001901919082116122b457565b600180825b607f6001600160401b03821611614ff257506001600160401b039180838316614f5e81614ee6565b959460009586945b614fa0575b5050505050614f7f6124e8614f9c92614f18565b91607f60f81b614f9261494485876148c5565b16901a91836148c5565b5390565b81851683811015614fec57614fe5916701ffffffffffffff91607f821660801760f81b6001600160f81b0319168a1a90614fda908c6148c5565b5360071c1694614ece565b9383614f66565b50614f6b565b6701ffffffffffffff6150099160071c1691614ece565b90614f3656fe0175b7a638427703f0dbe7bb9bbf987a2551717b34e79f33b5b1008d1fa01db9a26469706673582212201f0a82acb1804bb280eaec82cfdb2ac01b47c2dc2f8ee9b6d55f7085b90b926364736f6c634300081300330553476bf02ef2726e8ce5ced78d63e26e602e4a2257b1f559418e24b4633997",
  "linkReferences": {},
  "deployedLinkReferences": {}
}