{
  "_format": "hh-sol-artifact-1",
  "contractName": "V2_EngineV3",
  "sourceName": "contracts/V2_EngineV3.sol",
  "abi": [
    {
      "inputs": [],
      "stateMutability": "nonpayable",
      "type": "constructor"
    },
    {
      "inputs": [
        {
          "internalType": "uint256",
          "name": "x",
          "type": "uint256"
        },
        {
          "internalType": "uint256",
          "name": "y",
          "type": "uint256"
        }
      ],
      "name": "PRBMath_MulDiv18_Overflow",
      "type": "error"
    },
    {
      "inputs": [
        {
          "internalType": "uint256",
          "name": "x",
          "type": "uint256"
        },
        {
          "internalType": "uint256",
          "name": "y",
          "type": "uint256"
        },
        {
          "internalType": "uint256",
          "name": "denominator",
          "type": "uint256"
        }
      ],
      "name": "PRBMath_MulDiv_Overflow",
      "type": "error"
    },
    {
      "inputs": [],
      "name": "PRBMath_SD59x18_Abs_MinSD59x18",
      "type": "error"
    },
    {
      "inputs": [],
      "name": "PRBMath_SD59x18_Div_InputTooSmall",
      "type": "error"
    },
    {
      "inputs": [
        {
          "internalType": "SD59x18",
          "name": "x",
          "type": "int256"
        },
        {
          "internalType": "SD59x18",
          "name": "y",
          "type": "int256"
        }
      ],
      "name": "PRBMath_SD59x18_Div_Overflow",
      "type": "error"
    },
    {
      "inputs": [
        {
          "internalType": "SD59x18",
          "name": "x",
          "type": "int256"
        }
      ],
      "name": "PRBMath_SD59x18_Exp2_InputTooBig",
      "type": "error"
    },
    {
      "inputs": [],
      "name": "PRBMath_SD59x18_Mul_InputTooSmall",
      "type": "error"
    },
    {
      "inputs": [
        {
          "internalType": "SD59x18",
          "name": "x",
          "type": "int256"
        },
        {
          "internalType": "SD59x18",
          "name": "y",
          "type": "int256"
        }
      ],
      "name": "PRBMath_SD59x18_Mul_Overflow",
      "type": "error"
    },
    {
      "inputs": [
        {
          "internalType": "UD60x18",
          "name": "x",
          "type": "uint256"
        }
      ],
      "name": "PRBMath_UD60x18_Exp2_InputTooBig",
      "type": "error"
    },
    {
      "anonymous": false,
      "inputs": [
        {
          "indexed": true,
          "internalType": "address",
          "name": "addr",
          "type": "address"
        },
        {
          "indexed": true,
          "internalType": "bytes32",
          "name": "task",
          "type": "bytes32"
        }
      ],
      "name": "ContestationSubmitted",
      "type": "event"
    },
    {
      "anonymous": false,
      "inputs": [
        {
          "indexed": true,
          "internalType": "address",
          "name": "addr",
          "type": "address"
        },
        {
          "indexed": true,
          "internalType": "bytes32",
          "name": "task",
          "type": "bytes32"
        },
        {
          "indexed": false,
          "internalType": "bool",
          "name": "yea",
          "type": "bool"
        }
      ],
      "name": "ContestationVote",
      "type": "event"
    },
    {
      "anonymous": false,
      "inputs": [
        {
          "indexed": true,
          "internalType": "bytes32",
          "name": "id",
          "type": "bytes32"
        },
        {
          "indexed": true,
          "internalType": "uint32",
          "name": "start_idx",
          "type": "uint32"
        },
        {
          "indexed": false,
          "internalType": "uint32",
          "name": "end_idx",
          "type": "uint32"
        }
      ],
      "name": "ContestationVoteFinish",
      "type": "event"
    },
    {
      "anonymous": false,
      "inputs": [
        {
          "indexed": false,
          "internalType": "uint8",
          "name": "version",
          "type": "uint8"
        }
      ],
      "name": "Initialized",
      "type": "event"
    },
    {
      "anonymous": false,
      "inputs": [
        {
          "indexed": true,
          "internalType": "bytes32",
          "name": "id",
          "type": "bytes32"
        }
      ],
      "name": "ModelRegistered",
      "type": "event"
    },
    {
      "anonymous": false,
      "inputs": [
        {
          "indexed": true,
          "internalType": "address",
          "name": "previousOwner",
          "type": "address"
        },
        {
          "indexed": true,
          "internalType": "address",
          "name": "newOwner",
          "type": "address"
        }
      ],
      "name": "OwnershipTransferred",
      "type": "event"
    },
    {
      "anonymous": false,
      "inputs": [
        {
          "indexed": true,
          "internalType": "bool",
          "name": "paused",
          "type": "bool"
        }
      ],
      "name": "PausedChanged",
      "type": "event"
    },
    {
      "anonymous": false,
      "inputs": [
        {
          "indexed": true,
          "internalType": "address",
          "name": "to",
          "type": "address"
        }
      ],
      "name": "PauserTransferred",
      "type": "event"
    },
    {
      "anonymous": false,
      "inputs": [
        {
          "indexed": true,
          "internalType": "address",
          "name": "addr",
          "type": "address"
        },
        {
          "indexed": true,
          "internalType": "bytes32",
          "name": "commitment",
          "type": "bytes32"
        }
      ],
      "name": "SignalCommitment",
      "type": "event"
    },
    {
      "anonymous": false,
      "inputs": [
        {
          "indexed": true,
          "internalType": "address",
          "name": "addr",
          "type": "address"
        },
        {
          "indexed": true,
          "internalType": "bytes32",
          "name": "task",
          "type": "bytes32"
        }
      ],
      "name": "SolutionClaimed",
      "type": "event"
    },
    {
      "anonymous": false,
      "inputs": [
        {
          "indexed": true,
          "internalType": "bytes32",
          "name": "id",
          "type": "bytes32"
        },
        {
          "indexed": false,
          "internalType": "uint256",
          "name": "rate",
          "type": "uint256"
        }
      ],
      "name": "SolutionMineableRateChange",
      "type": "event"
    },
    {
      "anonymous": false,
      "inputs": [
        {
          "indexed": true,
          "internalType": "address",
          "name": "addr",
          "type": "address"
        },
        {
          "indexed": true,
          "internalType": "bytes32",
          "name": "task",
          "type": "bytes32"
        }
      ],
      "name": "SolutionSubmitted",
      "type": "event"
    },
    {
      "anonymous": false,
      "inputs": [
        {
          "indexed": true,
          "internalType": "uint64",
          "name": "startBlockTime",
          "type": "uint64"
        }
      ],
      "name": "StartBlockTimeChanged",
      "type": "event"
    },
    {
      "anonymous": false,
      "inputs": [
        {
          "indexed": true,
          "internalType": "bytes32",
          "name": "id",
          "type": "bytes32"
        },
        {
          "indexed": true,
          "internalType": "bytes32",
          "name": "model",
          "type": "bytes32"
        },
        {
          "indexed": false,
          "internalType": "uint256",
          "name": "fee",
          "type": "uint256"
        },
        {
          "indexed": true,
          "internalType": "address",
          "name": "sender",
          "type": "address"
        }
      ],
      "name": "TaskSubmitted",
      "type": "event"
    },
    {
      "anonymous": false,
      "inputs": [
        {
          "indexed": true,
          "internalType": "address",
          "name": "to",
          "type": "address"
        }
      ],
      "name": "TreasuryTransferred",
      "type": "event"
    },
    {
      "anonymous": false,
      "inputs": [
        {
          "indexed": true,
          "internalType": "address",
          "name": "addr",
          "type": "address"
        },
        {
          "indexed": true,
          "internalType": "address",
          "name": "validator",
          "type": "address"
        },
        {
          "indexed": false,
          "internalType": "uint256",
          "name": "amount",
          "type": "uint256"
        }
      ],
      "name": "ValidatorDeposit",
      "type": "event"
    },
    {
      "anonymous": false,
      "inputs": [
        {
          "indexed": true,
          "internalType": "address",
          "name": "addr",
          "type": "address"
        },
        {
          "indexed": true,
          "internalType": "address",
          "name": "to",
          "type": "address"
        },
        {
          "indexed": true,
          "internalType": "uint256",
          "name": "count",
          "type": "uint256"
        },
        {
          "indexed": false,
          "internalType": "uint256",
          "name": "amount",
          "type": "uint256"
        }
      ],
      "name": "ValidatorWithdraw",
      "type": "event"
    },
    {
      "anonymous": false,
      "inputs": [
        {
          "indexed": true,
          "internalType": "address",
          "name": "addr",
          "type": "address"
        },
        {
          "indexed": true,
          "internalType": "uint256",
          "name": "count",
          "type": "uint256"
        }
      ],
      "name": "ValidatorWithdrawCancelled",
      "type": "event"
    },
    {
      "anonymous": false,
      "inputs": [
        {
          "indexed": true,
          "internalType": "address",
          "name": "addr",
          "type": "address"
        },
        {
          "indexed": true,
          "internalType": "uint256",
          "name": "count",
          "type": "uint256"
        },
        {
          "indexed": false,
          "internalType": "uint256",
          "name": "unlockTime",
          "type": "uint256"
        },
        {
          "indexed": false,
          "internalType": "uint256",
          "name": "amount",
          "type": "uint256"
        }
      ],
      "name": "ValidatorWithdrawInitiated",
      "type": "event"
    },
    {
      "anonymous": false,
      "inputs": [
        {
          "indexed": false,
          "internalType": "uint256",
          "name": "version",
          "type": "uint256"
        }
      ],
      "name": "VersionChanged",
      "type": "event"
    },
    {
      "inputs": [],
      "name": "accruedFees",
      "outputs": [
        {
          "internalType": "uint256",
          "name": "",
          "type": "uint256"
        }
      ],
      "stateMutability": "view",
      "type": "function"
    },
    {
      "inputs": [],
      "name": "baseToken",
      "outputs": [
        {
          "internalType": "contract IBaseToken",
          "name": "",
          "type": "address"
        }
      ],
      "stateMutability": "view",
      "type": "function"
    },
    {
      "inputs": [
        {
          "internalType": "bytes32[]",
          "name": "taskids_",
          "type": "bytes32[]"
        },
        {
          "internalType": "bytes[]",
          "name": "cids_",
          "type": "bytes[]"
        }
      ],
      "name": "bulkSubmitSolution",
      "outputs": [],
      "stateMutability": "nonpayable",
      "type": "function"
    },
    {
      "inputs": [
        {
          "internalType": "uint8",
          "name": "version_",
          "type": "uint8"
        },
        {
          "internalType": "address",
          "name": "owner_",
          "type": "address"
        },
        {
          "internalType": "bytes32",
          "name": "model_",
          "type": "bytes32"
        },
        {
          "internalType": "uint256",
          "name": "fee_",
          "type": "uint256"
        },
        {
          "internalType": "bytes",
          "name": "input_",
          "type": "bytes"
        },
        {
          "internalType": "uint256",
          "name": "n_",
          "type": "uint256"
        }
      ],
      "name": "bulkSubmitTask",
      "outputs": [],
      "stateMutability": "nonpayable",
      "type": "function"
    },
    {
      "inputs": [
        {
          "internalType": "uint256",
          "name": "count_",
          "type": "uint256"
        }
      ],
      "name": "cancelValidatorWithdraw",
      "outputs": [],
      "stateMutability": "nonpayable",
      "type": "function"
    },
    {
      "inputs": [
        {
          "internalType": "bytes32",
          "name": "taskid_",
          "type": "bytes32"
        }
      ],
      "name": "claimSolution",
      "outputs": [],
      "stateMutability": "nonpayable",
      "type": "function"
    },
    {
      "inputs": [
        {
          "internalType": "bytes32",
          "name": "",
          "type": "bytes32"
        }
      ],
      "name": "commitments",
      "outputs": [
        {
          "internalType": "uint256",
          "name": "",
          "type": "uint256"
        }
      ],
      "stateMutability": "view",
      "type": "function"
    },
    {
      "inputs": [],
      "name": "contestationVoteExtensionTime",
      "outputs": [
        {
          "internalType": "uint256",
          "name": "",
          "type": "uint256"
        }
      ],
      "stateMutability": "view",
      "type": "function"
    },
    {
      "inputs": [
        {
          "internalType": "bytes32",
          "name": "taskid_",
          "type": "bytes32"
        },
        {
          "internalType": "uint32",
          "name": "amnt_",
          "type": "uint32"
        }
      ],
      "name": "contestationVoteFinish",
      "outputs": [],
      "stateMutability": "nonpayable",
      "type": "function"
    },
    {
      "inputs": [
        {
          "internalType": "bytes32",
          "name": "",
          "type": "bytes32"
        },
        {
          "internalType": "uint256",
          "name": "",
          "type": "uint256"
        }
      ],
      "name": "contestationVoteNays",
      "outputs": [
        {
          "internalType": "address",
          "name": "",
          "type": "address"
        }
      ],
      "stateMutability": "view",
      "type": "function"
    },
    {
      "inputs": [
        {
          "internalType": "bytes32",
          "name": "",
          "type": "bytes32"
        },
        {
          "internalType": "uint256",
          "name": "",
          "type": "uint256"
        }
      ],
      "name": "contestationVoteYeas",
      "outputs": [
        {
          "internalType": "address",
          "name": "",
          "type": "address"
        }
      ],
      "stateMutability": "view",
      "type": "function"
    },
    {
      "inputs": [
        {
          "internalType": "bytes32",
          "name": "",
          "type": "bytes32"
        },
        {
          "internalType": "address",
          "name": "",
          "type": "address"
        }
      ],
      "name": "contestationVoted",
      "outputs": [
        {
          "internalType": "bool",
          "name": "",
          "type": "bool"
        }
      ],
      "stateMutability": "view",
      "type": "function"
    },
    {
      "inputs": [
        {
          "internalType": "bytes32",
          "name": "",
          "type": "bytes32"
        }
      ],
      "name": "contestationVotedIndex",
      "outputs": [
        {
          "internalType": "uint256",
          "name": "",
          "type": "uint256"
        }
      ],
      "stateMutability": "view",
      "type": "function"
    },
    {
      "inputs": [
        {
          "internalType": "bytes32",
          "name": "",
          "type": "bytes32"
        }
      ],
      "name": "contestations",
      "outputs": [
        {
          "internalType": "address",
          "name": "validator",
          "type": "address"
        },
        {
          "internalType": "uint64",
          "name": "blocktime",
          "type": "uint64"
        },
        {
          "internalType": "uint32",
          "name": "finish_start_index",
          "type": "uint32"
        },
        {
          "internalType": "uint256",
          "name": "slashAmount",
          "type": "uint256"
        }
      ],
      "stateMutability": "view",
      "type": "function"
    },
    {
      "inputs": [
        {
          "internalType": "uint256",
          "name": "t",
          "type": "uint256"
        },
        {
          "internalType": "uint256",
          "name": "ts",
          "type": "uint256"
        }
      ],
      "name": "diffMul",
      "outputs": [
        {
          "internalType": "uint256",
          "name": "",
          "type": "uint256"
        }
      ],
      "stateMutability": "pure",
      "type": "function"
    },
    {
      "inputs": [],
      "name": "exitValidatorMinUnlockTime",
      "outputs": [
        {
          "internalType": "uint256",
          "name": "",
          "type": "uint256"
        }
      ],
      "stateMutability": "view",
      "type": "function"
    },
    {
      "inputs": [
        {
          "internalType": "address",
          "name": "sender_",
          "type": "address"
        },
        {
          "internalType": "bytes32",
          "name": "taskid_",
          "type": "bytes32"
        },
        {
          "internalType": "bytes",
          "name": "cid_",
          "type": "bytes"
        }
      ],
      "name": "generateCommitment",
      "outputs": [
        {
          "internalType": "bytes32",
          "name": "",
          "type": "bytes32"
        }
      ],
      "stateMutability": "pure",
      "type": "function"
    },
    {
      "inputs": [
        {
          "internalType": "bytes",
          "name": "content_",
          "type": "bytes"
        }
      ],
      "name": "generateIPFSCID",
      "outputs": [
        {
          "internalType": "bytes",
          "name": "",
          "type": "bytes"
        }
      ],
      "stateMutability": "pure",
      "type": "function"
    },
    {
      "inputs": [],
      "name": "getPsuedoTotalSupply",
      "outputs": [
        {
          "internalType": "uint256",
          "name": "",
          "type": "uint256"
        }
      ],
      "stateMutability": "view",
      "type": "function"
    },
    {
      "inputs": [],
      "name": "getReward",
      "outputs": [
        {
          "internalType": "uint256",
          "name": "",
          "type": "uint256"
        }
      ],
      "stateMutability": "view",
      "type": "function"
    },
    {
      "inputs": [],
      "name": "getSlashAmount",
      "outputs": [
        {
          "internalType": "uint256",
          "name": "",
          "type": "uint256"
        }
      ],
      "stateMutability": "view",
      "type": "function"
    },
    {
      "inputs": [],
      "name": "getValidatorMinimum",
      "outputs": [
        {
          "internalType": "uint256",
          "name": "",
          "type": "uint256"
        }
      ],
      "stateMutability": "view",
      "type": "function"
    },
    {
      "inputs": [
        {
          "components": [
            {
              "internalType": "uint256",
              "name": "fee",
              "type": "uint256"
            },
            {
              "internalType": "address",
              "name": "addr",
              "type": "address"
            },
            {
              "internalType": "uint256",
              "name": "rate",
              "type": "uint256"
            },
            {
              "internalType": "bytes",
              "name": "cid",
              "type": "bytes"
            }
          ],
          "internalType": "struct Model",
          "name": "o_",
          "type": "tuple"
        },
        {
          "internalType": "address",
          "name": "sender_",
          "type": "address"
        }
      ],
      "name": "hashModel",
      "outputs": [
        {
          "internalType": "bytes32",
          "name": "",
          "type": "bytes32"
        }
      ],
      "stateMutability": "pure",
      "type": "function"
    },
    {
      "inputs": [
        {
          "components": [
            {
              "internalType": "bytes32",
              "name": "model",
              "type": "bytes32"
            },
            {
              "internalType": "uint256",
              "name": "fee",
              "type": "uint256"
            },
            {
              "internalType": "address",
              "name": "owner",
              "type": "address"
            },
            {
              "internalType": "uint64",
              "name": "blocktime",
              "type": "uint64"
            },
            {
              "internalType": "uint8",
              "name": "version",
              "type": "uint8"
            },
            {
              "internalType": "bytes",
              "name": "cid",
              "type": "bytes"
            }
          ],
          "internalType": "struct Task",
          "name": "o_",
          "type": "tuple"
        },
        {
          "internalType": "address",
          "name": "sender_",
          "type": "address"
        },
        {
          "internalType": "bytes32",
          "name": "prevhash_",
          "type": "bytes32"
        }
      ],
      "name": "hashTask",
      "outputs": [
        {
          "internalType": "bytes32",
          "name": "",
          "type": "bytes32"
        }
      ],
      "stateMutability": "pure",
      "type": "function"
    },
    {
      "inputs": [],
      "name": "initialize",
      "outputs": [],
      "stateMutability": "nonpayable",
      "type": "function"
    },
    {
      "inputs": [
        {
          "internalType": "uint256",
          "name": "amount_",
          "type": "uint256"
        }
      ],
      "name": "initiateValidatorWithdraw",
      "outputs": [
        {
          "internalType": "uint256",
          "name": "",
          "type": "uint256"
        }
      ],
      "stateMutability": "nonpayable",
      "type": "function"
    },
    {
      "inputs": [
        {
          "internalType": "address",
          "name": "",
          "type": "address"
        }
      ],
      "name": "lastContestationLossTime",
      "outputs": [
        {
          "internalType": "uint256",
          "name": "",
          "type": "uint256"
        }
      ],
      "stateMutability": "view",
      "type": "function"
    },
    {
      "inputs": [
        {
          "internalType": "address",
          "name": "",
          "type": "address"
        }
      ],
      "name": "lastSolutionSubmission",
      "outputs": [
        {
          "internalType": "uint256",
          "name": "",
          "type": "uint256"
        }
      ],
      "stateMutability": "view",
      "type": "function"
    },
    {
      "inputs": [],
      "name": "maxContestationValidatorStakeSince",
      "outputs": [
        {
          "internalType": "uint256",
          "name": "",
          "type": "uint256"
        }
      ],
      "stateMutability": "view",
      "type": "function"
    },
    {
      "inputs": [],
      "name": "minClaimSolutionTime",
      "outputs": [
        {
          "internalType": "uint256",
          "name": "",
          "type": "uint256"
        }
      ],
      "stateMutability": "view",
      "type": "function"
    },
    {
      "inputs": [],
      "name": "minContestationVotePeriodTime",
      "outputs": [
        {
          "internalType": "uint256",
          "name": "",
          "type": "uint256"
        }
      ],
      "stateMutability": "view",
      "type": "function"
    },
    {
      "inputs": [],
      "name": "minRetractionWaitTime",
      "outputs": [
        {
          "internalType": "uint256",
          "name": "",
          "type": "uint256"
        }
      ],
      "stateMutability": "view",
      "type": "function"
    },
    {
      "inputs": [
        {
          "internalType": "bytes32",
          "name": "",
          "type": "bytes32"
        }
      ],
      "name": "models",
      "outputs": [
        {
          "internalType": "uint256",
          "name": "fee",
          "type": "uint256"
        },
        {
          "internalType": "address",
          "name": "addr",
          "type": "address"
        },
        {
          "internalType": "uint256",
          "name": "rate",
          "type": "uint256"
        },
        {
          "internalType": "bytes",
          "name": "cid",
          "type": "bytes"
        }
      ],
      "stateMutability": "view",
      "type": "function"
    },
    {
      "inputs": [],
      "name": "owner",
      "outputs": [
        {
          "internalType": "address",
          "name": "",
          "type": "address"
        }
      ],
      "stateMutability": "view",
      "type": "function"
    },
    {
      "inputs": [],
      "name": "paused",
      "outputs": [
        {
          "internalType": "bool",
          "name": "",
          "type": "bool"
        }
      ],
      "stateMutability": "view",
      "type": "function"
    },
    {
      "inputs": [],
      "name": "pauser",
      "outputs": [
        {
          "internalType": "address",
          "name": "",
          "type": "address"
        }
      ],
      "stateMutability": "view",
      "type": "function"
    },
    {
      "inputs": [
        {
          "internalType": "address",
          "name": "",
          "type": "address"
        },
        {
          "internalType": "uint256",
          "name": "",
          "type": "uint256"
        }
      ],
      "name": "pendingValidatorWithdrawRequests",
      "outputs": [
        {
          "internalType": "uint256",
          "name": "unlockTime",
          "type": "uint256"
        },
        {
          "internalType": "uint256",
          "name": "amount",
          "type": "uint256"
        }
      ],
      "stateMutability": "view",
      "type": "function"
    },
    {
      "inputs": [
        {
          "internalType": "address",
          "name": "",
          "type": "address"
        }
      ],
      "name": "pendingValidatorWithdrawRequestsCount",
      "outputs": [
        {
          "internalType": "uint256",
          "name": "",
          "type": "uint256"
        }
      ],
      "stateMutability": "view",
      "type": "function"
    },
    {
      "inputs": [],
      "name": "prevhash",
      "outputs": [
        {
          "internalType": "bytes32",
          "name": "",
          "type": "bytes32"
        }
      ],
      "stateMutability": "view",
      "type": "function"
    },
    {
      "inputs": [
        {
          "internalType": "address",
          "name": "addr_",
          "type": "address"
        },
        {
          "internalType": "uint256",
          "name": "fee_",
          "type": "uint256"
        },
        {
          "internalType": "bytes",
          "name": "template_",
          "type": "bytes"
        }
      ],
      "name": "registerModel",
      "outputs": [
        {
          "internalType": "bytes32",
          "name": "",
          "type": "bytes32"
        }
      ],
      "stateMutability": "nonpayable",
      "type": "function"
    },
    {
      "inputs": [],
      "name": "renounceOwnership",
      "outputs": [],
      "stateMutability": "nonpayable",
      "type": "function"
    },
    {
      "inputs": [],
      "name": "retractionFeePercentage",
      "outputs": [
        {
          "internalType": "uint256",
          "name": "",
          "type": "uint256"
        }
      ],
      "stateMutability": "view",
      "type": "function"
    },
    {
      "inputs": [
        {
          "internalType": "uint256",
          "name": "t",
          "type": "uint256"
        },
        {
          "internalType": "uint256",
          "name": "ts",
          "type": "uint256"
        }
      ],
      "name": "reward",
      "outputs": [
        {
          "internalType": "uint256",
          "name": "",
          "type": "uint256"
        }
      ],
      "stateMutability": "pure",
      "type": "function"
    },
    {
      "inputs": [
        {
          "internalType": "bool",
          "name": "paused_",
          "type": "bool"
        }
      ],
      "name": "setPaused",
      "outputs": [],
      "stateMutability": "nonpayable",
      "type": "function"
    },
    {
      "inputs": [
        {
          "internalType": "bytes32",
          "name": "model_",
          "type": "bytes32"
        },
        {
          "internalType": "uint256",
          "name": "rate_",
          "type": "uint256"
        }
      ],
      "name": "setSolutionMineableRate",
      "outputs": [],
      "stateMutability": "nonpayable",
      "type": "function"
    },
    {
      "inputs": [
        {
          "internalType": "uint64",
          "name": "startBlockTime_",
          "type": "uint64"
        }
      ],
      "name": "setStartBlockTime",
      "outputs": [],
      "stateMutability": "nonpayable",
      "type": "function"
    },
    {
      "inputs": [
        {
          "internalType": "uint256",
          "name": "version_",
          "type": "uint256"
        }
      ],
      "name": "setVersion",
      "outputs": [],
      "stateMutability": "nonpayable",
      "type": "function"
    },
    {
      "inputs": [
        {
          "internalType": "bytes32",
          "name": "commitment_",
          "type": "bytes32"
        }
      ],
      "name": "signalCommitment",
      "outputs": [],
      "stateMutability": "nonpayable",
      "type": "function"
    },
    {
      "inputs": [],
      "name": "slashAmountPercentage",
      "outputs": [
        {
          "internalType": "uint256",
          "name": "",
          "type": "uint256"
        }
      ],
      "stateMutability": "view",
      "type": "function"
    },
    {
      "inputs": [],
      "name": "solutionFeePercentage",
      "outputs": [
        {
          "internalType": "uint256",
          "name": "",
          "type": "uint256"
        }
      ],
      "stateMutability": "view",
      "type": "function"
    },
    {
      "inputs": [],
      "name": "solutionRateLimit",
      "outputs": [
        {
          "internalType": "uint256",
          "name": "",
          "type": "uint256"
        }
      ],
      "stateMutability": "view",
      "type": "function"
    },
    {
      "inputs": [
        {
          "internalType": "bytes32",
          "name": "",
          "type": "bytes32"
        }
      ],
      "name": "solutions",
      "outputs": [
        {
          "internalType": "address",
          "name": "validator",
          "type": "address"
        },
        {
          "internalType": "uint64",
          "name": "blocktime",
          "type": "uint64"
        },
        {
          "internalType": "bool",
          "name": "claimed",
          "type": "bool"
        },
        {
          "internalType": "bytes",
          "name": "cid",
          "type": "bytes"
        }
      ],
      "stateMutability": "view",
      "type": "function"
    },
    {
      "inputs": [
        {
          "internalType": "bytes32",
          "name": "",
          "type": "bytes32"
        }
      ],
      "name": "solutionsStake",
      "outputs": [
        {
          "internalType": "uint256",
          "name": "",
          "type": "uint256"
        }
      ],
      "stateMutability": "view",
      "type": "function"
    },
    {
      "inputs": [],
      "name": "solutionsStakeAmount",
      "outputs": [
        {
          "internalType": "uint256",
          "name": "",
          "type": "uint256"
        }
      ],
      "stateMutability": "view",
      "type": "function"
    },
    {
      "inputs": [],
      "name": "startBlockTime",
      "outputs": [
        {
          "internalType": "uint64",
          "name": "",
          "type": "uint64"
        }
      ],
      "stateMutability": "view",
      "type": "function"
    },
    {
      "inputs": [
        {
          "internalType": "bytes32",
          "name": "taskid_",
          "type": "bytes32"
        }
      ],
      "name": "submitContestation",
      "outputs": [],
      "stateMutability": "nonpayable",
      "type": "function"
    },
    {
      "inputs": [
        {
          "internalType": "bytes32",
          "name": "taskid_",
          "type": "bytes32"
        },
        {
          "internalType": "bytes",
          "name": "cid_",
          "type": "bytes"
        }
      ],
      "name": "submitSolution",
      "outputs": [],
      "stateMutability": "nonpayable",
      "type": "function"
    },
    {
      "inputs": [
        {
          "internalType": "uint8",
          "name": "version_",
          "type": "uint8"
        },
        {
          "internalType": "address",
          "name": "owner_",
          "type": "address"
        },
        {
          "internalType": "bytes32",
          "name": "model_",
          "type": "bytes32"
        },
        {
          "internalType": "uint256",
          "name": "fee_",
          "type": "uint256"
        },
        {
          "internalType": "bytes",
          "name": "input_",
          "type": "bytes"
        }
      ],
      "name": "submitTask",
      "outputs": [],
      "stateMutability": "nonpayable",
      "type": "function"
    },
    {
      "inputs": [
        {
          "internalType": "uint256",
          "name": "t",
          "type": "uint256"
        }
      ],
      "name": "targetTs",
      "outputs": [
        {
          "internalType": "uint256",
          "name": "",
          "type": "uint256"
        }
      ],
      "stateMutability": "pure",
      "type": "function"
    },
    {
      "inputs": [],
      "name": "taskOwnerRewardPercentage",
      "outputs": [
        {
          "internalType": "uint256",
          "name": "",
          "type": "uint256"
        }
      ],
      "stateMutability": "view",
      "type": "function"
    },
    {
      "inputs": [
        {
          "internalType": "bytes32",
          "name": "",
          "type": "bytes32"
        }
      ],
      "name": "tasks",
      "outputs": [
        {
          "internalType": "bytes32",
          "name": "model",
          "type": "bytes32"
        },
        {
          "internalType": "uint256",
          "name": "fee",
          "type": "uint256"
        },
        {
          "internalType": "address",
          "name": "owner",
          "type": "address"
        },
        {
          "internalType": "uint64",
          "name": "blocktime",
          "type": "uint64"
        },
        {
          "internalType": "uint8",
          "name": "version",
          "type": "uint8"
        },
        {
          "internalType": "bytes",
          "name": "cid",
          "type": "bytes"
        }
      ],
      "stateMutability": "view",
      "type": "function"
    },
    {
      "inputs": [],
      "name": "totalHeld",
      "outputs": [
        {
          "internalType": "uint256",
          "name": "",
          "type": "uint256"
        }
      ],
      "stateMutability": "view",
      "type": "function"
    },
    {
      "inputs": [
        {
          "internalType": "address",
          "name": "to_",
          "type": "address"
        }
      ],
      "name": "transferOwnership",
      "outputs": [],
      "stateMutability": "nonpayable",
      "type": "function"
    },
    {
      "inputs": [
        {
          "internalType": "address",
          "name": "to_",
          "type": "address"
        }
      ],
      "name": "transferPauser",
      "outputs": [],
      "stateMutability": "nonpayable",
      "type": "function"
    },
    {
      "inputs": [
        {
          "internalType": "address",
          "name": "to_",
          "type": "address"
        }
      ],
      "name": "transferTreasury",
      "outputs": [],
      "stateMutability": "nonpayable",
      "type": "function"
    },
    {
      "inputs": [],
      "name": "treasury",
      "outputs": [
        {
          "internalType": "address",
          "name": "",
          "type": "address"
        }
      ],
      "stateMutability": "view",
      "type": "function"
    },
    {
      "inputs": [],
      "name": "treasuryRewardPercentage",
      "outputs": [
        {
          "internalType": "uint256",
          "name": "",
          "type": "uint256"
        }
      ],
      "stateMutability": "view",
      "type": "function"
    },
    {
      "inputs": [
        {
          "internalType": "address",
          "name": "addr_",
          "type": "address"
        },
        {
          "internalType": "bytes32",
          "name": "taskid_",
          "type": "bytes32"
        }
      ],
      "name": "validatorCanVote",
      "outputs": [
        {
          "internalType": "uint256",
          "name": "",
          "type": "uint256"
        }
      ],
      "stateMutability": "view",
      "type": "function"
    },
    {
      "inputs": [
        {
          "internalType": "address",
          "name": "validator_",
          "type": "address"
        },
        {
          "internalType": "uint256",
          "name": "amount_",
          "type": "uint256"
        }
      ],
      "name": "validatorDeposit",
      "outputs": [],
      "stateMutability": "nonpayable",
      "type": "function"
    },
    {
      "inputs": [],
      "name": "validatorMinimumPercentage",
      "outputs": [
        {
          "internalType": "uint256",
          "name": "",
          "type": "uint256"
        }
      ],
      "stateMutability": "view",
      "type": "function"
    },
    {
      "inputs": [
        {
          "internalType": "uint256",
          "name": "count_",
          "type": "uint256"
        },
        {
          "internalType": "address",
          "name": "to_",
          "type": "address"
        }
      ],
      "name": "validatorWithdraw",
      "outputs": [],
      "stateMutability": "nonpayable",
      "type": "function"
    },
    {
      "inputs": [
        {
          "internalType": "address",
          "name": "",
          "type": "address"
        }
      ],
      "name": "validatorWithdrawPendingAmount",
      "outputs": [
        {
          "internalType": "uint256",
          "name": "",
          "type": "uint256"
        }
      ],
      "stateMutability": "view",
      "type": "function"
    },
    {
      "inputs": [
        {
          "internalType": "address",
          "name": "",
          "type": "address"
        }
      ],
      "name": "validators",
      "outputs": [
        {
          "internalType": "uint256",
          "name": "staked",
          "type": "uint256"
        },
        {
          "internalType": "uint256",
          "name": "since",
          "type": "uint256"
        },
        {
          "internalType": "address",
          "name": "addr",
          "type": "address"
        }
      ],
      "stateMutability": "view",
      "type": "function"
    },
    {
      "inputs": [],
      "name": "version",
      "outputs": [
        {
          "internalType": "uint256",
          "name": "",
          "type": "uint256"
        }
      ],
      "stateMutability": "view",
      "type": "function"
    },
    {
      "inputs": [
        {
          "internalType": "bytes32",
          "name": "taskid_",
          "type": "bytes32"
        },
        {
          "internalType": "bool",
          "name": "yea_",
          "type": "bool"
        }
      ],
      "name": "voteOnContestation",
      "outputs": [],
      "stateMutability": "nonpayable",
      "type": "function"
    },
    {
      "inputs": [
        {
          "internalType": "bytes32",
          "name": "taskid_",
          "type": "bytes32"
        }
      ],
      "name": "votingPeriodEnded",
      "outputs": [
        {
          "internalType": "bool",
          "name": "",
          "type": "bool"
        }
      ],
      "stateMutability": "view",
      "type": "function"
    },
    {
      "inputs": [],
      "name": "withdrawAccruedFees",
      "outputs": [],
      "stateMutability": "nonpayable",
      "type": "function"
    }
  ],
  "bytecode": "0x60806040523480156200001157600080fd5b506200001c62000022565b620000e3565b600054610100900460ff16156200008f5760405162461bcd60e51b815260206004820152602760248201527f496e697469616c697a61626c653a20636f6e747261637420697320696e697469604482015266616c697a696e6760c81b606482015260840160405180910390fd5b60005460ff90811614620000e1576000805460ff191660ff9081179091556040519081527f7f26b83ff96e1f2b6a682f133852f6798a09c465da95921460cefb38474024989060200160405180910390a15b565b615d5f80620000f36000396000f3fe608060405234801561001057600080fd5b506004361061045e5760003560e01c80638129fc1c1161024c578063c17ddb2a11610146578063d2992baa116100c3578063e579f50011610087578063e579f50014610a75578063f1b8989d14610a9a578063f2fde38b14610aa3578063f43cc77314610ab6578063fa52c7d814610abf57600080fd5b8063d2992baa14610960578063d33b2ef5146109a7578063d8a6021c14610a36578063dc06a89f14610a49578063e236f46b14610a5257600080fd5b8063cbd2422d1161010a578063cbd2422d146108d9578063cf596e45146108ec578063d1f0c941146108ff578063d2307ae414610912578063d27809401461093257600080fd5b8063c17ddb2a1461088b578063c1f7272314610894578063c24b56311461089d578063c31784be146108bd578063c55dae63146108c657600080fd5b806396bb02c3116101d4578063a4fa8d5711610198578063a4fa8d5714610834578063a53e252514610847578063a8f837f314610850578063ada82c7d14610863578063b4dc35b71461086b57600080fd5b806396bb02c3146107fd5780639b975119146108065780639fd0506d1461080f578063a1975adf14610822578063a2492a901461082b57600080fd5b80638da5cb5b1161021b5780638da5cb5b146107b45780638e6d86fd146107c557806392809444146107ce57806393a090ec146107d757806393f1f8ac146107ea57600080fd5b80638129fc1c14610766578063836577951461076e578063839df945146107815780638b4d7b35146107a157600080fd5b8063408def1e1161035d57806365d445fb116102e557806375c70509116102a957806375c705091461070c578063763253bb1461072f57806377286d17146107425780637881c5e6146107555780637b36006a1461075d57600080fd5b806365d445fb146106cc578063671f8152146106df578063682c2058146106f2578063715018a6146106fb57806372dc0ee11461070357600080fd5b8063506ea7de1161032c578063506ea7de1461067657806354fd4d501461068957806356914caf146106925780635c975abb146106a557806361d027b3146106b957600080fd5b8063408def1e1461061d57806340e8c56d146106305780634421ea21146106505780634ff03efa1461066357600080fd5b80631825c20e116103eb5780632258d105116103af5780632258d105146105c7578063303fb0d6146105cf578063393cb1c7146105fa5780633d18b9121461060d5780633d57f5d91461061557600080fd5b80631825c20e1461054e5780631b75c43e146105615780631f88ea1c14610581578063218a304814610594578063218e6859146105a757600080fd5b80630a985737116104325780630a985737146104ca5780630c18d4ce146104dd5780631466b63a1461050857806316c38b3c1461051b57806317f3e0411461052e57600080fd5b8062fd70821461046357806305d1bc261461047f57806308745dd1146104a257806308afe0eb146104b7575b600080fd5b61046c60725481565b6040519081526020015b60405180910390f35b61049261048d366004615004565b610b1b565b6040519015158152602001610476565b6104b56104b036600461508d565b610b8d565b005b6104b56104c5366004615104565b610d08565b61046c6104d8366004615004565b610eba565b606a546104f0906001600160401b031681565b6040516001600160401b039091168152602001610476565b61046c610516366004615265565b611015565b6104b5610529366004615341565b61105c565b61046c61053c366004615004565b60806020526000908152604090205481565b6104b561055c36600461535e565b6110ec565b61046c61056f36600461538e565b607a6020526000908152604090205481565b61046c61058f3660046153a9565b61118f565b61046c6105a23660046153cb565b6112bb565b61046c6105b536600461538e565b60856020526000908152604090205481565b61046c6112fe565b6105e26105dd3660046153a9565b61134e565b6040516001600160a01b039091168152602001610476565b61046c610608366004615484565b611386565b61046c6113bf565b61046c6113e9565b6104b561062b366004615004565b611415565b61064361063e3660046154dd565b611459565b604051610476919061556e565b6104b561065e36600461538e565b611465565b61046c610671366004615484565b6114b7565b6104b5610684366004615004565b61167d565b61046c606b5481565b6104b56106a0366004615581565b61173f565b60675461049290600160a01b900460ff1681565b6066546105e2906001600160a01b031681565b6104b56106da366004615610565b611783565b6104b56106ed366004615004565b61181d565b61046c60685481565b6104b5611b08565b61046c606f5481565b61071f61071a366004615004565b611b1c565b604051610476949392919061566f565b6104b561073d3660046156b4565b611be7565b6104b5610750366004615004565b611e77565b61046c6121c7565b61046c60735481565b6104b5612276565b61046c61077c3660046156d7565b6123a8565b61046c61078f366004615004565b607c6020526000908152604090205481565b6104b56107af366004615701565b6124cb565b6033546001600160a01b03166105e2565b61046c60745481565b61046c60715481565b6104b56107e53660046156d7565b612ce8565b6104b56107f83660046153a9565b612ee2565b61046c606c5481565b61046c60845481565b6067546105e2906001600160a01b031681565b61046c60875481565b61046c608a5481565b61046c6108423660046153a9565b612f75565b61046c60755481565b6104b561085e36600461572f565b612ff1565b6104b5613044565b61046c610879366004615004565b60836020526000908152604090205481565b61046c60695481565b61046c60895481565b61046c6108ab36600461538e565b60886020526000908152604090205481565b61046c60705481565b6065546105e2906001600160a01b031681565b6104b56108e7366004615004565b613109565b61046c6108fa366004615004565b613222565b6105e261090d3660046153a9565b6132b6565b61046c61092036600461538e565b60786020526000908152604090205481565b6104926109403660046156b4565b607f60209081526000928352604080842090915290825290205460ff1681565b61099261096e3660046156d7565b60796020908152600092835260408084209091529082529020805460019091015482565b60408051928352602083019190915201610476565b6109f96109b5366004615004565b607e60205260009081526040902080546001909101546001600160a01b03821691600160a01b81046001600160401b031691600160e01b90910463ffffffff169084565b604080516001600160a01b0390951685526001600160401b03909316602085015263ffffffff909116918301919091526060820152608001610476565b6104b5610a4436600461538e565b6132d2565b61046c606d5481565b610a65610a60366004615004565b613324565b604051610476949392919061574a565b610a88610a83366004615004565b61335e565b60405161047696959493929190615777565b61046c606e5481565b6104b5610ab136600461538e565b613437565b61046c60865481565b610af7610acd36600461538e565b6077602052600090815260409020805460018201546002909201549091906001600160a01b031683565b6040805193845260208401929092526001600160a01b031690820152606001610476565b608a546000828152608260209081526040808320546081909252822054919291610b4591906157de565b610b4f91906157f1565b6073546000848152607e6020526040902054610b7b9190600160a01b90046001600160401b03166157de565b610b8591906157de565b421192915050565b606754600160a01b900460ff1615610bc05760405162461bcd60e51b8152600401610bb790615808565b60405180910390fd5b6000848152607660205260409020600101546001600160a01b0316610bf75760405162461bcd60e51b8152600401610bb790615828565b600084815260766020526040902054831015610c505760405162461bcd60e51b81526020600482015260186024820152776c6f77657220666565207468616e206d6f64656c2066656560401b6044820152606401610bb7565b6065546040516323b872dd60e01b8152336004820152306024820152604481018590526001600160a01b03909116906323b872dd906064016020604051808303816000875af1158015610ca7573d6000803e3d6000fd5b505050506040513d601f19601f82011682018060405250810190610ccb9190615856565b508260866000828254610cde91906157de565b9091555060009050610cf08383613448565b9050610cff878787878561357d565b50505050505050565b606754600160a01b900460ff1615610d325760405162461bcd60e51b8152600401610bb790615808565b6000858152607660205260409020600101546001600160a01b0316610d695760405162461bcd60e51b8152600401610bb790615828565b600085815260766020526040902054841015610dc25760405162461bcd60e51b81526020600482015260186024820152776c6f77657220666565207468616e206d6f64656c2066656560401b6044820152606401610bb7565b6065546001600160a01b03166323b872dd3330610ddf85896157f1565b6040516001600160e01b031960e086901b1681526001600160a01b03938416600482015292909116602483015260448201526064016020604051808303816000875af1158015610e33573d6000803e3d6000fd5b505050506040513d601f19601f82011682018060405250810190610e579190615856565b50610e6281856157f1565b60866000828254610e7391906157de565b9091555060009050610e858484613448565b905060005b82811015610eaf57610e9f898989898661357d565b610ea881615873565b9050610e8a565b505050505050505050565b606754600090600160a01b900460ff1615610ee75760405162461bcd60e51b8152600401610bb790615808565b336000908152607a60209081526040808320546077909252909120548391610f0e9161588c565b1015610f365760405162461bcd60e51b81526020600482015260006024820152604401610bb7565b600060755442610f4691906157de565b3360009081526078602052604081208054929350600192909190610f6b9084906157de565b909155505033600081815260786020908152604080832054815180830183528681528084018981528686526079855283862083875285528386209151825551600190910155938352607a90915281208054869290610fca9084906157de565b90915550506040805183815260208101869052829133917fcc7e0e76b20394ef965d71c4111d21e1b322bb8775dc2c7acd29eb0d3c3dd96d910160405180910390a39150505b919050565b60008282856000015186602001518760a0015160405160200161103c95949392919061589f565b6040516020818303038152906040528051906020012090505b9392505050565b6067546001600160a01b031633146110a35760405162461bcd60e51b815260206004820152600a6024820152693737ba103830bab9b2b960b11b6044820152606401610bb7565b6067805460ff60a01b1916600160a01b831515908102919091179091556040517fd83d5281277e107f080e362699d46082adb74e7dc6a9bccbc87d8ae9533add4490600090a250565b606754600160a01b900460ff16156111165760405162461bcd60e51b8152600401610bb790615808565b61111f336136ab565b61113b5760405162461bcd60e51b8152600401610bb7906158dd565b61114533836123a8565b156111805760405162461bcd60e51b815260206004820152600b60248201526a1b9bdd08185b1b1bddd95960aa1b6044820152606401610bb7565b61118b8282336136e3565b5050565b600080831180156111a05750600082115b6111d75760405162461bcd60e51b81526020600482015260086024820152676d696e2076616c7360c01b6044820152606401610bb7565b60006111e284613222565b905060006111f2825b8590613807565b9050670cf4ad2e86166c9c8112156112175768056bc75e2d63100000925050506112b5565b670de0b6b3a764000068056bc75e2d63100000600061125461124d846112478561124189846138dd565b906138ec565b906138dd565b8490613990565b90506801158e460913d000008112611274576000955050505050506112b5565b61127e8160001390565b156112a65761129a6112976112928361399f565b6139e0565b90565b955050505050506112b5565b61129a6112976111eb836139e0565b92915050565b6000818360200151846000015185606001516040516020016112e09493929190615909565b60405160208183030381529060405280519060200120905092915050565b6000806113096121c7565b9050670de0b6b3a7640000606c54670de0b6b3a764000061132a919061588c565b61133490836157f1565b61133e9190615952565b611348908261588c565b91505090565b6082602052816000526040600020818154811061136a57600080fd5b6000918252602090912001546001600160a01b03169150829050565b60008484848460405160200161139f9493929190615974565b604051602081830303815290604052805190602001209050949350505050565b606a546000906113e4906113dc906001600160401b03164261588c565b6108426121c7565b905090565b6000806113f46121c7565b9050670de0b6b3a7640000606d54670de0b6b3a764000061132a919061588c565b61141d613a92565b606b8190556040518181527f8c854a81cb5c93e7e482d30fb9c6f88fdbdb320f10f7a853c2263659b54e563f906020015b60405180910390a150565b60606110558383613448565b61146d613a92565b606780546001600160a01b0319166001600160a01b0383169081179091556040517f5a85b4270fc1e75035e6cd505418ce65e0bcc36cc7eb9ce9e6f8c6181d4cb57790600090a250565b606754600090600160a01b900460ff16156114e45760405162461bcd60e51b8152600401610bb790615808565b6001600160a01b03851661153a5760405162461bcd60e51b815260206004820152601860248201527f61646472657373206d757374206265206e6f6e2d7a65726f00000000000000006044820152606401610bb7565b60006115468484613448565b604080516080810182528781526001600160a01b038916602082015260009181018290526060810183905291925061157e82336112bb565b6000818152607660205260409020600101549091506001600160a01b0316156115e95760405162461bcd60e51b815260206004820152601860248201527f6d6f64656c20616c7265616479207265676973746572656400000000000000006044820152606401610bb7565b60008181526076602090815260409182902084518155908401516001820180546001600160a01b0319166001600160a01b03909216919091179055908301516002820155606083015183919060038201906116449082615a3e565b50506040518291507fa4b0af38d049ba81703a0d0e46cc2ff39681210302134046237111a8fb7dee7290600090a2979650505050505050565b606754600160a01b900460ff16156116a75760405162461bcd60e51b8152600401610bb790615808565b6000818152607c6020526040902054156116f75760405162461bcd60e51b8152602060048201526011602482015270636f6d6d69746d656e742065786973747360781b6044820152606401610bb7565b6116ff613aec565b6000828152607c6020526040808220929092559051829133917f09b4c028a2e50fec6f1c6a0163c59e8fbe92b231e5c03ef3adec585e63a14b929190a350565b606754600160a01b900460ff16156117695760405162461bcd60e51b8152600401610bb790615808565b6117736001613b7d565b61177e838383613cf6565b505050565b606754600160a01b900460ff16156117ad5760405162461bcd60e51b8152600401610bb790615808565b6117b683613b7d565b60005b83811015611816576118068585838181106117d6576117d6615afd565b905060200201358484848181106117ef576117ef615afd565b90506020028101906118019190615b13565b613cf6565b61180f81615873565b90506117b9565b5050505050565b606754600160a01b900460ff16156118475760405162461bcd60e51b8152600401610bb790615808565b611850336136ab565b61186c5760405162461bcd60e51b8152600401610bb7906158dd565b6000818152607d60205260409020546001600160a01b03166118d05760405162461bcd60e51b815260206004820152601760248201527f736f6c7574696f6e20646f6573206e6f742065786973740000000000000000006044820152606401610bb7565b6000818152607e60205260409020546001600160a01b0316156119355760405162461bcd60e51b815260206004820152601b60248201527f636f6e746573746174696f6e20616c72656164792065786973747300000000006044820152606401610bb7565b6071546000828152607d60205260409020546119619190600160a01b90046001600160401b03166157de565b421061199a5760405162461bcd60e51b8152602060048201526008602482015267746f6f206c61746560c01b6044820152606401610bb7565b6000818152607d6020526040902054600160e01b900460ff16156119e65760405162461bcd60e51b81526020600482015260036024820152623bba3360e91b6044820152606401610bb7565b60006119f06113e9565b60408051608081018252338082526001600160401b0342811660208085019182526000858701818152606087018981528b8352607e909352878220965187549451915163ffffffff16600160e01b026001600160e01b0392909616600160a01b026001600160e01b03199095166001600160a01b03919091161793909317929092169290921784559051600190930192909255915192935084927f6958c989e915d3e41a35076e3c480363910055408055ad86ae1ee13d41c406409190a3611aba826001336136e3565b6000828152607d60209081526040808320546001600160a01b031683526077909152902054811161118b576000828152607d602052604081205461118b9184916001600160a01b03166136e3565b611b10613a92565b611b1a6000613fa6565b565b607d60205260009081526040902080546001820180546001600160a01b03831693600160a01b84046001600160401b031693600160e01b900460ff16929091611b64906159bc565b80601f0160208091040260200160405190810160405280929190818152602001828054611b90906159bc565b8015611bdd5780601f10611bb257610100808354040283529160200191611bdd565b820191906000526020600020905b815481529060010190602001808311611bc057829003601f168201915b5050505050905084565b606754600160a01b900460ff1615611c115760405162461bcd60e51b8152600401610bb790615808565b3360009081526079602090815260408083208584528252918290208251808401909352805480845260019091015491830191909152611c865760405162461bcd60e51b81526020600482015260116024820152701c995c5d595cdd081b9bdd08195e1a5cdd607a1b6044820152606401610bb7565b8051421015611cc55760405162461bcd60e51b815260206004820152600b60248201526a3bb0b4ba103637b733b2b960a91b6044820152606401610bb7565b60208082015133600090815260779092526040909120541015611d1f5760405162461bcd60e51b81526020600482015260126024820152711cdd185ad9481a5b9cdd59999a58da595b9d60721b6044820152606401610bb7565b606554602082015160405163a9059cbb60e01b81526001600160a01b039092169163a9059cbb91611d5591869190600401615b59565b6020604051808303816000875af1158015611d74573d6000803e3d6000fd5b505050506040513d601f19601f82011682018060405250810190611d989190615856565b50602080820151336000908152607790925260408220805491929091611dbf90849061588c565b9091555050602081015160868054600090611ddb90849061588c565b9091555050602080820151336000908152607a90925260408220805491929091611e0690849061588c565b909155505033600081815260796020908152604080832087845282528083208381556001019290925583810151915191825285926001600160a01b0386169290917f109aeff667601aad33abcb7c5df1617754eefd18253d586a95c198cb479b5bd4910160405180910390a4505050565b606754600160a01b900460ff1615611ea15760405162461bcd60e51b8152600401610bb790615808565b611ea96112fe565b6000828152607d60209081526040808320546001600160a01b03168352607a825280832054607790925290912054611ee1919061588c565b1015611f2f5760405162461bcd60e51b815260206004820152601c60248201527f76616c696461746f72206d696e207374616b656420746f6f206c6f77000000006044820152606401610bb7565b6000818152607d60205260409020546001600160a01b0316611f885760405162461bcd60e51b81526020600482015260126024820152711cdbdb1d5d1a5bdb881b9bdd08199bdd5b9960721b6044820152606401610bb7565b6000818152607e60205260409020546001600160a01b031615611fe05760405162461bcd60e51b815260206004820152601060248201526f3430b99031b7b73a32b9ba30ba34b7b760811b6044820152606401610bb7565b607154611fed904261588c565b6000828152607d6020526040902054600160a01b90046001600160401b03161061204c5760405162461bcd60e51b815260206004820152601060248201526f6e6f7420656e6f7567682064656c617960801b6044820152606401610bb7565b6073546071546000838152607d60209081526040808320546001600160a01b03168352608590915290205461208191906157de565b61208b91906157de565b6000828152607d6020526040902054600160a01b90046001600160401b03161161210e5760405162461bcd60e51b815260206004820152602e60248201527f636c61696d536f6c7574696f6e20636f6f6c646f776e206166746572206c6f7360448201526d3a1031b7b73a32b9ba30ba34b7b760911b6064820152608401610bb7565b6000818152607d6020526040902054600160e01b900460ff16156121665760405162461bcd60e51b815260206004820152600f60248201526e185b1c9958591e4818db185a5b5959608a1b6044820152606401610bb7565b6000818152607d6020526040808220805460ff60e01b198116600160e01b17909155905183926001600160a01b03909216917f0b76b4ae356796814d36b46f7c500bbd27b2cce1e6059a6fa2bebfd5a389b19091a36121c481613ff8565b50565b6086546065546040516370a0823160e01b8152306004820152600092839290916001600160a01b03909116906370a0823190602401602060405180830381865afa158015612219573d6000803e3d6000fd5b505050506040513d601f19601f8201168201806040525081019061223d9190615b72565b612247919061588c565b9050697f0e10af47c1c7000000811061226257600091505090565b61134881697f0e10af47c1c700000061588c565b600054610100900460ff16158080156122965750600054600160ff909116105b806122b05750303b1580156122b0575060005460ff166001145b6123135760405162461bcd60e51b815260206004820152602e60248201527f496e697469616c697a61626c653a20636f6e747261637420697320616c72656160448201526d191e481a5b9a5d1a585b1a5e995960921b6064820152608401610bb7565b6000805460ff191660011790558015612336576000805461ff0019166101001790555b610e106071556101686073556203f480607555670de0b6b3a764000060875567016345785d8a0000608955600a608a5580156121c4576000805461ff0019169055604051600181527f7f26b83ff96e1f2b6a682f133852f6798a09c465da95921460cefb38474024989060200161144e565b6000818152607e60205260408120546001600160a01b03166123cc575060016112b5565b6123d582610b1b565b156123e2575060026112b5565b6000828152607f602090815260408083206001600160a01b038716845290915290205460ff1615612415575060036112b5565b6001600160a01b038316600090815260776020526040812060010154900361243f575060046112b5565b6074546001600160a01b038416600090815260776020526040902060010154101561246c575060056112b5565b6000828152607e60209081526040808320546074546001600160a01b03881685526077909352922060010154600160a01b9092046001600160401b0316916124b4919061588c565b11156124c2575060066112b5565b50600092915050565b606754600160a01b900460ff16156124f55760405162461bcd60e51b8152600401610bb790615808565b6000828152607e60205260409020546001600160a01b03166125595760405162461bcd60e51b815260206004820152601a60248201527f636f6e746573746174696f6e20646f65736e27742065786973740000000000006044820152606401610bb7565b61256282610b1b565b6125ae5760405162461bcd60e51b815260206004820152601760248201527f766f74696e6720706572696f64206e6f7420656e6465640000000000000000006044820152606401610bb7565b60008163ffffffff16116125f55760405162461bcd60e51b815260206004820152600e60248201526d185b5b9d081d1bdbc81cdb585b1b60921b6044820152606401610bb7565b6000828152608160209081526040808320546082835281842054607e909352908320549092600160e01b90910463ffffffff16906126338583615b8b565b6000878152607e602052604090206001015490915063ffffffff8085169086161115612a1057600061266b8263ffffffff87166157f1565b905060008663ffffffff1660011461269757612688600283615952565b612692908361588c565b612699565b815b905060008763ffffffff166001146126d5576126b6600189615baf565b63ffffffff166126c6838561588c565b6126d09190615952565b6126d8565b60005b905063ffffffff86165b8563ffffffff16811015612898578863ffffffff168110156128865760008b815260816020526040812080548390811061271e5761271e615afd565b60009182526020808320909101546001600160a01b03168083526077909152604082208054919350889290916127559084906157de565b909155505060008290036127f65760655460405163a9059cbb60e01b81526001600160a01b039091169063a9059cbb906127959084908890600401615b59565b6020604051808303816000875af11580156127b4573d6000803e3d6000fd5b505050506040513d601f19601f820116820180604052508101906127d89190615856565b5083608660008282546127eb919061588c565b909155506128849050565b60655460405163a9059cbb60e01b81526001600160a01b039091169063a9059cbb906128289084908790600401615b59565b6020604051808303816000875af1158015612847573d6000803e3d6000fd5b505050506040513d601f19601f8201168201806040525081019061286b9190615856565b50826086600082825461287e919061588c565b90915550505b505b8061289081615873565b9150506126e2565b5060008a8152607e6020526040812054600160e01b900463ffffffff169003612a085760655460008b8152607b602052604090819020600281015460019190910154915163a9059cbb60e01b81526001600160a01b039384169363a9059cbb936129089390911691600401615b59565b6020604051808303816000875af1158015612927573d6000803e3d6000fd5b505050506040513d601f19601f8201168201806040525081019061294b9190615856565b5060008a8152607b6020526040812060010154608680549192909161297190849061588c565b909155505060008a815260836020908152604080832054608190925282208054919260779290919082906129a7576129a7615afd565b60009182526020808320909101546001600160a01b03168352820192909252604001812080549091906129db9084906157de565b909155505060008a8152607d60209081526040808320546001600160a01b03168352608590915290204290555b505050612c75565b6000612a228263ffffffff88166157f1565b905060008563ffffffff16600114612a4457612a3f600283615952565b612a46565b815b905060008663ffffffff16600114612a8257612a63600188615baf565b63ffffffff16612a73838561588c565b612a7d9190615952565b612a85565b60005b905063ffffffff86165b8563ffffffff16811015612c45578763ffffffff16811015612c335760008b8152608260205260408120805483908110612acb57612acb615afd565b60009182526020808320909101546001600160a01b0316808352607790915260408220805491935088929091612b029084906157de565b90915550506000829003612ba35760655460405163a9059cbb60e01b81526001600160a01b039091169063a9059cbb90612b429084908890600401615b59565b6020604051808303816000875af1158015612b61573d6000803e3d6000fd5b505050506040513d601f19601f82011682018060405250810190612b859190615856565b508360866000828254612b98919061588c565b90915550612c319050565b60655460405163a9059cbb60e01b81526001600160a01b039091169063a9059cbb90612bd59084908790600401615b59565b6020604051808303816000875af1158015612bf4573d6000803e3d6000fd5b505050506040513d601f19601f82011682018060405250810190612c189190615856565b508260866000828254612c2b919061588c565b90915550505b505b80612c3d81615873565b915050612a8f565b5060008a8152607e6020526040812054600160e01b900463ffffffff169003612c7157612c718a613ff8565b5050505b6000878152607e602090815260409182902080546001600160e01b0316600160e01b63ffffffff8781169182029290921790925592519081529185169189917f71d8c71303e35a39162e33a402c9897bf9848388537bac7d5e1b0d202eca4e66910160405180910390a350505050505050565b606754600160a01b900460ff1615612d125760405162461bcd60e51b8152600401610bb790615808565b6065546040516323b872dd60e01b8152336004820152306024820152604481018390526001600160a01b03909116906323b872dd906064016020604051808303816000875af1158015612d69573d6000803e3d6000fd5b505050506040513d601f19601f82011682018060405250810190612d8d9190615856565b508060866000828254612da091906157de565b9091555060009050612db06112fe565b6001600160a01b0384166000908152607760205260409020549091508110612e1d576001600160a01b0383166000908152607760205260409020548190612df89084906157de565b10612e1d576001600160a01b0383166000908152607760205260409020426001909101555b604080516060810182526001600160a01b0385166000908152607760205291909120548190612e4d9085906157de565b81526001600160a01b038581166000818152607760208181526040808420600181018054848a015297820186905293859052918152865183558681015190955594850151600290910180546001600160a01b0319169190931617909155915184815233917f8d4844488c19a90828439e71d14ebad860806d04f8ef8b25a82179fab2699b8991015b60405180910390a3505050565b612eea613a92565b6000828152607660205260409020600101546001600160a01b0316612f215760405162461bcd60e51b8152600401610bb790615828565b600082815260766020526040908190206002018290555182907f0321e8a918b4c47bf3677852c070983825f30a47bc8d9416691454fa6a727d6390612f699084815260200190565b60405180910390a25050565b600081600003612f8e5750670de0b6b3a76400006112b5565b670de0b6b3a7640000697f0e10af47c1c7000000612fac858561118f565b670de0b6b3a7640000612fc986697f0e10af47c1c700000061588c565b612fd391906157f1565b612fdd91906157f1565b612fe79190615952565b6110559190615952565b612ff9613a92565b606a805467ffffffffffffffff19166001600160401b0383169081179091556040517fa15d6b0930a82638ac4775bfd1b2e9f1e86be67e1bd3a09fa8a77a8f079769d790600090a250565b606754600160a01b900460ff161561306e5760405162461bcd60e51b8152600401610bb790615808565b60655460665460685460405163a9059cbb60e01b81526001600160a01b039384169363a9059cbb936130a593911691600401615b59565b6020604051808303816000875af11580156130c4573d6000803e3d6000fd5b505050506040513d601f19601f820116820180604052508101906130e89190615856565b50606854608660008282546130fd919061588c565b90915550506000606855565b606754600160a01b900460ff16156131335760405162461bcd60e51b8152600401610bb790615808565b33600090815260796020908152604080832084845282529182902082518084019093528054808452600190910154918301919091526131a85760405162461bcd60e51b81526020600482015260116024820152701c995c5d595cdd081b9bdd08195e1a5cdd607a1b6044820152606401610bb7565b602080820151336000908152607a909252604082208054919290916131ce90849061588c565b9091555050336000818152607960209081526040808320868452909152808220828155600101829055518492917ff9d5cfcdfe9803069225971ba315f4302add9b477c3441cc363bc38fdb065b9091a35050565b600063bbf81e008211156132415750697f0e10af47c1c7000000919050565b600061325c611297613257856301e133806144df565b6144f7565b9050670de0b6b3a76400008161327c697f0e10af47c1c7000000836157f1565b61328e90670de0b6b3a76400006157f1565b6132989190615952565b6132a29190615952565b61105590697f0e10af47c1c700000061588c565b6081602052816000526040600020818154811061136a57600080fd5b6132da613a92565b606680546001600160a01b0319166001600160a01b0383169081179091556040517f6bdb9ceff405d990c9b60be9f719fbb80889d5f064e8fd76efd5bea353e9071290600090a250565b607660205260009081526040902080546001820154600283015460038401805493946001600160a01b0390931693919291611b64906159bc565b607b602052600090815260409020805460018201546002830154600384018054939492936001600160a01b03831693600160a01b84046001600160401b031693600160e01b900460ff169290916133b4906159bc565b80601f01602080910402602001604051908101604052809291908181526020018280546133e0906159bc565b801561342d5780601f106134025761010080835404028352916020019161342d565b820191906000526020600020905b81548152906001019060200180831161341057829003601f168201915b5050505050905086565b61343f613a92565b6121c48161454d565b60606201000082111561349d5760405162461bcd60e51b815260206004820152601f60248201527f4d617820636f6e74656e742073697a65206973203635353336206279746573006044820152606401610bb7565b60006134a8836145c3565b90506000818585846040516020016134c39493929190615bcc565b604051602081830303815290604052905060026134e082516145c3565b826040516020016134f2929190615c23565b60408051601f198184030181529082905261350c91615c63565b602060405180830381855afa158015613529573d6000803e3d6000fd5b5050506040513d601f19601f8201168201806040525081019061354c9190615b72565b604051609160f51b602082015260228101919091526042016040516020818303038152906040529250505092915050565b60006040518060c00160405280858152602001848152602001866001600160a01b03168152602001426001600160401b031681526020018760ff16815260200183815250905060006135d28233606954611015565b6000818152607b602090815260409182902085518155908501516001820155908401516002820180546060870151608088015160ff16600160e01b0260ff60e01b196001600160401b03909216600160a01b026001600160e01b03199093166001600160a01b0390951694909417919091171691909117905560a0840151919250839160038201906136649082615a3e565b5050604051858152339150869083907fc3d3e0544c80e3bb83f62659259ae1574f72a91515ab3cae3dd75cf77e1b0aea9060200160405180910390a4606955505050505050565b60006136b56112fe565b336000908152607a60209081526040808320546077909252909120546136db919061588c565b101592915050565b6000838152607f602090815260408083206001600160a01b03851684529091529020805460ff1916600117905581156137525760008381526081602090815260408220805460018101825590835291200180546001600160a01b0319166001600160a01b03831617905561378a565b60008381526082602090815260408220805460018101825590835291200180546001600160a01b0319166001600160a01b0383161790555b6000838152607e60209081526040808320600101546001600160a01b0385168452607790925282208054919290916137c390849061588c565b9091555050604051821515815283906001600160a01b038316907f1aa9e4be46e24e1f2e7eeb1613c01629213cd42965d2716e18531b63e552e41190602001612ed5565b60008282600160ff1b8214806138205750600160ff1b81145b1561383e576040516309fe2b4560e41b815260040160405180910390fd5b6000806000841261384f5783613854565b836000035b9150600083126138645782613869565b826000035b9050600061388083670de0b6b3a76400008461471a565b90506001600160ff1b038111156138b45760405163d49c26b360e01b81526004810189905260248101889052604401610bb7565b600019858518136138d0816138cc5782600003611297565b8290565b9998505050505050505050565b60006110556112978385615c7f565b60008282600160ff1b8214806139055750600160ff1b81145b156139235760405163a6070c2560e01b815260040160405180910390fd5b600080600084126139345783613939565b836000035b915060008312613949578261394e565b826000035b9050600061395c83836147ee565b90506001600160ff1b038111156138b45760405163120b5b4360e01b81526004810189905260248101889052604401610bb7565b60006110556112978385615c9f565b600081600160ff1b81016139c65760405163ec2b9e6760e01b815260040160405180910390fd5b600081126139d45782611055565b61105561129782615cc7565b60008181811215613a415768033dd1780914b9711419811215613a065750600092915050565b613a3a613a196112976112928460000390565b6ec097ce7bc90715b34b9f100000000081613a3657613a3661593c565b0590565b9150613a8c565b680a688906bd8affffff811315613a6d57604051626c1a0560e31b815260048101849052602401610bb7565b670de0b6b3a7640000604082901b05613a88611297826148a4565b9250505b50919050565b6033546001600160a01b03163314611b1a5760405162461bcd60e51b815260206004820181905260248201527f4f776e61626c653a2063616c6c6572206973206e6f7420746865206f776e65726044820152606401610bb7565b60004661a4ba811480613b01575062066eed81145b80613b0e575062066eee81145b15613b765760646001600160a01b031663a3b1b31d6040518163ffffffff1660e01b8152600401602060405180830381865afa158015613b52573d6000803e3d6000fd5b505050506040513d601f19601f820116820180604052508101906113489190615b72565b4391505090565b60735460715433600090815260856020526040902054613b9d91906157de565b613ba791906157de565b4211613c0d5760405162461bcd60e51b815260206004820152602f60248201527f7375626d6974536f6c7574696f6e20636f6f6c646f776e206166746572206c6f60448201526e39ba1031b7b73a32b9ba30ba34b7b760891b6064820152608401610bb7565b80608454613c1b91906157f1565b3360009081526077602052604081208054909190613c3a90849061588c565b9091555050608754670de0b6b3a764000090613c579083906157f1565b613c619190615952565b33600090815260886020526040902054613c7b904261588c565b1015613cbf5760405162461bcd60e51b81526020600482015260136024820152721cdbdb1d5d1a5bdb881c985d19481b1a5b5a5d606a1b6044820152606401610bb7565b336000818152608860205260409020429055613cda906136ab565b6121c45760405162461bcd60e51b8152600401610bb7906158dd565b6000838152607b6020526040902054613d475760405162461bcd60e51b81526020600482015260136024820152721d185cdac8191bd95cc81b9bdd08195e1a5cdd606a1b6044820152606401610bb7565b6000838152607d60205260409020546001600160a01b031615613dac5760405162461bcd60e51b815260206004820152601a60248201527f736f6c7574696f6e20616c7265616479207375626d69747465640000000000006044820152606401610bb7565b6000613dba33858585611386565b6000818152607c6020526040902054909150613e185760405162461bcd60e51b815260206004820152601760248201527f6e6f6e206578697374656e7420636f6d6d69746d656e740000000000000000006044820152606401610bb7565b613e20613aec565b6000828152607c602052604090205410613e7c5760405162461bcd60e51b815260206004820152601a60248201527f636f6d6d69746d656e74206d75737420626520696e20706173740000000000006044820152606401610bb7565b6040518060800160405280336001600160a01b03168152602001426001600160401b0316815260200160001515815260200184848080601f0160208091040260200160405190810160405280939291908181526020018383808284376000920182905250939094525050868152607d60209081526040918290208451815492860151938601511515600160e01b0260ff60e01b196001600160401b03909516600160a01b026001600160e01b03199094166001600160a01b0390921691909117929092179290921617815560608301519091506001820190613f5e9082615a3e565b505060845460008681526083602052604080822092909255905186925033917f957c18b5af8413899ea8a576a4d3fb16839a02c9fccfdce098b6d59ef248525b91a350505050565b603380546001600160a01b038381166001600160a01b0319831681179093556040519116919082907f8be0079c531659141344cd1fd0a4f28419497f9722a3daafe3b4186f6b6457e090600090a35050565b6000818152607b60208181526040808420805485526076835290842054938590529190526001015481111561402b575060005b80156140c9576065546000838152607b6020908152604080832054835260769091529081902060010154905163a9059cbb60e01b81526001600160a01b039283169263a9059cbb92614084929116908590600401615b59565b6020604051808303816000875af11580156140a3573d6000803e3d6000fd5b505050506040513d601f19601f820116820180604052508101906140c79190615856565b505b6000828152607b60205260408120600101546140e690839061588c565b90506000670de0b6b3a7640000606e54670de0b6b3a7640000614109919061588c565b61411390846157f1565b61411d9190615952565b614127908361588c565b9050806068600082825461413b91906157de565b909155506000905061414d828461588c565b905080156141e6576065546000868152607d60205260409020546001600160a01b039182169163a9059cbb9116614184858761588c565b6040518363ffffffff1660e01b81526004016141a1929190615b59565b6020604051808303816000875af11580156141c0573d6000803e3d6000fd5b505050506040513d601f19601f820116820180604052508101906141e49190615856565b505b6000858152607b6020908152604080832054835260769091529020600201548015614462576000670de0b6b3a76400008261421f6113bf565b61422991906157f1565b6142339190615952565b90508015614460576000670de0b6b3a7640000607054670de0b6b3a764000061425c919061588c565b61426690846157f1565b6142709190615952565b61427a908361588c565b90506000670de0b6b3a7640000608954670de0b6b3a764000061429d919061588c565b6142a790856157f1565b6142b19190615952565b6142bb908461588c565b60655460008b8152607d60205260409020549192506001600160a01b039081169163a9059cbb9116836142ee868861588c565b6142f8919061588c565b6040518363ffffffff1660e01b8152600401614315929190615b59565b6020604051808303816000875af1158015614334573d6000803e3d6000fd5b505050506040513d601f19601f820116820180604052508101906143589190615856565b5060655460665460405163a9059cbb60e01b81526001600160a01b039283169263a9059cbb9261438f929116908690600401615b59565b6020604051808303816000875af11580156143ae573d6000803e3d6000fd5b505050506040513d601f19601f820116820180604052508101906143d29190615856565b5060655460008a8152607b60205260409081902060020154905163a9059cbb60e01b81526001600160a01b039283169263a9059cbb92614419929116908590600401615b59565b6020604051808303816000875af1158015614438573d6000803e3d6000fd5b505050506040513d601f19601f8201168201806040525081019061445c9190615856565b5050505b505b600086815260836020908152604080832054607d8352818420546001600160a01b031684526077909252822080549192909161449f9084906157de565b90915550506000868152607b60205260409020600101546144c190849061588c565b608660008282546144d2919061588c565b9091555050505050505050565b600061105561129784670de0b6b3a76400008561471a565b600081680a688906bd8affffff8111156145275760405163b3b6ba1f60e01b815260048101849052602401610bb7565b600061453f670de0b6b3a7640000604084901b615952565b9050613a88611297826148a4565b614555613a92565b6001600160a01b0381166145ba5760405162461bcd60e51b815260206004820152602660248201527f4f776e61626c653a206e6577206f776e657220697320746865207a65726f206160448201526564647265737360d01b6064820152608401610bb7565b6121c481613fa6565b60608160015b607f826001600160401b031611156145fc576007826001600160401b0316901c9150806145f590615ce3565b90506145c9565b6000816001600160401b03166001600160401b0381111561461f5761461f615184565b6040519080825280601f01601f191660200182016040528015614649576020820181803683370190505b50905084925060005b826001600160401b0316816001600160401b031610156146cb5783607f1660801760f81b82826001600160401b03168151811061469157614691615afd565b60200101906001600160f81b031916908160001a9053506007846001600160401b0316901c935080806146c390615ce3565b915050614652565b50607f60f81b816146dd600185615d09565b6001600160401b0316815181106146f6576146f6615afd565b0160200180519091166001600160f81b03191690600082901a905350949350505050565b60008080600019858709858702925082811083820303915050806000036147545783828161474a5761474a61593c565b0492505050611055565b83811061478557604051630c740aef60e31b8152600481018790526024810186905260448101859052606401610bb7565b60008486880960026001871981018816978890046003810283188082028403028082028403028082028403028082028403028082028403029081029092039091026000889003889004909101858311909403939093029303949094049190911702949350505050565b60008080600019848609848602925082811083820303915050806000036148225750670de0b6b3a7640000900490506112b5565b670de0b6b3a7640000811061485457604051635173648d60e01b81526004810186905260248101859052604401610bb7565b6000670de0b6b3a764000085870962040000818503049310909103600160ee1b02919091177faccb18165bd6fe31ae1cf318dc5b51eee0e1ba569b88cd74c1773b91fac106690291505092915050565b600160bf1b67ff000000000000008216156149b1576780000000000000008216156148d85768016a09e667f3bcc9090260401c5b6740000000000000008216156148f7576801306fe0a31b7152df0260401c5b672000000000000000821615614916576801172b83c7d517adce0260401c5b6710000000000000008216156149355768010b5586cf9890f62a0260401c5b670800000000000000821615614954576801059b0d31585743ae0260401c5b67040000000000000082161561497357680102c9a3e778060ee70260401c5b6702000000000000008216156149925768010163da9fb33356d80260401c5b6701000000000000008216156149b157680100b1afa5abcbed610260401c5b66ff000000000000821615614ab05766800000000000008216156149de5768010058c86da1c09ea20260401c5b66400000000000008216156149fc576801002c605e2e8cec500260401c5b6620000000000000821615614a1a57680100162f3904051fa10260401c5b6610000000000000821615614a38576801000b175effdc76ba0260401c5b6608000000000000821615614a5657680100058ba01fb9f96d0260401c5b6604000000000000821615614a745768010002c5cc37da94920260401c5b6602000000000000821615614a92576801000162e525ee05470260401c5b6601000000000000821615614ab05768010000b17255775c040260401c5b65ff0000000000821615614ba65765800000000000821615614adb576801000058b91b5bc9ae0260401c5b65400000000000821615614af857680100002c5c89d5ec6d0260401c5b65200000000000821615614b155768010000162e43f4f8310260401c5b65100000000000821615614b3257680100000b1721bcfc9a0260401c5b65080000000000821615614b4f5768010000058b90cf1e6e0260401c5b65040000000000821615614b6c576801000002c5c863b73f0260401c5b65020000000000821615614b8957680100000162e430e5a20260401c5b65010000000000821615614ba6576801000000b1721835510260401c5b64ff00000000821615614c9357648000000000821615614bcf57680100000058b90c0b490260401c5b644000000000821615614beb5768010000002c5c8601cc0260401c5b642000000000821615614c07576801000000162e42fff00260401c5b641000000000821615614c235768010000000b17217fbb0260401c5b640800000000821615614c3f576801000000058b90bfce0260401c5b640400000000821615614c5b57680100000002c5c85fe30260401c5b640200000000821615614c775768010000000162e42ff10260401c5b640100000000821615614c9357680100000000b17217f80260401c5b63ff000000821615614d77576380000000821615614cba5768010000000058b90bfc0260401c5b6340000000821615614cd5576801000000002c5c85fe0260401c5b6320000000821615614cf057680100000000162e42ff0260401c5b6310000000821615614d0b576801000000000b17217f0260401c5b6308000000821615614d2657680100000000058b90c00260401c5b6304000000821615614d415768010000000002c5c8600260401c5b6302000000821615614d5c576801000000000162e4300260401c5b6301000000821615614d775768010000000000b172180260401c5b62ff0000821615614e525762800000821615614d9c576801000000000058b90c0260401c5b62400000821615614db657680100000000002c5c860260401c5b62200000821615614dd05768010000000000162e430260401c5b62100000821615614dea57680100000000000b17210260401c5b62080000821615614e045768010000000000058b910260401c5b62040000821615614e1e576801000000000002c5c80260401c5b62020000821615614e3857680100000000000162e40260401c5b62010000821615614e52576801000000000000b1720260401c5b61ff00821615614f2457618000821615614e7557680100000000000058b90260401c5b614000821615614e8e5768010000000000002c5d0260401c5b612000821615614ea7576801000000000000162e0260401c5b611000821615614ec05768010000000000000b170260401c5b610800821615614ed9576801000000000000058c0260401c5b610400821615614ef257680100000000000002c60260401c5b610200821615614f0b57680100000000000001630260401c5b610100821615614f2457680100000000000000b10260401c5b60ff821615614fed576080821615614f4557680100000000000000590260401c5b6040821615614f5d576801000000000000002c0260401c5b6020821615614f7557680100000000000000160260401c5b6010821615614f8d576801000000000000000b0260401c5b6008821615614fa557680100000000000000060260401c5b6004821615614fbd57680100000000000000030260401c5b6002821615614fd557680100000000000000010260401c5b6001821615614fed57680100000000000000010260401c5b670de0b6b3a76400000260409190911c60bf031c90565b60006020828403121561501657600080fd5b5035919050565b803560ff8116811461101057600080fd5b80356001600160a01b038116811461101057600080fd5b60008083601f84011261505757600080fd5b5081356001600160401b0381111561506e57600080fd5b60208301915083602082850101111561508657600080fd5b9250929050565b60008060008060008060a087890312156150a657600080fd5b6150af8761501d565b95506150bd6020880161502e565b9450604087013593506060870135925060808701356001600160401b038111156150e657600080fd5b6150f289828a01615045565b979a9699509497509295939492505050565b600080600080600080600060c0888a03121561511f57600080fd5b6151288861501d565b96506151366020890161502e565b9550604088013594506060880135935060808801356001600160401b0381111561515f57600080fd5b61516b8a828b01615045565b989b979a5095989497959660a090950135949350505050565b634e487b7160e01b600052604160045260246000fd5b60405160c081016001600160401b03811182821017156151bc576151bc615184565b60405290565b80356001600160401b038116811461101057600080fd5b600082601f8301126151ea57600080fd5b81356001600160401b038082111561520457615204615184565b604051601f8301601f19908116603f0116810190828211818310171561522c5761522c615184565b8160405283815286602085880101111561524557600080fd5b836020870160208301376000602085830101528094505050505092915050565b60008060006060848603121561527a57600080fd5b83356001600160401b038082111561529157600080fd5b9085019060c082880312156152a557600080fd5b6152ad61519a565b82358152602083013560208201526152c76040840161502e565b60408201526152d8606084016151c2565b60608201526152e96080840161501d565b608082015260a08301358281111561530057600080fd5b61530c898286016151d9565b60a08301525094506153239150506020850161502e565b9150604084013590509250925092565b80151581146121c457600080fd5b60006020828403121561535357600080fd5b813561105581615333565b6000806040838503121561537157600080fd5b82359150602083013561538381615333565b809150509250929050565b6000602082840312156153a057600080fd5b6110558261502e565b600080604083850312156153bc57600080fd5b50508035926020909101359150565b600080604083850312156153de57600080fd5b82356001600160401b03808211156153f557600080fd5b908401906080828703121561540957600080fd5b60405160808101818110838211171561542457615424615184565b604052823581526154376020840161502e565b60208201526040830135604082015260608301358281111561545857600080fd5b615464888286016151d9565b606083015250935061547b9150506020840161502e565b90509250929050565b6000806000806060858703121561549a57600080fd5b6154a38561502e565b93506020850135925060408501356001600160401b038111156154c557600080fd5b6154d187828801615045565b95989497509550505050565b600080602083850312156154f057600080fd5b82356001600160401b0381111561550657600080fd5b61551285828601615045565b90969095509350505050565b60005b83811015615539578181015183820152602001615521565b50506000910152565b6000815180845261555a81602086016020860161551e565b601f01601f19169290920160200192915050565b6020815260006110556020830184615542565b60008060006040848603121561559657600080fd5b8335925060208401356001600160401b038111156155b357600080fd5b6155bf86828701615045565b9497909650939450505050565b60008083601f8401126155de57600080fd5b5081356001600160401b038111156155f557600080fd5b6020830191508360208260051b850101111561508657600080fd5b6000806000806040858703121561562657600080fd5b84356001600160401b038082111561563d57600080fd5b615649888389016155cc565b9096509450602087013591508082111561566257600080fd5b506154d1878288016155cc565b6001600160a01b03851681526001600160401b038416602082015282151560408201526080606082018190526000906156aa90830184615542565b9695505050505050565b600080604083850312156156c757600080fd5b8235915061547b6020840161502e565b600080604083850312156156ea57600080fd5b6156f38361502e565b946020939093013593505050565b6000806040838503121561571457600080fd5b82359150602083013563ffffffff8116811461538357600080fd5b60006020828403121561574157600080fd5b611055826151c2565b84815260018060a01b03841660208201528260408201526080606082015260006156aa6080830184615542565b86815285602082015260018060a01b03851660408201526001600160401b038416606082015260ff8316608082015260c060a082015260006157bc60c0830184615542565b98975050505050505050565b634e487b7160e01b600052601160045260246000fd5b808201808211156112b5576112b56157c8565b80820281158282048414176112b5576112b56157c8565b6020808252600690820152651c185d5cd95960d21b604082015260600190565b6020808252601490820152731b5bd9195b08191bd95cc81b9bdd08195e1a5cdd60621b604082015260600190565b60006020828403121561586857600080fd5b815161105581615333565b600060018201615885576158856157c8565b5060010190565b818103818111156112b5576112b56157c8565b60018060a01b038616815284602082015283604082015282606082015260a0608082015260006158d260a0830184615542565b979650505050505050565b6020808252601290820152716d696e207374616b656420746f6f206c6f7760701b604082015260600190565b6001600160a01b03858116825284166020820152604081018390526080606082018190526000906156aa90830184615542565b634e487b7160e01b600052601260045260246000fd5b60008261596f57634e487b7160e01b600052601260045260246000fd5b500490565b6001600160a01b0385168152602081018490526060604082018190528101829052818360808301376000818301608090810191909152601f909201601f191601019392505050565b600181811c908216806159d057607f821691505b602082108103613a8c57634e487b7160e01b600052602260045260246000fd5b601f82111561177e57600081815260208120601f850160051c81016020861015615a175750805b601f850160051c820191505b81811015615a3657828155600101615a23565b505050505050565b81516001600160401b03811115615a5757615a57615184565b615a6b81615a6584546159bc565b846159f0565b602080601f831160018114615aa05760008415615a885750858301515b600019600386901b1c1916600185901b178555615a36565b600085815260208120601f198616915b82811015615acf57888601518255948401946001909101908401615ab0565b5085821015615aed5787850151600019600388901b60f8161c191681555b5050505050600190811b01905550565b634e487b7160e01b600052603260045260246000fd5b6000808335601e19843603018112615b2a57600080fd5b8301803591506001600160401b03821115615b4457600080fd5b60200191503681900382131561508657600080fd5b6001600160a01b03929092168252602082015260400190565b600060208284031215615b8457600080fd5b5051919050565b63ffffffff818116838216019080821115615ba857615ba86157c8565b5092915050565b63ffffffff828116828216039080821115615ba857615ba86157c8565b6204010960e91b81528451600090615beb816003850160208a0161551e565b820184866003830137600360fb1b6003918601918201528351615c1581600484016020880161551e565b016004019695505050505050565b600560f91b81528251600090615c4081600185016020880161551e565b835190830190615c5781600184016020880161551e565b01600101949350505050565b60008251615c7581846020870161551e565b9190910192915050565b8181036000831280158383131683831282161715615ba857615ba86157c8565b8082018281126000831280158216821582161715615cbf57615cbf6157c8565b505092915050565b6000600160ff1b8201615cdc57615cdc6157c8565b5060000390565b60006001600160401b03808316818103615cff57615cff6157c8565b6001019392505050565b6001600160401b03828116828216039080821115615ba857615ba86157c856fea2646970667358221220aac09bdc5dd42104f7fe6a3bb29d5a3eadd0caf0554d79b64bc27e185bf4544364736f6c63430008130033",
  "linkReferences": {},
  "deployedLinkReferences": {}
}