{
  "_format": "hh-sol-artifact-1",
  "contractName": "LookupTaskCID",
  "sourceName": "contracts/Example/LookupTaskCID.sol",
  "abi": [
    {
      "inputs": [
        {
          "internalType": "contract IArbius",
          "name": "_arbius",
          "type": "address"
        }
      ],
      "stateMutability": "nonpayable",
      "type": "constructor"
    },
    {
      "inputs": [
        {
          "internalType": "bytes32",
          "name": "taskid",
          "type": "bytes32"
        }
      ],
      "name": "lookupTaskCID",
      "outputs": [
        {
          "internalType": "bytes",
          "name": "",
          "type": "bytes"
        }
      ],
      "stateMutability": "view",
      "type": "function"
    }
  ],
  "bytecode": "0x608060405234801561001057600080fd5b506040516103d03803806103d083398101604081905261002f91610054565b600080546001600160a01b0319166001600160a01b0392909216919091179055610084565b60006020828403121561006657600080fd5b81516001600160a01b038116811461007d57600080fd5b9392505050565b61033d806100936000396000f3fe608060405234801561001057600080fd5b506004361061002b5760003560e01c8063eecd522614610030575b600080fd5b61004361003e3660046100d7565b610059565b6040516100509190610114565b60405180910390f35b6000805460405162e579f560e81b815260048101849052606092916001600160a01b03169063e579f50090602401600060405180830381865afa1580156100a4573d6000803e3d6000fd5b505050506040513d6000823e601f3d908101601f191682016040526100cc9190810190610253565b60a001519392505050565b6000602082840312156100e957600080fd5b5035919050565b60005b8381101561010b5781810151838201526020016100f3565b50506000910152565b60208152600082518060208401526101338160408501602087016100f0565b601f01601f19169190910160400192915050565b634e487b7160e01b600052604160045260246000fd5b60405160c0810167ffffffffffffffff8111828210171561018057610180610147565b60405290565b80516001600160a01b038116811461019d57600080fd5b919050565b805167ffffffffffffffff8116811461019d57600080fd5b805160ff8116811461019d57600080fd5b600082601f8301126101dc57600080fd5b815167ffffffffffffffff808211156101f7576101f7610147565b604051601f8301601f19908116603f0116810190828211818310171561021f5761021f610147565b8160405283815286602085880101111561023857600080fd5b6102498460208301602089016100f0565b9695505050505050565b60006020828403121561026557600080fd5b815167ffffffffffffffff8082111561027d57600080fd5b9083019060c0828603121561029157600080fd5b61029961015d565b82518152602083015160208201526102b360408401610186565b60408201526102c4606084016101a2565b60608201526102d5608084016101ba565b608082015260a0830151828111156102ec57600080fd5b6102f8878286016101cb565b60a0830152509594505050505056fea2646970667358221220faf52867f43e5fcc7193396109d07318665ffb0a090fc8ad9b922503e785e5f464736f6c63430008130033",
  "linkReferences": {},
  "deployedLinkReferences": {}
}