{
  "_format": "hh-sol-artifact-1",
  "contractName": "LookupSolutionCID",
  "sourceName": "contracts/Example/LookupSolutionCID.sol",
  "abi": [
    {
      "inputs": [
        {
          "internalType": "contract IArbius",
          "name": "_arbius",
          "type": "address"
        }
      ],
      "stateMutability": "nonpayable",
      "type": "constructor"
    },
    {
      "inputs": [
        {
          "internalType": "bytes32",
          "name": "taskid",
          "type": "bytes32"
        }
      ],
      "name": "lookupSolutionCID",
      "outputs": [
        {
          "internalType": "bytes",
          "name": "",
          "type": "bytes"
        }
      ],
      "stateMutability": "view",
      "type": "function"
    }
  ],
  "bytecode": "0x60803461007457601f6102ee38819003918201601f19168301916001600160401b038311848410176100795780849260209460405283398101031261007457516001600160a01b0381169081900361007457600080546001600160a01b03191691909117905560405161025e90816100908239f35b600080fd5b634e487b7160e01b600052604160045260246000fdfe60806040818152600436101561001457600080fd5b6000803560e01c634d4d0ba71461002a57600080fd5b3461018d576020908160031936011261018d5760018060a01b03908085602481858454166375c7050960e01b825260043560048301525afa9485156101c05781956100a5575b505050606061009793015182519382859384528251928184809387015286860191016101cc565b601f01601f19168101030190f35b909194503d8083833e6100b881836101ef565b810191838284031261018d5781516001600160401b03928382116101a457016080818503126101bc5785519660808801888110858211176101a8578752815190811681036101a45787528481015183811681036101a457858801528581015180151581036101a457868801526060810151908382116101a457019083601f8301121561018d5781519283116101905785519361015d601f8501601f19168701866101ef565b83855285848401011161018d57509161018261009796926060948680850191016101cc565b828201529338610070565b80fd5b634e487b7160e01b81526041600452602490fd5b8280fd5b634e487b7160e01b84526041600452602484fd5b5080fd5b508351903d90823e3d90fd5b60005b8381106101df5750506000910152565b81810151838201526020016101cf565b601f909101601f19168101906001600160401b0382119082101761021257604052565b634e487b7160e01b600052604160045260246000fdfea264697066735822122087021361a1eafc18506410e0ff6096d44f96a876e3d3fb71e5a4f685b438eb6964736f6c63430008130033",
  "linkReferences": {},
  "deployedLinkReferences": {}
}