{"contracts/EngineV1.sol":{"EngineV1":{"abi":[{"inputs":[],"stateMutability":"nonpayable","type":"constructor"},{"inputs":[{"internalType":"uint256","name":"x","type":"uint256"},{"internalType":"uint256","name":"y","type":"uint256"}],"name":"PRBMath_MulDiv18_Overflow","type":"error"},{"inputs":[{"internalType":"uint256","name":"x","type":"uint256"},{"internalType":"uint256","name":"y","type":"uint256"},{"internalType":"uint256","name":"denominator","type":"uint256"}],"name":"PRBMath_MulDiv_Overflow","type":"error"},{"inputs":[],"name":"PRBMath_SD59x18_Abs_MinSD59x18","type":"error"},{"inputs":[],"name":"PRBMath_SD59x18_Div_InputTooSmall","type":"error"},{"inputs":[{"internalType":"SD59x18","name":"x","type":"int256"},{"internalType":"SD59x18","name":"y","type":"int256"}],"name":"PRBMath_SD59x18_Div_Overflow","type":"error"},{"inputs":[{"internalType":"SD59x18","name":"x","type":"int256"}],"name":"PRBMath_SD59x18_Exp2_InputTooBig","type":"error"},{"inputs":[],"name":"PRBMath_SD59x18_Mul_InputTooSmall","type":"error"},{"inputs":[{"internalType":"SD59x18","name":"x","type":"int256"},{"internalType":"SD59x18","name":"y","type":"int256"}],"name":"PRBMath_SD59x18_Mul_Overflow","type":"error"},{"inputs":[{"internalType":"UD60x18","name":"x","type":"uint256"}],"name":"PRBMath_UD60x18_Exp2_InputTooBig","type":"error"},{"anonymous":false,"inputs":[{"indexed":true,"internalType":"address","name":"addr","type":"address"},{"indexed":true,"internalType":"bytes32","name":"task","type":"bytes32"}],"name":"ContestationSubmitted","type":"event"},{"anonymous":false,"inputs":[{"indexed":true,"internalType":"address","name":"addr","type":"address"},{"indexed":true,"internalType":"bytes32","name":"task","type":"bytes32"},{"indexed":false,"internalType":"bool","name":"yea","type":"bool"}],"name":"ContestationVote","type":"event"},{"anonymous":false,"inputs":[{"indexed":true,"internalType":"bytes32","name":"id","type":"bytes32"},{"indexed":true,"internalType":"uint32","name":"start_idx","type":"uint32"},{"indexed":false,"internalType":"uint32","name":"end_idx","type":"uint32"}],"name":"ContestationVoteFinish","type":"event"},{"anonymous":false,"inputs":[{"indexed":true,"internalType":"uint256","name":"amount","type":"uint256"}],"name":"ExitValidatorMinUnlockTimeChanged","type":"event"},{"anonymous":false,"inputs":[{"indexed":false,"internalType":"uint8","name":"version","type":"uint8"}],"name":"Initialized","type":"event"},{"anonymous":false,"inputs":[{"indexed":true,"internalType":"uint256","name":"amount","type":"uint256"}],"name":"MaxContestationValidatorStakeSinceChanged","type":"event"},{"anonymous":false,"inputs":[{"indexed":true,"internalType":"uint256","name":"amount","type":"uint256"}],"name":"MinClaimSolutionTimeChanged","type":"event"},{"anonymous":false,"inputs":[{"indexed":true,"internalType":"uint256","name":"amount","type":"uint256"}],"name":"MinContestationVotePeriodTimeChanged","type":"event"},{"anonymous":false,"inputs":[{"indexed":true,"internalType":"uint256","name":"amount","type":"uint256"}],"name":"MinRetractionWaitTimeChanged","type":"event"},{"anonymous":false,"inputs":[{"indexed":true,"internalType":"bytes32","name":"id","type":"bytes32"}],"name":"ModelRegistered","type":"event"},{"anonymous":false,"inputs":[{"indexed":true,"internalType":"address","name":"previousOwner","type":"address"},{"indexed":true,"internalType":"address","name":"newOwner","type":"address"}],"name":"OwnershipTransferred","type":"event"},{"anonymous":false,"inputs":[{"indexed":true,"internalType":"bool","name":"paused","type":"bool"}],"name":"PausedChanged","type":"event"},{"anonymous":false,"inputs":[{"indexed":true,"internalType":"address","name":"to","type":"address"}],"name":"PauserTransferred","type":"event"},{"anonymous":false,"inputs":[{"indexed":true,"internalType":"uint256","name":"amount","type":"uint256"}],"name":"RetractionFeePercentageChanged","type":"event"},{"anonymous":false,"inputs":[{"indexed":true,"internalType":"address","name":"addr","type":"address"},{"indexed":true,"internalType":"bytes32","name":"commitment","type":"bytes32"}],"name":"SignalCommitment","type":"event"},{"anonymous":false,"inputs":[{"indexed":true,"internalType":"address","name":"addr","type":"address"},{"indexed":true,"internalType":"bytes32","name":"model","type":"bytes32"},{"indexed":false,"internalType":"bool","name":"supported","type":"bool"}],"name":"SignalSupport","type":"event"},{"anonymous":false,"inputs":[{"indexed":true,"internalType":"uint256","name":"amount","type":"uint256"}],"name":"SlashAmountPercentageChanged","type":"event"},{"anonymous":false,"inputs":[{"indexed":true,"internalType":"address","name":"addr","type":"address"},{"indexed":true,"internalType":"bytes32","name":"task","type":"bytes32"}],"name":"SolutionClaimed","type":"event"},{"anonymous":false,"inputs":[{"indexed":true,"internalType":"uint256","name":"amount","type":"uint256"}],"name":"SolutionFeePercentageChanged","type":"event"},{"anonymous":false,"inputs":[{"indexed":true,"internalType":"bytes32","name":"id","type":"bytes32"},{"indexed":false,"internalType":"uint256","name":"rate","type":"uint256"}],"name":"SolutionMineableRateChange","type":"event"},{"anonymous":false,"inputs":[{"indexed":true,"internalType":"address","name":"addr","type":"address"},{"indexed":true,"internalType":"bytes32","name":"task","type":"bytes32"}],"name":"SolutionSubmitted","type":"event"},{"anonymous":false,"inputs":[{"indexed":true,"internalType":"bytes32","name":"id","type":"bytes32"}],"name":"TaskRetracted","type":"event"},{"anonymous":false,"inputs":[{"indexed":true,"internalType":"bytes32","name":"id","type":"bytes32"},{"indexed":true,"internalType":"bytes32","name":"model","type":"bytes32"},{"indexed":false,"internalType":"uint256","name":"fee","type":"uint256"},{"indexed":true,"internalType":"address","name":"sender","type":"address"}],"name":"TaskSubmitted","type":"event"},{"anonymous":false,"inputs":[{"indexed":true,"internalType":"uint256","name":"amount","type":"uint256"}],"name":"TreasuryRewardPercentageChanged","type":"event"},{"anonymous":false,"inputs":[{"indexed":true,"internalType":"address","name":"to","type":"address"}],"name":"TreasuryTransferred","type":"event"},{"anonymous":false,"inputs":[{"indexed":true,"internalType":"address","name":"addr","type":"address"},{"indexed":true,"internalType":"address","name":"validator","type":"address"},{"indexed":false,"internalType":"uint256","name":"amount","type":"uint256"}],"name":"ValidatorDeposit","type":"event"},{"anonymous":false,"inputs":[{"indexed":true,"internalType":"uint256","name":"amount","type":"uint256"}],"name":"ValidatorMinimumPercentageChanged","type":"event"},{"anonymous":false,"inputs":[{"indexed":true,"internalType":"address","name":"addr","type":"address"},{"indexed":true,"internalType":"address","name":"to","type":"address"},{"indexed":true,"internalType":"uint256","name":"count","type":"uint256"},{"indexed":false,"internalType":"uint256","name":"amount","type":"uint256"}],"name":"ValidatorWithdraw","type":"event"},{"anonymous":false,"inputs":[{"indexed":true,"internalType":"address","name":"addr","type":"address"},{"indexed":true,"internalType":"uint256","name":"count","type":"uint256"}],"name":"ValidatorWithdrawCancelled","type":"event"},{"anonymous":false,"inputs":[{"indexed":true,"internalType":"address","name":"addr","type":"address"},{"indexed":true,"internalType":"uint256","name":"count","type":"uint256"},{"indexed":false,"internalType":"uint256","name":"unlockTime","type":"uint256"},{"indexed":false,"internalType":"uint256","name":"amount","type":"uint256"}],"name":"ValidatorWithdrawInitiated","type":"event"},{"anonymous":false,"inputs":[{"indexed":false,"internalType":"uint256","name":"version","type":"uint256"}],"name":"VersionChanged","type":"event"},{"inputs":[],"name":"accruedFees","outputs":[{"internalType":"uint256","name":"","type":"uint256"}],"stateMutability":"view","type":"function"},{"inputs":[],"name":"baseToken","outputs":[{"internalType":"contract IBaseToken","name":"","type":"address"}],"stateMutability":"view","type":"function"},{"inputs":[{"internalType":"uint256","name":"count_","type":"uint256"}],"name":"cancelValidatorWithdraw","outputs":[],"stateMutability":"nonpayable","type":"function"},{"inputs":[{"internalType":"bytes32","name":"taskid_","type":"bytes32"}],"name":"claimSolution","outputs":[],"stateMutability":"nonpayable","type":"function"},{"inputs":[{"internalType":"bytes32","name":"","type":"bytes32"}],"name":"commitments","outputs":[{"internalType":"uint256","name":"","type":"uint256"}],"stateMutability":"view","type":"function"},{"inputs":[{"internalType":"bytes32","name":"taskid_","type":"bytes32"},{"internalType":"uint32","name":"amnt_","type":"uint32"}],"name":"contestationVoteFinish","outputs":[],"stateMutability":"nonpayable","type":"function"},{"inputs":[{"internalType":"bytes32","name":"","type":"bytes32"},{"internalType":"uint256","name":"","type":"uint256"}],"name":"contestationVoteNays","outputs":[{"internalType":"address","name":"","type":"address"}],"stateMutability":"view","type":"function"},{"inputs":[{"internalType":"bytes32","name":"","type":"bytes32"},{"internalType":"uint256","name":"","type":"uint256"}],"name":"contestationVoteYeas","outputs":[{"internalType":"address","name":"","type":"address"}],"stateMutability":"view","type":"function"},{"inputs":[{"internalType":"bytes32","name":"","type":"bytes32"},{"internalType":"address","name":"","type":"address"}],"name":"contestationVoted","outputs":[{"internalType":"bool","name":"","type":"bool"}],"stateMutability":"view","type":"function"},{"inputs":[{"internalType":"bytes32","name":"","type":"bytes32"}],"name":"contestationVotedIndex","outputs":[{"internalType":"uint256","name":"","type":"uint256"}],"stateMutability":"view","type":"function"},{"inputs":[{"internalType":"bytes32","name":"","type":"bytes32"}],"name":"contestations","outputs":[{"internalType":"address","name":"validator","type":"address"},{"internalType":"uint64","name":"blocktime","type":"uint64"},{"internalType":"uint32","name":"finish_start_index","type":"uint32"},{"internalType":"uint256","name":"slashAmount","type":"uint256"}],"stateMutability":"view","type":"function"},{"inputs":[{"internalType":"uint256","name":"t","type":"uint256"},{"internalType":"uint256","name":"ts","type":"uint256"}],"name":"diffMul","outputs":[{"internalType":"uint256","name":"","type":"uint256"}],"stateMutability":"pure","type":"function"},{"inputs":[],"name":"exitValidatorMinUnlockTime","outputs":[{"internalType":"uint256","name":"","type":"uint256"}],"stateMutability":"view","type":"function"},{"inputs":[{"internalType":"address","name":"sender_","type":"address"},{"internalType":"bytes32","name":"taskid_","type":"bytes32"},{"internalType":"bytes","name":"cid_","type":"bytes"}],"name":"generateCommitment","outputs":[{"internalType":"bytes32","name":"","type":"bytes32"}],"stateMutability":"pure","type":"function"},{"inputs":[{"internalType":"bytes","name":"content_","type":"bytes"}],"name":"generateIPFSCID","outputs":[{"internalType":"bytes","name":"","type":"bytes"}],"stateMutability":"pure","type":"function"},{"inputs":[],"name":"getPsuedoTotalSupply","outputs":[{"internalType":"uint256","name":"","type":"uint256"}],"stateMutability":"view","type":"function"},{"inputs":[],"name":"getReward","outputs":[{"internalType":"uint256","name":"","type":"uint256"}],"stateMutability":"view","type":"function"},{"inputs":[],"name":"getSlashAmount","outputs":[{"internalType":"uint256","name":"","type":"uint256"}],"stateMutability":"view","type":"function"},{"inputs":[],"name":"getValidatorMinimum","outputs":[{"internalType":"uint256","name":"","type":"uint256"}],"stateMutability":"view","type":"function"},{"inputs":[{"components":[{"internalType":"uint256","name":"fee","type":"uint256"},{"internalType":"address","name":"addr","type":"address"},{"internalType":"uint256","name":"rate","type":"uint256"},{"internalType":"bytes","name":"cid","type":"bytes"}],"internalType":"struct Model","name":"o_","type":"tuple"},{"internalType":"address","name":"sender_","type":"address"}],"name":"hashModel","outputs":[{"internalType":"bytes32","name":"","type":"bytes32"}],"stateMutability":"pure","type":"function"},{"inputs":[{"components":[{"internalType":"bytes32","name":"model","type":"bytes32"},{"internalType":"uint256","name":"fee","type":"uint256"},{"internalType":"address","name":"owner","type":"address"},{"internalType":"uint64","name":"blocktime","type":"uint64"},{"internalType":"uint8","name":"version","type":"uint8"},{"internalType":"bytes","name":"cid","type":"bytes"}],"internalType":"struct Task","name":"o_","type":"tuple"},{"internalType":"address","name":"sender_","type":"address"},{"internalType":"bytes32","name":"prevhash_","type":"bytes32"}],"name":"hashTask","outputs":[{"internalType":"bytes32","name":"","type":"bytes32"}],"stateMutability":"pure","type":"function"},{"inputs":[{"internalType":"contract IBaseToken","name":"baseToken_","type":"address"},{"internalType":"address","name":"treasury_","type":"address"}],"name":"initialize","outputs":[],"stateMutability":"nonpayable","type":"function"},{"inputs":[{"internalType":"uint256","name":"amount_","type":"uint256"}],"name":"initiateValidatorWithdraw","outputs":[{"internalType":"uint256","name":"","type":"uint256"}],"stateMutability":"nonpayable","type":"function"},{"inputs":[],"name":"maxContestationValidatorStakeSince","outputs":[{"internalType":"uint256","name":"","type":"uint256"}],"stateMutability":"view","type":"function"},{"inputs":[],"name":"minClaimSolutionTime","outputs":[{"internalType":"uint256","name":"","type":"uint256"}],"stateMutability":"view","type":"function"},{"inputs":[],"name":"minContestationVotePeriodTime","outputs":[{"internalType":"uint256","name":"","type":"uint256"}],"stateMutability":"view","type":"function"},{"inputs":[],"name":"minRetractionWaitTime","outputs":[{"internalType":"uint256","name":"","type":"uint256"}],"stateMutability":"view","type":"function"},{"inputs":[{"internalType":"bytes32","name":"","type":"bytes32"}],"name":"models","outputs":[{"internalType":"uint256","name":"fee","type":"uint256"},{"internalType":"address","name":"addr","type":"address"},{"internalType":"uint256","name":"rate","type":"uint256"},{"internalType":"bytes","name":"cid","type":"bytes"}],"stateMutability":"view","type":"function"},{"inputs":[],"name":"owner","outputs":[{"internalType":"address","name":"","type":"address"}],"stateMutability":"view","type":"function"},{"inputs":[],"name":"paused","outputs":[{"internalType":"bool","name":"","type":"bool"}],"stateMutability":"view","type":"function"},{"inputs":[],"name":"pauser","outputs":[{"internalType":"address","name":"","type":"address"}],"stateMutability":"view","type":"function"},{"inputs":[{"internalType":"address","name":"","type":"address"},{"internalType":"uint256","name":"","type":"uint256"}],"name":"pendingValidatorWithdrawRequests","outputs":[{"internalType":"uint256","name":"unlockTime","type":"uint256"},{"internalType":"uint256","name":"amount","type":"uint256"}],"stateMutability":"view","type":"function"},{"inputs":[{"internalType":"address","name":"","type":"address"}],"name":"pendingValidatorWithdrawRequestsCount","outputs":[{"internalType":"uint256","name":"","type":"uint256"}],"stateMutability":"view","type":"function"},{"inputs":[],"name":"prevhash","outputs":[{"internalType":"bytes32","name":"","type":"bytes32"}],"stateMutability":"view","type":"function"},{"inputs":[{"internalType":"address","name":"addr_","type":"address"},{"internalType":"uint256","name":"fee_","type":"uint256"},{"internalType":"bytes","name":"template_","type":"bytes"}],"name":"registerModel","outputs":[{"internalType":"bytes32","name":"","type":"bytes32"}],"stateMutability":"nonpayable","type":"function"},{"inputs":[],"name":"renounceOwnership","outputs":[],"stateMutability":"nonpayable","type":"function"},{"inputs":[{"internalType":"bytes32","name":"taskid_","type":"bytes32"}],"name":"retractTask","outputs":[],"stateMutability":"nonpayable","type":"function"},{"inputs":[],"name":"retractionFeePercentage","outputs":[{"internalType":"uint256","name":"","type":"uint256"}],"stateMutability":"view","type":"function"},{"inputs":[{"internalType":"uint256","name":"t","type":"uint256"},{"internalType":"uint256","name":"ts","type":"uint256"}],"name":"reward","outputs":[{"internalType":"uint256","name":"","type":"uint256"}],"stateMutability":"pure","type":"function"},{"inputs":[{"internalType":"uint256","name":"amount_","type":"uint256"}],"name":"setExitValidatorMinUnlockTime","outputs":[],"stateMutability":"nonpayable","type":"function"},{"inputs":[{"internalType":"uint256","name":"amount_","type":"uint256"}],"name":"setMaxContestationValidatorStakeSince","outputs":[],"stateMutability":"nonpayable","type":"function"},{"inputs":[{"internalType":"uint256","name":"amount_","type":"uint256"}],"name":"setMinClaimSolutionTime","outputs":[],"stateMutability":"nonpayable","type":"function"},{"inputs":[{"internalType":"uint256","name":"amount_","type":"uint256"}],"name":"setMinContestationVotePeriodTime","outputs":[],"stateMutability":"nonpayable","type":"function"},{"inputs":[{"internalType":"uint256","name":"amount_","type":"uint256"}],"name":"setMinRetractionWaitTime","outputs":[],"stateMutability":"nonpayable","type":"function"},{"inputs":[{"internalType":"bool","name":"paused_","type":"bool"}],"name":"setPaused","outputs":[],"stateMutability":"nonpayable","type":"function"},{"inputs":[{"internalType":"uint256","name":"amount_","type":"uint256"}],"name":"setRetractionFeePercentage","outputs":[],"stateMutability":"nonpayable","type":"function"},{"inputs":[{"internalType":"uint256","name":"amount_","type":"uint256"}],"name":"setSlashAmountPercentage","outputs":[],"stateMutability":"nonpayable","type":"function"},{"inputs":[{"internalType":"uint256","name":"amount_","type":"uint256"}],"name":"setSolutionFeePercentage","outputs":[],"stateMutability":"nonpayable","type":"function"},{"inputs":[{"internalType":"bytes32","name":"model_","type":"bytes32"},{"internalType":"uint256","name":"rate_","type":"uint256"}],"name":"setSolutionMineableRate","outputs":[],"stateMutability":"nonpayable","type":"function"},{"inputs":[{"internalType":"uint256","name":"amount_","type":"uint256"}],"name":"setTreasuryRewardPercentage","outputs":[],"stateMutability":"nonpayable","type":"function"},{"inputs":[{"internalType":"uint256","name":"amount_","type":"uint256"}],"name":"setValidatorMinimumPercentage","outputs":[],"stateMutability":"nonpayable","type":"function"},{"inputs":[{"internalType":"uint256","name":"version_","type":"uint256"}],"name":"setVersion","outputs":[],"stateMutability":"nonpayable","type":"function"},{"inputs":[{"internalType":"bytes32","name":"commitment_","type":"bytes32"}],"name":"signalCommitment","outputs":[],"stateMutability":"nonpayable","type":"function"},{"inputs":[{"internalType":"bytes32","name":"model_","type":"bytes32"},{"internalType":"bool","name":"support_","type":"bool"}],"name":"signalSupport","outputs":[],"stateMutability":"nonpayable","type":"function"},{"inputs":[],"name":"slashAmountPercentage","outputs":[{"internalType":"uint256","name":"","type":"uint256"}],"stateMutability":"view","type":"function"},{"inputs":[],"name":"solutionFeePercentage","outputs":[{"internalType":"uint256","name":"","type":"uint256"}],"stateMutability":"view","type":"function"},{"inputs":[{"internalType":"bytes32","name":"","type":"bytes32"}],"name":"solutions","outputs":[{"internalType":"address","name":"validator","type":"address"},{"internalType":"uint64","name":"blocktime","type":"uint64"},{"internalType":"bool","name":"claimed","type":"bool"},{"internalType":"bytes","name":"cid","type":"bytes"}],"stateMutability":"view","type":"function"},{"inputs":[],"name":"startBlockTime","outputs":[{"internalType":"uint64","name":"","type":"uint64"}],"stateMutability":"view","type":"function"},{"inputs":[{"internalType":"bytes32","name":"taskid_","type":"bytes32"}],"name":"submitContestation","outputs":[],"stateMutability":"nonpayable","type":"function"},{"inputs":[{"internalType":"bytes32","name":"taskid_","type":"bytes32"},{"internalType":"bytes","name":"cid_","type":"bytes"}],"name":"submitSolution","outputs":[],"stateMutability":"nonpayable","type":"function"},{"inputs":[{"internalType":"uint8","name":"version_","type":"uint8"},{"internalType":"address","name":"owner_","type":"address"},{"internalType":"bytes32","name":"model_","type":"bytes32"},{"internalType":"uint256","name":"fee_","type":"uint256"},{"internalType":"bytes","name":"input_","type":"bytes"}],"name":"submitTask","outputs":[{"internalType":"bytes32","name":"","type":"bytes32"}],"stateMutability":"nonpayable","type":"function"},{"inputs":[{"internalType":"uint256","name":"t","type":"uint256"}],"name":"targetTs","outputs":[{"internalType":"uint256","name":"","type":"uint256"}],"stateMutability":"pure","type":"function"},{"inputs":[{"internalType":"bytes32","name":"","type":"bytes32"}],"name":"tasks","outputs":[{"internalType":"bytes32","name":"model","type":"bytes32"},{"internalType":"uint256","name":"fee","type":"uint256"},{"internalType":"address","name":"owner","type":"address"},{"internalType":"uint64","name":"blocktime","type":"uint64"},{"internalType":"uint8","name":"version","type":"uint8"},{"internalType":"bytes","name":"cid","type":"bytes"}],"stateMutability":"view","type":"function"},{"inputs":[{"internalType":"address","name":"to_","type":"address"}],"name":"transferOwnership","outputs":[],"stateMutability":"nonpayable","type":"function"},{"inputs":[{"internalType":"address","name":"to_","type":"address"}],"name":"transferPauser","outputs":[],"stateMutability":"nonpayable","type":"function"},{"inputs":[{"internalType":"address","name":"to_","type":"address"}],"name":"transferTreasury","outputs":[],"stateMutability":"nonpayable","type":"function"},{"inputs":[],"name":"treasury","outputs":[{"internalType":"address","name":"","type":"address"}],"stateMutability":"view","type":"function"},{"inputs":[],"name":"treasuryRewardPercentage","outputs":[{"internalType":"uint256","name":"","type":"uint256"}],"stateMutability":"view","type":"function"},{"inputs":[{"internalType":"address","name":"addr_","type":"address"},{"internalType":"bytes32","name":"taskid_","type":"bytes32"}],"name":"validatorCanVote","outputs":[{"internalType":"uint256","name":"","type":"uint256"}],"stateMutability":"view","type":"function"},{"inputs":[{"internalType":"address","name":"validator_","type":"address"},{"internalType":"uint256","name":"amount_","type":"uint256"}],"name":"validatorDeposit","outputs":[],"stateMutability":"nonpayable","type":"function"},{"inputs":[],"name":"validatorMinimumPercentage","outputs":[{"internalType":"uint256","name":"","type":"uint256"}],"stateMutability":"view","type":"function"},{"inputs":[{"internalType":"uint256","name":"count_","type":"uint256"},{"internalType":"address","name":"to_","type":"address"}],"name":"validatorWithdraw","outputs":[],"stateMutability":"nonpayable","type":"function"},{"inputs":[{"internalType":"address","name":"","type":"address"}],"name":"validatorWithdrawPendingAmount","outputs":[{"internalType":"uint256","name":"","type":"uint256"}],"stateMutability":"view","type":"function"},{"inputs":[{"internalType":"address","name":"","type":"address"}],"name":"validators","outputs":[{"internalType":"uint256","name":"staked","type":"uint256"},{"internalType":"uint256","name":"since","type":"uint256"},{"internalType":"address","name":"addr","type":"address"}],"stateMutability":"view","type":"function"},{"inputs":[],"name":"version","outputs":[{"internalType":"uint256","name":"","type":"uint256"}],"stateMutability":"view","type":"function"},{"inputs":[{"internalType":"bytes32","name":"taskid_","type":"bytes32"},{"internalType":"bool","name":"yea_","type":"bool"}],"name":"voteOnContestation","outputs":[],"stateMutability":"nonpayable","type":"function"},{"inputs":[],"name":"withdrawAccruedFees","outputs":[],"stateMutability":"nonpayable","type":"function"}],"evm":{"bytecode":{"linkReferences":{},"object":"60806040523480156200001157600080fd5b506200001c62000022565b620000e3565b600054610100900460ff16156200008f5760405162461bcd60e51b815260206004820152602760248201527f496e697469616c697a61626c653a20636f6e747261637420697320696e697469604482015266616c697a696e6760c81b606482015260840160405180910390fd5b60005460ff90811614620000e1576000805460ff191660ff9081179091556040519081527f7f26b83ff96e1f2b6a682f133852f6798a09c465da95921460cefb38474024989060200160405180910390a15b565b615b5980620000f36000396000f3fe608060405234801561001057600080fd5b506004361061045d5760003560e01c806375c705091161024c578063ada82c7d11610146578063d2780940116100c3578063e236f46b11610087578063e236f46b14610a70578063e579f50014610a93578063f1b8989d14610ab8578063f2fde38b14610ac1578063fa52c7d814610ad457600080fd5b8063d278094014610950578063d2992baa1461097e578063d33b2ef5146109c5578063d8a6021c14610a54578063dc06a89f14610a6757600080fd5b8063c55dae631161010a578063c55dae63146108e4578063cbd2422d146108f7578063cf596e451461090a578063d1f0c9411461091d578063d2307ae41461093057600080fd5b8063ada82c7d146108a4578063b66badbf146108ac578063c17ddb2a146108bf578063c31784be146108c8578063c3187978146108d157600080fd5b80638da5cb5b116101d457806396bb02c31161019857806396bb02c3146108595780639fd0506d14610862578063a4fa8d5714610875578063a53e252514610888578063aa59e7e71461089157600080fd5b80638da5cb5b146108105780638e6d86fd14610821578063928094441461082a57806393a090ec1461083357806393f1f8ac1461084657600080fd5b80637881c5e61161021b5780637881c5e6146107b95780637b36006a146107c157806383657795146107ca578063839df945146107dd5780638b4d7b35146107fd57600080fd5b806375c705091461075d578063763253bb146107805780637683dbfb1461079357806377286d17146107a657600080fd5b80633d18b9121161035d57806354fd4d50116102e557806361d027b3116102a957806361d027b31461071d578063671f815214610730578063682c205814610743578063715018a61461074c57806372dc0ee11461075457600080fd5b806354fd4d50146106b757806356914caf146106c05780635b851daa146106d35780635c975abb146106e6578063605cecf61461070a57600080fd5b80634421ea211161032c5780634421ea2114610658578063485cc9551461066b57806349094d4d1461067e5780634ff03efa14610691578063506ea7de146106a457600080fd5b80633d18b912146106155780633d57f5d91461061d578063408def1e1461062557806340e8c56d1461063857600080fd5b80631b2cf4b8116103eb57806328c2d36c116103af57806328c2d36c1461059e5780632f9b03e4146105b1578063303fb0d6146105c457806336f83c4f146105ef578063393cb1c71461060257600080fd5b80631b2cf4b81461053d5780631b75c43e146105505780631f88ea1c14610570578063218a3048146105835780632258d1051461059657600080fd5b80630c18d4ce116104325780630c18d4ce146104b95780631466b63a146104e457806316c38b3c146104f757806317f3e0411461050a5780631825c20e1461052a57600080fd5b80623f9dd614610462578062fd70821461047757806308745dd1146104935780630a985737146104a6575b600080fd5b610475610470366004614f0a565b610b30565b005b61048060725481565b6040519081526020015b60405180910390f35b6104806104a1366004614f9c565b610de8565b6104806104b4366004614f0a565b611075565b606a546104cc906001600160401b031681565b6040516001600160401b03909116815260200161048a565b6104806104f23660046150df565b6111d0565b6104756105053660046151c4565b611217565b610480610518366004614f0a565b60806020526000908152604090205481565b6104756105383660046151e1565b6112a7565b61047561054b366004614f0a565b611371565b61048061055e366004615211565b607a6020526000908152604090205481565b61048061057e36600461522e565b6113ac565b610480610591366004615250565b6114d8565b61048061151b565b6104756105ac366004614f0a565b611584565b6104756105bf366004614f0a565b6115bf565b6105d76105d236600461522e565b6115fa565b6040516001600160a01b03909116815260200161048a565b6104756105fd366004614f0a565b611632565b61048061061036600461530b565b61166d565b6104806116a6565b6104806116d0565b610475610633366004614f0a565b611715565b61064b610646366004615366565b611758565b60405161048a91906153f7565b610475610666366004615211565b611764565b61047561067936600461540a565b6117b6565b61047561068c3660046151e1565b61196b565b61048061069f36600461530b565b611a2b565b6104756106b2366004614f0a565b611bf1565b610480606b5481565b6104756106ce366004615438565b611cb3565b6104756106e1366004614f0a565b611fc7565b6067546106fa90600160a01b900460ff1681565b604051901515815260200161048a565b610475610718366004614f0a565b612002565b6066546105d7906001600160a01b031681565b61047561073e366004614f0a565b61203d565b61048060685481565b61047561234f565b610480606f5481565b61077061076b366004614f0a565b612363565b60405161048a9493929190615483565b61047561078e3660046154c8565b61242e565b6104756107a1366004614f0a565b6126a2565b6104756107b4366004614f0a565b6126dd565b6104806128dd565b61048060735481565b6104806107d83660046154ed565b61297d565b6104806107eb366004614f0a565b607c6020526000908152604090205481565b61047561080b366004615519565b612ac5565b6033546001600160a01b03166105d7565b61048060745481565b61048060715481565b6104756108413660046154ed565b6131ef565b61047561085436600461522e565b6133d1565b610480606c5481565b6067546105d7906001600160a01b031681565b61048061088336600461522e565b613464565b61048060755481565b61047561089f366004614f0a565b6134e0565b61047561351b565b6104756108ba366004614f0a565b6135c7565b61048060695481565b61048060705481565b6104756108df366004614f0a565b613602565b6065546105d7906001600160a01b031681565b610475610905366004614f0a565b61363d565b610480610918366004614f0a565b613756565b6105d761092b36600461522e565b6137ea565b61048061093e366004615211565b60786020526000908152604090205481565b6106fa61095e3660046154c8565b607f60209081526000928352604080842090915290825290205460ff1681565b6109b061098c3660046154ed565b60796020908152600092835260408084209091529082529020805460019091015482565b6040805192835260208301919091520161048a565b610a176109d3366004614f0a565b607e60205260009081526040902080546001909101546001600160a01b03821691600160a01b81046001600160401b031691600160e01b90910463ffffffff169084565b604080516001600160a01b0390951685526001600160401b03909316602085015263ffffffff90911691830191909152606082015260800161048a565b610475610a62366004615211565b613806565b610480606d5481565b610a83610a7e366004614f0a565b613858565b60405161048a9493929190615547565b610aa6610aa1366004614f0a565b613892565b60405161048a96959493929190615574565b610480606e5481565b610475610acf366004615211565b61396b565b610b0c610ae2366004615211565b6077602052600090815260409020805460018201546002909201549091906001600160a01b031683565b6040805193845260208401929092526001600160a01b03169082015260600161048a565b606754600160a01b900460ff1615610b635760405162461bcd60e51b8152600401610b5a906155c5565b60405180910390fd5b6000818152607b60205260409020600201546001600160a01b03163314610bb85760405162461bcd60e51b81526020600482015260096024820152683737ba1037bbb732b960b91b6044820152606401610b5a565b6000818152607d60205260409020546001600160a01b031615610c0c5760405162461bcd60e51b815260206004820152600c60248201526b3430b99039b7b63aba34b7b760a11b6044820152606401610b5a565b6072546000828152607b6020526040902060020154610c3b90600160a01b90046001600160401b0316426155fb565b11610c885760405162461bcd60e51b815260206004820152601860248201527f646964206e6f742077616974206c6f6e6720656e6f75676800000000000000006044820152606401610b5a565b6000670de0b6b3a7640000606f54670de0b6b3a7640000610ca991906155fb565b6000848152607b6020526040902060010154610cc5919061560e565b610ccf919061563b565b6000838152607b602052604081206001015491925090610cf09083906155fb565b60655460405163a9059cbb60e01b81529192506001600160a01b03169063a9059cbb90610d23903390869060040161565d565b6020604051808303816000875af1158015610d42573d6000803e3d6000fd5b505050506040513d601f19601f82011682018060405250810190610d669190615676565b508060686000828254610d799190615693565b90915550506000838152607b60205260408120818155600181018290556002810180546001600160e81b031916905590610db66003830182614ebc565b505060405183907f446efbf8d207f3e2ede58a6bbde7028a4e308488b6293e6461fbb7c288326e7690600090a2505050565b606754600090600160a01b900460ff1615610e155760405162461bcd60e51b8152600401610b5a906155c5565b6000858152607660205260409020600101546001600160a01b0316610e4c5760405162461bcd60e51b8152600401610b5a906156a6565b600085815260766020526040902054841015610eaa5760405162461bcd60e51b815260206004820152601860248201527f6c6f77657220666565207468616e206d6f64656c2066656500000000000000006044820152606401610b5a565b6000610eb6848461397c565b905060006040518060c00160405280888152602001878152602001896001600160a01b03168152602001426001600160401b031681526020018a60ff1681526020018381525090506000610f0d82336069546111d0565b9050336001600160a01b031688827fc3d3e0544c80e3bb83f62659259ae1574f72a91515ab3cae3dd75cf77e1b0aea8a604051610f4c91815260200190565b60405180910390a46065546040516323b872dd60e01b8152336004820152306024820152604481018990526001600160a01b03909116906323b872dd906064016020604051808303816000875af1158015610fab573d6000803e3d6000fd5b505050506040513d601f19601f82011682018060405250810190610fcf9190615676565b506000818152607b602090815260409182902084518155908401516001820155908301516002820180546060860151608087015160ff16600160e01b0260ff60e01b196001600160401b03909216600160a01b026001600160e01b03199093166001600160a01b0390951694909417919091171691909117905560a08301518391906003820190611060908261574e565b50505060698190559998505050505050505050565b606754600090600160a01b900460ff16156110a25760405162461bcd60e51b8152600401610b5a906155c5565b336000908152607a602090815260408083205460779092529091205483916110c9916155fb565b10156110f15760405162461bcd60e51b81526020600482015260006024820152604401610b5a565b6000607554426111019190615693565b3360009081526078602052604081208054929350600192909190611126908490615693565b909155505033600081815260786020908152604080832054815180830183528681528084018981528686526079855283862083875285528386209151825551600190910155938352607a90915281208054869290611185908490615693565b90915550506040805183815260208101869052829133917fcc7e0e76b20394ef965d71c4111d21e1b322bb8775dc2c7acd29eb0d3c3dd96d910160405180910390a39150505b919050565b60008282856000015186602001518760a001516040516020016111f795949392919061580d565b6040516020818303038152906040528051906020012090505b9392505050565b6067546001600160a01b0316331461125e5760405162461bcd60e51b815260206004820152600a6024820152693737ba103830bab9b2b960b11b6044820152606401610b5a565b6067805460ff60a01b1916600160a01b831515908102919091179091556040517fd83d5281277e107f080e362699d46082adb74e7dc6a9bccbc87d8ae9533add4490600090a250565b606754600160a01b900460ff16156112d15760405162461bcd60e51b8152600401610b5a906155c5565b6112d961151b565b336000908152607a60209081526040808320546077909252909120546112ff91906155fb565b101561131d5760405162461bcd60e51b8152600401610b5a9061584b565b611327338361297d565b156113625760405162461bcd60e51b815260206004820152600b60248201526a1b9bdd08185b1b1bddd95960aa1b6044820152606401610b5a565b61136d828233613ab1565b5050565b611379613bd5565b606e81905560405181907fa9dfc7ca3151b504bdbe971426324a888f97e7e7a52929484c01dff8168058ab90600090a250565b600080831180156113bd5750600082115b6113f45760405162461bcd60e51b81526020600482015260086024820152676d696e2076616c7360c01b6044820152606401610b5a565b60006113ff84613756565b9050600061140f825b8590613c2f565b9050670cf4ad2e86166c9c8112156114345768056bc75e2d63100000925050506114d2565b670de0b6b3a764000068056bc75e2d63100000600061147161146a846114648561145e8984613d05565b90613d14565b90613d05565b8490613db8565b90506801158e460913d000008112611491576000955050505050506114d2565b61149b8160001390565b156114c3576114b76114b46114af83613dc7565b613e08565b90565b955050505050506114d2565b6114b76114b461140883613e08565b92915050565b6000818360200151846000015185606001516040516020016114fd9493929190615877565b60405160208183030381529060405280519060200120905092915050565b6000806115266128dd565b9050683635c9adc5dea0000081101561154157600091505090565b670de0b6b3a7640000606c54670de0b6b3a764000061156091906155fb565b61156a908361560e565b611574919061563b565b61157e90826155fb565b91505090565b61158c613bd5565b606c81905560405181907fb2ba28b5b5aed3444b23a8597a249678dd98e0062432ef1b0f9a6caa39ceb0ad90600090a250565b6115c7613bd5565b607181905560405181907fed28aed8b87631da9bc750c8885c00f9beda7f694a23bb732d987aa80214a63f90600090a250565b6082602052816000526040600020818154811061161657600080fd5b6000918252602090912001546001600160a01b03169150829050565b61163a613bd5565b606d81905560405181907f4d3fce9ddc8266ead559213cbaaa8ebcfa0c837a2c9a1e814bae160b615d30dd90600090a250565b60008484848460405160200161168694939291906158aa565b604051602081830303815290604052805190602001209050949350505050565b606a546000906116cb906116c3906001600160401b0316426155fb565b6108836128dd565b905090565b6000806116db6128dd565b9050686c6b935b8bbd4000008110156116f657600091505090565b670de0b6b3a7640000606d54670de0b6b3a764000061156091906155fb565b61171d613bd5565b606b8190556040518181527f8c854a81cb5c93e7e482d30fb9c6f88fdbdb320f10f7a853c2263659b54e563f9060200160405180910390a150565b6060611210838361397c565b61176c613bd5565b606780546001600160a01b0319166001600160a01b0383169081179091556040517f5a85b4270fc1e75035e6cd505418ce65e0bcc36cc7eb9ce9e6f8c6181d4cb57790600090a250565b600054610100900460ff16158080156117d65750600054600160ff909116105b806117f05750303b1580156117f0575060005460ff166001145b6118535760405162461bcd60e51b815260206004820152602e60248201527f496e697469616c697a61626c653a20636f6e747261637420697320616c72656160448201526d191e481a5b9a5d1a585b1a5e995960921b6064820152608401610b5a565b6000805460ff191660011790558015611876576000805461ff0019166101001790555b61187e613eba565b606580546001600160a01b038086166001600160a01b03199283161790925560668054928516928216929092179091556067805490911633179055606a80546001600160401b03421667ffffffffffffffff199091161790556602d79883d20000606c55655af3107a4000606d5567016345785d8a0000606e819055606f8190556070556107d0607155612710607255610fa06073556078607455620151806075558015611966576000805461ff0019169055604051600181527f7f26b83ff96e1f2b6a682f133852f6798a09c465da95921460cefb38474024989060200160405180910390a15b505050565b61197361151b565b336000908152607a602090815260408083205460779092529091205461199991906155fb565b10156119b75760405162461bcd60e51b8152600401610b5a9061584b565b6000828152607660205260409020600101546001600160a01b03166119ee5760405162461bcd60e51b8152600401610b5a906156a6565b6040518115158152829033907fd17ce9337eb398b61971ca3d8c9933fc401b9669a0607afe3452612583d7c5b89060200160405180910390a35050565b606754600090600160a01b900460ff1615611a585760405162461bcd60e51b8152600401610b5a906155c5565b6001600160a01b038516611aae5760405162461bcd60e51b815260206004820152601860248201527f61646472657373206d757374206265206e6f6e2d7a65726f00000000000000006044820152606401610b5a565b6000611aba848461397c565b604080516080810182528781526001600160a01b0389166020820152600091810182905260608101839052919250611af282336114d8565b6000818152607660205260409020600101549091506001600160a01b031615611b5d5760405162461bcd60e51b815260206004820152601860248201527f6d6f64656c20616c7265616479207265676973746572656400000000000000006044820152606401610b5a565b60008181526076602090815260409182902084518155908401516001820180546001600160a01b0319166001600160a01b0390921691909117905590830151600282015560608301518391906003820190611bb8908261574e565b50506040518291507fa4b0af38d049ba81703a0d0e46cc2ff39681210302134046237111a8fb7dee7290600090a2979650505050505050565b606754600160a01b900460ff1615611c1b5760405162461bcd60e51b8152600401610b5a906155c5565b6000818152607c602052604090205415611c6b5760405162461bcd60e51b8152602060048201526011602482015270636f6d6d69746d656e742065786973747360781b6044820152606401610b5a565b611c73613ee9565b6000828152607c6020526040808220929092559051829133917f09b4c028a2e50fec6f1c6a0163c59e8fbe92b231e5c03ef3adec585e63a14b929190a350565b606754600160a01b900460ff1615611cdd5760405162461bcd60e51b8152600401610b5a906155c5565b611ce561151b565b336000908152607a6020908152604080832054607790925290912054611d0b91906155fb565b1015611d295760405162461bcd60e51b8152600401610b5a9061584b565b6000838152607b6020526040902054611d7a5760405162461bcd60e51b81526020600482015260136024820152721d185cdac8191bd95cc81b9bdd08195e1a5cdd606a1b6044820152606401610b5a565b6000838152607d60205260409020546001600160a01b031615611ddf5760405162461bcd60e51b815260206004820152601a60248201527f736f6c7574696f6e20616c7265616479207375626d69747465640000000000006044820152606401610b5a565b6000611ded3385858561166d565b6000818152607c6020526040902054909150611e4b5760405162461bcd60e51b815260206004820152601760248201527f6e6f6e206578697374656e7420636f6d6d69746d656e740000000000000000006044820152606401610b5a565b611e53613ee9565b6000828152607c602052604090205410611eaf5760405162461bcd60e51b815260206004820152601a60248201527f636f6d6d69746d656e74206d75737420626520696e20706173740000000000006044820152606401610b5a565b6040518060800160405280336001600160a01b03168152602001426001600160401b0316815260200160001515815260200184848080601f0160208091040260200160405190810160405280939291908181526020018383808284376000920182905250939094525050868152607d60209081526040918290208451815492860151938601511515600160e01b0260ff60e01b196001600160401b03909516600160a01b026001600160e01b03199094166001600160a01b0390921691909117929092179290921617815560608301519091506001820190611f91908261574e565b505060405185915033907f957c18b5af8413899ea8a576a4d3fb16839a02c9fccfdce098b6d59ef248525b90600090a350505050565b611fcf613bd5565b606f81905560405181907f248f32867b202a570ffbb94e864b6075503b4961c00317f152604ee3b8de4dda90600090a250565b61200a613bd5565b607081905560405181907f4cedc026426414a08f6f21ca64d85564bf602162bb3463dd2d3e17b58c1da58990600090a250565b606754600160a01b900460ff16156120675760405162461bcd60e51b8152600401610b5a906155c5565b61206f61151b565b336000908152607a602090815260408083205460779092529091205461209591906155fb565b10156120b35760405162461bcd60e51b8152600401610b5a9061584b565b6000818152607d60205260409020546001600160a01b03166121175760405162461bcd60e51b815260206004820152601760248201527f736f6c7574696f6e20646f6573206e6f742065786973740000000000000000006044820152606401610b5a565b6000818152607e60205260409020546001600160a01b03161561217c5760405162461bcd60e51b815260206004820152601b60248201527f636f6e746573746174696f6e20616c72656164792065786973747300000000006044820152606401610b5a565b6071546000828152607d60205260409020546121a89190600160a01b90046001600160401b0316615693565b42106121e15760405162461bcd60e51b8152602060048201526008602482015267746f6f206c61746560c01b6044820152606401610b5a565b6000818152607d6020526040902054600160e01b900460ff161561222d5760405162461bcd60e51b81526020600482015260036024820152623bba3360e91b6044820152606401610b5a565b60006122376116d0565b60408051608081018252338082526001600160401b0342811660208085019182526000858701818152606087018981528b8352607e909352878220965187549451915163ffffffff16600160e01b026001600160e01b0392909616600160a01b026001600160e01b03199095166001600160a01b03919091161793909317929092169290921784559051600190930192909255915192935084927f6958c989e915d3e41a35076e3c480363910055408055ad86ae1ee13d41c406409190a361230182600133613ab1565b6000828152607d60209081526040808320546001600160a01b031683526077909152902054811161136d576000828152607d602052604081205461136d9184916001600160a01b0316613ab1565b612357613bd5565b6123616000613f7a565b565b607d60205260009081526040902080546001820180546001600160a01b03831693600160a01b84046001600160401b031693600160e01b900460ff169290916123ab906156d4565b80601f01602080910402602001604051908101604052809291908181526020018280546123d7906156d4565b80156124245780601f106123f957610100808354040283529160200191612424565b820191906000526020600020905b81548152906001019060200180831161240757829003601f168201915b5050505050905084565b606754600160a01b900460ff16156124585760405162461bcd60e51b8152600401610b5a906155c5565b33600090815260796020908152604080832085845282529182902082518084019093528054808452600190910154918301919091526124cd5760405162461bcd60e51b81526020600482015260116024820152701c995c5d595cdd081b9bdd08195e1a5cdd607a1b6044820152606401610b5a565b805142101561250c5760405162461bcd60e51b815260206004820152600b60248201526a3bb0b4ba103637b733b2b960a91b6044820152606401610b5a565b602080820151336000908152607790925260409091205410156125665760405162461bcd60e51b81526020600482015260126024820152711cdd185ad9481a5b9cdd59999a58da595b9d60721b6044820152606401610b5a565b606554602082015160405163a9059cbb60e01b81526001600160a01b039092169163a9059cbb9161259c9186919060040161565d565b6020604051808303816000875af11580156125bb573d6000803e3d6000fd5b505050506040513d601f19601f820116820180604052508101906125df9190615676565b506020808201513360009081526077909252604082208054919290916126069084906155fb565b9091555050602080820151336000908152607a909252604082208054919290916126319084906155fb565b909155505033600081815260796020908152604080832087845282528083208381556001019290925583810151915191825285926001600160a01b0386169290917f109aeff667601aad33abcb7c5df1617754eefd18253d586a95c198cb479b5bd4910160405180910390a4505050565b6126aa613bd5565b607281905560405181907f2cf38ed7da57dd510fa6ecbfb991949cdde5c808acbe85cfa940b642def628ed90600090a250565b606754600160a01b900460ff16156127075760405162461bcd60e51b8152600401610b5a906155c5565b6000818152607d60205260409020546001600160a01b03166127605760405162461bcd60e51b81526020600482015260126024820152711cdbdb1d5d1a5bdb881b9bdd08199bdd5b9960721b6044820152606401610b5a565b6000818152607e60205260409020546001600160a01b0316156127b85760405162461bcd60e51b815260206004820152601060248201526f3430b99031b7b73a32b9ba30ba34b7b760811b6044820152606401610b5a565b6071546127c590426155fb565b6000828152607d6020526040902054600160a01b90046001600160401b0316106128245760405162461bcd60e51b815260206004820152601060248201526f6e6f7420656e6f7567682064656c617960801b6044820152606401610b5a565b6000818152607d6020526040902054600160e01b900460ff161561287c5760405162461bcd60e51b815260206004820152600f60248201526e185b1c9958591e4818db185a5b5959608a1b6044820152606401610b5a565b6000818152607d6020526040808220805460ff60e01b198116600160e01b17909155905183926001600160a01b03909216917f0b76b4ae356796814d36b46f7c500bbd27b2cce1e6059a6fa2bebfd5a389b19091a36128da81613fcc565b50565b6065546040516370a0823160e01b815230600482015260009182916001600160a01b03909116906370a0823190602401602060405180830381865afa15801561292a573d6000803e3d6000fd5b505050506040513d601f19601f8201168201806040525081019061294e91906158f2565b9050697f0e10af47c1c7000000811061296957600091505090565b61157e81697f0e10af47c1c70000006155fb565b6000818152607e60205260408120546001600160a01b03166129a1575060016114d2565b6073546000838152607e60205260409020546129cd9190600160a01b90046001600160401b0316615693565b4211156129dc575060026114d2565b6000828152607f602090815260408083206001600160a01b038716845290915290205460ff1615612a0f575060036114d2565b6001600160a01b0383166000908152607760205260408120600101549003612a39575060046114d2565b6074546001600160a01b0384166000908152607760205260409020600101541015612a66575060056114d2565b6000828152607e60209081526040808320546074546001600160a01b03881685526077909352922060010154600160a01b9092046001600160401b031691612aae91906155fb565b1115612abc575060066114d2565b50600092915050565b606754600160a01b900460ff1615612aef5760405162461bcd60e51b8152600401610b5a906155c5565b6000828152607e60205260409020546001600160a01b0316612b535760405162461bcd60e51b815260206004820152601a60248201527f636f6e746573746174696f6e20646f65736e27742065786973740000000000006044820152606401610b5a565b6073546000838152607e6020526040902054612b7f9190600160a01b90046001600160401b0316615693565b421015612bce5760405162461bcd60e51b815260206004820152601760248201527f766f74696e6720706572696f64206e6f7420656e6465640000000000000000006044820152606401610b5a565b60008163ffffffff1611612c155760405162461bcd60e51b815260206004820152600e60248201526d185b5b9d081d1bdbc81cdb585b1b60921b6044820152606401610b5a565b6000828152608160209081526040808320546082835281842054607e909352908320549092600160e01b90910463ffffffff1690612c53858361590b565b6000878152607e602052604090206001015490915063ffffffff8085169086161115612f46576000612c8b8263ffffffff871661560e565b905060008663ffffffff16600114612cb757612ca860028361563b565b612cb290836155fb565b612cb9565b815b905060008763ffffffff16600114612cf557612cd660018961592f565b63ffffffff16612ce683856155fb565b612cf0919061563b565b612cf8565b60005b905063ffffffff86165b8563ffffffff16811015612e89578863ffffffff16811015612e775760008b8152608160205260408120805483908110612d3e57612d3e61594c565b60009182526020808320909101546001600160a01b0316808352607790915260408220805491935088929091612d75908490615693565b90915550506000829003612dfe5760655460405163a9059cbb60e01b81526001600160a01b039091169063a9059cbb90612db5908490889060040161565d565b6020604051808303816000875af1158015612dd4573d6000803e3d6000fd5b505050506040513d601f19601f82011682018060405250810190612df89190615676565b50612e75565b60655460405163a9059cbb60e01b81526001600160a01b039091169063a9059cbb90612e30908490879060040161565d565b6020604051808303816000875af1158015612e4f573d6000803e3d6000fd5b505050506040513d601f19601f82011682018060405250810190612e739190615676565b505b505b80612e8181615962565b915050612d02565b5060008a8152607e6020526040812054600160e01b900463ffffffff169003612f3e5760655460008b8152607b602052604090819020600281015460019190910154915163a9059cbb60e01b81526001600160a01b039384169363a9059cbb93612ef9939091169160040161565d565b6020604051808303816000875af1158015612f18573d6000803e3d6000fd5b505050506040513d601f19601f82011682018060405250810190612f3c9190615676565b505b50505061317c565b6000612f588263ffffffff881661560e565b905060008563ffffffff16600114612f7a57612f7560028361563b565b612f7c565b815b905060008663ffffffff16600114612fb857612f9960018861592f565b63ffffffff16612fa983856155fb565b612fb3919061563b565b612fbb565b60005b905063ffffffff86165b8563ffffffff1681101561314c578763ffffffff1681101561313a5760008b81526082602052604081208054839081106130015761300161594c565b60009182526020808320909101546001600160a01b0316808352607790915260408220805491935088929091613038908490615693565b909155505060008290036130c15760655460405163a9059cbb60e01b81526001600160a01b039091169063a9059cbb90613078908490889060040161565d565b6020604051808303816000875af1158015613097573d6000803e3d6000fd5b505050506040513d601f19601f820116820180604052508101906130bb9190615676565b50613138565b60655460405163a9059cbb60e01b81526001600160a01b039091169063a9059cbb906130f3908490879060040161565d565b6020604051808303816000875af1158015613112573d6000803e3d6000fd5b505050506040513d601f19601f820116820180604052508101906131369190615676565b505b505b8061314481615962565b915050612fc5565b5060008a8152607e6020526040812054600160e01b900463ffffffff169003613178576131788a613fcc565b5050505b6000878152607e602090815260409182902080546001600160e01b0316600160e01b63ffffffff8781169182029290921790925592519081529185169189917f71d8c71303e35a39162e33a402c9897bf9848388537bac7d5e1b0d202eca4e66910160405180910390a350505050505050565b606754600160a01b900460ff16156132195760405162461bcd60e51b8152600401610b5a906155c5565b6065546040516323b872dd60e01b8152336004820152306024820152604481018390526001600160a01b03909116906323b872dd906064016020604051808303816000875af1158015613270573d6000803e3d6000fd5b505050506040513d601f19601f820116820180604052508101906132949190615676565b50600061329f61151b565b6001600160a01b038416600090815260776020526040902054909150811061330c576001600160a01b03831660009081526077602052604090205481906132e7908490615693565b1061330c576001600160a01b0383166000908152607760205260409020426001909101555b604080516060810182526001600160a01b038516600090815260776020529190912054819061333c908590615693565b81526001600160a01b038581166000818152607760208181526040808420600181018054848a015297820186905293859052918152865183558681015190955594850151600290910180546001600160a01b0319169190931617909155915184815233917f8d4844488c19a90828439e71d14ebad860806d04f8ef8b25a82179fab2699b8991015b60405180910390a3505050565b6133d9613bd5565b6000828152607660205260409020600101546001600160a01b03166134105760405162461bcd60e51b8152600401610b5a906156a6565b600082815260766020526040908190206002018290555182907f0321e8a918b4c47bf3677852c070983825f30a47bc8d9416691454fa6a727d63906134589084815260200190565b60405180910390a25050565b60008160000361347d5750670de0b6b3a76400006114d2565b670de0b6b3a7640000697f0e10af47c1c700000061349b85856113ac565b670de0b6b3a76400006134b886697f0e10af47c1c70000006155fb565b6134c2919061560e565b6134cc919061560e565b6134d6919061563b565b611210919061563b565b6134e8613bd5565b607481905560405181907fdb340415b83e58bab317964518d523baabcc1571de3b5d8fe6ebd52c704d31a990600090a250565b606754600160a01b900460ff16156135455760405162461bcd60e51b8152600401610b5a906155c5565b60655460665460685460405163a9059cbb60e01b81526001600160a01b039384169363a9059cbb9361357c9391169160040161565d565b6020604051808303816000875af115801561359b573d6000803e3d6000fd5b505050506040513d601f19601f820116820180604052508101906135bf9190615676565b506000606855565b6135cf613bd5565b607381905560405181907f3a559dce5761b4b2e6099b6dc8d51f7eb190932dc5797d8090daf1a42cd58e7d90600090a250565b61360a613bd5565b607581905560405181907f7bf73d8c24113d60e7de7e92ae237284cf5a6f8dfe31e8eee1c6d9c8890e13c990600090a250565b606754600160a01b900460ff16156136675760405162461bcd60e51b8152600401610b5a906155c5565b33600090815260796020908152604080832084845282529182902082518084019093528054808452600190910154918301919091526136dc5760405162461bcd60e51b81526020600482015260116024820152701c995c5d595cdd081b9bdd08195e1a5cdd607a1b6044820152606401610b5a565b602080820151336000908152607a909252604082208054919290916137029084906155fb565b9091555050336000818152607960209081526040808320868452909152808220828155600101829055518492917ff9d5cfcdfe9803069225971ba315f4302add9b477c3441cc363bc38fdb065b9091a35050565b600063bbf81e008211156137755750697f0e10af47c1c7000000919050565b60006137906114b461378b856301e13380614367565b61437f565b9050670de0b6b3a7640000816137b0697f0e10af47c1c70000008361560e565b6137c290670de0b6b3a764000061560e565b6137cc919061563b565b6137d6919061563b565b61121090697f0e10af47c1c70000006155fb565b6081602052816000526040600020818154811061161657600080fd5b61380e613bd5565b606680546001600160a01b0319166001600160a01b0383169081179091556040517f6bdb9ceff405d990c9b60be9f719fbb80889d5f064e8fd76efd5bea353e9071290600090a250565b607660205260009081526040902080546001820154600283015460038401805493946001600160a01b03909316939192916123ab906156d4565b607b602052600090815260409020805460018201546002830154600384018054939492936001600160a01b03831693600160a01b84046001600160401b031693600160e01b900460ff169290916138e8906156d4565b80601f0160208091040260200160405190810160405280929190818152602001828054613914906156d4565b80156139615780601f1061393657610100808354040283529160200191613961565b820191906000526020600020905b81548152906001019060200180831161394457829003601f168201915b5050505050905086565b613973613bd5565b6128da816143d5565b6060620100008211156139d15760405162461bcd60e51b815260206004820152601f60248201527f4d617820636f6e74656e742073697a65206973203635353336206279746573006044820152606401610b5a565b60006139dc8361444b565b90506000818585846040516020016139f7949392919061597b565b60405160208183030381529060405290506002613a14825161444b565b82604051602001613a269291906159d2565b60408051601f1981840301815290829052613a4091615a12565b602060405180830381855afa158015613a5d573d6000803e3d6000fd5b5050506040513d601f19601f82011682018060405250810190613a8091906158f2565b604051609160f51b602082015260228101919091526042016040516020818303038152906040529250505092915050565b6000838152607f602090815260408083206001600160a01b03851684529091529020805460ff191660011790558115613b205760008381526081602090815260408220805460018101825590835291200180546001600160a01b0319166001600160a01b038316179055613b58565b60008381526082602090815260408220805460018101825590835291200180546001600160a01b0319166001600160a01b0383161790555b6000838152607e60209081526040808320600101546001600160a01b038516845260779092528220805491929091613b919084906155fb565b9091555050604051821515815283906001600160a01b038316907f1aa9e4be46e24e1f2e7eeb1613c01629213cd42965d2716e18531b63e552e411906020016133c4565b6033546001600160a01b031633146123615760405162461bcd60e51b815260206004820181905260248201527f4f776e61626c653a2063616c6c6572206973206e6f7420746865206f776e65726044820152606401610b5a565b60008282600160ff1b821480613c485750600160ff1b81145b15613c66576040516309fe2b4560e41b815260040160405180910390fd5b60008060008412613c775783613c7c565b836000035b915060008312613c8c5782613c91565b826000035b90506000613ca883670de0b6b3a7640000846145a2565b90506001600160ff1b03811115613cdc5760405163d49c26b360e01b81526004810189905260248101889052604401610b5a565b60001985851813613cf881613cf457826000036114b4565b8290565b9998505050505050505050565b60006112106114b48385615a2e565b60008282600160ff1b821480613d2d5750600160ff1b81145b15613d4b5760405163a6070c2560e01b815260040160405180910390fd5b60008060008412613d5c5783613d61565b836000035b915060008312613d715782613d76565b826000035b90506000613d848383614676565b90506001600160ff1b03811115613cdc5760405163120b5b4360e01b81526004810189905260248101889052604401610b5a565b60006112106114b48385615a4e565b600081600160ff1b8101613dee5760405163ec2b9e6760e01b815260040160405180910390fd5b60008112613dfc5782611210565b6112106114b482615a76565b60008181811215613e695768033dd1780914b9711419811215613e2e5750600092915050565b613e62613e416114b46114af8460000390565b6ec097ce7bc90715b34b9f100000000081613e5e57613e5e615625565b0590565b9150613eb4565b680a688906bd8affffff811315613e9557604051626c1a0560e31b815260048101849052602401610b5a565b670de0b6b3a7640000604082901b05613eb06114b48261472c565b9250505b50919050565b600054610100900460ff16613ee15760405162461bcd60e51b8152600401610b5a90615a92565b612361614e8c565b60004661a4ba811480613efe575062066eed81145b80613f0b575062066eee81145b15613f735760646001600160a01b031663a3b1b31d6040518163ffffffff1660e01b8152600401602060405180830381865afa158015613f4f573d6000803e3d6000fd5b505050506040513d601f19601f8201168201806040525081019061157e91906158f2565b4391505090565b603380546001600160a01b038381166001600160a01b0319831681179093556040519116919082907f8be0079c531659141344cd1fd0a4f28419497f9722a3daafe3b4186f6b6457e090600090a35050565b6000818152607b602081815260408084208054855260768352908420549385905291905260010154811115613fff575060005b801561409d576065546000838152607b6020908152604080832054835260769091529081902060010154905163a9059cbb60e01b81526001600160a01b039283169263a9059cbb9261405892911690859060040161565d565b6020604051808303816000875af1158015614077573d6000803e3d6000fd5b505050506040513d601f19601f8201168201806040525081019061409b9190615676565b505b6000828152607b60205260408120600101546140ba9083906155fb565b90506000670de0b6b3a7640000606e54670de0b6b3a76400006140dd91906155fb565b6140e7908461560e565b6140f1919061563b565b6140fb90836155fb565b9050806068600082825461410f9190615693565b909155506000905061412182846155fb565b905080156141ba576065546000868152607d60205260409020546001600160a01b039182169163a9059cbb911661415885876155fb565b6040518363ffffffff1660e01b815260040161417592919061565d565b6020604051808303816000875af1158015614194573d6000803e3d6000fd5b505050506040513d601f19601f820116820180604052508101906141b89190615676565b505b6000858152607b602090815260408083205483526076909152902060020154801561435f576000670de0b6b3a7640000826141f36116a6565b6141fd919061560e565b614207919061563b565b9050801561435d576000670de0b6b3a7640000607054670de0b6b3a764000061423091906155fb565b61423a908461560e565b614244919061563b565b61424e90836155fb565b60655460008a8152607d60205260409020549192506001600160a01b039081169163a9059cbb911661428084866155fb565b6040518363ffffffff1660e01b815260040161429d92919061565d565b6020604051808303816000875af11580156142bc573d6000803e3d6000fd5b505050506040513d601f19601f820116820180604052508101906142e09190615676565b5060655460665460405163a9059cbb60e01b81526001600160a01b039283169263a9059cbb9261431792911690859060040161565d565b6020604051808303816000875af1158015614336573d6000803e3d6000fd5b505050506040513d601f19601f8201168201806040525081019061435a9190615676565b50505b505b505050505050565b60006112106114b484670de0b6b3a7640000856145a2565b600081680a688906bd8affffff8111156143af5760405163b3b6ba1f60e01b815260048101849052602401610b5a565b60006143c7670de0b6b3a7640000604084901b61563b565b9050613eb06114b48261472c565b6143dd613bd5565b6001600160a01b0381166144425760405162461bcd60e51b815260206004820152602660248201527f4f776e61626c653a206e6577206f776e657220697320746865207a65726f206160448201526564647265737360d01b6064820152608401610b5a565b6128da81613f7a565b60608160015b607f826001600160401b03161115614484576007826001600160401b0316901c91508061447d90615add565b9050614451565b6000816001600160401b03166001600160401b038111156144a7576144a7615015565b6040519080825280601f01601f1916602001820160405280156144d1576020820181803683370190505b50905084925060005b826001600160401b0316816001600160401b031610156145535783607f1660801760f81b82826001600160401b0316815181106145195761451961594c565b60200101906001600160f81b031916908160001a9053506007846001600160401b0316901c9350808061454b90615add565b9150506144da565b50607f60f81b81614565600185615b03565b6001600160401b03168151811061457e5761457e61594c565b0160200180519091166001600160f81b03191690600082901a905350949350505050565b60008080600019858709858702925082811083820303915050806000036145dc578382816145d2576145d2615625565b0492505050611210565b83811061460d57604051630c740aef60e31b8152600481018790526024810186905260448101859052606401610b5a565b60008486880960026001871981018816978890046003810283188082028403028082028403028082028403028082028403028082028403029081029092039091026000889003889004909101858311909403939093029303949094049190911702949350505050565b60008080600019848609848602925082811083820303915050806000036146aa5750670de0b6b3a7640000900490506114d2565b670de0b6b3a764000081106146dc57604051635173648d60e01b81526004810186905260248101859052604401610b5a565b6000670de0b6b3a764000085870962040000818503049310909103600160ee1b02919091177faccb18165bd6fe31ae1cf318dc5b51eee0e1ba569b88cd74c1773b91fac106690291505092915050565b600160bf1b67ff00000000000000821615614839576780000000000000008216156147605768016a09e667f3bcc9090260401c5b67400000000000000082161561477f576801306fe0a31b7152df0260401c5b67200000000000000082161561479e576801172b83c7d517adce0260401c5b6710000000000000008216156147bd5768010b5586cf9890f62a0260401c5b6708000000000000008216156147dc576801059b0d31585743ae0260401c5b6704000000000000008216156147fb57680102c9a3e778060ee70260401c5b67020000000000000082161561481a5768010163da9fb33356d80260401c5b67010000000000000082161561483957680100b1afa5abcbed610260401c5b66ff0000000000008216156149385766800000000000008216156148665768010058c86da1c09ea20260401c5b6640000000000000821615614884576801002c605e2e8cec500260401c5b66200000000000008216156148a257680100162f3904051fa10260401c5b66100000000000008216156148c0576801000b175effdc76ba0260401c5b66080000000000008216156148de57680100058ba01fb9f96d0260401c5b66040000000000008216156148fc5768010002c5cc37da94920260401c5b660200000000000082161561491a576801000162e525ee05470260401c5b66010000000000008216156149385768010000b17255775c040260401c5b65ff0000000000821615614a2e5765800000000000821615614963576801000058b91b5bc9ae0260401c5b6540000000000082161561498057680100002c5c89d5ec6d0260401c5b6520000000000082161561499d5768010000162e43f4f8310260401c5b651000000000008216156149ba57680100000b1721bcfc9a0260401c5b650800000000008216156149d75768010000058b90cf1e6e0260401c5b650400000000008216156149f4576801000002c5c863b73f0260401c5b65020000000000821615614a1157680100000162e430e5a20260401c5b65010000000000821615614a2e576801000000b1721835510260401c5b64ff00000000821615614b1b57648000000000821615614a5757680100000058b90c0b490260401c5b644000000000821615614a735768010000002c5c8601cc0260401c5b642000000000821615614a8f576801000000162e42fff00260401c5b641000000000821615614aab5768010000000b17217fbb0260401c5b640800000000821615614ac7576801000000058b90bfce0260401c5b640400000000821615614ae357680100000002c5c85fe30260401c5b640200000000821615614aff5768010000000162e42ff10260401c5b640100000000821615614b1b57680100000000b17217f80260401c5b63ff000000821615614bff576380000000821615614b425768010000000058b90bfc0260401c5b6340000000821615614b5d576801000000002c5c85fe0260401c5b6320000000821615614b7857680100000000162e42ff0260401c5b6310000000821615614b93576801000000000b17217f0260401c5b6308000000821615614bae57680100000000058b90c00260401c5b6304000000821615614bc95768010000000002c5c8600260401c5b6302000000821615614be4576801000000000162e4300260401c5b6301000000821615614bff5768010000000000b172180260401c5b62ff0000821615614cda5762800000821615614c24576801000000000058b90c0260401c5b62400000821615614c3e57680100000000002c5c860260401c5b62200000821615614c585768010000000000162e430260401c5b62100000821615614c7257680100000000000b17210260401c5b62080000821615614c8c5768010000000000058b910260401c5b62040000821615614ca6576801000000000002c5c80260401c5b62020000821615614cc057680100000000000162e40260401c5b62010000821615614cda576801000000000000b1720260401c5b61ff00821615614dac57618000821615614cfd57680100000000000058b90260401c5b614000821615614d165768010000000000002c5d0260401c5b612000821615614d2f576801000000000000162e0260401c5b611000821615614d485768010000000000000b170260401c5b610800821615614d61576801000000000000058c0260401c5b610400821615614d7a57680100000000000002c60260401c5b610200821615614d9357680100000000000001630260401c5b610100821615614dac57680100000000000000b10260401c5b60ff821615614e75576080821615614dcd57680100000000000000590260401c5b6040821615614de5576801000000000000002c0260401c5b6020821615614dfd57680100000000000000160260401c5b6010821615614e15576801000000000000000b0260401c5b6008821615614e2d57680100000000000000060260401c5b6004821615614e4557680100000000000000030260401c5b6002821615614e5d57680100000000000000010260401c5b6001821615614e7557680100000000000000010260401c5b670de0b6b3a76400000260409190911c60bf031c90565b600054610100900460ff16614eb35760405162461bcd60e51b8152600401610b5a90615a92565b61236133613f7a565b508054614ec8906156d4565b6000825580601f10614ed8575050565b601f0160209004906000526020600020908101906128da91905b80821115614f065760008155600101614ef2565b5090565b600060208284031215614f1c57600080fd5b5035919050565b803560ff811681146111cb57600080fd5b6001600160a01b03811681146128da57600080fd5b80356111cb81614f34565b60008083601f840112614f6657600080fd5b5081356001600160401b03811115614f7d57600080fd5b602083019150836020828501011115614f9557600080fd5b9250929050565b60008060008060008060a08789031215614fb557600080fd5b614fbe87614f23565b95506020870135614fce81614f34565b9450604087013593506060870135925060808701356001600160401b03811115614ff757600080fd5b61500389828a01614f54565b979a9699509497509295939492505050565b634e487b7160e01b600052604160045260246000fd5b60405160c081016001600160401b038111828210171561504d5761504d615015565b60405290565b600082601f83011261506457600080fd5b81356001600160401b038082111561507e5761507e615015565b604051601f8301601f19908116603f011681019082821181831017156150a6576150a6615015565b816040528381528660208588010111156150bf57600080fd5b836020870160208301376000602085830101528094505050505092915050565b6000806000606084860312156150f457600080fd5b83356001600160401b038082111561510b57600080fd5b9085019060c0828803121561511f57600080fd5b61512761502b565b8235815260208301356020820152604083013561514381614f34565b60408201526060830135828116811461515b57600080fd5b606082015261516c60808401614f23565b608082015260a08301358281111561518357600080fd5b61518f89828601615053565b60a08301525094506151a691505060208501614f49565b9150604084013590509250925092565b80151581146128da57600080fd5b6000602082840312156151d657600080fd5b8135611210816151b6565b600080604083850312156151f457600080fd5b823591506020830135615206816151b6565b809150509250929050565b60006020828403121561522357600080fd5b813561121081614f34565b6000806040838503121561524157600080fd5b50508035926020909101359150565b6000806040838503121561526357600080fd5b82356001600160401b038082111561527a57600080fd5b908401906080828703121561528e57600080fd5b6040516080810181811083821117156152a9576152a9615015565b6040528235815260208301356152be81614f34565b6020820152604083810135908201526060830135828111156152df57600080fd5b6152eb88828601615053565b606083015250935061530291505060208401614f49565b90509250929050565b6000806000806060858703121561532157600080fd5b843561532c81614f34565b93506020850135925060408501356001600160401b0381111561534e57600080fd5b61535a87828801614f54565b95989497509550505050565b6000806020838503121561537957600080fd5b82356001600160401b0381111561538f57600080fd5b61539b85828601614f54565b90969095509350505050565b60005b838110156153c25781810151838201526020016153aa565b50506000910152565b600081518084526153e38160208601602086016153a7565b601f01601f19169290920160200192915050565b60208152600061121060208301846153cb565b6000806040838503121561541d57600080fd5b823561542881614f34565b9150602083013561520681614f34565b60008060006040848603121561544d57600080fd5b8335925060208401356001600160401b0381111561546a57600080fd5b61547686828701614f54565b9497909650939450505050565b6001600160a01b03851681526001600160401b038416602082015282151560408201526080606082018190526000906154be908301846153cb565b9695505050505050565b600080604083850312156154db57600080fd5b82359150602083013561520681614f34565b6000806040838503121561550057600080fd5b823561550b81614f34565b946020939093013593505050565b6000806040838503121561552c57600080fd5b82359150602083013563ffffffff8116811461520657600080fd5b84815260018060a01b03841660208201528260408201526080606082015260006154be60808301846153cb565b86815285602082015260018060a01b03851660408201526001600160401b038416606082015260ff8316608082015260c060a082015260006155b960c08301846153cb565b98975050505050505050565b6020808252600690820152651c185d5cd95960d21b604082015260600190565b634e487b7160e01b600052601160045260246000fd5b818103818111156114d2576114d26155e5565b80820281158282048414176114d2576114d26155e5565b634e487b7160e01b600052601260045260246000fd5b60008261565857634e487b7160e01b600052601260045260246000fd5b500490565b6001600160a01b03929092168252602082015260400190565b60006020828403121561568857600080fd5b8151611210816151b6565b808201808211156114d2576114d26155e5565b6020808252601490820152731b5bd9195b08191bd95cc81b9bdd08195e1a5cdd60621b604082015260600190565b600181811c908216806156e857607f821691505b602082108103613eb457634e487b7160e01b600052602260045260246000fd5b601f82111561196657600081815260208120601f850160051c8101602086101561572f5750805b601f850160051c820191505b8181101561435f5782815560010161573b565b81516001600160401b0381111561576757615767615015565b61577b8161577584546156d4565b84615708565b602080601f8311600181146157b057600084156157985750858301515b600019600386901b1c1916600185901b17855561435f565b600085815260208120601f198616915b828110156157df578886015182559484019460019091019084016157c0565b50858210156157fd5787850151600019600388901b60f8161c191681555b5050505050600190811b01905550565b60018060a01b038616815284602082015283604082015282606082015260a06080820152600061584060a08301846153cb565b979650505050505050565b6020808252601290820152716d696e207374616b656420746f6f206c6f7760701b604082015260600190565b6001600160a01b03858116825284166020820152604081018390526080606082018190526000906154be908301846153cb565b6001600160a01b0385168152602081018490526060604082018190528101829052818360808301376000818301608090810191909152601f909201601f191601019392505050565b60006020828403121561590457600080fd5b5051919050565b63ffffffff818116838216019080821115615928576159286155e5565b5092915050565b63ffffffff828116828216039080821115615928576159286155e5565b634e487b7160e01b600052603260045260246000fd5b600060018201615974576159746155e5565b5060010190565b6204010960e91b8152845160009061599a816003850160208a016153a7565b820184866003830137600360fb1b60039186019182015283516159c48160048401602088016153a7565b016004019695505050505050565b600560f91b815282516000906159ef8160018501602088016153a7565b835190830190615a068160018401602088016153a7565b01600101949350505050565b60008251615a248184602087016153a7565b9190910192915050565b8181036000831280158383131683831282161715615928576159286155e5565b8082018281126000831280158216821582161715615a6e57615a6e6155e5565b505092915050565b6000600160ff1b8201615a8b57615a8b6155e5565b5060000390565b6020808252602b908201527f496e697469616c697a61626c653a20636f6e7472616374206973206e6f74206960408201526a6e697469616c697a696e6760a81b606082015260800190565b60006001600160401b03808316818103615af957615af96155e5565b6001019392505050565b6001600160401b03828116828216039080821115615928576159286155e556fea2646970667358221220a459dbeadc0f654f278e9cbe9993ec60808dff5eea5160cafbd941c9ef7fa1d764736f6c63430008130033","opcodes":"PUSH1 0x80 PUSH1 0x40 MSTORE CALLVALUE DUP1 ISZERO PUSH3 0x11 JUMPI PUSH1 0x0 DUP1 REVERT JUMPDEST POP PUSH3 0x1C PUSH3 0x22 JUMP JUMPDEST PUSH3 0xE3 JUMP JUMPDEST PUSH1 0x0 SLOAD PUSH2 0x100 SWAP1 DIV PUSH1 0xFF AND ISZERO PUSH3 0x8F JUMPI PUSH1 0x40 MLOAD PUSH3 0x461BCD PUSH1 0xE5 SHL DUP2 MSTORE PUSH1 0x20 PUSH1 0x4 DUP3 ADD MSTORE PUSH1 0x27 PUSH1 0x24 DUP3 ADD MSTORE PUSH32 0x496E697469616C697A61626C653A20636F6E747261637420697320696E697469 PUSH1 0x44 DUP3 ADD MSTORE PUSH7 0x616C697A696E67 PUSH1 0xC8 SHL PUSH1 0x64 DUP3 ADD MSTORE PUSH1 0x84 ADD PUSH1 0x40 MLOAD DUP1 SWAP2 SUB SWAP1 REVERT JUMPDEST PUSH1 0x0 SLOAD PUSH1 0xFF SWAP1 DUP2 AND EQ PUSH3 0xE1 JUMPI PUSH1 0x0 DUP1 SLOAD PUSH1 0xFF NOT AND PUSH1 0xFF SWAP1 DUP2 OR SWAP1 SWAP2 SSTORE PUSH1 0x40 MLOAD SWAP1 DUP2 MSTORE PUSH32 0x7F26B83FF96E1F2B6A682F133852F6798A09C465DA95921460CEFB3847402498 SWAP1 PUSH1 0x20 ADD PUSH1 0x40 MLOAD DUP1 SWAP2 SUB SWAP1 LOG1 JUMPDEST JUMP JUMPDEST PUSH2 0x5B59 DUP1 PUSH3 0xF3 PUSH1 0x0 CODECOPY PUSH1 0x0 RETURN INVALID PUSH1 0x80 PUSH1 0x40 MSTORE CALLVALUE DUP1 ISZERO PUSH2 0x10 JUMPI PUSH1 0x0 DUP1 REVERT JUMPDEST POP PUSH1 0x4 CALLDATASIZE LT PUSH2 0x45D JUMPI PUSH1 0x0 CALLDATALOAD PUSH1 0xE0 SHR DUP1 PUSH4 0x75C70509 GT PUSH2 0x24C JUMPI DUP1 PUSH4 0xADA82C7D GT PUSH2 0x146 JUMPI DUP1 PUSH4 0xD2780940 GT PUSH2 0xC3 JUMPI DUP1 PUSH4 0xE236F46B GT PUSH2 0x87 JUMPI DUP1 PUSH4 0xE236F46B EQ PUSH2 0xA70 JUMPI DUP1 PUSH4 0xE579F500 EQ PUSH2 0xA93 JUMPI DUP1 PUSH4 0xF1B8989D EQ PUSH2 0xAB8 JUMPI DUP1 PUSH4 0xF2FDE38B EQ PUSH2 0xAC1 JUMPI DUP1 PUSH4 0xFA52C7D8 EQ PUSH2 0xAD4 JUMPI PUSH1 0x0 DUP1 REVERT JUMPDEST DUP1 PUSH4 0xD2780940 EQ PUSH2 0x950 JUMPI DUP1 PUSH4 0xD2992BAA EQ PUSH2 0x97E JUMPI DUP1 PUSH4 0xD33B2EF5 EQ PUSH2 0x9C5 JUMPI DUP1 PUSH4 0xD8A6021C EQ PUSH2 0xA54 JUMPI DUP1 PUSH4 0xDC06A89F EQ PUSH2 0xA67 JUMPI PUSH1 0x0 DUP1 REVERT JUMPDEST DUP1 PUSH4 0xC55DAE63 GT PUSH2 0x10A JUMPI DUP1 PUSH4 0xC55DAE63 EQ PUSH2 0x8E4 JUMPI DUP1 PUSH4 0xCBD2422D EQ PUSH2 0x8F7 JUMPI DUP1 PUSH4 0xCF596E45 EQ PUSH2 0x90A JUMPI DUP1 PUSH4 0xD1F0C941 EQ PUSH2 0x91D JUMPI DUP1 PUSH4 0xD2307AE4 EQ PUSH2 0x930 JUMPI PUSH1 0x0 DUP1 REVERT JUMPDEST DUP1 PUSH4 0xADA82C7D EQ PUSH2 0x8A4 JUMPI DUP1 PUSH4 0xB66BADBF EQ PUSH2 0x8AC JUMPI DUP1 PUSH4 0xC17DDB2A EQ PUSH2 0x8BF JUMPI DUP1 PUSH4 0xC31784BE EQ PUSH2 0x8C8 JUMPI DUP1 PUSH4 0xC3187978 EQ PUSH2 0x8D1 JUMPI PUSH1 0x0 DUP1 REVERT JUMPDEST DUP1 PUSH4 0x8DA5CB5B GT PUSH2 0x1D4 JUMPI DUP1 PUSH4 0x96BB02C3 GT PUSH2 0x198 JUMPI DUP1 PUSH4 0x96BB02C3 EQ PUSH2 0x859 JUMPI DUP1 PUSH4 0x9FD0506D EQ PUSH2 0x862 JUMPI DUP1 PUSH4 0xA4FA8D57 EQ PUSH2 0x875 JUMPI DUP1 PUSH4 0xA53E2525 EQ PUSH2 0x888 JUMPI DUP1 PUSH4 0xAA59E7E7 EQ PUSH2 0x891 JUMPI PUSH1 0x0 DUP1 REVERT JUMPDEST DUP1 PUSH4 0x8DA5CB5B EQ PUSH2 0x810 JUMPI DUP1 PUSH4 0x8E6D86FD EQ PUSH2 0x821 JUMPI DUP1 PUSH4 0x92809444 EQ PUSH2 0x82A JUMPI DUP1 PUSH4 0x93A090EC EQ PUSH2 0x833 JUMPI DUP1 PUSH4 0x93F1F8AC EQ PUSH2 0x846 JUMPI PUSH1 0x0 DUP1 REVERT JUMPDEST DUP1 PUSH4 0x7881C5E6 GT PUSH2 0x21B JUMPI DUP1 PUSH4 0x7881C5E6 EQ PUSH2 0x7B9 JUMPI DUP1 PUSH4 0x7B36006A EQ PUSH2 0x7C1 JUMPI DUP1 PUSH4 0x83657795 EQ PUSH2 0x7CA JUMPI DUP1 PUSH4 0x839DF945 EQ PUSH2 0x7DD JUMPI DUP1 PUSH4 0x8B4D7B35 EQ PUSH2 0x7FD JUMPI PUSH1 0x0 DUP1 REVERT JUMPDEST DUP1 PUSH4 0x75C70509 EQ PUSH2 0x75D JUMPI DUP1 PUSH4 0x763253BB EQ PUSH2 0x780 JUMPI DUP1 PUSH4 0x7683DBFB EQ PUSH2 0x793 JUMPI DUP1 PUSH4 0x77286D17 EQ PUSH2 0x7A6 JUMPI PUSH1 0x0 DUP1 REVERT JUMPDEST DUP1 PUSH4 0x3D18B912 GT PUSH2 0x35D JUMPI DUP1 PUSH4 0x54FD4D50 GT PUSH2 0x2E5 JUMPI DUP1 PUSH4 0x61D027B3 GT PUSH2 0x2A9 JUMPI DUP1 PUSH4 0x61D027B3 EQ PUSH2 0x71D JUMPI DUP1 PUSH4 0x671F8152 EQ PUSH2 0x730 JUMPI DUP1 PUSH4 0x682C2058 EQ PUSH2 0x743 JUMPI DUP1 PUSH4 0x715018A6 EQ PUSH2 0x74C JUMPI DUP1 PUSH4 0x72DC0EE1 EQ PUSH2 0x754 JUMPI PUSH1 0x0 DUP1 REVERT JUMPDEST DUP1 PUSH4 0x54FD4D50 EQ PUSH2 0x6B7 JUMPI DUP1 PUSH4 0x56914CAF EQ PUSH2 0x6C0 JUMPI DUP1 PUSH4 0x5B851DAA EQ PUSH2 0x6D3 JUMPI DUP1 PUSH4 0x5C975ABB EQ PUSH2 0x6E6 JUMPI DUP1 PUSH4 0x605CECF6 EQ PUSH2 0x70A JUMPI PUSH1 0x0 DUP1 REVERT JUMPDEST DUP1 PUSH4 0x4421EA21 GT PUSH2 0x32C JUMPI DUP1 PUSH4 0x4421EA21 EQ PUSH2 0x658 JUMPI DUP1 PUSH4 0x485CC955 EQ PUSH2 0x66B JUMPI DUP1 PUSH4 0x49094D4D EQ PUSH2 0x67E JUMPI DUP1 PUSH4 0x4FF03EFA EQ PUSH2 0x691 JUMPI DUP1 PUSH4 0x506EA7DE EQ PUSH2 0x6A4 JUMPI PUSH1 0x0 DUP1 REVERT JUMPDEST DUP1 PUSH4 0x3D18B912 EQ PUSH2 0x615 JUMPI DUP1 PUSH4 0x3D57F5D9 EQ PUSH2 0x61D JUMPI DUP1 PUSH4 0x408DEF1E EQ PUSH2 0x625 JUMPI DUP1 PUSH4 0x40E8C56D EQ PUSH2 0x638 JUMPI PUSH1 0x0 DUP1 REVERT JUMPDEST DUP1 PUSH4 0x1B2CF4B8 GT PUSH2 0x3EB JUMPI DUP1 PUSH4 0x28C2D36C GT PUSH2 0x3AF JUMPI DUP1 PUSH4 0x28C2D36C EQ PUSH2 0x59E JUMPI DUP1 PUSH4 0x2F9B03E4 EQ PUSH2 0x5B1 JUMPI DUP1 PUSH4 0x303FB0D6 EQ PUSH2 0x5C4 JUMPI DUP1 PUSH4 0x36F83C4F EQ PUSH2 0x5EF JUMPI DUP1 PUSH4 0x393CB1C7 EQ PUSH2 0x602 JUMPI PUSH1 0x0 DUP1 REVERT JUMPDEST DUP1 PUSH4 0x1B2CF4B8 EQ PUSH2 0x53D JUMPI DUP1 PUSH4 0x1B75C43E EQ PUSH2 0x550 JUMPI DUP1 PUSH4 0x1F88EA1C EQ PUSH2 0x570 JUMPI DUP1 PUSH4 0x218A3048 EQ PUSH2 0x583 JUMPI DUP1 PUSH4 0x2258D105 EQ PUSH2 0x596 JUMPI PUSH1 0x0 DUP1 REVERT JUMPDEST DUP1 PUSH4 0xC18D4CE GT PUSH2 0x432 JUMPI DUP1 PUSH4 0xC18D4CE EQ PUSH2 0x4B9 JUMPI DUP1 PUSH4 0x1466B63A EQ PUSH2 0x4E4 JUMPI DUP1 PUSH4 0x16C38B3C EQ PUSH2 0x4F7 JUMPI DUP1 PUSH4 0x17F3E041 EQ PUSH2 0x50A JUMPI DUP1 PUSH4 0x1825C20E EQ PUSH2 0x52A JUMPI PUSH1 0x0 DUP1 REVERT JUMPDEST DUP1 PUSH3 0x3F9DD6 EQ PUSH2 0x462 JUMPI DUP1 PUSH3 0xFD7082 EQ PUSH2 0x477 JUMPI DUP1 PUSH4 0x8745DD1 EQ PUSH2 0x493 JUMPI DUP1 PUSH4 0xA985737 EQ PUSH2 0x4A6 JUMPI JUMPDEST PUSH1 0x0 DUP1 REVERT JUMPDEST PUSH2 0x475 PUSH2 0x470 CALLDATASIZE PUSH1 0x4 PUSH2 0x4F0A JUMP JUMPDEST PUSH2 0xB30 JUMP JUMPDEST STOP JUMPDEST PUSH2 0x480 PUSH1 0x72 SLOAD DUP2 JUMP JUMPDEST PUSH1 0x40 MLOAD SWAP1 DUP2 MSTORE PUSH1 0x20 ADD JUMPDEST PUSH1 0x40 MLOAD DUP1 SWAP2 SUB SWAP1 RETURN JUMPDEST PUSH2 0x480 PUSH2 0x4A1 CALLDATASIZE PUSH1 0x4 PUSH2 0x4F9C JUMP JUMPDEST PUSH2 0xDE8 JUMP JUMPDEST PUSH2 0x480 PUSH2 0x4B4 CALLDATASIZE PUSH1 0x4 PUSH2 0x4F0A JUMP JUMPDEST PUSH2 0x1075 JUMP JUMPDEST PUSH1 0x6A SLOAD PUSH2 0x4CC SWAP1 PUSH1 0x1 PUSH1 0x1 PUSH1 0x40 SHL SUB AND DUP2 JUMP JUMPDEST PUSH1 0x40 MLOAD PUSH1 0x1 PUSH1 0x1 PUSH1 0x40 SHL SUB SWAP1 SWAP2 AND DUP2 MSTORE PUSH1 0x20 ADD PUSH2 0x48A JUMP JUMPDEST PUSH2 0x480 PUSH2 0x4F2 CALLDATASIZE PUSH1 0x4 PUSH2 0x50DF JUMP JUMPDEST PUSH2 0x11D0 JUMP JUMPDEST PUSH2 0x475 PUSH2 0x505 CALLDATASIZE PUSH1 0x4 PUSH2 0x51C4 JUMP JUMPDEST PUSH2 0x1217 JUMP JUMPDEST PUSH2 0x480 PUSH2 0x518 CALLDATASIZE PUSH1 0x4 PUSH2 0x4F0A JUMP JUMPDEST PUSH1 0x80 PUSH1 0x20 MSTORE PUSH1 0x0 SWAP1 DUP2 MSTORE PUSH1 0x40 SWAP1 KECCAK256 SLOAD DUP2 JUMP JUMPDEST PUSH2 0x475 PUSH2 0x538 CALLDATASIZE PUSH1 0x4 PUSH2 0x51E1 JUMP JUMPDEST PUSH2 0x12A7 JUMP JUMPDEST PUSH2 0x475 PUSH2 0x54B CALLDATASIZE PUSH1 0x4 PUSH2 0x4F0A JUMP JUMPDEST PUSH2 0x1371 JUMP JUMPDEST PUSH2 0x480 PUSH2 0x55E CALLDATASIZE PUSH1 0x4 PUSH2 0x5211 JUMP JUMPDEST PUSH1 0x7A PUSH1 0x20 MSTORE PUSH1 0x0 SWAP1 DUP2 MSTORE PUSH1 0x40 SWAP1 KECCAK256 SLOAD DUP2 JUMP JUMPDEST PUSH2 0x480 PUSH2 0x57E CALLDATASIZE PUSH1 0x4 PUSH2 0x522E JUMP JUMPDEST PUSH2 0x13AC JUMP JUMPDEST PUSH2 0x480 PUSH2 0x591 CALLDATASIZE PUSH1 0x4 PUSH2 0x5250 JUMP JUMPDEST PUSH2 0x14D8 JUMP JUMPDEST PUSH2 0x480 PUSH2 0x151B JUMP JUMPDEST PUSH2 0x475 PUSH2 0x5AC CALLDATASIZE PUSH1 0x4 PUSH2 0x4F0A JUMP JUMPDEST PUSH2 0x1584 JUMP JUMPDEST PUSH2 0x475 PUSH2 0x5BF CALLDATASIZE PUSH1 0x4 PUSH2 0x4F0A JUMP JUMPDEST PUSH2 0x15BF JUMP JUMPDEST PUSH2 0x5D7 PUSH2 0x5D2 CALLDATASIZE PUSH1 0x4 PUSH2 0x522E JUMP JUMPDEST PUSH2 0x15FA JUMP JUMPDEST PUSH1 0x40 MLOAD PUSH1 0x1 PUSH1 0x1 PUSH1 0xA0 SHL SUB SWAP1 SWAP2 AND DUP2 MSTORE PUSH1 0x20 ADD PUSH2 0x48A JUMP JUMPDEST PUSH2 0x475 PUSH2 0x5FD CALLDATASIZE PUSH1 0x4 PUSH2 0x4F0A JUMP JUMPDEST PUSH2 0x1632 JUMP JUMPDEST PUSH2 0x480 PUSH2 0x610 CALLDATASIZE PUSH1 0x4 PUSH2 0x530B JUMP JUMPDEST PUSH2 0x166D JUMP JUMPDEST PUSH2 0x480 PUSH2 0x16A6 JUMP JUMPDEST PUSH2 0x480 PUSH2 0x16D0 JUMP JUMPDEST PUSH2 0x475 PUSH2 0x633 CALLDATASIZE PUSH1 0x4 PUSH2 0x4F0A JUMP JUMPDEST PUSH2 0x1715 JUMP JUMPDEST PUSH2 0x64B PUSH2 0x646 CALLDATASIZE PUSH1 0x4 PUSH2 0x5366 JUMP JUMPDEST PUSH2 0x1758 JUMP JUMPDEST PUSH1 0x40 MLOAD PUSH2 0x48A SWAP2 SWAP1 PUSH2 0x53F7 JUMP JUMPDEST PUSH2 0x475 PUSH2 0x666 CALLDATASIZE PUSH1 0x4 PUSH2 0x5211 JUMP JUMPDEST PUSH2 0x1764 JUMP JUMPDEST PUSH2 0x475 PUSH2 0x679 CALLDATASIZE PUSH1 0x4 PUSH2 0x540A JUMP JUMPDEST PUSH2 0x17B6 JUMP JUMPDEST PUSH2 0x475 PUSH2 0x68C CALLDATASIZE PUSH1 0x4 PUSH2 0x51E1 JUMP JUMPDEST PUSH2 0x196B JUMP JUMPDEST PUSH2 0x480 PUSH2 0x69F CALLDATASIZE PUSH1 0x4 PUSH2 0x530B JUMP JUMPDEST PUSH2 0x1A2B JUMP JUMPDEST PUSH2 0x475 PUSH2 0x6B2 CALLDATASIZE PUSH1 0x4 PUSH2 0x4F0A JUMP JUMPDEST PUSH2 0x1BF1 JUMP JUMPDEST PUSH2 0x480 PUSH1 0x6B SLOAD DUP2 JUMP JUMPDEST PUSH2 0x475 PUSH2 0x6CE CALLDATASIZE PUSH1 0x4 PUSH2 0x5438 JUMP JUMPDEST PUSH2 0x1CB3 JUMP JUMPDEST PUSH2 0x475 PUSH2 0x6E1 CALLDATASIZE PUSH1 0x4 PUSH2 0x4F0A JUMP JUMPDEST PUSH2 0x1FC7 JUMP JUMPDEST PUSH1 0x67 SLOAD PUSH2 0x6FA SWAP1 PUSH1 0x1 PUSH1 0xA0 SHL SWAP1 DIV PUSH1 0xFF AND DUP2 JUMP JUMPDEST PUSH1 0x40 MLOAD SWAP1 ISZERO ISZERO DUP2 MSTORE PUSH1 0x20 ADD PUSH2 0x48A JUMP JUMPDEST PUSH2 0x475 PUSH2 0x718 CALLDATASIZE PUSH1 0x4 PUSH2 0x4F0A JUMP JUMPDEST PUSH2 0x2002 JUMP JUMPDEST PUSH1 0x66 SLOAD PUSH2 0x5D7 SWAP1 PUSH1 0x1 PUSH1 0x1 PUSH1 0xA0 SHL SUB AND DUP2 JUMP JUMPDEST PUSH2 0x475 PUSH2 0x73E CALLDATASIZE PUSH1 0x4 PUSH2 0x4F0A JUMP JUMPDEST PUSH2 0x203D JUMP JUMPDEST PUSH2 0x480 PUSH1 0x68 SLOAD DUP2 JUMP JUMPDEST PUSH2 0x475 PUSH2 0x234F JUMP JUMPDEST PUSH2 0x480 PUSH1 0x6F SLOAD DUP2 JUMP JUMPDEST PUSH2 0x770 PUSH2 0x76B CALLDATASIZE PUSH1 0x4 PUSH2 0x4F0A JUMP JUMPDEST PUSH2 0x2363 JUMP JUMPDEST PUSH1 0x40 MLOAD PUSH2 0x48A SWAP5 SWAP4 SWAP3 SWAP2 SWAP1 PUSH2 0x5483 JUMP JUMPDEST PUSH2 0x475 PUSH2 0x78E CALLDATASIZE PUSH1 0x4 PUSH2 0x54C8 JUMP JUMPDEST PUSH2 0x242E JUMP JUMPDEST PUSH2 0x475 PUSH2 0x7A1 CALLDATASIZE PUSH1 0x4 PUSH2 0x4F0A JUMP JUMPDEST PUSH2 0x26A2 JUMP JUMPDEST PUSH2 0x475 PUSH2 0x7B4 CALLDATASIZE PUSH1 0x4 PUSH2 0x4F0A JUMP JUMPDEST PUSH2 0x26DD JUMP JUMPDEST PUSH2 0x480 PUSH2 0x28DD JUMP JUMPDEST PUSH2 0x480 PUSH1 0x73 SLOAD DUP2 JUMP JUMPDEST PUSH2 0x480 PUSH2 0x7D8 CALLDATASIZE PUSH1 0x4 PUSH2 0x54ED JUMP JUMPDEST PUSH2 0x297D JUMP JUMPDEST PUSH2 0x480 PUSH2 0x7EB CALLDATASIZE PUSH1 0x4 PUSH2 0x4F0A JUMP JUMPDEST PUSH1 0x7C PUSH1 0x20 MSTORE PUSH1 0x0 SWAP1 DUP2 MSTORE PUSH1 0x40 SWAP1 KECCAK256 SLOAD DUP2 JUMP JUMPDEST PUSH2 0x475 PUSH2 0x80B CALLDATASIZE PUSH1 0x4 PUSH2 0x5519 JUMP JUMPDEST PUSH2 0x2AC5 JUMP JUMPDEST PUSH1 0x33 SLOAD PUSH1 0x1 PUSH1 0x1 PUSH1 0xA0 SHL SUB AND PUSH2 0x5D7 JUMP JUMPDEST PUSH2 0x480 PUSH1 0x74 SLOAD DUP2 JUMP JUMPDEST PUSH2 0x480 PUSH1 0x71 SLOAD DUP2 JUMP JUMPDEST PUSH2 0x475 PUSH2 0x841 CALLDATASIZE PUSH1 0x4 PUSH2 0x54ED JUMP JUMPDEST PUSH2 0x31EF JUMP JUMPDEST PUSH2 0x475 PUSH2 0x854 CALLDATASIZE PUSH1 0x4 PUSH2 0x522E JUMP JUMPDEST PUSH2 0x33D1 JUMP JUMPDEST PUSH2 0x480 PUSH1 0x6C SLOAD DUP2 JUMP JUMPDEST PUSH1 0x67 SLOAD PUSH2 0x5D7 SWAP1 PUSH1 0x1 PUSH1 0x1 PUSH1 0xA0 SHL SUB AND DUP2 JUMP JUMPDEST PUSH2 0x480 PUSH2 0x883 CALLDATASIZE PUSH1 0x4 PUSH2 0x522E JUMP JUMPDEST PUSH2 0x3464 JUMP JUMPDEST PUSH2 0x480 PUSH1 0x75 SLOAD DUP2 JUMP JUMPDEST PUSH2 0x475 PUSH2 0x89F CALLDATASIZE PUSH1 0x4 PUSH2 0x4F0A JUMP JUMPDEST PUSH2 0x34E0 JUMP JUMPDEST PUSH2 0x475 PUSH2 0x351B JUMP JUMPDEST PUSH2 0x475 PUSH2 0x8BA CALLDATASIZE PUSH1 0x4 PUSH2 0x4F0A JUMP JUMPDEST PUSH2 0x35C7 JUMP JUMPDEST PUSH2 0x480 PUSH1 0x69 SLOAD DUP2 JUMP JUMPDEST PUSH2 0x480 PUSH1 0x70 SLOAD DUP2 JUMP JUMPDEST PUSH2 0x475 PUSH2 0x8DF CALLDATASIZE PUSH1 0x4 PUSH2 0x4F0A JUMP JUMPDEST PUSH2 0x3602 JUMP JUMPDEST PUSH1 0x65 SLOAD PUSH2 0x5D7 SWAP1 PUSH1 0x1 PUSH1 0x1 PUSH1 0xA0 SHL SUB AND DUP2 JUMP JUMPDEST PUSH2 0x475 PUSH2 0x905 CALLDATASIZE PUSH1 0x4 PUSH2 0x4F0A JUMP JUMPDEST PUSH2 0x363D JUMP JUMPDEST PUSH2 0x480 PUSH2 0x918 CALLDATASIZE PUSH1 0x4 PUSH2 0x4F0A JUMP JUMPDEST PUSH2 0x3756 JUMP JUMPDEST PUSH2 0x5D7 PUSH2 0x92B CALLDATASIZE PUSH1 0x4 PUSH2 0x522E JUMP JUMPDEST PUSH2 0x37EA JUMP JUMPDEST PUSH2 0x480 PUSH2 0x93E CALLDATASIZE PUSH1 0x4 PUSH2 0x5211 JUMP JUMPDEST PUSH1 0x78 PUSH1 0x20 MSTORE PUSH1 0x0 SWAP1 DUP2 MSTORE PUSH1 0x40 SWAP1 KECCAK256 SLOAD DUP2 JUMP JUMPDEST PUSH2 0x6FA PUSH2 0x95E CALLDATASIZE PUSH1 0x4 PUSH2 0x54C8 JUMP JUMPDEST PUSH1 0x7F PUSH1 0x20 SWAP1 DUP2 MSTORE PUSH1 0x0 SWAP3 DUP4 MSTORE PUSH1 0x40 DUP1 DUP5 KECCAK256 SWAP1 SWAP2 MSTORE SWAP1 DUP3 MSTORE SWAP1 KECCAK256 SLOAD PUSH1 0xFF AND DUP2 JUMP JUMPDEST PUSH2 0x9B0 PUSH2 0x98C CALLDATASIZE PUSH1 0x4 PUSH2 0x54ED JUMP JUMPDEST PUSH1 0x79 PUSH1 0x20 SWAP1 DUP2 MSTORE PUSH1 0x0 SWAP3 DUP4 MSTORE PUSH1 0x40 DUP1 DUP5 KECCAK256 SWAP1 SWAP2 MSTORE SWAP1 DUP3 MSTORE SWAP1 KECCAK256 DUP1 SLOAD PUSH1 0x1 SWAP1 SWAP2 ADD SLOAD DUP3 JUMP JUMPDEST PUSH1 0x40 DUP1 MLOAD SWAP3 DUP4 MSTORE PUSH1 0x20 DUP4 ADD SWAP2 SWAP1 SWAP2 MSTORE ADD PUSH2 0x48A JUMP JUMPDEST PUSH2 0xA17 PUSH2 0x9D3 CALLDATASIZE PUSH1 0x4 PUSH2 0x4F0A JUMP JUMPDEST PUSH1 0x7E PUSH1 0x20 MSTORE PUSH1 0x0 SWAP1 DUP2 MSTORE PUSH1 0x40 SWAP1 KECCAK256 DUP1 SLOAD PUSH1 0x1 SWAP1 SWAP2 ADD SLOAD PUSH1 0x1 PUSH1 0x1 PUSH1 0xA0 SHL SUB DUP3 AND SWAP2 PUSH1 0x1 PUSH1 0xA0 SHL DUP2 DIV PUSH1 0x1 PUSH1 0x1 PUSH1 0x40 SHL SUB AND SWAP2 PUSH1 0x1 PUSH1 0xE0 SHL SWAP1 SWAP2 DIV PUSH4 0xFFFFFFFF AND SWAP1 DUP5 JUMP JUMPDEST PUSH1 0x40 DUP1 MLOAD PUSH1 0x1 PUSH1 0x1 PUSH1 0xA0 SHL SUB SWAP1 SWAP6 AND DUP6 MSTORE PUSH1 0x1 PUSH1 0x1 PUSH1 0x40 SHL SUB SWAP1 SWAP4 AND PUSH1 0x20 DUP6 ADD MSTORE PUSH4 0xFFFFFFFF SWAP1 SWAP2 AND SWAP2 DUP4 ADD SWAP2 SWAP1 SWAP2 MSTORE PUSH1 0x60 DUP3 ADD MSTORE PUSH1 0x80 ADD PUSH2 0x48A JUMP JUMPDEST PUSH2 0x475 PUSH2 0xA62 CALLDATASIZE PUSH1 0x4 PUSH2 0x5211 JUMP JUMPDEST PUSH2 0x3806 JUMP JUMPDEST PUSH2 0x480 PUSH1 0x6D SLOAD DUP2 JUMP JUMPDEST PUSH2 0xA83 PUSH2 0xA7E CALLDATASIZE PUSH1 0x4 PUSH2 0x4F0A JUMP JUMPDEST PUSH2 0x3858 JUMP JUMPDEST PUSH1 0x40 MLOAD PUSH2 0x48A SWAP5 SWAP4 SWAP3 SWAP2 SWAP1 PUSH2 0x5547 JUMP JUMPDEST PUSH2 0xAA6 PUSH2 0xAA1 CALLDATASIZE PUSH1 0x4 PUSH2 0x4F0A JUMP JUMPDEST PUSH2 0x3892 JUMP JUMPDEST PUSH1 0x40 MLOAD PUSH2 0x48A SWAP7 SWAP6 SWAP5 SWAP4 SWAP3 SWAP2 SWAP1 PUSH2 0x5574 JUMP JUMPDEST PUSH2 0x480 PUSH1 0x6E SLOAD DUP2 JUMP JUMPDEST PUSH2 0x475 PUSH2 0xACF CALLDATASIZE PUSH1 0x4 PUSH2 0x5211 JUMP JUMPDEST PUSH2 0x396B JUMP JUMPDEST PUSH2 0xB0C PUSH2 0xAE2 CALLDATASIZE PUSH1 0x4 PUSH2 0x5211 JUMP JUMPDEST PUSH1 0x77 PUSH1 0x20 MSTORE PUSH1 0x0 SWAP1 DUP2 MSTORE PUSH1 0x40 SWAP1 KECCAK256 DUP1 SLOAD PUSH1 0x1 DUP3 ADD SLOAD PUSH1 0x2 SWAP1 SWAP3 ADD SLOAD SWAP1 SWAP2 SWAP1 PUSH1 0x1 PUSH1 0x1 PUSH1 0xA0 SHL SUB AND DUP4 JUMP JUMPDEST PUSH1 0x40 DUP1 MLOAD SWAP4 DUP5 MSTORE PUSH1 0x20 DUP5 ADD SWAP3 SWAP1 SWAP3 MSTORE PUSH1 0x1 PUSH1 0x1 PUSH1 0xA0 SHL SUB AND SWAP1 DUP3 ADD MSTORE PUSH1 0x60 ADD PUSH2 0x48A JUMP JUMPDEST PUSH1 0x67 SLOAD PUSH1 0x1 PUSH1 0xA0 SHL SWAP1 DIV PUSH1 0xFF AND ISZERO PUSH2 0xB63 JUMPI PUSH1 0x40 MLOAD PUSH3 0x461BCD PUSH1 0xE5 SHL DUP2 MSTORE PUSH1 0x4 ADD PUSH2 0xB5A SWAP1 PUSH2 0x55C5 JUMP JUMPDEST PUSH1 0x40 MLOAD DUP1 SWAP2 SUB SWAP1 REVERT JUMPDEST PUSH1 0x0 DUP2 DUP2 MSTORE PUSH1 0x7B PUSH1 0x20 MSTORE PUSH1 0x40 SWAP1 KECCAK256 PUSH1 0x2 ADD SLOAD PUSH1 0x1 PUSH1 0x1 PUSH1 0xA0 SHL SUB AND CALLER EQ PUSH2 0xBB8 JUMPI PUSH1 0x40 MLOAD PUSH3 0x461BCD PUSH1 0xE5 SHL DUP2 MSTORE PUSH1 0x20 PUSH1 0x4 DUP3 ADD MSTORE PUSH1 0x9 PUSH1 0x24 DUP3 ADD MSTORE PUSH9 0x3737BA1037BBB732B9 PUSH1 0xB9 SHL PUSH1 0x44 DUP3 ADD MSTORE PUSH1 0x64 ADD PUSH2 0xB5A JUMP JUMPDEST PUSH1 0x0 DUP2 DUP2 MSTORE PUSH1 0x7D PUSH1 0x20 MSTORE PUSH1 0x40 SWAP1 KECCAK256 SLOAD PUSH1 0x1 PUSH1 0x1 PUSH1 0xA0 SHL SUB AND ISZERO PUSH2 0xC0C JUMPI PUSH1 0x40 MLOAD PUSH3 0x461BCD PUSH1 0xE5 SHL DUP2 MSTORE PUSH1 0x20 PUSH1 0x4 DUP3 ADD MSTORE PUSH1 0xC PUSH1 0x24 DUP3 ADD MSTORE PUSH12 0x3430B99039B7B63ABA34B7B7 PUSH1 0xA1 SHL PUSH1 0x44 DUP3 ADD MSTORE PUSH1 0x64 ADD PUSH2 0xB5A JUMP JUMPDEST PUSH1 0x72 SLOAD PUSH1 0x0 DUP3 DUP2 MSTORE PUSH1 0x7B PUSH1 0x20 MSTORE PUSH1 0x40 SWAP1 KECCAK256 PUSH1 0x2 ADD SLOAD PUSH2 0xC3B SWAP1 PUSH1 0x1 PUSH1 0xA0 SHL SWAP1 DIV PUSH1 0x1 PUSH1 0x1 PUSH1 0x40 SHL SUB AND TIMESTAMP PUSH2 0x55FB JUMP JUMPDEST GT PUSH2 0xC88 JUMPI PUSH1 0x40 MLOAD PUSH3 0x461BCD PUSH1 0xE5 SHL DUP2 MSTORE PUSH1 0x20 PUSH1 0x4 DUP3 ADD MSTORE PUSH1 0x18 PUSH1 0x24 DUP3 ADD MSTORE PUSH32 0x646964206E6F742077616974206C6F6E6720656E6F7567680000000000000000 PUSH1 0x44 DUP3 ADD MSTORE PUSH1 0x64 ADD PUSH2 0xB5A JUMP JUMPDEST PUSH1 0x0 PUSH8 0xDE0B6B3A7640000 PUSH1 0x6F SLOAD PUSH8 0xDE0B6B3A7640000 PUSH2 0xCA9 SWAP2 SWAP1 PUSH2 0x55FB JUMP JUMPDEST PUSH1 0x0 DUP5 DUP2 MSTORE PUSH1 0x7B PUSH1 0x20 MSTORE PUSH1 0x40 SWAP1 KECCAK256 PUSH1 0x1 ADD SLOAD PUSH2 0xCC5 SWAP2 SWAP1 PUSH2 0x560E JUMP JUMPDEST PUSH2 0xCCF SWAP2 SWAP1 PUSH2 0x563B JUMP JUMPDEST PUSH1 0x0 DUP4 DUP2 MSTORE PUSH1 0x7B PUSH1 0x20 MSTORE PUSH1 0x40 DUP2 KECCAK256 PUSH1 0x1 ADD SLOAD SWAP2 SWAP3 POP SWAP1 PUSH2 0xCF0 SWAP1 DUP4 SWAP1 PUSH2 0x55FB JUMP JUMPDEST PUSH1 0x65 SLOAD PUSH1 0x40 MLOAD PUSH4 0xA9059CBB PUSH1 0xE0 SHL DUP2 MSTORE SWAP2 SWAP3 POP PUSH1 0x1 PUSH1 0x1 PUSH1 0xA0 SHL SUB AND SWAP1 PUSH4 0xA9059CBB SWAP1 PUSH2 0xD23 SWAP1 CALLER SWAP1 DUP7 SWAP1 PUSH1 0x4 ADD PUSH2 0x565D JUMP JUMPDEST PUSH1 0x20 PUSH1 0x40 MLOAD DUP1 DUP4 SUB DUP2 PUSH1 0x0 DUP8 GAS CALL ISZERO DUP1 ISZERO PUSH2 0xD42 JUMPI RETURNDATASIZE PUSH1 0x0 DUP1 RETURNDATACOPY RETURNDATASIZE PUSH1 0x0 REVERT JUMPDEST POP POP POP POP PUSH1 0x40 MLOAD RETURNDATASIZE PUSH1 0x1F NOT PUSH1 0x1F DUP3 ADD AND DUP3 ADD DUP1 PUSH1 0x40 MSTORE POP DUP2 ADD SWAP1 PUSH2 0xD66 SWAP2 SWAP1 PUSH2 0x5676 JUMP JUMPDEST POP DUP1 PUSH1 0x68 PUSH1 0x0 DUP3 DUP3 SLOAD PUSH2 0xD79 SWAP2 SWAP1 PUSH2 0x5693 JUMP JUMPDEST SWAP1 SWAP2 SSTORE POP POP PUSH1 0x0 DUP4 DUP2 MSTORE PUSH1 0x7B PUSH1 0x20 MSTORE PUSH1 0x40 DUP2 KECCAK256 DUP2 DUP2 SSTORE PUSH1 0x1 DUP2 ADD DUP3 SWAP1 SSTORE PUSH1 0x2 DUP2 ADD DUP1 SLOAD PUSH1 0x1 PUSH1 0x1 PUSH1 0xE8 SHL SUB NOT AND SWAP1 SSTORE SWAP1 PUSH2 0xDB6 PUSH1 0x3 DUP4 ADD DUP3 PUSH2 0x4EBC JUMP JUMPDEST POP POP PUSH1 0x40 MLOAD DUP4 SWAP1 PUSH32 0x446EFBF8D207F3E2EDE58A6BBDE7028A4E308488B6293E6461FBB7C288326E76 SWAP1 PUSH1 0x0 SWAP1 LOG2 POP POP POP JUMP JUMPDEST PUSH1 0x67 SLOAD PUSH1 0x0 SWAP1 PUSH1 0x1 PUSH1 0xA0 SHL SWAP1 DIV PUSH1 0xFF AND ISZERO PUSH2 0xE15 JUMPI PUSH1 0x40 MLOAD PUSH3 0x461BCD PUSH1 0xE5 SHL DUP2 MSTORE PUSH1 0x4 ADD PUSH2 0xB5A SWAP1 PUSH2 0x55C5 JUMP JUMPDEST PUSH1 0x0 DUP6 DUP2 MSTORE PUSH1 0x76 PUSH1 0x20 MSTORE PUSH1 0x40 SWAP1 KECCAK256 PUSH1 0x1 ADD SLOAD PUSH1 0x1 PUSH1 0x1 PUSH1 0xA0 SHL SUB AND PUSH2 0xE4C JUMPI PUSH1 0x40 MLOAD PUSH3 0x461BCD PUSH1 0xE5 SHL DUP2 MSTORE PUSH1 0x4 ADD PUSH2 0xB5A SWAP1 PUSH2 0x56A6 JUMP JUMPDEST PUSH1 0x0 DUP6 DUP2 MSTORE PUSH1 0x76 PUSH1 0x20 MSTORE PUSH1 0x40 SWAP1 KECCAK256 SLOAD DUP5 LT ISZERO PUSH2 0xEAA JUMPI PUSH1 0x40 MLOAD PUSH3 0x461BCD PUSH1 0xE5 SHL DUP2 MSTORE PUSH1 0x20 PUSH1 0x4 DUP3 ADD MSTORE PUSH1 0x18 PUSH1 0x24 DUP3 ADD MSTORE PUSH32 0x6C6F77657220666565207468616E206D6F64656C206665650000000000000000 PUSH1 0x44 DUP3 ADD MSTORE PUSH1 0x64 ADD PUSH2 0xB5A JUMP JUMPDEST PUSH1 0x0 PUSH2 0xEB6 DUP5 DUP5 PUSH2 0x397C JUMP JUMPDEST SWAP1 POP PUSH1 0x0 PUSH1 0x40 MLOAD DUP1 PUSH1 0xC0 ADD PUSH1 0x40 MSTORE DUP1 DUP9 DUP2 MSTORE PUSH1 0x20 ADD DUP8 DUP2 MSTORE PUSH1 0x20 ADD DUP10 PUSH1 0x1 PUSH1 0x1 PUSH1 0xA0 SHL SUB AND DUP2 MSTORE PUSH1 0x20 ADD TIMESTAMP PUSH1 0x1 PUSH1 0x1 PUSH1 0x40 SHL SUB AND DUP2 MSTORE PUSH1 0x20 ADD DUP11 PUSH1 0xFF AND DUP2 MSTORE PUSH1 0x20 ADD DUP4 DUP2 MSTORE POP SWAP1 POP PUSH1 0x0 PUSH2 0xF0D DUP3 CALLER PUSH1 0x69 SLOAD PUSH2 0x11D0 JUMP JUMPDEST SWAP1 POP CALLER PUSH1 0x1 PUSH1 0x1 PUSH1 0xA0 SHL SUB AND DUP9 DUP3 PUSH32 0xC3D3E0544C80E3BB83F62659259AE1574F72A91515AB3CAE3DD75CF77E1B0AEA DUP11 PUSH1 0x40 MLOAD PUSH2 0xF4C SWAP2 DUP2 MSTORE PUSH1 0x20 ADD SWAP1 JUMP JUMPDEST PUSH1 0x40 MLOAD DUP1 SWAP2 SUB SWAP1 LOG4 PUSH1 0x65 SLOAD PUSH1 0x40 MLOAD PUSH4 0x23B872DD PUSH1 0xE0 SHL DUP2 MSTORE CALLER PUSH1 0x4 DUP3 ADD MSTORE ADDRESS PUSH1 0x24 DUP3 ADD MSTORE PUSH1 0x44 DUP2 ADD DUP10 SWAP1 MSTORE PUSH1 0x1 PUSH1 0x1 PUSH1 0xA0 SHL SUB SWAP1 SWAP2 AND SWAP1 PUSH4 0x23B872DD SWAP1 PUSH1 0x64 ADD PUSH1 0x20 PUSH1 0x40 MLOAD DUP1 DUP4 SUB DUP2 PUSH1 0x0 DUP8 GAS CALL ISZERO DUP1 ISZERO PUSH2 0xFAB JUMPI RETURNDATASIZE PUSH1 0x0 DUP1 RETURNDATACOPY RETURNDATASIZE PUSH1 0x0 REVERT JUMPDEST POP POP POP POP PUSH1 0x40 MLOAD RETURNDATASIZE PUSH1 0x1F NOT PUSH1 0x1F DUP3 ADD AND DUP3 ADD DUP1 PUSH1 0x40 MSTORE POP DUP2 ADD SWAP1 PUSH2 0xFCF SWAP2 SWAP1 PUSH2 0x5676 JUMP JUMPDEST POP PUSH1 0x0 DUP2 DUP2 MSTORE PUSH1 0x7B PUSH1 0x20 SWAP1 DUP2 MSTORE PUSH1 0x40 SWAP2 DUP3 SWAP1 KECCAK256 DUP5 MLOAD DUP2 SSTORE SWAP1 DUP5 ADD MLOAD PUSH1 0x1 DUP3 ADD SSTORE SWAP1 DUP4 ADD MLOAD PUSH1 0x2 DUP3 ADD DUP1 SLOAD PUSH1 0x60 DUP7 ADD MLOAD PUSH1 0x80 DUP8 ADD MLOAD PUSH1 0xFF AND PUSH1 0x1 PUSH1 0xE0 SHL MUL PUSH1 0xFF PUSH1 0xE0 SHL NOT PUSH1 0x1 PUSH1 0x1 PUSH1 0x40 SHL SUB SWAP1 SWAP3 AND PUSH1 0x1 PUSH1 0xA0 SHL MUL PUSH1 0x1 PUSH1 0x1 PUSH1 0xE0 SHL SUB NOT SWAP1 SWAP4 AND PUSH1 0x1 PUSH1 0x1 PUSH1 0xA0 SHL SUB SWAP1 SWAP6 AND SWAP5 SWAP1 SWAP5 OR SWAP2 SWAP1 SWAP2 OR AND SWAP2 SWAP1 SWAP2 OR SWAP1 SSTORE PUSH1 0xA0 DUP4 ADD MLOAD DUP4 SWAP2 SWAP1 PUSH1 0x3 DUP3 ADD SWAP1 PUSH2 0x1060 SWAP1 DUP3 PUSH2 0x574E JUMP JUMPDEST POP POP POP PUSH1 0x69 DUP2 SWAP1 SSTORE SWAP10 SWAP9 POP POP POP POP POP POP POP POP POP JUMP JUMPDEST PUSH1 0x67 SLOAD PUSH1 0x0 SWAP1 PUSH1 0x1 PUSH1 0xA0 SHL SWAP1 DIV PUSH1 0xFF AND ISZERO PUSH2 0x10A2 JUMPI PUSH1 0x40 MLOAD PUSH3 0x461BCD PUSH1 0xE5 SHL DUP2 MSTORE PUSH1 0x4 ADD PUSH2 0xB5A SWAP1 PUSH2 0x55C5 JUMP JUMPDEST CALLER PUSH1 0x0 SWAP1 DUP2 MSTORE PUSH1 0x7A PUSH1 0x20 SWAP1 DUP2 MSTORE PUSH1 0x40 DUP1 DUP4 KECCAK256 SLOAD PUSH1 0x77 SWAP1 SWAP3 MSTORE SWAP1 SWAP2 KECCAK256 SLOAD DUP4 SWAP2 PUSH2 0x10C9 SWAP2 PUSH2 0x55FB JUMP JUMPDEST LT ISZERO PUSH2 0x10F1 JUMPI PUSH1 0x40 MLOAD PUSH3 0x461BCD PUSH1 0xE5 SHL DUP2 MSTORE PUSH1 0x20 PUSH1 0x4 DUP3 ADD MSTORE PUSH1 0x0 PUSH1 0x24 DUP3 ADD MSTORE PUSH1 0x44 ADD PUSH2 0xB5A JUMP JUMPDEST PUSH1 0x0 PUSH1 0x75 SLOAD TIMESTAMP PUSH2 0x1101 SWAP2 SWAP1 PUSH2 0x5693 JUMP JUMPDEST CALLER PUSH1 0x0 SWAP1 DUP2 MSTORE PUSH1 0x78 PUSH1 0x20 MSTORE PUSH1 0x40 DUP2 KECCAK256 DUP1 SLOAD SWAP3 SWAP4 POP PUSH1 0x1 SWAP3 SWAP1 SWAP2 SWAP1 PUSH2 0x1126 SWAP1 DUP5 SWAP1 PUSH2 0x5693 JUMP JUMPDEST SWAP1 SWAP2 SSTORE POP POP CALLER PUSH1 0x0 DUP2 DUP2 MSTORE PUSH1 0x78 PUSH1 0x20 SWAP1 DUP2 MSTORE PUSH1 0x40 DUP1 DUP4 KECCAK256 SLOAD DUP2 MLOAD DUP1 DUP4 ADD DUP4 MSTORE DUP7 DUP2 MSTORE DUP1 DUP5 ADD DUP10 DUP2 MSTORE DUP7 DUP7 MSTORE PUSH1 0x79 DUP6 MSTORE DUP4 DUP7 KECCAK256 DUP4 DUP8 MSTORE DUP6 MSTORE DUP4 DUP7 KECCAK256 SWAP2 MLOAD DUP3 SSTORE MLOAD PUSH1 0x1 SWAP1 SWAP2 ADD SSTORE SWAP4 DUP4 MSTORE PUSH1 0x7A SWAP1 SWAP2 MSTORE DUP2 KECCAK256 DUP1 SLOAD DUP7 SWAP3 SWAP1 PUSH2 0x1185 SWAP1 DUP5 SWAP1 PUSH2 0x5693 JUMP JUMPDEST SWAP1 SWAP2 SSTORE POP POP PUSH1 0x40 DUP1 MLOAD DUP4 DUP2 MSTORE PUSH1 0x20 DUP2 ADD DUP7 SWAP1 MSTORE DUP3 SWAP2 CALLER SWAP2 PUSH32 0xCC7E0E76B20394EF965D71C4111D21E1B322BB8775DC2C7ACD29EB0D3C3DD96D SWAP2 ADD PUSH1 0x40 MLOAD DUP1 SWAP2 SUB SWAP1 LOG3 SWAP2 POP POP JUMPDEST SWAP2 SWAP1 POP JUMP JUMPDEST PUSH1 0x0 DUP3 DUP3 DUP6 PUSH1 0x0 ADD MLOAD DUP7 PUSH1 0x20 ADD MLOAD DUP8 PUSH1 0xA0 ADD MLOAD PUSH1 0x40 MLOAD PUSH1 0x20 ADD PUSH2 0x11F7 SWAP6 SWAP5 SWAP4 SWAP3 SWAP2 SWAP1 PUSH2 0x580D JUMP JUMPDEST PUSH1 0x40 MLOAD PUSH1 0x20 DUP2 DUP4 SUB SUB DUP2 MSTORE SWAP1 PUSH1 0x40 MSTORE DUP1 MLOAD SWAP1 PUSH1 0x20 ADD KECCAK256 SWAP1 POP JUMPDEST SWAP4 SWAP3 POP POP POP JUMP JUMPDEST PUSH1 0x67 SLOAD PUSH1 0x1 PUSH1 0x1 PUSH1 0xA0 SHL SUB AND CALLER EQ PUSH2 0x125E JUMPI PUSH1 0x40 MLOAD PUSH3 0x461BCD PUSH1 0xE5 SHL DUP2 MSTORE PUSH1 0x20 PUSH1 0x4 DUP3 ADD MSTORE PUSH1 0xA PUSH1 0x24 DUP3 ADD MSTORE PUSH10 0x3737BA103830BAB9B2B9 PUSH1 0xB1 SHL PUSH1 0x44 DUP3 ADD MSTORE PUSH1 0x64 ADD PUSH2 0xB5A JUMP JUMPDEST PUSH1 0x67 DUP1 SLOAD PUSH1 0xFF PUSH1 0xA0 SHL NOT AND PUSH1 0x1 PUSH1 0xA0 SHL DUP4 ISZERO ISZERO SWAP1 DUP2 MUL SWAP2 SWAP1 SWAP2 OR SWAP1 SWAP2 SSTORE PUSH1 0x40 MLOAD PUSH32 0xD83D5281277E107F080E362699D46082ADB74E7DC6A9BCCBC87D8AE9533ADD44 SWAP1 PUSH1 0x0 SWAP1 LOG2 POP JUMP JUMPDEST PUSH1 0x67 SLOAD PUSH1 0x1 PUSH1 0xA0 SHL SWAP1 DIV PUSH1 0xFF AND ISZERO PUSH2 0x12D1 JUMPI PUSH1 0x40 MLOAD PUSH3 0x461BCD PUSH1 0xE5 SHL DUP2 MSTORE PUSH1 0x4 ADD PUSH2 0xB5A SWAP1 PUSH2 0x55C5 JUMP JUMPDEST PUSH2 0x12D9 PUSH2 0x151B JUMP JUMPDEST CALLER PUSH1 0x0 SWAP1 DUP2 MSTORE PUSH1 0x7A PUSH1 0x20 SWAP1 DUP2 MSTORE PUSH1 0x40 DUP1 DUP4 KECCAK256 SLOAD PUSH1 0x77 SWAP1 SWAP3 MSTORE SWAP1 SWAP2 KECCAK256 SLOAD PUSH2 0x12FF SWAP2 SWAP1 PUSH2 0x55FB JUMP JUMPDEST LT ISZERO PUSH2 0x131D JUMPI PUSH1 0x40 MLOAD PUSH3 0x461BCD PUSH1 0xE5 SHL DUP2 MSTORE PUSH1 0x4 ADD PUSH2 0xB5A SWAP1 PUSH2 0x584B JUMP JUMPDEST PUSH2 0x1327 CALLER DUP4 PUSH2 0x297D JUMP JUMPDEST ISZERO PUSH2 0x1362 JUMPI PUSH1 0x40 MLOAD PUSH3 0x461BCD PUSH1 0xE5 SHL DUP2 MSTORE PUSH1 0x20 PUSH1 0x4 DUP3 ADD MSTORE PUSH1 0xB PUSH1 0x24 DUP3 ADD MSTORE PUSH11 0x1B9BDD08185B1B1BDDD959 PUSH1 0xAA SHL PUSH1 0x44 DUP3 ADD MSTORE PUSH1 0x64 ADD PUSH2 0xB5A JUMP JUMPDEST PUSH2 0x136D DUP3 DUP3 CALLER PUSH2 0x3AB1 JUMP JUMPDEST POP POP JUMP JUMPDEST PUSH2 0x1379 PUSH2 0x3BD5 JUMP JUMPDEST PUSH1 0x6E DUP2 SWAP1 SSTORE PUSH1 0x40 MLOAD DUP2 SWAP1 PUSH32 0xA9DFC7CA3151B504BDBE971426324A888F97E7E7A52929484C01DFF8168058AB SWAP1 PUSH1 0x0 SWAP1 LOG2 POP JUMP JUMPDEST PUSH1 0x0 DUP1 DUP4 GT DUP1 ISZERO PUSH2 0x13BD JUMPI POP PUSH1 0x0 DUP3 GT JUMPDEST PUSH2 0x13F4 JUMPI PUSH1 0x40 MLOAD PUSH3 0x461BCD PUSH1 0xE5 SHL DUP2 MSTORE PUSH1 0x20 PUSH1 0x4 DUP3 ADD MSTORE PUSH1 0x8 PUSH1 0x24 DUP3 ADD MSTORE PUSH8 0x6D696E2076616C73 PUSH1 0xC0 SHL PUSH1 0x44 DUP3 ADD MSTORE PUSH1 0x64 ADD PUSH2 0xB5A JUMP JUMPDEST PUSH1 0x0 PUSH2 0x13FF DUP5 PUSH2 0x3756 JUMP JUMPDEST SWAP1 POP PUSH1 0x0 PUSH2 0x140F DUP3 JUMPDEST DUP6 SWAP1 PUSH2 0x3C2F JUMP JUMPDEST SWAP1 POP PUSH8 0xCF4AD2E86166C9C DUP2 SLT ISZERO PUSH2 0x1434 JUMPI PUSH9 0x56BC75E2D63100000 SWAP3 POP POP POP PUSH2 0x14D2 JUMP JUMPDEST PUSH8 0xDE0B6B3A7640000 PUSH9 0x56BC75E2D63100000 PUSH1 0x0 PUSH2 0x1471 PUSH2 0x146A DUP5 PUSH2 0x1464 DUP6 PUSH2 0x145E DUP10 DUP5 PUSH2 0x3D05 JUMP JUMPDEST SWAP1 PUSH2 0x3D14 JUMP JUMPDEST SWAP1 PUSH2 0x3D05 JUMP JUMPDEST DUP5 SWAP1 PUSH2 0x3DB8 JUMP JUMPDEST SWAP1 POP PUSH9 0x1158E460913D00000 DUP2 SLT PUSH2 0x1491 JUMPI PUSH1 0x0 SWAP6 POP POP POP POP POP POP PUSH2 0x14D2 JUMP JUMPDEST PUSH2 0x149B DUP2 PUSH1 0x0 SGT SWAP1 JUMP JUMPDEST ISZERO PUSH2 0x14C3 JUMPI PUSH2 0x14B7 PUSH2 0x14B4 PUSH2 0x14AF DUP4 PUSH2 0x3DC7 JUMP JUMPDEST PUSH2 0x3E08 JUMP JUMPDEST SWAP1 JUMP JUMPDEST SWAP6 POP POP POP POP POP POP PUSH2 0x14D2 JUMP JUMPDEST PUSH2 0x14B7 PUSH2 0x14B4 PUSH2 0x1408 DUP4 PUSH2 0x3E08 JUMP JUMPDEST SWAP3 SWAP2 POP POP JUMP JUMPDEST PUSH1 0x0 DUP2 DUP4 PUSH1 0x20 ADD MLOAD DUP5 PUSH1 0x0 ADD MLOAD DUP6 PUSH1 0x60 ADD MLOAD PUSH1 0x40 MLOAD PUSH1 0x20 ADD PUSH2 0x14FD SWAP5 SWAP4 SWAP3 SWAP2 SWAP1 PUSH2 0x5877 JUMP JUMPDEST PUSH1 0x40 MLOAD PUSH1 0x20 DUP2 DUP4 SUB SUB DUP2 MSTORE SWAP1 PUSH1 0x40 MSTORE DUP1 MLOAD SWAP1 PUSH1 0x20 ADD KECCAK256 SWAP1 POP SWAP3 SWAP2 POP POP JUMP JUMPDEST PUSH1 0x0 DUP1 PUSH2 0x1526 PUSH2 0x28DD JUMP JUMPDEST SWAP1 POP PUSH9 0x3635C9ADC5DEA00000 DUP2 LT ISZERO PUSH2 0x1541 JUMPI PUSH1 0x0 SWAP2 POP POP SWAP1 JUMP JUMPDEST PUSH8 0xDE0B6B3A7640000 PUSH1 0x6C SLOAD PUSH8 0xDE0B6B3A7640000 PUSH2 0x1560 SWAP2 SWAP1 PUSH2 0x55FB JUMP JUMPDEST PUSH2 0x156A SWAP1 DUP4 PUSH2 0x560E JUMP JUMPDEST PUSH2 0x1574 SWAP2 SWAP1 PUSH2 0x563B JUMP JUMPDEST PUSH2 0x157E SWAP1 DUP3 PUSH2 0x55FB JUMP JUMPDEST SWAP2 POP POP SWAP1 JUMP JUMPDEST PUSH2 0x158C PUSH2 0x3BD5 JUMP JUMPDEST PUSH1 0x6C DUP2 SWAP1 SSTORE PUSH1 0x40 MLOAD DUP2 SWAP1 PUSH32 0xB2BA28B5B5AED3444B23A8597A249678DD98E0062432EF1B0F9A6CAA39CEB0AD SWAP1 PUSH1 0x0 SWAP1 LOG2 POP JUMP JUMPDEST PUSH2 0x15C7 PUSH2 0x3BD5 JUMP JUMPDEST PUSH1 0x71 DUP2 SWAP1 SSTORE PUSH1 0x40 MLOAD DUP2 SWAP1 PUSH32 0xED28AED8B87631DA9BC750C8885C00F9BEDA7F694A23BB732D987AA80214A63F SWAP1 PUSH1 0x0 SWAP1 LOG2 POP JUMP JUMPDEST PUSH1 0x82 PUSH1 0x20 MSTORE DUP2 PUSH1 0x0 MSTORE PUSH1 0x40 PUSH1 0x0 KECCAK256 DUP2 DUP2 SLOAD DUP2 LT PUSH2 0x1616 JUMPI PUSH1 0x0 DUP1 REVERT JUMPDEST PUSH1 0x0 SWAP2 DUP3 MSTORE PUSH1 0x20 SWAP1 SWAP2 KECCAK256 ADD SLOAD PUSH1 0x1 PUSH1 0x1 PUSH1 0xA0 SHL SUB AND SWAP2 POP DUP3 SWAP1 POP JUMP JUMPDEST PUSH2 0x163A PUSH2 0x3BD5 JUMP JUMPDEST PUSH1 0x6D DUP2 SWAP1 SSTORE PUSH1 0x40 MLOAD DUP2 SWAP1 PUSH32 0x4D3FCE9DDC8266EAD559213CBAAA8EBCFA0C837A2C9A1E814BAE160B615D30DD SWAP1 PUSH1 0x0 SWAP1 LOG2 POP JUMP JUMPDEST PUSH1 0x0 DUP5 DUP5 DUP5 DUP5 PUSH1 0x40 MLOAD PUSH1 0x20 ADD PUSH2 0x1686 SWAP5 SWAP4 SWAP3 SWAP2 SWAP1 PUSH2 0x58AA JUMP JUMPDEST PUSH1 0x40 MLOAD PUSH1 0x20 DUP2 DUP4 SUB SUB DUP2 MSTORE SWAP1 PUSH1 0x40 MSTORE DUP1 MLOAD SWAP1 PUSH1 0x20 ADD KECCAK256 SWAP1 POP SWAP5 SWAP4 POP POP POP POP JUMP JUMPDEST PUSH1 0x6A SLOAD PUSH1 0x0 SWAP1 PUSH2 0x16CB SWAP1 PUSH2 0x16C3 SWAP1 PUSH1 0x1 PUSH1 0x1 PUSH1 0x40 SHL SUB AND TIMESTAMP PUSH2 0x55FB JUMP JUMPDEST PUSH2 0x883 PUSH2 0x28DD JUMP JUMPDEST SWAP1 POP SWAP1 JUMP JUMPDEST PUSH1 0x0 DUP1 PUSH2 0x16DB PUSH2 0x28DD JUMP JUMPDEST SWAP1 POP PUSH9 0x6C6B935B8BBD400000 DUP2 LT ISZERO PUSH2 0x16F6 JUMPI PUSH1 0x0 SWAP2 POP POP SWAP1 JUMP JUMPDEST PUSH8 0xDE0B6B3A7640000 PUSH1 0x6D SLOAD PUSH8 0xDE0B6B3A7640000 PUSH2 0x1560 SWAP2 SWAP1 PUSH2 0x55FB JUMP JUMPDEST PUSH2 0x171D PUSH2 0x3BD5 JUMP JUMPDEST PUSH1 0x6B DUP2 SWAP1 SSTORE PUSH1 0x40 MLOAD DUP2 DUP2 MSTORE PUSH32 0x8C854A81CB5C93E7E482D30FB9C6F88FDBDB320F10F7A853C2263659B54E563F SWAP1 PUSH1 0x20 ADD PUSH1 0x40 MLOAD DUP1 SWAP2 SUB SWAP1 LOG1 POP JUMP JUMPDEST PUSH1 0x60 PUSH2 0x1210 DUP4 DUP4 PUSH2 0x397C JUMP JUMPDEST PUSH2 0x176C PUSH2 0x3BD5 JUMP JUMPDEST PUSH1 0x67 DUP1 SLOAD PUSH1 0x1 PUSH1 0x1 PUSH1 0xA0 SHL SUB NOT AND PUSH1 0x1 PUSH1 0x1 PUSH1 0xA0 SHL SUB DUP4 AND SWAP1 DUP2 OR SWAP1 SWAP2 SSTORE PUSH1 0x40 MLOAD PUSH32 0x5A85B4270FC1E75035E6CD505418CE65E0BCC36CC7EB9CE9E6F8C6181D4CB577 SWAP1 PUSH1 0x0 SWAP1 LOG2 POP JUMP JUMPDEST PUSH1 0x0 SLOAD PUSH2 0x100 SWAP1 DIV PUSH1 0xFF AND ISZERO DUP1 DUP1 ISZERO PUSH2 0x17D6 JUMPI POP PUSH1 0x0 SLOAD PUSH1 0x1 PUSH1 0xFF SWAP1 SWAP2 AND LT JUMPDEST DUP1 PUSH2 0x17F0 JUMPI POP ADDRESS EXTCODESIZE ISZERO DUP1 ISZERO PUSH2 0x17F0 JUMPI POP PUSH1 0x0 SLOAD PUSH1 0xFF AND PUSH1 0x1 EQ JUMPDEST PUSH2 0x1853 JUMPI PUSH1 0x40 MLOAD PUSH3 0x461BCD PUSH1 0xE5 SHL DUP2 MSTORE PUSH1 0x20 PUSH1 0x4 DUP3 ADD MSTORE PUSH1 0x2E PUSH1 0x24 DUP3 ADD MSTORE PUSH32 0x496E697469616C697A61626C653A20636F6E747261637420697320616C726561 PUSH1 0x44 DUP3 ADD MSTORE PUSH14 0x191E481A5B9A5D1A585B1A5E9959 PUSH1 0x92 SHL PUSH1 0x64 DUP3 ADD MSTORE PUSH1 0x84 ADD PUSH2 0xB5A JUMP JUMPDEST PUSH1 0x0 DUP1 SLOAD PUSH1 0xFF NOT AND PUSH1 0x1 OR SWAP1 SSTORE DUP1 ISZERO PUSH2 0x1876 JUMPI PUSH1 0x0 DUP1 SLOAD PUSH2 0xFF00 NOT AND PUSH2 0x100 OR SWAP1 SSTORE JUMPDEST PUSH2 0x187E PUSH2 0x3EBA JUMP JUMPDEST PUSH1 0x65 DUP1 SLOAD PUSH1 0x1 PUSH1 0x1 PUSH1 0xA0 SHL SUB DUP1 DUP7 AND PUSH1 0x1 PUSH1 0x1 PUSH1 0xA0 SHL SUB NOT SWAP3 DUP4 AND OR SWAP1 SWAP3 SSTORE PUSH1 0x66 DUP1 SLOAD SWAP3 DUP6 AND SWAP3 DUP3 AND SWAP3 SWAP1 SWAP3 OR SWAP1 SWAP2 SSTORE PUSH1 0x67 DUP1 SLOAD SWAP1 SWAP2 AND CALLER OR SWAP1 SSTORE PUSH1 0x6A DUP1 SLOAD PUSH1 0x1 PUSH1 0x1 PUSH1 0x40 SHL SUB TIMESTAMP AND PUSH8 0xFFFFFFFFFFFFFFFF NOT SWAP1 SWAP2 AND OR SWAP1 SSTORE PUSH7 0x2D79883D20000 PUSH1 0x6C SSTORE PUSH6 0x5AF3107A4000 PUSH1 0x6D SSTORE PUSH8 0x16345785D8A0000 PUSH1 0x6E DUP2 SWAP1 SSTORE PUSH1 0x6F DUP2 SWAP1 SSTORE PUSH1 0x70 SSTORE PUSH2 0x7D0 PUSH1 0x71 SSTORE PUSH2 0x2710 PUSH1 0x72 SSTORE PUSH2 0xFA0 PUSH1 0x73 SSTORE PUSH1 0x78 PUSH1 0x74 SSTORE PUSH3 0x15180 PUSH1 0x75 SSTORE DUP1 ISZERO PUSH2 0x1966 JUMPI PUSH1 0x0 DUP1 SLOAD PUSH2 0xFF00 NOT AND SWAP1 SSTORE PUSH1 0x40 MLOAD PUSH1 0x1 DUP2 MSTORE PUSH32 0x7F26B83FF96E1F2B6A682F133852F6798A09C465DA95921460CEFB3847402498 SWAP1 PUSH1 0x20 ADD PUSH1 0x40 MLOAD DUP1 SWAP2 SUB SWAP1 LOG1 JUMPDEST POP POP POP JUMP JUMPDEST PUSH2 0x1973 PUSH2 0x151B JUMP JUMPDEST CALLER PUSH1 0x0 SWAP1 DUP2 MSTORE PUSH1 0x7A PUSH1 0x20 SWAP1 DUP2 MSTORE PUSH1 0x40 DUP1 DUP4 KECCAK256 SLOAD PUSH1 0x77 SWAP1 SWAP3 MSTORE SWAP1 SWAP2 KECCAK256 SLOAD PUSH2 0x1999 SWAP2 SWAP1 PUSH2 0x55FB JUMP JUMPDEST LT ISZERO PUSH2 0x19B7 JUMPI PUSH1 0x40 MLOAD PUSH3 0x461BCD PUSH1 0xE5 SHL DUP2 MSTORE PUSH1 0x4 ADD PUSH2 0xB5A SWAP1 PUSH2 0x584B JUMP JUMPDEST PUSH1 0x0 DUP3 DUP2 MSTORE PUSH1 0x76 PUSH1 0x20 MSTORE PUSH1 0x40 SWAP1 KECCAK256 PUSH1 0x1 ADD SLOAD PUSH1 0x1 PUSH1 0x1 PUSH1 0xA0 SHL SUB AND PUSH2 0x19EE JUMPI PUSH1 0x40 MLOAD PUSH3 0x461BCD PUSH1 0xE5 SHL DUP2 MSTORE PUSH1 0x4 ADD PUSH2 0xB5A SWAP1 PUSH2 0x56A6 JUMP JUMPDEST PUSH1 0x40 MLOAD DUP2 ISZERO ISZERO DUP2 MSTORE DUP3 SWAP1 CALLER SWAP1 PUSH32 0xD17CE9337EB398B61971CA3D8C9933FC401B9669A0607AFE3452612583D7C5B8 SWAP1 PUSH1 0x20 ADD PUSH1 0x40 MLOAD DUP1 SWAP2 SUB SWAP1 LOG3 POP POP JUMP JUMPDEST PUSH1 0x67 SLOAD PUSH1 0x0 SWAP1 PUSH1 0x1 PUSH1 0xA0 SHL SWAP1 DIV PUSH1 0xFF AND ISZERO PUSH2 0x1A58 JUMPI PUSH1 0x40 MLOAD PUSH3 0x461BCD PUSH1 0xE5 SHL DUP2 MSTORE PUSH1 0x4 ADD PUSH2 0xB5A SWAP1 PUSH2 0x55C5 JUMP JUMPDEST PUSH1 0x1 PUSH1 0x1 PUSH1 0xA0 SHL SUB DUP6 AND PUSH2 0x1AAE JUMPI PUSH1 0x40 MLOAD PUSH3 0x461BCD PUSH1 0xE5 SHL DUP2 MSTORE PUSH1 0x20 PUSH1 0x4 DUP3 ADD MSTORE PUSH1 0x18 PUSH1 0x24 DUP3 ADD MSTORE PUSH32 0x61646472657373206D757374206265206E6F6E2D7A65726F0000000000000000 PUSH1 0x44 DUP3 ADD MSTORE PUSH1 0x64 ADD PUSH2 0xB5A JUMP JUMPDEST PUSH1 0x0 PUSH2 0x1ABA DUP5 DUP5 PUSH2 0x397C JUMP JUMPDEST PUSH1 0x40 DUP1 MLOAD PUSH1 0x80 DUP2 ADD DUP3 MSTORE DUP8 DUP2 MSTORE PUSH1 0x1 PUSH1 0x1 PUSH1 0xA0 SHL SUB DUP10 AND PUSH1 0x20 DUP3 ADD MSTORE PUSH1 0x0 SWAP2 DUP2 ADD DUP3 SWAP1 MSTORE PUSH1 0x60 DUP2 ADD DUP4 SWAP1 MSTORE SWAP2 SWAP3 POP PUSH2 0x1AF2 DUP3 CALLER PUSH2 0x14D8 JUMP JUMPDEST PUSH1 0x0 DUP2 DUP2 MSTORE PUSH1 0x76 PUSH1 0x20 MSTORE PUSH1 0x40 SWAP1 KECCAK256 PUSH1 0x1 ADD SLOAD SWAP1 SWAP2 POP PUSH1 0x1 PUSH1 0x1 PUSH1 0xA0 SHL SUB AND ISZERO PUSH2 0x1B5D JUMPI PUSH1 0x40 MLOAD PUSH3 0x461BCD PUSH1 0xE5 SHL DUP2 MSTORE PUSH1 0x20 PUSH1 0x4 DUP3 ADD MSTORE PUSH1 0x18 PUSH1 0x24 DUP3 ADD MSTORE PUSH32 0x6D6F64656C20616C726561647920726567697374657265640000000000000000 PUSH1 0x44 DUP3 ADD MSTORE PUSH1 0x64 ADD PUSH2 0xB5A JUMP JUMPDEST PUSH1 0x0 DUP2 DUP2 MSTORE PUSH1 0x76 PUSH1 0x20 SWAP1 DUP2 MSTORE PUSH1 0x40 SWAP2 DUP3 SWAP1 KECCAK256 DUP5 MLOAD DUP2 SSTORE SWAP1 DUP5 ADD MLOAD PUSH1 0x1 DUP3 ADD DUP1 SLOAD PUSH1 0x1 PUSH1 0x1 PUSH1 0xA0 SHL SUB NOT AND PUSH1 0x1 PUSH1 0x1 PUSH1 0xA0 SHL SUB SWAP1 SWAP3 AND SWAP2 SWAP1 SWAP2 OR SWAP1 SSTORE SWAP1 DUP4 ADD MLOAD PUSH1 0x2 DUP3 ADD SSTORE PUSH1 0x60 DUP4 ADD MLOAD DUP4 SWAP2 SWAP1 PUSH1 0x3 DUP3 ADD SWAP1 PUSH2 0x1BB8 SWAP1 DUP3 PUSH2 0x574E JUMP JUMPDEST POP POP PUSH1 0x40 MLOAD DUP3 SWAP2 POP PUSH32 0xA4B0AF38D049BA81703A0D0E46CC2FF39681210302134046237111A8FB7DEE72 SWAP1 PUSH1 0x0 SWAP1 LOG2 SWAP8 SWAP7 POP POP POP POP POP POP POP JUMP JUMPDEST PUSH1 0x67 SLOAD PUSH1 0x1 PUSH1 0xA0 SHL SWAP1 DIV PUSH1 0xFF AND ISZERO PUSH2 0x1C1B JUMPI PUSH1 0x40 MLOAD PUSH3 0x461BCD PUSH1 0xE5 SHL DUP2 MSTORE PUSH1 0x4 ADD PUSH2 0xB5A SWAP1 PUSH2 0x55C5 JUMP JUMPDEST PUSH1 0x0 DUP2 DUP2 MSTORE PUSH1 0x7C PUSH1 0x20 MSTORE PUSH1 0x40 SWAP1 KECCAK256 SLOAD ISZERO PUSH2 0x1C6B JUMPI PUSH1 0x40 MLOAD PUSH3 0x461BCD PUSH1 0xE5 SHL DUP2 MSTORE PUSH1 0x20 PUSH1 0x4 DUP3 ADD MSTORE PUSH1 0x11 PUSH1 0x24 DUP3 ADD MSTORE PUSH17 0x636F6D6D69746D656E7420657869737473 PUSH1 0x78 SHL PUSH1 0x44 DUP3 ADD MSTORE PUSH1 0x64 ADD PUSH2 0xB5A JUMP JUMPDEST PUSH2 0x1C73 PUSH2 0x3EE9 JUMP JUMPDEST PUSH1 0x0 DUP3 DUP2 MSTORE PUSH1 0x7C PUSH1 0x20 MSTORE PUSH1 0x40 DUP1 DUP3 KECCAK256 SWAP3 SWAP1 SWAP3 SSTORE SWAP1 MLOAD DUP3 SWAP2 CALLER SWAP2 PUSH32 0x9B4C028A2E50FEC6F1C6A0163C59E8FBE92B231E5C03EF3ADEC585E63A14B92 SWAP2 SWAP1 LOG3 POP JUMP JUMPDEST PUSH1 0x67 SLOAD PUSH1 0x1 PUSH1 0xA0 SHL SWAP1 DIV PUSH1 0xFF AND ISZERO PUSH2 0x1CDD JUMPI PUSH1 0x40 MLOAD PUSH3 0x461BCD PUSH1 0xE5 SHL DUP2 MSTORE PUSH1 0x4 ADD PUSH2 0xB5A SWAP1 PUSH2 0x55C5 JUMP JUMPDEST PUSH2 0x1CE5 PUSH2 0x151B JUMP JUMPDEST CALLER PUSH1 0x0 SWAP1 DUP2 MSTORE PUSH1 0x7A PUSH1 0x20 SWAP1 DUP2 MSTORE PUSH1 0x40 DUP1 DUP4 KECCAK256 SLOAD PUSH1 0x77 SWAP1 SWAP3 MSTORE SWAP1 SWAP2 KECCAK256 SLOAD PUSH2 0x1D0B SWAP2 SWAP1 PUSH2 0x55FB JUMP JUMPDEST LT ISZERO PUSH2 0x1D29 JUMPI PUSH1 0x40 MLOAD PUSH3 0x461BCD PUSH1 0xE5 SHL DUP2 MSTORE PUSH1 0x4 ADD PUSH2 0xB5A SWAP1 PUSH2 0x584B JUMP JUMPDEST PUSH1 0x0 DUP4 DUP2 MSTORE PUSH1 0x7B PUSH1 0x20 MSTORE PUSH1 0x40 SWAP1 KECCAK256 SLOAD PUSH2 0x1D7A JUMPI PUSH1 0x40 MLOAD PUSH3 0x461BCD PUSH1 0xE5 SHL DUP2 MSTORE PUSH1 0x20 PUSH1 0x4 DUP3 ADD MSTORE PUSH1 0x13 PUSH1 0x24 DUP3 ADD MSTORE PUSH19 0x1D185CDAC8191BD95CC81B9BDD08195E1A5CDD PUSH1 0x6A SHL PUSH1 0x44 DUP3 ADD MSTORE PUSH1 0x64 ADD PUSH2 0xB5A JUMP JUMPDEST PUSH1 0x0 DUP4 DUP2 MSTORE PUSH1 0x7D PUSH1 0x20 MSTORE PUSH1 0x40 SWAP1 KECCAK256 SLOAD PUSH1 0x1 PUSH1 0x1 PUSH1 0xA0 SHL SUB AND ISZERO PUSH2 0x1DDF JUMPI PUSH1 0x40 MLOAD PUSH3 0x461BCD PUSH1 0xE5 SHL DUP2 MSTORE PUSH1 0x20 PUSH1 0x4 DUP3 ADD MSTORE PUSH1 0x1A PUSH1 0x24 DUP3 ADD MSTORE PUSH32 0x736F6C7574696F6E20616C7265616479207375626D6974746564000000000000 PUSH1 0x44 DUP3 ADD MSTORE PUSH1 0x64 ADD PUSH2 0xB5A JUMP JUMPDEST PUSH1 0x0 PUSH2 0x1DED CALLER DUP6 DUP6 DUP6 PUSH2 0x166D JUMP JUMPDEST PUSH1 0x0 DUP2 DUP2 MSTORE PUSH1 0x7C PUSH1 0x20 MSTORE PUSH1 0x40 SWAP1 KECCAK256 SLOAD SWAP1 SWAP2 POP PUSH2 0x1E4B JUMPI PUSH1 0x40 MLOAD PUSH3 0x461BCD PUSH1 0xE5 SHL DUP2 MSTORE PUSH1 0x20 PUSH1 0x4 DUP3 ADD MSTORE PUSH1 0x17 PUSH1 0x24 DUP3 ADD MSTORE PUSH32 0x6E6F6E206578697374656E7420636F6D6D69746D656E74000000000000000000 PUSH1 0x44 DUP3 ADD MSTORE PUSH1 0x64 ADD PUSH2 0xB5A JUMP JUMPDEST PUSH2 0x1E53 PUSH2 0x3EE9 JUMP JUMPDEST PUSH1 0x0 DUP3 DUP2 MSTORE PUSH1 0x7C PUSH1 0x20 MSTORE PUSH1 0x40 SWAP1 KECCAK256 SLOAD LT PUSH2 0x1EAF JUMPI PUSH1 0x40 MLOAD PUSH3 0x461BCD PUSH1 0xE5 SHL DUP2 MSTORE PUSH1 0x20 PUSH1 0x4 DUP3 ADD MSTORE PUSH1 0x1A PUSH1 0x24 DUP3 ADD MSTORE PUSH32 0x636F6D6D69746D656E74206D75737420626520696E2070617374000000000000 PUSH1 0x44 DUP3 ADD MSTORE PUSH1 0x64 ADD PUSH2 0xB5A JUMP JUMPDEST PUSH1 0x40 MLOAD DUP1 PUSH1 0x80 ADD PUSH1 0x40 MSTORE DUP1 CALLER PUSH1 0x1 PUSH1 0x1 PUSH1 0xA0 SHL SUB AND DUP2 MSTORE PUSH1 0x20 ADD TIMESTAMP PUSH1 0x1 PUSH1 0x1 PUSH1 0x40 SHL SUB AND DUP2 MSTORE PUSH1 0x20 ADD PUSH1 0x0 ISZERO ISZERO DUP2 MSTORE PUSH1 0x20 ADD DUP5 DUP5 DUP1 DUP1 PUSH1 0x1F ADD PUSH1 0x20 DUP1 SWAP2 DIV MUL PUSH1 0x20 ADD PUSH1 0x40 MLOAD SWAP1 DUP2 ADD PUSH1 0x40 MSTORE DUP1 SWAP4 SWAP3 SWAP2 SWAP1 DUP2 DUP2 MSTORE PUSH1 0x20 ADD DUP4 DUP4 DUP1 DUP3 DUP5 CALLDATACOPY PUSH1 0x0 SWAP3 ADD DUP3 SWAP1 MSTORE POP SWAP4 SWAP1 SWAP5 MSTORE POP POP DUP7 DUP2 MSTORE PUSH1 0x7D PUSH1 0x20 SWAP1 DUP2 MSTORE PUSH1 0x40 SWAP2 DUP3 SWAP1 KECCAK256 DUP5 MLOAD DUP2 SLOAD SWAP3 DUP7 ADD MLOAD SWAP4 DUP7 ADD MLOAD ISZERO ISZERO PUSH1 0x1 PUSH1 0xE0 SHL MUL PUSH1 0xFF PUSH1 0xE0 SHL NOT PUSH1 0x1 PUSH1 0x1 PUSH1 0x40 SHL SUB SWAP1 SWAP6 AND PUSH1 0x1 PUSH1 0xA0 SHL MUL PUSH1 0x1 PUSH1 0x1 PUSH1 0xE0 SHL SUB NOT SWAP1 SWAP5 AND PUSH1 0x1 PUSH1 0x1 PUSH1 0xA0 SHL SUB SWAP1 SWAP3 AND SWAP2 SWAP1 SWAP2 OR SWAP3 SWAP1 SWAP3 OR SWAP3 SWAP1 SWAP3 AND OR DUP2 SSTORE PUSH1 0x60 DUP4 ADD MLOAD SWAP1 SWAP2 POP PUSH1 0x1 DUP3 ADD SWAP1 PUSH2 0x1F91 SWAP1 DUP3 PUSH2 0x574E JUMP JUMPDEST POP POP PUSH1 0x40 MLOAD DUP6 SWAP2 POP CALLER SWAP1 PUSH32 0x957C18B5AF8413899EA8A576A4D3FB16839A02C9FCCFDCE098B6D59EF248525B SWAP1 PUSH1 0x0 SWAP1 LOG3 POP POP POP POP JUMP JUMPDEST PUSH2 0x1FCF PUSH2 0x3BD5 JUMP JUMPDEST PUSH1 0x6F DUP2 SWAP1 SSTORE PUSH1 0x40 MLOAD DUP2 SWAP1 PUSH32 0x248F32867B202A570FFBB94E864B6075503B4961C00317F152604EE3B8DE4DDA SWAP1 PUSH1 0x0 SWAP1 LOG2 POP JUMP JUMPDEST PUSH2 0x200A PUSH2 0x3BD5 JUMP JUMPDEST PUSH1 0x70 DUP2 SWAP1 SSTORE PUSH1 0x40 MLOAD DUP2 SWAP1 PUSH32 0x4CEDC026426414A08F6F21CA64D85564BF602162BB3463DD2D3E17B58C1DA589 SWAP1 PUSH1 0x0 SWAP1 LOG2 POP JUMP JUMPDEST PUSH1 0x67 SLOAD PUSH1 0x1 PUSH1 0xA0 SHL SWAP1 DIV PUSH1 0xFF AND ISZERO PUSH2 0x2067 JUMPI PUSH1 0x40 MLOAD PUSH3 0x461BCD PUSH1 0xE5 SHL DUP2 MSTORE PUSH1 0x4 ADD PUSH2 0xB5A SWAP1 PUSH2 0x55C5 JUMP JUMPDEST PUSH2 0x206F PUSH2 0x151B JUMP JUMPDEST CALLER PUSH1 0x0 SWAP1 DUP2 MSTORE PUSH1 0x7A PUSH1 0x20 SWAP1 DUP2 MSTORE PUSH1 0x40 DUP1 DUP4 KECCAK256 SLOAD PUSH1 0x77 SWAP1 SWAP3 MSTORE SWAP1 SWAP2 KECCAK256 SLOAD PUSH2 0x2095 SWAP2 SWAP1 PUSH2 0x55FB JUMP JUMPDEST LT ISZERO PUSH2 0x20B3 JUMPI PUSH1 0x40 MLOAD PUSH3 0x461BCD PUSH1 0xE5 SHL DUP2 MSTORE PUSH1 0x4 ADD PUSH2 0xB5A SWAP1 PUSH2 0x584B JUMP JUMPDEST PUSH1 0x0 DUP2 DUP2 MSTORE PUSH1 0x7D PUSH1 0x20 MSTORE PUSH1 0x40 SWAP1 KECCAK256 SLOAD PUSH1 0x1 PUSH1 0x1 PUSH1 0xA0 SHL SUB AND PUSH2 0x2117 JUMPI PUSH1 0x40 MLOAD PUSH3 0x461BCD PUSH1 0xE5 SHL DUP2 MSTORE PUSH1 0x20 PUSH1 0x4 DUP3 ADD MSTORE PUSH1 0x17 PUSH1 0x24 DUP3 ADD MSTORE PUSH32 0x736F6C7574696F6E20646F6573206E6F74206578697374000000000000000000 PUSH1 0x44 DUP3 ADD MSTORE PUSH1 0x64 ADD PUSH2 0xB5A JUMP JUMPDEST PUSH1 0x0 DUP2 DUP2 MSTORE PUSH1 0x7E PUSH1 0x20 MSTORE PUSH1 0x40 SWAP1 KECCAK256 SLOAD PUSH1 0x1 PUSH1 0x1 PUSH1 0xA0 SHL SUB AND ISZERO PUSH2 0x217C JUMPI PUSH1 0x40 MLOAD PUSH3 0x461BCD PUSH1 0xE5 SHL DUP2 MSTORE PUSH1 0x20 PUSH1 0x4 DUP3 ADD MSTORE PUSH1 0x1B PUSH1 0x24 DUP3 ADD MSTORE PUSH32 0x636F6E746573746174696F6E20616C7265616479206578697374730000000000 PUSH1 0x44 DUP3 ADD MSTORE PUSH1 0x64 ADD PUSH2 0xB5A JUMP JUMPDEST PUSH1 0x71 SLOAD PUSH1 0x0 DUP3 DUP2 MSTORE PUSH1 0x7D PUSH1 0x20 MSTORE PUSH1 0x40 SWAP1 KECCAK256 SLOAD PUSH2 0x21A8 SWAP2 SWAP1 PUSH1 0x1 PUSH1 0xA0 SHL SWAP1 DIV PUSH1 0x1 PUSH1 0x1 PUSH1 0x40 SHL SUB AND PUSH2 0x5693 JUMP JUMPDEST TIMESTAMP LT PUSH2 0x21E1 JUMPI PUSH1 0x40 MLOAD PUSH3 0x461BCD PUSH1 0xE5 SHL DUP2 MSTORE PUSH1 0x20 PUSH1 0x4 DUP3 ADD MSTORE PUSH1 0x8 PUSH1 0x24 DUP3 ADD MSTORE PUSH8 0x746F6F206C617465 PUSH1 0xC0 SHL PUSH1 0x44 DUP3 ADD MSTORE PUSH1 0x64 ADD PUSH2 0xB5A JUMP JUMPDEST PUSH1 0x0 DUP2 DUP2 MSTORE PUSH1 0x7D PUSH1 0x20 MSTORE PUSH1 0x40 SWAP1 KECCAK256 SLOAD PUSH1 0x1 PUSH1 0xE0 SHL SWAP1 DIV PUSH1 0xFF AND ISZERO PUSH2 0x222D JUMPI PUSH1 0x40 MLOAD PUSH3 0x461BCD PUSH1 0xE5 SHL DUP2 MSTORE PUSH1 0x20 PUSH1 0x4 DUP3 ADD MSTORE PUSH1 0x3 PUSH1 0x24 DUP3 ADD MSTORE PUSH3 0x3BBA33 PUSH1 0xE9 SHL PUSH1 0x44 DUP3 ADD MSTORE PUSH1 0x64 ADD PUSH2 0xB5A JUMP JUMPDEST PUSH1 0x0 PUSH2 0x2237 PUSH2 0x16D0 JUMP JUMPDEST PUSH1 0x40 DUP1 MLOAD PUSH1 0x80 DUP2 ADD DUP3 MSTORE CALLER DUP1 DUP3 MSTORE PUSH1 0x1 PUSH1 0x1 PUSH1 0x40 SHL SUB TIMESTAMP DUP2 AND PUSH1 0x20 DUP1 DUP6 ADD SWAP2 DUP3 MSTORE PUSH1 0x0 DUP6 DUP8 ADD DUP2 DUP2 MSTORE PUSH1 0x60 DUP8 ADD DUP10 DUP2 MSTORE DUP12 DUP4 MSTORE PUSH1 0x7E SWAP1 SWAP4 MSTORE DUP8 DUP3 KECCAK256 SWAP7 MLOAD DUP8 SLOAD SWAP5 MLOAD SWAP2 MLOAD PUSH4 0xFFFFFFFF AND PUSH1 0x1 PUSH1 0xE0 SHL MUL PUSH1 0x1 PUSH1 0x1 PUSH1 0xE0 SHL SUB SWAP3 SWAP1 SWAP7 AND PUSH1 0x1 PUSH1 0xA0 SHL MUL PUSH1 0x1 PUSH1 0x1 PUSH1 0xE0 SHL SUB NOT SWAP1 SWAP6 AND PUSH1 0x1 PUSH1 0x1 PUSH1 0xA0 SHL SUB SWAP2 SWAP1 SWAP2 AND OR SWAP4 SWAP1 SWAP4 OR SWAP3 SWAP1 SWAP3 AND SWAP3 SWAP1 SWAP3 OR DUP5 SSTORE SWAP1 MLOAD PUSH1 0x1 SWAP1 SWAP4 ADD SWAP3 SWAP1 SWAP3 SSTORE SWAP2 MLOAD SWAP3 SWAP4 POP DUP5 SWAP3 PUSH32 0x6958C989E915D3E41A35076E3C480363910055408055AD86AE1EE13D41C40640 SWAP2 SWAP1 LOG3 PUSH2 0x2301 DUP3 PUSH1 0x1 CALLER PUSH2 0x3AB1 JUMP JUMPDEST PUSH1 0x0 DUP3 DUP2 MSTORE PUSH1 0x7D PUSH1 0x20 SWAP1 DUP2 MSTORE PUSH1 0x40 DUP1 DUP4 KECCAK256 SLOAD PUSH1 0x1 PUSH1 0x1 PUSH1 0xA0 SHL SUB AND DUP4 MSTORE PUSH1 0x77 SWAP1 SWAP2 MSTORE SWAP1 KECCAK256 SLOAD DUP2 GT PUSH2 0x136D JUMPI PUSH1 0x0 DUP3 DUP2 MSTORE PUSH1 0x7D PUSH1 0x20 MSTORE PUSH1 0x40 DUP2 KECCAK256 SLOAD PUSH2 0x136D SWAP2 DUP5 SWAP2 PUSH1 0x1 PUSH1 0x1 PUSH1 0xA0 SHL SUB AND PUSH2 0x3AB1 JUMP JUMPDEST PUSH2 0x2357 PUSH2 0x3BD5 JUMP JUMPDEST PUSH2 0x2361 PUSH1 0x0 PUSH2 0x3F7A JUMP JUMPDEST JUMP JUMPDEST PUSH1 0x7D PUSH1 0x20 MSTORE PUSH1 0x0 SWAP1 DUP2 MSTORE PUSH1 0x40 SWAP1 KECCAK256 DUP1 SLOAD PUSH1 0x1 DUP3 ADD DUP1 SLOAD PUSH1 0x1 PUSH1 0x1 PUSH1 0xA0 SHL SUB DUP4 AND SWAP4 PUSH1 0x1 PUSH1 0xA0 SHL DUP5 DIV PUSH1 0x1 PUSH1 0x1 PUSH1 0x40 SHL SUB AND SWAP4 PUSH1 0x1 PUSH1 0xE0 SHL SWAP1 DIV PUSH1 0xFF AND SWAP3 SWAP1 SWAP2 PUSH2 0x23AB SWAP1 PUSH2 0x56D4 JUMP JUMPDEST DUP1 PUSH1 0x1F ADD PUSH1 0x20 DUP1 SWAP2 DIV MUL PUSH1 0x20 ADD PUSH1 0x40 MLOAD SWAP1 DUP2 ADD PUSH1 0x40 MSTORE DUP1 SWAP3 SWAP2 SWAP1 DUP2 DUP2 MSTORE PUSH1 0x20 ADD DUP3 DUP1 SLOAD PUSH2 0x23D7 SWAP1 PUSH2 0x56D4 JUMP JUMPDEST DUP1 ISZERO PUSH2 0x2424 JUMPI DUP1 PUSH1 0x1F LT PUSH2 0x23F9 JUMPI PUSH2 0x100 DUP1 DUP4 SLOAD DIV MUL DUP4 MSTORE SWAP2 PUSH1 0x20 ADD SWAP2 PUSH2 0x2424 JUMP JUMPDEST DUP3 ADD SWAP2 SWAP1 PUSH1 0x0 MSTORE PUSH1 0x20 PUSH1 0x0 KECCAK256 SWAP1 JUMPDEST DUP2 SLOAD DUP2 MSTORE SWAP1 PUSH1 0x1 ADD SWAP1 PUSH1 0x20 ADD DUP1 DUP4 GT PUSH2 0x2407 JUMPI DUP3 SWAP1 SUB PUSH1 0x1F AND DUP3 ADD SWAP2 JUMPDEST POP POP POP POP POP SWAP1 POP DUP5 JUMP JUMPDEST PUSH1 0x67 SLOAD PUSH1 0x1 PUSH1 0xA0 SHL SWAP1 DIV PUSH1 0xFF AND ISZERO PUSH2 0x2458 JUMPI PUSH1 0x40 MLOAD PUSH3 0x461BCD PUSH1 0xE5 SHL DUP2 MSTORE PUSH1 0x4 ADD PUSH2 0xB5A SWAP1 PUSH2 0x55C5 JUMP JUMPDEST CALLER PUSH1 0x0 SWAP1 DUP2 MSTORE PUSH1 0x79 PUSH1 0x20 SWAP1 DUP2 MSTORE PUSH1 0x40 DUP1 DUP4 KECCAK256 DUP6 DUP5 MSTORE DUP3 MSTORE SWAP2 DUP3 SWAP1 KECCAK256 DUP3 MLOAD DUP1 DUP5 ADD SWAP1 SWAP4 MSTORE DUP1 SLOAD DUP1 DUP5 MSTORE PUSH1 0x1 SWAP1 SWAP2 ADD SLOAD SWAP2 DUP4 ADD SWAP2 SWAP1 SWAP2 MSTORE PUSH2 0x24CD JUMPI PUSH1 0x40 MLOAD PUSH3 0x461BCD PUSH1 0xE5 SHL DUP2 MSTORE PUSH1 0x20 PUSH1 0x4 DUP3 ADD MSTORE PUSH1 0x11 PUSH1 0x24 DUP3 ADD MSTORE PUSH17 0x1C995C5D595CDD081B9BDD08195E1A5CDD PUSH1 0x7A SHL PUSH1 0x44 DUP3 ADD MSTORE PUSH1 0x64 ADD PUSH2 0xB5A JUMP JUMPDEST DUP1 MLOAD TIMESTAMP LT ISZERO PUSH2 0x250C JUMPI PUSH1 0x40 MLOAD PUSH3 0x461BCD PUSH1 0xE5 SHL DUP2 MSTORE PUSH1 0x20 PUSH1 0x4 DUP3 ADD MSTORE PUSH1 0xB PUSH1 0x24 DUP3 ADD MSTORE PUSH11 0x3BB0B4BA103637B733B2B9 PUSH1 0xA9 SHL PUSH1 0x44 DUP3 ADD MSTORE PUSH1 0x64 ADD PUSH2 0xB5A JUMP JUMPDEST PUSH1 0x20 DUP1 DUP3 ADD MLOAD CALLER PUSH1 0x0 SWAP1 DUP2 MSTORE PUSH1 0x77 SWAP1 SWAP3 MSTORE PUSH1 0x40 SWAP1 SWAP2 KECCAK256 SLOAD LT ISZERO PUSH2 0x2566 JUMPI PUSH1 0x40 MLOAD PUSH3 0x461BCD PUSH1 0xE5 SHL DUP2 MSTORE PUSH1 0x20 PUSH1 0x4 DUP3 ADD MSTORE PUSH1 0x12 PUSH1 0x24 DUP3 ADD MSTORE PUSH18 0x1CDD185AD9481A5B9CDD59999A58DA595B9D PUSH1 0x72 SHL PUSH1 0x44 DUP3 ADD MSTORE PUSH1 0x64 ADD PUSH2 0xB5A JUMP JUMPDEST PUSH1 0x65 SLOAD PUSH1 0x20 DUP3 ADD MLOAD PUSH1 0x40 MLOAD PUSH4 0xA9059CBB PUSH1 0xE0 SHL DUP2 MSTORE PUSH1 0x1 PUSH1 0x1 PUSH1 0xA0 SHL SUB SWAP1 SWAP3 AND SWAP2 PUSH4 0xA9059CBB SWAP2 PUSH2 0x259C SWAP2 DUP7 SWAP2 SWAP1 PUSH1 0x4 ADD PUSH2 0x565D JUMP JUMPDEST PUSH1 0x20 PUSH1 0x40 MLOAD DUP1 DUP4 SUB DUP2 PUSH1 0x0 DUP8 GAS CALL ISZERO DUP1 ISZERO PUSH2 0x25BB JUMPI RETURNDATASIZE PUSH1 0x0 DUP1 RETURNDATACOPY RETURNDATASIZE PUSH1 0x0 REVERT JUMPDEST POP POP POP POP PUSH1 0x40 MLOAD RETURNDATASIZE PUSH1 0x1F NOT PUSH1 0x1F DUP3 ADD AND DUP3 ADD DUP1 PUSH1 0x40 MSTORE POP DUP2 ADD SWAP1 PUSH2 0x25DF SWAP2 SWAP1 PUSH2 0x5676 JUMP JUMPDEST POP PUSH1 0x20 DUP1 DUP3 ADD MLOAD CALLER PUSH1 0x0 SWAP1 DUP2 MSTORE PUSH1 0x77 SWAP1 SWAP3 MSTORE PUSH1 0x40 DUP3 KECCAK256 DUP1 SLOAD SWAP2 SWAP3 SWAP1 SWAP2 PUSH2 0x2606 SWAP1 DUP5 SWAP1 PUSH2 0x55FB JUMP JUMPDEST SWAP1 SWAP2 SSTORE POP POP PUSH1 0x20 DUP1 DUP3 ADD MLOAD CALLER PUSH1 0x0 SWAP1 DUP2 MSTORE PUSH1 0x7A SWAP1 SWAP3 MSTORE PUSH1 0x40 DUP3 KECCAK256 DUP1 SLOAD SWAP2 SWAP3 SWAP1 SWAP2 PUSH2 0x2631 SWAP1 DUP5 SWAP1 PUSH2 0x55FB JUMP JUMPDEST SWAP1 SWAP2 SSTORE POP POP CALLER PUSH1 0x0 DUP2 DUP2 MSTORE PUSH1 0x79 PUSH1 0x20 SWAP1 DUP2 MSTORE PUSH1 0x40 DUP1 DUP4 KECCAK256 DUP8 DUP5 MSTORE DUP3 MSTORE DUP1 DUP4 KECCAK256 DUP4 DUP2 SSTORE PUSH1 0x1 ADD SWAP3 SWAP1 SWAP3 SSTORE DUP4 DUP2 ADD MLOAD SWAP2 MLOAD SWAP2 DUP3 MSTORE DUP6 SWAP3 PUSH1 0x1 PUSH1 0x1 PUSH1 0xA0 SHL SUB DUP7 AND SWAP3 SWAP1 SWAP2 PUSH32 0x109AEFF667601AAD33ABCB7C5DF1617754EEFD18253D586A95C198CB479B5BD4 SWAP2 ADD PUSH1 0x40 MLOAD DUP1 SWAP2 SUB SWAP1 LOG4 POP POP POP JUMP JUMPDEST PUSH2 0x26AA PUSH2 0x3BD5 JUMP JUMPDEST PUSH1 0x72 DUP2 SWAP1 SSTORE PUSH1 0x40 MLOAD DUP2 SWAP1 PUSH32 0x2CF38ED7DA57DD510FA6ECBFB991949CDDE5C808ACBE85CFA940B642DEF628ED SWAP1 PUSH1 0x0 SWAP1 LOG2 POP JUMP JUMPDEST PUSH1 0x67 SLOAD PUSH1 0x1 PUSH1 0xA0 SHL SWAP1 DIV PUSH1 0xFF AND ISZERO PUSH2 0x2707 JUMPI PUSH1 0x40 MLOAD PUSH3 0x461BCD PUSH1 0xE5 SHL DUP2 MSTORE PUSH1 0x4 ADD PUSH2 0xB5A SWAP1 PUSH2 0x55C5 JUMP JUMPDEST PUSH1 0x0 DUP2 DUP2 MSTORE PUSH1 0x7D PUSH1 0x20 MSTORE PUSH1 0x40 SWAP1 KECCAK256 SLOAD PUSH1 0x1 PUSH1 0x1 PUSH1 0xA0 SHL SUB AND PUSH2 0x2760 JUMPI PUSH1 0x40 MLOAD PUSH3 0x461BCD PUSH1 0xE5 SHL DUP2 MSTORE PUSH1 0x20 PUSH1 0x4 DUP3 ADD MSTORE PUSH1 0x12 PUSH1 0x24 DUP3 ADD MSTORE PUSH18 0x1CDBDB1D5D1A5BDB881B9BDD08199BDD5B99 PUSH1 0x72 SHL PUSH1 0x44 DUP3 ADD MSTORE PUSH1 0x64 ADD PUSH2 0xB5A JUMP JUMPDEST PUSH1 0x0 DUP2 DUP2 MSTORE PUSH1 0x7E PUSH1 0x20 MSTORE PUSH1 0x40 SWAP1 KECCAK256 SLOAD PUSH1 0x1 PUSH1 0x1 PUSH1 0xA0 SHL SUB AND ISZERO PUSH2 0x27B8 JUMPI PUSH1 0x40 MLOAD PUSH3 0x461BCD PUSH1 0xE5 SHL DUP2 MSTORE PUSH1 0x20 PUSH1 0x4 DUP3 ADD MSTORE PUSH1 0x10 PUSH1 0x24 DUP3 ADD MSTORE PUSH16 0x3430B99031B7B73A32B9BA30BA34B7B7 PUSH1 0x81 SHL PUSH1 0x44 DUP3 ADD MSTORE PUSH1 0x64 ADD PUSH2 0xB5A JUMP JUMPDEST PUSH1 0x71 SLOAD PUSH2 0x27C5 SWAP1 TIMESTAMP PUSH2 0x55FB JUMP JUMPDEST PUSH1 0x0 DUP3 DUP2 MSTORE PUSH1 0x7D PUSH1 0x20 MSTORE PUSH1 0x40 SWAP1 KECCAK256 SLOAD PUSH1 0x1 PUSH1 0xA0 SHL SWAP1 DIV PUSH1 0x1 PUSH1 0x1 PUSH1 0x40 SHL SUB AND LT PUSH2 0x2824 JUMPI PUSH1 0x40 MLOAD PUSH3 0x461BCD PUSH1 0xE5 SHL DUP2 MSTORE PUSH1 0x20 PUSH1 0x4 DUP3 ADD MSTORE PUSH1 0x10 PUSH1 0x24 DUP3 ADD MSTORE PUSH16 0x6E6F7420656E6F7567682064656C6179 PUSH1 0x80 SHL PUSH1 0x44 DUP3 ADD MSTORE PUSH1 0x64 ADD PUSH2 0xB5A JUMP JUMPDEST PUSH1 0x0 DUP2 DUP2 MSTORE PUSH1 0x7D PUSH1 0x20 MSTORE PUSH1 0x40 SWAP1 KECCAK256 SLOAD PUSH1 0x1 PUSH1 0xE0 SHL SWAP1 DIV PUSH1 0xFF AND ISZERO PUSH2 0x287C JUMPI PUSH1 0x40 MLOAD PUSH3 0x461BCD PUSH1 0xE5 SHL DUP2 MSTORE PUSH1 0x20 PUSH1 0x4 DUP3 ADD MSTORE PUSH1 0xF PUSH1 0x24 DUP3 ADD MSTORE PUSH15 0x185B1C9958591E4818DB185A5B5959 PUSH1 0x8A SHL PUSH1 0x44 DUP3 ADD MSTORE PUSH1 0x64 ADD PUSH2 0xB5A JUMP JUMPDEST PUSH1 0x0 DUP2 DUP2 MSTORE PUSH1 0x7D PUSH1 0x20 MSTORE PUSH1 0x40 DUP1 DUP3 KECCAK256 DUP1 SLOAD PUSH1 0xFF PUSH1 0xE0 SHL NOT DUP2 AND PUSH1 0x1 PUSH1 0xE0 SHL OR SWAP1 SWAP2 SSTORE SWAP1 MLOAD DUP4 SWAP3 PUSH1 0x1 PUSH1 0x1 PUSH1 0xA0 SHL SUB SWAP1 SWAP3 AND SWAP2 PUSH32 0xB76B4AE356796814D36B46F7C500BBD27B2CCE1E6059A6FA2BEBFD5A389B190 SWAP2 LOG3 PUSH2 0x28DA DUP2 PUSH2 0x3FCC JUMP JUMPDEST POP JUMP JUMPDEST PUSH1 0x65 SLOAD PUSH1 0x40 MLOAD PUSH4 0x70A08231 PUSH1 0xE0 SHL DUP2 MSTORE ADDRESS PUSH1 0x4 DUP3 ADD MSTORE PUSH1 0x0 SWAP2 DUP3 SWAP2 PUSH1 0x1 PUSH1 0x1 PUSH1 0xA0 SHL SUB SWAP1 SWAP2 AND SWAP1 PUSH4 0x70A08231 SWAP1 PUSH1 0x24 ADD PUSH1 0x20 PUSH1 0x40 MLOAD DUP1 DUP4 SUB DUP2 DUP7 GAS STATICCALL ISZERO DUP1 ISZERO PUSH2 0x292A JUMPI RETURNDATASIZE PUSH1 0x0 DUP1 RETURNDATACOPY RETURNDATASIZE PUSH1 0x0 REVERT JUMPDEST POP POP POP POP PUSH1 0x40 MLOAD RETURNDATASIZE PUSH1 0x1F NOT PUSH1 0x1F DUP3 ADD AND DUP3 ADD DUP1 PUSH1 0x40 MSTORE POP DUP2 ADD SWAP1 PUSH2 0x294E SWAP2 SWAP1 PUSH2 0x58F2 JUMP JUMPDEST SWAP1 POP PUSH10 0x7F0E10AF47C1C7000000 DUP2 LT PUSH2 0x2969 JUMPI PUSH1 0x0 SWAP2 POP POP SWAP1 JUMP JUMPDEST PUSH2 0x157E DUP2 PUSH10 0x7F0E10AF47C1C7000000 PUSH2 0x55FB JUMP JUMPDEST PUSH1 0x0 DUP2 DUP2 MSTORE PUSH1 0x7E PUSH1 0x20 MSTORE PUSH1 0x40 DUP2 KECCAK256 SLOAD PUSH1 0x1 PUSH1 0x1 PUSH1 0xA0 SHL SUB AND PUSH2 0x29A1 JUMPI POP PUSH1 0x1 PUSH2 0x14D2 JUMP JUMPDEST PUSH1 0x73 SLOAD PUSH1 0x0 DUP4 DUP2 MSTORE PUSH1 0x7E PUSH1 0x20 MSTORE PUSH1 0x40 SWAP1 KECCAK256 SLOAD PUSH2 0x29CD SWAP2 SWAP1 PUSH1 0x1 PUSH1 0xA0 SHL SWAP1 DIV PUSH1 0x1 PUSH1 0x1 PUSH1 0x40 SHL SUB AND PUSH2 0x5693 JUMP JUMPDEST TIMESTAMP GT ISZERO PUSH2 0x29DC JUMPI POP PUSH1 0x2 PUSH2 0x14D2 JUMP JUMPDEST PUSH1 0x0 DUP3 DUP2 MSTORE PUSH1 0x7F PUSH1 0x20 SWAP1 DUP2 MSTORE PUSH1 0x40 DUP1 DUP4 KECCAK256 PUSH1 0x1 PUSH1 0x1 PUSH1 0xA0 SHL SUB DUP8 AND DUP5 MSTORE SWAP1 SWAP2 MSTORE SWAP1 KECCAK256 SLOAD PUSH1 0xFF AND ISZERO PUSH2 0x2A0F JUMPI POP PUSH1 0x3 PUSH2 0x14D2 JUMP JUMPDEST PUSH1 0x1 PUSH1 0x1 PUSH1 0xA0 SHL SUB DUP4 AND PUSH1 0x0 SWAP1 DUP2 MSTORE PUSH1 0x77 PUSH1 0x20 MSTORE PUSH1 0x40 DUP2 KECCAK256 PUSH1 0x1 ADD SLOAD SWAP1 SUB PUSH2 0x2A39 JUMPI POP PUSH1 0x4 PUSH2 0x14D2 JUMP JUMPDEST PUSH1 0x74 SLOAD PUSH1 0x1 PUSH1 0x1 PUSH1 0xA0 SHL SUB DUP5 AND PUSH1 0x0 SWAP1 DUP2 MSTORE PUSH1 0x77 PUSH1 0x20 MSTORE PUSH1 0x40 SWAP1 KECCAK256 PUSH1 0x1 ADD SLOAD LT ISZERO PUSH2 0x2A66 JUMPI POP PUSH1 0x5 PUSH2 0x14D2 JUMP JUMPDEST PUSH1 0x0 DUP3 DUP2 MSTORE PUSH1 0x7E PUSH1 0x20 SWAP1 DUP2 MSTORE PUSH1 0x40 DUP1 DUP4 KECCAK256 SLOAD PUSH1 0x74 SLOAD PUSH1 0x1 PUSH1 0x1 PUSH1 0xA0 SHL SUB DUP9 AND DUP6 MSTORE PUSH1 0x77 SWAP1 SWAP4 MSTORE SWAP3 KECCAK256 PUSH1 0x1 ADD SLOAD PUSH1 0x1 PUSH1 0xA0 SHL SWAP1 SWAP3 DIV PUSH1 0x1 PUSH1 0x1 PUSH1 0x40 SHL SUB AND SWAP2 PUSH2 0x2AAE SWAP2 SWAP1 PUSH2 0x55FB JUMP JUMPDEST GT ISZERO PUSH2 0x2ABC JUMPI POP PUSH1 0x6 PUSH2 0x14D2 JUMP JUMPDEST POP PUSH1 0x0 SWAP3 SWAP2 POP POP JUMP JUMPDEST PUSH1 0x67 SLOAD PUSH1 0x1 PUSH1 0xA0 SHL SWAP1 DIV PUSH1 0xFF AND ISZERO PUSH2 0x2AEF JUMPI PUSH1 0x40 MLOAD PUSH3 0x461BCD PUSH1 0xE5 SHL DUP2 MSTORE PUSH1 0x4 ADD PUSH2 0xB5A SWAP1 PUSH2 0x55C5 JUMP JUMPDEST PUSH1 0x0 DUP3 DUP2 MSTORE PUSH1 0x7E PUSH1 0x20 MSTORE PUSH1 0x40 SWAP1 KECCAK256 SLOAD PUSH1 0x1 PUSH1 0x1 PUSH1 0xA0 SHL SUB AND PUSH2 0x2B53 JUMPI PUSH1 0x40 MLOAD PUSH3 0x461BCD PUSH1 0xE5 SHL DUP2 MSTORE PUSH1 0x20 PUSH1 0x4 DUP3 ADD MSTORE PUSH1 0x1A PUSH1 0x24 DUP3 ADD MSTORE PUSH32 0x636F6E746573746174696F6E20646F65736E2774206578697374000000000000 PUSH1 0x44 DUP3 ADD MSTORE PUSH1 0x64 ADD PUSH2 0xB5A JUMP JUMPDEST PUSH1 0x73 SLOAD PUSH1 0x0 DUP4 DUP2 MSTORE PUSH1 0x7E PUSH1 0x20 MSTORE PUSH1 0x40 SWAP1 KECCAK256 SLOAD PUSH2 0x2B7F SWAP2 SWAP1 PUSH1 0x1 PUSH1 0xA0 SHL SWAP1 DIV PUSH1 0x1 PUSH1 0x1 PUSH1 0x40 SHL SUB AND PUSH2 0x5693 JUMP JUMPDEST TIMESTAMP LT ISZERO PUSH2 0x2BCE JUMPI PUSH1 0x40 MLOAD PUSH3 0x461BCD PUSH1 0xE5 SHL DUP2 MSTORE PUSH1 0x20 PUSH1 0x4 DUP3 ADD MSTORE PUSH1 0x17 PUSH1 0x24 DUP3 ADD MSTORE PUSH32 0x766F74696E6720706572696F64206E6F7420656E646564000000000000000000 PUSH1 0x44 DUP3 ADD MSTORE PUSH1 0x64 ADD PUSH2 0xB5A JUMP JUMPDEST PUSH1 0x0 DUP2 PUSH4 0xFFFFFFFF AND GT PUSH2 0x2C15 JUMPI PUSH1 0x40 MLOAD PUSH3 0x461BCD PUSH1 0xE5 SHL DUP2 MSTORE PUSH1 0x20 PUSH1 0x4 DUP3 ADD MSTORE PUSH1 0xE PUSH1 0x24 DUP3 ADD MSTORE PUSH14 0x185B5B9D081D1BDBC81CDB585B1B PUSH1 0x92 SHL PUSH1 0x44 DUP3 ADD MSTORE PUSH1 0x64 ADD PUSH2 0xB5A JUMP JUMPDEST PUSH1 0x0 DUP3 DUP2 MSTORE PUSH1 0x81 PUSH1 0x20 SWAP1 DUP2 MSTORE PUSH1 0x40 DUP1 DUP4 KECCAK256 SLOAD PUSH1 0x82 DUP4 MSTORE DUP2 DUP5 KECCAK256 SLOAD PUSH1 0x7E SWAP1 SWAP4 MSTORE SWAP1 DUP4 KECCAK256 SLOAD SWAP1 SWAP3 PUSH1 0x1 PUSH1 0xE0 SHL SWAP1 SWAP2 DIV PUSH4 0xFFFFFFFF AND SWAP1 PUSH2 0x2C53 DUP6 DUP4 PUSH2 0x590B JUMP JUMPDEST PUSH1 0x0 DUP8 DUP2 MSTORE PUSH1 0x7E PUSH1 0x20 MSTORE PUSH1 0x40 SWAP1 KECCAK256 PUSH1 0x1 ADD SLOAD SWAP1 SWAP2 POP PUSH4 0xFFFFFFFF DUP1 DUP6 AND SWAP1 DUP7 AND GT ISZERO PUSH2 0x2F46 JUMPI PUSH1 0x0 PUSH2 0x2C8B DUP3 PUSH4 0xFFFFFFFF DUP8 AND PUSH2 0x560E JUMP JUMPDEST SWAP1 POP PUSH1 0x0 DUP7 PUSH4 0xFFFFFFFF AND PUSH1 0x1 EQ PUSH2 0x2CB7 JUMPI PUSH2 0x2CA8 PUSH1 0x2 DUP4 PUSH2 0x563B JUMP JUMPDEST PUSH2 0x2CB2 SWAP1 DUP4 PUSH2 0x55FB JUMP JUMPDEST PUSH2 0x2CB9 JUMP JUMPDEST DUP2 JUMPDEST SWAP1 POP PUSH1 0x0 DUP8 PUSH4 0xFFFFFFFF AND PUSH1 0x1 EQ PUSH2 0x2CF5 JUMPI PUSH2 0x2CD6 PUSH1 0x1 DUP10 PUSH2 0x592F JUMP JUMPDEST PUSH4 0xFFFFFFFF AND PUSH2 0x2CE6 DUP4 DUP6 PUSH2 0x55FB JUMP JUMPDEST PUSH2 0x2CF0 SWAP2 SWAP1 PUSH2 0x563B JUMP JUMPDEST PUSH2 0x2CF8 JUMP JUMPDEST PUSH1 0x0 JUMPDEST SWAP1 POP PUSH4 0xFFFFFFFF DUP7 AND JUMPDEST DUP6 PUSH4 0xFFFFFFFF AND DUP2 LT ISZERO PUSH2 0x2E89 JUMPI DUP9 PUSH4 0xFFFFFFFF AND DUP2 LT ISZERO PUSH2 0x2E77 JUMPI PUSH1 0x0 DUP12 DUP2 MSTORE PUSH1 0x81 PUSH1 0x20 MSTORE PUSH1 0x40 DUP2 KECCAK256 DUP1 SLOAD DUP4 SWAP1 DUP2 LT PUSH2 0x2D3E JUMPI PUSH2 0x2D3E PUSH2 0x594C JUMP JUMPDEST PUSH1 0x0 SWAP2 DUP3 MSTORE PUSH1 0x20 DUP1 DUP4 KECCAK256 SWAP1 SWAP2 ADD SLOAD PUSH1 0x1 PUSH1 0x1 PUSH1 0xA0 SHL SUB AND DUP1 DUP4 MSTORE PUSH1 0x77 SWAP1 SWAP2 MSTORE PUSH1 0x40 DUP3 KECCAK256 DUP1 SLOAD SWAP2 SWAP4 POP DUP9 SWAP3 SWAP1 SWAP2 PUSH2 0x2D75 SWAP1 DUP5 SWAP1 PUSH2 0x5693 JUMP JUMPDEST SWAP1 SWAP2 SSTORE POP POP PUSH1 0x0 DUP3 SWAP1 SUB PUSH2 0x2DFE JUMPI PUSH1 0x65 SLOAD PUSH1 0x40 MLOAD PUSH4 0xA9059CBB PUSH1 0xE0 SHL DUP2 MSTORE PUSH1 0x1 PUSH1 0x1 PUSH1 0xA0 SHL SUB SWAP1 SWAP2 AND SWAP1 PUSH4 0xA9059CBB SWAP1 PUSH2 0x2DB5 SWAP1 DUP5 SWAP1 DUP9 SWAP1 PUSH1 0x4 ADD PUSH2 0x565D JUMP JUMPDEST PUSH1 0x20 PUSH1 0x40 MLOAD DUP1 DUP4 SUB DUP2 PUSH1 0x0 DUP8 GAS CALL ISZERO DUP1 ISZERO PUSH2 0x2DD4 JUMPI RETURNDATASIZE PUSH1 0x0 DUP1 RETURNDATACOPY RETURNDATASIZE PUSH1 0x0 REVERT JUMPDEST POP POP POP POP PUSH1 0x40 MLOAD RETURNDATASIZE PUSH1 0x1F NOT PUSH1 0x1F DUP3 ADD AND DUP3 ADD DUP1 PUSH1 0x40 MSTORE POP DUP2 ADD SWAP1 PUSH2 0x2DF8 SWAP2 SWAP1 PUSH2 0x5676 JUMP JUMPDEST POP PUSH2 0x2E75 JUMP JUMPDEST PUSH1 0x65 SLOAD PUSH1 0x40 MLOAD PUSH4 0xA9059CBB PUSH1 0xE0 SHL DUP2 MSTORE PUSH1 0x1 PUSH1 0x1 PUSH1 0xA0 SHL SUB SWAP1 SWAP2 AND SWAP1 PUSH4 0xA9059CBB SWAP1 PUSH2 0x2E30 SWAP1 DUP5 SWAP1 DUP8 SWAP1 PUSH1 0x4 ADD PUSH2 0x565D JUMP JUMPDEST PUSH1 0x20 PUSH1 0x40 MLOAD DUP1 DUP4 SUB DUP2 PUSH1 0x0 DUP8 GAS CALL ISZERO DUP1 ISZERO PUSH2 0x2E4F JUMPI RETURNDATASIZE PUSH1 0x0 DUP1 RETURNDATACOPY RETURNDATASIZE PUSH1 0x0 REVERT JUMPDEST POP POP POP POP PUSH1 0x40 MLOAD RETURNDATASIZE PUSH1 0x1F NOT PUSH1 0x1F DUP3 ADD AND DUP3 ADD DUP1 PUSH1 0x40 MSTORE POP DUP2 ADD SWAP1 PUSH2 0x2E73 SWAP2 SWAP1 PUSH2 0x5676 JUMP JUMPDEST POP JUMPDEST POP JUMPDEST DUP1 PUSH2 0x2E81 DUP2 PUSH2 0x5962 JUMP JUMPDEST SWAP2 POP POP PUSH2 0x2D02 JUMP JUMPDEST POP PUSH1 0x0 DUP11 DUP2 MSTORE PUSH1 0x7E PUSH1 0x20 MSTORE PUSH1 0x40 DUP2 KECCAK256 SLOAD PUSH1 0x1 PUSH1 0xE0 SHL SWAP1 DIV PUSH4 0xFFFFFFFF AND SWAP1 SUB PUSH2 0x2F3E JUMPI PUSH1 0x65 SLOAD PUSH1 0x0 DUP12 DUP2 MSTORE PUSH1 0x7B PUSH1 0x20 MSTORE PUSH1 0x40 SWAP1 DUP2 SWAP1 KECCAK256 PUSH1 0x2 DUP2 ADD SLOAD PUSH1 0x1 SWAP2 SWAP1 SWAP2 ADD SLOAD SWAP2 MLOAD PUSH4 0xA9059CBB PUSH1 0xE0 SHL DUP2 MSTORE PUSH1 0x1 PUSH1 0x1 PUSH1 0xA0 SHL SUB SWAP4 DUP5 AND SWAP4 PUSH4 0xA9059CBB SWAP4 PUSH2 0x2EF9 SWAP4 SWAP1 SWAP2 AND SWAP2 PUSH1 0x4 ADD PUSH2 0x565D JUMP JUMPDEST PUSH1 0x20 PUSH1 0x40 MLOAD DUP1 DUP4 SUB DUP2 PUSH1 0x0 DUP8 GAS CALL ISZERO DUP1 ISZERO PUSH2 0x2F18 JUMPI RETURNDATASIZE PUSH1 0x0 DUP1 RETURNDATACOPY RETURNDATASIZE PUSH1 0x0 REVERT JUMPDEST POP POP POP POP PUSH1 0x40 MLOAD RETURNDATASIZE PUSH1 0x1F NOT PUSH1 0x1F DUP3 ADD AND DUP3 ADD DUP1 PUSH1 0x40 MSTORE POP DUP2 ADD SWAP1 PUSH2 0x2F3C SWAP2 SWAP1 PUSH2 0x5676 JUMP JUMPDEST POP JUMPDEST POP POP POP PUSH2 0x317C JUMP JUMPDEST PUSH1 0x0 PUSH2 0x2F58 DUP3 PUSH4 0xFFFFFFFF DUP9 AND PUSH2 0x560E JUMP JUMPDEST SWAP1 POP PUSH1 0x0 DUP6 PUSH4 0xFFFFFFFF AND PUSH1 0x1 EQ PUSH2 0x2F7A JUMPI PUSH2 0x2F75 PUSH1 0x2 DUP4 PUSH2 0x563B JUMP JUMPDEST PUSH2 0x2F7C JUMP JUMPDEST DUP2 JUMPDEST SWAP1 POP PUSH1 0x0 DUP7 PUSH4 0xFFFFFFFF AND PUSH1 0x1 EQ PUSH2 0x2FB8 JUMPI PUSH2 0x2F99 PUSH1 0x1 DUP9 PUSH2 0x592F JUMP JUMPDEST PUSH4 0xFFFFFFFF AND PUSH2 0x2FA9 DUP4 DUP6 PUSH2 0x55FB JUMP JUMPDEST PUSH2 0x2FB3 SWAP2 SWAP1 PUSH2 0x563B JUMP JUMPDEST PUSH2 0x2FBB JUMP JUMPDEST PUSH1 0x0 JUMPDEST SWAP1 POP PUSH4 0xFFFFFFFF DUP7 AND JUMPDEST DUP6 PUSH4 0xFFFFFFFF AND DUP2 LT ISZERO PUSH2 0x314C JUMPI DUP8 PUSH4 0xFFFFFFFF AND DUP2 LT ISZERO PUSH2 0x313A JUMPI PUSH1 0x0 DUP12 DUP2 MSTORE PUSH1 0x82 PUSH1 0x20 MSTORE PUSH1 0x40 DUP2 KECCAK256 DUP1 SLOAD DUP4 SWAP1 DUP2 LT PUSH2 0x3001 JUMPI PUSH2 0x3001 PUSH2 0x594C JUMP JUMPDEST PUSH1 0x0 SWAP2 DUP3 MSTORE PUSH1 0x20 DUP1 DUP4 KECCAK256 SWAP1 SWAP2 ADD SLOAD PUSH1 0x1 PUSH1 0x1 PUSH1 0xA0 SHL SUB AND DUP1 DUP4 MSTORE PUSH1 0x77 SWAP1 SWAP2 MSTORE PUSH1 0x40 DUP3 KECCAK256 DUP1 SLOAD SWAP2 SWAP4 POP DUP9 SWAP3 SWAP1 SWAP2 PUSH2 0x3038 SWAP1 DUP5 SWAP1 PUSH2 0x5693 JUMP JUMPDEST SWAP1 SWAP2 SSTORE POP POP PUSH1 0x0 DUP3 SWAP1 SUB PUSH2 0x30C1 JUMPI PUSH1 0x65 SLOAD PUSH1 0x40 MLOAD PUSH4 0xA9059CBB PUSH1 0xE0 SHL DUP2 MSTORE PUSH1 0x1 PUSH1 0x1 PUSH1 0xA0 SHL SUB SWAP1 SWAP2 AND SWAP1 PUSH4 0xA9059CBB SWAP1 PUSH2 0x3078 SWAP1 DUP5 SWAP1 DUP9 SWAP1 PUSH1 0x4 ADD PUSH2 0x565D JUMP JUMPDEST PUSH1 0x20 PUSH1 0x40 MLOAD DUP1 DUP4 SUB DUP2 PUSH1 0x0 DUP8 GAS CALL ISZERO DUP1 ISZERO PUSH2 0x3097 JUMPI RETURNDATASIZE PUSH1 0x0 DUP1 RETURNDATACOPY RETURNDATASIZE PUSH1 0x0 REVERT JUMPDEST POP POP POP POP PUSH1 0x40 MLOAD RETURNDATASIZE PUSH1 0x1F NOT PUSH1 0x1F DUP3 ADD AND DUP3 ADD DUP1 PUSH1 0x40 MSTORE POP DUP2 ADD SWAP1 PUSH2 0x30BB SWAP2 SWAP1 PUSH2 0x5676 JUMP JUMPDEST POP PUSH2 0x3138 JUMP JUMPDEST PUSH1 0x65 SLOAD PUSH1 0x40 MLOAD PUSH4 0xA9059CBB PUSH1 0xE0 SHL DUP2 MSTORE PUSH1 0x1 PUSH1 0x1 PUSH1 0xA0 SHL SUB SWAP1 SWAP2 AND SWAP1 PUSH4 0xA9059CBB SWAP1 PUSH2 0x30F3 SWAP1 DUP5 SWAP1 DUP8 SWAP1 PUSH1 0x4 ADD PUSH2 0x565D JUMP JUMPDEST PUSH1 0x20 PUSH1 0x40 MLOAD DUP1 DUP4 SUB DUP2 PUSH1 0x0 DUP8 GAS CALL ISZERO DUP1 ISZERO PUSH2 0x3112 JUMPI RETURNDATASIZE PUSH1 0x0 DUP1 RETURNDATACOPY RETURNDATASIZE PUSH1 0x0 REVERT JUMPDEST POP POP POP POP PUSH1 0x40 MLOAD RETURNDATASIZE PUSH1 0x1F NOT PUSH1 0x1F DUP3 ADD AND DUP3 ADD DUP1 PUSH1 0x40 MSTORE POP DUP2 ADD SWAP1 PUSH2 0x3136 SWAP2 SWAP1 PUSH2 0x5676 JUMP JUMPDEST POP JUMPDEST POP JUMPDEST DUP1 PUSH2 0x3144 DUP2 PUSH2 0x5962 JUMP JUMPDEST SWAP2 POP POP PUSH2 0x2FC5 JUMP JUMPDEST POP PUSH1 0x0 DUP11 DUP2 MSTORE PUSH1 0x7E PUSH1 0x20 MSTORE PUSH1 0x40 DUP2 KECCAK256 SLOAD PUSH1 0x1 PUSH1 0xE0 SHL SWAP1 DIV PUSH4 0xFFFFFFFF AND SWAP1 SUB PUSH2 0x3178 JUMPI PUSH2 0x3178 DUP11 PUSH2 0x3FCC JUMP JUMPDEST POP POP POP JUMPDEST PUSH1 0x0 DUP8 DUP2 MSTORE PUSH1 0x7E PUSH1 0x20 SWAP1 DUP2 MSTORE PUSH1 0x40 SWAP2 DUP3 SWAP1 KECCAK256 DUP1 SLOAD PUSH1 0x1 PUSH1 0x1 PUSH1 0xE0 SHL SUB AND PUSH1 0x1 PUSH1 0xE0 SHL PUSH4 0xFFFFFFFF DUP8 DUP2 AND SWAP2 DUP3 MUL SWAP3 SWAP1 SWAP3 OR SWAP1 SWAP3 SSTORE SWAP3 MLOAD SWAP1 DUP2 MSTORE SWAP2 DUP6 AND SWAP2 DUP10 SWAP2 PUSH32 0x71D8C71303E35A39162E33A402C9897BF9848388537BAC7D5E1B0D202ECA4E66 SWAP2 ADD PUSH1 0x40 MLOAD DUP1 SWAP2 SUB SWAP1 LOG3 POP POP POP POP POP POP POP JUMP JUMPDEST PUSH1 0x67 SLOAD PUSH1 0x1 PUSH1 0xA0 SHL SWAP1 DIV PUSH1 0xFF AND ISZERO PUSH2 0x3219 JUMPI PUSH1 0x40 MLOAD PUSH3 0x461BCD PUSH1 0xE5 SHL DUP2 MSTORE PUSH1 0x4 ADD PUSH2 0xB5A SWAP1 PUSH2 0x55C5 JUMP JUMPDEST PUSH1 0x65 SLOAD PUSH1 0x40 MLOAD PUSH4 0x23B872DD PUSH1 0xE0 SHL DUP2 MSTORE CALLER PUSH1 0x4 DUP3 ADD MSTORE ADDRESS PUSH1 0x24 DUP3 ADD MSTORE PUSH1 0x44 DUP2 ADD DUP4 SWAP1 MSTORE PUSH1 0x1 PUSH1 0x1 PUSH1 0xA0 SHL SUB SWAP1 SWAP2 AND SWAP1 PUSH4 0x23B872DD SWAP1 PUSH1 0x64 ADD PUSH1 0x20 PUSH1 0x40 MLOAD DUP1 DUP4 SUB DUP2 PUSH1 0x0 DUP8 GAS CALL ISZERO DUP1 ISZERO PUSH2 0x3270 JUMPI RETURNDATASIZE PUSH1 0x0 DUP1 RETURNDATACOPY RETURNDATASIZE PUSH1 0x0 REVERT JUMPDEST POP POP POP POP PUSH1 0x40 MLOAD RETURNDATASIZE PUSH1 0x1F NOT PUSH1 0x1F DUP3 ADD AND DUP3 ADD DUP1 PUSH1 0x40 MSTORE POP DUP2 ADD SWAP1 PUSH2 0x3294 SWAP2 SWAP1 PUSH2 0x5676 JUMP JUMPDEST POP PUSH1 0x0 PUSH2 0x329F PUSH2 0x151B JUMP JUMPDEST PUSH1 0x1 PUSH1 0x1 PUSH1 0xA0 SHL SUB DUP5 AND PUSH1 0x0 SWAP1 DUP2 MSTORE PUSH1 0x77 PUSH1 0x20 MSTORE PUSH1 0x40 SWAP1 KECCAK256 SLOAD SWAP1 SWAP2 POP DUP2 LT PUSH2 0x330C JUMPI PUSH1 0x1 PUSH1 0x1 PUSH1 0xA0 SHL SUB DUP4 AND PUSH1 0x0 SWAP1 DUP2 MSTORE PUSH1 0x77 PUSH1 0x20 MSTORE PUSH1 0x40 SWAP1 KECCAK256 SLOAD DUP2 SWAP1 PUSH2 0x32E7 SWAP1 DUP5 SWAP1 PUSH2 0x5693 JUMP JUMPDEST LT PUSH2 0x330C JUMPI PUSH1 0x1 PUSH1 0x1 PUSH1 0xA0 SHL SUB DUP4 AND PUSH1 0x0 SWAP1 DUP2 MSTORE PUSH1 0x77 PUSH1 0x20 MSTORE PUSH1 0x40 SWAP1 KECCAK256 TIMESTAMP PUSH1 0x1 SWAP1 SWAP2 ADD SSTORE JUMPDEST PUSH1 0x40 DUP1 MLOAD PUSH1 0x60 DUP2 ADD DUP3 MSTORE PUSH1 0x1 PUSH1 0x1 PUSH1 0xA0 SHL SUB DUP6 AND PUSH1 0x0 SWAP1 DUP2 MSTORE PUSH1 0x77 PUSH1 0x20 MSTORE SWAP2 SWAP1 SWAP2 KECCAK256 SLOAD DUP2 SWAP1 PUSH2 0x333C SWAP1 DUP6 SWAP1 PUSH2 0x5693 JUMP JUMPDEST DUP2 MSTORE PUSH1 0x1 PUSH1 0x1 PUSH1 0xA0 SHL SUB DUP6 DUP2 AND PUSH1 0x0 DUP2 DUP2 MSTORE PUSH1 0x77 PUSH1 0x20 DUP2 DUP2 MSTORE PUSH1 0x40 DUP1 DUP5 KECCAK256 PUSH1 0x1 DUP2 ADD DUP1 SLOAD DUP5 DUP11 ADD MSTORE SWAP8 DUP3 ADD DUP7 SWAP1 MSTORE SWAP4 DUP6 SWAP1 MSTORE SWAP2 DUP2 MSTORE DUP7 MLOAD DUP4 SSTORE DUP7 DUP2 ADD MLOAD SWAP1 SWAP6 SSTORE SWAP5 DUP6 ADD MLOAD PUSH1 0x2 SWAP1 SWAP2 ADD DUP1 SLOAD PUSH1 0x1 PUSH1 0x1 PUSH1 0xA0 SHL SUB NOT AND SWAP2 SWAP1 SWAP4 AND OR SWAP1 SWAP2 SSTORE SWAP2 MLOAD DUP5 DUP2 MSTORE CALLER SWAP2 PUSH32 0x8D4844488C19A90828439E71D14EBAD860806D04F8EF8B25A82179FAB2699B89 SWAP2 ADD JUMPDEST PUSH1 0x40 MLOAD DUP1 SWAP2 SUB SWAP1 LOG3 POP POP POP JUMP JUMPDEST PUSH2 0x33D9 PUSH2 0x3BD5 JUMP JUMPDEST PUSH1 0x0 DUP3 DUP2 MSTORE PUSH1 0x76 PUSH1 0x20 MSTORE PUSH1 0x40 SWAP1 KECCAK256 PUSH1 0x1 ADD SLOAD PUSH1 0x1 PUSH1 0x1 PUSH1 0xA0 SHL SUB AND PUSH2 0x3410 JUMPI PUSH1 0x40 MLOAD PUSH3 0x461BCD PUSH1 0xE5 SHL DUP2 MSTORE PUSH1 0x4 ADD PUSH2 0xB5A SWAP1 PUSH2 0x56A6 JUMP JUMPDEST PUSH1 0x0 DUP3 DUP2 MSTORE PUSH1 0x76 PUSH1 0x20 MSTORE PUSH1 0x40 SWAP1 DUP2 SWAP1 KECCAK256 PUSH1 0x2 ADD DUP3 SWAP1 SSTORE MLOAD DUP3 SWAP1 PUSH32 0x321E8A918B4C47BF3677852C070983825F30A47BC8D9416691454FA6A727D63 SWAP1 PUSH2 0x3458 SWAP1 DUP5 DUP2 MSTORE PUSH1 0x20 ADD SWAP1 JUMP JUMPDEST PUSH1 0x40 MLOAD DUP1 SWAP2 SUB SWAP1 LOG2 POP POP JUMP JUMPDEST PUSH1 0x0 DUP2 PUSH1 0x0 SUB PUSH2 0x347D JUMPI POP PUSH8 0xDE0B6B3A7640000 PUSH2 0x14D2 JUMP JUMPDEST PUSH8 0xDE0B6B3A7640000 PUSH10 0x7F0E10AF47C1C7000000 PUSH2 0x349B DUP6 DUP6 PUSH2 0x13AC JUMP JUMPDEST PUSH8 0xDE0B6B3A7640000 PUSH2 0x34B8 DUP7 PUSH10 0x7F0E10AF47C1C7000000 PUSH2 0x55FB JUMP JUMPDEST PUSH2 0x34C2 SWAP2 SWAP1 PUSH2 0x560E JUMP JUMPDEST PUSH2 0x34CC SWAP2 SWAP1 PUSH2 0x560E JUMP JUMPDEST PUSH2 0x34D6 SWAP2 SWAP1 PUSH2 0x563B JUMP JUMPDEST PUSH2 0x1210 SWAP2 SWAP1 PUSH2 0x563B JUMP JUMPDEST PUSH2 0x34E8 PUSH2 0x3BD5 JUMP JUMPDEST PUSH1 0x74 DUP2 SWAP1 SSTORE PUSH1 0x40 MLOAD DUP2 SWAP1 PUSH32 0xDB340415B83E58BAB317964518D523BAABCC1571DE3B5D8FE6EBD52C704D31A9 SWAP1 PUSH1 0x0 SWAP1 LOG2 POP JUMP JUMPDEST PUSH1 0x67 SLOAD PUSH1 0x1 PUSH1 0xA0 SHL SWAP1 DIV PUSH1 0xFF AND ISZERO PUSH2 0x3545 JUMPI PUSH1 0x40 MLOAD PUSH3 0x461BCD PUSH1 0xE5 SHL DUP2 MSTORE PUSH1 0x4 ADD PUSH2 0xB5A SWAP1 PUSH2 0x55C5 JUMP JUMPDEST PUSH1 0x65 SLOAD PUSH1 0x66 SLOAD PUSH1 0x68 SLOAD PUSH1 0x40 MLOAD PUSH4 0xA9059CBB PUSH1 0xE0 SHL DUP2 MSTORE PUSH1 0x1 PUSH1 0x1 PUSH1 0xA0 SHL SUB SWAP4 DUP5 AND SWAP4 PUSH4 0xA9059CBB SWAP4 PUSH2 0x357C SWAP4 SWAP2 AND SWAP2 PUSH1 0x4 ADD PUSH2 0x565D JUMP JUMPDEST PUSH1 0x20 PUSH1 0x40 MLOAD DUP1 DUP4 SUB DUP2 PUSH1 0x0 DUP8 GAS CALL ISZERO DUP1 ISZERO PUSH2 0x359B JUMPI RETURNDATASIZE PUSH1 0x0 DUP1 RETURNDATACOPY RETURNDATASIZE PUSH1 0x0 REVERT JUMPDEST POP POP POP POP PUSH1 0x40 MLOAD RETURNDATASIZE PUSH1 0x1F NOT PUSH1 0x1F DUP3 ADD AND DUP3 ADD DUP1 PUSH1 0x40 MSTORE POP DUP2 ADD SWAP1 PUSH2 0x35BF SWAP2 SWAP1 PUSH2 0x5676 JUMP JUMPDEST POP PUSH1 0x0 PUSH1 0x68 SSTORE JUMP JUMPDEST PUSH2 0x35CF PUSH2 0x3BD5 JUMP JUMPDEST PUSH1 0x73 DUP2 SWAP1 SSTORE PUSH1 0x40 MLOAD DUP2 SWAP1 PUSH32 0x3A559DCE5761B4B2E6099B6DC8D51F7EB190932DC5797D8090DAF1A42CD58E7D SWAP1 PUSH1 0x0 SWAP1 LOG2 POP JUMP JUMPDEST PUSH2 0x360A PUSH2 0x3BD5 JUMP JUMPDEST PUSH1 0x75 DUP2 SWAP1 SSTORE PUSH1 0x40 MLOAD DUP2 SWAP1 PUSH32 0x7BF73D8C24113D60E7DE7E92AE237284CF5A6F8DFE31E8EEE1C6D9C8890E13C9 SWAP1 PUSH1 0x0 SWAP1 LOG2 POP JUMP JUMPDEST PUSH1 0x67 SLOAD PUSH1 0x1 PUSH1 0xA0 SHL SWAP1 DIV PUSH1 0xFF AND ISZERO PUSH2 0x3667 JUMPI PUSH1 0x40 MLOAD PUSH3 0x461BCD PUSH1 0xE5 SHL DUP2 MSTORE PUSH1 0x4 ADD PUSH2 0xB5A SWAP1 PUSH2 0x55C5 JUMP JUMPDEST CALLER PUSH1 0x0 SWAP1 DUP2 MSTORE PUSH1 0x79 PUSH1 0x20 SWAP1 DUP2 MSTORE PUSH1 0x40 DUP1 DUP4 KECCAK256 DUP5 DUP5 MSTORE DUP3 MSTORE SWAP2 DUP3 SWAP1 KECCAK256 DUP3 MLOAD DUP1 DUP5 ADD SWAP1 SWAP4 MSTORE DUP1 SLOAD DUP1 DUP5 MSTORE PUSH1 0x1 SWAP1 SWAP2 ADD SLOAD SWAP2 DUP4 ADD SWAP2 SWAP1 SWAP2 MSTORE PUSH2 0x36DC JUMPI PUSH1 0x40 MLOAD PUSH3 0x461BCD PUSH1 0xE5 SHL DUP2 MSTORE PUSH1 0x20 PUSH1 0x4 DUP3 ADD MSTORE PUSH1 0x11 PUSH1 0x24 DUP3 ADD MSTORE PUSH17 0x1C995C5D595CDD081B9BDD08195E1A5CDD PUSH1 0x7A SHL PUSH1 0x44 DUP3 ADD MSTORE PUSH1 0x64 ADD PUSH2 0xB5A JUMP JUMPDEST PUSH1 0x20 DUP1 DUP3 ADD MLOAD CALLER PUSH1 0x0 SWAP1 DUP2 MSTORE PUSH1 0x7A SWAP1 SWAP3 MSTORE PUSH1 0x40 DUP3 KECCAK256 DUP1 SLOAD SWAP2 SWAP3 SWAP1 SWAP2 PUSH2 0x3702 SWAP1 DUP5 SWAP1 PUSH2 0x55FB JUMP JUMPDEST SWAP1 SWAP2 SSTORE POP POP CALLER PUSH1 0x0 DUP2 DUP2 MSTORE PUSH1 0x79 PUSH1 0x20 SWAP1 DUP2 MSTORE PUSH1 0x40 DUP1 DUP4 KECCAK256 DUP7 DUP5 MSTORE SWAP1 SWAP2 MSTORE DUP1 DUP3 KECCAK256 DUP3 DUP2 SSTORE PUSH1 0x1 ADD DUP3 SWAP1 SSTORE MLOAD DUP5 SWAP3 SWAP2 PUSH32 0xF9D5CFCDFE9803069225971BA315F4302ADD9B477C3441CC363BC38FDB065B90 SWAP2 LOG3 POP POP JUMP JUMPDEST PUSH1 0x0 PUSH4 0xBBF81E00 DUP3 GT ISZERO PUSH2 0x3775 JUMPI POP PUSH10 0x7F0E10AF47C1C7000000 SWAP2 SWAP1 POP JUMP JUMPDEST PUSH1 0x0 PUSH2 0x3790 PUSH2 0x14B4 PUSH2 0x378B DUP6 PUSH4 0x1E13380 PUSH2 0x4367 JUMP JUMPDEST PUSH2 0x437F JUMP JUMPDEST SWAP1 POP PUSH8 0xDE0B6B3A7640000 DUP2 PUSH2 0x37B0 PUSH10 0x7F0E10AF47C1C7000000 DUP4 PUSH2 0x560E JUMP JUMPDEST PUSH2 0x37C2 SWAP1 PUSH8 0xDE0B6B3A7640000 PUSH2 0x560E JUMP JUMPDEST PUSH2 0x37CC SWAP2 SWAP1 PUSH2 0x563B JUMP JUMPDEST PUSH2 0x37D6 SWAP2 SWAP1 PUSH2 0x563B JUMP JUMPDEST PUSH2 0x1210 SWAP1 PUSH10 0x7F0E10AF47C1C7000000 PUSH2 0x55FB JUMP JUMPDEST PUSH1 0x81 PUSH1 0x20 MSTORE DUP2 PUSH1 0x0 MSTORE PUSH1 0x40 PUSH1 0x0 KECCAK256 DUP2 DUP2 SLOAD DUP2 LT PUSH2 0x1616 JUMPI PUSH1 0x0 DUP1 REVERT JUMPDEST PUSH2 0x380E PUSH2 0x3BD5 JUMP JUMPDEST PUSH1 0x66 DUP1 SLOAD PUSH1 0x1 PUSH1 0x1 PUSH1 0xA0 SHL SUB NOT AND PUSH1 0x1 PUSH1 0x1 PUSH1 0xA0 SHL SUB DUP4 AND SWAP1 DUP2 OR SWAP1 SWAP2 SSTORE PUSH1 0x40 MLOAD PUSH32 0x6BDB9CEFF405D990C9B60BE9F719FBB80889D5F064E8FD76EFD5BEA353E90712 SWAP1 PUSH1 0x0 SWAP1 LOG2 POP JUMP JUMPDEST PUSH1 0x76 PUSH1 0x20 MSTORE PUSH1 0x0 SWAP1 DUP2 MSTORE PUSH1 0x40 SWAP1 KECCAK256 DUP1 SLOAD PUSH1 0x1 DUP3 ADD SLOAD PUSH1 0x2 DUP4 ADD SLOAD PUSH1 0x3 DUP5 ADD DUP1 SLOAD SWAP4 SWAP5 PUSH1 0x1 PUSH1 0x1 PUSH1 0xA0 SHL SUB SWAP1 SWAP4 AND SWAP4 SWAP2 SWAP3 SWAP2 PUSH2 0x23AB SWAP1 PUSH2 0x56D4 JUMP JUMPDEST PUSH1 0x7B PUSH1 0x20 MSTORE PUSH1 0x0 SWAP1 DUP2 MSTORE PUSH1 0x40 SWAP1 KECCAK256 DUP1 SLOAD PUSH1 0x1 DUP3 ADD SLOAD PUSH1 0x2 DUP4 ADD SLOAD PUSH1 0x3 DUP5 ADD DUP1 SLOAD SWAP4 SWAP5 SWAP3 SWAP4 PUSH1 0x1 PUSH1 0x1 PUSH1 0xA0 SHL SUB DUP4 AND SWAP4 PUSH1 0x1 PUSH1 0xA0 SHL DUP5 DIV PUSH1 0x1 PUSH1 0x1 PUSH1 0x40 SHL SUB AND SWAP4 PUSH1 0x1 PUSH1 0xE0 SHL SWAP1 DIV PUSH1 0xFF AND SWAP3 SWAP1 SWAP2 PUSH2 0x38E8 SWAP1 PUSH2 0x56D4 JUMP JUMPDEST DUP1 PUSH1 0x1F ADD PUSH1 0x20 DUP1 SWAP2 DIV MUL PUSH1 0x20 ADD PUSH1 0x40 MLOAD SWAP1 DUP2 ADD PUSH1 0x40 MSTORE DUP1 SWAP3 SWAP2 SWAP1 DUP2 DUP2 MSTORE PUSH1 0x20 ADD DUP3 DUP1 SLOAD PUSH2 0x3914 SWAP1 PUSH2 0x56D4 JUMP JUMPDEST DUP1 ISZERO PUSH2 0x3961 JUMPI DUP1 PUSH1 0x1F LT PUSH2 0x3936 JUMPI PUSH2 0x100 DUP1 DUP4 SLOAD DIV MUL DUP4 MSTORE SWAP2 PUSH1 0x20 ADD SWAP2 PUSH2 0x3961 JUMP JUMPDEST DUP3 ADD SWAP2 SWAP1 PUSH1 0x0 MSTORE PUSH1 0x20 PUSH1 0x0 KECCAK256 SWAP1 JUMPDEST DUP2 SLOAD DUP2 MSTORE SWAP1 PUSH1 0x1 ADD SWAP1 PUSH1 0x20 ADD DUP1 DUP4 GT PUSH2 0x3944 JUMPI DUP3 SWAP1 SUB PUSH1 0x1F AND DUP3 ADD SWAP2 JUMPDEST POP POP POP POP POP SWAP1 POP DUP7 JUMP JUMPDEST PUSH2 0x3973 PUSH2 0x3BD5 JUMP JUMPDEST PUSH2 0x28DA DUP2 PUSH2 0x43D5 JUMP JUMPDEST PUSH1 0x60 PUSH3 0x10000 DUP3 GT ISZERO PUSH2 0x39D1 JUMPI PUSH1 0x40 MLOAD PUSH3 0x461BCD PUSH1 0xE5 SHL DUP2 MSTORE PUSH1 0x20 PUSH1 0x4 DUP3 ADD MSTORE PUSH1 0x1F PUSH1 0x24 DUP3 ADD MSTORE PUSH32 0x4D617820636F6E74656E742073697A6520697320363535333620627974657300 PUSH1 0x44 DUP3 ADD MSTORE PUSH1 0x64 ADD PUSH2 0xB5A JUMP JUMPDEST PUSH1 0x0 PUSH2 0x39DC DUP4 PUSH2 0x444B JUMP JUMPDEST SWAP1 POP PUSH1 0x0 DUP2 DUP6 DUP6 DUP5 PUSH1 0x40 MLOAD PUSH1 0x20 ADD PUSH2 0x39F7 SWAP5 SWAP4 SWAP3 SWAP2 SWAP1 PUSH2 0x597B JUMP JUMPDEST PUSH1 0x40 MLOAD PUSH1 0x20 DUP2 DUP4 SUB SUB DUP2 MSTORE SWAP1 PUSH1 0x40 MSTORE SWAP1 POP PUSH1 0x2 PUSH2 0x3A14 DUP3 MLOAD PUSH2 0x444B JUMP JUMPDEST DUP3 PUSH1 0x40 MLOAD PUSH1 0x20 ADD PUSH2 0x3A26 SWAP3 SWAP2 SWAP1 PUSH2 0x59D2 JUMP JUMPDEST PUSH1 0x40 DUP1 MLOAD PUSH1 0x1F NOT DUP2 DUP5 SUB ADD DUP2 MSTORE SWAP1 DUP3 SWAP1 MSTORE PUSH2 0x3A40 SWAP2 PUSH2 0x5A12 JUMP JUMPDEST PUSH1 0x20 PUSH1 0x40 MLOAD DUP1 DUP4 SUB DUP2 DUP6 GAS STATICCALL ISZERO DUP1 ISZERO PUSH2 0x3A5D JUMPI RETURNDATASIZE PUSH1 0x0 DUP1 RETURNDATACOPY RETURNDATASIZE PUSH1 0x0 REVERT JUMPDEST POP POP POP PUSH1 0x40 MLOAD RETURNDATASIZE PUSH1 0x1F NOT PUSH1 0x1F DUP3 ADD AND DUP3 ADD DUP1 PUSH1 0x40 MSTORE POP DUP2 ADD SWAP1 PUSH2 0x3A80 SWAP2 SWAP1 PUSH2 0x58F2 JUMP JUMPDEST PUSH1 0x40 MLOAD PUSH1 0x91 PUSH1 0xF5 SHL PUSH1 0x20 DUP3 ADD MSTORE PUSH1 0x22 DUP2 ADD SWAP2 SWAP1 SWAP2 MSTORE PUSH1 0x42 ADD PUSH1 0x40 MLOAD PUSH1 0x20 DUP2 DUP4 SUB SUB DUP2 MSTORE SWAP1 PUSH1 0x40 MSTORE SWAP3 POP POP POP SWAP3 SWAP2 POP POP JUMP JUMPDEST PUSH1 0x0 DUP4 DUP2 MSTORE PUSH1 0x7F PUSH1 0x20 SWAP1 DUP2 MSTORE PUSH1 0x40 DUP1 DUP4 KECCAK256 PUSH1 0x1 PUSH1 0x1 PUSH1 0xA0 SHL SUB DUP6 AND DUP5 MSTORE SWAP1 SWAP2 MSTORE SWAP1 KECCAK256 DUP1 SLOAD PUSH1 0xFF NOT AND PUSH1 0x1 OR SWAP1 SSTORE DUP2 ISZERO PUSH2 0x3B20 JUMPI PUSH1 0x0 DUP4 DUP2 MSTORE PUSH1 0x81 PUSH1 0x20 SWAP1 DUP2 MSTORE PUSH1 0x40 DUP3 KECCAK256 DUP1 SLOAD PUSH1 0x1 DUP2 ADD DUP3 SSTORE SWAP1 DUP4 MSTORE SWAP2 KECCAK256 ADD DUP1 SLOAD PUSH1 0x1 PUSH1 0x1 PUSH1 0xA0 SHL SUB NOT AND PUSH1 0x1 PUSH1 0x1 PUSH1 0xA0 SHL SUB DUP4 AND OR SWAP1 SSTORE PUSH2 0x3B58 JUMP JUMPDEST PUSH1 0x0 DUP4 DUP2 MSTORE PUSH1 0x82 PUSH1 0x20 SWAP1 DUP2 MSTORE PUSH1 0x40 DUP3 KECCAK256 DUP1 SLOAD PUSH1 0x1 DUP2 ADD DUP3 SSTORE SWAP1 DUP4 MSTORE SWAP2 KECCAK256 ADD DUP1 SLOAD PUSH1 0x1 PUSH1 0x1 PUSH1 0xA0 SHL SUB NOT AND PUSH1 0x1 PUSH1 0x1 PUSH1 0xA0 SHL SUB DUP4 AND OR SWAP1 SSTORE JUMPDEST PUSH1 0x0 DUP4 DUP2 MSTORE PUSH1 0x7E PUSH1 0x20 SWAP1 DUP2 MSTORE PUSH1 0x40 DUP1 DUP4 KECCAK256 PUSH1 0x1 ADD SLOAD PUSH1 0x1 PUSH1 0x1 PUSH1 0xA0 SHL SUB DUP6 AND DUP5 MSTORE PUSH1 0x77 SWAP1 SWAP3 MSTORE DUP3 KECCAK256 DUP1 SLOAD SWAP2 SWAP3 SWAP1 SWAP2 PUSH2 0x3B91 SWAP1 DUP5 SWAP1 PUSH2 0x55FB JUMP JUMPDEST SWAP1 SWAP2 SSTORE POP POP PUSH1 0x40 MLOAD DUP3 ISZERO ISZERO DUP2 MSTORE DUP4 SWAP1 PUSH1 0x1 PUSH1 0x1 PUSH1 0xA0 SHL SUB DUP4 AND SWAP1 PUSH32 0x1AA9E4BE46E24E1F2E7EEB1613C01629213CD42965D2716E18531B63E552E411 SWAP1 PUSH1 0x20 ADD PUSH2 0x33C4 JUMP JUMPDEST PUSH1 0x33 SLOAD PUSH1 0x1 PUSH1 0x1 PUSH1 0xA0 SHL SUB AND CALLER EQ PUSH2 0x2361 JUMPI PUSH1 0x40 MLOAD PUSH3 0x461BCD PUSH1 0xE5 SHL DUP2 MSTORE PUSH1 0x20 PUSH1 0x4 DUP3 ADD DUP2 SWAP1 MSTORE PUSH1 0x24 DUP3 ADD MSTORE PUSH32 0x4F776E61626C653A2063616C6C6572206973206E6F7420746865206F776E6572 PUSH1 0x44 DUP3 ADD MSTORE PUSH1 0x64 ADD PUSH2 0xB5A JUMP JUMPDEST PUSH1 0x0 DUP3 DUP3 PUSH1 0x1 PUSH1 0xFF SHL DUP3 EQ DUP1 PUSH2 0x3C48 JUMPI POP PUSH1 0x1 PUSH1 0xFF SHL DUP2 EQ JUMPDEST ISZERO PUSH2 0x3C66 JUMPI PUSH1 0x40 MLOAD PUSH4 0x9FE2B45 PUSH1 0xE4 SHL DUP2 MSTORE PUSH1 0x4 ADD PUSH1 0x40 MLOAD DUP1 SWAP2 SUB SWAP1 REVERT JUMPDEST PUSH1 0x0 DUP1 PUSH1 0x0 DUP5 SLT PUSH2 0x3C77 JUMPI DUP4 PUSH2 0x3C7C JUMP JUMPDEST DUP4 PUSH1 0x0 SUB JUMPDEST SWAP2 POP PUSH1 0x0 DUP4 SLT PUSH2 0x3C8C JUMPI DUP3 PUSH2 0x3C91 JUMP JUMPDEST DUP3 PUSH1 0x0 SUB JUMPDEST SWAP1 POP PUSH1 0x0 PUSH2 0x3CA8 DUP4 PUSH8 0xDE0B6B3A7640000 DUP5 PUSH2 0x45A2 JUMP JUMPDEST SWAP1 POP PUSH1 0x1 PUSH1 0x1 PUSH1 0xFF SHL SUB DUP2 GT ISZERO PUSH2 0x3CDC JUMPI PUSH1 0x40 MLOAD PUSH4 0xD49C26B3 PUSH1 0xE0 SHL DUP2 MSTORE PUSH1 0x4 DUP2 ADD DUP10 SWAP1 MSTORE PUSH1 0x24 DUP2 ADD DUP9 SWAP1 MSTORE PUSH1 0x44 ADD PUSH2 0xB5A JUMP JUMPDEST PUSH1 0x0 NOT DUP6 DUP6 XOR SGT PUSH2 0x3CF8 DUP2 PUSH2 0x3CF4 JUMPI DUP3 PUSH1 0x0 SUB PUSH2 0x14B4 JUMP JUMPDEST DUP3 SWAP1 JUMP JUMPDEST SWAP10 SWAP9 POP POP POP POP POP POP POP POP POP JUMP JUMPDEST PUSH1 0x0 PUSH2 0x1210 PUSH2 0x14B4 DUP4 DUP6 PUSH2 0x5A2E JUMP JUMPDEST PUSH1 0x0 DUP3 DUP3 PUSH1 0x1 PUSH1 0xFF SHL DUP3 EQ DUP1 PUSH2 0x3D2D JUMPI POP PUSH1 0x1 PUSH1 0xFF SHL DUP2 EQ JUMPDEST ISZERO PUSH2 0x3D4B JUMPI PUSH1 0x40 MLOAD PUSH4 0xA6070C25 PUSH1 0xE0 SHL DUP2 MSTORE PUSH1 0x4 ADD PUSH1 0x40 MLOAD DUP1 SWAP2 SUB SWAP1 REVERT JUMPDEST PUSH1 0x0 DUP1 PUSH1 0x0 DUP5 SLT PUSH2 0x3D5C JUMPI DUP4 PUSH2 0x3D61 JUMP JUMPDEST DUP4 PUSH1 0x0 SUB JUMPDEST SWAP2 POP PUSH1 0x0 DUP4 SLT PUSH2 0x3D71 JUMPI DUP3 PUSH2 0x3D76 JUMP JUMPDEST DUP3 PUSH1 0x0 SUB JUMPDEST SWAP1 POP PUSH1 0x0 PUSH2 0x3D84 DUP4 DUP4 PUSH2 0x4676 JUMP JUMPDEST SWAP1 POP PUSH1 0x1 PUSH1 0x1 PUSH1 0xFF SHL SUB DUP2 GT ISZERO PUSH2 0x3CDC JUMPI PUSH1 0x40 MLOAD PUSH4 0x120B5B43 PUSH1 0xE0 SHL DUP2 MSTORE PUSH1 0x4 DUP2 ADD DUP10 SWAP1 MSTORE PUSH1 0x24 DUP2 ADD DUP9 SWAP1 MSTORE PUSH1 0x44 ADD PUSH2 0xB5A JUMP JUMPDEST PUSH1 0x0 PUSH2 0x1210 PUSH2 0x14B4 DUP4 DUP6 PUSH2 0x5A4E JUMP JUMPDEST PUSH1 0x0 DUP2 PUSH1 0x1 PUSH1 0xFF SHL DUP2 ADD PUSH2 0x3DEE JUMPI PUSH1 0x40 MLOAD PUSH4 0xEC2B9E67 PUSH1 0xE0 SHL DUP2 MSTORE PUSH1 0x4 ADD PUSH1 0x40 MLOAD DUP1 SWAP2 SUB SWAP1 REVERT JUMPDEST PUSH1 0x0 DUP2 SLT PUSH2 0x3DFC JUMPI DUP3 PUSH2 0x1210 JUMP JUMPDEST PUSH2 0x1210 PUSH2 0x14B4 DUP3 PUSH2 0x5A76 JUMP JUMPDEST PUSH1 0x0 DUP2 DUP2 DUP2 SLT ISZERO PUSH2 0x3E69 JUMPI PUSH9 0x33DD1780914B97114 NOT DUP2 SLT ISZERO PUSH2 0x3E2E JUMPI POP PUSH1 0x0 SWAP3 SWAP2 POP POP JUMP JUMPDEST PUSH2 0x3E62 PUSH2 0x3E41 PUSH2 0x14B4 PUSH2 0x14AF DUP5 PUSH1 0x0 SUB SWAP1 JUMP JUMPDEST PUSH15 0xC097CE7BC90715B34B9F1000000000 DUP2 PUSH2 0x3E5E JUMPI PUSH2 0x3E5E PUSH2 0x5625 JUMP JUMPDEST SDIV SWAP1 JUMP JUMPDEST SWAP2 POP PUSH2 0x3EB4 JUMP JUMPDEST PUSH9 0xA688906BD8AFFFFFF DUP2 SGT ISZERO PUSH2 0x3E95 JUMPI PUSH1 0x40 MLOAD PUSH3 0x6C1A05 PUSH1 0xE3 SHL DUP2 MSTORE PUSH1 0x4 DUP2 ADD DUP5 SWAP1 MSTORE PUSH1 0x24 ADD PUSH2 0xB5A JUMP JUMPDEST PUSH8 0xDE0B6B3A7640000 PUSH1 0x40 DUP3 SWAP1 SHL SDIV PUSH2 0x3EB0 PUSH2 0x14B4 DUP3 PUSH2 0x472C JUMP JUMPDEST SWAP3 POP POP JUMPDEST POP SWAP2 SWAP1 POP JUMP JUMPDEST PUSH1 0x0 SLOAD PUSH2 0x100 SWAP1 DIV PUSH1 0xFF AND PUSH2 0x3EE1 JUMPI PUSH1 0x40 MLOAD PUSH3 0x461BCD PUSH1 0xE5 SHL DUP2 MSTORE PUSH1 0x4 ADD PUSH2 0xB5A SWAP1 PUSH2 0x5A92 JUMP JUMPDEST PUSH2 0x2361 PUSH2 0x4E8C JUMP JUMPDEST PUSH1 0x0 CHAINID PUSH2 0xA4BA DUP2 EQ DUP1 PUSH2 0x3EFE JUMPI POP PUSH3 0x66EED DUP2 EQ JUMPDEST DUP1 PUSH2 0x3F0B JUMPI POP PUSH3 0x66EEE DUP2 EQ JUMPDEST ISZERO PUSH2 0x3F73 JUMPI PUSH1 0x64 PUSH1 0x1 PUSH1 0x1 PUSH1 0xA0 SHL SUB AND PUSH4 0xA3B1B31D PUSH1 0x40 MLOAD DUP2 PUSH4 0xFFFFFFFF AND PUSH1 0xE0 SHL DUP2 MSTORE PUSH1 0x4 ADD PUSH1 0x20 PUSH1 0x40 MLOAD DUP1 DUP4 SUB DUP2 DUP7 GAS STATICCALL ISZERO DUP1 ISZERO PUSH2 0x3F4F JUMPI RETURNDATASIZE PUSH1 0x0 DUP1 RETURNDATACOPY RETURNDATASIZE PUSH1 0x0 REVERT JUMPDEST POP POP POP POP PUSH1 0x40 MLOAD RETURNDATASIZE PUSH1 0x1F NOT PUSH1 0x1F DUP3 ADD AND DUP3 ADD DUP1 PUSH1 0x40 MSTORE POP DUP2 ADD SWAP1 PUSH2 0x157E SWAP2 SWAP1 PUSH2 0x58F2 JUMP JUMPDEST NUMBER SWAP2 POP POP SWAP1 JUMP JUMPDEST PUSH1 0x33 DUP1 SLOAD PUSH1 0x1 PUSH1 0x1 PUSH1 0xA0 SHL SUB DUP4 DUP2 AND PUSH1 0x1 PUSH1 0x1 PUSH1 0xA0 SHL SUB NOT DUP4 AND DUP2 OR SWAP1 SWAP4 SSTORE PUSH1 0x40 MLOAD SWAP2 AND SWAP2 SWAP1 DUP3 SWAP1 PUSH32 0x8BE0079C531659141344CD1FD0A4F28419497F9722A3DAAFE3B4186F6B6457E0 SWAP1 PUSH1 0x0 SWAP1 LOG3 POP POP JUMP JUMPDEST PUSH1 0x0 DUP2 DUP2 MSTORE PUSH1 0x7B PUSH1 0x20 DUP2 DUP2 MSTORE PUSH1 0x40 DUP1 DUP5 KECCAK256 DUP1 SLOAD DUP6 MSTORE PUSH1 0x76 DUP4 MSTORE SWAP1 DUP5 KECCAK256 SLOAD SWAP4 DUP6 SWAP1 MSTORE SWAP2 SWAP1 MSTORE PUSH1 0x1 ADD SLOAD DUP2 GT ISZERO PUSH2 0x3FFF JUMPI POP PUSH1 0x0 JUMPDEST DUP1 ISZERO PUSH2 0x409D JUMPI PUSH1 0x65 SLOAD PUSH1 0x0 DUP4 DUP2 MSTORE PUSH1 0x7B PUSH1 0x20 SWAP1 DUP2 MSTORE PUSH1 0x40 DUP1 DUP4 KECCAK256 SLOAD DUP4 MSTORE PUSH1 0x76 SWAP1 SWAP2 MSTORE SWAP1 DUP2 SWAP1 KECCAK256 PUSH1 0x1 ADD SLOAD SWAP1 MLOAD PUSH4 0xA9059CBB PUSH1 0xE0 SHL DUP2 MSTORE PUSH1 0x1 PUSH1 0x1 PUSH1 0xA0 SHL SUB SWAP3 DUP4 AND SWAP3 PUSH4 0xA9059CBB SWAP3 PUSH2 0x4058 SWAP3 SWAP2 AND SWAP1 DUP6 SWAP1 PUSH1 0x4 ADD PUSH2 0x565D JUMP JUMPDEST PUSH1 0x20 PUSH1 0x40 MLOAD DUP1 DUP4 SUB DUP2 PUSH1 0x0 DUP8 GAS CALL ISZERO DUP1 ISZERO PUSH2 0x4077 JUMPI RETURNDATASIZE PUSH1 0x0 DUP1 RETURNDATACOPY RETURNDATASIZE PUSH1 0x0 REVERT JUMPDEST POP POP POP POP PUSH1 0x40 MLOAD RETURNDATASIZE PUSH1 0x1F NOT PUSH1 0x1F DUP3 ADD AND DUP3 ADD DUP1 PUSH1 0x40 MSTORE POP DUP2 ADD SWAP1 PUSH2 0x409B SWAP2 SWAP1 PUSH2 0x5676 JUMP JUMPDEST POP JUMPDEST PUSH1 0x0 DUP3 DUP2 MSTORE PUSH1 0x7B PUSH1 0x20 MSTORE PUSH1 0x40 DUP2 KECCAK256 PUSH1 0x1 ADD SLOAD PUSH2 0x40BA SWAP1 DUP4 SWAP1 PUSH2 0x55FB JUMP JUMPDEST SWAP1 POP PUSH1 0x0 PUSH8 0xDE0B6B3A7640000 PUSH1 0x6E SLOAD PUSH8 0xDE0B6B3A7640000 PUSH2 0x40DD SWAP2 SWAP1 PUSH2 0x55FB JUMP JUMPDEST PUSH2 0x40E7 SWAP1 DUP5 PUSH2 0x560E JUMP JUMPDEST PUSH2 0x40F1 SWAP2 SWAP1 PUSH2 0x563B JUMP JUMPDEST PUSH2 0x40FB SWAP1 DUP4 PUSH2 0x55FB JUMP JUMPDEST SWAP1 POP DUP1 PUSH1 0x68 PUSH1 0x0 DUP3 DUP3 SLOAD PUSH2 0x410F SWAP2 SWAP1 PUSH2 0x5693 JUMP JUMPDEST SWAP1 SWAP2 SSTORE POP PUSH1 0x0 SWAP1 POP PUSH2 0x4121 DUP3 DUP5 PUSH2 0x55FB JUMP JUMPDEST SWAP1 POP DUP1 ISZERO PUSH2 0x41BA JUMPI PUSH1 0x65 SLOAD PUSH1 0x0 DUP7 DUP2 MSTORE PUSH1 0x7D PUSH1 0x20 MSTORE PUSH1 0x40 SWAP1 KECCAK256 SLOAD PUSH1 0x1 PUSH1 0x1 PUSH1 0xA0 SHL SUB SWAP2 DUP3 AND SWAP2 PUSH4 0xA9059CBB SWAP2 AND PUSH2 0x4158 DUP6 DUP8 PUSH2 0x55FB JUMP JUMPDEST PUSH1 0x40 MLOAD DUP4 PUSH4 0xFFFFFFFF AND PUSH1 0xE0 SHL DUP2 MSTORE PUSH1 0x4 ADD PUSH2 0x4175 SWAP3 SWAP2 SWAP1 PUSH2 0x565D JUMP JUMPDEST PUSH1 0x20 PUSH1 0x40 MLOAD DUP1 DUP4 SUB DUP2 PUSH1 0x0 DUP8 GAS CALL ISZERO DUP1 ISZERO PUSH2 0x4194 JUMPI RETURNDATASIZE PUSH1 0x0 DUP1 RETURNDATACOPY RETURNDATASIZE PUSH1 0x0 REVERT JUMPDEST POP POP POP POP PUSH1 0x40 MLOAD RETURNDATASIZE PUSH1 0x1F NOT PUSH1 0x1F DUP3 ADD AND DUP3 ADD DUP1 PUSH1 0x40 MSTORE POP DUP2 ADD SWAP1 PUSH2 0x41B8 SWAP2 SWAP1 PUSH2 0x5676 JUMP JUMPDEST POP JUMPDEST PUSH1 0x0 DUP6 DUP2 MSTORE PUSH1 0x7B PUSH1 0x20 SWAP1 DUP2 MSTORE PUSH1 0x40 DUP1 DUP4 KECCAK256 SLOAD DUP4 MSTORE PUSH1 0x76 SWAP1 SWAP2 MSTORE SWAP1 KECCAK256 PUSH1 0x2 ADD SLOAD DUP1 ISZERO PUSH2 0x435F JUMPI PUSH1 0x0 PUSH8 0xDE0B6B3A7640000 DUP3 PUSH2 0x41F3 PUSH2 0x16A6 JUMP JUMPDEST PUSH2 0x41FD SWAP2 SWAP1 PUSH2 0x560E JUMP JUMPDEST PUSH2 0x4207 SWAP2 SWAP1 PUSH2 0x563B JUMP JUMPDEST SWAP1 POP DUP1 ISZERO PUSH2 0x435D JUMPI PUSH1 0x0 PUSH8 0xDE0B6B3A7640000 PUSH1 0x70 SLOAD PUSH8 0xDE0B6B3A7640000 PUSH2 0x4230 SWAP2 SWAP1 PUSH2 0x55FB JUMP JUMPDEST PUSH2 0x423A SWAP1 DUP5 PUSH2 0x560E JUMP JUMPDEST PUSH2 0x4244 SWAP2 SWAP1 PUSH2 0x563B JUMP JUMPDEST PUSH2 0x424E SWAP1 DUP4 PUSH2 0x55FB JUMP JUMPDEST PUSH1 0x65 SLOAD PUSH1 0x0 DUP11 DUP2 MSTORE PUSH1 0x7D PUSH1 0x20 MSTORE PUSH1 0x40 SWAP1 KECCAK256 SLOAD SWAP2 SWAP3 POP PUSH1 0x1 PUSH1 0x1 PUSH1 0xA0 SHL SUB SWAP1 DUP2 AND SWAP2 PUSH4 0xA9059CBB SWAP2 AND PUSH2 0x4280 DUP5 DUP7 PUSH2 0x55FB JUMP JUMPDEST PUSH1 0x40 MLOAD DUP4 PUSH4 0xFFFFFFFF AND PUSH1 0xE0 SHL DUP2 MSTORE PUSH1 0x4 ADD PUSH2 0x429D SWAP3 SWAP2 SWAP1 PUSH2 0x565D JUMP JUMPDEST PUSH1 0x20 PUSH1 0x40 MLOAD DUP1 DUP4 SUB DUP2 PUSH1 0x0 DUP8 GAS CALL ISZERO DUP1 ISZERO PUSH2 0x42BC JUMPI RETURNDATASIZE PUSH1 0x0 DUP1 RETURNDATACOPY RETURNDATASIZE PUSH1 0x0 REVERT JUMPDEST POP POP POP POP PUSH1 0x40 MLOAD RETURNDATASIZE PUSH1 0x1F NOT PUSH1 0x1F DUP3 ADD AND DUP3 ADD DUP1 PUSH1 0x40 MSTORE POP DUP2 ADD SWAP1 PUSH2 0x42E0 SWAP2 SWAP1 PUSH2 0x5676 JUMP JUMPDEST POP PUSH1 0x65 SLOAD PUSH1 0x66 SLOAD PUSH1 0x40 MLOAD PUSH4 0xA9059CBB PUSH1 0xE0 SHL DUP2 MSTORE PUSH1 0x1 PUSH1 0x1 PUSH1 0xA0 SHL SUB SWAP3 DUP4 AND SWAP3 PUSH4 0xA9059CBB SWAP3 PUSH2 0x4317 SWAP3 SWAP2 AND SWAP1 DUP6 SWAP1 PUSH1 0x4 ADD PUSH2 0x565D JUMP JUMPDEST PUSH1 0x20 PUSH1 0x40 MLOAD DUP1 DUP4 SUB DUP2 PUSH1 0x0 DUP8 GAS CALL ISZERO DUP1 ISZERO PUSH2 0x4336 JUMPI RETURNDATASIZE PUSH1 0x0 DUP1 RETURNDATACOPY RETURNDATASIZE PUSH1 0x0 REVERT JUMPDEST POP POP POP POP PUSH1 0x40 MLOAD RETURNDATASIZE PUSH1 0x1F NOT PUSH1 0x1F DUP3 ADD AND DUP3 ADD DUP1 PUSH1 0x40 MSTORE POP DUP2 ADD SWAP1 PUSH2 0x435A SWAP2 SWAP1 PUSH2 0x5676 JUMP JUMPDEST POP POP JUMPDEST POP JUMPDEST POP POP POP POP POP POP JUMP JUMPDEST PUSH1 0x0 PUSH2 0x1210 PUSH2 0x14B4 DUP5 PUSH8 0xDE0B6B3A7640000 DUP6 PUSH2 0x45A2 JUMP JUMPDEST PUSH1 0x0 DUP2 PUSH9 0xA688906BD8AFFFFFF DUP2 GT ISZERO PUSH2 0x43AF JUMPI PUSH1 0x40 MLOAD PUSH4 0xB3B6BA1F PUSH1 0xE0 SHL DUP2 MSTORE PUSH1 0x4 DUP2 ADD DUP5 SWAP1 MSTORE PUSH1 0x24 ADD PUSH2 0xB5A JUMP JUMPDEST PUSH1 0x0 PUSH2 0x43C7 PUSH8 0xDE0B6B3A7640000 PUSH1 0x40 DUP5 SWAP1 SHL PUSH2 0x563B JUMP JUMPDEST SWAP1 POP PUSH2 0x3EB0 PUSH2 0x14B4 DUP3 PUSH2 0x472C JUMP JUMPDEST PUSH2 0x43DD PUSH2 0x3BD5 JUMP JUMPDEST PUSH1 0x1 PUSH1 0x1 PUSH1 0xA0 SHL SUB DUP2 AND PUSH2 0x4442 JUMPI PUSH1 0x40 MLOAD PUSH3 0x461BCD PUSH1 0xE5 SHL DUP2 MSTORE PUSH1 0x20 PUSH1 0x4 DUP3 ADD MSTORE PUSH1 0x26 PUSH1 0x24 DUP3 ADD MSTORE PUSH32 0x4F776E61626C653A206E6577206F776E657220697320746865207A65726F2061 PUSH1 0x44 DUP3 ADD MSTORE PUSH6 0x646472657373 PUSH1 0xD0 SHL PUSH1 0x64 DUP3 ADD MSTORE PUSH1 0x84 ADD PUSH2 0xB5A JUMP JUMPDEST PUSH2 0x28DA DUP2 PUSH2 0x3F7A JUMP JUMPDEST PUSH1 0x60 DUP2 PUSH1 0x1 JUMPDEST PUSH1 0x7F DUP3 PUSH1 0x1 PUSH1 0x1 PUSH1 0x40 SHL SUB AND GT ISZERO PUSH2 0x4484 JUMPI PUSH1 0x7 DUP3 PUSH1 0x1 PUSH1 0x1 PUSH1 0x40 SHL SUB AND SWAP1 SHR SWAP2 POP DUP1 PUSH2 0x447D SWAP1 PUSH2 0x5ADD JUMP JUMPDEST SWAP1 POP PUSH2 0x4451 JUMP JUMPDEST PUSH1 0x0 DUP2 PUSH1 0x1 PUSH1 0x1 PUSH1 0x40 SHL SUB AND PUSH1 0x1 PUSH1 0x1 PUSH1 0x40 SHL SUB DUP2 GT ISZERO PUSH2 0x44A7 JUMPI PUSH2 0x44A7 PUSH2 0x5015 JUMP JUMPDEST PUSH1 0x40 MLOAD SWAP1 DUP1 DUP3 MSTORE DUP1 PUSH1 0x1F ADD PUSH1 0x1F NOT AND PUSH1 0x20 ADD DUP3 ADD PUSH1 0x40 MSTORE DUP1 ISZERO PUSH2 0x44D1 JUMPI PUSH1 0x20 DUP3 ADD DUP2 DUP1 CALLDATASIZE DUP4 CALLDATACOPY ADD SWAP1 POP JUMPDEST POP SWAP1 POP DUP5 SWAP3 POP PUSH1 0x0 JUMPDEST DUP3 PUSH1 0x1 PUSH1 0x1 PUSH1 0x40 SHL SUB AND DUP2 PUSH1 0x1 PUSH1 0x1 PUSH1 0x40 SHL SUB AND LT ISZERO PUSH2 0x4553 JUMPI DUP4 PUSH1 0x7F AND PUSH1 0x80 OR PUSH1 0xF8 SHL DUP3 DUP3 PUSH1 0x1 PUSH1 0x1 PUSH1 0x40 SHL SUB AND DUP2 MLOAD DUP2 LT PUSH2 0x4519 JUMPI PUSH2 0x4519 PUSH2 0x594C JUMP JUMPDEST PUSH1 0x20 ADD ADD SWAP1 PUSH1 0x1 PUSH1 0x1 PUSH1 0xF8 SHL SUB NOT AND SWAP1 DUP2 PUSH1 0x0 BYTE SWAP1 MSTORE8 POP PUSH1 0x7 DUP5 PUSH1 0x1 PUSH1 0x1 PUSH1 0x40 SHL SUB AND SWAP1 SHR SWAP4 POP DUP1 DUP1 PUSH2 0x454B SWAP1 PUSH2 0x5ADD JUMP JUMPDEST SWAP2 POP POP PUSH2 0x44DA JUMP JUMPDEST POP PUSH1 0x7F PUSH1 0xF8 SHL DUP2 PUSH2 0x4565 PUSH1 0x1 DUP6 PUSH2 0x5B03 JUMP JUMPDEST PUSH1 0x1 PUSH1 0x1 PUSH1 0x40 SHL SUB AND DUP2 MLOAD DUP2 LT PUSH2 0x457E JUMPI PUSH2 0x457E PUSH2 0x594C JUMP JUMPDEST ADD PUSH1 0x20 ADD DUP1 MLOAD SWAP1 SWAP2 AND PUSH1 0x1 PUSH1 0x1 PUSH1 0xF8 SHL SUB NOT AND SWAP1 PUSH1 0x0 DUP3 SWAP1 BYTE SWAP1 MSTORE8 POP SWAP5 SWAP4 POP POP POP POP JUMP JUMPDEST PUSH1 0x0 DUP1 DUP1 PUSH1 0x0 NOT DUP6 DUP8 MULMOD DUP6 DUP8 MUL SWAP3 POP DUP3 DUP2 LT DUP4 DUP3 SUB SUB SWAP2 POP POP DUP1 PUSH1 0x0 SUB PUSH2 0x45DC JUMPI DUP4 DUP3 DUP2 PUSH2 0x45D2 JUMPI PUSH2 0x45D2 PUSH2 0x5625 JUMP JUMPDEST DIV SWAP3 POP POP POP PUSH2 0x1210 JUMP JUMPDEST DUP4 DUP2 LT PUSH2 0x460D JUMPI PUSH1 0x40 MLOAD PUSH4 0xC740AEF PUSH1 0xE3 SHL DUP2 MSTORE PUSH1 0x4 DUP2 ADD DUP8 SWAP1 MSTORE PUSH1 0x24 DUP2 ADD DUP7 SWAP1 MSTORE PUSH1 0x44 DUP2 ADD DUP6 SWAP1 MSTORE PUSH1 0x64 ADD PUSH2 0xB5A JUMP JUMPDEST PUSH1 0x0 DUP5 DUP7 DUP9 MULMOD PUSH1 0x2 PUSH1 0x1 DUP8 NOT DUP2 ADD DUP9 AND SWAP8 DUP9 SWAP1 DIV PUSH1 0x3 DUP2 MUL DUP4 XOR DUP1 DUP3 MUL DUP5 SUB MUL DUP1 DUP3 MUL DUP5 SUB MUL DUP1 DUP3 MUL DUP5 SUB MUL DUP1 DUP3 MUL DUP5 SUB MUL DUP1 DUP3 MUL DUP5 SUB MUL SWAP1 DUP2 MUL SWAP1 SWAP3 SUB SWAP1 SWAP2 MUL PUSH1 0x0 DUP9 SWAP1 SUB DUP9 SWAP1 DIV SWAP1 SWAP2 ADD DUP6 DUP4 GT SWAP1 SWAP5 SUB SWAP4 SWAP1 SWAP4 MUL SWAP4 SUB SWAP5 SWAP1 SWAP5 DIV SWAP2 SWAP1 SWAP2 OR MUL SWAP5 SWAP4 POP POP POP POP JUMP JUMPDEST PUSH1 0x0 DUP1 DUP1 PUSH1 0x0 NOT DUP5 DUP7 MULMOD DUP5 DUP7 MUL SWAP3 POP DUP3 DUP2 LT DUP4 DUP3 SUB SUB SWAP2 POP POP DUP1 PUSH1 0x0 SUB PUSH2 0x46AA JUMPI POP PUSH8 0xDE0B6B3A7640000 SWAP1 DIV SWAP1 POP PUSH2 0x14D2 JUMP JUMPDEST PUSH8 0xDE0B6B3A7640000 DUP2 LT PUSH2 0x46DC JUMPI PUSH1 0x40 MLOAD PUSH4 0x5173648D PUSH1 0xE0 SHL DUP2 MSTORE PUSH1 0x4 DUP2 ADD DUP7 SWAP1 MSTORE PUSH1 0x24 DUP2 ADD DUP6 SWAP1 MSTORE PUSH1 0x44 ADD PUSH2 0xB5A JUMP JUMPDEST PUSH1 0x0 PUSH8 0xDE0B6B3A7640000 DUP6 DUP8 MULMOD PUSH3 0x40000 DUP2 DUP6 SUB DIV SWAP4 LT SWAP1 SWAP2 SUB PUSH1 0x1 PUSH1 0xEE SHL MUL SWAP2 SWAP1 SWAP2 OR PUSH32 0xACCB18165BD6FE31AE1CF318DC5B51EEE0E1BA569B88CD74C1773B91FAC10669 MUL SWAP2 POP POP SWAP3 SWAP2 POP POP JUMP JUMPDEST PUSH1 0x1 PUSH1 0xBF SHL PUSH8 0xFF00000000000000 DUP3 AND ISZERO PUSH2 0x4839 JUMPI PUSH8 0x8000000000000000 DUP3 AND ISZERO PUSH2 0x4760 JUMPI PUSH9 0x16A09E667F3BCC909 MUL PUSH1 0x40 SHR JUMPDEST PUSH8 0x4000000000000000 DUP3 AND ISZERO PUSH2 0x477F JUMPI PUSH9 0x1306FE0A31B7152DF MUL PUSH1 0x40 SHR JUMPDEST PUSH8 0x2000000000000000 DUP3 AND ISZERO PUSH2 0x479E JUMPI PUSH9 0x1172B83C7D517ADCE MUL PUSH1 0x40 SHR JUMPDEST PUSH8 0x1000000000000000 DUP3 AND ISZERO PUSH2 0x47BD JUMPI PUSH9 0x10B5586CF9890F62A MUL PUSH1 0x40 SHR JUMPDEST PUSH8 0x800000000000000 DUP3 AND ISZERO PUSH2 0x47DC JUMPI PUSH9 0x1059B0D31585743AE MUL PUSH1 0x40 SHR JUMPDEST PUSH8 0x400000000000000 DUP3 AND ISZERO PUSH2 0x47FB JUMPI PUSH9 0x102C9A3E778060EE7 MUL PUSH1 0x40 SHR JUMPDEST PUSH8 0x200000000000000 DUP3 AND ISZERO PUSH2 0x481A JUMPI PUSH9 0x10163DA9FB33356D8 MUL PUSH1 0x40 SHR JUMPDEST PUSH8 0x100000000000000 DUP3 AND ISZERO PUSH2 0x4839 JUMPI PUSH9 0x100B1AFA5ABCBED61 MUL PUSH1 0x40 SHR JUMPDEST PUSH7 0xFF000000000000 DUP3 AND ISZERO PUSH2 0x4938 JUMPI PUSH7 0x80000000000000 DUP3 AND ISZERO PUSH2 0x4866 JUMPI PUSH9 0x10058C86DA1C09EA2 MUL PUSH1 0x40 SHR JUMPDEST PUSH7 0x40000000000000 DUP3 AND ISZERO PUSH2 0x4884 JUMPI PUSH9 0x1002C605E2E8CEC50 MUL PUSH1 0x40 SHR JUMPDEST PUSH7 0x20000000000000 DUP3 AND ISZERO PUSH2 0x48A2 JUMPI PUSH9 0x100162F3904051FA1 MUL PUSH1 0x40 SHR JUMPDEST PUSH7 0x10000000000000 DUP3 AND ISZERO PUSH2 0x48C0 JUMPI PUSH9 0x1000B175EFFDC76BA MUL PUSH1 0x40 SHR JUMPDEST PUSH7 0x8000000000000 DUP3 AND ISZERO PUSH2 0x48DE JUMPI PUSH9 0x100058BA01FB9F96D MUL PUSH1 0x40 SHR JUMPDEST PUSH7 0x4000000000000 DUP3 AND ISZERO PUSH2 0x48FC JUMPI PUSH9 0x10002C5CC37DA9492 MUL PUSH1 0x40 SHR JUMPDEST PUSH7 0x2000000000000 DUP3 AND ISZERO PUSH2 0x491A JUMPI PUSH9 0x1000162E525EE0547 MUL PUSH1 0x40 SHR JUMPDEST PUSH7 0x1000000000000 DUP3 AND ISZERO PUSH2 0x4938 JUMPI PUSH9 0x10000B17255775C04 MUL PUSH1 0x40 SHR JUMPDEST PUSH6 0xFF0000000000 DUP3 AND ISZERO PUSH2 0x4A2E JUMPI PUSH6 0x800000000000 DUP3 AND ISZERO PUSH2 0x4963 JUMPI PUSH9 0x1000058B91B5BC9AE MUL PUSH1 0x40 SHR JUMPDEST PUSH6 0x400000000000 DUP3 AND ISZERO PUSH2 0x4980 JUMPI PUSH9 0x100002C5C89D5EC6D MUL PUSH1 0x40 SHR JUMPDEST PUSH6 0x200000000000 DUP3 AND ISZERO PUSH2 0x499D JUMPI PUSH9 0x10000162E43F4F831 MUL PUSH1 0x40 SHR JUMPDEST PUSH6 0x100000000000 DUP3 AND ISZERO PUSH2 0x49BA JUMPI PUSH9 0x100000B1721BCFC9A MUL PUSH1 0x40 SHR JUMPDEST PUSH6 0x80000000000 DUP3 AND ISZERO PUSH2 0x49D7 JUMPI PUSH9 0x10000058B90CF1E6E MUL PUSH1 0x40 SHR JUMPDEST PUSH6 0x40000000000 DUP3 AND ISZERO PUSH2 0x49F4 JUMPI PUSH9 0x1000002C5C863B73F MUL PUSH1 0x40 SHR JUMPDEST PUSH6 0x20000000000 DUP3 AND ISZERO PUSH2 0x4A11 JUMPI PUSH9 0x100000162E430E5A2 MUL PUSH1 0x40 SHR JUMPDEST PUSH6 0x10000000000 DUP3 AND ISZERO PUSH2 0x4A2E JUMPI PUSH9 0x1000000B172183551 MUL PUSH1 0x40 SHR JUMPDEST PUSH5 0xFF00000000 DUP3 AND ISZERO PUSH2 0x4B1B JUMPI PUSH5 0x8000000000 DUP3 AND ISZERO PUSH2 0x4A57 JUMPI PUSH9 0x100000058B90C0B49 MUL PUSH1 0x40 SHR JUMPDEST PUSH5 0x4000000000 DUP3 AND ISZERO PUSH2 0x4A73 JUMPI PUSH9 0x10000002C5C8601CC MUL PUSH1 0x40 SHR JUMPDEST PUSH5 0x2000000000 DUP3 AND ISZERO PUSH2 0x4A8F JUMPI PUSH9 0x1000000162E42FFF0 MUL PUSH1 0x40 SHR JUMPDEST PUSH5 0x1000000000 DUP3 AND ISZERO PUSH2 0x4AAB JUMPI PUSH9 0x10000000B17217FBB MUL PUSH1 0x40 SHR JUMPDEST PUSH5 0x800000000 DUP3 AND ISZERO PUSH2 0x4AC7 JUMPI PUSH9 0x1000000058B90BFCE MUL PUSH1 0x40 SHR JUMPDEST PUSH5 0x400000000 DUP3 AND ISZERO PUSH2 0x4AE3 JUMPI PUSH9 0x100000002C5C85FE3 MUL PUSH1 0x40 SHR JUMPDEST PUSH5 0x200000000 DUP3 AND ISZERO PUSH2 0x4AFF JUMPI PUSH9 0x10000000162E42FF1 MUL PUSH1 0x40 SHR JUMPDEST PUSH5 0x100000000 DUP3 AND ISZERO PUSH2 0x4B1B JUMPI PUSH9 0x100000000B17217F8 MUL PUSH1 0x40 SHR JUMPDEST PUSH4 0xFF000000 DUP3 AND ISZERO PUSH2 0x4BFF JUMPI PUSH4 0x80000000 DUP3 AND ISZERO PUSH2 0x4B42 JUMPI PUSH9 0x10000000058B90BFC MUL PUSH1 0x40 SHR JUMPDEST PUSH4 0x40000000 DUP3 AND ISZERO PUSH2 0x4B5D JUMPI PUSH9 0x1000000002C5C85FE MUL PUSH1 0x40 SHR JUMPDEST PUSH4 0x20000000 DUP3 AND ISZERO PUSH2 0x4B78 JUMPI PUSH9 0x100000000162E42FF MUL PUSH1 0x40 SHR JUMPDEST PUSH4 0x10000000 DUP3 AND ISZERO PUSH2 0x4B93 JUMPI PUSH9 0x1000000000B17217F MUL PUSH1 0x40 SHR JUMPDEST PUSH4 0x8000000 DUP3 AND ISZERO PUSH2 0x4BAE JUMPI PUSH9 0x100000000058B90C0 MUL PUSH1 0x40 SHR JUMPDEST PUSH4 0x4000000 DUP3 AND ISZERO PUSH2 0x4BC9 JUMPI PUSH9 0x10000000002C5C860 MUL PUSH1 0x40 SHR JUMPDEST PUSH4 0x2000000 DUP3 AND ISZERO PUSH2 0x4BE4 JUMPI PUSH9 0x1000000000162E430 MUL PUSH1 0x40 SHR JUMPDEST PUSH4 0x1000000 DUP3 AND ISZERO PUSH2 0x4BFF JUMPI PUSH9 0x10000000000B17218 MUL PUSH1 0x40 SHR JUMPDEST PUSH3 0xFF0000 DUP3 AND ISZERO PUSH2 0x4CDA JUMPI PUSH3 0x800000 DUP3 AND ISZERO PUSH2 0x4C24 JUMPI PUSH9 0x1000000000058B90C MUL PUSH1 0x40 SHR JUMPDEST PUSH3 0x400000 DUP3 AND ISZERO PUSH2 0x4C3E JUMPI PUSH9 0x100000000002C5C86 MUL PUSH1 0x40 SHR JUMPDEST PUSH3 0x200000 DUP3 AND ISZERO PUSH2 0x4C58 JUMPI PUSH9 0x10000000000162E43 MUL PUSH1 0x40 SHR JUMPDEST PUSH3 0x100000 DUP3 AND ISZERO PUSH2 0x4C72 JUMPI PUSH9 0x100000000000B1721 MUL PUSH1 0x40 SHR JUMPDEST PUSH3 0x80000 DUP3 AND ISZERO PUSH2 0x4C8C JUMPI PUSH9 0x10000000000058B91 MUL PUSH1 0x40 SHR JUMPDEST PUSH3 0x40000 DUP3 AND ISZERO PUSH2 0x4CA6 JUMPI PUSH9 0x1000000000002C5C8 MUL PUSH1 0x40 SHR JUMPDEST PUSH3 0x20000 DUP3 AND ISZERO PUSH2 0x4CC0 JUMPI PUSH9 0x100000000000162E4 MUL PUSH1 0x40 SHR JUMPDEST PUSH3 0x10000 DUP3 AND ISZERO PUSH2 0x4CDA JUMPI PUSH9 0x1000000000000B172 MUL PUSH1 0x40 SHR JUMPDEST PUSH2 0xFF00 DUP3 AND ISZERO PUSH2 0x4DAC JUMPI PUSH2 0x8000 DUP3 AND ISZERO PUSH2 0x4CFD JUMPI PUSH9 0x100000000000058B9 MUL PUSH1 0x40 SHR JUMPDEST PUSH2 0x4000 DUP3 AND ISZERO PUSH2 0x4D16 JUMPI PUSH9 0x10000000000002C5D MUL PUSH1 0x40 SHR JUMPDEST PUSH2 0x2000 DUP3 AND ISZERO PUSH2 0x4D2F JUMPI PUSH9 0x1000000000000162E MUL PUSH1 0x40 SHR JUMPDEST PUSH2 0x1000 DUP3 AND ISZERO PUSH2 0x4D48 JUMPI PUSH9 0x10000000000000B17 MUL PUSH1 0x40 SHR JUMPDEST PUSH2 0x800 DUP3 AND ISZERO PUSH2 0x4D61 JUMPI PUSH9 0x1000000000000058C MUL PUSH1 0x40 SHR JUMPDEST PUSH2 0x400 DUP3 AND ISZERO PUSH2 0x4D7A JUMPI PUSH9 0x100000000000002C6 MUL PUSH1 0x40 SHR JUMPDEST PUSH2 0x200 DUP3 AND ISZERO PUSH2 0x4D93 JUMPI PUSH9 0x10000000000000163 MUL PUSH1 0x40 SHR JUMPDEST PUSH2 0x100 DUP3 AND ISZERO PUSH2 0x4DAC JUMPI PUSH9 0x100000000000000B1 MUL PUSH1 0x40 SHR JUMPDEST PUSH1 0xFF DUP3 AND ISZERO PUSH2 0x4E75 JUMPI PUSH1 0x80 DUP3 AND ISZERO PUSH2 0x4DCD JUMPI PUSH9 0x10000000000000059 MUL PUSH1 0x40 SHR JUMPDEST PUSH1 0x40 DUP3 AND ISZERO PUSH2 0x4DE5 JUMPI PUSH9 0x1000000000000002C MUL PUSH1 0x40 SHR JUMPDEST PUSH1 0x20 DUP3 AND ISZERO PUSH2 0x4DFD JUMPI PUSH9 0x10000000000000016 MUL PUSH1 0x40 SHR JUMPDEST PUSH1 0x10 DUP3 AND ISZERO PUSH2 0x4E15 JUMPI PUSH9 0x1000000000000000B MUL PUSH1 0x40 SHR JUMPDEST PUSH1 0x8 DUP3 AND ISZERO PUSH2 0x4E2D JUMPI PUSH9 0x10000000000000006 MUL PUSH1 0x40 SHR JUMPDEST PUSH1 0x4 DUP3 AND ISZERO PUSH2 0x4E45 JUMPI PUSH9 0x10000000000000003 MUL PUSH1 0x40 SHR JUMPDEST PUSH1 0x2 DUP3 AND ISZERO PUSH2 0x4E5D JUMPI PUSH9 0x10000000000000001 MUL PUSH1 0x40 SHR JUMPDEST PUSH1 0x1 DUP3 AND ISZERO PUSH2 0x4E75 JUMPI PUSH9 0x10000000000000001 MUL PUSH1 0x40 SHR JUMPDEST PUSH8 0xDE0B6B3A7640000 MUL PUSH1 0x40 SWAP2 SWAP1 SWAP2 SHR PUSH1 0xBF SUB SHR SWAP1 JUMP JUMPDEST PUSH1 0x0 SLOAD PUSH2 0x100 SWAP1 DIV PUSH1 0xFF AND PUSH2 0x4EB3 JUMPI PUSH1 0x40 MLOAD PUSH3 0x461BCD PUSH1 0xE5 SHL DUP2 MSTORE PUSH1 0x4 ADD PUSH2 0xB5A SWAP1 PUSH2 0x5A92 JUMP JUMPDEST PUSH2 0x2361 CALLER PUSH2 0x3F7A JUMP JUMPDEST POP DUP1 SLOAD PUSH2 0x4EC8 SWAP1 PUSH2 0x56D4 JUMP JUMPDEST PUSH1 0x0 DUP3 SSTORE DUP1 PUSH1 0x1F LT PUSH2 0x4ED8 JUMPI POP POP JUMP JUMPDEST PUSH1 0x1F ADD PUSH1 0x20 SWAP1 DIV SWAP1 PUSH1 0x0 MSTORE PUSH1 0x20 PUSH1 0x0 KECCAK256 SWAP1 DUP2 ADD SWAP1 PUSH2 0x28DA SWAP2 SWAP1 JUMPDEST DUP1 DUP3 GT ISZERO PUSH2 0x4F06 JUMPI PUSH1 0x0 DUP2 SSTORE PUSH1 0x1 ADD PUSH2 0x4EF2 JUMP JUMPDEST POP SWAP1 JUMP JUMPDEST PUSH1 0x0 PUSH1 0x20 DUP3 DUP5 SUB SLT ISZERO PUSH2 0x4F1C JUMPI PUSH1 0x0 DUP1 REVERT JUMPDEST POP CALLDATALOAD SWAP2 SWAP1 POP JUMP JUMPDEST DUP1 CALLDATALOAD PUSH1 0xFF DUP2 AND DUP2 EQ PUSH2 0x11CB JUMPI PUSH1 0x0 DUP1 REVERT JUMPDEST PUSH1 0x1 PUSH1 0x1 PUSH1 0xA0 SHL SUB DUP2 AND DUP2 EQ PUSH2 0x28DA JUMPI PUSH1 0x0 DUP1 REVERT JUMPDEST DUP1 CALLDATALOAD PUSH2 0x11CB DUP2 PUSH2 0x4F34 JUMP JUMPDEST PUSH1 0x0 DUP1 DUP4 PUSH1 0x1F DUP5 ADD SLT PUSH2 0x4F66 JUMPI PUSH1 0x0 DUP1 REVERT JUMPDEST POP DUP2 CALLDATALOAD PUSH1 0x1 PUSH1 0x1 PUSH1 0x40 SHL SUB DUP2 GT ISZERO PUSH2 0x4F7D JUMPI PUSH1 0x0 DUP1 REVERT JUMPDEST PUSH1 0x20 DUP4 ADD SWAP2 POP DUP4 PUSH1 0x20 DUP3 DUP6 ADD ADD GT ISZERO PUSH2 0x4F95 JUMPI PUSH1 0x0 DUP1 REVERT JUMPDEST SWAP3 POP SWAP3 SWAP1 POP JUMP JUMPDEST PUSH1 0x0 DUP1 PUSH1 0x0 DUP1 PUSH1 0x0 DUP1 PUSH1 0xA0 DUP8 DUP10 SUB SLT ISZERO PUSH2 0x4FB5 JUMPI PUSH1 0x0 DUP1 REVERT JUMPDEST PUSH2 0x4FBE DUP8 PUSH2 0x4F23 JUMP JUMPDEST SWAP6 POP PUSH1 0x20 DUP8 ADD CALLDATALOAD PUSH2 0x4FCE DUP2 PUSH2 0x4F34 JUMP JUMPDEST SWAP5 POP PUSH1 0x40 DUP8 ADD CALLDATALOAD SWAP4 POP PUSH1 0x60 DUP8 ADD CALLDATALOAD SWAP3 POP PUSH1 0x80 DUP8 ADD CALLDATALOAD PUSH1 0x1 PUSH1 0x1 PUSH1 0x40 SHL SUB DUP2 GT ISZERO PUSH2 0x4FF7 JUMPI PUSH1 0x0 DUP1 REVERT JUMPDEST PUSH2 0x5003 DUP10 DUP3 DUP11 ADD PUSH2 0x4F54 JUMP JUMPDEST SWAP8 SWAP11 SWAP7 SWAP10 POP SWAP5 SWAP8 POP SWAP3 SWAP6 SWAP4 SWAP5 SWAP3 POP POP POP JUMP JUMPDEST PUSH4 0x4E487B71 PUSH1 0xE0 SHL PUSH1 0x0 MSTORE PUSH1 0x41 PUSH1 0x4 MSTORE PUSH1 0x24 PUSH1 0x0 REVERT JUMPDEST PUSH1 0x40 MLOAD PUSH1 0xC0 DUP2 ADD PUSH1 0x1 PUSH1 0x1 PUSH1 0x40 SHL SUB DUP2 GT DUP3 DUP3 LT OR ISZERO PUSH2 0x504D JUMPI PUSH2 0x504D PUSH2 0x5015 JUMP JUMPDEST PUSH1 0x40 MSTORE SWAP1 JUMP JUMPDEST PUSH1 0x0 DUP3 PUSH1 0x1F DUP4 ADD SLT PUSH2 0x5064 JUMPI PUSH1 0x0 DUP1 REVERT JUMPDEST DUP2 CALLDATALOAD PUSH1 0x1 PUSH1 0x1 PUSH1 0x40 SHL SUB DUP1 DUP3 GT ISZERO PUSH2 0x507E JUMPI PUSH2 0x507E PUSH2 0x5015 JUMP JUMPDEST PUSH1 0x40 MLOAD PUSH1 0x1F DUP4 ADD PUSH1 0x1F NOT SWAP1 DUP2 AND PUSH1 0x3F ADD AND DUP2 ADD SWAP1 DUP3 DUP3 GT DUP2 DUP4 LT OR ISZERO PUSH2 0x50A6 JUMPI PUSH2 0x50A6 PUSH2 0x5015 JUMP JUMPDEST DUP2 PUSH1 0x40 MSTORE DUP4 DUP2 MSTORE DUP7 PUSH1 0x20 DUP6 DUP9 ADD ADD GT ISZERO PUSH2 0x50BF JUMPI PUSH1 0x0 DUP1 REVERT JUMPDEST DUP4 PUSH1 0x20 DUP8 ADD PUSH1 0x20 DUP4 ADD CALLDATACOPY PUSH1 0x0 PUSH1 0x20 DUP6 DUP4 ADD ADD MSTORE DUP1 SWAP5 POP POP POP POP POP SWAP3 SWAP2 POP POP JUMP JUMPDEST PUSH1 0x0 DUP1 PUSH1 0x0 PUSH1 0x60 DUP5 DUP7 SUB SLT ISZERO PUSH2 0x50F4 JUMPI PUSH1 0x0 DUP1 REVERT JUMPDEST DUP4 CALLDATALOAD PUSH1 0x1 PUSH1 0x1 PUSH1 0x40 SHL SUB DUP1 DUP3 GT ISZERO PUSH2 0x510B JUMPI PUSH1 0x0 DUP1 REVERT JUMPDEST SWAP1 DUP6 ADD SWAP1 PUSH1 0xC0 DUP3 DUP9 SUB SLT ISZERO PUSH2 0x511F JUMPI PUSH1 0x0 DUP1 REVERT JUMPDEST PUSH2 0x5127 PUSH2 0x502B JUMP JUMPDEST DUP3 CALLDATALOAD DUP2 MSTORE PUSH1 0x20 DUP4 ADD CALLDATALOAD PUSH1 0x20 DUP3 ADD MSTORE PUSH1 0x40 DUP4 ADD CALLDATALOAD PUSH2 0x5143 DUP2 PUSH2 0x4F34 JUMP JUMPDEST PUSH1 0x40 DUP3 ADD MSTORE PUSH1 0x60 DUP4 ADD CALLDATALOAD DUP3 DUP2 AND DUP2 EQ PUSH2 0x515B JUMPI PUSH1 0x0 DUP1 REVERT JUMPDEST PUSH1 0x60 DUP3 ADD MSTORE PUSH2 0x516C PUSH1 0x80 DUP5 ADD PUSH2 0x4F23 JUMP JUMPDEST PUSH1 0x80 DUP3 ADD MSTORE PUSH1 0xA0 DUP4 ADD CALLDATALOAD DUP3 DUP2 GT ISZERO PUSH2 0x5183 JUMPI PUSH1 0x0 DUP1 REVERT JUMPDEST PUSH2 0x518F DUP10 DUP3 DUP7 ADD PUSH2 0x5053 JUMP JUMPDEST PUSH1 0xA0 DUP4 ADD MSTORE POP SWAP5 POP PUSH2 0x51A6 SWAP2 POP POP PUSH1 0x20 DUP6 ADD PUSH2 0x4F49 JUMP JUMPDEST SWAP2 POP PUSH1 0x40 DUP5 ADD CALLDATALOAD SWAP1 POP SWAP3 POP SWAP3 POP SWAP3 JUMP JUMPDEST DUP1 ISZERO ISZERO DUP2 EQ PUSH2 0x28DA JUMPI PUSH1 0x0 DUP1 REVERT JUMPDEST PUSH1 0x0 PUSH1 0x20 DUP3 DUP5 SUB SLT ISZERO PUSH2 0x51D6 JUMPI PUSH1 0x0 DUP1 REVERT JUMPDEST DUP2 CALLDATALOAD PUSH2 0x1210 DUP2 PUSH2 0x51B6 JUMP JUMPDEST PUSH1 0x0 DUP1 PUSH1 0x40 DUP4 DUP6 SUB SLT ISZERO PUSH2 0x51F4 JUMPI PUSH1 0x0 DUP1 REVERT JUMPDEST DUP3 CALLDATALOAD SWAP2 POP PUSH1 0x20 DUP4 ADD CALLDATALOAD PUSH2 0x5206 DUP2 PUSH2 0x51B6 JUMP JUMPDEST DUP1 SWAP2 POP POP SWAP3 POP SWAP3 SWAP1 POP JUMP JUMPDEST PUSH1 0x0 PUSH1 0x20 DUP3 DUP5 SUB SLT ISZERO PUSH2 0x5223 JUMPI PUSH1 0x0 DUP1 REVERT JUMPDEST DUP2 CALLDATALOAD PUSH2 0x1210 DUP2 PUSH2 0x4F34 JUMP JUMPDEST PUSH1 0x0 DUP1 PUSH1 0x40 DUP4 DUP6 SUB SLT ISZERO PUSH2 0x5241 JUMPI PUSH1 0x0 DUP1 REVERT JUMPDEST POP POP DUP1 CALLDATALOAD SWAP3 PUSH1 0x20 SWAP1 SWAP2 ADD CALLDATALOAD SWAP2 POP JUMP JUMPDEST PUSH1 0x0 DUP1 PUSH1 0x40 DUP4 DUP6 SUB SLT ISZERO PUSH2 0x5263 JUMPI PUSH1 0x0 DUP1 REVERT JUMPDEST DUP3 CALLDATALOAD PUSH1 0x1 PUSH1 0x1 PUSH1 0x40 SHL SUB DUP1 DUP3 GT ISZERO PUSH2 0x527A JUMPI PUSH1 0x0 DUP1 REVERT JUMPDEST SWAP1 DUP5 ADD SWAP1 PUSH1 0x80 DUP3 DUP8 SUB SLT ISZERO PUSH2 0x528E JUMPI PUSH1 0x0 DUP1 REVERT JUMPDEST PUSH1 0x40 MLOAD PUSH1 0x80 DUP2 ADD DUP2 DUP2 LT DUP4 DUP3 GT OR ISZERO PUSH2 0x52A9 JUMPI PUSH2 0x52A9 PUSH2 0x5015 JUMP JUMPDEST PUSH1 0x40 MSTORE DUP3 CALLDATALOAD DUP2 MSTORE PUSH1 0x20 DUP4 ADD CALLDATALOAD PUSH2 0x52BE DUP2 PUSH2 0x4F34 JUMP JUMPDEST PUSH1 0x20 DUP3 ADD MSTORE PUSH1 0x40 DUP4 DUP2 ADD CALLDATALOAD SWAP1 DUP3 ADD MSTORE PUSH1 0x60 DUP4 ADD CALLDATALOAD DUP3 DUP2 GT ISZERO PUSH2 0x52DF JUMPI PUSH1 0x0 DUP1 REVERT JUMPDEST PUSH2 0x52EB DUP9 DUP3 DUP7 ADD PUSH2 0x5053 JUMP JUMPDEST PUSH1 0x60 DUP4 ADD MSTORE POP SWAP4 POP PUSH2 0x5302 SWAP2 POP POP PUSH1 0x20 DUP5 ADD PUSH2 0x4F49 JUMP JUMPDEST SWAP1 POP SWAP3 POP SWAP3 SWAP1 POP JUMP JUMPDEST PUSH1 0x0 DUP1 PUSH1 0x0 DUP1 PUSH1 0x60 DUP6 DUP8 SUB SLT ISZERO PUSH2 0x5321 JUMPI PUSH1 0x0 DUP1 REVERT JUMPDEST DUP5 CALLDATALOAD PUSH2 0x532C DUP2 PUSH2 0x4F34 JUMP JUMPDEST SWAP4 POP PUSH1 0x20 DUP6 ADD CALLDATALOAD SWAP3 POP PUSH1 0x40 DUP6 ADD CALLDATALOAD PUSH1 0x1 PUSH1 0x1 PUSH1 0x40 SHL SUB DUP2 GT ISZERO PUSH2 0x534E JUMPI PUSH1 0x0 DUP1 REVERT JUMPDEST PUSH2 0x535A DUP8 DUP3 DUP9 ADD PUSH2 0x4F54 JUMP JUMPDEST SWAP6 SWAP9 SWAP5 SWAP8 POP SWAP6 POP POP POP POP JUMP JUMPDEST PUSH1 0x0 DUP1 PUSH1 0x20 DUP4 DUP6 SUB SLT ISZERO PUSH2 0x5379 JUMPI PUSH1 0x0 DUP1 REVERT JUMPDEST DUP3 CALLDATALOAD PUSH1 0x1 PUSH1 0x1 PUSH1 0x40 SHL SUB DUP2 GT ISZERO PUSH2 0x538F JUMPI PUSH1 0x0 DUP1 REVERT JUMPDEST PUSH2 0x539B DUP6 DUP3 DUP7 ADD PUSH2 0x4F54 JUMP JUMPDEST SWAP1 SWAP7 SWAP1 SWAP6 POP SWAP4 POP POP POP POP JUMP JUMPDEST PUSH1 0x0 JUMPDEST DUP4 DUP2 LT ISZERO PUSH2 0x53C2 JUMPI DUP2 DUP2 ADD MLOAD DUP4 DUP3 ADD MSTORE PUSH1 0x20 ADD PUSH2 0x53AA JUMP JUMPDEST POP POP PUSH1 0x0 SWAP2 ADD MSTORE JUMP JUMPDEST PUSH1 0x0 DUP2 MLOAD DUP1 DUP5 MSTORE PUSH2 0x53E3 DUP2 PUSH1 0x20 DUP7 ADD PUSH1 0x20 DUP7 ADD PUSH2 0x53A7 JUMP JUMPDEST PUSH1 0x1F ADD PUSH1 0x1F NOT AND SWAP3 SWAP1 SWAP3 ADD PUSH1 0x20 ADD SWAP3 SWAP2 POP POP JUMP JUMPDEST PUSH1 0x20 DUP2 MSTORE PUSH1 0x0 PUSH2 0x1210 PUSH1 0x20 DUP4 ADD DUP5 PUSH2 0x53CB JUMP JUMPDEST PUSH1 0x0 DUP1 PUSH1 0x40 DUP4 DUP6 SUB SLT ISZERO PUSH2 0x541D JUMPI PUSH1 0x0 DUP1 REVERT JUMPDEST DUP3 CALLDATALOAD PUSH2 0x5428 DUP2 PUSH2 0x4F34 JUMP JUMPDEST SWAP2 POP PUSH1 0x20 DUP4 ADD CALLDATALOAD PUSH2 0x5206 DUP2 PUSH2 0x4F34 JUMP JUMPDEST PUSH1 0x0 DUP1 PUSH1 0x0 PUSH1 0x40 DUP5 DUP7 SUB SLT ISZERO PUSH2 0x544D JUMPI PUSH1 0x0 DUP1 REVERT JUMPDEST DUP4 CALLDATALOAD SWAP3 POP PUSH1 0x20 DUP5 ADD CALLDATALOAD PUSH1 0x1 PUSH1 0x1 PUSH1 0x40 SHL SUB DUP2 GT ISZERO PUSH2 0x546A JUMPI PUSH1 0x0 DUP1 REVERT JUMPDEST PUSH2 0x5476 DUP7 DUP3 DUP8 ADD PUSH2 0x4F54 JUMP JUMPDEST SWAP5 SWAP8 SWAP1 SWAP7 POP SWAP4 SWAP5 POP POP POP POP JUMP JUMPDEST PUSH1 0x1 PUSH1 0x1 PUSH1 0xA0 SHL SUB DUP6 AND DUP2 MSTORE PUSH1 0x1 PUSH1 0x1 PUSH1 0x40 SHL SUB DUP5 AND PUSH1 0x20 DUP3 ADD MSTORE DUP3 ISZERO ISZERO PUSH1 0x40 DUP3 ADD MSTORE PUSH1 0x80 PUSH1 0x60 DUP3 ADD DUP2 SWAP1 MSTORE PUSH1 0x0 SWAP1 PUSH2 0x54BE SWAP1 DUP4 ADD DUP5 PUSH2 0x53CB JUMP JUMPDEST SWAP7 SWAP6 POP POP POP POP POP POP JUMP JUMPDEST PUSH1 0x0 DUP1 PUSH1 0x40 DUP4 DUP6 SUB SLT ISZERO PUSH2 0x54DB JUMPI PUSH1 0x0 DUP1 REVERT JUMPDEST DUP3 CALLDATALOAD SWAP2 POP PUSH1 0x20 DUP4 ADD CALLDATALOAD PUSH2 0x5206 DUP2 PUSH2 0x4F34 JUMP JUMPDEST PUSH1 0x0 DUP1 PUSH1 0x40 DUP4 DUP6 SUB SLT ISZERO PUSH2 0x5500 JUMPI PUSH1 0x0 DUP1 REVERT JUMPDEST DUP3 CALLDATALOAD PUSH2 0x550B DUP2 PUSH2 0x4F34 JUMP JUMPDEST SWAP5 PUSH1 0x20 SWAP4 SWAP1 SWAP4 ADD CALLDATALOAD SWAP4 POP POP POP JUMP JUMPDEST PUSH1 0x0 DUP1 PUSH1 0x40 DUP4 DUP6 SUB SLT ISZERO PUSH2 0x552C JUMPI PUSH1 0x0 DUP1 REVERT JUMPDEST DUP3 CALLDATALOAD SWAP2 POP PUSH1 0x20 DUP4 ADD CALLDATALOAD PUSH4 0xFFFFFFFF DUP2 AND DUP2 EQ PUSH2 0x5206 JUMPI PUSH1 0x0 DUP1 REVERT JUMPDEST DUP5 DUP2 MSTORE PUSH1 0x1 DUP1 PUSH1 0xA0 SHL SUB DUP5 AND PUSH1 0x20 DUP3 ADD MSTORE DUP3 PUSH1 0x40 DUP3 ADD MSTORE PUSH1 0x80 PUSH1 0x60 DUP3 ADD MSTORE PUSH1 0x0 PUSH2 0x54BE PUSH1 0x80 DUP4 ADD DUP5 PUSH2 0x53CB JUMP JUMPDEST DUP7 DUP2 MSTORE DUP6 PUSH1 0x20 DUP3 ADD MSTORE PUSH1 0x1 DUP1 PUSH1 0xA0 SHL SUB DUP6 AND PUSH1 0x40 DUP3 ADD MSTORE PUSH1 0x1 PUSH1 0x1 PUSH1 0x40 SHL SUB DUP5 AND PUSH1 0x60 DUP3 ADD MSTORE PUSH1 0xFF DUP4 AND PUSH1 0x80 DUP3 ADD MSTORE PUSH1 0xC0 PUSH1 0xA0 DUP3 ADD MSTORE PUSH1 0x0 PUSH2 0x55B9 PUSH1 0xC0 DUP4 ADD DUP5 PUSH2 0x53CB JUMP JUMPDEST SWAP9 SWAP8 POP POP POP POP POP POP POP POP JUMP JUMPDEST PUSH1 0x20 DUP1 DUP3 MSTORE PUSH1 0x6 SWAP1 DUP3 ADD MSTORE PUSH6 0x1C185D5CD959 PUSH1 0xD2 SHL PUSH1 0x40 DUP3 ADD MSTORE PUSH1 0x60 ADD SWAP1 JUMP JUMPDEST PUSH4 0x4E487B71 PUSH1 0xE0 SHL PUSH1 0x0 MSTORE PUSH1 0x11 PUSH1 0x4 MSTORE PUSH1 0x24 PUSH1 0x0 REVERT JUMPDEST DUP2 DUP2 SUB DUP2 DUP2 GT ISZERO PUSH2 0x14D2 JUMPI PUSH2 0x14D2 PUSH2 0x55E5 JUMP JUMPDEST DUP1 DUP3 MUL DUP2 ISZERO DUP3 DUP3 DIV DUP5 EQ OR PUSH2 0x14D2 JUMPI PUSH2 0x14D2 PUSH2 0x55E5 JUMP JUMPDEST PUSH4 0x4E487B71 PUSH1 0xE0 SHL PUSH1 0x0 MSTORE PUSH1 0x12 PUSH1 0x4 MSTORE PUSH1 0x24 PUSH1 0x0 REVERT JUMPDEST PUSH1 0x0 DUP3 PUSH2 0x5658 JUMPI PUSH4 0x4E487B71 PUSH1 0xE0 SHL PUSH1 0x0 MSTORE PUSH1 0x12 PUSH1 0x4 MSTORE PUSH1 0x24 PUSH1 0x0 REVERT JUMPDEST POP DIV SWAP1 JUMP JUMPDEST PUSH1 0x1 PUSH1 0x1 PUSH1 0xA0 SHL SUB SWAP3 SWAP1 SWAP3 AND DUP3 MSTORE PUSH1 0x20 DUP3 ADD MSTORE PUSH1 0x40 ADD SWAP1 JUMP JUMPDEST PUSH1 0x0 PUSH1 0x20 DUP3 DUP5 SUB SLT ISZERO PUSH2 0x5688 JUMPI PUSH1 0x0 DUP1 REVERT JUMPDEST DUP2 MLOAD PUSH2 0x1210 DUP2 PUSH2 0x51B6 JUMP JUMPDEST DUP1 DUP3 ADD DUP1 DUP3 GT ISZERO PUSH2 0x14D2 JUMPI PUSH2 0x14D2 PUSH2 0x55E5 JUMP JUMPDEST PUSH1 0x20 DUP1 DUP3 MSTORE PUSH1 0x14 SWAP1 DUP3 ADD MSTORE PUSH20 0x1B5BD9195B08191BD95CC81B9BDD08195E1A5CDD PUSH1 0x62 SHL PUSH1 0x40 DUP3 ADD MSTORE PUSH1 0x60 ADD SWAP1 JUMP JUMPDEST PUSH1 0x1 DUP2 DUP2 SHR SWAP1 DUP3 AND DUP1 PUSH2 0x56E8 JUMPI PUSH1 0x7F DUP3 AND SWAP2 POP JUMPDEST PUSH1 0x20 DUP3 LT DUP2 SUB PUSH2 0x3EB4 JUMPI PUSH4 0x4E487B71 PUSH1 0xE0 SHL PUSH1 0x0 MSTORE PUSH1 0x22 PUSH1 0x4 MSTORE PUSH1 0x24 PUSH1 0x0 REVERT JUMPDEST PUSH1 0x1F DUP3 GT ISZERO PUSH2 0x1966 JUMPI PUSH1 0x0 DUP2 DUP2 MSTORE PUSH1 0x20 DUP2 KECCAK256 PUSH1 0x1F DUP6 ADD PUSH1 0x5 SHR DUP2 ADD PUSH1 0x20 DUP7 LT ISZERO PUSH2 0x572F JUMPI POP DUP1 JUMPDEST PUSH1 0x1F DUP6 ADD PUSH1 0x5 SHR DUP3 ADD SWAP2 POP JUMPDEST DUP2 DUP2 LT ISZERO PUSH2 0x435F JUMPI DUP3 DUP2 SSTORE PUSH1 0x1 ADD PUSH2 0x573B JUMP JUMPDEST DUP2 MLOAD PUSH1 0x1 PUSH1 0x1 PUSH1 0x40 SHL SUB DUP2 GT ISZERO PUSH2 0x5767 JUMPI PUSH2 0x5767 PUSH2 0x5015 JUMP JUMPDEST PUSH2 0x577B DUP2 PUSH2 0x5775 DUP5 SLOAD PUSH2 0x56D4 JUMP JUMPDEST DUP5 PUSH2 0x5708 JUMP JUMPDEST PUSH1 0x20 DUP1 PUSH1 0x1F DUP4 GT PUSH1 0x1 DUP2 EQ PUSH2 0x57B0 JUMPI PUSH1 0x0 DUP5 ISZERO PUSH2 0x5798 JUMPI POP DUP6 DUP4 ADD MLOAD JUMPDEST PUSH1 0x0 NOT PUSH1 0x3 DUP7 SWAP1 SHL SHR NOT AND PUSH1 0x1 DUP6 SWAP1 SHL OR DUP6 SSTORE PUSH2 0x435F JUMP JUMPDEST PUSH1 0x0 DUP6 DUP2 MSTORE PUSH1 0x20 DUP2 KECCAK256 PUSH1 0x1F NOT DUP7 AND SWAP2 JUMPDEST DUP3 DUP2 LT ISZERO PUSH2 0x57DF JUMPI DUP9 DUP7 ADD MLOAD DUP3 SSTORE SWAP5 DUP5 ADD SWAP5 PUSH1 0x1 SWAP1 SWAP2 ADD SWAP1 DUP5 ADD PUSH2 0x57C0 JUMP JUMPDEST POP DUP6 DUP3 LT ISZERO PUSH2 0x57FD JUMPI DUP8 DUP6 ADD MLOAD PUSH1 0x0 NOT PUSH1 0x3 DUP9 SWAP1 SHL PUSH1 0xF8 AND SHR NOT AND DUP2 SSTORE JUMPDEST POP POP POP POP POP PUSH1 0x1 SWAP1 DUP2 SHL ADD SWAP1 SSTORE POP JUMP JUMPDEST PUSH1 0x1 DUP1 PUSH1 0xA0 SHL SUB DUP7 AND DUP2 MSTORE DUP5 PUSH1 0x20 DUP3 ADD MSTORE DUP4 PUSH1 0x40 DUP3 ADD MSTORE DUP3 PUSH1 0x60 DUP3 ADD MSTORE PUSH1 0xA0 PUSH1 0x80 DUP3 ADD MSTORE PUSH1 0x0 PUSH2 0x5840 PUSH1 0xA0 DUP4 ADD DUP5 PUSH2 0x53CB JUMP JUMPDEST SWAP8 SWAP7 POP POP POP POP POP POP POP JUMP JUMPDEST PUSH1 0x20 DUP1 DUP3 MSTORE PUSH1 0x12 SWAP1 DUP3 ADD MSTORE PUSH18 0x6D696E207374616B656420746F6F206C6F77 PUSH1 0x70 SHL PUSH1 0x40 DUP3 ADD MSTORE PUSH1 0x60 ADD SWAP1 JUMP JUMPDEST PUSH1 0x1 PUSH1 0x1 PUSH1 0xA0 SHL SUB DUP6 DUP2 AND DUP3 MSTORE DUP5 AND PUSH1 0x20 DUP3 ADD MSTORE PUSH1 0x40 DUP2 ADD DUP4 SWAP1 MSTORE PUSH1 0x80 PUSH1 0x60 DUP3 ADD DUP2 SWAP1 MSTORE PUSH1 0x0 SWAP1 PUSH2 0x54BE SWAP1 DUP4 ADD DUP5 PUSH2 0x53CB JUMP JUMPDEST PUSH1 0x1 PUSH1 0x1 PUSH1 0xA0 SHL SUB DUP6 AND DUP2 MSTORE PUSH1 0x20 DUP2 ADD DUP5 SWAP1 MSTORE PUSH1 0x60 PUSH1 0x40 DUP3 ADD DUP2 SWAP1 MSTORE DUP2 ADD DUP3 SWAP1 MSTORE DUP2 DUP4 PUSH1 0x80 DUP4 ADD CALLDATACOPY PUSH1 0x0 DUP2 DUP4 ADD PUSH1 0x80 SWAP1 DUP2 ADD SWAP2 SWAP1 SWAP2 MSTORE PUSH1 0x1F SWAP1 SWAP3 ADD PUSH1 0x1F NOT AND ADD ADD SWAP4 SWAP3 POP POP POP JUMP JUMPDEST PUSH1 0x0 PUSH1 0x20 DUP3 DUP5 SUB SLT ISZERO PUSH2 0x5904 JUMPI PUSH1 0x0 DUP1 REVERT JUMPDEST POP MLOAD SWAP2 SWAP1 POP JUMP JUMPDEST PUSH4 0xFFFFFFFF DUP2 DUP2 AND DUP4 DUP3 AND ADD SWAP1 DUP1 DUP3 GT ISZERO PUSH2 0x5928 JUMPI PUSH2 0x5928 PUSH2 0x55E5 JUMP JUMPDEST POP SWAP3 SWAP2 POP POP JUMP JUMPDEST PUSH4 0xFFFFFFFF DUP3 DUP2 AND DUP3 DUP3 AND SUB SWAP1 DUP1 DUP3 GT ISZERO PUSH2 0x5928 JUMPI PUSH2 0x5928 PUSH2 0x55E5 JUMP JUMPDEST PUSH4 0x4E487B71 PUSH1 0xE0 SHL PUSH1 0x0 MSTORE PUSH1 0x32 PUSH1 0x4 MSTORE PUSH1 0x24 PUSH1 0x0 REVERT JUMPDEST PUSH1 0x0 PUSH1 0x1 DUP3 ADD PUSH2 0x5974 JUMPI PUSH2 0x5974 PUSH2 0x55E5 JUMP JUMPDEST POP PUSH1 0x1 ADD SWAP1 JUMP JUMPDEST PUSH3 0x40109 PUSH1 0xE9 SHL DUP2 MSTORE DUP5 MLOAD PUSH1 0x0 SWAP1 PUSH2 0x599A DUP2 PUSH1 0x3 DUP6 ADD PUSH1 0x20 DUP11 ADD PUSH2 0x53A7 JUMP JUMPDEST DUP3 ADD DUP5 DUP7 PUSH1 0x3 DUP4 ADD CALLDATACOPY PUSH1 0x3 PUSH1 0xFB SHL PUSH1 0x3 SWAP2 DUP7 ADD SWAP2 DUP3 ADD MSTORE DUP4 MLOAD PUSH2 0x59C4 DUP2 PUSH1 0x4 DUP5 ADD PUSH1 0x20 DUP9 ADD PUSH2 0x53A7 JUMP JUMPDEST ADD PUSH1 0x4 ADD SWAP7 SWAP6 POP POP POP POP POP POP JUMP JUMPDEST PUSH1 0x5 PUSH1 0xF9 SHL DUP2 MSTORE DUP3 MLOAD PUSH1 0x0 SWAP1 PUSH2 0x59EF DUP2 PUSH1 0x1 DUP6 ADD PUSH1 0x20 DUP9 ADD PUSH2 0x53A7 JUMP JUMPDEST DUP4 MLOAD SWAP1 DUP4 ADD SWAP1 PUSH2 0x5A06 DUP2 PUSH1 0x1 DUP5 ADD PUSH1 0x20 DUP9 ADD PUSH2 0x53A7 JUMP JUMPDEST ADD PUSH1 0x1 ADD SWAP5 SWAP4 POP POP POP POP JUMP JUMPDEST PUSH1 0x0 DUP3 MLOAD PUSH2 0x5A24 DUP2 DUP5 PUSH1 0x20 DUP8 ADD PUSH2 0x53A7 JUMP JUMPDEST SWAP2 SWAP1 SWAP2 ADD SWAP3 SWAP2 POP POP JUMP JUMPDEST DUP2 DUP2 SUB PUSH1 0x0 DUP4 SLT DUP1 ISZERO DUP4 DUP4 SGT AND DUP4 DUP4 SLT DUP3 AND OR ISZERO PUSH2 0x5928 JUMPI PUSH2 0x5928 PUSH2 0x55E5 JUMP JUMPDEST DUP1 DUP3 ADD DUP3 DUP2 SLT PUSH1 0x0 DUP4 SLT DUP1 ISZERO DUP3 AND DUP3 ISZERO DUP3 AND OR ISZERO PUSH2 0x5A6E JUMPI PUSH2 0x5A6E PUSH2 0x55E5 JUMP JUMPDEST POP POP SWAP3 SWAP2 POP POP JUMP JUMPDEST PUSH1 0x0 PUSH1 0x1 PUSH1 0xFF SHL DUP3 ADD PUSH2 0x5A8B JUMPI PUSH2 0x5A8B PUSH2 0x55E5 JUMP JUMPDEST POP PUSH1 0x0 SUB SWAP1 JUMP JUMPDEST PUSH1 0x20 DUP1 DUP3 MSTORE PUSH1 0x2B SWAP1 DUP3 ADD MSTORE PUSH32 0x496E697469616C697A61626C653A20636F6E7472616374206973206E6F742069 PUSH1 0x40 DUP3 ADD MSTORE PUSH11 0x6E697469616C697A696E67 PUSH1 0xA8 SHL PUSH1 0x60 DUP3 ADD MSTORE PUSH1 0x80 ADD SWAP1 JUMP JUMPDEST PUSH1 0x0 PUSH1 0x1 PUSH1 0x1 PUSH1 0x40 SHL SUB DUP1 DUP4 AND DUP2 DUP2 SUB PUSH2 0x5AF9 JUMPI PUSH2 0x5AF9 PUSH2 0x55E5 JUMP JUMPDEST PUSH1 0x1 ADD SWAP4 SWAP3 POP POP POP JUMP JUMPDEST PUSH1 0x1 PUSH1 0x1 PUSH1 0x40 SHL SUB DUP3 DUP2 AND DUP3 DUP3 AND SUB SWAP1 DUP1 DUP3 GT ISZERO PUSH2 0x5928 JUMPI PUSH2 0x5928 PUSH2 0x55E5 JUMP INVALID LOG2 PUSH5 0x6970667358 0x22 SLT KECCAK256 LOG4 MSIZE 0xDB 0xEA 0xDC 0xF PUSH6 0x4F278E9CBE99 SWAP4 0xEC PUSH1 0x80 DUP14 SELFDESTRUCT 0x5E 0xEA MLOAD PUSH1 0xCA 0xFB 0xD9 COINBASE 0xC9 0xEF PUSH32 0xA1D764736F6C6343000813003300000000000000000000000000000000000000 "},"methodIdentifiers":{"accruedFees()":"682c2058","baseToken()":"c55dae63","cancelValidatorWithdraw(uint256)":"cbd2422d","claimSolution(bytes32)":"77286d17","commitments(bytes32)":"839df945","contestationVoteFinish(bytes32,uint32)":"8b4d7b35","contestationVoteNays(bytes32,uint256)":"303fb0d6","contestationVoteYeas(bytes32,uint256)":"d1f0c941","contestationVoted(bytes32,address)":"d2780940","contestationVotedIndex(bytes32)":"17f3e041","contestations(bytes32)":"d33b2ef5","diffMul(uint256,uint256)":"1f88ea1c","exitValidatorMinUnlockTime()":"a53e2525","generateCommitment(address,bytes32,bytes)":"393cb1c7","generateIPFSCID(bytes)":"40e8c56d","getPsuedoTotalSupply()":"7881c5e6","getReward()":"3d18b912","getSlashAmount()":"3d57f5d9","getValidatorMinimum()":"2258d105","hashModel((uint256,address,uint256,bytes),address)":"218a3048","hashTask((bytes32,uint256,address,uint64,uint8,bytes),address,bytes32)":"1466b63a","initialize(address,address)":"485cc955","initiateValidatorWithdraw(uint256)":"0a985737","maxContestationValidatorStakeSince()":"8e6d86fd","minClaimSolutionTime()":"92809444","minContestationVotePeriodTime()":"7b36006a","minRetractionWaitTime()":"00fd7082","models(bytes32)":"e236f46b","owner()":"8da5cb5b","paused()":"5c975abb","pauser()":"9fd0506d","pendingValidatorWithdrawRequests(address,uint256)":"d2992baa","pendingValidatorWithdrawRequestsCount(address)":"d2307ae4","prevhash()":"c17ddb2a","registerModel(address,uint256,bytes)":"4ff03efa","renounceOwnership()":"715018a6","retractTask(bytes32)":"003f9dd6","retractionFeePercentage()":"72dc0ee1","reward(uint256,uint256)":"a4fa8d57","setExitValidatorMinUnlockTime(uint256)":"c3187978","setMaxContestationValidatorStakeSince(uint256)":"aa59e7e7","setMinClaimSolutionTime(uint256)":"2f9b03e4","setMinContestationVotePeriodTime(uint256)":"b66badbf","setMinRetractionWaitTime(uint256)":"7683dbfb","setPaused(bool)":"16c38b3c","setRetractionFeePercentage(uint256)":"5b851daa","setSlashAmountPercentage(uint256)":"36f83c4f","setSolutionFeePercentage(uint256)":"1b2cf4b8","setSolutionMineableRate(bytes32,uint256)":"93f1f8ac","setTreasuryRewardPercentage(uint256)":"605cecf6","setValidatorMinimumPercentage(uint256)":"28c2d36c","setVersion(uint256)":"408def1e","signalCommitment(bytes32)":"506ea7de","signalSupport(bytes32,bool)":"49094d4d","slashAmountPercentage()":"dc06a89f","solutionFeePercentage()":"f1b8989d","solutions(bytes32)":"75c70509","startBlockTime()":"0c18d4ce","submitContestation(bytes32)":"671f8152","submitSolution(bytes32,bytes)":"56914caf","submitTask(uint8,address,bytes32,uint256,bytes)":"08745dd1","targetTs(uint256)":"cf596e45","tasks(bytes32)":"e579f500","transferOwnership(address)":"f2fde38b","transferPauser(address)":"4421ea21","transferTreasury(address)":"d8a6021c","treasury()":"61d027b3","treasuryRewardPercentage()":"c31784be","validatorCanVote(address,bytes32)":"83657795","validatorDeposit(address,uint256)":"93a090ec","validatorMinimumPercentage()":"96bb02c3","validatorWithdraw(uint256,address)":"763253bb","validatorWithdrawPendingAmount(address)":"1b75c43e","validators(address)":"fa52c7d8","version()":"54fd4d50","voteOnContestation(bytes32,bool)":"1825c20e","withdrawAccruedFees()":"ada82c7d"}},"storageLayout":{"storage":[{"astId":291,"contract":"contracts/EngineV1.sol:EngineV1","label":"_initialized","offset":0,"slot":"0","type":"t_uint8"},{"astId":294,"contract":"contracts/EngineV1.sol:EngineV1","label":"_initializing","offset":1,"slot":"0","type":"t_bool"},{"astId":833,"contract":"contracts/EngineV1.sol:EngineV1","label":"__gap","offset":0,"slot":"1","type":"t_array(t_uint256)50_storage"},{"astId":163,"contract":"contracts/EngineV1.sol:EngineV1","label":"_owner","offset":0,"slot":"51","type":"t_address"},{"astId":283,"contract":"contracts/EngineV1.sol:EngineV1","label":"__gap","offset":0,"slot":"52","type":"t_array(t_uint256)49_storage"},{"astId":7879,"contract":"contracts/EngineV1.sol:EngineV1","label":"baseToken","offset":0,"slot":"101","type":"t_contract(IBaseToken)10661"},{"astId":7881,"contract":"contracts/EngineV1.sol:EngineV1","label":"treasury","offset":0,"slot":"102","type":"t_address"},{"astId":7883,"contract":"contracts/EngineV1.sol:EngineV1","label":"pauser","offset":0,"slot":"103","type":"t_address"},{"astId":7885,"contract":"contracts/EngineV1.sol:EngineV1","label":"paused","offset":20,"slot":"103","type":"t_bool"},{"astId":7887,"contract":"contracts/EngineV1.sol:EngineV1","label":"accruedFees","offset":0,"slot":"104","type":"t_uint256"},{"astId":7889,"contract":"contracts/EngineV1.sol:EngineV1","label":"prevhash","offset":0,"slot":"105","type":"t_bytes32"},{"astId":7891,"contract":"contracts/EngineV1.sol:EngineV1","label":"startBlockTime","offset":0,"slot":"106","type":"t_uint64"},{"astId":7893,"contract":"contracts/EngineV1.sol:EngineV1","label":"version","offset":0,"slot":"107","type":"t_uint256"},{"astId":7895,"contract":"contracts/EngineV1.sol:EngineV1","label":"validatorMinimumPercentage","offset":0,"slot":"108","type":"t_uint256"},{"astId":7897,"contract":"contracts/EngineV1.sol:EngineV1","label":"slashAmountPercentage","offset":0,"slot":"109","type":"t_uint256"},{"astId":7899,"contract":"contracts/EngineV1.sol:EngineV1","label":"solutionFeePercentage","offset":0,"slot":"110","type":"t_uint256"},{"astId":7901,"contract":"contracts/EngineV1.sol:EngineV1","label":"retractionFeePercentage","offset":0,"slot":"111","type":"t_uint256"},{"astId":7903,"contract":"contracts/EngineV1.sol:EngineV1","label":"treasuryRewardPercentage","offset":0,"slot":"112","type":"t_uint256"},{"astId":7905,"contract":"contracts/EngineV1.sol:EngineV1","label":"minClaimSolutionTime","offset":0,"slot":"113","type":"t_uint256"},{"astId":7907,"contract":"contracts/EngineV1.sol:EngineV1","label":"minRetractionWaitTime","offset":0,"slot":"114","type":"t_uint256"},{"astId":7909,"contract":"contracts/EngineV1.sol:EngineV1","label":"minContestationVotePeriodTime","offset":0,"slot":"115","type":"t_uint256"},{"astId":7911,"contract":"contracts/EngineV1.sol:EngineV1","label":"maxContestationValidatorStakeSince","offset":0,"slot":"116","type":"t_uint256"},{"astId":7913,"contract":"contracts/EngineV1.sol:EngineV1","label":"exitValidatorMinUnlockTime","offset":0,"slot":"117","type":"t_uint256"},{"astId":7918,"contract":"contracts/EngineV1.sol:EngineV1","label":"models","offset":0,"slot":"118","type":"t_mapping(t_bytes32,t_struct(Model)7831_storage)"},{"astId":7923,"contract":"contracts/EngineV1.sol:EngineV1","label":"validators","offset":0,"slot":"119","type":"t_mapping(t_address,t_struct(Validator)7838_storage)"},{"astId":7927,"contract":"contracts/EngineV1.sol:EngineV1","label":"pendingValidatorWithdrawRequestsCount","offset":0,"slot":"120","type":"t_mapping(t_address,t_uint256)"},{"astId":7934,"contract":"contracts/EngineV1.sol:EngineV1","label":"pendingValidatorWithdrawRequests","offset":0,"slot":"121","type":"t_mapping(t_address,t_mapping(t_uint256,t_struct(PendingValidatorWithdrawRequest)7843_storage))"},{"astId":7938,"contract":"contracts/EngineV1.sol:EngineV1","label":"validatorWithdrawPendingAmount","offset":0,"slot":"122","type":"t_mapping(t_address,t_uint256)"},{"astId":7943,"contract":"contracts/EngineV1.sol:EngineV1","label":"tasks","offset":0,"slot":"123","type":"t_mapping(t_bytes32,t_struct(Task)7856_storage)"},{"astId":7947,"contract":"contracts/EngineV1.sol:EngineV1","label":"commitments","offset":0,"slot":"124","type":"t_mapping(t_bytes32,t_uint256)"},{"astId":7952,"contract":"contracts/EngineV1.sol:EngineV1","label":"solutions","offset":0,"slot":"125","type":"t_mapping(t_bytes32,t_struct(Solution)7865_storage)"},{"astId":7957,"contract":"contracts/EngineV1.sol:EngineV1","label":"contestations","offset":0,"slot":"126","type":"t_mapping(t_bytes32,t_struct(Contestation)7874_storage)"},{"astId":7963,"contract":"contracts/EngineV1.sol:EngineV1","label":"contestationVoted","offset":0,"slot":"127","type":"t_mapping(t_bytes32,t_mapping(t_address,t_bool))"},{"astId":7967,"contract":"contracts/EngineV1.sol:EngineV1","label":"contestationVotedIndex","offset":0,"slot":"128","type":"t_mapping(t_bytes32,t_uint256)"},{"astId":7972,"contract":"contracts/EngineV1.sol:EngineV1","label":"contestationVoteYeas","offset":0,"slot":"129","type":"t_mapping(t_bytes32,t_array(t_address)dyn_storage)"},{"astId":7977,"contract":"contracts/EngineV1.sol:EngineV1","label":"contestationVoteNays","offset":0,"slot":"130","type":"t_mapping(t_bytes32,t_array(t_address)dyn_storage)"},{"astId":7981,"contract":"contracts/EngineV1.sol:EngineV1","label":"__gap","offset":0,"slot":"131","type":"t_array(t_uint256)48_storage"}],"types":{"t_address":{"encoding":"inplace","label":"address","numberOfBytes":"20"},"t_array(t_address)dyn_storage":{"base":"t_address","encoding":"dynamic_array","label":"address[]","numberOfBytes":"32"},"t_array(t_uint256)48_storage":{"base":"t_uint256","encoding":"inplace","label":"uint256[48]","numberOfBytes":"1536"},"t_array(t_uint256)49_storage":{"base":"t_uint256","encoding":"inplace","label":"uint256[49]","numberOfBytes":"1568"},"t_array(t_uint256)50_storage":{"base":"t_uint256","encoding":"inplace","label":"uint256[50]","numberOfBytes":"1600"},"t_bool":{"encoding":"inplace","label":"bool","numberOfBytes":"1"},"t_bytes32":{"encoding":"inplace","label":"bytes32","numberOfBytes":"32"},"t_bytes_storage":{"encoding":"bytes","label":"bytes","numberOfBytes":"32"},"t_contract(IBaseToken)10661":{"encoding":"inplace","label":"contract IBaseToken","numberOfBytes":"20"},"t_mapping(t_address,t_bool)":{"encoding":"mapping","key":"t_address","label":"mapping(address => bool)","numberOfBytes":"32","value":"t_bool"},"t_mapping(t_address,t_mapping(t_uint256,t_struct(PendingValidatorWithdrawRequest)7843_storage))":{"encoding":"mapping","key":"t_address","label":"mapping(address => mapping(uint256 => struct PendingValidatorWithdrawRequest))","numberOfBytes":"32","value":"t_mapping(t_uint256,t_struct(PendingValidatorWithdrawRequest)7843_storage)"},"t_mapping(t_address,t_struct(Validator)7838_storage)":{"encoding":"mapping","key":"t_address","label":"mapping(address => struct Validator)","numberOfBytes":"32","value":"t_struct(Validator)7838_storage"},"t_mapping(t_address,t_uint256)":{"encoding":"mapping","key":"t_address","label":"mapping(address => uint256)","numberOfBytes":"32","value":"t_uint256"},"t_mapping(t_bytes32,t_array(t_address)dyn_storage)":{"encoding":"mapping","key":"t_bytes32","label":"mapping(bytes32 => address[])","numberOfBytes":"32","value":"t_array(t_address)dyn_storage"},"t_mapping(t_bytes32,t_mapping(t_address,t_bool))":{"encoding":"mapping","key":"t_bytes32","label":"mapping(bytes32 => mapping(address => bool))","numberOfBytes":"32","value":"t_mapping(t_address,t_bool)"},"t_mapping(t_bytes32,t_struct(Contestation)7874_storage)":{"encoding":"mapping","key":"t_bytes32","label":"mapping(bytes32 => struct Contestation)","numberOfBytes":"32","value":"t_struct(Contestation)7874_storage"},"t_mapping(t_bytes32,t_struct(Model)7831_storage)":{"encoding":"mapping","key":"t_bytes32","label":"mapping(bytes32 => struct Model)","numberOfBytes":"32","value":"t_struct(Model)7831_storage"},"t_mapping(t_bytes32,t_struct(Solution)7865_storage)":{"encoding":"mapping","key":"t_bytes32","label":"mapping(bytes32 => struct Solution)","numberOfBytes":"32","value":"t_struct(Solution)7865_storage"},"t_mapping(t_bytes32,t_struct(Task)7856_storage)":{"encoding":"mapping","key":"t_bytes32","label":"mapping(bytes32 => struct Task)","numberOfBytes":"32","value":"t_struct(Task)7856_storage"},"t_mapping(t_bytes32,t_uint256)":{"encoding":"mapping","key":"t_bytes32","label":"mapping(bytes32 => uint256)","numberOfBytes":"32","value":"t_uint256"},"t_mapping(t_uint256,t_struct(PendingValidatorWithdrawRequest)7843_storage)":{"encoding":"mapping","key":"t_uint256","label":"mapping(uint256 => struct PendingValidatorWithdrawRequest)","numberOfBytes":"32","value":"t_struct(PendingValidatorWithdrawRequest)7843_storage"},"t_struct(Contestation)7874_storage":{"encoding":"inplace","label":"struct Contestation","members":[{"astId":7867,"contract":"contracts/EngineV1.sol:EngineV1","label":"validator","offset":0,"slot":"0","type":"t_address"},{"astId":7869,"contract":"contracts/EngineV1.sol:EngineV1","label":"blocktime","offset":20,"slot":"0","type":"t_uint64"},{"astId":7871,"contract":"contracts/EngineV1.sol:EngineV1","label":"finish_start_index","offset":28,"slot":"0","type":"t_uint32"},{"astId":7873,"contract":"contracts/EngineV1.sol:EngineV1","label":"slashAmount","offset":0,"slot":"1","type":"t_uint256"}],"numberOfBytes":"64"},"t_struct(Model)7831_storage":{"encoding":"inplace","label":"struct Model","members":[{"astId":7824,"contract":"contracts/EngineV1.sol:EngineV1","label":"fee","offset":0,"slot":"0","type":"t_uint256"},{"astId":7826,"contract":"contracts/EngineV1.sol:EngineV1","label":"addr","offset":0,"slot":"1","type":"t_address"},{"astId":7828,"contract":"contracts/EngineV1.sol:EngineV1","label":"rate","offset":0,"slot":"2","type":"t_uint256"},{"astId":7830,"contract":"contracts/EngineV1.sol:EngineV1","label":"cid","offset":0,"slot":"3","type":"t_bytes_storage"}],"numberOfBytes":"128"},"t_struct(PendingValidatorWithdrawRequest)7843_storage":{"encoding":"inplace","label":"struct PendingValidatorWithdrawRequest","members":[{"astId":7840,"contract":"contracts/EngineV1.sol:EngineV1","label":"unlockTime","offset":0,"slot":"0","type":"t_uint256"},{"astId":7842,"contract":"contracts/EngineV1.sol:EngineV1","label":"amount","offset":0,"slot":"1","type":"t_uint256"}],"numberOfBytes":"64"},"t_struct(Solution)7865_storage":{"encoding":"inplace","label":"struct Solution","members":[{"astId":7858,"contract":"contracts/EngineV1.sol:EngineV1","label":"validator","offset":0,"slot":"0","type":"t_address"},{"astId":7860,"contract":"contracts/EngineV1.sol:EngineV1","label":"blocktime","offset":20,"slot":"0","type":"t_uint64"},{"astId":7862,"contract":"contracts/EngineV1.sol:EngineV1","label":"claimed","offset":28,"slot":"0","type":"t_bool"},{"astId":7864,"contract":"contracts/EngineV1.sol:EngineV1","label":"cid","offset":0,"slot":"1","type":"t_bytes_storage"}],"numberOfBytes":"64"},"t_struct(Task)7856_storage":{"encoding":"inplace","label":"struct Task","members":[{"astId":7845,"contract":"contracts/EngineV1.sol:EngineV1","label":"model","offset":0,"slot":"0","type":"t_bytes32"},{"astId":7847,"contract":"contracts/EngineV1.sol:EngineV1","label":"fee","offset":0,"slot":"1","type":"t_uint256"},{"astId":7849,"contract":"contracts/EngineV1.sol:EngineV1","label":"owner","offset":0,"slot":"2","type":"t_address"},{"astId":7851,"contract":"contracts/EngineV1.sol:EngineV1","label":"blocktime","offset":20,"slot":"2","type":"t_uint64"},{"astId":7853,"contract":"contracts/EngineV1.sol:EngineV1","label":"version","offset":28,"slot":"2","type":"t_uint8"},{"astId":7855,"contract":"contracts/EngineV1.sol:EngineV1","label":"cid","offset":0,"slot":"3","type":"t_bytes_storage"}],"numberOfBytes":"128"},"t_struct(Validator)7838_storage":{"encoding":"inplace","label":"struct Validator","members":[{"astId":7833,"contract":"contracts/EngineV1.sol:EngineV1","label":"staked","offset":0,"slot":"0","type":"t_uint256"},{"astId":7835,"contract":"contracts/EngineV1.sol:EngineV1","label":"since","offset":0,"slot":"1","type":"t_uint256"},{"astId":7837,"contract":"contracts/EngineV1.sol:EngineV1","label":"addr","offset":0,"slot":"2","type":"t_address"}],"numberOfBytes":"96"},"t_uint256":{"encoding":"inplace","label":"uint256","numberOfBytes":"32"},"t_uint32":{"encoding":"inplace","label":"uint32","numberOfBytes":"4"},"t_uint64":{"encoding":"inplace","label":"uint64","numberOfBytes":"8"},"t_uint8":{"encoding":"inplace","label":"uint8","numberOfBytes":"1"}}}}}}