{"contracts/V2_EngineV1.sol":{"V2_EngineV1":{"abi":[{"inputs":[],"stateMutability":"nonpayable","type":"constructor"},{"inputs":[{"internalType":"uint256","name":"x","type":"uint256"},{"internalType":"uint256","name":"y","type":"uint256"}],"name":"PRBMath_MulDiv18_Overflow","type":"error"},{"inputs":[{"internalType":"uint256","name":"x","type":"uint256"},{"internalType":"uint256","name":"y","type":"uint256"},{"internalType":"uint256","name":"denominator","type":"uint256"}],"name":"PRBMath_MulDiv_Overflow","type":"error"},{"inputs":[],"name":"PRBMath_SD59x18_Abs_MinSD59x18","type":"error"},{"inputs":[],"name":"PRBMath_SD59x18_Div_InputTooSmall","type":"error"},{"inputs":[{"internalType":"SD59x18","name":"x","type":"int256"},{"internalType":"SD59x18","name":"y","type":"int256"}],"name":"PRBMath_SD59x18_Div_Overflow","type":"error"},{"inputs":[{"internalType":"SD59x18","name":"x","type":"int256"}],"name":"PRBMath_SD59x18_Exp2_InputTooBig","type":"error"},{"inputs":[],"name":"PRBMath_SD59x18_Mul_InputTooSmall","type":"error"},{"inputs":[{"internalType":"SD59x18","name":"x","type":"int256"},{"internalType":"SD59x18","name":"y","type":"int256"}],"name":"PRBMath_SD59x18_Mul_Overflow","type":"error"},{"inputs":[{"internalType":"UD60x18","name":"x","type":"uint256"}],"name":"PRBMath_UD60x18_Exp2_InputTooBig","type":"error"},{"anonymous":false,"inputs":[{"indexed":true,"internalType":"address","name":"addr","type":"address"},{"indexed":true,"internalType":"bytes32","name":"task","type":"bytes32"}],"name":"ContestationSubmitted","type":"event"},{"anonymous":false,"inputs":[{"indexed":true,"internalType":"address","name":"addr","type":"address"},{"indexed":true,"internalType":"bytes32","name":"task","type":"bytes32"},{"indexed":false,"internalType":"bool","name":"yea","type":"bool"}],"name":"ContestationVote","type":"event"},{"anonymous":false,"inputs":[{"indexed":true,"internalType":"bytes32","name":"id","type":"bytes32"},{"indexed":true,"internalType":"uint32","name":"start_idx","type":"uint32"},{"indexed":false,"internalType":"uint32","name":"end_idx","type":"uint32"}],"name":"ContestationVoteFinish","type":"event"},{"anonymous":false,"inputs":[{"indexed":true,"internalType":"uint256","name":"amount","type":"uint256"}],"name":"ExitValidatorMinUnlockTimeChanged","type":"event"},{"anonymous":false,"inputs":[{"indexed":false,"internalType":"uint8","name":"version","type":"uint8"}],"name":"Initialized","type":"event"},{"anonymous":false,"inputs":[{"indexed":true,"internalType":"uint256","name":"amount","type":"uint256"}],"name":"MaxContestationValidatorStakeSinceChanged","type":"event"},{"anonymous":false,"inputs":[{"indexed":true,"internalType":"uint256","name":"amount","type":"uint256"}],"name":"MinClaimSolutionTimeChanged","type":"event"},{"anonymous":false,"inputs":[{"indexed":true,"internalType":"uint256","name":"amount","type":"uint256"}],"name":"MinContestationVotePeriodTimeChanged","type":"event"},{"anonymous":false,"inputs":[{"indexed":true,"internalType":"uint256","name":"amount","type":"uint256"}],"name":"MinRetractionWaitTimeChanged","type":"event"},{"anonymous":false,"inputs":[{"indexed":true,"internalType":"bytes32","name":"id","type":"bytes32"}],"name":"ModelRegistered","type":"event"},{"anonymous":false,"inputs":[{"indexed":true,"internalType":"address","name":"previousOwner","type":"address"},{"indexed":true,"internalType":"address","name":"newOwner","type":"address"}],"name":"OwnershipTransferred","type":"event"},{"anonymous":false,"inputs":[{"indexed":true,"internalType":"bool","name":"paused","type":"bool"}],"name":"PausedChanged","type":"event"},{"anonymous":false,"inputs":[{"indexed":true,"internalType":"address","name":"to","type":"address"}],"name":"PauserTransferred","type":"event"},{"anonymous":false,"inputs":[{"indexed":true,"internalType":"uint256","name":"amount","type":"uint256"}],"name":"RetractionFeePercentageChanged","type":"event"},{"anonymous":false,"inputs":[{"indexed":true,"internalType":"address","name":"addr","type":"address"},{"indexed":true,"internalType":"bytes32","name":"commitment","type":"bytes32"}],"name":"SignalCommitment","type":"event"},{"anonymous":false,"inputs":[{"indexed":true,"internalType":"address","name":"addr","type":"address"},{"indexed":true,"internalType":"bytes32","name":"model","type":"bytes32"},{"indexed":false,"internalType":"bool","name":"supported","type":"bool"}],"name":"SignalSupport","type":"event"},{"anonymous":false,"inputs":[{"indexed":true,"internalType":"uint256","name":"amount","type":"uint256"}],"name":"SlashAmountPercentageChanged","type":"event"},{"anonymous":false,"inputs":[{"indexed":true,"internalType":"address","name":"addr","type":"address"},{"indexed":true,"internalType":"bytes32","name":"task","type":"bytes32"}],"name":"SolutionClaimed","type":"event"},{"anonymous":false,"inputs":[{"indexed":true,"internalType":"uint256","name":"amount","type":"uint256"}],"name":"SolutionFeePercentageChanged","type":"event"},{"anonymous":false,"inputs":[{"indexed":true,"internalType":"bytes32","name":"id","type":"bytes32"},{"indexed":false,"internalType":"uint256","name":"rate","type":"uint256"}],"name":"SolutionMineableRateChange","type":"event"},{"anonymous":false,"inputs":[{"indexed":true,"internalType":"address","name":"addr","type":"address"},{"indexed":true,"internalType":"bytes32","name":"task","type":"bytes32"}],"name":"SolutionSubmitted","type":"event"},{"anonymous":false,"inputs":[{"indexed":true,"internalType":"bytes32","name":"id","type":"bytes32"}],"name":"TaskRetracted","type":"event"},{"anonymous":false,"inputs":[{"indexed":true,"internalType":"bytes32","name":"id","type":"bytes32"},{"indexed":true,"internalType":"bytes32","name":"model","type":"bytes32"},{"indexed":false,"internalType":"uint256","name":"fee","type":"uint256"},{"indexed":true,"internalType":"address","name":"sender","type":"address"}],"name":"TaskSubmitted","type":"event"},{"anonymous":false,"inputs":[{"indexed":true,"internalType":"uint256","name":"amount","type":"uint256"}],"name":"TreasuryRewardPercentageChanged","type":"event"},{"anonymous":false,"inputs":[{"indexed":true,"internalType":"address","name":"to","type":"address"}],"name":"TreasuryTransferred","type":"event"},{"anonymous":false,"inputs":[{"indexed":true,"internalType":"address","name":"addr","type":"address"},{"indexed":true,"internalType":"address","name":"validator","type":"address"},{"indexed":false,"internalType":"uint256","name":"amount","type":"uint256"}],"name":"ValidatorDeposit","type":"event"},{"anonymous":false,"inputs":[{"indexed":true,"internalType":"uint256","name":"amount","type":"uint256"}],"name":"ValidatorMinimumPercentageChanged","type":"event"},{"anonymous":false,"inputs":[{"indexed":true,"internalType":"address","name":"addr","type":"address"},{"indexed":true,"internalType":"address","name":"to","type":"address"},{"indexed":true,"internalType":"uint256","name":"count","type":"uint256"},{"indexed":false,"internalType":"uint256","name":"amount","type":"uint256"}],"name":"ValidatorWithdraw","type":"event"},{"anonymous":false,"inputs":[{"indexed":true,"internalType":"address","name":"addr","type":"address"},{"indexed":true,"internalType":"uint256","name":"count","type":"uint256"}],"name":"ValidatorWithdrawCancelled","type":"event"},{"anonymous":false,"inputs":[{"indexed":true,"internalType":"address","name":"addr","type":"address"},{"indexed":true,"internalType":"uint256","name":"count","type":"uint256"},{"indexed":false,"internalType":"uint256","name":"unlockTime","type":"uint256"},{"indexed":false,"internalType":"uint256","name":"amount","type":"uint256"}],"name":"ValidatorWithdrawInitiated","type":"event"},{"anonymous":false,"inputs":[{"indexed":false,"internalType":"uint256","name":"version","type":"uint256"}],"name":"VersionChanged","type":"event"},{"inputs":[],"name":"accruedFees","outputs":[{"internalType":"uint256","name":"","type":"uint256"}],"stateMutability":"view","type":"function"},{"inputs":[],"name":"baseToken","outputs":[{"internalType":"contract IBaseToken","name":"","type":"address"}],"stateMutability":"view","type":"function"},{"inputs":[{"internalType":"uint256","name":"count_","type":"uint256"}],"name":"cancelValidatorWithdraw","outputs":[],"stateMutability":"nonpayable","type":"function"},{"inputs":[{"internalType":"bytes32","name":"taskid_","type":"bytes32"}],"name":"claimSolution","outputs":[],"stateMutability":"nonpayable","type":"function"},{"inputs":[{"internalType":"bytes32","name":"","type":"bytes32"}],"name":"commitments","outputs":[{"internalType":"uint256","name":"","type":"uint256"}],"stateMutability":"view","type":"function"},{"inputs":[{"internalType":"bytes32","name":"taskid_","type":"bytes32"},{"internalType":"uint32","name":"amnt_","type":"uint32"}],"name":"contestationVoteFinish","outputs":[],"stateMutability":"nonpayable","type":"function"},{"inputs":[{"internalType":"bytes32","name":"","type":"bytes32"},{"internalType":"uint256","name":"","type":"uint256"}],"name":"contestationVoteNays","outputs":[{"internalType":"address","name":"","type":"address"}],"stateMutability":"view","type":"function"},{"inputs":[{"internalType":"bytes32","name":"","type":"bytes32"},{"internalType":"uint256","name":"","type":"uint256"}],"name":"contestationVoteYeas","outputs":[{"internalType":"address","name":"","type":"address"}],"stateMutability":"view","type":"function"},{"inputs":[{"internalType":"bytes32","name":"","type":"bytes32"},{"internalType":"address","name":"","type":"address"}],"name":"contestationVoted","outputs":[{"internalType":"bool","name":"","type":"bool"}],"stateMutability":"view","type":"function"},{"inputs":[{"internalType":"bytes32","name":"","type":"bytes32"}],"name":"contestationVotedIndex","outputs":[{"internalType":"uint256","name":"","type":"uint256"}],"stateMutability":"view","type":"function"},{"inputs":[{"internalType":"bytes32","name":"","type":"bytes32"}],"name":"contestations","outputs":[{"internalType":"address","name":"validator","type":"address"},{"internalType":"uint64","name":"blocktime","type":"uint64"},{"internalType":"uint32","name":"finish_start_index","type":"uint32"},{"internalType":"uint256","name":"slashAmount","type":"uint256"}],"stateMutability":"view","type":"function"},{"inputs":[{"internalType":"uint256","name":"t","type":"uint256"},{"internalType":"uint256","name":"ts","type":"uint256"}],"name":"diffMul","outputs":[{"internalType":"uint256","name":"","type":"uint256"}],"stateMutability":"pure","type":"function"},{"inputs":[],"name":"exitValidatorMinUnlockTime","outputs":[{"internalType":"uint256","name":"","type":"uint256"}],"stateMutability":"view","type":"function"},{"inputs":[{"internalType":"address","name":"sender_","type":"address"},{"internalType":"bytes32","name":"taskid_","type":"bytes32"},{"internalType":"bytes","name":"cid_","type":"bytes"}],"name":"generateCommitment","outputs":[{"internalType":"bytes32","name":"","type":"bytes32"}],"stateMutability":"pure","type":"function"},{"inputs":[{"internalType":"bytes","name":"content_","type":"bytes"}],"name":"generateIPFSCID","outputs":[{"internalType":"bytes","name":"","type":"bytes"}],"stateMutability":"pure","type":"function"},{"inputs":[],"name":"getPsuedoTotalSupply","outputs":[{"internalType":"uint256","name":"","type":"uint256"}],"stateMutability":"view","type":"function"},{"inputs":[],"name":"getReward","outputs":[{"internalType":"uint256","name":"","type":"uint256"}],"stateMutability":"view","type":"function"},{"inputs":[],"name":"getSlashAmount","outputs":[{"internalType":"uint256","name":"","type":"uint256"}],"stateMutability":"view","type":"function"},{"inputs":[],"name":"getValidatorMinimum","outputs":[{"internalType":"uint256","name":"","type":"uint256"}],"stateMutability":"view","type":"function"},{"inputs":[{"components":[{"internalType":"uint256","name":"fee","type":"uint256"},{"internalType":"address","name":"addr","type":"address"},{"internalType":"uint256","name":"rate","type":"uint256"},{"internalType":"bytes","name":"cid","type":"bytes"}],"internalType":"struct Model","name":"o_","type":"tuple"},{"internalType":"address","name":"sender_","type":"address"}],"name":"hashModel","outputs":[{"internalType":"bytes32","name":"","type":"bytes32"}],"stateMutability":"pure","type":"function"},{"inputs":[{"components":[{"internalType":"bytes32","name":"model","type":"bytes32"},{"internalType":"uint256","name":"fee","type":"uint256"},{"internalType":"address","name":"owner","type":"address"},{"internalType":"uint64","name":"blocktime","type":"uint64"},{"internalType":"uint8","name":"version","type":"uint8"},{"internalType":"bytes","name":"cid","type":"bytes"}],"internalType":"struct Task","name":"o_","type":"tuple"},{"internalType":"address","name":"sender_","type":"address"},{"internalType":"bytes32","name":"prevhash_","type":"bytes32"}],"name":"hashTask","outputs":[{"internalType":"bytes32","name":"","type":"bytes32"}],"stateMutability":"pure","type":"function"},{"inputs":[{"internalType":"contract IBaseToken","name":"baseToken_","type":"address"},{"internalType":"address","name":"treasury_","type":"address"}],"name":"initialize","outputs":[],"stateMutability":"nonpayable","type":"function"},{"inputs":[{"internalType":"uint256","name":"amount_","type":"uint256"}],"name":"initiateValidatorWithdraw","outputs":[{"internalType":"uint256","name":"","type":"uint256"}],"stateMutability":"nonpayable","type":"function"},{"inputs":[],"name":"maxContestationValidatorStakeSince","outputs":[{"internalType":"uint256","name":"","type":"uint256"}],"stateMutability":"view","type":"function"},{"inputs":[{"internalType":"address","name":"engine_","type":"address"},{"internalType":"address","name":"validator_","type":"address"}],"name":"migrateValidator","outputs":[],"stateMutability":"nonpayable","type":"function"},{"inputs":[],"name":"minClaimSolutionTime","outputs":[{"internalType":"uint256","name":"","type":"uint256"}],"stateMutability":"view","type":"function"},{"inputs":[],"name":"minContestationVotePeriodTime","outputs":[{"internalType":"uint256","name":"","type":"uint256"}],"stateMutability":"view","type":"function"},{"inputs":[],"name":"minRetractionWaitTime","outputs":[{"internalType":"uint256","name":"","type":"uint256"}],"stateMutability":"view","type":"function"},{"inputs":[{"internalType":"bytes32","name":"","type":"bytes32"}],"name":"models","outputs":[{"internalType":"uint256","name":"fee","type":"uint256"},{"internalType":"address","name":"addr","type":"address"},{"internalType":"uint256","name":"rate","type":"uint256"},{"internalType":"bytes","name":"cid","type":"bytes"}],"stateMutability":"view","type":"function"},{"inputs":[],"name":"owner","outputs":[{"internalType":"address","name":"","type":"address"}],"stateMutability":"view","type":"function"},{"inputs":[],"name":"paused","outputs":[{"internalType":"bool","name":"","type":"bool"}],"stateMutability":"view","type":"function"},{"inputs":[],"name":"pauser","outputs":[{"internalType":"address","name":"","type":"address"}],"stateMutability":"view","type":"function"},{"inputs":[{"internalType":"address","name":"","type":"address"},{"internalType":"uint256","name":"","type":"uint256"}],"name":"pendingValidatorWithdrawRequests","outputs":[{"internalType":"uint256","name":"unlockTime","type":"uint256"},{"internalType":"uint256","name":"amount","type":"uint256"}],"stateMutability":"view","type":"function"},{"inputs":[{"internalType":"address","name":"","type":"address"}],"name":"pendingValidatorWithdrawRequestsCount","outputs":[{"internalType":"uint256","name":"","type":"uint256"}],"stateMutability":"view","type":"function"},{"inputs":[],"name":"prevhash","outputs":[{"internalType":"bytes32","name":"","type":"bytes32"}],"stateMutability":"view","type":"function"},{"inputs":[{"internalType":"address","name":"addr_","type":"address"},{"internalType":"uint256","name":"fee_","type":"uint256"},{"internalType":"bytes","name":"template_","type":"bytes"}],"name":"registerModel","outputs":[{"internalType":"bytes32","name":"","type":"bytes32"}],"stateMutability":"nonpayable","type":"function"},{"inputs":[],"name":"renounceOwnership","outputs":[],"stateMutability":"nonpayable","type":"function"},{"inputs":[{"internalType":"bytes32","name":"taskid_","type":"bytes32"}],"name":"retractTask","outputs":[],"stateMutability":"nonpayable","type":"function"},{"inputs":[],"name":"retractionFeePercentage","outputs":[{"internalType":"uint256","name":"","type":"uint256"}],"stateMutability":"view","type":"function"},{"inputs":[{"internalType":"uint256","name":"t","type":"uint256"},{"internalType":"uint256","name":"ts","type":"uint256"}],"name":"reward","outputs":[{"internalType":"uint256","name":"","type":"uint256"}],"stateMutability":"pure","type":"function"},{"inputs":[{"internalType":"uint256","name":"amount_","type":"uint256"}],"name":"setExitValidatorMinUnlockTime","outputs":[],"stateMutability":"nonpayable","type":"function"},{"inputs":[{"internalType":"uint256","name":"amount_","type":"uint256"}],"name":"setMaxContestationValidatorStakeSince","outputs":[],"stateMutability":"nonpayable","type":"function"},{"inputs":[{"internalType":"uint256","name":"amount_","type":"uint256"}],"name":"setMinClaimSolutionTime","outputs":[],"stateMutability":"nonpayable","type":"function"},{"inputs":[{"internalType":"uint256","name":"amount_","type":"uint256"}],"name":"setMinContestationVotePeriodTime","outputs":[],"stateMutability":"nonpayable","type":"function"},{"inputs":[{"internalType":"uint256","name":"amount_","type":"uint256"}],"name":"setMinRetractionWaitTime","outputs":[],"stateMutability":"nonpayable","type":"function"},{"inputs":[{"internalType":"bool","name":"paused_","type":"bool"}],"name":"setPaused","outputs":[],"stateMutability":"nonpayable","type":"function"},{"inputs":[{"internalType":"uint256","name":"amount_","type":"uint256"}],"name":"setRetractionFeePercentage","outputs":[],"stateMutability":"nonpayable","type":"function"},{"inputs":[{"internalType":"uint256","name":"amount_","type":"uint256"}],"name":"setSlashAmountPercentage","outputs":[],"stateMutability":"nonpayable","type":"function"},{"inputs":[{"internalType":"uint256","name":"amount_","type":"uint256"}],"name":"setSolutionFeePercentage","outputs":[],"stateMutability":"nonpayable","type":"function"},{"inputs":[{"internalType":"bytes32","name":"model_","type":"bytes32"},{"internalType":"uint256","name":"rate_","type":"uint256"}],"name":"setSolutionMineableRate","outputs":[],"stateMutability":"nonpayable","type":"function"},{"inputs":[{"internalType":"uint256","name":"amount_","type":"uint256"}],"name":"setTreasuryRewardPercentage","outputs":[],"stateMutability":"nonpayable","type":"function"},{"inputs":[{"internalType":"uint256","name":"amount_","type":"uint256"}],"name":"setValidatorMinimumPercentage","outputs":[],"stateMutability":"nonpayable","type":"function"},{"inputs":[{"internalType":"uint256","name":"version_","type":"uint256"}],"name":"setVersion","outputs":[],"stateMutability":"nonpayable","type":"function"},{"inputs":[{"internalType":"bytes32","name":"commitment_","type":"bytes32"}],"name":"signalCommitment","outputs":[],"stateMutability":"nonpayable","type":"function"},{"inputs":[{"internalType":"bytes32","name":"model_","type":"bytes32"},{"internalType":"bool","name":"support_","type":"bool"}],"name":"signalSupport","outputs":[],"stateMutability":"nonpayable","type":"function"},{"inputs":[],"name":"slashAmountPercentage","outputs":[{"internalType":"uint256","name":"","type":"uint256"}],"stateMutability":"view","type":"function"},{"inputs":[],"name":"solutionFeePercentage","outputs":[{"internalType":"uint256","name":"","type":"uint256"}],"stateMutability":"view","type":"function"},{"inputs":[{"internalType":"bytes32","name":"","type":"bytes32"}],"name":"solutions","outputs":[{"internalType":"address","name":"validator","type":"address"},{"internalType":"uint64","name":"blocktime","type":"uint64"},{"internalType":"bool","name":"claimed","type":"bool"},{"internalType":"bytes","name":"cid","type":"bytes"}],"stateMutability":"view","type":"function"},{"inputs":[],"name":"startBlockTime","outputs":[{"internalType":"uint64","name":"","type":"uint64"}],"stateMutability":"view","type":"function"},{"inputs":[{"internalType":"bytes32","name":"taskid_","type":"bytes32"}],"name":"submitContestation","outputs":[],"stateMutability":"nonpayable","type":"function"},{"inputs":[{"internalType":"bytes32","name":"taskid_","type":"bytes32"},{"internalType":"bytes","name":"cid_","type":"bytes"}],"name":"submitSolution","outputs":[],"stateMutability":"nonpayable","type":"function"},{"inputs":[{"internalType":"uint8","name":"version_","type":"uint8"},{"internalType":"address","name":"owner_","type":"address"},{"internalType":"bytes32","name":"model_","type":"bytes32"},{"internalType":"uint256","name":"fee_","type":"uint256"},{"internalType":"bytes","name":"input_","type":"bytes"}],"name":"submitTask","outputs":[{"internalType":"bytes32","name":"","type":"bytes32"}],"stateMutability":"nonpayable","type":"function"},{"inputs":[{"internalType":"uint256","name":"t","type":"uint256"}],"name":"targetTs","outputs":[{"internalType":"uint256","name":"","type":"uint256"}],"stateMutability":"pure","type":"function"},{"inputs":[{"internalType":"bytes32","name":"","type":"bytes32"}],"name":"tasks","outputs":[{"internalType":"bytes32","name":"model","type":"bytes32"},{"internalType":"uint256","name":"fee","type":"uint256"},{"internalType":"address","name":"owner","type":"address"},{"internalType":"uint64","name":"blocktime","type":"uint64"},{"internalType":"uint8","name":"version","type":"uint8"},{"internalType":"bytes","name":"cid","type":"bytes"}],"stateMutability":"view","type":"function"},{"inputs":[{"internalType":"address","name":"to_","type":"address"}],"name":"transferOwnership","outputs":[],"stateMutability":"nonpayable","type":"function"},{"inputs":[{"internalType":"address","name":"to_","type":"address"}],"name":"transferPauser","outputs":[],"stateMutability":"nonpayable","type":"function"},{"inputs":[{"internalType":"address","name":"to_","type":"address"}],"name":"transferTreasury","outputs":[],"stateMutability":"nonpayable","type":"function"},{"inputs":[],"name":"treasury","outputs":[{"internalType":"address","name":"","type":"address"}],"stateMutability":"view","type":"function"},{"inputs":[],"name":"treasuryRewardPercentage","outputs":[{"internalType":"uint256","name":"","type":"uint256"}],"stateMutability":"view","type":"function"},{"inputs":[{"internalType":"address","name":"addr_","type":"address"},{"internalType":"bytes32","name":"taskid_","type":"bytes32"}],"name":"validatorCanVote","outputs":[{"internalType":"uint256","name":"","type":"uint256"}],"stateMutability":"view","type":"function"},{"inputs":[{"internalType":"address","name":"validator_","type":"address"},{"internalType":"uint256","name":"amount_","type":"uint256"}],"name":"validatorDeposit","outputs":[],"stateMutability":"nonpayable","type":"function"},{"inputs":[],"name":"validatorMinimumPercentage","outputs":[{"internalType":"uint256","name":"","type":"uint256"}],"stateMutability":"view","type":"function"},{"inputs":[{"internalType":"uint256","name":"count_","type":"uint256"},{"internalType":"address","name":"to_","type":"address"}],"name":"validatorWithdraw","outputs":[],"stateMutability":"nonpayable","type":"function"},{"inputs":[{"internalType":"address","name":"","type":"address"}],"name":"validatorWithdrawPendingAmount","outputs":[{"internalType":"uint256","name":"","type":"uint256"}],"stateMutability":"view","type":"function"},{"inputs":[{"internalType":"address","name":"","type":"address"}],"name":"validators","outputs":[{"internalType":"uint256","name":"staked","type":"uint256"},{"internalType":"uint256","name":"since","type":"uint256"},{"internalType":"address","name":"addr","type":"address"}],"stateMutability":"view","type":"function"},{"inputs":[],"name":"version","outputs":[{"internalType":"uint256","name":"","type":"uint256"}],"stateMutability":"view","type":"function"},{"inputs":[{"internalType":"bytes32","name":"taskid_","type":"bytes32"},{"internalType":"bool","name":"yea_","type":"bool"}],"name":"voteOnContestation","outputs":[],"stateMutability":"nonpayable","type":"function"},{"inputs":[],"name":"withdrawAccruedFees","outputs":[],"stateMutability":"nonpayable","type":"function"}],"evm":{"bytecode":{"linkReferences":{},"object":"60806040523480156200001157600080fd5b506200001c62000022565b620000e3565b600054610100900460ff16156200008f5760405162461bcd60e51b815260206004820152602760248201527f496e697469616c697a61626c653a20636f6e747261637420697320696e697469604482015266616c697a696e6760c81b606482015260840160405180910390fd5b60005460ff90811614620000e1576000805460ff191660ff9081179091556040519081527f7f26b83ff96e1f2b6a682f133852f6798a09c465da95921460cefb38474024989060200160405180910390a15b565b615c8c80620000f36000396000f3fe608060405234801561001057600080fd5b50600436106104685760003560e01c8063763253bb1161024c578063ada82c7d11610146578063d2780940116100c3578063e236f46b11610087578063e236f46b14610a8e578063e579f50014610ab1578063f1b8989d14610ad6578063f2fde38b14610adf578063fa52c7d814610af257600080fd5b8063d27809401461096e578063d2992baa1461099c578063d33b2ef5146109e3578063d8a6021c14610a72578063dc06a89f14610a8557600080fd5b8063c55dae631161010a578063c55dae6314610902578063cbd2422d14610915578063cf596e4514610928578063d1f0c9411461093b578063d2307ae41461094e57600080fd5b8063ada82c7d146108c2578063b66badbf146108ca578063c17ddb2a146108dd578063c31784be146108e6578063c3187978146108ef57600080fd5b80638da5cb5b116101d457806396bb02c31161019857806396bb02c3146108775780639fd0506d14610880578063a4fa8d5714610893578063a53e2525146108a6578063aa59e7e7146108af57600080fd5b80638da5cb5b1461082e5780638e6d86fd1461083f578063928094441461084857806393a090ec1461085157806393f1f8ac1461086457600080fd5b80637b36006a1161021b5780637b36006a146107cc5780637b5e01d7146107d557806383657795146107e8578063839df945146107fb5780638b4d7b351461081b57600080fd5b8063763253bb1461078b5780637683dbfb1461079e57806377286d17146107b15780637881c5e6146107c457600080fd5b80633d18b9121161036857806356914caf116102e5578063671f8152116102a9578063671f81521461073b578063682c20581461074e578063715018a61461075757806372dc0ee11461075f57806375c705091461076857600080fd5b806356914caf146106cb5780635b851daa146106de5780635c975abb146106f1578063605cecf61461071557806361d027b31461072857600080fd5b8063485cc9551161032c578063485cc9551461067657806349094d4d146106895780634ff03efa1461069c578063506ea7de146106af57806354fd4d50146106c257600080fd5b80633d18b912146106205780633d57f5d914610628578063408def1e1461063057806340e8c56d146106435780634421ea211461066357600080fd5b80631b2cf4b8116103f657806328c2d36c116103ba57806328c2d36c146105a95780632f9b03e4146105bc578063303fb0d6146105cf57806336f83c4f146105fa578063393cb1c71461060d57600080fd5b80631b2cf4b8146105485780631b75c43e1461055b5780631f88ea1c1461057b578063218a30481461058e5780632258d105146105a157600080fd5b80630c18d4ce1161043d5780630c18d4ce146104c45780631466b63a146104ef57806316c38b3c1461050257806317f3e041146105155780631825c20e1461053557600080fd5b80623f9dd61461046d578062fd70821461048257806308745dd11461049e5780630a985737146104b1575b600080fd5b61048061047b366004615004565b610b4e565b005b61048b60725481565b6040519081526020015b60405180910390f35b61048b6104ac366004615096565b610e06565b61048b6104bf366004615004565b611093565b606a546104d7906001600160401b031681565b6040516001600160401b039091168152602001610495565b61048b6104fd3660046151d9565b6111ee565b6104806105103660046152be565b611235565b61048b610523366004615004565b60806020526000908152604090205481565b6104806105433660046152db565b6112c5565b610480610556366004615004565b61138f565b61048b61056936600461530b565b607a6020526000908152604090205481565b61048b610589366004615328565b6113ca565b61048b61059c36600461534a565b6114f6565b61048b611539565b6104806105b7366004615004565b6115a2565b6104806105ca366004615004565b6115dd565b6105e26105dd366004615328565b611618565b6040516001600160a01b039091168152602001610495565b610480610608366004615004565b611650565b61048b61061b366004615405565b61168b565b61048b6116c4565b61048b6116ee565b61048061063e366004615004565b611733565b610656610651366004615460565b611776565b60405161049591906154f1565b61048061067136600461530b565b611782565b610480610684366004615504565b6117d4565b6104806106973660046152db565b611989565b61048b6106aa366004615405565b611a49565b6104806106bd366004615004565b611c0f565b61048b606b5481565b6104806106d9366004615532565b611cd1565b6104806106ec366004615004565b611fe5565b60675461070590600160a01b900460ff1681565b6040519015158152602001610495565b610480610723366004615004565b612020565b6066546105e2906001600160a01b031681565b610480610749366004615004565b61205b565b61048b60685481565b61048061236d565b61048b606f5481565b61077b610776366004615004565b612381565b604051610495949392919061557d565b6104806107993660046155c2565b61244c565b6104806107ac366004615004565b6126c0565b6104806107bf366004615004565b6126fb565b61048b6128fb565b61048b60735481565b6104806107e3366004615504565b61299b565b61048b6107f63660046155e7565b612a77565b61048b610809366004615004565b607c6020526000908152604090205481565b610480610829366004615613565b612bbf565b6033546001600160a01b03166105e2565b61048b60745481565b61048b60715481565b61048061085f3660046155e7565b6132e9565b610480610872366004615328565b6134cb565b61048b606c5481565b6067546105e2906001600160a01b031681565b61048b6108a1366004615328565b61355e565b61048b60755481565b6104806108bd366004615004565b6135da565b610480613615565b6104806108d8366004615004565b6136c1565b61048b60695481565b61048b60705481565b6104806108fd366004615004565b6136fc565b6065546105e2906001600160a01b031681565b610480610923366004615004565b613737565b61048b610936366004615004565b613850565b6105e2610949366004615328565b6138e4565b61048b61095c36600461530b565b60786020526000908152604090205481565b61070561097c3660046155c2565b607f60209081526000928352604080842090915290825290205460ff1681565b6109ce6109aa3660046155e7565b60796020908152600092835260408084209091529082529020805460019091015482565b60408051928352602083019190915201610495565b610a356109f1366004615004565b607e60205260009081526040902080546001909101546001600160a01b03821691600160a01b81046001600160401b031691600160e01b90910463ffffffff169084565b604080516001600160a01b0390951685526001600160401b03909316602085015263ffffffff909116918301919091526060820152608001610495565b610480610a8036600461530b565b613900565b61048b606d5481565b610aa1610a9c366004615004565b613952565b6040516104959493929190615641565b610ac4610abf366004615004565b61398c565b6040516104959695949392919061566e565b61048b606e5481565b610480610aed36600461530b565b613a65565b610b2a610b0036600461530b565b6077602052600090815260409020805460018201546002909201549091906001600160a01b031683565b6040805193845260208401929092526001600160a01b031690820152606001610495565b606754600160a01b900460ff1615610b815760405162461bcd60e51b8152600401610b78906156bf565b60405180910390fd5b6000818152607b60205260409020600201546001600160a01b03163314610bd65760405162461bcd60e51b81526020600482015260096024820152683737ba1037bbb732b960b91b6044820152606401610b78565b6000818152607d60205260409020546001600160a01b031615610c2a5760405162461bcd60e51b815260206004820152600c60248201526b3430b99039b7b63aba34b7b760a11b6044820152606401610b78565b6072546000828152607b6020526040902060020154610c5990600160a01b90046001600160401b0316426156f5565b11610ca65760405162461bcd60e51b815260206004820152601860248201527f646964206e6f742077616974206c6f6e6720656e6f75676800000000000000006044820152606401610b78565b6000670de0b6b3a7640000606f54670de0b6b3a7640000610cc791906156f5565b6000848152607b6020526040902060010154610ce39190615708565b610ced9190615735565b6000838152607b602052604081206001015491925090610d0e9083906156f5565b60655460405163a9059cbb60e01b81529192506001600160a01b03169063a9059cbb90610d419033908690600401615757565b6020604051808303816000875af1158015610d60573d6000803e3d6000fd5b505050506040513d601f19601f82011682018060405250810190610d849190615770565b508060686000828254610d97919061578d565b90915550506000838152607b60205260408120818155600181018290556002810180546001600160e81b031916905590610dd46003830182614fb6565b505060405183907f446efbf8d207f3e2ede58a6bbde7028a4e308488b6293e6461fbb7c288326e7690600090a2505050565b606754600090600160a01b900460ff1615610e335760405162461bcd60e51b8152600401610b78906156bf565b6000858152607660205260409020600101546001600160a01b0316610e6a5760405162461bcd60e51b8152600401610b78906157a0565b600085815260766020526040902054841015610ec85760405162461bcd60e51b815260206004820152601860248201527f6c6f77657220666565207468616e206d6f64656c2066656500000000000000006044820152606401610b78565b6000610ed48484613a76565b905060006040518060c00160405280888152602001878152602001896001600160a01b03168152602001426001600160401b031681526020018a60ff1681526020018381525090506000610f2b82336069546111ee565b9050336001600160a01b031688827fc3d3e0544c80e3bb83f62659259ae1574f72a91515ab3cae3dd75cf77e1b0aea8a604051610f6a91815260200190565b60405180910390a46065546040516323b872dd60e01b8152336004820152306024820152604481018990526001600160a01b03909116906323b872dd906064016020604051808303816000875af1158015610fc9573d6000803e3d6000fd5b505050506040513d601f19601f82011682018060405250810190610fed9190615770565b506000818152607b602090815260409182902084518155908401516001820155908301516002820180546060860151608087015160ff16600160e01b0260ff60e01b196001600160401b03909216600160a01b026001600160e01b03199093166001600160a01b0390951694909417919091171691909117905560a0830151839190600382019061107e9082615848565b50505060698190559998505050505050505050565b606754600090600160a01b900460ff16156110c05760405162461bcd60e51b8152600401610b78906156bf565b336000908152607a602090815260408083205460779092529091205483916110e7916156f5565b101561110f5760405162461bcd60e51b81526020600482015260006024820152604401610b78565b60006075544261111f919061578d565b336000908152607860205260408120805492935060019290919061114490849061578d565b909155505033600081815260786020908152604080832054815180830183528681528084018981528686526079855283862083875285528386209151825551600190910155938352607a909152812080548692906111a390849061578d565b90915550506040805183815260208101869052829133917fcc7e0e76b20394ef965d71c4111d21e1b322bb8775dc2c7acd29eb0d3c3dd96d910160405180910390a39150505b919050565b60008282856000015186602001518760a00151604051602001611215959493929190615907565b6040516020818303038152906040528051906020012090505b9392505050565b6067546001600160a01b0316331461127c5760405162461bcd60e51b815260206004820152600a6024820152693737ba103830bab9b2b960b11b6044820152606401610b78565b6067805460ff60a01b1916600160a01b831515908102919091179091556040517fd83d5281277e107f080e362699d46082adb74e7dc6a9bccbc87d8ae9533add4490600090a250565b606754600160a01b900460ff16156112ef5760405162461bcd60e51b8152600401610b78906156bf565b6112f7611539565b336000908152607a602090815260408083205460779092529091205461131d91906156f5565b101561133b5760405162461bcd60e51b8152600401610b7890615945565b6113453383612a77565b156113805760405162461bcd60e51b815260206004820152600b60248201526a1b9bdd08185b1b1bddd95960aa1b6044820152606401610b78565b61138b828233613bab565b5050565b611397613ccf565b606e81905560405181907fa9dfc7ca3151b504bdbe971426324a888f97e7e7a52929484c01dff8168058ab90600090a250565b600080831180156113db5750600082115b6114125760405162461bcd60e51b81526020600482015260086024820152676d696e2076616c7360c01b6044820152606401610b78565b600061141d84613850565b9050600061142d825b8590613d29565b9050670cf4ad2e86166c9c8112156114525768056bc75e2d63100000925050506114f0565b670de0b6b3a764000068056bc75e2d63100000600061148f611488846114828561147c8984613dff565b90613e0e565b90613dff565b8490613eb2565b90506801158e460913d0000081126114af576000955050505050506114f0565b6114b98160001390565b156114e1576114d56114d26114cd83613ec1565b613f02565b90565b955050505050506114f0565b6114d56114d261142683613f02565b92915050565b60008183602001518460000151856060015160405160200161151b9493929190615971565b60405160208183030381529060405280519060200120905092915050565b6000806115446128fb565b9050683635c9adc5dea0000081101561155f57600091505090565b670de0b6b3a7640000606c54670de0b6b3a764000061157e91906156f5565b6115889083615708565b6115929190615735565b61159c90826156f5565b91505090565b6115aa613ccf565b606c81905560405181907fb2ba28b5b5aed3444b23a8597a249678dd98e0062432ef1b0f9a6caa39ceb0ad90600090a250565b6115e5613ccf565b607181905560405181907fed28aed8b87631da9bc750c8885c00f9beda7f694a23bb732d987aa80214a63f90600090a250565b6082602052816000526040600020818154811061163457600080fd5b6000918252602090912001546001600160a01b03169150829050565b611658613ccf565b606d81905560405181907f4d3fce9ddc8266ead559213cbaaa8ebcfa0c837a2c9a1e814bae160b615d30dd90600090a250565b6000848484846040516020016116a494939291906159a4565b604051602081830303815290604052805190602001209050949350505050565b606a546000906116e9906116e1906001600160401b0316426156f5565b6108a16128fb565b905090565b6000806116f96128fb565b9050686c6b935b8bbd40000081101561171457600091505090565b670de0b6b3a7640000606d54670de0b6b3a764000061157e91906156f5565b61173b613ccf565b606b8190556040518181527f8c854a81cb5c93e7e482d30fb9c6f88fdbdb320f10f7a853c2263659b54e563f9060200160405180910390a150565b606061122e8383613a76565b61178a613ccf565b606780546001600160a01b0319166001600160a01b0383169081179091556040517f5a85b4270fc1e75035e6cd505418ce65e0bcc36cc7eb9ce9e6f8c6181d4cb57790600090a250565b600054610100900460ff16158080156117f45750600054600160ff909116105b8061180e5750303b15801561180e575060005460ff166001145b6118715760405162461bcd60e51b815260206004820152602e60248201527f496e697469616c697a61626c653a20636f6e747261637420697320616c72656160448201526d191e481a5b9a5d1a585b1a5e995960921b6064820152608401610b78565b6000805460ff191660011790558015611894576000805461ff0019166101001790555b61189c613fb4565b606580546001600160a01b038086166001600160a01b03199283161790925560668054928516928216929092179091556067805490911633179055606a80546001600160401b03421667ffffffffffffffff199091161790556602d79883d20000606c55655af3107a4000606d5567016345785d8a0000606e819055606f8190556070556107d0607155612710607255610fa06073556078607455620151806075558015611984576000805461ff0019169055604051600181527f7f26b83ff96e1f2b6a682f133852f6798a09c465da95921460cefb38474024989060200160405180910390a15b505050565b611991611539565b336000908152607a60209081526040808320546077909252909120546119b791906156f5565b10156119d55760405162461bcd60e51b8152600401610b7890615945565b6000828152607660205260409020600101546001600160a01b0316611a0c5760405162461bcd60e51b8152600401610b78906157a0565b6040518115158152829033907fd17ce9337eb398b61971ca3d8c9933fc401b9669a0607afe3452612583d7c5b89060200160405180910390a35050565b606754600090600160a01b900460ff1615611a765760405162461bcd60e51b8152600401610b78906156bf565b6001600160a01b038516611acc5760405162461bcd60e51b815260206004820152601860248201527f61646472657373206d757374206265206e6f6e2d7a65726f00000000000000006044820152606401610b78565b6000611ad88484613a76565b604080516080810182528781526001600160a01b0389166020820152600091810182905260608101839052919250611b1082336114f6565b6000818152607660205260409020600101549091506001600160a01b031615611b7b5760405162461bcd60e51b815260206004820152601860248201527f6d6f64656c20616c7265616479207265676973746572656400000000000000006044820152606401610b78565b60008181526076602090815260409182902084518155908401516001820180546001600160a01b0319166001600160a01b0390921691909117905590830151600282015560608301518391906003820190611bd69082615848565b50506040518291507fa4b0af38d049ba81703a0d0e46cc2ff39681210302134046237111a8fb7dee7290600090a2979650505050505050565b606754600160a01b900460ff1615611c395760405162461bcd60e51b8152600401610b78906156bf565b6000818152607c602052604090205415611c895760405162461bcd60e51b8152602060048201526011602482015270636f6d6d69746d656e742065786973747360781b6044820152606401610b78565b611c91613fe3565b6000828152607c6020526040808220929092559051829133917f09b4c028a2e50fec6f1c6a0163c59e8fbe92b231e5c03ef3adec585e63a14b929190a350565b606754600160a01b900460ff1615611cfb5760405162461bcd60e51b8152600401610b78906156bf565b611d03611539565b336000908152607a6020908152604080832054607790925290912054611d2991906156f5565b1015611d475760405162461bcd60e51b8152600401610b7890615945565b6000838152607b6020526040902054611d985760405162461bcd60e51b81526020600482015260136024820152721d185cdac8191bd95cc81b9bdd08195e1a5cdd606a1b6044820152606401610b78565b6000838152607d60205260409020546001600160a01b031615611dfd5760405162461bcd60e51b815260206004820152601a60248201527f736f6c7574696f6e20616c7265616479207375626d69747465640000000000006044820152606401610b78565b6000611e0b3385858561168b565b6000818152607c6020526040902054909150611e695760405162461bcd60e51b815260206004820152601760248201527f6e6f6e206578697374656e7420636f6d6d69746d656e740000000000000000006044820152606401610b78565b611e71613fe3565b6000828152607c602052604090205410611ecd5760405162461bcd60e51b815260206004820152601a60248201527f636f6d6d69746d656e74206d75737420626520696e20706173740000000000006044820152606401610b78565b6040518060800160405280336001600160a01b03168152602001426001600160401b0316815260200160001515815260200184848080601f0160208091040260200160405190810160405280939291908181526020018383808284376000920182905250939094525050868152607d60209081526040918290208451815492860151938601511515600160e01b0260ff60e01b196001600160401b03909516600160a01b026001600160e01b03199094166001600160a01b0390921691909117929092179290921617815560608301519091506001820190611faf9082615848565b505060405185915033907f957c18b5af8413899ea8a576a4d3fb16839a02c9fccfdce098b6d59ef248525b90600090a350505050565b611fed613ccf565b606f81905560405181907f248f32867b202a570ffbb94e864b6075503b4961c00317f152604ee3b8de4dda90600090a250565b612028613ccf565b607081905560405181907f4cedc026426414a08f6f21ca64d85564bf602162bb3463dd2d3e17b58c1da58990600090a250565b606754600160a01b900460ff16156120855760405162461bcd60e51b8152600401610b78906156bf565b61208d611539565b336000908152607a60209081526040808320546077909252909120546120b391906156f5565b10156120d15760405162461bcd60e51b8152600401610b7890615945565b6000818152607d60205260409020546001600160a01b03166121355760405162461bcd60e51b815260206004820152601760248201527f736f6c7574696f6e20646f6573206e6f742065786973740000000000000000006044820152606401610b78565b6000818152607e60205260409020546001600160a01b03161561219a5760405162461bcd60e51b815260206004820152601b60248201527f636f6e746573746174696f6e20616c72656164792065786973747300000000006044820152606401610b78565b6071546000828152607d60205260409020546121c69190600160a01b90046001600160401b031661578d565b42106121ff5760405162461bcd60e51b8152602060048201526008602482015267746f6f206c61746560c01b6044820152606401610b78565b6000818152607d6020526040902054600160e01b900460ff161561224b5760405162461bcd60e51b81526020600482015260036024820152623bba3360e91b6044820152606401610b78565b60006122556116ee565b60408051608081018252338082526001600160401b0342811660208085019182526000858701818152606087018981528b8352607e909352878220965187549451915163ffffffff16600160e01b026001600160e01b0392909616600160a01b026001600160e01b03199095166001600160a01b03919091161793909317929092169290921784559051600190930192909255915192935084927f6958c989e915d3e41a35076e3c480363910055408055ad86ae1ee13d41c406409190a361231f82600133613bab565b6000828152607d60209081526040808320546001600160a01b031683526077909152902054811161138b576000828152607d602052604081205461138b9184916001600160a01b0316613bab565b612375613ccf565b61237f6000614074565b565b607d60205260009081526040902080546001820180546001600160a01b03831693600160a01b84046001600160401b031693600160e01b900460ff169290916123c9906157ce565b80601f01602080910402602001604051908101604052809291908181526020018280546123f5906157ce565b80156124425780601f1061241757610100808354040283529160200191612442565b820191906000526020600020905b81548152906001019060200180831161242557829003601f168201915b5050505050905084565b606754600160a01b900460ff16156124765760405162461bcd60e51b8152600401610b78906156bf565b33600090815260796020908152604080832085845282529182902082518084019093528054808452600190910154918301919091526124eb5760405162461bcd60e51b81526020600482015260116024820152701c995c5d595cdd081b9bdd08195e1a5cdd607a1b6044820152606401610b78565b805142101561252a5760405162461bcd60e51b815260206004820152600b60248201526a3bb0b4ba103637b733b2b960a91b6044820152606401610b78565b602080820151336000908152607790925260409091205410156125845760405162461bcd60e51b81526020600482015260126024820152711cdd185ad9481a5b9cdd59999a58da595b9d60721b6044820152606401610b78565b606554602082015160405163a9059cbb60e01b81526001600160a01b039092169163a9059cbb916125ba91869190600401615757565b6020604051808303816000875af11580156125d9573d6000803e3d6000fd5b505050506040513d601f19601f820116820180604052508101906125fd9190615770565b506020808201513360009081526077909252604082208054919290916126249084906156f5565b9091555050602080820151336000908152607a9092526040822080549192909161264f9084906156f5565b909155505033600081815260796020908152604080832087845282528083208381556001019290925583810151915191825285926001600160a01b0386169290917f109aeff667601aad33abcb7c5df1617754eefd18253d586a95c198cb479b5bd4910160405180910390a4505050565b6126c8613ccf565b607281905560405181907f2cf38ed7da57dd510fa6ecbfb991949cdde5c808acbe85cfa940b642def628ed90600090a250565b606754600160a01b900460ff16156127255760405162461bcd60e51b8152600401610b78906156bf565b6000818152607d60205260409020546001600160a01b031661277e5760405162461bcd60e51b81526020600482015260126024820152711cdbdb1d5d1a5bdb881b9bdd08199bdd5b9960721b6044820152606401610b78565b6000818152607e60205260409020546001600160a01b0316156127d65760405162461bcd60e51b815260206004820152601060248201526f3430b99031b7b73a32b9ba30ba34b7b760811b6044820152606401610b78565b6071546127e390426156f5565b6000828152607d6020526040902054600160a01b90046001600160401b0316106128425760405162461bcd60e51b815260206004820152601060248201526f6e6f7420656e6f7567682064656c617960801b6044820152606401610b78565b6000818152607d6020526040902054600160e01b900460ff161561289a5760405162461bcd60e51b815260206004820152600f60248201526e185b1c9958591e4818db185a5b5959608a1b6044820152606401610b78565b6000818152607d6020526040808220805460ff60e01b198116600160e01b17909155905183926001600160a01b03909216917f0b76b4ae356796814d36b46f7c500bbd27b2cce1e6059a6fa2bebfd5a389b19091a36128f8816140c6565b50565b6065546040516370a0823160e01b815230600482015260009182916001600160a01b03909116906370a0823190602401602060405180830381865afa158015612948573d6000803e3d6000fd5b505050506040513d601f19601f8201168201806040525081019061296c91906159ec565b9050697f0e10af47c1c7000000811061298757600091505090565b61159c81697f0e10af47c1c70000006156f5565b6129a3613ccf565b604051631f4a58fb60e31b81526001600160a01b03828116600483015283916000918291829185169063fa52c7d890602401606060405180830381865afa1580156129f2573d6000803e3d6000fd5b505050506040513d601f19601f82011682018060405250810190612a169190615a05565b6040805160608101825293845260208085019384526001600160a01b03928316858301908152998316600090815260779091522092518355905160018301559551600290910180546001600160a01b03191691909616179094555050505050565b6000818152607e60205260408120546001600160a01b0316612a9b575060016114f0565b6073546000838152607e6020526040902054612ac79190600160a01b90046001600160401b031661578d565b421115612ad6575060026114f0565b6000828152607f602090815260408083206001600160a01b038716845290915290205460ff1615612b09575060036114f0565b6001600160a01b0383166000908152607760205260408120600101549003612b33575060046114f0565b6074546001600160a01b0384166000908152607760205260409020600101541015612b60575060056114f0565b6000828152607e60209081526040808320546074546001600160a01b03881685526077909352922060010154600160a01b9092046001600160401b031691612ba891906156f5565b1115612bb6575060066114f0565b50600092915050565b606754600160a01b900460ff1615612be95760405162461bcd60e51b8152600401610b78906156bf565b6000828152607e60205260409020546001600160a01b0316612c4d5760405162461bcd60e51b815260206004820152601a60248201527f636f6e746573746174696f6e20646f65736e27742065786973740000000000006044820152606401610b78565b6073546000838152607e6020526040902054612c799190600160a01b90046001600160401b031661578d565b421015612cc85760405162461bcd60e51b815260206004820152601760248201527f766f74696e6720706572696f64206e6f7420656e6465640000000000000000006044820152606401610b78565b60008163ffffffff1611612d0f5760405162461bcd60e51b815260206004820152600e60248201526d185b5b9d081d1bdbc81cdb585b1b60921b6044820152606401610b78565b6000828152608160209081526040808320546082835281842054607e909352908320549092600160e01b90910463ffffffff1690612d4d8583615a3e565b6000878152607e602052604090206001015490915063ffffffff8085169086161115613040576000612d858263ffffffff8716615708565b905060008663ffffffff16600114612db157612da2600283615735565b612dac90836156f5565b612db3565b815b905060008763ffffffff16600114612def57612dd0600189615a62565b63ffffffff16612de083856156f5565b612dea9190615735565b612df2565b60005b905063ffffffff86165b8563ffffffff16811015612f83578863ffffffff16811015612f715760008b8152608160205260408120805483908110612e3857612e38615a7f565b60009182526020808320909101546001600160a01b0316808352607790915260408220805491935088929091612e6f90849061578d565b90915550506000829003612ef85760655460405163a9059cbb60e01b81526001600160a01b039091169063a9059cbb90612eaf9084908890600401615757565b6020604051808303816000875af1158015612ece573d6000803e3d6000fd5b505050506040513d601f19601f82011682018060405250810190612ef29190615770565b50612f6f565b60655460405163a9059cbb60e01b81526001600160a01b039091169063a9059cbb90612f2a9084908790600401615757565b6020604051808303816000875af1158015612f49573d6000803e3d6000fd5b505050506040513d601f19601f82011682018060405250810190612f6d9190615770565b505b505b80612f7b81615a95565b915050612dfc565b5060008a8152607e6020526040812054600160e01b900463ffffffff1690036130385760655460008b8152607b602052604090819020600281015460019190910154915163a9059cbb60e01b81526001600160a01b039384169363a9059cbb93612ff39390911691600401615757565b6020604051808303816000875af1158015613012573d6000803e3d6000fd5b505050506040513d601f19601f820116820180604052508101906130369190615770565b505b505050613276565b60006130528263ffffffff8816615708565b905060008563ffffffff166001146130745761306f600283615735565b613076565b815b905060008663ffffffff166001146130b257613093600188615a62565b63ffffffff166130a383856156f5565b6130ad9190615735565b6130b5565b60005b905063ffffffff86165b8563ffffffff16811015613246578763ffffffff168110156132345760008b81526082602052604081208054839081106130fb576130fb615a7f565b60009182526020808320909101546001600160a01b031680835260779091526040822080549193508892909161313290849061578d565b909155505060008290036131bb5760655460405163a9059cbb60e01b81526001600160a01b039091169063a9059cbb906131729084908890600401615757565b6020604051808303816000875af1158015613191573d6000803e3d6000fd5b505050506040513d601f19601f820116820180604052508101906131b59190615770565b50613232565b60655460405163a9059cbb60e01b81526001600160a01b039091169063a9059cbb906131ed9084908790600401615757565b6020604051808303816000875af115801561320c573d6000803e3d6000fd5b505050506040513d601f19601f820116820180604052508101906132309190615770565b505b505b8061323e81615a95565b9150506130bf565b5060008a8152607e6020526040812054600160e01b900463ffffffff169003613272576132728a6140c6565b5050505b6000878152607e602090815260409182902080546001600160e01b0316600160e01b63ffffffff8781169182029290921790925592519081529185169189917f71d8c71303e35a39162e33a402c9897bf9848388537bac7d5e1b0d202eca4e66910160405180910390a350505050505050565b606754600160a01b900460ff16156133135760405162461bcd60e51b8152600401610b78906156bf565b6065546040516323b872dd60e01b8152336004820152306024820152604481018390526001600160a01b03909116906323b872dd906064016020604051808303816000875af115801561336a573d6000803e3d6000fd5b505050506040513d601f19601f8201168201806040525081019061338e9190615770565b506000613399611539565b6001600160a01b0384166000908152607760205260409020549091508110613406576001600160a01b03831660009081526077602052604090205481906133e190849061578d565b10613406576001600160a01b0383166000908152607760205260409020426001909101555b604080516060810182526001600160a01b038516600090815260776020529190912054819061343690859061578d565b81526001600160a01b038581166000818152607760208181526040808420600181018054848a015297820186905293859052918152865183558681015190955594850151600290910180546001600160a01b0319169190931617909155915184815233917f8d4844488c19a90828439e71d14ebad860806d04f8ef8b25a82179fab2699b8991015b60405180910390a3505050565b6134d3613ccf565b6000828152607660205260409020600101546001600160a01b031661350a5760405162461bcd60e51b8152600401610b78906157a0565b600082815260766020526040908190206002018290555182907f0321e8a918b4c47bf3677852c070983825f30a47bc8d9416691454fa6a727d63906135529084815260200190565b60405180910390a25050565b6000816000036135775750670de0b6b3a76400006114f0565b670de0b6b3a7640000697f0e10af47c1c700000061359585856113ca565b670de0b6b3a76400006135b286697f0e10af47c1c70000006156f5565b6135bc9190615708565b6135c69190615708565b6135d09190615735565b61122e9190615735565b6135e2613ccf565b607481905560405181907fdb340415b83e58bab317964518d523baabcc1571de3b5d8fe6ebd52c704d31a990600090a250565b606754600160a01b900460ff161561363f5760405162461bcd60e51b8152600401610b78906156bf565b60655460665460685460405163a9059cbb60e01b81526001600160a01b039384169363a9059cbb9361367693911691600401615757565b6020604051808303816000875af1158015613695573d6000803e3d6000fd5b505050506040513d601f19601f820116820180604052508101906136b99190615770565b506000606855565b6136c9613ccf565b607381905560405181907f3a559dce5761b4b2e6099b6dc8d51f7eb190932dc5797d8090daf1a42cd58e7d90600090a250565b613704613ccf565b607581905560405181907f7bf73d8c24113d60e7de7e92ae237284cf5a6f8dfe31e8eee1c6d9c8890e13c990600090a250565b606754600160a01b900460ff16156137615760405162461bcd60e51b8152600401610b78906156bf565b33600090815260796020908152604080832084845282529182902082518084019093528054808452600190910154918301919091526137d65760405162461bcd60e51b81526020600482015260116024820152701c995c5d595cdd081b9bdd08195e1a5cdd607a1b6044820152606401610b78565b602080820151336000908152607a909252604082208054919290916137fc9084906156f5565b9091555050336000818152607960209081526040808320868452909152808220828155600101829055518492917ff9d5cfcdfe9803069225971ba315f4302add9b477c3441cc363bc38fdb065b9091a35050565b600063bbf81e0082111561386f5750697f0e10af47c1c7000000919050565b600061388a6114d2613885856301e13380614461565b614479565b9050670de0b6b3a7640000816138aa697f0e10af47c1c700000083615708565b6138bc90670de0b6b3a7640000615708565b6138c69190615735565b6138d09190615735565b61122e90697f0e10af47c1c70000006156f5565b6081602052816000526040600020818154811061163457600080fd5b613908613ccf565b606680546001600160a01b0319166001600160a01b0383169081179091556040517f6bdb9ceff405d990c9b60be9f719fbb80889d5f064e8fd76efd5bea353e9071290600090a250565b607660205260009081526040902080546001820154600283015460038401805493946001600160a01b03909316939192916123c9906157ce565b607b602052600090815260409020805460018201546002830154600384018054939492936001600160a01b03831693600160a01b84046001600160401b031693600160e01b900460ff169290916139e2906157ce565b80601f0160208091040260200160405190810160405280929190818152602001828054613a0e906157ce565b8015613a5b5780601f10613a3057610100808354040283529160200191613a5b565b820191906000526020600020905b815481529060010190602001808311613a3e57829003601f168201915b5050505050905086565b613a6d613ccf565b6128f8816144cf565b606062010000821115613acb5760405162461bcd60e51b815260206004820152601f60248201527f4d617820636f6e74656e742073697a65206973203635353336206279746573006044820152606401610b78565b6000613ad683614545565b9050600081858584604051602001613af19493929190615aae565b60405160208183030381529060405290506002613b0e8251614545565b82604051602001613b20929190615b05565b60408051601f1981840301815290829052613b3a91615b45565b602060405180830381855afa158015613b57573d6000803e3d6000fd5b5050506040513d601f19601f82011682018060405250810190613b7a91906159ec565b604051609160f51b602082015260228101919091526042016040516020818303038152906040529250505092915050565b6000838152607f602090815260408083206001600160a01b03851684529091529020805460ff191660011790558115613c1a5760008381526081602090815260408220805460018101825590835291200180546001600160a01b0319166001600160a01b038316179055613c52565b60008381526082602090815260408220805460018101825590835291200180546001600160a01b0319166001600160a01b0383161790555b6000838152607e60209081526040808320600101546001600160a01b038516845260779092528220805491929091613c8b9084906156f5565b9091555050604051821515815283906001600160a01b038316907f1aa9e4be46e24e1f2e7eeb1613c01629213cd42965d2716e18531b63e552e411906020016134be565b6033546001600160a01b0316331461237f5760405162461bcd60e51b815260206004820181905260248201527f4f776e61626c653a2063616c6c6572206973206e6f7420746865206f776e65726044820152606401610b78565b60008282600160ff1b821480613d425750600160ff1b81145b15613d60576040516309fe2b4560e41b815260040160405180910390fd5b60008060008412613d715783613d76565b836000035b915060008312613d865782613d8b565b826000035b90506000613da283670de0b6b3a76400008461469c565b90506001600160ff1b03811115613dd65760405163d49c26b360e01b81526004810189905260248101889052604401610b78565b60001985851813613df281613dee57826000036114d2565b8290565b9998505050505050505050565b600061122e6114d28385615b61565b60008282600160ff1b821480613e275750600160ff1b81145b15613e455760405163a6070c2560e01b815260040160405180910390fd5b60008060008412613e565783613e5b565b836000035b915060008312613e6b5782613e70565b826000035b90506000613e7e8383614770565b90506001600160ff1b03811115613dd65760405163120b5b4360e01b81526004810189905260248101889052604401610b78565b600061122e6114d28385615b81565b600081600160ff1b8101613ee85760405163ec2b9e6760e01b815260040160405180910390fd5b60008112613ef6578261122e565b61122e6114d282615ba9565b60008181811215613f635768033dd1780914b9711419811215613f285750600092915050565b613f5c613f3b6114d26114cd8460000390565b6ec097ce7bc90715b34b9f100000000081613f5857613f5861571f565b0590565b9150613fae565b680a688906bd8affffff811315613f8f57604051626c1a0560e31b815260048101849052602401610b78565b670de0b6b3a7640000604082901b05613faa6114d282614826565b9250505b50919050565b600054610100900460ff16613fdb5760405162461bcd60e51b8152600401610b7890615bc5565b61237f614f86565b60004661a4ba811480613ff8575062066eed81145b80614005575062066eee81145b1561406d5760646001600160a01b031663a3b1b31d6040518163ffffffff1660e01b8152600401602060405180830381865afa158015614049573d6000803e3d6000fd5b505050506040513d601f19601f8201168201806040525081019061159c91906159ec565b4391505090565b603380546001600160a01b038381166001600160a01b0319831681179093556040519116919082907f8be0079c531659141344cd1fd0a4f28419497f9722a3daafe3b4186f6b6457e090600090a35050565b6000818152607b6020818152604080842080548552607683529084205493859052919052600101548111156140f9575060005b8015614197576065546000838152607b6020908152604080832054835260769091529081902060010154905163a9059cbb60e01b81526001600160a01b039283169263a9059cbb92614152929116908590600401615757565b6020604051808303816000875af1158015614171573d6000803e3d6000fd5b505050506040513d601f19601f820116820180604052508101906141959190615770565b505b6000828152607b60205260408120600101546141b49083906156f5565b90506000670de0b6b3a7640000606e54670de0b6b3a76400006141d791906156f5565b6141e19084615708565b6141eb9190615735565b6141f590836156f5565b90508060686000828254614209919061578d565b909155506000905061421b82846156f5565b905080156142b4576065546000868152607d60205260409020546001600160a01b039182169163a9059cbb911661425285876156f5565b6040518363ffffffff1660e01b815260040161426f929190615757565b6020604051808303816000875af115801561428e573d6000803e3d6000fd5b505050506040513d601f19601f820116820180604052508101906142b29190615770565b505b6000858152607b6020908152604080832054835260769091529020600201548015614459576000670de0b6b3a7640000826142ed6116c4565b6142f79190615708565b6143019190615735565b90508015614457576000670de0b6b3a7640000607054670de0b6b3a764000061432a91906156f5565b6143349084615708565b61433e9190615735565b61434890836156f5565b60655460008a8152607d60205260409020549192506001600160a01b039081169163a9059cbb911661437a84866156f5565b6040518363ffffffff1660e01b8152600401614397929190615757565b6020604051808303816000875af11580156143b6573d6000803e3d6000fd5b505050506040513d601f19601f820116820180604052508101906143da9190615770565b5060655460665460405163a9059cbb60e01b81526001600160a01b039283169263a9059cbb92614411929116908590600401615757565b6020604051808303816000875af1158015614430573d6000803e3d6000fd5b505050506040513d601f19601f820116820180604052508101906144549190615770565b50505b505b505050505050565b600061122e6114d284670de0b6b3a76400008561469c565b600081680a688906bd8affffff8111156144a95760405163b3b6ba1f60e01b815260048101849052602401610b78565b60006144c1670de0b6b3a7640000604084901b615735565b9050613faa6114d282614826565b6144d7613ccf565b6001600160a01b03811661453c5760405162461bcd60e51b815260206004820152602660248201527f4f776e61626c653a206e6577206f776e657220697320746865207a65726f206160448201526564647265737360d01b6064820152608401610b78565b6128f881614074565b60608160015b607f826001600160401b0316111561457e576007826001600160401b0316901c91508061457790615c10565b905061454b565b6000816001600160401b03166001600160401b038111156145a1576145a161510f565b6040519080825280601f01601f1916602001820160405280156145cb576020820181803683370190505b50905084925060005b826001600160401b0316816001600160401b0316101561464d5783607f1660801760f81b82826001600160401b03168151811061461357614613615a7f565b60200101906001600160f81b031916908160001a9053506007846001600160401b0316901c9350808061464590615c10565b9150506145d4565b50607f60f81b8161465f600185615c36565b6001600160401b03168151811061467857614678615a7f565b0160200180519091166001600160f81b03191690600082901a905350949350505050565b60008080600019858709858702925082811083820303915050806000036146d6578382816146cc576146cc61571f565b049250505061122e565b83811061470757604051630c740aef60e31b8152600481018790526024810186905260448101859052606401610b78565b60008486880960026001871981018816978890046003810283188082028403028082028403028082028403028082028403028082028403029081029092039091026000889003889004909101858311909403939093029303949094049190911702949350505050565b60008080600019848609848602925082811083820303915050806000036147a45750670de0b6b3a7640000900490506114f0565b670de0b6b3a764000081106147d657604051635173648d60e01b81526004810186905260248101859052604401610b78565b6000670de0b6b3a764000085870962040000818503049310909103600160ee1b02919091177faccb18165bd6fe31ae1cf318dc5b51eee0e1ba569b88cd74c1773b91fac106690291505092915050565b600160bf1b67ff000000000000008216156149335767800000000000000082161561485a5768016a09e667f3bcc9090260401c5b674000000000000000821615614879576801306fe0a31b7152df0260401c5b672000000000000000821615614898576801172b83c7d517adce0260401c5b6710000000000000008216156148b75768010b5586cf9890f62a0260401c5b6708000000000000008216156148d6576801059b0d31585743ae0260401c5b6704000000000000008216156148f557680102c9a3e778060ee70260401c5b6702000000000000008216156149145768010163da9fb33356d80260401c5b67010000000000000082161561493357680100b1afa5abcbed610260401c5b66ff000000000000821615614a325766800000000000008216156149605768010058c86da1c09ea20260401c5b664000000000000082161561497e576801002c605e2e8cec500260401c5b662000000000000082161561499c57680100162f3904051fa10260401c5b66100000000000008216156149ba576801000b175effdc76ba0260401c5b66080000000000008216156149d857680100058ba01fb9f96d0260401c5b66040000000000008216156149f65768010002c5cc37da94920260401c5b6602000000000000821615614a14576801000162e525ee05470260401c5b6601000000000000821615614a325768010000b17255775c040260401c5b65ff0000000000821615614b285765800000000000821615614a5d576801000058b91b5bc9ae0260401c5b65400000000000821615614a7a57680100002c5c89d5ec6d0260401c5b65200000000000821615614a975768010000162e43f4f8310260401c5b65100000000000821615614ab457680100000b1721bcfc9a0260401c5b65080000000000821615614ad15768010000058b90cf1e6e0260401c5b65040000000000821615614aee576801000002c5c863b73f0260401c5b65020000000000821615614b0b57680100000162e430e5a20260401c5b65010000000000821615614b28576801000000b1721835510260401c5b64ff00000000821615614c1557648000000000821615614b5157680100000058b90c0b490260401c5b644000000000821615614b6d5768010000002c5c8601cc0260401c5b642000000000821615614b89576801000000162e42fff00260401c5b641000000000821615614ba55768010000000b17217fbb0260401c5b640800000000821615614bc1576801000000058b90bfce0260401c5b640400000000821615614bdd57680100000002c5c85fe30260401c5b640200000000821615614bf95768010000000162e42ff10260401c5b640100000000821615614c1557680100000000b17217f80260401c5b63ff000000821615614cf9576380000000821615614c3c5768010000000058b90bfc0260401c5b6340000000821615614c57576801000000002c5c85fe0260401c5b6320000000821615614c7257680100000000162e42ff0260401c5b6310000000821615614c8d576801000000000b17217f0260401c5b6308000000821615614ca857680100000000058b90c00260401c5b6304000000821615614cc35768010000000002c5c8600260401c5b6302000000821615614cde576801000000000162e4300260401c5b6301000000821615614cf95768010000000000b172180260401c5b62ff0000821615614dd45762800000821615614d1e576801000000000058b90c0260401c5b62400000821615614d3857680100000000002c5c860260401c5b62200000821615614d525768010000000000162e430260401c5b62100000821615614d6c57680100000000000b17210260401c5b62080000821615614d865768010000000000058b910260401c5b62040000821615614da0576801000000000002c5c80260401c5b62020000821615614dba57680100000000000162e40260401c5b62010000821615614dd4576801000000000000b1720260401c5b61ff00821615614ea657618000821615614df757680100000000000058b90260401c5b614000821615614e105768010000000000002c5d0260401c5b612000821615614e29576801000000000000162e0260401c5b611000821615614e425768010000000000000b170260401c5b610800821615614e5b576801000000000000058c0260401c5b610400821615614e7457680100000000000002c60260401c5b610200821615614e8d57680100000000000001630260401c5b610100821615614ea657680100000000000000b10260401c5b60ff821615614f6f576080821615614ec757680100000000000000590260401c5b6040821615614edf576801000000000000002c0260401c5b6020821615614ef757680100000000000000160260401c5b6010821615614f0f576801000000000000000b0260401c5b6008821615614f2757680100000000000000060260401c5b6004821615614f3f57680100000000000000030260401c5b6002821615614f5757680100000000000000010260401c5b6001821615614f6f57680100000000000000010260401c5b670de0b6b3a76400000260409190911c60bf031c90565b600054610100900460ff16614fad5760405162461bcd60e51b8152600401610b7890615bc5565b61237f33614074565b508054614fc2906157ce565b6000825580601f10614fd2575050565b601f0160209004906000526020600020908101906128f891905b808211156150005760008155600101614fec565b5090565b60006020828403121561501657600080fd5b5035919050565b803560ff811681146111e957600080fd5b6001600160a01b03811681146128f857600080fd5b80356111e98161502e565b60008083601f84011261506057600080fd5b5081356001600160401b0381111561507757600080fd5b60208301915083602082850101111561508f57600080fd5b9250929050565b60008060008060008060a087890312156150af57600080fd5b6150b88761501d565b955060208701356150c88161502e565b9450604087013593506060870135925060808701356001600160401b038111156150f157600080fd5b6150fd89828a0161504e565b979a9699509497509295939492505050565b634e487b7160e01b600052604160045260246000fd5b60405160c081016001600160401b03811182821017156151475761514761510f565b60405290565b600082601f83011261515e57600080fd5b81356001600160401b03808211156151785761517861510f565b604051601f8301601f19908116603f011681019082821181831017156151a0576151a061510f565b816040528381528660208588010111156151b957600080fd5b836020870160208301376000602085830101528094505050505092915050565b6000806000606084860312156151ee57600080fd5b83356001600160401b038082111561520557600080fd5b9085019060c0828803121561521957600080fd5b615221615125565b8235815260208301356020820152604083013561523d8161502e565b60408201526060830135828116811461525557600080fd5b60608201526152666080840161501d565b608082015260a08301358281111561527d57600080fd5b6152898982860161514d565b60a08301525094506152a091505060208501615043565b9150604084013590509250925092565b80151581146128f857600080fd5b6000602082840312156152d057600080fd5b813561122e816152b0565b600080604083850312156152ee57600080fd5b823591506020830135615300816152b0565b809150509250929050565b60006020828403121561531d57600080fd5b813561122e8161502e565b6000806040838503121561533b57600080fd5b50508035926020909101359150565b6000806040838503121561535d57600080fd5b82356001600160401b038082111561537457600080fd5b908401906080828703121561538857600080fd5b6040516080810181811083821117156153a3576153a361510f565b6040528235815260208301356153b88161502e565b6020820152604083810135908201526060830135828111156153d957600080fd5b6153e58882860161514d565b60608301525093506153fc91505060208401615043565b90509250929050565b6000806000806060858703121561541b57600080fd5b84356154268161502e565b93506020850135925060408501356001600160401b0381111561544857600080fd5b6154548782880161504e565b95989497509550505050565b6000806020838503121561547357600080fd5b82356001600160401b0381111561548957600080fd5b6154958582860161504e565b90969095509350505050565b60005b838110156154bc5781810151838201526020016154a4565b50506000910152565b600081518084526154dd8160208601602086016154a1565b601f01601f19169290920160200192915050565b60208152600061122e60208301846154c5565b6000806040838503121561551757600080fd5b82356155228161502e565b915060208301356153008161502e565b60008060006040848603121561554757600080fd5b8335925060208401356001600160401b0381111561556457600080fd5b6155708682870161504e565b9497909650939450505050565b6001600160a01b03851681526001600160401b038416602082015282151560408201526080606082018190526000906155b8908301846154c5565b9695505050505050565b600080604083850312156155d557600080fd5b8235915060208301356153008161502e565b600080604083850312156155fa57600080fd5b82356156058161502e565b946020939093013593505050565b6000806040838503121561562657600080fd5b82359150602083013563ffffffff8116811461530057600080fd5b84815260018060a01b03841660208201528260408201526080606082015260006155b860808301846154c5565b86815285602082015260018060a01b03851660408201526001600160401b038416606082015260ff8316608082015260c060a082015260006156b360c08301846154c5565b98975050505050505050565b6020808252600690820152651c185d5cd95960d21b604082015260600190565b634e487b7160e01b600052601160045260246000fd5b818103818111156114f0576114f06156df565b80820281158282048414176114f0576114f06156df565b634e487b7160e01b600052601260045260246000fd5b60008261575257634e487b7160e01b600052601260045260246000fd5b500490565b6001600160a01b03929092168252602082015260400190565b60006020828403121561578257600080fd5b815161122e816152b0565b808201808211156114f0576114f06156df565b6020808252601490820152731b5bd9195b08191bd95cc81b9bdd08195e1a5cdd60621b604082015260600190565b600181811c908216806157e257607f821691505b602082108103613fae57634e487b7160e01b600052602260045260246000fd5b601f82111561198457600081815260208120601f850160051c810160208610156158295750805b601f850160051c820191505b8181101561445957828155600101615835565b81516001600160401b038111156158615761586161510f565b6158758161586f84546157ce565b84615802565b602080601f8311600181146158aa57600084156158925750858301515b600019600386901b1c1916600185901b178555614459565b600085815260208120601f198616915b828110156158d9578886015182559484019460019091019084016158ba565b50858210156158f75787850151600019600388901b60f8161c191681555b5050505050600190811b01905550565b60018060a01b038616815284602082015283604082015282606082015260a06080820152600061593a60a08301846154c5565b979650505050505050565b6020808252601290820152716d696e207374616b656420746f6f206c6f7760701b604082015260600190565b6001600160a01b03858116825284166020820152604081018390526080606082018190526000906155b8908301846154c5565b6001600160a01b0385168152602081018490526060604082018190528101829052818360808301376000818301608090810191909152601f909201601f191601019392505050565b6000602082840312156159fe57600080fd5b5051919050565b600080600060608486031215615a1a57600080fd5b83519250602084015191506040840151615a338161502e565b809150509250925092565b63ffffffff818116838216019080821115615a5b57615a5b6156df565b5092915050565b63ffffffff828116828216039080821115615a5b57615a5b6156df565b634e487b7160e01b600052603260045260246000fd5b600060018201615aa757615aa76156df565b5060010190565b6204010960e91b81528451600090615acd816003850160208a016154a1565b820184866003830137600360fb1b6003918601918201528351615af78160048401602088016154a1565b016004019695505050505050565b600560f91b81528251600090615b228160018501602088016154a1565b835190830190615b398160018401602088016154a1565b01600101949350505050565b60008251615b578184602087016154a1565b9190910192915050565b8181036000831280158383131683831282161715615a5b57615a5b6156df565b8082018281126000831280158216821582161715615ba157615ba16156df565b505092915050565b6000600160ff1b8201615bbe57615bbe6156df565b5060000390565b6020808252602b908201527f496e697469616c697a61626c653a20636f6e7472616374206973206e6f74206960408201526a6e697469616c697a696e6760a81b606082015260800190565b60006001600160401b03808316818103615c2c57615c2c6156df565b6001019392505050565b6001600160401b03828116828216039080821115615a5b57615a5b6156df56fea2646970667358221220639ddb3ed87ea8a7069b759f9f33ddad4ec134349b1753b22e4d83a1dffc451264736f6c63430008130033","opcodes":"PUSH1 0x80 PUSH1 0x40 MSTORE CALLVALUE DUP1 ISZERO PUSH3 0x11 JUMPI PUSH1 0x0 DUP1 REVERT JUMPDEST POP PUSH3 0x1C PUSH3 0x22 JUMP JUMPDEST PUSH3 0xE3 JUMP JUMPDEST PUSH1 0x0 SLOAD PUSH2 0x100 SWAP1 DIV PUSH1 0xFF AND ISZERO PUSH3 0x8F JUMPI PUSH1 0x40 MLOAD PUSH3 0x461BCD PUSH1 0xE5 SHL DUP2 MSTORE PUSH1 0x20 PUSH1 0x4 DUP3 ADD MSTORE PUSH1 0x27 PUSH1 0x24 DUP3 ADD MSTORE PUSH32 0x496E697469616C697A61626C653A20636F6E747261637420697320696E697469 PUSH1 0x44 DUP3 ADD MSTORE PUSH7 0x616C697A696E67 PUSH1 0xC8 SHL PUSH1 0x64 DUP3 ADD MSTORE PUSH1 0x84 ADD PUSH1 0x40 MLOAD DUP1 SWAP2 SUB SWAP1 REVERT JUMPDEST PUSH1 0x0 SLOAD PUSH1 0xFF SWAP1 DUP2 AND EQ PUSH3 0xE1 JUMPI PUSH1 0x0 DUP1 SLOAD PUSH1 0xFF NOT AND PUSH1 0xFF SWAP1 DUP2 OR SWAP1 SWAP2 SSTORE PUSH1 0x40 MLOAD SWAP1 DUP2 MSTORE PUSH32 0x7F26B83FF96E1F2B6A682F133852F6798A09C465DA95921460CEFB3847402498 SWAP1 PUSH1 0x20 ADD PUSH1 0x40 MLOAD DUP1 SWAP2 SUB SWAP1 LOG1 JUMPDEST JUMP JUMPDEST PUSH2 0x5C8C DUP1 PUSH3 0xF3 PUSH1 0x0 CODECOPY PUSH1 0x0 RETURN INVALID PUSH1 0x80 PUSH1 0x40 MSTORE CALLVALUE DUP1 ISZERO PUSH2 0x10 JUMPI PUSH1 0x0 DUP1 REVERT JUMPDEST POP PUSH1 0x4 CALLDATASIZE LT PUSH2 0x468 JUMPI PUSH1 0x0 CALLDATALOAD PUSH1 0xE0 SHR DUP1 PUSH4 0x763253BB GT PUSH2 0x24C JUMPI DUP1 PUSH4 0xADA82C7D GT PUSH2 0x146 JUMPI DUP1 PUSH4 0xD2780940 GT PUSH2 0xC3 JUMPI DUP1 PUSH4 0xE236F46B GT PUSH2 0x87 JUMPI DUP1 PUSH4 0xE236F46B EQ PUSH2 0xA8E JUMPI DUP1 PUSH4 0xE579F500 EQ PUSH2 0xAB1 JUMPI DUP1 PUSH4 0xF1B8989D EQ PUSH2 0xAD6 JUMPI DUP1 PUSH4 0xF2FDE38B EQ PUSH2 0xADF JUMPI DUP1 PUSH4 0xFA52C7D8 EQ PUSH2 0xAF2 JUMPI PUSH1 0x0 DUP1 REVERT JUMPDEST DUP1 PUSH4 0xD2780940 EQ PUSH2 0x96E JUMPI DUP1 PUSH4 0xD2992BAA EQ PUSH2 0x99C JUMPI DUP1 PUSH4 0xD33B2EF5 EQ PUSH2 0x9E3 JUMPI DUP1 PUSH4 0xD8A6021C EQ PUSH2 0xA72 JUMPI DUP1 PUSH4 0xDC06A89F EQ PUSH2 0xA85 JUMPI PUSH1 0x0 DUP1 REVERT JUMPDEST DUP1 PUSH4 0xC55DAE63 GT PUSH2 0x10A JUMPI DUP1 PUSH4 0xC55DAE63 EQ PUSH2 0x902 JUMPI DUP1 PUSH4 0xCBD2422D EQ PUSH2 0x915 JUMPI DUP1 PUSH4 0xCF596E45 EQ PUSH2 0x928 JUMPI DUP1 PUSH4 0xD1F0C941 EQ PUSH2 0x93B JUMPI DUP1 PUSH4 0xD2307AE4 EQ PUSH2 0x94E JUMPI PUSH1 0x0 DUP1 REVERT JUMPDEST DUP1 PUSH4 0xADA82C7D EQ PUSH2 0x8C2 JUMPI DUP1 PUSH4 0xB66BADBF EQ PUSH2 0x8CA JUMPI DUP1 PUSH4 0xC17DDB2A EQ PUSH2 0x8DD JUMPI DUP1 PUSH4 0xC31784BE EQ PUSH2 0x8E6 JUMPI DUP1 PUSH4 0xC3187978 EQ PUSH2 0x8EF JUMPI PUSH1 0x0 DUP1 REVERT JUMPDEST DUP1 PUSH4 0x8DA5CB5B GT PUSH2 0x1D4 JUMPI DUP1 PUSH4 0x96BB02C3 GT PUSH2 0x198 JUMPI DUP1 PUSH4 0x96BB02C3 EQ PUSH2 0x877 JUMPI DUP1 PUSH4 0x9FD0506D EQ PUSH2 0x880 JUMPI DUP1 PUSH4 0xA4FA8D57 EQ PUSH2 0x893 JUMPI DUP1 PUSH4 0xA53E2525 EQ PUSH2 0x8A6 JUMPI DUP1 PUSH4 0xAA59E7E7 EQ PUSH2 0x8AF JUMPI PUSH1 0x0 DUP1 REVERT JUMPDEST DUP1 PUSH4 0x8DA5CB5B EQ PUSH2 0x82E JUMPI DUP1 PUSH4 0x8E6D86FD EQ PUSH2 0x83F JUMPI DUP1 PUSH4 0x92809444 EQ PUSH2 0x848 JUMPI DUP1 PUSH4 0x93A090EC EQ PUSH2 0x851 JUMPI DUP1 PUSH4 0x93F1F8AC EQ PUSH2 0x864 JUMPI PUSH1 0x0 DUP1 REVERT JUMPDEST DUP1 PUSH4 0x7B36006A GT PUSH2 0x21B JUMPI DUP1 PUSH4 0x7B36006A EQ PUSH2 0x7CC JUMPI DUP1 PUSH4 0x7B5E01D7 EQ PUSH2 0x7D5 JUMPI DUP1 PUSH4 0x83657795 EQ PUSH2 0x7E8 JUMPI DUP1 PUSH4 0x839DF945 EQ PUSH2 0x7FB JUMPI DUP1 PUSH4 0x8B4D7B35 EQ PUSH2 0x81B JUMPI PUSH1 0x0 DUP1 REVERT JUMPDEST DUP1 PUSH4 0x763253BB EQ PUSH2 0x78B JUMPI DUP1 PUSH4 0x7683DBFB EQ PUSH2 0x79E JUMPI DUP1 PUSH4 0x77286D17 EQ PUSH2 0x7B1 JUMPI DUP1 PUSH4 0x7881C5E6 EQ PUSH2 0x7C4 JUMPI PUSH1 0x0 DUP1 REVERT JUMPDEST DUP1 PUSH4 0x3D18B912 GT PUSH2 0x368 JUMPI DUP1 PUSH4 0x56914CAF GT PUSH2 0x2E5 JUMPI DUP1 PUSH4 0x671F8152 GT PUSH2 0x2A9 JUMPI DUP1 PUSH4 0x671F8152 EQ PUSH2 0x73B JUMPI DUP1 PUSH4 0x682C2058 EQ PUSH2 0x74E JUMPI DUP1 PUSH4 0x715018A6 EQ PUSH2 0x757 JUMPI DUP1 PUSH4 0x72DC0EE1 EQ PUSH2 0x75F JUMPI DUP1 PUSH4 0x75C70509 EQ PUSH2 0x768 JUMPI PUSH1 0x0 DUP1 REVERT JUMPDEST DUP1 PUSH4 0x56914CAF EQ PUSH2 0x6CB JUMPI DUP1 PUSH4 0x5B851DAA EQ PUSH2 0x6DE JUMPI DUP1 PUSH4 0x5C975ABB EQ PUSH2 0x6F1 JUMPI DUP1 PUSH4 0x605CECF6 EQ PUSH2 0x715 JUMPI DUP1 PUSH4 0x61D027B3 EQ PUSH2 0x728 JUMPI PUSH1 0x0 DUP1 REVERT JUMPDEST DUP1 PUSH4 0x485CC955 GT PUSH2 0x32C JUMPI DUP1 PUSH4 0x485CC955 EQ PUSH2 0x676 JUMPI DUP1 PUSH4 0x49094D4D EQ PUSH2 0x689 JUMPI DUP1 PUSH4 0x4FF03EFA EQ PUSH2 0x69C JUMPI DUP1 PUSH4 0x506EA7DE EQ PUSH2 0x6AF JUMPI DUP1 PUSH4 0x54FD4D50 EQ PUSH2 0x6C2 JUMPI PUSH1 0x0 DUP1 REVERT JUMPDEST DUP1 PUSH4 0x3D18B912 EQ PUSH2 0x620 JUMPI DUP1 PUSH4 0x3D57F5D9 EQ PUSH2 0x628 JUMPI DUP1 PUSH4 0x408DEF1E EQ PUSH2 0x630 JUMPI DUP1 PUSH4 0x40E8C56D EQ PUSH2 0x643 JUMPI DUP1 PUSH4 0x4421EA21 EQ PUSH2 0x663 JUMPI PUSH1 0x0 DUP1 REVERT JUMPDEST DUP1 PUSH4 0x1B2CF4B8 GT PUSH2 0x3F6 JUMPI DUP1 PUSH4 0x28C2D36C GT PUSH2 0x3BA JUMPI DUP1 PUSH4 0x28C2D36C EQ PUSH2 0x5A9 JUMPI DUP1 PUSH4 0x2F9B03E4 EQ PUSH2 0x5BC JUMPI DUP1 PUSH4 0x303FB0D6 EQ PUSH2 0x5CF JUMPI DUP1 PUSH4 0x36F83C4F EQ PUSH2 0x5FA JUMPI DUP1 PUSH4 0x393CB1C7 EQ PUSH2 0x60D JUMPI PUSH1 0x0 DUP1 REVERT JUMPDEST DUP1 PUSH4 0x1B2CF4B8 EQ PUSH2 0x548 JUMPI DUP1 PUSH4 0x1B75C43E EQ PUSH2 0x55B JUMPI DUP1 PUSH4 0x1F88EA1C EQ PUSH2 0x57B JUMPI DUP1 PUSH4 0x218A3048 EQ PUSH2 0x58E JUMPI DUP1 PUSH4 0x2258D105 EQ PUSH2 0x5A1 JUMPI PUSH1 0x0 DUP1 REVERT JUMPDEST DUP1 PUSH4 0xC18D4CE GT PUSH2 0x43D JUMPI DUP1 PUSH4 0xC18D4CE EQ PUSH2 0x4C4 JUMPI DUP1 PUSH4 0x1466B63A EQ PUSH2 0x4EF JUMPI DUP1 PUSH4 0x16C38B3C EQ PUSH2 0x502 JUMPI DUP1 PUSH4 0x17F3E041 EQ PUSH2 0x515 JUMPI DUP1 PUSH4 0x1825C20E EQ PUSH2 0x535 JUMPI PUSH1 0x0 DUP1 REVERT JUMPDEST DUP1 PUSH3 0x3F9DD6 EQ PUSH2 0x46D JUMPI DUP1 PUSH3 0xFD7082 EQ PUSH2 0x482 JUMPI DUP1 PUSH4 0x8745DD1 EQ PUSH2 0x49E JUMPI DUP1 PUSH4 0xA985737 EQ PUSH2 0x4B1 JUMPI JUMPDEST PUSH1 0x0 DUP1 REVERT JUMPDEST PUSH2 0x480 PUSH2 0x47B CALLDATASIZE PUSH1 0x4 PUSH2 0x5004 JUMP JUMPDEST PUSH2 0xB4E JUMP JUMPDEST STOP JUMPDEST PUSH2 0x48B PUSH1 0x72 SLOAD DUP2 JUMP JUMPDEST PUSH1 0x40 MLOAD SWAP1 DUP2 MSTORE PUSH1 0x20 ADD JUMPDEST PUSH1 0x40 MLOAD DUP1 SWAP2 SUB SWAP1 RETURN JUMPDEST PUSH2 0x48B PUSH2 0x4AC CALLDATASIZE PUSH1 0x4 PUSH2 0x5096 JUMP JUMPDEST PUSH2 0xE06 JUMP JUMPDEST PUSH2 0x48B PUSH2 0x4BF CALLDATASIZE PUSH1 0x4 PUSH2 0x5004 JUMP JUMPDEST PUSH2 0x1093 JUMP JUMPDEST PUSH1 0x6A SLOAD PUSH2 0x4D7 SWAP1 PUSH1 0x1 PUSH1 0x1 PUSH1 0x40 SHL SUB AND DUP2 JUMP JUMPDEST PUSH1 0x40 MLOAD PUSH1 0x1 PUSH1 0x1 PUSH1 0x40 SHL SUB SWAP1 SWAP2 AND DUP2 MSTORE PUSH1 0x20 ADD PUSH2 0x495 JUMP JUMPDEST PUSH2 0x48B PUSH2 0x4FD CALLDATASIZE PUSH1 0x4 PUSH2 0x51D9 JUMP JUMPDEST PUSH2 0x11EE JUMP JUMPDEST PUSH2 0x480 PUSH2 0x510 CALLDATASIZE PUSH1 0x4 PUSH2 0x52BE JUMP JUMPDEST PUSH2 0x1235 JUMP JUMPDEST PUSH2 0x48B PUSH2 0x523 CALLDATASIZE PUSH1 0x4 PUSH2 0x5004 JUMP JUMPDEST PUSH1 0x80 PUSH1 0x20 MSTORE PUSH1 0x0 SWAP1 DUP2 MSTORE PUSH1 0x40 SWAP1 KECCAK256 SLOAD DUP2 JUMP JUMPDEST PUSH2 0x480 PUSH2 0x543 CALLDATASIZE PUSH1 0x4 PUSH2 0x52DB JUMP JUMPDEST PUSH2 0x12C5 JUMP JUMPDEST PUSH2 0x480 PUSH2 0x556 CALLDATASIZE PUSH1 0x4 PUSH2 0x5004 JUMP JUMPDEST PUSH2 0x138F JUMP JUMPDEST PUSH2 0x48B PUSH2 0x569 CALLDATASIZE PUSH1 0x4 PUSH2 0x530B JUMP JUMPDEST PUSH1 0x7A PUSH1 0x20 MSTORE PUSH1 0x0 SWAP1 DUP2 MSTORE PUSH1 0x40 SWAP1 KECCAK256 SLOAD DUP2 JUMP JUMPDEST PUSH2 0x48B PUSH2 0x589 CALLDATASIZE PUSH1 0x4 PUSH2 0x5328 JUMP JUMPDEST PUSH2 0x13CA JUMP JUMPDEST PUSH2 0x48B PUSH2 0x59C CALLDATASIZE PUSH1 0x4 PUSH2 0x534A JUMP JUMPDEST PUSH2 0x14F6 JUMP JUMPDEST PUSH2 0x48B PUSH2 0x1539 JUMP JUMPDEST PUSH2 0x480 PUSH2 0x5B7 CALLDATASIZE PUSH1 0x4 PUSH2 0x5004 JUMP JUMPDEST PUSH2 0x15A2 JUMP JUMPDEST PUSH2 0x480 PUSH2 0x5CA CALLDATASIZE PUSH1 0x4 PUSH2 0x5004 JUMP JUMPDEST PUSH2 0x15DD JUMP JUMPDEST PUSH2 0x5E2 PUSH2 0x5DD CALLDATASIZE PUSH1 0x4 PUSH2 0x5328 JUMP JUMPDEST PUSH2 0x1618 JUMP JUMPDEST PUSH1 0x40 MLOAD PUSH1 0x1 PUSH1 0x1 PUSH1 0xA0 SHL SUB SWAP1 SWAP2 AND DUP2 MSTORE PUSH1 0x20 ADD PUSH2 0x495 JUMP JUMPDEST PUSH2 0x480 PUSH2 0x608 CALLDATASIZE PUSH1 0x4 PUSH2 0x5004 JUMP JUMPDEST PUSH2 0x1650 JUMP JUMPDEST PUSH2 0x48B PUSH2 0x61B CALLDATASIZE PUSH1 0x4 PUSH2 0x5405 JUMP JUMPDEST PUSH2 0x168B JUMP JUMPDEST PUSH2 0x48B PUSH2 0x16C4 JUMP JUMPDEST PUSH2 0x48B PUSH2 0x16EE JUMP JUMPDEST PUSH2 0x480 PUSH2 0x63E CALLDATASIZE PUSH1 0x4 PUSH2 0x5004 JUMP JUMPDEST PUSH2 0x1733 JUMP JUMPDEST PUSH2 0x656 PUSH2 0x651 CALLDATASIZE PUSH1 0x4 PUSH2 0x5460 JUMP JUMPDEST PUSH2 0x1776 JUMP JUMPDEST PUSH1 0x40 MLOAD PUSH2 0x495 SWAP2 SWAP1 PUSH2 0x54F1 JUMP JUMPDEST PUSH2 0x480 PUSH2 0x671 CALLDATASIZE PUSH1 0x4 PUSH2 0x530B JUMP JUMPDEST PUSH2 0x1782 JUMP JUMPDEST PUSH2 0x480 PUSH2 0x684 CALLDATASIZE PUSH1 0x4 PUSH2 0x5504 JUMP JUMPDEST PUSH2 0x17D4 JUMP JUMPDEST PUSH2 0x480 PUSH2 0x697 CALLDATASIZE PUSH1 0x4 PUSH2 0x52DB JUMP JUMPDEST PUSH2 0x1989 JUMP JUMPDEST PUSH2 0x48B PUSH2 0x6AA CALLDATASIZE PUSH1 0x4 PUSH2 0x5405 JUMP JUMPDEST PUSH2 0x1A49 JUMP JUMPDEST PUSH2 0x480 PUSH2 0x6BD CALLDATASIZE PUSH1 0x4 PUSH2 0x5004 JUMP JUMPDEST PUSH2 0x1C0F JUMP JUMPDEST PUSH2 0x48B PUSH1 0x6B SLOAD DUP2 JUMP JUMPDEST PUSH2 0x480 PUSH2 0x6D9 CALLDATASIZE PUSH1 0x4 PUSH2 0x5532 JUMP JUMPDEST PUSH2 0x1CD1 JUMP JUMPDEST PUSH2 0x480 PUSH2 0x6EC CALLDATASIZE PUSH1 0x4 PUSH2 0x5004 JUMP JUMPDEST PUSH2 0x1FE5 JUMP JUMPDEST PUSH1 0x67 SLOAD PUSH2 0x705 SWAP1 PUSH1 0x1 PUSH1 0xA0 SHL SWAP1 DIV PUSH1 0xFF AND DUP2 JUMP JUMPDEST PUSH1 0x40 MLOAD SWAP1 ISZERO ISZERO DUP2 MSTORE PUSH1 0x20 ADD PUSH2 0x495 JUMP JUMPDEST PUSH2 0x480 PUSH2 0x723 CALLDATASIZE PUSH1 0x4 PUSH2 0x5004 JUMP JUMPDEST PUSH2 0x2020 JUMP JUMPDEST PUSH1 0x66 SLOAD PUSH2 0x5E2 SWAP1 PUSH1 0x1 PUSH1 0x1 PUSH1 0xA0 SHL SUB AND DUP2 JUMP JUMPDEST PUSH2 0x480 PUSH2 0x749 CALLDATASIZE PUSH1 0x4 PUSH2 0x5004 JUMP JUMPDEST PUSH2 0x205B JUMP JUMPDEST PUSH2 0x48B PUSH1 0x68 SLOAD DUP2 JUMP JUMPDEST PUSH2 0x480 PUSH2 0x236D JUMP JUMPDEST PUSH2 0x48B PUSH1 0x6F SLOAD DUP2 JUMP JUMPDEST PUSH2 0x77B PUSH2 0x776 CALLDATASIZE PUSH1 0x4 PUSH2 0x5004 JUMP JUMPDEST PUSH2 0x2381 JUMP JUMPDEST PUSH1 0x40 MLOAD PUSH2 0x495 SWAP5 SWAP4 SWAP3 SWAP2 SWAP1 PUSH2 0x557D JUMP JUMPDEST PUSH2 0x480 PUSH2 0x799 CALLDATASIZE PUSH1 0x4 PUSH2 0x55C2 JUMP JUMPDEST PUSH2 0x244C JUMP JUMPDEST PUSH2 0x480 PUSH2 0x7AC CALLDATASIZE PUSH1 0x4 PUSH2 0x5004 JUMP JUMPDEST PUSH2 0x26C0 JUMP JUMPDEST PUSH2 0x480 PUSH2 0x7BF CALLDATASIZE PUSH1 0x4 PUSH2 0x5004 JUMP JUMPDEST PUSH2 0x26FB JUMP JUMPDEST PUSH2 0x48B PUSH2 0x28FB JUMP JUMPDEST PUSH2 0x48B PUSH1 0x73 SLOAD DUP2 JUMP JUMPDEST PUSH2 0x480 PUSH2 0x7E3 CALLDATASIZE PUSH1 0x4 PUSH2 0x5504 JUMP JUMPDEST PUSH2 0x299B JUMP JUMPDEST PUSH2 0x48B PUSH2 0x7F6 CALLDATASIZE PUSH1 0x4 PUSH2 0x55E7 JUMP JUMPDEST PUSH2 0x2A77 JUMP JUMPDEST PUSH2 0x48B PUSH2 0x809 CALLDATASIZE PUSH1 0x4 PUSH2 0x5004 JUMP JUMPDEST PUSH1 0x7C PUSH1 0x20 MSTORE PUSH1 0x0 SWAP1 DUP2 MSTORE PUSH1 0x40 SWAP1 KECCAK256 SLOAD DUP2 JUMP JUMPDEST PUSH2 0x480 PUSH2 0x829 CALLDATASIZE PUSH1 0x4 PUSH2 0x5613 JUMP JUMPDEST PUSH2 0x2BBF JUMP JUMPDEST PUSH1 0x33 SLOAD PUSH1 0x1 PUSH1 0x1 PUSH1 0xA0 SHL SUB AND PUSH2 0x5E2 JUMP JUMPDEST PUSH2 0x48B PUSH1 0x74 SLOAD DUP2 JUMP JUMPDEST PUSH2 0x48B PUSH1 0x71 SLOAD DUP2 JUMP JUMPDEST PUSH2 0x480 PUSH2 0x85F CALLDATASIZE PUSH1 0x4 PUSH2 0x55E7 JUMP JUMPDEST PUSH2 0x32E9 JUMP JUMPDEST PUSH2 0x480 PUSH2 0x872 CALLDATASIZE PUSH1 0x4 PUSH2 0x5328 JUMP JUMPDEST PUSH2 0x34CB JUMP JUMPDEST PUSH2 0x48B PUSH1 0x6C SLOAD DUP2 JUMP JUMPDEST PUSH1 0x67 SLOAD PUSH2 0x5E2 SWAP1 PUSH1 0x1 PUSH1 0x1 PUSH1 0xA0 SHL SUB AND DUP2 JUMP JUMPDEST PUSH2 0x48B PUSH2 0x8A1 CALLDATASIZE PUSH1 0x4 PUSH2 0x5328 JUMP JUMPDEST PUSH2 0x355E JUMP JUMPDEST PUSH2 0x48B PUSH1 0x75 SLOAD DUP2 JUMP JUMPDEST PUSH2 0x480 PUSH2 0x8BD CALLDATASIZE PUSH1 0x4 PUSH2 0x5004 JUMP JUMPDEST PUSH2 0x35DA JUMP JUMPDEST PUSH2 0x480 PUSH2 0x3615 JUMP JUMPDEST PUSH2 0x480 PUSH2 0x8D8 CALLDATASIZE PUSH1 0x4 PUSH2 0x5004 JUMP JUMPDEST PUSH2 0x36C1 JUMP JUMPDEST PUSH2 0x48B PUSH1 0x69 SLOAD DUP2 JUMP JUMPDEST PUSH2 0x48B PUSH1 0x70 SLOAD DUP2 JUMP JUMPDEST PUSH2 0x480 PUSH2 0x8FD CALLDATASIZE PUSH1 0x4 PUSH2 0x5004 JUMP JUMPDEST PUSH2 0x36FC JUMP JUMPDEST PUSH1 0x65 SLOAD PUSH2 0x5E2 SWAP1 PUSH1 0x1 PUSH1 0x1 PUSH1 0xA0 SHL SUB AND DUP2 JUMP JUMPDEST PUSH2 0x480 PUSH2 0x923 CALLDATASIZE PUSH1 0x4 PUSH2 0x5004 JUMP JUMPDEST PUSH2 0x3737 JUMP JUMPDEST PUSH2 0x48B PUSH2 0x936 CALLDATASIZE PUSH1 0x4 PUSH2 0x5004 JUMP JUMPDEST PUSH2 0x3850 JUMP JUMPDEST PUSH2 0x5E2 PUSH2 0x949 CALLDATASIZE PUSH1 0x4 PUSH2 0x5328 JUMP JUMPDEST PUSH2 0x38E4 JUMP JUMPDEST PUSH2 0x48B PUSH2 0x95C CALLDATASIZE PUSH1 0x4 PUSH2 0x530B JUMP JUMPDEST PUSH1 0x78 PUSH1 0x20 MSTORE PUSH1 0x0 SWAP1 DUP2 MSTORE PUSH1 0x40 SWAP1 KECCAK256 SLOAD DUP2 JUMP JUMPDEST PUSH2 0x705 PUSH2 0x97C CALLDATASIZE PUSH1 0x4 PUSH2 0x55C2 JUMP JUMPDEST PUSH1 0x7F PUSH1 0x20 SWAP1 DUP2 MSTORE PUSH1 0x0 SWAP3 DUP4 MSTORE PUSH1 0x40 DUP1 DUP5 KECCAK256 SWAP1 SWAP2 MSTORE SWAP1 DUP3 MSTORE SWAP1 KECCAK256 SLOAD PUSH1 0xFF AND DUP2 JUMP JUMPDEST PUSH2 0x9CE PUSH2 0x9AA CALLDATASIZE PUSH1 0x4 PUSH2 0x55E7 JUMP JUMPDEST PUSH1 0x79 PUSH1 0x20 SWAP1 DUP2 MSTORE PUSH1 0x0 SWAP3 DUP4 MSTORE PUSH1 0x40 DUP1 DUP5 KECCAK256 SWAP1 SWAP2 MSTORE SWAP1 DUP3 MSTORE SWAP1 KECCAK256 DUP1 SLOAD PUSH1 0x1 SWAP1 SWAP2 ADD SLOAD DUP3 JUMP JUMPDEST PUSH1 0x40 DUP1 MLOAD SWAP3 DUP4 MSTORE PUSH1 0x20 DUP4 ADD SWAP2 SWAP1 SWAP2 MSTORE ADD PUSH2 0x495 JUMP JUMPDEST PUSH2 0xA35 PUSH2 0x9F1 CALLDATASIZE PUSH1 0x4 PUSH2 0x5004 JUMP JUMPDEST PUSH1 0x7E PUSH1 0x20 MSTORE PUSH1 0x0 SWAP1 DUP2 MSTORE PUSH1 0x40 SWAP1 KECCAK256 DUP1 SLOAD PUSH1 0x1 SWAP1 SWAP2 ADD SLOAD PUSH1 0x1 PUSH1 0x1 PUSH1 0xA0 SHL SUB DUP3 AND SWAP2 PUSH1 0x1 PUSH1 0xA0 SHL DUP2 DIV PUSH1 0x1 PUSH1 0x1 PUSH1 0x40 SHL SUB AND SWAP2 PUSH1 0x1 PUSH1 0xE0 SHL SWAP1 SWAP2 DIV PUSH4 0xFFFFFFFF AND SWAP1 DUP5 JUMP JUMPDEST PUSH1 0x40 DUP1 MLOAD PUSH1 0x1 PUSH1 0x1 PUSH1 0xA0 SHL SUB SWAP1 SWAP6 AND DUP6 MSTORE PUSH1 0x1 PUSH1 0x1 PUSH1 0x40 SHL SUB SWAP1 SWAP4 AND PUSH1 0x20 DUP6 ADD MSTORE PUSH4 0xFFFFFFFF SWAP1 SWAP2 AND SWAP2 DUP4 ADD SWAP2 SWAP1 SWAP2 MSTORE PUSH1 0x60 DUP3 ADD MSTORE PUSH1 0x80 ADD PUSH2 0x495 JUMP JUMPDEST PUSH2 0x480 PUSH2 0xA80 CALLDATASIZE PUSH1 0x4 PUSH2 0x530B JUMP JUMPDEST PUSH2 0x3900 JUMP JUMPDEST PUSH2 0x48B PUSH1 0x6D SLOAD DUP2 JUMP JUMPDEST PUSH2 0xAA1 PUSH2 0xA9C CALLDATASIZE PUSH1 0x4 PUSH2 0x5004 JUMP JUMPDEST PUSH2 0x3952 JUMP JUMPDEST PUSH1 0x40 MLOAD PUSH2 0x495 SWAP5 SWAP4 SWAP3 SWAP2 SWAP1 PUSH2 0x5641 JUMP JUMPDEST PUSH2 0xAC4 PUSH2 0xABF CALLDATASIZE PUSH1 0x4 PUSH2 0x5004 JUMP JUMPDEST PUSH2 0x398C JUMP JUMPDEST PUSH1 0x40 MLOAD PUSH2 0x495 SWAP7 SWAP6 SWAP5 SWAP4 SWAP3 SWAP2 SWAP1 PUSH2 0x566E JUMP JUMPDEST PUSH2 0x48B PUSH1 0x6E SLOAD DUP2 JUMP JUMPDEST PUSH2 0x480 PUSH2 0xAED CALLDATASIZE PUSH1 0x4 PUSH2 0x530B JUMP JUMPDEST PUSH2 0x3A65 JUMP JUMPDEST PUSH2 0xB2A PUSH2 0xB00 CALLDATASIZE PUSH1 0x4 PUSH2 0x530B JUMP JUMPDEST PUSH1 0x77 PUSH1 0x20 MSTORE PUSH1 0x0 SWAP1 DUP2 MSTORE PUSH1 0x40 SWAP1 KECCAK256 DUP1 SLOAD PUSH1 0x1 DUP3 ADD SLOAD PUSH1 0x2 SWAP1 SWAP3 ADD SLOAD SWAP1 SWAP2 SWAP1 PUSH1 0x1 PUSH1 0x1 PUSH1 0xA0 SHL SUB AND DUP4 JUMP JUMPDEST PUSH1 0x40 DUP1 MLOAD SWAP4 DUP5 MSTORE PUSH1 0x20 DUP5 ADD SWAP3 SWAP1 SWAP3 MSTORE PUSH1 0x1 PUSH1 0x1 PUSH1 0xA0 SHL SUB AND SWAP1 DUP3 ADD MSTORE PUSH1 0x60 ADD PUSH2 0x495 JUMP JUMPDEST PUSH1 0x67 SLOAD PUSH1 0x1 PUSH1 0xA0 SHL SWAP1 DIV PUSH1 0xFF AND ISZERO PUSH2 0xB81 JUMPI PUSH1 0x40 MLOAD PUSH3 0x461BCD PUSH1 0xE5 SHL DUP2 MSTORE PUSH1 0x4 ADD PUSH2 0xB78 SWAP1 PUSH2 0x56BF JUMP JUMPDEST PUSH1 0x40 MLOAD DUP1 SWAP2 SUB SWAP1 REVERT JUMPDEST PUSH1 0x0 DUP2 DUP2 MSTORE PUSH1 0x7B PUSH1 0x20 MSTORE PUSH1 0x40 SWAP1 KECCAK256 PUSH1 0x2 ADD SLOAD PUSH1 0x1 PUSH1 0x1 PUSH1 0xA0 SHL SUB AND CALLER EQ PUSH2 0xBD6 JUMPI PUSH1 0x40 MLOAD PUSH3 0x461BCD PUSH1 0xE5 SHL DUP2 MSTORE PUSH1 0x20 PUSH1 0x4 DUP3 ADD MSTORE PUSH1 0x9 PUSH1 0x24 DUP3 ADD MSTORE PUSH9 0x3737BA1037BBB732B9 PUSH1 0xB9 SHL PUSH1 0x44 DUP3 ADD MSTORE PUSH1 0x64 ADD PUSH2 0xB78 JUMP JUMPDEST PUSH1 0x0 DUP2 DUP2 MSTORE PUSH1 0x7D PUSH1 0x20 MSTORE PUSH1 0x40 SWAP1 KECCAK256 SLOAD PUSH1 0x1 PUSH1 0x1 PUSH1 0xA0 SHL SUB AND ISZERO PUSH2 0xC2A JUMPI PUSH1 0x40 MLOAD PUSH3 0x461BCD PUSH1 0xE5 SHL DUP2 MSTORE PUSH1 0x20 PUSH1 0x4 DUP3 ADD MSTORE PUSH1 0xC PUSH1 0x24 DUP3 ADD MSTORE PUSH12 0x3430B99039B7B63ABA34B7B7 PUSH1 0xA1 SHL PUSH1 0x44 DUP3 ADD MSTORE PUSH1 0x64 ADD PUSH2 0xB78 JUMP JUMPDEST PUSH1 0x72 SLOAD PUSH1 0x0 DUP3 DUP2 MSTORE PUSH1 0x7B PUSH1 0x20 MSTORE PUSH1 0x40 SWAP1 KECCAK256 PUSH1 0x2 ADD SLOAD PUSH2 0xC59 SWAP1 PUSH1 0x1 PUSH1 0xA0 SHL SWAP1 DIV PUSH1 0x1 PUSH1 0x1 PUSH1 0x40 SHL SUB AND TIMESTAMP PUSH2 0x56F5 JUMP JUMPDEST GT PUSH2 0xCA6 JUMPI PUSH1 0x40 MLOAD PUSH3 0x461BCD PUSH1 0xE5 SHL DUP2 MSTORE PUSH1 0x20 PUSH1 0x4 DUP3 ADD MSTORE PUSH1 0x18 PUSH1 0x24 DUP3 ADD MSTORE PUSH32 0x646964206E6F742077616974206C6F6E6720656E6F7567680000000000000000 PUSH1 0x44 DUP3 ADD MSTORE PUSH1 0x64 ADD PUSH2 0xB78 JUMP JUMPDEST PUSH1 0x0 PUSH8 0xDE0B6B3A7640000 PUSH1 0x6F SLOAD PUSH8 0xDE0B6B3A7640000 PUSH2 0xCC7 SWAP2 SWAP1 PUSH2 0x56F5 JUMP JUMPDEST PUSH1 0x0 DUP5 DUP2 MSTORE PUSH1 0x7B PUSH1 0x20 MSTORE PUSH1 0x40 SWAP1 KECCAK256 PUSH1 0x1 ADD SLOAD PUSH2 0xCE3 SWAP2 SWAP1 PUSH2 0x5708 JUMP JUMPDEST PUSH2 0xCED SWAP2 SWAP1 PUSH2 0x5735 JUMP JUMPDEST PUSH1 0x0 DUP4 DUP2 MSTORE PUSH1 0x7B PUSH1 0x20 MSTORE PUSH1 0x40 DUP2 KECCAK256 PUSH1 0x1 ADD SLOAD SWAP2 SWAP3 POP SWAP1 PUSH2 0xD0E SWAP1 DUP4 SWAP1 PUSH2 0x56F5 JUMP JUMPDEST PUSH1 0x65 SLOAD PUSH1 0x40 MLOAD PUSH4 0xA9059CBB PUSH1 0xE0 SHL DUP2 MSTORE SWAP2 SWAP3 POP PUSH1 0x1 PUSH1 0x1 PUSH1 0xA0 SHL SUB AND SWAP1 PUSH4 0xA9059CBB SWAP1 PUSH2 0xD41 SWAP1 CALLER SWAP1 DUP7 SWAP1 PUSH1 0x4 ADD PUSH2 0x5757 JUMP JUMPDEST PUSH1 0x20 PUSH1 0x40 MLOAD DUP1 DUP4 SUB DUP2 PUSH1 0x0 DUP8 GAS CALL ISZERO DUP1 ISZERO PUSH2 0xD60 JUMPI RETURNDATASIZE PUSH1 0x0 DUP1 RETURNDATACOPY RETURNDATASIZE PUSH1 0x0 REVERT JUMPDEST POP POP POP POP PUSH1 0x40 MLOAD RETURNDATASIZE PUSH1 0x1F NOT PUSH1 0x1F DUP3 ADD AND DUP3 ADD DUP1 PUSH1 0x40 MSTORE POP DUP2 ADD SWAP1 PUSH2 0xD84 SWAP2 SWAP1 PUSH2 0x5770 JUMP JUMPDEST POP DUP1 PUSH1 0x68 PUSH1 0x0 DUP3 DUP3 SLOAD PUSH2 0xD97 SWAP2 SWAP1 PUSH2 0x578D JUMP JUMPDEST SWAP1 SWAP2 SSTORE POP POP PUSH1 0x0 DUP4 DUP2 MSTORE PUSH1 0x7B PUSH1 0x20 MSTORE PUSH1 0x40 DUP2 KECCAK256 DUP2 DUP2 SSTORE PUSH1 0x1 DUP2 ADD DUP3 SWAP1 SSTORE PUSH1 0x2 DUP2 ADD DUP1 SLOAD PUSH1 0x1 PUSH1 0x1 PUSH1 0xE8 SHL SUB NOT AND SWAP1 SSTORE SWAP1 PUSH2 0xDD4 PUSH1 0x3 DUP4 ADD DUP3 PUSH2 0x4FB6 JUMP JUMPDEST POP POP PUSH1 0x40 MLOAD DUP4 SWAP1 PUSH32 0x446EFBF8D207F3E2EDE58A6BBDE7028A4E308488B6293E6461FBB7C288326E76 SWAP1 PUSH1 0x0 SWAP1 LOG2 POP POP POP JUMP JUMPDEST PUSH1 0x67 SLOAD PUSH1 0x0 SWAP1 PUSH1 0x1 PUSH1 0xA0 SHL SWAP1 DIV PUSH1 0xFF AND ISZERO PUSH2 0xE33 JUMPI PUSH1 0x40 MLOAD PUSH3 0x461BCD PUSH1 0xE5 SHL DUP2 MSTORE PUSH1 0x4 ADD PUSH2 0xB78 SWAP1 PUSH2 0x56BF JUMP JUMPDEST PUSH1 0x0 DUP6 DUP2 MSTORE PUSH1 0x76 PUSH1 0x20 MSTORE PUSH1 0x40 SWAP1 KECCAK256 PUSH1 0x1 ADD SLOAD PUSH1 0x1 PUSH1 0x1 PUSH1 0xA0 SHL SUB AND PUSH2 0xE6A JUMPI PUSH1 0x40 MLOAD PUSH3 0x461BCD PUSH1 0xE5 SHL DUP2 MSTORE PUSH1 0x4 ADD PUSH2 0xB78 SWAP1 PUSH2 0x57A0 JUMP JUMPDEST PUSH1 0x0 DUP6 DUP2 MSTORE PUSH1 0x76 PUSH1 0x20 MSTORE PUSH1 0x40 SWAP1 KECCAK256 SLOAD DUP5 LT ISZERO PUSH2 0xEC8 JUMPI PUSH1 0x40 MLOAD PUSH3 0x461BCD PUSH1 0xE5 SHL DUP2 MSTORE PUSH1 0x20 PUSH1 0x4 DUP3 ADD MSTORE PUSH1 0x18 PUSH1 0x24 DUP3 ADD MSTORE PUSH32 0x6C6F77657220666565207468616E206D6F64656C206665650000000000000000 PUSH1 0x44 DUP3 ADD MSTORE PUSH1 0x64 ADD PUSH2 0xB78 JUMP JUMPDEST PUSH1 0x0 PUSH2 0xED4 DUP5 DUP5 PUSH2 0x3A76 JUMP JUMPDEST SWAP1 POP PUSH1 0x0 PUSH1 0x40 MLOAD DUP1 PUSH1 0xC0 ADD PUSH1 0x40 MSTORE DUP1 DUP9 DUP2 MSTORE PUSH1 0x20 ADD DUP8 DUP2 MSTORE PUSH1 0x20 ADD DUP10 PUSH1 0x1 PUSH1 0x1 PUSH1 0xA0 SHL SUB AND DUP2 MSTORE PUSH1 0x20 ADD TIMESTAMP PUSH1 0x1 PUSH1 0x1 PUSH1 0x40 SHL SUB AND DUP2 MSTORE PUSH1 0x20 ADD DUP11 PUSH1 0xFF AND DUP2 MSTORE PUSH1 0x20 ADD DUP4 DUP2 MSTORE POP SWAP1 POP PUSH1 0x0 PUSH2 0xF2B DUP3 CALLER PUSH1 0x69 SLOAD PUSH2 0x11EE JUMP JUMPDEST SWAP1 POP CALLER PUSH1 0x1 PUSH1 0x1 PUSH1 0xA0 SHL SUB AND DUP9 DUP3 PUSH32 0xC3D3E0544C80E3BB83F62659259AE1574F72A91515AB3CAE3DD75CF77E1B0AEA DUP11 PUSH1 0x40 MLOAD PUSH2 0xF6A SWAP2 DUP2 MSTORE PUSH1 0x20 ADD SWAP1 JUMP JUMPDEST PUSH1 0x40 MLOAD DUP1 SWAP2 SUB SWAP1 LOG4 PUSH1 0x65 SLOAD PUSH1 0x40 MLOAD PUSH4 0x23B872DD PUSH1 0xE0 SHL DUP2 MSTORE CALLER PUSH1 0x4 DUP3 ADD MSTORE ADDRESS PUSH1 0x24 DUP3 ADD MSTORE PUSH1 0x44 DUP2 ADD DUP10 SWAP1 MSTORE PUSH1 0x1 PUSH1 0x1 PUSH1 0xA0 SHL SUB SWAP1 SWAP2 AND SWAP1 PUSH4 0x23B872DD SWAP1 PUSH1 0x64 ADD PUSH1 0x20 PUSH1 0x40 MLOAD DUP1 DUP4 SUB DUP2 PUSH1 0x0 DUP8 GAS CALL ISZERO DUP1 ISZERO PUSH2 0xFC9 JUMPI RETURNDATASIZE PUSH1 0x0 DUP1 RETURNDATACOPY RETURNDATASIZE PUSH1 0x0 REVERT JUMPDEST POP POP POP POP PUSH1 0x40 MLOAD RETURNDATASIZE PUSH1 0x1F NOT PUSH1 0x1F DUP3 ADD AND DUP3 ADD DUP1 PUSH1 0x40 MSTORE POP DUP2 ADD SWAP1 PUSH2 0xFED SWAP2 SWAP1 PUSH2 0x5770 JUMP JUMPDEST POP PUSH1 0x0 DUP2 DUP2 MSTORE PUSH1 0x7B PUSH1 0x20 SWAP1 DUP2 MSTORE PUSH1 0x40 SWAP2 DUP3 SWAP1 KECCAK256 DUP5 MLOAD DUP2 SSTORE SWAP1 DUP5 ADD MLOAD PUSH1 0x1 DUP3 ADD SSTORE SWAP1 DUP4 ADD MLOAD PUSH1 0x2 DUP3 ADD DUP1 SLOAD PUSH1 0x60 DUP7 ADD MLOAD PUSH1 0x80 DUP8 ADD MLOAD PUSH1 0xFF AND PUSH1 0x1 PUSH1 0xE0 SHL MUL PUSH1 0xFF PUSH1 0xE0 SHL NOT PUSH1 0x1 PUSH1 0x1 PUSH1 0x40 SHL SUB SWAP1 SWAP3 AND PUSH1 0x1 PUSH1 0xA0 SHL MUL PUSH1 0x1 PUSH1 0x1 PUSH1 0xE0 SHL SUB NOT SWAP1 SWAP4 AND PUSH1 0x1 PUSH1 0x1 PUSH1 0xA0 SHL SUB SWAP1 SWAP6 AND SWAP5 SWAP1 SWAP5 OR SWAP2 SWAP1 SWAP2 OR AND SWAP2 SWAP1 SWAP2 OR SWAP1 SSTORE PUSH1 0xA0 DUP4 ADD MLOAD DUP4 SWAP2 SWAP1 PUSH1 0x3 DUP3 ADD SWAP1 PUSH2 0x107E SWAP1 DUP3 PUSH2 0x5848 JUMP JUMPDEST POP POP POP PUSH1 0x69 DUP2 SWAP1 SSTORE SWAP10 SWAP9 POP POP POP POP POP POP POP POP POP JUMP JUMPDEST PUSH1 0x67 SLOAD PUSH1 0x0 SWAP1 PUSH1 0x1 PUSH1 0xA0 SHL SWAP1 DIV PUSH1 0xFF AND ISZERO PUSH2 0x10C0 JUMPI PUSH1 0x40 MLOAD PUSH3 0x461BCD PUSH1 0xE5 SHL DUP2 MSTORE PUSH1 0x4 ADD PUSH2 0xB78 SWAP1 PUSH2 0x56BF JUMP JUMPDEST CALLER PUSH1 0x0 SWAP1 DUP2 MSTORE PUSH1 0x7A PUSH1 0x20 SWAP1 DUP2 MSTORE PUSH1 0x40 DUP1 DUP4 KECCAK256 SLOAD PUSH1 0x77 SWAP1 SWAP3 MSTORE SWAP1 SWAP2 KECCAK256 SLOAD DUP4 SWAP2 PUSH2 0x10E7 SWAP2 PUSH2 0x56F5 JUMP JUMPDEST LT ISZERO PUSH2 0x110F JUMPI PUSH1 0x40 MLOAD PUSH3 0x461BCD PUSH1 0xE5 SHL DUP2 MSTORE PUSH1 0x20 PUSH1 0x4 DUP3 ADD MSTORE PUSH1 0x0 PUSH1 0x24 DUP3 ADD MSTORE PUSH1 0x44 ADD PUSH2 0xB78 JUMP JUMPDEST PUSH1 0x0 PUSH1 0x75 SLOAD TIMESTAMP PUSH2 0x111F SWAP2 SWAP1 PUSH2 0x578D JUMP JUMPDEST CALLER PUSH1 0x0 SWAP1 DUP2 MSTORE PUSH1 0x78 PUSH1 0x20 MSTORE PUSH1 0x40 DUP2 KECCAK256 DUP1 SLOAD SWAP3 SWAP4 POP PUSH1 0x1 SWAP3 SWAP1 SWAP2 SWAP1 PUSH2 0x1144 SWAP1 DUP5 SWAP1 PUSH2 0x578D JUMP JUMPDEST SWAP1 SWAP2 SSTORE POP POP CALLER PUSH1 0x0 DUP2 DUP2 MSTORE PUSH1 0x78 PUSH1 0x20 SWAP1 DUP2 MSTORE PUSH1 0x40 DUP1 DUP4 KECCAK256 SLOAD DUP2 MLOAD DUP1 DUP4 ADD DUP4 MSTORE DUP7 DUP2 MSTORE DUP1 DUP5 ADD DUP10 DUP2 MSTORE DUP7 DUP7 MSTORE PUSH1 0x79 DUP6 MSTORE DUP4 DUP7 KECCAK256 DUP4 DUP8 MSTORE DUP6 MSTORE DUP4 DUP7 KECCAK256 SWAP2 MLOAD DUP3 SSTORE MLOAD PUSH1 0x1 SWAP1 SWAP2 ADD SSTORE SWAP4 DUP4 MSTORE PUSH1 0x7A SWAP1 SWAP2 MSTORE DUP2 KECCAK256 DUP1 SLOAD DUP7 SWAP3 SWAP1 PUSH2 0x11A3 SWAP1 DUP5 SWAP1 PUSH2 0x578D JUMP JUMPDEST SWAP1 SWAP2 SSTORE POP POP PUSH1 0x40 DUP1 MLOAD DUP4 DUP2 MSTORE PUSH1 0x20 DUP2 ADD DUP7 SWAP1 MSTORE DUP3 SWAP2 CALLER SWAP2 PUSH32 0xCC7E0E76B20394EF965D71C4111D21E1B322BB8775DC2C7ACD29EB0D3C3DD96D SWAP2 ADD PUSH1 0x40 MLOAD DUP1 SWAP2 SUB SWAP1 LOG3 SWAP2 POP POP JUMPDEST SWAP2 SWAP1 POP JUMP JUMPDEST PUSH1 0x0 DUP3 DUP3 DUP6 PUSH1 0x0 ADD MLOAD DUP7 PUSH1 0x20 ADD MLOAD DUP8 PUSH1 0xA0 ADD MLOAD PUSH1 0x40 MLOAD PUSH1 0x20 ADD PUSH2 0x1215 SWAP6 SWAP5 SWAP4 SWAP3 SWAP2 SWAP1 PUSH2 0x5907 JUMP JUMPDEST PUSH1 0x40 MLOAD PUSH1 0x20 DUP2 DUP4 SUB SUB DUP2 MSTORE SWAP1 PUSH1 0x40 MSTORE DUP1 MLOAD SWAP1 PUSH1 0x20 ADD KECCAK256 SWAP1 POP JUMPDEST SWAP4 SWAP3 POP POP POP JUMP JUMPDEST PUSH1 0x67 SLOAD PUSH1 0x1 PUSH1 0x1 PUSH1 0xA0 SHL SUB AND CALLER EQ PUSH2 0x127C JUMPI PUSH1 0x40 MLOAD PUSH3 0x461BCD PUSH1 0xE5 SHL DUP2 MSTORE PUSH1 0x20 PUSH1 0x4 DUP3 ADD MSTORE PUSH1 0xA PUSH1 0x24 DUP3 ADD MSTORE PUSH10 0x3737BA103830BAB9B2B9 PUSH1 0xB1 SHL PUSH1 0x44 DUP3 ADD MSTORE PUSH1 0x64 ADD PUSH2 0xB78 JUMP JUMPDEST PUSH1 0x67 DUP1 SLOAD PUSH1 0xFF PUSH1 0xA0 SHL NOT AND PUSH1 0x1 PUSH1 0xA0 SHL DUP4 ISZERO ISZERO SWAP1 DUP2 MUL SWAP2 SWAP1 SWAP2 OR SWAP1 SWAP2 SSTORE PUSH1 0x40 MLOAD PUSH32 0xD83D5281277E107F080E362699D46082ADB74E7DC6A9BCCBC87D8AE9533ADD44 SWAP1 PUSH1 0x0 SWAP1 LOG2 POP JUMP JUMPDEST PUSH1 0x67 SLOAD PUSH1 0x1 PUSH1 0xA0 SHL SWAP1 DIV PUSH1 0xFF AND ISZERO PUSH2 0x12EF JUMPI PUSH1 0x40 MLOAD PUSH3 0x461BCD PUSH1 0xE5 SHL DUP2 MSTORE PUSH1 0x4 ADD PUSH2 0xB78 SWAP1 PUSH2 0x56BF JUMP JUMPDEST PUSH2 0x12F7 PUSH2 0x1539 JUMP JUMPDEST CALLER PUSH1 0x0 SWAP1 DUP2 MSTORE PUSH1 0x7A PUSH1 0x20 SWAP1 DUP2 MSTORE PUSH1 0x40 DUP1 DUP4 KECCAK256 SLOAD PUSH1 0x77 SWAP1 SWAP3 MSTORE SWAP1 SWAP2 KECCAK256 SLOAD PUSH2 0x131D SWAP2 SWAP1 PUSH2 0x56F5 JUMP JUMPDEST LT ISZERO PUSH2 0x133B JUMPI PUSH1 0x40 MLOAD PUSH3 0x461BCD PUSH1 0xE5 SHL DUP2 MSTORE PUSH1 0x4 ADD PUSH2 0xB78 SWAP1 PUSH2 0x5945 JUMP JUMPDEST PUSH2 0x1345 CALLER DUP4 PUSH2 0x2A77 JUMP JUMPDEST ISZERO PUSH2 0x1380 JUMPI PUSH1 0x40 MLOAD PUSH3 0x461BCD PUSH1 0xE5 SHL DUP2 MSTORE PUSH1 0x20 PUSH1 0x4 DUP3 ADD MSTORE PUSH1 0xB PUSH1 0x24 DUP3 ADD MSTORE PUSH11 0x1B9BDD08185B1B1BDDD959 PUSH1 0xAA SHL PUSH1 0x44 DUP3 ADD MSTORE PUSH1 0x64 ADD PUSH2 0xB78 JUMP JUMPDEST PUSH2 0x138B DUP3 DUP3 CALLER PUSH2 0x3BAB JUMP JUMPDEST POP POP JUMP JUMPDEST PUSH2 0x1397 PUSH2 0x3CCF JUMP JUMPDEST PUSH1 0x6E DUP2 SWAP1 SSTORE PUSH1 0x40 MLOAD DUP2 SWAP1 PUSH32 0xA9DFC7CA3151B504BDBE971426324A888F97E7E7A52929484C01DFF8168058AB SWAP1 PUSH1 0x0 SWAP1 LOG2 POP JUMP JUMPDEST PUSH1 0x0 DUP1 DUP4 GT DUP1 ISZERO PUSH2 0x13DB JUMPI POP PUSH1 0x0 DUP3 GT JUMPDEST PUSH2 0x1412 JUMPI PUSH1 0x40 MLOAD PUSH3 0x461BCD PUSH1 0xE5 SHL DUP2 MSTORE PUSH1 0x20 PUSH1 0x4 DUP3 ADD MSTORE PUSH1 0x8 PUSH1 0x24 DUP3 ADD MSTORE PUSH8 0x6D696E2076616C73 PUSH1 0xC0 SHL PUSH1 0x44 DUP3 ADD MSTORE PUSH1 0x64 ADD PUSH2 0xB78 JUMP JUMPDEST PUSH1 0x0 PUSH2 0x141D DUP5 PUSH2 0x3850 JUMP JUMPDEST SWAP1 POP PUSH1 0x0 PUSH2 0x142D DUP3 JUMPDEST DUP6 SWAP1 PUSH2 0x3D29 JUMP JUMPDEST SWAP1 POP PUSH8 0xCF4AD2E86166C9C DUP2 SLT ISZERO PUSH2 0x1452 JUMPI PUSH9 0x56BC75E2D63100000 SWAP3 POP POP POP PUSH2 0x14F0 JUMP JUMPDEST PUSH8 0xDE0B6B3A7640000 PUSH9 0x56BC75E2D63100000 PUSH1 0x0 PUSH2 0x148F PUSH2 0x1488 DUP5 PUSH2 0x1482 DUP6 PUSH2 0x147C DUP10 DUP5 PUSH2 0x3DFF JUMP JUMPDEST SWAP1 PUSH2 0x3E0E JUMP JUMPDEST SWAP1 PUSH2 0x3DFF JUMP JUMPDEST DUP5 SWAP1 PUSH2 0x3EB2 JUMP JUMPDEST SWAP1 POP PUSH9 0x1158E460913D00000 DUP2 SLT PUSH2 0x14AF JUMPI PUSH1 0x0 SWAP6 POP POP POP POP POP POP PUSH2 0x14F0 JUMP JUMPDEST PUSH2 0x14B9 DUP2 PUSH1 0x0 SGT SWAP1 JUMP JUMPDEST ISZERO PUSH2 0x14E1 JUMPI PUSH2 0x14D5 PUSH2 0x14D2 PUSH2 0x14CD DUP4 PUSH2 0x3EC1 JUMP JUMPDEST PUSH2 0x3F02 JUMP JUMPDEST SWAP1 JUMP JUMPDEST SWAP6 POP POP POP POP POP POP PUSH2 0x14F0 JUMP JUMPDEST PUSH2 0x14D5 PUSH2 0x14D2 PUSH2 0x1426 DUP4 PUSH2 0x3F02 JUMP JUMPDEST SWAP3 SWAP2 POP POP JUMP JUMPDEST PUSH1 0x0 DUP2 DUP4 PUSH1 0x20 ADD MLOAD DUP5 PUSH1 0x0 ADD MLOAD DUP6 PUSH1 0x60 ADD MLOAD PUSH1 0x40 MLOAD PUSH1 0x20 ADD PUSH2 0x151B SWAP5 SWAP4 SWAP3 SWAP2 SWAP1 PUSH2 0x5971 JUMP JUMPDEST PUSH1 0x40 MLOAD PUSH1 0x20 DUP2 DUP4 SUB SUB DUP2 MSTORE SWAP1 PUSH1 0x40 MSTORE DUP1 MLOAD SWAP1 PUSH1 0x20 ADD KECCAK256 SWAP1 POP SWAP3 SWAP2 POP POP JUMP JUMPDEST PUSH1 0x0 DUP1 PUSH2 0x1544 PUSH2 0x28FB JUMP JUMPDEST SWAP1 POP PUSH9 0x3635C9ADC5DEA00000 DUP2 LT ISZERO PUSH2 0x155F JUMPI PUSH1 0x0 SWAP2 POP POP SWAP1 JUMP JUMPDEST PUSH8 0xDE0B6B3A7640000 PUSH1 0x6C SLOAD PUSH8 0xDE0B6B3A7640000 PUSH2 0x157E SWAP2 SWAP1 PUSH2 0x56F5 JUMP JUMPDEST PUSH2 0x1588 SWAP1 DUP4 PUSH2 0x5708 JUMP JUMPDEST PUSH2 0x1592 SWAP2 SWAP1 PUSH2 0x5735 JUMP JUMPDEST PUSH2 0x159C SWAP1 DUP3 PUSH2 0x56F5 JUMP JUMPDEST SWAP2 POP POP SWAP1 JUMP JUMPDEST PUSH2 0x15AA PUSH2 0x3CCF JUMP JUMPDEST PUSH1 0x6C DUP2 SWAP1 SSTORE PUSH1 0x40 MLOAD DUP2 SWAP1 PUSH32 0xB2BA28B5B5AED3444B23A8597A249678DD98E0062432EF1B0F9A6CAA39CEB0AD SWAP1 PUSH1 0x0 SWAP1 LOG2 POP JUMP JUMPDEST PUSH2 0x15E5 PUSH2 0x3CCF JUMP JUMPDEST PUSH1 0x71 DUP2 SWAP1 SSTORE PUSH1 0x40 MLOAD DUP2 SWAP1 PUSH32 0xED28AED8B87631DA9BC750C8885C00F9BEDA7F694A23BB732D987AA80214A63F SWAP1 PUSH1 0x0 SWAP1 LOG2 POP JUMP JUMPDEST PUSH1 0x82 PUSH1 0x20 MSTORE DUP2 PUSH1 0x0 MSTORE PUSH1 0x40 PUSH1 0x0 KECCAK256 DUP2 DUP2 SLOAD DUP2 LT PUSH2 0x1634 JUMPI PUSH1 0x0 DUP1 REVERT JUMPDEST PUSH1 0x0 SWAP2 DUP3 MSTORE PUSH1 0x20 SWAP1 SWAP2 KECCAK256 ADD SLOAD PUSH1 0x1 PUSH1 0x1 PUSH1 0xA0 SHL SUB AND SWAP2 POP DUP3 SWAP1 POP JUMP JUMPDEST PUSH2 0x1658 PUSH2 0x3CCF JUMP JUMPDEST PUSH1 0x6D DUP2 SWAP1 SSTORE PUSH1 0x40 MLOAD DUP2 SWAP1 PUSH32 0x4D3FCE9DDC8266EAD559213CBAAA8EBCFA0C837A2C9A1E814BAE160B615D30DD SWAP1 PUSH1 0x0 SWAP1 LOG2 POP JUMP JUMPDEST PUSH1 0x0 DUP5 DUP5 DUP5 DUP5 PUSH1 0x40 MLOAD PUSH1 0x20 ADD PUSH2 0x16A4 SWAP5 SWAP4 SWAP3 SWAP2 SWAP1 PUSH2 0x59A4 JUMP JUMPDEST PUSH1 0x40 MLOAD PUSH1 0x20 DUP2 DUP4 SUB SUB DUP2 MSTORE SWAP1 PUSH1 0x40 MSTORE DUP1 MLOAD SWAP1 PUSH1 0x20 ADD KECCAK256 SWAP1 POP SWAP5 SWAP4 POP POP POP POP JUMP JUMPDEST PUSH1 0x6A SLOAD PUSH1 0x0 SWAP1 PUSH2 0x16E9 SWAP1 PUSH2 0x16E1 SWAP1 PUSH1 0x1 PUSH1 0x1 PUSH1 0x40 SHL SUB AND TIMESTAMP PUSH2 0x56F5 JUMP JUMPDEST PUSH2 0x8A1 PUSH2 0x28FB JUMP JUMPDEST SWAP1 POP SWAP1 JUMP JUMPDEST PUSH1 0x0 DUP1 PUSH2 0x16F9 PUSH2 0x28FB JUMP JUMPDEST SWAP1 POP PUSH9 0x6C6B935B8BBD400000 DUP2 LT ISZERO PUSH2 0x1714 JUMPI PUSH1 0x0 SWAP2 POP POP SWAP1 JUMP JUMPDEST PUSH8 0xDE0B6B3A7640000 PUSH1 0x6D SLOAD PUSH8 0xDE0B6B3A7640000 PUSH2 0x157E SWAP2 SWAP1 PUSH2 0x56F5 JUMP JUMPDEST PUSH2 0x173B PUSH2 0x3CCF JUMP JUMPDEST PUSH1 0x6B DUP2 SWAP1 SSTORE PUSH1 0x40 MLOAD DUP2 DUP2 MSTORE PUSH32 0x8C854A81CB5C93E7E482D30FB9C6F88FDBDB320F10F7A853C2263659B54E563F SWAP1 PUSH1 0x20 ADD PUSH1 0x40 MLOAD DUP1 SWAP2 SUB SWAP1 LOG1 POP JUMP JUMPDEST PUSH1 0x60 PUSH2 0x122E DUP4 DUP4 PUSH2 0x3A76 JUMP JUMPDEST PUSH2 0x178A PUSH2 0x3CCF JUMP JUMPDEST PUSH1 0x67 DUP1 SLOAD PUSH1 0x1 PUSH1 0x1 PUSH1 0xA0 SHL SUB NOT AND PUSH1 0x1 PUSH1 0x1 PUSH1 0xA0 SHL SUB DUP4 AND SWAP1 DUP2 OR SWAP1 SWAP2 SSTORE PUSH1 0x40 MLOAD PUSH32 0x5A85B4270FC1E75035E6CD505418CE65E0BCC36CC7EB9CE9E6F8C6181D4CB577 SWAP1 PUSH1 0x0 SWAP1 LOG2 POP JUMP JUMPDEST PUSH1 0x0 SLOAD PUSH2 0x100 SWAP1 DIV PUSH1 0xFF AND ISZERO DUP1 DUP1 ISZERO PUSH2 0x17F4 JUMPI POP PUSH1 0x0 SLOAD PUSH1 0x1 PUSH1 0xFF SWAP1 SWAP2 AND LT JUMPDEST DUP1 PUSH2 0x180E JUMPI POP ADDRESS EXTCODESIZE ISZERO DUP1 ISZERO PUSH2 0x180E JUMPI POP PUSH1 0x0 SLOAD PUSH1 0xFF AND PUSH1 0x1 EQ JUMPDEST PUSH2 0x1871 JUMPI PUSH1 0x40 MLOAD PUSH3 0x461BCD PUSH1 0xE5 SHL DUP2 MSTORE PUSH1 0x20 PUSH1 0x4 DUP3 ADD MSTORE PUSH1 0x2E PUSH1 0x24 DUP3 ADD MSTORE PUSH32 0x496E697469616C697A61626C653A20636F6E747261637420697320616C726561 PUSH1 0x44 DUP3 ADD MSTORE PUSH14 0x191E481A5B9A5D1A585B1A5E9959 PUSH1 0x92 SHL PUSH1 0x64 DUP3 ADD MSTORE PUSH1 0x84 ADD PUSH2 0xB78 JUMP JUMPDEST PUSH1 0x0 DUP1 SLOAD PUSH1 0xFF NOT AND PUSH1 0x1 OR SWAP1 SSTORE DUP1 ISZERO PUSH2 0x1894 JUMPI PUSH1 0x0 DUP1 SLOAD PUSH2 0xFF00 NOT AND PUSH2 0x100 OR SWAP1 SSTORE JUMPDEST PUSH2 0x189C PUSH2 0x3FB4 JUMP JUMPDEST PUSH1 0x65 DUP1 SLOAD PUSH1 0x1 PUSH1 0x1 PUSH1 0xA0 SHL SUB DUP1 DUP7 AND PUSH1 0x1 PUSH1 0x1 PUSH1 0xA0 SHL SUB NOT SWAP3 DUP4 AND OR SWAP1 SWAP3 SSTORE PUSH1 0x66 DUP1 SLOAD SWAP3 DUP6 AND SWAP3 DUP3 AND SWAP3 SWAP1 SWAP3 OR SWAP1 SWAP2 SSTORE PUSH1 0x67 DUP1 SLOAD SWAP1 SWAP2 AND CALLER OR SWAP1 SSTORE PUSH1 0x6A DUP1 SLOAD PUSH1 0x1 PUSH1 0x1 PUSH1 0x40 SHL SUB TIMESTAMP AND PUSH8 0xFFFFFFFFFFFFFFFF NOT SWAP1 SWAP2 AND OR SWAP1 SSTORE PUSH7 0x2D79883D20000 PUSH1 0x6C SSTORE PUSH6 0x5AF3107A4000 PUSH1 0x6D SSTORE PUSH8 0x16345785D8A0000 PUSH1 0x6E DUP2 SWAP1 SSTORE PUSH1 0x6F DUP2 SWAP1 SSTORE PUSH1 0x70 SSTORE PUSH2 0x7D0 PUSH1 0x71 SSTORE PUSH2 0x2710 PUSH1 0x72 SSTORE PUSH2 0xFA0 PUSH1 0x73 SSTORE PUSH1 0x78 PUSH1 0x74 SSTORE PUSH3 0x15180 PUSH1 0x75 SSTORE DUP1 ISZERO PUSH2 0x1984 JUMPI PUSH1 0x0 DUP1 SLOAD PUSH2 0xFF00 NOT AND SWAP1 SSTORE PUSH1 0x40 MLOAD PUSH1 0x1 DUP2 MSTORE PUSH32 0x7F26B83FF96E1F2B6A682F133852F6798A09C465DA95921460CEFB3847402498 SWAP1 PUSH1 0x20 ADD PUSH1 0x40 MLOAD DUP1 SWAP2 SUB SWAP1 LOG1 JUMPDEST POP POP POP JUMP JUMPDEST PUSH2 0x1991 PUSH2 0x1539 JUMP JUMPDEST CALLER PUSH1 0x0 SWAP1 DUP2 MSTORE PUSH1 0x7A PUSH1 0x20 SWAP1 DUP2 MSTORE PUSH1 0x40 DUP1 DUP4 KECCAK256 SLOAD PUSH1 0x77 SWAP1 SWAP3 MSTORE SWAP1 SWAP2 KECCAK256 SLOAD PUSH2 0x19B7 SWAP2 SWAP1 PUSH2 0x56F5 JUMP JUMPDEST LT ISZERO PUSH2 0x19D5 JUMPI PUSH1 0x40 MLOAD PUSH3 0x461BCD PUSH1 0xE5 SHL DUP2 MSTORE PUSH1 0x4 ADD PUSH2 0xB78 SWAP1 PUSH2 0x5945 JUMP JUMPDEST PUSH1 0x0 DUP3 DUP2 MSTORE PUSH1 0x76 PUSH1 0x20 MSTORE PUSH1 0x40 SWAP1 KECCAK256 PUSH1 0x1 ADD SLOAD PUSH1 0x1 PUSH1 0x1 PUSH1 0xA0 SHL SUB AND PUSH2 0x1A0C JUMPI PUSH1 0x40 MLOAD PUSH3 0x461BCD PUSH1 0xE5 SHL DUP2 MSTORE PUSH1 0x4 ADD PUSH2 0xB78 SWAP1 PUSH2 0x57A0 JUMP JUMPDEST PUSH1 0x40 MLOAD DUP2 ISZERO ISZERO DUP2 MSTORE DUP3 SWAP1 CALLER SWAP1 PUSH32 0xD17CE9337EB398B61971CA3D8C9933FC401B9669A0607AFE3452612583D7C5B8 SWAP1 PUSH1 0x20 ADD PUSH1 0x40 MLOAD DUP1 SWAP2 SUB SWAP1 LOG3 POP POP JUMP JUMPDEST PUSH1 0x67 SLOAD PUSH1 0x0 SWAP1 PUSH1 0x1 PUSH1 0xA0 SHL SWAP1 DIV PUSH1 0xFF AND ISZERO PUSH2 0x1A76 JUMPI PUSH1 0x40 MLOAD PUSH3 0x461BCD PUSH1 0xE5 SHL DUP2 MSTORE PUSH1 0x4 ADD PUSH2 0xB78 SWAP1 PUSH2 0x56BF JUMP JUMPDEST PUSH1 0x1 PUSH1 0x1 PUSH1 0xA0 SHL SUB DUP6 AND PUSH2 0x1ACC JUMPI PUSH1 0x40 MLOAD PUSH3 0x461BCD PUSH1 0xE5 SHL DUP2 MSTORE PUSH1 0x20 PUSH1 0x4 DUP3 ADD MSTORE PUSH1 0x18 PUSH1 0x24 DUP3 ADD MSTORE PUSH32 0x61646472657373206D757374206265206E6F6E2D7A65726F0000000000000000 PUSH1 0x44 DUP3 ADD MSTORE PUSH1 0x64 ADD PUSH2 0xB78 JUMP JUMPDEST PUSH1 0x0 PUSH2 0x1AD8 DUP5 DUP5 PUSH2 0x3A76 JUMP JUMPDEST PUSH1 0x40 DUP1 MLOAD PUSH1 0x80 DUP2 ADD DUP3 MSTORE DUP8 DUP2 MSTORE PUSH1 0x1 PUSH1 0x1 PUSH1 0xA0 SHL SUB DUP10 AND PUSH1 0x20 DUP3 ADD MSTORE PUSH1 0x0 SWAP2 DUP2 ADD DUP3 SWAP1 MSTORE PUSH1 0x60 DUP2 ADD DUP4 SWAP1 MSTORE SWAP2 SWAP3 POP PUSH2 0x1B10 DUP3 CALLER PUSH2 0x14F6 JUMP JUMPDEST PUSH1 0x0 DUP2 DUP2 MSTORE PUSH1 0x76 PUSH1 0x20 MSTORE PUSH1 0x40 SWAP1 KECCAK256 PUSH1 0x1 ADD SLOAD SWAP1 SWAP2 POP PUSH1 0x1 PUSH1 0x1 PUSH1 0xA0 SHL SUB AND ISZERO PUSH2 0x1B7B JUMPI PUSH1 0x40 MLOAD PUSH3 0x461BCD PUSH1 0xE5 SHL DUP2 MSTORE PUSH1 0x20 PUSH1 0x4 DUP3 ADD MSTORE PUSH1 0x18 PUSH1 0x24 DUP3 ADD MSTORE PUSH32 0x6D6F64656C20616C726561647920726567697374657265640000000000000000 PUSH1 0x44 DUP3 ADD MSTORE PUSH1 0x64 ADD PUSH2 0xB78 JUMP JUMPDEST PUSH1 0x0 DUP2 DUP2 MSTORE PUSH1 0x76 PUSH1 0x20 SWAP1 DUP2 MSTORE PUSH1 0x40 SWAP2 DUP3 SWAP1 KECCAK256 DUP5 MLOAD DUP2 SSTORE SWAP1 DUP5 ADD MLOAD PUSH1 0x1 DUP3 ADD DUP1 SLOAD PUSH1 0x1 PUSH1 0x1 PUSH1 0xA0 SHL SUB NOT AND PUSH1 0x1 PUSH1 0x1 PUSH1 0xA0 SHL SUB SWAP1 SWAP3 AND SWAP2 SWAP1 SWAP2 OR SWAP1 SSTORE SWAP1 DUP4 ADD MLOAD PUSH1 0x2 DUP3 ADD SSTORE PUSH1 0x60 DUP4 ADD MLOAD DUP4 SWAP2 SWAP1 PUSH1 0x3 DUP3 ADD SWAP1 PUSH2 0x1BD6 SWAP1 DUP3 PUSH2 0x5848 JUMP JUMPDEST POP POP PUSH1 0x40 MLOAD DUP3 SWAP2 POP PUSH32 0xA4B0AF38D049BA81703A0D0E46CC2FF39681210302134046237111A8FB7DEE72 SWAP1 PUSH1 0x0 SWAP1 LOG2 SWAP8 SWAP7 POP POP POP POP POP POP POP JUMP JUMPDEST PUSH1 0x67 SLOAD PUSH1 0x1 PUSH1 0xA0 SHL SWAP1 DIV PUSH1 0xFF AND ISZERO PUSH2 0x1C39 JUMPI PUSH1 0x40 MLOAD PUSH3 0x461BCD PUSH1 0xE5 SHL DUP2 MSTORE PUSH1 0x4 ADD PUSH2 0xB78 SWAP1 PUSH2 0x56BF JUMP JUMPDEST PUSH1 0x0 DUP2 DUP2 MSTORE PUSH1 0x7C PUSH1 0x20 MSTORE PUSH1 0x40 SWAP1 KECCAK256 SLOAD ISZERO PUSH2 0x1C89 JUMPI PUSH1 0x40 MLOAD PUSH3 0x461BCD PUSH1 0xE5 SHL DUP2 MSTORE PUSH1 0x20 PUSH1 0x4 DUP3 ADD MSTORE PUSH1 0x11 PUSH1 0x24 DUP3 ADD MSTORE PUSH17 0x636F6D6D69746D656E7420657869737473 PUSH1 0x78 SHL PUSH1 0x44 DUP3 ADD MSTORE PUSH1 0x64 ADD PUSH2 0xB78 JUMP JUMPDEST PUSH2 0x1C91 PUSH2 0x3FE3 JUMP JUMPDEST PUSH1 0x0 DUP3 DUP2 MSTORE PUSH1 0x7C PUSH1 0x20 MSTORE PUSH1 0x40 DUP1 DUP3 KECCAK256 SWAP3 SWAP1 SWAP3 SSTORE SWAP1 MLOAD DUP3 SWAP2 CALLER SWAP2 PUSH32 0x9B4C028A2E50FEC6F1C6A0163C59E8FBE92B231E5C03EF3ADEC585E63A14B92 SWAP2 SWAP1 LOG3 POP JUMP JUMPDEST PUSH1 0x67 SLOAD PUSH1 0x1 PUSH1 0xA0 SHL SWAP1 DIV PUSH1 0xFF AND ISZERO PUSH2 0x1CFB JUMPI PUSH1 0x40 MLOAD PUSH3 0x461BCD PUSH1 0xE5 SHL DUP2 MSTORE PUSH1 0x4 ADD PUSH2 0xB78 SWAP1 PUSH2 0x56BF JUMP JUMPDEST PUSH2 0x1D03 PUSH2 0x1539 JUMP JUMPDEST CALLER PUSH1 0x0 SWAP1 DUP2 MSTORE PUSH1 0x7A PUSH1 0x20 SWAP1 DUP2 MSTORE PUSH1 0x40 DUP1 DUP4 KECCAK256 SLOAD PUSH1 0x77 SWAP1 SWAP3 MSTORE SWAP1 SWAP2 KECCAK256 SLOAD PUSH2 0x1D29 SWAP2 SWAP1 PUSH2 0x56F5 JUMP JUMPDEST LT ISZERO PUSH2 0x1D47 JUMPI PUSH1 0x40 MLOAD PUSH3 0x461BCD PUSH1 0xE5 SHL DUP2 MSTORE PUSH1 0x4 ADD PUSH2 0xB78 SWAP1 PUSH2 0x5945 JUMP JUMPDEST PUSH1 0x0 DUP4 DUP2 MSTORE PUSH1 0x7B PUSH1 0x20 MSTORE PUSH1 0x40 SWAP1 KECCAK256 SLOAD PUSH2 0x1D98 JUMPI PUSH1 0x40 MLOAD PUSH3 0x461BCD PUSH1 0xE5 SHL DUP2 MSTORE PUSH1 0x20 PUSH1 0x4 DUP3 ADD MSTORE PUSH1 0x13 PUSH1 0x24 DUP3 ADD MSTORE PUSH19 0x1D185CDAC8191BD95CC81B9BDD08195E1A5CDD PUSH1 0x6A SHL PUSH1 0x44 DUP3 ADD MSTORE PUSH1 0x64 ADD PUSH2 0xB78 JUMP JUMPDEST PUSH1 0x0 DUP4 DUP2 MSTORE PUSH1 0x7D PUSH1 0x20 MSTORE PUSH1 0x40 SWAP1 KECCAK256 SLOAD PUSH1 0x1 PUSH1 0x1 PUSH1 0xA0 SHL SUB AND ISZERO PUSH2 0x1DFD JUMPI PUSH1 0x40 MLOAD PUSH3 0x461BCD PUSH1 0xE5 SHL DUP2 MSTORE PUSH1 0x20 PUSH1 0x4 DUP3 ADD MSTORE PUSH1 0x1A PUSH1 0x24 DUP3 ADD MSTORE PUSH32 0x736F6C7574696F6E20616C7265616479207375626D6974746564000000000000 PUSH1 0x44 DUP3 ADD MSTORE PUSH1 0x64 ADD PUSH2 0xB78 JUMP JUMPDEST PUSH1 0x0 PUSH2 0x1E0B CALLER DUP6 DUP6 DUP6 PUSH2 0x168B JUMP JUMPDEST PUSH1 0x0 DUP2 DUP2 MSTORE PUSH1 0x7C PUSH1 0x20 MSTORE PUSH1 0x40 SWAP1 KECCAK256 SLOAD SWAP1 SWAP2 POP PUSH2 0x1E69 JUMPI PUSH1 0x40 MLOAD PUSH3 0x461BCD PUSH1 0xE5 SHL DUP2 MSTORE PUSH1 0x20 PUSH1 0x4 DUP3 ADD MSTORE PUSH1 0x17 PUSH1 0x24 DUP3 ADD MSTORE PUSH32 0x6E6F6E206578697374656E7420636F6D6D69746D656E74000000000000000000 PUSH1 0x44 DUP3 ADD MSTORE PUSH1 0x64 ADD PUSH2 0xB78 JUMP JUMPDEST PUSH2 0x1E71 PUSH2 0x3FE3 JUMP JUMPDEST PUSH1 0x0 DUP3 DUP2 MSTORE PUSH1 0x7C PUSH1 0x20 MSTORE PUSH1 0x40 SWAP1 KECCAK256 SLOAD LT PUSH2 0x1ECD JUMPI PUSH1 0x40 MLOAD PUSH3 0x461BCD PUSH1 0xE5 SHL DUP2 MSTORE PUSH1 0x20 PUSH1 0x4 DUP3 ADD MSTORE PUSH1 0x1A PUSH1 0x24 DUP3 ADD MSTORE PUSH32 0x636F6D6D69746D656E74206D75737420626520696E2070617374000000000000 PUSH1 0x44 DUP3 ADD MSTORE PUSH1 0x64 ADD PUSH2 0xB78 JUMP JUMPDEST PUSH1 0x40 MLOAD DUP1 PUSH1 0x80 ADD PUSH1 0x40 MSTORE DUP1 CALLER PUSH1 0x1 PUSH1 0x1 PUSH1 0xA0 SHL SUB AND DUP2 MSTORE PUSH1 0x20 ADD TIMESTAMP PUSH1 0x1 PUSH1 0x1 PUSH1 0x40 SHL SUB AND DUP2 MSTORE PUSH1 0x20 ADD PUSH1 0x0 ISZERO ISZERO DUP2 MSTORE PUSH1 0x20 ADD DUP5 DUP5 DUP1 DUP1 PUSH1 0x1F ADD PUSH1 0x20 DUP1 SWAP2 DIV MUL PUSH1 0x20 ADD PUSH1 0x40 MLOAD SWAP1 DUP2 ADD PUSH1 0x40 MSTORE DUP1 SWAP4 SWAP3 SWAP2 SWAP1 DUP2 DUP2 MSTORE PUSH1 0x20 ADD DUP4 DUP4 DUP1 DUP3 DUP5 CALLDATACOPY PUSH1 0x0 SWAP3 ADD DUP3 SWAP1 MSTORE POP SWAP4 SWAP1 SWAP5 MSTORE POP POP DUP7 DUP2 MSTORE PUSH1 0x7D PUSH1 0x20 SWAP1 DUP2 MSTORE PUSH1 0x40 SWAP2 DUP3 SWAP1 KECCAK256 DUP5 MLOAD DUP2 SLOAD SWAP3 DUP7 ADD MLOAD SWAP4 DUP7 ADD MLOAD ISZERO ISZERO PUSH1 0x1 PUSH1 0xE0 SHL MUL PUSH1 0xFF PUSH1 0xE0 SHL NOT PUSH1 0x1 PUSH1 0x1 PUSH1 0x40 SHL SUB SWAP1 SWAP6 AND PUSH1 0x1 PUSH1 0xA0 SHL MUL PUSH1 0x1 PUSH1 0x1 PUSH1 0xE0 SHL SUB NOT SWAP1 SWAP5 AND PUSH1 0x1 PUSH1 0x1 PUSH1 0xA0 SHL SUB SWAP1 SWAP3 AND SWAP2 SWAP1 SWAP2 OR SWAP3 SWAP1 SWAP3 OR SWAP3 SWAP1 SWAP3 AND OR DUP2 SSTORE PUSH1 0x60 DUP4 ADD MLOAD SWAP1 SWAP2 POP PUSH1 0x1 DUP3 ADD SWAP1 PUSH2 0x1FAF SWAP1 DUP3 PUSH2 0x5848 JUMP JUMPDEST POP POP PUSH1 0x40 MLOAD DUP6 SWAP2 POP CALLER SWAP1 PUSH32 0x957C18B5AF8413899EA8A576A4D3FB16839A02C9FCCFDCE098B6D59EF248525B SWAP1 PUSH1 0x0 SWAP1 LOG3 POP POP POP POP JUMP JUMPDEST PUSH2 0x1FED PUSH2 0x3CCF JUMP JUMPDEST PUSH1 0x6F DUP2 SWAP1 SSTORE PUSH1 0x40 MLOAD DUP2 SWAP1 PUSH32 0x248F32867B202A570FFBB94E864B6075503B4961C00317F152604EE3B8DE4DDA SWAP1 PUSH1 0x0 SWAP1 LOG2 POP JUMP JUMPDEST PUSH2 0x2028 PUSH2 0x3CCF JUMP JUMPDEST PUSH1 0x70 DUP2 SWAP1 SSTORE PUSH1 0x40 MLOAD DUP2 SWAP1 PUSH32 0x4CEDC026426414A08F6F21CA64D85564BF602162BB3463DD2D3E17B58C1DA589 SWAP1 PUSH1 0x0 SWAP1 LOG2 POP JUMP JUMPDEST PUSH1 0x67 SLOAD PUSH1 0x1 PUSH1 0xA0 SHL SWAP1 DIV PUSH1 0xFF AND ISZERO PUSH2 0x2085 JUMPI PUSH1 0x40 MLOAD PUSH3 0x461BCD PUSH1 0xE5 SHL DUP2 MSTORE PUSH1 0x4 ADD PUSH2 0xB78 SWAP1 PUSH2 0x56BF JUMP JUMPDEST PUSH2 0x208D PUSH2 0x1539 JUMP JUMPDEST CALLER PUSH1 0x0 SWAP1 DUP2 MSTORE PUSH1 0x7A PUSH1 0x20 SWAP1 DUP2 MSTORE PUSH1 0x40 DUP1 DUP4 KECCAK256 SLOAD PUSH1 0x77 SWAP1 SWAP3 MSTORE SWAP1 SWAP2 KECCAK256 SLOAD PUSH2 0x20B3 SWAP2 SWAP1 PUSH2 0x56F5 JUMP JUMPDEST LT ISZERO PUSH2 0x20D1 JUMPI PUSH1 0x40 MLOAD PUSH3 0x461BCD PUSH1 0xE5 SHL DUP2 MSTORE PUSH1 0x4 ADD PUSH2 0xB78 SWAP1 PUSH2 0x5945 JUMP JUMPDEST PUSH1 0x0 DUP2 DUP2 MSTORE PUSH1 0x7D PUSH1 0x20 MSTORE PUSH1 0x40 SWAP1 KECCAK256 SLOAD PUSH1 0x1 PUSH1 0x1 PUSH1 0xA0 SHL SUB AND PUSH2 0x2135 JUMPI PUSH1 0x40 MLOAD PUSH3 0x461BCD PUSH1 0xE5 SHL DUP2 MSTORE PUSH1 0x20 PUSH1 0x4 DUP3 ADD MSTORE PUSH1 0x17 PUSH1 0x24 DUP3 ADD MSTORE PUSH32 0x736F6C7574696F6E20646F6573206E6F74206578697374000000000000000000 PUSH1 0x44 DUP3 ADD MSTORE PUSH1 0x64 ADD PUSH2 0xB78 JUMP JUMPDEST PUSH1 0x0 DUP2 DUP2 MSTORE PUSH1 0x7E PUSH1 0x20 MSTORE PUSH1 0x40 SWAP1 KECCAK256 SLOAD PUSH1 0x1 PUSH1 0x1 PUSH1 0xA0 SHL SUB AND ISZERO PUSH2 0x219A JUMPI PUSH1 0x40 MLOAD PUSH3 0x461BCD PUSH1 0xE5 SHL DUP2 MSTORE PUSH1 0x20 PUSH1 0x4 DUP3 ADD MSTORE PUSH1 0x1B PUSH1 0x24 DUP3 ADD MSTORE PUSH32 0x636F6E746573746174696F6E20616C7265616479206578697374730000000000 PUSH1 0x44 DUP3 ADD MSTORE PUSH1 0x64 ADD PUSH2 0xB78 JUMP JUMPDEST PUSH1 0x71 SLOAD PUSH1 0x0 DUP3 DUP2 MSTORE PUSH1 0x7D PUSH1 0x20 MSTORE PUSH1 0x40 SWAP1 KECCAK256 SLOAD PUSH2 0x21C6 SWAP2 SWAP1 PUSH1 0x1 PUSH1 0xA0 SHL SWAP1 DIV PUSH1 0x1 PUSH1 0x1 PUSH1 0x40 SHL SUB AND PUSH2 0x578D JUMP JUMPDEST TIMESTAMP LT PUSH2 0x21FF JUMPI PUSH1 0x40 MLOAD PUSH3 0x461BCD PUSH1 0xE5 SHL DUP2 MSTORE PUSH1 0x20 PUSH1 0x4 DUP3 ADD MSTORE PUSH1 0x8 PUSH1 0x24 DUP3 ADD MSTORE PUSH8 0x746F6F206C617465 PUSH1 0xC0 SHL PUSH1 0x44 DUP3 ADD MSTORE PUSH1 0x64 ADD PUSH2 0xB78 JUMP JUMPDEST PUSH1 0x0 DUP2 DUP2 MSTORE PUSH1 0x7D PUSH1 0x20 MSTORE PUSH1 0x40 SWAP1 KECCAK256 SLOAD PUSH1 0x1 PUSH1 0xE0 SHL SWAP1 DIV PUSH1 0xFF AND ISZERO PUSH2 0x224B JUMPI PUSH1 0x40 MLOAD PUSH3 0x461BCD PUSH1 0xE5 SHL DUP2 MSTORE PUSH1 0x20 PUSH1 0x4 DUP3 ADD MSTORE PUSH1 0x3 PUSH1 0x24 DUP3 ADD MSTORE PUSH3 0x3BBA33 PUSH1 0xE9 SHL PUSH1 0x44 DUP3 ADD MSTORE PUSH1 0x64 ADD PUSH2 0xB78 JUMP JUMPDEST PUSH1 0x0 PUSH2 0x2255 PUSH2 0x16EE JUMP JUMPDEST PUSH1 0x40 DUP1 MLOAD PUSH1 0x80 DUP2 ADD DUP3 MSTORE CALLER DUP1 DUP3 MSTORE PUSH1 0x1 PUSH1 0x1 PUSH1 0x40 SHL SUB TIMESTAMP DUP2 AND PUSH1 0x20 DUP1 DUP6 ADD SWAP2 DUP3 MSTORE PUSH1 0x0 DUP6 DUP8 ADD DUP2 DUP2 MSTORE PUSH1 0x60 DUP8 ADD DUP10 DUP2 MSTORE DUP12 DUP4 MSTORE PUSH1 0x7E SWAP1 SWAP4 MSTORE DUP8 DUP3 KECCAK256 SWAP7 MLOAD DUP8 SLOAD SWAP5 MLOAD SWAP2 MLOAD PUSH4 0xFFFFFFFF AND PUSH1 0x1 PUSH1 0xE0 SHL MUL PUSH1 0x1 PUSH1 0x1 PUSH1 0xE0 SHL SUB SWAP3 SWAP1 SWAP7 AND PUSH1 0x1 PUSH1 0xA0 SHL MUL PUSH1 0x1 PUSH1 0x1 PUSH1 0xE0 SHL SUB NOT SWAP1 SWAP6 AND PUSH1 0x1 PUSH1 0x1 PUSH1 0xA0 SHL SUB SWAP2 SWAP1 SWAP2 AND OR SWAP4 SWAP1 SWAP4 OR SWAP3 SWAP1 SWAP3 AND SWAP3 SWAP1 SWAP3 OR DUP5 SSTORE SWAP1 MLOAD PUSH1 0x1 SWAP1 SWAP4 ADD SWAP3 SWAP1 SWAP3 SSTORE SWAP2 MLOAD SWAP3 SWAP4 POP DUP5 SWAP3 PUSH32 0x6958C989E915D3E41A35076E3C480363910055408055AD86AE1EE13D41C40640 SWAP2 SWAP1 LOG3 PUSH2 0x231F DUP3 PUSH1 0x1 CALLER PUSH2 0x3BAB JUMP JUMPDEST PUSH1 0x0 DUP3 DUP2 MSTORE PUSH1 0x7D PUSH1 0x20 SWAP1 DUP2 MSTORE PUSH1 0x40 DUP1 DUP4 KECCAK256 SLOAD PUSH1 0x1 PUSH1 0x1 PUSH1 0xA0 SHL SUB AND DUP4 MSTORE PUSH1 0x77 SWAP1 SWAP2 MSTORE SWAP1 KECCAK256 SLOAD DUP2 GT PUSH2 0x138B JUMPI PUSH1 0x0 DUP3 DUP2 MSTORE PUSH1 0x7D PUSH1 0x20 MSTORE PUSH1 0x40 DUP2 KECCAK256 SLOAD PUSH2 0x138B SWAP2 DUP5 SWAP2 PUSH1 0x1 PUSH1 0x1 PUSH1 0xA0 SHL SUB AND PUSH2 0x3BAB JUMP JUMPDEST PUSH2 0x2375 PUSH2 0x3CCF JUMP JUMPDEST PUSH2 0x237F PUSH1 0x0 PUSH2 0x4074 JUMP JUMPDEST JUMP JUMPDEST PUSH1 0x7D PUSH1 0x20 MSTORE PUSH1 0x0 SWAP1 DUP2 MSTORE PUSH1 0x40 SWAP1 KECCAK256 DUP1 SLOAD PUSH1 0x1 DUP3 ADD DUP1 SLOAD PUSH1 0x1 PUSH1 0x1 PUSH1 0xA0 SHL SUB DUP4 AND SWAP4 PUSH1 0x1 PUSH1 0xA0 SHL DUP5 DIV PUSH1 0x1 PUSH1 0x1 PUSH1 0x40 SHL SUB AND SWAP4 PUSH1 0x1 PUSH1 0xE0 SHL SWAP1 DIV PUSH1 0xFF AND SWAP3 SWAP1 SWAP2 PUSH2 0x23C9 SWAP1 PUSH2 0x57CE JUMP JUMPDEST DUP1 PUSH1 0x1F ADD PUSH1 0x20 DUP1 SWAP2 DIV MUL PUSH1 0x20 ADD PUSH1 0x40 MLOAD SWAP1 DUP2 ADD PUSH1 0x40 MSTORE DUP1 SWAP3 SWAP2 SWAP1 DUP2 DUP2 MSTORE PUSH1 0x20 ADD DUP3 DUP1 SLOAD PUSH2 0x23F5 SWAP1 PUSH2 0x57CE JUMP JUMPDEST DUP1 ISZERO PUSH2 0x2442 JUMPI DUP1 PUSH1 0x1F LT PUSH2 0x2417 JUMPI PUSH2 0x100 DUP1 DUP4 SLOAD DIV MUL DUP4 MSTORE SWAP2 PUSH1 0x20 ADD SWAP2 PUSH2 0x2442 JUMP JUMPDEST DUP3 ADD SWAP2 SWAP1 PUSH1 0x0 MSTORE PUSH1 0x20 PUSH1 0x0 KECCAK256 SWAP1 JUMPDEST DUP2 SLOAD DUP2 MSTORE SWAP1 PUSH1 0x1 ADD SWAP1 PUSH1 0x20 ADD DUP1 DUP4 GT PUSH2 0x2425 JUMPI DUP3 SWAP1 SUB PUSH1 0x1F AND DUP3 ADD SWAP2 JUMPDEST POP POP POP POP POP SWAP1 POP DUP5 JUMP JUMPDEST PUSH1 0x67 SLOAD PUSH1 0x1 PUSH1 0xA0 SHL SWAP1 DIV PUSH1 0xFF AND ISZERO PUSH2 0x2476 JUMPI PUSH1 0x40 MLOAD PUSH3 0x461BCD PUSH1 0xE5 SHL DUP2 MSTORE PUSH1 0x4 ADD PUSH2 0xB78 SWAP1 PUSH2 0x56BF JUMP JUMPDEST CALLER PUSH1 0x0 SWAP1 DUP2 MSTORE PUSH1 0x79 PUSH1 0x20 SWAP1 DUP2 MSTORE PUSH1 0x40 DUP1 DUP4 KECCAK256 DUP6 DUP5 MSTORE DUP3 MSTORE SWAP2 DUP3 SWAP1 KECCAK256 DUP3 MLOAD DUP1 DUP5 ADD SWAP1 SWAP4 MSTORE DUP1 SLOAD DUP1 DUP5 MSTORE PUSH1 0x1 SWAP1 SWAP2 ADD SLOAD SWAP2 DUP4 ADD SWAP2 SWAP1 SWAP2 MSTORE PUSH2 0x24EB JUMPI PUSH1 0x40 MLOAD PUSH3 0x461BCD PUSH1 0xE5 SHL DUP2 MSTORE PUSH1 0x20 PUSH1 0x4 DUP3 ADD MSTORE PUSH1 0x11 PUSH1 0x24 DUP3 ADD MSTORE PUSH17 0x1C995C5D595CDD081B9BDD08195E1A5CDD PUSH1 0x7A SHL PUSH1 0x44 DUP3 ADD MSTORE PUSH1 0x64 ADD PUSH2 0xB78 JUMP JUMPDEST DUP1 MLOAD TIMESTAMP LT ISZERO PUSH2 0x252A JUMPI PUSH1 0x40 MLOAD PUSH3 0x461BCD PUSH1 0xE5 SHL DUP2 MSTORE PUSH1 0x20 PUSH1 0x4 DUP3 ADD MSTORE PUSH1 0xB PUSH1 0x24 DUP3 ADD MSTORE PUSH11 0x3BB0B4BA103637B733B2B9 PUSH1 0xA9 SHL PUSH1 0x44 DUP3 ADD MSTORE PUSH1 0x64 ADD PUSH2 0xB78 JUMP JUMPDEST PUSH1 0x20 DUP1 DUP3 ADD MLOAD CALLER PUSH1 0x0 SWAP1 DUP2 MSTORE PUSH1 0x77 SWAP1 SWAP3 MSTORE PUSH1 0x40 SWAP1 SWAP2 KECCAK256 SLOAD LT ISZERO PUSH2 0x2584 JUMPI PUSH1 0x40 MLOAD PUSH3 0x461BCD PUSH1 0xE5 SHL DUP2 MSTORE PUSH1 0x20 PUSH1 0x4 DUP3 ADD MSTORE PUSH1 0x12 PUSH1 0x24 DUP3 ADD MSTORE PUSH18 0x1CDD185AD9481A5B9CDD59999A58DA595B9D PUSH1 0x72 SHL PUSH1 0x44 DUP3 ADD MSTORE PUSH1 0x64 ADD PUSH2 0xB78 JUMP JUMPDEST PUSH1 0x65 SLOAD PUSH1 0x20 DUP3 ADD MLOAD PUSH1 0x40 MLOAD PUSH4 0xA9059CBB PUSH1 0xE0 SHL DUP2 MSTORE PUSH1 0x1 PUSH1 0x1 PUSH1 0xA0 SHL SUB SWAP1 SWAP3 AND SWAP2 PUSH4 0xA9059CBB SWAP2 PUSH2 0x25BA SWAP2 DUP7 SWAP2 SWAP1 PUSH1 0x4 ADD PUSH2 0x5757 JUMP JUMPDEST PUSH1 0x20 PUSH1 0x40 MLOAD DUP1 DUP4 SUB DUP2 PUSH1 0x0 DUP8 GAS CALL ISZERO DUP1 ISZERO PUSH2 0x25D9 JUMPI RETURNDATASIZE PUSH1 0x0 DUP1 RETURNDATACOPY RETURNDATASIZE PUSH1 0x0 REVERT JUMPDEST POP POP POP POP PUSH1 0x40 MLOAD RETURNDATASIZE PUSH1 0x1F NOT PUSH1 0x1F DUP3 ADD AND DUP3 ADD DUP1 PUSH1 0x40 MSTORE POP DUP2 ADD SWAP1 PUSH2 0x25FD SWAP2 SWAP1 PUSH2 0x5770 JUMP JUMPDEST POP PUSH1 0x20 DUP1 DUP3 ADD MLOAD CALLER PUSH1 0x0 SWAP1 DUP2 MSTORE PUSH1 0x77 SWAP1 SWAP3 MSTORE PUSH1 0x40 DUP3 KECCAK256 DUP1 SLOAD SWAP2 SWAP3 SWAP1 SWAP2 PUSH2 0x2624 SWAP1 DUP5 SWAP1 PUSH2 0x56F5 JUMP JUMPDEST SWAP1 SWAP2 SSTORE POP POP PUSH1 0x20 DUP1 DUP3 ADD MLOAD CALLER PUSH1 0x0 SWAP1 DUP2 MSTORE PUSH1 0x7A SWAP1 SWAP3 MSTORE PUSH1 0x40 DUP3 KECCAK256 DUP1 SLOAD SWAP2 SWAP3 SWAP1 SWAP2 PUSH2 0x264F SWAP1 DUP5 SWAP1 PUSH2 0x56F5 JUMP JUMPDEST SWAP1 SWAP2 SSTORE POP POP CALLER PUSH1 0x0 DUP2 DUP2 MSTORE PUSH1 0x79 PUSH1 0x20 SWAP1 DUP2 MSTORE PUSH1 0x40 DUP1 DUP4 KECCAK256 DUP8 DUP5 MSTORE DUP3 MSTORE DUP1 DUP4 KECCAK256 DUP4 DUP2 SSTORE PUSH1 0x1 ADD SWAP3 SWAP1 SWAP3 SSTORE DUP4 DUP2 ADD MLOAD SWAP2 MLOAD SWAP2 DUP3 MSTORE DUP6 SWAP3 PUSH1 0x1 PUSH1 0x1 PUSH1 0xA0 SHL SUB DUP7 AND SWAP3 SWAP1 SWAP2 PUSH32 0x109AEFF667601AAD33ABCB7C5DF1617754EEFD18253D586A95C198CB479B5BD4 SWAP2 ADD PUSH1 0x40 MLOAD DUP1 SWAP2 SUB SWAP1 LOG4 POP POP POP JUMP JUMPDEST PUSH2 0x26C8 PUSH2 0x3CCF JUMP JUMPDEST PUSH1 0x72 DUP2 SWAP1 SSTORE PUSH1 0x40 MLOAD DUP2 SWAP1 PUSH32 0x2CF38ED7DA57DD510FA6ECBFB991949CDDE5C808ACBE85CFA940B642DEF628ED SWAP1 PUSH1 0x0 SWAP1 LOG2 POP JUMP JUMPDEST PUSH1 0x67 SLOAD PUSH1 0x1 PUSH1 0xA0 SHL SWAP1 DIV PUSH1 0xFF AND ISZERO PUSH2 0x2725 JUMPI PUSH1 0x40 MLOAD PUSH3 0x461BCD PUSH1 0xE5 SHL DUP2 MSTORE PUSH1 0x4 ADD PUSH2 0xB78 SWAP1 PUSH2 0x56BF JUMP JUMPDEST PUSH1 0x0 DUP2 DUP2 MSTORE PUSH1 0x7D PUSH1 0x20 MSTORE PUSH1 0x40 SWAP1 KECCAK256 SLOAD PUSH1 0x1 PUSH1 0x1 PUSH1 0xA0 SHL SUB AND PUSH2 0x277E JUMPI PUSH1 0x40 MLOAD PUSH3 0x461BCD PUSH1 0xE5 SHL DUP2 MSTORE PUSH1 0x20 PUSH1 0x4 DUP3 ADD MSTORE PUSH1 0x12 PUSH1 0x24 DUP3 ADD MSTORE PUSH18 0x1CDBDB1D5D1A5BDB881B9BDD08199BDD5B99 PUSH1 0x72 SHL PUSH1 0x44 DUP3 ADD MSTORE PUSH1 0x64 ADD PUSH2 0xB78 JUMP JUMPDEST PUSH1 0x0 DUP2 DUP2 MSTORE PUSH1 0x7E PUSH1 0x20 MSTORE PUSH1 0x40 SWAP1 KECCAK256 SLOAD PUSH1 0x1 PUSH1 0x1 PUSH1 0xA0 SHL SUB AND ISZERO PUSH2 0x27D6 JUMPI PUSH1 0x40 MLOAD PUSH3 0x461BCD PUSH1 0xE5 SHL DUP2 MSTORE PUSH1 0x20 PUSH1 0x4 DUP3 ADD MSTORE PUSH1 0x10 PUSH1 0x24 DUP3 ADD MSTORE PUSH16 0x3430B99031B7B73A32B9BA30BA34B7B7 PUSH1 0x81 SHL PUSH1 0x44 DUP3 ADD MSTORE PUSH1 0x64 ADD PUSH2 0xB78 JUMP JUMPDEST PUSH1 0x71 SLOAD PUSH2 0x27E3 SWAP1 TIMESTAMP PUSH2 0x56F5 JUMP JUMPDEST PUSH1 0x0 DUP3 DUP2 MSTORE PUSH1 0x7D PUSH1 0x20 MSTORE PUSH1 0x40 SWAP1 KECCAK256 SLOAD PUSH1 0x1 PUSH1 0xA0 SHL SWAP1 DIV PUSH1 0x1 PUSH1 0x1 PUSH1 0x40 SHL SUB AND LT PUSH2 0x2842 JUMPI PUSH1 0x40 MLOAD PUSH3 0x461BCD PUSH1 0xE5 SHL DUP2 MSTORE PUSH1 0x20 PUSH1 0x4 DUP3 ADD MSTORE PUSH1 0x10 PUSH1 0x24 DUP3 ADD MSTORE PUSH16 0x6E6F7420656E6F7567682064656C6179 PUSH1 0x80 SHL PUSH1 0x44 DUP3 ADD MSTORE PUSH1 0x64 ADD PUSH2 0xB78 JUMP JUMPDEST PUSH1 0x0 DUP2 DUP2 MSTORE PUSH1 0x7D PUSH1 0x20 MSTORE PUSH1 0x40 SWAP1 KECCAK256 SLOAD PUSH1 0x1 PUSH1 0xE0 SHL SWAP1 DIV PUSH1 0xFF AND ISZERO PUSH2 0x289A JUMPI PUSH1 0x40 MLOAD PUSH3 0x461BCD PUSH1 0xE5 SHL DUP2 MSTORE PUSH1 0x20 PUSH1 0x4 DUP3 ADD MSTORE PUSH1 0xF PUSH1 0x24 DUP3 ADD MSTORE PUSH15 0x185B1C9958591E4818DB185A5B5959 PUSH1 0x8A SHL PUSH1 0x44 DUP3 ADD MSTORE PUSH1 0x64 ADD PUSH2 0xB78 JUMP JUMPDEST PUSH1 0x0 DUP2 DUP2 MSTORE PUSH1 0x7D PUSH1 0x20 MSTORE PUSH1 0x40 DUP1 DUP3 KECCAK256 DUP1 SLOAD PUSH1 0xFF PUSH1 0xE0 SHL NOT DUP2 AND PUSH1 0x1 PUSH1 0xE0 SHL OR SWAP1 SWAP2 SSTORE SWAP1 MLOAD DUP4 SWAP3 PUSH1 0x1 PUSH1 0x1 PUSH1 0xA0 SHL SUB SWAP1 SWAP3 AND SWAP2 PUSH32 0xB76B4AE356796814D36B46F7C500BBD27B2CCE1E6059A6FA2BEBFD5A389B190 SWAP2 LOG3 PUSH2 0x28F8 DUP2 PUSH2 0x40C6 JUMP JUMPDEST POP JUMP JUMPDEST PUSH1 0x65 SLOAD PUSH1 0x40 MLOAD PUSH4 0x70A08231 PUSH1 0xE0 SHL DUP2 MSTORE ADDRESS PUSH1 0x4 DUP3 ADD MSTORE PUSH1 0x0 SWAP2 DUP3 SWAP2 PUSH1 0x1 PUSH1 0x1 PUSH1 0xA0 SHL SUB SWAP1 SWAP2 AND SWAP1 PUSH4 0x70A08231 SWAP1 PUSH1 0x24 ADD PUSH1 0x20 PUSH1 0x40 MLOAD DUP1 DUP4 SUB DUP2 DUP7 GAS STATICCALL ISZERO DUP1 ISZERO PUSH2 0x2948 JUMPI RETURNDATASIZE PUSH1 0x0 DUP1 RETURNDATACOPY RETURNDATASIZE PUSH1 0x0 REVERT JUMPDEST POP POP POP POP PUSH1 0x40 MLOAD RETURNDATASIZE PUSH1 0x1F NOT PUSH1 0x1F DUP3 ADD AND DUP3 ADD DUP1 PUSH1 0x40 MSTORE POP DUP2 ADD SWAP1 PUSH2 0x296C SWAP2 SWAP1 PUSH2 0x59EC JUMP JUMPDEST SWAP1 POP PUSH10 0x7F0E10AF47C1C7000000 DUP2 LT PUSH2 0x2987 JUMPI PUSH1 0x0 SWAP2 POP POP SWAP1 JUMP JUMPDEST PUSH2 0x159C DUP2 PUSH10 0x7F0E10AF47C1C7000000 PUSH2 0x56F5 JUMP JUMPDEST PUSH2 0x29A3 PUSH2 0x3CCF JUMP JUMPDEST PUSH1 0x40 MLOAD PUSH4 0x1F4A58FB PUSH1 0xE3 SHL DUP2 MSTORE PUSH1 0x1 PUSH1 0x1 PUSH1 0xA0 SHL SUB DUP3 DUP2 AND PUSH1 0x4 DUP4 ADD MSTORE DUP4 SWAP2 PUSH1 0x0 SWAP2 DUP3 SWAP2 DUP3 SWAP2 DUP6 AND SWAP1 PUSH4 0xFA52C7D8 SWAP1 PUSH1 0x24 ADD PUSH1 0x60 PUSH1 0x40 MLOAD DUP1 DUP4 SUB DUP2 DUP7 GAS STATICCALL ISZERO DUP1 ISZERO PUSH2 0x29F2 JUMPI RETURNDATASIZE PUSH1 0x0 DUP1 RETURNDATACOPY RETURNDATASIZE PUSH1 0x0 REVERT JUMPDEST POP POP POP POP PUSH1 0x40 MLOAD RETURNDATASIZE PUSH1 0x1F NOT PUSH1 0x1F DUP3 ADD AND DUP3 ADD DUP1 PUSH1 0x40 MSTORE POP DUP2 ADD SWAP1 PUSH2 0x2A16 SWAP2 SWAP1 PUSH2 0x5A05 JUMP JUMPDEST PUSH1 0x40 DUP1 MLOAD PUSH1 0x60 DUP2 ADD DUP3 MSTORE SWAP4 DUP5 MSTORE PUSH1 0x20 DUP1 DUP6 ADD SWAP4 DUP5 MSTORE PUSH1 0x1 PUSH1 0x1 PUSH1 0xA0 SHL SUB SWAP3 DUP4 AND DUP6 DUP4 ADD SWAP1 DUP2 MSTORE SWAP10 DUP4 AND PUSH1 0x0 SWAP1 DUP2 MSTORE PUSH1 0x77 SWAP1 SWAP2 MSTORE KECCAK256 SWAP3 MLOAD DUP4 SSTORE SWAP1 MLOAD PUSH1 0x1 DUP4 ADD SSTORE SWAP6 MLOAD PUSH1 0x2 SWAP1 SWAP2 ADD DUP1 SLOAD PUSH1 0x1 PUSH1 0x1 PUSH1 0xA0 SHL SUB NOT AND SWAP2 SWAP1 SWAP7 AND OR SWAP1 SWAP5 SSTORE POP POP POP POP POP JUMP JUMPDEST PUSH1 0x0 DUP2 DUP2 MSTORE PUSH1 0x7E PUSH1 0x20 MSTORE PUSH1 0x40 DUP2 KECCAK256 SLOAD PUSH1 0x1 PUSH1 0x1 PUSH1 0xA0 SHL SUB AND PUSH2 0x2A9B JUMPI POP PUSH1 0x1 PUSH2 0x14F0 JUMP JUMPDEST PUSH1 0x73 SLOAD PUSH1 0x0 DUP4 DUP2 MSTORE PUSH1 0x7E PUSH1 0x20 MSTORE PUSH1 0x40 SWAP1 KECCAK256 SLOAD PUSH2 0x2AC7 SWAP2 SWAP1 PUSH1 0x1 PUSH1 0xA0 SHL SWAP1 DIV PUSH1 0x1 PUSH1 0x1 PUSH1 0x40 SHL SUB AND PUSH2 0x578D JUMP JUMPDEST TIMESTAMP GT ISZERO PUSH2 0x2AD6 JUMPI POP PUSH1 0x2 PUSH2 0x14F0 JUMP JUMPDEST PUSH1 0x0 DUP3 DUP2 MSTORE PUSH1 0x7F PUSH1 0x20 SWAP1 DUP2 MSTORE PUSH1 0x40 DUP1 DUP4 KECCAK256 PUSH1 0x1 PUSH1 0x1 PUSH1 0xA0 SHL SUB DUP8 AND DUP5 MSTORE SWAP1 SWAP2 MSTORE SWAP1 KECCAK256 SLOAD PUSH1 0xFF AND ISZERO PUSH2 0x2B09 JUMPI POP PUSH1 0x3 PUSH2 0x14F0 JUMP JUMPDEST PUSH1 0x1 PUSH1 0x1 PUSH1 0xA0 SHL SUB DUP4 AND PUSH1 0x0 SWAP1 DUP2 MSTORE PUSH1 0x77 PUSH1 0x20 MSTORE PUSH1 0x40 DUP2 KECCAK256 PUSH1 0x1 ADD SLOAD SWAP1 SUB PUSH2 0x2B33 JUMPI POP PUSH1 0x4 PUSH2 0x14F0 JUMP JUMPDEST PUSH1 0x74 SLOAD PUSH1 0x1 PUSH1 0x1 PUSH1 0xA0 SHL SUB DUP5 AND PUSH1 0x0 SWAP1 DUP2 MSTORE PUSH1 0x77 PUSH1 0x20 MSTORE PUSH1 0x40 SWAP1 KECCAK256 PUSH1 0x1 ADD SLOAD LT ISZERO PUSH2 0x2B60 JUMPI POP PUSH1 0x5 PUSH2 0x14F0 JUMP JUMPDEST PUSH1 0x0 DUP3 DUP2 MSTORE PUSH1 0x7E PUSH1 0x20 SWAP1 DUP2 MSTORE PUSH1 0x40 DUP1 DUP4 KECCAK256 SLOAD PUSH1 0x74 SLOAD PUSH1 0x1 PUSH1 0x1 PUSH1 0xA0 SHL SUB DUP9 AND DUP6 MSTORE PUSH1 0x77 SWAP1 SWAP4 MSTORE SWAP3 KECCAK256 PUSH1 0x1 ADD SLOAD PUSH1 0x1 PUSH1 0xA0 SHL SWAP1 SWAP3 DIV PUSH1 0x1 PUSH1 0x1 PUSH1 0x40 SHL SUB AND SWAP2 PUSH2 0x2BA8 SWAP2 SWAP1 PUSH2 0x56F5 JUMP JUMPDEST GT ISZERO PUSH2 0x2BB6 JUMPI POP PUSH1 0x6 PUSH2 0x14F0 JUMP JUMPDEST POP PUSH1 0x0 SWAP3 SWAP2 POP POP JUMP JUMPDEST PUSH1 0x67 SLOAD PUSH1 0x1 PUSH1 0xA0 SHL SWAP1 DIV PUSH1 0xFF AND ISZERO PUSH2 0x2BE9 JUMPI PUSH1 0x40 MLOAD PUSH3 0x461BCD PUSH1 0xE5 SHL DUP2 MSTORE PUSH1 0x4 ADD PUSH2 0xB78 SWAP1 PUSH2 0x56BF JUMP JUMPDEST PUSH1 0x0 DUP3 DUP2 MSTORE PUSH1 0x7E PUSH1 0x20 MSTORE PUSH1 0x40 SWAP1 KECCAK256 SLOAD PUSH1 0x1 PUSH1 0x1 PUSH1 0xA0 SHL SUB AND PUSH2 0x2C4D JUMPI PUSH1 0x40 MLOAD PUSH3 0x461BCD PUSH1 0xE5 SHL DUP2 MSTORE PUSH1 0x20 PUSH1 0x4 DUP3 ADD MSTORE PUSH1 0x1A PUSH1 0x24 DUP3 ADD MSTORE PUSH32 0x636F6E746573746174696F6E20646F65736E2774206578697374000000000000 PUSH1 0x44 DUP3 ADD MSTORE PUSH1 0x64 ADD PUSH2 0xB78 JUMP JUMPDEST PUSH1 0x73 SLOAD PUSH1 0x0 DUP4 DUP2 MSTORE PUSH1 0x7E PUSH1 0x20 MSTORE PUSH1 0x40 SWAP1 KECCAK256 SLOAD PUSH2 0x2C79 SWAP2 SWAP1 PUSH1 0x1 PUSH1 0xA0 SHL SWAP1 DIV PUSH1 0x1 PUSH1 0x1 PUSH1 0x40 SHL SUB AND PUSH2 0x578D JUMP JUMPDEST TIMESTAMP LT ISZERO PUSH2 0x2CC8 JUMPI PUSH1 0x40 MLOAD PUSH3 0x461BCD PUSH1 0xE5 SHL DUP2 MSTORE PUSH1 0x20 PUSH1 0x4 DUP3 ADD MSTORE PUSH1 0x17 PUSH1 0x24 DUP3 ADD MSTORE PUSH32 0x766F74696E6720706572696F64206E6F7420656E646564000000000000000000 PUSH1 0x44 DUP3 ADD MSTORE PUSH1 0x64 ADD PUSH2 0xB78 JUMP JUMPDEST PUSH1 0x0 DUP2 PUSH4 0xFFFFFFFF AND GT PUSH2 0x2D0F JUMPI PUSH1 0x40 MLOAD PUSH3 0x461BCD PUSH1 0xE5 SHL DUP2 MSTORE PUSH1 0x20 PUSH1 0x4 DUP3 ADD MSTORE PUSH1 0xE PUSH1 0x24 DUP3 ADD MSTORE PUSH14 0x185B5B9D081D1BDBC81CDB585B1B PUSH1 0x92 SHL PUSH1 0x44 DUP3 ADD MSTORE PUSH1 0x64 ADD PUSH2 0xB78 JUMP JUMPDEST PUSH1 0x0 DUP3 DUP2 MSTORE PUSH1 0x81 PUSH1 0x20 SWAP1 DUP2 MSTORE PUSH1 0x40 DUP1 DUP4 KECCAK256 SLOAD PUSH1 0x82 DUP4 MSTORE DUP2 DUP5 KECCAK256 SLOAD PUSH1 0x7E SWAP1 SWAP4 MSTORE SWAP1 DUP4 KECCAK256 SLOAD SWAP1 SWAP3 PUSH1 0x1 PUSH1 0xE0 SHL SWAP1 SWAP2 DIV PUSH4 0xFFFFFFFF AND SWAP1 PUSH2 0x2D4D DUP6 DUP4 PUSH2 0x5A3E JUMP JUMPDEST PUSH1 0x0 DUP8 DUP2 MSTORE PUSH1 0x7E PUSH1 0x20 MSTORE PUSH1 0x40 SWAP1 KECCAK256 PUSH1 0x1 ADD SLOAD SWAP1 SWAP2 POP PUSH4 0xFFFFFFFF DUP1 DUP6 AND SWAP1 DUP7 AND GT ISZERO PUSH2 0x3040 JUMPI PUSH1 0x0 PUSH2 0x2D85 DUP3 PUSH4 0xFFFFFFFF DUP8 AND PUSH2 0x5708 JUMP JUMPDEST SWAP1 POP PUSH1 0x0 DUP7 PUSH4 0xFFFFFFFF AND PUSH1 0x1 EQ PUSH2 0x2DB1 JUMPI PUSH2 0x2DA2 PUSH1 0x2 DUP4 PUSH2 0x5735 JUMP JUMPDEST PUSH2 0x2DAC SWAP1 DUP4 PUSH2 0x56F5 JUMP JUMPDEST PUSH2 0x2DB3 JUMP JUMPDEST DUP2 JUMPDEST SWAP1 POP PUSH1 0x0 DUP8 PUSH4 0xFFFFFFFF AND PUSH1 0x1 EQ PUSH2 0x2DEF JUMPI PUSH2 0x2DD0 PUSH1 0x1 DUP10 PUSH2 0x5A62 JUMP JUMPDEST PUSH4 0xFFFFFFFF AND PUSH2 0x2DE0 DUP4 DUP6 PUSH2 0x56F5 JUMP JUMPDEST PUSH2 0x2DEA SWAP2 SWAP1 PUSH2 0x5735 JUMP JUMPDEST PUSH2 0x2DF2 JUMP JUMPDEST PUSH1 0x0 JUMPDEST SWAP1 POP PUSH4 0xFFFFFFFF DUP7 AND JUMPDEST DUP6 PUSH4 0xFFFFFFFF AND DUP2 LT ISZERO PUSH2 0x2F83 JUMPI DUP9 PUSH4 0xFFFFFFFF AND DUP2 LT ISZERO PUSH2 0x2F71 JUMPI PUSH1 0x0 DUP12 DUP2 MSTORE PUSH1 0x81 PUSH1 0x20 MSTORE PUSH1 0x40 DUP2 KECCAK256 DUP1 SLOAD DUP4 SWAP1 DUP2 LT PUSH2 0x2E38 JUMPI PUSH2 0x2E38 PUSH2 0x5A7F JUMP JUMPDEST PUSH1 0x0 SWAP2 DUP3 MSTORE PUSH1 0x20 DUP1 DUP4 KECCAK256 SWAP1 SWAP2 ADD SLOAD PUSH1 0x1 PUSH1 0x1 PUSH1 0xA0 SHL SUB AND DUP1 DUP4 MSTORE PUSH1 0x77 SWAP1 SWAP2 MSTORE PUSH1 0x40 DUP3 KECCAK256 DUP1 SLOAD SWAP2 SWAP4 POP DUP9 SWAP3 SWAP1 SWAP2 PUSH2 0x2E6F SWAP1 DUP5 SWAP1 PUSH2 0x578D JUMP JUMPDEST SWAP1 SWAP2 SSTORE POP POP PUSH1 0x0 DUP3 SWAP1 SUB PUSH2 0x2EF8 JUMPI PUSH1 0x65 SLOAD PUSH1 0x40 MLOAD PUSH4 0xA9059CBB PUSH1 0xE0 SHL DUP2 MSTORE PUSH1 0x1 PUSH1 0x1 PUSH1 0xA0 SHL SUB SWAP1 SWAP2 AND SWAP1 PUSH4 0xA9059CBB SWAP1 PUSH2 0x2EAF SWAP1 DUP5 SWAP1 DUP9 SWAP1 PUSH1 0x4 ADD PUSH2 0x5757 JUMP JUMPDEST PUSH1 0x20 PUSH1 0x40 MLOAD DUP1 DUP4 SUB DUP2 PUSH1 0x0 DUP8 GAS CALL ISZERO DUP1 ISZERO PUSH2 0x2ECE JUMPI RETURNDATASIZE PUSH1 0x0 DUP1 RETURNDATACOPY RETURNDATASIZE PUSH1 0x0 REVERT JUMPDEST POP POP POP POP PUSH1 0x40 MLOAD RETURNDATASIZE PUSH1 0x1F NOT PUSH1 0x1F DUP3 ADD AND DUP3 ADD DUP1 PUSH1 0x40 MSTORE POP DUP2 ADD SWAP1 PUSH2 0x2EF2 SWAP2 SWAP1 PUSH2 0x5770 JUMP JUMPDEST POP PUSH2 0x2F6F JUMP JUMPDEST PUSH1 0x65 SLOAD PUSH1 0x40 MLOAD PUSH4 0xA9059CBB PUSH1 0xE0 SHL DUP2 MSTORE PUSH1 0x1 PUSH1 0x1 PUSH1 0xA0 SHL SUB SWAP1 SWAP2 AND SWAP1 PUSH4 0xA9059CBB SWAP1 PUSH2 0x2F2A SWAP1 DUP5 SWAP1 DUP8 SWAP1 PUSH1 0x4 ADD PUSH2 0x5757 JUMP JUMPDEST PUSH1 0x20 PUSH1 0x40 MLOAD DUP1 DUP4 SUB DUP2 PUSH1 0x0 DUP8 GAS CALL ISZERO DUP1 ISZERO PUSH2 0x2F49 JUMPI RETURNDATASIZE PUSH1 0x0 DUP1 RETURNDATACOPY RETURNDATASIZE PUSH1 0x0 REVERT JUMPDEST POP POP POP POP PUSH1 0x40 MLOAD RETURNDATASIZE PUSH1 0x1F NOT PUSH1 0x1F DUP3 ADD AND DUP3 ADD DUP1 PUSH1 0x40 MSTORE POP DUP2 ADD SWAP1 PUSH2 0x2F6D SWAP2 SWAP1 PUSH2 0x5770 JUMP JUMPDEST POP JUMPDEST POP JUMPDEST DUP1 PUSH2 0x2F7B DUP2 PUSH2 0x5A95 JUMP JUMPDEST SWAP2 POP POP PUSH2 0x2DFC JUMP JUMPDEST POP PUSH1 0x0 DUP11 DUP2 MSTORE PUSH1 0x7E PUSH1 0x20 MSTORE PUSH1 0x40 DUP2 KECCAK256 SLOAD PUSH1 0x1 PUSH1 0xE0 SHL SWAP1 DIV PUSH4 0xFFFFFFFF AND SWAP1 SUB PUSH2 0x3038 JUMPI PUSH1 0x65 SLOAD PUSH1 0x0 DUP12 DUP2 MSTORE PUSH1 0x7B PUSH1 0x20 MSTORE PUSH1 0x40 SWAP1 DUP2 SWAP1 KECCAK256 PUSH1 0x2 DUP2 ADD SLOAD PUSH1 0x1 SWAP2 SWAP1 SWAP2 ADD SLOAD SWAP2 MLOAD PUSH4 0xA9059CBB PUSH1 0xE0 SHL DUP2 MSTORE PUSH1 0x1 PUSH1 0x1 PUSH1 0xA0 SHL SUB SWAP4 DUP5 AND SWAP4 PUSH4 0xA9059CBB SWAP4 PUSH2 0x2FF3 SWAP4 SWAP1 SWAP2 AND SWAP2 PUSH1 0x4 ADD PUSH2 0x5757 JUMP JUMPDEST PUSH1 0x20 PUSH1 0x40 MLOAD DUP1 DUP4 SUB DUP2 PUSH1 0x0 DUP8 GAS CALL ISZERO DUP1 ISZERO PUSH2 0x3012 JUMPI RETURNDATASIZE PUSH1 0x0 DUP1 RETURNDATACOPY RETURNDATASIZE PUSH1 0x0 REVERT JUMPDEST POP POP POP POP PUSH1 0x40 MLOAD RETURNDATASIZE PUSH1 0x1F NOT PUSH1 0x1F DUP3 ADD AND DUP3 ADD DUP1 PUSH1 0x40 MSTORE POP DUP2 ADD SWAP1 PUSH2 0x3036 SWAP2 SWAP1 PUSH2 0x5770 JUMP JUMPDEST POP JUMPDEST POP POP POP PUSH2 0x3276 JUMP JUMPDEST PUSH1 0x0 PUSH2 0x3052 DUP3 PUSH4 0xFFFFFFFF DUP9 AND PUSH2 0x5708 JUMP JUMPDEST SWAP1 POP PUSH1 0x0 DUP6 PUSH4 0xFFFFFFFF AND PUSH1 0x1 EQ PUSH2 0x3074 JUMPI PUSH2 0x306F PUSH1 0x2 DUP4 PUSH2 0x5735 JUMP JUMPDEST PUSH2 0x3076 JUMP JUMPDEST DUP2 JUMPDEST SWAP1 POP PUSH1 0x0 DUP7 PUSH4 0xFFFFFFFF AND PUSH1 0x1 EQ PUSH2 0x30B2 JUMPI PUSH2 0x3093 PUSH1 0x1 DUP9 PUSH2 0x5A62 JUMP JUMPDEST PUSH4 0xFFFFFFFF AND PUSH2 0x30A3 DUP4 DUP6 PUSH2 0x56F5 JUMP JUMPDEST PUSH2 0x30AD SWAP2 SWAP1 PUSH2 0x5735 JUMP JUMPDEST PUSH2 0x30B5 JUMP JUMPDEST PUSH1 0x0 JUMPDEST SWAP1 POP PUSH4 0xFFFFFFFF DUP7 AND JUMPDEST DUP6 PUSH4 0xFFFFFFFF AND DUP2 LT ISZERO PUSH2 0x3246 JUMPI DUP8 PUSH4 0xFFFFFFFF AND DUP2 LT ISZERO PUSH2 0x3234 JUMPI PUSH1 0x0 DUP12 DUP2 MSTORE PUSH1 0x82 PUSH1 0x20 MSTORE PUSH1 0x40 DUP2 KECCAK256 DUP1 SLOAD DUP4 SWAP1 DUP2 LT PUSH2 0x30FB JUMPI PUSH2 0x30FB PUSH2 0x5A7F JUMP JUMPDEST PUSH1 0x0 SWAP2 DUP3 MSTORE PUSH1 0x20 DUP1 DUP4 KECCAK256 SWAP1 SWAP2 ADD SLOAD PUSH1 0x1 PUSH1 0x1 PUSH1 0xA0 SHL SUB AND DUP1 DUP4 MSTORE PUSH1 0x77 SWAP1 SWAP2 MSTORE PUSH1 0x40 DUP3 KECCAK256 DUP1 SLOAD SWAP2 SWAP4 POP DUP9 SWAP3 SWAP1 SWAP2 PUSH2 0x3132 SWAP1 DUP5 SWAP1 PUSH2 0x578D JUMP JUMPDEST SWAP1 SWAP2 SSTORE POP POP PUSH1 0x0 DUP3 SWAP1 SUB PUSH2 0x31BB JUMPI PUSH1 0x65 SLOAD PUSH1 0x40 MLOAD PUSH4 0xA9059CBB PUSH1 0xE0 SHL DUP2 MSTORE PUSH1 0x1 PUSH1 0x1 PUSH1 0xA0 SHL SUB SWAP1 SWAP2 AND SWAP1 PUSH4 0xA9059CBB SWAP1 PUSH2 0x3172 SWAP1 DUP5 SWAP1 DUP9 SWAP1 PUSH1 0x4 ADD PUSH2 0x5757 JUMP JUMPDEST PUSH1 0x20 PUSH1 0x40 MLOAD DUP1 DUP4 SUB DUP2 PUSH1 0x0 DUP8 GAS CALL ISZERO DUP1 ISZERO PUSH2 0x3191 JUMPI RETURNDATASIZE PUSH1 0x0 DUP1 RETURNDATACOPY RETURNDATASIZE PUSH1 0x0 REVERT JUMPDEST POP POP POP POP PUSH1 0x40 MLOAD RETURNDATASIZE PUSH1 0x1F NOT PUSH1 0x1F DUP3 ADD AND DUP3 ADD DUP1 PUSH1 0x40 MSTORE POP DUP2 ADD SWAP1 PUSH2 0x31B5 SWAP2 SWAP1 PUSH2 0x5770 JUMP JUMPDEST POP PUSH2 0x3232 JUMP JUMPDEST PUSH1 0x65 SLOAD PUSH1 0x40 MLOAD PUSH4 0xA9059CBB PUSH1 0xE0 SHL DUP2 MSTORE PUSH1 0x1 PUSH1 0x1 PUSH1 0xA0 SHL SUB SWAP1 SWAP2 AND SWAP1 PUSH4 0xA9059CBB SWAP1 PUSH2 0x31ED SWAP1 DUP5 SWAP1 DUP8 SWAP1 PUSH1 0x4 ADD PUSH2 0x5757 JUMP JUMPDEST PUSH1 0x20 PUSH1 0x40 MLOAD DUP1 DUP4 SUB DUP2 PUSH1 0x0 DUP8 GAS CALL ISZERO DUP1 ISZERO PUSH2 0x320C JUMPI RETURNDATASIZE PUSH1 0x0 DUP1 RETURNDATACOPY RETURNDATASIZE PUSH1 0x0 REVERT JUMPDEST POP POP POP POP PUSH1 0x40 MLOAD RETURNDATASIZE PUSH1 0x1F NOT PUSH1 0x1F DUP3 ADD AND DUP3 ADD DUP1 PUSH1 0x40 MSTORE POP DUP2 ADD SWAP1 PUSH2 0x3230 SWAP2 SWAP1 PUSH2 0x5770 JUMP JUMPDEST POP JUMPDEST POP JUMPDEST DUP1 PUSH2 0x323E DUP2 PUSH2 0x5A95 JUMP JUMPDEST SWAP2 POP POP PUSH2 0x30BF JUMP JUMPDEST POP PUSH1 0x0 DUP11 DUP2 MSTORE PUSH1 0x7E PUSH1 0x20 MSTORE PUSH1 0x40 DUP2 KECCAK256 SLOAD PUSH1 0x1 PUSH1 0xE0 SHL SWAP1 DIV PUSH4 0xFFFFFFFF AND SWAP1 SUB PUSH2 0x3272 JUMPI PUSH2 0x3272 DUP11 PUSH2 0x40C6 JUMP JUMPDEST POP POP POP JUMPDEST PUSH1 0x0 DUP8 DUP2 MSTORE PUSH1 0x7E PUSH1 0x20 SWAP1 DUP2 MSTORE PUSH1 0x40 SWAP2 DUP3 SWAP1 KECCAK256 DUP1 SLOAD PUSH1 0x1 PUSH1 0x1 PUSH1 0xE0 SHL SUB AND PUSH1 0x1 PUSH1 0xE0 SHL PUSH4 0xFFFFFFFF DUP8 DUP2 AND SWAP2 DUP3 MUL SWAP3 SWAP1 SWAP3 OR SWAP1 SWAP3 SSTORE SWAP3 MLOAD SWAP1 DUP2 MSTORE SWAP2 DUP6 AND SWAP2 DUP10 SWAP2 PUSH32 0x71D8C71303E35A39162E33A402C9897BF9848388537BAC7D5E1B0D202ECA4E66 SWAP2 ADD PUSH1 0x40 MLOAD DUP1 SWAP2 SUB SWAP1 LOG3 POP POP POP POP POP POP POP JUMP JUMPDEST PUSH1 0x67 SLOAD PUSH1 0x1 PUSH1 0xA0 SHL SWAP1 DIV PUSH1 0xFF AND ISZERO PUSH2 0x3313 JUMPI PUSH1 0x40 MLOAD PUSH3 0x461BCD PUSH1 0xE5 SHL DUP2 MSTORE PUSH1 0x4 ADD PUSH2 0xB78 SWAP1 PUSH2 0x56BF JUMP JUMPDEST PUSH1 0x65 SLOAD PUSH1 0x40 MLOAD PUSH4 0x23B872DD PUSH1 0xE0 SHL DUP2 MSTORE CALLER PUSH1 0x4 DUP3 ADD MSTORE ADDRESS PUSH1 0x24 DUP3 ADD MSTORE PUSH1 0x44 DUP2 ADD DUP4 SWAP1 MSTORE PUSH1 0x1 PUSH1 0x1 PUSH1 0xA0 SHL SUB SWAP1 SWAP2 AND SWAP1 PUSH4 0x23B872DD SWAP1 PUSH1 0x64 ADD PUSH1 0x20 PUSH1 0x40 MLOAD DUP1 DUP4 SUB DUP2 PUSH1 0x0 DUP8 GAS CALL ISZERO DUP1 ISZERO PUSH2 0x336A JUMPI RETURNDATASIZE PUSH1 0x0 DUP1 RETURNDATACOPY RETURNDATASIZE PUSH1 0x0 REVERT JUMPDEST POP POP POP POP PUSH1 0x40 MLOAD RETURNDATASIZE PUSH1 0x1F NOT PUSH1 0x1F DUP3 ADD AND DUP3 ADD DUP1 PUSH1 0x40 MSTORE POP DUP2 ADD SWAP1 PUSH2 0x338E SWAP2 SWAP1 PUSH2 0x5770 JUMP JUMPDEST POP PUSH1 0x0 PUSH2 0x3399 PUSH2 0x1539 JUMP JUMPDEST PUSH1 0x1 PUSH1 0x1 PUSH1 0xA0 SHL SUB DUP5 AND PUSH1 0x0 SWAP1 DUP2 MSTORE PUSH1 0x77 PUSH1 0x20 MSTORE PUSH1 0x40 SWAP1 KECCAK256 SLOAD SWAP1 SWAP2 POP DUP2 LT PUSH2 0x3406 JUMPI PUSH1 0x1 PUSH1 0x1 PUSH1 0xA0 SHL SUB DUP4 AND PUSH1 0x0 SWAP1 DUP2 MSTORE PUSH1 0x77 PUSH1 0x20 MSTORE PUSH1 0x40 SWAP1 KECCAK256 SLOAD DUP2 SWAP1 PUSH2 0x33E1 SWAP1 DUP5 SWAP1 PUSH2 0x578D JUMP JUMPDEST LT PUSH2 0x3406 JUMPI PUSH1 0x1 PUSH1 0x1 PUSH1 0xA0 SHL SUB DUP4 AND PUSH1 0x0 SWAP1 DUP2 MSTORE PUSH1 0x77 PUSH1 0x20 MSTORE PUSH1 0x40 SWAP1 KECCAK256 TIMESTAMP PUSH1 0x1 SWAP1 SWAP2 ADD SSTORE JUMPDEST PUSH1 0x40 DUP1 MLOAD PUSH1 0x60 DUP2 ADD DUP3 MSTORE PUSH1 0x1 PUSH1 0x1 PUSH1 0xA0 SHL SUB DUP6 AND PUSH1 0x0 SWAP1 DUP2 MSTORE PUSH1 0x77 PUSH1 0x20 MSTORE SWAP2 SWAP1 SWAP2 KECCAK256 SLOAD DUP2 SWAP1 PUSH2 0x3436 SWAP1 DUP6 SWAP1 PUSH2 0x578D JUMP JUMPDEST DUP2 MSTORE PUSH1 0x1 PUSH1 0x1 PUSH1 0xA0 SHL SUB DUP6 DUP2 AND PUSH1 0x0 DUP2 DUP2 MSTORE PUSH1 0x77 PUSH1 0x20 DUP2 DUP2 MSTORE PUSH1 0x40 DUP1 DUP5 KECCAK256 PUSH1 0x1 DUP2 ADD DUP1 SLOAD DUP5 DUP11 ADD MSTORE SWAP8 DUP3 ADD DUP7 SWAP1 MSTORE SWAP4 DUP6 SWAP1 MSTORE SWAP2 DUP2 MSTORE DUP7 MLOAD DUP4 SSTORE DUP7 DUP2 ADD MLOAD SWAP1 SWAP6 SSTORE SWAP5 DUP6 ADD MLOAD PUSH1 0x2 SWAP1 SWAP2 ADD DUP1 SLOAD PUSH1 0x1 PUSH1 0x1 PUSH1 0xA0 SHL SUB NOT AND SWAP2 SWAP1 SWAP4 AND OR SWAP1 SWAP2 SSTORE SWAP2 MLOAD DUP5 DUP2 MSTORE CALLER SWAP2 PUSH32 0x8D4844488C19A90828439E71D14EBAD860806D04F8EF8B25A82179FAB2699B89 SWAP2 ADD JUMPDEST PUSH1 0x40 MLOAD DUP1 SWAP2 SUB SWAP1 LOG3 POP POP POP JUMP JUMPDEST PUSH2 0x34D3 PUSH2 0x3CCF JUMP JUMPDEST PUSH1 0x0 DUP3 DUP2 MSTORE PUSH1 0x76 PUSH1 0x20 MSTORE PUSH1 0x40 SWAP1 KECCAK256 PUSH1 0x1 ADD SLOAD PUSH1 0x1 PUSH1 0x1 PUSH1 0xA0 SHL SUB AND PUSH2 0x350A JUMPI PUSH1 0x40 MLOAD PUSH3 0x461BCD PUSH1 0xE5 SHL DUP2 MSTORE PUSH1 0x4 ADD PUSH2 0xB78 SWAP1 PUSH2 0x57A0 JUMP JUMPDEST PUSH1 0x0 DUP3 DUP2 MSTORE PUSH1 0x76 PUSH1 0x20 MSTORE PUSH1 0x40 SWAP1 DUP2 SWAP1 KECCAK256 PUSH1 0x2 ADD DUP3 SWAP1 SSTORE MLOAD DUP3 SWAP1 PUSH32 0x321E8A918B4C47BF3677852C070983825F30A47BC8D9416691454FA6A727D63 SWAP1 PUSH2 0x3552 SWAP1 DUP5 DUP2 MSTORE PUSH1 0x20 ADD SWAP1 JUMP JUMPDEST PUSH1 0x40 MLOAD DUP1 SWAP2 SUB SWAP1 LOG2 POP POP JUMP JUMPDEST PUSH1 0x0 DUP2 PUSH1 0x0 SUB PUSH2 0x3577 JUMPI POP PUSH8 0xDE0B6B3A7640000 PUSH2 0x14F0 JUMP JUMPDEST PUSH8 0xDE0B6B3A7640000 PUSH10 0x7F0E10AF47C1C7000000 PUSH2 0x3595 DUP6 DUP6 PUSH2 0x13CA JUMP JUMPDEST PUSH8 0xDE0B6B3A7640000 PUSH2 0x35B2 DUP7 PUSH10 0x7F0E10AF47C1C7000000 PUSH2 0x56F5 JUMP JUMPDEST PUSH2 0x35BC SWAP2 SWAP1 PUSH2 0x5708 JUMP JUMPDEST PUSH2 0x35C6 SWAP2 SWAP1 PUSH2 0x5708 JUMP JUMPDEST PUSH2 0x35D0 SWAP2 SWAP1 PUSH2 0x5735 JUMP JUMPDEST PUSH2 0x122E SWAP2 SWAP1 PUSH2 0x5735 JUMP JUMPDEST PUSH2 0x35E2 PUSH2 0x3CCF JUMP JUMPDEST PUSH1 0x74 DUP2 SWAP1 SSTORE PUSH1 0x40 MLOAD DUP2 SWAP1 PUSH32 0xDB340415B83E58BAB317964518D523BAABCC1571DE3B5D8FE6EBD52C704D31A9 SWAP1 PUSH1 0x0 SWAP1 LOG2 POP JUMP JUMPDEST PUSH1 0x67 SLOAD PUSH1 0x1 PUSH1 0xA0 SHL SWAP1 DIV PUSH1 0xFF AND ISZERO PUSH2 0x363F JUMPI PUSH1 0x40 MLOAD PUSH3 0x461BCD PUSH1 0xE5 SHL DUP2 MSTORE PUSH1 0x4 ADD PUSH2 0xB78 SWAP1 PUSH2 0x56BF JUMP JUMPDEST PUSH1 0x65 SLOAD PUSH1 0x66 SLOAD PUSH1 0x68 SLOAD PUSH1 0x40 MLOAD PUSH4 0xA9059CBB PUSH1 0xE0 SHL DUP2 MSTORE PUSH1 0x1 PUSH1 0x1 PUSH1 0xA0 SHL SUB SWAP4 DUP5 AND SWAP4 PUSH4 0xA9059CBB SWAP4 PUSH2 0x3676 SWAP4 SWAP2 AND SWAP2 PUSH1 0x4 ADD PUSH2 0x5757 JUMP JUMPDEST PUSH1 0x20 PUSH1 0x40 MLOAD DUP1 DUP4 SUB DUP2 PUSH1 0x0 DUP8 GAS CALL ISZERO DUP1 ISZERO PUSH2 0x3695 JUMPI RETURNDATASIZE PUSH1 0x0 DUP1 RETURNDATACOPY RETURNDATASIZE PUSH1 0x0 REVERT JUMPDEST POP POP POP POP PUSH1 0x40 MLOAD RETURNDATASIZE PUSH1 0x1F NOT PUSH1 0x1F DUP3 ADD AND DUP3 ADD DUP1 PUSH1 0x40 MSTORE POP DUP2 ADD SWAP1 PUSH2 0x36B9 SWAP2 SWAP1 PUSH2 0x5770 JUMP JUMPDEST POP PUSH1 0x0 PUSH1 0x68 SSTORE JUMP JUMPDEST PUSH2 0x36C9 PUSH2 0x3CCF JUMP JUMPDEST PUSH1 0x73 DUP2 SWAP1 SSTORE PUSH1 0x40 MLOAD DUP2 SWAP1 PUSH32 0x3A559DCE5761B4B2E6099B6DC8D51F7EB190932DC5797D8090DAF1A42CD58E7D SWAP1 PUSH1 0x0 SWAP1 LOG2 POP JUMP JUMPDEST PUSH2 0x3704 PUSH2 0x3CCF JUMP JUMPDEST PUSH1 0x75 DUP2 SWAP1 SSTORE PUSH1 0x40 MLOAD DUP2 SWAP1 PUSH32 0x7BF73D8C24113D60E7DE7E92AE237284CF5A6F8DFE31E8EEE1C6D9C8890E13C9 SWAP1 PUSH1 0x0 SWAP1 LOG2 POP JUMP JUMPDEST PUSH1 0x67 SLOAD PUSH1 0x1 PUSH1 0xA0 SHL SWAP1 DIV PUSH1 0xFF AND ISZERO PUSH2 0x3761 JUMPI PUSH1 0x40 MLOAD PUSH3 0x461BCD PUSH1 0xE5 SHL DUP2 MSTORE PUSH1 0x4 ADD PUSH2 0xB78 SWAP1 PUSH2 0x56BF JUMP JUMPDEST CALLER PUSH1 0x0 SWAP1 DUP2 MSTORE PUSH1 0x79 PUSH1 0x20 SWAP1 DUP2 MSTORE PUSH1 0x40 DUP1 DUP4 KECCAK256 DUP5 DUP5 MSTORE DUP3 MSTORE SWAP2 DUP3 SWAP1 KECCAK256 DUP3 MLOAD DUP1 DUP5 ADD SWAP1 SWAP4 MSTORE DUP1 SLOAD DUP1 DUP5 MSTORE PUSH1 0x1 SWAP1 SWAP2 ADD SLOAD SWAP2 DUP4 ADD SWAP2 SWAP1 SWAP2 MSTORE PUSH2 0x37D6 JUMPI PUSH1 0x40 MLOAD PUSH3 0x461BCD PUSH1 0xE5 SHL DUP2 MSTORE PUSH1 0x20 PUSH1 0x4 DUP3 ADD MSTORE PUSH1 0x11 PUSH1 0x24 DUP3 ADD MSTORE PUSH17 0x1C995C5D595CDD081B9BDD08195E1A5CDD PUSH1 0x7A SHL PUSH1 0x44 DUP3 ADD MSTORE PUSH1 0x64 ADD PUSH2 0xB78 JUMP JUMPDEST PUSH1 0x20 DUP1 DUP3 ADD MLOAD CALLER PUSH1 0x0 SWAP1 DUP2 MSTORE PUSH1 0x7A SWAP1 SWAP3 MSTORE PUSH1 0x40 DUP3 KECCAK256 DUP1 SLOAD SWAP2 SWAP3 SWAP1 SWAP2 PUSH2 0x37FC SWAP1 DUP5 SWAP1 PUSH2 0x56F5 JUMP JUMPDEST SWAP1 SWAP2 SSTORE POP POP CALLER PUSH1 0x0 DUP2 DUP2 MSTORE PUSH1 0x79 PUSH1 0x20 SWAP1 DUP2 MSTORE PUSH1 0x40 DUP1 DUP4 KECCAK256 DUP7 DUP5 MSTORE SWAP1 SWAP2 MSTORE DUP1 DUP3 KECCAK256 DUP3 DUP2 SSTORE PUSH1 0x1 ADD DUP3 SWAP1 SSTORE MLOAD DUP5 SWAP3 SWAP2 PUSH32 0xF9D5CFCDFE9803069225971BA315F4302ADD9B477C3441CC363BC38FDB065B90 SWAP2 LOG3 POP POP JUMP JUMPDEST PUSH1 0x0 PUSH4 0xBBF81E00 DUP3 GT ISZERO PUSH2 0x386F JUMPI POP PUSH10 0x7F0E10AF47C1C7000000 SWAP2 SWAP1 POP JUMP JUMPDEST PUSH1 0x0 PUSH2 0x388A PUSH2 0x14D2 PUSH2 0x3885 DUP6 PUSH4 0x1E13380 PUSH2 0x4461 JUMP JUMPDEST PUSH2 0x4479 JUMP JUMPDEST SWAP1 POP PUSH8 0xDE0B6B3A7640000 DUP2 PUSH2 0x38AA PUSH10 0x7F0E10AF47C1C7000000 DUP4 PUSH2 0x5708 JUMP JUMPDEST PUSH2 0x38BC SWAP1 PUSH8 0xDE0B6B3A7640000 PUSH2 0x5708 JUMP JUMPDEST PUSH2 0x38C6 SWAP2 SWAP1 PUSH2 0x5735 JUMP JUMPDEST PUSH2 0x38D0 SWAP2 SWAP1 PUSH2 0x5735 JUMP JUMPDEST PUSH2 0x122E SWAP1 PUSH10 0x7F0E10AF47C1C7000000 PUSH2 0x56F5 JUMP JUMPDEST PUSH1 0x81 PUSH1 0x20 MSTORE DUP2 PUSH1 0x0 MSTORE PUSH1 0x40 PUSH1 0x0 KECCAK256 DUP2 DUP2 SLOAD DUP2 LT PUSH2 0x1634 JUMPI PUSH1 0x0 DUP1 REVERT JUMPDEST PUSH2 0x3908 PUSH2 0x3CCF JUMP JUMPDEST PUSH1 0x66 DUP1 SLOAD PUSH1 0x1 PUSH1 0x1 PUSH1 0xA0 SHL SUB NOT AND PUSH1 0x1 PUSH1 0x1 PUSH1 0xA0 SHL SUB DUP4 AND SWAP1 DUP2 OR SWAP1 SWAP2 SSTORE PUSH1 0x40 MLOAD PUSH32 0x6BDB9CEFF405D990C9B60BE9F719FBB80889D5F064E8FD76EFD5BEA353E90712 SWAP1 PUSH1 0x0 SWAP1 LOG2 POP JUMP JUMPDEST PUSH1 0x76 PUSH1 0x20 MSTORE PUSH1 0x0 SWAP1 DUP2 MSTORE PUSH1 0x40 SWAP1 KECCAK256 DUP1 SLOAD PUSH1 0x1 DUP3 ADD SLOAD PUSH1 0x2 DUP4 ADD SLOAD PUSH1 0x3 DUP5 ADD DUP1 SLOAD SWAP4 SWAP5 PUSH1 0x1 PUSH1 0x1 PUSH1 0xA0 SHL SUB SWAP1 SWAP4 AND SWAP4 SWAP2 SWAP3 SWAP2 PUSH2 0x23C9 SWAP1 PUSH2 0x57CE JUMP JUMPDEST PUSH1 0x7B PUSH1 0x20 MSTORE PUSH1 0x0 SWAP1 DUP2 MSTORE PUSH1 0x40 SWAP1 KECCAK256 DUP1 SLOAD PUSH1 0x1 DUP3 ADD SLOAD PUSH1 0x2 DUP4 ADD SLOAD PUSH1 0x3 DUP5 ADD DUP1 SLOAD SWAP4 SWAP5 SWAP3 SWAP4 PUSH1 0x1 PUSH1 0x1 PUSH1 0xA0 SHL SUB DUP4 AND SWAP4 PUSH1 0x1 PUSH1 0xA0 SHL DUP5 DIV PUSH1 0x1 PUSH1 0x1 PUSH1 0x40 SHL SUB AND SWAP4 PUSH1 0x1 PUSH1 0xE0 SHL SWAP1 DIV PUSH1 0xFF AND SWAP3 SWAP1 SWAP2 PUSH2 0x39E2 SWAP1 PUSH2 0x57CE JUMP JUMPDEST DUP1 PUSH1 0x1F ADD PUSH1 0x20 DUP1 SWAP2 DIV MUL PUSH1 0x20 ADD PUSH1 0x40 MLOAD SWAP1 DUP2 ADD PUSH1 0x40 MSTORE DUP1 SWAP3 SWAP2 SWAP1 DUP2 DUP2 MSTORE PUSH1 0x20 ADD DUP3 DUP1 SLOAD PUSH2 0x3A0E SWAP1 PUSH2 0x57CE JUMP JUMPDEST DUP1 ISZERO PUSH2 0x3A5B JUMPI DUP1 PUSH1 0x1F LT PUSH2 0x3A30 JUMPI PUSH2 0x100 DUP1 DUP4 SLOAD DIV MUL DUP4 MSTORE SWAP2 PUSH1 0x20 ADD SWAP2 PUSH2 0x3A5B JUMP JUMPDEST DUP3 ADD SWAP2 SWAP1 PUSH1 0x0 MSTORE PUSH1 0x20 PUSH1 0x0 KECCAK256 SWAP1 JUMPDEST DUP2 SLOAD DUP2 MSTORE SWAP1 PUSH1 0x1 ADD SWAP1 PUSH1 0x20 ADD DUP1 DUP4 GT PUSH2 0x3A3E JUMPI DUP3 SWAP1 SUB PUSH1 0x1F AND DUP3 ADD SWAP2 JUMPDEST POP POP POP POP POP SWAP1 POP DUP7 JUMP JUMPDEST PUSH2 0x3A6D PUSH2 0x3CCF JUMP JUMPDEST PUSH2 0x28F8 DUP2 PUSH2 0x44CF JUMP JUMPDEST PUSH1 0x60 PUSH3 0x10000 DUP3 GT ISZERO PUSH2 0x3ACB JUMPI PUSH1 0x40 MLOAD PUSH3 0x461BCD PUSH1 0xE5 SHL DUP2 MSTORE PUSH1 0x20 PUSH1 0x4 DUP3 ADD MSTORE PUSH1 0x1F PUSH1 0x24 DUP3 ADD MSTORE PUSH32 0x4D617820636F6E74656E742073697A6520697320363535333620627974657300 PUSH1 0x44 DUP3 ADD MSTORE PUSH1 0x64 ADD PUSH2 0xB78 JUMP JUMPDEST PUSH1 0x0 PUSH2 0x3AD6 DUP4 PUSH2 0x4545 JUMP JUMPDEST SWAP1 POP PUSH1 0x0 DUP2 DUP6 DUP6 DUP5 PUSH1 0x40 MLOAD PUSH1 0x20 ADD PUSH2 0x3AF1 SWAP5 SWAP4 SWAP3 SWAP2 SWAP1 PUSH2 0x5AAE JUMP JUMPDEST PUSH1 0x40 MLOAD PUSH1 0x20 DUP2 DUP4 SUB SUB DUP2 MSTORE SWAP1 PUSH1 0x40 MSTORE SWAP1 POP PUSH1 0x2 PUSH2 0x3B0E DUP3 MLOAD PUSH2 0x4545 JUMP JUMPDEST DUP3 PUSH1 0x40 MLOAD PUSH1 0x20 ADD PUSH2 0x3B20 SWAP3 SWAP2 SWAP1 PUSH2 0x5B05 JUMP JUMPDEST PUSH1 0x40 DUP1 MLOAD PUSH1 0x1F NOT DUP2 DUP5 SUB ADD DUP2 MSTORE SWAP1 DUP3 SWAP1 MSTORE PUSH2 0x3B3A SWAP2 PUSH2 0x5B45 JUMP JUMPDEST PUSH1 0x20 PUSH1 0x40 MLOAD DUP1 DUP4 SUB DUP2 DUP6 GAS STATICCALL ISZERO DUP1 ISZERO PUSH2 0x3B57 JUMPI RETURNDATASIZE PUSH1 0x0 DUP1 RETURNDATACOPY RETURNDATASIZE PUSH1 0x0 REVERT JUMPDEST POP POP POP PUSH1 0x40 MLOAD RETURNDATASIZE PUSH1 0x1F NOT PUSH1 0x1F DUP3 ADD AND DUP3 ADD DUP1 PUSH1 0x40 MSTORE POP DUP2 ADD SWAP1 PUSH2 0x3B7A SWAP2 SWAP1 PUSH2 0x59EC JUMP JUMPDEST PUSH1 0x40 MLOAD PUSH1 0x91 PUSH1 0xF5 SHL PUSH1 0x20 DUP3 ADD MSTORE PUSH1 0x22 DUP2 ADD SWAP2 SWAP1 SWAP2 MSTORE PUSH1 0x42 ADD PUSH1 0x40 MLOAD PUSH1 0x20 DUP2 DUP4 SUB SUB DUP2 MSTORE SWAP1 PUSH1 0x40 MSTORE SWAP3 POP POP POP SWAP3 SWAP2 POP POP JUMP JUMPDEST PUSH1 0x0 DUP4 DUP2 MSTORE PUSH1 0x7F PUSH1 0x20 SWAP1 DUP2 MSTORE PUSH1 0x40 DUP1 DUP4 KECCAK256 PUSH1 0x1 PUSH1 0x1 PUSH1 0xA0 SHL SUB DUP6 AND DUP5 MSTORE SWAP1 SWAP2 MSTORE SWAP1 KECCAK256 DUP1 SLOAD PUSH1 0xFF NOT AND PUSH1 0x1 OR SWAP1 SSTORE DUP2 ISZERO PUSH2 0x3C1A JUMPI PUSH1 0x0 DUP4 DUP2 MSTORE PUSH1 0x81 PUSH1 0x20 SWAP1 DUP2 MSTORE PUSH1 0x40 DUP3 KECCAK256 DUP1 SLOAD PUSH1 0x1 DUP2 ADD DUP3 SSTORE SWAP1 DUP4 MSTORE SWAP2 KECCAK256 ADD DUP1 SLOAD PUSH1 0x1 PUSH1 0x1 PUSH1 0xA0 SHL SUB NOT AND PUSH1 0x1 PUSH1 0x1 PUSH1 0xA0 SHL SUB DUP4 AND OR SWAP1 SSTORE PUSH2 0x3C52 JUMP JUMPDEST PUSH1 0x0 DUP4 DUP2 MSTORE PUSH1 0x82 PUSH1 0x20 SWAP1 DUP2 MSTORE PUSH1 0x40 DUP3 KECCAK256 DUP1 SLOAD PUSH1 0x1 DUP2 ADD DUP3 SSTORE SWAP1 DUP4 MSTORE SWAP2 KECCAK256 ADD DUP1 SLOAD PUSH1 0x1 PUSH1 0x1 PUSH1 0xA0 SHL SUB NOT AND PUSH1 0x1 PUSH1 0x1 PUSH1 0xA0 SHL SUB DUP4 AND OR SWAP1 SSTORE JUMPDEST PUSH1 0x0 DUP4 DUP2 MSTORE PUSH1 0x7E PUSH1 0x20 SWAP1 DUP2 MSTORE PUSH1 0x40 DUP1 DUP4 KECCAK256 PUSH1 0x1 ADD SLOAD PUSH1 0x1 PUSH1 0x1 PUSH1 0xA0 SHL SUB DUP6 AND DUP5 MSTORE PUSH1 0x77 SWAP1 SWAP3 MSTORE DUP3 KECCAK256 DUP1 SLOAD SWAP2 SWAP3 SWAP1 SWAP2 PUSH2 0x3C8B SWAP1 DUP5 SWAP1 PUSH2 0x56F5 JUMP JUMPDEST SWAP1 SWAP2 SSTORE POP POP PUSH1 0x40 MLOAD DUP3 ISZERO ISZERO DUP2 MSTORE DUP4 SWAP1 PUSH1 0x1 PUSH1 0x1 PUSH1 0xA0 SHL SUB DUP4 AND SWAP1 PUSH32 0x1AA9E4BE46E24E1F2E7EEB1613C01629213CD42965D2716E18531B63E552E411 SWAP1 PUSH1 0x20 ADD PUSH2 0x34BE JUMP JUMPDEST PUSH1 0x33 SLOAD PUSH1 0x1 PUSH1 0x1 PUSH1 0xA0 SHL SUB AND CALLER EQ PUSH2 0x237F JUMPI PUSH1 0x40 MLOAD PUSH3 0x461BCD PUSH1 0xE5 SHL DUP2 MSTORE PUSH1 0x20 PUSH1 0x4 DUP3 ADD DUP2 SWAP1 MSTORE PUSH1 0x24 DUP3 ADD MSTORE PUSH32 0x4F776E61626C653A2063616C6C6572206973206E6F7420746865206F776E6572 PUSH1 0x44 DUP3 ADD MSTORE PUSH1 0x64 ADD PUSH2 0xB78 JUMP JUMPDEST PUSH1 0x0 DUP3 DUP3 PUSH1 0x1 PUSH1 0xFF SHL DUP3 EQ DUP1 PUSH2 0x3D42 JUMPI POP PUSH1 0x1 PUSH1 0xFF SHL DUP2 EQ JUMPDEST ISZERO PUSH2 0x3D60 JUMPI PUSH1 0x40 MLOAD PUSH4 0x9FE2B45 PUSH1 0xE4 SHL DUP2 MSTORE PUSH1 0x4 ADD PUSH1 0x40 MLOAD DUP1 SWAP2 SUB SWAP1 REVERT JUMPDEST PUSH1 0x0 DUP1 PUSH1 0x0 DUP5 SLT PUSH2 0x3D71 JUMPI DUP4 PUSH2 0x3D76 JUMP JUMPDEST DUP4 PUSH1 0x0 SUB JUMPDEST SWAP2 POP PUSH1 0x0 DUP4 SLT PUSH2 0x3D86 JUMPI DUP3 PUSH2 0x3D8B JUMP JUMPDEST DUP3 PUSH1 0x0 SUB JUMPDEST SWAP1 POP PUSH1 0x0 PUSH2 0x3DA2 DUP4 PUSH8 0xDE0B6B3A7640000 DUP5 PUSH2 0x469C JUMP JUMPDEST SWAP1 POP PUSH1 0x1 PUSH1 0x1 PUSH1 0xFF SHL SUB DUP2 GT ISZERO PUSH2 0x3DD6 JUMPI PUSH1 0x40 MLOAD PUSH4 0xD49C26B3 PUSH1 0xE0 SHL DUP2 MSTORE PUSH1 0x4 DUP2 ADD DUP10 SWAP1 MSTORE PUSH1 0x24 DUP2 ADD DUP9 SWAP1 MSTORE PUSH1 0x44 ADD PUSH2 0xB78 JUMP JUMPDEST PUSH1 0x0 NOT DUP6 DUP6 XOR SGT PUSH2 0x3DF2 DUP2 PUSH2 0x3DEE JUMPI DUP3 PUSH1 0x0 SUB PUSH2 0x14D2 JUMP JUMPDEST DUP3 SWAP1 JUMP JUMPDEST SWAP10 SWAP9 POP POP POP POP POP POP POP POP POP JUMP JUMPDEST PUSH1 0x0 PUSH2 0x122E PUSH2 0x14D2 DUP4 DUP6 PUSH2 0x5B61 JUMP JUMPDEST PUSH1 0x0 DUP3 DUP3 PUSH1 0x1 PUSH1 0xFF SHL DUP3 EQ DUP1 PUSH2 0x3E27 JUMPI POP PUSH1 0x1 PUSH1 0xFF SHL DUP2 EQ JUMPDEST ISZERO PUSH2 0x3E45 JUMPI PUSH1 0x40 MLOAD PUSH4 0xA6070C25 PUSH1 0xE0 SHL DUP2 MSTORE PUSH1 0x4 ADD PUSH1 0x40 MLOAD DUP1 SWAP2 SUB SWAP1 REVERT JUMPDEST PUSH1 0x0 DUP1 PUSH1 0x0 DUP5 SLT PUSH2 0x3E56 JUMPI DUP4 PUSH2 0x3E5B JUMP JUMPDEST DUP4 PUSH1 0x0 SUB JUMPDEST SWAP2 POP PUSH1 0x0 DUP4 SLT PUSH2 0x3E6B JUMPI DUP3 PUSH2 0x3E70 JUMP JUMPDEST DUP3 PUSH1 0x0 SUB JUMPDEST SWAP1 POP PUSH1 0x0 PUSH2 0x3E7E DUP4 DUP4 PUSH2 0x4770 JUMP JUMPDEST SWAP1 POP PUSH1 0x1 PUSH1 0x1 PUSH1 0xFF SHL SUB DUP2 GT ISZERO PUSH2 0x3DD6 JUMPI PUSH1 0x40 MLOAD PUSH4 0x120B5B43 PUSH1 0xE0 SHL DUP2 MSTORE PUSH1 0x4 DUP2 ADD DUP10 SWAP1 MSTORE PUSH1 0x24 DUP2 ADD DUP9 SWAP1 MSTORE PUSH1 0x44 ADD PUSH2 0xB78 JUMP JUMPDEST PUSH1 0x0 PUSH2 0x122E PUSH2 0x14D2 DUP4 DUP6 PUSH2 0x5B81 JUMP JUMPDEST PUSH1 0x0 DUP2 PUSH1 0x1 PUSH1 0xFF SHL DUP2 ADD PUSH2 0x3EE8 JUMPI PUSH1 0x40 MLOAD PUSH4 0xEC2B9E67 PUSH1 0xE0 SHL DUP2 MSTORE PUSH1 0x4 ADD PUSH1 0x40 MLOAD DUP1 SWAP2 SUB SWAP1 REVERT JUMPDEST PUSH1 0x0 DUP2 SLT PUSH2 0x3EF6 JUMPI DUP3 PUSH2 0x122E JUMP JUMPDEST PUSH2 0x122E PUSH2 0x14D2 DUP3 PUSH2 0x5BA9 JUMP JUMPDEST PUSH1 0x0 DUP2 DUP2 DUP2 SLT ISZERO PUSH2 0x3F63 JUMPI PUSH9 0x33DD1780914B97114 NOT DUP2 SLT ISZERO PUSH2 0x3F28 JUMPI POP PUSH1 0x0 SWAP3 SWAP2 POP POP JUMP JUMPDEST PUSH2 0x3F5C PUSH2 0x3F3B PUSH2 0x14D2 PUSH2 0x14CD DUP5 PUSH1 0x0 SUB SWAP1 JUMP JUMPDEST PUSH15 0xC097CE7BC90715B34B9F1000000000 DUP2 PUSH2 0x3F58 JUMPI PUSH2 0x3F58 PUSH2 0x571F JUMP JUMPDEST SDIV SWAP1 JUMP JUMPDEST SWAP2 POP PUSH2 0x3FAE JUMP JUMPDEST PUSH9 0xA688906BD8AFFFFFF DUP2 SGT ISZERO PUSH2 0x3F8F JUMPI PUSH1 0x40 MLOAD PUSH3 0x6C1A05 PUSH1 0xE3 SHL DUP2 MSTORE PUSH1 0x4 DUP2 ADD DUP5 SWAP1 MSTORE PUSH1 0x24 ADD PUSH2 0xB78 JUMP JUMPDEST PUSH8 0xDE0B6B3A7640000 PUSH1 0x40 DUP3 SWAP1 SHL SDIV PUSH2 0x3FAA PUSH2 0x14D2 DUP3 PUSH2 0x4826 JUMP JUMPDEST SWAP3 POP POP JUMPDEST POP SWAP2 SWAP1 POP JUMP JUMPDEST PUSH1 0x0 SLOAD PUSH2 0x100 SWAP1 DIV PUSH1 0xFF AND PUSH2 0x3FDB JUMPI PUSH1 0x40 MLOAD PUSH3 0x461BCD PUSH1 0xE5 SHL DUP2 MSTORE PUSH1 0x4 ADD PUSH2 0xB78 SWAP1 PUSH2 0x5BC5 JUMP JUMPDEST PUSH2 0x237F PUSH2 0x4F86 JUMP JUMPDEST PUSH1 0x0 CHAINID PUSH2 0xA4BA DUP2 EQ DUP1 PUSH2 0x3FF8 JUMPI POP PUSH3 0x66EED DUP2 EQ JUMPDEST DUP1 PUSH2 0x4005 JUMPI POP PUSH3 0x66EEE DUP2 EQ JUMPDEST ISZERO PUSH2 0x406D JUMPI PUSH1 0x64 PUSH1 0x1 PUSH1 0x1 PUSH1 0xA0 SHL SUB AND PUSH4 0xA3B1B31D PUSH1 0x40 MLOAD DUP2 PUSH4 0xFFFFFFFF AND PUSH1 0xE0 SHL DUP2 MSTORE PUSH1 0x4 ADD PUSH1 0x20 PUSH1 0x40 MLOAD DUP1 DUP4 SUB DUP2 DUP7 GAS STATICCALL ISZERO DUP1 ISZERO PUSH2 0x4049 JUMPI RETURNDATASIZE PUSH1 0x0 DUP1 RETURNDATACOPY RETURNDATASIZE PUSH1 0x0 REVERT JUMPDEST POP POP POP POP PUSH1 0x40 MLOAD RETURNDATASIZE PUSH1 0x1F NOT PUSH1 0x1F DUP3 ADD AND DUP3 ADD DUP1 PUSH1 0x40 MSTORE POP DUP2 ADD SWAP1 PUSH2 0x159C SWAP2 SWAP1 PUSH2 0x59EC JUMP JUMPDEST NUMBER SWAP2 POP POP SWAP1 JUMP JUMPDEST PUSH1 0x33 DUP1 SLOAD PUSH1 0x1 PUSH1 0x1 PUSH1 0xA0 SHL SUB DUP4 DUP2 AND PUSH1 0x1 PUSH1 0x1 PUSH1 0xA0 SHL SUB NOT DUP4 AND DUP2 OR SWAP1 SWAP4 SSTORE PUSH1 0x40 MLOAD SWAP2 AND SWAP2 SWAP1 DUP3 SWAP1 PUSH32 0x8BE0079C531659141344CD1FD0A4F28419497F9722A3DAAFE3B4186F6B6457E0 SWAP1 PUSH1 0x0 SWAP1 LOG3 POP POP JUMP JUMPDEST PUSH1 0x0 DUP2 DUP2 MSTORE PUSH1 0x7B PUSH1 0x20 DUP2 DUP2 MSTORE PUSH1 0x40 DUP1 DUP5 KECCAK256 DUP1 SLOAD DUP6 MSTORE PUSH1 0x76 DUP4 MSTORE SWAP1 DUP5 KECCAK256 SLOAD SWAP4 DUP6 SWAP1 MSTORE SWAP2 SWAP1 MSTORE PUSH1 0x1 ADD SLOAD DUP2 GT ISZERO PUSH2 0x40F9 JUMPI POP PUSH1 0x0 JUMPDEST DUP1 ISZERO PUSH2 0x4197 JUMPI PUSH1 0x65 SLOAD PUSH1 0x0 DUP4 DUP2 MSTORE PUSH1 0x7B PUSH1 0x20 SWAP1 DUP2 MSTORE PUSH1 0x40 DUP1 DUP4 KECCAK256 SLOAD DUP4 MSTORE PUSH1 0x76 SWAP1 SWAP2 MSTORE SWAP1 DUP2 SWAP1 KECCAK256 PUSH1 0x1 ADD SLOAD SWAP1 MLOAD PUSH4 0xA9059CBB PUSH1 0xE0 SHL DUP2 MSTORE PUSH1 0x1 PUSH1 0x1 PUSH1 0xA0 SHL SUB SWAP3 DUP4 AND SWAP3 PUSH4 0xA9059CBB SWAP3 PUSH2 0x4152 SWAP3 SWAP2 AND SWAP1 DUP6 SWAP1 PUSH1 0x4 ADD PUSH2 0x5757 JUMP JUMPDEST PUSH1 0x20 PUSH1 0x40 MLOAD DUP1 DUP4 SUB DUP2 PUSH1 0x0 DUP8 GAS CALL ISZERO DUP1 ISZERO PUSH2 0x4171 JUMPI RETURNDATASIZE PUSH1 0x0 DUP1 RETURNDATACOPY RETURNDATASIZE PUSH1 0x0 REVERT JUMPDEST POP POP POP POP PUSH1 0x40 MLOAD RETURNDATASIZE PUSH1 0x1F NOT PUSH1 0x1F DUP3 ADD AND DUP3 ADD DUP1 PUSH1 0x40 MSTORE POP DUP2 ADD SWAP1 PUSH2 0x4195 SWAP2 SWAP1 PUSH2 0x5770 JUMP JUMPDEST POP JUMPDEST PUSH1 0x0 DUP3 DUP2 MSTORE PUSH1 0x7B PUSH1 0x20 MSTORE PUSH1 0x40 DUP2 KECCAK256 PUSH1 0x1 ADD SLOAD PUSH2 0x41B4 SWAP1 DUP4 SWAP1 PUSH2 0x56F5 JUMP JUMPDEST SWAP1 POP PUSH1 0x0 PUSH8 0xDE0B6B3A7640000 PUSH1 0x6E SLOAD PUSH8 0xDE0B6B3A7640000 PUSH2 0x41D7 SWAP2 SWAP1 PUSH2 0x56F5 JUMP JUMPDEST PUSH2 0x41E1 SWAP1 DUP5 PUSH2 0x5708 JUMP JUMPDEST PUSH2 0x41EB SWAP2 SWAP1 PUSH2 0x5735 JUMP JUMPDEST PUSH2 0x41F5 SWAP1 DUP4 PUSH2 0x56F5 JUMP JUMPDEST SWAP1 POP DUP1 PUSH1 0x68 PUSH1 0x0 DUP3 DUP3 SLOAD PUSH2 0x4209 SWAP2 SWAP1 PUSH2 0x578D JUMP JUMPDEST SWAP1 SWAP2 SSTORE POP PUSH1 0x0 SWAP1 POP PUSH2 0x421B DUP3 DUP5 PUSH2 0x56F5 JUMP JUMPDEST SWAP1 POP DUP1 ISZERO PUSH2 0x42B4 JUMPI PUSH1 0x65 SLOAD PUSH1 0x0 DUP7 DUP2 MSTORE PUSH1 0x7D PUSH1 0x20 MSTORE PUSH1 0x40 SWAP1 KECCAK256 SLOAD PUSH1 0x1 PUSH1 0x1 PUSH1 0xA0 SHL SUB SWAP2 DUP3 AND SWAP2 PUSH4 0xA9059CBB SWAP2 AND PUSH2 0x4252 DUP6 DUP8 PUSH2 0x56F5 JUMP JUMPDEST PUSH1 0x40 MLOAD DUP4 PUSH4 0xFFFFFFFF AND PUSH1 0xE0 SHL DUP2 MSTORE PUSH1 0x4 ADD PUSH2 0x426F SWAP3 SWAP2 SWAP1 PUSH2 0x5757 JUMP JUMPDEST PUSH1 0x20 PUSH1 0x40 MLOAD DUP1 DUP4 SUB DUP2 PUSH1 0x0 DUP8 GAS CALL ISZERO DUP1 ISZERO PUSH2 0x428E JUMPI RETURNDATASIZE PUSH1 0x0 DUP1 RETURNDATACOPY RETURNDATASIZE PUSH1 0x0 REVERT JUMPDEST POP POP POP POP PUSH1 0x40 MLOAD RETURNDATASIZE PUSH1 0x1F NOT PUSH1 0x1F DUP3 ADD AND DUP3 ADD DUP1 PUSH1 0x40 MSTORE POP DUP2 ADD SWAP1 PUSH2 0x42B2 SWAP2 SWAP1 PUSH2 0x5770 JUMP JUMPDEST POP JUMPDEST PUSH1 0x0 DUP6 DUP2 MSTORE PUSH1 0x7B PUSH1 0x20 SWAP1 DUP2 MSTORE PUSH1 0x40 DUP1 DUP4 KECCAK256 SLOAD DUP4 MSTORE PUSH1 0x76 SWAP1 SWAP2 MSTORE SWAP1 KECCAK256 PUSH1 0x2 ADD SLOAD DUP1 ISZERO PUSH2 0x4459 JUMPI PUSH1 0x0 PUSH8 0xDE0B6B3A7640000 DUP3 PUSH2 0x42ED PUSH2 0x16C4 JUMP JUMPDEST PUSH2 0x42F7 SWAP2 SWAP1 PUSH2 0x5708 JUMP JUMPDEST PUSH2 0x4301 SWAP2 SWAP1 PUSH2 0x5735 JUMP JUMPDEST SWAP1 POP DUP1 ISZERO PUSH2 0x4457 JUMPI PUSH1 0x0 PUSH8 0xDE0B6B3A7640000 PUSH1 0x70 SLOAD PUSH8 0xDE0B6B3A7640000 PUSH2 0x432A SWAP2 SWAP1 PUSH2 0x56F5 JUMP JUMPDEST PUSH2 0x4334 SWAP1 DUP5 PUSH2 0x5708 JUMP JUMPDEST PUSH2 0x433E SWAP2 SWAP1 PUSH2 0x5735 JUMP JUMPDEST PUSH2 0x4348 SWAP1 DUP4 PUSH2 0x56F5 JUMP JUMPDEST PUSH1 0x65 SLOAD PUSH1 0x0 DUP11 DUP2 MSTORE PUSH1 0x7D PUSH1 0x20 MSTORE PUSH1 0x40 SWAP1 KECCAK256 SLOAD SWAP2 SWAP3 POP PUSH1 0x1 PUSH1 0x1 PUSH1 0xA0 SHL SUB SWAP1 DUP2 AND SWAP2 PUSH4 0xA9059CBB SWAP2 AND PUSH2 0x437A DUP5 DUP7 PUSH2 0x56F5 JUMP JUMPDEST PUSH1 0x40 MLOAD DUP4 PUSH4 0xFFFFFFFF AND PUSH1 0xE0 SHL DUP2 MSTORE PUSH1 0x4 ADD PUSH2 0x4397 SWAP3 SWAP2 SWAP1 PUSH2 0x5757 JUMP JUMPDEST PUSH1 0x20 PUSH1 0x40 MLOAD DUP1 DUP4 SUB DUP2 PUSH1 0x0 DUP8 GAS CALL ISZERO DUP1 ISZERO PUSH2 0x43B6 JUMPI RETURNDATASIZE PUSH1 0x0 DUP1 RETURNDATACOPY RETURNDATASIZE PUSH1 0x0 REVERT JUMPDEST POP POP POP POP PUSH1 0x40 MLOAD RETURNDATASIZE PUSH1 0x1F NOT PUSH1 0x1F DUP3 ADD AND DUP3 ADD DUP1 PUSH1 0x40 MSTORE POP DUP2 ADD SWAP1 PUSH2 0x43DA SWAP2 SWAP1 PUSH2 0x5770 JUMP JUMPDEST POP PUSH1 0x65 SLOAD PUSH1 0x66 SLOAD PUSH1 0x40 MLOAD PUSH4 0xA9059CBB PUSH1 0xE0 SHL DUP2 MSTORE PUSH1 0x1 PUSH1 0x1 PUSH1 0xA0 SHL SUB SWAP3 DUP4 AND SWAP3 PUSH4 0xA9059CBB SWAP3 PUSH2 0x4411 SWAP3 SWAP2 AND SWAP1 DUP6 SWAP1 PUSH1 0x4 ADD PUSH2 0x5757 JUMP JUMPDEST PUSH1 0x20 PUSH1 0x40 MLOAD DUP1 DUP4 SUB DUP2 PUSH1 0x0 DUP8 GAS CALL ISZERO DUP1 ISZERO PUSH2 0x4430 JUMPI RETURNDATASIZE PUSH1 0x0 DUP1 RETURNDATACOPY RETURNDATASIZE PUSH1 0x0 REVERT JUMPDEST POP POP POP POP PUSH1 0x40 MLOAD RETURNDATASIZE PUSH1 0x1F NOT PUSH1 0x1F DUP3 ADD AND DUP3 ADD DUP1 PUSH1 0x40 MSTORE POP DUP2 ADD SWAP1 PUSH2 0x4454 SWAP2 SWAP1 PUSH2 0x5770 JUMP JUMPDEST POP POP JUMPDEST POP JUMPDEST POP POP POP POP POP POP JUMP JUMPDEST PUSH1 0x0 PUSH2 0x122E PUSH2 0x14D2 DUP5 PUSH8 0xDE0B6B3A7640000 DUP6 PUSH2 0x469C JUMP JUMPDEST PUSH1 0x0 DUP2 PUSH9 0xA688906BD8AFFFFFF DUP2 GT ISZERO PUSH2 0x44A9 JUMPI PUSH1 0x40 MLOAD PUSH4 0xB3B6BA1F PUSH1 0xE0 SHL DUP2 MSTORE PUSH1 0x4 DUP2 ADD DUP5 SWAP1 MSTORE PUSH1 0x24 ADD PUSH2 0xB78 JUMP JUMPDEST PUSH1 0x0 PUSH2 0x44C1 PUSH8 0xDE0B6B3A7640000 PUSH1 0x40 DUP5 SWAP1 SHL PUSH2 0x5735 JUMP JUMPDEST SWAP1 POP PUSH2 0x3FAA PUSH2 0x14D2 DUP3 PUSH2 0x4826 JUMP JUMPDEST PUSH2 0x44D7 PUSH2 0x3CCF JUMP JUMPDEST PUSH1 0x1 PUSH1 0x1 PUSH1 0xA0 SHL SUB DUP2 AND PUSH2 0x453C JUMPI PUSH1 0x40 MLOAD PUSH3 0x461BCD PUSH1 0xE5 SHL DUP2 MSTORE PUSH1 0x20 PUSH1 0x4 DUP3 ADD MSTORE PUSH1 0x26 PUSH1 0x24 DUP3 ADD MSTORE PUSH32 0x4F776E61626C653A206E6577206F776E657220697320746865207A65726F2061 PUSH1 0x44 DUP3 ADD MSTORE PUSH6 0x646472657373 PUSH1 0xD0 SHL PUSH1 0x64 DUP3 ADD MSTORE PUSH1 0x84 ADD PUSH2 0xB78 JUMP JUMPDEST PUSH2 0x28F8 DUP2 PUSH2 0x4074 JUMP JUMPDEST PUSH1 0x60 DUP2 PUSH1 0x1 JUMPDEST PUSH1 0x7F DUP3 PUSH1 0x1 PUSH1 0x1 PUSH1 0x40 SHL SUB AND GT ISZERO PUSH2 0x457E JUMPI PUSH1 0x7 DUP3 PUSH1 0x1 PUSH1 0x1 PUSH1 0x40 SHL SUB AND SWAP1 SHR SWAP2 POP DUP1 PUSH2 0x4577 SWAP1 PUSH2 0x5C10 JUMP JUMPDEST SWAP1 POP PUSH2 0x454B JUMP JUMPDEST PUSH1 0x0 DUP2 PUSH1 0x1 PUSH1 0x1 PUSH1 0x40 SHL SUB AND PUSH1 0x1 PUSH1 0x1 PUSH1 0x40 SHL SUB DUP2 GT ISZERO PUSH2 0x45A1 JUMPI PUSH2 0x45A1 PUSH2 0x510F JUMP JUMPDEST PUSH1 0x40 MLOAD SWAP1 DUP1 DUP3 MSTORE DUP1 PUSH1 0x1F ADD PUSH1 0x1F NOT AND PUSH1 0x20 ADD DUP3 ADD PUSH1 0x40 MSTORE DUP1 ISZERO PUSH2 0x45CB JUMPI PUSH1 0x20 DUP3 ADD DUP2 DUP1 CALLDATASIZE DUP4 CALLDATACOPY ADD SWAP1 POP JUMPDEST POP SWAP1 POP DUP5 SWAP3 POP PUSH1 0x0 JUMPDEST DUP3 PUSH1 0x1 PUSH1 0x1 PUSH1 0x40 SHL SUB AND DUP2 PUSH1 0x1 PUSH1 0x1 PUSH1 0x40 SHL SUB AND LT ISZERO PUSH2 0x464D JUMPI DUP4 PUSH1 0x7F AND PUSH1 0x80 OR PUSH1 0xF8 SHL DUP3 DUP3 PUSH1 0x1 PUSH1 0x1 PUSH1 0x40 SHL SUB AND DUP2 MLOAD DUP2 LT PUSH2 0x4613 JUMPI PUSH2 0x4613 PUSH2 0x5A7F JUMP JUMPDEST PUSH1 0x20 ADD ADD SWAP1 PUSH1 0x1 PUSH1 0x1 PUSH1 0xF8 SHL SUB NOT AND SWAP1 DUP2 PUSH1 0x0 BYTE SWAP1 MSTORE8 POP PUSH1 0x7 DUP5 PUSH1 0x1 PUSH1 0x1 PUSH1 0x40 SHL SUB AND SWAP1 SHR SWAP4 POP DUP1 DUP1 PUSH2 0x4645 SWAP1 PUSH2 0x5C10 JUMP JUMPDEST SWAP2 POP POP PUSH2 0x45D4 JUMP JUMPDEST POP PUSH1 0x7F PUSH1 0xF8 SHL DUP2 PUSH2 0x465F PUSH1 0x1 DUP6 PUSH2 0x5C36 JUMP JUMPDEST PUSH1 0x1 PUSH1 0x1 PUSH1 0x40 SHL SUB AND DUP2 MLOAD DUP2 LT PUSH2 0x4678 JUMPI PUSH2 0x4678 PUSH2 0x5A7F JUMP JUMPDEST ADD PUSH1 0x20 ADD DUP1 MLOAD SWAP1 SWAP2 AND PUSH1 0x1 PUSH1 0x1 PUSH1 0xF8 SHL SUB NOT AND SWAP1 PUSH1 0x0 DUP3 SWAP1 BYTE SWAP1 MSTORE8 POP SWAP5 SWAP4 POP POP POP POP JUMP JUMPDEST PUSH1 0x0 DUP1 DUP1 PUSH1 0x0 NOT DUP6 DUP8 MULMOD DUP6 DUP8 MUL SWAP3 POP DUP3 DUP2 LT DUP4 DUP3 SUB SUB SWAP2 POP POP DUP1 PUSH1 0x0 SUB PUSH2 0x46D6 JUMPI DUP4 DUP3 DUP2 PUSH2 0x46CC JUMPI PUSH2 0x46CC PUSH2 0x571F JUMP JUMPDEST DIV SWAP3 POP POP POP PUSH2 0x122E JUMP JUMPDEST DUP4 DUP2 LT PUSH2 0x4707 JUMPI PUSH1 0x40 MLOAD PUSH4 0xC740AEF PUSH1 0xE3 SHL DUP2 MSTORE PUSH1 0x4 DUP2 ADD DUP8 SWAP1 MSTORE PUSH1 0x24 DUP2 ADD DUP7 SWAP1 MSTORE PUSH1 0x44 DUP2 ADD DUP6 SWAP1 MSTORE PUSH1 0x64 ADD PUSH2 0xB78 JUMP JUMPDEST PUSH1 0x0 DUP5 DUP7 DUP9 MULMOD PUSH1 0x2 PUSH1 0x1 DUP8 NOT DUP2 ADD DUP9 AND SWAP8 DUP9 SWAP1 DIV PUSH1 0x3 DUP2 MUL DUP4 XOR DUP1 DUP3 MUL DUP5 SUB MUL DUP1 DUP3 MUL DUP5 SUB MUL DUP1 DUP3 MUL DUP5 SUB MUL DUP1 DUP3 MUL DUP5 SUB MUL DUP1 DUP3 MUL DUP5 SUB MUL SWAP1 DUP2 MUL SWAP1 SWAP3 SUB SWAP1 SWAP2 MUL PUSH1 0x0 DUP9 SWAP1 SUB DUP9 SWAP1 DIV SWAP1 SWAP2 ADD DUP6 DUP4 GT SWAP1 SWAP5 SUB SWAP4 SWAP1 SWAP4 MUL SWAP4 SUB SWAP5 SWAP1 SWAP5 DIV SWAP2 SWAP1 SWAP2 OR MUL SWAP5 SWAP4 POP POP POP POP JUMP JUMPDEST PUSH1 0x0 DUP1 DUP1 PUSH1 0x0 NOT DUP5 DUP7 MULMOD DUP5 DUP7 MUL SWAP3 POP DUP3 DUP2 LT DUP4 DUP3 SUB SUB SWAP2 POP POP DUP1 PUSH1 0x0 SUB PUSH2 0x47A4 JUMPI POP PUSH8 0xDE0B6B3A7640000 SWAP1 DIV SWAP1 POP PUSH2 0x14F0 JUMP JUMPDEST PUSH8 0xDE0B6B3A7640000 DUP2 LT PUSH2 0x47D6 JUMPI PUSH1 0x40 MLOAD PUSH4 0x5173648D PUSH1 0xE0 SHL DUP2 MSTORE PUSH1 0x4 DUP2 ADD DUP7 SWAP1 MSTORE PUSH1 0x24 DUP2 ADD DUP6 SWAP1 MSTORE PUSH1 0x44 ADD PUSH2 0xB78 JUMP JUMPDEST PUSH1 0x0 PUSH8 0xDE0B6B3A7640000 DUP6 DUP8 MULMOD PUSH3 0x40000 DUP2 DUP6 SUB DIV SWAP4 LT SWAP1 SWAP2 SUB PUSH1 0x1 PUSH1 0xEE SHL MUL SWAP2 SWAP1 SWAP2 OR PUSH32 0xACCB18165BD6FE31AE1CF318DC5B51EEE0E1BA569B88CD74C1773B91FAC10669 MUL SWAP2 POP POP SWAP3 SWAP2 POP POP JUMP JUMPDEST PUSH1 0x1 PUSH1 0xBF SHL PUSH8 0xFF00000000000000 DUP3 AND ISZERO PUSH2 0x4933 JUMPI PUSH8 0x8000000000000000 DUP3 AND ISZERO PUSH2 0x485A JUMPI PUSH9 0x16A09E667F3BCC909 MUL PUSH1 0x40 SHR JUMPDEST PUSH8 0x4000000000000000 DUP3 AND ISZERO PUSH2 0x4879 JUMPI PUSH9 0x1306FE0A31B7152DF MUL PUSH1 0x40 SHR JUMPDEST PUSH8 0x2000000000000000 DUP3 AND ISZERO PUSH2 0x4898 JUMPI PUSH9 0x1172B83C7D517ADCE MUL PUSH1 0x40 SHR JUMPDEST PUSH8 0x1000000000000000 DUP3 AND ISZERO PUSH2 0x48B7 JUMPI PUSH9 0x10B5586CF9890F62A MUL PUSH1 0x40 SHR JUMPDEST PUSH8 0x800000000000000 DUP3 AND ISZERO PUSH2 0x48D6 JUMPI PUSH9 0x1059B0D31585743AE MUL PUSH1 0x40 SHR JUMPDEST PUSH8 0x400000000000000 DUP3 AND ISZERO PUSH2 0x48F5 JUMPI PUSH9 0x102C9A3E778060EE7 MUL PUSH1 0x40 SHR JUMPDEST PUSH8 0x200000000000000 DUP3 AND ISZERO PUSH2 0x4914 JUMPI PUSH9 0x10163DA9FB33356D8 MUL PUSH1 0x40 SHR JUMPDEST PUSH8 0x100000000000000 DUP3 AND ISZERO PUSH2 0x4933 JUMPI PUSH9 0x100B1AFA5ABCBED61 MUL PUSH1 0x40 SHR JUMPDEST PUSH7 0xFF000000000000 DUP3 AND ISZERO PUSH2 0x4A32 JUMPI PUSH7 0x80000000000000 DUP3 AND ISZERO PUSH2 0x4960 JUMPI PUSH9 0x10058C86DA1C09EA2 MUL PUSH1 0x40 SHR JUMPDEST PUSH7 0x40000000000000 DUP3 AND ISZERO PUSH2 0x497E JUMPI PUSH9 0x1002C605E2E8CEC50 MUL PUSH1 0x40 SHR JUMPDEST PUSH7 0x20000000000000 DUP3 AND ISZERO PUSH2 0x499C JUMPI PUSH9 0x100162F3904051FA1 MUL PUSH1 0x40 SHR JUMPDEST PUSH7 0x10000000000000 DUP3 AND ISZERO PUSH2 0x49BA JUMPI PUSH9 0x1000B175EFFDC76BA MUL PUSH1 0x40 SHR JUMPDEST PUSH7 0x8000000000000 DUP3 AND ISZERO PUSH2 0x49D8 JUMPI PUSH9 0x100058BA01FB9F96D MUL PUSH1 0x40 SHR JUMPDEST PUSH7 0x4000000000000 DUP3 AND ISZERO PUSH2 0x49F6 JUMPI PUSH9 0x10002C5CC37DA9492 MUL PUSH1 0x40 SHR JUMPDEST PUSH7 0x2000000000000 DUP3 AND ISZERO PUSH2 0x4A14 JUMPI PUSH9 0x1000162E525EE0547 MUL PUSH1 0x40 SHR JUMPDEST PUSH7 0x1000000000000 DUP3 AND ISZERO PUSH2 0x4A32 JUMPI PUSH9 0x10000B17255775C04 MUL PUSH1 0x40 SHR JUMPDEST PUSH6 0xFF0000000000 DUP3 AND ISZERO PUSH2 0x4B28 JUMPI PUSH6 0x800000000000 DUP3 AND ISZERO PUSH2 0x4A5D JUMPI PUSH9 0x1000058B91B5BC9AE MUL PUSH1 0x40 SHR JUMPDEST PUSH6 0x400000000000 DUP3 AND ISZERO PUSH2 0x4A7A JUMPI PUSH9 0x100002C5C89D5EC6D MUL PUSH1 0x40 SHR JUMPDEST PUSH6 0x200000000000 DUP3 AND ISZERO PUSH2 0x4A97 JUMPI PUSH9 0x10000162E43F4F831 MUL PUSH1 0x40 SHR JUMPDEST PUSH6 0x100000000000 DUP3 AND ISZERO PUSH2 0x4AB4 JUMPI PUSH9 0x100000B1721BCFC9A MUL PUSH1 0x40 SHR JUMPDEST PUSH6 0x80000000000 DUP3 AND ISZERO PUSH2 0x4AD1 JUMPI PUSH9 0x10000058B90CF1E6E MUL PUSH1 0x40 SHR JUMPDEST PUSH6 0x40000000000 DUP3 AND ISZERO PUSH2 0x4AEE JUMPI PUSH9 0x1000002C5C863B73F MUL PUSH1 0x40 SHR JUMPDEST PUSH6 0x20000000000 DUP3 AND ISZERO PUSH2 0x4B0B JUMPI PUSH9 0x100000162E430E5A2 MUL PUSH1 0x40 SHR JUMPDEST PUSH6 0x10000000000 DUP3 AND ISZERO PUSH2 0x4B28 JUMPI PUSH9 0x1000000B172183551 MUL PUSH1 0x40 SHR JUMPDEST PUSH5 0xFF00000000 DUP3 AND ISZERO PUSH2 0x4C15 JUMPI PUSH5 0x8000000000 DUP3 AND ISZERO PUSH2 0x4B51 JUMPI PUSH9 0x100000058B90C0B49 MUL PUSH1 0x40 SHR JUMPDEST PUSH5 0x4000000000 DUP3 AND ISZERO PUSH2 0x4B6D JUMPI PUSH9 0x10000002C5C8601CC MUL PUSH1 0x40 SHR JUMPDEST PUSH5 0x2000000000 DUP3 AND ISZERO PUSH2 0x4B89 JUMPI PUSH9 0x1000000162E42FFF0 MUL PUSH1 0x40 SHR JUMPDEST PUSH5 0x1000000000 DUP3 AND ISZERO PUSH2 0x4BA5 JUMPI PUSH9 0x10000000B17217FBB MUL PUSH1 0x40 SHR JUMPDEST PUSH5 0x800000000 DUP3 AND ISZERO PUSH2 0x4BC1 JUMPI PUSH9 0x1000000058B90BFCE MUL PUSH1 0x40 SHR JUMPDEST PUSH5 0x400000000 DUP3 AND ISZERO PUSH2 0x4BDD JUMPI PUSH9 0x100000002C5C85FE3 MUL PUSH1 0x40 SHR JUMPDEST PUSH5 0x200000000 DUP3 AND ISZERO PUSH2 0x4BF9 JUMPI PUSH9 0x10000000162E42FF1 MUL PUSH1 0x40 SHR JUMPDEST PUSH5 0x100000000 DUP3 AND ISZERO PUSH2 0x4C15 JUMPI PUSH9 0x100000000B17217F8 MUL PUSH1 0x40 SHR JUMPDEST PUSH4 0xFF000000 DUP3 AND ISZERO PUSH2 0x4CF9 JUMPI PUSH4 0x80000000 DUP3 AND ISZERO PUSH2 0x4C3C JUMPI PUSH9 0x10000000058B90BFC MUL PUSH1 0x40 SHR JUMPDEST PUSH4 0x40000000 DUP3 AND ISZERO PUSH2 0x4C57 JUMPI PUSH9 0x1000000002C5C85FE MUL PUSH1 0x40 SHR JUMPDEST PUSH4 0x20000000 DUP3 AND ISZERO PUSH2 0x4C72 JUMPI PUSH9 0x100000000162E42FF MUL PUSH1 0x40 SHR JUMPDEST PUSH4 0x10000000 DUP3 AND ISZERO PUSH2 0x4C8D JUMPI PUSH9 0x1000000000B17217F MUL PUSH1 0x40 SHR JUMPDEST PUSH4 0x8000000 DUP3 AND ISZERO PUSH2 0x4CA8 JUMPI PUSH9 0x100000000058B90C0 MUL PUSH1 0x40 SHR JUMPDEST PUSH4 0x4000000 DUP3 AND ISZERO PUSH2 0x4CC3 JUMPI PUSH9 0x10000000002C5C860 MUL PUSH1 0x40 SHR JUMPDEST PUSH4 0x2000000 DUP3 AND ISZERO PUSH2 0x4CDE JUMPI PUSH9 0x1000000000162E430 MUL PUSH1 0x40 SHR JUMPDEST PUSH4 0x1000000 DUP3 AND ISZERO PUSH2 0x4CF9 JUMPI PUSH9 0x10000000000B17218 MUL PUSH1 0x40 SHR JUMPDEST PUSH3 0xFF0000 DUP3 AND ISZERO PUSH2 0x4DD4 JUMPI PUSH3 0x800000 DUP3 AND ISZERO PUSH2 0x4D1E JUMPI PUSH9 0x1000000000058B90C MUL PUSH1 0x40 SHR JUMPDEST PUSH3 0x400000 DUP3 AND ISZERO PUSH2 0x4D38 JUMPI PUSH9 0x100000000002C5C86 MUL PUSH1 0x40 SHR JUMPDEST PUSH3 0x200000 DUP3 AND ISZERO PUSH2 0x4D52 JUMPI PUSH9 0x10000000000162E43 MUL PUSH1 0x40 SHR JUMPDEST PUSH3 0x100000 DUP3 AND ISZERO PUSH2 0x4D6C JUMPI PUSH9 0x100000000000B1721 MUL PUSH1 0x40 SHR JUMPDEST PUSH3 0x80000 DUP3 AND ISZERO PUSH2 0x4D86 JUMPI PUSH9 0x10000000000058B91 MUL PUSH1 0x40 SHR JUMPDEST PUSH3 0x40000 DUP3 AND ISZERO PUSH2 0x4DA0 JUMPI PUSH9 0x1000000000002C5C8 MUL PUSH1 0x40 SHR JUMPDEST PUSH3 0x20000 DUP3 AND ISZERO PUSH2 0x4DBA JUMPI PUSH9 0x100000000000162E4 MUL PUSH1 0x40 SHR JUMPDEST PUSH3 0x10000 DUP3 AND ISZERO PUSH2 0x4DD4 JUMPI PUSH9 0x1000000000000B172 MUL PUSH1 0x40 SHR JUMPDEST PUSH2 0xFF00 DUP3 AND ISZERO PUSH2 0x4EA6 JUMPI PUSH2 0x8000 DUP3 AND ISZERO PUSH2 0x4DF7 JUMPI PUSH9 0x100000000000058B9 MUL PUSH1 0x40 SHR JUMPDEST PUSH2 0x4000 DUP3 AND ISZERO PUSH2 0x4E10 JUMPI PUSH9 0x10000000000002C5D MUL PUSH1 0x40 SHR JUMPDEST PUSH2 0x2000 DUP3 AND ISZERO PUSH2 0x4E29 JUMPI PUSH9 0x1000000000000162E MUL PUSH1 0x40 SHR JUMPDEST PUSH2 0x1000 DUP3 AND ISZERO PUSH2 0x4E42 JUMPI PUSH9 0x10000000000000B17 MUL PUSH1 0x40 SHR JUMPDEST PUSH2 0x800 DUP3 AND ISZERO PUSH2 0x4E5B JUMPI PUSH9 0x1000000000000058C MUL PUSH1 0x40 SHR JUMPDEST PUSH2 0x400 DUP3 AND ISZERO PUSH2 0x4E74 JUMPI PUSH9 0x100000000000002C6 MUL PUSH1 0x40 SHR JUMPDEST PUSH2 0x200 DUP3 AND ISZERO PUSH2 0x4E8D JUMPI PUSH9 0x10000000000000163 MUL PUSH1 0x40 SHR JUMPDEST PUSH2 0x100 DUP3 AND ISZERO PUSH2 0x4EA6 JUMPI PUSH9 0x100000000000000B1 MUL PUSH1 0x40 SHR JUMPDEST PUSH1 0xFF DUP3 AND ISZERO PUSH2 0x4F6F JUMPI PUSH1 0x80 DUP3 AND ISZERO PUSH2 0x4EC7 JUMPI PUSH9 0x10000000000000059 MUL PUSH1 0x40 SHR JUMPDEST PUSH1 0x40 DUP3 AND ISZERO PUSH2 0x4EDF JUMPI PUSH9 0x1000000000000002C MUL PUSH1 0x40 SHR JUMPDEST PUSH1 0x20 DUP3 AND ISZERO PUSH2 0x4EF7 JUMPI PUSH9 0x10000000000000016 MUL PUSH1 0x40 SHR JUMPDEST PUSH1 0x10 DUP3 AND ISZERO PUSH2 0x4F0F JUMPI PUSH9 0x1000000000000000B MUL PUSH1 0x40 SHR JUMPDEST PUSH1 0x8 DUP3 AND ISZERO PUSH2 0x4F27 JUMPI PUSH9 0x10000000000000006 MUL PUSH1 0x40 SHR JUMPDEST PUSH1 0x4 DUP3 AND ISZERO PUSH2 0x4F3F JUMPI PUSH9 0x10000000000000003 MUL PUSH1 0x40 SHR JUMPDEST PUSH1 0x2 DUP3 AND ISZERO PUSH2 0x4F57 JUMPI PUSH9 0x10000000000000001 MUL PUSH1 0x40 SHR JUMPDEST PUSH1 0x1 DUP3 AND ISZERO PUSH2 0x4F6F JUMPI PUSH9 0x10000000000000001 MUL PUSH1 0x40 SHR JUMPDEST PUSH8 0xDE0B6B3A7640000 MUL PUSH1 0x40 SWAP2 SWAP1 SWAP2 SHR PUSH1 0xBF SUB SHR SWAP1 JUMP JUMPDEST PUSH1 0x0 SLOAD PUSH2 0x100 SWAP1 DIV PUSH1 0xFF AND PUSH2 0x4FAD JUMPI PUSH1 0x40 MLOAD PUSH3 0x461BCD PUSH1 0xE5 SHL DUP2 MSTORE PUSH1 0x4 ADD PUSH2 0xB78 SWAP1 PUSH2 0x5BC5 JUMP JUMPDEST PUSH2 0x237F CALLER PUSH2 0x4074 JUMP JUMPDEST POP DUP1 SLOAD PUSH2 0x4FC2 SWAP1 PUSH2 0x57CE JUMP JUMPDEST PUSH1 0x0 DUP3 SSTORE DUP1 PUSH1 0x1F LT PUSH2 0x4FD2 JUMPI POP POP JUMP JUMPDEST PUSH1 0x1F ADD PUSH1 0x20 SWAP1 DIV SWAP1 PUSH1 0x0 MSTORE PUSH1 0x20 PUSH1 0x0 KECCAK256 SWAP1 DUP2 ADD SWAP1 PUSH2 0x28F8 SWAP2 SWAP1 JUMPDEST DUP1 DUP3 GT ISZERO PUSH2 0x5000 JUMPI PUSH1 0x0 DUP2 SSTORE PUSH1 0x1 ADD PUSH2 0x4FEC JUMP JUMPDEST POP SWAP1 JUMP JUMPDEST PUSH1 0x0 PUSH1 0x20 DUP3 DUP5 SUB SLT ISZERO PUSH2 0x5016 JUMPI PUSH1 0x0 DUP1 REVERT JUMPDEST POP CALLDATALOAD SWAP2 SWAP1 POP JUMP JUMPDEST DUP1 CALLDATALOAD PUSH1 0xFF DUP2 AND DUP2 EQ PUSH2 0x11E9 JUMPI PUSH1 0x0 DUP1 REVERT JUMPDEST PUSH1 0x1 PUSH1 0x1 PUSH1 0xA0 SHL SUB DUP2 AND DUP2 EQ PUSH2 0x28F8 JUMPI PUSH1 0x0 DUP1 REVERT JUMPDEST DUP1 CALLDATALOAD PUSH2 0x11E9 DUP2 PUSH2 0x502E JUMP JUMPDEST PUSH1 0x0 DUP1 DUP4 PUSH1 0x1F DUP5 ADD SLT PUSH2 0x5060 JUMPI PUSH1 0x0 DUP1 REVERT JUMPDEST POP DUP2 CALLDATALOAD PUSH1 0x1 PUSH1 0x1 PUSH1 0x40 SHL SUB DUP2 GT ISZERO PUSH2 0x5077 JUMPI PUSH1 0x0 DUP1 REVERT JUMPDEST PUSH1 0x20 DUP4 ADD SWAP2 POP DUP4 PUSH1 0x20 DUP3 DUP6 ADD ADD GT ISZERO PUSH2 0x508F JUMPI PUSH1 0x0 DUP1 REVERT JUMPDEST SWAP3 POP SWAP3 SWAP1 POP JUMP JUMPDEST PUSH1 0x0 DUP1 PUSH1 0x0 DUP1 PUSH1 0x0 DUP1 PUSH1 0xA0 DUP8 DUP10 SUB SLT ISZERO PUSH2 0x50AF JUMPI PUSH1 0x0 DUP1 REVERT JUMPDEST PUSH2 0x50B8 DUP8 PUSH2 0x501D JUMP JUMPDEST SWAP6 POP PUSH1 0x20 DUP8 ADD CALLDATALOAD PUSH2 0x50C8 DUP2 PUSH2 0x502E JUMP JUMPDEST SWAP5 POP PUSH1 0x40 DUP8 ADD CALLDATALOAD SWAP4 POP PUSH1 0x60 DUP8 ADD CALLDATALOAD SWAP3 POP PUSH1 0x80 DUP8 ADD CALLDATALOAD PUSH1 0x1 PUSH1 0x1 PUSH1 0x40 SHL SUB DUP2 GT ISZERO PUSH2 0x50F1 JUMPI PUSH1 0x0 DUP1 REVERT JUMPDEST PUSH2 0x50FD DUP10 DUP3 DUP11 ADD PUSH2 0x504E JUMP JUMPDEST SWAP8 SWAP11 SWAP7 SWAP10 POP SWAP5 SWAP8 POP SWAP3 SWAP6 SWAP4 SWAP5 SWAP3 POP POP POP JUMP JUMPDEST PUSH4 0x4E487B71 PUSH1 0xE0 SHL PUSH1 0x0 MSTORE PUSH1 0x41 PUSH1 0x4 MSTORE PUSH1 0x24 PUSH1 0x0 REVERT JUMPDEST PUSH1 0x40 MLOAD PUSH1 0xC0 DUP2 ADD PUSH1 0x1 PUSH1 0x1 PUSH1 0x40 SHL SUB DUP2 GT DUP3 DUP3 LT OR ISZERO PUSH2 0x5147 JUMPI PUSH2 0x5147 PUSH2 0x510F JUMP JUMPDEST PUSH1 0x40 MSTORE SWAP1 JUMP JUMPDEST PUSH1 0x0 DUP3 PUSH1 0x1F DUP4 ADD SLT PUSH2 0x515E JUMPI PUSH1 0x0 DUP1 REVERT JUMPDEST DUP2 CALLDATALOAD PUSH1 0x1 PUSH1 0x1 PUSH1 0x40 SHL SUB DUP1 DUP3 GT ISZERO PUSH2 0x5178 JUMPI PUSH2 0x5178 PUSH2 0x510F JUMP JUMPDEST PUSH1 0x40 MLOAD PUSH1 0x1F DUP4 ADD PUSH1 0x1F NOT SWAP1 DUP2 AND PUSH1 0x3F ADD AND DUP2 ADD SWAP1 DUP3 DUP3 GT DUP2 DUP4 LT OR ISZERO PUSH2 0x51A0 JUMPI PUSH2 0x51A0 PUSH2 0x510F JUMP JUMPDEST DUP2 PUSH1 0x40 MSTORE DUP4 DUP2 MSTORE DUP7 PUSH1 0x20 DUP6 DUP9 ADD ADD GT ISZERO PUSH2 0x51B9 JUMPI PUSH1 0x0 DUP1 REVERT JUMPDEST DUP4 PUSH1 0x20 DUP8 ADD PUSH1 0x20 DUP4 ADD CALLDATACOPY PUSH1 0x0 PUSH1 0x20 DUP6 DUP4 ADD ADD MSTORE DUP1 SWAP5 POP POP POP POP POP SWAP3 SWAP2 POP POP JUMP JUMPDEST PUSH1 0x0 DUP1 PUSH1 0x0 PUSH1 0x60 DUP5 DUP7 SUB SLT ISZERO PUSH2 0x51EE JUMPI PUSH1 0x0 DUP1 REVERT JUMPDEST DUP4 CALLDATALOAD PUSH1 0x1 PUSH1 0x1 PUSH1 0x40 SHL SUB DUP1 DUP3 GT ISZERO PUSH2 0x5205 JUMPI PUSH1 0x0 DUP1 REVERT JUMPDEST SWAP1 DUP6 ADD SWAP1 PUSH1 0xC0 DUP3 DUP9 SUB SLT ISZERO PUSH2 0x5219 JUMPI PUSH1 0x0 DUP1 REVERT JUMPDEST PUSH2 0x5221 PUSH2 0x5125 JUMP JUMPDEST DUP3 CALLDATALOAD DUP2 MSTORE PUSH1 0x20 DUP4 ADD CALLDATALOAD PUSH1 0x20 DUP3 ADD MSTORE PUSH1 0x40 DUP4 ADD CALLDATALOAD PUSH2 0x523D DUP2 PUSH2 0x502E JUMP JUMPDEST PUSH1 0x40 DUP3 ADD MSTORE PUSH1 0x60 DUP4 ADD CALLDATALOAD DUP3 DUP2 AND DUP2 EQ PUSH2 0x5255 JUMPI PUSH1 0x0 DUP1 REVERT JUMPDEST PUSH1 0x60 DUP3 ADD MSTORE PUSH2 0x5266 PUSH1 0x80 DUP5 ADD PUSH2 0x501D JUMP JUMPDEST PUSH1 0x80 DUP3 ADD MSTORE PUSH1 0xA0 DUP4 ADD CALLDATALOAD DUP3 DUP2 GT ISZERO PUSH2 0x527D JUMPI PUSH1 0x0 DUP1 REVERT JUMPDEST PUSH2 0x5289 DUP10 DUP3 DUP7 ADD PUSH2 0x514D JUMP JUMPDEST PUSH1 0xA0 DUP4 ADD MSTORE POP SWAP5 POP PUSH2 0x52A0 SWAP2 POP POP PUSH1 0x20 DUP6 ADD PUSH2 0x5043 JUMP JUMPDEST SWAP2 POP PUSH1 0x40 DUP5 ADD CALLDATALOAD SWAP1 POP SWAP3 POP SWAP3 POP SWAP3 JUMP JUMPDEST DUP1 ISZERO ISZERO DUP2 EQ PUSH2 0x28F8 JUMPI PUSH1 0x0 DUP1 REVERT JUMPDEST PUSH1 0x0 PUSH1 0x20 DUP3 DUP5 SUB SLT ISZERO PUSH2 0x52D0 JUMPI PUSH1 0x0 DUP1 REVERT JUMPDEST DUP2 CALLDATALOAD PUSH2 0x122E DUP2 PUSH2 0x52B0 JUMP JUMPDEST PUSH1 0x0 DUP1 PUSH1 0x40 DUP4 DUP6 SUB SLT ISZERO PUSH2 0x52EE JUMPI PUSH1 0x0 DUP1 REVERT JUMPDEST DUP3 CALLDATALOAD SWAP2 POP PUSH1 0x20 DUP4 ADD CALLDATALOAD PUSH2 0x5300 DUP2 PUSH2 0x52B0 JUMP JUMPDEST DUP1 SWAP2 POP POP SWAP3 POP SWAP3 SWAP1 POP JUMP JUMPDEST PUSH1 0x0 PUSH1 0x20 DUP3 DUP5 SUB SLT ISZERO PUSH2 0x531D JUMPI PUSH1 0x0 DUP1 REVERT JUMPDEST DUP2 CALLDATALOAD PUSH2 0x122E DUP2 PUSH2 0x502E JUMP JUMPDEST PUSH1 0x0 DUP1 PUSH1 0x40 DUP4 DUP6 SUB SLT ISZERO PUSH2 0x533B JUMPI PUSH1 0x0 DUP1 REVERT JUMPDEST POP POP DUP1 CALLDATALOAD SWAP3 PUSH1 0x20 SWAP1 SWAP2 ADD CALLDATALOAD SWAP2 POP JUMP JUMPDEST PUSH1 0x0 DUP1 PUSH1 0x40 DUP4 DUP6 SUB SLT ISZERO PUSH2 0x535D JUMPI PUSH1 0x0 DUP1 REVERT JUMPDEST DUP3 CALLDATALOAD PUSH1 0x1 PUSH1 0x1 PUSH1 0x40 SHL SUB DUP1 DUP3 GT ISZERO PUSH2 0x5374 JUMPI PUSH1 0x0 DUP1 REVERT JUMPDEST SWAP1 DUP5 ADD SWAP1 PUSH1 0x80 DUP3 DUP8 SUB SLT ISZERO PUSH2 0x5388 JUMPI PUSH1 0x0 DUP1 REVERT JUMPDEST PUSH1 0x40 MLOAD PUSH1 0x80 DUP2 ADD DUP2 DUP2 LT DUP4 DUP3 GT OR ISZERO PUSH2 0x53A3 JUMPI PUSH2 0x53A3 PUSH2 0x510F JUMP JUMPDEST PUSH1 0x40 MSTORE DUP3 CALLDATALOAD DUP2 MSTORE PUSH1 0x20 DUP4 ADD CALLDATALOAD PUSH2 0x53B8 DUP2 PUSH2 0x502E JUMP JUMPDEST PUSH1 0x20 DUP3 ADD MSTORE PUSH1 0x40 DUP4 DUP2 ADD CALLDATALOAD SWAP1 DUP3 ADD MSTORE PUSH1 0x60 DUP4 ADD CALLDATALOAD DUP3 DUP2 GT ISZERO PUSH2 0x53D9 JUMPI PUSH1 0x0 DUP1 REVERT JUMPDEST PUSH2 0x53E5 DUP9 DUP3 DUP7 ADD PUSH2 0x514D JUMP JUMPDEST PUSH1 0x60 DUP4 ADD MSTORE POP SWAP4 POP PUSH2 0x53FC SWAP2 POP POP PUSH1 0x20 DUP5 ADD PUSH2 0x5043 JUMP JUMPDEST SWAP1 POP SWAP3 POP SWAP3 SWAP1 POP JUMP JUMPDEST PUSH1 0x0 DUP1 PUSH1 0x0 DUP1 PUSH1 0x60 DUP6 DUP8 SUB SLT ISZERO PUSH2 0x541B JUMPI PUSH1 0x0 DUP1 REVERT JUMPDEST DUP5 CALLDATALOAD PUSH2 0x5426 DUP2 PUSH2 0x502E JUMP JUMPDEST SWAP4 POP PUSH1 0x20 DUP6 ADD CALLDATALOAD SWAP3 POP PUSH1 0x40 DUP6 ADD CALLDATALOAD PUSH1 0x1 PUSH1 0x1 PUSH1 0x40 SHL SUB DUP2 GT ISZERO PUSH2 0x5448 JUMPI PUSH1 0x0 DUP1 REVERT JUMPDEST PUSH2 0x5454 DUP8 DUP3 DUP9 ADD PUSH2 0x504E JUMP JUMPDEST SWAP6 SWAP9 SWAP5 SWAP8 POP SWAP6 POP POP POP POP JUMP JUMPDEST PUSH1 0x0 DUP1 PUSH1 0x20 DUP4 DUP6 SUB SLT ISZERO PUSH2 0x5473 JUMPI PUSH1 0x0 DUP1 REVERT JUMPDEST DUP3 CALLDATALOAD PUSH1 0x1 PUSH1 0x1 PUSH1 0x40 SHL SUB DUP2 GT ISZERO PUSH2 0x5489 JUMPI PUSH1 0x0 DUP1 REVERT JUMPDEST PUSH2 0x5495 DUP6 DUP3 DUP7 ADD PUSH2 0x504E JUMP JUMPDEST SWAP1 SWAP7 SWAP1 SWAP6 POP SWAP4 POP POP POP POP JUMP JUMPDEST PUSH1 0x0 JUMPDEST DUP4 DUP2 LT ISZERO PUSH2 0x54BC JUMPI DUP2 DUP2 ADD MLOAD DUP4 DUP3 ADD MSTORE PUSH1 0x20 ADD PUSH2 0x54A4 JUMP JUMPDEST POP POP PUSH1 0x0 SWAP2 ADD MSTORE JUMP JUMPDEST PUSH1 0x0 DUP2 MLOAD DUP1 DUP5 MSTORE PUSH2 0x54DD DUP2 PUSH1 0x20 DUP7 ADD PUSH1 0x20 DUP7 ADD PUSH2 0x54A1 JUMP JUMPDEST PUSH1 0x1F ADD PUSH1 0x1F NOT AND SWAP3 SWAP1 SWAP3 ADD PUSH1 0x20 ADD SWAP3 SWAP2 POP POP JUMP JUMPDEST PUSH1 0x20 DUP2 MSTORE PUSH1 0x0 PUSH2 0x122E PUSH1 0x20 DUP4 ADD DUP5 PUSH2 0x54C5 JUMP JUMPDEST PUSH1 0x0 DUP1 PUSH1 0x40 DUP4 DUP6 SUB SLT ISZERO PUSH2 0x5517 JUMPI PUSH1 0x0 DUP1 REVERT JUMPDEST DUP3 CALLDATALOAD PUSH2 0x5522 DUP2 PUSH2 0x502E JUMP JUMPDEST SWAP2 POP PUSH1 0x20 DUP4 ADD CALLDATALOAD PUSH2 0x5300 DUP2 PUSH2 0x502E JUMP JUMPDEST PUSH1 0x0 DUP1 PUSH1 0x0 PUSH1 0x40 DUP5 DUP7 SUB SLT ISZERO PUSH2 0x5547 JUMPI PUSH1 0x0 DUP1 REVERT JUMPDEST DUP4 CALLDATALOAD SWAP3 POP PUSH1 0x20 DUP5 ADD CALLDATALOAD PUSH1 0x1 PUSH1 0x1 PUSH1 0x40 SHL SUB DUP2 GT ISZERO PUSH2 0x5564 JUMPI PUSH1 0x0 DUP1 REVERT JUMPDEST PUSH2 0x5570 DUP7 DUP3 DUP8 ADD PUSH2 0x504E JUMP JUMPDEST SWAP5 SWAP8 SWAP1 SWAP7 POP SWAP4 SWAP5 POP POP POP POP JUMP JUMPDEST PUSH1 0x1 PUSH1 0x1 PUSH1 0xA0 SHL SUB DUP6 AND DUP2 MSTORE PUSH1 0x1 PUSH1 0x1 PUSH1 0x40 SHL SUB DUP5 AND PUSH1 0x20 DUP3 ADD MSTORE DUP3 ISZERO ISZERO PUSH1 0x40 DUP3 ADD MSTORE PUSH1 0x80 PUSH1 0x60 DUP3 ADD DUP2 SWAP1 MSTORE PUSH1 0x0 SWAP1 PUSH2 0x55B8 SWAP1 DUP4 ADD DUP5 PUSH2 0x54C5 JUMP JUMPDEST SWAP7 SWAP6 POP POP POP POP POP POP JUMP JUMPDEST PUSH1 0x0 DUP1 PUSH1 0x40 DUP4 DUP6 SUB SLT ISZERO PUSH2 0x55D5 JUMPI PUSH1 0x0 DUP1 REVERT JUMPDEST DUP3 CALLDATALOAD SWAP2 POP PUSH1 0x20 DUP4 ADD CALLDATALOAD PUSH2 0x5300 DUP2 PUSH2 0x502E JUMP JUMPDEST PUSH1 0x0 DUP1 PUSH1 0x40 DUP4 DUP6 SUB SLT ISZERO PUSH2 0x55FA JUMPI PUSH1 0x0 DUP1 REVERT JUMPDEST DUP3 CALLDATALOAD PUSH2 0x5605 DUP2 PUSH2 0x502E JUMP JUMPDEST SWAP5 PUSH1 0x20 SWAP4 SWAP1 SWAP4 ADD CALLDATALOAD SWAP4 POP POP POP JUMP JUMPDEST PUSH1 0x0 DUP1 PUSH1 0x40 DUP4 DUP6 SUB SLT ISZERO PUSH2 0x5626 JUMPI PUSH1 0x0 DUP1 REVERT JUMPDEST DUP3 CALLDATALOAD SWAP2 POP PUSH1 0x20 DUP4 ADD CALLDATALOAD PUSH4 0xFFFFFFFF DUP2 AND DUP2 EQ PUSH2 0x5300 JUMPI PUSH1 0x0 DUP1 REVERT JUMPDEST DUP5 DUP2 MSTORE PUSH1 0x1 DUP1 PUSH1 0xA0 SHL SUB DUP5 AND PUSH1 0x20 DUP3 ADD MSTORE DUP3 PUSH1 0x40 DUP3 ADD MSTORE PUSH1 0x80 PUSH1 0x60 DUP3 ADD MSTORE PUSH1 0x0 PUSH2 0x55B8 PUSH1 0x80 DUP4 ADD DUP5 PUSH2 0x54C5 JUMP JUMPDEST DUP7 DUP2 MSTORE DUP6 PUSH1 0x20 DUP3 ADD MSTORE PUSH1 0x1 DUP1 PUSH1 0xA0 SHL SUB DUP6 AND PUSH1 0x40 DUP3 ADD MSTORE PUSH1 0x1 PUSH1 0x1 PUSH1 0x40 SHL SUB DUP5 AND PUSH1 0x60 DUP3 ADD MSTORE PUSH1 0xFF DUP4 AND PUSH1 0x80 DUP3 ADD MSTORE PUSH1 0xC0 PUSH1 0xA0 DUP3 ADD MSTORE PUSH1 0x0 PUSH2 0x56B3 PUSH1 0xC0 DUP4 ADD DUP5 PUSH2 0x54C5 JUMP JUMPDEST SWAP9 SWAP8 POP POP POP POP POP POP POP POP JUMP JUMPDEST PUSH1 0x20 DUP1 DUP3 MSTORE PUSH1 0x6 SWAP1 DUP3 ADD MSTORE PUSH6 0x1C185D5CD959 PUSH1 0xD2 SHL PUSH1 0x40 DUP3 ADD MSTORE PUSH1 0x60 ADD SWAP1 JUMP JUMPDEST PUSH4 0x4E487B71 PUSH1 0xE0 SHL PUSH1 0x0 MSTORE PUSH1 0x11 PUSH1 0x4 MSTORE PUSH1 0x24 PUSH1 0x0 REVERT JUMPDEST DUP2 DUP2 SUB DUP2 DUP2 GT ISZERO PUSH2 0x14F0 JUMPI PUSH2 0x14F0 PUSH2 0x56DF JUMP JUMPDEST DUP1 DUP3 MUL DUP2 ISZERO DUP3 DUP3 DIV DUP5 EQ OR PUSH2 0x14F0 JUMPI PUSH2 0x14F0 PUSH2 0x56DF JUMP JUMPDEST PUSH4 0x4E487B71 PUSH1 0xE0 SHL PUSH1 0x0 MSTORE PUSH1 0x12 PUSH1 0x4 MSTORE PUSH1 0x24 PUSH1 0x0 REVERT JUMPDEST PUSH1 0x0 DUP3 PUSH2 0x5752 JUMPI PUSH4 0x4E487B71 PUSH1 0xE0 SHL PUSH1 0x0 MSTORE PUSH1 0x12 PUSH1 0x4 MSTORE PUSH1 0x24 PUSH1 0x0 REVERT JUMPDEST POP DIV SWAP1 JUMP JUMPDEST PUSH1 0x1 PUSH1 0x1 PUSH1 0xA0 SHL SUB SWAP3 SWAP1 SWAP3 AND DUP3 MSTORE PUSH1 0x20 DUP3 ADD MSTORE PUSH1 0x40 ADD SWAP1 JUMP JUMPDEST PUSH1 0x0 PUSH1 0x20 DUP3 DUP5 SUB SLT ISZERO PUSH2 0x5782 JUMPI PUSH1 0x0 DUP1 REVERT JUMPDEST DUP2 MLOAD PUSH2 0x122E DUP2 PUSH2 0x52B0 JUMP JUMPDEST DUP1 DUP3 ADD DUP1 DUP3 GT ISZERO PUSH2 0x14F0 JUMPI PUSH2 0x14F0 PUSH2 0x56DF JUMP JUMPDEST PUSH1 0x20 DUP1 DUP3 MSTORE PUSH1 0x14 SWAP1 DUP3 ADD MSTORE PUSH20 0x1B5BD9195B08191BD95CC81B9BDD08195E1A5CDD PUSH1 0x62 SHL PUSH1 0x40 DUP3 ADD MSTORE PUSH1 0x60 ADD SWAP1 JUMP JUMPDEST PUSH1 0x1 DUP2 DUP2 SHR SWAP1 DUP3 AND DUP1 PUSH2 0x57E2 JUMPI PUSH1 0x7F DUP3 AND SWAP2 POP JUMPDEST PUSH1 0x20 DUP3 LT DUP2 SUB PUSH2 0x3FAE JUMPI PUSH4 0x4E487B71 PUSH1 0xE0 SHL PUSH1 0x0 MSTORE PUSH1 0x22 PUSH1 0x4 MSTORE PUSH1 0x24 PUSH1 0x0 REVERT JUMPDEST PUSH1 0x1F DUP3 GT ISZERO PUSH2 0x1984 JUMPI PUSH1 0x0 DUP2 DUP2 MSTORE PUSH1 0x20 DUP2 KECCAK256 PUSH1 0x1F DUP6 ADD PUSH1 0x5 SHR DUP2 ADD PUSH1 0x20 DUP7 LT ISZERO PUSH2 0x5829 JUMPI POP DUP1 JUMPDEST PUSH1 0x1F DUP6 ADD PUSH1 0x5 SHR DUP3 ADD SWAP2 POP JUMPDEST DUP2 DUP2 LT ISZERO PUSH2 0x4459 JUMPI DUP3 DUP2 SSTORE PUSH1 0x1 ADD PUSH2 0x5835 JUMP JUMPDEST DUP2 MLOAD PUSH1 0x1 PUSH1 0x1 PUSH1 0x40 SHL SUB DUP2 GT ISZERO PUSH2 0x5861 JUMPI PUSH2 0x5861 PUSH2 0x510F JUMP JUMPDEST PUSH2 0x5875 DUP2 PUSH2 0x586F DUP5 SLOAD PUSH2 0x57CE JUMP JUMPDEST DUP5 PUSH2 0x5802 JUMP JUMPDEST PUSH1 0x20 DUP1 PUSH1 0x1F DUP4 GT PUSH1 0x1 DUP2 EQ PUSH2 0x58AA JUMPI PUSH1 0x0 DUP5 ISZERO PUSH2 0x5892 JUMPI POP DUP6 DUP4 ADD MLOAD JUMPDEST PUSH1 0x0 NOT PUSH1 0x3 DUP7 SWAP1 SHL SHR NOT AND PUSH1 0x1 DUP6 SWAP1 SHL OR DUP6 SSTORE PUSH2 0x4459 JUMP JUMPDEST PUSH1 0x0 DUP6 DUP2 MSTORE PUSH1 0x20 DUP2 KECCAK256 PUSH1 0x1F NOT DUP7 AND SWAP2 JUMPDEST DUP3 DUP2 LT ISZERO PUSH2 0x58D9 JUMPI DUP9 DUP7 ADD MLOAD DUP3 SSTORE SWAP5 DUP5 ADD SWAP5 PUSH1 0x1 SWAP1 SWAP2 ADD SWAP1 DUP5 ADD PUSH2 0x58BA JUMP JUMPDEST POP DUP6 DUP3 LT ISZERO PUSH2 0x58F7 JUMPI DUP8 DUP6 ADD MLOAD PUSH1 0x0 NOT PUSH1 0x3 DUP9 SWAP1 SHL PUSH1 0xF8 AND SHR NOT AND DUP2 SSTORE JUMPDEST POP POP POP POP POP PUSH1 0x1 SWAP1 DUP2 SHL ADD SWAP1 SSTORE POP JUMP JUMPDEST PUSH1 0x1 DUP1 PUSH1 0xA0 SHL SUB DUP7 AND DUP2 MSTORE DUP5 PUSH1 0x20 DUP3 ADD MSTORE DUP4 PUSH1 0x40 DUP3 ADD MSTORE DUP3 PUSH1 0x60 DUP3 ADD MSTORE PUSH1 0xA0 PUSH1 0x80 DUP3 ADD MSTORE PUSH1 0x0 PUSH2 0x593A PUSH1 0xA0 DUP4 ADD DUP5 PUSH2 0x54C5 JUMP JUMPDEST SWAP8 SWAP7 POP POP POP POP POP POP POP JUMP JUMPDEST PUSH1 0x20 DUP1 DUP3 MSTORE PUSH1 0x12 SWAP1 DUP3 ADD MSTORE PUSH18 0x6D696E207374616B656420746F6F206C6F77 PUSH1 0x70 SHL PUSH1 0x40 DUP3 ADD MSTORE PUSH1 0x60 ADD SWAP1 JUMP JUMPDEST PUSH1 0x1 PUSH1 0x1 PUSH1 0xA0 SHL SUB DUP6 DUP2 AND DUP3 MSTORE DUP5 AND PUSH1 0x20 DUP3 ADD MSTORE PUSH1 0x40 DUP2 ADD DUP4 SWAP1 MSTORE PUSH1 0x80 PUSH1 0x60 DUP3 ADD DUP2 SWAP1 MSTORE PUSH1 0x0 SWAP1 PUSH2 0x55B8 SWAP1 DUP4 ADD DUP5 PUSH2 0x54C5 JUMP JUMPDEST PUSH1 0x1 PUSH1 0x1 PUSH1 0xA0 SHL SUB DUP6 AND DUP2 MSTORE PUSH1 0x20 DUP2 ADD DUP5 SWAP1 MSTORE PUSH1 0x60 PUSH1 0x40 DUP3 ADD DUP2 SWAP1 MSTORE DUP2 ADD DUP3 SWAP1 MSTORE DUP2 DUP4 PUSH1 0x80 DUP4 ADD CALLDATACOPY PUSH1 0x0 DUP2 DUP4 ADD PUSH1 0x80 SWAP1 DUP2 ADD SWAP2 SWAP1 SWAP2 MSTORE PUSH1 0x1F SWAP1 SWAP3 ADD PUSH1 0x1F NOT AND ADD ADD SWAP4 SWAP3 POP POP POP JUMP JUMPDEST PUSH1 0x0 PUSH1 0x20 DUP3 DUP5 SUB SLT ISZERO PUSH2 0x59FE JUMPI PUSH1 0x0 DUP1 REVERT JUMPDEST POP MLOAD SWAP2 SWAP1 POP JUMP JUMPDEST PUSH1 0x0 DUP1 PUSH1 0x0 PUSH1 0x60 DUP5 DUP7 SUB SLT ISZERO PUSH2 0x5A1A JUMPI PUSH1 0x0 DUP1 REVERT JUMPDEST DUP4 MLOAD SWAP3 POP PUSH1 0x20 DUP5 ADD MLOAD SWAP2 POP PUSH1 0x40 DUP5 ADD MLOAD PUSH2 0x5A33 DUP2 PUSH2 0x502E JUMP JUMPDEST DUP1 SWAP2 POP POP SWAP3 POP SWAP3 POP SWAP3 JUMP JUMPDEST PUSH4 0xFFFFFFFF DUP2 DUP2 AND DUP4 DUP3 AND ADD SWAP1 DUP1 DUP3 GT ISZERO PUSH2 0x5A5B JUMPI PUSH2 0x5A5B PUSH2 0x56DF JUMP JUMPDEST POP SWAP3 SWAP2 POP POP JUMP JUMPDEST PUSH4 0xFFFFFFFF DUP3 DUP2 AND DUP3 DUP3 AND SUB SWAP1 DUP1 DUP3 GT ISZERO PUSH2 0x5A5B JUMPI PUSH2 0x5A5B PUSH2 0x56DF JUMP JUMPDEST PUSH4 0x4E487B71 PUSH1 0xE0 SHL PUSH1 0x0 MSTORE PUSH1 0x32 PUSH1 0x4 MSTORE PUSH1 0x24 PUSH1 0x0 REVERT JUMPDEST PUSH1 0x0 PUSH1 0x1 DUP3 ADD PUSH2 0x5AA7 JUMPI PUSH2 0x5AA7 PUSH2 0x56DF JUMP JUMPDEST POP PUSH1 0x1 ADD SWAP1 JUMP JUMPDEST PUSH3 0x40109 PUSH1 0xE9 SHL DUP2 MSTORE DUP5 MLOAD PUSH1 0x0 SWAP1 PUSH2 0x5ACD DUP2 PUSH1 0x3 DUP6 ADD PUSH1 0x20 DUP11 ADD PUSH2 0x54A1 JUMP JUMPDEST DUP3 ADD DUP5 DUP7 PUSH1 0x3 DUP4 ADD CALLDATACOPY PUSH1 0x3 PUSH1 0xFB SHL PUSH1 0x3 SWAP2 DUP7 ADD SWAP2 DUP3 ADD MSTORE DUP4 MLOAD PUSH2 0x5AF7 DUP2 PUSH1 0x4 DUP5 ADD PUSH1 0x20 DUP9 ADD PUSH2 0x54A1 JUMP JUMPDEST ADD PUSH1 0x4 ADD SWAP7 SWAP6 POP POP POP POP POP POP JUMP JUMPDEST PUSH1 0x5 PUSH1 0xF9 SHL DUP2 MSTORE DUP3 MLOAD PUSH1 0x0 SWAP1 PUSH2 0x5B22 DUP2 PUSH1 0x1 DUP6 ADD PUSH1 0x20 DUP9 ADD PUSH2 0x54A1 JUMP JUMPDEST DUP4 MLOAD SWAP1 DUP4 ADD SWAP1 PUSH2 0x5B39 DUP2 PUSH1 0x1 DUP5 ADD PUSH1 0x20 DUP9 ADD PUSH2 0x54A1 JUMP JUMPDEST ADD PUSH1 0x1 ADD SWAP5 SWAP4 POP POP POP POP JUMP JUMPDEST PUSH1 0x0 DUP3 MLOAD PUSH2 0x5B57 DUP2 DUP5 PUSH1 0x20 DUP8 ADD PUSH2 0x54A1 JUMP JUMPDEST SWAP2 SWAP1 SWAP2 ADD SWAP3 SWAP2 POP POP JUMP JUMPDEST DUP2 DUP2 SUB PUSH1 0x0 DUP4 SLT DUP1 ISZERO DUP4 DUP4 SGT AND DUP4 DUP4 SLT DUP3 AND OR ISZERO PUSH2 0x5A5B JUMPI PUSH2 0x5A5B PUSH2 0x56DF JUMP JUMPDEST DUP1 DUP3 ADD DUP3 DUP2 SLT PUSH1 0x0 DUP4 SLT DUP1 ISZERO DUP3 AND DUP3 ISZERO DUP3 AND OR ISZERO PUSH2 0x5BA1 JUMPI PUSH2 0x5BA1 PUSH2 0x56DF JUMP JUMPDEST POP POP SWAP3 SWAP2 POP POP JUMP JUMPDEST PUSH1 0x0 PUSH1 0x1 PUSH1 0xFF SHL DUP3 ADD PUSH2 0x5BBE JUMPI PUSH2 0x5BBE PUSH2 0x56DF JUMP JUMPDEST POP PUSH1 0x0 SUB SWAP1 JUMP JUMPDEST PUSH1 0x20 DUP1 DUP3 MSTORE PUSH1 0x2B SWAP1 DUP3 ADD MSTORE PUSH32 0x496E697469616C697A61626C653A20636F6E7472616374206973206E6F742069 PUSH1 0x40 DUP3 ADD MSTORE PUSH11 0x6E697469616C697A696E67 PUSH1 0xA8 SHL PUSH1 0x60 DUP3 ADD MSTORE PUSH1 0x80 ADD SWAP1 JUMP JUMPDEST PUSH1 0x0 PUSH1 0x1 PUSH1 0x1 PUSH1 0x40 SHL SUB DUP1 DUP4 AND DUP2 DUP2 SUB PUSH2 0x5C2C JUMPI PUSH2 0x5C2C PUSH2 0x56DF JUMP JUMPDEST PUSH1 0x1 ADD SWAP4 SWAP3 POP POP POP JUMP JUMPDEST PUSH1 0x1 PUSH1 0x1 PUSH1 0x40 SHL SUB DUP3 DUP2 AND DUP3 DUP3 AND SUB SWAP1 DUP1 DUP3 GT ISZERO PUSH2 0x5A5B JUMPI PUSH2 0x5A5B PUSH2 0x56DF JUMP INVALID LOG2 PUSH5 0x6970667358 0x22 SLT KECCAK256 PUSH4 0x9DDB3ED8 PUSH31 0xA8A7069B759F9F33DDAD4EC134349B1753B22E4D83A1DFFC451264736F6C63 NUMBER STOP ADDMOD SGT STOP CALLER "},"methodIdentifiers":{"accruedFees()":"682c2058","baseToken()":"c55dae63","cancelValidatorWithdraw(uint256)":"cbd2422d","claimSolution(bytes32)":"77286d17","commitments(bytes32)":"839df945","contestationVoteFinish(bytes32,uint32)":"8b4d7b35","contestationVoteNays(bytes32,uint256)":"303fb0d6","contestationVoteYeas(bytes32,uint256)":"d1f0c941","contestationVoted(bytes32,address)":"d2780940","contestationVotedIndex(bytes32)":"17f3e041","contestations(bytes32)":"d33b2ef5","diffMul(uint256,uint256)":"1f88ea1c","exitValidatorMinUnlockTime()":"a53e2525","generateCommitment(address,bytes32,bytes)":"393cb1c7","generateIPFSCID(bytes)":"40e8c56d","getPsuedoTotalSupply()":"7881c5e6","getReward()":"3d18b912","getSlashAmount()":"3d57f5d9","getValidatorMinimum()":"2258d105","hashModel((uint256,address,uint256,bytes),address)":"218a3048","hashTask((bytes32,uint256,address,uint64,uint8,bytes),address,bytes32)":"1466b63a","initialize(address,address)":"485cc955","initiateValidatorWithdraw(uint256)":"0a985737","maxContestationValidatorStakeSince()":"8e6d86fd","migrateValidator(address,address)":"7b5e01d7","minClaimSolutionTime()":"92809444","minContestationVotePeriodTime()":"7b36006a","minRetractionWaitTime()":"00fd7082","models(bytes32)":"e236f46b","owner()":"8da5cb5b","paused()":"5c975abb","pauser()":"9fd0506d","pendingValidatorWithdrawRequests(address,uint256)":"d2992baa","pendingValidatorWithdrawRequestsCount(address)":"d2307ae4","prevhash()":"c17ddb2a","registerModel(address,uint256,bytes)":"4ff03efa","renounceOwnership()":"715018a6","retractTask(bytes32)":"003f9dd6","retractionFeePercentage()":"72dc0ee1","reward(uint256,uint256)":"a4fa8d57","setExitValidatorMinUnlockTime(uint256)":"c3187978","setMaxContestationValidatorStakeSince(uint256)":"aa59e7e7","setMinClaimSolutionTime(uint256)":"2f9b03e4","setMinContestationVotePeriodTime(uint256)":"b66badbf","setMinRetractionWaitTime(uint256)":"7683dbfb","setPaused(bool)":"16c38b3c","setRetractionFeePercentage(uint256)":"5b851daa","setSlashAmountPercentage(uint256)":"36f83c4f","setSolutionFeePercentage(uint256)":"1b2cf4b8","setSolutionMineableRate(bytes32,uint256)":"93f1f8ac","setTreasuryRewardPercentage(uint256)":"605cecf6","setValidatorMinimumPercentage(uint256)":"28c2d36c","setVersion(uint256)":"408def1e","signalCommitment(bytes32)":"506ea7de","signalSupport(bytes32,bool)":"49094d4d","slashAmountPercentage()":"dc06a89f","solutionFeePercentage()":"f1b8989d","solutions(bytes32)":"75c70509","startBlockTime()":"0c18d4ce","submitContestation(bytes32)":"671f8152","submitSolution(bytes32,bytes)":"56914caf","submitTask(uint8,address,bytes32,uint256,bytes)":"08745dd1","targetTs(uint256)":"cf596e45","tasks(bytes32)":"e579f500","transferOwnership(address)":"f2fde38b","transferPauser(address)":"4421ea21","transferTreasury(address)":"d8a6021c","treasury()":"61d027b3","treasuryRewardPercentage()":"c31784be","validatorCanVote(address,bytes32)":"83657795","validatorDeposit(address,uint256)":"93a090ec","validatorMinimumPercentage()":"96bb02c3","validatorWithdraw(uint256,address)":"763253bb","validatorWithdrawPendingAmount(address)":"1b75c43e","validators(address)":"fa52c7d8","version()":"54fd4d50","voteOnContestation(bytes32,bool)":"1825c20e","withdrawAccruedFees()":"ada82c7d"}},"storageLayout":{"storage":[{"astId":291,"contract":"contracts/V2_EngineV1.sol:V2_EngineV1","label":"_initialized","offset":0,"slot":"0","type":"t_uint8"},{"astId":294,"contract":"contracts/V2_EngineV1.sol:V2_EngineV1","label":"_initializing","offset":1,"slot":"0","type":"t_bool"},{"astId":833,"contract":"contracts/V2_EngineV1.sol:V2_EngineV1","label":"__gap","offset":0,"slot":"1","type":"t_array(t_uint256)50_storage"},{"astId":163,"contract":"contracts/V2_EngineV1.sol:V2_EngineV1","label":"_owner","offset":0,"slot":"51","type":"t_address"},{"astId":283,"contract":"contracts/V2_EngineV1.sol:V2_EngineV1","label":"__gap","offset":0,"slot":"52","type":"t_array(t_uint256)49_storage"},{"astId":7879,"contract":"contracts/V2_EngineV1.sol:V2_EngineV1","label":"baseToken","offset":0,"slot":"101","type":"t_contract(IBaseToken)10700"},{"astId":7881,"contract":"contracts/V2_EngineV1.sol:V2_EngineV1","label":"treasury","offset":0,"slot":"102","type":"t_address"},{"astId":7883,"contract":"contracts/V2_EngineV1.sol:V2_EngineV1","label":"pauser","offset":0,"slot":"103","type":"t_address"},{"astId":7885,"contract":"contracts/V2_EngineV1.sol:V2_EngineV1","label":"paused","offset":20,"slot":"103","type":"t_bool"},{"astId":7887,"contract":"contracts/V2_EngineV1.sol:V2_EngineV1","label":"accruedFees","offset":0,"slot":"104","type":"t_uint256"},{"astId":7889,"contract":"contracts/V2_EngineV1.sol:V2_EngineV1","label":"prevhash","offset":0,"slot":"105","type":"t_bytes32"},{"astId":7891,"contract":"contracts/V2_EngineV1.sol:V2_EngineV1","label":"startBlockTime","offset":0,"slot":"106","type":"t_uint64"},{"astId":7893,"contract":"contracts/V2_EngineV1.sol:V2_EngineV1","label":"version","offset":0,"slot":"107","type":"t_uint256"},{"astId":7895,"contract":"contracts/V2_EngineV1.sol:V2_EngineV1","label":"validatorMinimumPercentage","offset":0,"slot":"108","type":"t_uint256"},{"astId":7897,"contract":"contracts/V2_EngineV1.sol:V2_EngineV1","label":"slashAmountPercentage","offset":0,"slot":"109","type":"t_uint256"},{"astId":7899,"contract":"contracts/V2_EngineV1.sol:V2_EngineV1","label":"solutionFeePercentage","offset":0,"slot":"110","type":"t_uint256"},{"astId":7901,"contract":"contracts/V2_EngineV1.sol:V2_EngineV1","label":"retractionFeePercentage","offset":0,"slot":"111","type":"t_uint256"},{"astId":7903,"contract":"contracts/V2_EngineV1.sol:V2_EngineV1","label":"treasuryRewardPercentage","offset":0,"slot":"112","type":"t_uint256"},{"astId":7905,"contract":"contracts/V2_EngineV1.sol:V2_EngineV1","label":"minClaimSolutionTime","offset":0,"slot":"113","type":"t_uint256"},{"astId":7907,"contract":"contracts/V2_EngineV1.sol:V2_EngineV1","label":"minRetractionWaitTime","offset":0,"slot":"114","type":"t_uint256"},{"astId":7909,"contract":"contracts/V2_EngineV1.sol:V2_EngineV1","label":"minContestationVotePeriodTime","offset":0,"slot":"115","type":"t_uint256"},{"astId":7911,"contract":"contracts/V2_EngineV1.sol:V2_EngineV1","label":"maxContestationValidatorStakeSince","offset":0,"slot":"116","type":"t_uint256"},{"astId":7913,"contract":"contracts/V2_EngineV1.sol:V2_EngineV1","label":"exitValidatorMinUnlockTime","offset":0,"slot":"117","type":"t_uint256"},{"astId":7918,"contract":"contracts/V2_EngineV1.sol:V2_EngineV1","label":"models","offset":0,"slot":"118","type":"t_mapping(t_bytes32,t_struct(Model)7831_storage)"},{"astId":7923,"contract":"contracts/V2_EngineV1.sol:V2_EngineV1","label":"validators","offset":0,"slot":"119","type":"t_mapping(t_address,t_struct(Validator)7838_storage)"},{"astId":7927,"contract":"contracts/V2_EngineV1.sol:V2_EngineV1","label":"pendingValidatorWithdrawRequestsCount","offset":0,"slot":"120","type":"t_mapping(t_address,t_uint256)"},{"astId":7934,"contract":"contracts/V2_EngineV1.sol:V2_EngineV1","label":"pendingValidatorWithdrawRequests","offset":0,"slot":"121","type":"t_mapping(t_address,t_mapping(t_uint256,t_struct(PendingValidatorWithdrawRequest)7843_storage))"},{"astId":7938,"contract":"contracts/V2_EngineV1.sol:V2_EngineV1","label":"validatorWithdrawPendingAmount","offset":0,"slot":"122","type":"t_mapping(t_address,t_uint256)"},{"astId":7943,"contract":"contracts/V2_EngineV1.sol:V2_EngineV1","label":"tasks","offset":0,"slot":"123","type":"t_mapping(t_bytes32,t_struct(Task)7856_storage)"},{"astId":7947,"contract":"contracts/V2_EngineV1.sol:V2_EngineV1","label":"commitments","offset":0,"slot":"124","type":"t_mapping(t_bytes32,t_uint256)"},{"astId":7952,"contract":"contracts/V2_EngineV1.sol:V2_EngineV1","label":"solutions","offset":0,"slot":"125","type":"t_mapping(t_bytes32,t_struct(Solution)7865_storage)"},{"astId":7957,"contract":"contracts/V2_EngineV1.sol:V2_EngineV1","label":"contestations","offset":0,"slot":"126","type":"t_mapping(t_bytes32,t_struct(Contestation)7874_storage)"},{"astId":7963,"contract":"contracts/V2_EngineV1.sol:V2_EngineV1","label":"contestationVoted","offset":0,"slot":"127","type":"t_mapping(t_bytes32,t_mapping(t_address,t_bool))"},{"astId":7967,"contract":"contracts/V2_EngineV1.sol:V2_EngineV1","label":"contestationVotedIndex","offset":0,"slot":"128","type":"t_mapping(t_bytes32,t_uint256)"},{"astId":7972,"contract":"contracts/V2_EngineV1.sol:V2_EngineV1","label":"contestationVoteYeas","offset":0,"slot":"129","type":"t_mapping(t_bytes32,t_array(t_address)dyn_storage)"},{"astId":7977,"contract":"contracts/V2_EngineV1.sol:V2_EngineV1","label":"contestationVoteNays","offset":0,"slot":"130","type":"t_mapping(t_bytes32,t_array(t_address)dyn_storage)"},{"astId":7981,"contract":"contracts/V2_EngineV1.sol:V2_EngineV1","label":"__gap","offset":0,"slot":"131","type":"t_array(t_uint256)48_storage"}],"types":{"t_address":{"encoding":"inplace","label":"address","numberOfBytes":"20"},"t_array(t_address)dyn_storage":{"base":"t_address","encoding":"dynamic_array","label":"address[]","numberOfBytes":"32"},"t_array(t_uint256)48_storage":{"base":"t_uint256","encoding":"inplace","label":"uint256[48]","numberOfBytes":"1536"},"t_array(t_uint256)49_storage":{"base":"t_uint256","encoding":"inplace","label":"uint256[49]","numberOfBytes":"1568"},"t_array(t_uint256)50_storage":{"base":"t_uint256","encoding":"inplace","label":"uint256[50]","numberOfBytes":"1600"},"t_bool":{"encoding":"inplace","label":"bool","numberOfBytes":"1"},"t_bytes32":{"encoding":"inplace","label":"bytes32","numberOfBytes":"32"},"t_bytes_storage":{"encoding":"bytes","label":"bytes","numberOfBytes":"32"},"t_contract(IBaseToken)10700":{"encoding":"inplace","label":"contract IBaseToken","numberOfBytes":"20"},"t_mapping(t_address,t_bool)":{"encoding":"mapping","key":"t_address","label":"mapping(address => bool)","numberOfBytes":"32","value":"t_bool"},"t_mapping(t_address,t_mapping(t_uint256,t_struct(PendingValidatorWithdrawRequest)7843_storage))":{"encoding":"mapping","key":"t_address","label":"mapping(address => mapping(uint256 => struct PendingValidatorWithdrawRequest))","numberOfBytes":"32","value":"t_mapping(t_uint256,t_struct(PendingValidatorWithdrawRequest)7843_storage)"},"t_mapping(t_address,t_struct(Validator)7838_storage)":{"encoding":"mapping","key":"t_address","label":"mapping(address => struct Validator)","numberOfBytes":"32","value":"t_struct(Validator)7838_storage"},"t_mapping(t_address,t_uint256)":{"encoding":"mapping","key":"t_address","label":"mapping(address => uint256)","numberOfBytes":"32","value":"t_uint256"},"t_mapping(t_bytes32,t_array(t_address)dyn_storage)":{"encoding":"mapping","key":"t_bytes32","label":"mapping(bytes32 => address[])","numberOfBytes":"32","value":"t_array(t_address)dyn_storage"},"t_mapping(t_bytes32,t_mapping(t_address,t_bool))":{"encoding":"mapping","key":"t_bytes32","label":"mapping(bytes32 => mapping(address => bool))","numberOfBytes":"32","value":"t_mapping(t_address,t_bool)"},"t_mapping(t_bytes32,t_struct(Contestation)7874_storage)":{"encoding":"mapping","key":"t_bytes32","label":"mapping(bytes32 => struct Contestation)","numberOfBytes":"32","value":"t_struct(Contestation)7874_storage"},"t_mapping(t_bytes32,t_struct(Model)7831_storage)":{"encoding":"mapping","key":"t_bytes32","label":"mapping(bytes32 => struct Model)","numberOfBytes":"32","value":"t_struct(Model)7831_storage"},"t_mapping(t_bytes32,t_struct(Solution)7865_storage)":{"encoding":"mapping","key":"t_bytes32","label":"mapping(bytes32 => struct Solution)","numberOfBytes":"32","value":"t_struct(Solution)7865_storage"},"t_mapping(t_bytes32,t_struct(Task)7856_storage)":{"encoding":"mapping","key":"t_bytes32","label":"mapping(bytes32 => struct Task)","numberOfBytes":"32","value":"t_struct(Task)7856_storage"},"t_mapping(t_bytes32,t_uint256)":{"encoding":"mapping","key":"t_bytes32","label":"mapping(bytes32 => uint256)","numberOfBytes":"32","value":"t_uint256"},"t_mapping(t_uint256,t_struct(PendingValidatorWithdrawRequest)7843_storage)":{"encoding":"mapping","key":"t_uint256","label":"mapping(uint256 => struct PendingValidatorWithdrawRequest)","numberOfBytes":"32","value":"t_struct(PendingValidatorWithdrawRequest)7843_storage"},"t_struct(Contestation)7874_storage":{"encoding":"inplace","label":"struct Contestation","members":[{"astId":7867,"contract":"contracts/V2_EngineV1.sol:V2_EngineV1","label":"validator","offset":0,"slot":"0","type":"t_address"},{"astId":7869,"contract":"contracts/V2_EngineV1.sol:V2_EngineV1","label":"blocktime","offset":20,"slot":"0","type":"t_uint64"},{"astId":7871,"contract":"contracts/V2_EngineV1.sol:V2_EngineV1","label":"finish_start_index","offset":28,"slot":"0","type":"t_uint32"},{"astId":7873,"contract":"contracts/V2_EngineV1.sol:V2_EngineV1","label":"slashAmount","offset":0,"slot":"1","type":"t_uint256"}],"numberOfBytes":"64"},"t_struct(Model)7831_storage":{"encoding":"inplace","label":"struct Model","members":[{"astId":7824,"contract":"contracts/V2_EngineV1.sol:V2_EngineV1","label":"fee","offset":0,"slot":"0","type":"t_uint256"},{"astId":7826,"contract":"contracts/V2_EngineV1.sol:V2_EngineV1","label":"addr","offset":0,"slot":"1","type":"t_address"},{"astId":7828,"contract":"contracts/V2_EngineV1.sol:V2_EngineV1","label":"rate","offset":0,"slot":"2","type":"t_uint256"},{"astId":7830,"contract":"contracts/V2_EngineV1.sol:V2_EngineV1","label":"cid","offset":0,"slot":"3","type":"t_bytes_storage"}],"numberOfBytes":"128"},"t_struct(PendingValidatorWithdrawRequest)7843_storage":{"encoding":"inplace","label":"struct PendingValidatorWithdrawRequest","members":[{"astId":7840,"contract":"contracts/V2_EngineV1.sol:V2_EngineV1","label":"unlockTime","offset":0,"slot":"0","type":"t_uint256"},{"astId":7842,"contract":"contracts/V2_EngineV1.sol:V2_EngineV1","label":"amount","offset":0,"slot":"1","type":"t_uint256"}],"numberOfBytes":"64"},"t_struct(Solution)7865_storage":{"encoding":"inplace","label":"struct Solution","members":[{"astId":7858,"contract":"contracts/V2_EngineV1.sol:V2_EngineV1","label":"validator","offset":0,"slot":"0","type":"t_address"},{"astId":7860,"contract":"contracts/V2_EngineV1.sol:V2_EngineV1","label":"blocktime","offset":20,"slot":"0","type":"t_uint64"},{"astId":7862,"contract":"contracts/V2_EngineV1.sol:V2_EngineV1","label":"claimed","offset":28,"slot":"0","type":"t_bool"},{"astId":7864,"contract":"contracts/V2_EngineV1.sol:V2_EngineV1","label":"cid","offset":0,"slot":"1","type":"t_bytes_storage"}],"numberOfBytes":"64"},"t_struct(Task)7856_storage":{"encoding":"inplace","label":"struct Task","members":[{"astId":7845,"contract":"contracts/V2_EngineV1.sol:V2_EngineV1","label":"model","offset":0,"slot":"0","type":"t_bytes32"},{"astId":7847,"contract":"contracts/V2_EngineV1.sol:V2_EngineV1","label":"fee","offset":0,"slot":"1","type":"t_uint256"},{"astId":7849,"contract":"contracts/V2_EngineV1.sol:V2_EngineV1","label":"owner","offset":0,"slot":"2","type":"t_address"},{"astId":7851,"contract":"contracts/V2_EngineV1.sol:V2_EngineV1","label":"blocktime","offset":20,"slot":"2","type":"t_uint64"},{"astId":7853,"contract":"contracts/V2_EngineV1.sol:V2_EngineV1","label":"version","offset":28,"slot":"2","type":"t_uint8"},{"astId":7855,"contract":"contracts/V2_EngineV1.sol:V2_EngineV1","label":"cid","offset":0,"slot":"3","type":"t_bytes_storage"}],"numberOfBytes":"128"},"t_struct(Validator)7838_storage":{"encoding":"inplace","label":"struct Validator","members":[{"astId":7833,"contract":"contracts/V2_EngineV1.sol:V2_EngineV1","label":"staked","offset":0,"slot":"0","type":"t_uint256"},{"astId":7835,"contract":"contracts/V2_EngineV1.sol:V2_EngineV1","label":"since","offset":0,"slot":"1","type":"t_uint256"},{"astId":7837,"contract":"contracts/V2_EngineV1.sol:V2_EngineV1","label":"addr","offset":0,"slot":"2","type":"t_address"}],"numberOfBytes":"96"},"t_uint256":{"encoding":"inplace","label":"uint256","numberOfBytes":"32"},"t_uint32":{"encoding":"inplace","label":"uint32","numberOfBytes":"4"},"t_uint64":{"encoding":"inplace","label":"uint64","numberOfBytes":"8"},"t_uint8":{"encoding":"inplace","label":"uint8","numberOfBytes":"1"}}}}}}