{
  "_format": "hh-sol-artifact-1",
  "contractName": "LookupContestationValidator",
  "sourceName": "contracts/Example/LookupContestationValidator.sol",
  "abi": [
    {
      "inputs": [
        {
          "internalType": "contract IArbius",
          "name": "_arbius",
          "type": "address"
        }
      ],
      "stateMutability": "nonpayable",
      "type": "constructor"
    },
    {
      "inputs": [
        {
          "internalType": "bytes32",
          "name": "taskid",
          "type": "bytes32"
        }
      ],
      "name": "lookupContestationValidator",
      "outputs": [
        {
          "internalType": "address",
          "name": "",
          "type": "address"
        }
      ],
      "stateMutability": "view",
      "type": "function"
    }
  ],
  "bytecode": "0x608060405234801561001057600080fd5b5060405161026738038061026783398101604081905261002f91610054565b600080546001600160a01b0319166001600160a01b0392909216919091179055610084565b60006020828403121561006657600080fd5b81516001600160a01b038116811461007d57600080fd5b9392505050565b6101d4806100936000396000f3fe608060405234801561001057600080fd5b506004361061002b5760003560e01c8063337d62a214610030575b600080fd5b61004361003e3660046100d5565b61005f565b6040516001600160a01b03909116815260200160405180910390f35b6000805460405163d33b2ef560e01b81526004810184905282916001600160a01b03169063d33b2ef590602401606060405180830381865afa1580156100a9573d6000803e3d6000fd5b505050506040513d601f19601f820116820180604052508101906100cd9190610107565b519392505050565b6000602082840312156100e757600080fd5b5035919050565b805163ffffffff8116811461010257600080fd5b919050565b60006060828403121561011957600080fd5b6040516060810167ffffffffffffffff828210818311171561014b57634e487b7160e01b600052604160045260246000fd5b6040919091528351906001600160a01b038216821461016957600080fd5b908252602084015190808216821461018057600080fd5b506020820152610192604084016100ee565b6040820152939250505056fea26469706673582212205c4eca60943372618276891b7ba411237de76026f70082b924f4c03741cc949d64736f6c63430008130033",
  "linkReferences": {},
  "deployedLinkReferences": {}
}