{
  "_format": "hh-sol-artifact-1",
  "contractName": "SubmitContestation",
  "sourceName": "contracts/Example/SubmitContestation.sol",
  "abi": [
    {
      "inputs": [
        {
          "internalType": "contract IArbius",
          "name": "_arbius",
          "type": "address"
        }
      ],
      "stateMutability": "nonpayable",
      "type": "constructor"
    },
    {
      "inputs": [
        {
          "internalType": "bytes32",
          "name": "_taskid",
          "type": "bytes32"
        }
      ],
      "name": "submitContestation",
      "outputs": [],
      "stateMutability": "nonpayable",
      "type": "function"
    }
  ],
  "bytecode": "0x608060405234801561001057600080fd5b5060405161017d38038061017d83398101604081905261002f91610054565b600080546001600160a01b0319166001600160a01b0392909216919091179055610084565b60006020828403121561006657600080fd5b81516001600160a01b038116811461007d57600080fd5b9392505050565b60eb806100926000396000f3fe6080604052348015600f57600080fd5b506004361060285760003560e01c8063671f815214602d575b600080fd5b603c6038366004609d565b603e565b005b60005460405163338fc0a960e11b8152600481018390526001600160a01b039091169063671f815290602401600060405180830381600087803b158015608357600080fd5b505af11580156096573d6000803e3d6000fd5b5050505050565b60006020828403121560ae57600080fd5b503591905056fea26469706673582212205ad43764c599989c474fa571b6556de7ce4b1222ba7978fa8c6e0de1b806d01c64736f6c63430008130033",
  "linkReferences": {},
  "deployedLinkReferences": {}
}