{
  "_format": "hh-sol-artifact-1",
  "contractName": "RetractTask",
  "sourceName": "contracts/Example/RetractTask.sol",
  "abi": [
    {
      "inputs": [
        {
          "internalType": "contract IArbius",
          "name": "_arbius",
          "type": "address"
        }
      ],
      "stateMutability": "nonpayable",
      "type": "constructor"
    },
    {
      "inputs": [
        {
          "internalType": "bytes32",
          "name": "_taskid",
          "type": "bytes32"
        }
      ],
      "name": "retractTask",
      "outputs": [],
      "stateMutability": "nonpayable",
      "type": "function"
    }
  ],
  "bytecode": "0x608060405234801561001057600080fd5b5060405161017a38038061017a83398101604081905261002f91610054565b600080546001600160a01b0319166001600160a01b0392909216919091179055610084565b60006020828403121561006657600080fd5b81516001600160a01b038116811461007d57600080fd5b9392505050565b60e8806100926000396000f3fe6080604052348015600f57600080fd5b506004361060275760003560e01c80623f9dd614602c575b600080fd5b603b6037366004609a565b603d565b005b600054604051621fceeb60e11b8152600481018390526001600160a01b0390911690623f9dd690602401600060405180830381600087803b158015608057600080fd5b505af11580156093573d6000803e3d6000fd5b5050505050565b60006020828403121560ab57600080fd5b503591905056fea2646970667358221220d49ce26546bfc43ef6c07e87252bb2535a52ea17cbb5d7ef84a4bd19f51b54b164736f6c63430008130033",
  "linkReferences": {},
  "deployedLinkReferences": {}
}