{
  "_format": "hh-sol-artifact-1",
  "contractName": "VotingEscrow",
  "sourceName": "contracts/VotingEscrow.sol",
  "abi": [
    {
      "inputs": [
        {
          "internalType": "address",
          "name": "token_addr",
          "type": "address"
        },
        {
          "internalType": "address",
          "name": "art_proxy",
          "type": "address"
        },
        {
          "internalType": "address",
          "name": "_veStaking",
          "type": "address"
        }
      ],
      "stateMutability": "nonpayable",
      "type": "constructor"
    },
    {
      "anonymous": false,
      "inputs": [
        {
          "indexed": true,
          "internalType": "address",
          "name": "owner",
          "type": "address"
        },
        {
          "indexed": true,
          "internalType": "address",
          "name": "approved",
          "type": "address"
        },
        {
          "indexed": true,
          "internalType": "uint256",
          "name": "tokenId",
          "type": "uint256"
        }
      ],
      "name": "Approval",
      "type": "event"
    },
    {
      "anonymous": false,
      "inputs": [
        {
          "indexed": true,
          "internalType": "address",
          "name": "owner",
          "type": "address"
        },
        {
          "indexed": true,
          "internalType": "address",
          "name": "operator",
          "type": "address"
        },
        {
          "indexed": false,
          "internalType": "bool",
          "name": "approved",
          "type": "bool"
        }
      ],
      "name": "ApprovalForAll",
      "type": "event"
    },
    {
      "anonymous": false,
      "inputs": [
        {
          "indexed": true,
          "internalType": "address",
          "name": "delegator",
          "type": "address"
        },
        {
          "indexed": true,
          "internalType": "address",
          "name": "fromDelegate",
          "type": "address"
        },
        {
          "indexed": true,
          "internalType": "address",
          "name": "toDelegate",
          "type": "address"
        }
      ],
      "name": "DelegateChanged",
      "type": "event"
    },
    {
      "anonymous": false,
      "inputs": [
        {
          "indexed": true,
          "internalType": "address",
          "name": "delegate",
          "type": "address"
        },
        {
          "indexed": false,
          "internalType": "uint256",
          "name": "previousBalance",
          "type": "uint256"
        },
        {
          "indexed": false,
          "internalType": "uint256",
          "name": "newBalance",
          "type": "uint256"
        }
      ],
      "name": "DelegateVotesChanged",
      "type": "event"
    },
    {
      "anonymous": false,
      "inputs": [
        {
          "indexed": true,
          "internalType": "address",
          "name": "provider",
          "type": "address"
        },
        {
          "indexed": false,
          "internalType": "uint256",
          "name": "tokenId",
          "type": "uint256"
        },
        {
          "indexed": false,
          "internalType": "uint256",
          "name": "value",
          "type": "uint256"
        },
        {
          "indexed": true,
          "internalType": "uint256",
          "name": "locktime",
          "type": "uint256"
        },
        {
          "indexed": false,
          "internalType": "enum VotingEscrow.DepositType",
          "name": "deposit_type",
          "type": "uint8"
        },
        {
          "indexed": false,
          "internalType": "uint256",
          "name": "ts",
          "type": "uint256"
        }
      ],
      "name": "Deposit",
      "type": "event"
    },
    {
      "anonymous": false,
      "inputs": [
        {
          "indexed": false,
          "internalType": "uint256",
          "name": "prevSupply",
          "type": "uint256"
        },
        {
          "indexed": false,
          "internalType": "uint256",
          "name": "supply",
          "type": "uint256"
        }
      ],
      "name": "Supply",
      "type": "event"
    },
    {
      "anonymous": false,
      "inputs": [
        {
          "indexed": true,
          "internalType": "address",
          "name": "from",
          "type": "address"
        },
        {
          "indexed": true,
          "internalType": "address",
          "name": "to",
          "type": "address"
        },
        {
          "indexed": true,
          "internalType": "uint256",
          "name": "tokenId",
          "type": "uint256"
        }
      ],
      "name": "Transfer",
      "type": "event"
    },
    {
      "anonymous": false,
      "inputs": [
        {
          "indexed": true,
          "internalType": "address",
          "name": "provider",
          "type": "address"
        },
        {
          "indexed": false,
          "internalType": "uint256",
          "name": "tokenId",
          "type": "uint256"
        },
        {
          "indexed": false,
          "internalType": "uint256",
          "name": "value",
          "type": "uint256"
        },
        {
          "indexed": false,
          "internalType": "uint256",
          "name": "ts",
          "type": "uint256"
        }
      ],
      "name": "Withdraw",
      "type": "event"
    },
    {
      "inputs": [],
      "name": "DELEGATION_TYPEHASH",
      "outputs": [
        {
          "internalType": "bytes32",
          "name": "",
          "type": "bytes32"
        }
      ],
      "stateMutability": "view",
      "type": "function"
    },
    {
      "inputs": [],
      "name": "DOMAIN_TYPEHASH",
      "outputs": [
        {
          "internalType": "bytes32",
          "name": "",
          "type": "bytes32"
        }
      ],
      "stateMutability": "view",
      "type": "function"
    },
    {
      "inputs": [],
      "name": "MAX_DELEGATES",
      "outputs": [
        {
          "internalType": "uint256",
          "name": "",
          "type": "uint256"
        }
      ],
      "stateMutability": "view",
      "type": "function"
    },
    {
      "inputs": [
        {
          "internalType": "uint256",
          "name": "_tokenId",
          "type": "uint256"
        }
      ],
      "name": "abstain",
      "outputs": [],
      "stateMutability": "nonpayable",
      "type": "function"
    },
    {
      "inputs": [
        {
          "internalType": "address",
          "name": "_approved",
          "type": "address"
        },
        {
          "internalType": "uint256",
          "name": "_tokenId",
          "type": "uint256"
        }
      ],
      "name": "approve",
      "outputs": [],
      "stateMutability": "nonpayable",
      "type": "function"
    },
    {
      "inputs": [],
      "name": "artProxy",
      "outputs": [
        {
          "internalType": "address",
          "name": "",
          "type": "address"
        }
      ],
      "stateMutability": "view",
      "type": "function"
    },
    {
      "inputs": [
        {
          "internalType": "address",
          "name": "_owner",
          "type": "address"
        }
      ],
      "name": "balanceOf",
      "outputs": [
        {
          "internalType": "uint256",
          "name": "",
          "type": "uint256"
        }
      ],
      "stateMutability": "view",
      "type": "function"
    },
    {
      "inputs": [
        {
          "internalType": "uint256",
          "name": "_tokenId",
          "type": "uint256"
        },
        {
          "internalType": "uint256",
          "name": "_block",
          "type": "uint256"
        }
      ],
      "name": "balanceOfAtNFT",
      "outputs": [
        {
          "internalType": "uint256",
          "name": "",
          "type": "uint256"
        }
      ],
      "stateMutability": "view",
      "type": "function"
    },
    {
      "inputs": [
        {
          "internalType": "uint256",
          "name": "_tokenId",
          "type": "uint256"
        }
      ],
      "name": "balanceOfNFT",
      "outputs": [
        {
          "internalType": "uint256",
          "name": "",
          "type": "uint256"
        }
      ],
      "stateMutability": "view",
      "type": "function"
    },
    {
      "inputs": [
        {
          "internalType": "uint256",
          "name": "_tokenId",
          "type": "uint256"
        },
        {
          "internalType": "uint256",
          "name": "_t",
          "type": "uint256"
        }
      ],
      "name": "balanceOfNFTAt",
      "outputs": [
        {
          "internalType": "uint256",
          "name": "",
          "type": "uint256"
        }
      ],
      "stateMutability": "view",
      "type": "function"
    },
    {
      "inputs": [],
      "name": "block_number",
      "outputs": [
        {
          "internalType": "uint256",
          "name": "",
          "type": "uint256"
        }
      ],
      "stateMutability": "view",
      "type": "function"
    },
    {
      "inputs": [],
      "name": "checkpoint",
      "outputs": [],
      "stateMutability": "nonpayable",
      "type": "function"
    },
    {
      "inputs": [
        {
          "internalType": "address",
          "name": "",
          "type": "address"
        },
        {
          "internalType": "uint32",
          "name": "",
          "type": "uint32"
        }
      ],
      "name": "checkpoints",
      "outputs": [
        {
          "internalType": "uint256",
          "name": "timestamp",
          "type": "uint256"
        }
      ],
      "stateMutability": "view",
      "type": "function"
    },
    {
      "inputs": [
        {
          "internalType": "uint256",
          "name": "_value",
          "type": "uint256"
        },
        {
          "internalType": "uint256",
          "name": "_lock_duration",
          "type": "uint256"
        }
      ],
      "name": "create_lock",
      "outputs": [
        {
          "internalType": "uint256",
          "name": "",
          "type": "uint256"
        }
      ],
      "stateMutability": "nonpayable",
      "type": "function"
    },
    {
      "inputs": [
        {
          "internalType": "uint256",
          "name": "_value",
          "type": "uint256"
        },
        {
          "internalType": "uint256",
          "name": "_lock_duration",
          "type": "uint256"
        },
        {
          "internalType": "address",
          "name": "_to",
          "type": "address"
        }
      ],
      "name": "create_lock_for",
      "outputs": [
        {
          "internalType": "uint256",
          "name": "",
          "type": "uint256"
        }
      ],
      "stateMutability": "nonpayable",
      "type": "function"
    },
    {
      "inputs": [],
      "name": "decimals",
      "outputs": [
        {
          "internalType": "uint8",
          "name": "",
          "type": "uint8"
        }
      ],
      "stateMutability": "view",
      "type": "function"
    },
    {
      "inputs": [
        {
          "internalType": "address",
          "name": "delegatee",
          "type": "address"
        }
      ],
      "name": "delegate",
      "outputs": [],
      "stateMutability": "nonpayable",
      "type": "function"
    },
    {
      "inputs": [
        {
          "internalType": "address",
          "name": "delegatee",
          "type": "address"
        },
        {
          "internalType": "uint256",
          "name": "nonce",
          "type": "uint256"
        },
        {
          "internalType": "uint256",
          "name": "expiry",
          "type": "uint256"
        },
        {
          "internalType": "uint8",
          "name": "v",
          "type": "uint8"
        },
        {
          "internalType": "bytes32",
          "name": "r",
          "type": "bytes32"
        },
        {
          "internalType": "bytes32",
          "name": "s",
          "type": "bytes32"
        }
      ],
      "name": "delegateBySig",
      "outputs": [],
      "stateMutability": "nonpayable",
      "type": "function"
    },
    {
      "inputs": [
        {
          "internalType": "address",
          "name": "delegator",
          "type": "address"
        }
      ],
      "name": "delegates",
      "outputs": [
        {
          "internalType": "address",
          "name": "",
          "type": "address"
        }
      ],
      "stateMutability": "view",
      "type": "function"
    },
    {
      "inputs": [
        {
          "internalType": "uint256",
          "name": "_tokenId",
          "type": "uint256"
        },
        {
          "internalType": "uint256",
          "name": "_value",
          "type": "uint256"
        }
      ],
      "name": "deposit_for",
      "outputs": [],
      "stateMutability": "nonpayable",
      "type": "function"
    },
    {
      "inputs": [],
      "name": "epoch",
      "outputs": [
        {
          "internalType": "uint256",
          "name": "",
          "type": "uint256"
        }
      ],
      "stateMutability": "view",
      "type": "function"
    },
    {
      "inputs": [
        {
          "internalType": "uint256",
          "name": "_tokenId",
          "type": "uint256"
        }
      ],
      "name": "getApproved",
      "outputs": [
        {
          "internalType": "address",
          "name": "",
          "type": "address"
        }
      ],
      "stateMutability": "view",
      "type": "function"
    },
    {
      "inputs": [
        {
          "internalType": "uint256",
          "name": "timestamp",
          "type": "uint256"
        }
      ],
      "name": "getPastTotalSupply",
      "outputs": [
        {
          "internalType": "uint256",
          "name": "",
          "type": "uint256"
        }
      ],
      "stateMutability": "view",
      "type": "function"
    },
    {
      "inputs": [
        {
          "internalType": "address",
          "name": "account",
          "type": "address"
        },
        {
          "internalType": "uint256",
          "name": "timestamp",
          "type": "uint256"
        }
      ],
      "name": "getPastVotes",
      "outputs": [
        {
          "internalType": "uint256",
          "name": "",
          "type": "uint256"
        }
      ],
      "stateMutability": "view",
      "type": "function"
    },
    {
      "inputs": [
        {
          "internalType": "address",
          "name": "account",
          "type": "address"
        },
        {
          "internalType": "uint256",
          "name": "timestamp",
          "type": "uint256"
        }
      ],
      "name": "getPastVotesIndex",
      "outputs": [
        {
          "internalType": "uint32",
          "name": "",
          "type": "uint32"
        }
      ],
      "stateMutability": "view",
      "type": "function"
    },
    {
      "inputs": [
        {
          "internalType": "address",
          "name": "account",
          "type": "address"
        }
      ],
      "name": "getVotes",
      "outputs": [
        {
          "internalType": "uint256",
          "name": "",
          "type": "uint256"
        }
      ],
      "stateMutability": "view",
      "type": "function"
    },
    {
      "inputs": [
        {
          "internalType": "uint256",
          "name": "_tokenId",
          "type": "uint256"
        }
      ],
      "name": "get_last_user_slope",
      "outputs": [
        {
          "internalType": "int128",
          "name": "",
          "type": "int128"
        }
      ],
      "stateMutability": "view",
      "type": "function"
    },
    {
      "inputs": [
        {
          "internalType": "uint256",
          "name": "_tokenId",
          "type": "uint256"
        },
        {
          "internalType": "uint256",
          "name": "_value",
          "type": "uint256"
        }
      ],
      "name": "increase_amount",
      "outputs": [],
      "stateMutability": "nonpayable",
      "type": "function"
    },
    {
      "inputs": [
        {
          "internalType": "uint256",
          "name": "_tokenId",
          "type": "uint256"
        },
        {
          "internalType": "uint256",
          "name": "_lock_duration",
          "type": "uint256"
        }
      ],
      "name": "increase_unlock_time",
      "outputs": [],
      "stateMutability": "nonpayable",
      "type": "function"
    },
    {
      "inputs": [
        {
          "internalType": "address",
          "name": "_owner",
          "type": "address"
        },
        {
          "internalType": "address",
          "name": "_operator",
          "type": "address"
        }
      ],
      "name": "isApprovedForAll",
      "outputs": [
        {
          "internalType": "bool",
          "name": "",
          "type": "bool"
        }
      ],
      "stateMutability": "view",
      "type": "function"
    },
    {
      "inputs": [
        {
          "internalType": "address",
          "name": "_spender",
          "type": "address"
        },
        {
          "internalType": "uint256",
          "name": "_tokenId",
          "type": "uint256"
        }
      ],
      "name": "isApprovedOrOwner",
      "outputs": [
        {
          "internalType": "bool",
          "name": "",
          "type": "bool"
        }
      ],
      "stateMutability": "view",
      "type": "function"
    },
    {
      "inputs": [
        {
          "internalType": "uint256",
          "name": "",
          "type": "uint256"
        }
      ],
      "name": "locked",
      "outputs": [
        {
          "internalType": "int128",
          "name": "amount",
          "type": "int128"
        },
        {
          "internalType": "uint256",
          "name": "end",
          "type": "uint256"
        }
      ],
      "stateMutability": "view",
      "type": "function"
    },
    {
      "inputs": [
        {
          "internalType": "uint256",
          "name": "_tokenId",
          "type": "uint256"
        }
      ],
      "name": "locked__end",
      "outputs": [
        {
          "internalType": "uint256",
          "name": "",
          "type": "uint256"
        }
      ],
      "stateMutability": "view",
      "type": "function"
    },
    {
      "inputs": [
        {
          "internalType": "uint256",
          "name": "_from",
          "type": "uint256"
        },
        {
          "internalType": "uint256",
          "name": "_to",
          "type": "uint256"
        }
      ],
      "name": "merge",
      "outputs": [],
      "stateMutability": "nonpayable",
      "type": "function"
    },
    {
      "inputs": [],
      "name": "name",
      "outputs": [
        {
          "internalType": "string",
          "name": "",
          "type": "string"
        }
      ],
      "stateMutability": "view",
      "type": "function"
    },
    {
      "inputs": [
        {
          "internalType": "address",
          "name": "",
          "type": "address"
        }
      ],
      "name": "nonces",
      "outputs": [
        {
          "internalType": "uint256",
          "name": "",
          "type": "uint256"
        }
      ],
      "stateMutability": "view",
      "type": "function"
    },
    {
      "inputs": [
        {
          "internalType": "address",
          "name": "",
          "type": "address"
        }
      ],
      "name": "numCheckpoints",
      "outputs": [
        {
          "internalType": "uint32",
          "name": "",
          "type": "uint32"
        }
      ],
      "stateMutability": "view",
      "type": "function"
    },
    {
      "inputs": [
        {
          "internalType": "uint256",
          "name": "_tokenId",
          "type": "uint256"
        }
      ],
      "name": "ownerOf",
      "outputs": [
        {
          "internalType": "address",
          "name": "",
          "type": "address"
        }
      ],
      "stateMutability": "view",
      "type": "function"
    },
    {
      "inputs": [
        {
          "internalType": "uint256",
          "name": "",
          "type": "uint256"
        }
      ],
      "name": "ownership_change",
      "outputs": [
        {
          "internalType": "uint256",
          "name": "",
          "type": "uint256"
        }
      ],
      "stateMutability": "view",
      "type": "function"
    },
    {
      "inputs": [
        {
          "internalType": "uint256",
          "name": "",
          "type": "uint256"
        }
      ],
      "name": "point_history",
      "outputs": [
        {
          "internalType": "int128",
          "name": "bias",
          "type": "int128"
        },
        {
          "internalType": "int128",
          "name": "slope",
          "type": "int128"
        },
        {
          "internalType": "uint256",
          "name": "ts",
          "type": "uint256"
        },
        {
          "internalType": "uint256",
          "name": "blk",
          "type": "uint256"
        }
      ],
      "stateMutability": "view",
      "type": "function"
    },
    {
      "inputs": [
        {
          "internalType": "address",
          "name": "_from",
          "type": "address"
        },
        {
          "internalType": "address",
          "name": "_to",
          "type": "address"
        },
        {
          "internalType": "uint256",
          "name": "_tokenId",
          "type": "uint256"
        }
      ],
      "name": "safeTransferFrom",
      "outputs": [],
      "stateMutability": "nonpayable",
      "type": "function"
    },
    {
      "inputs": [
        {
          "internalType": "address",
          "name": "_from",
          "type": "address"
        },
        {
          "internalType": "address",
          "name": "_to",
          "type": "address"
        },
        {
          "internalType": "uint256",
          "name": "_tokenId",
          "type": "uint256"
        },
        {
          "internalType": "bytes",
          "name": "_data",
          "type": "bytes"
        }
      ],
      "name": "safeTransferFrom",
      "outputs": [],
      "stateMutability": "nonpayable",
      "type": "function"
    },
    {
      "inputs": [
        {
          "internalType": "address",
          "name": "_operator",
          "type": "address"
        },
        {
          "internalType": "bool",
          "name": "_approved",
          "type": "bool"
        }
      ],
      "name": "setApprovalForAll",
      "outputs": [],
      "stateMutability": "nonpayable",
      "type": "function"
    },
    {
      "inputs": [
        {
          "internalType": "address",
          "name": "_proxy",
          "type": "address"
        }
      ],
      "name": "setArtProxy",
      "outputs": [],
      "stateMutability": "nonpayable",
      "type": "function"
    },
    {
      "inputs": [
        {
          "internalType": "address",
          "name": "_team",
          "type": "address"
        }
      ],
      "name": "setTeam",
      "outputs": [],
      "stateMutability": "nonpayable",
      "type": "function"
    },
    {
      "inputs": [
        {
          "internalType": "address",
          "name": "_veStaking",
          "type": "address"
        }
      ],
      "name": "setVeStaking",
      "outputs": [],
      "stateMutability": "nonpayable",
      "type": "function"
    },
    {
      "inputs": [
        {
          "internalType": "address",
          "name": "_voter",
          "type": "address"
        }
      ],
      "name": "setVoter",
      "outputs": [],
      "stateMutability": "nonpayable",
      "type": "function"
    },
    {
      "inputs": [
        {
          "internalType": "uint256",
          "name": "",
          "type": "uint256"
        }
      ],
      "name": "slope_changes",
      "outputs": [
        {
          "internalType": "int128",
          "name": "",
          "type": "int128"
        }
      ],
      "stateMutability": "view",
      "type": "function"
    },
    {
      "inputs": [],
      "name": "supply",
      "outputs": [
        {
          "internalType": "uint256",
          "name": "",
          "type": "uint256"
        }
      ],
      "stateMutability": "view",
      "type": "function"
    },
    {
      "inputs": [
        {
          "internalType": "bytes4",
          "name": "_interfaceID",
          "type": "bytes4"
        }
      ],
      "name": "supportsInterface",
      "outputs": [
        {
          "internalType": "bool",
          "name": "",
          "type": "bool"
        }
      ],
      "stateMutability": "view",
      "type": "function"
    },
    {
      "inputs": [],
      "name": "symbol",
      "outputs": [
        {
          "internalType": "string",
          "name": "",
          "type": "string"
        }
      ],
      "stateMutability": "view",
      "type": "function"
    },
    {
      "inputs": [],
      "name": "team",
      "outputs": [
        {
          "internalType": "address",
          "name": "",
          "type": "address"
        }
      ],
      "stateMutability": "view",
      "type": "function"
    },
    {
      "inputs": [],
      "name": "token",
      "outputs": [
        {
          "internalType": "address",
          "name": "",
          "type": "address"
        }
      ],
      "stateMutability": "view",
      "type": "function"
    },
    {
      "inputs": [
        {
          "internalType": "address",
          "name": "_owner",
          "type": "address"
        },
        {
          "internalType": "uint256",
          "name": "_tokenIndex",
          "type": "uint256"
        }
      ],
      "name": "tokenOfOwnerByIndex",
      "outputs": [
        {
          "internalType": "uint256",
          "name": "",
          "type": "uint256"
        }
      ],
      "stateMutability": "view",
      "type": "function"
    },
    {
      "inputs": [
        {
          "internalType": "uint256",
          "name": "_tokenId",
          "type": "uint256"
        }
      ],
      "name": "tokenURI",
      "outputs": [
        {
          "internalType": "string",
          "name": "",
          "type": "string"
        }
      ],
      "stateMutability": "view",
      "type": "function"
    },
    {
      "inputs": [],
      "name": "totalSupply",
      "outputs": [
        {
          "internalType": "uint256",
          "name": "",
          "type": "uint256"
        }
      ],
      "stateMutability": "view",
      "type": "function"
    },
    {
      "inputs": [
        {
          "internalType": "uint256",
          "name": "_block",
          "type": "uint256"
        }
      ],
      "name": "totalSupplyAt",
      "outputs": [
        {
          "internalType": "uint256",
          "name": "",
          "type": "uint256"
        }
      ],
      "stateMutability": "view",
      "type": "function"
    },
    {
      "inputs": [
        {
          "internalType": "uint256",
          "name": "t",
          "type": "uint256"
        }
      ],
      "name": "totalSupplyAtT",
      "outputs": [
        {
          "internalType": "uint256",
          "name": "",
          "type": "uint256"
        }
      ],
      "stateMutability": "view",
      "type": "function"
    },
    {
      "inputs": [
        {
          "internalType": "address",
          "name": "_from",
          "type": "address"
        },
        {
          "internalType": "address",
          "name": "_to",
          "type": "address"
        },
        {
          "internalType": "uint256",
          "name": "_tokenId",
          "type": "uint256"
        }
      ],
      "name": "transferFrom",
      "outputs": [],
      "stateMutability": "nonpayable",
      "type": "function"
    },
    {
      "inputs": [
        {
          "internalType": "uint256",
          "name": "",
          "type": "uint256"
        }
      ],
      "name": "user_point_epoch",
      "outputs": [
        {
          "internalType": "uint256",
          "name": "",
          "type": "uint256"
        }
      ],
      "stateMutability": "view",
      "type": "function"
    },
    {
      "inputs": [
        {
          "internalType": "uint256",
          "name": "",
          "type": "uint256"
        },
        {
          "internalType": "uint256",
          "name": "",
          "type": "uint256"
        }
      ],
      "name": "user_point_history",
      "outputs": [
        {
          "internalType": "int128",
          "name": "bias",
          "type": "int128"
        },
        {
          "internalType": "int128",
          "name": "slope",
          "type": "int128"
        },
        {
          "internalType": "uint256",
          "name": "ts",
          "type": "uint256"
        },
        {
          "internalType": "uint256",
          "name": "blk",
          "type": "uint256"
        }
      ],
      "stateMutability": "view",
      "type": "function"
    },
    {
      "inputs": [
        {
          "internalType": "uint256",
          "name": "_tokenId",
          "type": "uint256"
        },
        {
          "internalType": "uint256",
          "name": "_idx",
          "type": "uint256"
        }
      ],
      "name": "user_point_history__ts",
      "outputs": [
        {
          "internalType": "uint256",
          "name": "",
          "type": "uint256"
        }
      ],
      "stateMutability": "view",
      "type": "function"
    },
    {
      "inputs": [],
      "name": "veStaking",
      "outputs": [
        {
          "internalType": "address",
          "name": "",
          "type": "address"
        }
      ],
      "stateMutability": "view",
      "type": "function"
    },
    {
      "inputs": [],
      "name": "version",
      "outputs": [
        {
          "internalType": "string",
          "name": "",
          "type": "string"
        }
      ],
      "stateMutability": "view",
      "type": "function"
    },
    {
      "inputs": [
        {
          "internalType": "uint256",
          "name": "",
          "type": "uint256"
        }
      ],
      "name": "voted",
      "outputs": [
        {
          "internalType": "bool",
          "name": "",
          "type": "bool"
        }
      ],
      "stateMutability": "view",
      "type": "function"
    },
    {
      "inputs": [],
      "name": "voter",
      "outputs": [
        {
          "internalType": "address",
          "name": "",
          "type": "address"
        }
      ],
      "stateMutability": "view",
      "type": "function"
    },
    {
      "inputs": [
        {
          "internalType": "uint256",
          "name": "_tokenId",
          "type": "uint256"
        }
      ],
      "name": "voting",
      "outputs": [],
      "stateMutability": "nonpayable",
      "type": "function"
    },
    {
      "inputs": [
        {
          "internalType": "uint256",
          "name": "_tokenId",
          "type": "uint256"
        }
      ],
      "name": "withdraw",
      "outputs": [],
      "stateMutability": "nonpayable",
      "type": "function"
    }
  ],
  "bytecode": "0x60a0346200017e57601f6200521f38819003918201601f1916830191906001600160401b03831184841017620001835781606092859260409586528339810103126200017e57620000508262000199565b6200006b82620000636020860162000199565b940162000199565b9260019060ff19928284600754161760075560805260018060a01b0319906000953383885416178755338385541617845560018060a01b0380921683600254161760025516906003541617600355838052600460205282842043600282015581429101556301ffc9a760e01b8452600560205282842081838254161790556380ac58cd60e01b84528284208183825416179055635b5e139f60e01b8452828420918254161790556006549051917fddf252ad1be2c89b69c2b068fc378daa952ba7f163c4a11628f55a4df523b3ef823083838180a430908280a46150709081620001af8239608051818181610c0301528181612226015281816133310152818161370a015281816138b80152613a650152f35b600080fd5b634e487b7160e01b600052604160045260246000fd5b51906001600160a01b03821682036200017e5756fe6080604052600436101561001257600080fd5b60003560e01c806301ffc9a71461044d578063047fc9aa1461044857806306fdde03146103805780630758c7d814610443578063081812fc1461043e578063095cf5c614610439578063095ea7b3146104345780631376f3da1461042f57806318160ddd1461042a5780631c984bc31461042557806320606b701461042057806323b872dd1461041b57806325a58b56146104165780632943a490146104115780632e1a7d4d1461040c5780632e720f7d146104075780632f745c5914610402578063313ce567146103fd5780633a46b1a8146103f857806342842e0e146103f3578063430c2081146103ee578063461f711c146103e957806346c96aac146103e45780634bc2a657146103df57806354fd4d50146103da5780635594a045146103d5578063587cde1e146103d05780635c19a95c146103cb5780635f5b0c32146103c65780636352211e146103c157806365fc3873146103bc5780636f548837146103b75780636fcfff45146103b257806370a08231146103ad5780637116c60c1461038f57806371197484146103a85780637ecebe00146103a357806382b5077f1461039e57806385f2aef2146103995780638c2c9baf146103945780638e539e8c1461038f5780638fbb38ff1461038a578063900cf0cf1461038557806395d89b4114610380578063981b24d01461037b5780639ab24eb014610376578063a183af5214610371578063a22cb4651461036c578063a4d855df14610367578063b45a3c0e14610362578063b88d4fde1461035d578063c1f0fb9f14610358578063c2c4c5c114610353578063c3cda5201461034e578063c87b56dd14610349578063d1c2babb14610344578063d1febfb91461033f578063d4e54c3b1461033a578063e0514aba14610335578063e441135c14610330578063e7a324dc1461032b578063e7e242d414610326578063e985e9c514610321578063ee99fe281461031c578063f1127ed814610317578063f8a0576314610312578063fc0c546a1461030d5763fd4a77f11461030857600080fd5b612255565b612210565b6121e1565b612184565b6120f0565b612093565b612075565b61203a565b61200e565b611fed565b611f81565b611f20565b611d47565b611c35565b611a48565b6117a4565b611764565b6116db565b6116a3565b6115cc565b611528565b611472565b61144f565b611301565b610613565b6112e3565b6112b2565b6111b8565b611291565b611268565b61123f565b611205565b6111d6565b61117e565b61113e565b611112565b6110c2565b61108e565b611071565b611037565b611002565b610fd9565b610fbd565b610f53565b610f2a565b610ee5565b610eb4565b610e7a565b610dcb565b610daf565b610d67565b610d20565b610a27565b6109e0565b6109c5565b6109aa565b61093a565b6108ff565b6108db565b61086d565b61071f565b6106dc565b6106a8565b610673565b6104b7565b610469565b6001600160e01b031981160361046457565b600080fd5b346104645760203660031901126104645760043561048681610452565b63ffffffff60e01b166000526005602052602060ff604060002054166040519015158152f35b600091031261046457565b34610464576000366003190112610464576020601454604051908152f35b634e487b7160e01b600052604160045260246000fd5b67ffffffffffffffff81116104ff57604052565b6104d5565b6040810190811067ffffffffffffffff8211176104ff57604052565b6080810190811067ffffffffffffffff8211176104ff57604052565b90601f8019910116810190811067ffffffffffffffff8211176104ff57604052565b6040519061056b82610504565b565b6040519061056b82610520565b67ffffffffffffffff81116104ff57601f01601f191660200190565b604051906105a382610504565b60058252641d9953919560da1b6020830152565b60005b8381106105ca5750506000910152565b81810151838201526020016105ba565b906020916105f3815180928185528580860191016105b7565b601f01601f1916010190565b9060206106109281815201906105da565b90565b346104645760003660031901126104645761064361062f610596565b6040519182916020835260208301906105da565b0390f35b600435906001600160a01b038216820361046457565b602435906001600160a01b038216820361046457565b3461046457604036600319011261046457602061069a610691610647565b6024359061462a565b63ffffffff60405191168152f35b3461046457602036600319011261046457600435600052600a602052602060018060a01b0360406000205416604051908152f35b34610464576020366003190112610464576106f5610647565b600154906001600160a01b03908183163303610464576001600160a01b0319909216911617600155005b3461046457604036600319011261046457610738610647565b6024356000818152600860205260408120549092906001600160a01b039081169081156108375780831692828414610833576107d161080492610785876000526008602052604060002090565b5416331460ff6107c2336107ab8860018060a01b0316600052600b602052604060002090565b9060018060a01b0316600052602052604060002090565b5416811561082b575b50612295565b6107e585600052600a602052604060002090565b80546001600160a01b0319166001600160a01b03909216919091179055565b7f8c5be1e5ebec7d5bd14f71427d1e84f3dd0314c0f7b2291e5b200ac8c7c3b9258480a480f35b9050386107cb565b8580fd5b8480fd5b634e487b7160e01b600052603260045260246000fd5b90633b9aca00811015610868576003020190600090565b61083b565b34610464576040366003190112610464576024356004356000526010602052604060002090633b9aca00811015610464576108a791610851565b508054600182015460029092015460408051600f84810b8252608094851d900b602082015290810193909352606083015290f35b346104645760003660031901126104645760206108f7426144fe565b604051908152f35b346104645760403660031901126104645760043560005260106020526020600161092f6024356040600020610851565b500154604051908152f35b346104645760003660031901126104645760206040517f8cad95687ba82c2ce50e74f7b754645e5117c3a5bec8151c0726d5857980a8668152f35b6060906003190112610464576001600160a01b0390600435828116810361046457916024359081168103610464579060443590565b34610464576109c36109bb36610975565b903392612430565b005b34610464576000366003190112610464576020604051438152f35b34610464576020366003190112610464576109f9610647565b6001546001600160a01b0391908216330361046457166001600160601b0360a01b6003541617600355600080f35b34610464576020806003193601126104645760043590600754600160ff8216036104645760ff1916600217600755610a67610a628333612391565b612374565b610a94610a8f610a8b610a84856000526015602052604060002090565b5460ff1690565b1590565b6123fc565b610ab0610aab836000526011602052604060002090565b6122e8565b610abf82820151421015613f2b565b610ad3610acd8251600f0b90565b600f0b90565b92610adc61055e565b93610b046000958681528686820152610aff846000526011602052604060002090565b613172565b610b3460145493610b1d610b1884876127fa565b601455565b610b2561055e565b90878252878783015284612b30565b600354610b5790610b4b906001600160a01b031681565b6001600160a01b031690565b803b156108335760405163ac6a2b5d60e01b8152600481018490529086908290602490829084905af18015610cef57610d0d575b50600354610ba390610b4b906001600160a01b031681565b803b1561083357604051631c4b774b60e01b8152600481018490529086908290602490829084905af18015610cef57610cf4575b5060405163a9059cbb60e01b815233600482015260248101829052918483604481896001600160a01b037f0000000000000000000000000000000000000000000000000000000000000000165af1948515610cef5760008051602061501b83398151915295610c9c94610c52928992610cc2575b5050612374565b610c5b81613f70565b6040805191825260208201839052429082015233907f02f25270a4d87bea75db541cdfe559334a275b4a233520ed6c0a2429667cca9490606090a2826127fa565b60408051928352602083019190915290a1610cbf600160ff196007541617600755565b80f35b610ce19250803d10610ce8575b610cd9818361053c565b8101906131a4565b3880610c4b565b503d610ccf565b612368565b80610d01610d07926104eb565b806104ac565b38610bd7565b80610d01610d1a926104eb565b38610b8b565b3461046457602036600319011261046457610d39610647565b6001546001600160a01b0391908216330361046457166001600160601b0360a01b6002541617600255600080f35b34610464576040366003190112610464576001600160a01b03610d88610647565b16600052600d60205260406000206024356000526020526020604060002054604051908152f35b3461046457600036600319011261046457602060405160128152f35b3461046457604036600319011261046457610de4610647565b6001610e2160243592610df7848261462a565b90838060a01b0316600052601760205260406000209063ffffffff16600052602052604060002090565b01805460009283925b828510610e3c57604051848152602090f35b909192610e5983610e4d878561456f565b90549060031b1c6140c6565b8101809111610e7557610e6c9094612a29565b93929190610e2a565b612701565b3461046457610e8836610975565b60405191602083019383851067ffffffffffffffff8611176104ff576109c39460405260008452612590565b34610464576040366003190112610464576020610edb610ed2610647565b60243590612391565b6040519015158152f35b3461046457602036600319011261046457600435600052600f6020526020610f1a604060002054601083526040600020610851565b505460801d60405190600f0b8152f35b34610464576000366003190112610464576000546040516001600160a01b039091168152602090f35b3461046457602036600319011261046457610f6c610647565b6000805490916001600160a01b03908183163303610f985716906001600160601b0360a01b1617815580f35b8380fd5b60405190610fa982610504565b60058252640312e302e360dc1b6020830152565b346104645760003660031901126104645761064361062f610f9c565b34610464576000366003190112610464576002546040516001600160a01b039091168152602090f35b34610464576020366003190112610464576020611025611020610647565b61451f565b6040516001600160a01b039091168152f35b3461046457602036600319011261046457611050610647565b6001600160a01b0381161561106a575b6109c39033614bc7565b5033611060565b346104645760003660031901126104645760206040516104008152f35b34610464576020366003190112610464576004356000526008602052602060018060a01b0360406000205416604051908152f35b3461046457604036600319011261046457600754600160ff8216036104645760ff19908116600217600755602090600161110133602435600435613b58565b916007541617600755604051908152f35b3461046457602036600319011261046457600435600052600c6020526020604060002054604051908152f35b34610464576020366003190112610464576001600160a01b0361115f610647565b166000526018602052602063ffffffff60406000205416604051908152f35b34610464576020366003190112610464576001600160a01b0361119f610647565b1660005260096020526020604060002054604051908152f35b346104645760203660031901126104645760206108f76004356144fe565b346104645760203660031901126104645760043560005260136020526020604060002054600f0b604051908152f35b34610464576020366003190112610464576001600160a01b03611226610647565b1660005260196020526020604060002054604051908152f35b34610464576000366003190112610464576003546040516001600160a01b039091168152602090f35b34610464576000366003190112610464576001546040516001600160a01b039091168152602090f35b346104645760403660031901126104645760206108f7602435600435614198565b34610464576020366003190112610464576004356000526015602052602060ff604060002054166040519015158152f35b34610464576000366003190112610464576020601254604051908152f35b34610464576020366003190112610464576106436113a960043561132743821115612374565b6113a3601254611337818461436c565b9261135461134f856000526004602052604060002090565b61298f565b936000928110156114035761134f61136e61137e92612717565b6000526004602052604060002090565b606085019081516060820193845182036113b9575b50505050505b6040830151612746565b906143ef565b6040519081529081906020820190565b6113f99550916113e360406113d56113e9946113f397966127fa565b92015160408a0151906127fa565b906129f6565b92519051906127fa565b90612a09565b3880808080611393565b50606084019081519043820361141c575b505050611399565b61144793506114316113f39261143f926127fa565b6113e36040880151426127fa565b9151436127fa565b388080611414565b346104645760203660031901126104645760206108f761146d610647565b614587565b346104645760403660031901126104645760075460043560243560001960ff84160161046457600261150c9360ff1916176007556114b3610a628333612391565b8160005260116020526040600020916115076001604051946114d486610504565b8054600f0b86520154602085019081526114ef841515612374565b6114ff60008651600f0b136130bc565b514210613101565b6131b9565b6109c3600160ff196007541617600755565b8015150361046457565b3461046457604036600319011261046457611541610647565b60243561154d8161151e565b6001600160a01b0382169161158d9061156833851415612374565b33600052600b60205260406000209060018060a01b0316600052602052604060002090565b9015159060ff1981541660ff83161790556040519081527f17307eab39ab6107e8899845ad3d59bd9653f200f220920489ca2b5937696c3160203392a3005b346104645760403660031901126104645760075460043560001960ff83160161046457600261150c9260ff19161760075561160a610a628233612391565b80600052601160205260406000209060016040519261162884610504565b8054600f0b84520154906020830191825261168a61165c61165761164e60243542612746565b62093a80900490565b6129c6565b9261166942825111613e64565b61168260006116798751600f0b90565b600f0b13613e9f565b518311613edf565b61169e61169642612725565b831115613b0c565b6133f7565b3461046457602036600319011261046457600435600052601160205260408060002060018154600f0b91015482519182526020820152f35b34610464576080366003190112610464576116f4610647565b6116fc61065d565b6064359167ffffffffffffffff83116104645736602384011215610464578260040135916117298361057a565b92611737604051948561053c565b80845236602482870101116104645760208160009260246109c39801838801378501015260443591612590565b3461046457602036600319011261046457600080546001600160a01b031633036117a1576004358152601560205260408120805460ff1916905580f35b80fd5b34610464576000806003193601126117a157604051906117c382610504565b8082528060208093015280826040516117db81610504565b82815201526117e8612953565b506117f1612953565b50601254916117fe61056d565b90828252828183015242604083015260609143838201529184611a29575b604083019182519285928442116119fe575b96939061184262093a8083959495046129c6565b9787985b60ff8a10611866575b88610cbf896118618a61136e81601255565b612aa3565b6118708991612736565b93888783964281116000146119bd5750610acd966118ce6118c76118e4946118c26118ba6118dd966118b4429e8f925b86019b6118ae8d51600f0b90565b936127fa565b90612978565b9151600f0b90565b612a38565b600f0b8d52565b8351600f0b612a7d565b612a7d565b600f0b8252565b816118f3610acd8b51600f0b90565b126119b5575b81611908610acd8351600f0b90565b126119ad575b505082948383526119528289019761194b89516119456119376119318a806127fa565b8b6129f6565b670de0b6b3a7640000900490565b90612746565b8952612717565b994285036119795750505050505050610cbf9293611861914390529084933880808061184f565b6119a1919293949596975061199c896118618d6000526004602052604060002090565b612a29565b98959291909493611846565b52873861190e565b8189526118f9565b96506118dd906118ce6118c76118e4946118c26118ba8c6118b4610acd6119f86119f1846000526013602052604060002090565b54600f0b90565b986118a0565b9250611a23611a18611a1385880151436127fa565b6129de565b6113f38351426127fa565b9261182e565b9150611a4261134f856000526004602052604060002090565b9161181c565b346104645760c036600319011261046457611a61610647565b606435906044359060243560ff8416840361046457611a7e610596565b611bc7611af0611b8e611b9a8451602080960120611a9a610f9c565b805190870120604080517f8cad95687ba82c2ce50e74f7b754645e5117c3a5bec8151c0726d5857980a866818a0190815260208101949094529083019190915246606083015230608083015293849060a0830190565b0393611b04601f199586810183528261053c565b519020604080517fe48329057bfd03d55e49b547132e39cffd9c1820ad7b9d4c5307691425d15adf8882019081526001600160a01b038b166020820152918201899052606082018b9052919491611b6581608084010384810183528261053c565b5190206040519384918883019687909160429261190160f01b8352600283015260228201520190565b0390810183528261053c565b5190206040805191825260ff90971660208201526084359681019690965260a43560608701526080860190565b856000968792838052039060015afa15610cef57611c30610cbf93611c28865193611bfb60018060a01b0386161515614ed5565b6001600160a01b038516600090815260196020526040902090815491611c2083612a29565b905514614f38565b421115614f97565b614bc7565b34610464576020366003190112610464576004356000818152600860205260409020611c7e906001600160a01b0390611c76905b546001600160a01b031690565b16151561229c565b6000611c97610aab836000526011602052604060002090565b600254611cae90610b4b906001600160a01b031681565b611cb842856140c6565b611ccb610acd60208501519451600f0b90565b94611d036040519687958694859463dd9ec14960e01b8652600486019094939260609260808301968352602083015260408201520152565b03915afa8015610cef5761064391600091611d26575b50604051918291826105ff565b611d41913d8091833e611d39818361053c565b810190612309565b38611d19565b3461046457604036600319011261046457600435602435611d7b610a8f610a8b610a84856000526015602052604060002090565b611d8781831415612295565b611d99611d948333612391565b612295565b611da6611d948233612391565b611dbd610aab836000526011602052604060002090565b91611dd5610aab836000526011602052604060002090565b91611de4610acd8551600f0b90565b906020850151602085015180821015600014611f185750925b600354611e1490610b4b906001600160a01b031681565b803b156104645760405163ac6a2b5d60e01b815260048101839052906000908290602490829084905af18015610cef57611f05575b50600354611e6190610b4b906001600160a01b031681565b90813b1561046457604051631c4b774b60e01b815260048101829052916000908390602490829084905af18015610cef576109c397611eed93611ee892611ef2575b50611ece611eaf61055e565b6000815260006020820152610aff856000526011602052604060002090565b611ed661055e565b90600082526000602083015283612b30565b613f70565b6135b8565b80610d01611eff926104eb565b38611ea3565b80610d01611f12926104eb565b38611e49565b905092611dfd565b3461046457602036600319011261046457600435600052600460205260406000208054610643600260018401549301546040519383859460801d90600f0b85909493926060926080830196600f0b8352600f0b602083015260408201520152565b34610464576060366003190112610464576044356001600160a01b038116810361046457600754600160ff821603610464576001611fd361064393600260ff1980951617600755602435600435613b58565b916007541617600755604051918291829190602083019252565b346104645760403660031901126104645760206108f76024356004356140c6565b3461046457602036600319011261046457600435600052600f6020526020604060002054604051908152f35b346104645760003660031901126104645760206040517fe48329057bfd03d55e49b547132e39cffd9c1820ad7b9d4c5307691425d15adf8152f35b346104645760203660031901126104645760206108f7600435614172565b3461046457604036600319011261046457602060ff6120e46120b3610647565b6120bb61065d565b6001600160a01b039182166000908152600b865260408082209290931681526020919091522090565b54166040519015158152f35b3461046457604036600319011261046457600435602435600754600160ff8216036104645760029060ff191617600755600091808352601160205260408320916040519161213d83610504565b8460018554600f0b958686520154602085019081528315612180576114ff6121699261216e97136130bc565b6137b9565b610cbf600160ff196007541617600755565b5080fd5b346104645760403660031901126104645761219d610647565b6024359063ffffffff82168203610464576001600160a01b0316600090815260176020908152604080832063ffffffff909416835292815291902054604051908152f35b346104645760203660031901126104645760043560005260116020526020600160406000200154604051908152f35b34610464576000366003190112610464576040517f00000000000000000000000000000000000000000000000000000000000000006001600160a01b03168152602090f35b3461046457602036600319011261046457600080546001600160a01b031633036117a1576004358152601560205260408120805460ff1916600117905580f35b1561046457565b156122a357565b60405162461bcd60e51b815260206004820152601b60248201527f517565727920666f72206e6f6e6578697374656e7420746f6b656e00000000006044820152606490fd5b906040516122f581610504565b6020600182948054600f0b84520154910152565b6020818303126104645780519067ffffffffffffffff8211610464570181601f8201121561046457805161233c8161057a565b9261234a604051948561053c565b818452602082840101116104645761061091602080850191016105b7565b6040513d6000823e3d90fd5b1561237b57565b634e487b7160e01b600052600160045260246000fd5b600091825260086020908152604080842054600a8352818520546001600160a01b03918216808752600b8552838720958316808852959094529190942091831493169091149060ff9054169082156123f4575b5081156123ef575090565b905090565b9150386123e4565b1561240357565b60405162461bcd60e51b81526020600482015260056024820152641d9bdd195960da1b6044820152606490fd5b9092919261245984600094818652601560205261245460ff604088205416156123fc565b612391565b15612516577fddf252ad1be2c89b69c2b068fc378daa952ba7f163c4a11628f55a4df523b3ef90848452600860205260018060a01b03906124dc866124cd84604089205416966124ad868216809914612374565b828952600a6020526040892086815416612502575b506110208382612807565b6124d68461451f565b90614953565b6124e68682612753565b436124fb87600052600c602052604060002090565b55169280a4565b80546001600160a01b0319169055386124c2565b8280fd5b90816020910312610464575161061081610452565b6001600160a01b039182168152911660208201526040810191909152608060608201819052610610929101906105da565b3d1561258b573d906125718261057a565b9161257f604051938461053c565b82523d6000602084013e565b606090565b929190916125a033838587612430565b823b6125ad575b50505050565b6125d5926020926000604051809681958294630a85bd0160e11b9a8b8552336004860161252f565b03926001600160a01b03165af1600091816126d1575b50612665576125f8612560565b805190816126605760405162461bcd60e51b815260206004820152603260248201527f4552433732313a207472616e7366657220746f206e6f6e20455243373231526560448201527131b2b4bb32b91034b6b83632b6b2b73a32b960711b6064820152608490fd5b602001fd5b6001600160e01b0319160361267d57388080806125a7565b60405162461bcd60e51b815260206004820152602660248201527f4552433732313a2045524337323152656365697665722072656a656374656420604482015265746f6b656e7360d01b6064820152608490fd5b6126f391925060203d81116126fa575b6126eb818361053c565b81019061251a565b90386125eb565b503d6126e1565b634e487b7160e01b600052601160045260246000fd5b9060018201809211610e7557565b906303c267008201809211610e7557565b9062093a808201809211610e7557565b91908201809211610e7557565b6127dd91600081815260209060088252600e60018060a01b039260409361277f81868620541615612374565b8584526008825284842080546001600160a01b0319166001600160a01b03891617905586168352600981528383205494600d825284842086855282528085852055835252205560018060a01b03166000526009602052604060002090565b6127e78154612717565b9055565b600019810191908211610e7557565b91908203918211610e7557565b6000828152600860205260408120546001600160a01b038381169161282e91168214612374565b83825260086020526040822080546001600160a01b03191690558152600960205260408120546000198101908111610e755783826128796128de96600052600e602052604060002090565b548381036128e857506001600160a01b0385166000908152600d602052604090206128c3936128b2915b90600052602052604060002090565b55600052600e602052604060002090565b556001600160a01b0316600090815260096020526040902090565b6127e781546127eb565b836128b2916129356129136128c3976128a38b60018060a01b0316600052600d602052604060002090565b54806128b2846128a38d60018060a01b0316600052600d602052604060002090565b556001600160a01b0387166000908152600d602052604090206128a3565b6040519061296082610520565b60006060838281528260208201528260408201520152565b90600f0b90600f0b029081600f0b918203610e7557565b9060405161299c81610520565b606060028294805480600f0b855260801d600f0b6020850152600181015460408501520154910152565b9062093a8091828102928184041490151715610e7557565b90670de0b6b3a76400009180830292830403610e7557565b81810292918115918404141715610e7557565b8115612a13570490565b634e487b7160e01b600052601260045260246000fd5b6000198114610e755760010190565b600f91820b910b039060016001607f1b0319821260016001607f1b03831317610e7557565b600f0b9060016001607f1b03821360016001607f1b0319831217610e7557565b90600f0b90600f0b019060016001607f1b0319821260016001607f1b03831317610e7557565b906060600291612ace8151600f0b85906001600160801b0319825416906001600160801b0316179055565b602081015184546001600160801b031660809190911b6fffffffffffffffffffffffffffffffff1916178455604081015160018501550151910155565b9190612b1a5761056b91612aa3565b634e487b7160e01b600052600060045260246000fd5b9091612b3a612953565b91612b43612953565b9260009182601254908215159485612f77575b612b5e61056d565b9560008752602093600085890152426040890152606097438982015281612f5a575b85604082018051906000918c814211612f3d575b612ba762093a80839896959498046129c6565b966000975b60ff8910612df8575b5050505050612be8935090611861918d8b87612bd085601255565b612d4f575b5050506000526004602052604060002090565b612bf8575b505050505050505050565b82612c7b97612c76968280612c819d019542875111612cf0575b5050500191825190428211612c8f575b5050505050612c44612c3e82600052600f602052604060002090565b54612717565b9283612c5a83600052600f602052604060002090565b5542604087015243908601526000526010602052604060002090565b610851565b90612b0b565b388080808080808080612bed565b5110612c9d575b8080612c22565b612cba612ccc91612cb4612ce8958b0151600f0b90565b90612a38565b91516000526013602052604060002090565b906001600160801b0319825416906001600160801b0316179055565b388080612c96565b612d03612d0992612d30940151600f0b90565b90612a7d565b80848d81860151895114612d38575b505050612ccc86516000526013602052604060002090565b388281612c12565b0151612d479250600f0b612cb4565b38848d612d18565b612d9f612da991612cb46118ba85612d98612d91612d82612d768b612db09b0151600f0b90565b878c0151600f0b612cb4565b998d01996118d88b51600f0b90565b600f0b8952565b51600f0b90565b8651600f0b612a7d565b600f0b8552565b6000612dc0610acd8351600f0b90565b12612dee575b506000612dd7610acd8551600f0b90565b12612de5575b878d8b612bd5565b60008352612ddd565b6000905238612dc6565b612e0190612736565b6000939086898242811115612f085750612e479250956118ce612e40610acd986118c26118ba6118dd966118b4429d8e9286019b6118ae8d51600f0b90565b600f0b8c52565b6000612e57610acd8a51600f0b90565b12612eff575b6000612e6d610acd8351600f0b90565b12612ef5575b50612ea18392848352880196612e9a8851611945611937612e9489806127fa565b8a6129f6565b8852612717565b97428403612ec757505050505050612be8926118619143905290508638808c8180612bb5565b612ee99192939495965061199c886118618b6000526004602052604060002090565b96949392908e91612bac565b6000905238612e73565b60008852612e5d565b839750612e406118dd93926118c26118ba612e47976118b4610acd6119f86119f16118ce996000526013602052604060002090565b612f53919350611a13611a1891870151436127fa565b918c612b94565b50612f7261134f826000526004602052604060002090565b612b80565b602089018981514210806130a6575b613065575b508789602082019442865111908161304e575b50612ffe575b5050612fbe6119f182516000526013602052604060002090565b92519081612fce575b5050612b56565b519091508103612fe25750805b3880612fc7565b6119f1612ff9916000526013602052604060002090565b612fdb565b61303261304091612d98602061302861301b6130479751600f0b90565b6303c2670090600f0b0590565b600f0b9201918252565b6118b4610acd4288516127fa565b600f0b8a52565b8789612fa4565b905061305e610acd8451600f0b90565b1338612f9e565b61309961308b61307c61301b6130a09451600f0b90565b600f0b60208a01908152612d98565b6118b4610acd4286516127fa565b600f0b8752565b89612f8b565b50836130b6610acd8351600f0b90565b13612f86565b156130c357565b60405162461bcd60e51b8152602060048201526016602482015275139bc8195e1a5cdd1a5b99c81b1bd8dac8199bdd5b9960521b6044820152606490fd5b1561310857565b60405162461bcd60e51b8152602060048201526024808201527f43616e6e6f742061646420746f2065787069726564206c6f636b2e20576974686044820152636472617760e01b6064820152608490fd5b6040519061316682610504565b60006020838281520152565b90602060019161319d8151600f0b85906001600160801b0319825416906001600160801b0316179055565b0151910155565b9081602091031261046457516106108161151e565b916014546131ca610b188483612746565b6132496131d5613159565b61323a6131e38551600f0b90565b946131fc6020820196875160208601528490600f0b9052565b6132116118dd88600f0b6118d88451600f0b90565b61322981610aff8a6000526011602052604060002090565b61323342896140c6565b9288612b30565b61324442876140c6565b6127fa565b801515806133ef575b156133e95760035461326e90610b4b906001600160a01b031681565b803b15610464576040516330ee161b60e11b81526004810187905260248101929092526000908290604490829084905af18015610cef576133d6575b505b821515806133ce575b6132fd575b506132f8600080516020614ffb8339815191529151936040519182913395429184606091949392608082019582526020820152600260408201520152565b0390a3565b6040516323b872dd60e01b815233600482015230602482015260448101849052909160208260648160006001600160a01b037f0000000000000000000000000000000000000000000000000000000000000000165af18015610cef57600080516020614ffb8339815191529361338e60008051602061501b833981519152926132f8956000916133b0575b50612374565b6133988682612746565b60408051928352602083019190915290a191506132ba565b6133c8915060203d8111610ce857610cd9818361053c565b38613388565b5060016132b5565b80610d016133e3926104eb565b386132aa565b506132ac565b506001613252565b91613475613403613159565b9161340f8151600f0b90565b936134286020830195865160208701528590600f0b9052565b61344561343e6134398451600f0b90565b612a5d565b600f0b8352565b806135b0575b5061346481610aff876000526011602052604060002090565b61346e42866140c6565b9285612b30565b61348961348242856140c6565b91826127fa565b90811515806135a8575b1561353957506003546134b090610b4b906001600160a01b031681565b803b15610464576040516330ee161b60e11b81526004810185905260248101929092526000908290604490829084905af18015610cef57613526575b505b516040805192835260006020840152600390830152426060830152903390600080516020614ffb8339815191529080608081016132f8565b80610d01613533926104eb565b386134ec565b60035490915061355390610b4b906001600160a01b031681565b803b1561046457604051636d69d55b60e11b81526004810185905260248101929092526000908290604490829084905af18015610cef57613595575b506134ee565b80610d016135a2926104eb565b3861358f565b506000613493565b84523861344b565b929190916136276014549161323a6135ce613159565b916135da8151600f0b90565b956135f36020830197885160208701528590600f0b9052565b61360861343e89600f0b6118d88551600f0b90565b806137b1575b5061322981610aff8a6000526011602052604060002090565b801515806137a9575b156137a35760035461364c90610b4b906001600160a01b031681565b803b15610464576040516330ee161b60e11b81526004810187905260248101929092526000908290604490829084905af18015610cef57613790575b505b82151580613788575b6136d6575b506132f8600080516020614ffb8339815191529151936040519182913395429184606091949392608082019582526020820152600460408201520152565b6040516323b872dd60e01b815233600482015230602482015260448101849052909160208260648160006001600160a01b037f0000000000000000000000000000000000000000000000000000000000000000165af18015610cef57600080516020614ffb8339815191529361376660008051602061501b833981519152926132f8956000916133b05750612374565b6137708682612746565b60408051928352602083019190915290a19150613698565b506000613693565b80610d0161379d926104eb565b38613688565b5061368a565b506001613630565b86523861360e565b916014546137ca610b188483612746565b6137d56131d5613159565b80151580613957575b15613951576003546137fa90610b4b906001600160a01b031681565b803b15610464576040516330ee161b60e11b81526004810187905260248101929092526000908290604490829084905af18015610cef5761393e575b505b82151580613936575b613884575b506132f8600080516020614ffb8339815191529151936040519182913395429184606091949392608082019582526020820152600060408201520152565b6040516323b872dd60e01b815233600482015230602482015260448101849052909160208260648160006001600160a01b037f0000000000000000000000000000000000000000000000000000000000000000165af18015610cef57600080516020614ffb8339815191529361391460008051602061501b833981519152926132f8956000916133b05750612374565b61391e8682612746565b60408051928352602083019190915290a19150613846565b506001613841565b80610d0161394b926104eb565b38613836565b50613838565b5060016137de565b9291909161398260145491613977610b188685612746565b61323a6135ce613159565b80151580613b04575b15613afe576003546139a790610b4b906001600160a01b031681565b803b15610464576040516330ee161b60e11b81526004810187905260248101929092526000908290604490829084905af18015610cef57613aeb575b505b82151580613ae3575b613a31575b506132f8600080516020614ffb8339815191529151936040519182913395429184606091949392608082019582526020820152600160408201520152565b6040516323b872dd60e01b815233600482015230602482015260448101849052909160208260648160006001600160a01b037f0000000000000000000000000000000000000000000000000000000000000000165af18015610cef57600080516020614ffb83398151915293613ac160008051602061501b833981519152926132f8956000916133b05750612374565b613acb8682612746565b60408051928352602083019190915290a191506139f3565b5060016139ee565b80610d01613af8926104eb565b386139e3565b506139e5565b50600161398b565b15613b1357565b60405162461bcd60e51b815260206004820152601e60248201527f566f74696e67206c6f636b2063616e2062652032207965617273206d617800006044820152606490fd5b90420190814211610e755762093a80809204828102928184041490151715610e755780156104645742821115613bdf5761061091613ba0613b9842612725565b821115613b0c565b613bb3613bae600654612a29565b600655565b613bc06006548095613c33565b50613bd8610aab856000526011602052604060002090565b918461395f565b60405162461bcd60e51b815260206004820152602660248201527f43616e206f6e6c79206c6f636b20756e74696c2074696d6520696e207468652060448201526566757475726560d01b6064820152608490fd5b6001600160a01b0381811691908390613c4d841515612374565b613c568361451f565b90811615158080613e5b575b613c9d575b5050613c7291612753565b60007fddf252ad1be2c89b69c2b068fc378daa952ba7f163c4a11628f55a4df523b3ef8180a4600190565b613ca8575b80613c67565b6001600160a01b0381166000908152601860205260409020909150613cd2905b5463ffffffff1690565b63ffffffff811615613e22576001600160a01b0382166000908152601760205260409020600190613d1b905b613d0784614543565b63ffffffff16600052602052604060002090565b01908592915b600180613d5e613d3086614b72565b6001600160a01b03871660009081526017602052604090205b9063ffffffff16600052602052604060002090565b0191613d77610400613d708354612717565b11156147b8565b6000825b613dd8575b50505091613dbd613da1613dd293613d9c87613c729997614769565b6147a3565b6001600160a01b03909216600090815260186020526040902090565b9063ffffffff1663ffffffff19825416179055565b91613ca2565b9091929394958254821015613e1957508061199c613e06613dfc613e0c948661456f565b90549060031b1c90565b86614769565b9082918996959493613d7b565b95949392613d80565b6001600160a01b0382166000908152601760205260409020600190613e51905b60008052602052604060002090565b0190859291613d21565b50821515613c62565b15613e6b57565b60405162461bcd60e51b815260206004820152600c60248201526b131bd8dac8195e1c1a5c995960a21b6044820152606490fd5b15613ea657565b60405162461bcd60e51b8152602060048201526011602482015270139bdd1a1a5b99c81a5cc81b1bd8dad959607a1b6044820152606490fd5b15613ee657565b60405162461bcd60e51b815260206004820152601f60248201527f43616e206f6e6c7920696e637265617365206c6f636b206475726174696f6e006044820152606490fd5b15613f3257565b60405162461bcd60e51b8152602060048201526016602482015275546865206c6f636b206469646e27742065787069726560501b6044820152606490fd5b613f7a8133612391565b15614082576000818152600860205260408120546001600160a01b03908116908115612516573390613fb6856000526008602052604060002090565b54161460ff613fdb336107ab8560018060a01b0316600052600b602052604060002090565b5416811561407a575b50156121805761401161400184600052600a602052604060002090565b80546001600160a01b0319169055565b8282827f8c5be1e5ebec7d5bd14f71427d1e84f3dd0314c0f7b2291e5b200ac8c7c3b9258280a461404a836140458361451f565b614810565b6140548333612807565b7fddf252ad1be2c89b69c2b068fc378daa952ba7f163c4a11628f55a4df523b3ef8280a4565b905038613fe4565b606460405162461bcd60e51b815260206004820152602060248201527f63616c6c6572206973206e6f74206f776e6572206e6f7220617070726f7665646044820152fd5b6000818152600f60205260408120549091816140e3575050905090565b61410491612c766140fe926000526010602052604060002090565b5061298f565b6020810151600f0b91604082015193818582039512818612811691861390151617610e755761414d61343e614143610acd9561061097600f0b90612978565b8451600f0b612a38565b806141598351600f0b90565b600f0b1261416a575b5051600f0b90565b815238614162565b80600052600c6020526040600020544314614192576106109042906140c6565b50600090565b6141a443831115612374565b6000906141bb81600052600f602052604060002090565b5482905b608082106142f7575b50506118dd6142886141f26140fe6142929695612c76612d98966000526010602052604060002090565b9360125490614201828261436c565b61421861134f826000526004602052604060002090565b928110156142d35761134f61136e61422f92612717565b90614256604061424860608501516060870151906127fa565b9301516040850151906127fa565b905b604084015193836142aa575b505050506118b4610acd61427c6020880151600f0b90565b926040880151906127fa565b8351600f0b612a38565b6000600f82900b12614192576001600160801b031690565b611945926113e36142ca96959360606142c5940151906127fa565b612a09565b38808080614264565b506142e26060830151436127fa565b906142f16040840151426127fa565b90614258565b9092818110156143665761431c6143166143118484612746565b612717565b60011c90565b9085600261433884612c76886000526010602052604060002090565b50015411614351575061434b9093612a29565b906141bf565b93915061436061434b916127eb565b91612a29565b926141c8565b60009182915b60808310614381575b50505090565b909192828110156143e957828101808211610e75576001808201809211610e75571c908260026143bb846000526004602052604060002090565b0154116143d457506143cd9093612a29565b9190614372565b9392506143e36143cd916127eb565b92612a29565b9261437b565b9060408201614405611657825162093a80900490565b906000915b60ff8310614452575b5050505061443d61443d826000614431610acd6106109651600f0b90565b126144495751600f0b90565b6001600160801b031690565b60008152612d98565b61445b90612736565b6000929080858111156144df57505083925b60208601906144a561449e6144946144868551600f0b90565b6118b4610acd89518b6127fa565b8951600f0b612a38565b600f0b8852565b8585146144d857816144c36144ca926118d86144d2969551600f0b90565b600f0b9052565b838352612a29565b9161440a565b5050614413565b6144f99194506119f1906000526013602052604060002090565b61446d565b61061090601254600052600460205261451a604060002061298f565b6143ef565b6001600160a01b0381811660009081526016602052604090205416806123ef575090565b63ffffffff9081166000190191908211610e7557565b63ffffffff9182169082160391908211610e7557565b80548210156108685760005260206000200190600090565b6001600160a01b03811660009081526018602052604090205463ffffffff16908115614623576001600160a01b031660009081526017602052604090206001916145d591613d079091614543565b0160009081908054905b8183106145ec5750505090565b9091926146096145fc858461456f565b9054429160031b1c6140c6565b8101809111610e755761461c9093612a29565b91906145df565b5050600090565b6001600160a01b038116600090815260186020526040902061464b90613cc8565b9163ffffffff80841615614754576001600160a01b0383166000908152601760205260409020829061468090613d0787614543565b54111561475d576001600160a01b038316600090815260176020526040902082906146aa90613e42565b54116147545791906146bd600094614543565b838516848216116146cf575050505090565b6146f16146eb6146df8784614559565b60011c637fffffff1690565b82614559565b948561471381613d498760018060a01b03166000526017602052604060002090565b54848103614725575050505050505090565b9380959697939410600014614740575050935b9291906146bd565b9095925061474e9150614543565b90614738565b50505050600090565b50505061061090614543565b8054680100000000000000008110156104ff5761478b9160018201815561456f565b819291549060031b91821b91600019901b1916179055565b90600163ffffffff80931601918211610e7557565b156147bf57565b60405162461bcd60e51b815260206004820152602360248201527f64737452657020776f756c64206861766520746f6f206d616e7920746f6b656e60448201526249647360e81b6064820152608490fd5b906001600160a01b0382161515808061494a575b61482d57505050565b614835575050565b6001600160a01b038216600090815260186020526040902061485690613cc8565b9063ffffffff82161561491f576001600160a01b038316600090815260176020526040902060019061488c905b613d0785614543565b01905b600190816148bc61489f87614b72565b6001600160a01b0388166000908152601760205260409020613d49565b01906000835b6148dc575b505050505090613dbd613da161056b936147a3565b845481101561491a57806148f6613dfc614904938861456f565b83810361490a575b50612a29565b836148c2565b6149149085614769565b386148fe565b6148c7565b6001600160a01b038316600090815260176020526040902060019061494390613e42565b019061488f565b50811515614824565b9091906001600160a01b03808416919081168083141580614b69575b61497b575b5050505050565b614a7d575b5061498e575b808080614974565b6001600160a01b03821660009081526018602052604090206149af90613cc8565b9063ffffffff821615614a53576001600160a01b03831660009081526017602052604090206001906149e090614883565b015b6001806149f161489f87614b72565b0191614a03610400613d708354612717565b6000825b614a2b575b505050614a249392613d9c613dbd93613da193614769565b3880614986565b8154811015614a4e578061199c613e06613dfc614a48948661456f565b82614a07565b614a0c565b6001600160a01b0383166000908152601760205260409020600190614a7790613e42565b016149e2565b6001600160a01b0381166000908152601860205260409020614a9e90613cc8565b63ffffffff811615614b3f576001600160a01b0382166000908152601760205260409020600190614ace90613cfe565b015b600180614adf613d3086614b72565b016000825b614b03575b5050505090613dbd613da1614afd936147a3565b38614980565b8354811015614b3a5780614b1d613dfc614b2a938761456f565b898103614b305750612a29565b82614ae4565b6149149084614769565b614ae9565b6001600160a01b0382166000908152601760205260409020600190614b6390613e42565b01614ad0565b5083151561496f565b6001600160a01b031660009081526018602052604090205463ffffffff1680151580614ba7575b156106105761061090614543565b5060176020526040600020614bc04291613d0784614543565b5414614b99565b9190614bd28361451f565b6001600160a01b03848116600081815260166020526040812080546001600160a01b031916868516179055929091848116928282168481837f3134e8a2e6d97e929a7e54011ea5485d7d196dd5f0ba4d4ef95803e8e3fc257f8980a4848103614c41575b505050505050509050565b614da8575b505050614c58575b8080808080614c36565b6001600160a01b0382166000908152601860205260409020614c7990613cc8565b9063ffffffff821615614d7d576001600160a01b0383166000908152601760205260409020600190614caa90614883565b01905b60019081614cbd61489f87614b72565b6001600160a01b0389166000908152600960205260409020910192905493614cec610400613d70878454612746565b82825b614d4f575b5050505b828110614d1c57505050614d14929350613da1613dbd916147a3565b803880614c4e565b8061199c614d43614d4a936128a38b60018060a01b0316600052600d602052604060002090565b5484614769565b614cf8565b8154811015614d78578061199c614d6c613dfc614d72948661456f565b87614769565b82614cef565b614cf4565b6001600160a01b0383166000908152601760205260409020600190614da190613e42565b0190614cad565b6001600160a01b0383166000908152601860205260409020614dc990613cc8565b9163ffffffff831615614eaa576001600160a01b0384166000908152601760205260409020600190614dfe90613d0786614543565b01915b60019182614e2e614e1188614b72565b6001600160a01b0389166000908152601760205260409020613d49565b019188845b614e56575b50505050505090613dbd613da1614e4e936147a3565b388080614c46565b8554811015614ea55780614e70613dfc614e95938961456f565b8385614e89611c69846000526008602052604060002090565b1603614e9b5750612a29565b84614e33565b6149149086614769565b614e38565b6001600160a01b0384166000908152601760205260409020600190614ece90613e42565b0191614e01565b15614edc57565b60405162461bcd60e51b815260206004820152602e60248201527f566f74696e67457363726f773a3a64656c656761746542795369673a20696e7660448201526d616c6964207369676e617475726560901b6064820152608490fd5b15614f3f57565b60405162461bcd60e51b815260206004820152602a60248201527f566f74696e67457363726f773a3a64656c656761746542795369673a20696e76604482015269616c6964206e6f6e636560b01b6064820152608490fd5b15614f9e57565b60405162461bcd60e51b815260206004820152602e60248201527f566f74696e67457363726f773a3a64656c656761746542795369673a2073696760448201526d1b985d1d5c9948195e1c1a5c995960921b6064820152608490fdfeff04ccafc360e16b67d682d17bd9503c4c6b9a131f6be6325762dc9ffc7de6245e2aa66efd74cce82b21852e317e5490d9ecc9e6bb953ae24d90851258cc2f5ca264697066735822122052b177d2b80d5e5128a76b8d33ab703e0b2de8143f82f5e51fa9c6e47fcb466b64736f6c63430008130033",
  "linkReferences": {},
  "deployedLinkReferences": {}
}