{
  "_format": "hh-sol-artifact-1",
  "contractName": "V2_EngineV4",
  "sourceName": "contracts/V2_EngineV4.sol",
  "abi": [
    {
      "inputs": [],
      "stateMutability": "nonpayable",
      "type": "constructor"
    },
    {
      "inputs": [
        {
          "internalType": "uint256",
          "name": "x",
          "type": "uint256"
        },
        {
          "internalType": "uint256",
          "name": "y",
          "type": "uint256"
        }
      ],
      "name": "PRBMath_MulDiv18_Overflow",
      "type": "error"
    },
    {
      "inputs": [
        {
          "internalType": "uint256",
          "name": "x",
          "type": "uint256"
        },
        {
          "internalType": "uint256",
          "name": "y",
          "type": "uint256"
        },
        {
          "internalType": "uint256",
          "name": "denominator",
          "type": "uint256"
        }
      ],
      "name": "PRBMath_MulDiv_Overflow",
      "type": "error"
    },
    {
      "inputs": [],
      "name": "PRBMath_SD59x18_Abs_MinSD59x18",
      "type": "error"
    },
    {
      "inputs": [],
      "name": "PRBMath_SD59x18_Div_InputTooSmall",
      "type": "error"
    },
    {
      "inputs": [
        {
          "internalType": "SD59x18",
          "name": "x",
          "type": "int256"
        },
        {
          "internalType": "SD59x18",
          "name": "y",
          "type": "int256"
        }
      ],
      "name": "PRBMath_SD59x18_Div_Overflow",
      "type": "error"
    },
    {
      "inputs": [
        {
          "internalType": "SD59x18",
          "name": "x",
          "type": "int256"
        }
      ],
      "name": "PRBMath_SD59x18_Exp2_InputTooBig",
      "type": "error"
    },
    {
      "inputs": [],
      "name": "PRBMath_SD59x18_Mul_InputTooSmall",
      "type": "error"
    },
    {
      "inputs": [
        {
          "internalType": "SD59x18",
          "name": "x",
          "type": "int256"
        },
        {
          "internalType": "SD59x18",
          "name": "y",
          "type": "int256"
        }
      ],
      "name": "PRBMath_SD59x18_Mul_Overflow",
      "type": "error"
    },
    {
      "inputs": [
        {
          "internalType": "UD60x18",
          "name": "x",
          "type": "uint256"
        }
      ],
      "name": "PRBMath_UD60x18_Exp2_InputTooBig",
      "type": "error"
    },
    {
      "anonymous": false,
      "inputs": [
        {
          "indexed": true,
          "internalType": "address",
          "name": "addr",
          "type": "address"
        },
        {
          "indexed": true,
          "internalType": "bytes32",
          "name": "task",
          "type": "bytes32"
        }
      ],
      "name": "ContestationSubmitted",
      "type": "event"
    },
    {
      "anonymous": false,
      "inputs": [
        {
          "indexed": true,
          "internalType": "address",
          "name": "addr",
          "type": "address"
        },
        {
          "indexed": true,
          "internalType": "bytes32",
          "name": "task",
          "type": "bytes32"
        },
        {
          "indexed": false,
          "internalType": "bool",
          "name": "yea",
          "type": "bool"
        }
      ],
      "name": "ContestationVote",
      "type": "event"
    },
    {
      "anonymous": false,
      "inputs": [
        {
          "indexed": true,
          "internalType": "bytes32",
          "name": "id",
          "type": "bytes32"
        },
        {
          "indexed": true,
          "internalType": "uint32",
          "name": "start_idx",
          "type": "uint32"
        },
        {
          "indexed": false,
          "internalType": "uint32",
          "name": "end_idx",
          "type": "uint32"
        }
      ],
      "name": "ContestationVoteFinish",
      "type": "event"
    },
    {
      "anonymous": false,
      "inputs": [
        {
          "indexed": false,
          "internalType": "uint8",
          "name": "version",
          "type": "uint8"
        }
      ],
      "name": "Initialized",
      "type": "event"
    },
    {
      "anonymous": false,
      "inputs": [
        {
          "indexed": true,
          "internalType": "bytes32",
          "name": "id",
          "type": "bytes32"
        }
      ],
      "name": "ModelRegistered",
      "type": "event"
    },
    {
      "anonymous": false,
      "inputs": [
        {
          "indexed": true,
          "internalType": "address",
          "name": "previousOwner",
          "type": "address"
        },
        {
          "indexed": true,
          "internalType": "address",
          "name": "newOwner",
          "type": "address"
        }
      ],
      "name": "OwnershipTransferred",
      "type": "event"
    },
    {
      "anonymous": false,
      "inputs": [
        {
          "indexed": true,
          "internalType": "bool",
          "name": "paused",
          "type": "bool"
        }
      ],
      "name": "PausedChanged",
      "type": "event"
    },
    {
      "anonymous": false,
      "inputs": [
        {
          "indexed": true,
          "internalType": "address",
          "name": "to",
          "type": "address"
        }
      ],
      "name": "PauserTransferred",
      "type": "event"
    },
    {
      "anonymous": false,
      "inputs": [
        {
          "indexed": true,
          "internalType": "address",
          "name": "addr",
          "type": "address"
        },
        {
          "indexed": true,
          "internalType": "bytes32",
          "name": "commitment",
          "type": "bytes32"
        }
      ],
      "name": "SignalCommitment",
      "type": "event"
    },
    {
      "anonymous": false,
      "inputs": [
        {
          "indexed": true,
          "internalType": "address",
          "name": "addr",
          "type": "address"
        },
        {
          "indexed": true,
          "internalType": "bytes32",
          "name": "task",
          "type": "bytes32"
        }
      ],
      "name": "SolutionClaimed",
      "type": "event"
    },
    {
      "anonymous": false,
      "inputs": [
        {
          "indexed": true,
          "internalType": "bytes32",
          "name": "id",
          "type": "bytes32"
        },
        {
          "indexed": false,
          "internalType": "uint256",
          "name": "rate",
          "type": "uint256"
        }
      ],
      "name": "SolutionMineableRateChange",
      "type": "event"
    },
    {
      "anonymous": false,
      "inputs": [
        {
          "indexed": true,
          "internalType": "address",
          "name": "addr",
          "type": "address"
        },
        {
          "indexed": true,
          "internalType": "bytes32",
          "name": "task",
          "type": "bytes32"
        }
      ],
      "name": "SolutionSubmitted",
      "type": "event"
    },
    {
      "anonymous": false,
      "inputs": [
        {
          "indexed": true,
          "internalType": "uint64",
          "name": "startBlockTime",
          "type": "uint64"
        }
      ],
      "name": "StartBlockTimeChanged",
      "type": "event"
    },
    {
      "anonymous": false,
      "inputs": [
        {
          "indexed": true,
          "internalType": "bytes32",
          "name": "id",
          "type": "bytes32"
        },
        {
          "indexed": true,
          "internalType": "bytes32",
          "name": "model",
          "type": "bytes32"
        },
        {
          "indexed": false,
          "internalType": "uint256",
          "name": "fee",
          "type": "uint256"
        },
        {
          "indexed": true,
          "internalType": "address",
          "name": "sender",
          "type": "address"
        }
      ],
      "name": "TaskSubmitted",
      "type": "event"
    },
    {
      "anonymous": false,
      "inputs": [
        {
          "indexed": true,
          "internalType": "address",
          "name": "to",
          "type": "address"
        }
      ],
      "name": "TreasuryTransferred",
      "type": "event"
    },
    {
      "anonymous": false,
      "inputs": [
        {
          "indexed": true,
          "internalType": "address",
          "name": "addr",
          "type": "address"
        },
        {
          "indexed": true,
          "internalType": "address",
          "name": "validator",
          "type": "address"
        },
        {
          "indexed": false,
          "internalType": "uint256",
          "name": "amount",
          "type": "uint256"
        }
      ],
      "name": "ValidatorDeposit",
      "type": "event"
    },
    {
      "anonymous": false,
      "inputs": [
        {
          "indexed": true,
          "internalType": "address",
          "name": "addr",
          "type": "address"
        },
        {
          "indexed": true,
          "internalType": "address",
          "name": "to",
          "type": "address"
        },
        {
          "indexed": true,
          "internalType": "uint256",
          "name": "count",
          "type": "uint256"
        },
        {
          "indexed": false,
          "internalType": "uint256",
          "name": "amount",
          "type": "uint256"
        }
      ],
      "name": "ValidatorWithdraw",
      "type": "event"
    },
    {
      "anonymous": false,
      "inputs": [
        {
          "indexed": true,
          "internalType": "address",
          "name": "addr",
          "type": "address"
        },
        {
          "indexed": true,
          "internalType": "uint256",
          "name": "count",
          "type": "uint256"
        }
      ],
      "name": "ValidatorWithdrawCancelled",
      "type": "event"
    },
    {
      "anonymous": false,
      "inputs": [
        {
          "indexed": true,
          "internalType": "address",
          "name": "addr",
          "type": "address"
        },
        {
          "indexed": true,
          "internalType": "uint256",
          "name": "count",
          "type": "uint256"
        },
        {
          "indexed": false,
          "internalType": "uint256",
          "name": "unlockTime",
          "type": "uint256"
        },
        {
          "indexed": false,
          "internalType": "uint256",
          "name": "amount",
          "type": "uint256"
        }
      ],
      "name": "ValidatorWithdrawInitiated",
      "type": "event"
    },
    {
      "anonymous": false,
      "inputs": [
        {
          "indexed": false,
          "internalType": "uint256",
          "name": "version",
          "type": "uint256"
        }
      ],
      "name": "VersionChanged",
      "type": "event"
    },
    {
      "inputs": [],
      "name": "accruedFees",
      "outputs": [
        {
          "internalType": "uint256",
          "name": "",
          "type": "uint256"
        }
      ],
      "stateMutability": "view",
      "type": "function"
    },
    {
      "inputs": [],
      "name": "baseToken",
      "outputs": [
        {
          "internalType": "contract IBaseToken",
          "name": "",
          "type": "address"
        }
      ],
      "stateMutability": "view",
      "type": "function"
    },
    {
      "inputs": [
        {
          "internalType": "bytes32[]",
          "name": "taskids_",
          "type": "bytes32[]"
        },
        {
          "internalType": "bytes[]",
          "name": "cids_",
          "type": "bytes[]"
        }
      ],
      "name": "bulkSubmitSolution",
      "outputs": [],
      "stateMutability": "nonpayable",
      "type": "function"
    },
    {
      "inputs": [
        {
          "internalType": "uint8",
          "name": "version_",
          "type": "uint8"
        },
        {
          "internalType": "address",
          "name": "owner_",
          "type": "address"
        },
        {
          "internalType": "bytes32",
          "name": "model_",
          "type": "bytes32"
        },
        {
          "internalType": "uint256",
          "name": "fee_",
          "type": "uint256"
        },
        {
          "internalType": "bytes",
          "name": "input_",
          "type": "bytes"
        },
        {
          "internalType": "uint256",
          "name": "n_",
          "type": "uint256"
        }
      ],
      "name": "bulkSubmitTask",
      "outputs": [],
      "stateMutability": "nonpayable",
      "type": "function"
    },
    {
      "inputs": [
        {
          "internalType": "uint256",
          "name": "count_",
          "type": "uint256"
        }
      ],
      "name": "cancelValidatorWithdraw",
      "outputs": [],
      "stateMutability": "nonpayable",
      "type": "function"
    },
    {
      "inputs": [
        {
          "internalType": "bytes32",
          "name": "taskid_",
          "type": "bytes32"
        }
      ],
      "name": "claimSolution",
      "outputs": [],
      "stateMutability": "nonpayable",
      "type": "function"
    },
    {
      "inputs": [
        {
          "internalType": "bytes32",
          "name": "",
          "type": "bytes32"
        }
      ],
      "name": "commitments",
      "outputs": [
        {
          "internalType": "uint256",
          "name": "",
          "type": "uint256"
        }
      ],
      "stateMutability": "view",
      "type": "function"
    },
    {
      "inputs": [],
      "name": "contestationVoteExtensionTime",
      "outputs": [
        {
          "internalType": "uint256",
          "name": "",
          "type": "uint256"
        }
      ],
      "stateMutability": "view",
      "type": "function"
    },
    {
      "inputs": [
        {
          "internalType": "bytes32",
          "name": "taskid_",
          "type": "bytes32"
        },
        {
          "internalType": "uint32",
          "name": "amnt_",
          "type": "uint32"
        }
      ],
      "name": "contestationVoteFinish",
      "outputs": [],
      "stateMutability": "nonpayable",
      "type": "function"
    },
    {
      "inputs": [
        {
          "internalType": "bytes32",
          "name": "",
          "type": "bytes32"
        },
        {
          "internalType": "uint256",
          "name": "",
          "type": "uint256"
        }
      ],
      "name": "contestationVoteNays",
      "outputs": [
        {
          "internalType": "address",
          "name": "",
          "type": "address"
        }
      ],
      "stateMutability": "view",
      "type": "function"
    },
    {
      "inputs": [
        {
          "internalType": "bytes32",
          "name": "",
          "type": "bytes32"
        },
        {
          "internalType": "uint256",
          "name": "",
          "type": "uint256"
        }
      ],
      "name": "contestationVoteYeas",
      "outputs": [
        {
          "internalType": "address",
          "name": "",
          "type": "address"
        }
      ],
      "stateMutability": "view",
      "type": "function"
    },
    {
      "inputs": [
        {
          "internalType": "bytes32",
          "name": "",
          "type": "bytes32"
        },
        {
          "internalType": "address",
          "name": "",
          "type": "address"
        }
      ],
      "name": "contestationVoted",
      "outputs": [
        {
          "internalType": "bool",
          "name": "",
          "type": "bool"
        }
      ],
      "stateMutability": "view",
      "type": "function"
    },
    {
      "inputs": [
        {
          "internalType": "bytes32",
          "name": "",
          "type": "bytes32"
        }
      ],
      "name": "contestationVotedIndex",
      "outputs": [
        {
          "internalType": "uint256",
          "name": "",
          "type": "uint256"
        }
      ],
      "stateMutability": "view",
      "type": "function"
    },
    {
      "inputs": [
        {
          "internalType": "bytes32",
          "name": "",
          "type": "bytes32"
        }
      ],
      "name": "contestations",
      "outputs": [
        {
          "internalType": "address",
          "name": "validator",
          "type": "address"
        },
        {
          "internalType": "uint64",
          "name": "blocktime",
          "type": "uint64"
        },
        {
          "internalType": "uint32",
          "name": "finish_start_index",
          "type": "uint32"
        },
        {
          "internalType": "uint256",
          "name": "slashAmount",
          "type": "uint256"
        }
      ],
      "stateMutability": "view",
      "type": "function"
    },
    {
      "inputs": [
        {
          "internalType": "uint256",
          "name": "t",
          "type": "uint256"
        },
        {
          "internalType": "uint256",
          "name": "ts",
          "type": "uint256"
        }
      ],
      "name": "diffMul",
      "outputs": [
        {
          "internalType": "uint256",
          "name": "",
          "type": "uint256"
        }
      ],
      "stateMutability": "pure",
      "type": "function"
    },
    {
      "inputs": [],
      "name": "exitValidatorMinUnlockTime",
      "outputs": [
        {
          "internalType": "uint256",
          "name": "",
          "type": "uint256"
        }
      ],
      "stateMutability": "view",
      "type": "function"
    },
    {
      "inputs": [
        {
          "internalType": "address",
          "name": "sender_",
          "type": "address"
        },
        {
          "internalType": "bytes32",
          "name": "taskid_",
          "type": "bytes32"
        },
        {
          "internalType": "bytes",
          "name": "cid_",
          "type": "bytes"
        }
      ],
      "name": "generateCommitment",
      "outputs": [
        {
          "internalType": "bytes32",
          "name": "",
          "type": "bytes32"
        }
      ],
      "stateMutability": "pure",
      "type": "function"
    },
    {
      "inputs": [
        {
          "internalType": "bytes",
          "name": "content_",
          "type": "bytes"
        }
      ],
      "name": "generateIPFSCID",
      "outputs": [
        {
          "internalType": "bytes",
          "name": "",
          "type": "bytes"
        }
      ],
      "stateMutability": "pure",
      "type": "function"
    },
    {
      "inputs": [],
      "name": "getPsuedoTotalSupply",
      "outputs": [
        {
          "internalType": "uint256",
          "name": "",
          "type": "uint256"
        }
      ],
      "stateMutability": "view",
      "type": "function"
    },
    {
      "inputs": [],
      "name": "getReward",
      "outputs": [
        {
          "internalType": "uint256",
          "name": "",
          "type": "uint256"
        }
      ],
      "stateMutability": "view",
      "type": "function"
    },
    {
      "inputs": [],
      "name": "getSlashAmount",
      "outputs": [
        {
          "internalType": "uint256",
          "name": "",
          "type": "uint256"
        }
      ],
      "stateMutability": "view",
      "type": "function"
    },
    {
      "inputs": [],
      "name": "getValidatorMinimum",
      "outputs": [
        {
          "internalType": "uint256",
          "name": "",
          "type": "uint256"
        }
      ],
      "stateMutability": "view",
      "type": "function"
    },
    {
      "inputs": [
        {
          "components": [
            {
              "internalType": "uint256",
              "name": "fee",
              "type": "uint256"
            },
            {
              "internalType": "address",
              "name": "addr",
              "type": "address"
            },
            {
              "internalType": "uint256",
              "name": "rate",
              "type": "uint256"
            },
            {
              "internalType": "bytes",
              "name": "cid",
              "type": "bytes"
            }
          ],
          "internalType": "struct Model",
          "name": "o_",
          "type": "tuple"
        },
        {
          "internalType": "address",
          "name": "sender_",
          "type": "address"
        }
      ],
      "name": "hashModel",
      "outputs": [
        {
          "internalType": "bytes32",
          "name": "",
          "type": "bytes32"
        }
      ],
      "stateMutability": "pure",
      "type": "function"
    },
    {
      "inputs": [
        {
          "components": [
            {
              "internalType": "bytes32",
              "name": "model",
              "type": "bytes32"
            },
            {
              "internalType": "uint256",
              "name": "fee",
              "type": "uint256"
            },
            {
              "internalType": "address",
              "name": "owner",
              "type": "address"
            },
            {
              "internalType": "uint64",
              "name": "blocktime",
              "type": "uint64"
            },
            {
              "internalType": "uint8",
              "name": "version",
              "type": "uint8"
            },
            {
              "internalType": "bytes",
              "name": "cid",
              "type": "bytes"
            }
          ],
          "internalType": "struct Task",
          "name": "o_",
          "type": "tuple"
        },
        {
          "internalType": "address",
          "name": "sender_",
          "type": "address"
        },
        {
          "internalType": "bytes32",
          "name": "prevhash_",
          "type": "bytes32"
        }
      ],
      "name": "hashTask",
      "outputs": [
        {
          "internalType": "bytes32",
          "name": "",
          "type": "bytes32"
        }
      ],
      "stateMutability": "pure",
      "type": "function"
    },
    {
      "inputs": [],
      "name": "initialize",
      "outputs": [],
      "stateMutability": "nonpayable",
      "type": "function"
    },
    {
      "inputs": [
        {
          "internalType": "uint256",
          "name": "amount_",
          "type": "uint256"
        }
      ],
      "name": "initiateValidatorWithdraw",
      "outputs": [
        {
          "internalType": "uint256",
          "name": "",
          "type": "uint256"
        }
      ],
      "stateMutability": "nonpayable",
      "type": "function"
    },
    {
      "inputs": [
        {
          "internalType": "address",
          "name": "",
          "type": "address"
        }
      ],
      "name": "lastContestationLossTime",
      "outputs": [
        {
          "internalType": "uint256",
          "name": "",
          "type": "uint256"
        }
      ],
      "stateMutability": "view",
      "type": "function"
    },
    {
      "inputs": [
        {
          "internalType": "address",
          "name": "",
          "type": "address"
        }
      ],
      "name": "lastSolutionSubmission",
      "outputs": [
        {
          "internalType": "uint256",
          "name": "",
          "type": "uint256"
        }
      ],
      "stateMutability": "view",
      "type": "function"
    },
    {
      "inputs": [],
      "name": "maxContestationValidatorStakeSince",
      "outputs": [
        {
          "internalType": "uint256",
          "name": "",
          "type": "uint256"
        }
      ],
      "stateMutability": "view",
      "type": "function"
    },
    {
      "inputs": [],
      "name": "minClaimSolutionTime",
      "outputs": [
        {
          "internalType": "uint256",
          "name": "",
          "type": "uint256"
        }
      ],
      "stateMutability": "view",
      "type": "function"
    },
    {
      "inputs": [],
      "name": "minContestationVotePeriodTime",
      "outputs": [
        {
          "internalType": "uint256",
          "name": "",
          "type": "uint256"
        }
      ],
      "stateMutability": "view",
      "type": "function"
    },
    {
      "inputs": [],
      "name": "minRetractionWaitTime",
      "outputs": [
        {
          "internalType": "uint256",
          "name": "",
          "type": "uint256"
        }
      ],
      "stateMutability": "view",
      "type": "function"
    },
    {
      "inputs": [
        {
          "internalType": "bytes32",
          "name": "",
          "type": "bytes32"
        }
      ],
      "name": "models",
      "outputs": [
        {
          "internalType": "uint256",
          "name": "fee",
          "type": "uint256"
        },
        {
          "internalType": "address",
          "name": "addr",
          "type": "address"
        },
        {
          "internalType": "uint256",
          "name": "rate",
          "type": "uint256"
        },
        {
          "internalType": "bytes",
          "name": "cid",
          "type": "bytes"
        }
      ],
      "stateMutability": "view",
      "type": "function"
    },
    {
      "inputs": [],
      "name": "owner",
      "outputs": [
        {
          "internalType": "address",
          "name": "",
          "type": "address"
        }
      ],
      "stateMutability": "view",
      "type": "function"
    },
    {
      "inputs": [],
      "name": "paused",
      "outputs": [
        {
          "internalType": "bool",
          "name": "",
          "type": "bool"
        }
      ],
      "stateMutability": "view",
      "type": "function"
    },
    {
      "inputs": [],
      "name": "pauser",
      "outputs": [
        {
          "internalType": "address",
          "name": "",
          "type": "address"
        }
      ],
      "stateMutability": "view",
      "type": "function"
    },
    {
      "inputs": [
        {
          "internalType": "address",
          "name": "",
          "type": "address"
        },
        {
          "internalType": "uint256",
          "name": "",
          "type": "uint256"
        }
      ],
      "name": "pendingValidatorWithdrawRequests",
      "outputs": [
        {
          "internalType": "uint256",
          "name": "unlockTime",
          "type": "uint256"
        },
        {
          "internalType": "uint256",
          "name": "amount",
          "type": "uint256"
        }
      ],
      "stateMutability": "view",
      "type": "function"
    },
    {
      "inputs": [
        {
          "internalType": "address",
          "name": "",
          "type": "address"
        }
      ],
      "name": "pendingValidatorWithdrawRequestsCount",
      "outputs": [
        {
          "internalType": "uint256",
          "name": "",
          "type": "uint256"
        }
      ],
      "stateMutability": "view",
      "type": "function"
    },
    {
      "inputs": [],
      "name": "prevhash",
      "outputs": [
        {
          "internalType": "bytes32",
          "name": "",
          "type": "bytes32"
        }
      ],
      "stateMutability": "view",
      "type": "function"
    },
    {
      "inputs": [
        {
          "internalType": "address",
          "name": "addr_",
          "type": "address"
        },
        {
          "internalType": "uint256",
          "name": "fee_",
          "type": "uint256"
        },
        {
          "internalType": "bytes",
          "name": "template_",
          "type": "bytes"
        }
      ],
      "name": "registerModel",
      "outputs": [
        {
          "internalType": "bytes32",
          "name": "",
          "type": "bytes32"
        }
      ],
      "stateMutability": "nonpayable",
      "type": "function"
    },
    {
      "inputs": [],
      "name": "renounceOwnership",
      "outputs": [],
      "stateMutability": "nonpayable",
      "type": "function"
    },
    {
      "inputs": [],
      "name": "retractionFeePercentage",
      "outputs": [
        {
          "internalType": "uint256",
          "name": "",
          "type": "uint256"
        }
      ],
      "stateMutability": "view",
      "type": "function"
    },
    {
      "inputs": [
        {
          "internalType": "uint256",
          "name": "t",
          "type": "uint256"
        },
        {
          "internalType": "uint256",
          "name": "ts",
          "type": "uint256"
        }
      ],
      "name": "reward",
      "outputs": [
        {
          "internalType": "uint256",
          "name": "",
          "type": "uint256"
        }
      ],
      "stateMutability": "pure",
      "type": "function"
    },
    {
      "inputs": [
        {
          "internalType": "bool",
          "name": "paused_",
          "type": "bool"
        }
      ],
      "name": "setPaused",
      "outputs": [],
      "stateMutability": "nonpayable",
      "type": "function"
    },
    {
      "inputs": [
        {
          "internalType": "bytes32",
          "name": "model_",
          "type": "bytes32"
        },
        {
          "internalType": "uint256",
          "name": "rate_",
          "type": "uint256"
        }
      ],
      "name": "setSolutionMineableRate",
      "outputs": [],
      "stateMutability": "nonpayable",
      "type": "function"
    },
    {
      "inputs": [
        {
          "internalType": "uint64",
          "name": "startBlockTime_",
          "type": "uint64"
        }
      ],
      "name": "setStartBlockTime",
      "outputs": [],
      "stateMutability": "nonpayable",
      "type": "function"
    },
    {
      "inputs": [
        {
          "internalType": "address",
          "name": "veStaking_",
          "type": "address"
        }
      ],
      "name": "setVeStaking",
      "outputs": [],
      "stateMutability": "nonpayable",
      "type": "function"
    },
    {
      "inputs": [
        {
          "internalType": "uint256",
          "name": "version_",
          "type": "uint256"
        }
      ],
      "name": "setVersion",
      "outputs": [],
      "stateMutability": "nonpayable",
      "type": "function"
    },
    {
      "inputs": [
        {
          "internalType": "bytes32",
          "name": "commitment_",
          "type": "bytes32"
        }
      ],
      "name": "signalCommitment",
      "outputs": [],
      "stateMutability": "nonpayable",
      "type": "function"
    },
    {
      "inputs": [],
      "name": "slashAmountPercentage",
      "outputs": [
        {
          "internalType": "uint256",
          "name": "",
          "type": "uint256"
        }
      ],
      "stateMutability": "view",
      "type": "function"
    },
    {
      "inputs": [],
      "name": "solutionFeePercentage",
      "outputs": [
        {
          "internalType": "uint256",
          "name": "",
          "type": "uint256"
        }
      ],
      "stateMutability": "view",
      "type": "function"
    },
    {
      "inputs": [],
      "name": "solutionRateLimit",
      "outputs": [
        {
          "internalType": "uint256",
          "name": "",
          "type": "uint256"
        }
      ],
      "stateMutability": "view",
      "type": "function"
    },
    {
      "inputs": [
        {
          "internalType": "bytes32",
          "name": "",
          "type": "bytes32"
        }
      ],
      "name": "solutions",
      "outputs": [
        {
          "internalType": "address",
          "name": "validator",
          "type": "address"
        },
        {
          "internalType": "uint64",
          "name": "blocktime",
          "type": "uint64"
        },
        {
          "internalType": "bool",
          "name": "claimed",
          "type": "bool"
        },
        {
          "internalType": "bytes",
          "name": "cid",
          "type": "bytes"
        }
      ],
      "stateMutability": "view",
      "type": "function"
    },
    {
      "inputs": [
        {
          "internalType": "bytes32",
          "name": "",
          "type": "bytes32"
        }
      ],
      "name": "solutionsStake",
      "outputs": [
        {
          "internalType": "uint256",
          "name": "",
          "type": "uint256"
        }
      ],
      "stateMutability": "view",
      "type": "function"
    },
    {
      "inputs": [],
      "name": "solutionsStakeAmount",
      "outputs": [
        {
          "internalType": "uint256",
          "name": "",
          "type": "uint256"
        }
      ],
      "stateMutability": "view",
      "type": "function"
    },
    {
      "inputs": [],
      "name": "startBlockTime",
      "outputs": [
        {
          "internalType": "uint64",
          "name": "",
          "type": "uint64"
        }
      ],
      "stateMutability": "view",
      "type": "function"
    },
    {
      "inputs": [
        {
          "internalType": "bytes32",
          "name": "taskid_",
          "type": "bytes32"
        }
      ],
      "name": "submitContestation",
      "outputs": [],
      "stateMutability": "nonpayable",
      "type": "function"
    },
    {
      "inputs": [
        {
          "internalType": "bytes32",
          "name": "taskid_",
          "type": "bytes32"
        },
        {
          "internalType": "bytes",
          "name": "cid_",
          "type": "bytes"
        }
      ],
      "name": "submitSolution",
      "outputs": [],
      "stateMutability": "nonpayable",
      "type": "function"
    },
    {
      "inputs": [
        {
          "internalType": "uint8",
          "name": "version_",
          "type": "uint8"
        },
        {
          "internalType": "address",
          "name": "owner_",
          "type": "address"
        },
        {
          "internalType": "bytes32",
          "name": "model_",
          "type": "bytes32"
        },
        {
          "internalType": "uint256",
          "name": "fee_",
          "type": "uint256"
        },
        {
          "internalType": "bytes",
          "name": "input_",
          "type": "bytes"
        }
      ],
      "name": "submitTask",
      "outputs": [],
      "stateMutability": "nonpayable",
      "type": "function"
    },
    {
      "inputs": [
        {
          "internalType": "uint256",
          "name": "t",
          "type": "uint256"
        }
      ],
      "name": "targetTs",
      "outputs": [
        {
          "internalType": "uint256",
          "name": "",
          "type": "uint256"
        }
      ],
      "stateMutability": "pure",
      "type": "function"
    },
    {
      "inputs": [],
      "name": "taskOwnerRewardPercentage",
      "outputs": [
        {
          "internalType": "uint256",
          "name": "",
          "type": "uint256"
        }
      ],
      "stateMutability": "view",
      "type": "function"
    },
    {
      "inputs": [
        {
          "internalType": "bytes32",
          "name": "",
          "type": "bytes32"
        }
      ],
      "name": "tasks",
      "outputs": [
        {
          "internalType": "bytes32",
          "name": "model",
          "type": "bytes32"
        },
        {
          "internalType": "uint256",
          "name": "fee",
          "type": "uint256"
        },
        {
          "internalType": "address",
          "name": "owner",
          "type": "address"
        },
        {
          "internalType": "uint64",
          "name": "blocktime",
          "type": "uint64"
        },
        {
          "internalType": "uint8",
          "name": "version",
          "type": "uint8"
        },
        {
          "internalType": "bytes",
          "name": "cid",
          "type": "bytes"
        }
      ],
      "stateMutability": "view",
      "type": "function"
    },
    {
      "inputs": [],
      "name": "totalHeld",
      "outputs": [
        {
          "internalType": "uint256",
          "name": "",
          "type": "uint256"
        }
      ],
      "stateMutability": "view",
      "type": "function"
    },
    {
      "inputs": [
        {
          "internalType": "address",
          "name": "to_",
          "type": "address"
        }
      ],
      "name": "transferOwnership",
      "outputs": [],
      "stateMutability": "nonpayable",
      "type": "function"
    },
    {
      "inputs": [
        {
          "internalType": "address",
          "name": "to_",
          "type": "address"
        }
      ],
      "name": "transferPauser",
      "outputs": [],
      "stateMutability": "nonpayable",
      "type": "function"
    },
    {
      "inputs": [
        {
          "internalType": "address",
          "name": "to_",
          "type": "address"
        }
      ],
      "name": "transferTreasury",
      "outputs": [],
      "stateMutability": "nonpayable",
      "type": "function"
    },
    {
      "inputs": [],
      "name": "treasury",
      "outputs": [
        {
          "internalType": "address",
          "name": "",
          "type": "address"
        }
      ],
      "stateMutability": "view",
      "type": "function"
    },
    {
      "inputs": [],
      "name": "treasuryRewardPercentage",
      "outputs": [
        {
          "internalType": "uint256",
          "name": "",
          "type": "uint256"
        }
      ],
      "stateMutability": "view",
      "type": "function"
    },
    {
      "inputs": [
        {
          "internalType": "address",
          "name": "addr_",
          "type": "address"
        },
        {
          "internalType": "bytes32",
          "name": "taskid_",
          "type": "bytes32"
        }
      ],
      "name": "validatorCanVote",
      "outputs": [
        {
          "internalType": "uint256",
          "name": "",
          "type": "uint256"
        }
      ],
      "stateMutability": "view",
      "type": "function"
    },
    {
      "inputs": [
        {
          "internalType": "address",
          "name": "validator_",
          "type": "address"
        },
        {
          "internalType": "uint256",
          "name": "amount_",
          "type": "uint256"
        }
      ],
      "name": "validatorDeposit",
      "outputs": [],
      "stateMutability": "nonpayable",
      "type": "function"
    },
    {
      "inputs": [],
      "name": "validatorMinimumPercentage",
      "outputs": [
        {
          "internalType": "uint256",
          "name": "",
          "type": "uint256"
        }
      ],
      "stateMutability": "view",
      "type": "function"
    },
    {
      "inputs": [
        {
          "internalType": "uint256",
          "name": "count_",
          "type": "uint256"
        },
        {
          "internalType": "address",
          "name": "to_",
          "type": "address"
        }
      ],
      "name": "validatorWithdraw",
      "outputs": [],
      "stateMutability": "nonpayable",
      "type": "function"
    },
    {
      "inputs": [
        {
          "internalType": "address",
          "name": "",
          "type": "address"
        }
      ],
      "name": "validatorWithdrawPendingAmount",
      "outputs": [
        {
          "internalType": "uint256",
          "name": "",
          "type": "uint256"
        }
      ],
      "stateMutability": "view",
      "type": "function"
    },
    {
      "inputs": [
        {
          "internalType": "address",
          "name": "",
          "type": "address"
        }
      ],
      "name": "validators",
      "outputs": [
        {
          "internalType": "uint256",
          "name": "staked",
          "type": "uint256"
        },
        {
          "internalType": "uint256",
          "name": "since",
          "type": "uint256"
        },
        {
          "internalType": "address",
          "name": "addr",
          "type": "address"
        }
      ],
      "stateMutability": "view",
      "type": "function"
    },
    {
      "inputs": [],
      "name": "veRewards",
      "outputs": [
        {
          "internalType": "uint256",
          "name": "",
          "type": "uint256"
        }
      ],
      "stateMutability": "view",
      "type": "function"
    },
    {
      "inputs": [],
      "name": "veStaking",
      "outputs": [
        {
          "internalType": "address",
          "name": "",
          "type": "address"
        }
      ],
      "stateMutability": "view",
      "type": "function"
    },
    {
      "inputs": [],
      "name": "version",
      "outputs": [
        {
          "internalType": "uint256",
          "name": "",
          "type": "uint256"
        }
      ],
      "stateMutability": "view",
      "type": "function"
    },
    {
      "inputs": [
        {
          "internalType": "bytes32",
          "name": "taskid_",
          "type": "bytes32"
        },
        {
          "internalType": "bool",
          "name": "yea_",
          "type": "bool"
        }
      ],
      "name": "voteOnContestation",
      "outputs": [],
      "stateMutability": "nonpayable",
      "type": "function"
    },
    {
      "inputs": [
        {
          "internalType": "bytes32",
          "name": "taskid_",
          "type": "bytes32"
        }
      ],
      "name": "votingPeriodEnded",
      "outputs": [
        {
          "internalType": "bool",
          "name": "",
          "type": "bool"
        }
      ],
      "stateMutability": "view",
      "type": "function"
    },
    {
      "inputs": [],
      "name": "withdrawAccruedFees",
      "outputs": [],
      "stateMutability": "nonpayable",
      "type": "function"
    }
  ],
  "bytecode": "0x60808060405234620000c6576000549060ff8260081c1662000074575060ff8082160362000038575b6040516157e59081620000cc8239f35b60ff90811916176000557f7f26b83ff96e1f2b6a682f133852f6798a09c465da95921460cefb3847402498602060405160ff8152a13862000028565b62461bcd60e51b815260206004820152602760248201527f496e697469616c697a61626c653a20636f6e747261637420697320696e697469604482015266616c697a696e6760c81b6064820152608490fd5b600080fdfe608080604052600436101561001357600080fd5b60003560e01c908162fd7082146131dd5750806305d1bc26146131b557806308745dd11461309a57806308afe0eb14612f3b5780630a98573714612e0b5780630c18d4ce14612de45780630d468d9514612dc65780631466b63a14612d0957806316c38b3c14612c6957806317f3e04114612c3d5780631825c20e14612b065780631b75c43e14612acc5780631f88ea1c14612ab3578063218a304814612a20578063218e6859146129e65780632258d105146129cb5780632943a49014612988578063303fb0d614612957578063393cb1c71461290f5780633d18b912146128f45780633d57f5d9146128d9578063408def1e1461288d57806340e8c56d1461283d5780634421ea21146127d65780634ff03efa1461252e578063506ea7de1461247d57806354fd4d501461245f57806356914caf146122be5780635c975abb1461229857806361d027b31461226f57806365d445fb1461206d578063671f815214611cd7578063682c205814611cb9578063715018a614611c5c57806372dc0ee114611c3e57806375c7050914611bcb578063763253bb146119d257806377286d17146116db5780637881c5e6146116c05780637b36006a146116a25780638129fc1c146115d957806382b5077f146115b05780638365779514611589578063839df9451461155d5780638b4d7b3514610e535780638da5cb5b14610e2a5780638e6d86fd14610e0c5780639280944414610dee57806393a090ec14610c3557806393f1f8ac14610bb957806396bb02c314610b9b5780639b97511914610b7d5780639fd0506d14610b54578063a1975adf14610b36578063a2492a9014610b18578063a4fa8d5714610aff578063a53e252514610ae1578063a8f837f314610a7b578063ada82c7d146109bc578063b4dc35b714610990578063c17ddb2a14610972578063c1f7272314610954578063c24b56311461091a578063c31784be146108fc578063c55dae63146108d3578063cbd2422d14610809578063cf596e45146107e3578063d1f0c94114610799578063d2307ae41461075f578063d278094014610712578063d2992baa146106c1578063d33b2ef514610667578063d8a6021c14610600578063dc06a89f146105e2578063e236f46b14610579578063e579f500146104ee578063f1b8989d146104d0578063f2fde38b14610404578063f43cc773146103e65763fa52c7d81461038e57600080fd5b346103e15760203660031901126103e15760606001600160a01b03806103b261321e565b166000526077602052604060002080549160026001830154920154169060405192835260208301526040820152f35b600080fd5b346103e15760003660031901126103e1576020608654604051908152f35b346103e15760203660031901126103e15761041d61321e565b6104256134f3565b61042d6134f3565b6001600160a01b0390811690811561047c57603354826001600160601b0360a01b821617603355167f8be0079c531659141344cd1fd0a4f28419497f9722a3daafe3b4186f6b6457e0600080a3005b60405162461bcd60e51b815260206004820152602660248201527f4f776e61626c653a206e6577206f776e657220697320746865207a65726f206160448201526564647265737360d01b6064820152608490fd5b346103e15760003660031901126103e1576020606e54604051908152f35b346103e15760203660031901126103e157600435600052607b6020526040600020805461057560018301549260ff61052d60036002840154930161344d565b916040519586958652602086015260018060a01b03811660408601526001600160401b038160a01c16606086015260e01c16608084015260c060a084015260c08301906133be565b0390f35b346103e15760203660031901126103e15760043560005260766020526040600020805461057560018060a01b03600184015416926105be60036002830154920161344d565b906040519485948552602085015260408401526080606084015260808301906133be565b346103e15760003660031901126103e1576020606d54604051908152f35b346103e15760203660031901126103e15761061961321e565b6106216134f3565b606680546001600160a01b0319166001600160a01b039290921691821790557f6bdb9ceff405d990c9b60be9f719fbb80889d5f064e8fd76efd5bea353e90712600080a2005b346103e15760203660031901126103e157600435600052607e60205260806040600020600181549101546040519160018060a01b03811683526001600160401b038160a01c16602084015260e01c60408301526060820152f35b346103e15760403660031901126103e1576001600160a01b036106e261321e565b16600052607960205260406000206024356000526020526040806000206001815491015482519182526020820152f35b346103e15760403660031901126103e15761072b613208565b600435600052607f60205260406000209060018060a01b0316600052602052602060ff604060002054166040519015158152f35b346103e15760203660031901126103e1576001600160a01b0361078061321e565b1660005260786020526020604060002054604051908152f35b346103e1576107a736613357565b906000526081602052604060002080548210156103e1576020916107ca9161336d565b905460405160039290921b1c6001600160a01b03168152f35b346103e15760203660031901126103e15760206108016004356136d3565b604051908152f35b346103e1576020806003193601126103e1576004359061083160ff60675460a01c1615614693565b3360005260798152604060002082600052815260406000206108706040519161085983613275565b8360018254928386520154930192835215156146ed565b5133600052607a8252610889604060002091825461358e565b90553360005260798152604060002090826000525260006001604082208281550155337ff9d5cfcdfe9803069225971ba315f4302add9b477c3441cc363bc38fdb065b90600080a3005b346103e15760003660031901126103e1576065546040516001600160a01b039091168152602090f35b346103e15760003660031901126103e1576020607054604051908152f35b346103e15760203660031901126103e1576001600160a01b0361093b61321e565b1660005260886020526020604060002054604051908152f35b346103e15760003660031901126103e1576020608954604051908152f35b346103e15760003660031901126103e1576020606954604051908152f35b346103e15760203660031901126103e15760043560005260836020526020604060002054604051908152f35b346103e15760003660031901126103e1576109df60ff60675460a01c1615614693565b60655460665460685460405163a9059cbb60e01b81526001600160a01b03928316600482015260248101919091529160209183916044918391600091165af18015610a6f57610a41575b610a3760685460865461358e565b6086556000606855005b610a619060203d8111610a68575b610a5981836132c6565b8101906146c8565b5080610a29565b503d610a4f565b6040513d6000823e3d90fd5b346103e15760203660031901126103e1576004356001600160401b0381168091036103e157610aa86134f3565b806001600160401b0319606a541617606a557fa15d6b0930a82638ac4775bfd1b2e9f1e86be67e1bd3a09fa8a77a8f079769d7600080a2005b346103e15760003660031901126103e1576020607554604051908152f35b346103e1576020610801610b1236613357565b90614521565b346103e15760003660031901126103e1576020608a54604051908152f35b346103e15760003660031901126103e1576020608754604051908152f35b346103e15760003660031901126103e1576067546040516001600160a01b039091168152602090f35b346103e15760003660031901126103e1576020608454604051908152f35b346103e15760003660031901126103e1576020606c54604051908152f35b346103e15760207f0321e8a918b4c47bf3677852c070983825f30a47bc8d9416691454fa6a727d63610bea36613357565b610bf59391936134f3565b6000848152607683526040902060010154610c1a906001600160a01b0316151561354b565b836000526076825280600260406000200155604051908152a2005b346103e15760403660031901126103e157610c4e61321e565b602435610c6360ff60675460a01c1615614693565b6065546040516323b872dd60e01b8152336004820152306024820152604481018390526001600160a01b03916020919082908290606490829060009088165af18015610a6f57610dd1575b50610cbb836086546146e0565b60865581610cc7613602565b94169384600052607782526040600020548482821115610da2575b50505083600052607781526040600020610d0284600183015492546146e0565b9260405160608101908082106001600160401b03831117610d8c577f8d4844488c19a90828439e71d14ebad860806d04f8ef8b25a82179fab2699b8995600292604052815284810193845260408101938885528860005260778652604060002091518255516001820155019151166001600160601b0360a01b8254161790556040519283523392a3005b634e487b7160e01b600052604160045260246000fd5b610dab916146e0565b1015610dba575b848084610ce2565b836000526077815242600160406000200155610db2565b610de790823d8411610a6857610a5981836132c6565b5084610cae565b346103e15760003660031901126103e1576020607154604051908152f35b346103e15760003660031901126103e1576020607454604051908152f35b346103e15760003660031901126103e1576033546040516001600160a01b039091168152602090f35b346103e15760403660031901126103e1576024803563ffffffff81168091036103e157610e8860ff60675460a01c1615614693565b6004356000908152607e60205260409020546001600160a01b03161561151957610eb3600435615392565b156114d55780156114a057600435600052608160205263ffffffff6040600020541691608260205263ffffffff60406000205416607e60205260406000205460e01c9363ffffffff8486011161148b57600435600052607e602052600160406000200154918082116000146112a85782610f2c9161359b565b600182148015611293578182915b1561126c57505060005b865b63ffffffff87890116811061110a575050505050600435600052607e60205260406000205460e01c15610fdd575b505b6004356000908152607e6020526040902080546001600160e01b031683830160e01b6001600160e01b03191617905563ffffffff6040519183011681527f71d8c71303e35a39162e33a402c9897bf9848388537bac7d5e1b0d202eca4e66602060043592a3005b606554607b6020908152604060008181206002810154600190910154925163a9059cbb60e01b81526001600160a01b03918216600482015260248101939093529193849260449284929091165af18015610a6f576110eb575b50600435600052607b60205261105660016040600020015460865461358e565b60865560043560005260836020526040600020549060816020526040600020908154156110d7575060005260018060a01b036020600020541660005260776020526110a760406000209182546146e0565b9055600435600052607d60205260018060a01b036040600020541660005260856020524260406000205582610f74565b634e487b7160e01b60009081526032600452fd5b6111039060203d602011610a6857610a5981836132c6565b5083611036565b8084849210611123575b61111e91506149cb565b610f46565b600435600052608160205261113c81604060002061336d565b60018060a01b0391549060031b1c1680600052607760205260406000206111648882546146e0565b905583826111ed575060655460405163a9059cbb60e01b81526001600160a01b039283166004820152602481019490945260209184916044918391600091165af1918215610a6f5761111e926111ce575b5060866111c385825461358e565b90555b839150611114565b6111e69060203d602011610a6857610a5981836132c6565b50896111b5565b60655460405163a9059cbb60e01b81526001600160a01b039384166004820152602481019290925290935060209184916044918391600091165af1918215610a6f5761111e9261124d575b50608661124684825461358e565b90556111c6565b6112659060203d602011610a6857610a5981836132c6565b5089611238565b61128e916112799161358e565b63ffffffff611287856154fd565b16906135ae565b610f44565b6112a08260011c8361358e565b918291610f3a565b918093506112b59161359b565b60018214801561147f578182915b1561146d57505060005b855b63ffffffff86880116811061130b575050505050600435600052607e60205260406000205460e01c610f7657611306600435614e38565b610f76565b8084849210611324575b61131f91506149cb565b6112cf565b600435600052608260205261133d81604060002061336d565b60018060a01b0391549060031b1c1680600052607760205260406000206113658882546146e0565b905583826113ee575060655460405163a9059cbb60e01b81526001600160a01b039283166004820152602481019490945260209184916044918391600091165af1918215610a6f5761131f926113cf575b5060866113c485825461358e565b90555b839150611315565b6113e79060203d602011610a6857610a5981836132c6565b50886113b6565b60655460405163a9059cbb60e01b81526001600160a01b039384166004820152602481019290925290935060209184916044918391600091165af1918215610a6f5761131f9261144e575b50608661144784825461358e565b90556113c7565b6114669060203d602011610a6857610a5981836132c6565b5088611439565b61147a916112799161358e565b6112cd565b8160011c9182916112c3565b82634e487b7160e01b60005260116004526000fd5b60405162461bcd60e51b815260206004820152600e818401526d185b5b9d081d1bdbc81cdb585b1b60921b6044820152606490fd5b60405162461bcd60e51b8152602060048201526017818401527f766f74696e6720706572696f64206e6f7420656e6465640000000000000000006044820152606490fd5b60405162461bcd60e51b815260206004820152601a818401527f636f6e746573746174696f6e20646f65736e27742065786973740000000000006044820152606490fd5b346103e15760203660031901126103e157600435600052607c6020526020604060002054604051908152f35b346103e15760403660031901126103e15760206108016115a761321e565b602435906153f7565b346103e15760003660031901126103e157608b546040516001600160a01b039091168152602090f35b346103e15760003660031901126103e15760005460ff8160081c161580611695575b156116395760049061ffff1916176000557f7f26b83ff96e1f2b6a682f133852f6798a09c465da95921460cefb3847402498602060405160048152a1005b60405162461bcd60e51b815260206004820152602e60248201527f496e697469616c697a61626c653a20636f6e747261637420697320616c72656160448201526d191e481a5b9a5d1a585b1a5e995960921b6064820152608490fd5b50600460ff8216106115fb565b346103e15760003660031901126103e1576020607354604051908152f35b346103e15760003660031901126103e157602061080161457f565b346103e1576020806003193601126103e15760043561170260ff60675460a01c1615614693565b6000818152607d8084526040808320546001600160a01b03908116845260778652818420548585528387528285205482168552607a875291909320546117479161358e565b61174f613602565b1161198d57826000528084528160406000205416156119535782600052607e8452816040600020541661191b57826000528084526001600160401b038060406000205460a01c1690607154916117a5834261358e565b11156118e357846000528286526117dd6117d460406000205493868516600052608589526040600020546146e0565b607354906146e0565b9160a01c161115611887578260005280845260ff60406000205460e01c166118505790829161184e9483600052526040600020805490600160e01b60ff60e01b198316179055167f0b76b4ae356796814d36b46f7c500bbd27b2cce1e6059a6fa2bebfd5a389b190600080a3614e38565b005b60405162461bcd60e51b815260048101859052600f60248201526e185b1c9958591e4818db185a5b5959608a1b6044820152606490fd5b60405162461bcd60e51b815260048101859052602e60248201527f636c61696d536f6c7574696f6e20636f6f6c646f776e206166746572206c6f7360448201526d3a1031b7b73a32b9ba30ba34b7b760911b6064820152608490fd5b60405162461bcd60e51b815260048101879052601060248201526f6e6f7420656e6f7567682064656c617960801b6044820152606490fd5b60405162461bcd60e51b815260048101859052601060248201526f3430b99031b7b73a32b9ba30ba34b7b760811b6044820152606490fd5b60405162461bcd60e51b81526004810185905260126024820152711cdbdb1d5d1a5bdb881b9bdd08199bdd5b9960721b6044820152606490fd5b60405162461bcd60e51b815260048101859052601c60248201527f76616c696461746f72206d696e207374616b656420746f6f206c6f77000000006044820152606490fd5b346103e15760403660031901126103e1576004356119ee613208565b611a0060ff60675460a01c1615614693565b336000526020906079825260406000208360005282526040600020604051611a2781613275565b611a42600183549384845201549285830193845215156146ed565b514210611b98573360005260778352604060002054815111611b5e57606554815160405163a9059cbb60e01b81526001600160a01b038581166004830152602482019290925292909185908490604490829060009087165af1928315610a6f577f109aeff667601aad33abcb7c5df1617754eefd18253d586a95c198cb479b5bd493611b41575b5080513360005260778652611ae4604060002091825461358e565b9055611af3815160865461358e565b608655805133600052607a8652611b10604060002091825461358e565b90553360005260798552604060002086600052855260006001604082208281550155519260405193845216923392a4005b611b5790863d8811610a6857610a5981836132c6565b5086611ac9565b60405162461bcd60e51b81526004810184905260126024820152711cdd185ad9481a5b9cdd59999a58da595b9d60721b6044820152606490fd5b60405162461bcd60e51b815260048101849052600b60248201526a3bb0b4ba103637b733b2b960a91b6044820152606490fd5b346103e15760203660031901126103e157600435600052607d60205260ff6040600020610575611bff60018354930161344d565b60405193849360018060a01b03811685526001600160401b038160a01c16602086015260e01c16151560408401526080606084015260808301906133be565b346103e15760003660031901126103e1576020606f54604051908152f35b346103e15760003660031901126103e157611c756134f3565b603380546001600160a01b031981169091556000906001600160a01b03167f8be0079c531659141344cd1fd0a4f28419497f9722a3daafe3b4186f6b6457e08280a3005b346103e15760003660031901126103e1576020606854604051908152f35b346103e1576020806003193601126103e15760043590611cff60ff60675460a01c1615614693565b611d10611d0b33614e01565b614dc0565b6000828152607d825260409020546001600160a01b0391908216156120295782600052607e81528160406000205416611fe55782600052607d81526001600160401b0390611d6b8260406000205460a01c16607154906146e0565b421015611fb65783600052607d815260ff60406000205460e01c16611f8c57611d926135ce565b9160405190611da0826132ab565b338252611e3463ffffffff848401928042168452611e1460408601916000835260608701958987528b600052607e89528a60406000209851166001600160601b0360a01b895416178855511686908154906001600160401b0360a01b9060a01b16906001600160401b0360a01b1916179055565b5184546001600160e01b0316911660e01b6001600160e01b031916178355565b5160018092015584337f6958c989e915d3e41a35076e3c480363910055408055ad86ae1ee13d41c40640600080a3607f8252604060002033600052825260406000209360ff199482868254161790558560005260818352611e993360406000206154bd565b85600052607e835281604060002001543360005260778452611ec1604060002091825461358e565b905560405193828552867f1aa9e4be46e24e1f2e7eeb1613c01629213cd42965d2716e18531b63e552e4119586863392a386600052607d84528160406000205416600052607784526040600020541015611f1757005b85600052607d83526040600020541693607f83526040600020856000528352816040600020918254161790558460005260828252611f598460406000206154bd565b84600052607e8252604060002001548360005260778252611f80604060002091825461358e565b905560405160008152a3005b6064906040519062461bcd60e51b8252600482015260036024820152623bba3360e91b6044820152fd5b6064906040519062461bcd60e51b825260048201526008602482015267746f6f206c61746560c01b6044820152fd5b6064906040519062461bcd60e51b82526004820152601b60248201527f636f6e746573746174696f6e20616c72656164792065786973747300000000006044820152fd5b6064906040519062461bcd60e51b82526004820152601760248201527f736f6c7574696f6e20646f6573206e6f742065786973740000000000000000006044820152fd5b346103e15760403660031901126103e1576001600160401b036004358181116103e15761209e9036906004016133e3565b9060249283358181116103e1576120b99036906004016133e3565b94906120cd60ff60675460a01c1615614693565b33600052602091608583526120ed6117d4604060002054607154906146e0565b421115612214576121008660845461359b565b3360005260778452612118604060002091825461358e565b905533600052608883526121316040600020544261358e565b670de0b6b3a76400006121468860875461359b565b0410156121db57336000526088835242604060002055612168611d0b33614e01565b60005b86811061217457005b8060051b90888110156121c65781840135601e19853603018112156103e1578401918235928784116103e15786019280360384136103e1576121c1936121bc928a0135614a64565b6149cb565b61216b565b82634e487b7160e01b60005260326004526000fd5b8260136064926040519262461bcd60e51b84526004840152820152721cdbdb1d5d1a5bdb881c985d19481b1a5b5a5d606a1b6044820152fd5b82602f6084926040519262461bcd60e51b845260048401528201527f7375626d6974536f6c7574696f6e20636f6f6c646f776e206166746572206c6f60448201526e39ba1031b7b73a32b9ba30ba34b7b760891b6064820152fd5b346103e15760003660031901126103e1576066546040516001600160a01b039091168152602090f35b346103e15760003660031901126103e157602060ff60675460a01c166040519015158152f35b346103e15760403660031901126103e1576024356001600160401b0381116103e1576122ee903690600401613248565b61230060ff60675460a01c1615614693565b33600052602091608583526123206117d4604060002054607154906146e0565b42111561240257608454808004600114811517156123ec573360005260778452612350604060002091825461358e565b905533600052608883526123696040600020544261358e565b608754808004600114811517156123ec57670de0b6b3a7640000900410156123b157608861184e933360005252426040600020556123a9611d0b33614e01565b600435614a64565b60405162461bcd60e51b81526004810184905260136024820152721cdbdb1d5d1a5bdb881c985d19481b1a5b5a5d606a1b6044820152606490fd5b634e487b7160e01b600052601160045260246000fd5b60405162461bcd60e51b815260048101849052602f60248201527f7375626d6974536f6c7574696f6e20636f6f6c646f776e206166746572206c6f60448201526e39ba1031b7b73a32b9ba30ba34b7b760891b6064820152608490fd5b346103e15760003660031901126103e1576020606b54604051908152f35b346103e15760203660031901126103e1576004356124a360ff60675460a01c1615614693565b80600052607c6020526040600020546124f5576124be6149da565b81600052607c602052604060002055337f09b4c028a2e50fec6f1c6a0163c59e8fbe92b231e5c03ef3adec585e63a14b92600080a3005b60405162461bcd60e51b8152602060048201526011602482015270636f6d6d69746d656e742065786973747360781b6044820152606490fd5b346103e15760603660031901126103e15761254761321e565b6001600160401b03906044358281116103e157612568903690600401613248565b919061257c60ff60675460a01c1615614693565b6001600160a01b039182169283156127915761259791615513565b90604051936125a5856132ab565b60243585526020948581019485526040810160008152606082019485526125cc338361362f565b9586600052607688526001948086604060002001541661274c579060039392918860005260768a526040600020935184558684019151166001600160601b0360a01b8254161790555160028201550192518051918211610d8c576126308454613413565b601f8111612703575b508590601f83116001146126a057928293918392600094612695575b50501b916000199060031b1c19161790555b60405190807fa4b0af38d049ba81703a0d0e46cc2ff39681210302134046237111a8fb7dee72600080a28152f35b015192508780612655565b90601f198316918560005283886000209360005b8a888383106126ec57505050106126d3575b505050811b019055612667565b015160001960f88460031b161c191690558580806126c6565b8686015188559096019594850194879350016126b4565b8460005286600020601f840160051c810191888510612742575b601f0160051c019084905b828110612736575050612639565b60008155018490612728565b909150819061271d565b60405162461bcd60e51b8152600481018a9052601860248201527f6d6f64656c20616c7265616479207265676973746572656400000000000000006044820152606490fd5b60405162461bcd60e51b815260206004820152601860248201527f61646472657373206d757374206265206e6f6e2d7a65726f00000000000000006044820152606490fd5b346103e15760203660031901126103e1576127ef61321e565b6127f76134f3565b606780546001600160a01b0319166001600160a01b039290921691821790557f5a85b4270fc1e75035e6cd505418ce65e0bcc36cc7eb9ce9e6f8c6181d4cb577600080a2005b346103e15760203660031901126103e1576004356001600160401b0381116103e157612879612873610575923690600401613248565b90615513565b6040519182916020835260208301906133be565b346103e15760203660031901126103e1577f8c854a81cb5c93e7e482d30fb9c6f88fdbdb320f10f7a853c2263659b54e563f60206004356128cc6134f3565b80606b55604051908152a1005b346103e15760003660031901126103e15760206108016135ce565b346103e15760003660031901126103e1576020610801614622565b346103e15760603660031901126103e15761292861321e565b6044356001600160401b0381116103e15760209161294d610801923690600401613248565b9160243590614642565b346103e15761296536613357565b906000526082602052604060002080548210156103e1576020916107ca9161336d565b346103e15760203660031901126103e1576129a161321e565b6129a96134f3565b608b80546001600160a01b0319166001600160a01b0392909216919091179055005b346103e15760003660031901126103e1576020610801613602565b346103e15760203660031901126103e1576001600160a01b03612a0761321e565b1660005260856020526020604060002054604051908152f35b346103e1576003196040368201126103e1576004356001600160401b03918282116103e15760809082360301126103e157604051612a5d816132ab565b81600401358152612a7060248301613234565b60208201526044820135604082015260648201359283116103e157612aa061080192600460209536920101613339565b6060820152612aad613208565b9061362f565b346103e1576020610801612ac636613357565b90614139565b346103e15760203660031901126103e1576001600160a01b03612aed61321e565b16600052607a6020526020604060002054604051908152f35b346103e15760403660031901126103e157600435602435801515908181036103e157612b3a60ff60675460a01c1615614693565b612b46611d0b33614e01565b612b5083336153f7565b612c0a577f1aa9e4be46e24e1f2e7eeb1613c01629213cd42965d2716e18531b63e552e4119083600052602090607f825260406000203360005282526040600020600160ff19825416179055600014612bef578360005260818152612bb93360406000206154bd565b83600052607e81526001604060002001543360005260778252612be2604060002091825461358e565b90556040519283523392a3005b8360005260828152612c053360406000206154bd565b612bb9565b60405162461bcd60e51b815260206004820152600b60248201526a1b9bdd08185b1b1bddd95960aa1b6044820152606490fd5b346103e15760203660031901126103e15760043560005260806020526020604060002054604051908152f35b346103e15760203660031901126103e1576004358015158091036103e1576067546001600160a01b0381163303612cd75760ff60a01b191660a082901b60ff60a01b16176067557fd83d5281277e107f080e362699d46082adb74e7dc6a9bccbc87d8ae9533add44600080a2005b60405162461bcd60e51b815260206004820152600a6024820152693737ba103830bab9b2b960b11b6044820152606490fd5b346103e1576003196060368201126103e1576004356001600160401b03918282116103e15760c09082360301126103e157604051612d4681613290565b8160040135815260248201356020820152612d6360448301613234565b6040820152606482013583811681036103e1576060820152608482013560ff811681036103e157608082015260a48201359283116103e157612db061080192600460209536920101613339565b60a0820152612dbd613208565b60443591613688565b346103e15760003660031901126103e1576020608c54604051908152f35b346103e15760003660031901126103e15760206001600160401b03606a5416604051908152f35b346103e1576020806003193601126103e157600435612e3260ff60675460a01c1615614693565b336000526077825280612e54604060002054607a85526040600020549061358e565b10612f1c57612e65607554426146e0565b9033600052607883526040600020805490600182018092116123ec57553360005260788352604060002054918291604051612e9f81613275565b8281526001868201838152336000526079885260406000208660005288526040600020925183555191015533600052607a85526040600020612ee28282546146e0565b9055604051918252848201527fcc7e0e76b20394ef965d71c4111d21e1b322bb8775dc2c7acd29eb0d3c3dd96d60403392a3604051908152f35b60405162461bcd60e51b81526004810183905260006024820152604490fd5b346103e15760c03660031901126103e157612f546131f8565b612f5c613208565b9060443591606435916084356001600160401b0381116103e157612f84903690600401613248565b929094612fe860a43594612fa060ff60675460a01c1615614693565b6000838152607660205260409020600101546001600160a01b039890612fc9908a16151561354b565b836000526076602052612fe360406000205489101561472d565b615513565b9160005b8581106130845760008787602061303b8c6065541661300b848661359b565b6040516323b872dd60e01b8152336004820152306024820152604481019190915295869283919082906064820190565b03925af1918215610a6f576130619361305993613066575b5061359b565b6086546146e0565b608655005b61307d9060203d8111610a6857610a5981836132c6565b5084613053565b613095906121bc858986868a614779565b612fec565b346103e15760a03660031901126103e1576130b36131f8565b6130bb613208565b60443590606435926084356001600160401b0381116103e15761314393613149936130eb87933690600401613248565b61310060ff60679993995460a01c1615614693565b6000848152607660205260409020600101546001600160a01b039890613129908a16151561354b565b846000526076602052612fe360406000205487101561472d565b93614779565b6065546040516323b872dd60e01b815233600482015230602482015260448101849052929160209184916064918391600091165af1918215610a6f5761306192613197575b506086546146e0565b6131ae9060203d8111610a6857610a5981836132c6565b508261318e565b346103e15760203660031901126103e15760206131d3600435615392565b6040519015158152f35b346103e15760003660031901126103e1576020906072548152f35b6004359060ff821682036103e157565b602435906001600160a01b03821682036103e157565b600435906001600160a01b03821682036103e157565b35906001600160a01b03821682036103e157565b9181601f840112156103e1578235916001600160401b0383116103e157602083818601950101116103e157565b604081019081106001600160401b03821117610d8c57604052565b60c081019081106001600160401b03821117610d8c57604052565b608081019081106001600160401b03821117610d8c57604052565b90601f801991011681019081106001600160401b03821117610d8c57604052565b6001600160401b038111610d8c57601f01601f191660200190565b92919261330e826132e7565b9161331c60405193846132c6565b8294818452818301116103e1578281602093846000960137010152565b9080601f830112156103e15781602061335493359101613302565b90565b60409060031901126103e1576004359060243590565b80548210156133855760005260206000200190600090565b634e487b7160e01b600052603260045260246000fd5b60005b8381106133ae5750506000910152565b818101518382015260200161339e565b906020916133d78151809281855285808601910161339b565b601f01601f1916010190565b9181601f840112156103e1578235916001600160401b0383116103e1576020808501948460051b0101116103e157565b90600182811c92168015613443575b602083101461342d57565b634e487b7160e01b600052602260045260246000fd5b91607f1691613422565b906040519182600082549261346184613413565b9081845260019485811690816000146134d0575060011461348d575b505061348b925003836132c6565b565b9093915060005260209081600020936000915b8183106134b857505061348b9350820101388061347d565b855488840185015294850194879450918301916134a0565b91505061348b94506020925060ff191682840152151560051b820101388061347d565b6033546001600160a01b0316330361350757565b606460405162461bcd60e51b815260206004820152602060248201527f4f776e61626c653a2063616c6c6572206973206e6f7420746865206f776e65726044820152fd5b1561355257565b60405162461bcd60e51b81526020600482015260146024820152731b5bd9195b08191bd95cc81b9bdd08195e1a5cdd60621b6044820152606490fd5b919082039182116123ec57565b818102929181159184041417156123ec57565b81156135b8570490565b634e487b7160e01b600052601260045260246000fd5b6135d661457f565b606d5490670de0b6b3a7640000918203918083116123ec576135fb613354938361359b565b049061358e565b61360a61457f565b606c5490670de0b6b3a7640000918203918083116123ec576135fb613354938361359b565b61368260018060a01b036136748160208501511693606081519101519060405195869460208601981688526040850152606084015260808084015260a08301906133be565b03601f1981018352826132c6565b51902090565b90916136829061367483519360a0602082015191015190604051958694602086019860018060a01b0316895260408601526060850152608084015260a08084015260c08301906133be565b63bbf81e008111613761576136e790613770565b680a688906bd8affffff81116137495761370e670de0b6b3a7640000809260401b046138bb565b9081156135b857697f0e10af47c1c700000091785f95e44a0e2947c3011ad48e1abf7023b57000000000000000040481039081116123ec5790565b6024906040519063b3b6ba1f60e01b82526004820152fd5b50697f0e10af47c1c700000090565b670de0b6b3a76400009190600019838209838202918280831092039180830392146137fe576301e1338090818310156137db57947f98f5be4dd1e14769fbd6666224dc1eb80dd2e0a3d2c8b328f57e76b7ae10395794950990828211900360f91b910360071c170290565b6064918660405192630c740aef60e31b8452600484015260248301526044820152fd5b50506301e1338090049150565b670de0b6b3a76400009160001983830992808302928380861095039480860395146138ae578285101561388b57908291096001821901821680920460028082600302188083028203028083028203028083028203028083028203028083028203028092029003029360018380600003040190848311900302920304170290565b8260649260405192630c740aef60e31b8452600484015260248301526044820152fd5b50509061335492506135ae565b600160bf1b67ff000000000000008216614010575b670de0b6b3a76400009066ff0000000000008316613f00575b65ff00000000008316613df8575b64ff000000008316613cf8575b63ff0000008316613c00575b62ff00008316613b10575b61ff008316613a28575b60ff831661393a575b029060401c60bf031c90565b60808316613a15575b6040808416613a01575b602084166139ed575b601084166139d9575b600884166139c5575b600484166139b1575b6002841661399d575b60018416613989575b5061392e565b906801000000000000000102901c38613983565b906801000000000000000102811c9061397a565b906801000000000000000302811c90613971565b906801000000000000000602811c90613968565b906801000000000000000b02811c9061395f565b906801000000000000001602811c90613956565b906801000000000000002c02811c9061394d565b680100000000000000590260401c613943565b6180008316613afd575b6140008316613aea575b6120008316613ad7575b6110008316613ac4575b6108008316613ab1575b6104008316613a9e575b6102008316613a8b575b61010083161561392557680100000000000000b10260401c613925565b680100000000000001630260401c613a6e565b680100000000000002c60260401c613a64565b6801000000000000058c0260401c613a5a565b68010000000000000b170260401c613a50565b6801000000000000162e0260401c613a46565b68010000000000002c5d0260401c613a3c565b680100000000000058b90260401c613a32565b628000008316613bed575b624000008316613bda575b622000008316613bc7575b621000008316613bb4575b620800008316613ba1575b620400008316613b8e575b620200008316613b7b575b6201000083161561391b576801000000000000b1720260401c61391b565b680100000000000162e40260401c613b5d565b6801000000000002c5c80260401c613b52565b68010000000000058b910260401c613b47565b680100000000000b17210260401c613b3c565b68010000000000162e430260401c613b31565b680100000000002c5c860260401c613b26565b6801000000000058b90c0260401c613b1b565b63800000008316613ce5575b63400000008316613cd2575b63200000008316613cbf575b63100000008316613cac575b63080000008316613c99575b63040000008316613c86575b63020000008316613c73575b63010000008316156139105768010000000000b172180260401c613910565b6801000000000162e4300260401c613c54565b68010000000002c5c8600260401c613c48565b680100000000058b90c00260401c613c3c565b6801000000000b17217f0260401c613c30565b680100000000162e42ff0260401c613c24565b6801000000002c5c85fe0260401c613c18565b68010000000058b90bfc0260401c613c0c565b6480000000008316613de5575b6440000000008316613dd2575b6420000000008316613dbf575b6410000000008316613dac575b6408000000008316613d99575b6404000000008316613d86575b6402000000008316613d73575b64010000000083161561390457680100000000b17217f80260401c613904565b68010000000162e42ff10260401c613d53565b680100000002c5c85fe30260401c613d46565b6801000000058b90bfce0260401c613d39565b68010000000b17217fbb0260401c613d2c565b6801000000162e42fff00260401c613d1f565b68010000002c5c8601cc0260401c613d12565b680100000058b90c0b490260401c613d05565b658000000000008316613eed575b654000000000008316613eda575b652000000000008316613ec7575b651000000000008316613eb4575b650800000000008316613ea1575b650400000000008316613e8e575b650200000000008316613e7b575b650100000000008316156138f7576801000000b1721835510260401c6138f7565b680100000162e430e5a20260401c613e5a565b6801000002c5c863b73f0260401c613e4c565b68010000058b90cf1e6e0260401c613e3e565b680100000b1721bcfc9a0260401c613e30565b68010000162e43f4f8310260401c613e22565b680100002c5c89d5ec6d0260401c613e14565b6801000058b91b5bc9ae0260401c613e06565b66800000000000008316613ffd575b66400000000000008316613fea575b66200000000000008316613fd7575b66100000000000008316613fc4575b66080000000000008316613fb1575b66040000000000008316613f9e575b66020000000000008316613f8b575b66010000000000008316156138e95768010000b17255775c040260401c6138e9565b6801000162e525ee05470260401c613f69565b68010002c5cc37da94920260401c613f5a565b680100058ba01fb9f96d0260401c613f4b565b6801000b175effdc76ba0260401c613f3c565b680100162f3904051fa10260401c613f2d565b6801002c605e2e8cec500260401c613f1e565b68010058c86da1c09ea20260401c613f0f565b6780000000000000008216614126575b670de0b6b3a7640000906740000000000000008316614113575b6720000000000000008316614100575b67100000000000000083166140ed575b67080000000000000083166140da575b67040000000000000083166140c7575b67020000000000000083166140b4575b67010000000000000083166140a1575b90506138d0565b680100b1afa5abcbed610260401c61409a565b68010163da9fb33356d80260401c61408a565b680102c9a3e778060ee70260401c61407a565b6801059b0d31585743ae0260401c61406a565b68010b5586cf9890f62a0260401c61405a565b6801172b83c7d517adce0260401c61404a565b6801306fe0a31b7152df0260401c61403a565b5068016a09e667f3bcc909607f1b614020565b801515806143f6575b156143c657614150906136d3565b90600160ff1b80821480156143bd575b61430a5760008212156143b457614188826000035b60008512156143ad57846000039061380b565b6001600160ff1b039283821161438f5760001994600091188512156143885750915b670cf4ad2e86166c9c831261437757670de0b6b3a763ffff1992808401906001818313166123ec57838214801561436f575b61435d57600082121561435357670de0b6b3a76400006141ff9160000301614482565b9082821161432c578568056bc75e2d6310000060009218136000146143255750925b83018381136001166123ec5783126001166123ec576801158e460913d0000083121561431c5760008312938415614282575050811461427057613354911561426b576000036143ff565b6143ff565b60405163ec2b9e6760e01b8152600490fd5b919261428f9194506143ff565b91821461430a57600082121561430457816000035b80156135b8576ec097ce7bc90715b34b9f1000000000049283116142dd57600091670de0b6b3a76400001813156142d9575090565b0390565b60405163d49c26b360e01b8152670de0b6b3a7640000600482015260248101839052604490fd5b816142a4565b6040516309fe2b4560e41b8152600490fd5b50505050600090565b0392614221565b6044906040519063120b5b4360e01b8252600482015268056bc75e2d631000006024820152fd5b506141ff81614482565b60405163a6070c2560e01b8152600490fd5b5060006141dc565b5050505068056bc75e2d6310000090565b03916141aa565b604490856040519163d49c26b360e01b835260048301526024820152fd5b849061380b565b61418882614175565b50808314614160565b60405162461bcd60e51b81526020600482015260086024820152676d696e2076616c7360c01b6044820152606490fd5b50811515614142565b60008112156144455768033dd1780914b9711419811261443f57614425906000036143ff565b80156135b8576ec097ce7bc90715b34b9f10000000000590565b50600090565b680a688906bd8affffff811361446b57670de0b6b3a76400006133549160401b056138bb565b60249060405190626c1a0560e31b82526004820152fd5b68056bc75e2d6310000091906000198382098382029182808310920391808303921461451057670de0b6b3a764000090818310156144f257947faccb18165bd6fe31ae1cf318dc5b51eee0e1ba569b88cd74c1773b91fac1066994950990828211900360ee1b910360121c170290565b6044908660405191635173648d60e01b835260048301526024820152fd5b5050670de0b6b3a764000090049150565b90801561457157697f0e10af47c1c7000000908082038281116123ec57670de0b6b3a764000093848202918204851483851417156123ec5761456c9261456691614139565b9061359b565b040490565b5050670de0b6b3a764000090565b6065546040516370a0823160e01b815230600482015290602090829060249082906001600160a01b03165afa908115610a6f576000916145ee575b50697f0e10af47c1c700000090818110156145e7576086546145db9161358e565b81039081116123ec5790565b5050600090565b906020823d821161461a575b81614607602093836132c6565b81010312614617575051386145ba565b80fd5b3d91506145fa565b61335461463a6001600160401b03606a54164261358e565b610b1261457f565b926136829160a091806040519586936020850198600180881b031689526040850152606080850152816080850152848401376000838284010152601f801991011681010360808101845201826132c6565b1561469a57565b60405162461bcd60e51b81526020600482015260066024820152651c185d5cd95960d21b6044820152606490fd5b908160209103126103e1575180151581036103e15790565b919082018092116123ec57565b156146f457565b60405162461bcd60e51b81526020600482015260116024820152701c995c5d595cdd081b9bdd08195e1a5cdd607a1b6044820152606490fd5b1561473457565b60405162461bcd60e51b815260206004820152601860248201527f6c6f77657220666565207468616e206d6f64656c2066656500000000000000006044820152606490fd5b6040519461478686613290565b8386526020918287018681526003604089019860018060a01b038097168a5260608101996001600160401b03948542168c5260ff608084019116815260a08301968752614839866147da6069543387613688565b9d8e976000988952607b8c526040892096518755519b60019c8d880155600287019551166001600160601b0360a01b865416178555511683908154906001600160401b0360a01b9060a01b16906001600160401b0360a01b1916179055565b5181549060ff60e01b9060e01b169060ff60e01b191617905501925180519283116149b7579083929161486e8a969554613413565b601f811161495f575b508491601f84116001146148dd5795967fc3d3e0544c80e3bb83f62659259ae1574f72a91515ab3cae3dd75cf77e1b0aea96928492836148d2575b50501b916000199060031b1c19161790555b6040519485523394a4606955565b0151925038806148b2565b90969291601f198316858352868320925b818110614947575097837fc3d3e0544c80e3bb83f62659259ae1574f72a91515ab3cae3dd75cf77e1b0aea98991061492e575b505050811b0190556148c4565b015160001960f88460031b161c19169055388080614921565b8983015184558c9850928501929187019187016148ee565b90919293809596508352858320601f850160051c8101918786106149ad575b8b97969594939291601f8a920160051c01915b82811061499f575050614877565b8481558c9850899101614991565b909150819061497e565b634e487b7160e01b82526041600452602482fd5b60001981146123ec5760010190565b61a4ba46148015614a58575b8015614a4c575b6149f5574390565b60405163a3b1b31d60e01b815260208160048160645afa908115610a6f57600091614a1e575090565b906020823d8211614a44575b81614a37602093836132c6565b8101031261461757505190565b3d9150614a2a565b5062066eee46146149ed565b5062066eed46146149e6565b91600091838352602091607b83526040918285205415614d8657858552607d8452828520546001600160a01b0392908316614d4257614aa581838933614642565b808752607c86528487205415614cfe578652607c855283862054614ac76149da565b1115614cba57614b0490614b56855193614ae0856132ab565b3385528785016001600160401b039485928342168352898801958c87523691613302565b606087019081528b8b52607d8a52888b2096518754925167ffffffffffffffff60a01b1991909916166001600160e01b0319909216919091179190961660a01b67ffffffffffffffff60a01b16178455565b51825460ff60e01b191690151560e01b60ff60e01b16178255915180516001928301939091908211614ca657614b8c8454613413565b601f8111614c60575b508590601f8311600114614c01579282939183928994614bf6575b50501b916000199060031b1c19161790555b608360845492858552528220557f957c18b5af8413899ea8a576a4d3fb16839a02c9fccfdce098b6d59ef248525b339180a3565b015192503880614bb0565b848852868820919083601f1981168a5b8a88838310614c495750505010614c30575b505050811b019055614bc2565b015160001960f88460031b161c19169055388080614c23565b868601518855909601959485019487935001614c11565b848852868820601f840160051c810191888510614c9c575b601f0160051c019084905b828110614c91575050614b95565b898155018490614c83565b9091508190614c78565b634e487b7160e01b87526041600452602487fd5b835162461bcd60e51b815260048101869052601a60248201527f636f6d6d69746d656e74206d75737420626520696e20706173740000000000006044820152606490fd5b845162461bcd60e51b815260048101879052601760248201527f6e6f6e206578697374656e7420636f6d6d69746d656e740000000000000000006044820152606490fd5b835162461bcd60e51b815260048101869052601a60248201527f736f6c7574696f6e20616c7265616479207375626d69747465640000000000006044820152606490fd5b825162461bcd60e51b81526004810185905260136024820152721d185cdac8191bd95cc81b9bdd08195e1a5cdd606a1b6044820152606490fd5b15614dc757565b60405162461bcd60e51b81526020600482015260126024820152716d696e207374616b656420746f6f206c6f7760701b6044820152606490fd5b60018060a01b03166000526077602052614e2b604060002054607a6020526040600020549061358e565b614e33613602565b111590565b6000818152607b906020918083526040928383205483526076815283832054858452828252818585206001810154831161538a575b82615306575b5050614e8b908685528383526001868620015461358e565b94606e54670de0b6b3a76400009081038181116152f25781614eb0614eb7928a61359b565b048861358e565b96614ec4886068546146e0565b60685583614ed2898361358e565b615266575b5050608b54865163ebe2b12b60e01b81526001600160a01b0392916004919084169086818481855afa90811561516a578991615239575b5042116151c1575b50838752858552878720548752607685526002888820015480614f89575b50505092614f7c9592826001958794614f849a9852608383528585205490607d84528686205416855260778352614f6f8686209182546146e0565b905583525220015461358e565b60865461358e565b608655565b614fa3671bc16d674ec8000091614f9e614622565b61359b565b0490614fb182608c546146e0565b608c558115614f345760705483038381116151ae5783614fd4614fdb928561359b565b048361358e565b92608954810381811161519b5790614fd4614ff6928561359b565b9288876150578760655416898452607d83528d6150228961501d888d858a2054169b61358e565b61358e565b905163a9059cbb60e01b8082526001600160a01b03909916888201908152602081019290925294859384928391604090910190565b03925af18015615191579188916150a293615174575b5086606554168c8c896066541691518096819582948b84528a840160209093929193604081019460018060a01b031681520152565b03925af1801561516a57908793929161514d575b50606554868a528884528a8a20600201548b519384526001600160a01b03908716169183019182526020820194909452909283918290036040019082908a9087165af18015615143579260019592614f7c989592614f849a9895615126575b509295819497995082959850614f34565b61513c90843d8611610a6857610a5981836132c6565b5038615115565b87513d88823e3d90fd5b61516390843d8611610a6857610a5981836132c6565b50386150b6565b8a513d8b823e3d90fd5b61518a90833d8511610a6857610a5981836132c6565b503861506d565b8b513d8c823e3d90fd5b634e487b7160e01b8a526011835260248afd5b634e487b7160e01b895260118252602489fd5b608c54813b15615235578891602483928c519485938492633c6b16ab60e01b8452888401525af1801561522b576151fe575b5086608c5538614f16565b6001600160401b03819892981161521857885295386151f3565b634e487b7160e01b825260418852602482fd5b89513d8a823e3d90fd5b8880fd5b90508681813d831161525f575b61525081836132c6565b81010312615235575138614f0e565b503d615246565b6152c09160018060a01b0361528d8b826065541692888c52607d86528c8c2054169361358e565b8a5163a9059cbb60e01b81526001600160a01b0390931660048401526024830152909283919082908a9082906044820190565b03925af18015615143576152d5575b83614ed7565b6152eb90843d8611610a6857610a5981836132c6565b50386152cf565b634e487b7160e01b86526011600452602486fd5b606554905486526076825286862060010154875163a9059cbb60e01b81526001600160a01b039182166004820152602481018590529291839160449183918a91165af180156153805790614e8b9291615363575b83919250614e73565b61537990843d8611610a6857610a5981836132c6565b503861535a565b86513d87823e3d90fd5b859250614e6d565b6153f29080600052607e6020526153bd6001600160401b0360406000205460a01c16607354906146e0565b9060005260816020526153ec6153e36040600020546082602052604060002054906146e0565b608a549061359b565b906146e0565b421190565b6000828152607e6020526040812054909291906001600160a01b03908116156154b45761542383615392565b6154ab57828452607f602052604084209116835260205260ff6040832054166154a45760776020526001604083200154801561549c576074548082106154935761546c9161358e565b908252607e6020526001600160401b03604083205460a01c161061548d5790565b50600690565b50505050600590565b505050600490565b5050600390565b50505050600290565b50505050600190565b805468010000000000000000811015610d8c576154df9160018201815561336d565b819291549060031b9160018060a01b03809116831b921b1916179055565b63ffffffff90811660001901919082116123ec57565b90620100008111615646576001600160401b03906155328282166156b4565b600061560360409384519061559d60248360209a8b9861558e8a8401966204010960e91b8852825193818d85019561556e8160238a018961339b565b87019160238301370191600360fb1b60238401525180938684019061339b565b010360048101855201836132c6565b6155f360216155ae898551166156b4565b9388519384916155e48a840197600560f91b89526155d58c8251928391898901910161339b565b8401915180938684019061339b565b010360018101845201826132c6565b855192839283925192839161339b565b8101039060025afa1561563c57600051815193609160f51b90850152602284015260228352606083019183831090831117610d8c575290565b513d6000823e3d90fd5b60405162461bcd60e51b815260206004820152601f60248201527f4d617820636f6e74656e742073697a65206973203635353336206279746573006044820152606490fd5b6001600160401b038091169081146123ec5760010190565b908151811015613385570160200190565b600180825b607f6001600160401b0382161161579257506001600160401b0380921690806156e1836132e7565b946156ef60405196876132c6565b838652601f196156fe856132e7565b013660208801376000925b61573f575b505050600019018181116123ec571661573b607f60f81b61572f83856156a3565b511660001a91836156a3565b5390565b8483168481101561578c57615785916701ffffffffffffff91607f821660801760f81b6001600160f81b03191660001a9061577a908a6156a3565b5360071c169261568b565b9181615709565b5061570e565b6701ffffffffffffff6157a99160071c169261568b565b916156b956fea2646970667358221220427c00cf6b0a4957ec40faa31d6c44d1668f691e1800129058d781b97053340d64736f6c63430008130033",
  "linkReferences": {},
  "deployedLinkReferences": {}
}