{
  "_format": "hh-sol-artifact-1",
  "contractName": "V2_EngineV4",
  "sourceName": "contracts/V2_EngineV4.sol",
  "abi": [
    {
      "inputs": [],
      "stateMutability": "nonpayable",
      "type": "constructor"
    },
    {
      "inputs": [
        {
          "internalType": "uint256",
          "name": "x",
          "type": "uint256"
        },
        {
          "internalType": "uint256",
          "name": "y",
          "type": "uint256"
        }
      ],
      "name": "PRBMath_MulDiv18_Overflow",
      "type": "error"
    },
    {
      "inputs": [
        {
          "internalType": "uint256",
          "name": "x",
          "type": "uint256"
        },
        {
          "internalType": "uint256",
          "name": "y",
          "type": "uint256"
        },
        {
          "internalType": "uint256",
          "name": "denominator",
          "type": "uint256"
        }
      ],
      "name": "PRBMath_MulDiv_Overflow",
      "type": "error"
    },
    {
      "inputs": [],
      "name": "PRBMath_SD59x18_Abs_MinSD59x18",
      "type": "error"
    },
    {
      "inputs": [],
      "name": "PRBMath_SD59x18_Div_InputTooSmall",
      "type": "error"
    },
    {
      "inputs": [
        {
          "internalType": "SD59x18",
          "name": "x",
          "type": "int256"
        },
        {
          "internalType": "SD59x18",
          "name": "y",
          "type": "int256"
        }
      ],
      "name": "PRBMath_SD59x18_Div_Overflow",
      "type": "error"
    },
    {
      "inputs": [
        {
          "internalType": "SD59x18",
          "name": "x",
          "type": "int256"
        }
      ],
      "name": "PRBMath_SD59x18_Exp2_InputTooBig",
      "type": "error"
    },
    {
      "inputs": [],
      "name": "PRBMath_SD59x18_Mul_InputTooSmall",
      "type": "error"
    },
    {
      "inputs": [
        {
          "internalType": "SD59x18",
          "name": "x",
          "type": "int256"
        },
        {
          "internalType": "SD59x18",
          "name": "y",
          "type": "int256"
        }
      ],
      "name": "PRBMath_SD59x18_Mul_Overflow",
      "type": "error"
    },
    {
      "inputs": [
        {
          "internalType": "UD60x18",
          "name": "x",
          "type": "uint256"
        }
      ],
      "name": "PRBMath_UD60x18_Exp2_InputTooBig",
      "type": "error"
    },
    {
      "anonymous": false,
      "inputs": [
        {
          "indexed": true,
          "internalType": "address",
          "name": "addr",
          "type": "address"
        },
        {
          "indexed": true,
          "internalType": "bytes32",
          "name": "task",
          "type": "bytes32"
        }
      ],
      "name": "ContestationSubmitted",
      "type": "event"
    },
    {
      "anonymous": false,
      "inputs": [
        {
          "indexed": true,
          "internalType": "address",
          "name": "addr",
          "type": "address"
        },
        {
          "indexed": true,
          "internalType": "bytes32",
          "name": "task",
          "type": "bytes32"
        },
        {
          "indexed": false,
          "internalType": "bool",
          "name": "yea",
          "type": "bool"
        }
      ],
      "name": "ContestationVote",
      "type": "event"
    },
    {
      "anonymous": false,
      "inputs": [
        {
          "indexed": true,
          "internalType": "bytes32",
          "name": "id",
          "type": "bytes32"
        },
        {
          "indexed": true,
          "internalType": "uint32",
          "name": "start_idx",
          "type": "uint32"
        },
        {
          "indexed": false,
          "internalType": "uint32",
          "name": "end_idx",
          "type": "uint32"
        }
      ],
      "name": "ContestationVoteFinish",
      "type": "event"
    },
    {
      "anonymous": false,
      "inputs": [
        {
          "indexed": false,
          "internalType": "uint8",
          "name": "version",
          "type": "uint8"
        }
      ],
      "name": "Initialized",
      "type": "event"
    },
    {
      "anonymous": false,
      "inputs": [
        {
          "indexed": true,
          "internalType": "bytes32",
          "name": "id",
          "type": "bytes32"
        }
      ],
      "name": "ModelRegistered",
      "type": "event"
    },
    {
      "anonymous": false,
      "inputs": [
        {
          "indexed": true,
          "internalType": "address",
          "name": "previousOwner",
          "type": "address"
        },
        {
          "indexed": true,
          "internalType": "address",
          "name": "newOwner",
          "type": "address"
        }
      ],
      "name": "OwnershipTransferred",
      "type": "event"
    },
    {
      "anonymous": false,
      "inputs": [
        {
          "indexed": true,
          "internalType": "bool",
          "name": "paused",
          "type": "bool"
        }
      ],
      "name": "PausedChanged",
      "type": "event"
    },
    {
      "anonymous": false,
      "inputs": [
        {
          "indexed": true,
          "internalType": "address",
          "name": "to",
          "type": "address"
        }
      ],
      "name": "PauserTransferred",
      "type": "event"
    },
    {
      "anonymous": false,
      "inputs": [
        {
          "indexed": true,
          "internalType": "address",
          "name": "addr",
          "type": "address"
        },
        {
          "indexed": true,
          "internalType": "bytes32",
          "name": "commitment",
          "type": "bytes32"
        }
      ],
      "name": "SignalCommitment",
      "type": "event"
    },
    {
      "anonymous": false,
      "inputs": [
        {
          "indexed": true,
          "internalType": "address",
          "name": "addr",
          "type": "address"
        },
        {
          "indexed": true,
          "internalType": "bytes32",
          "name": "task",
          "type": "bytes32"
        }
      ],
      "name": "SolutionClaimed",
      "type": "event"
    },
    {
      "anonymous": false,
      "inputs": [
        {
          "indexed": true,
          "internalType": "bytes32",
          "name": "id",
          "type": "bytes32"
        },
        {
          "indexed": false,
          "internalType": "uint256",
          "name": "rate",
          "type": "uint256"
        }
      ],
      "name": "SolutionMineableRateChange",
      "type": "event"
    },
    {
      "anonymous": false,
      "inputs": [
        {
          "indexed": true,
          "internalType": "address",
          "name": "addr",
          "type": "address"
        },
        {
          "indexed": true,
          "internalType": "bytes32",
          "name": "task",
          "type": "bytes32"
        }
      ],
      "name": "SolutionSubmitted",
      "type": "event"
    },
    {
      "anonymous": false,
      "inputs": [
        {
          "indexed": true,
          "internalType": "uint64",
          "name": "startBlockTime",
          "type": "uint64"
        }
      ],
      "name": "StartBlockTimeChanged",
      "type": "event"
    },
    {
      "anonymous": false,
      "inputs": [
        {
          "indexed": true,
          "internalType": "bytes32",
          "name": "id",
          "type": "bytes32"
        },
        {
          "indexed": true,
          "internalType": "bytes32",
          "name": "model",
          "type": "bytes32"
        },
        {
          "indexed": false,
          "internalType": "uint256",
          "name": "fee",
          "type": "uint256"
        },
        {
          "indexed": true,
          "internalType": "address",
          "name": "sender",
          "type": "address"
        }
      ],
      "name": "TaskSubmitted",
      "type": "event"
    },
    {
      "anonymous": false,
      "inputs": [
        {
          "indexed": true,
          "internalType": "address",
          "name": "to",
          "type": "address"
        }
      ],
      "name": "TreasuryTransferred",
      "type": "event"
    },
    {
      "anonymous": false,
      "inputs": [
        {
          "indexed": true,
          "internalType": "address",
          "name": "addr",
          "type": "address"
        },
        {
          "indexed": true,
          "internalType": "address",
          "name": "validator",
          "type": "address"
        },
        {
          "indexed": false,
          "internalType": "uint256",
          "name": "amount",
          "type": "uint256"
        }
      ],
      "name": "ValidatorDeposit",
      "type": "event"
    },
    {
      "anonymous": false,
      "inputs": [
        {
          "indexed": true,
          "internalType": "address",
          "name": "addr",
          "type": "address"
        },
        {
          "indexed": true,
          "internalType": "address",
          "name": "to",
          "type": "address"
        },
        {
          "indexed": true,
          "internalType": "uint256",
          "name": "count",
          "type": "uint256"
        },
        {
          "indexed": false,
          "internalType": "uint256",
          "name": "amount",
          "type": "uint256"
        }
      ],
      "name": "ValidatorWithdraw",
      "type": "event"
    },
    {
      "anonymous": false,
      "inputs": [
        {
          "indexed": true,
          "internalType": "address",
          "name": "addr",
          "type": "address"
        },
        {
          "indexed": true,
          "internalType": "uint256",
          "name": "count",
          "type": "uint256"
        }
      ],
      "name": "ValidatorWithdrawCancelled",
      "type": "event"
    },
    {
      "anonymous": false,
      "inputs": [
        {
          "indexed": true,
          "internalType": "address",
          "name": "addr",
          "type": "address"
        },
        {
          "indexed": true,
          "internalType": "uint256",
          "name": "count",
          "type": "uint256"
        },
        {
          "indexed": false,
          "internalType": "uint256",
          "name": "unlockTime",
          "type": "uint256"
        },
        {
          "indexed": false,
          "internalType": "uint256",
          "name": "amount",
          "type": "uint256"
        }
      ],
      "name": "ValidatorWithdrawInitiated",
      "type": "event"
    },
    {
      "anonymous": false,
      "inputs": [
        {
          "indexed": false,
          "internalType": "uint256",
          "name": "version",
          "type": "uint256"
        }
      ],
      "name": "VersionChanged",
      "type": "event"
    },
    {
      "inputs": [],
      "name": "accruedFees",
      "outputs": [
        {
          "internalType": "uint256",
          "name": "",
          "type": "uint256"
        }
      ],
      "stateMutability": "view",
      "type": "function"
    },
    {
      "inputs": [],
      "name": "baseToken",
      "outputs": [
        {
          "internalType": "contract IBaseToken",
          "name": "",
          "type": "address"
        }
      ],
      "stateMutability": "view",
      "type": "function"
    },
    {
      "inputs": [
        {
          "internalType": "bytes32[]",
          "name": "taskids_",
          "type": "bytes32[]"
        },
        {
          "internalType": "bytes[]",
          "name": "cids_",
          "type": "bytes[]"
        }
      ],
      "name": "bulkSubmitSolution",
      "outputs": [],
      "stateMutability": "nonpayable",
      "type": "function"
    },
    {
      "inputs": [
        {
          "internalType": "uint8",
          "name": "version_",
          "type": "uint8"
        },
        {
          "internalType": "address",
          "name": "owner_",
          "type": "address"
        },
        {
          "internalType": "bytes32",
          "name": "model_",
          "type": "bytes32"
        },
        {
          "internalType": "uint256",
          "name": "fee_",
          "type": "uint256"
        },
        {
          "internalType": "bytes",
          "name": "input_",
          "type": "bytes"
        },
        {
          "internalType": "uint256",
          "name": "n_",
          "type": "uint256"
        }
      ],
      "name": "bulkSubmitTask",
      "outputs": [],
      "stateMutability": "nonpayable",
      "type": "function"
    },
    {
      "inputs": [
        {
          "internalType": "uint256",
          "name": "count_",
          "type": "uint256"
        }
      ],
      "name": "cancelValidatorWithdraw",
      "outputs": [],
      "stateMutability": "nonpayable",
      "type": "function"
    },
    {
      "inputs": [
        {
          "internalType": "bytes32",
          "name": "taskid_",
          "type": "bytes32"
        }
      ],
      "name": "claimSolution",
      "outputs": [],
      "stateMutability": "nonpayable",
      "type": "function"
    },
    {
      "inputs": [
        {
          "internalType": "bytes32",
          "name": "",
          "type": "bytes32"
        }
      ],
      "name": "commitments",
      "outputs": [
        {
          "internalType": "uint256",
          "name": "",
          "type": "uint256"
        }
      ],
      "stateMutability": "view",
      "type": "function"
    },
    {
      "inputs": [],
      "name": "contestationVoteExtensionTime",
      "outputs": [
        {
          "internalType": "uint256",
          "name": "",
          "type": "uint256"
        }
      ],
      "stateMutability": "view",
      "type": "function"
    },
    {
      "inputs": [
        {
          "internalType": "bytes32",
          "name": "taskid_",
          "type": "bytes32"
        },
        {
          "internalType": "uint32",
          "name": "amnt_",
          "type": "uint32"
        }
      ],
      "name": "contestationVoteFinish",
      "outputs": [],
      "stateMutability": "nonpayable",
      "type": "function"
    },
    {
      "inputs": [
        {
          "internalType": "bytes32",
          "name": "",
          "type": "bytes32"
        },
        {
          "internalType": "uint256",
          "name": "",
          "type": "uint256"
        }
      ],
      "name": "contestationVoteNays",
      "outputs": [
        {
          "internalType": "address",
          "name": "",
          "type": "address"
        }
      ],
      "stateMutability": "view",
      "type": "function"
    },
    {
      "inputs": [
        {
          "internalType": "bytes32",
          "name": "",
          "type": "bytes32"
        },
        {
          "internalType": "uint256",
          "name": "",
          "type": "uint256"
        }
      ],
      "name": "contestationVoteYeas",
      "outputs": [
        {
          "internalType": "address",
          "name": "",
          "type": "address"
        }
      ],
      "stateMutability": "view",
      "type": "function"
    },
    {
      "inputs": [
        {
          "internalType": "bytes32",
          "name": "",
          "type": "bytes32"
        },
        {
          "internalType": "address",
          "name": "",
          "type": "address"
        }
      ],
      "name": "contestationVoted",
      "outputs": [
        {
          "internalType": "bool",
          "name": "",
          "type": "bool"
        }
      ],
      "stateMutability": "view",
      "type": "function"
    },
    {
      "inputs": [
        {
          "internalType": "bytes32",
          "name": "",
          "type": "bytes32"
        }
      ],
      "name": "contestationVotedIndex",
      "outputs": [
        {
          "internalType": "uint256",
          "name": "",
          "type": "uint256"
        }
      ],
      "stateMutability": "view",
      "type": "function"
    },
    {
      "inputs": [
        {
          "internalType": "bytes32",
          "name": "",
          "type": "bytes32"
        }
      ],
      "name": "contestations",
      "outputs": [
        {
          "internalType": "address",
          "name": "validator",
          "type": "address"
        },
        {
          "internalType": "uint64",
          "name": "blocktime",
          "type": "uint64"
        },
        {
          "internalType": "uint32",
          "name": "finish_start_index",
          "type": "uint32"
        },
        {
          "internalType": "uint256",
          "name": "slashAmount",
          "type": "uint256"
        }
      ],
      "stateMutability": "view",
      "type": "function"
    },
    {
      "inputs": [
        {
          "internalType": "uint256",
          "name": "t",
          "type": "uint256"
        },
        {
          "internalType": "uint256",
          "name": "ts",
          "type": "uint256"
        }
      ],
      "name": "diffMul",
      "outputs": [
        {
          "internalType": "uint256",
          "name": "",
          "type": "uint256"
        }
      ],
      "stateMutability": "pure",
      "type": "function"
    },
    {
      "inputs": [],
      "name": "exitValidatorMinUnlockTime",
      "outputs": [
        {
          "internalType": "uint256",
          "name": "",
          "type": "uint256"
        }
      ],
      "stateMutability": "view",
      "type": "function"
    },
    {
      "inputs": [
        {
          "internalType": "address",
          "name": "sender_",
          "type": "address"
        },
        {
          "internalType": "bytes32",
          "name": "taskid_",
          "type": "bytes32"
        },
        {
          "internalType": "bytes",
          "name": "cid_",
          "type": "bytes"
        }
      ],
      "name": "generateCommitment",
      "outputs": [
        {
          "internalType": "bytes32",
          "name": "",
          "type": "bytes32"
        }
      ],
      "stateMutability": "pure",
      "type": "function"
    },
    {
      "inputs": [
        {
          "internalType": "bytes",
          "name": "content_",
          "type": "bytes"
        }
      ],
      "name": "generateIPFSCID",
      "outputs": [
        {
          "internalType": "bytes",
          "name": "",
          "type": "bytes"
        }
      ],
      "stateMutability": "pure",
      "type": "function"
    },
    {
      "inputs": [],
      "name": "getPsuedoTotalSupply",
      "outputs": [
        {
          "internalType": "uint256",
          "name": "",
          "type": "uint256"
        }
      ],
      "stateMutability": "view",
      "type": "function"
    },
    {
      "inputs": [],
      "name": "getReward",
      "outputs": [
        {
          "internalType": "uint256",
          "name": "",
          "type": "uint256"
        }
      ],
      "stateMutability": "view",
      "type": "function"
    },
    {
      "inputs": [],
      "name": "getSlashAmount",
      "outputs": [
        {
          "internalType": "uint256",
          "name": "",
          "type": "uint256"
        }
      ],
      "stateMutability": "view",
      "type": "function"
    },
    {
      "inputs": [],
      "name": "getValidatorMinimum",
      "outputs": [
        {
          "internalType": "uint256",
          "name": "",
          "type": "uint256"
        }
      ],
      "stateMutability": "view",
      "type": "function"
    },
    {
      "inputs": [
        {
          "components": [
            {
              "internalType": "uint256",
              "name": "fee",
              "type": "uint256"
            },
            {
              "internalType": "address",
              "name": "addr",
              "type": "address"
            },
            {
              "internalType": "uint256",
              "name": "rate",
              "type": "uint256"
            },
            {
              "internalType": "bytes",
              "name": "cid",
              "type": "bytes"
            }
          ],
          "internalType": "struct Model",
          "name": "o_",
          "type": "tuple"
        },
        {
          "internalType": "address",
          "name": "sender_",
          "type": "address"
        }
      ],
      "name": "hashModel",
      "outputs": [
        {
          "internalType": "bytes32",
          "name": "",
          "type": "bytes32"
        }
      ],
      "stateMutability": "pure",
      "type": "function"
    },
    {
      "inputs": [
        {
          "components": [
            {
              "internalType": "bytes32",
              "name": "model",
              "type": "bytes32"
            },
            {
              "internalType": "uint256",
              "name": "fee",
              "type": "uint256"
            },
            {
              "internalType": "address",
              "name": "owner",
              "type": "address"
            },
            {
              "internalType": "uint64",
              "name": "blocktime",
              "type": "uint64"
            },
            {
              "internalType": "uint8",
              "name": "version",
              "type": "uint8"
            },
            {
              "internalType": "bytes",
              "name": "cid",
              "type": "bytes"
            }
          ],
          "internalType": "struct Task",
          "name": "o_",
          "type": "tuple"
        },
        {
          "internalType": "address",
          "name": "sender_",
          "type": "address"
        },
        {
          "internalType": "bytes32",
          "name": "prevhash_",
          "type": "bytes32"
        }
      ],
      "name": "hashTask",
      "outputs": [
        {
          "internalType": "bytes32",
          "name": "",
          "type": "bytes32"
        }
      ],
      "stateMutability": "pure",
      "type": "function"
    },
    {
      "inputs": [],
      "name": "initialize",
      "outputs": [],
      "stateMutability": "nonpayable",
      "type": "function"
    },
    {
      "inputs": [
        {
          "internalType": "uint256",
          "name": "amount_",
          "type": "uint256"
        }
      ],
      "name": "initiateValidatorWithdraw",
      "outputs": [
        {
          "internalType": "uint256",
          "name": "",
          "type": "uint256"
        }
      ],
      "stateMutability": "nonpayable",
      "type": "function"
    },
    {
      "inputs": [
        {
          "internalType": "address",
          "name": "",
          "type": "address"
        }
      ],
      "name": "lastContestationLossTime",
      "outputs": [
        {
          "internalType": "uint256",
          "name": "",
          "type": "uint256"
        }
      ],
      "stateMutability": "view",
      "type": "function"
    },
    {
      "inputs": [
        {
          "internalType": "address",
          "name": "",
          "type": "address"
        }
      ],
      "name": "lastSolutionSubmission",
      "outputs": [
        {
          "internalType": "uint256",
          "name": "",
          "type": "uint256"
        }
      ],
      "stateMutability": "view",
      "type": "function"
    },
    {
      "inputs": [],
      "name": "maxContestationValidatorStakeSince",
      "outputs": [
        {
          "internalType": "uint256",
          "name": "",
          "type": "uint256"
        }
      ],
      "stateMutability": "view",
      "type": "function"
    },
    {
      "inputs": [],
      "name": "minClaimSolutionTime",
      "outputs": [
        {
          "internalType": "uint256",
          "name": "",
          "type": "uint256"
        }
      ],
      "stateMutability": "view",
      "type": "function"
    },
    {
      "inputs": [],
      "name": "minContestationVotePeriodTime",
      "outputs": [
        {
          "internalType": "uint256",
          "name": "",
          "type": "uint256"
        }
      ],
      "stateMutability": "view",
      "type": "function"
    },
    {
      "inputs": [],
      "name": "minRetractionWaitTime",
      "outputs": [
        {
          "internalType": "uint256",
          "name": "",
          "type": "uint256"
        }
      ],
      "stateMutability": "view",
      "type": "function"
    },
    {
      "inputs": [
        {
          "internalType": "bytes32",
          "name": "",
          "type": "bytes32"
        }
      ],
      "name": "models",
      "outputs": [
        {
          "internalType": "uint256",
          "name": "fee",
          "type": "uint256"
        },
        {
          "internalType": "address",
          "name": "addr",
          "type": "address"
        },
        {
          "internalType": "uint256",
          "name": "rate",
          "type": "uint256"
        },
        {
          "internalType": "bytes",
          "name": "cid",
          "type": "bytes"
        }
      ],
      "stateMutability": "view",
      "type": "function"
    },
    {
      "inputs": [],
      "name": "owner",
      "outputs": [
        {
          "internalType": "address",
          "name": "",
          "type": "address"
        }
      ],
      "stateMutability": "view",
      "type": "function"
    },
    {
      "inputs": [],
      "name": "paused",
      "outputs": [
        {
          "internalType": "bool",
          "name": "",
          "type": "bool"
        }
      ],
      "stateMutability": "view",
      "type": "function"
    },
    {
      "inputs": [],
      "name": "pauser",
      "outputs": [
        {
          "internalType": "address",
          "name": "",
          "type": "address"
        }
      ],
      "stateMutability": "view",
      "type": "function"
    },
    {
      "inputs": [
        {
          "internalType": "address",
          "name": "",
          "type": "address"
        },
        {
          "internalType": "uint256",
          "name": "",
          "type": "uint256"
        }
      ],
      "name": "pendingValidatorWithdrawRequests",
      "outputs": [
        {
          "internalType": "uint256",
          "name": "unlockTime",
          "type": "uint256"
        },
        {
          "internalType": "uint256",
          "name": "amount",
          "type": "uint256"
        }
      ],
      "stateMutability": "view",
      "type": "function"
    },
    {
      "inputs": [
        {
          "internalType": "address",
          "name": "",
          "type": "address"
        }
      ],
      "name": "pendingValidatorWithdrawRequestsCount",
      "outputs": [
        {
          "internalType": "uint256",
          "name": "",
          "type": "uint256"
        }
      ],
      "stateMutability": "view",
      "type": "function"
    },
    {
      "inputs": [],
      "name": "prevhash",
      "outputs": [
        {
          "internalType": "bytes32",
          "name": "",
          "type": "bytes32"
        }
      ],
      "stateMutability": "view",
      "type": "function"
    },
    {
      "inputs": [
        {
          "internalType": "address",
          "name": "addr_",
          "type": "address"
        },
        {
          "internalType": "uint256",
          "name": "fee_",
          "type": "uint256"
        },
        {
          "internalType": "bytes",
          "name": "template_",
          "type": "bytes"
        }
      ],
      "name": "registerModel",
      "outputs": [
        {
          "internalType": "bytes32",
          "name": "",
          "type": "bytes32"
        }
      ],
      "stateMutability": "nonpayable",
      "type": "function"
    },
    {
      "inputs": [],
      "name": "renounceOwnership",
      "outputs": [],
      "stateMutability": "nonpayable",
      "type": "function"
    },
    {
      "inputs": [],
      "name": "retractionFeePercentage",
      "outputs": [
        {
          "internalType": "uint256",
          "name": "",
          "type": "uint256"
        }
      ],
      "stateMutability": "view",
      "type": "function"
    },
    {
      "inputs": [
        {
          "internalType": "uint256",
          "name": "t",
          "type": "uint256"
        },
        {
          "internalType": "uint256",
          "name": "ts",
          "type": "uint256"
        }
      ],
      "name": "reward",
      "outputs": [
        {
          "internalType": "uint256",
          "name": "",
          "type": "uint256"
        }
      ],
      "stateMutability": "pure",
      "type": "function"
    },
    {
      "inputs": [
        {
          "internalType": "bool",
          "name": "paused_",
          "type": "bool"
        }
      ],
      "name": "setPaused",
      "outputs": [],
      "stateMutability": "nonpayable",
      "type": "function"
    },
    {
      "inputs": [
        {
          "internalType": "bytes32",
          "name": "model_",
          "type": "bytes32"
        },
        {
          "internalType": "uint256",
          "name": "rate_",
          "type": "uint256"
        }
      ],
      "name": "setSolutionMineableRate",
      "outputs": [],
      "stateMutability": "nonpayable",
      "type": "function"
    },
    {
      "inputs": [
        {
          "internalType": "uint64",
          "name": "startBlockTime_",
          "type": "uint64"
        }
      ],
      "name": "setStartBlockTime",
      "outputs": [],
      "stateMutability": "nonpayable",
      "type": "function"
    },
    {
      "inputs": [
        {
          "internalType": "address",
          "name": "veStaking_",
          "type": "address"
        }
      ],
      "name": "setVeStaking",
      "outputs": [],
      "stateMutability": "nonpayable",
      "type": "function"
    },
    {
      "inputs": [
        {
          "internalType": "uint256",
          "name": "version_",
          "type": "uint256"
        }
      ],
      "name": "setVersion",
      "outputs": [],
      "stateMutability": "nonpayable",
      "type": "function"
    },
    {
      "inputs": [
        {
          "internalType": "bytes32",
          "name": "commitment_",
          "type": "bytes32"
        }
      ],
      "name": "signalCommitment",
      "outputs": [],
      "stateMutability": "nonpayable",
      "type": "function"
    },
    {
      "inputs": [],
      "name": "slashAmountPercentage",
      "outputs": [
        {
          "internalType": "uint256",
          "name": "",
          "type": "uint256"
        }
      ],
      "stateMutability": "view",
      "type": "function"
    },
    {
      "inputs": [],
      "name": "solutionFeePercentage",
      "outputs": [
        {
          "internalType": "uint256",
          "name": "",
          "type": "uint256"
        }
      ],
      "stateMutability": "view",
      "type": "function"
    },
    {
      "inputs": [],
      "name": "solutionRateLimit",
      "outputs": [
        {
          "internalType": "uint256",
          "name": "",
          "type": "uint256"
        }
      ],
      "stateMutability": "view",
      "type": "function"
    },
    {
      "inputs": [
        {
          "internalType": "bytes32",
          "name": "",
          "type": "bytes32"
        }
      ],
      "name": "solutions",
      "outputs": [
        {
          "internalType": "address",
          "name": "validator",
          "type": "address"
        },
        {
          "internalType": "uint64",
          "name": "blocktime",
          "type": "uint64"
        },
        {
          "internalType": "bool",
          "name": "claimed",
          "type": "bool"
        },
        {
          "internalType": "bytes",
          "name": "cid",
          "type": "bytes"
        }
      ],
      "stateMutability": "view",
      "type": "function"
    },
    {
      "inputs": [
        {
          "internalType": "bytes32",
          "name": "",
          "type": "bytes32"
        }
      ],
      "name": "solutionsStake",
      "outputs": [
        {
          "internalType": "uint256",
          "name": "",
          "type": "uint256"
        }
      ],
      "stateMutability": "view",
      "type": "function"
    },
    {
      "inputs": [],
      "name": "solutionsStakeAmount",
      "outputs": [
        {
          "internalType": "uint256",
          "name": "",
          "type": "uint256"
        }
      ],
      "stateMutability": "view",
      "type": "function"
    },
    {
      "inputs": [],
      "name": "startBlockTime",
      "outputs": [
        {
          "internalType": "uint64",
          "name": "",
          "type": "uint64"
        }
      ],
      "stateMutability": "view",
      "type": "function"
    },
    {
      "inputs": [
        {
          "internalType": "bytes32",
          "name": "taskid_",
          "type": "bytes32"
        }
      ],
      "name": "submitContestation",
      "outputs": [],
      "stateMutability": "nonpayable",
      "type": "function"
    },
    {
      "inputs": [
        {
          "internalType": "bytes32",
          "name": "taskid_",
          "type": "bytes32"
        },
        {
          "internalType": "bytes",
          "name": "cid_",
          "type": "bytes"
        }
      ],
      "name": "submitSolution",
      "outputs": [],
      "stateMutability": "nonpayable",
      "type": "function"
    },
    {
      "inputs": [
        {
          "internalType": "uint8",
          "name": "version_",
          "type": "uint8"
        },
        {
          "internalType": "address",
          "name": "owner_",
          "type": "address"
        },
        {
          "internalType": "bytes32",
          "name": "model_",
          "type": "bytes32"
        },
        {
          "internalType": "uint256",
          "name": "fee_",
          "type": "uint256"
        },
        {
          "internalType": "bytes",
          "name": "input_",
          "type": "bytes"
        }
      ],
      "name": "submitTask",
      "outputs": [],
      "stateMutability": "nonpayable",
      "type": "function"
    },
    {
      "inputs": [
        {
          "internalType": "uint256",
          "name": "t",
          "type": "uint256"
        }
      ],
      "name": "targetTs",
      "outputs": [
        {
          "internalType": "uint256",
          "name": "",
          "type": "uint256"
        }
      ],
      "stateMutability": "pure",
      "type": "function"
    },
    {
      "inputs": [],
      "name": "taskOwnerRewardPercentage",
      "outputs": [
        {
          "internalType": "uint256",
          "name": "",
          "type": "uint256"
        }
      ],
      "stateMutability": "view",
      "type": "function"
    },
    {
      "inputs": [
        {
          "internalType": "bytes32",
          "name": "",
          "type": "bytes32"
        }
      ],
      "name": "tasks",
      "outputs": [
        {
          "internalType": "bytes32",
          "name": "model",
          "type": "bytes32"
        },
        {
          "internalType": "uint256",
          "name": "fee",
          "type": "uint256"
        },
        {
          "internalType": "address",
          "name": "owner",
          "type": "address"
        },
        {
          "internalType": "uint64",
          "name": "blocktime",
          "type": "uint64"
        },
        {
          "internalType": "uint8",
          "name": "version",
          "type": "uint8"
        },
        {
          "internalType": "bytes",
          "name": "cid",
          "type": "bytes"
        }
      ],
      "stateMutability": "view",
      "type": "function"
    },
    {
      "inputs": [],
      "name": "totalHeld",
      "outputs": [
        {
          "internalType": "uint256",
          "name": "",
          "type": "uint256"
        }
      ],
      "stateMutability": "view",
      "type": "function"
    },
    {
      "inputs": [
        {
          "internalType": "address",
          "name": "to_",
          "type": "address"
        }
      ],
      "name": "transferOwnership",
      "outputs": [],
      "stateMutability": "nonpayable",
      "type": "function"
    },
    {
      "inputs": [
        {
          "internalType": "address",
          "name": "to_",
          "type": "address"
        }
      ],
      "name": "transferPauser",
      "outputs": [],
      "stateMutability": "nonpayable",
      "type": "function"
    },
    {
      "inputs": [
        {
          "internalType": "address",
          "name": "to_",
          "type": "address"
        }
      ],
      "name": "transferTreasury",
      "outputs": [],
      "stateMutability": "nonpayable",
      "type": "function"
    },
    {
      "inputs": [],
      "name": "treasury",
      "outputs": [
        {
          "internalType": "address",
          "name": "",
          "type": "address"
        }
      ],
      "stateMutability": "view",
      "type": "function"
    },
    {
      "inputs": [],
      "name": "treasuryRewardPercentage",
      "outputs": [
        {
          "internalType": "uint256",
          "name": "",
          "type": "uint256"
        }
      ],
      "stateMutability": "view",
      "type": "function"
    },
    {
      "inputs": [
        {
          "internalType": "address",
          "name": "addr_",
          "type": "address"
        },
        {
          "internalType": "bytes32",
          "name": "taskid_",
          "type": "bytes32"
        }
      ],
      "name": "validatorCanVote",
      "outputs": [
        {
          "internalType": "uint256",
          "name": "",
          "type": "uint256"
        }
      ],
      "stateMutability": "view",
      "type": "function"
    },
    {
      "inputs": [
        {
          "internalType": "address",
          "name": "validator_",
          "type": "address"
        },
        {
          "internalType": "uint256",
          "name": "amount_",
          "type": "uint256"
        }
      ],
      "name": "validatorDeposit",
      "outputs": [],
      "stateMutability": "nonpayable",
      "type": "function"
    },
    {
      "inputs": [],
      "name": "validatorMinimumPercentage",
      "outputs": [
        {
          "internalType": "uint256",
          "name": "",
          "type": "uint256"
        }
      ],
      "stateMutability": "view",
      "type": "function"
    },
    {
      "inputs": [
        {
          "internalType": "uint256",
          "name": "count_",
          "type": "uint256"
        },
        {
          "internalType": "address",
          "name": "to_",
          "type": "address"
        }
      ],
      "name": "validatorWithdraw",
      "outputs": [],
      "stateMutability": "nonpayable",
      "type": "function"
    },
    {
      "inputs": [
        {
          "internalType": "address",
          "name": "",
          "type": "address"
        }
      ],
      "name": "validatorWithdrawPendingAmount",
      "outputs": [
        {
          "internalType": "uint256",
          "name": "",
          "type": "uint256"
        }
      ],
      "stateMutability": "view",
      "type": "function"
    },
    {
      "inputs": [
        {
          "internalType": "address",
          "name": "",
          "type": "address"
        }
      ],
      "name": "validators",
      "outputs": [
        {
          "internalType": "uint256",
          "name": "staked",
          "type": "uint256"
        },
        {
          "internalType": "uint256",
          "name": "since",
          "type": "uint256"
        },
        {
          "internalType": "address",
          "name": "addr",
          "type": "address"
        }
      ],
      "stateMutability": "view",
      "type": "function"
    },
    {
      "inputs": [],
      "name": "veStaking",
      "outputs": [
        {
          "internalType": "address",
          "name": "",
          "type": "address"
        }
      ],
      "stateMutability": "view",
      "type": "function"
    },
    {
      "inputs": [],
      "name": "version",
      "outputs": [
        {
          "internalType": "uint256",
          "name": "",
          "type": "uint256"
        }
      ],
      "stateMutability": "view",
      "type": "function"
    },
    {
      "inputs": [
        {
          "internalType": "bytes32",
          "name": "taskid_",
          "type": "bytes32"
        },
        {
          "internalType": "bool",
          "name": "yea_",
          "type": "bool"
        }
      ],
      "name": "voteOnContestation",
      "outputs": [],
      "stateMutability": "nonpayable",
      "type": "function"
    },
    {
      "inputs": [
        {
          "internalType": "bytes32",
          "name": "taskid_",
          "type": "bytes32"
        }
      ],
      "name": "votingPeriodEnded",
      "outputs": [
        {
          "internalType": "bool",
          "name": "",
          "type": "bool"
        }
      ],
      "stateMutability": "view",
      "type": "function"
    },
    {
      "inputs": [],
      "name": "withdrawAccruedFees",
      "outputs": [],
      "stateMutability": "nonpayable",
      "type": "function"
    }
  ],
  "bytecode": "0x60808060405234620000c6576000549060ff8260081c1662000074575060ff8082160362000038575b6040516157bc9081620000cc8239f35b60ff90811916176000557f7f26b83ff96e1f2b6a682f133852f6798a09c465da95921460cefb3847402498602060405160ff8152a13862000028565b62461bcd60e51b815260206004820152602760248201527f496e697469616c697a61626c653a20636f6e747261637420697320696e697469604482015266616c697a696e6760c81b6064820152608490fd5b600080fdfe608080604052600436101561001357600080fd5b60003560e01c908162fd7082146131b45750806305d1bc261461318c57806308745dd11461307157806308afe0eb14612f125780630a98573714612de25780630c18d4ce14612dbb5780631466b63a14612cfe57806316c38b3c14612c5e57806317f3e04114612c325780631825c20e14612afb5780631b75c43e14612ac15780631f88ea1c14612aa8578063218a304814612a15578063218e6859146129db5780632258d105146129c05780632943a4901461297d578063303fb0d61461294c578063393cb1c7146129045780633d18b912146128e95780633d57f5d9146128ce578063408def1e1461288257806340e8c56d146128325780634421ea21146127cb5780634ff03efa14612523578063506ea7de1461247257806354fd4d501461245457806356914caf146122b35780635c975abb1461228d57806361d027b31461226457806365d445fb14612062578063671f815214611ccc578063682c205814611cae578063715018a614611c5157806372dc0ee114611c3357806375c7050914611bc0578063763253bb146119c757806377286d17146116d05780637881c5e6146116b55780637b36006a146116975780638129fc1c146115ce57806382b5077f146115a5578063836577951461157e578063839df945146115525780638b4d7b3514610e485780638da5cb5b14610e1f5780638e6d86fd14610e015780639280944414610de357806393a090ec14610c2a57806393f1f8ac14610bae57806396bb02c314610b905780639b97511914610b725780639fd0506d14610b49578063a1975adf14610b2b578063a2492a9014610b0d578063a4fa8d5714610af4578063a53e252514610ad6578063a8f837f314610a70578063ada82c7d146109b1578063b4dc35b714610985578063c17ddb2a14610967578063c1f7272314610949578063c24b56311461090f578063c31784be146108f1578063c55dae63146108c8578063cbd2422d146107fe578063cf596e45146107d8578063d1f0c9411461078e578063d2307ae414610754578063d278094014610707578063d2992baa146106b6578063d33b2ef51461065c578063d8a6021c146105f5578063dc06a89f146105d7578063e236f46b1461056e578063e579f500146104e3578063f1b8989d146104c5578063f2fde38b146103f9578063f43cc773146103db5763fa52c7d81461038357600080fd5b346103d65760203660031901126103d65760606001600160a01b03806103a76131f5565b166000526077602052604060002080549160026001830154920154169060405192835260208301526040820152f35b600080fd5b346103d65760003660031901126103d6576020608654604051908152f35b346103d65760203660031901126103d6576104126131f5565b61041a6134ca565b6104226134ca565b6001600160a01b0390811690811561047157603354826001600160601b0360a01b821617603355167f8be0079c531659141344cd1fd0a4f28419497f9722a3daafe3b4186f6b6457e0600080a3005b60405162461bcd60e51b815260206004820152602660248201527f4f776e61626c653a206e6577206f776e657220697320746865207a65726f206160448201526564647265737360d01b6064820152608490fd5b346103d65760003660031901126103d6576020606e54604051908152f35b346103d65760203660031901126103d657600435600052607b6020526040600020805461056a60018301549260ff610522600360028401549301613424565b916040519586958652602086015260018060a01b03811660408601526001600160401b038160a01c16606086015260e01c16608084015260c060a084015260c0830190613395565b0390f35b346103d65760203660031901126103d65760043560005260766020526040600020805461056a60018060a01b03600184015416926105b3600360028301549201613424565b90604051948594855260208501526040840152608060608401526080830190613395565b346103d65760003660031901126103d6576020606d54604051908152f35b346103d65760203660031901126103d65761060e6131f5565b6106166134ca565b606680546001600160a01b0319166001600160a01b039290921691821790557f6bdb9ceff405d990c9b60be9f719fbb80889d5f064e8fd76efd5bea353e90712600080a2005b346103d65760203660031901126103d657600435600052607e60205260806040600020600181549101546040519160018060a01b03811683526001600160401b038160a01c16602084015260e01c60408301526060820152f35b346103d65760403660031901126103d6576001600160a01b036106d76131f5565b16600052607960205260406000206024356000526020526040806000206001815491015482519182526020820152f35b346103d65760403660031901126103d6576107206131df565b600435600052607f60205260406000209060018060a01b0316600052602052602060ff604060002054166040519015158152f35b346103d65760203660031901126103d6576001600160a01b036107756131f5565b1660005260786020526020604060002054604051908152f35b346103d65761079c3661332e565b906000526081602052604060002080548210156103d6576020916107bf91613344565b905460405160039290921b1c6001600160a01b03168152f35b346103d65760203660031901126103d65760206107f66004356136aa565b604051908152f35b346103d6576020806003193601126103d6576004359061082660ff60675460a01c161561466a565b3360005260798152604060002082600052815260406000206108656040519161084e8361324c565b8360018254928386520154930192835215156146c4565b5133600052607a825261087e6040600020918254613565565b90553360005260798152604060002090826000525260006001604082208281550155337ff9d5cfcdfe9803069225971ba315f4302add9b477c3441cc363bc38fdb065b90600080a3005b346103d65760003660031901126103d6576065546040516001600160a01b039091168152602090f35b346103d65760003660031901126103d6576020607054604051908152f35b346103d65760203660031901126103d6576001600160a01b036109306131f5565b1660005260886020526020604060002054604051908152f35b346103d65760003660031901126103d6576020608954604051908152f35b346103d65760003660031901126103d6576020606954604051908152f35b346103d65760203660031901126103d65760043560005260836020526020604060002054604051908152f35b346103d65760003660031901126103d6576109d460ff60675460a01c161561466a565b60655460665460685460405163a9059cbb60e01b81526001600160a01b03928316600482015260248101919091529160209183916044918391600091165af18015610a6457610a36575b610a2c606854608654613565565b6086556000606855005b610a569060203d8111610a5d575b610a4e818361329d565b81019061469f565b5080610a1e565b503d610a44565b6040513d6000823e3d90fd5b346103d65760203660031901126103d6576004356001600160401b0381168091036103d657610a9d6134ca565b806001600160401b0319606a541617606a557fa15d6b0930a82638ac4775bfd1b2e9f1e86be67e1bd3a09fa8a77a8f079769d7600080a2005b346103d65760003660031901126103d6576020607554604051908152f35b346103d65760206107f6610b073661332e565b906144f8565b346103d65760003660031901126103d6576020608a54604051908152f35b346103d65760003660031901126103d6576020608754604051908152f35b346103d65760003660031901126103d6576067546040516001600160a01b039091168152602090f35b346103d65760003660031901126103d6576020608454604051908152f35b346103d65760003660031901126103d6576020606c54604051908152f35b346103d65760207f0321e8a918b4c47bf3677852c070983825f30a47bc8d9416691454fa6a727d63610bdf3661332e565b610bea9391936134ca565b6000848152607683526040902060010154610c0f906001600160a01b03161515613522565b836000526076825280600260406000200155604051908152a2005b346103d65760403660031901126103d657610c436131f5565b602435610c5860ff60675460a01c161561466a565b6065546040516323b872dd60e01b8152336004820152306024820152604481018390526001600160a01b03916020919082908290606490829060009088165af18015610a6457610dc6575b50610cb0836086546146b7565b60865581610cbc6135d9565b94169384600052607782526040600020548482821115610d97575b50505083600052607781526040600020610cf784600183015492546146b7565b9260405160608101908082106001600160401b03831117610d81577f8d4844488c19a90828439e71d14ebad860806d04f8ef8b25a82179fab2699b8995600292604052815284810193845260408101938885528860005260778652604060002091518255516001820155019151166001600160601b0360a01b8254161790556040519283523392a3005b634e487b7160e01b600052604160045260246000fd5b610da0916146b7565b1015610daf575b848084610cd7565b836000526077815242600160406000200155610da7565b610ddc90823d8411610a5d57610a4e818361329d565b5084610ca3565b346103d65760003660031901126103d6576020607154604051908152f35b346103d65760003660031901126103d6576020607454604051908152f35b346103d65760003660031901126103d6576033546040516001600160a01b039091168152602090f35b346103d65760403660031901126103d6576024803563ffffffff81168091036103d657610e7d60ff60675460a01c161561466a565b6004356000908152607e60205260409020546001600160a01b03161561150e57610ea8600435615369565b156114ca57801561149557600435600052608160205263ffffffff6040600020541691608260205263ffffffff60406000205416607e60205260406000205460e01c9363ffffffff8486011161148057600435600052607e6020526001604060002001549180821160001461129d5782610f2191613572565b600182148015611288578182915b1561126157505060005b865b63ffffffff8789011681106110ff575050505050600435600052607e60205260406000205460e01c15610fd2575b505b6004356000908152607e6020526040902080546001600160e01b031683830160e01b6001600160e01b03191617905563ffffffff6040519183011681527f71d8c71303e35a39162e33a402c9897bf9848388537bac7d5e1b0d202eca4e66602060043592a3005b606554607b6020908152604060008181206002810154600190910154925163a9059cbb60e01b81526001600160a01b03918216600482015260248101939093529193849260449284929091165af18015610a64576110e0575b50600435600052607b60205261104b600160406000200154608654613565565b60865560043560005260836020526040600020549060816020526040600020908154156110cc575060005260018060a01b0360206000205416600052607760205261109c60406000209182546146b7565b9055600435600052607d60205260018060a01b036040600020541660005260856020524260406000205582610f69565b634e487b7160e01b60009081526032600452fd5b6110f89060203d602011610a5d57610a4e818361329d565b508361102b565b8084849210611118575b61111391506149a2565b610f3b565b6004356000526081602052611131816040600020613344565b60018060a01b0391549060031b1c1680600052607760205260406000206111598882546146b7565b905583826111e2575060655460405163a9059cbb60e01b81526001600160a01b039283166004820152602481019490945260209184916044918391600091165af1918215610a6457611113926111c3575b5060866111b8858254613565565b90555b839150611109565b6111db9060203d602011610a5d57610a4e818361329d565b50896111aa565b60655460405163a9059cbb60e01b81526001600160a01b039384166004820152602481019290925290935060209184916044918391600091165af1918215610a645761111392611242575b50608661123b848254613565565b90556111bb565b61125a9060203d602011610a5d57610a4e818361329d565b508961122d565b6112839161126e91613565565b63ffffffff61127c856154d4565b1690613585565b610f39565b6112958260011c83613565565b918291610f2f565b918093506112aa91613572565b600182148015611474578182915b1561146257505060005b855b63ffffffff868801168110611300575050505050600435600052607e60205260406000205460e01c610f6b576112fb600435614e0f565b610f6b565b8084849210611319575b61131491506149a2565b6112c4565b6004356000526082602052611332816040600020613344565b60018060a01b0391549060031b1c16806000526077602052604060002061135a8882546146b7565b905583826113e3575060655460405163a9059cbb60e01b81526001600160a01b039283166004820152602481019490945260209184916044918391600091165af1918215610a6457611314926113c4575b5060866113b9858254613565565b90555b83915061130a565b6113dc9060203d602011610a5d57610a4e818361329d565b50886113ab565b60655460405163a9059cbb60e01b81526001600160a01b039384166004820152602481019290925290935060209184916044918391600091165af1918215610a645761131492611443575b50608661143c848254613565565b90556113bc565b61145b9060203d602011610a5d57610a4e818361329d565b508861142e565b61146f9161126e91613565565b6112c2565b8160011c9182916112b8565b82634e487b7160e01b60005260116004526000fd5b60405162461bcd60e51b815260206004820152600e818401526d185b5b9d081d1bdbc81cdb585b1b60921b6044820152606490fd5b60405162461bcd60e51b8152602060048201526017818401527f766f74696e6720706572696f64206e6f7420656e6465640000000000000000006044820152606490fd5b60405162461bcd60e51b815260206004820152601a818401527f636f6e746573746174696f6e20646f65736e27742065786973740000000000006044820152606490fd5b346103d65760203660031901126103d657600435600052607c6020526020604060002054604051908152f35b346103d65760403660031901126103d65760206107f661159c6131f5565b602435906153ce565b346103d65760003660031901126103d657608b546040516001600160a01b039091168152602090f35b346103d65760003660031901126103d65760005460ff8160081c16158061168a575b1561162e5760049061ffff1916176000557f7f26b83ff96e1f2b6a682f133852f6798a09c465da95921460cefb3847402498602060405160048152a1005b60405162461bcd60e51b815260206004820152602e60248201527f496e697469616c697a61626c653a20636f6e747261637420697320616c72656160448201526d191e481a5b9a5d1a585b1a5e995960921b6064820152608490fd5b50600460ff8216106115f0565b346103d65760003660031901126103d6576020607354604051908152f35b346103d65760003660031901126103d65760206107f6614556565b346103d6576020806003193601126103d6576004356116f760ff60675460a01c161561466a565b6000818152607d8084526040808320546001600160a01b03908116845260778652818420548585528387528285205482168552607a8752919093205461173c91613565565b6117446135d9565b1161198257826000528084528160406000205416156119485782600052607e8452816040600020541661191057826000528084526001600160401b038060406000205460a01c16906071549161179a8342613565565b11156118d857846000528286526117d26117c960406000205493868516600052608589526040600020546146b7565b607354906146b7565b9160a01c16111561187c578260005280845260ff60406000205460e01c16611845579082916118439483600052526040600020805490600160e01b60ff60e01b198316179055167f0b76b4ae356796814d36b46f7c500bbd27b2cce1e6059a6fa2bebfd5a389b190600080a3614e0f565b005b60405162461bcd60e51b815260048101859052600f60248201526e185b1c9958591e4818db185a5b5959608a1b6044820152606490fd5b60405162461bcd60e51b815260048101859052602e60248201527f636c61696d536f6c7574696f6e20636f6f6c646f776e206166746572206c6f7360448201526d3a1031b7b73a32b9ba30ba34b7b760911b6064820152608490fd5b60405162461bcd60e51b815260048101879052601060248201526f6e6f7420656e6f7567682064656c617960801b6044820152606490fd5b60405162461bcd60e51b815260048101859052601060248201526f3430b99031b7b73a32b9ba30ba34b7b760811b6044820152606490fd5b60405162461bcd60e51b81526004810185905260126024820152711cdbdb1d5d1a5bdb881b9bdd08199bdd5b9960721b6044820152606490fd5b60405162461bcd60e51b815260048101859052601c60248201527f76616c696461746f72206d696e207374616b656420746f6f206c6f77000000006044820152606490fd5b346103d65760403660031901126103d6576004356119e36131df565b6119f560ff60675460a01c161561466a565b336000526020906079825260406000208360005282526040600020604051611a1c8161324c565b611a37600183549384845201549285830193845215156146c4565b514210611b8d573360005260778352604060002054815111611b5357606554815160405163a9059cbb60e01b81526001600160a01b038581166004830152602482019290925292909185908490604490829060009087165af1928315610a64577f109aeff667601aad33abcb7c5df1617754eefd18253d586a95c198cb479b5bd493611b36575b5080513360005260778652611ad96040600020918254613565565b9055611ae88151608654613565565b608655805133600052607a8652611b056040600020918254613565565b90553360005260798552604060002086600052855260006001604082208281550155519260405193845216923392a4005b611b4c90863d8811610a5d57610a4e818361329d565b5086611abe565b60405162461bcd60e51b81526004810184905260126024820152711cdd185ad9481a5b9cdd59999a58da595b9d60721b6044820152606490fd5b60405162461bcd60e51b815260048101849052600b60248201526a3bb0b4ba103637b733b2b960a91b6044820152606490fd5b346103d65760203660031901126103d657600435600052607d60205260ff604060002061056a611bf4600183549301613424565b60405193849360018060a01b03811685526001600160401b038160a01c16602086015260e01c1615156040840152608060608401526080830190613395565b346103d65760003660031901126103d6576020606f54604051908152f35b346103d65760003660031901126103d657611c6a6134ca565b603380546001600160a01b031981169091556000906001600160a01b03167f8be0079c531659141344cd1fd0a4f28419497f9722a3daafe3b4186f6b6457e08280a3005b346103d65760003660031901126103d6576020606854604051908152f35b346103d6576020806003193601126103d65760043590611cf460ff60675460a01c161561466a565b611d05611d0033614dd8565b614d97565b6000828152607d825260409020546001600160a01b03919082161561201e5782600052607e81528160406000205416611fda5782600052607d81526001600160401b0390611d608260406000205460a01c16607154906146b7565b421015611fab5783600052607d815260ff60406000205460e01c16611f8157611d876135a5565b9160405190611d9582613282565b338252611e2963ffffffff848401928042168452611e0960408601916000835260608701958987528b600052607e89528a60406000209851166001600160601b0360a01b895416178855511686908154906001600160401b0360a01b9060a01b16906001600160401b0360a01b1916179055565b5184546001600160e01b0316911660e01b6001600160e01b031916178355565b5160018092015584337f6958c989e915d3e41a35076e3c480363910055408055ad86ae1ee13d41c40640600080a3607f8252604060002033600052825260406000209360ff199482868254161790558560005260818352611e8e336040600020615494565b85600052607e835281604060002001543360005260778452611eb66040600020918254613565565b905560405193828552867f1aa9e4be46e24e1f2e7eeb1613c01629213cd42965d2716e18531b63e552e4119586863392a386600052607d84528160406000205416600052607784526040600020541015611f0c57005b85600052607d83526040600020541693607f83526040600020856000528352816040600020918254161790558460005260828252611f4e846040600020615494565b84600052607e8252604060002001548360005260778252611f756040600020918254613565565b905560405160008152a3005b6064906040519062461bcd60e51b8252600482015260036024820152623bba3360e91b6044820152fd5b6064906040519062461bcd60e51b825260048201526008602482015267746f6f206c61746560c01b6044820152fd5b6064906040519062461bcd60e51b82526004820152601b60248201527f636f6e746573746174696f6e20616c72656164792065786973747300000000006044820152fd5b6064906040519062461bcd60e51b82526004820152601760248201527f736f6c7574696f6e20646f6573206e6f742065786973740000000000000000006044820152fd5b346103d65760403660031901126103d6576001600160401b036004358181116103d6576120939036906004016133ba565b9060249283358181116103d6576120ae9036906004016133ba565b94906120c260ff60675460a01c161561466a565b33600052602091608583526120e26117c9604060002054607154906146b7565b421115612209576120f586608454613572565b336000526077845261210d6040600020918254613565565b9055336000526088835261212660406000205442613565565b670de0b6b3a764000061213b88608754613572565b0410156121d05733600052608883524260406000205561215d611d0033614dd8565b60005b86811061216957005b8060051b90888110156121bb5781840135601e19853603018112156103d6578401918235928784116103d65786019280360384136103d6576121b6936121b1928a0135614a3b565b6149a2565b612160565b82634e487b7160e01b60005260326004526000fd5b8260136064926040519262461bcd60e51b84526004840152820152721cdbdb1d5d1a5bdb881c985d19481b1a5b5a5d606a1b6044820152fd5b82602f6084926040519262461bcd60e51b845260048401528201527f7375626d6974536f6c7574696f6e20636f6f6c646f776e206166746572206c6f60448201526e39ba1031b7b73a32b9ba30ba34b7b760891b6064820152fd5b346103d65760003660031901126103d6576066546040516001600160a01b039091168152602090f35b346103d65760003660031901126103d657602060ff60675460a01c166040519015158152f35b346103d65760403660031901126103d6576024356001600160401b0381116103d6576122e390369060040161321f565b6122f560ff60675460a01c161561466a565b33600052602091608583526123156117c9604060002054607154906146b7565b4211156123f757608454808004600114811517156123e15733600052607784526123456040600020918254613565565b9055336000526088835261235e60406000205442613565565b608754808004600114811517156123e157670de0b6b3a7640000900410156123a65760886118439333600052524260406000205561239e611d0033614dd8565b600435614a3b565b60405162461bcd60e51b81526004810184905260136024820152721cdbdb1d5d1a5bdb881c985d19481b1a5b5a5d606a1b6044820152606490fd5b634e487b7160e01b600052601160045260246000fd5b60405162461bcd60e51b815260048101849052602f60248201527f7375626d6974536f6c7574696f6e20636f6f6c646f776e206166746572206c6f60448201526e39ba1031b7b73a32b9ba30ba34b7b760891b6064820152608490fd5b346103d65760003660031901126103d6576020606b54604051908152f35b346103d65760203660031901126103d65760043561249860ff60675460a01c161561466a565b80600052607c6020526040600020546124ea576124b36149b1565b81600052607c602052604060002055337f09b4c028a2e50fec6f1c6a0163c59e8fbe92b231e5c03ef3adec585e63a14b92600080a3005b60405162461bcd60e51b8152602060048201526011602482015270636f6d6d69746d656e742065786973747360781b6044820152606490fd5b346103d65760603660031901126103d65761253c6131f5565b6001600160401b03906044358281116103d65761255d90369060040161321f565b919061257160ff60675460a01c161561466a565b6001600160a01b039182169283156127865761258c916154ea565b906040519361259a85613282565b60243585526020948581019485526040810160008152606082019485526125c13383613606565b95866000526076885260019480866040600020015416612741579060039392918860005260768a526040600020935184558684019151166001600160601b0360a01b8254161790555160028201550192518051918211610d815761262584546133ea565b601f81116126f8575b508590601f83116001146126955792829391839260009461268a575b50501b916000199060031b1c19161790555b60405190807fa4b0af38d049ba81703a0d0e46cc2ff39681210302134046237111a8fb7dee72600080a28152f35b01519250878061264a565b90601f198316918560005283886000209360005b8a888383106126e157505050106126c8575b505050811b01905561265c565b015160001960f88460031b161c191690558580806126bb565b8686015188559096019594850194879350016126a9565b8460005286600020601f840160051c810191888510612737575b601f0160051c019084905b82811061272b57505061262e565b6000815501849061271d565b9091508190612712565b60405162461bcd60e51b8152600481018a9052601860248201527f6d6f64656c20616c7265616479207265676973746572656400000000000000006044820152606490fd5b60405162461bcd60e51b815260206004820152601860248201527f61646472657373206d757374206265206e6f6e2d7a65726f00000000000000006044820152606490fd5b346103d65760203660031901126103d6576127e46131f5565b6127ec6134ca565b606780546001600160a01b0319166001600160a01b039290921691821790557f5a85b4270fc1e75035e6cd505418ce65e0bcc36cc7eb9ce9e6f8c6181d4cb577600080a2005b346103d65760203660031901126103d6576004356001600160401b0381116103d65761286e61286861056a92369060040161321f565b906154ea565b604051918291602083526020830190613395565b346103d65760203660031901126103d6577f8c854a81cb5c93e7e482d30fb9c6f88fdbdb320f10f7a853c2263659b54e563f60206004356128c16134ca565b80606b55604051908152a1005b346103d65760003660031901126103d65760206107f66135a5565b346103d65760003660031901126103d65760206107f66145f9565b346103d65760603660031901126103d65761291d6131f5565b6044356001600160401b0381116103d6576020916129426107f692369060040161321f565b9160243590614619565b346103d65761295a3661332e565b906000526082602052604060002080548210156103d6576020916107bf91613344565b346103d65760203660031901126103d6576129966131f5565b61299e6134ca565b608b80546001600160a01b0319166001600160a01b0392909216919091179055005b346103d65760003660031901126103d65760206107f66135d9565b346103d65760203660031901126103d6576001600160a01b036129fc6131f5565b1660005260856020526020604060002054604051908152f35b346103d6576003196040368201126103d6576004356001600160401b03918282116103d65760809082360301126103d657604051612a5281613282565b81600401358152612a656024830161320b565b60208201526044820135604082015260648201359283116103d657612a956107f692600460209536920101613310565b6060820152612aa26131df565b90613606565b346103d65760206107f6612abb3661332e565b90614110565b346103d65760203660031901126103d6576001600160a01b03612ae26131f5565b16600052607a6020526020604060002054604051908152f35b346103d65760403660031901126103d657600435602435801515908181036103d657612b2f60ff60675460a01c161561466a565b612b3b611d0033614dd8565b612b4583336153ce565b612bff577f1aa9e4be46e24e1f2e7eeb1613c01629213cd42965d2716e18531b63e552e4119083600052602090607f825260406000203360005282526040600020600160ff19825416179055600014612be4578360005260818152612bae336040600020615494565b83600052607e81526001604060002001543360005260778252612bd76040600020918254613565565b90556040519283523392a3005b8360005260828152612bfa336040600020615494565b612bae565b60405162461bcd60e51b815260206004820152600b60248201526a1b9bdd08185b1b1bddd95960aa1b6044820152606490fd5b346103d65760203660031901126103d65760043560005260806020526020604060002054604051908152f35b346103d65760203660031901126103d6576004358015158091036103d6576067546001600160a01b0381163303612ccc5760ff60a01b191660a082901b60ff60a01b16176067557fd83d5281277e107f080e362699d46082adb74e7dc6a9bccbc87d8ae9533add44600080a2005b60405162461bcd60e51b815260206004820152600a6024820152693737ba103830bab9b2b960b11b6044820152606490fd5b346103d6576003196060368201126103d6576004356001600160401b03918282116103d65760c09082360301126103d657604051612d3b81613267565b8160040135815260248201356020820152612d586044830161320b565b6040820152606482013583811681036103d6576060820152608482013560ff811681036103d657608082015260a48201359283116103d657612da56107f692600460209536920101613310565b60a0820152612db26131df565b6044359161365f565b346103d65760003660031901126103d65760206001600160401b03606a5416604051908152f35b346103d6576020806003193601126103d657600435612e0960ff60675460a01c161561466a565b336000526077825280612e2b604060002054607a855260406000205490613565565b10612ef357612e3c607554426146b7565b9033600052607883526040600020805490600182018092116123e157553360005260788352604060002054918291604051612e768161324c565b8281526001868201838152336000526079885260406000208660005288526040600020925183555191015533600052607a85526040600020612eb98282546146b7565b9055604051918252848201527fcc7e0e76b20394ef965d71c4111d21e1b322bb8775dc2c7acd29eb0d3c3dd96d60403392a3604051908152f35b60405162461bcd60e51b81526004810183905260006024820152604490fd5b346103d65760c03660031901126103d657612f2b6131cf565b612f336131df565b9060443591606435916084356001600160401b0381116103d657612f5b90369060040161321f565b929094612fbf60a43594612f7760ff60675460a01c161561466a565b6000838152607660205260409020600101546001600160a01b039890612fa0908a161515613522565b836000526076602052612fba604060002054891015614704565b6154ea565b9160005b85811061305b576000878760206130128c60655416612fe28486613572565b6040516323b872dd60e01b8152336004820152306024820152604481019190915295869283919082906064820190565b03925af1918215610a6457613038936130309361303d575b50613572565b6086546146b7565b608655005b6130549060203d8111610a5d57610a4e818361329d565b508461302a565b61306c906121b1858986868a614750565b612fc3565b346103d65760a03660031901126103d65761308a6131cf565b6130926131df565b60443590606435926084356001600160401b0381116103d65761311a93613120936130c28793369060040161321f565b6130d760ff60679993995460a01c161561466a565b6000848152607660205260409020600101546001600160a01b039890613100908a161515613522565b846000526076602052612fba604060002054871015614704565b93614750565b6065546040516323b872dd60e01b815233600482015230602482015260448101849052929160209184916064918391600091165af1918215610a64576130389261316e575b506086546146b7565b6131859060203d8111610a5d57610a4e818361329d565b5082613165565b346103d65760203660031901126103d65760206131aa600435615369565b6040519015158152f35b346103d65760003660031901126103d6576020906072548152f35b6004359060ff821682036103d657565b602435906001600160a01b03821682036103d657565b600435906001600160a01b03821682036103d657565b35906001600160a01b03821682036103d657565b9181601f840112156103d6578235916001600160401b0383116103d657602083818601950101116103d657565b604081019081106001600160401b03821117610d8157604052565b60c081019081106001600160401b03821117610d8157604052565b608081019081106001600160401b03821117610d8157604052565b90601f801991011681019081106001600160401b03821117610d8157604052565b6001600160401b038111610d8157601f01601f191660200190565b9291926132e5826132be565b916132f3604051938461329d565b8294818452818301116103d6578281602093846000960137010152565b9080601f830112156103d65781602061332b933591016132d9565b90565b60409060031901126103d6576004359060243590565b805482101561335c5760005260206000200190600090565b634e487b7160e01b600052603260045260246000fd5b60005b8381106133855750506000910152565b8181015183820152602001613375565b906020916133ae81518092818552858086019101613372565b601f01601f1916010190565b9181601f840112156103d6578235916001600160401b0383116103d6576020808501948460051b0101116103d657565b90600182811c9216801561341a575b602083101461340457565b634e487b7160e01b600052602260045260246000fd5b91607f16916133f9565b9060405191826000825492613438846133ea565b9081845260019485811690816000146134a75750600114613464575b50506134629250038361329d565b565b9093915060005260209081600020936000915b81831061348f57505061346293508201013880613454565b85548884018501529485019487945091830191613477565b91505061346294506020925060ff191682840152151560051b8201013880613454565b6033546001600160a01b031633036134de57565b606460405162461bcd60e51b815260206004820152602060248201527f4f776e61626c653a2063616c6c6572206973206e6f7420746865206f776e65726044820152fd5b1561352957565b60405162461bcd60e51b81526020600482015260146024820152731b5bd9195b08191bd95cc81b9bdd08195e1a5cdd60621b6044820152606490fd5b919082039182116123e157565b818102929181159184041417156123e157565b811561358f570490565b634e487b7160e01b600052601260045260246000fd5b6135ad614556565b606d5490670de0b6b3a7640000918203918083116123e1576135d261332b9383613572565b0490613565565b6135e1614556565b606c5490670de0b6b3a7640000918203918083116123e1576135d261332b9383613572565b61365960018060a01b0361364b8160208501511693606081519101519060405195869460208601981688526040850152606084015260808084015260a0830190613395565b03601f19810183528261329d565b51902090565b90916136599061364b83519360a0602082015191015190604051958694602086019860018060a01b0316895260408601526060850152608084015260a08084015260c0830190613395565b63bbf81e008111613738576136be90613747565b680a688906bd8affffff8111613720576136e5670de0b6b3a7640000809260401b04613892565b90811561358f57697f0e10af47c1c700000091785f95e44a0e2947c3011ad48e1abf7023b57000000000000000040481039081116123e15790565b6024906040519063b3b6ba1f60e01b82526004820152fd5b50697f0e10af47c1c700000090565b670de0b6b3a76400009190600019838209838202918280831092039180830392146137d5576301e1338090818310156137b257947f98f5be4dd1e14769fbd6666224dc1eb80dd2e0a3d2c8b328f57e76b7ae10395794950990828211900360f91b910360071c170290565b6064918660405192630c740aef60e31b8452600484015260248301526044820152fd5b50506301e1338090049150565b670de0b6b3a7640000916000198383099280830292838086109503948086039514613885578285101561386257908291096001821901821680920460028082600302188083028203028083028203028083028203028083028203028083028203028092029003029360018380600003040190848311900302920304170290565b8260649260405192630c740aef60e31b8452600484015260248301526044820152fd5b50509061332b9250613585565b600160bf1b67ff000000000000008216613fe7575b670de0b6b3a76400009066ff0000000000008316613ed7575b65ff00000000008316613dcf575b64ff000000008316613ccf575b63ff0000008316613bd7575b62ff00008316613ae7575b61ff0083166139ff575b60ff8316613911575b029060401c60bf031c90565b608083166139ec575b60408084166139d8575b602084166139c4575b601084166139b0575b6008841661399c575b60048416613988575b60028416613974575b60018416613960575b50613905565b906801000000000000000102901c3861395a565b906801000000000000000102811c90613951565b906801000000000000000302811c90613948565b906801000000000000000602811c9061393f565b906801000000000000000b02811c90613936565b906801000000000000001602811c9061392d565b906801000000000000002c02811c90613924565b680100000000000000590260401c61391a565b6180008316613ad4575b6140008316613ac1575b6120008316613aae575b6110008316613a9b575b6108008316613a88575b6104008316613a75575b6102008316613a62575b6101008316156138fc57680100000000000000b10260401c6138fc565b680100000000000001630260401c613a45565b680100000000000002c60260401c613a3b565b6801000000000000058c0260401c613a31565b68010000000000000b170260401c613a27565b6801000000000000162e0260401c613a1d565b68010000000000002c5d0260401c613a13565b680100000000000058b90260401c613a09565b628000008316613bc4575b624000008316613bb1575b622000008316613b9e575b621000008316613b8b575b620800008316613b78575b620400008316613b65575b620200008316613b52575b620100008316156138f2576801000000000000b1720260401c6138f2565b680100000000000162e40260401c613b34565b6801000000000002c5c80260401c613b29565b68010000000000058b910260401c613b1e565b680100000000000b17210260401c613b13565b68010000000000162e430260401c613b08565b680100000000002c5c860260401c613afd565b6801000000000058b90c0260401c613af2565b63800000008316613cbc575b63400000008316613ca9575b63200000008316613c96575b63100000008316613c83575b63080000008316613c70575b63040000008316613c5d575b63020000008316613c4a575b63010000008316156138e75768010000000000b172180260401c6138e7565b6801000000000162e4300260401c613c2b565b68010000000002c5c8600260401c613c1f565b680100000000058b90c00260401c613c13565b6801000000000b17217f0260401c613c07565b680100000000162e42ff0260401c613bfb565b6801000000002c5c85fe0260401c613bef565b68010000000058b90bfc0260401c613be3565b6480000000008316613dbc575b6440000000008316613da9575b6420000000008316613d96575b6410000000008316613d83575b6408000000008316613d70575b6404000000008316613d5d575b6402000000008316613d4a575b6401000000008316156138db57680100000000b17217f80260401c6138db565b68010000000162e42ff10260401c613d2a565b680100000002c5c85fe30260401c613d1d565b6801000000058b90bfce0260401c613d10565b68010000000b17217fbb0260401c613d03565b6801000000162e42fff00260401c613cf6565b68010000002c5c8601cc0260401c613ce9565b680100000058b90c0b490260401c613cdc565b658000000000008316613ec4575b654000000000008316613eb1575b652000000000008316613e9e575b651000000000008316613e8b575b650800000000008316613e78575b650400000000008316613e65575b650200000000008316613e52575b650100000000008316156138ce576801000000b1721835510260401c6138ce565b680100000162e430e5a20260401c613e31565b6801000002c5c863b73f0260401c613e23565b68010000058b90cf1e6e0260401c613e15565b680100000b1721bcfc9a0260401c613e07565b68010000162e43f4f8310260401c613df9565b680100002c5c89d5ec6d0260401c613deb565b6801000058b91b5bc9ae0260401c613ddd565b66800000000000008316613fd4575b66400000000000008316613fc1575b66200000000000008316613fae575b66100000000000008316613f9b575b66080000000000008316613f88575b66040000000000008316613f75575b66020000000000008316613f62575b66010000000000008316156138c05768010000b17255775c040260401c6138c0565b6801000162e525ee05470260401c613f40565b68010002c5cc37da94920260401c613f31565b680100058ba01fb9f96d0260401c613f22565b6801000b175effdc76ba0260401c613f13565b680100162f3904051fa10260401c613f04565b6801002c605e2e8cec500260401c613ef5565b68010058c86da1c09ea20260401c613ee6565b67800000000000000082166140fd575b670de0b6b3a76400009067400000000000000083166140ea575b67200000000000000083166140d7575b67100000000000000083166140c4575b67080000000000000083166140b1575b670400000000000000831661409e575b670200000000000000831661408b575b6701000000000000008316614078575b90506138a7565b680100b1afa5abcbed610260401c614071565b68010163da9fb33356d80260401c614061565b680102c9a3e778060ee70260401c614051565b6801059b0d31585743ae0260401c614041565b68010b5586cf9890f62a0260401c614031565b6801172b83c7d517adce0260401c614021565b6801306fe0a31b7152df0260401c614011565b5068016a09e667f3bcc909607f1b613ff7565b801515806143cd575b1561439d57614127906136aa565b90600160ff1b8082148015614394575b6142e157600082121561438b5761415f826000035b60008512156143845784600003906137e2565b6001600160ff1b039283821161436657600019946000911885121561435f5750915b670cf4ad2e86166c9c831261434e57670de0b6b3a763ffff1992808401906001818313166123e1578382148015614346575b61433457600082121561432a57670de0b6b3a76400006141d69160000301614459565b90828211614303578568056bc75e2d6310000060009218136000146142fc5750925b83018381136001166123e15783126001166123e1576801158e460913d000008312156142f3576000831293841561425957505081146142475761332b9115614242576000036143d6565b6143d6565b60405163ec2b9e6760e01b8152600490fd5b91926142669194506143d6565b9182146142e15760008212156142db57816000035b801561358f576ec097ce7bc90715b34b9f1000000000049283116142b457600091670de0b6b3a76400001813156142b0575090565b0390565b60405163d49c26b360e01b8152670de0b6b3a7640000600482015260248101839052604490fd5b8161427b565b6040516309fe2b4560e41b8152600490fd5b50505050600090565b03926141f8565b6044906040519063120b5b4360e01b8252600482015268056bc75e2d631000006024820152fd5b506141d681614459565b60405163a6070c2560e01b8152600490fd5b5060006141b3565b5050505068056bc75e2d6310000090565b0391614181565b604490856040519163d49c26b360e01b835260048301526024820152fd5b84906137e2565b61415f8261414c565b50808314614137565b60405162461bcd60e51b81526020600482015260086024820152676d696e2076616c7360c01b6044820152606490fd5b50811515614119565b600081121561441c5768033dd1780914b97114198112614416576143fc906000036143d6565b801561358f576ec097ce7bc90715b34b9f10000000000590565b50600090565b680a688906bd8affffff811361444257670de0b6b3a764000061332b9160401b05613892565b60249060405190626c1a0560e31b82526004820152fd5b68056bc75e2d631000009190600019838209838202918280831092039180830392146144e757670de0b6b3a764000090818310156144c957947faccb18165bd6fe31ae1cf318dc5b51eee0e1ba569b88cd74c1773b91fac1066994950990828211900360ee1b910360121c170290565b6044908660405191635173648d60e01b835260048301526024820152fd5b5050670de0b6b3a764000090049150565b90801561454857697f0e10af47c1c7000000908082038281116123e157670de0b6b3a764000093848202918204851483851417156123e1576145439261453d91614110565b90613572565b040490565b5050670de0b6b3a764000090565b6065546040516370a0823160e01b815230600482015290602090829060249082906001600160a01b03165afa908115610a64576000916145c5575b50697f0e10af47c1c700000090818110156145be576086546145b291613565565b81039081116123e15790565b5050600090565b906020823d82116145f1575b816145de6020938361329d565b810103126145ee57505138614591565b80fd5b3d91506145d1565b61332b6146116001600160401b03606a541642613565565b610b07614556565b926136599160a091806040519586936020850198600180881b031689526040850152606080850152816080850152848401376000838284010152601f8019910116810103608081018452018261329d565b1561467157565b60405162461bcd60e51b81526020600482015260066024820152651c185d5cd95960d21b6044820152606490fd5b908160209103126103d6575180151581036103d65790565b919082018092116123e157565b156146cb57565b60405162461bcd60e51b81526020600482015260116024820152701c995c5d595cdd081b9bdd08195e1a5cdd607a1b6044820152606490fd5b1561470b57565b60405162461bcd60e51b815260206004820152601860248201527f6c6f77657220666565207468616e206d6f64656c2066656500000000000000006044820152606490fd5b6040519461475d86613267565b8386526020918287018681526003604089019860018060a01b038097168a5260608101996001600160401b03948542168c5260ff608084019116815260a08301968752614810866147b1606954338761365f565b9d8e976000988952607b8c526040892096518755519b60019c8d880155600287019551166001600160601b0360a01b865416178555511683908154906001600160401b0360a01b9060a01b16906001600160401b0360a01b1916179055565b5181549060ff60e01b9060e01b169060ff60e01b1916179055019251805192831161498e57908392916148458a9695546133ea565b601f8111614936575b508491601f84116001146148b45795967fc3d3e0544c80e3bb83f62659259ae1574f72a91515ab3cae3dd75cf77e1b0aea96928492836148a9575b50501b916000199060031b1c19161790555b6040519485523394a4606955565b015192503880614889565b90969291601f198316858352868320925b81811061491e575097837fc3d3e0544c80e3bb83f62659259ae1574f72a91515ab3cae3dd75cf77e1b0aea989910614905575b505050811b01905561489b565b015160001960f88460031b161c191690553880806148f8565b8983015184558c9850928501929187019187016148c5565b90919293809596508352858320601f850160051c810191878610614984575b8b97969594939291601f8a920160051c01915b82811061497657505061484e565b8481558c9850899101614968565b9091508190614955565b634e487b7160e01b82526041600452602482fd5b60001981146123e15760010190565b61a4ba46148015614a2f575b8015614a23575b6149cc574390565b60405163a3b1b31d60e01b815260208160048160645afa908115610a64576000916149f5575090565b906020823d8211614a1b575b81614a0e6020938361329d565b810103126145ee57505190565b3d9150614a01565b5062066eee46146149c4565b5062066eed46146149bd565b91600091838352602091607b83526040918285205415614d5d57858552607d8452828520546001600160a01b0392908316614d1957614a7c81838933614619565b808752607c86528487205415614cd5578652607c855283862054614a9e6149b1565b1115614c9157614adb90614b2d855193614ab785613282565b3385528785016001600160401b039485928342168352898801958c875236916132d9565b606087019081528b8b52607d8a52888b2096518754925167ffffffffffffffff60a01b1991909916166001600160e01b0319909216919091179190961660a01b67ffffffffffffffff60a01b16178455565b51825460ff60e01b191690151560e01b60ff60e01b16178255915180516001928301939091908211614c7d57614b6384546133ea565b601f8111614c37575b508590601f8311600114614bd8579282939183928994614bcd575b50501b916000199060031b1c19161790555b608360845492858552528220557f957c18b5af8413899ea8a576a4d3fb16839a02c9fccfdce098b6d59ef248525b339180a3565b015192503880614b87565b848852868820919083601f1981168a5b8a88838310614c205750505010614c07575b505050811b019055614b99565b015160001960f88460031b161c19169055388080614bfa565b868601518855909601959485019487935001614be8565b848852868820601f840160051c810191888510614c73575b601f0160051c019084905b828110614c68575050614b6c565b898155018490614c5a565b9091508190614c4f565b634e487b7160e01b87526041600452602487fd5b835162461bcd60e51b815260048101869052601a60248201527f636f6d6d69746d656e74206d75737420626520696e20706173740000000000006044820152606490fd5b845162461bcd60e51b815260048101879052601760248201527f6e6f6e206578697374656e7420636f6d6d69746d656e740000000000000000006044820152606490fd5b835162461bcd60e51b815260048101869052601a60248201527f736f6c7574696f6e20616c7265616479207375626d69747465640000000000006044820152606490fd5b825162461bcd60e51b81526004810185905260136024820152721d185cdac8191bd95cc81b9bdd08195e1a5cdd606a1b6044820152606490fd5b15614d9e57565b60405162461bcd60e51b81526020600482015260126024820152716d696e207374616b656420746f6f206c6f7760701b6044820152606490fd5b60018060a01b03166000526077602052614e02604060002054607a60205260406000205490613565565b614e0a6135d9565b111590565b6000818152607b9060209180835260409283832054835260768152838320548584528282528185852060018101548311615361575b826152dd575b5050614e629086855283835260018686200154613565565b94606e54670de0b6b3a76400009081038181116152c95781614e87614e8e928a613572565b0488613565565b96614e9b886068546146b7565b60685583614ea98983613565565b61523d575b5050608b54865163ebe2b12b60e01b81526001600160a01b0392916004919084169086818481855afa908115615141578991615210575b504211615198575b50838752858552878720548752607685526002888820015480614f60575b50505092614f539592826001958794614f5b9a9852608383528585205490607d84528686205416855260778352614f468686209182546146b7565b9055835252200154613565565b608654613565565b608655565b614f7a671bc16d674ec8000091614f756145f9565b613572565b0490614f8882608c546146b7565b608c558115614f0b5760705483038381116151855783614fab614fb29285613572565b0483613565565b9260895481038181116151725790614fab614fcd9285613572565b92888761502e8760655416898452607d83528d614ff989614ff4888d858a2054169b613565565b613565565b905163a9059cbb60e01b8082526001600160a01b03909916888201908152602081019290925294859384928391604090910190565b03925af18015615168579188916150799361514b575b5086606554168c8c896066541691518096819582948b84528a840160209093929193604081019460018060a01b031681520152565b03925af18015615141579087939291615124575b50606554868a528884528a8a20600201548b519384526001600160a01b03908716169183019182526020820194909452909283918290036040019082908a9087165af1801561511a579260019592614f53989592614f5b9a98956150fd575b509295819497995082959850614f0b565b61511390843d8611610a5d57610a4e818361329d565b50386150ec565b87513d88823e3d90fd5b61513a90843d8611610a5d57610a4e818361329d565b503861508d565b8a513d8b823e3d90fd5b61516190833d8511610a5d57610a4e818361329d565b5038615044565b8b513d8c823e3d90fd5b634e487b7160e01b8a526011835260248afd5b634e487b7160e01b895260118252602489fd5b608c54813b1561520c578891602483928c519485938492633c6b16ab60e01b8452888401525af18015615202576151d5575b5086608c5538614eed565b6001600160401b0381989298116151ef57885295386151ca565b634e487b7160e01b825260418852602482fd5b89513d8a823e3d90fd5b8880fd5b90508681813d8311615236575b615227818361329d565b8101031261520c575138614ee5565b503d61521d565b6152979160018060a01b036152648b826065541692888c52607d86528c8c20541693613565565b8a5163a9059cbb60e01b81526001600160a01b0390931660048401526024830152909283919082908a9082906044820190565b03925af1801561511a576152ac575b83614eae565b6152c290843d8611610a5d57610a4e818361329d565b50386152a6565b634e487b7160e01b86526011600452602486fd5b606554905486526076825286862060010154875163a9059cbb60e01b81526001600160a01b039182166004820152602481018590529291839160449183918a91165af180156153575790614e62929161533a575b83919250614e4a565b61535090843d8611610a5d57610a4e818361329d565b5038615331565b86513d87823e3d90fd5b859250614e44565b6153c99080600052607e6020526153946001600160401b0360406000205460a01c16607354906146b7565b9060005260816020526153c36153ba6040600020546082602052604060002054906146b7565b608a5490613572565b906146b7565b421190565b6000828152607e6020526040812054909291906001600160a01b039081161561548b576153fa83615369565b61548257828452607f602052604084209116835260205260ff60408320541661547b576077602052600160408320015480156154735760745480821061546a5761544391613565565b908252607e6020526001600160401b03604083205460a01c16106154645790565b50600690565b50505050600590565b505050600490565b5050600390565b50505050600290565b50505050600190565b805468010000000000000000811015610d81576154b691600182018155613344565b819291549060031b9160018060a01b03809116831b921b1916179055565b63ffffffff90811660001901919082116123e157565b9062010000811161561d576001600160401b039061550982821661568b565b60006155da60409384519061557460248360209a8b986155658a8401966204010960e91b8852825193818d8501956155458160238a0189613372565b87019160238301370191600360fb1b602384015251809386840190613372565b0103600481018552018361329d565b6155ca60216155858985511661568b565b9388519384916155bb8a840197600560f91b89526155ac8c82519283918989019101613372565b84019151809386840190613372565b0103600181018452018261329d565b8551928392839251928391613372565b8101039060025afa1561561357600051815193609160f51b90850152602284015260228352606083019183831090831117610d81575290565b513d6000823e3d90fd5b60405162461bcd60e51b815260206004820152601f60248201527f4d617820636f6e74656e742073697a65206973203635353336206279746573006044820152606490fd5b6001600160401b038091169081146123e15760010190565b90815181101561335c570160200190565b600180825b607f6001600160401b0382161161576957506001600160401b0380921690806156b8836132be565b946156c6604051968761329d565b838652601f196156d5856132be565b013660208801376000925b615716575b505050600019018181116123e15716615712607f60f81b615706838561567a565b511660001a918361567a565b5390565b848316848110156157635761575c916701ffffffffffffff91607f821660801760f81b6001600160f81b03191660001a90615751908a61567a565b5360071c1692615662565b91816156e0565b506156e5565b6701ffffffffffffff6157809160071c1692615662565b9161569056fea2646970667358221220795dd5aeca92cc726e6883c9781a76c0d50f28c46525dba5b92003a23a331d4664736f6c63430008130033",
  "linkReferences": {},
  "deployedLinkReferences": {}
}