{
  "_format": "hh-sol-artifact-1",
  "contractName": "V2_EngineV4",
  "sourceName": "contracts/V2_EngineV4.sol",
  "abi": [
    {
      "inputs": [],
      "stateMutability": "nonpayable",
      "type": "constructor"
    },
    {
      "inputs": [
        {
          "internalType": "uint256",
          "name": "x",
          "type": "uint256"
        },
        {
          "internalType": "uint256",
          "name": "y",
          "type": "uint256"
        }
      ],
      "name": "PRBMath_MulDiv18_Overflow",
      "type": "error"
    },
    {
      "inputs": [
        {
          "internalType": "uint256",
          "name": "x",
          "type": "uint256"
        },
        {
          "internalType": "uint256",
          "name": "y",
          "type": "uint256"
        },
        {
          "internalType": "uint256",
          "name": "denominator",
          "type": "uint256"
        }
      ],
      "name": "PRBMath_MulDiv_Overflow",
      "type": "error"
    },
    {
      "inputs": [],
      "name": "PRBMath_SD59x18_Abs_MinSD59x18",
      "type": "error"
    },
    {
      "inputs": [],
      "name": "PRBMath_SD59x18_Div_InputTooSmall",
      "type": "error"
    },
    {
      "inputs": [
        {
          "internalType": "SD59x18",
          "name": "x",
          "type": "int256"
        },
        {
          "internalType": "SD59x18",
          "name": "y",
          "type": "int256"
        }
      ],
      "name": "PRBMath_SD59x18_Div_Overflow",
      "type": "error"
    },
    {
      "inputs": [
        {
          "internalType": "SD59x18",
          "name": "x",
          "type": "int256"
        }
      ],
      "name": "PRBMath_SD59x18_Exp2_InputTooBig",
      "type": "error"
    },
    {
      "inputs": [],
      "name": "PRBMath_SD59x18_Mul_InputTooSmall",
      "type": "error"
    },
    {
      "inputs": [
        {
          "internalType": "SD59x18",
          "name": "x",
          "type": "int256"
        },
        {
          "internalType": "SD59x18",
          "name": "y",
          "type": "int256"
        }
      ],
      "name": "PRBMath_SD59x18_Mul_Overflow",
      "type": "error"
    },
    {
      "inputs": [
        {
          "internalType": "UD60x18",
          "name": "x",
          "type": "uint256"
        }
      ],
      "name": "PRBMath_UD60x18_Exp2_InputTooBig",
      "type": "error"
    },
    {
      "anonymous": false,
      "inputs": [
        {
          "indexed": true,
          "internalType": "address",
          "name": "addr",
          "type": "address"
        },
        {
          "indexed": true,
          "internalType": "bytes32",
          "name": "task",
          "type": "bytes32"
        }
      ],
      "name": "ContestationSubmitted",
      "type": "event"
    },
    {
      "anonymous": false,
      "inputs": [
        {
          "indexed": true,
          "internalType": "address",
          "name": "addr",
          "type": "address"
        },
        {
          "indexed": true,
          "internalType": "bytes32",
          "name": "task",
          "type": "bytes32"
        },
        {
          "indexed": false,
          "internalType": "bool",
          "name": "yea",
          "type": "bool"
        }
      ],
      "name": "ContestationVote",
      "type": "event"
    },
    {
      "anonymous": false,
      "inputs": [
        {
          "indexed": true,
          "internalType": "bytes32",
          "name": "id",
          "type": "bytes32"
        },
        {
          "indexed": true,
          "internalType": "uint32",
          "name": "start_idx",
          "type": "uint32"
        },
        {
          "indexed": false,
          "internalType": "uint32",
          "name": "end_idx",
          "type": "uint32"
        }
      ],
      "name": "ContestationVoteFinish",
      "type": "event"
    },
    {
      "anonymous": false,
      "inputs": [
        {
          "indexed": false,
          "internalType": "uint8",
          "name": "version",
          "type": "uint8"
        }
      ],
      "name": "Initialized",
      "type": "event"
    },
    {
      "anonymous": false,
      "inputs": [
        {
          "indexed": true,
          "internalType": "bytes32",
          "name": "id",
          "type": "bytes32"
        },
        {
          "indexed": false,
          "internalType": "address",
          "name": "addr",
          "type": "address"
        }
      ],
      "name": "ModelAddrChanged",
      "type": "event"
    },
    {
      "anonymous": false,
      "inputs": [
        {
          "indexed": true,
          "internalType": "bytes32",
          "name": "id",
          "type": "bytes32"
        },
        {
          "indexed": false,
          "internalType": "uint256",
          "name": "fee",
          "type": "uint256"
        }
      ],
      "name": "ModelFeeChanged",
      "type": "event"
    },
    {
      "anonymous": false,
      "inputs": [
        {
          "indexed": true,
          "internalType": "bytes32",
          "name": "id",
          "type": "bytes32"
        }
      ],
      "name": "ModelRegistered",
      "type": "event"
    },
    {
      "anonymous": false,
      "inputs": [
        {
          "indexed": true,
          "internalType": "address",
          "name": "previousOwner",
          "type": "address"
        },
        {
          "indexed": true,
          "internalType": "address",
          "name": "newOwner",
          "type": "address"
        }
      ],
      "name": "OwnershipTransferred",
      "type": "event"
    },
    {
      "anonymous": false,
      "inputs": [
        {
          "indexed": true,
          "internalType": "bool",
          "name": "paused",
          "type": "bool"
        }
      ],
      "name": "PausedChanged",
      "type": "event"
    },
    {
      "anonymous": false,
      "inputs": [
        {
          "indexed": true,
          "internalType": "address",
          "name": "to",
          "type": "address"
        }
      ],
      "name": "PauserTransferred",
      "type": "event"
    },
    {
      "anonymous": false,
      "inputs": [
        {
          "indexed": true,
          "internalType": "address",
          "name": "addr",
          "type": "address"
        },
        {
          "indexed": true,
          "internalType": "bytes32",
          "name": "commitment",
          "type": "bytes32"
        }
      ],
      "name": "SignalCommitment",
      "type": "event"
    },
    {
      "anonymous": false,
      "inputs": [
        {
          "indexed": true,
          "internalType": "address",
          "name": "addr",
          "type": "address"
        },
        {
          "indexed": true,
          "internalType": "bytes32",
          "name": "task",
          "type": "bytes32"
        }
      ],
      "name": "SolutionClaimed",
      "type": "event"
    },
    {
      "anonymous": false,
      "inputs": [
        {
          "indexed": true,
          "internalType": "bytes32",
          "name": "id",
          "type": "bytes32"
        },
        {
          "indexed": false,
          "internalType": "uint256",
          "name": "rate",
          "type": "uint256"
        }
      ],
      "name": "SolutionMineableRateChange",
      "type": "event"
    },
    {
      "anonymous": false,
      "inputs": [
        {
          "indexed": true,
          "internalType": "address",
          "name": "addr",
          "type": "address"
        },
        {
          "indexed": true,
          "internalType": "bytes32",
          "name": "task",
          "type": "bytes32"
        }
      ],
      "name": "SolutionSubmitted",
      "type": "event"
    },
    {
      "anonymous": false,
      "inputs": [
        {
          "indexed": true,
          "internalType": "uint64",
          "name": "startBlockTime",
          "type": "uint64"
        }
      ],
      "name": "StartBlockTimeChanged",
      "type": "event"
    },
    {
      "anonymous": false,
      "inputs": [
        {
          "indexed": true,
          "internalType": "bytes32",
          "name": "id",
          "type": "bytes32"
        },
        {
          "indexed": true,
          "internalType": "bytes32",
          "name": "model",
          "type": "bytes32"
        },
        {
          "indexed": false,
          "internalType": "uint256",
          "name": "fee",
          "type": "uint256"
        },
        {
          "indexed": true,
          "internalType": "address",
          "name": "sender",
          "type": "address"
        }
      ],
      "name": "TaskSubmitted",
      "type": "event"
    },
    {
      "anonymous": false,
      "inputs": [
        {
          "indexed": true,
          "internalType": "address",
          "name": "to",
          "type": "address"
        }
      ],
      "name": "TreasuryTransferred",
      "type": "event"
    },
    {
      "anonymous": false,
      "inputs": [
        {
          "indexed": true,
          "internalType": "address",
          "name": "addr",
          "type": "address"
        },
        {
          "indexed": true,
          "internalType": "address",
          "name": "validator",
          "type": "address"
        },
        {
          "indexed": false,
          "internalType": "uint256",
          "name": "amount",
          "type": "uint256"
        }
      ],
      "name": "ValidatorDeposit",
      "type": "event"
    },
    {
      "anonymous": false,
      "inputs": [
        {
          "indexed": true,
          "internalType": "address",
          "name": "addr",
          "type": "address"
        },
        {
          "indexed": true,
          "internalType": "address",
          "name": "to",
          "type": "address"
        },
        {
          "indexed": true,
          "internalType": "uint256",
          "name": "count",
          "type": "uint256"
        },
        {
          "indexed": false,
          "internalType": "uint256",
          "name": "amount",
          "type": "uint256"
        }
      ],
      "name": "ValidatorWithdraw",
      "type": "event"
    },
    {
      "anonymous": false,
      "inputs": [
        {
          "indexed": true,
          "internalType": "address",
          "name": "addr",
          "type": "address"
        },
        {
          "indexed": true,
          "internalType": "uint256",
          "name": "count",
          "type": "uint256"
        }
      ],
      "name": "ValidatorWithdrawCancelled",
      "type": "event"
    },
    {
      "anonymous": false,
      "inputs": [
        {
          "indexed": true,
          "internalType": "address",
          "name": "addr",
          "type": "address"
        },
        {
          "indexed": true,
          "internalType": "uint256",
          "name": "count",
          "type": "uint256"
        },
        {
          "indexed": false,
          "internalType": "uint256",
          "name": "unlockTime",
          "type": "uint256"
        },
        {
          "indexed": false,
          "internalType": "uint256",
          "name": "amount",
          "type": "uint256"
        }
      ],
      "name": "ValidatorWithdrawInitiated",
      "type": "event"
    },
    {
      "anonymous": false,
      "inputs": [
        {
          "indexed": false,
          "internalType": "uint256",
          "name": "version",
          "type": "uint256"
        }
      ],
      "name": "VersionChanged",
      "type": "event"
    },
    {
      "inputs": [],
      "name": "accruedFees",
      "outputs": [
        {
          "internalType": "uint256",
          "name": "",
          "type": "uint256"
        }
      ],
      "stateMutability": "view",
      "type": "function"
    },
    {
      "inputs": [],
      "name": "baseToken",
      "outputs": [
        {
          "internalType": "contract IBaseToken",
          "name": "",
          "type": "address"
        }
      ],
      "stateMutability": "view",
      "type": "function"
    },
    {
      "inputs": [
        {
          "internalType": "bytes32[]",
          "name": "taskids_",
          "type": "bytes32[]"
        },
        {
          "internalType": "bytes[]",
          "name": "cids_",
          "type": "bytes[]"
        }
      ],
      "name": "bulkSubmitSolution",
      "outputs": [],
      "stateMutability": "nonpayable",
      "type": "function"
    },
    {
      "inputs": [
        {
          "internalType": "uint8",
          "name": "version_",
          "type": "uint8"
        },
        {
          "internalType": "address",
          "name": "owner_",
          "type": "address"
        },
        {
          "internalType": "bytes32",
          "name": "model_",
          "type": "bytes32"
        },
        {
          "internalType": "uint256",
          "name": "fee_",
          "type": "uint256"
        },
        {
          "internalType": "bytes",
          "name": "input_",
          "type": "bytes"
        },
        {
          "internalType": "uint256",
          "name": "n_",
          "type": "uint256"
        }
      ],
      "name": "bulkSubmitTask",
      "outputs": [],
      "stateMutability": "nonpayable",
      "type": "function"
    },
    {
      "inputs": [
        {
          "internalType": "uint256",
          "name": "count_",
          "type": "uint256"
        }
      ],
      "name": "cancelValidatorWithdraw",
      "outputs": [],
      "stateMutability": "nonpayable",
      "type": "function"
    },
    {
      "inputs": [
        {
          "internalType": "bytes32",
          "name": "taskid_",
          "type": "bytes32"
        }
      ],
      "name": "claimSolution",
      "outputs": [],
      "stateMutability": "nonpayable",
      "type": "function"
    },
    {
      "inputs": [
        {
          "internalType": "bytes32",
          "name": "",
          "type": "bytes32"
        }
      ],
      "name": "commitments",
      "outputs": [
        {
          "internalType": "uint256",
          "name": "",
          "type": "uint256"
        }
      ],
      "stateMutability": "view",
      "type": "function"
    },
    {
      "inputs": [],
      "name": "contestationVoteExtensionTime",
      "outputs": [
        {
          "internalType": "uint256",
          "name": "",
          "type": "uint256"
        }
      ],
      "stateMutability": "view",
      "type": "function"
    },
    {
      "inputs": [
        {
          "internalType": "bytes32",
          "name": "taskid_",
          "type": "bytes32"
        },
        {
          "internalType": "uint32",
          "name": "amnt_",
          "type": "uint32"
        }
      ],
      "name": "contestationVoteFinish",
      "outputs": [],
      "stateMutability": "nonpayable",
      "type": "function"
    },
    {
      "inputs": [
        {
          "internalType": "bytes32",
          "name": "",
          "type": "bytes32"
        },
        {
          "internalType": "uint256",
          "name": "",
          "type": "uint256"
        }
      ],
      "name": "contestationVoteNays",
      "outputs": [
        {
          "internalType": "address",
          "name": "",
          "type": "address"
        }
      ],
      "stateMutability": "view",
      "type": "function"
    },
    {
      "inputs": [
        {
          "internalType": "bytes32",
          "name": "",
          "type": "bytes32"
        },
        {
          "internalType": "uint256",
          "name": "",
          "type": "uint256"
        }
      ],
      "name": "contestationVoteYeas",
      "outputs": [
        {
          "internalType": "address",
          "name": "",
          "type": "address"
        }
      ],
      "stateMutability": "view",
      "type": "function"
    },
    {
      "inputs": [
        {
          "internalType": "bytes32",
          "name": "",
          "type": "bytes32"
        },
        {
          "internalType": "address",
          "name": "",
          "type": "address"
        }
      ],
      "name": "contestationVoted",
      "outputs": [
        {
          "internalType": "bool",
          "name": "",
          "type": "bool"
        }
      ],
      "stateMutability": "view",
      "type": "function"
    },
    {
      "inputs": [
        {
          "internalType": "bytes32",
          "name": "",
          "type": "bytes32"
        }
      ],
      "name": "contestationVotedIndex",
      "outputs": [
        {
          "internalType": "uint256",
          "name": "",
          "type": "uint256"
        }
      ],
      "stateMutability": "view",
      "type": "function"
    },
    {
      "inputs": [
        {
          "internalType": "bytes32",
          "name": "",
          "type": "bytes32"
        }
      ],
      "name": "contestations",
      "outputs": [
        {
          "internalType": "address",
          "name": "validator",
          "type": "address"
        },
        {
          "internalType": "uint64",
          "name": "blocktime",
          "type": "uint64"
        },
        {
          "internalType": "uint32",
          "name": "finish_start_index",
          "type": "uint32"
        },
        {
          "internalType": "uint256",
          "name": "slashAmount",
          "type": "uint256"
        }
      ],
      "stateMutability": "view",
      "type": "function"
    },
    {
      "inputs": [
        {
          "internalType": "uint256",
          "name": "t",
          "type": "uint256"
        },
        {
          "internalType": "uint256",
          "name": "ts",
          "type": "uint256"
        }
      ],
      "name": "diffMul",
      "outputs": [
        {
          "internalType": "uint256",
          "name": "",
          "type": "uint256"
        }
      ],
      "stateMutability": "pure",
      "type": "function"
    },
    {
      "inputs": [],
      "name": "exitValidatorMinUnlockTime",
      "outputs": [
        {
          "internalType": "uint256",
          "name": "",
          "type": "uint256"
        }
      ],
      "stateMutability": "view",
      "type": "function"
    },
    {
      "inputs": [
        {
          "internalType": "address",
          "name": "sender_",
          "type": "address"
        },
        {
          "internalType": "bytes32",
          "name": "taskid_",
          "type": "bytes32"
        },
        {
          "internalType": "bytes",
          "name": "cid_",
          "type": "bytes"
        }
      ],
      "name": "generateCommitment",
      "outputs": [
        {
          "internalType": "bytes32",
          "name": "",
          "type": "bytes32"
        }
      ],
      "stateMutability": "pure",
      "type": "function"
    },
    {
      "inputs": [
        {
          "internalType": "bytes",
          "name": "content_",
          "type": "bytes"
        }
      ],
      "name": "generateIPFSCID",
      "outputs": [
        {
          "internalType": "bytes",
          "name": "",
          "type": "bytes"
        }
      ],
      "stateMutability": "pure",
      "type": "function"
    },
    {
      "inputs": [],
      "name": "getPsuedoTotalSupply",
      "outputs": [
        {
          "internalType": "uint256",
          "name": "",
          "type": "uint256"
        }
      ],
      "stateMutability": "view",
      "type": "function"
    },
    {
      "inputs": [],
      "name": "getReward",
      "outputs": [
        {
          "internalType": "uint256",
          "name": "",
          "type": "uint256"
        }
      ],
      "stateMutability": "view",
      "type": "function"
    },
    {
      "inputs": [],
      "name": "getSlashAmount",
      "outputs": [
        {
          "internalType": "uint256",
          "name": "",
          "type": "uint256"
        }
      ],
      "stateMutability": "view",
      "type": "function"
    },
    {
      "inputs": [],
      "name": "getValidatorMinimum",
      "outputs": [
        {
          "internalType": "uint256",
          "name": "",
          "type": "uint256"
        }
      ],
      "stateMutability": "view",
      "type": "function"
    },
    {
      "inputs": [
        {
          "components": [
            {
              "internalType": "uint256",
              "name": "fee",
              "type": "uint256"
            },
            {
              "internalType": "address",
              "name": "addr",
              "type": "address"
            },
            {
              "internalType": "uint256",
              "name": "rate",
              "type": "uint256"
            },
            {
              "internalType": "bytes",
              "name": "cid",
              "type": "bytes"
            }
          ],
          "internalType": "struct Model",
          "name": "o_",
          "type": "tuple"
        },
        {
          "internalType": "address",
          "name": "sender_",
          "type": "address"
        }
      ],
      "name": "hashModel",
      "outputs": [
        {
          "internalType": "bytes32",
          "name": "",
          "type": "bytes32"
        }
      ],
      "stateMutability": "pure",
      "type": "function"
    },
    {
      "inputs": [
        {
          "components": [
            {
              "internalType": "bytes32",
              "name": "model",
              "type": "bytes32"
            },
            {
              "internalType": "uint256",
              "name": "fee",
              "type": "uint256"
            },
            {
              "internalType": "address",
              "name": "owner",
              "type": "address"
            },
            {
              "internalType": "uint64",
              "name": "blocktime",
              "type": "uint64"
            },
            {
              "internalType": "uint8",
              "name": "version",
              "type": "uint8"
            },
            {
              "internalType": "bytes",
              "name": "cid",
              "type": "bytes"
            }
          ],
          "internalType": "struct Task",
          "name": "o_",
          "type": "tuple"
        },
        {
          "internalType": "address",
          "name": "sender_",
          "type": "address"
        },
        {
          "internalType": "bytes32",
          "name": "prevhash_",
          "type": "bytes32"
        }
      ],
      "name": "hashTask",
      "outputs": [
        {
          "internalType": "bytes32",
          "name": "",
          "type": "bytes32"
        }
      ],
      "stateMutability": "pure",
      "type": "function"
    },
    {
      "inputs": [],
      "name": "initialize",
      "outputs": [],
      "stateMutability": "nonpayable",
      "type": "function"
    },
    {
      "inputs": [
        {
          "internalType": "uint256",
          "name": "amount_",
          "type": "uint256"
        }
      ],
      "name": "initiateValidatorWithdraw",
      "outputs": [
        {
          "internalType": "uint256",
          "name": "",
          "type": "uint256"
        }
      ],
      "stateMutability": "nonpayable",
      "type": "function"
    },
    {
      "inputs": [
        {
          "internalType": "address",
          "name": "",
          "type": "address"
        }
      ],
      "name": "lastContestationLossTime",
      "outputs": [
        {
          "internalType": "uint256",
          "name": "",
          "type": "uint256"
        }
      ],
      "stateMutability": "view",
      "type": "function"
    },
    {
      "inputs": [
        {
          "internalType": "address",
          "name": "",
          "type": "address"
        }
      ],
      "name": "lastSolutionSubmission",
      "outputs": [
        {
          "internalType": "uint256",
          "name": "",
          "type": "uint256"
        }
      ],
      "stateMutability": "view",
      "type": "function"
    },
    {
      "inputs": [],
      "name": "maxContestationValidatorStakeSince",
      "outputs": [
        {
          "internalType": "uint256",
          "name": "",
          "type": "uint256"
        }
      ],
      "stateMutability": "view",
      "type": "function"
    },
    {
      "inputs": [],
      "name": "minClaimSolutionTime",
      "outputs": [
        {
          "internalType": "uint256",
          "name": "",
          "type": "uint256"
        }
      ],
      "stateMutability": "view",
      "type": "function"
    },
    {
      "inputs": [],
      "name": "minContestationVotePeriodTime",
      "outputs": [
        {
          "internalType": "uint256",
          "name": "",
          "type": "uint256"
        }
      ],
      "stateMutability": "view",
      "type": "function"
    },
    {
      "inputs": [],
      "name": "minRetractionWaitTime",
      "outputs": [
        {
          "internalType": "uint256",
          "name": "",
          "type": "uint256"
        }
      ],
      "stateMutability": "view",
      "type": "function"
    },
    {
      "inputs": [
        {
          "internalType": "bytes32",
          "name": "",
          "type": "bytes32"
        }
      ],
      "name": "models",
      "outputs": [
        {
          "internalType": "uint256",
          "name": "fee",
          "type": "uint256"
        },
        {
          "internalType": "address",
          "name": "addr",
          "type": "address"
        },
        {
          "internalType": "uint256",
          "name": "rate",
          "type": "uint256"
        },
        {
          "internalType": "bytes",
          "name": "cid",
          "type": "bytes"
        }
      ],
      "stateMutability": "view",
      "type": "function"
    },
    {
      "inputs": [],
      "name": "owner",
      "outputs": [
        {
          "internalType": "address",
          "name": "",
          "type": "address"
        }
      ],
      "stateMutability": "view",
      "type": "function"
    },
    {
      "inputs": [],
      "name": "paused",
      "outputs": [
        {
          "internalType": "bool",
          "name": "",
          "type": "bool"
        }
      ],
      "stateMutability": "view",
      "type": "function"
    },
    {
      "inputs": [],
      "name": "pauser",
      "outputs": [
        {
          "internalType": "address",
          "name": "",
          "type": "address"
        }
      ],
      "stateMutability": "view",
      "type": "function"
    },
    {
      "inputs": [
        {
          "internalType": "address",
          "name": "",
          "type": "address"
        },
        {
          "internalType": "uint256",
          "name": "",
          "type": "uint256"
        }
      ],
      "name": "pendingValidatorWithdrawRequests",
      "outputs": [
        {
          "internalType": "uint256",
          "name": "unlockTime",
          "type": "uint256"
        },
        {
          "internalType": "uint256",
          "name": "amount",
          "type": "uint256"
        }
      ],
      "stateMutability": "view",
      "type": "function"
    },
    {
      "inputs": [
        {
          "internalType": "address",
          "name": "",
          "type": "address"
        }
      ],
      "name": "pendingValidatorWithdrawRequestsCount",
      "outputs": [
        {
          "internalType": "uint256",
          "name": "",
          "type": "uint256"
        }
      ],
      "stateMutability": "view",
      "type": "function"
    },
    {
      "inputs": [],
      "name": "prevhash",
      "outputs": [
        {
          "internalType": "bytes32",
          "name": "",
          "type": "bytes32"
        }
      ],
      "stateMutability": "view",
      "type": "function"
    },
    {
      "inputs": [
        {
          "internalType": "address",
          "name": "addr_",
          "type": "address"
        },
        {
          "internalType": "uint256",
          "name": "fee_",
          "type": "uint256"
        },
        {
          "internalType": "bytes",
          "name": "template_",
          "type": "bytes"
        }
      ],
      "name": "registerModel",
      "outputs": [
        {
          "internalType": "bytes32",
          "name": "",
          "type": "bytes32"
        }
      ],
      "stateMutability": "nonpayable",
      "type": "function"
    },
    {
      "inputs": [],
      "name": "renounceOwnership",
      "outputs": [],
      "stateMutability": "nonpayable",
      "type": "function"
    },
    {
      "inputs": [],
      "name": "retractionFeePercentage",
      "outputs": [
        {
          "internalType": "uint256",
          "name": "",
          "type": "uint256"
        }
      ],
      "stateMutability": "view",
      "type": "function"
    },
    {
      "inputs": [
        {
          "internalType": "uint256",
          "name": "t",
          "type": "uint256"
        },
        {
          "internalType": "uint256",
          "name": "ts",
          "type": "uint256"
        }
      ],
      "name": "reward",
      "outputs": [
        {
          "internalType": "uint256",
          "name": "",
          "type": "uint256"
        }
      ],
      "stateMutability": "pure",
      "type": "function"
    },
    {
      "inputs": [
        {
          "internalType": "bytes32",
          "name": "model_",
          "type": "bytes32"
        },
        {
          "internalType": "address",
          "name": "addr_",
          "type": "address"
        }
      ],
      "name": "setModelAddr",
      "outputs": [],
      "stateMutability": "nonpayable",
      "type": "function"
    },
    {
      "inputs": [
        {
          "internalType": "bytes32",
          "name": "model_",
          "type": "bytes32"
        },
        {
          "internalType": "uint256",
          "name": "fee_",
          "type": "uint256"
        }
      ],
      "name": "setModelFee",
      "outputs": [],
      "stateMutability": "nonpayable",
      "type": "function"
    },
    {
      "inputs": [
        {
          "internalType": "bool",
          "name": "paused_",
          "type": "bool"
        }
      ],
      "name": "setPaused",
      "outputs": [],
      "stateMutability": "nonpayable",
      "type": "function"
    },
    {
      "inputs": [
        {
          "internalType": "bytes32",
          "name": "model_",
          "type": "bytes32"
        },
        {
          "internalType": "uint256",
          "name": "rate_",
          "type": "uint256"
        }
      ],
      "name": "setSolutionMineableRate",
      "outputs": [],
      "stateMutability": "nonpayable",
      "type": "function"
    },
    {
      "inputs": [
        {
          "internalType": "uint64",
          "name": "startBlockTime_",
          "type": "uint64"
        }
      ],
      "name": "setStartBlockTime",
      "outputs": [],
      "stateMutability": "nonpayable",
      "type": "function"
    },
    {
      "inputs": [
        {
          "internalType": "address",
          "name": "veStaking_",
          "type": "address"
        }
      ],
      "name": "setVeStaking",
      "outputs": [],
      "stateMutability": "nonpayable",
      "type": "function"
    },
    {
      "inputs": [
        {
          "internalType": "uint256",
          "name": "version_",
          "type": "uint256"
        }
      ],
      "name": "setVersion",
      "outputs": [],
      "stateMutability": "nonpayable",
      "type": "function"
    },
    {
      "inputs": [
        {
          "internalType": "bytes32",
          "name": "commitment_",
          "type": "bytes32"
        }
      ],
      "name": "signalCommitment",
      "outputs": [],
      "stateMutability": "nonpayable",
      "type": "function"
    },
    {
      "inputs": [],
      "name": "slashAmountPercentage",
      "outputs": [
        {
          "internalType": "uint256",
          "name": "",
          "type": "uint256"
        }
      ],
      "stateMutability": "view",
      "type": "function"
    },
    {
      "inputs": [],
      "name": "solutionFeePercentage",
      "outputs": [
        {
          "internalType": "uint256",
          "name": "",
          "type": "uint256"
        }
      ],
      "stateMutability": "view",
      "type": "function"
    },
    {
      "inputs": [],
      "name": "solutionRateLimit",
      "outputs": [
        {
          "internalType": "uint256",
          "name": "",
          "type": "uint256"
        }
      ],
      "stateMutability": "view",
      "type": "function"
    },
    {
      "inputs": [
        {
          "internalType": "bytes32",
          "name": "",
          "type": "bytes32"
        }
      ],
      "name": "solutions",
      "outputs": [
        {
          "internalType": "address",
          "name": "validator",
          "type": "address"
        },
        {
          "internalType": "uint64",
          "name": "blocktime",
          "type": "uint64"
        },
        {
          "internalType": "bool",
          "name": "claimed",
          "type": "bool"
        },
        {
          "internalType": "bytes",
          "name": "cid",
          "type": "bytes"
        }
      ],
      "stateMutability": "view",
      "type": "function"
    },
    {
      "inputs": [
        {
          "internalType": "bytes32",
          "name": "",
          "type": "bytes32"
        }
      ],
      "name": "solutionsStake",
      "outputs": [
        {
          "internalType": "uint256",
          "name": "",
          "type": "uint256"
        }
      ],
      "stateMutability": "view",
      "type": "function"
    },
    {
      "inputs": [],
      "name": "solutionsStakeAmount",
      "outputs": [
        {
          "internalType": "uint256",
          "name": "",
          "type": "uint256"
        }
      ],
      "stateMutability": "view",
      "type": "function"
    },
    {
      "inputs": [],
      "name": "startBlockTime",
      "outputs": [
        {
          "internalType": "uint64",
          "name": "",
          "type": "uint64"
        }
      ],
      "stateMutability": "view",
      "type": "function"
    },
    {
      "inputs": [
        {
          "internalType": "bytes32",
          "name": "taskid_",
          "type": "bytes32"
        }
      ],
      "name": "submitContestation",
      "outputs": [],
      "stateMutability": "nonpayable",
      "type": "function"
    },
    {
      "inputs": [
        {
          "internalType": "bytes32",
          "name": "taskid_",
          "type": "bytes32"
        },
        {
          "internalType": "bytes",
          "name": "cid_",
          "type": "bytes"
        }
      ],
      "name": "submitSolution",
      "outputs": [],
      "stateMutability": "nonpayable",
      "type": "function"
    },
    {
      "inputs": [
        {
          "internalType": "uint8",
          "name": "version_",
          "type": "uint8"
        },
        {
          "internalType": "address",
          "name": "owner_",
          "type": "address"
        },
        {
          "internalType": "bytes32",
          "name": "model_",
          "type": "bytes32"
        },
        {
          "internalType": "uint256",
          "name": "fee_",
          "type": "uint256"
        },
        {
          "internalType": "bytes",
          "name": "input_",
          "type": "bytes"
        }
      ],
      "name": "submitTask",
      "outputs": [],
      "stateMutability": "nonpayable",
      "type": "function"
    },
    {
      "inputs": [
        {
          "internalType": "uint256",
          "name": "t",
          "type": "uint256"
        }
      ],
      "name": "targetTs",
      "outputs": [
        {
          "internalType": "uint256",
          "name": "",
          "type": "uint256"
        }
      ],
      "stateMutability": "pure",
      "type": "function"
    },
    {
      "inputs": [],
      "name": "taskOwnerRewardPercentage",
      "outputs": [
        {
          "internalType": "uint256",
          "name": "",
          "type": "uint256"
        }
      ],
      "stateMutability": "view",
      "type": "function"
    },
    {
      "inputs": [
        {
          "internalType": "bytes32",
          "name": "",
          "type": "bytes32"
        }
      ],
      "name": "tasks",
      "outputs": [
        {
          "internalType": "bytes32",
          "name": "model",
          "type": "bytes32"
        },
        {
          "internalType": "uint256",
          "name": "fee",
          "type": "uint256"
        },
        {
          "internalType": "address",
          "name": "owner",
          "type": "address"
        },
        {
          "internalType": "uint64",
          "name": "blocktime",
          "type": "uint64"
        },
        {
          "internalType": "uint8",
          "name": "version",
          "type": "uint8"
        },
        {
          "internalType": "bytes",
          "name": "cid",
          "type": "bytes"
        }
      ],
      "stateMutability": "view",
      "type": "function"
    },
    {
      "inputs": [],
      "name": "totalHeld",
      "outputs": [
        {
          "internalType": "uint256",
          "name": "",
          "type": "uint256"
        }
      ],
      "stateMutability": "view",
      "type": "function"
    },
    {
      "inputs": [
        {
          "internalType": "address",
          "name": "to_",
          "type": "address"
        }
      ],
      "name": "transferOwnership",
      "outputs": [],
      "stateMutability": "nonpayable",
      "type": "function"
    },
    {
      "inputs": [
        {
          "internalType": "address",
          "name": "to_",
          "type": "address"
        }
      ],
      "name": "transferPauser",
      "outputs": [],
      "stateMutability": "nonpayable",
      "type": "function"
    },
    {
      "inputs": [
        {
          "internalType": "address",
          "name": "to_",
          "type": "address"
        }
      ],
      "name": "transferTreasury",
      "outputs": [],
      "stateMutability": "nonpayable",
      "type": "function"
    },
    {
      "inputs": [],
      "name": "treasury",
      "outputs": [
        {
          "internalType": "address",
          "name": "",
          "type": "address"
        }
      ],
      "stateMutability": "view",
      "type": "function"
    },
    {
      "inputs": [],
      "name": "treasuryRewardPercentage",
      "outputs": [
        {
          "internalType": "uint256",
          "name": "",
          "type": "uint256"
        }
      ],
      "stateMutability": "view",
      "type": "function"
    },
    {
      "inputs": [
        {
          "internalType": "address",
          "name": "addr_",
          "type": "address"
        },
        {
          "internalType": "bytes32",
          "name": "taskid_",
          "type": "bytes32"
        }
      ],
      "name": "validatorCanVote",
      "outputs": [
        {
          "internalType": "uint256",
          "name": "",
          "type": "uint256"
        }
      ],
      "stateMutability": "view",
      "type": "function"
    },
    {
      "inputs": [
        {
          "internalType": "address",
          "name": "validator_",
          "type": "address"
        },
        {
          "internalType": "uint256",
          "name": "amount_",
          "type": "uint256"
        }
      ],
      "name": "validatorDeposit",
      "outputs": [],
      "stateMutability": "nonpayable",
      "type": "function"
    },
    {
      "inputs": [],
      "name": "validatorMinimumPercentage",
      "outputs": [
        {
          "internalType": "uint256",
          "name": "",
          "type": "uint256"
        }
      ],
      "stateMutability": "view",
      "type": "function"
    },
    {
      "inputs": [
        {
          "internalType": "uint256",
          "name": "count_",
          "type": "uint256"
        },
        {
          "internalType": "address",
          "name": "to_",
          "type": "address"
        }
      ],
      "name": "validatorWithdraw",
      "outputs": [],
      "stateMutability": "nonpayable",
      "type": "function"
    },
    {
      "inputs": [
        {
          "internalType": "address",
          "name": "",
          "type": "address"
        }
      ],
      "name": "validatorWithdrawPendingAmount",
      "outputs": [
        {
          "internalType": "uint256",
          "name": "",
          "type": "uint256"
        }
      ],
      "stateMutability": "view",
      "type": "function"
    },
    {
      "inputs": [
        {
          "internalType": "address",
          "name": "",
          "type": "address"
        }
      ],
      "name": "validators",
      "outputs": [
        {
          "internalType": "uint256",
          "name": "staked",
          "type": "uint256"
        },
        {
          "internalType": "uint256",
          "name": "since",
          "type": "uint256"
        },
        {
          "internalType": "address",
          "name": "addr",
          "type": "address"
        }
      ],
      "stateMutability": "view",
      "type": "function"
    },
    {
      "inputs": [],
      "name": "veRewards",
      "outputs": [
        {
          "internalType": "uint256",
          "name": "",
          "type": "uint256"
        }
      ],
      "stateMutability": "view",
      "type": "function"
    },
    {
      "inputs": [],
      "name": "veStaking",
      "outputs": [
        {
          "internalType": "address",
          "name": "",
          "type": "address"
        }
      ],
      "stateMutability": "view",
      "type": "function"
    },
    {
      "inputs": [],
      "name": "version",
      "outputs": [
        {
          "internalType": "uint256",
          "name": "",
          "type": "uint256"
        }
      ],
      "stateMutability": "view",
      "type": "function"
    },
    {
      "inputs": [
        {
          "internalType": "bytes32",
          "name": "taskid_",
          "type": "bytes32"
        },
        {
          "internalType": "bool",
          "name": "yea_",
          "type": "bool"
        }
      ],
      "name": "voteOnContestation",
      "outputs": [],
      "stateMutability": "nonpayable",
      "type": "function"
    },
    {
      "inputs": [
        {
          "internalType": "bytes32",
          "name": "taskid_",
          "type": "bytes32"
        }
      ],
      "name": "votingPeriodEnded",
      "outputs": [
        {
          "internalType": "bool",
          "name": "",
          "type": "bool"
        }
      ],
      "stateMutability": "view",
      "type": "function"
    },
    {
      "inputs": [],
      "name": "withdrawAccruedFees",
      "outputs": [],
      "stateMutability": "nonpayable",
      "type": "function"
    }
  ],
  "bytecode": "0x60808060405234620000c6576000549060ff8260081c1662000074575060ff8082160362000038575b6040516158e59081620000cc8239f35b60ff90811916176000557f7f26b83ff96e1f2b6a682f133852f6798a09c465da95921460cefb3847402498602060405160ff8152a13862000028565b62461bcd60e51b815260206004820152602760248201527f496e697469616c697a61626c653a20636f6e747261637420697320696e697469604482015266616c697a696e6760c81b6064820152608490fd5b600080fdfe608080604052600436101561001357600080fd5b60003560e01c908162fd7082146132135750806305d1bc26146131eb57806308745dd1146130d757806308afe0eb14612f8f5780630a98573714612e5f5780630c18d4ce14612e365780630d468d9514612e185780631466b63a14612d5a57806316c38b3c14612cba57806317f3e04114612c8e5780631825c20e14612b695780631b75c43e14612b2f5780631f88ea1c14612b16578063218a304814612a82578063218e685914612a485780632258d10514612a2d5780632943a490146129ea578063303fb0d6146129b9578063393cb1c7146129715780633d18b912146129565780633d57f5d91461293b578063408def1e146128ef57806340e8c56d1461289f5780634421ea21146128385780634ff03efa146125d3578063506ea7de1461252257806354fd4d501461250457806356914caf146123755780635c975abb1461234f57806361d027b31461232657806365d445fb14612136578063671f815214611df5578063682c205814611dd7578063715018a614611d8c57806372dc0ee114611d6e57806375c7050914611cfc578063763253bb14611b0957806377286d17146118135780637881c5e6146117f85780637b36006a146117da5780638129fc1c146116eb57806382b5077f146116c2578063836577951461169b578063839df9451461166f5780638b4d7b3514610f8a5780638da5cb5b14610f615780638e6d86fd14610f435780639280944414610f2557806393a090ec14610d7357806393f1f8ac14610cf757806396bb02c314610cd95780639b97511914610cbb5780639fd0506d14610c92578063a1975adf14610c74578063a2492a9014610c56578063a4fa8d5714610c3d578063a53e252514610c1f578063a8f837f314610bb8578063ada82c7d14610af7578063b4dc35b714610acb578063c17ddb2a14610aad578063c1f7272314610a8f578063c24b563114610a55578063c31784be14610a37578063c55dae6314610a0e578063cbd2422d14610944578063cf596e451461091e578063d1f0c941146108d4578063d2307ae41461089a578063d27809401461084d578063d2992baa146107fc578063d33b2ef5146107a3578063d8a6021c1461073c578063dafb43221461068c578063dc06a89f1461066e578063e236f46b14610605578063e579f5001461057b578063f029ac3e146104f1578063f1b8989d146104d3578063f2fde38b1461041a578063f43cc773146103fc5763fa52c7d8146103a457600080fd5b346103f75760203660031901126103f75760606001600160a01b03806103c8613254565b166000526077602052604060002080549160026001830154920154169060405192835260208301526040820152f35b600080fd5b346103f75760003660031901126103f7576020608654604051908152f35b346103f75760203660031901126103f757610433613254565b61043b61352b565b61044361352b565b6001600160a01b0390811690811561047f57603380546001600160a01b03198116841790915516600080516020615850833981519152600080a3005b60405162461bcd60e51b815260206004820152602660248201527f4f776e61626c653a206e6577206f776e657220697320746865207a65726f206160448201526564647265737360d01b6064820152608490fd5b346103f75760003660031901126103f7576020606e54604051908152f35b346103f75760207f5930669abd6e86dc60e9ac97eba465cc7616d921cbd528312d3dfb4c98f386706105223661338f565b600082815260768552604090206001015491939161055590336001600160a01b039182161490811561056d575b50613667565b836000526076825280604060002055604051908152a2005b90506033541633148661054f565b346103f75760203660031901126103f757600435600052607b6020526040600020805461060160018301549260ff6105ba600360028401549301613485565b916040519586958652602086015260018060a01b038116604086015260018060401b038160a01c16606086015260e01c16608084015260c060a084015260c08301906133f6565b0390f35b346103f75760203660031901126103f75760043560005260766020526040600020805461060160018060a01b036001840154169261064a600360028301549201613485565b906040519485948552602085015260408401526080606084015260808301906133f6565b346103f75760003660031901126103f7576020606d54604051908152f35b346103f75760403660031901126103f7576004357feafdd1f0eea366f4be1889897ed391bb67f32c22bb7ba7d9d3db1888acfd7f6360206106cb61323e565b60008481526076835260409020600101546001600160a01b03919082163314801561072f575b6106fa90613667565b166107068115156136a5565b60008481526076835260409081902060010180546001600160a01b0319168317905551908152a2005b50603354821633146106f1565b346103f75760203660031901126103f757610755613254565b61075d61352b565b606680546001600160a01b0319166001600160a01b039290921691821790557f6bdb9ceff405d990c9b60be9f719fbb80889d5f064e8fd76efd5bea353e90712600080a2005b346103f75760203660031901126103f757600435600052607e60205260806040600020600181549101546040519160018060a01b038116835260018060401b038160a01c16602084015260e01c60408301526060820152f35b346103f75760403660031901126103f7576001600160a01b0361081d613254565b16600052607960205260406000206024356000526020526040806000206001815491015482519182526020820152f35b346103f75760403660031901126103f75761086661323e565b600435600052607f60205260406000209060018060a01b0316600052602052602060ff604060002054166040519015158152f35b346103f75760203660031901126103f7576001600160a01b036108bb613254565b1660005260786020526020604060002054604051908152f35b346103f7576108e23661338f565b906000526081602052604060002080548210156103f757602091610905916133a5565b905460405160039290921b1c6001600160a01b03168152f35b346103f75760203660031901126103f757602061093c600435613790565b604051908152f35b346103f7576020806003193601126103f7576004359061096c60ff60675460a01c16156146ec565b3360005260798152604060002082600052815260406000206109ab60405191610994836132ab565b836001825492838652015493019283521515614783565b5133600052607a82526109c460406000209182546135c6565b90553360005260798152604060002090826000525260006001604082208281550155337ff9d5cfcdfe9803069225971ba315f4302add9b477c3441cc363bc38fdb065b90600080a3005b346103f75760003660031901126103f7576065546040516001600160a01b039091168152602090f35b346103f75760003660031901126103f7576020607054604051908152f35b346103f75760203660031901126103f7576001600160a01b03610a76613254565b1660005260886020526020604060002054604051908152f35b346103f75760003660031901126103f7576020608954604051908152f35b346103f75760003660031901126103f7576020606954604051908152f35b346103f75760203660031901126103f75760043560005260836020526020604060002054604051908152f35b346103f75760003660031901126103f757610b1a60ff60675460a01c16156146ec565b60655460665460685460405163a9059cbb60e01b81529260209284926001600160a01b039283169284926000928492610b57921660048401614739565b03925af18015610bac57610b7e575b610b746068546086546135c6565b6086556000606855005b610b9e9060203d8111610ba5575b610b9681836132fc565b810190614721565b5080610b66565b503d610b8c565b6040513d6000823e3d90fd5b346103f75760203660031901126103f7576004356001600160401b038116908190036103f757610be661352b565b606a80546001600160401b031916821790557fa15d6b0930a82638ac4775bfd1b2e9f1e86be67e1bd3a09fa8a77a8f079769d7600080a2005b346103f75760003660031901126103f7576020607554604051908152f35b346103f757602061093c610c503661338f565b9061456b565b346103f75760003660031901126103f7576020608a54604051908152f35b346103f75760003660031901126103f7576020608754604051908152f35b346103f75760003660031901126103f7576067546040516001600160a01b039091168152602090f35b346103f75760003660031901126103f7576020608454604051908152f35b346103f75760003660031901126103f7576020606c54604051908152f35b346103f75760207f0321e8a918b4c47bf3677852c070983825f30a47bc8d9416691454fa6a727d63610d283661338f565b610d3393919361352b565b6000848152607683526040902060010154610d58906001600160a01b03161515613583565b836000526076825280600260406000200155604051908152a2005b346103f75760403660031901126103f757610d8c613254565b602435610da160ff60675460a01c16156146ec565b6065546040516323b872dd60e01b81526001600160a01b03916020919082908290851681600081610dd78a303360048501614754565b03925af18015610bac57610f08575b50610df383608654614776565b60865581610dff61363a565b94169384600052607782526040600020548482821115610ed9575b50505083600052607781526040600020610e3a8460018301549254614776565b60405190939060608101906001600160401b03821181831017610ec3577f8d4844488c19a90828439e71d14ebad860806d04f8ef8b25a82179fab2699b89956002926040528152848101938452604081019388855288600052607786526040600020915182555160018201550191511660018060a01b03198254161790556040519283523392a3005b634e487b7160e01b600052604160045260246000fd5b610ee291614776565b1015610ef1575b848084610e1a565b836000526077815242600160406000200155610ee9565b610f1e90823d8411610ba557610b9681836132fc565b5084610de6565b346103f75760003660031901126103f7576020607154604051908152f35b346103f75760003660031901126103f7576020607454604051908152f35b346103f75760003660031901126103f7576033546040516001600160a01b039091168152602090f35b346103f75760403660031901126103f7576024803563ffffffff81168091036103f757610fbf60ff60675460a01c16156146ec565b6004356000908152607e60205260409020546001600160a01b03161561162e57610fea600435615417565b156115f05780156115bb57600435600052608160205263ffffffff6040600020541691608260205263ffffffff60406000205416607e60205260406000205460e01c9363ffffffff848601116115a657600435600052607e602052600160406000200154918082116000146113c75782611063916135d3565b6001821480156113b2578182915b1561138b57505060005b865b63ffffffff87890116811061122d575050505050600435600052607e60205260406000205460e01c15611100575b505b600435600052607e6020526110c881830160406000206153f4565b63ffffffff6040519183011681527f71d8c71303e35a39162e33a402c9897bf9848388537bac7d5e1b0d202eca4e66602060043592a3005b61114a602060018060a01b0360655416607b82526040600020906001808060a01b0360028401541692015491600060405180968195829463a9059cbb60e01b845260048401614739565b03925af18015610bac5761120e575b50600435600052607b6020526111796001604060002001546086546135c6565b60865560043560005260836020526040600020549060816020526040600020908154156111fa575060005260018060a01b036020600020541660005260776020526111ca6040600020918254614776565b9055600435600052607d60205260018060a01b0360406000205416600052608560205242604060002055826110ab565b634e487b7160e01b60009081526032600452fd5b6112269060203d602011610ba557610b9681836132fc565b5083611159565b8084849210611246575b6112419150614a3b565b61107d565b600435600052608160205261125f8160406000206133a5565b60018060a01b0391549060031b1c168060005260776020526040600020611287888254614776565b90558382611311575060655460405163a9059cbb60e01b81529360209285926001600160a01b031691839160009183916112c5919060048401614739565b03925af1918215610bac57611241926112f2575b5060866112e78582546135c6565b90555b839150611237565b61130a9060203d602011610ba557610b9681836132fc565b50896112d9565b611343935060209160018060a01b036065541690600060405180978195829463a9059cbb60e01b845260048401614739565b03925af1918215610bac576112419261136c575b5060866113658482546135c6565b90556112ea565b6113849060203d602011610ba557610b9681836132fc565b5089611357565b6113ad91611398916135c6565b63ffffffff6113a68561557f565b16906135e6565b61107b565b6113bf8260011c836135c6565b918291611071565b918093506113d4916135d3565b60018214801561159a578182915b1561158857505060005b855b63ffffffff86880116811061142a575050505050600435600052607e60205260406000205460e01c6110ad57611425600435614e8a565b6110ad565b8084849210611443575b61143e9150614a3b565b6113ee565b600435600052608260205261145c8160406000206133a5565b60018060a01b0391549060031b1c168060005260776020526040600020611484888254614776565b9055838261150e575060655460405163a9059cbb60e01b81529360209285926001600160a01b031691839160009183916114c2919060048401614739565b03925af1918215610bac5761143e926114ef575b5060866114e48582546135c6565b90555b839150611434565b6115079060203d602011610ba557610b9681836132fc565b50886114d6565b611540935060209160018060a01b036065541690600060405180978195829463a9059cbb60e01b845260048401614739565b03925af1918215610bac5761143e92611569575b5060866115628482546135c6565b90556114e7565b6115819060203d602011610ba557610b9681836132fc565b5088611554565b61159591611398916135c6565b6113ec565b8160011c9182916113e2565b82634e487b7160e01b60005260116004526000fd5b60405162461bcd60e51b815260206004820152600e818401526d185b5b9d081d1bdbc81cdb585b1b60921b6044820152606490fd5b60405162461bcd60e51b815260206004820152601781840152761d9bdd1a5b99c81c195c9a5bd9081b9bdd08195b991959604a1b6044820152606490fd5b60405162461bcd60e51b815260206004820152601a818401527918dbdb9d195cdd185d1a5bdb88191bd95cdb89dd08195e1a5cdd60321b6044820152606490fd5b346103f75760203660031901126103f757600435600052607c6020526020604060002054604051908152f35b346103f75760403660031901126103f757602061093c6116b9613254565b6024359061547e565b346103f75760003660031901126103f757608b546040516001600160a01b039091168152602090f35b346103f75760003660031901126103f75760005460ff8160081c1615806117cd575b156117715760006086819055606a80546001600160401b031916426001600160401b031617905561ffff1990911660049081179091556040519081527f7f26b83ff96e1f2b6a682f133852f6798a09c465da95921460cefb384740249890602090a1005b60405162461bcd60e51b815260206004820152602e60248201527f496e697469616c697a61626c653a20636f6e747261637420697320616c72656160448201526d191e481a5b9a5d1a585b1a5e995960921b6064820152608490fd5b50600460ff82161061170d565b346103f75760003660031901126103f7576020607354604051908152f35b346103f75760003660031901126103f757602061093c6145c9565b346103f7576020806003193601126103f75760043561183a60ff60675460a01c16156146ec565b6000818152607d8084526040808320546001600160a01b03908116845260778652818420548585528387528285205482168552607a8752919093205461187f916135c6565b61188761363a565b11611ac55782600052808452816040600020541615611a8b5782600052607e84528160406000205416611a535760008381528185526040902054607154906001600160401b039060a01c81166118dd83426135c6565b1115611a1b578460005282865261191561190c6040600020549386851660005260858952604060002054614776565b60735490614776565b9160a01c1611156119bf578260005280845260ff60406000205460e01c16611988579082916119869483600052526040600020805490600160e01b60ff60e01b198316179055167f0b76b4ae356796814d36b46f7c500bbd27b2cce1e6059a6fa2bebfd5a389b190600080a3614e8a565b005b60405162461bcd60e51b815260048101859052600f60248201526e185b1c9958591e4818db185a5b5959608a1b6044820152606490fd5b60405162461bcd60e51b815260048101859052602e60248201527f636c61696d536f6c7574696f6e20636f6f6c646f776e206166746572206c6f7360448201526d3a1031b7b73a32b9ba30ba34b7b760911b6064820152608490fd5b60405162461bcd60e51b815260048101879052601060248201526f6e6f7420656e6f7567682064656c617960801b6044820152606490fd5b60405162461bcd60e51b815260048101859052601060248201526f3430b99031b7b73a32b9ba30ba34b7b760811b6044820152606490fd5b60405162461bcd60e51b81526004810185905260126024820152711cdbdb1d5d1a5bdb881b9bdd08199bdd5b9960721b6044820152606490fd5b60405162461bcd60e51b815260048101859052601c60248201527b76616c696461746f72206d696e207374616b656420746f6f206c6f7760201b6044820152606490fd5b346103f75760403660031901126103f757600435611b2561323e565b611b3760ff60675460a01c16156146ec565b336000526020906079825260406000208360005282526040600020604051611b5e816132ab565b611b7960018354938484520154928583019384521515614783565b514210611cc9573360005260778352604060002054815111611c8f5760009060018060a01b039084611bc88360655416835160405196878094819363a9059cbb60e01b83528b60048401614739565b03925af1928315610bac577f109aeff667601aad33abcb7c5df1617754eefd18253d586a95c198cb479b5bd493611c72575b5080513360005260778652611c1560406000209182546135c6565b9055611c2481516086546135c6565b608655805133600052607a8652611c4160406000209182546135c6565b90553360005260798552604060002086600052855260006001604082208281550155519260405193845216923392a4005b611c8890863d8811610ba557610b9681836132fc565b5086611bfa565b60405162461bcd60e51b81526004810184905260126024820152711cdd185ad9481a5b9cdd59999a58da595b9d60721b6044820152606490fd5b60405162461bcd60e51b815260048101849052600b60248201526a3bb0b4ba103637b733b2b960a91b6044820152606490fd5b346103f75760203660031901126103f757600435600052607d60205260ff6040600020610601611d30600183549301613485565b60405193849360018060a01b038116855260018060401b038160a01c16602086015260e01c16151560408401526080606084015260808301906133f6565b346103f75760003660031901126103f7576020606f54604051908152f35b346103f75760003660031901126103f757611da561352b565b603380546001600160a01b031981169091556000906001600160a01b03166000805160206158508339815191528280a3005b346103f75760003660031901126103f7576020606854604051908152f35b346103f7576020806003193601126103f75760043590611e1d60ff60675460a01c16156146ec565b611e2e611e2933614e53565b614e12565b6000828152607d825260409020546001600160a01b0391908216156120f85782600052607e815281604060002054166120b6576000838152607d825260409020546071546001600160401b039291611e8b919060a01c8416614776565b4210156120875783600052607d815260ff60406000205460e01c1661205d57611eb2613606565b9160405190611ec0826132e1565b338252611f1763ffffffff848401928042168452611f0f60408601916000835260608701958987528b600052607e89528a604060002098511660018060a01b031989541617885551168661480a565b5116836153f4565b5160018092015584337f6958c989e915d3e41a35076e3c480363910055408055ad86ae1ee13d41c40640600080a3607f8252604060002033600052825260406000209360ff199482868254161790558560005260818352611f7c336040600020615544565b85600052607e835281604060002001543360005260778452611fa460406000209182546135c6565b905560405193828552866000805160206158908339815191529586863392a386600052607d84528160406000205416600052607784526040600020541015611fe857005b85600052607d83526040600020541693607f8352604060002085600052835281604060002091825416179055846000526082825261202a846040600020615544565b84600052607e825260406000200154836000526077825261205160406000209182546135c6565b905560405160008152a3005b6064906040519062461bcd60e51b8252600482015260036024820152623bba3360e91b6044820152fd5b6064906040519062461bcd60e51b825260048201526008602482015267746f6f206c61746560c01b6044820152fd5b6064906040519062461bcd60e51b82526004820152601b60248201527a636f6e746573746174696f6e20616c72656164792065786973747360281b6044820152fd5b6064906040519062461bcd60e51b8252600482015260176024820152761cdbdb1d5d1a5bdb88191bd95cc81b9bdd08195e1a5cdd604a1b6044820152fd5b346103f75760403660031901126103f7576001600160401b036004358181116103f75761216790369060040161341b565b9060249283358181116103f75761218290369060040161341b565b949061219660ff60675460a01c16156146ec565b33600052602091608583526121b661190c60406000205460715490614776565b4211156122dd576121c9866084546135d3565b33600052607784526121e160406000209182546135c6565b905533600052608883526121fa604060002054426135c6565b670de0b6b3a764000061220f886087546135d3565b0410156122a457336000526088835242604060002055612231611e2933614e53565b60005b86811061223d57005b8060051b908881101561228f5781840135601e19853603018112156103f7578401918235928784116103f75786019280360384136103f75761228a93612285928a0135614ae6565b614a3b565b612234565b82634e487b7160e01b60005260326004526000fd5b8260136064926040519262461bcd60e51b84526004840152820152721cdbdb1d5d1a5bdb881c985d19481b1a5b5a5d606a1b6044820152fd5b82602f6084926040519262461bcd60e51b8452600484015282015260008051602061583083398151915260448201526e39ba1031b7b73a32b9ba30ba34b7b760891b6064820152fd5b346103f75760003660031901126103f7576066546040516001600160a01b039091168152602090f35b346103f75760003660031901126103f757602060ff60675460a01c166040519015158152f35b346103f75760403660031901126103f7576024356001600160401b0381116103f7576123a590369060040161327e565b6123b760ff60675460a01c16156146ec565b33600052602091608583526123d761190c60406000205460715490614776565b4211156124b957608454808004600114811517156124a357336000526077845261240760406000209182546135c6565b90553360005260888352612420604060002054426135c6565b608754808004600114811517156124a357670de0b6b3a76400009004101561246857608861198693336000525242604060002055612460611e2933614e53565b600435614ae6565b60405162461bcd60e51b81526004810184905260136024820152721cdbdb1d5d1a5bdb881c985d19481b1a5b5a5d606a1b6044820152606490fd5b634e487b7160e01b600052601160045260246000fd5b60405162461bcd60e51b815260048101849052602f602482015260008051602061583083398151915260448201526e39ba1031b7b73a32b9ba30ba34b7b760891b6064820152608490fd5b346103f75760003660031901126103f7576020606b54604051908152f35b346103f75760203660031901126103f75760043561254860ff60675460a01c16156146ec565b80600052607c60205260406000205461259a57612563614a4a565b81600052607c602052604060002055337f09b4c028a2e50fec6f1c6a0163c59e8fbe92b231e5c03ef3adec585e63a14b92600080a3005b60405162461bcd60e51b8152602060048201526011602482015270636f6d6d69746d656e742065786973747360781b6044820152606490fd5b346103f75760603660031901126103f7576125ec613254565b6001600160401b0390604435908282116103f75761261161264292369060040161327e565b61262660ff60679593955460a01c16156146ec565b6001600160a01b039283169361263d8515156136a5565b615595565b9060405193612650856132e1565b602435855260209485810194855260408101600081526060820194855261267733836136ec565b958660005260768852600194808660406000200154166127f857600088815260768a526040902093518455905185840180546001600160a01b031916919092161790555160028201559251805160039490940193918211610ec3576126dc845461344b565b601f81116127af575b508590601f831160011461274c57928293918392600094612741575b50501b916000199060031b1c19161790555b60405190807fa4b0af38d049ba81703a0d0e46cc2ff39681210302134046237111a8fb7dee72600080a28152f35b015192508780612701565b90601f198316918560005283886000209360005b8a88838310612798575050501061277f575b505050811b019055612713565b015160001960f88460031b161c19169055858080612772565b868601518855909601959485019487935001612760565b8460005286600020601f840160051c8101918885106127ee575b601f0160051c019084905b8281106127e25750506126e5565b600081550184906127d4565b90915081906127c9565b60405162461bcd60e51b8152600481018a905260186024820152771b5bd9195b08185b1c9958591e481c9959da5cdd195c995960421b6044820152606490fd5b346103f75760203660031901126103f757612851613254565b61285961352b565b606780546001600160a01b0319166001600160a01b039290921691821790557f5a85b4270fc1e75035e6cd505418ce65e0bcc36cc7eb9ce9e6f8c6181d4cb577600080a2005b346103f75760203660031901126103f7576004356001600160401b0381116103f7576128db6128d561060192369060040161327e565b90615595565b6040519182916020835260208301906133f6565b346103f75760203660031901126103f7577f8c854a81cb5c93e7e482d30fb9c6f88fdbdb320f10f7a853c2263659b54e563f602060043561292e61352b565b80606b55604051908152a1005b346103f75760003660031901126103f757602061093c613606565b346103f75760003660031901126103f757602061093c614679565b346103f75760603660031901126103f75761298a613254565b6044356001600160401b0381116103f7576020916129af61093c92369060040161327e565b916024359061469b565b346103f7576129c73661338f565b906000526082602052604060002080548210156103f757602091610905916133a5565b346103f75760203660031901126103f757612a03613254565b612a0b61352b565b608b80546001600160a01b0319166001600160a01b0392909216919091179055005b346103f75760003660031901126103f757602061093c61363a565b346103f75760203660031901126103f7576001600160a01b03612a69613254565b1660005260856020526020604060002054604051908152f35b346103f7576003196040368201126103f7576001600160401b0390600435908282116103f75760809082360301126103f757604051612ac0816132e1565b81600401358152612ad36024830161326a565b60208201526044820135604082015260648201359283116103f757612b0361093c92600460209536920101613371565b6060820152612b1061323e565b906136ec565b346103f757602061093c612b293661338f565b90614185565b346103f75760203660031901126103f7576001600160a01b03612b50613254565b16600052607a6020526020604060002054604051908152f35b346103f75760403660031901126103f757600435602435801515908181036103f757612b9d60ff60675460a01c16156146ec565b612ba9611e2933614e53565b612bb3833361547e565b612c5b576000805160206158908339815191529083600052602090607f825260406000203360005282526040600020600160ff19825416179055600014612c40578360005260818152612c0a336040600020615544565b83600052607e81526001604060002001543360005260778252612c3360406000209182546135c6565b90556040519283523392a3005b8360005260828152612c56336040600020615544565b612c0a565b60405162461bcd60e51b815260206004820152600b60248201526a1b9bdd08185b1b1bddd95960aa1b6044820152606490fd5b346103f75760203660031901126103f75760043560005260806020526020604060002054604051908152f35b346103f75760203660031901126103f7576004358015158091036103f7576067546001600160a01b0381163303612d285760ff60a01b191660a082901b60ff60a01b16176067557fd83d5281277e107f080e362699d46082adb74e7dc6a9bccbc87d8ae9533add44600080a2005b60405162461bcd60e51b815260206004820152600a6024820152693737ba103830bab9b2b960b11b6044820152606490fd5b346103f7576003196060368201126103f7576001600160401b0390600435908282116103f75760c09082360301126103f757604051612d98816132c6565b8160040135815260248201356020820152612db56044830161326a565b6040820152606482013583811681036103f7576060820152608482013560ff811681036103f757608082015260a48201359283116103f757612e0261093c92600460209536920101613371565b60a0820152612e0f61323e565b60443591613745565b346103f75760003660031901126103f7576020608c54604051908152f35b346103f75760003660031901126103f757606a546040516001600160401b039091168152602090f35b346103f7576020806003193601126103f757600435612e8660ff60675460a01c16156146ec565b336000526077825280612ea8604060002054607a8552604060002054906135c6565b10612f7057612eb960755442614776565b9033600052607883526040600020805490600182018092116124a357553360005260788352604060002054918291604051612ef3816132ab565b8281526001868201838152336000526079885260406000208660005288526040600020925183555191015533600052607a85526040600020612f36828254614776565b9055604051918252848201527fcc7e0e76b20394ef965d71c4111d21e1b322bb8775dc2c7acd29eb0d3c3dd96d60403392a3604051908152f35b60405162461bcd60e51b81526004810183905260006024820152604490fd5b346103f75760c03660031901126103f757612fa861322e565b612fb061323e565b6044359160643591906084356001600160401b0381116103f757612fd890369060040161327e565b92909461303760a43594612ff460ff60675460a01c16156146ec565b6000838152607660205260409020600101546001600160a01b03989061301d908a161515613583565b83600052607660205261263d6040600020548910156147c3565b9160005b8581106130c1576000878760206130788c6065541661305a84866135d3565b6040519687809481936323b872dd60e01b8352303360048501614754565b03925af1918215610bac5761309e93613096936130a3575b506135d3565b608654614776565b608655005b6130ba9060203d8111610ba557610b9681836132fc565b5084613090565b6130d290612285858986868a614833565b61303b565b346103f75760a03660031901126103f7576130f061322e565b6130f861323e565b6064359160443591906084356001600160401b0381116103f75761318193613187936131298793369060040161327e565b61313e60ff60679993995460a01c16156146ec565b6000848152607660205260409020600101546001600160a01b039890613167908a161515613583565b84600052607660205261263d6040600020548710156147c3565b93614833565b6065541690602060405180936323b872dd60e01b8252816000816131b087303360048501614754565b03925af1918215610bac5761309e926131cd575b50608654614776565b6131e49060203d8111610ba557610b9681836132fc565b50826131c4565b346103f75760203660031901126103f7576020613209600435615417565b6040519015158152f35b346103f75760003660031901126103f7576020906072548152f35b6004359060ff821682036103f757565b602435906001600160a01b03821682036103f757565b600435906001600160a01b03821682036103f757565b35906001600160a01b03821682036103f757565b9181601f840112156103f7578235916001600160401b0383116103f757602083818601950101116103f757565b604081019081106001600160401b03821117610ec357604052565b60c081019081106001600160401b03821117610ec357604052565b608081019081106001600160401b03821117610ec357604052565b601f909101601f19168101906001600160401b03821190821017610ec357604052565b6001600160401b038111610ec357601f01601f191660200190565b9291926133468261331f565b9161335460405193846132fc565b8294818452818301116103f7578281602093846000960137010152565b9080601f830112156103f75781602061338c9335910161333a565b90565b60409060031901126103f7576004359060243590565b80548210156133bd5760005260206000200190600090565b634e487b7160e01b600052603260045260246000fd5b60005b8381106133e65750506000910152565b81810151838201526020016133d6565b9060209161340f815180928185528580860191016133d3565b601f01601f1916010190565b9181601f840112156103f7578235916001600160401b0383116103f7576020808501948460051b0101116103f757565b90600182811c9216801561347b575b602083101461346557565b634e487b7160e01b600052602260045260246000fd5b91607f169161345a565b90604051918260008254926134998461344b565b90818452600194858116908160001461350857506001146134c5575b50506134c3925003836132fc565b565b9093915060005260209081600020936000915b8183106134f05750506134c3935082010138806134b5565b855488840185015294850194879450918301916134d8565b9150506134c394506020925060ff191682840152151560051b82010138806134b5565b6033546001600160a01b0316330361353f57565b606460405162461bcd60e51b815260206004820152602060248201527f4f776e61626c653a2063616c6c6572206973206e6f7420746865206f776e65726044820152fd5b1561358a57565b60405162461bcd60e51b81526020600482015260146024820152731b5bd9195b08191bd95cc81b9bdd08195e1a5cdd60621b6044820152606490fd5b919082039182116124a357565b818102929181159184041417156124a357565b81156135f0570490565b634e487b7160e01b600052601260045260246000fd5b61360e6145c9565b606d5490670de0b6b3a7640000918203918083116124a35761363361338c93836135d3565b04906135c6565b6136426145c9565b606c5490670de0b6b3a7640000918203918083116124a35761363361338c93836135d3565b1561366e57565b60405162461bcd60e51b815260206004820152600f60248201526e3737ba1036b7b232b61037bbb732b960891b6044820152606490fd5b156136ac57565b60405162461bcd60e51b815260206004820152601860248201527761646472657373206d757374206265206e6f6e2d7a65726f60401b6044820152606490fd5b61373f60018060a01b036137318160208501511693606081519101519060405195869460208601981688526040850152606084015260808084015260a08301906133f6565b03601f1981018352826132fc565b51902090565b909161373f9061373183519360a0602082015191015190604051958694602086019860018060a01b0316895260408601526060850152608084015260a08084015260c08301906133f6565b63bbf81e00811161381a576137a490613829565b680a688906bd8affffff8111613802576137cb670de0b6b3a7640000809260401b04613974565b9081156135f057697f0e10af47c1c7000000917105f95e44a0e2947c3011ad48e1abf7023b57603c1b040481039081116124a35790565b6024906040519063b3b6ba1f60e01b82526004820152fd5b50697f0e10af47c1c700000090565b670de0b6b3a76400009190600019838209838202918280831092039180830392146138b7576301e13380908183101561389457947f98f5be4dd1e14769fbd6666224dc1eb80dd2e0a3d2c8b328f57e76b7ae10395794950990828211900360f91b910360071c170290565b6064918660405192630c740aef60e31b8452600484015260248301526044820152fd5b50506301e1338090049150565b670de0b6b3a7640000916000198383099280830292838086109503948086039514613967578285101561394457908291096001821901821680920460028082600302188083028203028083028203028083028203028083028203028083028203028092029003029360018380600003040190848311900302920304170290565b8260649260405192630c740aef60e31b8452600484015260248301526044820152fd5b50509061338c92506135e6565b600160bf1b60ff60381b821661407c575b670de0b6b3a76400009060ff60301b8316613f84575b60ff60281b8316613e8c575b60ff60201b8316613d94575b63ff0000008316613c9c575b62ff00008316613bad575b61ff008316613ace575b60ff83166139e9575b029060401c60bf031c90565b60808316613abd575b6040808416613aaa575b60208416613a97575b60108416613a84575b60088416613a71575b60048416613a5e575b60028416613a4b575b60018416613a38575b506139dd565b6001600160401b01909102901c38613a32565b6001600160401b01909102811c90613a29565b6003600160401b01909102811c90613a20565b6006600160401b01909102811c90613a17565b600b600160401b01909102811c90613a0e565b6016600160401b01909102811c90613a05565b602c600160401b01909102811c906139fc565b6059600160401b010260401c6139f2565b6180008316613b9b575b6140008316613b89575b6120008316613b77575b6110008316613b65575b6108008316613b53575b6104008316613b41575b6102008316613b2f575b6101008316156139d45760b1600160401b010260401c6139d4565b610163600160401b010260401c613b14565b6102c6600160401b010260401c613b0a565b61058c600160401b010260401c613b00565b610b17600160401b010260401c613af6565b61162e600160401b010260401c613aec565b612c5d600160401b010260401c613ae2565b6158b9600160401b010260401c613ad8565b628000008316613c89575b624000008316613c76575b622000008316613c63575b621000008316613c50575b620800008316613c3d575b620400008316613c2a575b620200008316613c17575b620100008316156139ca5761b172600160401b010260401c6139ca565b680100000000000162e40260401c613bfa565b6801000000000002c5c80260401c613bef565b68010000000000058b910260401c613be4565b680100000000000b17210260401c613bd9565b68010000000000162e430260401c613bce565b680100000000002c5c860260401c613bc3565b6801000000000058b90c0260401c613bb8565b63800000008316613d81575b63400000008316613d6e575b63200000008316613d5b575b63100000008316613d48575b63080000008316613d35575b63040000008316613d22575b63020000008316613d0f575b63010000008316156139bf5768010000000000b172180260401c6139bf565b6801000000000162e4300260401c613cf0565b68010000000002c5c8600260401c613ce4565b680100000000058b90c00260401c613cd8565b6801000000000b17217f0260401c613ccc565b680100000000162e42ff0260401c613cc0565b6801000000002c5c85fe0260401c613cb4565b68010000000058b90bfc0260401c613ca8565b600160271b8316613e79575b600160261b8316613e66575b600160251b8316613e53575b600160241b8316613e40575b600160231b8316613e2d575b600160221b8316613e1a575b600160211b8316613e07575b600160201b8316156139b357680100000000b17217f80260401c6139b3565b68010000000162e42ff10260401c613de8565b680100000002c5c85fe30260401c613ddc565b6801000000058b90bfce0260401c613dd0565b68010000000b17217fbb0260401c613dc4565b6801000000162e42fff00260401c613db8565b68010000002c5c8601cc0260401c613dac565b680100000058b90c0b490260401c613da0565b6001602f1b8316613f71575b6001602e1b8316613f5e575b6001602d1b8316613f4b575b6001602c1b8316613f38575b6001602b1b8316613f25575b6001602a1b8316613f12575b600160291b8316613eff575b600160281b8316156139a7576801000000b1721835510260401c6139a7565b680100000162e430e5a20260401c613ee0565b6801000002c5c863b73f0260401c613ed4565b68010000058b90cf1e6e0260401c613ec8565b680100000b1721bcfc9a0260401c613ebc565b68010000162e43f4f8310260401c613eb0565b680100002c5c89d5ec6d0260401c613ea4565b6801000058b91b5bc9ae0260401c613e98565b600160371b8316614069575b600160361b8316614056575b600160351b8316614043575b600160341b8316614030575b600160331b831661401d575b600160321b831661400a575b600160311b8316613ff7575b600160301b83161561399b5768010000b17255775c040260401c61399b565b6801000162e525ee05470260401c613fd8565b68010002c5cc37da94920260401c613fcc565b680100058ba01fb9f96d0260401c613fc0565b6801000b175effdc76ba0260401c613fb4565b680100162f3904051fa10260401c613fa8565b6801002c605e2e8cec500260401c613f9c565b68010058c86da1c09ea20260401c613f90565b6001603f1b8216614172575b670de0b6b3a7640000906001603e1b831661415f575b6001603d1b831661414c575b6001603c1b8316614139575b6001603b1b8316614126575b6001603a1b8316614113575b600160391b8316614100575b600160381b83166140ed575b9050613985565b680100b1afa5abcbed610260401c6140e6565b68010163da9fb33356d80260401c6140da565b680102c9a3e778060ee70260401c6140ce565b6801059b0d31585743ae0260401c6140c2565b68010b5586cf9890f62a0260401c6140b6565b6801172b83c7d517adce0260401c6140aa565b6801306fe0a31b7152df0260401c61409e565b5068016a09e667f3bcc909607f1b614088565b80151580614441575b156144115761419c90613790565b90600160ff1b8082148015614408575b6143555760008212156143ff576141d4826000035b60008512156143f85784600003906138c4565b6001600160ff1b03928382116143da5760001994600091188512156143d35750915b670cf4ad2e86166c9c83126143c257670de0b6b3a763ffff1992808401906001818313166124a35783821480156143ba575b6143a857600082121561439e57670de0b6b3a764000061424b91600003016144cc565b90828211614377578568056bc75e2d6310000060009218136000146143705750925b83018381136001166124a35783126001166124a3576801158e460913d0000083121561436757600083129384156142ce57505081146142bc5761338c91156142b75760000361444a565b61444a565b60405163ec2b9e6760e01b8152600490fd5b91926142db91945061444a565b91821461435557600082121561434f57816000035b80156135f0576a0c097ce7bc90715b34b9f160241b0492831161432857600091670de0b6b3a7640000181315614324575090565b0390565b60405163d49c26b360e01b8152670de0b6b3a7640000600482015260248101839052604490fd5b816142f0565b6040516309fe2b4560e41b8152600490fd5b50505050600090565b039261426d565b6044906040519063120b5b4360e01b8252600482015268056bc75e2d631000006024820152fd5b5061424b816144cc565b60405163a6070c2560e01b8152600490fd5b506000614228565b5050505068056bc75e2d6310000090565b03916141f6565b604490856040519163d49c26b360e01b835260048301526024820152fd5b84906138c4565b6141d4826141c1565b508083146141ac565b60405162461bcd60e51b81526020600482015260086024820152676d696e2076616c7360c01b6044820152606490fd5b5081151561418e565b600081121561448f5768033dd1780914b97114198112614489576144709060000361444a565b80156135f0576a0c097ce7bc90715b34b9f160241b0590565b50600090565b680a688906bd8affffff81136144b557670de0b6b3a764000061338c9160401b05613974565b60249060405190626c1a0560e31b82526004820152fd5b68056bc75e2d6310000091906000198382098382029182808310920391808303921461455a57670de0b6b3a7640000908183101561453c57947faccb18165bd6fe31ae1cf318dc5b51eee0e1ba569b88cd74c1773b91fac1066994950990828211900360ee1b910360121c170290565b6044908660405191635173648d60e01b835260048301526024820152fd5b5050670de0b6b3a764000090049150565b9080156145bb57697f0e10af47c1c7000000908082038281116124a357670de0b6b3a764000093848202918204851483851417156124a3576145b6926145b091614185565b906135d3565b040490565b5050670de0b6b3a764000090565b6065546040516370a0823160e01b815230600482015290602090829060249082906001600160a01b03165afa908115610bac57600091614645575b50697f0e10af47c1c7000000908181101561463e5761462961463291608654906135c6565b608c54906135c6565b81039081116124a35790565b5050600090565b906020823d8211614671575b8161465e602093836132fc565b8101031261466e57505138614604565b80fd5b3d9150614651565b606a5461338c90614693906001600160401b0316426135c6565b610c506145c9565b9261373f9160a091806040519586936020850198600180881b031689526040850152606080850152816080850152848401376000838284010152601f801991011681010360808101845201826132fc565b156146f357565b60405162461bcd60e51b81526020600482015260066024820152651c185d5cd95960d21b6044820152606490fd5b908160209103126103f7575180151581036103f75790565b6001600160a01b039091168152602081019190915260400190565b6001600160a01b03918216815291166020820152604081019190915260600190565b919082018092116124a357565b1561478a57565b60405162461bcd60e51b81526020600482015260116024820152701c995c5d595cdd081b9bdd08195e1a5cdd607a1b6044820152606490fd5b156147ca57565b60405162461bcd60e51b81526020600482015260186024820152776c6f77657220666565207468616e206d6f64656c2066656560401b6044820152606490fd5b8054600160a01b600160e01b03191660a09290921b600160a01b600160e01b0316919091179055565b60405194614840866132c6565b8386526020918287018681526003604089019860018060a01b038097168a52606081019960018060401b03948542168c5260ff608084019116815260a083019687526148cd866148936069543387613745565b9d8e976000988952607b8c526040892096518755519b60019c8d8801556002870195511660018060a01b031986541617855551168361480a565b5181549060ff60e01b9060e01b169060ff60e01b19161790550192518051928311614a2757908392916149028a96955461344b565b601f81116149cf575b508491601f841160011461495f5795966000805160206158708339815191529692849283614954575b50501b916000199060031b1c19161790555b6040519485523394a4606955565b015192503880614934565b90969291601f198316858352868320925b8181106149b75750978360008051602061587083398151915298991061499e575b505050811b019055614946565b015160001960f88460031b161c19169055388080614991565b8983015184558c985092850192918701918701614970565b90919293809596508352858320601f850160051c810191878610614a1d575b8b97969594939291601f8a920160051c01915b828110614a0f57505061490b565b8481558c9850899101614a01565b90915081906149ee565b634e487b7160e01b82526041600452602482fd5b60001981146124a35760010190565b61a4b146148015614adb575b8015614acf575b8015614ac3575b614a6c574390565b60405163a3b1b31d60e01b815260208160048160645afa908115610bac57600091614a95575090565b906020823d8211614abb575b81614aae602093836132fc565b8101031261466e57505190565b3d9150614aa1565b5062066eee4614614a64565b5062066eed4614614a5d565b5061a4ba4614614a56565b91600091838352602091607b83526040918285205415614dd857858552607d8452828520546001600160a01b0392908316614d9757614b278183893361469b565b808752607c86528487205415614d59578652607c855283862054614b49614a4a565b1115614d1857614b8590614bb4855193614b62856132e1565b33855287850160018060401b039485928342168352898801958c8752369161333a565b606087019081528b8b52607d8a52888b20965187546001600160a01b031916981697909717865551168461480a565b51825460ff60e01b191690151560e01b60ff60e01b16178255915180516001928301939091908211614d0457614bea845461344b565b601f8111614cbe575b508590601f8311600114614c5f579282939183928994614c54575b50501b916000199060031b1c19161790555b608360845492858552528220557f957c18b5af8413899ea8a576a4d3fb16839a02c9fccfdce098b6d59ef248525b339180a3565b015192503880614c0e565b848852868820919083601f1981168a5b8a88838310614ca75750505010614c8e575b505050811b019055614c20565b015160001960f88460031b161c19169055388080614c81565b868601518855909601959485019487935001614c6f565b848852868820601f840160051c810191888510614cfa575b601f0160051c019084905b828110614cef575050614bf3565b898155018490614ce1565b9091508190614cd6565b634e487b7160e01b87526041600452602487fd5b835162461bcd60e51b815260048101869052601a60248201527918dbdb5b5a5d1b595b9d081b5d5cdd081899481a5b881c185cdd60321b6044820152606490fd5b845162461bcd60e51b81526004810187905260176024820152761b9bdb88195e1a5cdd195b9d0818dbdb5b5a5d1b595b9d604a1b6044820152606490fd5b835162461bcd60e51b815260048101869052601a6024820152791cdbdb1d5d1a5bdb88185b1c9958591e481cdd589b5a5d1d195960321b6044820152606490fd5b825162461bcd60e51b81526004810185905260136024820152721d185cdac8191bd95cc81b9bdd08195e1a5cdd606a1b6044820152606490fd5b15614e1957565b60405162461bcd60e51b81526020600482015260126024820152716d696e207374616b656420746f6f206c6f7760701b6044820152606490fd5b60018060a01b03166000526077602052614e7d604060002054607a602052604060002054906135c6565b614e8561363a565b111590565b6000818152607b90602091808352604092838320548352607681528383205485845282825281858520600181015483116153ec575b82615363575b5050614edd90868552838352600186862001546135c6565b94606e54670de0b6b3a764000090810381811161534f5781614f02614f09928a6135d3565b04886135c6565b96614f1688606854614776565b60685583614f2489836135c6565b6152d9575b5050608b54865163ebe2b12b60e01b81526001600160a01b0392916004919084169086818481855afa908115615180579087918a916152aa575b5042116151d7575b5050838752858552878720548752607685526002888820015480614fdf575b50505092614fd29592826001958794614fda9a9852608383528585205490607d84528686205416855260778352614fc5868620918254614776565b90558352522001546135c6565b6086546135c6565b608655565b614ff9671bc16d674ec8000091614ff4614679565b6135d3565b049061500782608c54614776565b608c558115614f8a5760705483038381116151c4578361502a61503192856135d3565b04836135c6565b9260895481038181116151b1579061502a61504c92856135d3565b9288876150948760655416898452607d83528d61507889615073888d858a2054169b6135c6565b6135c6565b905194858094819363a9059cbb60e01b9b8c84528b8401614739565b03925af180156151a7579188916150ca9361518a575b5086606554168c8c896066541691518096819582948b84528a8401614739565b03925af18015615180579087939291615163575b50846065541690868a52888452898660028d83200154169361510b8d519788968795869485528401614739565b03925af18015615159579260019592614fd2989592614fda9a989561513c575b509295819497995082959850614f8a565b61515290843d8611610ba557610b9681836132fc565b503861512b565b87513d88823e3d90fd5b61517990843d8611610ba557610b9681836132fc565b50386150de565b8a513d8b823e3d90fd5b6151a090833d8511610ba557610b9681836132fc565b50386150aa565b8b513d8c823e3d90fd5b634e487b7160e01b8a526011835260248afd5b634e487b7160e01b895260118252602489fd5b6151ff918560655416608c54918b8d5180968195829463a9059cbb60e01b84528a8401614739565b03925af1801561527f5761528d575b5082608b5416608c54813b15615289578891602483928c519485938492633c6b16ab60e01b8452888401525af1801561527f57615252575b5086608c553885614f6b565b9096906001600160401b03811161526c5788529538615246565b634e487b7160e01b825260418852602482fd5b89513d8a823e3d90fd5b8880fd5b6152a390863d8811610ba557610b9681836132fc565b503861520e565b82819392503d83116152d2575b6152c181836132fc565b810103126152895786905138614f63565b503d6152b7565b61531d9160018060a01b036153008b826065541692888c52607d86528c8c205416936135c6565b91898b5180968195829463a9059cbb60e01b845260048401614739565b03925af1801561515957615332575b83614f29565b61534890843d8611610ba557610b9681836132fc565b503861532c565b634e487b7160e01b86526011600452602486fd5b606554905486526076825286862060010154875163a9059cbb60e01b8152929183916001600160a01b039182169183918a9183916153a7918a911660048401614739565b03925af180156153e25790614edd92916153c5575b83919250614ec5565b6153db90843d8611610ba557610b9681836132fc565b50386153bc565b86513d87823e3d90fd5b859250614ebf565b80546001600160e01b031660e09290921b6001600160e01b031916919091179055565b6000818152607e60205260409020546073546154799291615444919060a01c6001600160401b0316614776565b90600052608160205261547361546a604060002054608260205260406000205490614776565b608a54906135d3565b90614776565b421190565b6000828152607e6020526040812054909291906001600160a01b039081161561553b576154aa83615417565b61553257828452607f602052604084209116835260205260ff60408320541661552b576077602052600160408320015480156155235760745480821061551a576154f3916135c6565b908252607e602052604082205460a01c6001600160401b0316106155145790565b50600690565b50505050600590565b505050600490565b5050600390565b50505050600290565b50505050600190565b8054600160401b811015610ec357615561916001820181556133a5565b819291549060031b9160018060a01b03809116831b921b1916179055565b63ffffffff90811660001901919082116124a357565b906201000081116156c8576001600160401b03906155b4818316615736565b600061568560409384519061561f60248360209a8b986156108a8401966204010960e91b8852825193818d8501956155f08160238a01896133d3565b87019160238301370191600360fb1b6023840152518093868401906133d3565b010360048101855201836132fc565b615675602161563089855116615736565b9388519384916156668a840197600560f91b89526156578c825192839189890191016133d3565b840191518093868401906133d3565b010360018101845201826132fc565b85519283928392519283916133d3565b8101039060025afa156156be57600051815193609160f51b90850152602284015260228352606083019183831090831117610ec3575290565b513d6000823e3d90fd5b60405162461bcd60e51b815260206004820152601f60248201527f4d617820636f6e74656e742073697a65206973203635353336206279746573006044820152606490fd5b6001600160401b039081169081146124a35760010190565b9081518110156133bd570160200190565b600180825b607f6001600160401b0382161161581357506001600160401b0391821690806157638361331f565b9461577160405196876132fc565b838652601f196157808561331f565b013660208801376000915b6157c1575b505050600019018181116124a357166157bd607f60f81b6157b18385615725565b511660001a9183615725565b5390565b848216908482101561580d5761580691607f821660801760f81b6001600160f81b03191660001a906157f39089615725565b5360071c6001600160391b03169161570d565b908261578b565b50615790565b60071c6001600160391b0316916158299061570d565b9161573b56fe7375626d6974536f6c7574696f6e20636f6f6c646f776e206166746572206c6f8be0079c531659141344cd1fd0a4f28419497f9722a3daafe3b4186f6b6457e0c3d3e0544c80e3bb83f62659259ae1574f72a91515ab3cae3dd75cf77e1b0aea1aa9e4be46e24e1f2e7eeb1613c01629213cd42965d2716e18531b63e552e411a26469706673582212207ce8635c555c3e3ff35f58ec7d6348e934c0c762717f22fc41cbc503bf3f0deb64736f6c63430008130033",
  "linkReferences": {},
  "deployedLinkReferences": {}
}