{
  "_format": "hh-sol-artifact-1",
  "contractName": "VoteOnContestation",
  "sourceName": "contracts/Example/VoteOnContestation.sol",
  "abi": [
    {
      "inputs": [
        {
          "internalType": "contract IArbius",
          "name": "_arbius",
          "type": "address"
        }
      ],
      "stateMutability": "nonpayable",
      "type": "constructor"
    },
    {
      "inputs": [
        {
          "internalType": "bytes32",
          "name": "_taskid",
          "type": "bytes32"
        },
        {
          "internalType": "bool",
          "name": "_agree",
          "type": "bool"
        }
      ],
      "name": "voteOnContestation",
      "outputs": [],
      "stateMutability": "nonpayable",
      "type": "function"
    }
  ],
  "bytecode": "0x60803461007357601f61018138819003918201601f19168301916001600160401b038311848410176100785780849260209460405283398101031261007357516001600160a01b0381169081900361007357600080546001600160a01b03191691909117905560405160f2908161008f8239f35b600080fd5b634e487b7160e01b600052604160045260246000fdfe6080806040526004361015601257600080fd5b600090813560e01c631825c20e14602857600080fd5b3460b857604036600319011260b8578160243580151580910360b85781546001600160a01b031690813b1560b45783838193604493630c12e10760e11b8452600435600485015260248401525af1801560a9576082575080f35b6001600160401b03811160955760405280f35b634e487b7160e01b82526041600452602482fd5b6040513d84823e3d90fd5b8280fd5b5080fdfea264697066735822122018041d715b84345a76c4abbc41e037ab3e4d8a0ba124df09ce39b4810047881664736f6c63430008130033",
  "linkReferences": {},
  "deployedLinkReferences": {}
}