{
  "_format": "hh-sol-artifact-1",
  "contractName": "ModelTokenV1",
  "sourceName": "contracts/ModelTokenVSimple.sol",
  "abi": [
    {
      "inputs": [
        {
          "internalType": "string",
          "name": "_name",
          "type": "string"
        },
        {
          "internalType": "string",
          "name": "_symbol",
          "type": "string"
        },
        {
          "internalType": "uint256",
          "name": "_initialSupply",
          "type": "uint256"
        },
        {
          "internalType": "address",
          "name": "_treasury",
          "type": "address"
        },
        {
          "internalType": "address",
          "name": "_arbius",
          "type": "address"
        }
      ],
      "stateMutability": "nonpayable",
      "type": "constructor"
    },
    {
      "inputs": [],
      "name": "InvalidShortString",
      "type": "error"
    },
    {
      "inputs": [
        {
          "internalType": "string",
          "name": "str",
          "type": "string"
        }
      ],
      "name": "StringTooLong",
      "type": "error"
    },
    {
      "anonymous": false,
      "inputs": [
        {
          "indexed": true,
          "internalType": "address",
          "name": "owner",
          "type": "address"
        },
        {
          "indexed": true,
          "internalType": "address",
          "name": "spender",
          "type": "address"
        },
        {
          "indexed": false,
          "internalType": "uint256",
          "name": "value",
          "type": "uint256"
        }
      ],
      "name": "Approval",
      "type": "event"
    },
    {
      "anonymous": false,
      "inputs": [
        {
          "indexed": true,
          "internalType": "address",
          "name": "delegator",
          "type": "address"
        },
        {
          "indexed": true,
          "internalType": "address",
          "name": "fromDelegate",
          "type": "address"
        },
        {
          "indexed": true,
          "internalType": "address",
          "name": "toDelegate",
          "type": "address"
        }
      ],
      "name": "DelegateChanged",
      "type": "event"
    },
    {
      "anonymous": false,
      "inputs": [
        {
          "indexed": true,
          "internalType": "address",
          "name": "delegate",
          "type": "address"
        },
        {
          "indexed": false,
          "internalType": "uint256",
          "name": "previousBalance",
          "type": "uint256"
        },
        {
          "indexed": false,
          "internalType": "uint256",
          "name": "newBalance",
          "type": "uint256"
        }
      ],
      "name": "DelegateVotesChanged",
      "type": "event"
    },
    {
      "anonymous": false,
      "inputs": [],
      "name": "EIP712DomainChanged",
      "type": "event"
    },
    {
      "anonymous": false,
      "inputs": [
        {
          "indexed": true,
          "internalType": "address",
          "name": "previousOwner",
          "type": "address"
        },
        {
          "indexed": true,
          "internalType": "address",
          "name": "newOwner",
          "type": "address"
        }
      ],
      "name": "OwnershipTransferred",
      "type": "event"
    },
    {
      "anonymous": false,
      "inputs": [
        {
          "indexed": true,
          "internalType": "address",
          "name": "from",
          "type": "address"
        },
        {
          "indexed": true,
          "internalType": "address",
          "name": "to",
          "type": "address"
        },
        {
          "indexed": false,
          "internalType": "uint256",
          "name": "value",
          "type": "uint256"
        }
      ],
      "name": "Transfer",
      "type": "event"
    },
    {
      "anonymous": false,
      "inputs": [
        {
          "indexed": true,
          "internalType": "address",
          "name": "caller",
          "type": "address"
        },
        {
          "indexed": true,
          "internalType": "address",
          "name": "token",
          "type": "address"
        }
      ],
      "name": "Withdraw",
      "type": "event"
    },
    {
      "inputs": [],
      "name": "CLOCK_MODE",
      "outputs": [
        {
          "internalType": "string",
          "name": "",
          "type": "string"
        }
      ],
      "stateMutability": "view",
      "type": "function"
    },
    {
      "inputs": [],
      "name": "DOMAIN_SEPARATOR",
      "outputs": [
        {
          "internalType": "bytes32",
          "name": "",
          "type": "bytes32"
        }
      ],
      "stateMutability": "view",
      "type": "function"
    },
    {
      "inputs": [
        {
          "internalType": "address",
          "name": "owner",
          "type": "address"
        },
        {
          "internalType": "address",
          "name": "spender",
          "type": "address"
        }
      ],
      "name": "allowance",
      "outputs": [
        {
          "internalType": "uint256",
          "name": "",
          "type": "uint256"
        }
      ],
      "stateMutability": "view",
      "type": "function"
    },
    {
      "inputs": [
        {
          "internalType": "address",
          "name": "spender",
          "type": "address"
        },
        {
          "internalType": "uint256",
          "name": "amount",
          "type": "uint256"
        }
      ],
      "name": "approve",
      "outputs": [
        {
          "internalType": "bool",
          "name": "",
          "type": "bool"
        }
      ],
      "stateMutability": "nonpayable",
      "type": "function"
    },
    {
      "inputs": [],
      "name": "arbius",
      "outputs": [
        {
          "internalType": "contract IArbius",
          "name": "",
          "type": "address"
        }
      ],
      "stateMutability": "view",
      "type": "function"
    },
    {
      "inputs": [
        {
          "internalType": "address",
          "name": "account",
          "type": "address"
        }
      ],
      "name": "balanceOf",
      "outputs": [
        {
          "internalType": "uint256",
          "name": "",
          "type": "uint256"
        }
      ],
      "stateMutability": "view",
      "type": "function"
    },
    {
      "inputs": [
        {
          "internalType": "address",
          "name": "account",
          "type": "address"
        },
        {
          "internalType": "uint32",
          "name": "pos",
          "type": "uint32"
        }
      ],
      "name": "checkpoints",
      "outputs": [
        {
          "components": [
            {
              "internalType": "uint32",
              "name": "fromBlock",
              "type": "uint32"
            },
            {
              "internalType": "uint224",
              "name": "votes",
              "type": "uint224"
            }
          ],
          "internalType": "struct ERC20Votes.Checkpoint",
          "name": "",
          "type": "tuple"
        }
      ],
      "stateMutability": "view",
      "type": "function"
    },
    {
      "inputs": [],
      "name": "clock",
      "outputs": [
        {
          "internalType": "uint48",
          "name": "",
          "type": "uint48"
        }
      ],
      "stateMutability": "view",
      "type": "function"
    },
    {
      "inputs": [],
      "name": "decimals",
      "outputs": [
        {
          "internalType": "uint8",
          "name": "",
          "type": "uint8"
        }
      ],
      "stateMutability": "view",
      "type": "function"
    },
    {
      "inputs": [
        {
          "internalType": "address",
          "name": "spender",
          "type": "address"
        },
        {
          "internalType": "uint256",
          "name": "subtractedValue",
          "type": "uint256"
        }
      ],
      "name": "decreaseAllowance",
      "outputs": [
        {
          "internalType": "bool",
          "name": "",
          "type": "bool"
        }
      ],
      "stateMutability": "nonpayable",
      "type": "function"
    },
    {
      "inputs": [
        {
          "internalType": "address",
          "name": "delegatee",
          "type": "address"
        }
      ],
      "name": "delegate",
      "outputs": [],
      "stateMutability": "nonpayable",
      "type": "function"
    },
    {
      "inputs": [
        {
          "internalType": "address",
          "name": "delegatee",
          "type": "address"
        },
        {
          "internalType": "uint256",
          "name": "nonce",
          "type": "uint256"
        },
        {
          "internalType": "uint256",
          "name": "expiry",
          "type": "uint256"
        },
        {
          "internalType": "uint8",
          "name": "v",
          "type": "uint8"
        },
        {
          "internalType": "bytes32",
          "name": "r",
          "type": "bytes32"
        },
        {
          "internalType": "bytes32",
          "name": "s",
          "type": "bytes32"
        }
      ],
      "name": "delegateBySig",
      "outputs": [],
      "stateMutability": "nonpayable",
      "type": "function"
    },
    {
      "inputs": [
        {
          "internalType": "address",
          "name": "account",
          "type": "address"
        }
      ],
      "name": "delegates",
      "outputs": [
        {
          "internalType": "address",
          "name": "",
          "type": "address"
        }
      ],
      "stateMutability": "view",
      "type": "function"
    },
    {
      "inputs": [],
      "name": "eip712Domain",
      "outputs": [
        {
          "internalType": "bytes1",
          "name": "fields",
          "type": "bytes1"
        },
        {
          "internalType": "string",
          "name": "name",
          "type": "string"
        },
        {
          "internalType": "string",
          "name": "version",
          "type": "string"
        },
        {
          "internalType": "uint256",
          "name": "chainId",
          "type": "uint256"
        },
        {
          "internalType": "address",
          "name": "verifyingContract",
          "type": "address"
        },
        {
          "internalType": "bytes32",
          "name": "salt",
          "type": "bytes32"
        },
        {
          "internalType": "uint256[]",
          "name": "extensions",
          "type": "uint256[]"
        }
      ],
      "stateMutability": "view",
      "type": "function"
    },
    {
      "inputs": [
        {
          "internalType": "uint256",
          "name": "timepoint",
          "type": "uint256"
        }
      ],
      "name": "getPastTotalSupply",
      "outputs": [
        {
          "internalType": "uint256",
          "name": "",
          "type": "uint256"
        }
      ],
      "stateMutability": "view",
      "type": "function"
    },
    {
      "inputs": [
        {
          "internalType": "address",
          "name": "account",
          "type": "address"
        },
        {
          "internalType": "uint256",
          "name": "timepoint",
          "type": "uint256"
        }
      ],
      "name": "getPastVotes",
      "outputs": [
        {
          "internalType": "uint256",
          "name": "",
          "type": "uint256"
        }
      ],
      "stateMutability": "view",
      "type": "function"
    },
    {
      "inputs": [
        {
          "internalType": "address",
          "name": "account",
          "type": "address"
        }
      ],
      "name": "getVotes",
      "outputs": [
        {
          "internalType": "uint256",
          "name": "",
          "type": "uint256"
        }
      ],
      "stateMutability": "view",
      "type": "function"
    },
    {
      "inputs": [
        {
          "internalType": "address",
          "name": "spender",
          "type": "address"
        },
        {
          "internalType": "uint256",
          "name": "addedValue",
          "type": "uint256"
        }
      ],
      "name": "increaseAllowance",
      "outputs": [
        {
          "internalType": "bool",
          "name": "",
          "type": "bool"
        }
      ],
      "stateMutability": "nonpayable",
      "type": "function"
    },
    {
      "inputs": [],
      "name": "name",
      "outputs": [
        {
          "internalType": "string",
          "name": "",
          "type": "string"
        }
      ],
      "stateMutability": "view",
      "type": "function"
    },
    {
      "inputs": [
        {
          "internalType": "address",
          "name": "owner",
          "type": "address"
        }
      ],
      "name": "nonces",
      "outputs": [
        {
          "internalType": "uint256",
          "name": "",
          "type": "uint256"
        }
      ],
      "stateMutability": "view",
      "type": "function"
    },
    {
      "inputs": [
        {
          "internalType": "address",
          "name": "account",
          "type": "address"
        }
      ],
      "name": "numCheckpoints",
      "outputs": [
        {
          "internalType": "uint32",
          "name": "",
          "type": "uint32"
        }
      ],
      "stateMutability": "view",
      "type": "function"
    },
    {
      "inputs": [],
      "name": "owner",
      "outputs": [
        {
          "internalType": "address",
          "name": "",
          "type": "address"
        }
      ],
      "stateMutability": "view",
      "type": "function"
    },
    {
      "inputs": [
        {
          "internalType": "address",
          "name": "owner",
          "type": "address"
        },
        {
          "internalType": "address",
          "name": "spender",
          "type": "address"
        },
        {
          "internalType": "uint256",
          "name": "value",
          "type": "uint256"
        },
        {
          "internalType": "uint256",
          "name": "deadline",
          "type": "uint256"
        },
        {
          "internalType": "uint8",
          "name": "v",
          "type": "uint8"
        },
        {
          "internalType": "bytes32",
          "name": "r",
          "type": "bytes32"
        },
        {
          "internalType": "bytes32",
          "name": "s",
          "type": "bytes32"
        }
      ],
      "name": "permit",
      "outputs": [],
      "stateMutability": "nonpayable",
      "type": "function"
    },
    {
      "inputs": [],
      "name": "renounceOwnership",
      "outputs": [],
      "stateMutability": "nonpayable",
      "type": "function"
    },
    {
      "inputs": [
        {
          "internalType": "address",
          "name": "_treasury",
          "type": "address"
        }
      ],
      "name": "setTreasury",
      "outputs": [],
      "stateMutability": "nonpayable",
      "type": "function"
    },
    {
      "inputs": [],
      "name": "symbol",
      "outputs": [
        {
          "internalType": "string",
          "name": "",
          "type": "string"
        }
      ],
      "stateMutability": "view",
      "type": "function"
    },
    {
      "inputs": [],
      "name": "totalSupply",
      "outputs": [
        {
          "internalType": "uint256",
          "name": "",
          "type": "uint256"
        }
      ],
      "stateMutability": "view",
      "type": "function"
    },
    {
      "inputs": [
        {
          "internalType": "address",
          "name": "to",
          "type": "address"
        },
        {
          "internalType": "uint256",
          "name": "amount",
          "type": "uint256"
        }
      ],
      "name": "transfer",
      "outputs": [
        {
          "internalType": "bool",
          "name": "",
          "type": "bool"
        }
      ],
      "stateMutability": "nonpayable",
      "type": "function"
    },
    {
      "inputs": [
        {
          "internalType": "address",
          "name": "from",
          "type": "address"
        },
        {
          "internalType": "address",
          "name": "to",
          "type": "address"
        },
        {
          "internalType": "uint256",
          "name": "amount",
          "type": "uint256"
        }
      ],
      "name": "transferFrom",
      "outputs": [
        {
          "internalType": "bool",
          "name": "",
          "type": "bool"
        }
      ],
      "stateMutability": "nonpayable",
      "type": "function"
    },
    {
      "inputs": [
        {
          "internalType": "address",
          "name": "to_",
          "type": "address"
        }
      ],
      "name": "transferOwnership",
      "outputs": [],
      "stateMutability": "nonpayable",
      "type": "function"
    },
    {
      "inputs": [],
      "name": "treasury",
      "outputs": [
        {
          "internalType": "address",
          "name": "",
          "type": "address"
        }
      ],
      "stateMutability": "view",
      "type": "function"
    },
    {
      "inputs": [
        {
          "internalType": "bytes32",
          "name": "_model",
          "type": "bytes32"
        },
        {
          "internalType": "address",
          "name": "_addr",
          "type": "address"
        }
      ],
      "name": "updateModelAddr",
      "outputs": [],
      "stateMutability": "nonpayable",
      "type": "function"
    },
    {
      "inputs": [
        {
          "internalType": "bytes32",
          "name": "_model",
          "type": "bytes32"
        },
        {
          "internalType": "uint256",
          "name": "_fee",
          "type": "uint256"
        }
      ],
      "name": "updateModelFee",
      "outputs": [],
      "stateMutability": "nonpayable",
      "type": "function"
    },
    {
      "inputs": [
        {
          "internalType": "address",
          "name": "token",
          "type": "address"
        }
      ],
      "name": "withdraw",
      "outputs": [],
      "stateMutability": "nonpayable",
      "type": "function"
    }
  ],
  "bytecode": "0x6101608060405234620000e0576200371580380380916200002082620000fb565b833960a08183019112620000e05781516001600160401b039290838111620000e057826200005091830162000179565b9161018051938411620000e0576200008e936200006e920162000179565b6101a0516200007c620001df565b9162000087620001f7565b936200020f565b6040516125429081620011b3823960805181611ec4015260a05181611f7f015260c05181611e8e015260e05181611f1301526101005181611f3901526101205181610a2201526101405181610a4b0152f35b600080fd5b634e487b7160e01b600052604160045260246000fd5b601f01601f1916610160908101906001600160401b038211908210176200012157604052565b620000e5565b604081019081106001600160401b038211176200012157604052565b60405190620001528262000127565b565b60005b838110620001685750506000910152565b818101518382015260200162000157565b81601f82011215620000e05780516001600160401b0392838211620001215760405193601f8301601f19908116603f0116850190811185821017620001215760405281845260208284010111620000e057620001dc916020808501910162000154565b90565b6101c051906001600160a01b0382168203620000e057565b6101e051906001600160a01b0382168203620000e057565b9392919360405190620002228262000127565b60019283835260209081840194603160f81b865283519060018060401b03821162000121576200025f8262000259600354620003ec565b62000429565b83601f83116001146200034d5762000318969383806200033a9b9895620001529e9d9b9895620002a99560009362000341575b501b916000199060031b1c1916176003556200058d565b620002b482620006c9565b61012052620002c383620007d9565b61014052815191012060e052519020610100524660a052620002e462000958565b6080523060c052620002f63362000680565b600d80546001600160a01b0319166001600160a01b0392909216919091179055565b600e80546001600160a01b0319166001600160a01b0392909216919091179055565b3362000a2a565b88015192503862000292565b6003600052909190601f198216907fc2575a0e9e593c00f959f8c92f12db2869c3395a3b0502d05e2516446f71f85b9160005b818110620003d657509383620002a993620003189a9793620001529f9e9c99966200033a9e9b9810620003bc575b5050811b016003556200058d565b87015160001960f88460031b161c191690553880620003ae565b8883015184559285019291870191870162000380565b90600182811c921680156200041e575b60208310146200040857565b634e487b7160e01b600052602260045260246000fd5b91607f1691620003fc565b601f811162000436575050565b6000906003825260208220906020601f850160051c8301941062000477575b601f0160051c01915b8281106200046b57505050565b8181556001016200045e565b909250829062000455565b601f81116200048f575050565b6000906004825260208220906020601f850160051c83019410620004d0575b601f0160051c01915b828110620004c457505050565b818155600101620004b7565b9092508290620004ae565b601f8111620004e8575050565b6000906005825260208220906020601f850160051c8301941062000529575b601f0160051c01915b8281106200051d57505050565b81815560010162000510565b909250829062000507565b601f811162000541575050565b6000906006825260208220906020601f850160051c8301941062000582575b601f0160051c01915b8281106200057657505050565b81815560010162000569565b909250829062000560565b80519091906001600160401b0381116200012157620005b981620005b3600454620003ec565b62000482565b602080601f8311600114620005f85750819293600092620005ec575b50508160011b916000199060031b1c191617600455565b015190503880620005d5565b6004600052601f198316949091907f8a35acfbc15ff81a39ae7d344fd709f28e8600b4aa8c65c6b64bfe7fe36bd19b926000905b878210620006675750508360019596106200064d575b505050811b01600455565b015160001960f88460031b161c1916905538808062000642565b806001859682949686015181550195019301906200062c565b600c80546001600160a01b039283166001600160a01b0319821681179092559091167f8be0079c531659141344cd1fd0a4f28419497f9722a3daafe3b4186f6b6457e0600080a3565b9081516020808210600014620006e757505090620001dc90620008e9565b6001600160401b03821162000121576200070e8262000708600554620003ec565b620004db565b80601f83116001146200074e575081929360009262000742575b50508160011b916000199060031b1c19161760055560ff90565b01519050388062000728565b6005600052601f198316949091907f036b6384b5eca791c62761152d0c79bb0604c104a5fb6f4eb0703f3154bb3db0926000905b878210620007c0575050836001959610620007a6575b505050811b0160055560ff90565b015160001960f88460031b161c1916905538808062000798565b8060018596829496860151815501950193019062000782565b9081516020808210600014620007f757505090620001dc90620008e9565b6001600160401b03821162000121576200081e8262000818600654620003ec565b62000534565b80601f83116001146200085e575081929360009262000852575b50508160011b916000199060031b1c19161760065560ff90565b01519050388062000838565b6006600052601f198316949091907ff652222313e28459528d920b65115c16c04f3efc82aaedc97be59f3f377c0d3f926000905b878210620008d0575050836001959610620008b6575b505050811b0160065560ff90565b015160001960f88460031b161c19169055388080620008a8565b8060018596829496860151815501950193019062000892565b601f8151116200091757602081519101516020821062000907571790565b6000198260200360031b1b161790565b6044604051809263305a27a960e01b8252602060048301526200094a815180928160248601526020868601910162000154565b601f01601f19168101030190fd5b60e051610100516040519060208201927f8b73c3c69bb8fe3d512ecc4cf759cc79239f7b179b0ffacaa9a75d522b39400f8452604083015260608201524660808201523060a082015260a0815260c0810181811060018060401b03821117620001215760405251902090565b15620009cc57565b60405162461bcd60e51b815260206004820152603060248201527f4552433230566f7465733a20746f74616c20737570706c79207269736b73206f60448201526f766572666c6f77696e6720766f74657360801b6064820152608490fd5b906001600160a01b038216801562000ad45760025482810180911162000ace5762000aca9362000aac9262000a5f8593600255565b6001600160a01b038216600090815260208181526040808320805487019055518581527fddf252ad1be2c89b69c2b068fc378daa952ba7f163c4a11628f55a4df523b3ef9190a362001088565b60025462000ac4906001600160e01b031015620009c4565b62000c39565b5050565b62000b19565b60405162461bcd60e51b815260206004820152601f60248201527f45524332303a206d696e7420746f20746865207a65726f2061646472657373006044820152606490fd5b634e487b7160e01b600052601160045260246000fd5b604080519192919081016001600160401b038111828210176200012157604052602081935463ffffffff81168352811c910152565b600b54906801000000000000000082101562000121576001820180600b5582101562000bd257600b600052805160209182015190911b63ffffffff191663ffffffff91909116177f0175b7a638427703f0dbe7bb9bbf987a2551717b34e79f33b5b1008d1fa01db990910155565b634e487b7160e01b600052603260045260246000fd5b9081546801000000000000000081101562000121576001810180845581101562000bd257600092835260209283902082519284015190931b63ffffffff191663ffffffff9290921691909117910155565b600b549091811591821562000d815762000c5262000143565b60008152600060208201525b602081015162000c8b9062000c83906001600160e01b03165b6001600160e01b031690565b958662001196565b9315908162000d5a575b501562000cf257620001529062000cdb62000cb08562000f50565b600b600052917f0175b7a638427703f0dbe7bb9bbf987a2551717b34e79f33b5b1008d1fa01db80190565b9063ffffffff82549181199060201b169116179055565b506200015262000d1b62000d1562000d0a4362000fba565b65ffffffffffff1690565b62001022565b62000d5462000d2a8562000f50565b62000d4462000d3862000143565b63ffffffff9094168452565b6001600160e01b03166020830152565b62000b64565b5163ffffffff16905063ffffffff62000d7762000d0a4362000fba565b9116143862000c95565b600b60005262000db97f0175b7a638427703f0dbe7bb9bbf987a2551717b34e79f33b5b1008d1fa01db8820162000b2f565b62000b2f565b62000c5e565b90918154918215928360001462000ec35762000dda62000143565b60008152600060208201525b602081015162000e0c9062000e04906001600160e01b031662000c77565b9687620011a4565b9415908162000e9c575b501562000e435762000cdb620001529262000e318662000f50565b92600019019060005260206000200190565b50620001529062000e5c62000d1562000d0a4362000fba565b9062000e9662000e6c8662000f50565b62000e8662000e7a62000143565b63ffffffff9095168552565b6001600160e01b03166020840152565b62000be8565b5163ffffffff16905063ffffffff62000eb962000d0a4362000fba565b9116143862000e16565b62000edd62000db360001983018460005260206000200190565b62000de6565b90918154918215928360001462000f305762000efe62000143565b60008152600060208201525b602081015162000e0c9062000f28906001600160e01b031662000c77565b968762001196565b62000f4a62000db360001983018460005260206000200190565b62000f0a565b6001600160e01b039081811162000f65571690565b60405162461bcd60e51b815260206004820152602760248201527f53616665436173743a2076616c756520646f65736e27742066697420696e20326044820152663234206269747360c81b6064820152608490fd5b65ffffffffffff9081811162000fce571690565b60405162461bcd60e51b815260206004820152602660248201527f53616665436173743a2076616c756520646f65736e27742066697420696e203460448201526538206269747360d01b6064820152608490fd5b63ffffffff9081811162001034571690565b60405162461bcd60e51b815260206004820152602660248201527f53616665436173743a2076616c756520646f65736e27742066697420696e203360448201526532206269747360d01b6064820152608490fd5b60096020527fec8156718a8372b1db44bb411437d0870f3e3790d4a08526d024ce1b0b668f6b546001600160a01b0391821660009081526040812054831693929091169081841415806200118c575b620010e3575b50505050565b8290826200114b575b50505081620010fe575b8080620010dd565b6001600160a01b0382166000908152600a60205260409020600080516020620036f583398151915291620011329162000ee3565b60408051928352602083019190915290a23880620010f6565b600080516020620036f58339815191529160408285620011729452600a6020522062000dbf565b60408051928352602083019190915290a2388181620010ec565b50821515620010d7565b90810180911162000ace5790565b90810390811162000ace579056fe6080604052600436101561001257600080fd5b60003560e01c806306fdde0314610237578063095ea7b31461023257806318160ddd1461022d57806323b872dd14610228578063313ce567146102235780633644e5151461021e57806339509351146102195780633a46b1a8146102145780634bf5d7e91461020f57806351cff8d91461020a578063587cde1e146102055780635c19a95c1461020057806361d027b3146101fb5780636fcfff45146101f657806370a08231146101f1578063715018a6146101ec5780637ecebe00146101e757806384b0196e146101e25780638da5cb5b146101dd5780638e539e8c146101d857806391ddadf4146101d357806395d89b41146101ce5780639ab24eb0146101c9578063a457c2d7146101c4578063a9059cbb146101bf578063c3cda520146101ba578063cb5e0cca146101b5578063cf7c8667146101b0578063d505accf146101ab578063dd62ed3e146101a6578063e0d61b07146101a1578063f0f442601461019c578063f1127ed8146101975763f2fde38b1461019257600080fd5b6112d4565b61124d565b61120a565b6111e1565b611195565b61106b565b611003565b610f83565b610e71565b610e2b565b610d8f565b610d2d565b610c89565b610c5d565b610b28565b610aff565b610a07565b6109cd565b610981565b610947565b6108ff565b6108d6565b6108b2565b610877565b610744565b610692565b610541565b6104f5565b6104d2565b6104b6565b6103f0565b6103d2565b6103a1565b610290565b919082519283825260005b848110610268575050826000602080949584010152601f8019910116010190565b602081830181015184830182015201610247565b90602061028d92818152019061023c565b90565b346103705760008060031936011261036d57604051816003546102b2816113e5565b8084529060019081811690811561034557506001146102ec575b6102e8846102dc8188038261149e565b6040519182918261027c565b0390f35b60038352602094507fc2575a0e9e593c00f959f8c92f12db2869c3395a3b0502d05e2516446f71f85b5b82841061033257505050816102e8936102dc92820101936102cc565b8054858501870152928501928101610316565b6102e896506102dc9450602092508593915060ff191682840152151560051b820101936102cc565b80fd5b600080fd5b600435906001600160a01b038216820361037057565b602435906001600160a01b038216820361037057565b34610370576040366003190112610370576103c76103bd610375565b60243590336116a6565b602060405160018152f35b34610370576000366003190112610370576020600254604051908152f35b3461037057606036600319011261037057610409610375565b61041161038b565b6044359060018060a01b03831660005260016020526104343360406000206114db565b549260018401610455575b61044993506115c9565b60405160018152602090f35b8284106104715761046c83610449950333836116a6565b61043f565b60405162461bcd60e51b815260206004820152601d60248201527f45524332303a20696e73756666696369656e7420616c6c6f77616e63650000006044820152606490fd5b3461037057600036600319011261037057602060405160128152f35b346103705760003660031901126103705760206104ed611e8b565b604051908152f35b346103705760403660031901126103705761050e610375565b3360005260016020526105258160406000206114db565b54602435810180911161053c576103c791336116a6565b6114f2565b346103705760403660031901126103705761055a610375565b6024359061057965ffffffffffff6105714361236d565b168310611890565b6001600160a01b03166000908152600a6020526040812080549290918360058111610641575b50905b8382106105f0575050816105c9575050602060005b6040516001600160e01b039091168152f35b6105e46105eb91602093600019019060005260206000200190565b5460201c90565b6105b7565b90926105fc818561219d565b908263ffffffff610621610617858860005260206000200190565b5463ffffffff1690565b1611156106315750925b906105a2565b935061063c90611508565b61062b565b80610651610657929693966121b2565b906118d8565b908263ffffffff610672610617858860005260206000200190565b1611156106825750925b3861059f565b935061068d90611508565b61067c565b34610370576000366003190112610370574365ffffffffffff6106b44361236d565b16036106ff576102e86040516106c98161144d565b601d81527f6d6f64653d626c6f636b6e756d6265722666726f6d3d64656661756c7400000060208201526040519182918261027c565b60405162461bcd60e51b815260206004820152601d60248201527f4552433230566f7465733a2062726f6b656e20636c6f636b206d6f64650000006044820152606490fd5b3461037057602080600319360112610370576001600160a01b03610766610375565b600d546040516370a0823160e01b81523060048201529190921692916001600160a01b0316908281602481875afa8015610843576107da928492600092610848575b5060405163a9059cbb60e01b81526001600160a01b039091166004820152602481019190915291829081906044820190565b03816000875af1801561084357610815575b82337f34d58c18c6c1df2c698ccac556acea92941ca7b99d2fccf9e3ac1852d0dec36f600080a3005b8161083492903d1061083c575b61082c818361149e565b810190612448565b5038806107ec565b503d610822565b611e07565b610869919250833d8511610870575b610861818361149e565b810190612439565b90386107a8565b503d610857565b346103705760203660031901126103705760206001600160a01b038061089b610375565b166000526009825260406000205416604051908152f35b34610370576020366003190112610370576108d46108ce610375565b3361192d565b005b3461037057600036600319011261037057600d546040516001600160a01b039091168152602090f35b34610370576020366003190112610370576001600160a01b03610920610375565b16600052600a60205260206109396040600020546123d4565b63ffffffff60405191168152f35b34610370576020366003190112610370576001600160a01b03610968610375565b1660005260006020526020604060002054604051908152f35b346103705760008060031936011261036d5761099b61138d565b600c80546001600160a01b0319811690915581906001600160a01b03166000805160206124ad8339815191528280a380f35b34610370576020366003190112610370576001600160a01b036109ee610375565b1660005260076020526020604060002054604051908152f35b346103705760008060031936011261036d57610ab190610a467f0000000000000000000000000000000000000000000000000000000000000000611fcb565b610a6f7f00000000000000000000000000000000000000000000000000000000000000006120c3565b9160405191610a7d83611468565b818352604051948594600f60f81b8652610aa360209360e08589015260e088019061023c565b90868203604088015261023c565b904660608601523060808601528260a086015284820360c08601528080855193848152019401925b828110610ae857505050500390f35b835185528695509381019392810192600101610ad9565b3461037057600036600319011261037057600c546040516001600160a01b039091168152602090f35b3461037057602036600319011261037057600435610b5765ffffffffffff610b4f4361236d565b168210611890565b600b549060008260058111610c08575b50905b828210610bb7578280610b84575060405160008152602090f35b600b6000526020906105eb907f0175b7a638427703f0dbe7bb9bbf987a2551717b34e79f33b5b1008d1fa01db8016105e4565b9091610bc3818461219d565b600b600052908263ffffffff610be86000805160206124cd8339815191528501610617565b161115610bf85750915b90610b6a565b9250610c0390611508565b610bf2565b80610651610c18929593956121b2565b600b600052908263ffffffff610c3d6000805160206124cd8339815191528501610617565b161115610c4d5750915b38610b67565b9250610c5890611508565b610c47565b34610370576000366003190112610370576020610c794361236d565b65ffffffffffff60405191168152f35b346103705760008060031936011261036d5760405181600454610cab816113e5565b808452906001908181169081156103455750600114610cd4576102e8846102dc8188038261149e565b60048352602094507f8a35acfbc15ff81a39ae7d344fd709f28e8600b4aa8c65c6b64bfe7fe36bd19b5b828410610d1a57505050816102e8936102dc92820101936102cc565b8054858501870152928501928101610cfe565b34610370576020366003190112610370576001600160a01b03610d4e610375565b16600052600a602052604060002080548015600014610d7557505060405160008152602090f35b602091610d86916000190190611840565b5054811c6105b7565b3461037057604036600319011261037057610da8610375565b60243590336000526001602052610dc38160406000206114db565b5491808310610dd857610449920390336116a6565b60405162461bcd60e51b815260206004820152602560248201527f45524332303a2064656372656173656420616c6c6f77616e63652062656c6f77604482015264207a65726f60d81b6064820152608490fd5b34610370576040366003190112610370576103c7610e47610375565b60243590336115c9565b6064359060ff8216820361037057565b6084359060ff8216820361037057565b346103705760c036600319011261037057610e8a610375565b60443590602435610e99610e51565b92804211610f3e57610f29610f39916108d49560405190610f1182610f036020820195898b8860609194939260808201957fe48329057bfd03d55e49b547132e39cffd9c1820ad7b9d4c5307691425d15adf835260018060a01b0316602083015260408201520152565b03601f19810184528361149e565b610f2460a4359360843593519020611fa5565b611cb5565b91610f3383611810565b146118e5565b61192d565b60405162461bcd60e51b815260206004820152601d60248201527f4552433230566f7465733a207369676e617475726520657870697265640000006044820152606490fd5b34610370576000604036600319011261036d57610f9e61038b565b610fa661138d565b600e546001600160a01b0390811691839190833b15610fff57604490836040519586948593636d7da19160e11b855260043560048601521660248401525af1801561084357610ff3575080f35b610ffc90611435565b80f35b8280fd5b34610370576000604036600319011261036d5761101e61138d565b600e5481906001600160a01b0316803b15611068578190604460405180948193637814d61f60e11b8352600435600484015260243560248401525af1801561084357610ff3575080f35b50fd5b346103705760e036600319011261037057611084610375565b61108c61038b565b604435906064359261109c610e61565b938042116111505761113861114b91610f036108d4976111256110be87611810565b604080517f6e71edae12b1b97f4d1f60370fef10105fa2faae0126114a169c64845d6126c9602082019081526001600160a01b03808c1693830193909352918b166060820152608081018c905260a081019290925260c082019590955292839060e0820190565b610f2460c4359360a43593519020611fa5565b6001600160a01b038381169116146117c4565b6116a6565b60405162461bcd60e51b815260206004820152601d60248201527f45524332305065726d69743a206578706972656420646561646c696e650000006044820152606490fd5b346103705760403660031901126103705760206111d86111b3610375565b6111bb61038b565b6001600160a01b03909116600090815260018452604090206114db565b54604051908152f35b3461037057600036600319011261037057600e546040516001600160a01b039091168152602090f35b3461037057602036600319011261037057611223610375565b61122b61138d565b600d80546001600160a01b0319166001600160a01b0392909216919091179055005b3461037057604036600319011261037057611266610375565b63ffffffff6024358181168103610370576112b06112b6916040946000602087516112908161144d565b82815201526001600160a01b03166000908152600a602052859020611840565b5061186e565b8251815190921682526020908101516001600160e01b031690820152f35b34610370576020366003190112610370576112ed610375565b6112f561138d565b6112fd61138d565b6001600160a01b0390811690811561133957600c80546001600160a01b031981168417909155166000805160206124ad833981519152600080a3005b60405162461bcd60e51b815260206004820152602660248201527f4f776e61626c653a206e6577206f776e657220697320746865207a65726f206160448201526564647265737360d01b6064820152608490fd5b600c546001600160a01b031633036113a157565b606460405162461bcd60e51b815260206004820152602060248201527f4f776e61626c653a2063616c6c6572206973206e6f7420746865206f776e65726044820152fd5b90600182811c92168015611415575b60208310146113ff57565b634e487b7160e01b600052602260045260246000fd5b91607f16916113f4565b634e487b7160e01b600052604160045260246000fd5b6001600160401b03811161144857604052565b61141f565b604081019081106001600160401b0382111761144857604052565b602081019081106001600160401b0382111761144857604052565b60c081019081106001600160401b0382111761144857604052565b601f909101601f19168101906001600160401b0382119082101761144857604052565b6001600160a01b0316600090815260208190526040902090565b9060018060a01b0316600052602052604060002090565b634e487b7160e01b600052601160045260246000fd5b906001820180921161053c57565b1561151d57565b60405162461bcd60e51b815260206004820152602360248201527f45524332303a207472616e7366657220746f20746865207a65726f206164647260448201526265737360e81b6064820152608490fd5b1561157557565b60405162461bcd60e51b815260206004820152602660248201527f45524332303a207472616e7366657220616d6f756e7420657863656564732062604482015265616c616e636560d01b6064820152608490fd5b6001600160a01b03929190838116801561165357611651948316906115ef821515611516565b846115f9846114c1565b546116068282101561156e565b03611610846114c1565b5561161a846114c1565b8054860190556040518581527fddf252ad1be2c89b69c2b068fc378daa952ba7f163c4a11628f55a4df523b3ef90602090a3612460565b565b60405162461bcd60e51b815260206004820152602560248201527f45524332303a207472616e736665722066726f6d20746865207a65726f206164604482015264647265737360d81b6064820152608490fd5b6001600160a01b038082169291908315611773578216938415611723578061170d7f8c5be1e5ebec7d5bd14f71427d1e84f3dd0314c0f7b2291e5b200ac8c7c3b9259461170861171e9560018060a01b03166000526001602052604060002090565b6114db565b556040519081529081906020820190565b0390a3565b60405162461bcd60e51b815260206004820152602260248201527f45524332303a20617070726f766520746f20746865207a65726f206164647265604482015261737360f01b6064820152608490fd5b60405162461bcd60e51b8152602060048201526024808201527f45524332303a20617070726f76652066726f6d20746865207a65726f206164646044820152637265737360e01b6064820152608490fd5b156117cb57565b60405162461bcd60e51b815260206004820152601e60248201527f45524332305065726d69743a20696e76616c6964207369676e617475726500006044820152606490fd5b6001600160a01b0316600090815260076020526040902080546001810190915590565b604051906116518261144d565b80548210156118585760005260206000200190600090565b634e487b7160e01b600052603260045260246000fd5b9060405161187b8161144d565b602081935463ffffffff81168352811c910152565b1561189757565b60405162461bcd60e51b815260206004820152601960248201527804552433230566f7465733a20667574757265206c6f6f6b757603c1b6044820152606490fd5b9190820391821161053c57565b156118ec57565b60405162461bcd60e51b81526020600482015260196024820152784552433230566f7465733a20696e76616c6964206e6f6e636560381b6044820152606490fd5b6001600160a01b039081166000818152600960208181526040808420805485845291852054939092528686166001600160a01b0319821681179092556116519692959294921692909183917f3134e8a2e6d97e929a7e54011ea5485d7d196dd5f0ba4d4ef95803e8e3fc257f9080a45b6001600160a01b03808316939291168084141580611b7a575b6119c1575b50505050565b80611a1d575b50826119d4575b806119bb565b6001600160a01b03166000908152600a602052604090206000805160206124ed83398151915291611a0491611bfc565b60408051928352602083019190915290a23880806119ce565b80600052600a6020526000805160206124ed8339815191526040600020805480159182600014611b5757611a4f611833565b6000815260006020820152915b6020830151611a7b906001600160e01b03165b6001600160e01b031690565b92611a868985612492565b94159081611b34575b5015611ad257611ab7611abc92611aa586612304565b92600019019060005260206000200190565b611b83565b604080519182526020820192909252a2386119c7565b50611b2f90611af6611af1611ae64361236d565b65ffffffffffff1690565b6123d4565b90611b2a611b0386612304565b611b1a611b0e611833565b63ffffffff9095168552565b6001600160e01b03166020840152565b611b9a565b611abc565b5163ffffffff16905063ffffffff611b4e611ae64361236d565b91161438611a8f565b611b74611b6f60001984018360005260206000200190565b61186e565b91611a5c565b508215156119b6565b9063ffffffff82549181199060201b169116179055565b8054600160401b81101561144857611bb791600182018155611840565b611be6578163ffffffff61165193511663ffffffff19835416178255602060018060e01b039101511690611b83565b634e487b7160e01b600052600060045260246000fd5b909181549182159283600014611c9857611c14611833565b60008152600060208201525b6020810151611c4290611c3b906001600160e01b0316611a6f565b968761249f565b94159081611c75575b5015611c6157611ab761165192611aa586612304565b5061165190611af6611af1611ae64361236d565b5163ffffffff16905063ffffffff611c8f611ae64361236d565b91161438611c4b565b611cb0611b6f60001983018460005260206000200190565b611c20565b9161028d9391611cc493611e13565b919091611cec565b60051115611cd657565b634e487b7160e01b600052602160045260246000fd5b611cf581611ccc565b80611cfd5750565b611d0681611ccc565b60018103611d4e5760405162461bcd60e51b815260206004820152601860248201527745434453413a20696e76616c6964207369676e617475726560401b6044820152606490fd5b611d5781611ccc565b60028103611da45760405162461bcd60e51b815260206004820152601f60248201527f45434453413a20696e76616c6964207369676e6174757265206c656e677468006044820152606490fd5b80611db0600392611ccc565b14611db757565b60405162461bcd60e51b815260206004820152602260248201527f45434453413a20696e76616c6964207369676e6174757265202773272076616c604482015261756560f01b6064820152608490fd5b6040513d6000823e3d90fd5b9291906fa2a8918ca85bafe22016d0b997e4df60600160ff1b038311611e7f5791608094939160ff602094604051948552168484015260408301526060820152600093849182805260015afa156108435781516001600160a01b03811615611e79579190565b50600190565b50505050600090600390565b307f00000000000000000000000000000000000000000000000000000000000000006001600160a01b03161480611f7c575b15611ee6577f000000000000000000000000000000000000000000000000000000000000000090565b60405160208101907f8b73c3c69bb8fe3d512ecc4cf759cc79239f7b179b0ffacaa9a75d522b39400f82527f000000000000000000000000000000000000000000000000000000000000000060408201527f000000000000000000000000000000000000000000000000000000000000000060608201524660808201523060a082015260a08152611f7681611483565b51902090565b507f00000000000000000000000000000000000000000000000000000000000000004614611ebd565b604290611fb0611e8b565b906040519161190160f01b8352600283015260228201522090565b60ff81146120095760ff811690601f8211611ff75760405191611fed8361144d565b8252602082015290565b604051632cd44ac360e21b8152600490fd5b5060405160055481600061201c836113e5565b8083526001938085169081156120a25750600114612042575b5061028d9250038261149e565b600560009081527f036b6384b5eca791c62761152d0c79bb0604c104a5fb6f4eb0703f3154bb3db094602093509091905b81831061208a57505061028d935082010138612035565b85548784018501529485019486945091830191612073565b905061028d94506020925060ff191682840152151560051b82010138612035565b60ff81146120e55760ff811690601f8211611ff75760405191611fed8361144d565b506040516006548160006120f8836113e5565b8083526001938085169081156120a2575060011461211d575061028d9250038261149e565b600660009081527ff652222313e28459528d920b65115c16c04f3efc82aaedc97be59f3f377c0d3f94602093509091905b81831061216557505061028d935082010138612035565b8554878401850152948501948694509183019161214e565b8115612187570490565b634e487b7160e01b600052601260045260246000fd5b90808216911860011c810180911161053c5790565b80156122ec578061228561227e61227461226a61226061225661224c612242600161028d9a6000908b60801c806122e0575b508060401c806122d3575b508060201c806122c6575b508060101c806122b9575b508060081c806122ac575b508060041c8061229f575b508060021c80612292575b50821c61228b575b811c1b61223b818b61217d565b0160011c90565b61223b818a61217d565b61223b818961217d565b61223b818861217d565b61223b818761217d565b61223b818661217d565b61223b818561217d565b809261217d565b906122f2565b810161222e565b6002915091019038612226565b600491509101903861221b565b6008915091019038612210565b6010915091019038612205565b60209150910190386121fa565b60409150910190386121ef565b915050608090386121e4565b50600090565b90808210156122ff575090565b905090565b6001600160e01b0390818111612318571690565b60405162461bcd60e51b815260206004820152602760248201527f53616665436173743a2076616c756520646f65736e27742066697420696e20326044820152663234206269747360c81b6064820152608490fd5b65ffffffffffff90818111612380571690565b60405162461bcd60e51b815260206004820152602660248201527f53616665436173743a2076616c756520646f65736e27742066697420696e203460448201526538206269747360d01b6064820152608490fd5b63ffffffff908181116123e5571690565b60405162461bcd60e51b815260206004820152602660248201527f53616665436173743a2076616c756520646f65736e27742066697420696e203360448201526532206269747360d01b6064820152608490fd5b90816020910312610370575190565b90816020910312610370575180151581036103705790565b6001600160a01b039081166000908152600960205260408082205493831682529020546116519392908216911661199d565b90810390811161053c5790565b90810180911161053c579056fe8be0079c531659141344cd1fd0a4f28419497f9722a3daafe3b4186f6b6457e00175b7a638427703f0dbe7bb9bbf987a2551717b34e79f33b5b1008d1fa01db9dec2bacdd2f05b59de34da9b523dff8be42e5e38e818c82fdb0bae774387a724a2646970667358221220edb379c850b1bd294f4430c1bdc9b32577d493071c5abd8a39d47991048118cf64736f6c63430008130033dec2bacdd2f05b59de34da9b523dff8be42e5e38e818c82fdb0bae774387a724",
  "linkReferences": {},
  "deployedLinkReferences": {}
}