{
  "_format": "hh-sol-artifact-1",
  "contractName": "VeStaking",
  "sourceName": "contracts/ve/VeStaking.sol",
  "abi": [
    {
      "inputs": [
        {
          "internalType": "address",
          "name": "_rewardsToken",
          "type": "address"
        },
        {
          "internalType": "address",
          "name": "_votingEscrow",
          "type": "address"
        }
      ],
      "stateMutability": "nonpayable",
      "type": "constructor"
    },
    {
      "anonymous": false,
      "inputs": [
        {
          "indexed": true,
          "internalType": "uint256",
          "name": "tokenId",
          "type": "uint256"
        },
        {
          "indexed": false,
          "internalType": "uint256",
          "name": "oldAmount",
          "type": "uint256"
        },
        {
          "indexed": false,
          "internalType": "uint256",
          "name": "newAmount",
          "type": "uint256"
        }
      ],
      "name": "BalanceUpdated",
      "type": "event"
    },
    {
      "anonymous": false,
      "inputs": [
        {
          "indexed": true,
          "internalType": "address",
          "name": "previousOwner",
          "type": "address"
        },
        {
          "indexed": true,
          "internalType": "address",
          "name": "newOwner",
          "type": "address"
        }
      ],
      "name": "OwnershipTransferred",
      "type": "event"
    },
    {
      "anonymous": false,
      "inputs": [
        {
          "indexed": false,
          "internalType": "address",
          "name": "token",
          "type": "address"
        },
        {
          "indexed": false,
          "internalType": "uint256",
          "name": "amount",
          "type": "uint256"
        }
      ],
      "name": "Recovered",
      "type": "event"
    },
    {
      "anonymous": false,
      "inputs": [
        {
          "indexed": false,
          "internalType": "uint256",
          "name": "reward",
          "type": "uint256"
        }
      ],
      "name": "RewardAdded",
      "type": "event"
    },
    {
      "anonymous": false,
      "inputs": [
        {
          "indexed": true,
          "internalType": "address",
          "name": "tokenId",
          "type": "address"
        },
        {
          "indexed": false,
          "internalType": "uint256",
          "name": "reward",
          "type": "uint256"
        }
      ],
      "name": "RewardPaid",
      "type": "event"
    },
    {
      "anonymous": false,
      "inputs": [
        {
          "indexed": false,
          "internalType": "uint256",
          "name": "newDuration",
          "type": "uint256"
        }
      ],
      "name": "RewardsDurationUpdated",
      "type": "event"
    },
    {
      "anonymous": false,
      "inputs": [
        {
          "indexed": true,
          "internalType": "uint256",
          "name": "tokenId",
          "type": "uint256"
        },
        {
          "indexed": false,
          "internalType": "uint256",
          "name": "amount",
          "type": "uint256"
        }
      ],
      "name": "Staked",
      "type": "event"
    },
    {
      "anonymous": false,
      "inputs": [
        {
          "indexed": true,
          "internalType": "uint256",
          "name": "tokenId",
          "type": "uint256"
        },
        {
          "indexed": false,
          "internalType": "uint256",
          "name": "amount",
          "type": "uint256"
        }
      ],
      "name": "Withdrawn",
      "type": "event"
    },
    {
      "inputs": [
        {
          "internalType": "uint256",
          "name": "tokenId",
          "type": "uint256"
        },
        {
          "internalType": "uint256",
          "name": "amount",
          "type": "uint256"
        }
      ],
      "name": "_stake",
      "outputs": [],
      "stateMutability": "nonpayable",
      "type": "function"
    },
    {
      "inputs": [
        {
          "internalType": "uint256",
          "name": "tokenId",
          "type": "uint256"
        },
        {
          "internalType": "uint256",
          "name": "newAmount",
          "type": "uint256"
        }
      ],
      "name": "_updateBalance",
      "outputs": [],
      "stateMutability": "nonpayable",
      "type": "function"
    },
    {
      "inputs": [
        {
          "internalType": "uint256",
          "name": "tokenId",
          "type": "uint256"
        }
      ],
      "name": "_withdraw",
      "outputs": [],
      "stateMutability": "nonpayable",
      "type": "function"
    },
    {
      "inputs": [
        {
          "internalType": "uint256",
          "name": "tokenId",
          "type": "uint256"
        }
      ],
      "name": "balanceOf",
      "outputs": [
        {
          "internalType": "uint256",
          "name": "",
          "type": "uint256"
        }
      ],
      "stateMutability": "view",
      "type": "function"
    },
    {
      "inputs": [
        {
          "internalType": "uint256",
          "name": "tokenId",
          "type": "uint256"
        }
      ],
      "name": "earned",
      "outputs": [
        {
          "internalType": "uint256",
          "name": "",
          "type": "uint256"
        }
      ],
      "stateMutability": "view",
      "type": "function"
    },
    {
      "inputs": [
        {
          "internalType": "uint256",
          "name": "tokenId",
          "type": "uint256"
        }
      ],
      "name": "getReward",
      "outputs": [],
      "stateMutability": "nonpayable",
      "type": "function"
    },
    {
      "inputs": [],
      "name": "getRewardForDuration",
      "outputs": [
        {
          "internalType": "uint256",
          "name": "",
          "type": "uint256"
        }
      ],
      "stateMutability": "view",
      "type": "function"
    },
    {
      "inputs": [],
      "name": "lastTimeRewardApplicable",
      "outputs": [
        {
          "internalType": "uint256",
          "name": "",
          "type": "uint256"
        }
      ],
      "stateMutability": "view",
      "type": "function"
    },
    {
      "inputs": [],
      "name": "lastUpdateTime",
      "outputs": [
        {
          "internalType": "uint256",
          "name": "",
          "type": "uint256"
        }
      ],
      "stateMutability": "view",
      "type": "function"
    },
    {
      "inputs": [
        {
          "internalType": "uint256",
          "name": "reward",
          "type": "uint256"
        }
      ],
      "name": "notifyRewardAmount",
      "outputs": [],
      "stateMutability": "nonpayable",
      "type": "function"
    },
    {
      "inputs": [],
      "name": "owner",
      "outputs": [
        {
          "internalType": "address",
          "name": "",
          "type": "address"
        }
      ],
      "stateMutability": "view",
      "type": "function"
    },
    {
      "inputs": [],
      "name": "periodFinish",
      "outputs": [
        {
          "internalType": "uint256",
          "name": "",
          "type": "uint256"
        }
      ],
      "stateMutability": "view",
      "type": "function"
    },
    {
      "inputs": [
        {
          "internalType": "address",
          "name": "tokenAddress",
          "type": "address"
        },
        {
          "internalType": "uint256",
          "name": "tokenAmount",
          "type": "uint256"
        }
      ],
      "name": "recoverERC20",
      "outputs": [],
      "stateMutability": "nonpayable",
      "type": "function"
    },
    {
      "inputs": [],
      "name": "renounceOwnership",
      "outputs": [],
      "stateMutability": "nonpayable",
      "type": "function"
    },
    {
      "inputs": [],
      "name": "rewardPerToken",
      "outputs": [
        {
          "internalType": "uint256",
          "name": "",
          "type": "uint256"
        }
      ],
      "stateMutability": "view",
      "type": "function"
    },
    {
      "inputs": [
        {
          "internalType": "uint256",
          "name": "",
          "type": "uint256"
        }
      ],
      "name": "rewardPerTokenPaid",
      "outputs": [
        {
          "internalType": "uint256",
          "name": "",
          "type": "uint256"
        }
      ],
      "stateMutability": "view",
      "type": "function"
    },
    {
      "inputs": [],
      "name": "rewardPerTokenStored",
      "outputs": [
        {
          "internalType": "uint256",
          "name": "",
          "type": "uint256"
        }
      ],
      "stateMutability": "view",
      "type": "function"
    },
    {
      "inputs": [],
      "name": "rewardRate",
      "outputs": [
        {
          "internalType": "uint256",
          "name": "",
          "type": "uint256"
        }
      ],
      "stateMutability": "view",
      "type": "function"
    },
    {
      "inputs": [
        {
          "internalType": "uint256",
          "name": "",
          "type": "uint256"
        }
      ],
      "name": "rewards",
      "outputs": [
        {
          "internalType": "uint256",
          "name": "",
          "type": "uint256"
        }
      ],
      "stateMutability": "view",
      "type": "function"
    },
    {
      "inputs": [],
      "name": "rewardsDuration",
      "outputs": [
        {
          "internalType": "uint256",
          "name": "",
          "type": "uint256"
        }
      ],
      "stateMutability": "view",
      "type": "function"
    },
    {
      "inputs": [],
      "name": "rewardsToken",
      "outputs": [
        {
          "internalType": "contract IERC20",
          "name": "",
          "type": "address"
        }
      ],
      "stateMutability": "view",
      "type": "function"
    },
    {
      "inputs": [
        {
          "internalType": "uint256",
          "name": "_rewardsDuration",
          "type": "uint256"
        }
      ],
      "name": "setRewardsDuration",
      "outputs": [],
      "stateMutability": "nonpayable",
      "type": "function"
    },
    {
      "inputs": [],
      "name": "skim",
      "outputs": [],
      "stateMutability": "nonpayable",
      "type": "function"
    },
    {
      "inputs": [],
      "name": "totalSupply",
      "outputs": [
        {
          "internalType": "uint256",
          "name": "",
          "type": "uint256"
        }
      ],
      "stateMutability": "view",
      "type": "function"
    },
    {
      "inputs": [
        {
          "internalType": "address",
          "name": "newOwner",
          "type": "address"
        }
      ],
      "name": "transferOwnership",
      "outputs": [],
      "stateMutability": "nonpayable",
      "type": "function"
    },
    {
      "inputs": [],
      "name": "votingEscrow",
      "outputs": [
        {
          "internalType": "contract IVotingEscrow",
          "name": "",
          "type": "address"
        }
      ],
      "stateMutability": "view",
      "type": "function"
    }
  ],
  "bytecode": "0x6080346100ca57601f61136a38819003918201601f19168301916001600160401b038311848410176100cf5780849260409485528339810103126100ca57610052602061004b836100e5565b92016100e5565b60008054336001600160a01b0319808316821784556040519590946001600160a01b03949093859391908416907f8be0079c531659141344cd1fd0a4f28419497f9722a3daafe3b4186f6b6457e09080a362093a80600555168360015416176001551690600254161760025561127090816100fa8239f35b600080fd5b634e487b7160e01b600052604160045260246000fd5b51906001600160a01b03821682036100ca5756fe6080604081815260048036101561001557600080fd5b600092833560e01c90816318160ddd14610d49575080631c1f78eb14610d2c5780631c4b774b14610c015780631dd19cb414610aae578063386a952514610a8f5780633c6b16ab146108e35780634d6ed8c4146108c35780634f2bfe5b1461089a57806361dc2c36146107a3578063715018a6146107465780637b0a47ee1461072957806380faa57d1461070c5780638980f11f146105c35780638da5cb5b1461059b5780639cc7f70814610574578063ac6a2b5d146104b5578063c8f33c9114610496578063cc1a378f146103ae578063cd3daf9d1461038a578063d0779da814610363578063d1af0c7d1461033a578063dad3aab61461026f578063df136d6514610250578063ebe2b12b1461022d578063f2fde38b1461016b5763f301af421461014157600080fd5b346101675760203660031901126101675760209282913581526009845220549051908152f35b8280fd5b503461016757602036600319011261016757610185610d80565b9061018e610d96565b6001600160a01b039182169283156101db57505082546001600160a01b0319811683178455167f8be0079c531659141344cd1fd0a4f28419497f9722a3daafe3b4186f6b6457e08380a380f35b906020608492519162461bcd60e51b8352820152602660248201527f4f776e61626c653a206e6577206f776e657220697320746865207a65726f206160448201526564647265737360d01b6064820152fd5b50503461024c578160031936011261024c576020906003549051908152f35b5080fd5b50503461024c578160031936011261024c576020906007549051908152f35b50503461024c577ffa03b6304af61f28308225e213bf003207602328c0dad9495c9b2d61eec74f456102a036610d65565b6102b860018060a09694961b03600254163314610f6e565b6102c0610e66565b6007556102cb610dee565b60065583610314575b838552600b60205281852054906102f6816102f184600a54610e03565b610e59565b600a55848652600b602052808387205582519182526020820152a280f35b61031d84610ec6565b8486526009602052828620556007546008602052828620556102d4565b50503461024c578160031936011261024c5760015490516001600160a01b039091168152602090f35b50346101675760203660031901126101675760209282913581526008845220549051908152f35b50503461024c578160031936011261024c576020906103a7610e66565b9051908152f35b509034610167576020366003190112610167578135916103cc610d96565b6003544211156104085750816020917ffb46ca5a5e06d4540d6387b930a7c978bce0db5f449ec6b3f5d07c6e1d44f2d39360055551908152a180f35b602060a492519162461bcd60e51b8352820152605860248201527f50726576696f7573207265776172647320706572696f64206d7573742062652060448201527f636f6d706c657465206265666f7265206368616e67696e67207468652064757260648201527f6174696f6e20666f7220746865206e657720706572696f6400000000000000006084820152fd5b50503461024c578160031936011261024c576020906006549051908152f35b503461016757602080600319360112610570577f0c875c8d391179c5cf7ad8303d268efd50b8beb78b671f85cd54bfb91eb8ef4091359261050160018060a01b03600254163314610f6e565b610509610e66565b600755610514610dee565b6006558361054c575b838552600b8252808520549061053582600a54610e03565b600a55848652600b8352858181205551908152a280f35b61055584610ec6565b8486526009835281862055600754600883528186205561051d565b8380fd5b5034610167576020366003190112610167576020928291358152600b845220549051908152f35b50503461024c578160031936011261024c57905490516001600160a01b039091168152602090f35b50346101675781600319360112610167576105dc610d80565b602435916105e8610d96565b6001546001600160a01b0383811692911682146106bf57845163a9059cbb60e01b81523391810191825260208281018690529092909183919082908990829060400103925af180156106b55793610681917f8c1256b8896378cd5044f80c202f9772b9d77dc85c8a6eb51967210b09bfaa2895610687575b50516001600160a01b03909216825260208201929092529081906040820190565b0390a180f35b6106a79060203d81116106ae575b61069f8183610f36565b81019061114e565b5038610660565b503d610695565b84513d87823e3d90fd5b608490602086519162461bcd60e51b8352820152602160248201527f43616e6e6f7420776974686472617720746865207265776172647320746f6b656044820152603760f91b6064820152fd5b50503461024c578160031936011261024c576020906103a7610dee565b503461016757826003193601126101675760209250549051908152f35b83346107a057806003193601126107a05761075f610d96565b80546001600160a01b03198116825581906001600160a01b03167f8be0079c531659141344cd1fd0a4f28419497f9722a3daafe3b4186f6b6457e08280a380f35b80fd5b509034610167576107b336610d65565b9190926107cb60018060a01b03600254163314610f6e565b6107d3610e66565b6007556107de610dee565b60065583610874575b821561084157508160209161081f7f925435fa7e37e5d9555bb18ce0d62bb9627d0846942e58e5291e9a2dded462ed94600a54610e59565b600a55848652600b8352808620610837838254610e59565b905551908152a280f35b6020606492519162461bcd60e51b8352820152600e60248201526d043616e6e6f74207374616b6520360941b6044820152fd5b61087d84610ec6565b8486526009602052828620556007546008602052828620556107e7565b50503461024c578160031936011261024c5760025490516001600160a01b039091168152602090f35b5091346107a05760203660031901126107a057506103a760209235610ec6565b5082903461024c576020908160031936011261016757803590610904610e66565b600755600354428111610a5e575062093a808061092360055442610e59565b04818102918183041490151715610a4b57610945816024926003554290610e03565b61094f8185610e39565b83555b4260065560015487516370a0823160e01b8152308582015292869184919082906001600160a01b03165afa918215610a41578692610a0c575b5061099890835492610e39565b106109c957507fde88a922e0d3b88b24e9623efeb464919c6bf9f66857a65e2bfcf2ce87a9433d929351908152a180f35b845162461bcd60e51b8152908101839052601860248201527f50726f76696465642072657761726420746f6f206869676800000000000000006044820152606490fd5b9091508481813d8311610a3a575b610a248183610f36565b81010312610a3657519061099861098b565b8580fd5b503d610a1a565b87513d88823e3d90fd5b634e487b7160e01b855260118252602485fd5b610a6b6024914290610e03565b610a8881610a83610a7d865483610e26565b87610e59565b610e39565b8355610952565b50503461024c578160031936011261024c576020906005549051908152f35b509034610167578260031936011261016757610ac8610d96565b60035442811115610b7f57610ae1610ae8914290610e03565b8354610e26565b91602060018060a01b03600154169160248451809481936370a0823160e01b835230908301525afa918215610b7657508391610b43575b50610b4091610b2d91610e03565b60015433906001600160a01b0316610fc6565b80f35b90506020813d8211610b6e575b81610b5d60209383610f36565b810103126101675751610b40610b1f565b3d9150610b50565b513d85823e3d90fd5b5060015481516370a0823160e01b81523093810193909352602090839060249082906001600160a01b03165afa908115610bf857508290610bc5575b610b409150610b2d565b506020813d8211610bf0575b81610bde60209383610f36565b8101031261024c57610b409051610bbb565b3d9150610bd1565b513d84823e3d90fd5b503461016757602080600319360112610570578135610c1e610e66565b600755610c29610dee565b60065580610d08575b60025484516331a9108f60e11b81529384018290526001600160a01b03919083908590602490829086165afa938415610cfe578694610cc6575b50855260098252838520928354948686610c835780f35b7fe2403640ba68fed3a2f88b7557551d1993f84b99bb10ff833f0cf8db0c5e04869555610cb586838560015416610fc6565b519485521692a23880808080808680f35b9093508281813d8311610cf7575b610cde8183610f36565b81010312610a3657518181168103610a36579238610c6c565b503d610cd4565b85513d88823e3d90fd5b610d1181610ec6565b81865260098352848620556007546008835284862055610c32565b50503461024c578160031936011261024c576020906103a7610f14565b84903461024c578160031936011261024c57602090600a548152f35b6040906003190112610d7b576004359060243590565b600080fd5b600435906001600160a01b0382168203610d7b57565b6000546001600160a01b03163303610daa57565b606460405162461bcd60e51b815260206004820152602060248201527f4f776e61626c653a2063616c6c6572206973206e6f7420746865206f776e65726044820152fd5b600354804210600014610e0057504290565b90565b91908203918211610e1057565b634e487b7160e01b600052601160045260246000fd5b81810292918115918404141715610e1057565b8115610e43570490565b634e487b7160e01b600052601260045260246000fd5b91908201809211610e1057565b600a548015610ebf57600754610e92600454610e8c610e83610dee565b60065490610e03565b90610e26565b670de0b6b3a764000090818102918183041490151715610e1057610e0092610eb991610e39565b90610e59565b5060075490565b610e009060406000828152600b602052670de0b6b3a7640000610f0383832054610e8c610ef1610e66565b87865260086020528686205490610e03565b049281526009602052205490610e59565b600354428111610f245750600090565b610e0090610e8c600454914290610e03565b90601f8019910116810190811067ffffffffffffffff821117610f5857604052565b634e487b7160e01b600052604160045260246000fd5b15610f7557565b60405162461bcd60e51b815260206004820152602360248201527f43616c6c6572206973206e6f7420566f74696e67457363726f7720636f6e74726044820152621858dd60ea1b6064820152608490fd5b6040805163a9059cbb60e01b60208083019182526001600160a01b0395909516602483015260448083019690965294815294939091601f19919061100b606488610f36565b835167ffffffffffffffff979093916001600160a01b03169084860189811186821017610f585786528685527f5361666545524332303a206c6f772d6c6576656c2063616c6c206661696c656487860152600080948192519082855af1913d1561113b573d98891161112757869798611091879861109f985193601f8401160183610f36565b81528093883d92013e611166565b80519083821592831561110f575b505050156110b9575050565b60849250519062461bcd60e51b82526004820152602a60248201527f5361666545524332303a204552433230206f7065726174696f6e20646964206e6044820152691bdd081cdd58d8d9595960b21b6064820152fd5b61111f935082018101910161114e565b3883816110ad565b634e487b7160e01b84526041600452602484fd5b50915061109f9394959650606091611166565b90816020910312610d7b57518015158103610d7b5790565b919290156111c8575081511561117a575090565b3b156111835790565b60405162461bcd60e51b815260206004820152601d60248201527f416464726573733a2063616c6c20746f206e6f6e2d636f6e74726163740000006044820152606490fd5b8251909150156111db5750805190602001fd5b6040519062461bcd60e51b82528160208060048301528251908160248401526000935b828510611221575050604492506000838284010152601f80199101168101030190fd5b84810182015186860160440152938101938593506111fe56fea2646970667358221220bad92fe90b21e0fe0248d7e502349442e6edb12991bd7546da3c8a438b5d6a9564736f6c63430008130033",
  "linkReferences": {},
  "deployedLinkReferences": {}
}