{
  "_format": "hh-sol-artifact-1",
  "contractName": "VeStaking",
  "sourceName": "contracts/ve/VeStaking.sol",
  "abi": [
    {
      "inputs": [
        {
          "internalType": "address",
          "name": "_rewardsToken",
          "type": "address"
        },
        {
          "internalType": "address",
          "name": "_votingEscrow",
          "type": "address"
        }
      ],
      "stateMutability": "nonpayable",
      "type": "constructor"
    },
    {
      "anonymous": false,
      "inputs": [
        {
          "indexed": true,
          "internalType": "uint256",
          "name": "tokenId",
          "type": "uint256"
        },
        {
          "indexed": false,
          "internalType": "uint256",
          "name": "oldAmount",
          "type": "uint256"
        },
        {
          "indexed": false,
          "internalType": "uint256",
          "name": "newAmount",
          "type": "uint256"
        }
      ],
      "name": "BalanceUpdated",
      "type": "event"
    },
    {
      "anonymous": false,
      "inputs": [
        {
          "indexed": true,
          "internalType": "address",
          "name": "previousOwner",
          "type": "address"
        },
        {
          "indexed": true,
          "internalType": "address",
          "name": "newOwner",
          "type": "address"
        }
      ],
      "name": "OwnershipTransferred",
      "type": "event"
    },
    {
      "anonymous": false,
      "inputs": [
        {
          "indexed": false,
          "internalType": "address",
          "name": "token",
          "type": "address"
        },
        {
          "indexed": false,
          "internalType": "uint256",
          "name": "amount",
          "type": "uint256"
        }
      ],
      "name": "Recovered",
      "type": "event"
    },
    {
      "anonymous": false,
      "inputs": [
        {
          "indexed": false,
          "internalType": "uint256",
          "name": "reward",
          "type": "uint256"
        }
      ],
      "name": "RewardAdded",
      "type": "event"
    },
    {
      "anonymous": false,
      "inputs": [
        {
          "indexed": true,
          "internalType": "address",
          "name": "tokenId",
          "type": "address"
        },
        {
          "indexed": false,
          "internalType": "uint256",
          "name": "reward",
          "type": "uint256"
        }
      ],
      "name": "RewardPaid",
      "type": "event"
    },
    {
      "anonymous": false,
      "inputs": [
        {
          "indexed": false,
          "internalType": "uint256",
          "name": "newDuration",
          "type": "uint256"
        }
      ],
      "name": "RewardsDurationUpdated",
      "type": "event"
    },
    {
      "anonymous": false,
      "inputs": [
        {
          "indexed": true,
          "internalType": "uint256",
          "name": "tokenId",
          "type": "uint256"
        },
        {
          "indexed": false,
          "internalType": "uint256",
          "name": "amount",
          "type": "uint256"
        }
      ],
      "name": "Staked",
      "type": "event"
    },
    {
      "anonymous": false,
      "inputs": [
        {
          "indexed": true,
          "internalType": "uint256",
          "name": "tokenId",
          "type": "uint256"
        },
        {
          "indexed": false,
          "internalType": "uint256",
          "name": "amount",
          "type": "uint256"
        }
      ],
      "name": "Withdrawn",
      "type": "event"
    },
    {
      "inputs": [
        {
          "internalType": "uint256",
          "name": "tokenId",
          "type": "uint256"
        },
        {
          "internalType": "uint256",
          "name": "amount",
          "type": "uint256"
        }
      ],
      "name": "_stake",
      "outputs": [],
      "stateMutability": "nonpayable",
      "type": "function"
    },
    {
      "inputs": [
        {
          "internalType": "uint256",
          "name": "tokenId",
          "type": "uint256"
        },
        {
          "internalType": "uint256",
          "name": "newAmount",
          "type": "uint256"
        }
      ],
      "name": "_updateBalance",
      "outputs": [],
      "stateMutability": "nonpayable",
      "type": "function"
    },
    {
      "inputs": [
        {
          "internalType": "uint256",
          "name": "tokenId",
          "type": "uint256"
        }
      ],
      "name": "_withdraw",
      "outputs": [],
      "stateMutability": "nonpayable",
      "type": "function"
    },
    {
      "inputs": [
        {
          "internalType": "uint256",
          "name": "tokenId",
          "type": "uint256"
        }
      ],
      "name": "balanceOf",
      "outputs": [
        {
          "internalType": "uint256",
          "name": "",
          "type": "uint256"
        }
      ],
      "stateMutability": "view",
      "type": "function"
    },
    {
      "inputs": [
        {
          "internalType": "uint256",
          "name": "tokenId",
          "type": "uint256"
        }
      ],
      "name": "earned",
      "outputs": [
        {
          "internalType": "uint256",
          "name": "",
          "type": "uint256"
        }
      ],
      "stateMutability": "view",
      "type": "function"
    },
    {
      "inputs": [
        {
          "internalType": "uint256",
          "name": "tokenId",
          "type": "uint256"
        }
      ],
      "name": "getReward",
      "outputs": [],
      "stateMutability": "nonpayable",
      "type": "function"
    },
    {
      "inputs": [],
      "name": "getRewardForDuration",
      "outputs": [
        {
          "internalType": "uint256",
          "name": "",
          "type": "uint256"
        }
      ],
      "stateMutability": "view",
      "type": "function"
    },
    {
      "inputs": [],
      "name": "lastTimeRewardApplicable",
      "outputs": [
        {
          "internalType": "uint256",
          "name": "",
          "type": "uint256"
        }
      ],
      "stateMutability": "view",
      "type": "function"
    },
    {
      "inputs": [],
      "name": "lastUpdateTime",
      "outputs": [
        {
          "internalType": "uint256",
          "name": "",
          "type": "uint256"
        }
      ],
      "stateMutability": "view",
      "type": "function"
    },
    {
      "inputs": [
        {
          "internalType": "uint256",
          "name": "reward",
          "type": "uint256"
        }
      ],
      "name": "notifyRewardAmount",
      "outputs": [],
      "stateMutability": "nonpayable",
      "type": "function"
    },
    {
      "inputs": [],
      "name": "owner",
      "outputs": [
        {
          "internalType": "address",
          "name": "",
          "type": "address"
        }
      ],
      "stateMutability": "view",
      "type": "function"
    },
    {
      "inputs": [],
      "name": "periodFinish",
      "outputs": [
        {
          "internalType": "uint256",
          "name": "",
          "type": "uint256"
        }
      ],
      "stateMutability": "view",
      "type": "function"
    },
    {
      "inputs": [
        {
          "internalType": "address",
          "name": "tokenAddress",
          "type": "address"
        },
        {
          "internalType": "uint256",
          "name": "tokenAmount",
          "type": "uint256"
        }
      ],
      "name": "recoverERC20",
      "outputs": [],
      "stateMutability": "nonpayable",
      "type": "function"
    },
    {
      "inputs": [],
      "name": "renounceOwnership",
      "outputs": [],
      "stateMutability": "nonpayable",
      "type": "function"
    },
    {
      "inputs": [],
      "name": "rewardPerToken",
      "outputs": [
        {
          "internalType": "uint256",
          "name": "",
          "type": "uint256"
        }
      ],
      "stateMutability": "view",
      "type": "function"
    },
    {
      "inputs": [
        {
          "internalType": "uint256",
          "name": "",
          "type": "uint256"
        }
      ],
      "name": "rewardPerTokenPaid",
      "outputs": [
        {
          "internalType": "uint256",
          "name": "",
          "type": "uint256"
        }
      ],
      "stateMutability": "view",
      "type": "function"
    },
    {
      "inputs": [],
      "name": "rewardPerTokenStored",
      "outputs": [
        {
          "internalType": "uint256",
          "name": "",
          "type": "uint256"
        }
      ],
      "stateMutability": "view",
      "type": "function"
    },
    {
      "inputs": [],
      "name": "rewardRate",
      "outputs": [
        {
          "internalType": "uint256",
          "name": "",
          "type": "uint256"
        }
      ],
      "stateMutability": "view",
      "type": "function"
    },
    {
      "inputs": [
        {
          "internalType": "uint256",
          "name": "",
          "type": "uint256"
        }
      ],
      "name": "rewards",
      "outputs": [
        {
          "internalType": "uint256",
          "name": "",
          "type": "uint256"
        }
      ],
      "stateMutability": "view",
      "type": "function"
    },
    {
      "inputs": [],
      "name": "rewardsDuration",
      "outputs": [
        {
          "internalType": "uint256",
          "name": "",
          "type": "uint256"
        }
      ],
      "stateMutability": "view",
      "type": "function"
    },
    {
      "inputs": [],
      "name": "rewardsToken",
      "outputs": [
        {
          "internalType": "contract IERC20",
          "name": "",
          "type": "address"
        }
      ],
      "stateMutability": "view",
      "type": "function"
    },
    {
      "inputs": [
        {
          "internalType": "uint256",
          "name": "_rewardsDuration",
          "type": "uint256"
        }
      ],
      "name": "setRewardsDuration",
      "outputs": [],
      "stateMutability": "nonpayable",
      "type": "function"
    },
    {
      "inputs": [],
      "name": "totalSupply",
      "outputs": [
        {
          "internalType": "uint256",
          "name": "",
          "type": "uint256"
        }
      ],
      "stateMutability": "view",
      "type": "function"
    },
    {
      "inputs": [
        {
          "internalType": "address",
          "name": "newOwner",
          "type": "address"
        }
      ],
      "name": "transferOwnership",
      "outputs": [],
      "stateMutability": "nonpayable",
      "type": "function"
    },
    {
      "inputs": [],
      "name": "votingEscrow",
      "outputs": [
        {
          "internalType": "contract IVotingEscrow",
          "name": "",
          "type": "address"
        }
      ],
      "stateMutability": "view",
      "type": "function"
    }
  ],
  "bytecode": "0x6080346100ca57601f6111f338819003918201601f19168301916001600160401b038311848410176100cf5780849260409485528339810103126100ca57610052602061004b836100e5565b92016100e5565b60008054336001600160a01b0319808316821784556040519590946001600160a01b03949093859391908416907f8be0079c531659141344cd1fd0a4f28419497f9722a3daafe3b4186f6b6457e09080a362093a8060055516836001541617600155169060025416176002556110f990816100fa8239f35b600080fd5b634e487b7160e01b600052604160045260246000fd5b51906001600160a01b03821682036100ca5756fe6080604081815260048036101561001557600080fd5b600092833560e01c90816318160ddd14610d5a575080631c1f78eb14610d3d5780631c4b774b14610aa3578063386a952514610a845780633c6b16ab146108d85780634d6ed8c4146108b85780634f2bfe5b1461088f57806361dc2c3614610798578063715018a61461073b5780637b0a47ee1461071e57806380faa57d146107015780638980f11f146105b85780638da5cb5b146105905780639cc7f70814610569578063ac6a2b5d146104aa578063c8f33c911461048b578063cc1a378f146103a3578063cd3daf9d1461037f578063d0779da814610358578063d1af0c7d1461032f578063dad3aab614610264578063df136d6514610245578063ebe2b12b14610222578063f2fde38b146101605763f301af421461013657600080fd5b3461015c57602036600319011261015c5760209282913581526009845220549051908152f35b8280fd5b503461015c57602036600319011261015c5761017a610d91565b90610183610da7565b6001600160a01b039182169283156101d057505082546001600160a01b0319811683178455167f8be0079c531659141344cd1fd0a4f28419497f9722a3daafe3b4186f6b6457e08380a380f35b906020608492519162461bcd60e51b8352820152602660248201527f4f776e61626c653a206e6577206f776e657220697320746865207a65726f206160448201526564647265737360d01b6064820152fd5b5050346102415781600319360112610241576020906003549051908152f35b5080fd5b5050346102415781600319360112610241576020906007549051908152f35b505034610241577ffa03b6304af61f28308225e213bf003207602328c0dad9495c9b2d61eec74f4561029536610d76565b6102ad60018060a09694961b03600254163314610f86565b6102b561101b565b6007556102c0611009565b60065583610309575b838552600b60205281852054906102eb816102e684600a54610dff565b610e35565b600a55848652600b602052808387205582519182526020820152a280f35b61031284611075565b8486526009602052828620556007546008602052828620556102c9565b50503461024157816003193601126102415760015490516001600160a01b039091168152602090f35b503461015c57602036600319011261015c5760209282913581526008845220549051908152f35b50503461024157816003193601126102415760209061039c61101b565b9051908152f35b50903461015c57602036600319011261015c578135916103c1610da7565b6003544211156103fd5750816020917ffb46ca5a5e06d4540d6387b930a7c978bce0db5f449ec6b3f5d07c6e1d44f2d39360055551908152a180f35b602060a492519162461bcd60e51b8352820152605860248201527f50726576696f7573207265776172647320706572696f64206d7573742062652060448201527f636f6d706c657465206265666f7265206368616e67696e67207468652064757260648201527f6174696f6e20666f7220746865206e657720706572696f6400000000000000006084820152fd5b5050346102415781600319360112610241576020906006549051908152f35b503461015c57602080600319360112610565577f0c875c8d391179c5cf7ad8303d268efd50b8beb78b671f85cd54bfb91eb8ef409135926104f660018060a01b03600254163314610f86565b6104fe61101b565b600755610509611009565b60065583610541575b838552600b8252808520549061052a82600a54610dff565b600a55848652600b8352858181205551908152a280f35b61054a84611075565b84865260098352818620556007546008835281862055610512565b8380fd5b503461015c57602036600319011261015c576020928291358152600b845220549051908152f35b505034610241578160031936011261024157905490516001600160a01b039091168152602090f35b503461015c578160031936011261015c576105d1610d91565b602435916105dd610da7565b6001546001600160a01b0383811692911682146106b457845163a9059cbb60e01b81523391810191825260208281018690529092909183919082908990829060400103925af180156106aa5793610676917f8c1256b8896378cd5044f80c202f9772b9d77dc85c8a6eb51967210b09bfaa289561067c575b50516001600160a01b03909216825260208201929092529081906040820190565b0390a180f35b61069c9060203d81116106a3575b6106948183610e62565b810190610e9a565b5038610655565b503d61068a565b84513d87823e3d90fd5b608490602086519162461bcd60e51b8352820152602160248201527f43616e6e6f7420776974686472617720746865207265776172647320746f6b656044820152603760f91b6064820152fd5b50503461024157816003193601126102415760209061039c611009565b503461015c578260031936011261015c5760209250549051908152f35b8334610795578060031936011261079557610754610da7565b80546001600160a01b03198116825581906001600160a01b03167f8be0079c531659141344cd1fd0a4f28419497f9722a3daafe3b4186f6b6457e08280a380f35b80fd5b50903461015c576107a836610d76565b9190926107c060018060a01b03600254163314610f86565b6107c861101b565b6007556107d3611009565b60065583610869575b82156108365750816020916108147f925435fa7e37e5d9555bb18ce0d62bb9627d0846942e58e5291e9a2dded462ed94600a54610e35565b600a55848652600b835280862061082c838254610e35565b905551908152a280f35b6020606492519162461bcd60e51b8352820152600e60248201526d043616e6e6f74207374616b6520360941b6044820152fd5b61087284611075565b8486526009602052828620556007546008602052828620556107dc565b50503461024157816003193601126102415760025490516001600160a01b039091168152602090f35b509134610795576020366003190112610795575061039c60209235611075565b50829034610241576020908160031936011261015c578035906108f961101b565b600755600354428111610a53575062093a808061091860055442610e35565b04818102918183041490151715610a405761093a816024926003554290610dff565b6109448185610e42565b83555b4260065560015487516370a0823160e01b8152308582015292869184919082906001600160a01b03165afa918215610a36578692610a01575b5061098d90835492610e42565b106109be57507fde88a922e0d3b88b24e9623efeb464919c6bf9f66857a65e2bfcf2ce87a9433d929351908152a180f35b845162461bcd60e51b8152908101839052601860248201527f50726f76696465642072657761726420746f6f206869676800000000000000006044820152606490fd5b9091508481813d8311610a2f575b610a198183610e62565b81010312610a2b57519061098d610980565b8580fd5b503d610a0f565b87513d88823e3d90fd5b634e487b7160e01b855260118252602485fd5b610a606024914290610dff565b610a7d81610a78610a72865483610e22565b87610e35565b610e42565b8355610947565b5050346102415781600319360112610241576020906005549051908152f35b508290346102415760208060031936011261015c578135610ac261101b565b600755610acd611009565b60065580610d19575b60025485516331a9108f60e11b81528481018390526001600160a01b0392909184908390602490829087165afa918215610a36578692610ce1575b508552600983528585209384549485610b28578680f35b869055600154875163a9059cbb60e01b8682019081526001600160a01b03851660248301526044808301899052825291601f1991908616610b6a606483610e62565b8a519367ffffffffffffffff92858d0184811187821017610cce578d528986527f5361666545524332303a206c6f772d6c6576656c2063616c6c206661696c6564868b0152518b9182919082855af1913d15610cbe573d908111610cab5790610bf094939291610be38a8e5195601f8401160185610e62565b83523d8b8a85013e610eb2565b805190858215928315610c93575b50505015610c3d57507fe2403640ba68fed3a2f88b7557551d1993f84b99bb10ff833f0cf8db0c5e0486939495519485521692a2808280808080808680f35b865162461bcd60e51b8152908101849052602a60248201527f5361666545524332303a204552433230206f7065726174696f6e20646964206e6044820152691bdd081cdd58d8d9595960b21b6064820152608490fd5b610ca39350820181019101610e9a565b888581610bfe565b634e487b7160e01b8b526041865260248bfd5b5090610bf0939250606091610eb2565b634e487b7160e01b8d526041885260248dfd5b9091508381813d8311610d12575b610cf98183610e62565b81010312610a2b57518281168103610a2b579087610b11565b503d610cef565b610d2281611075565b81855260098352858520556007546008835285852055610ad6565b50503461024157816003193601126102415760209061039c610fde565b849034610241578160031936011261024157602090600a548152f35b6040906003190112610d8c576004359060243590565b600080fd5b600435906001600160a01b0382168203610d8c57565b6000546001600160a01b03163303610dbb57565b606460405162461bcd60e51b815260206004820152602060248201527f4f776e61626c653a2063616c6c6572206973206e6f7420746865206f776e65726044820152fd5b91908203918211610e0c57565b634e487b7160e01b600052601160045260246000fd5b81810292918115918404141715610e0c57565b91908201809211610e0c57565b8115610e4c570490565b634e487b7160e01b600052601260045260246000fd5b90601f8019910116810190811067ffffffffffffffff821117610e8457604052565b634e487b7160e01b600052604160045260246000fd5b90816020910312610d8c57518015158103610d8c5790565b91929015610f145750815115610ec6575090565b3b15610ecf5790565b60405162461bcd60e51b815260206004820152601d60248201527f416464726573733a2063616c6c20746f206e6f6e2d636f6e74726163740000006044820152606490fd5b825190915015610f275750805190602001fd5b6040519062461bcd60e51b82528160208060048301528251908160248401526000935b828510610f6d575050604492506000838284010152601f80199101168101030190fd5b8481018201518686016044015293810193859350610f4a565b15610f8d57565b60405162461bcd60e51b815260206004820152602360248201527f43616c6c6572206973206e6f7420566f74696e67457363726f7720636f6e74726044820152621858dd60ea1b6064820152608490fd5b600354428111610fee5750600090565b61100690611000600454914290610dff565b90610e22565b90565b60035480421060001461100657504290565b600a54801561106e57600754611041600454611000611038611009565b60065490610dff565b670de0b6b3a764000090818102918183041490151715610e0c576110069261106891610e42565b90610e35565b5060075490565b6110069060406000828152600b602052670de0b6b3a76400006110b2838320546110006110a061101b565b87865260086020528686205490610dff565b049281526009602052205490610e3556fea2646970667358221220c6ac025dc493493b6f075a9b672b8d654e5ecd1c5ce78603d0d47b00b0755a1064736f6c63430008130033",
  "linkReferences": {},
  "deployedLinkReferences": {}
}