{
  "_format": "hh-sol-artifact-1",
  "contractName": "StakingRewards",
  "sourceName": "contracts/StakingRewards.sol",
  "abi": [
    {
      "inputs": [
        {
          "internalType": "address",
          "name": "_rewardsToken",
          "type": "address"
        },
        {
          "internalType": "address",
          "name": "_stakingToken",
          "type": "address"
        }
      ],
      "stateMutability": "nonpayable",
      "type": "constructor"
    },
    {
      "anonymous": false,
      "inputs": [
        {
          "indexed": true,
          "internalType": "address",
          "name": "previousOwner",
          "type": "address"
        },
        {
          "indexed": true,
          "internalType": "address",
          "name": "newOwner",
          "type": "address"
        }
      ],
      "name": "OwnershipTransferred",
      "type": "event"
    },
    {
      "anonymous": false,
      "inputs": [
        {
          "indexed": false,
          "internalType": "address",
          "name": "token",
          "type": "address"
        },
        {
          "indexed": false,
          "internalType": "uint256",
          "name": "amount",
          "type": "uint256"
        }
      ],
      "name": "Recovered",
      "type": "event"
    },
    {
      "anonymous": false,
      "inputs": [
        {
          "indexed": false,
          "internalType": "uint256",
          "name": "reward",
          "type": "uint256"
        }
      ],
      "name": "RewardAdded",
      "type": "event"
    },
    {
      "anonymous": false,
      "inputs": [
        {
          "indexed": true,
          "internalType": "address",
          "name": "user",
          "type": "address"
        },
        {
          "indexed": false,
          "internalType": "uint256",
          "name": "reward",
          "type": "uint256"
        }
      ],
      "name": "RewardPaid",
      "type": "event"
    },
    {
      "anonymous": false,
      "inputs": [
        {
          "indexed": false,
          "internalType": "uint256",
          "name": "newDuration",
          "type": "uint256"
        }
      ],
      "name": "RewardsDurationUpdated",
      "type": "event"
    },
    {
      "anonymous": false,
      "inputs": [
        {
          "indexed": true,
          "internalType": "address",
          "name": "user",
          "type": "address"
        },
        {
          "indexed": false,
          "internalType": "uint256",
          "name": "amount",
          "type": "uint256"
        }
      ],
      "name": "Staked",
      "type": "event"
    },
    {
      "anonymous": false,
      "inputs": [
        {
          "indexed": true,
          "internalType": "address",
          "name": "user",
          "type": "address"
        },
        {
          "indexed": false,
          "internalType": "uint256",
          "name": "amount",
          "type": "uint256"
        }
      ],
      "name": "Withdrawn",
      "type": "event"
    },
    {
      "inputs": [
        {
          "internalType": "address",
          "name": "account",
          "type": "address"
        }
      ],
      "name": "balanceOf",
      "outputs": [
        {
          "internalType": "uint256",
          "name": "",
          "type": "uint256"
        }
      ],
      "stateMutability": "view",
      "type": "function"
    },
    {
      "inputs": [
        {
          "internalType": "address",
          "name": "account",
          "type": "address"
        }
      ],
      "name": "earned",
      "outputs": [
        {
          "internalType": "uint256",
          "name": "",
          "type": "uint256"
        }
      ],
      "stateMutability": "view",
      "type": "function"
    },
    {
      "inputs": [],
      "name": "exit",
      "outputs": [],
      "stateMutability": "nonpayable",
      "type": "function"
    },
    {
      "inputs": [],
      "name": "getReward",
      "outputs": [],
      "stateMutability": "nonpayable",
      "type": "function"
    },
    {
      "inputs": [],
      "name": "getRewardForDuration",
      "outputs": [
        {
          "internalType": "uint256",
          "name": "",
          "type": "uint256"
        }
      ],
      "stateMutability": "view",
      "type": "function"
    },
    {
      "inputs": [],
      "name": "lastTimeRewardApplicable",
      "outputs": [
        {
          "internalType": "uint256",
          "name": "",
          "type": "uint256"
        }
      ],
      "stateMutability": "view",
      "type": "function"
    },
    {
      "inputs": [],
      "name": "lastUpdateTime",
      "outputs": [
        {
          "internalType": "uint256",
          "name": "",
          "type": "uint256"
        }
      ],
      "stateMutability": "view",
      "type": "function"
    },
    {
      "inputs": [
        {
          "internalType": "uint256",
          "name": "reward",
          "type": "uint256"
        }
      ],
      "name": "notifyRewardAmount",
      "outputs": [],
      "stateMutability": "nonpayable",
      "type": "function"
    },
    {
      "inputs": [],
      "name": "owner",
      "outputs": [
        {
          "internalType": "address",
          "name": "",
          "type": "address"
        }
      ],
      "stateMutability": "view",
      "type": "function"
    },
    {
      "inputs": [],
      "name": "periodFinish",
      "outputs": [
        {
          "internalType": "uint256",
          "name": "",
          "type": "uint256"
        }
      ],
      "stateMutability": "view",
      "type": "function"
    },
    {
      "inputs": [
        {
          "internalType": "address",
          "name": "tokenAddress",
          "type": "address"
        },
        {
          "internalType": "uint256",
          "name": "tokenAmount",
          "type": "uint256"
        }
      ],
      "name": "recoverERC20",
      "outputs": [],
      "stateMutability": "nonpayable",
      "type": "function"
    },
    {
      "inputs": [],
      "name": "renounceOwnership",
      "outputs": [],
      "stateMutability": "nonpayable",
      "type": "function"
    },
    {
      "inputs": [],
      "name": "rewardPerToken",
      "outputs": [
        {
          "internalType": "uint256",
          "name": "",
          "type": "uint256"
        }
      ],
      "stateMutability": "view",
      "type": "function"
    },
    {
      "inputs": [],
      "name": "rewardPerTokenStored",
      "outputs": [
        {
          "internalType": "uint256",
          "name": "",
          "type": "uint256"
        }
      ],
      "stateMutability": "view",
      "type": "function"
    },
    {
      "inputs": [],
      "name": "rewardRate",
      "outputs": [
        {
          "internalType": "uint256",
          "name": "",
          "type": "uint256"
        }
      ],
      "stateMutability": "view",
      "type": "function"
    },
    {
      "inputs": [
        {
          "internalType": "address",
          "name": "",
          "type": "address"
        }
      ],
      "name": "rewards",
      "outputs": [
        {
          "internalType": "uint256",
          "name": "",
          "type": "uint256"
        }
      ],
      "stateMutability": "view",
      "type": "function"
    },
    {
      "inputs": [],
      "name": "rewardsDuration",
      "outputs": [
        {
          "internalType": "uint256",
          "name": "",
          "type": "uint256"
        }
      ],
      "stateMutability": "view",
      "type": "function"
    },
    {
      "inputs": [],
      "name": "rewardsToken",
      "outputs": [
        {
          "internalType": "contract IERC20",
          "name": "",
          "type": "address"
        }
      ],
      "stateMutability": "view",
      "type": "function"
    },
    {
      "inputs": [
        {
          "internalType": "uint256",
          "name": "_rewardsDuration",
          "type": "uint256"
        }
      ],
      "name": "setRewardsDuration",
      "outputs": [],
      "stateMutability": "nonpayable",
      "type": "function"
    },
    {
      "inputs": [
        {
          "internalType": "uint256",
          "name": "amount",
          "type": "uint256"
        }
      ],
      "name": "stake",
      "outputs": [],
      "stateMutability": "nonpayable",
      "type": "function"
    },
    {
      "inputs": [],
      "name": "stakingToken",
      "outputs": [
        {
          "internalType": "contract IERC20",
          "name": "",
          "type": "address"
        }
      ],
      "stateMutability": "view",
      "type": "function"
    },
    {
      "inputs": [],
      "name": "totalSupply",
      "outputs": [
        {
          "internalType": "uint256",
          "name": "",
          "type": "uint256"
        }
      ],
      "stateMutability": "view",
      "type": "function"
    },
    {
      "inputs": [
        {
          "internalType": "address",
          "name": "newOwner",
          "type": "address"
        }
      ],
      "name": "transferOwnership",
      "outputs": [],
      "stateMutability": "nonpayable",
      "type": "function"
    },
    {
      "inputs": [
        {
          "internalType": "address",
          "name": "",
          "type": "address"
        }
      ],
      "name": "userRewardPerTokenPaid",
      "outputs": [
        {
          "internalType": "uint256",
          "name": "",
          "type": "uint256"
        }
      ],
      "stateMutability": "view",
      "type": "function"
    },
    {
      "inputs": [
        {
          "internalType": "uint256",
          "name": "amount",
          "type": "uint256"
        }
      ],
      "name": "withdraw",
      "outputs": [],
      "stateMutability": "nonpayable",
      "type": "function"
    }
  ],
  "bytecode": "0x6080346100ce57601f6112a838819003918201601f19168301916001600160401b038311848410176100d35780849260409485528339810103126100ce57610052602061004b836100e9565b92016100e9565b60008054336001600160a01b0319808316821784556040519590946001600160a01b03949093859391908416907f8be0079c531659141344cd1fd0a4f28419497f9722a3daafe3b4186f6b6457e09080a36001805562093a8060065516836002541617600255169060035416176003556111aa90816100fe8239f35b600080fd5b634e487b7160e01b600052604160045260246000fd5b51906001600160a01b03821682036100ce5756fe6040608081526004908136101561001557600080fd5b600091823560e01c80628cc26214610c3f5780630700037d14610c0757806318160ddd14610be85780631c1f78eb14610bc45780632e1a7d4d14610ad4578063386a952514610ab55780633c6b16ab1461092f5780633d18b9121461087b57806370a0823114610843578063715018a6146107f857806372f702f3146107cf5780637b0a47ee146107b057806380faa57d146107935780638980f11f146106c55780638b8763471461068d5780638da5cb5b14610665578063a694fc3a1461050e578063c8f33c91146104ef578063cc1a378f1461040d578063cd3daf9d146103e9578063d1af0c7d146103c0578063df136d651461039d578063e9fad8ee14610203578063ebe2b12b146101e65763f2fde38b1461013357600080fd5b346101e25760203660031901126101e25761014c610c65565b90610155610c80565b6001600160a01b0391821692831561019057505082546001600160a01b0319811683178455166000805160206111358339815191528380a380f35b906020608492519162461bcd60e51b8352820152602660248201527f4f776e61626c653a206e6577206f776e657220697320746865207a65726f206160448201526564647265737360d01b6064820152fd5b8280fd5b50346101e257826003193601126101e25760209250549051908152f35b50346101e257826003193601126101e2573383526020600c8152828420549161022a610cfb565b61023261105e565b60085561023d611049565b6007553315159081610379575b8315610342575061025d83600b54610fb2565b600b55338552600c8252838520610275848254610fb2565b905560018060a01b039261028e81338660035416610fda565b8451908152600080516020611155833981519152833392a2600180556102b2610cfb565b6102ba61105e565b6008556102c5611049565b60075561031e575b338452600a81528284209284845494856102ea575b506001805580f35b6000805160206111158339815191529461030c92879255339060025416610fda565b519283523392a23880808084816102e2565b610327336110be565b338552600a82528385205560085460098252838520556102cd565b845162461bcd60e51b81529081018390526011602482015270043616e6e6f74207769746864726177203607c1b6044820152606490fd5b610382336110be565b338752600a845285872055600854600984528587205561024a565b5050346103bc57816003193601126103bc576020906008549051908152f35b5080fd5b5050346103bc57816003193601126103bc5760025490516001600160a01b039091168152602090f35b5050346103bc57816003193601126103bc5760209061040661105e565b9051908152f35b5090346101e25760203660031901126101e25781359161042b610c80565b80544211156104665750816020917ffb46ca5a5e06d4540d6387b930a7c978bce0db5f449ec6b3f5d07c6e1d44f2d39360065551908152a180f35b602060a492519162461bcd60e51b8352820152605860248201527f50726576696f7573207265776172647320706572696f64206d7573742062652060448201527f636f6d706c657465206265666f7265206368616e67696e672074686520647572606482015277185d1a5bdb88199bdc881d1a19481b995dc81c195c9a5bd960421b6084820152fd5b5050346103bc57816003193601126103bc576020906007549051908152f35b509190346103bc576020806003193601126101e25783359161052e610cfb565b61053661105e565b600855610541611049565b60075533610641575b821561060d5761055c83600b54610cd8565b600b55338452600c8252808420610574848254610cd8565b905560035481516323b872dd60e01b8482015233602482015230604482015260648082018690528152906001600160a01b031660a082016001600160401b038111838210176105fa5783527f9e71bc8eea02a63969f509818f2dafb9254532904319f9dbda79b67bd34a5f3d9392916105ec91610d8a565b519283523392a26001805580f35b634e487b7160e01b875260418852602487fd5b5162461bcd60e51b815280850191909152600e60248201526d043616e6e6f74207374616b6520360941b6044820152606490fd5b61064a336110be565b338552600a835281852055600854600983528185205561054a565b5050346103bc57816003193601126103bc57905490516001600160a01b039091168152602090f35b5050346103bc5760203660031901126103bc5760209181906001600160a01b036106b5610c65565b1681526009845220549051908152f35b508290346103bc57826003193601126103bc576106e0610c65565b602435916106ec610c80565b6003546001600160a01b03838116929116821461074657507f8c1256b8896378cd5044f80c202f9772b9d77dc85c8a6eb51967210b09bfaa28939461073684610740933390610fda565b5192839283610fbf565b0390a180f35b608490602087519162461bcd60e51b8352820152602160248201527f43616e6e6f7420776974686472617720746865207374616b696e6720746f6b656044820152603760f91b6064820152fd5b5050346103bc57816003193601126103bc57602090610406611049565b5050346103bc57816003193601126103bc576020906005549051908152f35b5050346103bc57816003193601126103bc5760035490516001600160a01b039091168152602090f35b8334610840578060031936011261084057610811610c80565b80546001600160a01b03198116825581906001600160a01b03166000805160206111358339815191528280a380f35b80fd5b5050346103bc5760203660031901126103bc5760209181906001600160a01b0361086b610c65565b168152600c845220549051908152f35b5050346103bc57816003193601126103bc57610895610cfb565b61089d61105e565b6008556108a8611049565b60075533610909575b338252600a6020528082209082825492836108ce57506001805580f35b556002546108e890839033906001600160a01b0316610fda565b5190815260008051602061111583398151915260203392a2388082816102e2565b610912336110be565b338352600a602052818320556008546009602052818320556108b1565b508290346103bc57602090816003193601126101e257602493813591610953610c80565b61095b61105e565b600855610966611049565b6007558054428111610a81575061097f60065484611029565b6005555b60025482516370a0823160e01b8152308382015296859188919082906001600160a01b03165afa958615610a77578596610a44575b506005546109c96006548098611029565b10610a08576109fe7fde88a922e0d3b88b24e9623efeb464919c6bf9f66857a65e2bfcf2ce87a9433d95964260075542610cd8565b905551908152a180f35b83606492519162461bcd60e51b835282015260186024820152770a0e4deecd2c8cac840e4caeec2e4c840e8dede40d0d2ced60431b6044820152fd5b9095508381813d8311610a70575b610a5c8183610d51565b81010312610a6c575194866109b8565b8480fd5b503d610a52565b82513d87823e3d90fd5b610aa4610a9e610a95610aad934290610fb2565b60055490611016565b85610cd8565b60065490611029565b600555610983565b5050346103bc57816003193601126103bc576020906006549051908152f35b5090346101e25760209081600319360112610bc057823592610af4610cfb565b610afc61105e565b600855610b07611049565b60075533610b9c575b8315610b6757509060008051602061115583398151915291610b3484600b54610fb2565b600b55338552600c8252808520610b4c858254610fb2565b90556003546105ec90859033906001600160a01b0316610fda565b82606492519162461bcd60e51b83528201526011602482015270043616e6e6f74207769746864726177203607c1b6044820152fd5b610ba5336110be565b338652600a8452828620556008546009845282862055610b10565b8380fd5b5050346103bc57816003193601126103bc5760209061040660055460065490611016565b5050346103bc57816003193601126103bc57602090600b549051908152f35b5050346103bc5760203660031901126103bc5760209181906001600160a01b03610c2f610c65565b168152600a845220549051908152f35b5050346103bc5760203660031901126103bc57602090610406610c60610c65565b6110be565b600435906001600160a01b0382168203610c7b57565b600080fd5b6000546001600160a01b03163303610c9457565b606460405162461bcd60e51b815260206004820152602060248201527f4f776e61626c653a2063616c6c6572206973206e6f7420746865206f776e65726044820152fd5b91908201809211610ce557565b634e487b7160e01b600052601160045260246000fd5b600260015414610d0c576002600155565b60405162461bcd60e51b815260206004820152601f60248201527f5265656e7472616e637947756172643a207265656e7472616e742063616c6c006044820152606490fd5b601f909101601f19168101906001600160401b03821190821017610d7457604052565b634e487b7160e01b600052604160045260246000fd5b604080516001600160a01b03929092169291906001600160401b0390820181811183821017610d74576040526020938483527f5361666545524332303a206c6f772d6c6576656c2063616c6c206661696c6564858401526000808587829751910182855af1903d15610ed3573d928311610ebf5790610e2993929160405192610e1c88601f19601f8401160185610d51565b83523d868885013e610ede565b805191821591848315610e9b575b505050905015610e445750565b6084906040519062461bcd60e51b82526004820152602a60248201527f5361666545524332303a204552433230206f7065726174696f6e20646964206e6044820152691bdd081cdd58d8d9595960b21b6064820152fd5b9193818094500103126103bc57820151908115158203610840575080388084610e37565b634e487b7160e01b85526041600452602485fd5b90610e299392506060915b91929015610f405750815115610ef2575090565b3b15610efb5790565b60405162461bcd60e51b815260206004820152601d60248201527f416464726573733a2063616c6c20746f206e6f6e2d636f6e74726163740000006044820152606490fd5b825190915015610f535750805190602001fd5b6040519062461bcd60e51b82528160208060048301528251908160248401526000935b828510610f99575050604492506000838284010152601f80199101168101030190fd5b8481018201518686016044015293810193859350610f76565b91908203918211610ce557565b6001600160a01b039091168152602081019190915260400190565b61100f611014939261100160405194859263a9059cbb60e01b602085015260248401610fbf565b03601f198101845283610d51565b610d8a565b565b81810292918115918404141715610ce557565b8115611033570490565b634e487b7160e01b600052601260045260246000fd5b60045480421060001461105b57504290565b90565b600b5480156110b75760085461108a60055461108461107b611049565b60075490610fb2565b90611016565b670de0b6b3a764000090818102918183041490151715610ce55761105b926110b191611029565b90610cd8565b5060085490565b61105b9060018060a01b031660406000828152600c602052670de0b6b3a7640000611103838320546110846110f161105e565b87865260096020528686205490610fb2565b04928152600a602052205490610cd856fee2403640ba68fed3a2f88b7557551d1993f84b99bb10ff833f0cf8db0c5e04868be0079c531659141344cd1fd0a4f28419497f9722a3daafe3b4186f6b6457e07084f5476618d8e60b11ef0d7d3f06914655adb8793e28ff7f018d4c76d505d5a264697066735822122026977bec385c0794c22917940d7010f51c6787c7bffa8242e0624cfdeb3523ca64736f6c63430008130033",
  "linkReferences": {},
  "deployedLinkReferences": {}
}