{
  "_format": "hh-sol-artifact-1",
  "contractName": "VeNFTRender",
  "sourceName": "contracts/VeNFTRender.sol",
  "abi": [
    {
      "inputs": [
        {
          "internalType": "uint256",
          "name": "_tokenId",
          "type": "uint256"
        },
        {
          "internalType": "uint256",
          "name": "_balanceOf",
          "type": "uint256"
        },
        {
          "internalType": "uint256",
          "name": "_locked_end",
          "type": "uint256"
        },
        {
          "internalType": "uint256",
          "name": "_value",
          "type": "uint256"
        }
      ],
      "name": "_tokenURI",
      "outputs": [
        {
          "internalType": "string",
          "name": "output",
          "type": "string"
        }
      ],
      "stateMutability": "pure",
      "type": "function"
    }
  ],
  "bytecode": "0x6080806040523461001657610dde908161001c8239f35b600080fdfe604060808152600436101561001357600080fd5b60003560e01c63dd9ec1491461002857600080fd5b346109ba5760803660031901126109ba576004359061004682610b4f565b91610052602435610b4f565b9261005e604435610b4f565b610069606435610b4f565b84517f3c3f786d6c2076657273696f6e3d22312e302220656e636f64696e673d22555460208201526523169c111f9f60d11b6040820152958693919291604685017f3c73766720786d6c6e733d22687474703a2f2f7777772e77332e6f72672f323081527f30302f73766722207072657365727665417370656374526174696f3d22784d6960208201527f6e594d696e206d656574222076696577426f783d22302030203335302033353060408201527f223e3c7374796c653e2e6c6f676f207b2066696c6c3a2077686974653b20666f60608201527f6e742d66616d696c793a2027436f7572696572204e6577272c206d6f6e6f7370608082018190527f6163653b20666f6e742d73697a653a203670783b2077686974652d737061636560a08301527f3a207072653b207d202e62617365207b2066696c6c3a2077686974653b20666f60c083015260e08201527f6163653b20666f6e742d73697a653a203870783b206261636b67726f756e643a6101008201527f207768697465207d3c2f7374796c653e3c726563742077696474683d223130306101208201527f2522206865696768743d2231303025222066696c6c3d22626c61636b22202f3e6101408201527f3c7465787420783d2231302220793d2232302220636c6173733d226c6f676f2261016082015275103c36b61d39b830b1b29e91383932b9b2b93b32911f60511b610180820152610196017f202020202020202020202020202020202020202020202424242424245c20202481527f24242424245c2024245c20202024245c20202424242424245c202000000000006020820152603b017f3c2f746578743e3c7465787420783d2231302220793d2233302220636c6173738152600080516020610d898339815191526020820152603d017f202020202020202020202020202020202020202020242420205f5f24245c205c81527f5f242420205f7c2424207c20202424207c242420205f5f24245c2000000000006020820152603b017f3c2f746578743e3c7465787420783d2231302220793d2234302220636c6173738152600080516020610d898339815191526020820152603d017f24245c2020202024245c20202424242424245c20202424202f20202424207c2081527f202424207c20202424207c20202424207c2424202f20205c5f5f7c00000000006020820152603b017f3c2f746578743e3c7465787420783d2231302220793d2235302220636c6173738152600080516020610d898339815191526020820152603d017f5c24245c2020242420207c242420205f5f24245c202424242424242424207c2081527f202424207c20202424207c20202424207c5c2424242424245c202000000000006020820152603b017f3c2f746578743e3c7465787420783d2231302220793d2236302220636c6173738152600080516020610d898339815191526020820152603d017f205c24245c242420202f202424242424242424207c242420205f5f2424207c2081527f202424207c20202424207c20202424207c205c5f5f5f5f24245c2000000000006020820152603b017f3c2f746578743e3c7465787420783d2231302220793d2237302220636c6173738152600080516020610d898339815191526020820152603d017f20205c24242420202f202024242020205f5f5f5f7c2424207c20202424207c2081527f202424207c20202424207c20202424207c24245c2020202424207c00000000006020820152603b017f3c2f746578743e3c7465787420783d2231302220793d2238302220636c6173738152600080516020610d898339815191526020820152603d017f2020205c2420202f2020205c242424242424245c202424207c20202424207c2481527f24242424245c205c24242424242420207c5c24242424242420207c00000000006020820152603b017f3c2f746578743e3c7465787420783d2231302220793d2239302220636c6173738152600080516020610d898339815191526020820152603d017f202020205c5f2f20202020205c5f5f5f5f5f5f5f7c5c5f5f7c20205c5f5f7c5c81527f5f5f5f5f5f5f7c205c5f5f5f5f5f5f2f20205c5f5f5f5f5f5f2f2000000000006020820152603b017f3c2f746578743e3c7465787420783d2232302220793d223133302220636c6173815268399e913130b9b2911f60b91b60208201526029016902a37b5b2b71024a21d160b51b8152600a016106c291610a0e565b7f3c2f746578743e3c7465787420783d2232302220793d223135302220636c6173815268399e913130b9b2911f60b91b60208201526029017f247665414955532042616c616e63652028776569293a20000000000000000000815260170161072991610a0e565b7f3c2f746578743e3c7465787420783d2232302220793d223137302220636c6173815268399e913130b9b2911f60b91b602082015260290170022b732102230ba3290142ab734bc149d1607d1b815260110161078491610a0e565b7f3c2f746578743e3c7465787420783d2232302220793d223139302220636c6173815268399e913130b9b2911f60b91b60208201526029017302637b1b5b2b2101220a4aaa990143bb2b4949d160651b81526014016107e291610a0e565b661e17ba32bc3a1f60c91b8152600701651e17b9bb339f60d11b81526006010392601f199384810182526108169082610a3b565b61081f90610c92565b82517f646174613a696d6167652f7376672b786d6c3b6261736536342c000000000000602082015291908290603a820161085891610a0e565b0384810183526108689083610a3b565b61087190610b4f565b8251707b226e616d65223a22766541495553202360781b60208201529182916031830161089d91610a0e565b6b1116101134b6b0b3b2911d1160a11b8152600c016108bb91610a0e565b7f222c20226465736372697074696f6e223a202254686973204e4654207265707281527f6573656e7473206c6f636b65642024414955532e20497420726563656976657360208201527f20746f6b656e20656d697373696f6e7320616e642063616e206265207573656460408201527120666f7220676f7665726e616e63652e227d60701b60608201526072010383810182526109589082610a3b565b61096190610c92565b81517f646174613a6170706c69636174696f6e2f6a736f6e3b6261736536342c000000602082015292908390603d820161099a91610a0e565b0390810183526109aa9083610a3b565b516109b68192826109e2565b0390f35b600080fd5b60005b8381106109d25750506000910152565b81810151838201526020016109c2565b60409160208252610a0281518092816020860152602086860191016109bf565b601f01601f1916010190565b90610a21602092828151948592016109bf565b0190565b634e487b7160e01b600052604160045260246000fd5b90601f8019910116810190811067ffffffffffffffff821117610a5d57604052565b610a25565b67ffffffffffffffff8111610a5d57601f01601f191660200190565b604051906020820182811067ffffffffffffffff821117610a5d5760405260008252565b634e487b7160e01b600052601160045260246000fd5b90610ac282610a62565b610acf6040519182610a3b565b8281528092610ae0601f1991610a62565b0190602036910137565b600019810191908211610af957565b610aa2565b6030019081603011610af957565b9060028201809211610af957565b9060208201809211610af957565b908151811015610b39570160200190565b634e487b7160e01b600052603260045260246000fd5b8015610bdb576000818181805b610bbf5750610b6a81610ab8565b935b610b765750505090565b610b7f90610aea565b90600a90610baa610b9a610b94848406610afe565b60ff1690565b60f81b6001600160f81b03191690565b841a610bb68487610b28565b53049081610b6c565b91506000198114610af9576001600a9101910480849291610b5c565b506040516040810181811067ffffffffffffffff821117610a5d5760405260018152600360fc1b602082015290565b604051906060820182811067ffffffffffffffff821117610a5d57604052604082527f6768696a6b6c6d6e6f707172737475767778797a303132333435363738392b2f6040837f4142434445464748494a4b4c4d4e4f505152535455565758595a61626364656660208201520152565b600281901b91906001600160fe1b03811603610af957565b805115610d7c57610ca1610c0a565b610cbd610cb8610cb18451610b0c565b6003900490565b610c7a565b91610ccf610cca84610b1a565b610ab8565b92835280815182019060208501935b828210610d2057505050600390510680600114610d0f57600214610d00575090565b603d60f81b6000199091015290565b50613d3d60f01b6001199091015290565b90919360049060038094019384516001603f81818460121c16880101519260f893841b8652828282600c1c1689010151841b8387015282828260061c1689010151841b60028701521686010151901b9082015201939190610cde565b50610d85610a7e565b9056fe3d226c6f676f2220786d6c3a73706163653d227072657365727665223e000000a264697066735822122004f73ed3939b2550fa21821553e8ed99fbfe1c759f2012699ac316a5073a7fb064736f6c63430008130033",
  "linkReferences": {},
  "deployedLinkReferences": {}
}