{
    "_format": "hh-sol-artifact-1",
    "contractName": "BaseTokenV1",
    "sourceName": "contracts/BaseTokenV1.sol",
    "abi": [
        {
            "inputs": [],
            "stateMutability": "nonpayable",
            "type": "constructor"
        },
        {
            "anonymous": false,
            "inputs": [
                {
                    "indexed": true,
                    "internalType": "address",
                    "name": "owner",
                    "type": "address"
                },
                {
                    "indexed": true,
                    "internalType": "address",
                    "name": "spender",
                    "type": "address"
                },
                {
                    "indexed": false,
                    "internalType": "uint256",
                    "name": "value",
                    "type": "uint256"
                }
            ],
            "name": "Approval",
            "type": "event"
        },
        {
            "anonymous": false,
            "inputs": [
                {
                    "indexed": true,
                    "internalType": "address",
                    "name": "delegator",
                    "type": "address"
                },
                {
                    "indexed": true,
                    "internalType": "address",
                    "name": "fromDelegate",
                    "type": "address"
                },
                {
                    "indexed": true,
                    "internalType": "address",
                    "name": "toDelegate",
                    "type": "address"
                }
            ],
            "name": "DelegateChanged",
            "type": "event"
        },
        {
            "anonymous": false,
            "inputs": [
                {
                    "indexed": true,
                    "internalType": "address",
                    "name": "delegate",
                    "type": "address"
                },
                {
                    "indexed": false,
                    "internalType": "uint256",
                    "name": "previousBalance",
                    "type": "uint256"
                },
                {
                    "indexed": false,
                    "internalType": "uint256",
                    "name": "newBalance",
                    "type": "uint256"
                }
            ],
            "name": "DelegateVotesChanged",
            "type": "event"
        },
        {
            "anonymous": false,
            "inputs": [],
            "name": "EIP712DomainChanged",
            "type": "event"
        },
        {
            "anonymous": false,
            "inputs": [
                {
                    "indexed": false,
                    "internalType": "uint8",
                    "name": "version",
                    "type": "uint8"
                }
            ],
            "name": "Initialized",
            "type": "event"
        },
        {
            "anonymous": false,
            "inputs": [
                {
                    "indexed": true,
                    "internalType": "address",
                    "name": "previousOwner",
                    "type": "address"
                },
                {
                    "indexed": true,
                    "internalType": "address",
                    "name": "newOwner",
                    "type": "address"
                }
            ],
            "name": "OwnershipTransferred",
            "type": "event"
        },
        {
            "anonymous": false,
            "inputs": [
                {
                    "indexed": true,
                    "internalType": "address",
                    "name": "from",
                    "type": "address"
                },
                {
                    "indexed": true,
                    "internalType": "address",
                    "name": "to",
                    "type": "address"
                },
                {
                    "indexed": false,
                    "internalType": "uint256",
                    "name": "value",
                    "type": "uint256"
                }
            ],
            "name": "Transfer",
            "type": "event"
        },
        {
            "inputs": [],
            "name": "CLOCK_MODE",
            "outputs": [
                {
                    "internalType": "string",
                    "name": "",
                    "type": "string"
                }
            ],
            "stateMutability": "view",
            "type": "function"
        },
        {
            "inputs": [],
            "name": "DOMAIN_SEPARATOR",
            "outputs": [
                {
                    "internalType": "bytes32",
                    "name": "",
                    "type": "bytes32"
                }
            ],
            "stateMutability": "view",
            "type": "function"
        },
        {
            "inputs": [
                {
                    "internalType": "address",
                    "name": "owner",
                    "type": "address"
                },
                {
                    "internalType": "address",
                    "name": "spender",
                    "type": "address"
                }
            ],
            "name": "allowance",
            "outputs": [
                {
                    "internalType": "uint256",
                    "name": "",
                    "type": "uint256"
                }
            ],
            "stateMutability": "view",
            "type": "function"
        },
        {
            "inputs": [
                {
                    "internalType": "address",
                    "name": "spender",
                    "type": "address"
                },
                {
                    "internalType": "uint256",
                    "name": "amount",
                    "type": "uint256"
                }
            ],
            "name": "approve",
            "outputs": [
                {
                    "internalType": "bool",
                    "name": "",
                    "type": "bool"
                }
            ],
            "stateMutability": "nonpayable",
            "type": "function"
        },
        {
            "inputs": [
                {
                    "internalType": "address",
                    "name": "account",
                    "type": "address"
                }
            ],
            "name": "balanceOf",
            "outputs": [
                {
                    "internalType": "uint256",
                    "name": "",
                    "type": "uint256"
                }
            ],
            "stateMutability": "view",
            "type": "function"
        },
        {
            "inputs": [
                {
                    "internalType": "address",
                    "name": "account",
                    "type": "address"
                },
                {
                    "internalType": "uint256",
                    "name": "amount",
                    "type": "uint256"
                }
            ],
            "name": "bridgeBurn",
            "outputs": [],
            "stateMutability": "nonpayable",
            "type": "function"
        },
        {
            "inputs": [
                {
                    "internalType": "address",
                    "name": "account",
                    "type": "address"
                },
                {
                    "internalType": "uint256",
                    "name": "amount",
                    "type": "uint256"
                }
            ],
            "name": "bridgeMint",
            "outputs": [],
            "stateMutability": "nonpayable",
            "type": "function"
        },
        {
            "inputs": [
                {
                    "internalType": "address",
                    "name": "account",
                    "type": "address"
                },
                {
                    "internalType": "uint32",
                    "name": "pos",
                    "type": "uint32"
                }
            ],
            "name": "checkpoints",
            "outputs": [
                {
                    "components": [
                        {
                            "internalType": "uint32",
                            "name": "fromBlock",
                            "type": "uint32"
                        },
                        {
                            "internalType": "uint224",
                            "name": "votes",
                            "type": "uint224"
                        }
                    ],
                    "internalType": "struct ERC20VotesUpgradeable.Checkpoint",
                    "name": "",
                    "type": "tuple"
                }
            ],
            "stateMutability": "view",
            "type": "function"
        },
        {
            "inputs": [],
            "name": "clock",
            "outputs": [
                {
                    "internalType": "uint48",
                    "name": "",
                    "type": "uint48"
                }
            ],
            "stateMutability": "view",
            "type": "function"
        },
        {
            "inputs": [],
            "name": "decimals",
            "outputs": [
                {
                    "internalType": "uint8",
                    "name": "",
                    "type": "uint8"
                }
            ],
            "stateMutability": "view",
            "type": "function"
        },
        {
            "inputs": [
                {
                    "internalType": "address",
                    "name": "spender",
                    "type": "address"
                },
                {
                    "internalType": "uint256",
                    "name": "subtractedValue",
                    "type": "uint256"
                }
            ],
            "name": "decreaseAllowance",
            "outputs": [
                {
                    "internalType": "bool",
                    "name": "",
                    "type": "bool"
                }
            ],
            "stateMutability": "nonpayable",
            "type": "function"
        },
        {
            "inputs": [
                {
                    "internalType": "address",
                    "name": "delegatee",
                    "type": "address"
                }
            ],
            "name": "delegate",
            "outputs": [],
            "stateMutability": "nonpayable",
            "type": "function"
        },
        {
            "inputs": [
                {
                    "internalType": "address",
                    "name": "delegatee",
                    "type": "address"
                },
                {
                    "internalType": "uint256",
                    "name": "nonce",
                    "type": "uint256"
                },
                {
                    "internalType": "uint256",
                    "name": "expiry",
                    "type": "uint256"
                },
                {
                    "internalType": "uint8",
                    "name": "v",
                    "type": "uint8"
                },
                {
                    "internalType": "bytes32",
                    "name": "r",
                    "type": "bytes32"
                },
                {
                    "internalType": "bytes32",
                    "name": "s",
                    "type": "bytes32"
                }
            ],
            "name": "delegateBySig",
            "outputs": [],
            "stateMutability": "nonpayable",
            "type": "function"
        },
        {
            "inputs": [
                {
                    "internalType": "address",
                    "name": "account",
                    "type": "address"
                }
            ],
            "name": "delegates",
            "outputs": [
                {
                    "internalType": "address",
                    "name": "",
                    "type": "address"
                }
            ],
            "stateMutability": "view",
            "type": "function"
        },
        {
            "inputs": [],
            "name": "eip712Domain",
            "outputs": [
                {
                    "internalType": "bytes1",
                    "name": "fields",
                    "type": "bytes1"
                },
                {
                    "internalType": "string",
                    "name": "name",
                    "type": "string"
                },
                {
                    "internalType": "string",
                    "name": "version",
                    "type": "string"
                },
                {
                    "internalType": "uint256",
                    "name": "chainId",
                    "type": "uint256"
                },
                {
                    "internalType": "address",
                    "name": "verifyingContract",
                    "type": "address"
                },
                {
                    "internalType": "bytes32",
                    "name": "salt",
                    "type": "bytes32"
                },
                {
                    "internalType": "uint256[]",
                    "name": "extensions",
                    "type": "uint256[]"
                }
            ],
            "stateMutability": "view",
            "type": "function"
        },
        {
            "inputs": [
                {
                    "internalType": "uint256",
                    "name": "timepoint",
                    "type": "uint256"
                }
            ],
            "name": "getPastTotalSupply",
            "outputs": [
                {
                    "internalType": "uint256",
                    "name": "",
                    "type": "uint256"
                }
            ],
            "stateMutability": "view",
            "type": "function"
        },
        {
            "inputs": [
                {
                    "internalType": "address",
                    "name": "account",
                    "type": "address"
                },
                {
                    "internalType": "uint256",
                    "name": "timepoint",
                    "type": "uint256"
                }
            ],
            "name": "getPastVotes",
            "outputs": [
                {
                    "internalType": "uint256",
                    "name": "",
                    "type": "uint256"
                }
            ],
            "stateMutability": "view",
            "type": "function"
        },
        {
            "inputs": [
                {
                    "internalType": "address",
                    "name": "account",
                    "type": "address"
                }
            ],
            "name": "getVotes",
            "outputs": [
                {
                    "internalType": "uint256",
                    "name": "",
                    "type": "uint256"
                }
            ],
            "stateMutability": "view",
            "type": "function"
        },
        {
            "inputs": [
                {
                    "internalType": "address",
                    "name": "spender",
                    "type": "address"
                },
                {
                    "internalType": "uint256",
                    "name": "addedValue",
                    "type": "uint256"
                }
            ],
            "name": "increaseAllowance",
            "outputs": [
                {
                    "internalType": "bool",
                    "name": "",
                    "type": "bool"
                }
            ],
            "stateMutability": "nonpayable",
            "type": "function"
        },
        {
            "inputs": [
                {
                    "internalType": "address",
                    "name": "_l2Gateway",
                    "type": "address"
                },
                {
                    "internalType": "address",
                    "name": "_l1TokenAddress",
                    "type": "address"
                }
            ],
            "name": "initialize",
            "outputs": [],
            "stateMutability": "nonpayable",
            "type": "function"
        },
        {
            "inputs": [],
            "name": "l1Address",
            "outputs": [
                {
                    "internalType": "address",
                    "name": "",
                    "type": "address"
                }
            ],
            "stateMutability": "view",
            "type": "function"
        },
        {
            "inputs": [],
            "name": "l2Gateway",
            "outputs": [
                {
                    "internalType": "address",
                    "name": "",
                    "type": "address"
                }
            ],
            "stateMutability": "view",
            "type": "function"
        },
        {
            "inputs": [],
            "name": "name",
            "outputs": [
                {
                    "internalType": "string",
                    "name": "",
                    "type": "string"
                }
            ],
            "stateMutability": "view",
            "type": "function"
        },
        {
            "inputs": [
                {
                    "internalType": "address",
                    "name": "owner",
                    "type": "address"
                }
            ],
            "name": "nonces",
            "outputs": [
                {
                    "internalType": "uint256",
                    "name": "",
                    "type": "uint256"
                }
            ],
            "stateMutability": "view",
            "type": "function"
        },
        {
            "inputs": [
                {
                    "internalType": "address",
                    "name": "account",
                    "type": "address"
                }
            ],
            "name": "numCheckpoints",
            "outputs": [
                {
                    "internalType": "uint32",
                    "name": "",
                    "type": "uint32"
                }
            ],
            "stateMutability": "view",
            "type": "function"
        },
        {
            "inputs": [],
            "name": "owner",
            "outputs": [
                {
                    "internalType": "address",
                    "name": "",
                    "type": "address"
                }
            ],
            "stateMutability": "view",
            "type": "function"
        },
        {
            "inputs": [
                {
                    "internalType": "address",
                    "name": "owner",
                    "type": "address"
                },
                {
                    "internalType": "address",
                    "name": "spender",
                    "type": "address"
                },
                {
                    "internalType": "uint256",
                    "name": "value",
                    "type": "uint256"
                },
                {
                    "internalType": "uint256",
                    "name": "deadline",
                    "type": "uint256"
                },
                {
                    "internalType": "uint8",
                    "name": "v",
                    "type": "uint8"
                },
                {
                    "internalType": "bytes32",
                    "name": "r",
                    "type": "bytes32"
                },
                {
                    "internalType": "bytes32",
                    "name": "s",
                    "type": "bytes32"
                }
            ],
            "name": "permit",
            "outputs": [],
            "stateMutability": "nonpayable",
            "type": "function"
        },
        {
            "inputs": [],
            "name": "renounceOwnership",
            "outputs": [],
            "stateMutability": "nonpayable",
            "type": "function"
        },
        {
            "inputs": [],
            "name": "symbol",
            "outputs": [
                {
                    "internalType": "string",
                    "name": "",
                    "type": "string"
                }
            ],
            "stateMutability": "view",
            "type": "function"
        },
        {
            "inputs": [],
            "name": "totalSupply",
            "outputs": [
                {
                    "internalType": "uint256",
                    "name": "",
                    "type": "uint256"
                }
            ],
            "stateMutability": "view",
            "type": "function"
        },
        {
            "inputs": [
                {
                    "internalType": "address",
                    "name": "to",
                    "type": "address"
                },
                {
                    "internalType": "uint256",
                    "name": "amount",
                    "type": "uint256"
                }
            ],
            "name": "transfer",
            "outputs": [
                {
                    "internalType": "bool",
                    "name": "",
                    "type": "bool"
                }
            ],
            "stateMutability": "nonpayable",
            "type": "function"
        },
        {
            "inputs": [
                {
                    "internalType": "address",
                    "name": "from",
                    "type": "address"
                },
                {
                    "internalType": "address",
                    "name": "to",
                    "type": "address"
                },
                {
                    "internalType": "uint256",
                    "name": "amount",
                    "type": "uint256"
                }
            ],
            "name": "transferFrom",
            "outputs": [
                {
                    "internalType": "bool",
                    "name": "",
                    "type": "bool"
                }
            ],
            "stateMutability": "nonpayable",
            "type": "function"
        },
        {
            "inputs": [
                {
                    "internalType": "address",
                    "name": "to_",
                    "type": "address"
                }
            ],
            "name": "transferOwnership",
            "outputs": [],
            "stateMutability": "nonpayable",
            "type": "function"
        }
    ],
    "bytecode": "0x608080604052346100c2576000549060ff8260081c16610070575060ff80821603610035575b6040516130879081620000c88239f35b60ff90811916176000557f7f26b83ff96e1f2b6a682f133852f6798a09c465da95921460cefb3847402498602060405160ff8152a138610025565b62461bcd60e51b815260206004820152602760248201527f496e697469616c697a61626c653a20636f6e747261637420697320696e697469604482015266616c697a696e6760c81b6064820152608490fd5b600080fdfe6080604052600436101561001257600080fd5b60003560e01c806306fdde0314610227578063095ea7b31461022257806318160ddd1461021d57806323b872dd14610218578063313ce567146102135780633644e5151461020e57806339509351146102095780633a46b1a814610204578063485cc955146101ff5780634bf5d7e9146101fa578063587cde1e146101f55780635c19a95c146101f05780636fcfff45146101eb57806370a08231146101e6578063715018a6146101e157806374f4f547146101dc5780637ecebe00146101d757806384b0196e146101d25780638c2a993e146101cd5780638da5cb5b146101c85780638e539e8c146101c35780638fa74a0e146101be57806391ddadf4146101b957806395d89b41146101b45780639ab24eb0146101af578063a457c2d7146101aa578063a9059cbb146101a5578063c2eeeebd146101a0578063c3cda5201461019b578063d505accf14610196578063dd62ed3e14610191578063f1127ed81461018c5763f2fde38b1461018757600080fd5b6113db565b611354565b6112fc565b6111b6565b61108b565b611041565b61101b565b610f6d565b610f0b565b610e64565b610e38565b610e0e565b610d1e565b610cf5565b610bee565b610b53565b610a93565b610972565b610914565b6108da565b610892565b61086e565b610833565b610789565b610698565b610547565b6104ef565b6104cc565b6104b0565b6103e5565b6103c7565b610396565b610280565b919082519283825260005b848110610258575050826000602080949584010152601f8019910116010190565b602081830181015184830182015201610237565b90602061027d92818152019061022c565b90565b34610365576000806003193601126103625760405190806036546102a381611511565b8085529160019180831690811561033857506001146102dd575b6102d9856102cd8187038261159e565b6040519182918261026c565b0390f35b9250603683527f4a11f94e20a93c79f6ec743a1954ec4fc2c08429ae2122118bf234b2185c81b85b8284106103205750505081016020016102cd826102d96102bd565b80546020858701810191909152909301928101610305565b8695506102d9969350602092506102cd94915060ff191682840152151560051b82010192936102bd565b80fd5b600080fd5b600435906001600160a01b038216820361036557565b602435906001600160a01b038216820361036557565b34610365576040366003190112610365576103bc6103b261036a565b6024359033611909565b602060405160018152f35b34610365576000366003190112610365576020603554604051908152f35b34610365576060366003190112610365576103fe61036a565b610406610380565b6001600160a01b03821660009081526034602090815260408083203384529091529020604435919054926001840161044f575b61044393506117fb565b60405160018152602090f35b82841061046b576104668361044395033383611909565b610439565b60405162461bcd60e51b815260206004820152601d60248201527f45524332303a20696e73756666696369656e7420616c6c6f77616e63650000006044820152606490fd5b3461036557600036600319011261036557602060405160128152f35b346103655760003660031901126103655760206104e7612324565b604051908152f35b346103655760403660031901126103655761050861036a565b3360009081526034602090815260408083206001600160a01b03851684529091529020546024358101809111610542576103bc9133611909565b611717565b346103655760403660031901126103655761056061036a565b6024359061057f65ffffffffffff61057743612621565b168310611b1b565b6001600160a01b0316600090815260cd6020526040812080549290918360058111610647575b50905b8382106105f6575050816105cf575050602060005b6040516001600160e01b039091168152f35b6105ea6105f191602093600019019060005260206000200190565b5460201c90565b6105bd565b90926106028185612451565b908263ffffffff61062761061d858860005260206000200190565b5463ffffffff1690565b1611156106375750925b906105a8565b93506106429061172d565b610631565b8061065761065d92969396612466565b90611b67565b908263ffffffff61067861061d858860005260206000200190565b1611156106885750925b386105a5565b93506106939061172d565b610682565b34610365576040366003190112610365576106b161036a565b6106fd6106bc610380565b600054926106e160ff8560081c16158095819661077b575b811561075b575b506126ed565b836106f4600160ff196000541617600055565b61074257612772565b61070357005b61071361ff001960005416600055565b604051600181527f7f26b83ff96e1f2b6a682f133852f6798a09c465da95921460cefb384740249890602090a1005b61075661010061ff00196000541617600055565b612772565b303b1591508161076d575b50386106db565b6001915060ff161438610766565b600160ff82161091506106d4565b34610365576000366003190112610365574365ffffffffffff6107ab43612621565b16036107ee576102d96107bc611a92565b7f6d6f64653d626c6f636b6e756d6265722666726f6d3d64656661756c7400000060208201526040519182918261026c565b60405162461bcd60e51b815260206004820152601d60248201527f4552433230566f7465733a2062726f6b656e20636c6f636b206d6f64650000006044820152606490fd5b346103655760203660031901126103655760206001600160a01b038061085761036a565b1660005260cc825260406000205416604051908152f35b346103655760203660031901126103655761089061088a61036a565b33611bc0565b005b34610365576020366003190112610365576001600160a01b036108b361036a565b1660005260cd60205260206108cc604060002054612688565b63ffffffff60405191168152f35b34610365576020366003190112610365576001600160a01b036108fb61036a565b1660005260336020526020604060002054604051908152f35b34610365576000806003193601126103625761092e611470565b60fe80546001600160a01b0319811690915581906001600160a01b03167f8be0079c531659141344cd1fd0a4f28419497f9722a3daafe3b4186f6b6457e08280a380f35b346103655760403660031901126103655761098b61036a565b60243560018060a01b036109a58161013054163314612e76565b8216918215610a44578181600061089095836109d6610a3f9660018060a01b03166000526033602052604060002090565b546109e382821015612fe0565b03610a008460018060a01b03166000526033602052604060002090565b55610a0e8460355403603555565b6040518481527fddf252ad1be2c89b69c2b068fc378daa952ba7f163c4a11628f55a4df523b3ef90602090a3612eb0565b611f12565b60405162461bcd60e51b815260206004820152602160248201527f45524332303a206275726e2066726f6d20746865207a65726f206164647265736044820152607360f81b6064820152608490fd5b34610365576020366003190112610365576001600160a01b03610ab461036a565b1660005260996020526020604060002054604051908152f35b91610b0090949194600f60f81b8452610af260209660e08887015260e086019061022c565b90848203604086015261022c565b92606083015260018060a01b03166080820152600060a082015260c081830391015281808451928381520193019160005b828110610b3f575050505090565b835185529381019392810192600101610b31565b34610365576000366003190112610365576065541580610be4575b15610ba757610b7b6115c0565b610b8361167e565b906102d9604051610b9381611582565b600081526040519384933091469186610acd565b60405162461bcd60e51b81526020600482015260156024820152741152540dcc4c8e88155b9a5b9a5d1a585b1a5e9959605a1b6044820152606490fd5b5060665415610b6e565b3461036557604036600319011261036557610c0761036a565b60243560018060a01b03610c218161013054163314612e76565b8216918215610cb05781610c959161089094610c47610c428460355461173b565b603555565b6001600160a01b0382166000908152603360209081526040808320805487019055518581527fddf252ad1be2c89b69c2b068fc378daa952ba7f163c4a11628f55a4df523b3ef9190a3612efe565b603554610cab906001600160e01b031015612f7b565b612002565b60405162461bcd60e51b815260206004820152601f60248201527f45524332303a206d696e7420746f20746865207a65726f2061646472657373006044820152606490fd5b346103655760003660031901126103655760fe546040516001600160a01b039091168152602090f35b3461036557602036600319011261036557600435610d4d65ffffffffffff610d4543612621565b168210611b1b565b60ce549060008260058111610dcb575b50905b828210610d8c578280610d7a575060405160008152602090f35b6105f16105ea60209260001901612114565b9091610d988184612451565b908263ffffffff610dab61061d85612114565b161115610dbb5750915b90610d60565b9250610dc69061172d565b610db5565b80610657610ddb92959395612466565b908263ffffffff610dee61061d85612114565b161115610dfe5750915b38610d5d565b9250610e099061172d565b610df8565b3461036557600036600319011261036557610130546040516001600160a01b039091168152602090f35b34610365576000366003190112610365576020610e5443612621565b65ffffffffffff60405191168152f35b3461036557600080600319360112610362576040519080603754610e8781611511565b808552916001918083169081156103385750600114610eb0576102d9856102cd8187038261159e565b9250603783527f42a7b7dd785cd69714a189dffb3fd7d7174edc9ece837694ce50f7078f7c31ae5b828410610ef35750505081016020016102cd826102d96102bd565b80546020858701810191909152909301928101610ed8565b34610365576020366003190112610365576001600160a01b03610f2c61036a565b1660005260cd602052604060002080548015600014610f5357505060405160008152602090f35b602091610f64916000190190611acb565b5054811c6105bd565b3461036557604036600319011261036557610f8661036a565b60243590336000526034602052610fb38160406000209060018060a01b0316600052602052604060002090565b5491808310610fc85761044392039033611909565b60405162461bcd60e51b815260206004820152602560248201527f45524332303a2064656372656173656420616c6c6f77616e63652062656c6f77604482015264207a65726f60d81b6064820152608490fd5b34610365576040366003190112610365576103bc61103761036a565b60243590336117fb565b3461036557600036600319011261036557610131546040516001600160a01b039091168152602090f35b6064359060ff8216820361036557565b6084359060ff8216820361036557565b346103655760c0366003190112610365576110a461036a565b604435906024356110b361106b565b928042116111715761114361116c91610890956040519061112b8261111d6020820195898b8860609194939260808201957fe48329057bfd03d55e49b547132e39cffd9c1820ad7b9d4c5307691425d15adf835260018060a01b0316602083015260408201520152565b03601f19810184528361159e565b61113e60a435936084359351902061239a565b61213e565b6001600160a01b0381166000908152609960205260409020805460018101909155909214611b74565b611bc0565b60405162461bcd60e51b815260206004820152601d60248201527f4552433230566f7465733a207369676e617475726520657870697265640000006044820152606490fd5b346103655760e0366003190112610365576111cf61036a565b6111d7610380565b60443590606435926111e761107b565b938042116112b75761129f6112b29161111d6108909761128c6112258760018060a01b03166000526099602052604060002090815491600183019055565b604080517f6e71edae12b1b97f4d1f60370fef10105fa2faae0126114a169c64845d6126c9602082019081526001600160a01b03808c1693830193909352918b166060820152608081018c905260a081019290925260c082019590955292839060e0820190565b61113e60c4359360a4359351902061239a565b6001600160a01b03838116911614611a39565b611909565b60405162461bcd60e51b815260206004820152601d60248201527f45524332305065726d69743a206578706972656420646561646c696e650000006044820152606490fd5b3461036557604036600319011261036557602061134b61131a61036a565b611322610380565b6001600160a01b0391821660009081526034855260408082209290931681526020919091522090565b54604051908152f35b346103655760403660031901126103655761136d61036a565b63ffffffff6024358181168103610365576113b76113bd9160409460006020875161139781611561565b82815201526001600160a01b0316600090815260cd602052859020611acb565b50611af9565b8251815190921682526020908101516001600160e01b031690820152f35b34610365576020366003190112610365576113f461036a565b6113fc611470565b611404611470565b6001600160a01b0381161561141c57610890906114c8565b60405162461bcd60e51b815260206004820152602660248201527f4f776e61626c653a206e6577206f776e657220697320746865207a65726f206160448201526564647265737360d01b6064820152608490fd5b60fe546001600160a01b0316330361148457565b606460405162461bcd60e51b815260206004820152602060248201527f4f776e61626c653a2063616c6c6572206973206e6f7420746865206f776e65726044820152fd5b60fe80546001600160a01b039283166001600160a01b0319821681179092559091167f8be0079c531659141344cd1fd0a4f28419497f9722a3daafe3b4186f6b6457e0600080a3565b90600182811c92168015611541575b602083101461152b57565b634e487b7160e01b600052602260045260246000fd5b91607f1691611520565b634e487b7160e01b600052604160045260246000fd5b6040810190811067ffffffffffffffff82111761157d57604052565b61154b565b6020810190811067ffffffffffffffff82111761157d57604052565b90601f8019910116810190811067ffffffffffffffff82111761157d57604052565b60405190600082606754916115d483611511565b8083529260019081811690811561165c57506001146115fd575b506115fb9250038361159e565b565b6067600090815291507f9787eeb91fe3101235e4a76063c7023ecb40f923f97916639c598592fa30d6ae5b84831061164157506115fb9350508101602001386115ee565b81935090816020925483858a01015201910190918592611628565b9050602092506115fb94915060ff191682840152151560051b820101386115ee565b604051906000826068549161169283611511565b8083529260019081811690811561165c57506001146116b857506115fb9250038361159e565b6068600090815291507fa2153420d844928b4421650203c77babc8b33d7f2e7b450e2966db0c220977535b8483106116fc57506115fb9350508101602001386115ee565b81935090816020925483858a010152019101909185926116e3565b634e487b7160e01b600052601160045260246000fd5b906001820180921161054257565b9190820180921161054257565b1561174f57565b60405162461bcd60e51b815260206004820152602360248201527f45524332303a207472616e7366657220746f20746865207a65726f206164647260448201526265737360e81b6064820152608490fd5b156117a757565b60405162461bcd60e51b815260206004820152602660248201527f45524332303a207472616e7366657220616d6f756e7420657863656564732062604482015265616c616e636560d01b6064820152608490fd5b6001600160a01b0392919083811680156118b6576115fb94831690611821821515611748565b6001600160a01b0383166000908152603360205260409020859054611848828210156117a0565b036118658460018060a01b03166000526033602052604060002090565b556001600160a01b03841660009081526033602090815260409182902080548801905590518681527fddf252ad1be2c89b69c2b068fc378daa952ba7f163c4a11628f55a4df523b3ef9190a3612f49565b60405162461bcd60e51b815260206004820152602560248201527f45524332303a207472616e736665722066726f6d20746865207a65726f206164604482015264647265737360d81b6064820152608490fd5b6001600160a01b0380821692919083156119e857821693841561199857806119827f8c5be1e5ebec7d5bd14f71427d1e84f3dd0314c0f7b2291e5b200ac8c7c3b9259461196b6119939560018060a01b03166000526034602052604060002090565b9060018060a01b0316600052602052604060002090565b556040519081529081906020820190565b0390a3565b60405162461bcd60e51b815260206004820152602260248201527f45524332303a20617070726f766520746f20746865207a65726f206164647265604482015261737360f01b6064820152608490fd5b60405162461bcd60e51b8152602060048201526024808201527f45524332303a20617070726f76652066726f6d20746865207a65726f206164646044820152637265737360e01b6064820152608490fd5b15611a4057565b60405162461bcd60e51b815260206004820152601e60248201527f45524332305065726d69743a20696e76616c6964207369676e617475726500006044820152606490fd5b604051906115fb82611561565b60405190611a9f82611561565b601d8252565b60405190611ab282611561565b60048252565b60405190611ac582611561565b60018252565b8054821015611ae35760005260206000200190600090565b634e487b7160e01b600052603260045260246000fd5b90604051611b0681611561565b602081935463ffffffff81168352811c910152565b15611b2257565b60405162461bcd60e51b815260206004820152601960248201527f4552433230566f7465733a20667574757265206c6f6f6b7570000000000000006044820152606490fd5b9190820391821161054257565b15611b7b57565b60405162461bcd60e51b815260206004820152601960248201527f4552433230566f7465733a20696e76616c6964206e6f6e6365000000000000006044820152606490fd5b6115fb9160018060a01b0380921660009281845260cc60205280604085205416809260336020527f3134e8a2e6d97e929a7e54011ea5485d7d196dd5f0ba4d4ef95803e8e3fc257f60408720549660cc6020526040812094871694856bffffffffffffffffffffffff60a01b82541617905580a45b6001600160a01b03808316939291168084141580611e48575b611c59575b50505050565b80611cc7575b5082611c6c575b80611c53565b6001600160a01b0316600090815260cd602052604090207fdec2bacdd2f05b59de34da9b523dff8be42e5e38e818c82fdb0bae774387a72491611cae9161205b565b60408051928352602083019190915290a2388080611c66565b8060005260cd6020527fdec2bacdd2f05b59de34da9b523dff8be42e5e38e818c82fdb0bae774387a7246040600020805480159182600014611e2557611d0b611a85565b6000815260006020820152915b6020830151611d37906001600160e01b03165b6001600160e01b031690565b92611d428985613037565b94159081611e02575b5015611da057611d73611d8a92611d61866125b8565b92600019019060005260206000200190565b9063ffffffff82549181199060201b169116179055565b604080519182526020820192909252a238611c5f565b50611dfd90611dc4611dbf611db443612621565b65ffffffffffff1690565b612688565b90611df8611dd1866125b8565b611de8611ddc611a85565b63ffffffff9095168552565b6001600160e01b03166020840152565b611eb8565b611d8a565b5163ffffffff16905063ffffffff611e1c611db443612621565b91161438611d4b565b611e42611e3d60001984018360005260206000200190565b611af9565b91611d18565b50821515611c4e565b60ce5490600160401b82101561157d57600182018060ce55821015611ae35760ce600052805160209182015190911b63ffffffff191663ffffffff91909116177fd36cd1c74ef8d7326d8021b776c18fb5a5724b7f7bc93c2f42e43e10ef27d12a90910155565b8054600160401b81101561157d57611ed591600182018155611acb565b611efc57815160209283015190921b63ffffffff191663ffffffff92909216919091179055565b634e487b7160e01b600052600060045260246000fd5b60ce5490918115918215611fed57611f28611a85565b60008152600060208201525b6020810151611f5690611f4f906001600160e01b0316611d2b565b9586613037565b93159081611fca575b5015611f7f576115fb90611d73611f75856125b8565b9160001901612114565b506115fb611f92611dbf611db443612621565b611fc5611f9e856125b8565b611fb5611fa9611a85565b63ffffffff9094168452565b6001600160e01b03166020830152565b611e51565b5163ffffffff16905063ffffffff611fe4611db443612621565b91161438611f5f565b611ffd611e3d6000198301612114565b611f34565b60ce549091811591821561204657612018611a85565b60008152600060208201525b6020810151611f569061203f906001600160e01b0316611d2b565b9586613044565b612056611e3d6000198301612114565b612024565b9091815491821592836000146120f757612073611a85565b60008152600060208201525b60208101516120a19061209a906001600160e01b0316611d2b565b9687613044565b941590816120d4575b50156120c057611d736115fb92611d61866125b8565b506115fb90611dc4611dbf611db443612621565b5163ffffffff16905063ffffffff6120ee611db443612621565b911614386120aa565b61210f611e3d60001983018460005260206000200190565b61207f565b60ce6000527fd36cd1c74ef8d7326d8021b776c18fb5a5724b7f7bc93c2f42e43e10ef27d12a0190565b9161027d939161214d93612295565b919091612175565b6005111561215f57565b634e487b7160e01b600052602160045260246000fd5b61217e81612155565b806121865750565b61218f81612155565b600181036121dc5760405162461bcd60e51b815260206004820152601860248201527f45434453413a20696e76616c6964207369676e617475726500000000000000006044820152606490fd5b6121e581612155565b600281036122325760405162461bcd60e51b815260206004820152601f60248201527f45434453413a20696e76616c6964207369676e6174757265206c656e677468006044820152606490fd5b8061223e600392612155565b1461224557565b60405162461bcd60e51b815260206004820152602260248201527f45434453413a20696e76616c6964207369676e6174757265202773272076616c604482015261756560f01b6064820152608490fd5b9291907f7fffffffffffffffffffffffffffffff5d576e7357a4501ddfe92f46681b20a083116123185791608094939160ff602094604051948552168484015260408301526060820152600093849182805260015afa1561230b5781516001600160a01b03811615612305579190565b50600190565b50604051903d90823e3d90fd5b50505050600090600390565b61232c6123c0565b61233461240b565b6040519060208201927f8b73c3c69bb8fe3d512ecc4cf759cc79239f7b179b0ffacaa9a75d522b39400f8452604083015260608201524660808201523060a082015260a0815260c0810181811067ffffffffffffffff82111761157d5760405251902090565b6042906123a5612324565b906040519161190160f01b8352600283015260228201522090565b6123c86115c0565b80519081156123d8576020012090565b505060655480156123e65790565b507fc5d2460186f7233c927e7db2dcc703c0e500b653ca82273b7bfad8045d85a47090565b61241361167e565b8051908115612423576020012090565b505060665480156123e65790565b811561243b570490565b634e487b7160e01b600052601260045260246000fd5b90808216911860011c81018091116105425790565b80156125a0578061253961253261252861251e61251461250a6125006124f6600161027d9a6000908b60801c80612594575b508060401c80612587575b508060201c8061257a575b508060101c8061256d575b508060081c80612560575b508060041c80612553575b508060021c80612546575b50821c61253f575b811c1b6124ef818b612431565b0160011c90565b6124ef818a612431565b6124ef8189612431565b6124ef8188612431565b6124ef8187612431565b6124ef8186612431565b6124ef8185612431565b8092612431565b906125a6565b81016124e2565b60029150910190386124da565b60049150910190386124cf565b60089150910190386124c4565b60109150910190386124b9565b60209150910190386124ae565b60409150910190386124a3565b91505060809038612498565b50600090565b90808210156125b3575090565b905090565b6001600160e01b03908181116125cc571690565b60405162461bcd60e51b815260206004820152602760248201527f53616665436173743a2076616c756520646f65736e27742066697420696e20326044820152663234206269747360c81b6064820152608490fd5b65ffffffffffff90818111612634571690565b60405162461bcd60e51b815260206004820152602660248201527f53616665436173743a2076616c756520646f65736e27742066697420696e203460448201526538206269747360d01b6064820152608490fd5b63ffffffff90818111612699571690565b60405162461bcd60e51b815260206004820152602660248201527f53616665436173743a2076616c756520646f65736e27742066697420696e203360448201526532206269747360d01b6064820152608490fd5b156126f457565b60405162461bcd60e51b815260206004820152602e60248201527f496e697469616c697a61626c653a20636f6e747261637420697320616c72656160448201526d191e481a5b9a5d1a585b1a5e995960921b6064820152608490fd5b6040519061275d82611561565b600682526541726269757360d01b6020830152565b61277a612750565b612782611aa5565b906020634149555360e01b818401526127ab60ff60005460081c166127a681612913565b612913565b81519167ffffffffffffffff831161157d576127d1836127cc603654611511565b612991565b81601f841160011461287f575092826115fb9695936128109361285296600092612874575b50508160011b916000199060031b1c191617603655612b55565b61282061281b612750565b612d29565b612828612e65565b612830612973565b61013080546001600160a01b0319166001600160a01b03909216919091179055565b61013180546001600160a01b0319166001600160a01b03909216919091179055565b0151905038806127f6565b60366000529190601f1984167f4a11f94e20a93c79f6ec743a1954ec4fc2c08429ae2122118bf234b2185c81b8936000905b8282106128fb57505093612810936128529693600193836115fb9b9a98106128e2575b505050811b01603655612b55565b015160001960f88460031b161c191690553880806128d4565b806001869782949787015181550196019401906128b1565b1561291a57565b60405162461bcd60e51b815260206004820152602b60248201527f496e697469616c697a61626c653a20636f6e7472616374206973206e6f74206960448201526a6e697469616c697a696e6760a81b6064820152608490fd5b61298860ff60005460081c166127a681612913565b6115fb336114c8565b601f811161299d575050565b600090603682527f4a11f94e20a93c79f6ec743a1954ec4fc2c08429ae2122118bf234b2185c81b8906020601f850160051c830194106129f8575b601f0160051c01915b8281106129ed57505050565b8181556001016129e1565b90925082906129d8565b601f8111612a0e575050565b600090606782527f9787eeb91fe3101235e4a76063c7023ecb40f923f97916639c598592fa30d6ae906020601f850160051c83019410612a69575b601f0160051c01915b828110612a5e57505050565b818155600101612a52565b9092508290612a49565b601f8111612a7f575050565b600090603782527f42a7b7dd785cd69714a189dffb3fd7d7174edc9ece837694ce50f7078f7c31ae906020601f850160051c83019410612ada575b601f0160051c01915b828110612acf57505050565b818155600101612ac3565b9092508290612aba565b601f8111612af0575050565b600090606882527fa2153420d844928b4421650203c77babc8b33d7f2e7b450e2966db0c22097753906020601f850160051c83019410612b4b575b601f0160051c01915b828110612b4057505050565b818155600101612b34565b9092508290612b2b565b90815167ffffffffffffffff811161157d57612b7b81612b76603754611511565b612a73565b602080601f8311600114612bb75750819293600092612bac575b50508160011b916000199060031b1c191617603755565b015190503880612b95565b90601f19831694612bea60376000527f42a7b7dd785cd69714a189dffb3fd7d7174edc9ece837694ce50f7078f7c31ae90565b926000905b878210612c27575050836001959610612c0e575b505050811b01603755565b015160001960f88460031b161c19169055388080612c03565b80600185968294968601518155019501930190612bef565b90815167ffffffffffffffff811161157d57612c6581612c60606854611511565b612ae4565b602080601f8311600114612ca15750819293600092612c96575b50508160011b916000199060031b1c191617606855565b015190503880612c7f565b90601f19831694612cd460686000527fa2153420d844928b4421650203c77babc8b33d7f2e7b450e2966db0c2209775390565b926000905b878210612d11575050836001959610612cf8575b505050811b01606855565b015160001960f88460031b161c19169055388080612ced565b80600185968294968601518155019501930190612cd9565b60ff60005460081c16612d3b81612913565b612d43611ab8565b90612d58602091603160f81b83850152612913565b82519067ffffffffffffffff821161157d57612d7e82612d79606754611511565b612a02565b80601f8311600114612dd257508190612db394600092612dc7575b50508160011b916000199060031b1c191617606755612c3f565b612dbd6000606555565b6115fb6000606655565b015190503880612d99565b919293601f198416612e0660676000527f9787eeb91fe3101235e4a76063c7023ecb40f923f97916639c598592fa30d6ae90565b936000905b828210612e4d575050916001939185612db397969410612e34575b505050811b01606755612c3f565b015160001960f88460031b161c19169055388080612e26565b80600186978294978701518155019601940190612e0b565b6115fb60ff60005460081c16612913565b15612e7d57565b60405162461bcd60e51b815260206004820152600b60248201526a4e4f545f4741544557415960a81b6044820152606490fd5b6001600160a01b03908116600090815260cc60205260408120549080527f435daec636ce435a90bde0aeec309a303a359a854c5a51b7d6a5a941d6db6094546115fb93929081169116611c35565b60cc6020527f435daec636ce435a90bde0aeec309a303a359a854c5a51b7d6a5a941d6db6094546001600160a01b03918216600090815260409020546115fb93929081169116611c35565b6001600160a01b03908116600090815260cc60205260408082205493831682529020546115fb93929082169116611c35565b15612f8257565b60405162461bcd60e51b815260206004820152603060248201527f4552433230566f7465733a20746f74616c20737570706c79207269736b73206f60448201526f766572666c6f77696e6720766f74657360801b6064820152608490fd5b15612fe757565b60405162461bcd60e51b815260206004820152602260248201527f45524332303a206275726e20616d6f756e7420657863656564732062616c616e604482015261636560f01b6064820152608490fd5b9081039081116105425790565b908101809111610542579056fea2646970667358221220906a18eaef1b1a66b455a9ba783511927339046f62e888288e6d8d6e9c2a104164736f6c63430008130033",
    "linkReferences": {},
    "deployedLinkReferences": {}
}