{
    "_format": "hh-sol-artifact-1",
    "contractName": "VotingEscrow",
    "sourceName": "contracts/ve/VotingEscrow.sol",
    "abi": [
        {
            "inputs": [
                {
                    "internalType": "address",
                    "name": "token_addr",
                    "type": "address"
                },
                {
                    "internalType": "address",
                    "name": "art_proxy",
                    "type": "address"
                },
                {
                    "internalType": "address",
                    "name": "_veStaking",
                    "type": "address"
                }
            ],
            "stateMutability": "nonpayable",
            "type": "constructor"
        },
        {
            "anonymous": false,
            "inputs": [
                {
                    "indexed": true,
                    "internalType": "address",
                    "name": "owner",
                    "type": "address"
                },
                {
                    "indexed": true,
                    "internalType": "address",
                    "name": "approved",
                    "type": "address"
                },
                {
                    "indexed": true,
                    "internalType": "uint256",
                    "name": "tokenId",
                    "type": "uint256"
                }
            ],
            "name": "Approval",
            "type": "event"
        },
        {
            "anonymous": false,
            "inputs": [
                {
                    "indexed": true,
                    "internalType": "address",
                    "name": "owner",
                    "type": "address"
                },
                {
                    "indexed": true,
                    "internalType": "address",
                    "name": "operator",
                    "type": "address"
                },
                {
                    "indexed": false,
                    "internalType": "bool",
                    "name": "approved",
                    "type": "bool"
                }
            ],
            "name": "ApprovalForAll",
            "type": "event"
        },
        {
            "anonymous": false,
            "inputs": [
                {
                    "indexed": true,
                    "internalType": "address",
                    "name": "delegator",
                    "type": "address"
                },
                {
                    "indexed": true,
                    "internalType": "address",
                    "name": "fromDelegate",
                    "type": "address"
                },
                {
                    "indexed": true,
                    "internalType": "address",
                    "name": "toDelegate",
                    "type": "address"
                }
            ],
            "name": "DelegateChanged",
            "type": "event"
        },
        {
            "anonymous": false,
            "inputs": [
                {
                    "indexed": true,
                    "internalType": "address",
                    "name": "delegate",
                    "type": "address"
                },
                {
                    "indexed": false,
                    "internalType": "uint256",
                    "name": "previousBalance",
                    "type": "uint256"
                },
                {
                    "indexed": false,
                    "internalType": "uint256",
                    "name": "newBalance",
                    "type": "uint256"
                }
            ],
            "name": "DelegateVotesChanged",
            "type": "event"
        },
        {
            "anonymous": false,
            "inputs": [
                {
                    "indexed": true,
                    "internalType": "address",
                    "name": "provider",
                    "type": "address"
                },
                {
                    "indexed": false,
                    "internalType": "uint256",
                    "name": "tokenId",
                    "type": "uint256"
                },
                {
                    "indexed": false,
                    "internalType": "uint256",
                    "name": "value",
                    "type": "uint256"
                },
                {
                    "indexed": true,
                    "internalType": "uint256",
                    "name": "locktime",
                    "type": "uint256"
                },
                {
                    "indexed": false,
                    "internalType": "enum VotingEscrow.DepositType",
                    "name": "deposit_type",
                    "type": "uint8"
                },
                {
                    "indexed": false,
                    "internalType": "uint256",
                    "name": "ts",
                    "type": "uint256"
                }
            ],
            "name": "Deposit",
            "type": "event"
        },
        {
            "anonymous": false,
            "inputs": [
                {
                    "indexed": true,
                    "internalType": "address",
                    "name": "previousOwner",
                    "type": "address"
                },
                {
                    "indexed": true,
                    "internalType": "address",
                    "name": "newOwner",
                    "type": "address"
                }
            ],
            "name": "OwnershipTransferred",
            "type": "event"
        },
        {
            "anonymous": false,
            "inputs": [
                {
                    "indexed": false,
                    "internalType": "uint256",
                    "name": "prevSupply",
                    "type": "uint256"
                },
                {
                    "indexed": false,
                    "internalType": "uint256",
                    "name": "supply",
                    "type": "uint256"
                }
            ],
            "name": "Supply",
            "type": "event"
        },
        {
            "anonymous": false,
            "inputs": [
                {
                    "indexed": true,
                    "internalType": "address",
                    "name": "from",
                    "type": "address"
                },
                {
                    "indexed": true,
                    "internalType": "address",
                    "name": "to",
                    "type": "address"
                },
                {
                    "indexed": true,
                    "internalType": "uint256",
                    "name": "tokenId",
                    "type": "uint256"
                }
            ],
            "name": "Transfer",
            "type": "event"
        },
        {
            "anonymous": false,
            "inputs": [
                {
                    "indexed": true,
                    "internalType": "address",
                    "name": "provider",
                    "type": "address"
                },
                {
                    "indexed": false,
                    "internalType": "uint256",
                    "name": "tokenId",
                    "type": "uint256"
                },
                {
                    "indexed": false,
                    "internalType": "uint256",
                    "name": "value",
                    "type": "uint256"
                },
                {
                    "indexed": false,
                    "internalType": "uint256",
                    "name": "ts",
                    "type": "uint256"
                }
            ],
            "name": "Withdraw",
            "type": "event"
        },
        {
            "inputs": [],
            "name": "CLOCK_MODE",
            "outputs": [
                {
                    "internalType": "string",
                    "name": "",
                    "type": "string"
                }
            ],
            "stateMutability": "pure",
            "type": "function"
        },
        {
            "inputs": [],
            "name": "DELEGATION_TYPEHASH",
            "outputs": [
                {
                    "internalType": "bytes32",
                    "name": "",
                    "type": "bytes32"
                }
            ],
            "stateMutability": "view",
            "type": "function"
        },
        {
            "inputs": [],
            "name": "DOMAIN_TYPEHASH",
            "outputs": [
                {
                    "internalType": "bytes32",
                    "name": "",
                    "type": "bytes32"
                }
            ],
            "stateMutability": "view",
            "type": "function"
        },
        {
            "inputs": [],
            "name": "MAX_DELEGATES",
            "outputs": [
                {
                    "internalType": "uint256",
                    "name": "",
                    "type": "uint256"
                }
            ],
            "stateMutability": "view",
            "type": "function"
        },
        {
            "inputs": [
                {
                    "internalType": "uint256",
                    "name": "_tokenId",
                    "type": "uint256"
                }
            ],
            "name": "abstain",
            "outputs": [],
            "stateMutability": "nonpayable",
            "type": "function"
        },
        {
            "inputs": [
                {
                    "internalType": "address",
                    "name": "_approved",
                    "type": "address"
                },
                {
                    "internalType": "uint256",
                    "name": "_tokenId",
                    "type": "uint256"
                }
            ],
            "name": "approve",
            "outputs": [],
            "stateMutability": "nonpayable",
            "type": "function"
        },
        {
            "inputs": [],
            "name": "artProxy",
            "outputs": [
                {
                    "internalType": "address",
                    "name": "",
                    "type": "address"
                }
            ],
            "stateMutability": "view",
            "type": "function"
        },
        {
            "inputs": [
                {
                    "internalType": "address",
                    "name": "_owner",
                    "type": "address"
                }
            ],
            "name": "balanceOf",
            "outputs": [
                {
                    "internalType": "uint256",
                    "name": "",
                    "type": "uint256"
                }
            ],
            "stateMutability": "view",
            "type": "function"
        },
        {
            "inputs": [
                {
                    "internalType": "uint256",
                    "name": "_tokenId",
                    "type": "uint256"
                }
            ],
            "name": "balanceOfNFT",
            "outputs": [
                {
                    "internalType": "uint256",
                    "name": "",
                    "type": "uint256"
                }
            ],
            "stateMutability": "view",
            "type": "function"
        },
        {
            "inputs": [
                {
                    "internalType": "uint256",
                    "name": "_tokenId",
                    "type": "uint256"
                },
                {
                    "internalType": "uint256",
                    "name": "_t",
                    "type": "uint256"
                }
            ],
            "name": "balanceOfNFTAt",
            "outputs": [
                {
                    "internalType": "uint256",
                    "name": "",
                    "type": "uint256"
                }
            ],
            "stateMutability": "view",
            "type": "function"
        },
        {
            "inputs": [],
            "name": "block_number",
            "outputs": [
                {
                    "internalType": "uint256",
                    "name": "",
                    "type": "uint256"
                }
            ],
            "stateMutability": "view",
            "type": "function"
        },
        {
            "inputs": [],
            "name": "checkpoint",
            "outputs": [],
            "stateMutability": "nonpayable",
            "type": "function"
        },
        {
            "inputs": [
                {
                    "internalType": "address",
                    "name": "",
                    "type": "address"
                },
                {
                    "internalType": "uint32",
                    "name": "",
                    "type": "uint32"
                }
            ],
            "name": "checkpoints",
            "outputs": [
                {
                    "internalType": "uint256",
                    "name": "timestamp",
                    "type": "uint256"
                }
            ],
            "stateMutability": "view",
            "type": "function"
        },
        {
            "inputs": [],
            "name": "clock",
            "outputs": [
                {
                    "internalType": "uint48",
                    "name": "",
                    "type": "uint48"
                }
            ],
            "stateMutability": "view",
            "type": "function"
        },
        {
            "inputs": [
                {
                    "internalType": "uint256",
                    "name": "_value",
                    "type": "uint256"
                },
                {
                    "internalType": "uint256",
                    "name": "_lock_duration",
                    "type": "uint256"
                }
            ],
            "name": "create_lock",
            "outputs": [
                {
                    "internalType": "uint256",
                    "name": "",
                    "type": "uint256"
                }
            ],
            "stateMutability": "nonpayable",
            "type": "function"
        },
        {
            "inputs": [
                {
                    "internalType": "uint256",
                    "name": "_value",
                    "type": "uint256"
                },
                {
                    "internalType": "uint256",
                    "name": "_lock_duration",
                    "type": "uint256"
                },
                {
                    "internalType": "address",
                    "name": "_to",
                    "type": "address"
                }
            ],
            "name": "create_lock_for",
            "outputs": [
                {
                    "internalType": "uint256",
                    "name": "",
                    "type": "uint256"
                }
            ],
            "stateMutability": "nonpayable",
            "type": "function"
        },
        {
            "inputs": [],
            "name": "decimals",
            "outputs": [
                {
                    "internalType": "uint8",
                    "name": "",
                    "type": "uint8"
                }
            ],
            "stateMutability": "view",
            "type": "function"
        },
        {
            "inputs": [
                {
                    "internalType": "address",
                    "name": "delegatee",
                    "type": "address"
                }
            ],
            "name": "delegate",
            "outputs": [],
            "stateMutability": "nonpayable",
            "type": "function"
        },
        {
            "inputs": [
                {
                    "internalType": "address",
                    "name": "delegatee",
                    "type": "address"
                },
                {
                    "internalType": "uint256",
                    "name": "nonce",
                    "type": "uint256"
                },
                {
                    "internalType": "uint256",
                    "name": "expiry",
                    "type": "uint256"
                },
                {
                    "internalType": "uint8",
                    "name": "v",
                    "type": "uint8"
                },
                {
                    "internalType": "bytes32",
                    "name": "r",
                    "type": "bytes32"
                },
                {
                    "internalType": "bytes32",
                    "name": "s",
                    "type": "bytes32"
                }
            ],
            "name": "delegateBySig",
            "outputs": [],
            "stateMutability": "nonpayable",
            "type": "function"
        },
        {
            "inputs": [
                {
                    "internalType": "address",
                    "name": "delegator",
                    "type": "address"
                }
            ],
            "name": "delegates",
            "outputs": [
                {
                    "internalType": "address",
                    "name": "",
                    "type": "address"
                }
            ],
            "stateMutability": "view",
            "type": "function"
        },
        {
            "inputs": [
                {
                    "internalType": "uint256",
                    "name": "_tokenId",
                    "type": "uint256"
                },
                {
                    "internalType": "uint256",
                    "name": "_value",
                    "type": "uint256"
                }
            ],
            "name": "deposit_for",
            "outputs": [],
            "stateMutability": "nonpayable",
            "type": "function"
        },
        {
            "inputs": [],
            "name": "epoch",
            "outputs": [
                {
                    "internalType": "uint256",
                    "name": "",
                    "type": "uint256"
                }
            ],
            "stateMutability": "view",
            "type": "function"
        },
        {
            "inputs": [
                {
                    "internalType": "uint256",
                    "name": "_tokenId",
                    "type": "uint256"
                }
            ],
            "name": "getApproved",
            "outputs": [
                {
                    "internalType": "address",
                    "name": "",
                    "type": "address"
                }
            ],
            "stateMutability": "view",
            "type": "function"
        },
        {
            "inputs": [
                {
                    "internalType": "uint256",
                    "name": "timestamp",
                    "type": "uint256"
                }
            ],
            "name": "getPastTotalSupply",
            "outputs": [
                {
                    "internalType": "uint256",
                    "name": "",
                    "type": "uint256"
                }
            ],
            "stateMutability": "view",
            "type": "function"
        },
        {
            "inputs": [
                {
                    "internalType": "address",
                    "name": "account",
                    "type": "address"
                },
                {
                    "internalType": "uint256",
                    "name": "timestamp",
                    "type": "uint256"
                }
            ],
            "name": "getPastVotes",
            "outputs": [
                {
                    "internalType": "uint256",
                    "name": "",
                    "type": "uint256"
                }
            ],
            "stateMutability": "view",
            "type": "function"
        },
        {
            "inputs": [
                {
                    "internalType": "address",
                    "name": "account",
                    "type": "address"
                },
                {
                    "internalType": "uint256",
                    "name": "timestamp",
                    "type": "uint256"
                }
            ],
            "name": "getPastVotesIndex",
            "outputs": [
                {
                    "internalType": "uint32",
                    "name": "",
                    "type": "uint32"
                }
            ],
            "stateMutability": "view",
            "type": "function"
        },
        {
            "inputs": [
                {
                    "internalType": "address",
                    "name": "account",
                    "type": "address"
                }
            ],
            "name": "getVotes",
            "outputs": [
                {
                    "internalType": "uint256",
                    "name": "",
                    "type": "uint256"
                }
            ],
            "stateMutability": "view",
            "type": "function"
        },
        {
            "inputs": [
                {
                    "internalType": "uint256",
                    "name": "_tokenId",
                    "type": "uint256"
                }
            ],
            "name": "get_last_user_slope",
            "outputs": [
                {
                    "internalType": "int128",
                    "name": "",
                    "type": "int128"
                }
            ],
            "stateMutability": "view",
            "type": "function"
        },
        {
            "inputs": [
                {
                    "internalType": "uint256",
                    "name": "_tokenId",
                    "type": "uint256"
                },
                {
                    "internalType": "uint256",
                    "name": "_value",
                    "type": "uint256"
                }
            ],
            "name": "increase_amount",
            "outputs": [],
            "stateMutability": "nonpayable",
            "type": "function"
        },
        {
            "inputs": [
                {
                    "internalType": "uint256",
                    "name": "_tokenId",
                    "type": "uint256"
                },
                {
                    "internalType": "uint256",
                    "name": "_lock_duration",
                    "type": "uint256"
                }
            ],
            "name": "increase_unlock_time",
            "outputs": [],
            "stateMutability": "nonpayable",
            "type": "function"
        },
        {
            "inputs": [
                {
                    "internalType": "address",
                    "name": "_owner",
                    "type": "address"
                },
                {
                    "internalType": "address",
                    "name": "_operator",
                    "type": "address"
                }
            ],
            "name": "isApprovedForAll",
            "outputs": [
                {
                    "internalType": "bool",
                    "name": "",
                    "type": "bool"
                }
            ],
            "stateMutability": "view",
            "type": "function"
        },
        {
            "inputs": [
                {
                    "internalType": "address",
                    "name": "_spender",
                    "type": "address"
                },
                {
                    "internalType": "uint256",
                    "name": "_tokenId",
                    "type": "uint256"
                }
            ],
            "name": "isApprovedOrOwner",
            "outputs": [
                {
                    "internalType": "bool",
                    "name": "",
                    "type": "bool"
                }
            ],
            "stateMutability": "view",
            "type": "function"
        },
        {
            "inputs": [
                {
                    "internalType": "uint256",
                    "name": "",
                    "type": "uint256"
                }
            ],
            "name": "locked",
            "outputs": [
                {
                    "internalType": "int128",
                    "name": "amount",
                    "type": "int128"
                },
                {
                    "internalType": "uint256",
                    "name": "end",
                    "type": "uint256"
                }
            ],
            "stateMutability": "view",
            "type": "function"
        },
        {
            "inputs": [
                {
                    "internalType": "uint256",
                    "name": "_tokenId",
                    "type": "uint256"
                }
            ],
            "name": "locked__end",
            "outputs": [
                {
                    "internalType": "uint256",
                    "name": "",
                    "type": "uint256"
                }
            ],
            "stateMutability": "view",
            "type": "function"
        },
        {
            "inputs": [],
            "name": "name",
            "outputs": [
                {
                    "internalType": "string",
                    "name": "",
                    "type": "string"
                }
            ],
            "stateMutability": "view",
            "type": "function"
        },
        {
            "inputs": [
                {
                    "internalType": "address",
                    "name": "",
                    "type": "address"
                }
            ],
            "name": "nonces",
            "outputs": [
                {
                    "internalType": "uint256",
                    "name": "",
                    "type": "uint256"
                }
            ],
            "stateMutability": "view",
            "type": "function"
        },
        {
            "inputs": [
                {
                    "internalType": "address",
                    "name": "",
                    "type": "address"
                }
            ],
            "name": "numCheckpoints",
            "outputs": [
                {
                    "internalType": "uint32",
                    "name": "",
                    "type": "uint32"
                }
            ],
            "stateMutability": "view",
            "type": "function"
        },
        {
            "inputs": [],
            "name": "owner",
            "outputs": [
                {
                    "internalType": "address",
                    "name": "",
                    "type": "address"
                }
            ],
            "stateMutability": "view",
            "type": "function"
        },
        {
            "inputs": [
                {
                    "internalType": "uint256",
                    "name": "_tokenId",
                    "type": "uint256"
                }
            ],
            "name": "ownerOf",
            "outputs": [
                {
                    "internalType": "address",
                    "name": "",
                    "type": "address"
                }
            ],
            "stateMutability": "view",
            "type": "function"
        },
        {
            "inputs": [
                {
                    "internalType": "uint256",
                    "name": "",
                    "type": "uint256"
                }
            ],
            "name": "ownership_change",
            "outputs": [
                {
                    "internalType": "uint256",
                    "name": "",
                    "type": "uint256"
                }
            ],
            "stateMutability": "view",
            "type": "function"
        },
        {
            "inputs": [
                {
                    "internalType": "uint256",
                    "name": "",
                    "type": "uint256"
                }
            ],
            "name": "point_history",
            "outputs": [
                {
                    "internalType": "int128",
                    "name": "bias",
                    "type": "int128"
                },
                {
                    "internalType": "int128",
                    "name": "slope",
                    "type": "int128"
                },
                {
                    "internalType": "uint256",
                    "name": "ts",
                    "type": "uint256"
                },
                {
                    "internalType": "uint256",
                    "name": "blk",
                    "type": "uint256"
                }
            ],
            "stateMutability": "view",
            "type": "function"
        },
        {
            "inputs": [],
            "name": "renounceOwnership",
            "outputs": [],
            "stateMutability": "nonpayable",
            "type": "function"
        },
        {
            "inputs": [
                {
                    "internalType": "address",
                    "name": "_from",
                    "type": "address"
                },
                {
                    "internalType": "address",
                    "name": "_to",
                    "type": "address"
                },
                {
                    "internalType": "uint256",
                    "name": "_tokenId",
                    "type": "uint256"
                }
            ],
            "name": "safeTransferFrom",
            "outputs": [],
            "stateMutability": "nonpayable",
            "type": "function"
        },
        {
            "inputs": [
                {
                    "internalType": "address",
                    "name": "_from",
                    "type": "address"
                },
                {
                    "internalType": "address",
                    "name": "_to",
                    "type": "address"
                },
                {
                    "internalType": "uint256",
                    "name": "_tokenId",
                    "type": "uint256"
                },
                {
                    "internalType": "bytes",
                    "name": "_data",
                    "type": "bytes"
                }
            ],
            "name": "safeTransferFrom",
            "outputs": [],
            "stateMutability": "nonpayable",
            "type": "function"
        },
        {
            "inputs": [
                {
                    "internalType": "address",
                    "name": "_operator",
                    "type": "address"
                },
                {
                    "internalType": "bool",
                    "name": "_approved",
                    "type": "bool"
                }
            ],
            "name": "setApprovalForAll",
            "outputs": [],
            "stateMutability": "nonpayable",
            "type": "function"
        },
        {
            "inputs": [
                {
                    "internalType": "address",
                    "name": "_proxy",
                    "type": "address"
                }
            ],
            "name": "setArtProxy",
            "outputs": [],
            "stateMutability": "nonpayable",
            "type": "function"
        },
        {
            "inputs": [
                {
                    "internalType": "address",
                    "name": "_veStaking",
                    "type": "address"
                }
            ],
            "name": "setVeStaking",
            "outputs": [],
            "stateMutability": "nonpayable",
            "type": "function"
        },
        {
            "inputs": [
                {
                    "internalType": "address",
                    "name": "_voter",
                    "type": "address"
                }
            ],
            "name": "setVoter",
            "outputs": [],
            "stateMutability": "nonpayable",
            "type": "function"
        },
        {
            "inputs": [
                {
                    "internalType": "uint256",
                    "name": "",
                    "type": "uint256"
                }
            ],
            "name": "slope_changes",
            "outputs": [
                {
                    "internalType": "int128",
                    "name": "",
                    "type": "int128"
                }
            ],
            "stateMutability": "view",
            "type": "function"
        },
        {
            "inputs": [],
            "name": "supply",
            "outputs": [
                {
                    "internalType": "uint256",
                    "name": "",
                    "type": "uint256"
                }
            ],
            "stateMutability": "view",
            "type": "function"
        },
        {
            "inputs": [
                {
                    "internalType": "bytes4",
                    "name": "_interfaceID",
                    "type": "bytes4"
                }
            ],
            "name": "supportsInterface",
            "outputs": [
                {
                    "internalType": "bool",
                    "name": "",
                    "type": "bool"
                }
            ],
            "stateMutability": "view",
            "type": "function"
        },
        {
            "inputs": [],
            "name": "symbol",
            "outputs": [
                {
                    "internalType": "string",
                    "name": "",
                    "type": "string"
                }
            ],
            "stateMutability": "view",
            "type": "function"
        },
        {
            "inputs": [],
            "name": "token",
            "outputs": [
                {
                    "internalType": "address",
                    "name": "",
                    "type": "address"
                }
            ],
            "stateMutability": "view",
            "type": "function"
        },
        {
            "inputs": [
                {
                    "internalType": "address",
                    "name": "_owner",
                    "type": "address"
                },
                {
                    "internalType": "uint256",
                    "name": "_tokenIndex",
                    "type": "uint256"
                }
            ],
            "name": "tokenOfOwnerByIndex",
            "outputs": [
                {
                    "internalType": "uint256",
                    "name": "",
                    "type": "uint256"
                }
            ],
            "stateMutability": "view",
            "type": "function"
        },
        {
            "inputs": [
                {
                    "internalType": "uint256",
                    "name": "_tokenId",
                    "type": "uint256"
                }
            ],
            "name": "tokenURI",
            "outputs": [
                {
                    "internalType": "string",
                    "name": "",
                    "type": "string"
                }
            ],
            "stateMutability": "view",
            "type": "function"
        },
        {
            "inputs": [],
            "name": "totalSupply",
            "outputs": [
                {
                    "internalType": "uint256",
                    "name": "",
                    "type": "uint256"
                }
            ],
            "stateMutability": "view",
            "type": "function"
        },
        {
            "inputs": [
                {
                    "internalType": "uint256",
                    "name": "t",
                    "type": "uint256"
                }
            ],
            "name": "totalSupplyAtT",
            "outputs": [
                {
                    "internalType": "uint256",
                    "name": "",
                    "type": "uint256"
                }
            ],
            "stateMutability": "view",
            "type": "function"
        },
        {
            "inputs": [
                {
                    "internalType": "address",
                    "name": "_from",
                    "type": "address"
                },
                {
                    "internalType": "address",
                    "name": "_to",
                    "type": "address"
                },
                {
                    "internalType": "uint256",
                    "name": "_tokenId",
                    "type": "uint256"
                }
            ],
            "name": "transferFrom",
            "outputs": [],
            "stateMutability": "nonpayable",
            "type": "function"
        },
        {
            "inputs": [
                {
                    "internalType": "address",
                    "name": "newOwner",
                    "type": "address"
                }
            ],
            "name": "transferOwnership",
            "outputs": [],
            "stateMutability": "nonpayable",
            "type": "function"
        },
        {
            "inputs": [
                {
                    "internalType": "uint256",
                    "name": "",
                    "type": "uint256"
                }
            ],
            "name": "user_point_epoch",
            "outputs": [
                {
                    "internalType": "uint256",
                    "name": "",
                    "type": "uint256"
                }
            ],
            "stateMutability": "view",
            "type": "function"
        },
        {
            "inputs": [
                {
                    "internalType": "uint256",
                    "name": "",
                    "type": "uint256"
                },
                {
                    "internalType": "uint256",
                    "name": "",
                    "type": "uint256"
                }
            ],
            "name": "user_point_history",
            "outputs": [
                {
                    "internalType": "int128",
                    "name": "bias",
                    "type": "int128"
                },
                {
                    "internalType": "int128",
                    "name": "slope",
                    "type": "int128"
                },
                {
                    "internalType": "uint256",
                    "name": "ts",
                    "type": "uint256"
                },
                {
                    "internalType": "uint256",
                    "name": "blk",
                    "type": "uint256"
                }
            ],
            "stateMutability": "view",
            "type": "function"
        },
        {
            "inputs": [
                {
                    "internalType": "uint256",
                    "name": "_tokenId",
                    "type": "uint256"
                },
                {
                    "internalType": "uint256",
                    "name": "_idx",
                    "type": "uint256"
                }
            ],
            "name": "user_point_history__ts",
            "outputs": [
                {
                    "internalType": "uint256",
                    "name": "",
                    "type": "uint256"
                }
            ],
            "stateMutability": "view",
            "type": "function"
        },
        {
            "inputs": [],
            "name": "veStaking",
            "outputs": [
                {
                    "internalType": "address",
                    "name": "",
                    "type": "address"
                }
            ],
            "stateMutability": "view",
            "type": "function"
        },
        {
            "inputs": [],
            "name": "version",
            "outputs": [
                {
                    "internalType": "string",
                    "name": "",
                    "type": "string"
                }
            ],
            "stateMutability": "view",
            "type": "function"
        },
        {
            "inputs": [
                {
                    "internalType": "uint256",
                    "name": "",
                    "type": "uint256"
                }
            ],
            "name": "voted",
            "outputs": [
                {
                    "internalType": "bool",
                    "name": "",
                    "type": "bool"
                }
            ],
            "stateMutability": "view",
            "type": "function"
        },
        {
            "inputs": [],
            "name": "voter",
            "outputs": [
                {
                    "internalType": "address",
                    "name": "",
                    "type": "address"
                }
            ],
            "stateMutability": "view",
            "type": "function"
        },
        {
            "inputs": [
                {
                    "internalType": "uint256",
                    "name": "_tokenId",
                    "type": "uint256"
                }
            ],
            "name": "voting",
            "outputs": [],
            "stateMutability": "nonpayable",
            "type": "function"
        },
        {
            "inputs": [
                {
                    "internalType": "uint256",
                    "name": "_tokenId",
                    "type": "uint256"
                }
            ],
            "name": "withdraw",
            "outputs": [],
            "stateMutability": "nonpayable",
            "type": "function"
        }
    ],
    "bytecode": "0x60a034620001a557601f62004d4338819003918201601f1916830191906001600160401b03831184841017620001aa578160609285926040958652833981010312620001a5576200005082620001c0565b6200006b826200006360208601620001c0565b9401620001c0565b60008054336001600160a01b0319808316821784558651979396939490926001600160a01b03929083167f8be0079c531659141344cd1fd0a4f28419497f9722a3daafe3b4186f6b6457e08980a38160019560ff19978789600754161760075560805233858854161787551683600254161760025516906003541617600355838052600460205280842043600282015582429101556301ffc9a760e01b8452600560205280842082848254161790556380ac58cd60e01b84528084208284825416179055635b5e139f60e01b8452832091825416179055600654907fddf252ad1be2c89b69c2b068fc378daa952ba7f163c4a11628f55a4df523b3ef823083838180a430908280a4614b6d9081620001d68239608051818181610bbc0152818161206f015281816131cb0152818161354101526137370152f35b600080fd5b634e487b7160e01b600052604160045260246000fd5b51906001600160a01b0382168203620001a55756fe6080604052600436101561001257600080fd5b60003560e01c806301ffc9a71461044d578063047fc9aa1461044857806306fdde031461037b5780630758c7d814610443578063081812fc1461043e578063095ea7b3146104395780631376f3da1461043457806318160ddd1461042f5780631c984bc31461042a57806320606b701461042557806323b872dd1461042057806325a58b561461041b5780632943a490146104165780632e1a7d4d146104115780632e720f7d1461040c5780632f745c5914610407578063313ce567146104025780633a46b1a8146103fd57806342842e0e146103f8578063430c2081146103f3578063461f711c146103ee57806346c96aac146103e95780634bc2a657146103e45780634bf5d7e9146103df57806354fd4d50146103da5780635594a045146103d5578063587cde1e146103d05780635c19a95c146103cb5780635f5b0c32146103c65780636352211e146103c157806365fc3873146103bc5780636f548837146103b75780636fcfff45146103b257806370a08231146103ad5780637116c60c1461038f57806371197484146103a8578063715018a6146103a35780637ecebe001461039e57806382b5077f146103995780638da5cb5b146103945780638e539e8c1461038f5780638fbb38ff1461038a578063900cf0cf1461038557806391ddadf41461038057806395d89b411461037b5780639ab24eb014610376578063a183af5214610371578063a22cb4651461036c578063a4d855df14610367578063b45a3c0e14610362578063b88d4fde1461035d578063c1f0fb9f14610358578063c2c4c5c114610353578063c3cda5201461034e578063c87b56dd14610349578063d1febfb914610344578063d4e54c3b1461033f578063e0514aba1461033a578063e441135c14610335578063e7a324dc14610330578063e7e242d41461032b578063e985e9c514610326578063ee99fe2814610321578063f1127ed81461031c578063f2fde38b14610317578063f8a0576314610312578063fc0c546a1461030d5763fd4a77f11461030857600080fd5b61209e565b612059565b61202a565b611f67565b611f0a565b611e76565b611e19565b611dfb565b611dc0565b611d94565b611d73565b611d07565b611ca6565b611b94565b611979565b6116ba565b61167c565b6115f3565b6115bb565b6114e4565b611440565b61138a565b611367565b610613565b611344565b611326565b6112f5565b6111be565b6112cc565b6112a3565b611269565b61120b565b6111dc565b611184565b611144565b611118565b6110c8565b611094565b611077565b61103d565b611008565b610fdf565b610fc3565b610f53565b610f08565b610edf565b610e9a565b610e69565b610e2f565b610d80565b610d64565b610d1c565b610cd9565b6109e0565b61099d565b610982565b610967565b6108f7565b6108bc565b610898565b61082a565b6106dc565b6106a8565b610673565b6104b7565b610469565b6001600160e01b031981160361046457565b600080fd5b346104645760203660031901126104645760043561048681610452565b63ffffffff60e01b166000526005602052602060ff604060002054166040519015158152f35b600091031261046457565b34610464576000366003190112610464576020601454604051908152f35b634e487b7160e01b600052604160045260246000fd5b67ffffffffffffffff81116104ff57604052565b6104d5565b6040810190811067ffffffffffffffff8211176104ff57604052565b6080810190811067ffffffffffffffff8211176104ff57604052565b90601f8019910116810190811067ffffffffffffffff8211176104ff57604052565b6040519061056b82610504565b565b6040519061056b82610520565b67ffffffffffffffff81116104ff57601f01601f191660200190565b604051906105a382610504565b60058252641d9953919560da1b6020830152565b60005b8381106105ca5750506000910152565b81810151838201526020016105ba565b906020916105f3815180928185528580860191016105b7565b601f01601f1916010190565b9060206106109281815201906105da565b90565b346104645760003660031901126104645761064361062f610596565b6040519182916020835260208301906105da565b0390f35b600435906001600160a01b038216820361046457565b602435906001600160a01b038216820361046457565b3461046457604036600319011261046457602061069a610691610647565b60243590614127565b63ffffffff60405191168152f35b3461046457602036600319011261046457600435600052600a602052602060018060a01b0360406000205416604051908152f35b34610464576040366003190112610464576106f5610647565b6024356000818152600860205260408120549092906001600160a01b039081169081156107f457808316928284146107f05761078e6107c192610742876000526008602052604060002090565b5416331460ff61077f336107688860018060a01b0316600052600b602052604060002090565b9060018060a01b0316600052602052604060002090565b541681156107e8575b5061220f565b6107a285600052600a602052604060002090565b80546001600160a01b0319166001600160a01b03909216919091179055565b7f8c5be1e5ebec7d5bd14f71427d1e84f3dd0314c0f7b2291e5b200ac8c7c3b9258480a480f35b905038610788565b8580fd5b8480fd5b634e487b7160e01b600052603260045260246000fd5b90633b9aca00811015610825576003020190600090565b6107f8565b34610464576040366003190112610464576024356004356000526010602052604060002090633b9aca00811015610464576108649161080e565b508054600182015460029092015460408051600f84810b8252608094851d900b602082015290810193909352606083015290f35b346104645760003660031901126104645760206108b442613e6a565b604051908152f35b34610464576040366003190112610464576004356000526010602052602060016108ec602435604060002061080e565b500154604051908152f35b346104645760003660031901126104645760206040517f8cad95687ba82c2ce50e74f7b754645e5117c3a5bec8151c0726d5857980a8668152f35b6060906003190112610464576001600160a01b0390600435828116810361046457916024359081168103610464579060443590565b346104645761098061097836610932565b9033926122d2565b005b34610464576000366003190112610464576020604051438152f35b34610464576020366003190112610464576109b6610647565b6109be6120df565b600380546001600160a01b0319166001600160a01b0392909216919091179055005b34610464576020806003193601126104645760043590600754600160ff8216036104645760ff1916600217600755610a20610a1b8333612233565b612216565b610a4d610a48610a44610a3d856000526015602052604060002090565b5460ff1690565b1590565b61229e565b610a69610a64836000526011602052604060002090565b612183565b610a7882820151421015613bfd565b610a8c610a868251600f0b90565b600f0b90565b92610a9561055e565b93610abd6000958681528686820152610ab8846000526011602052604060002090565b613014565b610aed60145493610ad6610ad1848761269c565b601455565b610ade61055e565b908782528787830152846129d2565b600354610b1090610b04906001600160a01b031681565b6001600160a01b031690565b803b156107f05760405163ac6a2b5d60e01b8152600481018490529086908290602490829084905af18015610ca857610cc6575b50600354610b5c90610b04906001600160a01b031681565b803b156107f057604051631c4b774b60e01b8152600481018490529086908290602490829084905af18015610ca857610cad575b5060405163a9059cbb60e01b815233600482015260248101829052918483604481896001600160a01b037f0000000000000000000000000000000000000000000000000000000000000000165af1948515610ca857600080516020614b1883398151915295610c5594610c0b928992610c7b575b5050612216565b610c1481613c42565b6040805191825260208201839052429082015233907f02f25270a4d87bea75db541cdfe559334a275b4a233520ed6c0a2429667cca9490606090a28261269c565b60408051928352602083019190915290a1610c78600160ff196007541617600755565b80f35b610c9a9250803d10610ca1575b610c92818361053c565b810190613046565b3880610c04565b503d610c88565b612203565b80610cba610cc0926104eb565b806104ac565b38610b90565b80610cba610cd3926104eb565b38610b44565b3461046457602036600319011261046457610cf2610647565b610cfa6120df565b600280546001600160a01b0319166001600160a01b0392909216919091179055005b34610464576040366003190112610464576001600160a01b03610d3d610647565b16600052600d60205260406000206024356000526020526020604060002054604051908152f35b3461046457600036600319011261046457602060405160128152f35b3461046457604036600319011261046457610d99610647565b6001610dd660243592610dac8482614127565b90838060a01b0316600052601760205260406000209063ffffffff16600052602052604060002090565b01805460009283925b828510610df157604051848152602090f35b909192610e0e83610e02878561406c565b90549060031b1c613d98565b8101809111610e2a57610e2190946128cb565b93929190610ddf565b6125a3565b3461046457610e3d36610932565b60405191602083019383851067ffffffffffffffff8611176104ff576109809460405260008452612432565b34610464576040366003190112610464576020610e90610e87610647565b60243590612233565b6040519015158152f35b3461046457602036600319011261046457600435600052600f6020526020610ecf60406000205460108352604060002061080e565b505460801d60405190600f0b8152f35b34610464576000366003190112610464576001546040516001600160a01b039091168152602090f35b3461046457602036600319011261046457610f21610647565b610f296120df565b600154906001600160a01b03908183163303610464576001600160a01b0319909216911617600155005b3461046457600036600319011261046457610643604051610f7381610504565b600e81526d06d6f64653d74696d657374616d760941b60208201526040519182916020835260208301906105da565b60405190610faf82610504565b60058252640312e302e360dc1b6020830152565b346104645760003660031901126104645761064361062f610fa2565b34610464576000366003190112610464576002546040516001600160a01b039091168152602090f35b3461046457602036600319011261046457602061102b611026610647565b61401c565b6040516001600160a01b039091168152f35b3461046457602036600319011261046457611056610647565b6001600160a01b03811615611070575b610980903361438b565b5033611066565b346104645760003660031901126104645760206040516104008152f35b34610464576020366003190112610464576004356000526008602052602060018060a01b0360406000205416604051908152f35b3461046457604036600319011261046457600754600160ff8216036104645760ff1990811660021760075560209060016111073360243560043561382a565b916007541617600755604051908152f35b3461046457602036600319011261046457600435600052600c6020526020604060002054604051908152f35b34610464576020366003190112610464576001600160a01b03611165610647565b166000526018602052602063ffffffff60406000205416604051908152f35b34610464576020366003190112610464576001600160a01b036111a5610647565b1660005260096020526020604060002054604051908152f35b346104645760203660031901126104645760206108b4600435613e6a565b346104645760203660031901126104645760043560005260136020526020604060002054600f0b604051908152f35b3461046457600080600319360112611266576112256120df565b80546001600160a01b03198116825581906001600160a01b03167f8be0079c531659141344cd1fd0a4f28419497f9722a3daafe3b4186f6b6457e08280a380f35b80fd5b34610464576020366003190112610464576001600160a01b0361128a610647565b1660005260196020526020604060002054604051908152f35b34610464576000366003190112610464576003546040516001600160a01b039091168152602090f35b34610464576000366003190112610464576000546040516001600160a01b039091168152602090f35b34610464576020366003190112610464576004356000526015602052602060ff604060002054166040519015158152f35b34610464576000366003190112610464576020601254604051908152f35b3461046457600036600319011261046457602060405165ffffffffffff42168152f35b346104645760203660031901126104645760206108b4611385610647565b614084565b346104645760403660031901126104645760075460043560243560001960ff8416016104645760026114249360ff1916176007556113cb610a1b8333612233565b81600052601160205260406000209161141f6001604051946113ec86610504565b8054600f0b8652015460208501908152611407841515612216565b61141760008651600f0b13612f5e565b514210612fa3565b61305b565b610980600160ff196007541617600755565b8015150361046457565b3461046457604036600319011261046457611459610647565b60243561146581611436565b6001600160a01b038216916114a59061148033851415612216565b33600052600b60205260406000209060018060a01b0316600052602052604060002090565b9015159060ff1981541660ff83161790556040519081527f17307eab39ab6107e8899845ad3d59bd9653f200f220920489ca2b5937696c3160203392a3005b346104645760403660031901126104645760075460043560001960ff8316016104645760026114249260ff191617600755611522610a1b8233612233565b80600052601160205260406000209060016040519261154084610504565b8054600f0b8452015490602083019182526115a261157461156f611566602435426125e8565b62093a80900490565b612868565b9261158142825111613b36565b61159a60006115918751600f0b90565b600f0b13613b71565b518311613bb1565b6115b66115ae426125b9565b8311156137de565b613289565b3461046457602036600319011261046457600435600052601160205260408060002060018154600f0b91015482519182526020820152f35b346104645760803660031901126104645761160c610647565b61161461065d565b6064359167ffffffffffffffff83116104645736602384011215610464578260040135916116418361057a565b9261164f604051948561053c565b80845236602482870101116104645760208160009260246109809801838801378501015260443591612432565b34610464576020366003190112610464576001546001600160a01b03163303610464576004356000908152601560205260409020805460ff19169055005b346104645760008060031936011261126657604051906116d982610504565b8082528060208093015280826040516116f181610504565b82815201526116fe6127f5565b506117076127f5565b506012549161171461056d565b90828252828183015242604083015260609143838201529184611955575b60408301918251928592844211611924575b96939061175862093a808395949504612868565b9787985b60ff8a1061178c575b88610c78896117878a61177781601255565b6000526004602052604060002090565b612945565b61179689916125d8565b93888783964281116000146118e35750610a86966117f46117ed61180a946117e86117e0611803966117da429e8f925b86019b6117d48d51600f0b90565b9361269c565b9061281a565b9151600f0b90565b6128da565b600f0b8d52565b8351600f0b61291f565b61291f565b600f0b8252565b81611819610a868b51600f0b90565b126118db575b8161182e610a868351600f0b90565b126118d3575b5050829483835261187882890197611871895161186b61185d6118578a8061269c565b8b612898565b670de0b6b3a7640000900490565b906125e8565b89526125ca565b9942850361189f5750505050505050610c7892936117879143905290849338808080611765565b6118c791929394959697506118c2896117878d6000526004602052604060002090565b6128cb565b9895929190949361175c565b528738611834565b81895261181f565b9650611803906117f46117ed61180a946117e86117e08c6117da610a8661191e611917846000526013602052604060002090565b54600f0b90565b986117c6565b925061194f61193e611939858801514361269c565b612880565b61194983514261269c565b906128ab565b92611744565b915061197361196e856000526004602052604060002090565b612831565b91611732565b346104645760c036600319011261046457611992610647565b606435906044359060243560ff841684036104645760a4356119d67f7fffffffffffffffffffffffffffffff5d576e7357a4501ddfe92f46681b20a0821115614266565b611b266119e1610596565b91611a51611aef611afb85516020809701206119fb610fa2565b805190880120604080517f8cad95687ba82c2ce50e74f7b754645e5117c3a5bec8151c0726d5857980a866818b0190815260208101949094529083019190915246606083015230608083015293849060a0830190565b0393611a65601f199586810183528261053c565b519020604080517fe48329057bfd03d55e49b547132e39cffd9c1820ad7b9d4c5307691425d15adf8982019081526001600160a01b038c1660208201529182018a9052606082018c9052919491611ac681608084010384810183528261053c565b5190206040519384918983019687909160429261190160f01b8352600283015260228201520190565b0390810183528261053c565b5190206040519760843591899094939260ff6060936080840197845216602083015260408201520152565b856000968792838052039060015afa15610ca857611b8f610c7893611b87865193611b5a60018060a01b0386161515614266565b6001600160a01b038516600090815260196020526040902090815491611b7f836128cb565b9055146142c9565b421115614328565b61438b565b34610464576020366003190112610464576004356000818152600860205260409020611bdd906001600160a01b0390611bd5905b546001600160a01b031690565b161515612137565b6000611bf6610a64836000526011602052604060002090565b600254611c0d90610b04906001600160a01b031681565b611c174285613d98565b611c2a610a8660208501519451600f0b90565b94611c626040519687958694859463dd9ec14960e01b8652600486019094939260609260808301968352602083015260408201520152565b03915afa8015610ca85761064391600091611c85575b50604051918291826105ff565b611ca0913d8091833e611c98818361053c565b8101906121a4565b38611c78565b3461046457602036600319011261046457600435600052600460205260406000208054610643600260018401549301546040519383859460801d90600f0b85909493926060926080830196600f0b8352600f0b602083015260408201520152565b34610464576060366003190112610464576044356001600160a01b038116810361046457600754600160ff821603610464576001611d5961064393600260ff198095161760075560243560043561382a565b916007541617600755604051918291829190602083019252565b346104645760403660031901126104645760206108b4602435600435613d98565b3461046457602036600319011261046457600435600052600f6020526020604060002054604051908152f35b346104645760003660031901126104645760206040517fe48329057bfd03d55e49b547132e39cffd9c1820ad7b9d4c5307691425d15adf8152f35b346104645760203660031901126104645760206108b4600435613e44565b3461046457604036600319011261046457602060ff611e6a611e39610647565b611e4161065d565b6001600160a01b039182166000908152600b865260408082209290931681526020919091522090565b54166040519015158152f35b3461046457604036600319011261046457600435602435600754600160ff8216036104645760029060ff1916176007556000918083526011602052604083209160405191611ec383610504565b8460018554600f0b958686520154602085019081528315611f0657611417611eef92611ef49713612f5e565b61344a565b610c78600160ff196007541617600755565b5080fd5b3461046457604036600319011261046457611f23610647565b6024359063ffffffff82168203610464576001600160a01b0316600090815260176020908152604080832063ffffffff909416835292815291902054604051908152f35b3461046457602036600319011261046457611f80610647565b611f886120df565b6001600160a01b039081168015611fd657600080546001600160a01b03198116831782559092167f8be0079c531659141344cd1fd0a4f28419497f9722a3daafe3b4186f6b6457e08380a380f35b60405162461bcd60e51b815260206004820152602660248201527f4f776e61626c653a206e6577206f776e657220697320746865207a65726f206160448201526564647265737360d01b6064820152608490fd5b346104645760203660031901126104645760043560005260116020526020600160406000200154604051908152f35b34610464576000366003190112610464576040517f00000000000000000000000000000000000000000000000000000000000000006001600160a01b03168152602090f35b34610464576020366003190112610464576001546001600160a01b03163303610464576004356000908152601560205260409020805460ff19166001179055005b6000546001600160a01b031633036120f357565b606460405162461bcd60e51b815260206004820152602060248201527f4f776e61626c653a2063616c6c6572206973206e6f7420746865206f776e65726044820152fd5b1561213e57565b60405162461bcd60e51b815260206004820152601b60248201527f517565727920666f72206e6f6e6578697374656e7420746f6b656e00000000006044820152606490fd5b9060405161219081610504565b6020600182948054600f0b84520154910152565b6020818303126104645780519067ffffffffffffffff8211610464570181601f820112156104645780516121d78161057a565b926121e5604051948561053c565b818452602082840101116104645761061091602080850191016105b7565b6040513d6000823e3d90fd5b1561046457565b1561221d57565b634e487b7160e01b600052600160045260246000fd5b600091825260086020908152604080842054600a8352818520546001600160a01b03918216808752600b8552838720958316808852959094529190942091831493169091149060ff905416908215612296575b508115612291575090565b905090565b915038612286565b156122a557565b60405162461bcd60e51b81526020600482015260056024820152641d9bdd195960da1b6044820152606490fd5b909291926122fb8460009481865260156020526122f660ff6040882054161561229e565b612233565b156123b8577fddf252ad1be2c89b69c2b068fc378daa952ba7f163c4a11628f55a4df523b3ef90848452600860205260018060a01b039061237e8661236f846040892054169661234f868216809914612216565b828952600a60205260408920868154166123a4575b5061102683826126a9565b6123788461401c565b90614883565b61238886826125f5565b4361239d87600052600c602052604060002090565b55169280a4565b80546001600160a01b031916905538612364565b8280fd5b90816020910312610464575161061081610452565b6001600160a01b039182168152911660208201526040810191909152608060608201819052610610929101906105da565b3d1561242d573d906124138261057a565b91612421604051938461053c565b82523d6000602084013e565b606090565b92919091612442338385876122d2565b823b61244f575b50505050565b612477926020926000604051809681958294630a85bd0160e11b9a8b855233600486016123d1565b03926001600160a01b03165af160009181612573575b506125075761249a612402565b805190816125025760405162461bcd60e51b815260206004820152603260248201527f4552433732313a207472616e7366657220746f206e6f6e20455243373231526560448201527131b2b4bb32b91034b6b83632b6b2b73a32b960711b6064820152608490fd5b602001fd5b6001600160e01b0319160361251f5738808080612449565b60405162461bcd60e51b815260206004820152602660248201527f4552433732313a2045524337323152656365697665722072656a656374656420604482015265746f6b656e7360d01b6064820152608490fd5b61259591925060203d811161259c575b61258d818361053c565b8101906123bc565b903861248d565b503d612583565b634e487b7160e01b600052601160045260246000fd5b906303c267008201809211610e2a57565b9060018201809211610e2a57565b9062093a808201809211610e2a57565b91908201809211610e2a57565b61267f91600081815260209060088252600e60018060a01b039260409361262181868620541615612216565b8584526008825284842080546001600160a01b0319166001600160a01b03891617905586168352600981528383205494600d825284842086855282528085852055835252205560018060a01b03166000526009602052604060002090565b61268981546125ca565b9055565b600019810191908211610e2a57565b91908203918211610e2a57565b6000828152600860205260408120546001600160a01b03838116916126d091168214612216565b83825260086020526040822080546001600160a01b03191690558152600960205260408120546000198101908111610e2a57838261271b61278096600052600e602052604060002090565b5483810361278a57506001600160a01b0385166000908152600d6020526040902061276593612754915b90600052602052604060002090565b55600052600e602052604060002090565b556001600160a01b0316600090815260096020526040902090565b612689815461268d565b83612754916127d76127b5612765976127458b60018060a01b0316600052600d602052604060002090565b5480612754846127458d60018060a01b0316600052600d602052604060002090565b556001600160a01b0387166000908152600d60205260409020612745565b6040519061280282610520565b60006060838281528260208201528260408201520152565b90600f0b90600f0b029081600f0b918203610e2a57565b9060405161283e81610520565b606060028294805480600f0b855260801d600f0b6020850152600181015460408501520154910152565b9062093a8091828102928184041490151715610e2a57565b90670de0b6b3a76400009180830292830403610e2a57565b81810292918115918404141715610e2a57565b81156128b5570490565b634e487b7160e01b600052601260045260246000fd5b6000198114610e2a5760010190565b600f91820b910b039060016001607f1b0319821260016001607f1b03831317610e2a57565b600f0b9060016001607f1b03821360016001607f1b0319831217610e2a57565b90600f0b90600f0b019060016001607f1b0319821260016001607f1b03831317610e2a57565b9060606002916129708151600f0b85906001600160801b0319825416906001600160801b0316179055565b602081015184546001600160801b031660809190911b6fffffffffffffffffffffffffffffffff1916178455604081015160018501550151910155565b91906129bc5761056b91612945565b634e487b7160e01b600052600060045260246000fd5b90916129dc6127f5565b916129e56127f5565b9260009182601254908215159485612e19575b612a0061056d565b9560008752602093600085890152426040890152606097438982015281612dfc575b85604082018051906000918c814211612ddf575b612a4962093a8083989695949804612868565b966000975b60ff8910612c9a575b5050505050612a8a935090611787918d8b87612a7285601255565b612bf1575b5050506000526004602052604060002090565b612a9a575b505050505050505050565b82612b1d97612b18968280612b239d019542875111612b92575b5050500191825190428211612b31575b5050505050612ae6612ae082600052600f602052604060002090565b546125ca565b9283612afc83600052600f602052604060002090565b5542604087015243908601526000526010602052604060002090565b61080e565b906129ad565b388080808080808080612a8f565b5110612b3f575b8080612ac4565b612b5c612b6e91612b56612b8a958b0151600f0b90565b906128da565b91516000526013602052604060002090565b906001600160801b0319825416906001600160801b0316179055565b388080612b38565b612ba5612bab92612bd2940151600f0b90565b9061291f565b80848d81860151895114612bda575b505050612b6e86516000526013602052604060002090565b388281612ab4565b0151612be99250600f0b612b56565b38848d612bba565b612c41612c4b91612b566117e085612c3a612c33612c24612c188b612c529b0151600f0b90565b878c0151600f0b612b56565b998d01996117fe8b51600f0b90565b600f0b8952565b51600f0b90565b8651600f0b61291f565b600f0b8552565b6000612c62610a868351600f0b90565b12612c90575b506000612c79610a868551600f0b90565b12612c87575b878d8b612a77565b60008352612c7f565b6000905238612c68565b612ca3906125d8565b6000939086898242811115612daa5750612ce99250956117f4612ce2610a86986117e86117e0611803966117da429d8e9286019b6117d48d51600f0b90565b600f0b8c52565b6000612cf9610a868a51600f0b90565b12612da1575b6000612d0f610a868351600f0b90565b12612d97575b50612d438392848352880196612d3c885161186b61185d612d36898061269c565b8a612898565b88526125ca565b97428403612d6957505050505050612a8a926117879143905290508638808c8180612a57565b612d8b919293949596506118c2886117878b6000526004602052604060002090565b96949392908e91612a4e565b6000905238612d15565b60008852612cff565b839750612ce261180393926117e86117e0612ce9976117da610a8661191e6119176117f4996000526013602052604060002090565b612df591935061193961193e918701514361269c565b918c612a36565b50612e1461196e826000526004602052604060002090565b612a22565b60208901898151421080612f48575b612f07575b5087896020820194428651119081612ef0575b50612ea0575b5050612e6061191782516000526013602052604060002090565b92519081612e70575b50506129f8565b519091508103612e845750805b3880612e69565b611917612e9b916000526013602052604060002090565b612e7d565b612ed4612ee291612c3a6020612eca612ebd612ee99751600f0b90565b6303c2670090600f0b0590565b600f0b9201918252565b6117da610a8642885161269c565b600f0b8a52565b8789612e46565b9050612f00610a868451600f0b90565b1338612e40565b612f3b612f2d612f1e612ebd612f429451600f0b90565b600f0b60208a01908152612c3a565b6117da610a8642865161269c565b600f0b8752565b89612e2d565b5083612f58610a868351600f0b90565b13612e28565b15612f6557565b60405162461bcd60e51b8152602060048201526016602482015275139bc8195e1a5cdd1a5b99c81b1bd8dac8199bdd5b9960521b6044820152606490fd5b15612faa57565b60405162461bcd60e51b8152602060048201526024808201527f43616e6e6f742061646420746f2065787069726564206c6f636b2e20576974686044820152636472617760e01b6064820152608490fd5b6040519061300882610504565b60006020838281520152565b90602060019161303f8151600f0b85906001600160801b0319825416906001600160801b0316179055565b0151910155565b90816020910312610464575161061081611436565b9160145461306c610ad184836125e8565b6130eb613077612ffb565b6130dc6130858551600f0b90565b9461309e6020820196875160208601528490600f0b9052565b6130b361180388600f0b6117fe8451600f0b90565b6130cb81610ab88a6000526011602052604060002090565b6130d54289613d98565b92886129d2565b6130e64287613d98565b61269c565b80151580613281575b1561327b5760035461311090610b04906001600160a01b031681565b803b15610464576040516330ee161b60e11b81526004810187905260248101929092526000908290604490829084905af18015610ca857613268575b505b82613197575b50613192600080516020614af88339815191529151936040519182913395429184606091949392608082019582526020820152600260408201520152565b0390a3565b6040516323b872dd60e01b815233600482015230602482015260448101849052909160208260648160006001600160a01b037f0000000000000000000000000000000000000000000000000000000000000000165af18015610ca857600080516020614af883398151915293613228600080516020614b18833981519152926131929560009161324a575b50612216565b61323286826125e8565b60408051928352602083019190915290a19150613154565b613262915060203d8111610ca157610c92818361053c565b38613222565b80610cba613275926104eb565b3861314c565b5061314e565b5060016130f4565b91613307613295612ffb565b916132a18151600f0b90565b936132ba6020830195865160208701528590600f0b9052565b6132d76132d06132cb8451600f0b90565b6128ff565b600f0b8352565b80613442575b506132f681610ab8876000526011602052604060002090565b6133004286613d98565b92856129d2565b61331b6133144285613d98565b918261269c565b908115158061343a575b156133cb575060035461334290610b04906001600160a01b031681565b803b15610464576040516330ee161b60e11b81526004810185905260248101929092526000908290604490829084905af18015610ca8576133b8575b505b516040805192835260006020840152600390830152426060830152903390600080516020614af8833981519152908060808101613192565b80610cba6133c5926104eb565b3861337e565b6003549091506133e590610b04906001600160a01b031681565b803b1561046457604051636d69d55b60e11b81526004810185905260248101929092526000908290604490829084905af18015610ca857613427575b50613380565b80610cba613434926104eb565b38613421565b506000613325565b8452386132dd565b9160145461345b610ad184836125e8565b613466613077612ffb565b801515806135d8575b156135d25760035461348b90610b04906001600160a01b031681565b803b15610464576040516330ee161b60e11b81526004810187905260248101929092526000908290604490829084905af18015610ca8576135bf575b505b8261350d575b50613192600080516020614af88339815191529151936040519182913395429184606091949392608082019582526020820152600060408201520152565b6040516323b872dd60e01b815233600482015230602482015260448101849052909160208260648160006001600160a01b037f0000000000000000000000000000000000000000000000000000000000000000165af18015610ca857600080516020614af88339815191529361359d600080516020614b18833981519152926131929560009161324a5750612216565b6135a786826125e8565b60408051928352602083019190915290a191506134cf565b80610cba6135cc926104eb565b386134c7565b506134c9565b50600161346f565b9291909161365c601454916135f8610ad186856125e8565b6130dc613603612ffb565b9161360f8151600f0b90565b956136286020830197885160208701528590600f0b9052565b61363d6132d089600f0b6117fe8551600f0b90565b806137d6575b506130cb81610ab88a6000526011602052604060002090565b801515806137ce575b156137c85760035461368190610b04906001600160a01b031681565b803b15610464576040516330ee161b60e11b81526004810187905260248101929092526000908290604490829084905af18015610ca8576137b5575b505b82613703575b50613192600080516020614af88339815191529151936040519182913395429184606091949392608082019582526020820152600160408201520152565b6040516323b872dd60e01b815233600482015230602482015260448101849052909160208260648160006001600160a01b037f0000000000000000000000000000000000000000000000000000000000000000165af18015610ca857600080516020614af883398151915293613793600080516020614b18833981519152926131929560009161324a5750612216565b61379d86826125e8565b60408051928352602083019190915290a191506136c5565b80610cba6137c2926104eb565b386136bd565b506136bf565b506001613665565b865238613643565b156137e557565b60405162461bcd60e51b815260206004820152601e60248201527f566f74696e67206c6f636b2063616e2062652032207965617273206d617800006044820152606490fd5b90420190814211610e2a5762093a80809204828102928184041490151715610e2a57801561046457428211156138b1576106109161387261386a426125b9565b8211156137de565b6138856138806006546128cb565b600655565b6138926006548095613905565b506138aa610a64856000526011602052604060002090565b91846135e0565b60405162461bcd60e51b815260206004820152602660248201527f43616e206f6e6c79206c6f636b20756e74696c2074696d6520696e207468652060448201526566757475726560d01b6064820152608490fd5b6001600160a01b038181169190839061391f841515612216565b6139288361401c565b90811615158080613b2d575b61396f575b5050613944916125f5565b60007fddf252ad1be2c89b69c2b068fc378daa952ba7f163c4a11628f55a4df523b3ef8180a4600190565b61397a575b80613939565b6001600160a01b03811660009081526018602052604090209091506139a4905b5463ffffffff1690565b63ffffffff811615613af4576001600160a01b03821660009081526017602052604090206001906139ed905b6139d984614040565b63ffffffff16600052602052604060002090565b01908592915b600180613a30613a0286614aa2565b6001600160a01b03871660009081526017602052604090205b9063ffffffff16600052602052604060002090565b0191613a49610400613a4283546125ca565b1115614711565b6000825b613aaa575b50505091613a8f613a73613aa493613a6e8761394499976146c2565b6146fc565b6001600160a01b03909216600090815260186020526040902090565b9063ffffffff1663ffffffff19825416179055565b91613974565b9091929394958254821015613aeb5750806118c2613ad8613ace613ade948661406c565b90549060031b1c90565b866146c2565b9082918996959493613a4d565b95949392613a52565b6001600160a01b0382166000908152601760205260409020600190613b23905b60008052602052604060002090565b01908592916139f3565b50821515613934565b15613b3d57565b60405162461bcd60e51b815260206004820152600c60248201526b131bd8dac8195e1c1a5c995960a21b6044820152606490fd5b15613b7857565b60405162461bcd60e51b8152602060048201526011602482015270139bdd1a1a5b99c81a5cc81b1bd8dad959607a1b6044820152606490fd5b15613bb857565b60405162461bcd60e51b815260206004820152601f60248201527f43616e206f6e6c7920696e637265617365206c6f636b206475726174696f6e006044820152606490fd5b15613c0457565b60405162461bcd60e51b8152602060048201526016602482015275546865206c6f636b206469646e27742065787069726560501b6044820152606490fd5b613c4c8133612233565b15613d54576000818152600860205260408120546001600160a01b039081169081156123b8573390613c88856000526008602052604060002090565b54161460ff613cad336107688560018060a01b0316600052600b602052604060002090565b54168115613d4c575b5015611f0657613ce3613cd384600052600a602052604060002090565b80546001600160a01b0319169055565b8282827f8c5be1e5ebec7d5bd14f71427d1e84f3dd0314c0f7b2291e5b200ac8c7c3b9258280a4613d1c83613d178361401c565b614769565b613d2683336126a9565b7fddf252ad1be2c89b69c2b068fc378daa952ba7f163c4a11628f55a4df523b3ef8280a4565b905038613cb6565b606460405162461bcd60e51b815260206004820152602060248201527f63616c6c6572206973206e6f74206f776e6572206e6f7220617070726f7665646044820152fd5b6000818152600f6020526040812054909181613db5575050905090565b613dd691612b18613dd0926000526010602052604060002090565b50612831565b6020810151600f0b91604082015193818582039512818612811691861390151617610e2a57613e1f6132d0613e15610a869561061097600f0b9061281a565b8451600f0b6128da565b80613e2b8351600f0b90565b600f0b12613e3c575b5051600f0b90565b815238613e34565b80600052600c6020526040600020544314613e6457610610904290613d98565b50600090565b906000916012549280935b60808510613e9f575b506106109293506000526004602052613e9a6040600020612831565b613f0d565b9081811015613f075781810190818111610e2a57600191828101809111610e2a578490831c92613ed9846000526004602052604060002090565b015411613ef25750613eeb90946128cb565b9390613e75565b949150613f01613eeb9161268d565b916128cb565b90613e7e565b9060408201613f2361156f825162093a80900490565b906000915b60ff8310613f70575b50505050613f5b613f5b826000613f4f610a866106109651600f0b90565b12613f675751600f0b90565b6001600160801b031690565b60008152612c3a565b613f79906125d8565b600092908085811115613ffd57505083925b6020860190613fc3613fbc613fb2613fa48551600f0b90565b6117da610a8689518b61269c565b8951600f0b6128da565b600f0b8852565b858514613ff65781613fe1613fe8926117fe613ff0969551600f0b90565b600f0b9052565b8383526128cb565b91613f28565b5050613f31565b614017919450611917906000526013602052604060002090565b613f8b565b6001600160a01b038181166000908152601660205260409020541680612291575090565b63ffffffff9081166000190191908211610e2a57565b63ffffffff9182169082160391908211610e2a57565b80548210156108255760005260206000200190600090565b6001600160a01b03811660009081526018602052604090205463ffffffff16908115614120576001600160a01b031660009081526017602052604090206001916140d2916139d99091614040565b0160009081908054905b8183106140e95750505090565b9091926141066140f9858461406c565b9054429160031b1c613d98565b8101809111610e2a5761411990936128cb565b91906140dc565b5050600090565b6001600160a01b03811660009081526018602052604090206141489061399a565b9163ffffffff80841615614251576001600160a01b0383166000908152601760205260409020829061417d906139d987614040565b54111561425a576001600160a01b038316600090815260176020526040902082906141a790613b14565b54116142515791906141ba600094614040565b838516848216116141cc575050505090565b6141ee6141e86141dc8784614056565b60011c637fffffff1690565b82614056565b948561421081613a1b8760018060a01b03166000526017602052604060002090565b54848103614222575050505050505090565b938095969793941060001461423d575050935b9291906141ba565b9095925061424b9150614040565b90614235565b50505050600090565b50505061061090614040565b1561426d57565b60405162461bcd60e51b815260206004820152602e60248201527f566f74696e67457363726f773a3a64656c656761746542795369673a20696e7660448201526d616c6964207369676e617475726560901b6064820152608490fd5b156142d057565b60405162461bcd60e51b815260206004820152602a60248201527f566f74696e67457363726f773a3a64656c656761746542795369673a20696e76604482015269616c6964206e6f6e636560b01b6064820152608490fd5b1561432f57565b60405162461bcd60e51b815260206004820152602e60248201527f566f74696e67457363726f773a3a64656c656761746542795369673a2073696760448201526d1b985d1d5c9948195e1c1a5c995960921b6064820152608490fd5b91906143968361401c565b6001600160a01b03848116600081815260166020526040812080546001600160a01b031916868516179055929091848116928282168481837f3134e8a2e6d97e929a7e54011ea5485d7d196dd5f0ba4d4ef95803e8e3fc257f8980a4848103614405575b505050505050509050565b61458e575b50505061441c575b80808080806143fa565b6001600160a01b038216600090815260186020526040902061443d9061399a565b9063ffffffff821615614563576001600160a01b0383166000908152601760205260409020600190614473905b6139d985614040565b01905b600190816144a361448687614aa2565b6001600160a01b0388166000908152601760205260409020613a1b565b6001600160a01b03891660009081526009602052604090209101929054936144d2610400613a428784546125e8565b82825b614535575b5050505b828110614502575050506144fa929350613a73613a8f916146fc565b803880614412565b806118c2614529614530936127458b60018060a01b0316600052600d602052604060002090565b54846146c2565b6144de565b815481101561455e57806118c2614552613ace614558948661406c565b876146c2565b826144d5565b6144da565b6001600160a01b038316600090815260176020526040902060019061458790613b14565b0190614476565b6001600160a01b03831660009081526018602052604090206145af9061399a565b9163ffffffff831615614697576001600160a01b03841660009081526017602052604090206001906145e4906139d986614040565b01915b600191826146146145f788614aa2565b6001600160a01b0389166000908152601760205260409020613a1b565b019188845b61463c575b50505050505090613a8f613a73614634936146fc565b38808061440a565b85548110156146925780614656613ace61467c938961406c565b838561466f611bc8846000526008602052604060002090565b1603614682575b506128cb565b84614619565b61468c90866146c2565b38614676565b61461e565b6001600160a01b03841660009081526017602052604090206001906146bb90613b14565b01916145e7565b8054680100000000000000008110156104ff576146e49160018201815561406c565b819291549060031b91821b91600019901b1916179055565b90600163ffffffff80931601918211610e2a57565b1561471857565b60405162461bcd60e51b815260206004820152602360248201527f64737452657020776f756c64206861766520746f6f206d616e7920746f6b656e60448201526249647360e81b6064820152608490fd5b906001600160a01b0382161515808061487a575b61478657505050565b61478e575050565b6001600160a01b03821660009081526018602052604090206147af9061399a565b9063ffffffff82161561484f576001600160a01b03831660009081526017602052604090206001906147e09061446a565b01905b600190816147f361448687614aa2565b01906000835b614813575b505050505090613a8f613a7361056b936146fc565b845481101561484a578061482d613ace61483a938861406c565b83810361484057506128cb565b836147f9565b61468c90856146c2565b6147fe565b6001600160a01b038316600090815260176020526040902060019061487390613b14565b01906147e3565b5081151561477d565b9091906001600160a01b03808416919081168083141580614a99575b6148ab575b5050505050565b6149ad575b506148be575b8080806148a4565b6001600160a01b03821660009081526018602052604090206148df9061399a565b9063ffffffff821615614983576001600160a01b03831660009081526017602052604090206001906149109061446a565b015b60018061492161448687614aa2565b0191614933610400613a4283546125ca565b6000825b61495b575b5050506149549392613a6e613a8f93613a73936146c2565b38806148b6565b815481101561497e57806118c2613ad8613ace614978948661406c565b82614937565b61493c565b6001600160a01b03831660009081526017602052604090206001906149a790613b14565b01614912565b6001600160a01b03811660009081526018602052604090206149ce9061399a565b63ffffffff811615614a6f576001600160a01b03821660009081526017602052604090206001906149fe906139d0565b015b600180614a0f613a0286614aa2565b016000825b614a33575b5050505090613a8f613a73614a2d936146fc565b386148b0565b8354811015614a6a5780614a4d613ace614a5a938761406c565b898103614a6057506128cb565b82614a14565b61468c90846146c2565b614a19565b6001600160a01b0382166000908152601760205260409020600190614a9390613b14565b01614a00565b5083151561489f565b6001600160a01b031660009081526018602052604090205463ffffffff1680151580614ad7575b156106105761061090614040565b5060176020526040600020614af042916139d984614040565b5414614ac956feff04ccafc360e16b67d682d17bd9503c4c6b9a131f6be6325762dc9ffc7de6245e2aa66efd74cce82b21852e317e5490d9ecc9e6bb953ae24d90851258cc2f5ca264697066735822122039e714a61f87b4476ec78aef2c2fcfe8633a72bf81a2c43e35a4e3713535751664736f6c63430008130033",
    "linkReferences": {},
    "deployedLinkReferences": {}
}