{
  "_format": "hh-sol-artifact-1",
  "contractName": "MasterContesterRegistry",
  "sourceName": "contracts/MasterContesterRegistry.sol",
  "abi": [
    {
      "inputs": [
        {
          "internalType": "address",
          "name": "_votingEscrow",
          "type": "address"
        }
      ],
      "stateMutability": "nonpayable",
      "type": "constructor"
    },
    {
      "inputs": [],
      "name": "AlreadyMasterContester",
      "type": "error"
    },
    {
      "inputs": [],
      "name": "AlreadyVotedThisEpoch",
      "type": "error"
    },
    {
      "inputs": [],
      "name": "EpochNotEnded",
      "type": "error"
    },
    {
      "inputs": [],
      "name": "NoVotingPower",
      "type": "error"
    },
    {
      "inputs": [],
      "name": "NotMasterContester",
      "type": "error"
    },
    {
      "inputs": [],
      "name": "NotTokenOwner",
      "type": "error"
    },
    {
      "anonymous": false,
      "inputs": [
        {
          "indexed": true,
          "internalType": "address",
          "name": "contester",
          "type": "address"
        }
      ],
      "name": "EmergencyMasterContesterAdded",
      "type": "event"
    },
    {
      "anonymous": false,
      "inputs": [
        {
          "indexed": true,
          "internalType": "address",
          "name": "contester",
          "type": "address"
        }
      ],
      "name": "EmergencyMasterContesterRemoved",
      "type": "event"
    },
    {
      "anonymous": false,
      "inputs": [
        {
          "indexed": true,
          "internalType": "uint256",
          "name": "epoch",
          "type": "uint256"
        },
        {
          "indexed": false,
          "internalType": "address[]",
          "name": "elected",
          "type": "address[]"
        }
      ],
      "name": "EpochFinalized",
      "type": "event"
    },
    {
      "anonymous": false,
      "inputs": [
        {
          "indexed": false,
          "internalType": "uint256",
          "name": "oldCount",
          "type": "uint256"
        },
        {
          "indexed": false,
          "internalType": "uint256",
          "name": "newCount",
          "type": "uint256"
        }
      ],
      "name": "MasterContesterCountChanged",
      "type": "event"
    },
    {
      "anonymous": false,
      "inputs": [
        {
          "indexed": true,
          "internalType": "address",
          "name": "previousOwner",
          "type": "address"
        },
        {
          "indexed": true,
          "internalType": "address",
          "name": "newOwner",
          "type": "address"
        }
      ],
      "name": "OwnershipTransferred",
      "type": "event"
    },
    {
      "anonymous": false,
      "inputs": [
        {
          "indexed": true,
          "internalType": "address",
          "name": "voter",
          "type": "address"
        },
        {
          "indexed": true,
          "internalType": "address",
          "name": "candidate",
          "type": "address"
        },
        {
          "indexed": false,
          "internalType": "uint256",
          "name": "weight",
          "type": "uint256"
        },
        {
          "indexed": false,
          "internalType": "uint256",
          "name": "epoch",
          "type": "uint256"
        }
      ],
      "name": "VoteCast",
      "type": "event"
    },
    {
      "anonymous": false,
      "inputs": [
        {
          "indexed": true,
          "internalType": "address",
          "name": "voter",
          "type": "address"
        },
        {
          "indexed": true,
          "internalType": "address",
          "name": "candidate",
          "type": "address"
        },
        {
          "indexed": false,
          "internalType": "uint256",
          "name": "weight",
          "type": "uint256"
        },
        {
          "indexed": false,
          "internalType": "uint256",
          "name": "epoch",
          "type": "uint256"
        }
      ],
      "name": "VoteUndone",
      "type": "event"
    },
    {
      "inputs": [],
      "name": "EPOCH_DURATION",
      "outputs": [
        {
          "internalType": "uint256",
          "name": "",
          "type": "uint256"
        }
      ],
      "stateMutability": "view",
      "type": "function"
    },
    {
      "inputs": [
        {
          "internalType": "address",
          "name": "",
          "type": "address"
        }
      ],
      "name": "candidateVotes",
      "outputs": [
        {
          "internalType": "uint256",
          "name": "",
          "type": "uint256"
        }
      ],
      "stateMutability": "view",
      "type": "function"
    },
    {
      "inputs": [],
      "name": "currentEpoch",
      "outputs": [
        {
          "internalType": "uint256",
          "name": "",
          "type": "uint256"
        }
      ],
      "stateMutability": "view",
      "type": "function"
    },
    {
      "inputs": [
        {
          "internalType": "address",
          "name": "_contester",
          "type": "address"
        }
      ],
      "name": "emergencyAddMasterContester",
      "outputs": [],
      "stateMutability": "nonpayable",
      "type": "function"
    },
    {
      "inputs": [
        {
          "internalType": "address",
          "name": "_contester",
          "type": "address"
        }
      ],
      "name": "emergencyRemoveMasterContester",
      "outputs": [],
      "stateMutability": "nonpayable",
      "type": "function"
    },
    {
      "inputs": [],
      "name": "epochStartTime",
      "outputs": [
        {
          "internalType": "uint256",
          "name": "",
          "type": "uint256"
        }
      ],
      "stateMutability": "view",
      "type": "function"
    },
    {
      "inputs": [],
      "name": "finalizeEpoch",
      "outputs": [],
      "stateMutability": "nonpayable",
      "type": "function"
    },
    {
      "inputs": [],
      "name": "getMasterContesters",
      "outputs": [
        {
          "internalType": "address[]",
          "name": "",
          "type": "address[]"
        }
      ],
      "stateMutability": "view",
      "type": "function"
    },
    {
      "inputs": [],
      "name": "getTopCandidates",
      "outputs": [
        {
          "internalType": "address[]",
          "name": "addresses",
          "type": "address[]"
        },
        {
          "internalType": "uint256[]",
          "name": "votes",
          "type": "uint256[]"
        }
      ],
      "stateMutability": "view",
      "type": "function"
    },
    {
      "inputs": [
        {
          "internalType": "uint256",
          "name": "epoch",
          "type": "uint256"
        },
        {
          "internalType": "address",
          "name": "voter",
          "type": "address"
        }
      ],
      "name": "getVotesCast",
      "outputs": [
        {
          "internalType": "address[]",
          "name": "",
          "type": "address[]"
        }
      ],
      "stateMutability": "view",
      "type": "function"
    },
    {
      "inputs": [
        {
          "internalType": "uint256",
          "name": "epoch",
          "type": "uint256"
        },
        {
          "internalType": "address",
          "name": "voter",
          "type": "address"
        }
      ],
      "name": "hasVoted",
      "outputs": [
        {
          "internalType": "bool",
          "name": "",
          "type": "bool"
        }
      ],
      "stateMutability": "view",
      "type": "function"
    },
    {
      "inputs": [
        {
          "internalType": "address",
          "name": "",
          "type": "address"
        }
      ],
      "name": "heapIndex",
      "outputs": [
        {
          "internalType": "uint256",
          "name": "",
          "type": "uint256"
        }
      ],
      "stateMutability": "view",
      "type": "function"
    },
    {
      "inputs": [
        {
          "internalType": "address",
          "name": "candidate",
          "type": "address"
        }
      ],
      "name": "isMasterContester",
      "outputs": [
        {
          "internalType": "bool",
          "name": "",
          "type": "bool"
        }
      ],
      "stateMutability": "view",
      "type": "function"
    },
    {
      "inputs": [],
      "name": "isNewEpoch",
      "outputs": [
        {
          "internalType": "bool",
          "name": "",
          "type": "bool"
        }
      ],
      "stateMutability": "view",
      "type": "function"
    },
    {
      "inputs": [
        {
          "internalType": "address",
          "name": "",
          "type": "address"
        }
      ],
      "name": "lastVoteEpoch",
      "outputs": [
        {
          "internalType": "uint256",
          "name": "",
          "type": "uint256"
        }
      ],
      "stateMutability": "view",
      "type": "function"
    },
    {
      "inputs": [
        {
          "internalType": "address",
          "name": "",
          "type": "address"
        }
      ],
      "name": "lastVoteWeight",
      "outputs": [
        {
          "internalType": "uint256",
          "name": "",
          "type": "uint256"
        }
      ],
      "stateMutability": "view",
      "type": "function"
    },
    {
      "inputs": [],
      "name": "masterContesterCount",
      "outputs": [
        {
          "internalType": "uint256",
          "name": "",
          "type": "uint256"
        }
      ],
      "stateMutability": "view",
      "type": "function"
    },
    {
      "inputs": [
        {
          "internalType": "uint256",
          "name": "",
          "type": "uint256"
        }
      ],
      "name": "masterContesters",
      "outputs": [
        {
          "internalType": "address",
          "name": "",
          "type": "address"
        }
      ],
      "stateMutability": "view",
      "type": "function"
    },
    {
      "inputs": [],
      "name": "owner",
      "outputs": [
        {
          "internalType": "address",
          "name": "",
          "type": "address"
        }
      ],
      "stateMutability": "view",
      "type": "function"
    },
    {
      "inputs": [],
      "name": "renounceOwnership",
      "outputs": [],
      "stateMutability": "nonpayable",
      "type": "function"
    },
    {
      "inputs": [
        {
          "internalType": "uint256",
          "name": "_count",
          "type": "uint256"
        }
      ],
      "name": "setMasterContesterCount",
      "outputs": [],
      "stateMutability": "nonpayable",
      "type": "function"
    },
    {
      "inputs": [],
      "name": "timeUntilNextEpoch",
      "outputs": [
        {
          "internalType": "uint256",
          "name": "",
          "type": "uint256"
        }
      ],
      "stateMutability": "view",
      "type": "function"
    },
    {
      "inputs": [
        {
          "internalType": "uint256",
          "name": "",
          "type": "uint256"
        }
      ],
      "name": "topCandidatesHeap",
      "outputs": [
        {
          "internalType": "address",
          "name": "candidate",
          "type": "address"
        },
        {
          "internalType": "uint256",
          "name": "votes",
          "type": "uint256"
        }
      ],
      "stateMutability": "view",
      "type": "function"
    },
    {
      "inputs": [
        {
          "internalType": "address",
          "name": "newOwner",
          "type": "address"
        }
      ],
      "name": "transferOwnership",
      "outputs": [],
      "stateMutability": "nonpayable",
      "type": "function"
    },
    {
      "inputs": [
        {
          "internalType": "address[]",
          "name": "_candidates",
          "type": "address[]"
        },
        {
          "internalType": "uint256",
          "name": "tokenId",
          "type": "uint256"
        }
      ],
      "name": "vote",
      "outputs": [],
      "stateMutability": "nonpayable",
      "type": "function"
    },
    {
      "inputs": [
        {
          "internalType": "address[]",
          "name": "_candidates",
          "type": "address[]"
        },
        {
          "internalType": "uint256[]",
          "name": "tokenIds",
          "type": "uint256[]"
        }
      ],
      "name": "voteMultiple",
      "outputs": [],
      "stateMutability": "nonpayable",
      "type": "function"
    },
    {
      "inputs": [
        {
          "internalType": "uint256",
          "name": "",
          "type": "uint256"
        },
        {
          "internalType": "address",
          "name": "",
          "type": "address"
        },
        {
          "internalType": "uint256",
          "name": "",
          "type": "uint256"
        }
      ],
      "name": "votesCast",
      "outputs": [
        {
          "internalType": "address",
          "name": "",
          "type": "address"
        }
      ],
      "stateMutability": "view",
      "type": "function"
    },
    {
      "inputs": [],
      "name": "votingEscrow",
      "outputs": [
        {
          "internalType": "address",
          "name": "",
          "type": "address"
        }
      ],
      "stateMutability": "view",
      "type": "function"
    }
  ],
  "bytecode": "0x60a0346100ca57601f6121ac38819003918201601f19168301916001600160401b038311848410176100cf578084926020946040528339810103126100ca57516001600160a01b039081811681036100ca576000543360018060a01b0319821617600055604051923391167f8be0079c531659141344cd1fd0a4f28419497f9722a3daafe3b4186f6b6457e0600080a360036001556080524260035560016002556120c690816100e68239608051818181610a6701528181610ae001528181610f460152610fe70152f35b600080fd5b634e487b7160e01b600052604160045260246000fdfe608080604052600436101561001357600080fd5b60003560e01c90816323ef2746146114475750806340c6fb631461140d57806343859632146113e75780634c4fbb9a14610f755780634f2bfe5b14610f3057806353262c51146109b05780635a5da6271461098d5780635b811b171461092c5780635c98ccf71461090e578063715018a6146108c757806376671808146108a95780637b7d02d01461083057806382ae9ef7146107f657806386852c21146107bc5780638da5cb5b14610793578063a70b9f0c14610775578063aca611d914610733578063b00cf049146106f9578063b232f2f0146105bf578063b25320911461059c578063b7bc7f1c14610377578063e01466cb14610323578063e48fd9bc146102ff578063eaf8682b146102da578063ed0d4fc714610296578063f2fde38b146101e7578063f60ca641146101c95763fa463ae11461015357600080fd5b346101c45760403660031901126101c45761016c611493565b600435600052600860205260406000209060018060a01b03166000526020526101c06101a56101ac604060002060405192838092611655565b03826116b6565b60405191829160208352602083019061150a565b0390f35b600080fd5b346101c45760003660031901126101c4576020600354604051908152f35b346101c45760203660031901126101c45761020061147d565b610208611599565b6001600160a01b03908116908115610242576000548260018060a01b031982161760005516600080516020612071833981519152600080a3005b60405162461bcd60e51b815260206004820152602660248201527f4f776e61626c653a206e6577206f776e657220697320746865207a65726f206160448201526564647265737360d01b6064820152608490fd5b346101c45760203660031901126101c4576004356006548110156101c4576102bf60409161157a565b506001808060a01b0382541691015482519182526020820152f35b346101c45760003660031901126101c45760206102f56117a8565b6040519015158152f35b346101c45760003660031901126101c4576101c06040516101ac816101a5816115f1565b346101c45760203660031901126101c4577fc93bd77b50242f482eb3dadedf54ea9e90f71ba6ee214dc1f715a7142a49a9346040600435610362611599565b600154908060015582519182526020820152a1005b346101c45760003660031901126101c457600654610394816116f0565b9060005b81811061056c575060005b8181106104b657506103b4816116d9565b906103c260405192836116b6565b808252601f1990816103d3826116d9565b019060209136838601376103e6816116d9565b946103f460405196876116b6565b818652610400826116d9565b868401940136853760005b8281106104675750505061042e938160405195869560408752604087019061150a565b9185830382870152519182815201929160005b82811061045057505050500390f35b835185528695509381019392810192600101610441565b949593946104ad906001600160a01b036104818285611760565b51511661048e828a611760565b528461049a8285611760565b5101516104a78288611760565b52611751565b9594939561040b565b60018101808211610556575b8281106104d857506104d390611751565b6103a3565b610507906020949294806104ec8386611760565b510151906104fa8786611760565b5101511061050f57611751565b9290926104c2565b6105198584611760565b516105248285611760565b5161052f8786611760565b5261053a8685611760565b506105458285611760565b526105508184611760565b50611751565b634e487b7160e01b600052601160045260246000fd5b8061058261057c6105979361157a565b50611774565b61058c8286611760565b526105508185611760565b610398565b346101c45760203660031901126101c45760206102f56105ba61147d565b6117be565b346101c45760203660031901126101c4576105d861147d565b6105e0611599565b6105e9816117be565b156106e7576001600160a01b039081169060005b60045490818110156106df57829184610615836114d9565b959054600396871b1c16146106355750610630919250611751565b6105fd565b60001991818301918211610556576106608461065361067f946114d9565b905490881b1c16916114d9565b90919082549060031b9160018060a01b03809116831b921b1916179055565b60045480156106c9570191610693836114d9565b81939154921b1b191690556004555b7f336df7066c26b674a0da85016d760af1838d3254e816ca5a0e523d8eecfe0a93600080a2005b634e487b7160e01b600052603160045260246000fd5b5050506106a2565b604051631c7d173960e31b8152600490fd5b346101c45760203660031901126101c4576001600160a01b0361071a61147d565b1660005260076020526020604060002054604051908152f35b346101c45760203660031901126101c4576004356004548110156101c45761075c6020916114d9565b905460405160039290921b1c6001600160a01b03168152f35b346101c45760003660031901126101c457602060405162093a808152f35b346101c45760003660031901126101c4576000546040516001600160a01b039091168152602090f35b346101c45760203660031901126101c4576001600160a01b036107dd61147d565b16600052600a6020526020604060002054604051908152f35b346101c45760003660031901126101c45761080f6117a8565b1561081e5761081c611e77565b005b60405163756b785760e01b8152600490fd5b346101c45760203660031901126101c45761084961147d565b610851611599565b61085a816117be565b6108975761086781611e52565b6001600160a01b03167f97bdc37b440a9620b3ede406c03aabb2ef5a2a6a39af59797ca796d0a35588ef600080a2005b60405163c2665e2b60e01b8152600490fd5b346101c45760003660031901126101c4576020600254604051908152f35b346101c45760003660031901126101c4576108e0611599565b600080546001600160a01b0319811682556001600160a01b03166000805160206120718339815191528280a3005b346101c45760003660031901126101c4576020600154604051908152f35b346101c45760603660031901126101c457610945611493565b604435906004356000526008602052604060002060018060a01b0380921660005260205260406000209182548110156101c45760209260005282600020015416604051908152f35b346101c45760003660031901126101c45760206109a8611843565b604051908152f35b346101c45760403660031901126101c4576004356001600160401b0381116101c4576109e09036906004016114a9565b906024356001600160401b0381116101c457610a009036906004016114a9565b60039291925462093a80810180911161055657421015610f23575b60005b818110610a2757005b610a328183866118e9565b3560035462093a80810180911161055657421015610f16575b6040516331a9108f60e11b8152600481018290526020816024817f00000000000000000000000000000000000000000000000000000000000000006001600160a01b03165afa908115610ea457600091610ed4575b50336001600160a01b0390911603610ec257600254610abf338261180f565b610eb0576040516339f890b560e21b815260048101929092526020826024817f00000000000000000000000000000000000000000000000000000000000000006001600160a01b03165afa918215610ea457600092610e70575b508115610e5e57336000526009602052604060002054908115159182610e54575b5050610e46575b600254600052600860205260406000203360005260205260406000209060018060401b038711610d7d5781610b77888094611872565b859060005260206000209060005b848110610e2b5750505090610bb791600254336000526009602052604060002055600a602052806040600020556118c9565b60005b868110610bd1575050610bcc90611751565b610a1e565b6001600160a01b03610bec610be7838a896118e9565b6118b5565b16600052600590816020526040600020610c0784825461179b565b9055610c17610be7828a896118e9565b916001600160a01b03610c2e610be7848c8b6118e9565b166000526020526040600020549160018060a01b03811660005260076020526040600020541515600014610ce8576001600160a01b0316600090815260076020526040902054916000198301831061055657610ce392610ca3916001610c97600019840161157a565b50015560001901611bd1565b610cb1610be7828a896118e9565b6002549060405191858352602083015260018060a01b03169060008051602061205183398151915260403392a3611751565b610bba565b91600690815490600191825411600014610d935760405190610d098261169b565b6001600160a01b03861682526020820152825491600160401b831015610d7d5782610d3a91610d409401855561157a565b90611ba1565b549182600019810111610556576001600160a01b03166000908152600760205260409020829055610ce391610d789060001901611bd1565b610ca3565b634e487b7160e01b600052604160045260246000fd5b81610ce395929350610da3611547565b5001548111610db5575b505050610ca3565b610e0390610dc1611547565b50546001600160a01b0316600090815260076020526040808220919091555190610dea8261169b565b6001600160a01b03841682526020820152610d3a611547565b6001600160a01b0316600090815260076020526040902055610e23611c36565b888080610dad565b6001906020610e39846118b5565b9301928185015501610b85565b610e4f336118f9565b610b41565b1090508780610b3a565b604051631f05dadd60e21b8152600490fd5b9091506020813d602011610e9c575b81610e8c602093836116b6565b810103126101c457519087610b19565b3d9150610e7f565b6040513d6000823e3d90fd5b604051630ecfc01360e11b8152600490fd5b6040516359dc379f60e01b8152600490fd5b90506020813d602011610f0e575b81610eef602093836116b6565b810103126101c457516001600160a01b03811681036101c45787610aa0565b3d9150610ee2565b610f1e611e77565b610a4b565b610f2b611e77565b610a1b565b346101c45760003660031901126101c4576040517f00000000000000000000000000000000000000000000000000000000000000006001600160a01b03168152602090f35b346101c45760403660031901126101c4576001600160401b036004358181116101c457610fa69036906004016114a9565b9190602491823560035462093a8081018091116113d2574210156113c5575b6040516331a9108f60e11b8152600481018290526001600160a01b03926020917f00000000000000000000000000000000000000000000000000000000000000008516919083818981865afa908115610ea45760009161138f575b508533911603610ec25760029384549061103a338361180f565b610eb057849089604051809681936339f890b560e21b835260048301525afa928315610ea457600093611360575b508215610e5e573360005260098452604060002054908115159182611356575b5050611348575b8354600052600883526040600020336000528352604060002090881161133357806110bb898093611872565b8690600052836000209060005b838110611314575050506110f69184543360005260098552604060002055600a8452806040600020556118c9565b9360005b87811061110357005b84611112610be7838b866118e9565b166000526005808452604060002061112b88825461179b565b905561113b610be7838b866118e9565b908661114b610be7858d886118e9565b1660005284528560406000205491168060005260079081865260406000205415156000146111f95760005284526040600020549060001982019182116111e457816111a791600161119f6111df969561157a565b500155611bd1565b6111b5610be7828b866118e9565b86865491604051928a845287840152169060008051602061205183398151915260403392a3611751565b6110fa565b88634e487b7160e01b60005260116004526000fd5b91600690815460019081541160001461129a57604051916112198361169b565b85835288830152825490600160401b8210156112855781610d3a91611241949301855561157a565b549060001982019282841161127057916111df94939161126b936000528752604060002055611bd1565b6111a7565b8a634e487b7160e01b60005260116004526000fd5b8c634e487b7160e01b60005260416004526000fd5b929150926111df9493836112ac611547565b50015481116112bf575b505050506111a7565b6112f8908a6112cc611547565b50541660005283895260006040812055604051906112e98261169b565b83825289820152610d3a611547565b600052855260406000205561130b611c36565b898080806112b6565b81929350856113246001936118b5565b858301558b94930191016110c8565b86634e487b7160e01b60005260416004526000fd5b611351336118f9565b61108f565b1090508980611088565b9092508381813d8311611388575b61137881836116b6565b810103126101c457519189611068565b503d61136e565b90508381813d83116113be575b6113a681836116b6565b810103126101c4575185811681036101c45789611020565b503d61139c565b6113cd611e77565b610fc5565b84634e487b7160e01b60005260116004526000fd5b346101c45760403660031901126101c45760206102f5611405611493565b60043561180f565b346101c45760203660031901126101c4576001600160a01b0361142e61147d565b1660005260096020526020604060002054604051908152f35b346101c45760203660031901126101c4576020906001600160a01b0361146b61147d565b16600052600582526040600020548152f35b600435906001600160a01b03821682036101c457565b602435906001600160a01b03821682036101c457565b9181601f840112156101c4578235916001600160401b0383116101c4576020808501948460051b0101116101c457565b6004548110156114f457600460005260206000200190600090565b634e487b7160e01b600052603260045260246000fd5b90815180825260208080930193019160005b82811061152a575050505090565b83516001600160a01b03168552938101939281019260010161151c565b600654156114f457600660009081527ff652222313e28459528d920b65115c16c04f3efc82aaedc97be59f3f377c0d3f91565b6006548110156114f457600660005260206000209060011b0190600090565b6000546001600160a01b031633036115ad57565b606460405162461bcd60e51b815260206004820152602060248201527f4f776e61626c653a2063616c6c6572206973206e6f7420746865206f776e65726044820152fd5b6004805480835260009182526020928301927f8a35acfbc15ff81a39ae7d344fd709f28e8600b4aa8c65c6b64bfe7fe36bd19b92905b828210611635575050505090565b83546001600160a01b031685529384019360019384019390910190611627565b90815480825260208092019260005281600020916000905b82821061167b575050505090565b83546001600160a01b03168552938401936001938401939091019061166d565b604081019081106001600160401b03821117610d7d57604052565b601f909101601f19168101906001600160401b03821190821017610d7d57604052565b6001600160401b038111610d7d5760051b60200190565b906116fa826116d9565b604090611709825191826116b6565b838152809361171a601f19916116d9565b0191600090815b84811061172f575050505050565b602090825161173d8161169b565b848152828581830152828701015201611721565b60001981146105565760010190565b80518210156114f45760209160051b010190565b906040516117818161169b565b82546001600160a01b031681526001909201546020830152565b9190820180921161055657565b60035462093a8081018091116105565742101590565b6004549060005b8281106117d457505050600090565b6117dd816114d9565b905460039190911b1c6001600160a01b03908116908316146118075761180290611751565b6117c5565b505050600190565b600052600860205260406000209060018060a01b0316600052602052604060002054151590565b9190820391821161055657565b61184b6117a8565b61186d5760035462093a8081018091116105565761186a904290611836565b90565b600090565b600160401b8211610d7d5780549180825582811061188f57505050565b60009182526020822092830192015b8281106118aa57505050565b81815560010161189e565b356001600160a01b03811681036101c45790565b81156118d3570490565b634e487b7160e01b600052601260045260246000fd5b91908110156114f45760051b0190565b9060018060a01b0380921660009080825261193c602094600986526040958685205491828652600882528786208587528252611943888720895195868092611655565b03856116b6565b8351156119fe57848652600a8252611960888720548551906118c9565b93865b81518110156119f257808361197b6119e69385611760565b5116808a5260058087528c8b2080548c908b116119eb575061199e8a8254611836565b90555b818b5286526119b38c8b205482611a57565b887f2ec3099ee4f85652438af92873ee946884f821d0ddd5206be47e7f5b7125bf5b8d80518b81528a8a820152a3611751565b611963565b90556119a1565b50505050505050509050565b5050505050509050565b9190611a4157808203611a19575050565b805482546001600160a01b0319166001600160a01b0391909116178255600190810154910155565b634e487b7160e01b600052600060045260246000fd5b6001600160a01b039081166000818152600760205260408120549092908015611b9a576000199182820195828711611b8657806001611a958961157a565b500155611aa187611cf9565b15611aaf575b505050505050565b600654838101908111611b8657808703611b4a575b5050506006548015611b365701611ada8161157a565b611b22576001818580935501556006558152600760205260408120556006548110611b0a575b8080808080611aa7565b80611b17611b1c92611cf9565b611bd1565b38611b00565b634e487b7160e01b84526004849052602484fd5b634e487b7160e01b84526031600452602484fd5b611b56611b669161157a565b50611b608861157a565b90611a08565b611b6f8661157a565b505416845260076020526040842055388080611ac4565b634e487b7160e01b86526011600452602486fd5b5050505050565b9190611a4157805182546001600160a01b0319166001600160a01b03919091161782556020015160019190910155565b805b611bda5750565b600019810190808211611c2157600191821c9180611bf78361157a565b50015490611c048461157a565b5001541115611c1d5781611c1791611db5565b80611bd3565b5050565b60246000634e487b7160e01b81526011600452fd5b6006549060005b80600181811b906001600160ff1b03831683036105565780820180831161055657600283018093116105565786811080611cd8575b611cd0575b508582109081611cad575b50611ca5575b50808214611c9f5781611c9a91611db5565b611c3d565b50509050565b915038611c88565b809150611cb98361157a565b50015490611cc68561157a565b5001541138611c82565b935038611c77565b5081611ce38261157a565b50015482611cf08661157a565b50015411611c72565b90600654915b80600181811b906001600160ff1b0383168303611c2157808201808311611c215760028301809311611c215786811080611d94575b611d8c575b508582109081611d69575b50611d61575b50808214611c9f5781611d5c91611db5565b611cff565b915038611d4a565b809150611d758361157a565b50015490611d828561157a565b5001541138611d44565b935038611d39565b5081611d9f8261157a565b50015482611dac8661157a565b50015411611d34565b611de3611dc461057c8361157a565b611dda611dd08561157a565b50611b608561157a565b610d3a8461157a565b600181019081811161055657611df89061157a565b50546001600160a01b039081166000908152600760205260408120929092556001830192838111611e3e5790611e306040939261157a565b505416815260076020522055565b634e487b7160e01b83526011600452602483fd5b60045490600160401b821015610d7d57610660826001611e7594016004556114d9565b565b600480546000908183558061202c575b5060065480611f01575b50611e9d600254611751565b9182600255426003556000198301928311611eee5750507ff12154fbb3acbde4215efbfc7dff56431c667cb6d333d4e525d70f0a77e90ac06040516020815280611ee9602082016115f1565b0390a2565b634e487b7160e01b825260119052602490fd5b611f0a816116f0565b825b82811061200d5750825b828110611f715750825b828110611f2e575050611e91565b806020611f3e611f4a9385611760565b510151611f4f57611751565b611f20565b611f6c6001600160a01b03611f648386611760565b515116611e52565b611751565b60018101808211611ffa575b838110611f935750611f8e90611751565b611f16565b611fbf90602080611fa48387611760565b51015190611fb28587611760565b51015110611fc457611751565b611f7d565b611fce8385611760565b51611fd98286611760565b51611fe48587611760565b52611fef8486611760565b5061058c8286611760565b634e487b7160e01b855260118652602485fd5b8061201d61057c6120279361157a565b6105458285611760565b611f0c565b82825260208220908101905b8181106120455750611e87565b82815560010161203856fe1ed37da89ec73264fe3ff50d20d92f19845180819831a4f5dbfb4bf282f0fa578be0079c531659141344cd1fd0a4f28419497f9722a3daafe3b4186f6b6457e0a2646970667358221220f3eec142e0a91db3236d3badf0b5c439a8ec213c21354712534a284cbf1b0ef064736f6c63430008130033",
  "linkReferences": {},
  "deployedLinkReferences": {}
}