{
  "_format": "hh-sol-artifact-1",
  "contractName": "V2_EngineV1",
  "sourceName": "contracts/V2_EngineV1.sol",
  "abi": [
    {
      "inputs": [],
      "stateMutability": "nonpayable",
      "type": "constructor"
    },
    {
      "inputs": [
        {
          "internalType": "uint256",
          "name": "x",
          "type": "uint256"
        },
        {
          "internalType": "uint256",
          "name": "y",
          "type": "uint256"
        }
      ],
      "name": "PRBMath_MulDiv18_Overflow",
      "type": "error"
    },
    {
      "inputs": [
        {
          "internalType": "uint256",
          "name": "x",
          "type": "uint256"
        },
        {
          "internalType": "uint256",
          "name": "y",
          "type": "uint256"
        },
        {
          "internalType": "uint256",
          "name": "denominator",
          "type": "uint256"
        }
      ],
      "name": "PRBMath_MulDiv_Overflow",
      "type": "error"
    },
    {
      "inputs": [],
      "name": "PRBMath_SD59x18_Abs_MinSD59x18",
      "type": "error"
    },
    {
      "inputs": [],
      "name": "PRBMath_SD59x18_Div_InputTooSmall",
      "type": "error"
    },
    {
      "inputs": [
        {
          "internalType": "SD59x18",
          "name": "x",
          "type": "int256"
        },
        {
          "internalType": "SD59x18",
          "name": "y",
          "type": "int256"
        }
      ],
      "name": "PRBMath_SD59x18_Div_Overflow",
      "type": "error"
    },
    {
      "inputs": [
        {
          "internalType": "SD59x18",
          "name": "x",
          "type": "int256"
        }
      ],
      "name": "PRBMath_SD59x18_Exp2_InputTooBig",
      "type": "error"
    },
    {
      "inputs": [],
      "name": "PRBMath_SD59x18_Mul_InputTooSmall",
      "type": "error"
    },
    {
      "inputs": [
        {
          "internalType": "SD59x18",
          "name": "x",
          "type": "int256"
        },
        {
          "internalType": "SD59x18",
          "name": "y",
          "type": "int256"
        }
      ],
      "name": "PRBMath_SD59x18_Mul_Overflow",
      "type": "error"
    },
    {
      "inputs": [
        {
          "internalType": "UD60x18",
          "name": "x",
          "type": "uint256"
        }
      ],
      "name": "PRBMath_UD60x18_Exp2_InputTooBig",
      "type": "error"
    },
    {
      "anonymous": false,
      "inputs": [
        {
          "indexed": true,
          "internalType": "address",
          "name": "addr",
          "type": "address"
        },
        {
          "indexed": true,
          "internalType": "bytes32",
          "name": "task",
          "type": "bytes32"
        }
      ],
      "name": "ContestationSubmitted",
      "type": "event"
    },
    {
      "anonymous": false,
      "inputs": [
        {
          "indexed": true,
          "internalType": "address",
          "name": "addr",
          "type": "address"
        },
        {
          "indexed": true,
          "internalType": "bytes32",
          "name": "task",
          "type": "bytes32"
        },
        {
          "indexed": false,
          "internalType": "bool",
          "name": "yea",
          "type": "bool"
        }
      ],
      "name": "ContestationVote",
      "type": "event"
    },
    {
      "anonymous": false,
      "inputs": [
        {
          "indexed": true,
          "internalType": "bytes32",
          "name": "id",
          "type": "bytes32"
        },
        {
          "indexed": true,
          "internalType": "uint32",
          "name": "start_idx",
          "type": "uint32"
        },
        {
          "indexed": false,
          "internalType": "uint32",
          "name": "end_idx",
          "type": "uint32"
        }
      ],
      "name": "ContestationVoteFinish",
      "type": "event"
    },
    {
      "anonymous": false,
      "inputs": [
        {
          "indexed": true,
          "internalType": "uint256",
          "name": "amount",
          "type": "uint256"
        }
      ],
      "name": "ExitValidatorMinUnlockTimeChanged",
      "type": "event"
    },
    {
      "anonymous": false,
      "inputs": [
        {
          "indexed": false,
          "internalType": "uint8",
          "name": "version",
          "type": "uint8"
        }
      ],
      "name": "Initialized",
      "type": "event"
    },
    {
      "anonymous": false,
      "inputs": [
        {
          "indexed": true,
          "internalType": "uint256",
          "name": "amount",
          "type": "uint256"
        }
      ],
      "name": "MaxContestationValidatorStakeSinceChanged",
      "type": "event"
    },
    {
      "anonymous": false,
      "inputs": [
        {
          "indexed": true,
          "internalType": "uint256",
          "name": "amount",
          "type": "uint256"
        }
      ],
      "name": "MinClaimSolutionTimeChanged",
      "type": "event"
    },
    {
      "anonymous": false,
      "inputs": [
        {
          "indexed": true,
          "internalType": "uint256",
          "name": "amount",
          "type": "uint256"
        }
      ],
      "name": "MinContestationVotePeriodTimeChanged",
      "type": "event"
    },
    {
      "anonymous": false,
      "inputs": [
        {
          "indexed": true,
          "internalType": "uint256",
          "name": "amount",
          "type": "uint256"
        }
      ],
      "name": "MinRetractionWaitTimeChanged",
      "type": "event"
    },
    {
      "anonymous": false,
      "inputs": [
        {
          "indexed": true,
          "internalType": "bytes32",
          "name": "id",
          "type": "bytes32"
        }
      ],
      "name": "ModelRegistered",
      "type": "event"
    },
    {
      "anonymous": false,
      "inputs": [
        {
          "indexed": true,
          "internalType": "address",
          "name": "previousOwner",
          "type": "address"
        },
        {
          "indexed": true,
          "internalType": "address",
          "name": "newOwner",
          "type": "address"
        }
      ],
      "name": "OwnershipTransferred",
      "type": "event"
    },
    {
      "anonymous": false,
      "inputs": [
        {
          "indexed": true,
          "internalType": "bool",
          "name": "paused",
          "type": "bool"
        }
      ],
      "name": "PausedChanged",
      "type": "event"
    },
    {
      "anonymous": false,
      "inputs": [
        {
          "indexed": true,
          "internalType": "address",
          "name": "to",
          "type": "address"
        }
      ],
      "name": "PauserTransferred",
      "type": "event"
    },
    {
      "anonymous": false,
      "inputs": [
        {
          "indexed": true,
          "internalType": "uint256",
          "name": "amount",
          "type": "uint256"
        }
      ],
      "name": "RetractionFeePercentageChanged",
      "type": "event"
    },
    {
      "anonymous": false,
      "inputs": [
        {
          "indexed": true,
          "internalType": "address",
          "name": "addr",
          "type": "address"
        },
        {
          "indexed": true,
          "internalType": "bytes32",
          "name": "commitment",
          "type": "bytes32"
        }
      ],
      "name": "SignalCommitment",
      "type": "event"
    },
    {
      "anonymous": false,
      "inputs": [
        {
          "indexed": true,
          "internalType": "address",
          "name": "addr",
          "type": "address"
        },
        {
          "indexed": true,
          "internalType": "bytes32",
          "name": "model",
          "type": "bytes32"
        },
        {
          "indexed": false,
          "internalType": "bool",
          "name": "supported",
          "type": "bool"
        }
      ],
      "name": "SignalSupport",
      "type": "event"
    },
    {
      "anonymous": false,
      "inputs": [
        {
          "indexed": true,
          "internalType": "uint256",
          "name": "amount",
          "type": "uint256"
        }
      ],
      "name": "SlashAmountPercentageChanged",
      "type": "event"
    },
    {
      "anonymous": false,
      "inputs": [
        {
          "indexed": true,
          "internalType": "address",
          "name": "addr",
          "type": "address"
        },
        {
          "indexed": true,
          "internalType": "bytes32",
          "name": "task",
          "type": "bytes32"
        }
      ],
      "name": "SolutionClaimed",
      "type": "event"
    },
    {
      "anonymous": false,
      "inputs": [
        {
          "indexed": true,
          "internalType": "uint256",
          "name": "amount",
          "type": "uint256"
        }
      ],
      "name": "SolutionFeePercentageChanged",
      "type": "event"
    },
    {
      "anonymous": false,
      "inputs": [
        {
          "indexed": true,
          "internalType": "bytes32",
          "name": "id",
          "type": "bytes32"
        },
        {
          "indexed": false,
          "internalType": "uint256",
          "name": "rate",
          "type": "uint256"
        }
      ],
      "name": "SolutionMineableRateChange",
      "type": "event"
    },
    {
      "anonymous": false,
      "inputs": [
        {
          "indexed": true,
          "internalType": "address",
          "name": "addr",
          "type": "address"
        },
        {
          "indexed": true,
          "internalType": "bytes32",
          "name": "task",
          "type": "bytes32"
        }
      ],
      "name": "SolutionSubmitted",
      "type": "event"
    },
    {
      "anonymous": false,
      "inputs": [
        {
          "indexed": true,
          "internalType": "bytes32",
          "name": "id",
          "type": "bytes32"
        }
      ],
      "name": "TaskRetracted",
      "type": "event"
    },
    {
      "anonymous": false,
      "inputs": [
        {
          "indexed": true,
          "internalType": "bytes32",
          "name": "id",
          "type": "bytes32"
        },
        {
          "indexed": true,
          "internalType": "bytes32",
          "name": "model",
          "type": "bytes32"
        },
        {
          "indexed": false,
          "internalType": "uint256",
          "name": "fee",
          "type": "uint256"
        },
        {
          "indexed": true,
          "internalType": "address",
          "name": "sender",
          "type": "address"
        }
      ],
      "name": "TaskSubmitted",
      "type": "event"
    },
    {
      "anonymous": false,
      "inputs": [
        {
          "indexed": true,
          "internalType": "uint256",
          "name": "amount",
          "type": "uint256"
        }
      ],
      "name": "TreasuryRewardPercentageChanged",
      "type": "event"
    },
    {
      "anonymous": false,
      "inputs": [
        {
          "indexed": true,
          "internalType": "address",
          "name": "to",
          "type": "address"
        }
      ],
      "name": "TreasuryTransferred",
      "type": "event"
    },
    {
      "anonymous": false,
      "inputs": [
        {
          "indexed": true,
          "internalType": "address",
          "name": "addr",
          "type": "address"
        },
        {
          "indexed": true,
          "internalType": "address",
          "name": "validator",
          "type": "address"
        },
        {
          "indexed": false,
          "internalType": "uint256",
          "name": "amount",
          "type": "uint256"
        }
      ],
      "name": "ValidatorDeposit",
      "type": "event"
    },
    {
      "anonymous": false,
      "inputs": [
        {
          "indexed": true,
          "internalType": "uint256",
          "name": "amount",
          "type": "uint256"
        }
      ],
      "name": "ValidatorMinimumPercentageChanged",
      "type": "event"
    },
    {
      "anonymous": false,
      "inputs": [
        {
          "indexed": true,
          "internalType": "address",
          "name": "addr",
          "type": "address"
        },
        {
          "indexed": true,
          "internalType": "address",
          "name": "to",
          "type": "address"
        },
        {
          "indexed": true,
          "internalType": "uint256",
          "name": "count",
          "type": "uint256"
        },
        {
          "indexed": false,
          "internalType": "uint256",
          "name": "amount",
          "type": "uint256"
        }
      ],
      "name": "ValidatorWithdraw",
      "type": "event"
    },
    {
      "anonymous": false,
      "inputs": [
        {
          "indexed": true,
          "internalType": "address",
          "name": "addr",
          "type": "address"
        },
        {
          "indexed": true,
          "internalType": "uint256",
          "name": "count",
          "type": "uint256"
        }
      ],
      "name": "ValidatorWithdrawCancelled",
      "type": "event"
    },
    {
      "anonymous": false,
      "inputs": [
        {
          "indexed": true,
          "internalType": "address",
          "name": "addr",
          "type": "address"
        },
        {
          "indexed": true,
          "internalType": "uint256",
          "name": "count",
          "type": "uint256"
        },
        {
          "indexed": false,
          "internalType": "uint256",
          "name": "unlockTime",
          "type": "uint256"
        },
        {
          "indexed": false,
          "internalType": "uint256",
          "name": "amount",
          "type": "uint256"
        }
      ],
      "name": "ValidatorWithdrawInitiated",
      "type": "event"
    },
    {
      "anonymous": false,
      "inputs": [
        {
          "indexed": false,
          "internalType": "uint256",
          "name": "version",
          "type": "uint256"
        }
      ],
      "name": "VersionChanged",
      "type": "event"
    },
    {
      "inputs": [],
      "name": "accruedFees",
      "outputs": [
        {
          "internalType": "uint256",
          "name": "",
          "type": "uint256"
        }
      ],
      "stateMutability": "view",
      "type": "function"
    },
    {
      "inputs": [],
      "name": "baseToken",
      "outputs": [
        {
          "internalType": "contract IBaseToken",
          "name": "",
          "type": "address"
        }
      ],
      "stateMutability": "view",
      "type": "function"
    },
    {
      "inputs": [
        {
          "internalType": "uint256",
          "name": "count_",
          "type": "uint256"
        }
      ],
      "name": "cancelValidatorWithdraw",
      "outputs": [],
      "stateMutability": "nonpayable",
      "type": "function"
    },
    {
      "inputs": [
        {
          "internalType": "bytes32",
          "name": "taskid_",
          "type": "bytes32"
        }
      ],
      "name": "claimSolution",
      "outputs": [],
      "stateMutability": "nonpayable",
      "type": "function"
    },
    {
      "inputs": [
        {
          "internalType": "bytes32",
          "name": "",
          "type": "bytes32"
        }
      ],
      "name": "commitments",
      "outputs": [
        {
          "internalType": "uint256",
          "name": "",
          "type": "uint256"
        }
      ],
      "stateMutability": "view",
      "type": "function"
    },
    {
      "inputs": [
        {
          "internalType": "bytes32",
          "name": "taskid_",
          "type": "bytes32"
        },
        {
          "internalType": "uint32",
          "name": "amnt_",
          "type": "uint32"
        }
      ],
      "name": "contestationVoteFinish",
      "outputs": [],
      "stateMutability": "nonpayable",
      "type": "function"
    },
    {
      "inputs": [
        {
          "internalType": "bytes32",
          "name": "",
          "type": "bytes32"
        },
        {
          "internalType": "uint256",
          "name": "",
          "type": "uint256"
        }
      ],
      "name": "contestationVoteNays",
      "outputs": [
        {
          "internalType": "address",
          "name": "",
          "type": "address"
        }
      ],
      "stateMutability": "view",
      "type": "function"
    },
    {
      "inputs": [
        {
          "internalType": "bytes32",
          "name": "",
          "type": "bytes32"
        },
        {
          "internalType": "uint256",
          "name": "",
          "type": "uint256"
        }
      ],
      "name": "contestationVoteYeas",
      "outputs": [
        {
          "internalType": "address",
          "name": "",
          "type": "address"
        }
      ],
      "stateMutability": "view",
      "type": "function"
    },
    {
      "inputs": [
        {
          "internalType": "bytes32",
          "name": "",
          "type": "bytes32"
        },
        {
          "internalType": "address",
          "name": "",
          "type": "address"
        }
      ],
      "name": "contestationVoted",
      "outputs": [
        {
          "internalType": "bool",
          "name": "",
          "type": "bool"
        }
      ],
      "stateMutability": "view",
      "type": "function"
    },
    {
      "inputs": [
        {
          "internalType": "bytes32",
          "name": "",
          "type": "bytes32"
        }
      ],
      "name": "contestationVotedIndex",
      "outputs": [
        {
          "internalType": "uint256",
          "name": "",
          "type": "uint256"
        }
      ],
      "stateMutability": "view",
      "type": "function"
    },
    {
      "inputs": [
        {
          "internalType": "bytes32",
          "name": "",
          "type": "bytes32"
        }
      ],
      "name": "contestations",
      "outputs": [
        {
          "internalType": "address",
          "name": "validator",
          "type": "address"
        },
        {
          "internalType": "uint64",
          "name": "blocktime",
          "type": "uint64"
        },
        {
          "internalType": "uint32",
          "name": "finish_start_index",
          "type": "uint32"
        },
        {
          "internalType": "uint256",
          "name": "slashAmount",
          "type": "uint256"
        }
      ],
      "stateMutability": "view",
      "type": "function"
    },
    {
      "inputs": [
        {
          "internalType": "uint256",
          "name": "t",
          "type": "uint256"
        },
        {
          "internalType": "uint256",
          "name": "ts",
          "type": "uint256"
        }
      ],
      "name": "diffMul",
      "outputs": [
        {
          "internalType": "uint256",
          "name": "",
          "type": "uint256"
        }
      ],
      "stateMutability": "pure",
      "type": "function"
    },
    {
      "inputs": [],
      "name": "exitValidatorMinUnlockTime",
      "outputs": [
        {
          "internalType": "uint256",
          "name": "",
          "type": "uint256"
        }
      ],
      "stateMutability": "view",
      "type": "function"
    },
    {
      "inputs": [
        {
          "internalType": "address",
          "name": "sender_",
          "type": "address"
        },
        {
          "internalType": "bytes32",
          "name": "taskid_",
          "type": "bytes32"
        },
        {
          "internalType": "bytes",
          "name": "cid_",
          "type": "bytes"
        }
      ],
      "name": "generateCommitment",
      "outputs": [
        {
          "internalType": "bytes32",
          "name": "",
          "type": "bytes32"
        }
      ],
      "stateMutability": "pure",
      "type": "function"
    },
    {
      "inputs": [
        {
          "internalType": "bytes",
          "name": "content_",
          "type": "bytes"
        }
      ],
      "name": "generateIPFSCID",
      "outputs": [
        {
          "internalType": "bytes",
          "name": "",
          "type": "bytes"
        }
      ],
      "stateMutability": "pure",
      "type": "function"
    },
    {
      "inputs": [],
      "name": "getPsuedoTotalSupply",
      "outputs": [
        {
          "internalType": "uint256",
          "name": "",
          "type": "uint256"
        }
      ],
      "stateMutability": "view",
      "type": "function"
    },
    {
      "inputs": [],
      "name": "getReward",
      "outputs": [
        {
          "internalType": "uint256",
          "name": "",
          "type": "uint256"
        }
      ],
      "stateMutability": "view",
      "type": "function"
    },
    {
      "inputs": [],
      "name": "getSlashAmount",
      "outputs": [
        {
          "internalType": "uint256",
          "name": "",
          "type": "uint256"
        }
      ],
      "stateMutability": "view",
      "type": "function"
    },
    {
      "inputs": [],
      "name": "getValidatorMinimum",
      "outputs": [
        {
          "internalType": "uint256",
          "name": "",
          "type": "uint256"
        }
      ],
      "stateMutability": "view",
      "type": "function"
    },
    {
      "inputs": [
        {
          "components": [
            {
              "internalType": "uint256",
              "name": "fee",
              "type": "uint256"
            },
            {
              "internalType": "address",
              "name": "addr",
              "type": "address"
            },
            {
              "internalType": "uint256",
              "name": "rate",
              "type": "uint256"
            },
            {
              "internalType": "bytes",
              "name": "cid",
              "type": "bytes"
            }
          ],
          "internalType": "struct Model",
          "name": "o_",
          "type": "tuple"
        },
        {
          "internalType": "address",
          "name": "sender_",
          "type": "address"
        }
      ],
      "name": "hashModel",
      "outputs": [
        {
          "internalType": "bytes32",
          "name": "",
          "type": "bytes32"
        }
      ],
      "stateMutability": "pure",
      "type": "function"
    },
    {
      "inputs": [
        {
          "components": [
            {
              "internalType": "bytes32",
              "name": "model",
              "type": "bytes32"
            },
            {
              "internalType": "uint256",
              "name": "fee",
              "type": "uint256"
            },
            {
              "internalType": "address",
              "name": "owner",
              "type": "address"
            },
            {
              "internalType": "uint64",
              "name": "blocktime",
              "type": "uint64"
            },
            {
              "internalType": "uint8",
              "name": "version",
              "type": "uint8"
            },
            {
              "internalType": "bytes",
              "name": "cid",
              "type": "bytes"
            }
          ],
          "internalType": "struct Task",
          "name": "o_",
          "type": "tuple"
        },
        {
          "internalType": "address",
          "name": "sender_",
          "type": "address"
        },
        {
          "internalType": "bytes32",
          "name": "prevhash_",
          "type": "bytes32"
        }
      ],
      "name": "hashTask",
      "outputs": [
        {
          "internalType": "bytes32",
          "name": "",
          "type": "bytes32"
        }
      ],
      "stateMutability": "pure",
      "type": "function"
    },
    {
      "inputs": [
        {
          "internalType": "contract IBaseToken",
          "name": "baseToken_",
          "type": "address"
        },
        {
          "internalType": "address",
          "name": "treasury_",
          "type": "address"
        }
      ],
      "name": "initialize",
      "outputs": [],
      "stateMutability": "nonpayable",
      "type": "function"
    },
    {
      "inputs": [
        {
          "internalType": "uint256",
          "name": "amount_",
          "type": "uint256"
        }
      ],
      "name": "initiateValidatorWithdraw",
      "outputs": [
        {
          "internalType": "uint256",
          "name": "",
          "type": "uint256"
        }
      ],
      "stateMutability": "nonpayable",
      "type": "function"
    },
    {
      "inputs": [],
      "name": "maxContestationValidatorStakeSince",
      "outputs": [
        {
          "internalType": "uint256",
          "name": "",
          "type": "uint256"
        }
      ],
      "stateMutability": "view",
      "type": "function"
    },
    {
      "inputs": [
        {
          "internalType": "address",
          "name": "engine_",
          "type": "address"
        },
        {
          "internalType": "address",
          "name": "validator_",
          "type": "address"
        }
      ],
      "name": "migrateValidator",
      "outputs": [],
      "stateMutability": "nonpayable",
      "type": "function"
    },
    {
      "inputs": [],
      "name": "minClaimSolutionTime",
      "outputs": [
        {
          "internalType": "uint256",
          "name": "",
          "type": "uint256"
        }
      ],
      "stateMutability": "view",
      "type": "function"
    },
    {
      "inputs": [],
      "name": "minContestationVotePeriodTime",
      "outputs": [
        {
          "internalType": "uint256",
          "name": "",
          "type": "uint256"
        }
      ],
      "stateMutability": "view",
      "type": "function"
    },
    {
      "inputs": [],
      "name": "minRetractionWaitTime",
      "outputs": [
        {
          "internalType": "uint256",
          "name": "",
          "type": "uint256"
        }
      ],
      "stateMutability": "view",
      "type": "function"
    },
    {
      "inputs": [
        {
          "internalType": "bytes32",
          "name": "",
          "type": "bytes32"
        }
      ],
      "name": "models",
      "outputs": [
        {
          "internalType": "uint256",
          "name": "fee",
          "type": "uint256"
        },
        {
          "internalType": "address",
          "name": "addr",
          "type": "address"
        },
        {
          "internalType": "uint256",
          "name": "rate",
          "type": "uint256"
        },
        {
          "internalType": "bytes",
          "name": "cid",
          "type": "bytes"
        }
      ],
      "stateMutability": "view",
      "type": "function"
    },
    {
      "inputs": [],
      "name": "owner",
      "outputs": [
        {
          "internalType": "address",
          "name": "",
          "type": "address"
        }
      ],
      "stateMutability": "view",
      "type": "function"
    },
    {
      "inputs": [],
      "name": "paused",
      "outputs": [
        {
          "internalType": "bool",
          "name": "",
          "type": "bool"
        }
      ],
      "stateMutability": "view",
      "type": "function"
    },
    {
      "inputs": [],
      "name": "pauser",
      "outputs": [
        {
          "internalType": "address",
          "name": "",
          "type": "address"
        }
      ],
      "stateMutability": "view",
      "type": "function"
    },
    {
      "inputs": [
        {
          "internalType": "address",
          "name": "",
          "type": "address"
        },
        {
          "internalType": "uint256",
          "name": "",
          "type": "uint256"
        }
      ],
      "name": "pendingValidatorWithdrawRequests",
      "outputs": [
        {
          "internalType": "uint256",
          "name": "unlockTime",
          "type": "uint256"
        },
        {
          "internalType": "uint256",
          "name": "amount",
          "type": "uint256"
        }
      ],
      "stateMutability": "view",
      "type": "function"
    },
    {
      "inputs": [
        {
          "internalType": "address",
          "name": "",
          "type": "address"
        }
      ],
      "name": "pendingValidatorWithdrawRequestsCount",
      "outputs": [
        {
          "internalType": "uint256",
          "name": "",
          "type": "uint256"
        }
      ],
      "stateMutability": "view",
      "type": "function"
    },
    {
      "inputs": [],
      "name": "prevhash",
      "outputs": [
        {
          "internalType": "bytes32",
          "name": "",
          "type": "bytes32"
        }
      ],
      "stateMutability": "view",
      "type": "function"
    },
    {
      "inputs": [
        {
          "internalType": "address",
          "name": "addr_",
          "type": "address"
        },
        {
          "internalType": "uint256",
          "name": "fee_",
          "type": "uint256"
        },
        {
          "internalType": "bytes",
          "name": "template_",
          "type": "bytes"
        }
      ],
      "name": "registerModel",
      "outputs": [
        {
          "internalType": "bytes32",
          "name": "",
          "type": "bytes32"
        }
      ],
      "stateMutability": "nonpayable",
      "type": "function"
    },
    {
      "inputs": [],
      "name": "renounceOwnership",
      "outputs": [],
      "stateMutability": "nonpayable",
      "type": "function"
    },
    {
      "inputs": [
        {
          "internalType": "bytes32",
          "name": "taskid_",
          "type": "bytes32"
        }
      ],
      "name": "retractTask",
      "outputs": [],
      "stateMutability": "nonpayable",
      "type": "function"
    },
    {
      "inputs": [],
      "name": "retractionFeePercentage",
      "outputs": [
        {
          "internalType": "uint256",
          "name": "",
          "type": "uint256"
        }
      ],
      "stateMutability": "view",
      "type": "function"
    },
    {
      "inputs": [
        {
          "internalType": "uint256",
          "name": "t",
          "type": "uint256"
        },
        {
          "internalType": "uint256",
          "name": "ts",
          "type": "uint256"
        }
      ],
      "name": "reward",
      "outputs": [
        {
          "internalType": "uint256",
          "name": "",
          "type": "uint256"
        }
      ],
      "stateMutability": "pure",
      "type": "function"
    },
    {
      "inputs": [
        {
          "internalType": "uint256",
          "name": "amount_",
          "type": "uint256"
        }
      ],
      "name": "setExitValidatorMinUnlockTime",
      "outputs": [],
      "stateMutability": "nonpayable",
      "type": "function"
    },
    {
      "inputs": [
        {
          "internalType": "uint256",
          "name": "amount_",
          "type": "uint256"
        }
      ],
      "name": "setMaxContestationValidatorStakeSince",
      "outputs": [],
      "stateMutability": "nonpayable",
      "type": "function"
    },
    {
      "inputs": [
        {
          "internalType": "uint256",
          "name": "amount_",
          "type": "uint256"
        }
      ],
      "name": "setMinClaimSolutionTime",
      "outputs": [],
      "stateMutability": "nonpayable",
      "type": "function"
    },
    {
      "inputs": [
        {
          "internalType": "uint256",
          "name": "amount_",
          "type": "uint256"
        }
      ],
      "name": "setMinContestationVotePeriodTime",
      "outputs": [],
      "stateMutability": "nonpayable",
      "type": "function"
    },
    {
      "inputs": [
        {
          "internalType": "uint256",
          "name": "amount_",
          "type": "uint256"
        }
      ],
      "name": "setMinRetractionWaitTime",
      "outputs": [],
      "stateMutability": "nonpayable",
      "type": "function"
    },
    {
      "inputs": [
        {
          "internalType": "bool",
          "name": "paused_",
          "type": "bool"
        }
      ],
      "name": "setPaused",
      "outputs": [],
      "stateMutability": "nonpayable",
      "type": "function"
    },
    {
      "inputs": [
        {
          "internalType": "uint256",
          "name": "amount_",
          "type": "uint256"
        }
      ],
      "name": "setRetractionFeePercentage",
      "outputs": [],
      "stateMutability": "nonpayable",
      "type": "function"
    },
    {
      "inputs": [
        {
          "internalType": "uint256",
          "name": "amount_",
          "type": "uint256"
        }
      ],
      "name": "setSlashAmountPercentage",
      "outputs": [],
      "stateMutability": "nonpayable",
      "type": "function"
    },
    {
      "inputs": [
        {
          "internalType": "uint256",
          "name": "amount_",
          "type": "uint256"
        }
      ],
      "name": "setSolutionFeePercentage",
      "outputs": [],
      "stateMutability": "nonpayable",
      "type": "function"
    },
    {
      "inputs": [
        {
          "internalType": "bytes32",
          "name": "model_",
          "type": "bytes32"
        },
        {
          "internalType": "uint256",
          "name": "rate_",
          "type": "uint256"
        }
      ],
      "name": "setSolutionMineableRate",
      "outputs": [],
      "stateMutability": "nonpayable",
      "type": "function"
    },
    {
      "inputs": [
        {
          "internalType": "uint256",
          "name": "amount_",
          "type": "uint256"
        }
      ],
      "name": "setTreasuryRewardPercentage",
      "outputs": [],
      "stateMutability": "nonpayable",
      "type": "function"
    },
    {
      "inputs": [
        {
          "internalType": "uint256",
          "name": "amount_",
          "type": "uint256"
        }
      ],
      "name": "setValidatorMinimumPercentage",
      "outputs": [],
      "stateMutability": "nonpayable",
      "type": "function"
    },
    {
      "inputs": [
        {
          "internalType": "uint256",
          "name": "version_",
          "type": "uint256"
        }
      ],
      "name": "setVersion",
      "outputs": [],
      "stateMutability": "nonpayable",
      "type": "function"
    },
    {
      "inputs": [
        {
          "internalType": "bytes32",
          "name": "commitment_",
          "type": "bytes32"
        }
      ],
      "name": "signalCommitment",
      "outputs": [],
      "stateMutability": "nonpayable",
      "type": "function"
    },
    {
      "inputs": [
        {
          "internalType": "bytes32",
          "name": "model_",
          "type": "bytes32"
        },
        {
          "internalType": "bool",
          "name": "support_",
          "type": "bool"
        }
      ],
      "name": "signalSupport",
      "outputs": [],
      "stateMutability": "nonpayable",
      "type": "function"
    },
    {
      "inputs": [],
      "name": "slashAmountPercentage",
      "outputs": [
        {
          "internalType": "uint256",
          "name": "",
          "type": "uint256"
        }
      ],
      "stateMutability": "view",
      "type": "function"
    },
    {
      "inputs": [],
      "name": "solutionFeePercentage",
      "outputs": [
        {
          "internalType": "uint256",
          "name": "",
          "type": "uint256"
        }
      ],
      "stateMutability": "view",
      "type": "function"
    },
    {
      "inputs": [
        {
          "internalType": "bytes32",
          "name": "",
          "type": "bytes32"
        }
      ],
      "name": "solutions",
      "outputs": [
        {
          "internalType": "address",
          "name": "validator",
          "type": "address"
        },
        {
          "internalType": "uint64",
          "name": "blocktime",
          "type": "uint64"
        },
        {
          "internalType": "bool",
          "name": "claimed",
          "type": "bool"
        },
        {
          "internalType": "bytes",
          "name": "cid",
          "type": "bytes"
        }
      ],
      "stateMutability": "view",
      "type": "function"
    },
    {
      "inputs": [],
      "name": "startBlockTime",
      "outputs": [
        {
          "internalType": "uint64",
          "name": "",
          "type": "uint64"
        }
      ],
      "stateMutability": "view",
      "type": "function"
    },
    {
      "inputs": [
        {
          "internalType": "bytes32",
          "name": "taskid_",
          "type": "bytes32"
        }
      ],
      "name": "submitContestation",
      "outputs": [],
      "stateMutability": "nonpayable",
      "type": "function"
    },
    {
      "inputs": [
        {
          "internalType": "bytes32",
          "name": "taskid_",
          "type": "bytes32"
        },
        {
          "internalType": "bytes",
          "name": "cid_",
          "type": "bytes"
        }
      ],
      "name": "submitSolution",
      "outputs": [],
      "stateMutability": "nonpayable",
      "type": "function"
    },
    {
      "inputs": [
        {
          "internalType": "uint8",
          "name": "version_",
          "type": "uint8"
        },
        {
          "internalType": "address",
          "name": "owner_",
          "type": "address"
        },
        {
          "internalType": "bytes32",
          "name": "model_",
          "type": "bytes32"
        },
        {
          "internalType": "uint256",
          "name": "fee_",
          "type": "uint256"
        },
        {
          "internalType": "bytes",
          "name": "input_",
          "type": "bytes"
        }
      ],
      "name": "submitTask",
      "outputs": [
        {
          "internalType": "bytes32",
          "name": "",
          "type": "bytes32"
        }
      ],
      "stateMutability": "nonpayable",
      "type": "function"
    },
    {
      "inputs": [
        {
          "internalType": "uint256",
          "name": "t",
          "type": "uint256"
        }
      ],
      "name": "targetTs",
      "outputs": [
        {
          "internalType": "uint256",
          "name": "",
          "type": "uint256"
        }
      ],
      "stateMutability": "pure",
      "type": "function"
    },
    {
      "inputs": [
        {
          "internalType": "bytes32",
          "name": "",
          "type": "bytes32"
        }
      ],
      "name": "tasks",
      "outputs": [
        {
          "internalType": "bytes32",
          "name": "model",
          "type": "bytes32"
        },
        {
          "internalType": "uint256",
          "name": "fee",
          "type": "uint256"
        },
        {
          "internalType": "address",
          "name": "owner",
          "type": "address"
        },
        {
          "internalType": "uint64",
          "name": "blocktime",
          "type": "uint64"
        },
        {
          "internalType": "uint8",
          "name": "version",
          "type": "uint8"
        },
        {
          "internalType": "bytes",
          "name": "cid",
          "type": "bytes"
        }
      ],
      "stateMutability": "view",
      "type": "function"
    },
    {
      "inputs": [
        {
          "internalType": "address",
          "name": "to_",
          "type": "address"
        }
      ],
      "name": "transferOwnership",
      "outputs": [],
      "stateMutability": "nonpayable",
      "type": "function"
    },
    {
      "inputs": [
        {
          "internalType": "address",
          "name": "to_",
          "type": "address"
        }
      ],
      "name": "transferPauser",
      "outputs": [],
      "stateMutability": "nonpayable",
      "type": "function"
    },
    {
      "inputs": [
        {
          "internalType": "address",
          "name": "to_",
          "type": "address"
        }
      ],
      "name": "transferTreasury",
      "outputs": [],
      "stateMutability": "nonpayable",
      "type": "function"
    },
    {
      "inputs": [],
      "name": "treasury",
      "outputs": [
        {
          "internalType": "address",
          "name": "",
          "type": "address"
        }
      ],
      "stateMutability": "view",
      "type": "function"
    },
    {
      "inputs": [],
      "name": "treasuryRewardPercentage",
      "outputs": [
        {
          "internalType": "uint256",
          "name": "",
          "type": "uint256"
        }
      ],
      "stateMutability": "view",
      "type": "function"
    },
    {
      "inputs": [
        {
          "internalType": "address",
          "name": "addr_",
          "type": "address"
        },
        {
          "internalType": "bytes32",
          "name": "taskid_",
          "type": "bytes32"
        }
      ],
      "name": "validatorCanVote",
      "outputs": [
        {
          "internalType": "uint256",
          "name": "",
          "type": "uint256"
        }
      ],
      "stateMutability": "view",
      "type": "function"
    },
    {
      "inputs": [
        {
          "internalType": "address",
          "name": "validator_",
          "type": "address"
        },
        {
          "internalType": "uint256",
          "name": "amount_",
          "type": "uint256"
        }
      ],
      "name": "validatorDeposit",
      "outputs": [],
      "stateMutability": "nonpayable",
      "type": "function"
    },
    {
      "inputs": [],
      "name": "validatorMinimumPercentage",
      "outputs": [
        {
          "internalType": "uint256",
          "name": "",
          "type": "uint256"
        }
      ],
      "stateMutability": "view",
      "type": "function"
    },
    {
      "inputs": [
        {
          "internalType": "uint256",
          "name": "count_",
          "type": "uint256"
        },
        {
          "internalType": "address",
          "name": "to_",
          "type": "address"
        }
      ],
      "name": "validatorWithdraw",
      "outputs": [],
      "stateMutability": "nonpayable",
      "type": "function"
    },
    {
      "inputs": [
        {
          "internalType": "address",
          "name": "",
          "type": "address"
        }
      ],
      "name": "validatorWithdrawPendingAmount",
      "outputs": [
        {
          "internalType": "uint256",
          "name": "",
          "type": "uint256"
        }
      ],
      "stateMutability": "view",
      "type": "function"
    },
    {
      "inputs": [
        {
          "internalType": "address",
          "name": "",
          "type": "address"
        }
      ],
      "name": "validators",
      "outputs": [
        {
          "internalType": "uint256",
          "name": "staked",
          "type": "uint256"
        },
        {
          "internalType": "uint256",
          "name": "since",
          "type": "uint256"
        },
        {
          "internalType": "address",
          "name": "addr",
          "type": "address"
        }
      ],
      "stateMutability": "view",
      "type": "function"
    },
    {
      "inputs": [],
      "name": "version",
      "outputs": [
        {
          "internalType": "uint256",
          "name": "",
          "type": "uint256"
        }
      ],
      "stateMutability": "view",
      "type": "function"
    },
    {
      "inputs": [
        {
          "internalType": "bytes32",
          "name": "taskid_",
          "type": "bytes32"
        },
        {
          "internalType": "bool",
          "name": "yea_",
          "type": "bool"
        }
      ],
      "name": "voteOnContestation",
      "outputs": [],
      "stateMutability": "nonpayable",
      "type": "function"
    },
    {
      "inputs": [],
      "name": "withdrawAccruedFees",
      "outputs": [],
      "stateMutability": "nonpayable",
      "type": "function"
    }
  ],
  "bytecode": "0x60806040523480156200001157600080fd5b506200001c62000022565b620000e3565b600054610100900460ff16156200008f5760405162461bcd60e51b815260206004820152602760248201527f496e697469616c697a61626c653a20636f6e747261637420697320696e697469604482015266616c697a696e6760c81b606482015260840160405180910390fd5b60005460ff90811614620000e1576000805460ff191660ff9081179091556040519081527f7f26b83ff96e1f2b6a682f133852f6798a09c465da95921460cefb38474024989060200160405180910390a15b565b615c8c80620000f36000396000f3fe608060405234801561001057600080fd5b50600436106104685760003560e01c8063763253bb1161024c578063ada82c7d11610146578063d2780940116100c3578063e236f46b11610087578063e236f46b14610a8e578063e579f50014610ab1578063f1b8989d14610ad6578063f2fde38b14610adf578063fa52c7d814610af257600080fd5b8063d27809401461096e578063d2992baa1461099c578063d33b2ef5146109e3578063d8a6021c14610a72578063dc06a89f14610a8557600080fd5b8063c55dae631161010a578063c55dae6314610902578063cbd2422d14610915578063cf596e4514610928578063d1f0c9411461093b578063d2307ae41461094e57600080fd5b8063ada82c7d146108c2578063b66badbf146108ca578063c17ddb2a146108dd578063c31784be146108e6578063c3187978146108ef57600080fd5b80638da5cb5b116101d457806396bb02c31161019857806396bb02c3146108775780639fd0506d14610880578063a4fa8d5714610893578063a53e2525146108a6578063aa59e7e7146108af57600080fd5b80638da5cb5b1461082e5780638e6d86fd1461083f578063928094441461084857806393a090ec1461085157806393f1f8ac1461086457600080fd5b80637b36006a1161021b5780637b36006a146107cc5780637b5e01d7146107d557806383657795146107e8578063839df945146107fb5780638b4d7b351461081b57600080fd5b8063763253bb1461078b5780637683dbfb1461079e57806377286d17146107b15780637881c5e6146107c457600080fd5b80633d18b9121161036857806356914caf116102e5578063671f8152116102a9578063671f81521461073b578063682c20581461074e578063715018a61461075757806372dc0ee11461075f57806375c705091461076857600080fd5b806356914caf146106cb5780635b851daa146106de5780635c975abb146106f1578063605cecf61461071557806361d027b31461072857600080fd5b8063485cc9551161032c578063485cc9551461067657806349094d4d146106895780634ff03efa1461069c578063506ea7de146106af57806354fd4d50146106c257600080fd5b80633d18b912146106205780633d57f5d914610628578063408def1e1461063057806340e8c56d146106435780634421ea211461066357600080fd5b80631b2cf4b8116103f657806328c2d36c116103ba57806328c2d36c146105a95780632f9b03e4146105bc578063303fb0d6146105cf57806336f83c4f146105fa578063393cb1c71461060d57600080fd5b80631b2cf4b8146105485780631b75c43e1461055b5780631f88ea1c1461057b578063218a30481461058e5780632258d105146105a157600080fd5b80630c18d4ce1161043d5780630c18d4ce146104c45780631466b63a146104ef57806316c38b3c1461050257806317f3e041146105155780631825c20e1461053557600080fd5b80623f9dd61461046d578062fd70821461048257806308745dd11461049e5780630a985737146104b1575b600080fd5b61048061047b366004615004565b610b4e565b005b61048b60725481565b6040519081526020015b60405180910390f35b61048b6104ac366004615096565b610e06565b61048b6104bf366004615004565b611093565b606a546104d7906001600160401b031681565b6040516001600160401b039091168152602001610495565b61048b6104fd3660046151d9565b6111ee565b6104806105103660046152be565b611235565b61048b610523366004615004565b60806020526000908152604090205481565b6104806105433660046152db565b6112c5565b610480610556366004615004565b61138f565b61048b61056936600461530b565b607a6020526000908152604090205481565b61048b610589366004615328565b6113ca565b61048b61059c36600461534a565b6114f6565b61048b611539565b6104806105b7366004615004565b6115a2565b6104806105ca366004615004565b6115dd565b6105e26105dd366004615328565b611618565b6040516001600160a01b039091168152602001610495565b610480610608366004615004565b611650565b61048b61061b366004615405565b61168b565b61048b6116c4565b61048b6116ee565b61048061063e366004615004565b611733565b610656610651366004615460565b611776565b60405161049591906154f1565b61048061067136600461530b565b611782565b610480610684366004615504565b6117d4565b6104806106973660046152db565b611989565b61048b6106aa366004615405565b611a49565b6104806106bd366004615004565b611c0f565b61048b606b5481565b6104806106d9366004615532565b611cd1565b6104806106ec366004615004565b611fe5565b60675461070590600160a01b900460ff1681565b6040519015158152602001610495565b610480610723366004615004565b612020565b6066546105e2906001600160a01b031681565b610480610749366004615004565b61205b565b61048b60685481565b61048061236d565b61048b606f5481565b61077b610776366004615004565b612381565b604051610495949392919061557d565b6104806107993660046155c2565b61244c565b6104806107ac366004615004565b6126c0565b6104806107bf366004615004565b6126fb565b61048b6128fb565b61048b60735481565b6104806107e3366004615504565b61299b565b61048b6107f63660046155e7565b612a77565b61048b610809366004615004565b607c6020526000908152604090205481565b610480610829366004615613565b612bbf565b6033546001600160a01b03166105e2565b61048b60745481565b61048b60715481565b61048061085f3660046155e7565b6132e9565b610480610872366004615328565b6134cb565b61048b606c5481565b6067546105e2906001600160a01b031681565b61048b6108a1366004615328565b61355e565b61048b60755481565b6104806108bd366004615004565b6135da565b610480613615565b6104806108d8366004615004565b6136c1565b61048b60695481565b61048b60705481565b6104806108fd366004615004565b6136fc565b6065546105e2906001600160a01b031681565b610480610923366004615004565b613737565b61048b610936366004615004565b613850565b6105e2610949366004615328565b6138e4565b61048b61095c36600461530b565b60786020526000908152604090205481565b61070561097c3660046155c2565b607f60209081526000928352604080842090915290825290205460ff1681565b6109ce6109aa3660046155e7565b60796020908152600092835260408084209091529082529020805460019091015482565b60408051928352602083019190915201610495565b610a356109f1366004615004565b607e60205260009081526040902080546001909101546001600160a01b03821691600160a01b81046001600160401b031691600160e01b90910463ffffffff169084565b604080516001600160a01b0390951685526001600160401b03909316602085015263ffffffff909116918301919091526060820152608001610495565b610480610a8036600461530b565b613900565b61048b606d5481565b610aa1610a9c366004615004565b613952565b6040516104959493929190615641565b610ac4610abf366004615004565b61398c565b6040516104959695949392919061566e565b61048b606e5481565b610480610aed36600461530b565b613a65565b610b2a610b0036600461530b565b6077602052600090815260409020805460018201546002909201549091906001600160a01b031683565b6040805193845260208401929092526001600160a01b031690820152606001610495565b606754600160a01b900460ff1615610b815760405162461bcd60e51b8152600401610b78906156bf565b60405180910390fd5b6000818152607b60205260409020600201546001600160a01b03163314610bd65760405162461bcd60e51b81526020600482015260096024820152683737ba1037bbb732b960b91b6044820152606401610b78565b6000818152607d60205260409020546001600160a01b031615610c2a5760405162461bcd60e51b815260206004820152600c60248201526b3430b99039b7b63aba34b7b760a11b6044820152606401610b78565b6072546000828152607b6020526040902060020154610c5990600160a01b90046001600160401b0316426156f5565b11610ca65760405162461bcd60e51b815260206004820152601860248201527f646964206e6f742077616974206c6f6e6720656e6f75676800000000000000006044820152606401610b78565b6000670de0b6b3a7640000606f54670de0b6b3a7640000610cc791906156f5565b6000848152607b6020526040902060010154610ce39190615708565b610ced9190615735565b6000838152607b602052604081206001015491925090610d0e9083906156f5565b60655460405163a9059cbb60e01b81529192506001600160a01b03169063a9059cbb90610d419033908690600401615757565b6020604051808303816000875af1158015610d60573d6000803e3d6000fd5b505050506040513d601f19601f82011682018060405250810190610d849190615770565b508060686000828254610d97919061578d565b90915550506000838152607b60205260408120818155600181018290556002810180546001600160e81b031916905590610dd46003830182614fb6565b505060405183907f446efbf8d207f3e2ede58a6bbde7028a4e308488b6293e6461fbb7c288326e7690600090a2505050565b606754600090600160a01b900460ff1615610e335760405162461bcd60e51b8152600401610b78906156bf565b6000858152607660205260409020600101546001600160a01b0316610e6a5760405162461bcd60e51b8152600401610b78906157a0565b600085815260766020526040902054841015610ec85760405162461bcd60e51b815260206004820152601860248201527f6c6f77657220666565207468616e206d6f64656c2066656500000000000000006044820152606401610b78565b6000610ed48484613a76565b905060006040518060c00160405280888152602001878152602001896001600160a01b03168152602001426001600160401b031681526020018a60ff1681526020018381525090506000610f2b82336069546111ee565b9050336001600160a01b031688827fc3d3e0544c80e3bb83f62659259ae1574f72a91515ab3cae3dd75cf77e1b0aea8a604051610f6a91815260200190565b60405180910390a46065546040516323b872dd60e01b8152336004820152306024820152604481018990526001600160a01b03909116906323b872dd906064016020604051808303816000875af1158015610fc9573d6000803e3d6000fd5b505050506040513d601f19601f82011682018060405250810190610fed9190615770565b506000818152607b602090815260409182902084518155908401516001820155908301516002820180546060860151608087015160ff16600160e01b0260ff60e01b196001600160401b03909216600160a01b026001600160e01b03199093166001600160a01b0390951694909417919091171691909117905560a0830151839190600382019061107e9082615848565b50505060698190559998505050505050505050565b606754600090600160a01b900460ff16156110c05760405162461bcd60e51b8152600401610b78906156bf565b336000908152607a602090815260408083205460779092529091205483916110e7916156f5565b101561110f5760405162461bcd60e51b81526020600482015260006024820152604401610b78565b60006075544261111f919061578d565b336000908152607860205260408120805492935060019290919061114490849061578d565b909155505033600081815260786020908152604080832054815180830183528681528084018981528686526079855283862083875285528386209151825551600190910155938352607a909152812080548692906111a390849061578d565b90915550506040805183815260208101869052829133917fcc7e0e76b20394ef965d71c4111d21e1b322bb8775dc2c7acd29eb0d3c3dd96d910160405180910390a39150505b919050565b60008282856000015186602001518760a00151604051602001611215959493929190615907565b6040516020818303038152906040528051906020012090505b9392505050565b6067546001600160a01b0316331461127c5760405162461bcd60e51b815260206004820152600a6024820152693737ba103830bab9b2b960b11b6044820152606401610b78565b6067805460ff60a01b1916600160a01b831515908102919091179091556040517fd83d5281277e107f080e362699d46082adb74e7dc6a9bccbc87d8ae9533add4490600090a250565b606754600160a01b900460ff16156112ef5760405162461bcd60e51b8152600401610b78906156bf565b6112f7611539565b336000908152607a602090815260408083205460779092529091205461131d91906156f5565b101561133b5760405162461bcd60e51b8152600401610b7890615945565b6113453383612a77565b156113805760405162461bcd60e51b815260206004820152600b60248201526a1b9bdd08185b1b1bddd95960aa1b6044820152606401610b78565b61138b828233613bab565b5050565b611397613ccf565b606e81905560405181907fa9dfc7ca3151b504bdbe971426324a888f97e7e7a52929484c01dff8168058ab90600090a250565b600080831180156113db5750600082115b6114125760405162461bcd60e51b81526020600482015260086024820152676d696e2076616c7360c01b6044820152606401610b78565b600061141d84613850565b9050600061142d825b8590613d29565b9050670cf4ad2e86166c9c8112156114525768056bc75e2d63100000925050506114f0565b670de0b6b3a764000068056bc75e2d63100000600061148f611488846114828561147c8984613dff565b90613e0e565b90613dff565b8490613eb2565b90506801158e460913d0000081126114af576000955050505050506114f0565b6114b98160001390565b156114e1576114d56114d26114cd83613ec1565b613f02565b90565b955050505050506114f0565b6114d56114d261142683613f02565b92915050565b60008183602001518460000151856060015160405160200161151b9493929190615971565b60405160208183030381529060405280519060200120905092915050565b6000806115446128fb565b9050683635c9adc5dea0000081101561155f57600091505090565b670de0b6b3a7640000606c54670de0b6b3a764000061157e91906156f5565b6115889083615708565b6115929190615735565b61159c90826156f5565b91505090565b6115aa613ccf565b606c81905560405181907fb2ba28b5b5aed3444b23a8597a249678dd98e0062432ef1b0f9a6caa39ceb0ad90600090a250565b6115e5613ccf565b607181905560405181907fed28aed8b87631da9bc750c8885c00f9beda7f694a23bb732d987aa80214a63f90600090a250565b6082602052816000526040600020818154811061163457600080fd5b6000918252602090912001546001600160a01b03169150829050565b611658613ccf565b606d81905560405181907f4d3fce9ddc8266ead559213cbaaa8ebcfa0c837a2c9a1e814bae160b615d30dd90600090a250565b6000848484846040516020016116a494939291906159a4565b604051602081830303815290604052805190602001209050949350505050565b606a546000906116e9906116e1906001600160401b0316426156f5565b6108a16128fb565b905090565b6000806116f96128fb565b9050686c6b935b8bbd40000081101561171457600091505090565b670de0b6b3a7640000606d54670de0b6b3a764000061157e91906156f5565b61173b613ccf565b606b8190556040518181527f8c854a81cb5c93e7e482d30fb9c6f88fdbdb320f10f7a853c2263659b54e563f9060200160405180910390a150565b606061122e8383613a76565b61178a613ccf565b606780546001600160a01b0319166001600160a01b0383169081179091556040517f5a85b4270fc1e75035e6cd505418ce65e0bcc36cc7eb9ce9e6f8c6181d4cb57790600090a250565b600054610100900460ff16158080156117f45750600054600160ff909116105b8061180e5750303b15801561180e575060005460ff166001145b6118715760405162461bcd60e51b815260206004820152602e60248201527f496e697469616c697a61626c653a20636f6e747261637420697320616c72656160448201526d191e481a5b9a5d1a585b1a5e995960921b6064820152608401610b78565b6000805460ff191660011790558015611894576000805461ff0019166101001790555b61189c613fb4565b606580546001600160a01b038086166001600160a01b03199283161790925560668054928516928216929092179091556067805490911633179055606a80546001600160401b03421667ffffffffffffffff199091161790556602d79883d20000606c55655af3107a4000606d5567016345785d8a0000606e819055606f8190556070556107d0607155612710607255610fa06073556078607455620151806075558015611984576000805461ff0019169055604051600181527f7f26b83ff96e1f2b6a682f133852f6798a09c465da95921460cefb38474024989060200160405180910390a15b505050565b611991611539565b336000908152607a60209081526040808320546077909252909120546119b791906156f5565b10156119d55760405162461bcd60e51b8152600401610b7890615945565b6000828152607660205260409020600101546001600160a01b0316611a0c5760405162461bcd60e51b8152600401610b78906157a0565b6040518115158152829033907fd17ce9337eb398b61971ca3d8c9933fc401b9669a0607afe3452612583d7c5b89060200160405180910390a35050565b606754600090600160a01b900460ff1615611a765760405162461bcd60e51b8152600401610b78906156bf565b6001600160a01b038516611acc5760405162461bcd60e51b815260206004820152601860248201527f61646472657373206d757374206265206e6f6e2d7a65726f00000000000000006044820152606401610b78565b6000611ad88484613a76565b604080516080810182528781526001600160a01b0389166020820152600091810182905260608101839052919250611b1082336114f6565b6000818152607660205260409020600101549091506001600160a01b031615611b7b5760405162461bcd60e51b815260206004820152601860248201527f6d6f64656c20616c7265616479207265676973746572656400000000000000006044820152606401610b78565b60008181526076602090815260409182902084518155908401516001820180546001600160a01b0319166001600160a01b0390921691909117905590830151600282015560608301518391906003820190611bd69082615848565b50506040518291507fa4b0af38d049ba81703a0d0e46cc2ff39681210302134046237111a8fb7dee7290600090a2979650505050505050565b606754600160a01b900460ff1615611c395760405162461bcd60e51b8152600401610b78906156bf565b6000818152607c602052604090205415611c895760405162461bcd60e51b8152602060048201526011602482015270636f6d6d69746d656e742065786973747360781b6044820152606401610b78565b611c91613fe3565b6000828152607c6020526040808220929092559051829133917f09b4c028a2e50fec6f1c6a0163c59e8fbe92b231e5c03ef3adec585e63a14b929190a350565b606754600160a01b900460ff1615611cfb5760405162461bcd60e51b8152600401610b78906156bf565b611d03611539565b336000908152607a6020908152604080832054607790925290912054611d2991906156f5565b1015611d475760405162461bcd60e51b8152600401610b7890615945565b6000838152607b6020526040902054611d985760405162461bcd60e51b81526020600482015260136024820152721d185cdac8191bd95cc81b9bdd08195e1a5cdd606a1b6044820152606401610b78565b6000838152607d60205260409020546001600160a01b031615611dfd5760405162461bcd60e51b815260206004820152601a60248201527f736f6c7574696f6e20616c7265616479207375626d69747465640000000000006044820152606401610b78565b6000611e0b3385858561168b565b6000818152607c6020526040902054909150611e695760405162461bcd60e51b815260206004820152601760248201527f6e6f6e206578697374656e7420636f6d6d69746d656e740000000000000000006044820152606401610b78565b611e71613fe3565b6000828152607c602052604090205410611ecd5760405162461bcd60e51b815260206004820152601a60248201527f636f6d6d69746d656e74206d75737420626520696e20706173740000000000006044820152606401610b78565b6040518060800160405280336001600160a01b03168152602001426001600160401b0316815260200160001515815260200184848080601f0160208091040260200160405190810160405280939291908181526020018383808284376000920182905250939094525050868152607d60209081526040918290208451815492860151938601511515600160e01b0260ff60e01b196001600160401b03909516600160a01b026001600160e01b03199094166001600160a01b0390921691909117929092179290921617815560608301519091506001820190611faf9082615848565b505060405185915033907f957c18b5af8413899ea8a576a4d3fb16839a02c9fccfdce098b6d59ef248525b90600090a350505050565b611fed613ccf565b606f81905560405181907f248f32867b202a570ffbb94e864b6075503b4961c00317f152604ee3b8de4dda90600090a250565b612028613ccf565b607081905560405181907f4cedc026426414a08f6f21ca64d85564bf602162bb3463dd2d3e17b58c1da58990600090a250565b606754600160a01b900460ff16156120855760405162461bcd60e51b8152600401610b78906156bf565b61208d611539565b336000908152607a60209081526040808320546077909252909120546120b391906156f5565b10156120d15760405162461bcd60e51b8152600401610b7890615945565b6000818152607d60205260409020546001600160a01b03166121355760405162461bcd60e51b815260206004820152601760248201527f736f6c7574696f6e20646f6573206e6f742065786973740000000000000000006044820152606401610b78565b6000818152607e60205260409020546001600160a01b03161561219a5760405162461bcd60e51b815260206004820152601b60248201527f636f6e746573746174696f6e20616c72656164792065786973747300000000006044820152606401610b78565b6071546000828152607d60205260409020546121c69190600160a01b90046001600160401b031661578d565b42106121ff5760405162461bcd60e51b8152602060048201526008602482015267746f6f206c61746560c01b6044820152606401610b78565b6000818152607d6020526040902054600160e01b900460ff161561224b5760405162461bcd60e51b81526020600482015260036024820152623bba3360e91b6044820152606401610b78565b60006122556116ee565b60408051608081018252338082526001600160401b0342811660208085019182526000858701818152606087018981528b8352607e909352878220965187549451915163ffffffff16600160e01b026001600160e01b0392909616600160a01b026001600160e01b03199095166001600160a01b03919091161793909317929092169290921784559051600190930192909255915192935084927f6958c989e915d3e41a35076e3c480363910055408055ad86ae1ee13d41c406409190a361231f82600133613bab565b6000828152607d60209081526040808320546001600160a01b031683526077909152902054811161138b576000828152607d602052604081205461138b9184916001600160a01b0316613bab565b612375613ccf565b61237f6000614074565b565b607d60205260009081526040902080546001820180546001600160a01b03831693600160a01b84046001600160401b031693600160e01b900460ff169290916123c9906157ce565b80601f01602080910402602001604051908101604052809291908181526020018280546123f5906157ce565b80156124425780601f1061241757610100808354040283529160200191612442565b820191906000526020600020905b81548152906001019060200180831161242557829003601f168201915b5050505050905084565b606754600160a01b900460ff16156124765760405162461bcd60e51b8152600401610b78906156bf565b33600090815260796020908152604080832085845282529182902082518084019093528054808452600190910154918301919091526124eb5760405162461bcd60e51b81526020600482015260116024820152701c995c5d595cdd081b9bdd08195e1a5cdd607a1b6044820152606401610b78565b805142101561252a5760405162461bcd60e51b815260206004820152600b60248201526a3bb0b4ba103637b733b2b960a91b6044820152606401610b78565b602080820151336000908152607790925260409091205410156125845760405162461bcd60e51b81526020600482015260126024820152711cdd185ad9481a5b9cdd59999a58da595b9d60721b6044820152606401610b78565b606554602082015160405163a9059cbb60e01b81526001600160a01b039092169163a9059cbb916125ba91869190600401615757565b6020604051808303816000875af11580156125d9573d6000803e3d6000fd5b505050506040513d601f19601f820116820180604052508101906125fd9190615770565b506020808201513360009081526077909252604082208054919290916126249084906156f5565b9091555050602080820151336000908152607a9092526040822080549192909161264f9084906156f5565b909155505033600081815260796020908152604080832087845282528083208381556001019290925583810151915191825285926001600160a01b0386169290917f109aeff667601aad33abcb7c5df1617754eefd18253d586a95c198cb479b5bd4910160405180910390a4505050565b6126c8613ccf565b607281905560405181907f2cf38ed7da57dd510fa6ecbfb991949cdde5c808acbe85cfa940b642def628ed90600090a250565b606754600160a01b900460ff16156127255760405162461bcd60e51b8152600401610b78906156bf565b6000818152607d60205260409020546001600160a01b031661277e5760405162461bcd60e51b81526020600482015260126024820152711cdbdb1d5d1a5bdb881b9bdd08199bdd5b9960721b6044820152606401610b78565b6000818152607e60205260409020546001600160a01b0316156127d65760405162461bcd60e51b815260206004820152601060248201526f3430b99031b7b73a32b9ba30ba34b7b760811b6044820152606401610b78565b6071546127e390426156f5565b6000828152607d6020526040902054600160a01b90046001600160401b0316106128425760405162461bcd60e51b815260206004820152601060248201526f6e6f7420656e6f7567682064656c617960801b6044820152606401610b78565b6000818152607d6020526040902054600160e01b900460ff161561289a5760405162461bcd60e51b815260206004820152600f60248201526e185b1c9958591e4818db185a5b5959608a1b6044820152606401610b78565b6000818152607d6020526040808220805460ff60e01b198116600160e01b17909155905183926001600160a01b03909216917f0b76b4ae356796814d36b46f7c500bbd27b2cce1e6059a6fa2bebfd5a389b19091a36128f8816140c6565b50565b6065546040516370a0823160e01b815230600482015260009182916001600160a01b03909116906370a0823190602401602060405180830381865afa158015612948573d6000803e3d6000fd5b505050506040513d601f19601f8201168201806040525081019061296c91906159ec565b9050697f0e10af47c1c7000000811061298757600091505090565b61159c81697f0e10af47c1c70000006156f5565b6129a3613ccf565b604051631f4a58fb60e31b81526001600160a01b03828116600483015283916000918291829185169063fa52c7d890602401606060405180830381865afa1580156129f2573d6000803e3d6000fd5b505050506040513d601f19601f82011682018060405250810190612a169190615a05565b6040805160608101825293845260208085019384526001600160a01b03928316858301908152998316600090815260779091522092518355905160018301559551600290910180546001600160a01b03191691909616179094555050505050565b6000818152607e60205260408120546001600160a01b0316612a9b575060016114f0565b6073546000838152607e6020526040902054612ac79190600160a01b90046001600160401b031661578d565b421115612ad6575060026114f0565b6000828152607f602090815260408083206001600160a01b038716845290915290205460ff1615612b09575060036114f0565b6001600160a01b0383166000908152607760205260408120600101549003612b33575060046114f0565b6074546001600160a01b0384166000908152607760205260409020600101541015612b60575060056114f0565b6000828152607e60209081526040808320546074546001600160a01b03881685526077909352922060010154600160a01b9092046001600160401b031691612ba891906156f5565b1115612bb6575060066114f0565b50600092915050565b606754600160a01b900460ff1615612be95760405162461bcd60e51b8152600401610b78906156bf565b6000828152607e60205260409020546001600160a01b0316612c4d5760405162461bcd60e51b815260206004820152601a60248201527f636f6e746573746174696f6e20646f65736e27742065786973740000000000006044820152606401610b78565b6073546000838152607e6020526040902054612c799190600160a01b90046001600160401b031661578d565b421015612cc85760405162461bcd60e51b815260206004820152601760248201527f766f74696e6720706572696f64206e6f7420656e6465640000000000000000006044820152606401610b78565b60008163ffffffff1611612d0f5760405162461bcd60e51b815260206004820152600e60248201526d185b5b9d081d1bdbc81cdb585b1b60921b6044820152606401610b78565b6000828152608160209081526040808320546082835281842054607e909352908320549092600160e01b90910463ffffffff1690612d4d8583615a3e565b6000878152607e602052604090206001015490915063ffffffff8085169086161115613040576000612d858263ffffffff8716615708565b905060008663ffffffff16600114612db157612da2600283615735565b612dac90836156f5565b612db3565b815b905060008763ffffffff16600114612def57612dd0600189615a62565b63ffffffff16612de083856156f5565b612dea9190615735565b612df2565b60005b905063ffffffff86165b8563ffffffff16811015612f83578863ffffffff16811015612f715760008b8152608160205260408120805483908110612e3857612e38615a7f565b60009182526020808320909101546001600160a01b0316808352607790915260408220805491935088929091612e6f90849061578d565b90915550506000829003612ef85760655460405163a9059cbb60e01b81526001600160a01b039091169063a9059cbb90612eaf9084908890600401615757565b6020604051808303816000875af1158015612ece573d6000803e3d6000fd5b505050506040513d601f19601f82011682018060405250810190612ef29190615770565b50612f6f565b60655460405163a9059cbb60e01b81526001600160a01b039091169063a9059cbb90612f2a9084908790600401615757565b6020604051808303816000875af1158015612f49573d6000803e3d6000fd5b505050506040513d601f19601f82011682018060405250810190612f6d9190615770565b505b505b80612f7b81615a95565b915050612dfc565b5060008a8152607e6020526040812054600160e01b900463ffffffff1690036130385760655460008b8152607b602052604090819020600281015460019190910154915163a9059cbb60e01b81526001600160a01b039384169363a9059cbb93612ff39390911691600401615757565b6020604051808303816000875af1158015613012573d6000803e3d6000fd5b505050506040513d601f19601f820116820180604052508101906130369190615770565b505b505050613276565b60006130528263ffffffff8816615708565b905060008563ffffffff166001146130745761306f600283615735565b613076565b815b905060008663ffffffff166001146130b257613093600188615a62565b63ffffffff166130a383856156f5565b6130ad9190615735565b6130b5565b60005b905063ffffffff86165b8563ffffffff16811015613246578763ffffffff168110156132345760008b81526082602052604081208054839081106130fb576130fb615a7f565b60009182526020808320909101546001600160a01b031680835260779091526040822080549193508892909161313290849061578d565b909155505060008290036131bb5760655460405163a9059cbb60e01b81526001600160a01b039091169063a9059cbb906131729084908890600401615757565b6020604051808303816000875af1158015613191573d6000803e3d6000fd5b505050506040513d601f19601f820116820180604052508101906131b59190615770565b50613232565b60655460405163a9059cbb60e01b81526001600160a01b039091169063a9059cbb906131ed9084908790600401615757565b6020604051808303816000875af115801561320c573d6000803e3d6000fd5b505050506040513d601f19601f820116820180604052508101906132309190615770565b505b505b8061323e81615a95565b9150506130bf565b5060008a8152607e6020526040812054600160e01b900463ffffffff169003613272576132728a6140c6565b5050505b6000878152607e602090815260409182902080546001600160e01b0316600160e01b63ffffffff8781169182029290921790925592519081529185169189917f71d8c71303e35a39162e33a402c9897bf9848388537bac7d5e1b0d202eca4e66910160405180910390a350505050505050565b606754600160a01b900460ff16156133135760405162461bcd60e51b8152600401610b78906156bf565b6065546040516323b872dd60e01b8152336004820152306024820152604481018390526001600160a01b03909116906323b872dd906064016020604051808303816000875af115801561336a573d6000803e3d6000fd5b505050506040513d601f19601f8201168201806040525081019061338e9190615770565b506000613399611539565b6001600160a01b0384166000908152607760205260409020549091508110613406576001600160a01b03831660009081526077602052604090205481906133e190849061578d565b10613406576001600160a01b0383166000908152607760205260409020426001909101555b604080516060810182526001600160a01b038516600090815260776020529190912054819061343690859061578d565b81526001600160a01b038581166000818152607760208181526040808420600181018054848a015297820186905293859052918152865183558681015190955594850151600290910180546001600160a01b0319169190931617909155915184815233917f8d4844488c19a90828439e71d14ebad860806d04f8ef8b25a82179fab2699b8991015b60405180910390a3505050565b6134d3613ccf565b6000828152607660205260409020600101546001600160a01b031661350a5760405162461bcd60e51b8152600401610b78906157a0565b600082815260766020526040908190206002018290555182907f0321e8a918b4c47bf3677852c070983825f30a47bc8d9416691454fa6a727d63906135529084815260200190565b60405180910390a25050565b6000816000036135775750670de0b6b3a76400006114f0565b670de0b6b3a7640000697f0e10af47c1c700000061359585856113ca565b670de0b6b3a76400006135b286697f0e10af47c1c70000006156f5565b6135bc9190615708565b6135c69190615708565b6135d09190615735565b61122e9190615735565b6135e2613ccf565b607481905560405181907fdb340415b83e58bab317964518d523baabcc1571de3b5d8fe6ebd52c704d31a990600090a250565b606754600160a01b900460ff161561363f5760405162461bcd60e51b8152600401610b78906156bf565b60655460665460685460405163a9059cbb60e01b81526001600160a01b039384169363a9059cbb9361367693911691600401615757565b6020604051808303816000875af1158015613695573d6000803e3d6000fd5b505050506040513d601f19601f820116820180604052508101906136b99190615770565b506000606855565b6136c9613ccf565b607381905560405181907f3a559dce5761b4b2e6099b6dc8d51f7eb190932dc5797d8090daf1a42cd58e7d90600090a250565b613704613ccf565b607581905560405181907f7bf73d8c24113d60e7de7e92ae237284cf5a6f8dfe31e8eee1c6d9c8890e13c990600090a250565b606754600160a01b900460ff16156137615760405162461bcd60e51b8152600401610b78906156bf565b33600090815260796020908152604080832084845282529182902082518084019093528054808452600190910154918301919091526137d65760405162461bcd60e51b81526020600482015260116024820152701c995c5d595cdd081b9bdd08195e1a5cdd607a1b6044820152606401610b78565b602080820151336000908152607a909252604082208054919290916137fc9084906156f5565b9091555050336000818152607960209081526040808320868452909152808220828155600101829055518492917ff9d5cfcdfe9803069225971ba315f4302add9b477c3441cc363bc38fdb065b9091a35050565b600063bbf81e0082111561386f5750697f0e10af47c1c7000000919050565b600061388a6114d2613885856301e13380614461565b614479565b9050670de0b6b3a7640000816138aa697f0e10af47c1c700000083615708565b6138bc90670de0b6b3a7640000615708565b6138c69190615735565b6138d09190615735565b61122e90697f0e10af47c1c70000006156f5565b6081602052816000526040600020818154811061163457600080fd5b613908613ccf565b606680546001600160a01b0319166001600160a01b0383169081179091556040517f6bdb9ceff405d990c9b60be9f719fbb80889d5f064e8fd76efd5bea353e9071290600090a250565b607660205260009081526040902080546001820154600283015460038401805493946001600160a01b03909316939192916123c9906157ce565b607b602052600090815260409020805460018201546002830154600384018054939492936001600160a01b03831693600160a01b84046001600160401b031693600160e01b900460ff169290916139e2906157ce565b80601f0160208091040260200160405190810160405280929190818152602001828054613a0e906157ce565b8015613a5b5780601f10613a3057610100808354040283529160200191613a5b565b820191906000526020600020905b815481529060010190602001808311613a3e57829003601f168201915b5050505050905086565b613a6d613ccf565b6128f8816144cf565b606062010000821115613acb5760405162461bcd60e51b815260206004820152601f60248201527f4d617820636f6e74656e742073697a65206973203635353336206279746573006044820152606401610b78565b6000613ad683614545565b9050600081858584604051602001613af19493929190615aae565b60405160208183030381529060405290506002613b0e8251614545565b82604051602001613b20929190615b05565b60408051601f1981840301815290829052613b3a91615b45565b602060405180830381855afa158015613b57573d6000803e3d6000fd5b5050506040513d601f19601f82011682018060405250810190613b7a91906159ec565b604051609160f51b602082015260228101919091526042016040516020818303038152906040529250505092915050565b6000838152607f602090815260408083206001600160a01b03851684529091529020805460ff191660011790558115613c1a5760008381526081602090815260408220805460018101825590835291200180546001600160a01b0319166001600160a01b038316179055613c52565b60008381526082602090815260408220805460018101825590835291200180546001600160a01b0319166001600160a01b0383161790555b6000838152607e60209081526040808320600101546001600160a01b038516845260779092528220805491929091613c8b9084906156f5565b9091555050604051821515815283906001600160a01b038316907f1aa9e4be46e24e1f2e7eeb1613c01629213cd42965d2716e18531b63e552e411906020016134be565b6033546001600160a01b0316331461237f5760405162461bcd60e51b815260206004820181905260248201527f4f776e61626c653a2063616c6c6572206973206e6f7420746865206f776e65726044820152606401610b78565b60008282600160ff1b821480613d425750600160ff1b81145b15613d60576040516309fe2b4560e41b815260040160405180910390fd5b60008060008412613d715783613d76565b836000035b915060008312613d865782613d8b565b826000035b90506000613da283670de0b6b3a76400008461469c565b90506001600160ff1b03811115613dd65760405163d49c26b360e01b81526004810189905260248101889052604401610b78565b60001985851813613df281613dee57826000036114d2565b8290565b9998505050505050505050565b600061122e6114d28385615b61565b60008282600160ff1b821480613e275750600160ff1b81145b15613e455760405163a6070c2560e01b815260040160405180910390fd5b60008060008412613e565783613e5b565b836000035b915060008312613e6b5782613e70565b826000035b90506000613e7e8383614770565b90506001600160ff1b03811115613dd65760405163120b5b4360e01b81526004810189905260248101889052604401610b78565b600061122e6114d28385615b81565b600081600160ff1b8101613ee85760405163ec2b9e6760e01b815260040160405180910390fd5b60008112613ef6578261122e565b61122e6114d282615ba9565b60008181811215613f635768033dd1780914b9711419811215613f285750600092915050565b613f5c613f3b6114d26114cd8460000390565b6ec097ce7bc90715b34b9f100000000081613f5857613f5861571f565b0590565b9150613fae565b680a688906bd8affffff811315613f8f57604051626c1a0560e31b815260048101849052602401610b78565b670de0b6b3a7640000604082901b05613faa6114d282614826565b9250505b50919050565b600054610100900460ff16613fdb5760405162461bcd60e51b8152600401610b7890615bc5565b61237f614f86565b60004661a4ba811480613ff8575062066eed81145b80614005575062066eee81145b1561406d5760646001600160a01b031663a3b1b31d6040518163ffffffff1660e01b8152600401602060405180830381865afa158015614049573d6000803e3d6000fd5b505050506040513d601f19601f8201168201806040525081019061159c91906159ec565b4391505090565b603380546001600160a01b038381166001600160a01b0319831681179093556040519116919082907f8be0079c531659141344cd1fd0a4f28419497f9722a3daafe3b4186f6b6457e090600090a35050565b6000818152607b6020818152604080842080548552607683529084205493859052919052600101548111156140f9575060005b8015614197576065546000838152607b6020908152604080832054835260769091529081902060010154905163a9059cbb60e01b81526001600160a01b039283169263a9059cbb92614152929116908590600401615757565b6020604051808303816000875af1158015614171573d6000803e3d6000fd5b505050506040513d601f19601f820116820180604052508101906141959190615770565b505b6000828152607b60205260408120600101546141b49083906156f5565b90506000670de0b6b3a7640000606e54670de0b6b3a76400006141d791906156f5565b6141e19084615708565b6141eb9190615735565b6141f590836156f5565b90508060686000828254614209919061578d565b909155506000905061421b82846156f5565b905080156142b4576065546000868152607d60205260409020546001600160a01b039182169163a9059cbb911661425285876156f5565b6040518363ffffffff1660e01b815260040161426f929190615757565b6020604051808303816000875af115801561428e573d6000803e3d6000fd5b505050506040513d601f19601f820116820180604052508101906142b29190615770565b505b6000858152607b6020908152604080832054835260769091529020600201548015614459576000670de0b6b3a7640000826142ed6116c4565b6142f79190615708565b6143019190615735565b90508015614457576000670de0b6b3a7640000607054670de0b6b3a764000061432a91906156f5565b6143349084615708565b61433e9190615735565b61434890836156f5565b60655460008a8152607d60205260409020549192506001600160a01b039081169163a9059cbb911661437a84866156f5565b6040518363ffffffff1660e01b8152600401614397929190615757565b6020604051808303816000875af11580156143b6573d6000803e3d6000fd5b505050506040513d601f19601f820116820180604052508101906143da9190615770565b5060655460665460405163a9059cbb60e01b81526001600160a01b039283169263a9059cbb92614411929116908590600401615757565b6020604051808303816000875af1158015614430573d6000803e3d6000fd5b505050506040513d601f19601f820116820180604052508101906144549190615770565b50505b505b505050505050565b600061122e6114d284670de0b6b3a76400008561469c565b600081680a688906bd8affffff8111156144a95760405163b3b6ba1f60e01b815260048101849052602401610b78565b60006144c1670de0b6b3a7640000604084901b615735565b9050613faa6114d282614826565b6144d7613ccf565b6001600160a01b03811661453c5760405162461bcd60e51b815260206004820152602660248201527f4f776e61626c653a206e6577206f776e657220697320746865207a65726f206160448201526564647265737360d01b6064820152608401610b78565b6128f881614074565b60608160015b607f826001600160401b0316111561457e576007826001600160401b0316901c91508061457790615c10565b905061454b565b6000816001600160401b03166001600160401b038111156145a1576145a161510f565b6040519080825280601f01601f1916602001820160405280156145cb576020820181803683370190505b50905084925060005b826001600160401b0316816001600160401b0316101561464d5783607f1660801760f81b82826001600160401b03168151811061461357614613615a7f565b60200101906001600160f81b031916908160001a9053506007846001600160401b0316901c9350808061464590615c10565b9150506145d4565b50607f60f81b8161465f600185615c36565b6001600160401b03168151811061467857614678615a7f565b0160200180519091166001600160f81b03191690600082901a905350949350505050565b60008080600019858709858702925082811083820303915050806000036146d6578382816146cc576146cc61571f565b049250505061122e565b83811061470757604051630c740aef60e31b8152600481018790526024810186905260448101859052606401610b78565b60008486880960026001871981018816978890046003810283188082028403028082028403028082028403028082028403028082028403029081029092039091026000889003889004909101858311909403939093029303949094049190911702949350505050565b60008080600019848609848602925082811083820303915050806000036147a45750670de0b6b3a7640000900490506114f0565b670de0b6b3a764000081106147d657604051635173648d60e01b81526004810186905260248101859052604401610b78565b6000670de0b6b3a764000085870962040000818503049310909103600160ee1b02919091177faccb18165bd6fe31ae1cf318dc5b51eee0e1ba569b88cd74c1773b91fac106690291505092915050565b600160bf1b67ff000000000000008216156149335767800000000000000082161561485a5768016a09e667f3bcc9090260401c5b674000000000000000821615614879576801306fe0a31b7152df0260401c5b672000000000000000821615614898576801172b83c7d517adce0260401c5b6710000000000000008216156148b75768010b5586cf9890f62a0260401c5b6708000000000000008216156148d6576801059b0d31585743ae0260401c5b6704000000000000008216156148f557680102c9a3e778060ee70260401c5b6702000000000000008216156149145768010163da9fb33356d80260401c5b67010000000000000082161561493357680100b1afa5abcbed610260401c5b66ff000000000000821615614a325766800000000000008216156149605768010058c86da1c09ea20260401c5b664000000000000082161561497e576801002c605e2e8cec500260401c5b662000000000000082161561499c57680100162f3904051fa10260401c5b66100000000000008216156149ba576801000b175effdc76ba0260401c5b66080000000000008216156149d857680100058ba01fb9f96d0260401c5b66040000000000008216156149f65768010002c5cc37da94920260401c5b6602000000000000821615614a14576801000162e525ee05470260401c5b6601000000000000821615614a325768010000b17255775c040260401c5b65ff0000000000821615614b285765800000000000821615614a5d576801000058b91b5bc9ae0260401c5b65400000000000821615614a7a57680100002c5c89d5ec6d0260401c5b65200000000000821615614a975768010000162e43f4f8310260401c5b65100000000000821615614ab457680100000b1721bcfc9a0260401c5b65080000000000821615614ad15768010000058b90cf1e6e0260401c5b65040000000000821615614aee576801000002c5c863b73f0260401c5b65020000000000821615614b0b57680100000162e430e5a20260401c5b65010000000000821615614b28576801000000b1721835510260401c5b64ff00000000821615614c1557648000000000821615614b5157680100000058b90c0b490260401c5b644000000000821615614b6d5768010000002c5c8601cc0260401c5b642000000000821615614b89576801000000162e42fff00260401c5b641000000000821615614ba55768010000000b17217fbb0260401c5b640800000000821615614bc1576801000000058b90bfce0260401c5b640400000000821615614bdd57680100000002c5c85fe30260401c5b640200000000821615614bf95768010000000162e42ff10260401c5b640100000000821615614c1557680100000000b17217f80260401c5b63ff000000821615614cf9576380000000821615614c3c5768010000000058b90bfc0260401c5b6340000000821615614c57576801000000002c5c85fe0260401c5b6320000000821615614c7257680100000000162e42ff0260401c5b6310000000821615614c8d576801000000000b17217f0260401c5b6308000000821615614ca857680100000000058b90c00260401c5b6304000000821615614cc35768010000000002c5c8600260401c5b6302000000821615614cde576801000000000162e4300260401c5b6301000000821615614cf95768010000000000b172180260401c5b62ff0000821615614dd45762800000821615614d1e576801000000000058b90c0260401c5b62400000821615614d3857680100000000002c5c860260401c5b62200000821615614d525768010000000000162e430260401c5b62100000821615614d6c57680100000000000b17210260401c5b62080000821615614d865768010000000000058b910260401c5b62040000821615614da0576801000000000002c5c80260401c5b62020000821615614dba57680100000000000162e40260401c5b62010000821615614dd4576801000000000000b1720260401c5b61ff00821615614ea657618000821615614df757680100000000000058b90260401c5b614000821615614e105768010000000000002c5d0260401c5b612000821615614e29576801000000000000162e0260401c5b611000821615614e425768010000000000000b170260401c5b610800821615614e5b576801000000000000058c0260401c5b610400821615614e7457680100000000000002c60260401c5b610200821615614e8d57680100000000000001630260401c5b610100821615614ea657680100000000000000b10260401c5b60ff821615614f6f576080821615614ec757680100000000000000590260401c5b6040821615614edf576801000000000000002c0260401c5b6020821615614ef757680100000000000000160260401c5b6010821615614f0f576801000000000000000b0260401c5b6008821615614f2757680100000000000000060260401c5b6004821615614f3f57680100000000000000030260401c5b6002821615614f5757680100000000000000010260401c5b6001821615614f6f57680100000000000000010260401c5b670de0b6b3a76400000260409190911c60bf031c90565b600054610100900460ff16614fad5760405162461bcd60e51b8152600401610b7890615bc5565b61237f33614074565b508054614fc2906157ce565b6000825580601f10614fd2575050565b601f0160209004906000526020600020908101906128f891905b808211156150005760008155600101614fec565b5090565b60006020828403121561501657600080fd5b5035919050565b803560ff811681146111e957600080fd5b6001600160a01b03811681146128f857600080fd5b80356111e98161502e565b60008083601f84011261506057600080fd5b5081356001600160401b0381111561507757600080fd5b60208301915083602082850101111561508f57600080fd5b9250929050565b60008060008060008060a087890312156150af57600080fd5b6150b88761501d565b955060208701356150c88161502e565b9450604087013593506060870135925060808701356001600160401b038111156150f157600080fd5b6150fd89828a0161504e565b979a9699509497509295939492505050565b634e487b7160e01b600052604160045260246000fd5b60405160c081016001600160401b03811182821017156151475761514761510f565b60405290565b600082601f83011261515e57600080fd5b81356001600160401b03808211156151785761517861510f565b604051601f8301601f19908116603f011681019082821181831017156151a0576151a061510f565b816040528381528660208588010111156151b957600080fd5b836020870160208301376000602085830101528094505050505092915050565b6000806000606084860312156151ee57600080fd5b83356001600160401b038082111561520557600080fd5b9085019060c0828803121561521957600080fd5b615221615125565b8235815260208301356020820152604083013561523d8161502e565b60408201526060830135828116811461525557600080fd5b60608201526152666080840161501d565b608082015260a08301358281111561527d57600080fd5b6152898982860161514d565b60a08301525094506152a091505060208501615043565b9150604084013590509250925092565b80151581146128f857600080fd5b6000602082840312156152d057600080fd5b813561122e816152b0565b600080604083850312156152ee57600080fd5b823591506020830135615300816152b0565b809150509250929050565b60006020828403121561531d57600080fd5b813561122e8161502e565b6000806040838503121561533b57600080fd5b50508035926020909101359150565b6000806040838503121561535d57600080fd5b82356001600160401b038082111561537457600080fd5b908401906080828703121561538857600080fd5b6040516080810181811083821117156153a3576153a361510f565b6040528235815260208301356153b88161502e565b6020820152604083810135908201526060830135828111156153d957600080fd5b6153e58882860161514d565b60608301525093506153fc91505060208401615043565b90509250929050565b6000806000806060858703121561541b57600080fd5b84356154268161502e565b93506020850135925060408501356001600160401b0381111561544857600080fd5b6154548782880161504e565b95989497509550505050565b6000806020838503121561547357600080fd5b82356001600160401b0381111561548957600080fd5b6154958582860161504e565b90969095509350505050565b60005b838110156154bc5781810151838201526020016154a4565b50506000910152565b600081518084526154dd8160208601602086016154a1565b601f01601f19169290920160200192915050565b60208152600061122e60208301846154c5565b6000806040838503121561551757600080fd5b82356155228161502e565b915060208301356153008161502e565b60008060006040848603121561554757600080fd5b8335925060208401356001600160401b0381111561556457600080fd5b6155708682870161504e565b9497909650939450505050565b6001600160a01b03851681526001600160401b038416602082015282151560408201526080606082018190526000906155b8908301846154c5565b9695505050505050565b600080604083850312156155d557600080fd5b8235915060208301356153008161502e565b600080604083850312156155fa57600080fd5b82356156058161502e565b946020939093013593505050565b6000806040838503121561562657600080fd5b82359150602083013563ffffffff8116811461530057600080fd5b84815260018060a01b03841660208201528260408201526080606082015260006155b860808301846154c5565b86815285602082015260018060a01b03851660408201526001600160401b038416606082015260ff8316608082015260c060a082015260006156b360c08301846154c5565b98975050505050505050565b6020808252600690820152651c185d5cd95960d21b604082015260600190565b634e487b7160e01b600052601160045260246000fd5b818103818111156114f0576114f06156df565b80820281158282048414176114f0576114f06156df565b634e487b7160e01b600052601260045260246000fd5b60008261575257634e487b7160e01b600052601260045260246000fd5b500490565b6001600160a01b03929092168252602082015260400190565b60006020828403121561578257600080fd5b815161122e816152b0565b808201808211156114f0576114f06156df565b6020808252601490820152731b5bd9195b08191bd95cc81b9bdd08195e1a5cdd60621b604082015260600190565b600181811c908216806157e257607f821691505b602082108103613fae57634e487b7160e01b600052602260045260246000fd5b601f82111561198457600081815260208120601f850160051c810160208610156158295750805b601f850160051c820191505b8181101561445957828155600101615835565b81516001600160401b038111156158615761586161510f565b6158758161586f84546157ce565b84615802565b602080601f8311600181146158aa57600084156158925750858301515b600019600386901b1c1916600185901b178555614459565b600085815260208120601f198616915b828110156158d9578886015182559484019460019091019084016158ba565b50858210156158f75787850151600019600388901b60f8161c191681555b5050505050600190811b01905550565b60018060a01b038616815284602082015283604082015282606082015260a06080820152600061593a60a08301846154c5565b979650505050505050565b6020808252601290820152716d696e207374616b656420746f6f206c6f7760701b604082015260600190565b6001600160a01b03858116825284166020820152604081018390526080606082018190526000906155b8908301846154c5565b6001600160a01b0385168152602081018490526060604082018190528101829052818360808301376000818301608090810191909152601f909201601f191601019392505050565b6000602082840312156159fe57600080fd5b5051919050565b600080600060608486031215615a1a57600080fd5b83519250602084015191506040840151615a338161502e565b809150509250925092565b63ffffffff818116838216019080821115615a5b57615a5b6156df565b5092915050565b63ffffffff828116828216039080821115615a5b57615a5b6156df565b634e487b7160e01b600052603260045260246000fd5b600060018201615aa757615aa76156df565b5060010190565b6204010960e91b81528451600090615acd816003850160208a016154a1565b820184866003830137600360fb1b6003918601918201528351615af78160048401602088016154a1565b016004019695505050505050565b600560f91b81528251600090615b228160018501602088016154a1565b835190830190615b398160018401602088016154a1565b01600101949350505050565b60008251615b578184602087016154a1565b9190910192915050565b8181036000831280158383131683831282161715615a5b57615a5b6156df565b8082018281126000831280158216821582161715615ba157615ba16156df565b505092915050565b6000600160ff1b8201615bbe57615bbe6156df565b5060000390565b6020808252602b908201527f496e697469616c697a61626c653a20636f6e7472616374206973206e6f74206960408201526a6e697469616c697a696e6760a81b606082015260800190565b60006001600160401b03808316818103615c2c57615c2c6156df565b6001019392505050565b6001600160401b03828116828216039080821115615a5b57615a5b6156df56fea2646970667358221220639ddb3ed87ea8a7069b759f9f33ddad4ec134349b1753b22e4d83a1dffc451264736f6c63430008130033",
  "linkReferences": {},
  "deployedLinkReferences": {}
}