{
  "_format": "hh-sol-artifact-1",
  "contractName": "EngineV2",
  "sourceName": "contracts/EngineV2.sol",
  "abi": [
    {
      "inputs": [],
      "stateMutability": "nonpayable",
      "type": "constructor"
    },
    {
      "inputs": [
        {
          "internalType": "uint256",
          "name": "x",
          "type": "uint256"
        },
        {
          "internalType": "uint256",
          "name": "y",
          "type": "uint256"
        }
      ],
      "name": "PRBMath_MulDiv18_Overflow",
      "type": "error"
    },
    {
      "inputs": [
        {
          "internalType": "uint256",
          "name": "x",
          "type": "uint256"
        },
        {
          "internalType": "uint256",
          "name": "y",
          "type": "uint256"
        },
        {
          "internalType": "uint256",
          "name": "denominator",
          "type": "uint256"
        }
      ],
      "name": "PRBMath_MulDiv_Overflow",
      "type": "error"
    },
    {
      "inputs": [],
      "name": "PRBMath_SD59x18_Abs_MinSD59x18",
      "type": "error"
    },
    {
      "inputs": [],
      "name": "PRBMath_SD59x18_Div_InputTooSmall",
      "type": "error"
    },
    {
      "inputs": [
        {
          "internalType": "SD59x18",
          "name": "x",
          "type": "int256"
        },
        {
          "internalType": "SD59x18",
          "name": "y",
          "type": "int256"
        }
      ],
      "name": "PRBMath_SD59x18_Div_Overflow",
      "type": "error"
    },
    {
      "inputs": [
        {
          "internalType": "SD59x18",
          "name": "x",
          "type": "int256"
        }
      ],
      "name": "PRBMath_SD59x18_Exp2_InputTooBig",
      "type": "error"
    },
    {
      "inputs": [],
      "name": "PRBMath_SD59x18_Mul_InputTooSmall",
      "type": "error"
    },
    {
      "inputs": [
        {
          "internalType": "SD59x18",
          "name": "x",
          "type": "int256"
        },
        {
          "internalType": "SD59x18",
          "name": "y",
          "type": "int256"
        }
      ],
      "name": "PRBMath_SD59x18_Mul_Overflow",
      "type": "error"
    },
    {
      "inputs": [
        {
          "internalType": "UD60x18",
          "name": "x",
          "type": "uint256"
        }
      ],
      "name": "PRBMath_UD60x18_Exp2_InputTooBig",
      "type": "error"
    },
    {
      "anonymous": false,
      "inputs": [
        {
          "indexed": true,
          "internalType": "address",
          "name": "addr",
          "type": "address"
        },
        {
          "indexed": true,
          "internalType": "bytes32",
          "name": "task",
          "type": "bytes32"
        }
      ],
      "name": "ContestationSubmitted",
      "type": "event"
    },
    {
      "anonymous": false,
      "inputs": [
        {
          "indexed": true,
          "internalType": "address",
          "name": "addr",
          "type": "address"
        },
        {
          "indexed": true,
          "internalType": "bytes32",
          "name": "task",
          "type": "bytes32"
        },
        {
          "indexed": false,
          "internalType": "bool",
          "name": "yea",
          "type": "bool"
        }
      ],
      "name": "ContestationVote",
      "type": "event"
    },
    {
      "anonymous": false,
      "inputs": [
        {
          "indexed": true,
          "internalType": "bytes32",
          "name": "id",
          "type": "bytes32"
        },
        {
          "indexed": true,
          "internalType": "uint32",
          "name": "start_idx",
          "type": "uint32"
        },
        {
          "indexed": false,
          "internalType": "uint32",
          "name": "end_idx",
          "type": "uint32"
        }
      ],
      "name": "ContestationVoteFinish",
      "type": "event"
    },
    {
      "anonymous": false,
      "inputs": [
        {
          "indexed": true,
          "internalType": "uint256",
          "name": "amount",
          "type": "uint256"
        }
      ],
      "name": "ExitValidatorMinUnlockTimeChanged",
      "type": "event"
    },
    {
      "anonymous": false,
      "inputs": [
        {
          "indexed": false,
          "internalType": "uint8",
          "name": "version",
          "type": "uint8"
        }
      ],
      "name": "Initialized",
      "type": "event"
    },
    {
      "anonymous": false,
      "inputs": [
        {
          "indexed": true,
          "internalType": "uint256",
          "name": "amount",
          "type": "uint256"
        }
      ],
      "name": "MaxContestationValidatorStakeSinceChanged",
      "type": "event"
    },
    {
      "anonymous": false,
      "inputs": [
        {
          "indexed": true,
          "internalType": "uint256",
          "name": "amount",
          "type": "uint256"
        }
      ],
      "name": "MinClaimSolutionTimeChanged",
      "type": "event"
    },
    {
      "anonymous": false,
      "inputs": [
        {
          "indexed": true,
          "internalType": "uint256",
          "name": "amount",
          "type": "uint256"
        }
      ],
      "name": "MinContestationVotePeriodTimeChanged",
      "type": "event"
    },
    {
      "anonymous": false,
      "inputs": [
        {
          "indexed": true,
          "internalType": "uint256",
          "name": "amount",
          "type": "uint256"
        }
      ],
      "name": "MinRetractionWaitTimeChanged",
      "type": "event"
    },
    {
      "anonymous": false,
      "inputs": [
        {
          "indexed": true,
          "internalType": "bytes32",
          "name": "id",
          "type": "bytes32"
        }
      ],
      "name": "ModelRegistered",
      "type": "event"
    },
    {
      "anonymous": false,
      "inputs": [
        {
          "indexed": true,
          "internalType": "address",
          "name": "previousOwner",
          "type": "address"
        },
        {
          "indexed": true,
          "internalType": "address",
          "name": "newOwner",
          "type": "address"
        }
      ],
      "name": "OwnershipTransferred",
      "type": "event"
    },
    {
      "anonymous": false,
      "inputs": [
        {
          "indexed": true,
          "internalType": "bool",
          "name": "paused",
          "type": "bool"
        }
      ],
      "name": "PausedChanged",
      "type": "event"
    },
    {
      "anonymous": false,
      "inputs": [
        {
          "indexed": true,
          "internalType": "address",
          "name": "to",
          "type": "address"
        }
      ],
      "name": "PauserTransferred",
      "type": "event"
    },
    {
      "anonymous": false,
      "inputs": [
        {
          "indexed": true,
          "internalType": "uint256",
          "name": "amount",
          "type": "uint256"
        }
      ],
      "name": "RetractionFeePercentageChanged",
      "type": "event"
    },
    {
      "anonymous": false,
      "inputs": [
        {
          "indexed": true,
          "internalType": "address",
          "name": "addr",
          "type": "address"
        },
        {
          "indexed": true,
          "internalType": "bytes32",
          "name": "commitment",
          "type": "bytes32"
        }
      ],
      "name": "SignalCommitment",
      "type": "event"
    },
    {
      "anonymous": false,
      "inputs": [
        {
          "indexed": true,
          "internalType": "address",
          "name": "addr",
          "type": "address"
        },
        {
          "indexed": true,
          "internalType": "bytes32",
          "name": "model",
          "type": "bytes32"
        },
        {
          "indexed": false,
          "internalType": "bool",
          "name": "supported",
          "type": "bool"
        }
      ],
      "name": "SignalSupport",
      "type": "event"
    },
    {
      "anonymous": false,
      "inputs": [
        {
          "indexed": true,
          "internalType": "uint256",
          "name": "amount",
          "type": "uint256"
        }
      ],
      "name": "SlashAmountPercentageChanged",
      "type": "event"
    },
    {
      "anonymous": false,
      "inputs": [
        {
          "indexed": true,
          "internalType": "address",
          "name": "addr",
          "type": "address"
        },
        {
          "indexed": true,
          "internalType": "bytes32",
          "name": "task",
          "type": "bytes32"
        }
      ],
      "name": "SolutionClaimed",
      "type": "event"
    },
    {
      "anonymous": false,
      "inputs": [
        {
          "indexed": true,
          "internalType": "uint256",
          "name": "amount",
          "type": "uint256"
        }
      ],
      "name": "SolutionFeePercentageChanged",
      "type": "event"
    },
    {
      "anonymous": false,
      "inputs": [
        {
          "indexed": true,
          "internalType": "bytes32",
          "name": "id",
          "type": "bytes32"
        },
        {
          "indexed": false,
          "internalType": "uint256",
          "name": "rate",
          "type": "uint256"
        }
      ],
      "name": "SolutionMineableRateChange",
      "type": "event"
    },
    {
      "anonymous": false,
      "inputs": [
        {
          "indexed": true,
          "internalType": "uint256",
          "name": "amount",
          "type": "uint256"
        }
      ],
      "name": "SolutionStakeAmountChanged",
      "type": "event"
    },
    {
      "anonymous": false,
      "inputs": [
        {
          "indexed": true,
          "internalType": "address",
          "name": "addr",
          "type": "address"
        },
        {
          "indexed": true,
          "internalType": "bytes32",
          "name": "task",
          "type": "bytes32"
        }
      ],
      "name": "SolutionSubmitted",
      "type": "event"
    },
    {
      "anonymous": false,
      "inputs": [
        {
          "indexed": true,
          "internalType": "uint64",
          "name": "startBlockTime",
          "type": "uint64"
        }
      ],
      "name": "StartBlockTimeChanged",
      "type": "event"
    },
    {
      "anonymous": false,
      "inputs": [
        {
          "indexed": true,
          "internalType": "bytes32",
          "name": "id",
          "type": "bytes32"
        }
      ],
      "name": "TaskRetracted",
      "type": "event"
    },
    {
      "anonymous": false,
      "inputs": [
        {
          "indexed": true,
          "internalType": "bytes32",
          "name": "id",
          "type": "bytes32"
        },
        {
          "indexed": true,
          "internalType": "bytes32",
          "name": "model",
          "type": "bytes32"
        },
        {
          "indexed": false,
          "internalType": "uint256",
          "name": "fee",
          "type": "uint256"
        },
        {
          "indexed": true,
          "internalType": "address",
          "name": "sender",
          "type": "address"
        }
      ],
      "name": "TaskSubmitted",
      "type": "event"
    },
    {
      "anonymous": false,
      "inputs": [
        {
          "indexed": true,
          "internalType": "uint256",
          "name": "amount",
          "type": "uint256"
        }
      ],
      "name": "TreasuryRewardPercentageChanged",
      "type": "event"
    },
    {
      "anonymous": false,
      "inputs": [
        {
          "indexed": true,
          "internalType": "address",
          "name": "to",
          "type": "address"
        }
      ],
      "name": "TreasuryTransferred",
      "type": "event"
    },
    {
      "anonymous": false,
      "inputs": [
        {
          "indexed": true,
          "internalType": "address",
          "name": "addr",
          "type": "address"
        },
        {
          "indexed": true,
          "internalType": "address",
          "name": "validator",
          "type": "address"
        },
        {
          "indexed": false,
          "internalType": "uint256",
          "name": "amount",
          "type": "uint256"
        }
      ],
      "name": "ValidatorDeposit",
      "type": "event"
    },
    {
      "anonymous": false,
      "inputs": [
        {
          "indexed": true,
          "internalType": "uint256",
          "name": "amount",
          "type": "uint256"
        }
      ],
      "name": "ValidatorMinimumPercentageChanged",
      "type": "event"
    },
    {
      "anonymous": false,
      "inputs": [
        {
          "indexed": true,
          "internalType": "address",
          "name": "addr",
          "type": "address"
        },
        {
          "indexed": true,
          "internalType": "address",
          "name": "to",
          "type": "address"
        },
        {
          "indexed": true,
          "internalType": "uint256",
          "name": "count",
          "type": "uint256"
        },
        {
          "indexed": false,
          "internalType": "uint256",
          "name": "amount",
          "type": "uint256"
        }
      ],
      "name": "ValidatorWithdraw",
      "type": "event"
    },
    {
      "anonymous": false,
      "inputs": [
        {
          "indexed": true,
          "internalType": "address",
          "name": "addr",
          "type": "address"
        },
        {
          "indexed": true,
          "internalType": "uint256",
          "name": "count",
          "type": "uint256"
        }
      ],
      "name": "ValidatorWithdrawCancelled",
      "type": "event"
    },
    {
      "anonymous": false,
      "inputs": [
        {
          "indexed": true,
          "internalType": "address",
          "name": "addr",
          "type": "address"
        },
        {
          "indexed": true,
          "internalType": "uint256",
          "name": "count",
          "type": "uint256"
        },
        {
          "indexed": false,
          "internalType": "uint256",
          "name": "unlockTime",
          "type": "uint256"
        },
        {
          "indexed": false,
          "internalType": "uint256",
          "name": "amount",
          "type": "uint256"
        }
      ],
      "name": "ValidatorWithdrawInitiated",
      "type": "event"
    },
    {
      "anonymous": false,
      "inputs": [
        {
          "indexed": false,
          "internalType": "uint256",
          "name": "version",
          "type": "uint256"
        }
      ],
      "name": "VersionChanged",
      "type": "event"
    },
    {
      "inputs": [],
      "name": "accruedFees",
      "outputs": [
        {
          "internalType": "uint256",
          "name": "",
          "type": "uint256"
        }
      ],
      "stateMutability": "view",
      "type": "function"
    },
    {
      "inputs": [],
      "name": "baseToken",
      "outputs": [
        {
          "internalType": "contract IBaseToken",
          "name": "",
          "type": "address"
        }
      ],
      "stateMutability": "view",
      "type": "function"
    },
    {
      "inputs": [
        {
          "internalType": "uint256",
          "name": "count_",
          "type": "uint256"
        }
      ],
      "name": "cancelValidatorWithdraw",
      "outputs": [],
      "stateMutability": "nonpayable",
      "type": "function"
    },
    {
      "inputs": [
        {
          "internalType": "bytes32",
          "name": "taskid_",
          "type": "bytes32"
        }
      ],
      "name": "claimSolution",
      "outputs": [],
      "stateMutability": "nonpayable",
      "type": "function"
    },
    {
      "inputs": [
        {
          "internalType": "bytes32",
          "name": "",
          "type": "bytes32"
        }
      ],
      "name": "commitments",
      "outputs": [
        {
          "internalType": "uint256",
          "name": "",
          "type": "uint256"
        }
      ],
      "stateMutability": "view",
      "type": "function"
    },
    {
      "inputs": [
        {
          "internalType": "bytes32",
          "name": "taskid_",
          "type": "bytes32"
        },
        {
          "internalType": "uint32",
          "name": "amnt_",
          "type": "uint32"
        }
      ],
      "name": "contestationVoteFinish",
      "outputs": [],
      "stateMutability": "nonpayable",
      "type": "function"
    },
    {
      "inputs": [
        {
          "internalType": "bytes32",
          "name": "",
          "type": "bytes32"
        },
        {
          "internalType": "uint256",
          "name": "",
          "type": "uint256"
        }
      ],
      "name": "contestationVoteNays",
      "outputs": [
        {
          "internalType": "address",
          "name": "",
          "type": "address"
        }
      ],
      "stateMutability": "view",
      "type": "function"
    },
    {
      "inputs": [
        {
          "internalType": "bytes32",
          "name": "",
          "type": "bytes32"
        },
        {
          "internalType": "uint256",
          "name": "",
          "type": "uint256"
        }
      ],
      "name": "contestationVoteYeas",
      "outputs": [
        {
          "internalType": "address",
          "name": "",
          "type": "address"
        }
      ],
      "stateMutability": "view",
      "type": "function"
    },
    {
      "inputs": [
        {
          "internalType": "bytes32",
          "name": "",
          "type": "bytes32"
        },
        {
          "internalType": "address",
          "name": "",
          "type": "address"
        }
      ],
      "name": "contestationVoted",
      "outputs": [
        {
          "internalType": "bool",
          "name": "",
          "type": "bool"
        }
      ],
      "stateMutability": "view",
      "type": "function"
    },
    {
      "inputs": [
        {
          "internalType": "bytes32",
          "name": "",
          "type": "bytes32"
        }
      ],
      "name": "contestationVotedIndex",
      "outputs": [
        {
          "internalType": "uint256",
          "name": "",
          "type": "uint256"
        }
      ],
      "stateMutability": "view",
      "type": "function"
    },
    {
      "inputs": [
        {
          "internalType": "bytes32",
          "name": "",
          "type": "bytes32"
        }
      ],
      "name": "contestations",
      "outputs": [
        {
          "internalType": "address",
          "name": "validator",
          "type": "address"
        },
        {
          "internalType": "uint64",
          "name": "blocktime",
          "type": "uint64"
        },
        {
          "internalType": "uint32",
          "name": "finish_start_index",
          "type": "uint32"
        },
        {
          "internalType": "uint256",
          "name": "slashAmount",
          "type": "uint256"
        }
      ],
      "stateMutability": "view",
      "type": "function"
    },
    {
      "inputs": [
        {
          "internalType": "uint256",
          "name": "t",
          "type": "uint256"
        },
        {
          "internalType": "uint256",
          "name": "ts",
          "type": "uint256"
        }
      ],
      "name": "diffMul",
      "outputs": [
        {
          "internalType": "uint256",
          "name": "",
          "type": "uint256"
        }
      ],
      "stateMutability": "pure",
      "type": "function"
    },
    {
      "inputs": [],
      "name": "exitValidatorMinUnlockTime",
      "outputs": [
        {
          "internalType": "uint256",
          "name": "",
          "type": "uint256"
        }
      ],
      "stateMutability": "view",
      "type": "function"
    },
    {
      "inputs": [
        {
          "internalType": "address",
          "name": "sender_",
          "type": "address"
        },
        {
          "internalType": "bytes32",
          "name": "taskid_",
          "type": "bytes32"
        },
        {
          "internalType": "bytes",
          "name": "cid_",
          "type": "bytes"
        }
      ],
      "name": "generateCommitment",
      "outputs": [
        {
          "internalType": "bytes32",
          "name": "",
          "type": "bytes32"
        }
      ],
      "stateMutability": "pure",
      "type": "function"
    },
    {
      "inputs": [
        {
          "internalType": "bytes",
          "name": "content_",
          "type": "bytes"
        }
      ],
      "name": "generateIPFSCID",
      "outputs": [
        {
          "internalType": "bytes",
          "name": "",
          "type": "bytes"
        }
      ],
      "stateMutability": "pure",
      "type": "function"
    },
    {
      "inputs": [],
      "name": "getPsuedoTotalSupply",
      "outputs": [
        {
          "internalType": "uint256",
          "name": "",
          "type": "uint256"
        }
      ],
      "stateMutability": "view",
      "type": "function"
    },
    {
      "inputs": [],
      "name": "getReward",
      "outputs": [
        {
          "internalType": "uint256",
          "name": "",
          "type": "uint256"
        }
      ],
      "stateMutability": "view",
      "type": "function"
    },
    {
      "inputs": [],
      "name": "getSlashAmount",
      "outputs": [
        {
          "internalType": "uint256",
          "name": "",
          "type": "uint256"
        }
      ],
      "stateMutability": "view",
      "type": "function"
    },
    {
      "inputs": [],
      "name": "getValidatorMinimum",
      "outputs": [
        {
          "internalType": "uint256",
          "name": "",
          "type": "uint256"
        }
      ],
      "stateMutability": "view",
      "type": "function"
    },
    {
      "inputs": [
        {
          "components": [
            {
              "internalType": "uint256",
              "name": "fee",
              "type": "uint256"
            },
            {
              "internalType": "address",
              "name": "addr",
              "type": "address"
            },
            {
              "internalType": "uint256",
              "name": "rate",
              "type": "uint256"
            },
            {
              "internalType": "bytes",
              "name": "cid",
              "type": "bytes"
            }
          ],
          "internalType": "struct Model",
          "name": "o_",
          "type": "tuple"
        },
        {
          "internalType": "address",
          "name": "sender_",
          "type": "address"
        }
      ],
      "name": "hashModel",
      "outputs": [
        {
          "internalType": "bytes32",
          "name": "",
          "type": "bytes32"
        }
      ],
      "stateMutability": "pure",
      "type": "function"
    },
    {
      "inputs": [
        {
          "components": [
            {
              "internalType": "bytes32",
              "name": "model",
              "type": "bytes32"
            },
            {
              "internalType": "uint256",
              "name": "fee",
              "type": "uint256"
            },
            {
              "internalType": "address",
              "name": "owner",
              "type": "address"
            },
            {
              "internalType": "uint64",
              "name": "blocktime",
              "type": "uint64"
            },
            {
              "internalType": "uint8",
              "name": "version",
              "type": "uint8"
            },
            {
              "internalType": "bytes",
              "name": "cid",
              "type": "bytes"
            }
          ],
          "internalType": "struct Task",
          "name": "o_",
          "type": "tuple"
        },
        {
          "internalType": "address",
          "name": "sender_",
          "type": "address"
        },
        {
          "internalType": "bytes32",
          "name": "prevhash_",
          "type": "bytes32"
        }
      ],
      "name": "hashTask",
      "outputs": [
        {
          "internalType": "bytes32",
          "name": "",
          "type": "bytes32"
        }
      ],
      "stateMutability": "pure",
      "type": "function"
    },
    {
      "inputs": [
        {
          "internalType": "contract IBaseToken",
          "name": "baseToken_",
          "type": "address"
        },
        {
          "internalType": "address",
          "name": "treasury_",
          "type": "address"
        }
      ],
      "name": "initialize",
      "outputs": [],
      "stateMutability": "nonpayable",
      "type": "function"
    },
    {
      "inputs": [
        {
          "internalType": "uint256",
          "name": "amount_",
          "type": "uint256"
        }
      ],
      "name": "initiateValidatorWithdraw",
      "outputs": [
        {
          "internalType": "uint256",
          "name": "",
          "type": "uint256"
        }
      ],
      "stateMutability": "nonpayable",
      "type": "function"
    },
    {
      "inputs": [],
      "name": "maxContestationValidatorStakeSince",
      "outputs": [
        {
          "internalType": "uint256",
          "name": "",
          "type": "uint256"
        }
      ],
      "stateMutability": "view",
      "type": "function"
    },
    {
      "inputs": [],
      "name": "minClaimSolutionTime",
      "outputs": [
        {
          "internalType": "uint256",
          "name": "",
          "type": "uint256"
        }
      ],
      "stateMutability": "view",
      "type": "function"
    },
    {
      "inputs": [],
      "name": "minContestationVotePeriodTime",
      "outputs": [
        {
          "internalType": "uint256",
          "name": "",
          "type": "uint256"
        }
      ],
      "stateMutability": "view",
      "type": "function"
    },
    {
      "inputs": [],
      "name": "minRetractionWaitTime",
      "outputs": [
        {
          "internalType": "uint256",
          "name": "",
          "type": "uint256"
        }
      ],
      "stateMutability": "view",
      "type": "function"
    },
    {
      "inputs": [
        {
          "internalType": "bytes32",
          "name": "",
          "type": "bytes32"
        }
      ],
      "name": "models",
      "outputs": [
        {
          "internalType": "uint256",
          "name": "fee",
          "type": "uint256"
        },
        {
          "internalType": "address",
          "name": "addr",
          "type": "address"
        },
        {
          "internalType": "uint256",
          "name": "rate",
          "type": "uint256"
        },
        {
          "internalType": "bytes",
          "name": "cid",
          "type": "bytes"
        }
      ],
      "stateMutability": "view",
      "type": "function"
    },
    {
      "inputs": [],
      "name": "owner",
      "outputs": [
        {
          "internalType": "address",
          "name": "",
          "type": "address"
        }
      ],
      "stateMutability": "view",
      "type": "function"
    },
    {
      "inputs": [],
      "name": "paused",
      "outputs": [
        {
          "internalType": "bool",
          "name": "",
          "type": "bool"
        }
      ],
      "stateMutability": "view",
      "type": "function"
    },
    {
      "inputs": [],
      "name": "pauser",
      "outputs": [
        {
          "internalType": "address",
          "name": "",
          "type": "address"
        }
      ],
      "stateMutability": "view",
      "type": "function"
    },
    {
      "inputs": [
        {
          "internalType": "address",
          "name": "",
          "type": "address"
        },
        {
          "internalType": "uint256",
          "name": "",
          "type": "uint256"
        }
      ],
      "name": "pendingValidatorWithdrawRequests",
      "outputs": [
        {
          "internalType": "uint256",
          "name": "unlockTime",
          "type": "uint256"
        },
        {
          "internalType": "uint256",
          "name": "amount",
          "type": "uint256"
        }
      ],
      "stateMutability": "view",
      "type": "function"
    },
    {
      "inputs": [
        {
          "internalType": "address",
          "name": "",
          "type": "address"
        }
      ],
      "name": "pendingValidatorWithdrawRequestsCount",
      "outputs": [
        {
          "internalType": "uint256",
          "name": "",
          "type": "uint256"
        }
      ],
      "stateMutability": "view",
      "type": "function"
    },
    {
      "inputs": [],
      "name": "prevhash",
      "outputs": [
        {
          "internalType": "bytes32",
          "name": "",
          "type": "bytes32"
        }
      ],
      "stateMutability": "view",
      "type": "function"
    },
    {
      "inputs": [
        {
          "internalType": "address",
          "name": "addr_",
          "type": "address"
        },
        {
          "internalType": "uint256",
          "name": "fee_",
          "type": "uint256"
        },
        {
          "internalType": "bytes",
          "name": "template_",
          "type": "bytes"
        }
      ],
      "name": "registerModel",
      "outputs": [
        {
          "internalType": "bytes32",
          "name": "",
          "type": "bytes32"
        }
      ],
      "stateMutability": "nonpayable",
      "type": "function"
    },
    {
      "inputs": [],
      "name": "renounceOwnership",
      "outputs": [],
      "stateMutability": "nonpayable",
      "type": "function"
    },
    {
      "inputs": [
        {
          "internalType": "bytes32",
          "name": "taskid_",
          "type": "bytes32"
        }
      ],
      "name": "retractTask",
      "outputs": [],
      "stateMutability": "nonpayable",
      "type": "function"
    },
    {
      "inputs": [],
      "name": "retractionFeePercentage",
      "outputs": [
        {
          "internalType": "uint256",
          "name": "",
          "type": "uint256"
        }
      ],
      "stateMutability": "view",
      "type": "function"
    },
    {
      "inputs": [
        {
          "internalType": "uint256",
          "name": "t",
          "type": "uint256"
        },
        {
          "internalType": "uint256",
          "name": "ts",
          "type": "uint256"
        }
      ],
      "name": "reward",
      "outputs": [
        {
          "internalType": "uint256",
          "name": "",
          "type": "uint256"
        }
      ],
      "stateMutability": "pure",
      "type": "function"
    },
    {
      "inputs": [
        {
          "internalType": "uint256",
          "name": "amount_",
          "type": "uint256"
        }
      ],
      "name": "setExitValidatorMinUnlockTime",
      "outputs": [],
      "stateMutability": "nonpayable",
      "type": "function"
    },
    {
      "inputs": [
        {
          "internalType": "uint256",
          "name": "amount_",
          "type": "uint256"
        }
      ],
      "name": "setMaxContestationValidatorStakeSince",
      "outputs": [],
      "stateMutability": "nonpayable",
      "type": "function"
    },
    {
      "inputs": [
        {
          "internalType": "uint256",
          "name": "amount_",
          "type": "uint256"
        }
      ],
      "name": "setMinClaimSolutionTime",
      "outputs": [],
      "stateMutability": "nonpayable",
      "type": "function"
    },
    {
      "inputs": [
        {
          "internalType": "uint256",
          "name": "amount_",
          "type": "uint256"
        }
      ],
      "name": "setMinContestationVotePeriodTime",
      "outputs": [],
      "stateMutability": "nonpayable",
      "type": "function"
    },
    {
      "inputs": [
        {
          "internalType": "uint256",
          "name": "amount_",
          "type": "uint256"
        }
      ],
      "name": "setMinRetractionWaitTime",
      "outputs": [],
      "stateMutability": "nonpayable",
      "type": "function"
    },
    {
      "inputs": [
        {
          "internalType": "bool",
          "name": "paused_",
          "type": "bool"
        }
      ],
      "name": "setPaused",
      "outputs": [],
      "stateMutability": "nonpayable",
      "type": "function"
    },
    {
      "inputs": [
        {
          "internalType": "uint256",
          "name": "amount_",
          "type": "uint256"
        }
      ],
      "name": "setRetractionFeePercentage",
      "outputs": [],
      "stateMutability": "nonpayable",
      "type": "function"
    },
    {
      "inputs": [
        {
          "internalType": "uint256",
          "name": "amount_",
          "type": "uint256"
        }
      ],
      "name": "setSlashAmountPercentage",
      "outputs": [],
      "stateMutability": "nonpayable",
      "type": "function"
    },
    {
      "inputs": [
        {
          "internalType": "uint256",
          "name": "amount_",
          "type": "uint256"
        }
      ],
      "name": "setSolutionFeePercentage",
      "outputs": [],
      "stateMutability": "nonpayable",
      "type": "function"
    },
    {
      "inputs": [
        {
          "internalType": "bytes32",
          "name": "model_",
          "type": "bytes32"
        },
        {
          "internalType": "uint256",
          "name": "rate_",
          "type": "uint256"
        }
      ],
      "name": "setSolutionMineableRate",
      "outputs": [],
      "stateMutability": "nonpayable",
      "type": "function"
    },
    {
      "inputs": [
        {
          "internalType": "uint256",
          "name": "amount_",
          "type": "uint256"
        }
      ],
      "name": "setSolutionStakeAmount",
      "outputs": [],
      "stateMutability": "nonpayable",
      "type": "function"
    },
    {
      "inputs": [
        {
          "internalType": "uint64",
          "name": "startBlockTime_",
          "type": "uint64"
        }
      ],
      "name": "setStartBlockTime",
      "outputs": [],
      "stateMutability": "nonpayable",
      "type": "function"
    },
    {
      "inputs": [
        {
          "internalType": "uint256",
          "name": "amount_",
          "type": "uint256"
        }
      ],
      "name": "setTreasuryRewardPercentage",
      "outputs": [],
      "stateMutability": "nonpayable",
      "type": "function"
    },
    {
      "inputs": [
        {
          "internalType": "uint256",
          "name": "amount_",
          "type": "uint256"
        }
      ],
      "name": "setValidatorMinimumPercentage",
      "outputs": [],
      "stateMutability": "nonpayable",
      "type": "function"
    },
    {
      "inputs": [
        {
          "internalType": "uint256",
          "name": "version_",
          "type": "uint256"
        }
      ],
      "name": "setVersion",
      "outputs": [],
      "stateMutability": "nonpayable",
      "type": "function"
    },
    {
      "inputs": [
        {
          "internalType": "bytes32",
          "name": "commitment_",
          "type": "bytes32"
        }
      ],
      "name": "signalCommitment",
      "outputs": [],
      "stateMutability": "nonpayable",
      "type": "function"
    },
    {
      "inputs": [
        {
          "internalType": "bytes32",
          "name": "model_",
          "type": "bytes32"
        },
        {
          "internalType": "bool",
          "name": "support_",
          "type": "bool"
        }
      ],
      "name": "signalSupport",
      "outputs": [],
      "stateMutability": "nonpayable",
      "type": "function"
    },
    {
      "inputs": [],
      "name": "slashAmountPercentage",
      "outputs": [
        {
          "internalType": "uint256",
          "name": "",
          "type": "uint256"
        }
      ],
      "stateMutability": "view",
      "type": "function"
    },
    {
      "inputs": [],
      "name": "solutionFeePercentage",
      "outputs": [
        {
          "internalType": "uint256",
          "name": "",
          "type": "uint256"
        }
      ],
      "stateMutability": "view",
      "type": "function"
    },
    {
      "inputs": [
        {
          "internalType": "bytes32",
          "name": "",
          "type": "bytes32"
        }
      ],
      "name": "solutions",
      "outputs": [
        {
          "internalType": "address",
          "name": "validator",
          "type": "address"
        },
        {
          "internalType": "uint64",
          "name": "blocktime",
          "type": "uint64"
        },
        {
          "internalType": "bool",
          "name": "claimed",
          "type": "bool"
        },
        {
          "internalType": "bytes",
          "name": "cid",
          "type": "bytes"
        }
      ],
      "stateMutability": "view",
      "type": "function"
    },
    {
      "inputs": [
        {
          "internalType": "bytes32",
          "name": "",
          "type": "bytes32"
        }
      ],
      "name": "solutionsStake",
      "outputs": [
        {
          "internalType": "uint256",
          "name": "",
          "type": "uint256"
        }
      ],
      "stateMutability": "view",
      "type": "function"
    },
    {
      "inputs": [],
      "name": "solutionsStakeAmount",
      "outputs": [
        {
          "internalType": "uint256",
          "name": "",
          "type": "uint256"
        }
      ],
      "stateMutability": "view",
      "type": "function"
    },
    {
      "inputs": [],
      "name": "startBlockTime",
      "outputs": [
        {
          "internalType": "uint64",
          "name": "",
          "type": "uint64"
        }
      ],
      "stateMutability": "view",
      "type": "function"
    },
    {
      "inputs": [
        {
          "internalType": "bytes32",
          "name": "taskid_",
          "type": "bytes32"
        }
      ],
      "name": "submitContestation",
      "outputs": [],
      "stateMutability": "nonpayable",
      "type": "function"
    },
    {
      "inputs": [
        {
          "internalType": "bytes32",
          "name": "taskid_",
          "type": "bytes32"
        },
        {
          "internalType": "bytes",
          "name": "cid_",
          "type": "bytes"
        }
      ],
      "name": "submitSolution",
      "outputs": [],
      "stateMutability": "nonpayable",
      "type": "function"
    },
    {
      "inputs": [
        {
          "internalType": "uint8",
          "name": "version_",
          "type": "uint8"
        },
        {
          "internalType": "address",
          "name": "owner_",
          "type": "address"
        },
        {
          "internalType": "bytes32",
          "name": "model_",
          "type": "bytes32"
        },
        {
          "internalType": "uint256",
          "name": "fee_",
          "type": "uint256"
        },
        {
          "internalType": "bytes",
          "name": "input_",
          "type": "bytes"
        }
      ],
      "name": "submitTask",
      "outputs": [
        {
          "internalType": "bytes32",
          "name": "",
          "type": "bytes32"
        }
      ],
      "stateMutability": "nonpayable",
      "type": "function"
    },
    {
      "inputs": [
        {
          "internalType": "uint256",
          "name": "t",
          "type": "uint256"
        }
      ],
      "name": "targetTs",
      "outputs": [
        {
          "internalType": "uint256",
          "name": "",
          "type": "uint256"
        }
      ],
      "stateMutability": "pure",
      "type": "function"
    },
    {
      "inputs": [
        {
          "internalType": "bytes32",
          "name": "",
          "type": "bytes32"
        }
      ],
      "name": "tasks",
      "outputs": [
        {
          "internalType": "bytes32",
          "name": "model",
          "type": "bytes32"
        },
        {
          "internalType": "uint256",
          "name": "fee",
          "type": "uint256"
        },
        {
          "internalType": "address",
          "name": "owner",
          "type": "address"
        },
        {
          "internalType": "uint64",
          "name": "blocktime",
          "type": "uint64"
        },
        {
          "internalType": "uint8",
          "name": "version",
          "type": "uint8"
        },
        {
          "internalType": "bytes",
          "name": "cid",
          "type": "bytes"
        }
      ],
      "stateMutability": "view",
      "type": "function"
    },
    {
      "inputs": [
        {
          "internalType": "address",
          "name": "to_",
          "type": "address"
        }
      ],
      "name": "transferOwnership",
      "outputs": [],
      "stateMutability": "nonpayable",
      "type": "function"
    },
    {
      "inputs": [
        {
          "internalType": "address",
          "name": "to_",
          "type": "address"
        }
      ],
      "name": "transferPauser",
      "outputs": [],
      "stateMutability": "nonpayable",
      "type": "function"
    },
    {
      "inputs": [
        {
          "internalType": "address",
          "name": "to_",
          "type": "address"
        }
      ],
      "name": "transferTreasury",
      "outputs": [],
      "stateMutability": "nonpayable",
      "type": "function"
    },
    {
      "inputs": [],
      "name": "treasury",
      "outputs": [
        {
          "internalType": "address",
          "name": "",
          "type": "address"
        }
      ],
      "stateMutability": "view",
      "type": "function"
    },
    {
      "inputs": [],
      "name": "treasuryRewardPercentage",
      "outputs": [
        {
          "internalType": "uint256",
          "name": "",
          "type": "uint256"
        }
      ],
      "stateMutability": "view",
      "type": "function"
    },
    {
      "inputs": [
        {
          "internalType": "address",
          "name": "addr_",
          "type": "address"
        },
        {
          "internalType": "bytes32",
          "name": "taskid_",
          "type": "bytes32"
        }
      ],
      "name": "validatorCanVote",
      "outputs": [
        {
          "internalType": "uint256",
          "name": "",
          "type": "uint256"
        }
      ],
      "stateMutability": "view",
      "type": "function"
    },
    {
      "inputs": [
        {
          "internalType": "address",
          "name": "validator_",
          "type": "address"
        },
        {
          "internalType": "uint256",
          "name": "amount_",
          "type": "uint256"
        }
      ],
      "name": "validatorDeposit",
      "outputs": [],
      "stateMutability": "nonpayable",
      "type": "function"
    },
    {
      "inputs": [],
      "name": "validatorMinimumPercentage",
      "outputs": [
        {
          "internalType": "uint256",
          "name": "",
          "type": "uint256"
        }
      ],
      "stateMutability": "view",
      "type": "function"
    },
    {
      "inputs": [
        {
          "internalType": "uint256",
          "name": "count_",
          "type": "uint256"
        },
        {
          "internalType": "address",
          "name": "to_",
          "type": "address"
        }
      ],
      "name": "validatorWithdraw",
      "outputs": [],
      "stateMutability": "nonpayable",
      "type": "function"
    },
    {
      "inputs": [
        {
          "internalType": "address",
          "name": "",
          "type": "address"
        }
      ],
      "name": "validatorWithdrawPendingAmount",
      "outputs": [
        {
          "internalType": "uint256",
          "name": "",
          "type": "uint256"
        }
      ],
      "stateMutability": "view",
      "type": "function"
    },
    {
      "inputs": [
        {
          "internalType": "address",
          "name": "",
          "type": "address"
        }
      ],
      "name": "validators",
      "outputs": [
        {
          "internalType": "uint256",
          "name": "staked",
          "type": "uint256"
        },
        {
          "internalType": "uint256",
          "name": "since",
          "type": "uint256"
        },
        {
          "internalType": "address",
          "name": "addr",
          "type": "address"
        }
      ],
      "stateMutability": "view",
      "type": "function"
    },
    {
      "inputs": [],
      "name": "version",
      "outputs": [
        {
          "internalType": "uint256",
          "name": "",
          "type": "uint256"
        }
      ],
      "stateMutability": "view",
      "type": "function"
    },
    {
      "inputs": [
        {
          "internalType": "bytes32",
          "name": "taskid_",
          "type": "bytes32"
        },
        {
          "internalType": "bool",
          "name": "yea_",
          "type": "bool"
        }
      ],
      "name": "voteOnContestation",
      "outputs": [],
      "stateMutability": "nonpayable",
      "type": "function"
    },
    {
      "inputs": [],
      "name": "withdrawAccruedFees",
      "outputs": [],
      "stateMutability": "nonpayable",
      "type": "function"
    }
  ],
  "bytecode": "0x60806040523480156200001157600080fd5b506200001c62000022565b620000e3565b600054610100900460ff16156200008f5760405162461bcd60e51b815260206004820152602760248201527f496e697469616c697a61626c653a20636f6e747261637420697320696e697469604482015266616c697a696e6760c81b606482015260840160405180910390fd5b60005460ff90811614620000e1576000805460ff191660ff9081179091556040519081527f7f26b83ff96e1f2b6a682f133852f6798a09c465da95921460cefb38474024989060200160405180910390a15b565b615d7780620000f36000396000f3fe608060405234801561001057600080fd5b50600436106104895760003560e01c80637683dbfb11610262578063b4dc35b711610151578063d2780940116100ce578063dc06a89f11610092578063dc06a89f14610ae2578063e236f46b14610aeb578063e579f50014610b0e578063f1b8989d14610b33578063f2fde38b14610b3c578063fa52c7d814610b4f57600080fd5b8063d2780940146109b8578063d2992baa146109e6578063d33b2ef514610a2d578063d8a6021c14610abc578063dbb3c97d14610acf57600080fd5b8063c55dae6311610115578063c55dae631461094c578063cbd2422d1461095f578063cf596e4514610972578063d1f0c94114610985578063d2307ae41461099857600080fd5b8063b4dc35b7146108f4578063b66badbf14610914578063c17ddb2a14610927578063c31784be14610930578063c31879781461093957600080fd5b806393a090ec116101df578063a4fa8d57116101a3578063a4fa8d57146108aa578063a53e2525146108bd578063a8f837f3146108c6578063aa59e7e7146108d9578063ada82c7d146108ec57600080fd5b806393a090ec1461085f57806393f1f8ac1461087257806396bb02c3146108855780639b9751191461088e5780639fd0506d1461089757600080fd5b8063839df94511610226578063839df945146108095780638b4d7b35146108295780638da5cb5b1461083c5780638e6d86fd1461084d578063928094441461085657600080fd5b80637683dbfb146107bf57806377286d17146107d25780637881c5e6146107e55780637b36006a146107ed57806383657795146107f657600080fd5b80633d57f5d91161037e5780635b851daa116102fb578063682c2058116102bf578063682c20581461076f578063715018a61461077857806372dc0ee11461078057806375c7050914610789578063763253bb146107ac57600080fd5b80635b851daa146106ff5780635c975abb14610712578063605cecf61461073657806361d027b314610749578063671f81521461075c57600080fd5b806349094d4d1161034257806349094d4d146106aa5780634ff03efa146106bd578063506ea7de146106d057806354fd4d50146106e357806356914caf146106ec57600080fd5b80633d57f5d914610649578063408def1e1461065157806340e8c56d146106645780634421ea2114610684578063485cc9551461069757600080fd5b80631b75c43e1161040c5780632f9b03e4116103d05780632f9b03e4146105dd578063303fb0d6146105f057806336f83c4f1461061b578063393cb1c71461062e5780633d18b9121461064157600080fd5b80631b75c43e1461057c5780631f88ea1c1461059c578063218a3048146105af5780632258d105146105c257806328c2d36c146105ca57600080fd5b80631466b63a116104535780631466b63a1461051057806316c38b3c1461052357806317f3e041146105365780631825c20e146105565780631b2cf4b81461056957600080fd5b80623f9dd61461048e578062fd7082146104a357806308745dd1146104bf5780630a985737146104d25780630c18d4ce146104e5575b600080fd5b6104a161049c3660046150f5565b610bab565b005b6104ac60725481565b6040519081526020015b60405180910390f35b6104ac6104cd366004615187565b610e63565b6104ac6104e03660046150f5565b6110f0565b606a546104f8906001600160401b031681565b6040516001600160401b0390911681526020016104b6565b6104ac61051e3660046152e1565b61124b565b6104a16105313660046153bf565b611292565b6104ac6105443660046150f5565b60806020526000908152604090205481565b6104a16105643660046153dc565b611322565b6104a16105773660046150f5565b6113ec565b6104ac61058a36600461540c565b607a6020526000908152604090205481565b6104ac6105aa366004615429565b611427565b6104ac6105bd36600461544b565b611553565b6104ac611596565b6104a16105d83660046150f5565b6115ff565b6104a16105eb3660046150f5565b61163a565b6106036105fe366004615429565b611675565b6040516001600160a01b0390911681526020016104b6565b6104a16106293660046150f5565b6116ad565b6104ac61063c366004615506565b6116e8565b6104ac611721565b6104ac61174b565b6104a161065f3660046150f5565b611790565b610677610672366004615561565b6117d3565b6040516104b691906155f2565b6104a161069236600461540c565b6117df565b6104a16106a5366004615605565b611831565b6104a16106b83660046153dc565b6119e6565b6104ac6106cb366004615506565b611aa6565b6104a16106de3660046150f5565b611c6c565b6104ac606b5481565b6104a16106fa366004615633565b611d2e565b6104a161070d3660046150f5565b612078565b60675461072690600160a01b900460ff1681565b60405190151581526020016104b6565b6104a16107443660046150f5565b6120b3565b606654610603906001600160a01b031681565b6104a161076a3660046150f5565b6120ee565b6104ac60685481565b6104a1612400565b6104ac606f5481565b61079c6107973660046150f5565b612414565b6040516104b6949392919061567e565b6104a16107ba3660046156c3565b6124df565b6104a16107cd3660046150f5565b612753565b6104a16107e03660046150f5565b61278e565b6104ac61298e565b6104ac60735481565b6104ac6108043660046156e8565b612a2e565b6104ac6108173660046150f5565b607c6020526000908152604090205481565b6104a1610837366004615714565b612b76565b6033546001600160a01b0316610603565b6104ac60745481565b6104ac60715481565b6104a161086d3660046156e8565b61330a565b6104a1610880366004615429565b6134ec565b6104ac606c5481565b6104ac60845481565b606754610603906001600160a01b031681565b6104ac6108b8366004615429565b61357f565b6104ac60755481565b6104a16108d4366004615742565b6135fb565b6104a16108e73660046150f5565b61364e565b6104a1613689565b6104ac6109023660046150f5565b60836020526000908152604090205481565b6104a16109223660046150f5565b613735565b6104ac60695481565b6104ac60705481565b6104a16109473660046150f5565b613770565b606554610603906001600160a01b031681565b6104a161096d3660046150f5565b6137ab565b6104ac6109803660046150f5565b6138c4565b610603610993366004615429565b613958565b6104ac6109a636600461540c565b60786020526000908152604090205481565b6107266109c63660046156c3565b607f60209081526000928352604080842090915290825290205460ff1681565b610a186109f43660046156e8565b60796020908152600092835260408084209091529082529020805460019091015482565b604080519283526020830191909152016104b6565b610a7f610a3b3660046150f5565b607e60205260009081526040902080546001909101546001600160a01b03821691600160a01b81046001600160401b031691600160e01b90910463ffffffff169084565b604080516001600160a01b0390951685526001600160401b03909316602085015263ffffffff9091169183019190915260608201526080016104b6565b6104a1610aca36600461540c565b613974565b6104a1610add3660046150f5565b6139c6565b6104ac606d5481565b610afe610af93660046150f5565b613a01565b6040516104b6949392919061575d565b610b21610b1c3660046150f5565b613a3b565b6040516104b69695949392919061578a565b6104ac606e5481565b6104a1610b4a36600461540c565b613b14565b610b87610b5d36600461540c565b6077602052600090815260409020805460018201546002909201549091906001600160a01b031683565b6040805193845260208401929092526001600160a01b0316908201526060016104b6565b606754600160a01b900460ff1615610bde5760405162461bcd60e51b8152600401610bd5906157db565b60405180910390fd5b6000818152607b60205260409020600201546001600160a01b03163314610c335760405162461bcd60e51b81526020600482015260096024820152683737ba1037bbb732b960b91b6044820152606401610bd5565b6000818152607d60205260409020546001600160a01b031615610c875760405162461bcd60e51b815260206004820152600c60248201526b3430b99039b7b63aba34b7b760a11b6044820152606401610bd5565b6072546000828152607b6020526040902060020154610cb690600160a01b90046001600160401b031642615811565b11610d035760405162461bcd60e51b815260206004820152601860248201527f646964206e6f742077616974206c6f6e6720656e6f75676800000000000000006044820152606401610bd5565b6000670de0b6b3a7640000606f54670de0b6b3a7640000610d249190615811565b6000848152607b6020526040902060010154610d409190615824565b610d4a9190615851565b6000838152607b602052604081206001015491925090610d6b908390615811565b60655460405163a9059cbb60e01b81529192506001600160a01b03169063a9059cbb90610d9e9033908690600401615873565b6020604051808303816000875af1158015610dbd573d6000803e3d6000fd5b505050506040513d601f19601f82011682018060405250810190610de1919061588c565b508060686000828254610df491906158a9565b90915550506000838152607b60205260408120818155600181018290556002810180546001600160e81b031916905590610e3160038301826150a7565b505060405183907f446efbf8d207f3e2ede58a6bbde7028a4e308488b6293e6461fbb7c288326e7690600090a2505050565b606754600090600160a01b900460ff1615610e905760405162461bcd60e51b8152600401610bd5906157db565b6000858152607660205260409020600101546001600160a01b0316610ec75760405162461bcd60e51b8152600401610bd5906158bc565b600085815260766020526040902054841015610f255760405162461bcd60e51b815260206004820152601860248201527f6c6f77657220666565207468616e206d6f64656c2066656500000000000000006044820152606401610bd5565b6000610f318484613b25565b905060006040518060c00160405280888152602001878152602001896001600160a01b03168152602001426001600160401b031681526020018a60ff1681526020018381525090506000610f88823360695461124b565b9050336001600160a01b031688827fc3d3e0544c80e3bb83f62659259ae1574f72a91515ab3cae3dd75cf77e1b0aea8a604051610fc791815260200190565b60405180910390a46065546040516323b872dd60e01b8152336004820152306024820152604481018990526001600160a01b03909116906323b872dd906064016020604051808303816000875af1158015611026573d6000803e3d6000fd5b505050506040513d601f19601f8201168201806040525081019061104a919061588c565b506000818152607b602090815260409182902084518155908401516001820155908301516002820180546060860151608087015160ff16600160e01b0260ff60e01b196001600160401b03909216600160a01b026001600160e01b03199093166001600160a01b0390951694909417919091171691909117905560a083015183919060038201906110db908261596c565b50505060698190559998505050505050505050565b606754600090600160a01b900460ff161561111d5760405162461bcd60e51b8152600401610bd5906157db565b336000908152607a6020908152604080832054607790925290912054839161114491615811565b101561116c5760405162461bcd60e51b81526020600482015260006024820152604401610bd5565b60006075544261117c91906158a9565b33600090815260786020526040812080549293506001929091906111a19084906158a9565b909155505033600081815260786020908152604080832054815180830183528681528084018981528686526079855283862083875285528386209151825551600190910155938352607a909152812080548692906112009084906158a9565b90915550506040805183815260208101869052829133917fcc7e0e76b20394ef965d71c4111d21e1b322bb8775dc2c7acd29eb0d3c3dd96d910160405180910390a39150505b919050565b60008282856000015186602001518760a00151604051602001611272959493929190615a2b565b6040516020818303038152906040528051906020012090505b9392505050565b6067546001600160a01b031633146112d95760405162461bcd60e51b815260206004820152600a6024820152693737ba103830bab9b2b960b11b6044820152606401610bd5565b6067805460ff60a01b1916600160a01b831515908102919091179091556040517fd83d5281277e107f080e362699d46082adb74e7dc6a9bccbc87d8ae9533add4490600090a250565b606754600160a01b900460ff161561134c5760405162461bcd60e51b8152600401610bd5906157db565b611354611596565b336000908152607a602090815260408083205460779092529091205461137a9190615811565b10156113985760405162461bcd60e51b8152600401610bd590615a69565b6113a23383612a2e565b156113dd5760405162461bcd60e51b815260206004820152600b60248201526a1b9bdd08185b1b1bddd95960aa1b6044820152606401610bd5565b6113e8828233613c5a565b5050565b6113f4613d7e565b606e81905560405181907fa9dfc7ca3151b504bdbe971426324a888f97e7e7a52929484c01dff8168058ab90600090a250565b600080831180156114385750600082115b61146f5760405162461bcd60e51b81526020600482015260086024820152676d696e2076616c7360c01b6044820152606401610bd5565b600061147a846138c4565b9050600061148a825b8590613dd8565b9050670cf4ad2e86166c9c8112156114af5768056bc75e2d631000009250505061154d565b670de0b6b3a764000068056bc75e2d6310000060006114ec6114e5846114df856114d98984613eae565b90613ebd565b90613eae565b8490613f61565b90506801158e460913d00000811261150c5760009550505050505061154d565b6115168160001390565b1561153e5761153261152f61152a83613f70565b613fb1565b90565b9550505050505061154d565b61153261152f61148383613fb1565b92915050565b6000818360200151846000015185606001516040516020016115789493929190615a95565b60405160208183030381529060405280519060200120905092915050565b6000806115a161298e565b9050683635c9adc5dea000008110156115bc57600091505090565b670de0b6b3a7640000606c54670de0b6b3a76400006115db9190615811565b6115e59083615824565b6115ef9190615851565b6115f99082615811565b91505090565b611607613d7e565b606c81905560405181907fb2ba28b5b5aed3444b23a8597a249678dd98e0062432ef1b0f9a6caa39ceb0ad90600090a250565b611642613d7e565b607181905560405181907fed28aed8b87631da9bc750c8885c00f9beda7f694a23bb732d987aa80214a63f90600090a250565b6082602052816000526040600020818154811061169157600080fd5b6000918252602090912001546001600160a01b03169150829050565b6116b5613d7e565b606d81905560405181907f4d3fce9ddc8266ead559213cbaaa8ebcfa0c837a2c9a1e814bae160b615d30dd90600090a250565b6000848484846040516020016117019493929190615ac8565b604051602081830303815290604052805190602001209050949350505050565b606a546000906117469061173e906001600160401b031642615811565b6108b861298e565b905090565b60008061175661298e565b9050686c6b935b8bbd40000081101561177157600091505090565b670de0b6b3a7640000606d54670de0b6b3a76400006115db9190615811565b611798613d7e565b606b8190556040518181527f8c854a81cb5c93e7e482d30fb9c6f88fdbdb320f10f7a853c2263659b54e563f9060200160405180910390a150565b606061128b8383613b25565b6117e7613d7e565b606780546001600160a01b0319166001600160a01b0383169081179091556040517f5a85b4270fc1e75035e6cd505418ce65e0bcc36cc7eb9ce9e6f8c6181d4cb57790600090a250565b600054610100900460ff16158080156118515750600054600160ff909116105b8061186b5750303b15801561186b575060005460ff166001145b6118ce5760405162461bcd60e51b815260206004820152602e60248201527f496e697469616c697a61626c653a20636f6e747261637420697320616c72656160448201526d191e481a5b9a5d1a585b1a5e995960921b6064820152608401610bd5565b6000805460ff1916600117905580156118f1576000805461ff0019166101001790555b6118f9614063565b606580546001600160a01b038086166001600160a01b03199283161790925560668054928516928216929092179091556067805490911633179055606a80546001600160401b03421667ffffffffffffffff199091161790556602d79883d20000606c55655af3107a4000606d5567016345785d8a0000606e819055606f8190556070556107d0607155612710607255610fa060735560786074556201518060755580156119e1576000805461ff0019169055604051600181527f7f26b83ff96e1f2b6a682f133852f6798a09c465da95921460cefb38474024989060200160405180910390a15b505050565b6119ee611596565b336000908152607a6020908152604080832054607790925290912054611a149190615811565b1015611a325760405162461bcd60e51b8152600401610bd590615a69565b6000828152607660205260409020600101546001600160a01b0316611a695760405162461bcd60e51b8152600401610bd5906158bc565b6040518115158152829033907fd17ce9337eb398b61971ca3d8c9933fc401b9669a0607afe3452612583d7c5b89060200160405180910390a35050565b606754600090600160a01b900460ff1615611ad35760405162461bcd60e51b8152600401610bd5906157db565b6001600160a01b038516611b295760405162461bcd60e51b815260206004820152601860248201527f61646472657373206d757374206265206e6f6e2d7a65726f00000000000000006044820152606401610bd5565b6000611b358484613b25565b604080516080810182528781526001600160a01b0389166020820152600091810182905260608101839052919250611b6d8233611553565b6000818152607660205260409020600101549091506001600160a01b031615611bd85760405162461bcd60e51b815260206004820152601860248201527f6d6f64656c20616c7265616479207265676973746572656400000000000000006044820152606401610bd5565b60008181526076602090815260409182902084518155908401516001820180546001600160a01b0319166001600160a01b0390921691909117905590830151600282015560608301518391906003820190611c33908261596c565b50506040518291507fa4b0af38d049ba81703a0d0e46cc2ff39681210302134046237111a8fb7dee7290600090a2979650505050505050565b606754600160a01b900460ff1615611c965760405162461bcd60e51b8152600401610bd5906157db565b6000818152607c602052604090205415611ce65760405162461bcd60e51b8152602060048201526011602482015270636f6d6d69746d656e742065786973747360781b6044820152606401610bd5565b611cee614092565b6000828152607c6020526040808220929092559051829133917f09b4c028a2e50fec6f1c6a0163c59e8fbe92b231e5c03ef3adec585e63a14b929190a350565b606754600160a01b900460ff1615611d585760405162461bcd60e51b8152600401610bd5906157db565b611d60611596565b336000908152607a6020908152604080832054607790925290912054611d869190615811565b1015611da45760405162461bcd60e51b8152600401610bd590615a69565b6000838152607b6020526040902054611df55760405162461bcd60e51b81526020600482015260136024820152721d185cdac8191bd95cc81b9bdd08195e1a5cdd606a1b6044820152606401610bd5565b6000838152607d60205260409020546001600160a01b031615611e5a5760405162461bcd60e51b815260206004820152601a60248201527f736f6c7574696f6e20616c7265616479207375626d69747465640000000000006044820152606401610bd5565b6000611e68338585856116e8565b6000818152607c6020526040902054909150611ec65760405162461bcd60e51b815260206004820152601760248201527f6e6f6e206578697374656e7420636f6d6d69746d656e740000000000000000006044820152606401610bd5565b611ece614092565b6000828152607c602052604090205410611f2a5760405162461bcd60e51b815260206004820152601a60248201527f636f6d6d69746d656e74206d75737420626520696e20706173740000000000006044820152606401610bd5565b6040518060800160405280336001600160a01b03168152602001426001600160401b0316815260200160001515815260200184848080601f0160208091040260200160405190810160405280939291908181526020018383808284376000920182905250939094525050868152607d60209081526040918290208451815492860151938601511515600160e01b0260ff60e01b196001600160401b03909516600160a01b026001600160e01b03199094166001600160a01b039092169190911792909217929092161781556060830151909150600182019061200c908261596c565b5050608454600086815260836020908152604080832084905533835260779091528120805492935091612040908490615811565b9091555050604051849033907f957c18b5af8413899ea8a576a4d3fb16839a02c9fccfdce098b6d59ef248525b90600090a350505050565b612080613d7e565b606f81905560405181907f248f32867b202a570ffbb94e864b6075503b4961c00317f152604ee3b8de4dda90600090a250565b6120bb613d7e565b607081905560405181907f4cedc026426414a08f6f21ca64d85564bf602162bb3463dd2d3e17b58c1da58990600090a250565b606754600160a01b900460ff16156121185760405162461bcd60e51b8152600401610bd5906157db565b612120611596565b336000908152607a60209081526040808320546077909252909120546121469190615811565b10156121645760405162461bcd60e51b8152600401610bd590615a69565b6000818152607d60205260409020546001600160a01b03166121c85760405162461bcd60e51b815260206004820152601760248201527f736f6c7574696f6e20646f6573206e6f742065786973740000000000000000006044820152606401610bd5565b6000818152607e60205260409020546001600160a01b03161561222d5760405162461bcd60e51b815260206004820152601b60248201527f636f6e746573746174696f6e20616c72656164792065786973747300000000006044820152606401610bd5565b6071546000828152607d60205260409020546122599190600160a01b90046001600160401b03166158a9565b42106122925760405162461bcd60e51b8152602060048201526008602482015267746f6f206c61746560c01b6044820152606401610bd5565b6000818152607d6020526040902054600160e01b900460ff16156122de5760405162461bcd60e51b81526020600482015260036024820152623bba3360e91b6044820152606401610bd5565b60006122e861174b565b60408051608081018252338082526001600160401b0342811660208085019182526000858701818152606087018981528b8352607e909352878220965187549451915163ffffffff16600160e01b026001600160e01b0392909616600160a01b026001600160e01b03199095166001600160a01b03919091161793909317929092169290921784559051600190930192909255915192935084927f6958c989e915d3e41a35076e3c480363910055408055ad86ae1ee13d41c406409190a36123b282600133613c5a565b6000828152607d60209081526040808320546001600160a01b03168352607790915290205481116113e8576000828152607d60205260408120546113e89184916001600160a01b0316613c5a565b612408613d7e565b6124126000614123565b565b607d60205260009081526040902080546001820180546001600160a01b03831693600160a01b84046001600160401b031693600160e01b900460ff1692909161245c906158ea565b80601f0160208091040260200160405190810160405280929190818152602001828054612488906158ea565b80156124d55780601f106124aa576101008083540402835291602001916124d5565b820191906000526020600020905b8154815290600101906020018083116124b857829003601f168201915b5050505050905084565b606754600160a01b900460ff16156125095760405162461bcd60e51b8152600401610bd5906157db565b336000908152607960209081526040808320858452825291829020825180840190935280548084526001909101549183019190915261257e5760405162461bcd60e51b81526020600482015260116024820152701c995c5d595cdd081b9bdd08195e1a5cdd607a1b6044820152606401610bd5565b80514210156125bd5760405162461bcd60e51b815260206004820152600b60248201526a3bb0b4ba103637b733b2b960a91b6044820152606401610bd5565b602080820151336000908152607790925260409091205410156126175760405162461bcd60e51b81526020600482015260126024820152711cdd185ad9481a5b9cdd59999a58da595b9d60721b6044820152606401610bd5565b606554602082015160405163a9059cbb60e01b81526001600160a01b039092169163a9059cbb9161264d91869190600401615873565b6020604051808303816000875af115801561266c573d6000803e3d6000fd5b505050506040513d601f19601f82011682018060405250810190612690919061588c565b506020808201513360009081526077909252604082208054919290916126b7908490615811565b9091555050602080820151336000908152607a909252604082208054919290916126e2908490615811565b909155505033600081815260796020908152604080832087845282528083208381556001019290925583810151915191825285926001600160a01b0386169290917f109aeff667601aad33abcb7c5df1617754eefd18253d586a95c198cb479b5bd4910160405180910390a4505050565b61275b613d7e565b607281905560405181907f2cf38ed7da57dd510fa6ecbfb991949cdde5c808acbe85cfa940b642def628ed90600090a250565b606754600160a01b900460ff16156127b85760405162461bcd60e51b8152600401610bd5906157db565b6000818152607d60205260409020546001600160a01b03166128115760405162461bcd60e51b81526020600482015260126024820152711cdbdb1d5d1a5bdb881b9bdd08199bdd5b9960721b6044820152606401610bd5565b6000818152607e60205260409020546001600160a01b0316156128695760405162461bcd60e51b815260206004820152601060248201526f3430b99031b7b73a32b9ba30ba34b7b760811b6044820152606401610bd5565b6071546128769042615811565b6000828152607d6020526040902054600160a01b90046001600160401b0316106128d55760405162461bcd60e51b815260206004820152601060248201526f6e6f7420656e6f7567682064656c617960801b6044820152606401610bd5565b6000818152607d6020526040902054600160e01b900460ff161561292d5760405162461bcd60e51b815260206004820152600f60248201526e185b1c9958591e4818db185a5b5959608a1b6044820152606401610bd5565b6000818152607d6020526040808220805460ff60e01b198116600160e01b17909155905183926001600160a01b03909216917f0b76b4ae356796814d36b46f7c500bbd27b2cce1e6059a6fa2bebfd5a389b19091a361298b81614175565b50565b6065546040516370a0823160e01b815230600482015260009182916001600160a01b03909116906370a0823190602401602060405180830381865afa1580156129db573d6000803e3d6000fd5b505050506040513d601f19601f820116820180604052508101906129ff9190615b10565b9050697f0e10af47c1c70000008110612a1a57600091505090565b6115f981697f0e10af47c1c7000000615811565b6000818152607e60205260408120546001600160a01b0316612a525750600161154d565b6073546000838152607e6020526040902054612a7e9190600160a01b90046001600160401b03166158a9565b421115612a8d5750600261154d565b6000828152607f602090815260408083206001600160a01b038716845290915290205460ff1615612ac05750600361154d565b6001600160a01b0383166000908152607760205260408120600101549003612aea5750600461154d565b6074546001600160a01b0384166000908152607760205260409020600101541015612b175750600561154d565b6000828152607e60209081526040808320546074546001600160a01b03881685526077909352922060010154600160a01b9092046001600160401b031691612b5f9190615811565b1115612b6d5750600661154d565b50600092915050565b606754600160a01b900460ff1615612ba05760405162461bcd60e51b8152600401610bd5906157db565b6000828152607e60205260409020546001600160a01b0316612c045760405162461bcd60e51b815260206004820152601a60248201527f636f6e746573746174696f6e20646f65736e27742065786973740000000000006044820152606401610bd5565b6073546000838152607e6020526040902054612c309190600160a01b90046001600160401b03166158a9565b421015612c7f5760405162461bcd60e51b815260206004820152601760248201527f766f74696e6720706572696f64206e6f7420656e6465640000000000000000006044820152606401610bd5565b60008163ffffffff1611612cc65760405162461bcd60e51b815260206004820152600e60248201526d185b5b9d081d1bdbc81cdb585b1b60921b6044820152606401610bd5565b6000828152608160209081526040808320546082835281842054607e909352908320549092600160e01b90910463ffffffff1690612d048583615b29565b6000878152607e602052604090206001015490915063ffffffff8085169086161115613061576000612d3c8263ffffffff8716615824565b905060008663ffffffff16600114612d6857612d59600283615851565b612d639083615811565b612d6a565b815b905060008763ffffffff16600114612da657612d87600189615b4d565b63ffffffff16612d978385615811565b612da19190615851565b612da9565b60005b905063ffffffff86165b8563ffffffff16811015612f3a578863ffffffff16811015612f285760008b8152608160205260408120805483908110612def57612def615b6a565b60009182526020808320909101546001600160a01b0316808352607790915260408220805491935088929091612e269084906158a9565b90915550506000829003612eaf5760655460405163a9059cbb60e01b81526001600160a01b039091169063a9059cbb90612e669084908890600401615873565b6020604051808303816000875af1158015612e85573d6000803e3d6000fd5b505050506040513d601f19601f82011682018060405250810190612ea9919061588c565b50612f26565b60655460405163a9059cbb60e01b81526001600160a01b039091169063a9059cbb90612ee19084908790600401615873565b6020604051808303816000875af1158015612f00573d6000803e3d6000fd5b505050506040513d601f19601f82011682018060405250810190612f24919061588c565b505b505b80612f3281615b80565b915050612db3565b5060008a8152607e6020526040812054600160e01b900463ffffffff1690036130595760655460008b8152607b602052604090819020600281015460019190910154915163a9059cbb60e01b81526001600160a01b039384169363a9059cbb93612faa9390911691600401615873565b6020604051808303816000875af1158015612fc9573d6000803e3d6000fd5b505050506040513d601f19601f82011682018060405250810190612fed919061588c565b5060008a8152608360209081526040808320546081909252822080549192607792909190829061301f5761301f615b6a565b60009182526020808320909101546001600160a01b03168352820192909252604001812080549091906130539084906158a9565b90915550505b505050613297565b60006130738263ffffffff8816615824565b905060008563ffffffff1660011461309557613090600283615851565b613097565b815b905060008663ffffffff166001146130d3576130b4600188615b4d565b63ffffffff166130c48385615811565b6130ce9190615851565b6130d6565b60005b905063ffffffff86165b8563ffffffff16811015613267578763ffffffff168110156132555760008b815260826020526040812080548390811061311c5761311c615b6a565b60009182526020808320909101546001600160a01b03168083526077909152604082208054919350889290916131539084906158a9565b909155505060008290036131dc5760655460405163a9059cbb60e01b81526001600160a01b039091169063a9059cbb906131939084908890600401615873565b6020604051808303816000875af11580156131b2573d6000803e3d6000fd5b505050506040513d601f19601f820116820180604052508101906131d6919061588c565b50613253565b60655460405163a9059cbb60e01b81526001600160a01b039091169063a9059cbb9061320e9084908790600401615873565b6020604051808303816000875af115801561322d573d6000803e3d6000fd5b505050506040513d601f19601f82011682018060405250810190613251919061588c565b505b505b8061325f81615b80565b9150506130e0565b5060008a8152607e6020526040812054600160e01b900463ffffffff169003613293576132938a614175565b5050505b6000878152607e602090815260409182902080546001600160e01b0316600160e01b63ffffffff8781169182029290921790925592519081529185169189917f71d8c71303e35a39162e33a402c9897bf9848388537bac7d5e1b0d202eca4e66910160405180910390a350505050505050565b606754600160a01b900460ff16156133345760405162461bcd60e51b8152600401610bd5906157db565b6065546040516323b872dd60e01b8152336004820152306024820152604481018390526001600160a01b03909116906323b872dd906064016020604051808303816000875af115801561338b573d6000803e3d6000fd5b505050506040513d601f19601f820116820180604052508101906133af919061588c565b5060006133ba611596565b6001600160a01b0384166000908152607760205260409020549091508110613427576001600160a01b03831660009081526077602052604090205481906134029084906158a9565b10613427576001600160a01b0383166000908152607760205260409020426001909101555b604080516060810182526001600160a01b03851660009081526077602052919091205481906134579085906158a9565b81526001600160a01b038581166000818152607760208181526040808420600181018054848a015297820186905293859052918152865183558681015190955594850151600290910180546001600160a01b0319169190931617909155915184815233917f8d4844488c19a90828439e71d14ebad860806d04f8ef8b25a82179fab2699b8991015b60405180910390a3505050565b6134f4613d7e565b6000828152607660205260409020600101546001600160a01b031661352b5760405162461bcd60e51b8152600401610bd5906158bc565b600082815260766020526040908190206002018290555182907f0321e8a918b4c47bf3677852c070983825f30a47bc8d9416691454fa6a727d63906135739084815260200190565b60405180910390a25050565b6000816000036135985750670de0b6b3a764000061154d565b670de0b6b3a7640000697f0e10af47c1c70000006135b68585611427565b670de0b6b3a76400006135d386697f0e10af47c1c7000000615811565b6135dd9190615824565b6135e79190615824565b6135f19190615851565b61128b9190615851565b613603613d7e565b606a805467ffffffffffffffff19166001600160401b0383169081179091556040517fa15d6b0930a82638ac4775bfd1b2e9f1e86be67e1bd3a09fa8a77a8f079769d790600090a250565b613656613d7e565b607481905560405181907fdb340415b83e58bab317964518d523baabcc1571de3b5d8fe6ebd52c704d31a990600090a250565b606754600160a01b900460ff16156136b35760405162461bcd60e51b8152600401610bd5906157db565b60655460665460685460405163a9059cbb60e01b81526001600160a01b039384169363a9059cbb936136ea93911691600401615873565b6020604051808303816000875af1158015613709573d6000803e3d6000fd5b505050506040513d601f19601f8201168201806040525081019061372d919061588c565b506000606855565b61373d613d7e565b607381905560405181907f3a559dce5761b4b2e6099b6dc8d51f7eb190932dc5797d8090daf1a42cd58e7d90600090a250565b613778613d7e565b607581905560405181907f7bf73d8c24113d60e7de7e92ae237284cf5a6f8dfe31e8eee1c6d9c8890e13c990600090a250565b606754600160a01b900460ff16156137d55760405162461bcd60e51b8152600401610bd5906157db565b336000908152607960209081526040808320848452825291829020825180840190935280548084526001909101549183019190915261384a5760405162461bcd60e51b81526020600482015260116024820152701c995c5d595cdd081b9bdd08195e1a5cdd607a1b6044820152606401610bd5565b602080820151336000908152607a90925260408220805491929091613870908490615811565b9091555050336000818152607960209081526040808320868452909152808220828155600101829055518492917ff9d5cfcdfe9803069225971ba315f4302add9b477c3441cc363bc38fdb065b9091a35050565b600063bbf81e008211156138e35750697f0e10af47c1c7000000919050565b60006138fe61152f6138f9856301e13380614552565b61456a565b9050670de0b6b3a76400008161391e697f0e10af47c1c700000083615824565b61393090670de0b6b3a7640000615824565b61393a9190615851565b6139449190615851565b61128b90697f0e10af47c1c7000000615811565b6081602052816000526040600020818154811061169157600080fd5b61397c613d7e565b606680546001600160a01b0319166001600160a01b0383169081179091556040517f6bdb9ceff405d990c9b60be9f719fbb80889d5f064e8fd76efd5bea353e9071290600090a250565b6139ce613d7e565b608481905560405181907fa7597266328022d189bdbb20244e37e01bd5972bf8fa6a76c9b76cb666b23fbc90600090a250565b607660205260009081526040902080546001820154600283015460038401805493946001600160a01b039093169391929161245c906158ea565b607b602052600090815260409020805460018201546002830154600384018054939492936001600160a01b03831693600160a01b84046001600160401b031693600160e01b900460ff16929091613a91906158ea565b80601f0160208091040260200160405190810160405280929190818152602001828054613abd906158ea565b8015613b0a5780601f10613adf57610100808354040283529160200191613b0a565b820191906000526020600020905b815481529060010190602001808311613aed57829003601f168201915b5050505050905086565b613b1c613d7e565b61298b816145c0565b606062010000821115613b7a5760405162461bcd60e51b815260206004820152601f60248201527f4d617820636f6e74656e742073697a65206973203635353336206279746573006044820152606401610bd5565b6000613b8583614636565b9050600081858584604051602001613ba09493929190615b99565b60405160208183030381529060405290506002613bbd8251614636565b82604051602001613bcf929190615bf0565b60408051601f1981840301815290829052613be991615c30565b602060405180830381855afa158015613c06573d6000803e3d6000fd5b5050506040513d601f19601f82011682018060405250810190613c299190615b10565b604051609160f51b602082015260228101919091526042016040516020818303038152906040529250505092915050565b6000838152607f602090815260408083206001600160a01b03851684529091529020805460ff191660011790558115613cc95760008381526081602090815260408220805460018101825590835291200180546001600160a01b0319166001600160a01b038316179055613d01565b60008381526082602090815260408220805460018101825590835291200180546001600160a01b0319166001600160a01b0383161790555b6000838152607e60209081526040808320600101546001600160a01b038516845260779092528220805491929091613d3a908490615811565b9091555050604051821515815283906001600160a01b038316907f1aa9e4be46e24e1f2e7eeb1613c01629213cd42965d2716e18531b63e552e411906020016134df565b6033546001600160a01b031633146124125760405162461bcd60e51b815260206004820181905260248201527f4f776e61626c653a2063616c6c6572206973206e6f7420746865206f776e65726044820152606401610bd5565b60008282600160ff1b821480613df15750600160ff1b81145b15613e0f576040516309fe2b4560e41b815260040160405180910390fd5b60008060008412613e205783613e25565b836000035b915060008312613e355782613e3a565b826000035b90506000613e5183670de0b6b3a76400008461478d565b90506001600160ff1b03811115613e855760405163d49c26b360e01b81526004810189905260248101889052604401610bd5565b60001985851813613ea181613e9d578260000361152f565b8290565b9998505050505050505050565b600061128b61152f8385615c4c565b60008282600160ff1b821480613ed65750600160ff1b81145b15613ef45760405163a6070c2560e01b815260040160405180910390fd5b60008060008412613f055783613f0a565b836000035b915060008312613f1a5782613f1f565b826000035b90506000613f2d8383614861565b90506001600160ff1b03811115613e855760405163120b5b4360e01b81526004810189905260248101889052604401610bd5565b600061128b61152f8385615c6c565b600081600160ff1b8101613f975760405163ec2b9e6760e01b815260040160405180910390fd5b60008112613fa5578261128b565b61128b61152f82615c94565b600081818112156140125768033dd1780914b9711419811215613fd75750600092915050565b61400b613fea61152f61152a8460000390565b6ec097ce7bc90715b34b9f1000000000816140075761400761583b565b0590565b915061405d565b680a688906bd8affffff81131561403e57604051626c1a0560e31b815260048101849052602401610bd5565b670de0b6b3a7640000604082901b0561405961152f82614917565b9250505b50919050565b600054610100900460ff1661408a5760405162461bcd60e51b8152600401610bd590615cb0565b612412615077565b60004661a4ba8114806140a7575062066eed81145b806140b4575062066eee81145b1561411c5760646001600160a01b031663a3b1b31d6040518163ffffffff1660e01b8152600401602060405180830381865afa1580156140f8573d6000803e3d6000fd5b505050506040513d601f19601f820116820180604052508101906115f99190615b10565b4391505090565b603380546001600160a01b038381166001600160a01b0319831681179093556040519116919082907f8be0079c531659141344cd1fd0a4f28419497f9722a3daafe3b4186f6b6457e090600090a35050565b6000818152607b6020818152604080842080548552607683529084205493859052919052600101548111156141a8575060005b8015614246576065546000838152607b6020908152604080832054835260769091529081902060010154905163a9059cbb60e01b81526001600160a01b039283169263a9059cbb92614201929116908590600401615873565b6020604051808303816000875af1158015614220573d6000803e3d6000fd5b505050506040513d601f19601f82011682018060405250810190614244919061588c565b505b6000828152607b6020526040812060010154614263908390615811565b90506000670de0b6b3a7640000606e54670de0b6b3a76400006142869190615811565b6142909084615824565b61429a9190615851565b6142a49083615811565b905080606860008282546142b891906158a9565b90915550600090506142ca8284615811565b90508015614363576065546000868152607d60205260409020546001600160a01b039182169163a9059cbb91166143018587615811565b6040518363ffffffff1660e01b815260040161431e929190615873565b6020604051808303816000875af115801561433d573d6000803e3d6000fd5b505050506040513d601f19601f82011682018060405250810190614361919061588c565b505b6000858152607b6020908152604080832054835260769091529020600201548015614508576000670de0b6b3a76400008261439c611721565b6143a69190615824565b6143b09190615851565b90508015614506576000670de0b6b3a7640000607054670de0b6b3a76400006143d99190615811565b6143e39084615824565b6143ed9190615851565b6143f79083615811565b60655460008a8152607d60205260409020549192506001600160a01b039081169163a9059cbb91166144298486615811565b6040518363ffffffff1660e01b8152600401614446929190615873565b6020604051808303816000875af1158015614465573d6000803e3d6000fd5b505050506040513d601f19601f82011682018060405250810190614489919061588c565b5060655460665460405163a9059cbb60e01b81526001600160a01b039283169263a9059cbb926144c0929116908590600401615873565b6020604051808303816000875af11580156144df573d6000803e3d6000fd5b505050506040513d601f19601f82011682018060405250810190614503919061588c565b50505b505b600086815260836020908152604080832054607d8352818420546001600160a01b0316845260779092528220805491929091614545908490615811565b9091555050505050505050565b600061128b61152f84670de0b6b3a76400008561478d565b600081680a688906bd8affffff81111561459a5760405163b3b6ba1f60e01b815260048101849052602401610bd5565b60006145b2670de0b6b3a7640000604084901b615851565b905061405961152f82614917565b6145c8613d7e565b6001600160a01b03811661462d5760405162461bcd60e51b815260206004820152602660248201527f4f776e61626c653a206e6577206f776e657220697320746865207a65726f206160448201526564647265737360d01b6064820152608401610bd5565b61298b81614123565b60608160015b607f826001600160401b0316111561466f576007826001600160401b0316901c91508061466890615cfb565b905061463c565b6000816001600160401b03166001600160401b0381111561469257614692615200565b6040519080825280601f01601f1916602001820160405280156146bc576020820181803683370190505b50905084925060005b826001600160401b0316816001600160401b0316101561473e5783607f1660801760f81b82826001600160401b03168151811061470457614704615b6a565b60200101906001600160f81b031916908160001a9053506007846001600160401b0316901c9350808061473690615cfb565b9150506146c5565b50607f60f81b81614750600185615d21565b6001600160401b03168151811061476957614769615b6a565b0160200180519091166001600160f81b03191690600082901a905350949350505050565b60008080600019858709858702925082811083820303915050806000036147c7578382816147bd576147bd61583b565b049250505061128b565b8381106147f857604051630c740aef60e31b8152600481018790526024810186905260448101859052606401610bd5565b60008486880960026001871981018816978890046003810283188082028403028082028403028082028403028082028403028082028403029081029092039091026000889003889004909101858311909403939093029303949094049190911702949350505050565b60008080600019848609848602925082811083820303915050806000036148955750670de0b6b3a76400009004905061154d565b670de0b6b3a764000081106148c757604051635173648d60e01b81526004810186905260248101859052604401610bd5565b6000670de0b6b3a764000085870962040000818503049310909103600160ee1b02919091177faccb18165bd6fe31ae1cf318dc5b51eee0e1ba569b88cd74c1773b91fac106690291505092915050565b600160bf1b67ff00000000000000821615614a245767800000000000000082161561494b5768016a09e667f3bcc9090260401c5b67400000000000000082161561496a576801306fe0a31b7152df0260401c5b672000000000000000821615614989576801172b83c7d517adce0260401c5b6710000000000000008216156149a85768010b5586cf9890f62a0260401c5b6708000000000000008216156149c7576801059b0d31585743ae0260401c5b6704000000000000008216156149e657680102c9a3e778060ee70260401c5b670200000000000000821615614a055768010163da9fb33356d80260401c5b670100000000000000821615614a2457680100b1afa5abcbed610260401c5b66ff000000000000821615614b23576680000000000000821615614a515768010058c86da1c09ea20260401c5b6640000000000000821615614a6f576801002c605e2e8cec500260401c5b6620000000000000821615614a8d57680100162f3904051fa10260401c5b6610000000000000821615614aab576801000b175effdc76ba0260401c5b6608000000000000821615614ac957680100058ba01fb9f96d0260401c5b6604000000000000821615614ae75768010002c5cc37da94920260401c5b6602000000000000821615614b05576801000162e525ee05470260401c5b6601000000000000821615614b235768010000b17255775c040260401c5b65ff0000000000821615614c195765800000000000821615614b4e576801000058b91b5bc9ae0260401c5b65400000000000821615614b6b57680100002c5c89d5ec6d0260401c5b65200000000000821615614b885768010000162e43f4f8310260401c5b65100000000000821615614ba557680100000b1721bcfc9a0260401c5b65080000000000821615614bc25768010000058b90cf1e6e0260401c5b65040000000000821615614bdf576801000002c5c863b73f0260401c5b65020000000000821615614bfc57680100000162e430e5a20260401c5b65010000000000821615614c19576801000000b1721835510260401c5b64ff00000000821615614d0657648000000000821615614c4257680100000058b90c0b490260401c5b644000000000821615614c5e5768010000002c5c8601cc0260401c5b642000000000821615614c7a576801000000162e42fff00260401c5b641000000000821615614c965768010000000b17217fbb0260401c5b640800000000821615614cb2576801000000058b90bfce0260401c5b640400000000821615614cce57680100000002c5c85fe30260401c5b640200000000821615614cea5768010000000162e42ff10260401c5b640100000000821615614d0657680100000000b17217f80260401c5b63ff000000821615614dea576380000000821615614d2d5768010000000058b90bfc0260401c5b6340000000821615614d48576801000000002c5c85fe0260401c5b6320000000821615614d6357680100000000162e42ff0260401c5b6310000000821615614d7e576801000000000b17217f0260401c5b6308000000821615614d9957680100000000058b90c00260401c5b6304000000821615614db45768010000000002c5c8600260401c5b6302000000821615614dcf576801000000000162e4300260401c5b6301000000821615614dea5768010000000000b172180260401c5b62ff0000821615614ec55762800000821615614e0f576801000000000058b90c0260401c5b62400000821615614e2957680100000000002c5c860260401c5b62200000821615614e435768010000000000162e430260401c5b62100000821615614e5d57680100000000000b17210260401c5b62080000821615614e775768010000000000058b910260401c5b62040000821615614e91576801000000000002c5c80260401c5b62020000821615614eab57680100000000000162e40260401c5b62010000821615614ec5576801000000000000b1720260401c5b61ff00821615614f9757618000821615614ee857680100000000000058b90260401c5b614000821615614f015768010000000000002c5d0260401c5b612000821615614f1a576801000000000000162e0260401c5b611000821615614f335768010000000000000b170260401c5b610800821615614f4c576801000000000000058c0260401c5b610400821615614f6557680100000000000002c60260401c5b610200821615614f7e57680100000000000001630260401c5b610100821615614f9757680100000000000000b10260401c5b60ff821615615060576080821615614fb857680100000000000000590260401c5b6040821615614fd0576801000000000000002c0260401c5b6020821615614fe857680100000000000000160260401c5b6010821615615000576801000000000000000b0260401c5b600882161561501857680100000000000000060260401c5b600482161561503057680100000000000000030260401c5b600282161561504857680100000000000000010260401c5b600182161561506057680100000000000000010260401c5b670de0b6b3a76400000260409190911c60bf031c90565b600054610100900460ff1661509e5760405162461bcd60e51b8152600401610bd590615cb0565b61241233614123565b5080546150b3906158ea565b6000825580601f106150c3575050565b601f01602090049060005260206000209081019061298b91905b808211156150f157600081556001016150dd565b5090565b60006020828403121561510757600080fd5b5035919050565b803560ff8116811461124657600080fd5b6001600160a01b038116811461298b57600080fd5b80356112468161511f565b60008083601f84011261515157600080fd5b5081356001600160401b0381111561516857600080fd5b60208301915083602082850101111561518057600080fd5b9250929050565b60008060008060008060a087890312156151a057600080fd5b6151a98761510e565b955060208701356151b98161511f565b9450604087013593506060870135925060808701356001600160401b038111156151e257600080fd5b6151ee89828a0161513f565b979a9699509497509295939492505050565b634e487b7160e01b600052604160045260246000fd5b60405160c081016001600160401b038111828210171561523857615238615200565b60405290565b80356001600160401b038116811461124657600080fd5b600082601f83011261526657600080fd5b81356001600160401b038082111561528057615280615200565b604051601f8301601f19908116603f011681019082821181831017156152a8576152a8615200565b816040528381528660208588010111156152c157600080fd5b836020870160208301376000602085830101528094505050505092915050565b6000806000606084860312156152f657600080fd5b83356001600160401b038082111561530d57600080fd5b9085019060c0828803121561532157600080fd5b615329615216565b823581526020830135602082015260408301356153458161511f565b60408201526153566060840161523e565b60608201526153676080840161510e565b608082015260a08301358281111561537e57600080fd5b61538a89828601615255565b60a08301525094506153a191505060208501615134565b9150604084013590509250925092565b801515811461298b57600080fd5b6000602082840312156153d157600080fd5b813561128b816153b1565b600080604083850312156153ef57600080fd5b823591506020830135615401816153b1565b809150509250929050565b60006020828403121561541e57600080fd5b813561128b8161511f565b6000806040838503121561543c57600080fd5b50508035926020909101359150565b6000806040838503121561545e57600080fd5b82356001600160401b038082111561547557600080fd5b908401906080828703121561548957600080fd5b6040516080810181811083821117156154a4576154a4615200565b6040528235815260208301356154b98161511f565b6020820152604083810135908201526060830135828111156154da57600080fd5b6154e688828601615255565b60608301525093506154fd91505060208401615134565b90509250929050565b6000806000806060858703121561551c57600080fd5b84356155278161511f565b93506020850135925060408501356001600160401b0381111561554957600080fd5b6155558782880161513f565b95989497509550505050565b6000806020838503121561557457600080fd5b82356001600160401b0381111561558a57600080fd5b6155968582860161513f565b90969095509350505050565b60005b838110156155bd5781810151838201526020016155a5565b50506000910152565b600081518084526155de8160208601602086016155a2565b601f01601f19169290920160200192915050565b60208152600061128b60208301846155c6565b6000806040838503121561561857600080fd5b82356156238161511f565b915060208301356154018161511f565b60008060006040848603121561564857600080fd5b8335925060208401356001600160401b0381111561566557600080fd5b6156718682870161513f565b9497909650939450505050565b6001600160a01b03851681526001600160401b038416602082015282151560408201526080606082018190526000906156b9908301846155c6565b9695505050505050565b600080604083850312156156d657600080fd5b8235915060208301356154018161511f565b600080604083850312156156fb57600080fd5b82356157068161511f565b946020939093013593505050565b6000806040838503121561572757600080fd5b82359150602083013563ffffffff8116811461540157600080fd5b60006020828403121561575457600080fd5b61128b8261523e565b84815260018060a01b03841660208201528260408201526080606082015260006156b960808301846155c6565b86815285602082015260018060a01b03851660408201526001600160401b038416606082015260ff8316608082015260c060a082015260006157cf60c08301846155c6565b98975050505050505050565b6020808252600690820152651c185d5cd95960d21b604082015260600190565b634e487b7160e01b600052601160045260246000fd5b8181038181111561154d5761154d6157fb565b808202811582820484141761154d5761154d6157fb565b634e487b7160e01b600052601260045260246000fd5b60008261586e57634e487b7160e01b600052601260045260246000fd5b500490565b6001600160a01b03929092168252602082015260400190565b60006020828403121561589e57600080fd5b815161128b816153b1565b8082018082111561154d5761154d6157fb565b6020808252601490820152731b5bd9195b08191bd95cc81b9bdd08195e1a5cdd60621b604082015260600190565b600181811c908216806158fe57607f821691505b60208210810361405d57634e487b7160e01b600052602260045260246000fd5b601f8211156119e157600081815260208120601f850160051c810160208610156159455750805b601f850160051c820191505b8181101561596457828155600101615951565b505050505050565b81516001600160401b0381111561598557615985615200565b6159998161599384546158ea565b8461591e565b602080601f8311600181146159ce57600084156159b65750858301515b600019600386901b1c1916600185901b178555615964565b600085815260208120601f198616915b828110156159fd578886015182559484019460019091019084016159de565b5085821015615a1b5787850151600019600388901b60f8161c191681555b5050505050600190811b01905550565b60018060a01b038616815284602082015283604082015282606082015260a060808201526000615a5e60a08301846155c6565b979650505050505050565b6020808252601290820152716d696e207374616b656420746f6f206c6f7760701b604082015260600190565b6001600160a01b03858116825284166020820152604081018390526080606082018190526000906156b9908301846155c6565b6001600160a01b0385168152602081018490526060604082018190528101829052818360808301376000818301608090810191909152601f909201601f191601019392505050565b600060208284031215615b2257600080fd5b5051919050565b63ffffffff818116838216019080821115615b4657615b466157fb565b5092915050565b63ffffffff828116828216039080821115615b4657615b466157fb565b634e487b7160e01b600052603260045260246000fd5b600060018201615b9257615b926157fb565b5060010190565b6204010960e91b81528451600090615bb8816003850160208a016155a2565b820184866003830137600360fb1b6003918601918201528351615be28160048401602088016155a2565b016004019695505050505050565b600560f91b81528251600090615c0d8160018501602088016155a2565b835190830190615c248160018401602088016155a2565b01600101949350505050565b60008251615c428184602087016155a2565b9190910192915050565b8181036000831280158383131683831282161715615b4657615b466157fb565b8082018281126000831280158216821582161715615c8c57615c8c6157fb565b505092915050565b6000600160ff1b8201615ca957615ca96157fb565b5060000390565b6020808252602b908201527f496e697469616c697a61626c653a20636f6e7472616374206973206e6f74206960408201526a6e697469616c697a696e6760a81b606082015260800190565b60006001600160401b03808316818103615d1757615d176157fb565b6001019392505050565b6001600160401b03828116828216039080821115615b4657615b466157fb56fea2646970667358221220118fffeaa98c3cced5241bece8374634a6273a56a0ba4524d0a4f2b6c010e41b64736f6c63430008130033",
  "linkReferences": {},
  "deployedLinkReferences": {}
}