{
  "_format": "hh-sol-artifact-1",
  "contractName": "FinishContestationVote",
  "sourceName": "contracts/Example/FinishContestationVote.sol",
  "abi": [
    {
      "inputs": [
        {
          "internalType": "contract IArbius",
          "name": "_arbius",
          "type": "address"
        }
      ],
      "stateMutability": "nonpayable",
      "type": "constructor"
    },
    {
      "inputs": [
        {
          "internalType": "bytes32",
          "name": "_taskid",
          "type": "bytes32"
        },
        {
          "internalType": "uint32",
          "name": "_iterations",
          "type": "uint32"
        }
      ],
      "name": "finishVote",
      "outputs": [],
      "stateMutability": "nonpayable",
      "type": "function"
    }
  ],
  "bytecode": "0x60803461007357601f61018638819003918201601f19168301916001600160401b038311848410176100785780849260209460405283398101031261007357516001600160a01b0381169081900361007357600080546001600160a01b03191691909117905560405160f7908161008f8239f35b600080fd5b634e487b7160e01b600052604160045260246000fdfe6080806040526004361015601257600080fd5b600090813560e01c63974eb84114602857600080fd5b3460bd57604036600319011260bd578160243563ffffffff811680910360bd5781546001600160a01b031690813b1560b95783838193604493638b4d7b3560e01b8452600435600485015260248401525af1801560ae576086575080f35b67ffffffffffffffff8111609a5760405280f35b634e487b7160e01b82526041600452602482fd5b6040513d84823e3d90fd5b8280fd5b5080fdfea2646970667358221220e6dca229a17d21b6f54cec1588308cb26d5d9d8026e844857db43c9877ed01d764736f6c63430008130033",
  "linkReferences": {},
  "deployedLinkReferences": {}
}