{
  "_format": "hh-sol-artifact-1",
  "contractName": "FinishContestationVote",
  "sourceName": "contracts/Example/FinishContestationVote.sol",
  "abi": [
    {
      "inputs": [
        {
          "internalType": "contract IArbius",
          "name": "_arbius",
          "type": "address"
        }
      ],
      "stateMutability": "nonpayable",
      "type": "constructor"
    },
    {
      "inputs": [
        {
          "internalType": "bytes32",
          "name": "_taskid",
          "type": "bytes32"
        },
        {
          "internalType": "uint32",
          "name": "_iterations",
          "type": "uint32"
        }
      ],
      "name": "finishVote",
      "outputs": [],
      "stateMutability": "nonpayable",
      "type": "function"
    }
  ],
  "bytecode": "0x608060405234801561001057600080fd5b506040516101aa3803806101aa83398101604081905261002f91610054565b600080546001600160a01b0319166001600160a01b0392909216919091179055610084565b60006020828403121561006657600080fd5b81516001600160a01b038116811461007d57600080fd5b9392505050565b610117806100936000396000f3fe6080604052348015600f57600080fd5b506004361060285760003560e01c8063974eb84114602d575b600080fd5b603c603836600460aa565b603e565b005b600054604051638b4d7b3560e01b81526004810184905263ffffffff831660248201526001600160a01b0390911690638b4d7b3590604401600060405180830381600087803b158015608f57600080fd5b505af115801560a2573d6000803e3d6000fd5b505050505050565b6000806040838503121560bc57600080fd5b82359150602083013563ffffffff8116811460d657600080fd5b80915050925092905056fea26469706673582212201b40bddd5135f7a09bfdd28b8b286458e97f6f9fc7b3ce84153fc6df37970f0d64736f6c63430008130033",
  "linkReferences": {},
  "deployedLinkReferences": {}
}