{
  "_format": "hh-sol-artifact-1",
  "contractName": "SubmitTask",
  "sourceName": "contracts/Example/SubmitTask.sol",
  "abi": [
    {
      "inputs": [
        {
          "internalType": "contract IArbius",
          "name": "_arbius",
          "type": "address"
        },
        {
          "internalType": "contract IERC20",
          "name": "_arbiusToken",
          "type": "address"
        },
        {
          "internalType": "bytes32",
          "name": "_model",
          "type": "bytes32"
        },
        {
          "internalType": "bytes",
          "name": "_input",
          "type": "bytes"
        }
      ],
      "stateMutability": "nonpayable",
      "type": "constructor"
    },
    {
      "inputs": [],
      "name": "submitTask",
      "outputs": [],
      "stateMutability": "nonpayable",
      "type": "function"
    }
  ],
  "bytecode": "0x60806040523461023c576104e28038038061001981610241565b928339810160808282031261023c5781516001600160a01b0392908381169081900361023c576020938483015190811680910361023c57604083015193606084015160018060401b039485821161023c570194601f9282848801121561023c5786519686881161021357601f19976100968682018a168b01610241565b948186528a828401011161023c57899160005b828110610229575050906000918501015260018060a01b03199485600054161760005560019485541617845560025580519384116102135760039586548481811c91168015610209575b828210146101f3578381116101ad575b508092851160011461014a57508394509083929160009461013f575b50501b9160001990841b1c19161790555b60405161027b90816102678239f35b01519250388061011f565b9294849081168760005284600020946000905b88838310610193575050501061017b575b505050811b019055610130565b015160001983861b60f8161c1916905538808061016e565b85870151885590960195948501948793509081019061015d565b87600052816000208480880160051c8201928489106101ea575b0160051c019085905b8281106101de575050610103565b600081550185906101d0565b925081926101c7565b634e487b7160e01b600052602260045260246000fd5b90607f16906100f3565b634e487b7160e01b600052604160045260246000fd5b81810184015187820185015283016100a9565b600080fd5b6040519190601f01601f191682016001600160401b038111838210176102135760405256fe608080604052600436101561001357600080fd5b600090813560e01c634abbef9b1461002a57600080fd5b81903461020957816003193601126102095760018060a01b03600191818354168285541663095ea7b360e01b8352600483015260001960248301528160448160209788945af180156101fe576101c3575b5083541660025491604051926308745dd160e01b8452856004850152306024850152604484015267016345785d8a0000606484015260a0608484015284906003549081811c9181811680156101b9575b87841081146101a557928892879592868a98968460a48301529182600014610182575050600114610145575b50509083809203925af1801561013a5761010f578280f35b813d8311610133575b610122818361020c565b810103126101305738808280f35b80fd5b503d610118565b6040513d85823e3d90fd5b600384528684208493505b82841061016657505050830160c40183806100f7565b805460c4858b01015289978997508b9550909301928101610150565b9095945060c492508593915060ff191682840152151560051b82010191926100f7565b634e487b7160e01b89526022600452602489fd5b92607f16926100cb565b8381813d83116101f7575b6101d8818361020c565b810103126101f35751801515036101ef573861007b565b8380fd5b8480fd5b503d6101ce565b6040513d87823e3d90fd5b50fd5b601f909101601f19168101906001600160401b0382119082101761022f57604052565b634e487b7160e01b600052604160045260246000fdfea26469706673582212208b7ce4564e90cf7d88f2b7976941c61b005fd5a797cc0d8396de2d3225af863f64736f6c63430008130033",
  "linkReferences": {},
  "deployedLinkReferences": {}
}