{
  "_format": "hh-sol-artifact-1",
  "contractName": "V2_EngineV5",
  "sourceName": "contracts/V2_EngineV5.sol",
  "abi": [
    {
      "inputs": [],
      "stateMutability": "nonpayable",
      "type": "constructor"
    },
    {
      "inputs": [
        {
          "internalType": "uint256",
          "name": "x",
          "type": "uint256"
        },
        {
          "internalType": "uint256",
          "name": "y",
          "type": "uint256"
        }
      ],
      "name": "PRBMath_MulDiv18_Overflow",
      "type": "error"
    },
    {
      "inputs": [
        {
          "internalType": "uint256",
          "name": "x",
          "type": "uint256"
        },
        {
          "internalType": "uint256",
          "name": "y",
          "type": "uint256"
        },
        {
          "internalType": "uint256",
          "name": "denominator",
          "type": "uint256"
        }
      ],
      "name": "PRBMath_MulDiv_Overflow",
      "type": "error"
    },
    {
      "inputs": [],
      "name": "PRBMath_SD59x18_Abs_MinSD59x18",
      "type": "error"
    },
    {
      "inputs": [],
      "name": "PRBMath_SD59x18_Div_InputTooSmall",
      "type": "error"
    },
    {
      "inputs": [
        {
          "internalType": "SD59x18",
          "name": "x",
          "type": "int256"
        },
        {
          "internalType": "SD59x18",
          "name": "y",
          "type": "int256"
        }
      ],
      "name": "PRBMath_SD59x18_Div_Overflow",
      "type": "error"
    },
    {
      "inputs": [
        {
          "internalType": "SD59x18",
          "name": "x",
          "type": "int256"
        }
      ],
      "name": "PRBMath_SD59x18_Exp2_InputTooBig",
      "type": "error"
    },
    {
      "inputs": [],
      "name": "PRBMath_SD59x18_Mul_InputTooSmall",
      "type": "error"
    },
    {
      "inputs": [
        {
          "internalType": "SD59x18",
          "name": "x",
          "type": "int256"
        },
        {
          "internalType": "SD59x18",
          "name": "y",
          "type": "int256"
        }
      ],
      "name": "PRBMath_SD59x18_Mul_Overflow",
      "type": "error"
    },
    {
      "inputs": [
        {
          "internalType": "UD60x18",
          "name": "x",
          "type": "uint256"
        }
      ],
      "name": "PRBMath_UD60x18_Exp2_InputTooBig",
      "type": "error"
    },
    {
      "anonymous": false,
      "inputs": [
        {
          "indexed": true,
          "internalType": "address",
          "name": "addr",
          "type": "address"
        },
        {
          "indexed": true,
          "internalType": "bytes32",
          "name": "task",
          "type": "bytes32"
        }
      ],
      "name": "ContestationSubmitted",
      "type": "event"
    },
    {
      "anonymous": false,
      "inputs": [
        {
          "indexed": true,
          "internalType": "address",
          "name": "addr",
          "type": "address"
        },
        {
          "indexed": true,
          "internalType": "bytes32",
          "name": "task",
          "type": "bytes32"
        },
        {
          "indexed": false,
          "internalType": "bool",
          "name": "yea",
          "type": "bool"
        }
      ],
      "name": "ContestationVote",
      "type": "event"
    },
    {
      "anonymous": false,
      "inputs": [
        {
          "indexed": true,
          "internalType": "bytes32",
          "name": "id",
          "type": "bytes32"
        },
        {
          "indexed": true,
          "internalType": "uint32",
          "name": "start_idx",
          "type": "uint32"
        },
        {
          "indexed": false,
          "internalType": "uint32",
          "name": "end_idx",
          "type": "uint32"
        }
      ],
      "name": "ContestationVoteFinish",
      "type": "event"
    },
    {
      "anonymous": false,
      "inputs": [
        {
          "indexed": false,
          "internalType": "uint8",
          "name": "version",
          "type": "uint8"
        }
      ],
      "name": "Initialized",
      "type": "event"
    },
    {
      "anonymous": false,
      "inputs": [
        {
          "indexed": true,
          "internalType": "bytes32",
          "name": "id",
          "type": "bytes32"
        },
        {
          "indexed": false,
          "internalType": "address",
          "name": "addr",
          "type": "address"
        }
      ],
      "name": "ModelAddrChanged",
      "type": "event"
    },
    {
      "anonymous": false,
      "inputs": [
        {
          "indexed": true,
          "internalType": "bytes32",
          "name": "id",
          "type": "bytes32"
        },
        {
          "indexed": false,
          "internalType": "uint256",
          "name": "fee",
          "type": "uint256"
        }
      ],
      "name": "ModelFeeChanged",
      "type": "event"
    },
    {
      "anonymous": false,
      "inputs": [
        {
          "indexed": true,
          "internalType": "bytes32",
          "name": "id",
          "type": "bytes32"
        }
      ],
      "name": "ModelRegistered",
      "type": "event"
    },
    {
      "anonymous": false,
      "inputs": [
        {
          "indexed": true,
          "internalType": "address",
          "name": "previousOwner",
          "type": "address"
        },
        {
          "indexed": true,
          "internalType": "address",
          "name": "newOwner",
          "type": "address"
        }
      ],
      "name": "OwnershipTransferred",
      "type": "event"
    },
    {
      "anonymous": false,
      "inputs": [
        {
          "indexed": true,
          "internalType": "bool",
          "name": "paused",
          "type": "bool"
        }
      ],
      "name": "PausedChanged",
      "type": "event"
    },
    {
      "anonymous": false,
      "inputs": [
        {
          "indexed": true,
          "internalType": "address",
          "name": "to",
          "type": "address"
        }
      ],
      "name": "PauserTransferred",
      "type": "event"
    },
    {
      "anonymous": false,
      "inputs": [
        {
          "indexed": true,
          "internalType": "address",
          "name": "addr",
          "type": "address"
        },
        {
          "indexed": true,
          "internalType": "bytes32",
          "name": "commitment",
          "type": "bytes32"
        }
      ],
      "name": "SignalCommitment",
      "type": "event"
    },
    {
      "anonymous": false,
      "inputs": [
        {
          "indexed": true,
          "internalType": "address",
          "name": "addr",
          "type": "address"
        },
        {
          "indexed": true,
          "internalType": "bytes32",
          "name": "task",
          "type": "bytes32"
        }
      ],
      "name": "SolutionClaimed",
      "type": "event"
    },
    {
      "anonymous": false,
      "inputs": [
        {
          "indexed": true,
          "internalType": "bytes32",
          "name": "id",
          "type": "bytes32"
        },
        {
          "indexed": false,
          "internalType": "uint256",
          "name": "rate",
          "type": "uint256"
        }
      ],
      "name": "SolutionMineableRateChange",
      "type": "event"
    },
    {
      "anonymous": false,
      "inputs": [
        {
          "indexed": true,
          "internalType": "address",
          "name": "addr",
          "type": "address"
        },
        {
          "indexed": true,
          "internalType": "bytes32",
          "name": "task",
          "type": "bytes32"
        }
      ],
      "name": "SolutionSubmitted",
      "type": "event"
    },
    {
      "anonymous": false,
      "inputs": [
        {
          "indexed": true,
          "internalType": "uint64",
          "name": "startBlockTime",
          "type": "uint64"
        }
      ],
      "name": "StartBlockTimeChanged",
      "type": "event"
    },
    {
      "anonymous": false,
      "inputs": [
        {
          "indexed": true,
          "internalType": "bytes32",
          "name": "id",
          "type": "bytes32"
        },
        {
          "indexed": true,
          "internalType": "bytes32",
          "name": "model",
          "type": "bytes32"
        },
        {
          "indexed": false,
          "internalType": "uint256",
          "name": "fee",
          "type": "uint256"
        },
        {
          "indexed": true,
          "internalType": "address",
          "name": "sender",
          "type": "address"
        }
      ],
      "name": "TaskSubmitted",
      "type": "event"
    },
    {
      "anonymous": false,
      "inputs": [
        {
          "indexed": true,
          "internalType": "address",
          "name": "to",
          "type": "address"
        }
      ],
      "name": "TreasuryTransferred",
      "type": "event"
    },
    {
      "anonymous": false,
      "inputs": [
        {
          "indexed": true,
          "internalType": "address",
          "name": "addr",
          "type": "address"
        },
        {
          "indexed": true,
          "internalType": "address",
          "name": "validator",
          "type": "address"
        },
        {
          "indexed": false,
          "internalType": "uint256",
          "name": "amount",
          "type": "uint256"
        }
      ],
      "name": "ValidatorDeposit",
      "type": "event"
    },
    {
      "anonymous": false,
      "inputs": [
        {
          "indexed": true,
          "internalType": "address",
          "name": "addr",
          "type": "address"
        },
        {
          "indexed": true,
          "internalType": "address",
          "name": "to",
          "type": "address"
        },
        {
          "indexed": true,
          "internalType": "uint256",
          "name": "count",
          "type": "uint256"
        },
        {
          "indexed": false,
          "internalType": "uint256",
          "name": "amount",
          "type": "uint256"
        }
      ],
      "name": "ValidatorWithdraw",
      "type": "event"
    },
    {
      "anonymous": false,
      "inputs": [
        {
          "indexed": true,
          "internalType": "address",
          "name": "addr",
          "type": "address"
        },
        {
          "indexed": true,
          "internalType": "uint256",
          "name": "count",
          "type": "uint256"
        }
      ],
      "name": "ValidatorWithdrawCancelled",
      "type": "event"
    },
    {
      "anonymous": false,
      "inputs": [
        {
          "indexed": true,
          "internalType": "address",
          "name": "addr",
          "type": "address"
        },
        {
          "indexed": true,
          "internalType": "uint256",
          "name": "count",
          "type": "uint256"
        },
        {
          "indexed": false,
          "internalType": "uint256",
          "name": "unlockTime",
          "type": "uint256"
        },
        {
          "indexed": false,
          "internalType": "uint256",
          "name": "amount",
          "type": "uint256"
        }
      ],
      "name": "ValidatorWithdrawInitiated",
      "type": "event"
    },
    {
      "anonymous": false,
      "inputs": [
        {
          "indexed": false,
          "internalType": "uint256",
          "name": "version",
          "type": "uint256"
        }
      ],
      "name": "VersionChanged",
      "type": "event"
    },
    {
      "inputs": [],
      "name": "accruedFees",
      "outputs": [
        {
          "internalType": "uint256",
          "name": "",
          "type": "uint256"
        }
      ],
      "stateMutability": "view",
      "type": "function"
    },
    {
      "inputs": [],
      "name": "baseToken",
      "outputs": [
        {
          "internalType": "contract IBaseToken",
          "name": "",
          "type": "address"
        }
      ],
      "stateMutability": "view",
      "type": "function"
    },
    {
      "inputs": [
        {
          "internalType": "bytes32[]",
          "name": "taskids_",
          "type": "bytes32[]"
        },
        {
          "internalType": "bytes[]",
          "name": "cids_",
          "type": "bytes[]"
        }
      ],
      "name": "bulkSubmitSolution",
      "outputs": [],
      "stateMutability": "nonpayable",
      "type": "function"
    },
    {
      "inputs": [
        {
          "internalType": "uint8",
          "name": "version_",
          "type": "uint8"
        },
        {
          "internalType": "address",
          "name": "owner_",
          "type": "address"
        },
        {
          "internalType": "bytes32",
          "name": "model_",
          "type": "bytes32"
        },
        {
          "internalType": "uint256",
          "name": "fee_",
          "type": "uint256"
        },
        {
          "internalType": "bytes",
          "name": "input_",
          "type": "bytes"
        },
        {
          "internalType": "uint256",
          "name": "n_",
          "type": "uint256"
        }
      ],
      "name": "bulkSubmitTask",
      "outputs": [],
      "stateMutability": "nonpayable",
      "type": "function"
    },
    {
      "inputs": [
        {
          "internalType": "uint256",
          "name": "count_",
          "type": "uint256"
        }
      ],
      "name": "cancelValidatorWithdraw",
      "outputs": [],
      "stateMutability": "nonpayable",
      "type": "function"
    },
    {
      "inputs": [
        {
          "internalType": "bytes32",
          "name": "taskid_",
          "type": "bytes32"
        }
      ],
      "name": "claimSolution",
      "outputs": [],
      "stateMutability": "nonpayable",
      "type": "function"
    },
    {
      "inputs": [
        {
          "internalType": "bytes32",
          "name": "",
          "type": "bytes32"
        }
      ],
      "name": "commitments",
      "outputs": [
        {
          "internalType": "uint256",
          "name": "",
          "type": "uint256"
        }
      ],
      "stateMutability": "view",
      "type": "function"
    },
    {
      "inputs": [],
      "name": "contestationVoteExtensionTime",
      "outputs": [
        {
          "internalType": "uint256",
          "name": "",
          "type": "uint256"
        }
      ],
      "stateMutability": "view",
      "type": "function"
    },
    {
      "inputs": [
        {
          "internalType": "bytes32",
          "name": "taskid_",
          "type": "bytes32"
        },
        {
          "internalType": "uint32",
          "name": "amnt_",
          "type": "uint32"
        }
      ],
      "name": "contestationVoteFinish",
      "outputs": [],
      "stateMutability": "nonpayable",
      "type": "function"
    },
    {
      "inputs": [
        {
          "internalType": "bytes32",
          "name": "",
          "type": "bytes32"
        },
        {
          "internalType": "uint256",
          "name": "",
          "type": "uint256"
        }
      ],
      "name": "contestationVoteNays",
      "outputs": [
        {
          "internalType": "address",
          "name": "",
          "type": "address"
        }
      ],
      "stateMutability": "view",
      "type": "function"
    },
    {
      "inputs": [
        {
          "internalType": "bytes32",
          "name": "",
          "type": "bytes32"
        },
        {
          "internalType": "uint256",
          "name": "",
          "type": "uint256"
        }
      ],
      "name": "contestationVoteYeas",
      "outputs": [
        {
          "internalType": "address",
          "name": "",
          "type": "address"
        }
      ],
      "stateMutability": "view",
      "type": "function"
    },
    {
      "inputs": [
        {
          "internalType": "bytes32",
          "name": "",
          "type": "bytes32"
        },
        {
          "internalType": "address",
          "name": "",
          "type": "address"
        }
      ],
      "name": "contestationVoted",
      "outputs": [
        {
          "internalType": "bool",
          "name": "",
          "type": "bool"
        }
      ],
      "stateMutability": "view",
      "type": "function"
    },
    {
      "inputs": [
        {
          "internalType": "bytes32",
          "name": "",
          "type": "bytes32"
        }
      ],
      "name": "contestationVotedIndex",
      "outputs": [
        {
          "internalType": "uint256",
          "name": "",
          "type": "uint256"
        }
      ],
      "stateMutability": "view",
      "type": "function"
    },
    {
      "inputs": [
        {
          "internalType": "bytes32",
          "name": "",
          "type": "bytes32"
        }
      ],
      "name": "contestations",
      "outputs": [
        {
          "internalType": "address",
          "name": "validator",
          "type": "address"
        },
        {
          "internalType": "uint64",
          "name": "blocktime",
          "type": "uint64"
        },
        {
          "internalType": "uint32",
          "name": "finish_start_index",
          "type": "uint32"
        },
        {
          "internalType": "uint256",
          "name": "slashAmount",
          "type": "uint256"
        }
      ],
      "stateMutability": "view",
      "type": "function"
    },
    {
      "inputs": [
        {
          "internalType": "uint256",
          "name": "t",
          "type": "uint256"
        },
        {
          "internalType": "uint256",
          "name": "ts",
          "type": "uint256"
        }
      ],
      "name": "diffMul",
      "outputs": [
        {
          "internalType": "uint256",
          "name": "",
          "type": "uint256"
        }
      ],
      "stateMutability": "pure",
      "type": "function"
    },
    {
      "inputs": [],
      "name": "exitValidatorMinUnlockTime",
      "outputs": [
        {
          "internalType": "uint256",
          "name": "",
          "type": "uint256"
        }
      ],
      "stateMutability": "view",
      "type": "function"
    },
    {
      "inputs": [
        {
          "internalType": "address",
          "name": "sender_",
          "type": "address"
        },
        {
          "internalType": "bytes32",
          "name": "taskid_",
          "type": "bytes32"
        },
        {
          "internalType": "bytes",
          "name": "cid_",
          "type": "bytes"
        }
      ],
      "name": "generateCommitment",
      "outputs": [
        {
          "internalType": "bytes32",
          "name": "",
          "type": "bytes32"
        }
      ],
      "stateMutability": "pure",
      "type": "function"
    },
    {
      "inputs": [
        {
          "internalType": "bytes",
          "name": "content_",
          "type": "bytes"
        }
      ],
      "name": "generateIPFSCID",
      "outputs": [
        {
          "internalType": "bytes",
          "name": "",
          "type": "bytes"
        }
      ],
      "stateMutability": "pure",
      "type": "function"
    },
    {
      "inputs": [],
      "name": "getPsuedoTotalSupply",
      "outputs": [
        {
          "internalType": "uint256",
          "name": "",
          "type": "uint256"
        }
      ],
      "stateMutability": "view",
      "type": "function"
    },
    {
      "inputs": [],
      "name": "getReward",
      "outputs": [
        {
          "internalType": "uint256",
          "name": "",
          "type": "uint256"
        }
      ],
      "stateMutability": "view",
      "type": "function"
    },
    {
      "inputs": [],
      "name": "getSlashAmount",
      "outputs": [
        {
          "internalType": "uint256",
          "name": "",
          "type": "uint256"
        }
      ],
      "stateMutability": "view",
      "type": "function"
    },
    {
      "inputs": [],
      "name": "getValidatorMinimum",
      "outputs": [
        {
          "internalType": "uint256",
          "name": "",
          "type": "uint256"
        }
      ],
      "stateMutability": "view",
      "type": "function"
    },
    {
      "inputs": [
        {
          "components": [
            {
              "internalType": "uint256",
              "name": "fee",
              "type": "uint256"
            },
            {
              "internalType": "address",
              "name": "addr",
              "type": "address"
            },
            {
              "internalType": "uint256",
              "name": "rate",
              "type": "uint256"
            },
            {
              "internalType": "bytes",
              "name": "cid",
              "type": "bytes"
            }
          ],
          "internalType": "struct Model",
          "name": "o_",
          "type": "tuple"
        },
        {
          "internalType": "address",
          "name": "sender_",
          "type": "address"
        }
      ],
      "name": "hashModel",
      "outputs": [
        {
          "internalType": "bytes32",
          "name": "",
          "type": "bytes32"
        }
      ],
      "stateMutability": "pure",
      "type": "function"
    },
    {
      "inputs": [
        {
          "components": [
            {
              "internalType": "bytes32",
              "name": "model",
              "type": "bytes32"
            },
            {
              "internalType": "uint256",
              "name": "fee",
              "type": "uint256"
            },
            {
              "internalType": "address",
              "name": "owner",
              "type": "address"
            },
            {
              "internalType": "uint64",
              "name": "blocktime",
              "type": "uint64"
            },
            {
              "internalType": "uint8",
              "name": "version",
              "type": "uint8"
            },
            {
              "internalType": "bytes",
              "name": "cid",
              "type": "bytes"
            }
          ],
          "internalType": "struct Task",
          "name": "o_",
          "type": "tuple"
        },
        {
          "internalType": "address",
          "name": "sender_",
          "type": "address"
        },
        {
          "internalType": "bytes32",
          "name": "prevhash_",
          "type": "bytes32"
        }
      ],
      "name": "hashTask",
      "outputs": [
        {
          "internalType": "bytes32",
          "name": "",
          "type": "bytes32"
        }
      ],
      "stateMutability": "pure",
      "type": "function"
    },
    {
      "inputs": [],
      "name": "initialize",
      "outputs": [],
      "stateMutability": "nonpayable",
      "type": "function"
    },
    {
      "inputs": [
        {
          "internalType": "uint256",
          "name": "amount_",
          "type": "uint256"
        }
      ],
      "name": "initiateValidatorWithdraw",
      "outputs": [
        {
          "internalType": "uint256",
          "name": "",
          "type": "uint256"
        }
      ],
      "stateMutability": "nonpayable",
      "type": "function"
    },
    {
      "inputs": [
        {
          "internalType": "address",
          "name": "",
          "type": "address"
        }
      ],
      "name": "lastContestationLossTime",
      "outputs": [
        {
          "internalType": "uint256",
          "name": "",
          "type": "uint256"
        }
      ],
      "stateMutability": "view",
      "type": "function"
    },
    {
      "inputs": [
        {
          "internalType": "address",
          "name": "",
          "type": "address"
        }
      ],
      "name": "lastSolutionSubmission",
      "outputs": [
        {
          "internalType": "uint256",
          "name": "",
          "type": "uint256"
        }
      ],
      "stateMutability": "view",
      "type": "function"
    },
    {
      "inputs": [],
      "name": "maxContestationValidatorStakeSince",
      "outputs": [
        {
          "internalType": "uint256",
          "name": "",
          "type": "uint256"
        }
      ],
      "stateMutability": "view",
      "type": "function"
    },
    {
      "inputs": [],
      "name": "minClaimSolutionTime",
      "outputs": [
        {
          "internalType": "uint256",
          "name": "",
          "type": "uint256"
        }
      ],
      "stateMutability": "view",
      "type": "function"
    },
    {
      "inputs": [],
      "name": "minContestationVotePeriodTime",
      "outputs": [
        {
          "internalType": "uint256",
          "name": "",
          "type": "uint256"
        }
      ],
      "stateMutability": "view",
      "type": "function"
    },
    {
      "inputs": [],
      "name": "minRetractionWaitTime",
      "outputs": [
        {
          "internalType": "uint256",
          "name": "",
          "type": "uint256"
        }
      ],
      "stateMutability": "view",
      "type": "function"
    },
    {
      "inputs": [
        {
          "internalType": "bytes32",
          "name": "",
          "type": "bytes32"
        }
      ],
      "name": "models",
      "outputs": [
        {
          "internalType": "uint256",
          "name": "fee",
          "type": "uint256"
        },
        {
          "internalType": "address",
          "name": "addr",
          "type": "address"
        },
        {
          "internalType": "uint256",
          "name": "rate",
          "type": "uint256"
        },
        {
          "internalType": "bytes",
          "name": "cid",
          "type": "bytes"
        }
      ],
      "stateMutability": "view",
      "type": "function"
    },
    {
      "inputs": [],
      "name": "owner",
      "outputs": [
        {
          "internalType": "address",
          "name": "",
          "type": "address"
        }
      ],
      "stateMutability": "view",
      "type": "function"
    },
    {
      "inputs": [],
      "name": "paused",
      "outputs": [
        {
          "internalType": "bool",
          "name": "",
          "type": "bool"
        }
      ],
      "stateMutability": "view",
      "type": "function"
    },
    {
      "inputs": [],
      "name": "pauser",
      "outputs": [
        {
          "internalType": "address",
          "name": "",
          "type": "address"
        }
      ],
      "stateMutability": "view",
      "type": "function"
    },
    {
      "inputs": [
        {
          "internalType": "address",
          "name": "",
          "type": "address"
        },
        {
          "internalType": "uint256",
          "name": "",
          "type": "uint256"
        }
      ],
      "name": "pendingValidatorWithdrawRequests",
      "outputs": [
        {
          "internalType": "uint256",
          "name": "unlockTime",
          "type": "uint256"
        },
        {
          "internalType": "uint256",
          "name": "amount",
          "type": "uint256"
        }
      ],
      "stateMutability": "view",
      "type": "function"
    },
    {
      "inputs": [
        {
          "internalType": "address",
          "name": "",
          "type": "address"
        }
      ],
      "name": "pendingValidatorWithdrawRequestsCount",
      "outputs": [
        {
          "internalType": "uint256",
          "name": "",
          "type": "uint256"
        }
      ],
      "stateMutability": "view",
      "type": "function"
    },
    {
      "inputs": [],
      "name": "prevhash",
      "outputs": [
        {
          "internalType": "bytes32",
          "name": "",
          "type": "bytes32"
        }
      ],
      "stateMutability": "view",
      "type": "function"
    },
    {
      "inputs": [
        {
          "internalType": "address",
          "name": "addr_",
          "type": "address"
        },
        {
          "internalType": "uint256",
          "name": "fee_",
          "type": "uint256"
        },
        {
          "internalType": "bytes",
          "name": "template_",
          "type": "bytes"
        }
      ],
      "name": "registerModel",
      "outputs": [
        {
          "internalType": "bytes32",
          "name": "",
          "type": "bytes32"
        }
      ],
      "stateMutability": "nonpayable",
      "type": "function"
    },
    {
      "inputs": [],
      "name": "renounceOwnership",
      "outputs": [],
      "stateMutability": "nonpayable",
      "type": "function"
    },
    {
      "inputs": [],
      "name": "retractionFeePercentage",
      "outputs": [
        {
          "internalType": "uint256",
          "name": "",
          "type": "uint256"
        }
      ],
      "stateMutability": "view",
      "type": "function"
    },
    {
      "inputs": [
        {
          "internalType": "uint256",
          "name": "t",
          "type": "uint256"
        },
        {
          "internalType": "uint256",
          "name": "ts",
          "type": "uint256"
        }
      ],
      "name": "reward",
      "outputs": [
        {
          "internalType": "uint256",
          "name": "",
          "type": "uint256"
        }
      ],
      "stateMutability": "pure",
      "type": "function"
    },
    {
      "inputs": [
        {
          "internalType": "bytes32",
          "name": "model_",
          "type": "bytes32"
        },
        {
          "internalType": "address",
          "name": "addr_",
          "type": "address"
        }
      ],
      "name": "setModelAddr",
      "outputs": [],
      "stateMutability": "nonpayable",
      "type": "function"
    },
    {
      "inputs": [
        {
          "internalType": "bytes32",
          "name": "model_",
          "type": "bytes32"
        },
        {
          "internalType": "uint256",
          "name": "fee_",
          "type": "uint256"
        }
      ],
      "name": "setModelFee",
      "outputs": [],
      "stateMutability": "nonpayable",
      "type": "function"
    },
    {
      "inputs": [
        {
          "internalType": "bool",
          "name": "paused_",
          "type": "bool"
        }
      ],
      "name": "setPaused",
      "outputs": [],
      "stateMutability": "nonpayable",
      "type": "function"
    },
    {
      "inputs": [
        {
          "internalType": "bytes32",
          "name": "model_",
          "type": "bytes32"
        },
        {
          "internalType": "uint256",
          "name": "rate_",
          "type": "uint256"
        }
      ],
      "name": "setSolutionMineableRate",
      "outputs": [],
      "stateMutability": "nonpayable",
      "type": "function"
    },
    {
      "inputs": [
        {
          "internalType": "uint256",
          "name": "solutionModelFeePercentage_",
          "type": "uint256"
        }
      ],
      "name": "setSolutionModelFeePercentage",
      "outputs": [],
      "stateMutability": "nonpayable",
      "type": "function"
    },
    {
      "inputs": [
        {
          "internalType": "uint64",
          "name": "startBlockTime_",
          "type": "uint64"
        }
      ],
      "name": "setStartBlockTime",
      "outputs": [],
      "stateMutability": "nonpayable",
      "type": "function"
    },
    {
      "inputs": [
        {
          "internalType": "address",
          "name": "veStaking_",
          "type": "address"
        }
      ],
      "name": "setVeStaking",
      "outputs": [],
      "stateMutability": "nonpayable",
      "type": "function"
    },
    {
      "inputs": [
        {
          "internalType": "uint256",
          "name": "version_",
          "type": "uint256"
        }
      ],
      "name": "setVersion",
      "outputs": [],
      "stateMutability": "nonpayable",
      "type": "function"
    },
    {
      "inputs": [
        {
          "internalType": "address",
          "name": "voter_",
          "type": "address"
        }
      ],
      "name": "setVoter",
      "outputs": [],
      "stateMutability": "nonpayable",
      "type": "function"
    },
    {
      "inputs": [
        {
          "internalType": "bytes32",
          "name": "commitment_",
          "type": "bytes32"
        }
      ],
      "name": "signalCommitment",
      "outputs": [],
      "stateMutability": "nonpayable",
      "type": "function"
    },
    {
      "inputs": [],
      "name": "slashAmountPercentage",
      "outputs": [
        {
          "internalType": "uint256",
          "name": "",
          "type": "uint256"
        }
      ],
      "stateMutability": "view",
      "type": "function"
    },
    {
      "inputs": [],
      "name": "solutionFeePercentage",
      "outputs": [
        {
          "internalType": "uint256",
          "name": "",
          "type": "uint256"
        }
      ],
      "stateMutability": "view",
      "type": "function"
    },
    {
      "inputs": [],
      "name": "solutionModelFeePercentage",
      "outputs": [
        {
          "internalType": "uint256",
          "name": "",
          "type": "uint256"
        }
      ],
      "stateMutability": "view",
      "type": "function"
    },
    {
      "inputs": [],
      "name": "solutionRateLimit",
      "outputs": [
        {
          "internalType": "uint256",
          "name": "",
          "type": "uint256"
        }
      ],
      "stateMutability": "view",
      "type": "function"
    },
    {
      "inputs": [
        {
          "internalType": "bytes32",
          "name": "",
          "type": "bytes32"
        }
      ],
      "name": "solutions",
      "outputs": [
        {
          "internalType": "address",
          "name": "validator",
          "type": "address"
        },
        {
          "internalType": "uint64",
          "name": "blocktime",
          "type": "uint64"
        },
        {
          "internalType": "bool",
          "name": "claimed",
          "type": "bool"
        },
        {
          "internalType": "bytes",
          "name": "cid",
          "type": "bytes"
        }
      ],
      "stateMutability": "view",
      "type": "function"
    },
    {
      "inputs": [
        {
          "internalType": "bytes32",
          "name": "",
          "type": "bytes32"
        }
      ],
      "name": "solutionsStake",
      "outputs": [
        {
          "internalType": "uint256",
          "name": "",
          "type": "uint256"
        }
      ],
      "stateMutability": "view",
      "type": "function"
    },
    {
      "inputs": [],
      "name": "solutionsStakeAmount",
      "outputs": [
        {
          "internalType": "uint256",
          "name": "",
          "type": "uint256"
        }
      ],
      "stateMutability": "view",
      "type": "function"
    },
    {
      "inputs": [],
      "name": "startBlockTime",
      "outputs": [
        {
          "internalType": "uint64",
          "name": "",
          "type": "uint64"
        }
      ],
      "stateMutability": "view",
      "type": "function"
    },
    {
      "inputs": [
        {
          "internalType": "bytes32",
          "name": "taskid_",
          "type": "bytes32"
        }
      ],
      "name": "submitContestation",
      "outputs": [],
      "stateMutability": "nonpayable",
      "type": "function"
    },
    {
      "inputs": [
        {
          "internalType": "bytes32",
          "name": "taskid_",
          "type": "bytes32"
        },
        {
          "internalType": "bytes",
          "name": "cid_",
          "type": "bytes"
        }
      ],
      "name": "submitSolution",
      "outputs": [],
      "stateMutability": "nonpayable",
      "type": "function"
    },
    {
      "inputs": [
        {
          "internalType": "uint8",
          "name": "version_",
          "type": "uint8"
        },
        {
          "internalType": "address",
          "name": "owner_",
          "type": "address"
        },
        {
          "internalType": "bytes32",
          "name": "model_",
          "type": "bytes32"
        },
        {
          "internalType": "uint256",
          "name": "fee_",
          "type": "uint256"
        },
        {
          "internalType": "bytes",
          "name": "input_",
          "type": "bytes"
        }
      ],
      "name": "submitTask",
      "outputs": [],
      "stateMutability": "nonpayable",
      "type": "function"
    },
    {
      "inputs": [
        {
          "internalType": "uint256",
          "name": "t",
          "type": "uint256"
        }
      ],
      "name": "targetTs",
      "outputs": [
        {
          "internalType": "uint256",
          "name": "",
          "type": "uint256"
        }
      ],
      "stateMutability": "pure",
      "type": "function"
    },
    {
      "inputs": [],
      "name": "taskOwnerRewardPercentage",
      "outputs": [
        {
          "internalType": "uint256",
          "name": "",
          "type": "uint256"
        }
      ],
      "stateMutability": "view",
      "type": "function"
    },
    {
      "inputs": [
        {
          "internalType": "bytes32",
          "name": "",
          "type": "bytes32"
        }
      ],
      "name": "tasks",
      "outputs": [
        {
          "internalType": "bytes32",
          "name": "model",
          "type": "bytes32"
        },
        {
          "internalType": "uint256",
          "name": "fee",
          "type": "uint256"
        },
        {
          "internalType": "address",
          "name": "owner",
          "type": "address"
        },
        {
          "internalType": "uint64",
          "name": "blocktime",
          "type": "uint64"
        },
        {
          "internalType": "uint8",
          "name": "version",
          "type": "uint8"
        },
        {
          "internalType": "bytes",
          "name": "cid",
          "type": "bytes"
        }
      ],
      "stateMutability": "view",
      "type": "function"
    },
    {
      "inputs": [],
      "name": "totalHeld",
      "outputs": [
        {
          "internalType": "uint256",
          "name": "",
          "type": "uint256"
        }
      ],
      "stateMutability": "view",
      "type": "function"
    },
    {
      "inputs": [
        {
          "internalType": "address",
          "name": "to_",
          "type": "address"
        }
      ],
      "name": "transferOwnership",
      "outputs": [],
      "stateMutability": "nonpayable",
      "type": "function"
    },
    {
      "inputs": [
        {
          "internalType": "address",
          "name": "to_",
          "type": "address"
        }
      ],
      "name": "transferPauser",
      "outputs": [],
      "stateMutability": "nonpayable",
      "type": "function"
    },
    {
      "inputs": [
        {
          "internalType": "address",
          "name": "to_",
          "type": "address"
        }
      ],
      "name": "transferTreasury",
      "outputs": [],
      "stateMutability": "nonpayable",
      "type": "function"
    },
    {
      "inputs": [],
      "name": "treasury",
      "outputs": [
        {
          "internalType": "address",
          "name": "",
          "type": "address"
        }
      ],
      "stateMutability": "view",
      "type": "function"
    },
    {
      "inputs": [],
      "name": "treasuryRewardPercentage",
      "outputs": [
        {
          "internalType": "uint256",
          "name": "",
          "type": "uint256"
        }
      ],
      "stateMutability": "view",
      "type": "function"
    },
    {
      "inputs": [
        {
          "internalType": "address",
          "name": "addr_",
          "type": "address"
        },
        {
          "internalType": "bytes32",
          "name": "taskid_",
          "type": "bytes32"
        }
      ],
      "name": "validatorCanVote",
      "outputs": [
        {
          "internalType": "uint256",
          "name": "",
          "type": "uint256"
        }
      ],
      "stateMutability": "view",
      "type": "function"
    },
    {
      "inputs": [
        {
          "internalType": "address",
          "name": "validator_",
          "type": "address"
        },
        {
          "internalType": "uint256",
          "name": "amount_",
          "type": "uint256"
        }
      ],
      "name": "validatorDeposit",
      "outputs": [],
      "stateMutability": "nonpayable",
      "type": "function"
    },
    {
      "inputs": [],
      "name": "validatorMinimumPercentage",
      "outputs": [
        {
          "internalType": "uint256",
          "name": "",
          "type": "uint256"
        }
      ],
      "stateMutability": "view",
      "type": "function"
    },
    {
      "inputs": [
        {
          "internalType": "uint256",
          "name": "count_",
          "type": "uint256"
        },
        {
          "internalType": "address",
          "name": "to_",
          "type": "address"
        }
      ],
      "name": "validatorWithdraw",
      "outputs": [],
      "stateMutability": "nonpayable",
      "type": "function"
    },
    {
      "inputs": [
        {
          "internalType": "address",
          "name": "",
          "type": "address"
        }
      ],
      "name": "validatorWithdrawPendingAmount",
      "outputs": [
        {
          "internalType": "uint256",
          "name": "",
          "type": "uint256"
        }
      ],
      "stateMutability": "view",
      "type": "function"
    },
    {
      "inputs": [
        {
          "internalType": "address",
          "name": "",
          "type": "address"
        }
      ],
      "name": "validators",
      "outputs": [
        {
          "internalType": "uint256",
          "name": "staked",
          "type": "uint256"
        },
        {
          "internalType": "uint256",
          "name": "since",
          "type": "uint256"
        },
        {
          "internalType": "address",
          "name": "addr",
          "type": "address"
        }
      ],
      "stateMutability": "view",
      "type": "function"
    },
    {
      "inputs": [],
      "name": "veRewards",
      "outputs": [
        {
          "internalType": "uint256",
          "name": "",
          "type": "uint256"
        }
      ],
      "stateMutability": "view",
      "type": "function"
    },
    {
      "inputs": [],
      "name": "veStaking",
      "outputs": [
        {
          "internalType": "address",
          "name": "",
          "type": "address"
        }
      ],
      "stateMutability": "view",
      "type": "function"
    },
    {
      "inputs": [],
      "name": "version",
      "outputs": [
        {
          "internalType": "uint256",
          "name": "",
          "type": "uint256"
        }
      ],
      "stateMutability": "view",
      "type": "function"
    },
    {
      "inputs": [
        {
          "internalType": "bytes32",
          "name": "taskid_",
          "type": "bytes32"
        },
        {
          "internalType": "bool",
          "name": "yea_",
          "type": "bool"
        }
      ],
      "name": "voteOnContestation",
      "outputs": [],
      "stateMutability": "nonpayable",
      "type": "function"
    },
    {
      "inputs": [],
      "name": "voter",
      "outputs": [
        {
          "internalType": "address",
          "name": "",
          "type": "address"
        }
      ],
      "stateMutability": "view",
      "type": "function"
    },
    {
      "inputs": [
        {
          "internalType": "bytes32",
          "name": "taskid_",
          "type": "bytes32"
        }
      ],
      "name": "votingPeriodEnded",
      "outputs": [
        {
          "internalType": "bool",
          "name": "",
          "type": "bool"
        }
      ],
      "stateMutability": "view",
      "type": "function"
    },
    {
      "inputs": [],
      "name": "withdrawAccruedFees",
      "outputs": [],
      "stateMutability": "nonpayable",
      "type": "function"
    }
  ],
  "bytecode": "0x60808060405234620000c6576000549060ff8260081c1662000074575060ff8082160362000038575b604051615b979081620000cc8239f35b60ff90811916176000557f7f26b83ff96e1f2b6a682f133852f6798a09c465da95921460cefb3847402498602060405160ff8152a13862000028565b62461bcd60e51b815260206004820152602760248201527f496e697469616c697a61626c653a20636f6e747261637420697320696e697469604482015266616c697a696e6760c81b6064820152608490fd5b600080fdfe608080604052600436101561001357600080fd5b60003560e01c908162fd70821461331f5750806305d1bc26146132f757806308745dd1146131e357806308afe0eb1461309b5780630a98573714612f6b5780630c18d4ce14612f425780630d468d9514612f245780631466b63a14612e6657806316c38b3c14612dc657806317f3e04114612d9a5780631825c20e14612c755780631b75c43e14612c3b5780631f88ea1c14612c22578063218a304814612b8e578063218e685914612b545780632258d10514612b395780632943a49014612af6578063303fb0d614612ac5578063393cb1c714612a7d5780633d18b91214612a625780633d57f5d914612a4757806340418adc14612a29578063408def1e146129dd57806340e8c56d1461298d5780634421ea211461292657806346c96aac146128fd5780634bc2a657146128ba5780634ff03efa14612655578063506ea7de146125a4578063514c24051461253957806354fd4d501461251b57806356914caf1461238c5780635c975abb1461236657806361d027b31461233d57806365d445fb1461214d578063671f815214611e0c578063682c205814611dee578063715018a614611da357806372dc0ee114611d8557806375c7050914611d13578063763253bb14611b2057806377286d171461182a5780637881c5e61461180f5780637b36006a146117f15780638129fc1c1461171757806382b5077f146116ee57806383657795146116c7578063839df9451461169b5780638b4d7b3514610fb65780638da5cb5b14610f8d5780638e6d86fd14610f6f5780639280944414610f5157806393a090ec14610d9f57806393f1f8ac14610d2357806396bb02c314610d055780639b97511914610ce75780639fd0506d14610cbe578063a1975adf14610ca0578063a2492a9014610c82578063a4fa8d5714610c69578063a53e252514610c4b578063a8f837f314610be4578063ada82c7d14610b23578063b4dc35b714610af7578063c17ddb2a14610ad9578063c1f7272314610abb578063c24b563114610a81578063c31784be14610a63578063c55dae6314610a3a578063cbd2422d14610970578063cf596e451461094a578063d1f0c94114610900578063d2307ae4146108c6578063d278094014610879578063d2992baa14610828578063d33b2ef5146107cf578063d8a6021c14610768578063dafb4322146106b8578063dc06a89f1461069a578063e236f46b14610631578063e579f500146105a7578063f029ac3e1461051d578063f1b8989d146104ff578063f2fde38b14610446578063f43cc773146104285763fa52c7d8146103d057600080fd5b346104235760203660031901126104235760606001600160a01b03806103f4613360565b166000526077602052604060002080549160026001830154920154169060405192835260208301526040820152f35b600080fd5b34610423576000366003190112610423576020608654604051908152f35b346104235760203660031901126104235761045f613360565b610467613637565b61046f613637565b6001600160a01b039081169081156104ab57603380546001600160a01b03198116841790915516600080516020615b02833981519152600080a3005b60405162461bcd60e51b815260206004820152602660248201527f4f776e61626c653a206e6577206f776e657220697320746865207a65726f206160448201526564647265737360d01b6064820152608490fd5b34610423576000366003190112610423576020606e54604051908152f35b346104235760207f5930669abd6e86dc60e9ac97eba465cc7616d921cbd528312d3dfb4c98f3867061054e3661349b565b600082815260768552604090206001015491939161058190336001600160a01b0391821614908115610599575b50613773565b836000526076825280604060002055604051908152a2005b90506033541633148661057b565b3461042357602036600319011261042357600435600052607b6020526040600020805461062d60018301549260ff6105e6600360028401549301613591565b916040519586958652602086015260018060a01b038116604086015260018060401b038160a01c16606086015260e01c16608084015260c060a084015260c0830190613502565b0390f35b346104235760203660031901126104235760043560005260766020526040600020805461062d60018060a01b0360018401541692610676600360028301549201613591565b90604051948594855260208501526040840152608060608401526080830190613502565b34610423576000366003190112610423576020606d54604051908152f35b34610423576040366003190112610423576004357feafdd1f0eea366f4be1889897ed391bb67f32c22bb7ba7d9d3db1888acfd7f6360206106f761334a565b60008481526076835260409020600101546001600160a01b03919082163314801561075b575b61072690613773565b166107328115156137b1565b60008481526076835260409081902060010180546001600160a01b0319168317905551908152a2005b506033548216331461071d565b3461042357602036600319011261042357610781613360565b610789613637565b606680546001600160a01b0319166001600160a01b039290921691821790557f6bdb9ceff405d990c9b60be9f719fbb80889d5f064e8fd76efd5bea353e90712600080a2005b3461042357602036600319011261042357600435600052607e60205260806040600020600181549101546040519160018060a01b038116835260018060401b038160a01c16602084015260e01c60408301526060820152f35b34610423576040366003190112610423576001600160a01b03610849613360565b16600052607960205260406000206024356000526020526040806000206001815491015482519182526020820152f35b346104235760403660031901126104235761089261334a565b600435600052607f60205260406000209060018060a01b0316600052602052602060ff604060002054166040519015158152f35b34610423576020366003190112610423576001600160a01b036108e7613360565b1660005260786020526020604060002054604051908152f35b346104235761090e3661349b565b9060005260816020526040600020805482101561042357602091610931916134b1565b905460405160039290921b1c6001600160a01b03168152f35b3461042357602036600319011261042357602061096860043561389c565b604051908152f35b3461042357602080600319360112610423576004359061099860ff60675460a01c16156147f8565b3360005260798152604060002082600052815260406000206109d7604051916109c0836133b7565b83600182549283865201549301928352151561488f565b5133600052607a82526109f060406000209182546136d2565b90553360005260798152604060002090826000525260006001604082208281550155337ff9d5cfcdfe9803069225971ba315f4302add9b477c3441cc363bc38fdb065b90600080a3005b34610423576000366003190112610423576065546040516001600160a01b039091168152602090f35b34610423576000366003190112610423576020607054604051908152f35b34610423576020366003190112610423576001600160a01b03610aa2613360565b1660005260886020526020604060002054604051908152f35b34610423576000366003190112610423576020608954604051908152f35b34610423576000366003190112610423576020606954604051908152f35b346104235760203660031901126104235760043560005260836020526020604060002054604051908152f35b3461042357600036600319011261042357610b4660ff60675460a01c16156147f8565b60655460665460685460405163a9059cbb60e01b81529260209284926001600160a01b039283169284926000928492610b83921660048401614845565b03925af18015610bd857610baa575b610ba06068546086546136d2565b6086556000606855005b610bca9060203d8111610bd1575b610bc28183613408565b81019061482d565b5080610b92565b503d610bb8565b6040513d6000823e3d90fd5b34610423576020366003190112610423576004356001600160401b0381169081900361042357610c12613637565b606a80546001600160401b031916821790557fa15d6b0930a82638ac4775bfd1b2e9f1e86be67e1bd3a09fa8a77a8f079769d7600080a2005b34610423576000366003190112610423576020607554604051908152f35b34610423576020610968610c7c3661349b565b90614677565b34610423576000366003190112610423576020608a54604051908152f35b34610423576000366003190112610423576020608754604051908152f35b34610423576000366003190112610423576067546040516001600160a01b039091168152602090f35b34610423576000366003190112610423576020608454604051908152f35b34610423576000366003190112610423576020606c54604051908152f35b346104235760207f0321e8a918b4c47bf3677852c070983825f30a47bc8d9416691454fa6a727d63610d543661349b565b610d5f939193613637565b6000848152607683526040902060010154610d84906001600160a01b0316151561368f565b836000526076825280600260406000200155604051908152a2005b3461042357604036600319011261042357610db8613360565b602435610dcd60ff60675460a01c16156147f8565b6065546040516323b872dd60e01b81526001600160a01b03916020919082908290851681600081610e038a303360048501614860565b03925af18015610bd857610f34575b50610e1f83608654614882565b60865581610e2b613746565b94169384600052607782526040600020548482821115610f05575b50505083600052607781526040600020610e668460018301549254614882565b60405190939060608101906001600160401b03821181831017610eef577f8d4844488c19a90828439e71d14ebad860806d04f8ef8b25a82179fab2699b89956002926040528152848101938452604081019388855288600052607786526040600020915182555160018201550191511660018060a01b03198254161790556040519283523392a3005b634e487b7160e01b600052604160045260246000fd5b610f0e91614882565b1015610f1d575b848084610e46565b836000526077815242600160406000200155610f15565b610f4a90823d8411610bd157610bc28183613408565b5084610e12565b34610423576000366003190112610423576020607154604051908152f35b34610423576000366003190112610423576020607454604051908152f35b34610423576000366003190112610423576033546040516001600160a01b039091168152602090f35b34610423576040366003190112610423576024803563ffffffff811680910361042357610feb60ff60675460a01c16156147f8565b6004356000908152607e60205260409020546001600160a01b03161561165a576110166004356156c9565b1561161c5780156115e757600435600052608160205263ffffffff6040600020541691608260205263ffffffff60406000205416607e60205260406000205460e01c9363ffffffff848601116115d257600435600052607e602052600160406000200154918082116000146113f3578261108f916136df565b6001821480156113de578182915b156113b757505060005b865b63ffffffff878901168110611259575050505050600435600052607e60205260406000205460e01c1561112c575b505b600435600052607e6020526110f481830160406000206156a6565b63ffffffff6040519183011681527f71d8c71303e35a39162e33a402c9897bf9848388537bac7d5e1b0d202eca4e66602060043592a3005b611176602060018060a01b0360655416607b82526040600020906001808060a01b0360028401541692015491600060405180968195829463a9059cbb60e01b845260048401614845565b03925af18015610bd85761123a575b50600435600052607b6020526111a56001604060002001546086546136d2565b6086556004356000526083602052604060002054906081602052604060002090815415611226575060005260018060a01b036020600020541660005260776020526111f66040600020918254614882565b9055600435600052607d60205260018060a01b0360406000205416600052608560205242604060002055826110d7565b634e487b7160e01b60009081526032600452fd5b6112529060203d602011610bd157610bc28183613408565b5083611185565b8084849210611272575b61126d9150614b47565b6110a9565b600435600052608160205261128b8160406000206134b1565b60018060a01b0391549060031b1c1680600052607760205260406000206112b3888254614882565b9055838261133d575060655460405163a9059cbb60e01b81529360209285926001600160a01b031691839160009183916112f1919060048401614845565b03925af1918215610bd85761126d9261131e575b5060866113138582546136d2565b90555b839150611263565b6113369060203d602011610bd157610bc28183613408565b5089611305565b61136f935060209160018060a01b036065541690600060405180978195829463a9059cbb60e01b845260048401614845565b03925af1918215610bd85761126d92611398575b5060866113918482546136d2565b9055611316565b6113b09060203d602011610bd157610bc28183613408565b5089611383565b6113d9916113c4916136d2565b63ffffffff6113d285615831565b16906136f2565b6110a7565b6113eb8260011c836136d2565b91829161109d565b91809350611400916136df565b6001821480156115c6578182915b156115b457505060005b855b63ffffffff868801168110611456575050505050600435600052607e60205260406000205460e01c6110d957611451600435614f96565b6110d9565b808484921061146f575b61146a9150614b47565b61141a565b60043560005260826020526114888160406000206134b1565b60018060a01b0391549060031b1c1680600052607760205260406000206114b0888254614882565b9055838261153a575060655460405163a9059cbb60e01b81529360209285926001600160a01b031691839160009183916114ee919060048401614845565b03925af1918215610bd85761146a9261151b575b5060866115108582546136d2565b90555b839150611460565b6115339060203d602011610bd157610bc28183613408565b5088611502565b61156c935060209160018060a01b036065541690600060405180978195829463a9059cbb60e01b845260048401614845565b03925af1918215610bd85761146a92611595575b50608661158e8482546136d2565b9055611513565b6115ad9060203d602011610bd157610bc28183613408565b5088611580565b6115c1916113c4916136d2565b611418565b8160011c91829161140e565b82634e487b7160e01b60005260116004526000fd5b60405162461bcd60e51b815260206004820152600e818401526d185b5b9d081d1bdbc81cdb585b1b60921b6044820152606490fd5b60405162461bcd60e51b815260206004820152601781840152761d9bdd1a5b99c81c195c9a5bd9081b9bdd08195b991959604a1b6044820152606490fd5b60405162461bcd60e51b815260206004820152601a818401527918dbdb9d195cdd185d1a5bdb88191bd95cdb89dd08195e1a5cdd60321b6044820152606490fd5b3461042357602036600319011261042357600435600052607c6020526020604060002054604051908152f35b346104235760403660031901126104235760206109686116e5613360565b60243590615730565b3461042357600036600319011261042357608b546040516001600160a01b039091168152602090f35b346104235760003660031901126104235760005460ff8160081c1615806117e4575b15611788576006906005606b55670de0b6b3a7640000608e5561ffff1916176000557f7f26b83ff96e1f2b6a682f133852f6798a09c465da95921460cefb3847402498602060405160068152a1005b60405162461bcd60e51b815260206004820152602e60248201527f496e697469616c697a61626c653a20636f6e747261637420697320616c72656160448201526d191e481a5b9a5d1a585b1a5e995960921b6064820152608490fd5b50600660ff821610611739565b34610423576000366003190112610423576020607354604051908152f35b346104235760003660031901126104235760206109686146d5565b34610423576020806003193601126104235760043561185160ff60675460a01c16156147f8565b6000818152607d8084526040808320546001600160a01b03908116845260778652818420548585528387528285205482168552607a87529190932054611896916136d2565b61189e613746565b11611adc5782600052808452816040600020541615611aa25782600052607e84528160406000205416611a6a5760008381528185526040902054607154906001600160401b039060a01c81166118f483426136d2565b1115611a32578460005282865261192c6119236040600020549386851660005260858952604060002054614882565b60735490614882565b9160a01c1611156119d6578260005280845260ff60406000205460e01c1661199f5790829161199d9483600052526040600020805490600160e01b60ff60e01b198316179055167f0b76b4ae356796814d36b46f7c500bbd27b2cce1e6059a6fa2bebfd5a389b190600080a3614f96565b005b60405162461bcd60e51b815260048101859052600f60248201526e185b1c9958591e4818db185a5b5959608a1b6044820152606490fd5b60405162461bcd60e51b815260048101859052602e60248201527f636c61696d536f6c7574696f6e20636f6f6c646f776e206166746572206c6f7360448201526d3a1031b7b73a32b9ba30ba34b7b760911b6064820152608490fd5b60405162461bcd60e51b815260048101879052601060248201526f6e6f7420656e6f7567682064656c617960801b6044820152606490fd5b60405162461bcd60e51b815260048101859052601060248201526f3430b99031b7b73a32b9ba30ba34b7b760811b6044820152606490fd5b60405162461bcd60e51b81526004810185905260126024820152711cdbdb1d5d1a5bdb881b9bdd08199bdd5b9960721b6044820152606490fd5b60405162461bcd60e51b815260048101859052601c60248201527b76616c696461746f72206d696e207374616b656420746f6f206c6f7760201b6044820152606490fd5b3461042357604036600319011261042357600435611b3c61334a565b611b4e60ff60675460a01c16156147f8565b336000526020906079825260406000208360005282526040600020604051611b75816133b7565b611b906001835493848452015492858301938452151561488f565b514210611ce0573360005260778352604060002054815111611ca65760009060018060a01b039084611bdf8360655416835160405196878094819363a9059cbb60e01b83528b60048401614845565b03925af1928315610bd8577f109aeff667601aad33abcb7c5df1617754eefd18253d586a95c198cb479b5bd493611c89575b5080513360005260778652611c2c60406000209182546136d2565b9055611c3b81516086546136d2565b608655805133600052607a8652611c5860406000209182546136d2565b90553360005260798552604060002086600052855260006001604082208281550155519260405193845216923392a4005b611c9f90863d8811610bd157610bc28183613408565b5086611c11565b60405162461bcd60e51b81526004810184905260126024820152711cdd185ad9481a5b9cdd59999a58da595b9d60721b6044820152606490fd5b60405162461bcd60e51b815260048101849052600b60248201526a3bb0b4ba103637b733b2b960a91b6044820152606490fd5b3461042357602036600319011261042357600435600052607d60205260ff604060002061062d611d47600183549301613591565b60405193849360018060a01b038116855260018060401b038160a01c16602086015260e01c1615156040840152608060608401526080830190613502565b34610423576000366003190112610423576020606f54604051908152f35b3461042357600036600319011261042357611dbc613637565b603380546001600160a01b031981169091556000906001600160a01b0316600080516020615b028339815191528280a3005b34610423576000366003190112610423576020606854604051908152f35b34610423576020806003193601126104235760043590611e3460ff60675460a01c16156147f8565b611e45611e4033614f5f565b614f1e565b6000828152607d825260409020546001600160a01b03919082161561210f5782600052607e815281604060002054166120cd576000838152607d825260409020546071546001600160401b039291611ea2919060a01c8416614882565b42101561209e5783600052607d815260ff60406000205460e01c1661207457611ec9613712565b9160405190611ed7826133ed565b338252611f2e63ffffffff848401928042168452611f2660408601916000835260608701958987528b600052607e89528a604060002098511660018060a01b0319895416178855511686614916565b5116836156a6565b5160018092015584337f6958c989e915d3e41a35076e3c480363910055408055ad86ae1ee13d41c40640600080a3607f8252604060002033600052825260406000209360ff199482868254161790558560005260818352611f933360406000206157f6565b85600052607e835281604060002001543360005260778452611fbb60406000209182546136d2565b90556040519382855286600080516020615b428339815191529586863392a386600052607d84528160406000205416600052607784526040600020541015611fff57005b85600052607d83526040600020541693607f835260406000208560005283528160406000209182541617905584600052608282526120418460406000206157f6565b84600052607e825260406000200154836000526077825261206860406000209182546136d2565b905560405160008152a3005b6064906040519062461bcd60e51b8252600482015260036024820152623bba3360e91b6044820152fd5b6064906040519062461bcd60e51b825260048201526008602482015267746f6f206c61746560c01b6044820152fd5b6064906040519062461bcd60e51b82526004820152601b60248201527a636f6e746573746174696f6e20616c72656164792065786973747360281b6044820152fd5b6064906040519062461bcd60e51b8252600482015260176024820152761cdbdb1d5d1a5bdb88191bd95cc81b9bdd08195e1a5cdd604a1b6044820152fd5b34610423576040366003190112610423576001600160401b036004358181116104235761217e903690600401613527565b90602492833581811161042357612199903690600401613527565b94906121ad60ff60675460a01c16156147f8565b33600052602091608583526121cd61192360406000205460715490614882565b4211156122f4576121e0866084546136df565b33600052607784526121f860406000209182546136d2565b90553360005260888352612211604060002054426136d2565b670de0b6b3a7640000612226886087546136df565b0410156122bb57336000526088835242604060002055612248611e4033614f5f565b60005b86811061225457005b8060051b90888110156122a65781840135601e198536030181121561042357840191823592878411610423578601928036038413610423576122a19361229c928a0135614bf2565b614b47565b61224b565b82634e487b7160e01b60005260326004526000fd5b8260136064926040519262461bcd60e51b84526004840152820152721cdbdb1d5d1a5bdb881c985d19481b1a5b5a5d606a1b6044820152fd5b82602f6084926040519262461bcd60e51b84526004840152820152600080516020615ae283398151915260448201526e39ba1031b7b73a32b9ba30ba34b7b760891b6064820152fd5b34610423576000366003190112610423576066546040516001600160a01b039091168152602090f35b3461042357600036600319011261042357602060ff60675460a01c166040519015158152f35b34610423576040366003190112610423576024356001600160401b038111610423576123bc90369060040161338a565b6123ce60ff60675460a01c16156147f8565b33600052602091608583526123ee61192360406000205460715490614882565b4211156124d057608454808004600114811517156124ba57336000526077845261241e60406000209182546136d2565b90553360005260888352612437604060002054426136d2565b608754808004600114811517156124ba57670de0b6b3a76400009004101561247f57608861199d93336000525242604060002055612477611e4033614f5f565b600435614bf2565b60405162461bcd60e51b81526004810184905260136024820152721cdbdb1d5d1a5bdb881c985d19481b1a5b5a5d606a1b6044820152606490fd5b634e487b7160e01b600052601160045260246000fd5b60405162461bcd60e51b815260048101849052602f6024820152600080516020615ae283398151915260448201526e39ba1031b7b73a32b9ba30ba34b7b760891b6064820152608490fd5b34610423576000366003190112610423576020606b54604051908152f35b3461042357602036600319011261042357600435612555613637565b670de0b6b3a7640000811161256957608e55005b60405162461bcd60e51b81526020600482015260136024820152720e0cae4c6cadce8c2ceca40e8dede40d0d2ced606b1b6044820152606490fd5b34610423576020366003190112610423576004356125ca60ff60675460a01c16156147f8565b80600052607c60205260406000205461261c576125e5614b56565b81600052607c602052604060002055337f09b4c028a2e50fec6f1c6a0163c59e8fbe92b231e5c03ef3adec585e63a14b92600080a3005b60405162461bcd60e51b8152602060048201526011602482015270636f6d6d69746d656e742065786973747360781b6044820152606490fd5b346104235760603660031901126104235761266e613360565b6001600160401b039060443590828211610423576126936126c492369060040161338a565b6126a860ff60679593955460a01c16156147f8565b6001600160a01b03928316936126bf8515156137b1565b615847565b90604051936126d2856133ed565b60243585526020948581019485526040810160008152606082019485526126f933836137f8565b9586600052607688526001948086604060002001541661287a57600088815260768a526040902093518455905185840180546001600160a01b031916919092161790555160028201559251805160039490940193918211610eef5761275e8454613557565b601f8111612831575b508590601f83116001146127ce579282939183926000946127c3575b50501b916000199060031b1c19161790555b60405190807fa4b0af38d049ba81703a0d0e46cc2ff39681210302134046237111a8fb7dee72600080a28152f35b015192508780612783565b90601f198316918560005283886000209360005b8a8883831061281a5750505010612801575b505050811b019055612795565b015160001960f88460031b161c191690558580806127f4565b8686015188559096019594850194879350016127e2565b8460005286600020601f840160051c810191888510612870575b601f0160051c019084905b828110612864575050612767565b60008155018490612856565b909150819061284b565b60405162461bcd60e51b8152600481018a905260186024820152771b5bd9195b08185b1c9958591e481c9959da5cdd195c995960421b6044820152606490fd5b34610423576020366003190112610423576128d3613360565b6128db613637565b608d80546001600160a01b0319166001600160a01b0392909216919091179055005b3461042357600036600319011261042357608d546040516001600160a01b039091168152602090f35b346104235760203660031901126104235761293f613360565b612947613637565b606780546001600160a01b0319166001600160a01b039290921691821790557f5a85b4270fc1e75035e6cd505418ce65e0bcc36cc7eb9ce9e6f8c6181d4cb577600080a2005b34610423576020366003190112610423576004356001600160401b038111610423576129c96129c361062d92369060040161338a565b90615847565b604051918291602083526020830190613502565b34610423576020366003190112610423577f8c854a81cb5c93e7e482d30fb9c6f88fdbdb320f10f7a853c2263659b54e563f6020600435612a1c613637565b80606b55604051908152a1005b34610423576000366003190112610423576020608e54604051908152f35b34610423576000366003190112610423576020610968613712565b34610423576000366003190112610423576020610968614785565b3461042357606036600319011261042357612a96613360565b6044356001600160401b03811161042357602091612abb61096892369060040161338a565b91602435906147a7565b3461042357612ad33661349b565b9060005260826020526040600020805482101561042357602091610931916134b1565b3461042357602036600319011261042357612b0f613360565b612b17613637565b608b80546001600160a01b0319166001600160a01b0392909216919091179055005b34610423576000366003190112610423576020610968613746565b34610423576020366003190112610423576001600160a01b03612b75613360565b1660005260856020526020604060002054604051908152f35b3461042357600319604036820112610423576001600160401b03906004359082821161042357608090823603011261042357604051612bcc816133ed565b81600401358152612bdf60248301613376565b602082015260448201356040820152606482013592831161042357612c0f6109689260046020953692010161347d565b6060820152612c1c61334a565b906137f8565b34610423576020610968612c353661349b565b90614291565b34610423576020366003190112610423576001600160a01b03612c5c613360565b16600052607a6020526020604060002054604051908152f35b34610423576040366003190112610423576004356024358015159081810361042357612ca960ff60675460a01c16156147f8565b612cb5611e4033614f5f565b612cbf8333615730565b612d6757600080516020615b428339815191529083600052602090607f825260406000203360005282526040600020600160ff19825416179055600014612d4c578360005260818152612d163360406000206157f6565b83600052607e81526001604060002001543360005260778252612d3f60406000209182546136d2565b90556040519283523392a3005b8360005260828152612d623360406000206157f6565b612d16565b60405162461bcd60e51b815260206004820152600b60248201526a1b9bdd08185b1b1bddd95960aa1b6044820152606490fd5b346104235760203660031901126104235760043560005260806020526020604060002054604051908152f35b3461042357602036600319011261042357600435801515809103610423576067546001600160a01b0381163303612e345760ff60a01b191660a082901b60ff60a01b16176067557fd83d5281277e107f080e362699d46082adb74e7dc6a9bccbc87d8ae9533add44600080a2005b60405162461bcd60e51b815260206004820152600a6024820152693737ba103830bab9b2b960b11b6044820152606490fd5b3461042357600319606036820112610423576001600160401b0390600435908282116104235760c090823603011261042357604051612ea4816133d2565b8160040135815260248201356020820152612ec160448301613376565b604082015260648201358381168103610423576060820152608482013560ff8116810361042357608082015260a482013592831161042357612f0e6109689260046020953692010161347d565b60a0820152612f1b61334a565b60443591613851565b34610423576000366003190112610423576020608c54604051908152f35b3461042357600036600319011261042357606a546040516001600160401b039091168152602090f35b346104235760208060031936011261042357600435612f9260ff60675460a01c16156147f8565b336000526077825280612fb4604060002054607a8552604060002054906136d2565b1061307c57612fc560755442614882565b9033600052607883526040600020805490600182018092116124ba57553360005260788352604060002054918291604051612fff816133b7565b8281526001868201838152336000526079885260406000208660005288526040600020925183555191015533600052607a85526040600020613042828254614882565b9055604051918252848201527fcc7e0e76b20394ef965d71c4111d21e1b322bb8775dc2c7acd29eb0d3c3dd96d60403392a3604051908152f35b60405162461bcd60e51b81526004810183905260006024820152604490fd5b346104235760c0366003190112610423576130b461333a565b6130bc61334a565b6044359160643591906084356001600160401b038111610423576130e490369060040161338a565b92909461314360a4359461310060ff60675460a01c16156147f8565b6000838152607660205260409020600101546001600160a01b039890613129908a16151561368f565b8360005260766020526126bf6040600020548910156148cf565b9160005b8581106131cd576000878760206131848c6065541661316684866136df565b6040519687809481936323b872dd60e01b8352303360048501614860565b03925af1918215610bd8576131aa936131a2936131af575b506136df565b608654614882565b608655005b6131c69060203d8111610bd157610bc28183613408565b508461319c565b6131de9061229c858986868a61493f565b613147565b346104235760a0366003190112610423576131fc61333a565b61320461334a565b6064359160443591906084356001600160401b0381116104235761328d93613293936132358793369060040161338a565b61324a60ff60679993995460a01c16156147f8565b6000848152607660205260409020600101546001600160a01b039890613273908a16151561368f565b8460005260766020526126bf6040600020548710156148cf565b9361493f565b6065541690602060405180936323b872dd60e01b8252816000816132bc87303360048501614860565b03925af1918215610bd8576131aa926132d9575b50608654614882565b6132f09060203d8111610bd157610bc28183613408565b50826132d0565b346104235760203660031901126104235760206133156004356156c9565b6040519015158152f35b34610423576000366003190112610423576020906072548152f35b6004359060ff8216820361042357565b602435906001600160a01b038216820361042357565b600435906001600160a01b038216820361042357565b35906001600160a01b038216820361042357565b9181601f84011215610423578235916001600160401b038311610423576020838186019501011161042357565b604081019081106001600160401b03821117610eef57604052565b60c081019081106001600160401b03821117610eef57604052565b608081019081106001600160401b03821117610eef57604052565b601f909101601f19168101906001600160401b03821190821017610eef57604052565b6001600160401b038111610eef57601f01601f191660200190565b9291926134528261342b565b916134606040519384613408565b829481845281830111610423578281602093846000960137010152565b9080601f830112156104235781602061349893359101613446565b90565b6040906003190112610423576004359060243590565b80548210156134c95760005260206000200190600090565b634e487b7160e01b600052603260045260246000fd5b60005b8381106134f25750506000910152565b81810151838201526020016134e2565b9060209161351b815180928185528580860191016134df565b601f01601f1916010190565b9181601f84011215610423578235916001600160401b038311610423576020808501948460051b01011161042357565b90600182811c92168015613587575b602083101461357157565b634e487b7160e01b600052602260045260246000fd5b91607f1691613566565b90604051918260008254926135a584613557565b90818452600194858116908160001461361457506001146135d1575b50506135cf92500383613408565b565b9093915060005260209081600020936000915b8183106135fc5750506135cf935082010138806135c1565b855488840185015294850194879450918301916135e4565b9150506135cf94506020925060ff191682840152151560051b82010138806135c1565b6033546001600160a01b0316330361364b57565b606460405162461bcd60e51b815260206004820152602060248201527f4f776e61626c653a2063616c6c6572206973206e6f7420746865206f776e65726044820152fd5b1561369657565b60405162461bcd60e51b81526020600482015260146024820152731b5bd9195b08191bd95cc81b9bdd08195e1a5cdd60621b6044820152606490fd5b919082039182116124ba57565b818102929181159184041417156124ba57565b81156136fc570490565b634e487b7160e01b600052601260045260246000fd5b61371a6146d5565b606d5490670de0b6b3a7640000918203918083116124ba5761373f61349893836136df565b04906136d2565b61374e6146d5565b606c5490670de0b6b3a7640000918203918083116124ba5761373f61349893836136df565b1561377a57565b60405162461bcd60e51b815260206004820152600f60248201526e3737ba1036b7b232b61037bbb732b960891b6044820152606490fd5b156137b857565b60405162461bcd60e51b815260206004820152601860248201527761646472657373206d757374206265206e6f6e2d7a65726f60401b6044820152606490fd5b61384b60018060a01b0361383d8160208501511693606081519101519060405195869460208601981688526040850152606084015260808084015260a0830190613502565b03601f198101835282613408565b51902090565b909161384b9061383d83519360a0602082015191015190604051958694602086019860018060a01b0316895260408601526060850152608084015260a08084015260c0830190613502565b63bbf81e008111613926576138b090613935565b680a688906bd8affffff811161390e576138d7670de0b6b3a7640000809260401b04613a80565b9081156136fc57697f0e10af47c1c7000000917105f95e44a0e2947c3011ad48e1abf7023b57603c1b040481039081116124ba5790565b6024906040519063b3b6ba1f60e01b82526004820152fd5b50697f0e10af47c1c700000090565b670de0b6b3a76400009190600019838209838202918280831092039180830392146139c3576301e1338090818310156139a057947f98f5be4dd1e14769fbd6666224dc1eb80dd2e0a3d2c8b328f57e76b7ae10395794950990828211900360f91b910360071c170290565b6064918660405192630c740aef60e31b8452600484015260248301526044820152fd5b50506301e1338090049150565b670de0b6b3a7640000916000198383099280830292838086109503948086039514613a735782851015613a5057908291096001821901821680920460028082600302188083028203028083028203028083028203028083028203028083028203028092029003029360018380600003040190848311900302920304170290565b8260649260405192630c740aef60e31b8452600484015260248301526044820152fd5b50509061349892506136f2565b600160bf1b60ff60381b8216614188575b670de0b6b3a76400009060ff60301b8316614090575b60ff60281b8316613f98575b60ff60201b8316613ea0575b63ff0000008316613da8575b62ff00008316613cb9575b61ff008316613bda575b60ff8316613af5575b029060401c60bf031c90565b60808316613bc9575b6040808416613bb6575b60208416613ba3575b60108416613b90575b60088416613b7d575b60048416613b6a575b60028416613b57575b60018416613b44575b50613ae9565b6001600160401b01909102901c38613b3e565b6001600160401b01909102811c90613b35565b6003600160401b01909102811c90613b2c565b6006600160401b01909102811c90613b23565b600b600160401b01909102811c90613b1a565b6016600160401b01909102811c90613b11565b602c600160401b01909102811c90613b08565b6059600160401b010260401c613afe565b6180008316613ca7575b6140008316613c95575b6120008316613c83575b6110008316613c71575b6108008316613c5f575b6104008316613c4d575b6102008316613c3b575b610100831615613ae05760b1600160401b010260401c613ae0565b610163600160401b010260401c613c20565b6102c6600160401b010260401c613c16565b61058c600160401b010260401c613c0c565b610b17600160401b010260401c613c02565b61162e600160401b010260401c613bf8565b612c5d600160401b010260401c613bee565b6158b9600160401b010260401c613be4565b628000008316613d95575b624000008316613d82575b622000008316613d6f575b621000008316613d5c575b620800008316613d49575b620400008316613d36575b620200008316613d23575b62010000831615613ad65761b172600160401b010260401c613ad6565b680100000000000162e40260401c613d06565b6801000000000002c5c80260401c613cfb565b68010000000000058b910260401c613cf0565b680100000000000b17210260401c613ce5565b68010000000000162e430260401c613cda565b680100000000002c5c860260401c613ccf565b6801000000000058b90c0260401c613cc4565b63800000008316613e8d575b63400000008316613e7a575b63200000008316613e67575b63100000008316613e54575b63080000008316613e41575b63040000008316613e2e575b63020000008316613e1b575b6301000000831615613acb5768010000000000b172180260401c613acb565b6801000000000162e4300260401c613dfc565b68010000000002c5c8600260401c613df0565b680100000000058b90c00260401c613de4565b6801000000000b17217f0260401c613dd8565b680100000000162e42ff0260401c613dcc565b6801000000002c5c85fe0260401c613dc0565b68010000000058b90bfc0260401c613db4565b600160271b8316613f85575b600160261b8316613f72575b600160251b8316613f5f575b600160241b8316613f4c575b600160231b8316613f39575b600160221b8316613f26575b600160211b8316613f13575b600160201b831615613abf57680100000000b17217f80260401c613abf565b68010000000162e42ff10260401c613ef4565b680100000002c5c85fe30260401c613ee8565b6801000000058b90bfce0260401c613edc565b68010000000b17217fbb0260401c613ed0565b6801000000162e42fff00260401c613ec4565b68010000002c5c8601cc0260401c613eb8565b680100000058b90c0b490260401c613eac565b6001602f1b831661407d575b6001602e1b831661406a575b6001602d1b8316614057575b6001602c1b8316614044575b6001602b1b8316614031575b6001602a1b831661401e575b600160291b831661400b575b600160281b831615613ab3576801000000b1721835510260401c613ab3565b680100000162e430e5a20260401c613fec565b6801000002c5c863b73f0260401c613fe0565b68010000058b90cf1e6e0260401c613fd4565b680100000b1721bcfc9a0260401c613fc8565b68010000162e43f4f8310260401c613fbc565b680100002c5c89d5ec6d0260401c613fb0565b6801000058b91b5bc9ae0260401c613fa4565b600160371b8316614175575b600160361b8316614162575b600160351b831661414f575b600160341b831661413c575b600160331b8316614129575b600160321b8316614116575b600160311b8316614103575b600160301b831615613aa75768010000b17255775c040260401c613aa7565b6801000162e525ee05470260401c6140e4565b68010002c5cc37da94920260401c6140d8565b680100058ba01fb9f96d0260401c6140cc565b6801000b175effdc76ba0260401c6140c0565b680100162f3904051fa10260401c6140b4565b6801002c605e2e8cec500260401c6140a8565b68010058c86da1c09ea20260401c61409c565b6001603f1b821661427e575b670de0b6b3a7640000906001603e1b831661426b575b6001603d1b8316614258575b6001603c1b8316614245575b6001603b1b8316614232575b6001603a1b831661421f575b600160391b831661420c575b600160381b83166141f9575b9050613a91565b680100b1afa5abcbed610260401c6141f2565b68010163da9fb33356d80260401c6141e6565b680102c9a3e778060ee70260401c6141da565b6801059b0d31585743ae0260401c6141ce565b68010b5586cf9890f62a0260401c6141c2565b6801172b83c7d517adce0260401c6141b6565b6801306fe0a31b7152df0260401c6141aa565b5068016a09e667f3bcc909607f1b614194565b8015158061454d575b1561451d576142a89061389c565b90600160ff1b8082148015614514575b61446157600082121561450b576142e0826000035b60008512156145045784600003906139d0565b6001600160ff1b03928382116144e65760001994600091188512156144df5750915b670cf4ad2e86166c9c83126144ce57670de0b6b3a763ffff1992808401906001818313166124ba5783821480156144c6575b6144b45760008212156144aa57670de0b6b3a764000061435791600003016145d8565b90828211614483578568056bc75e2d63100000600092181360001461447c5750925b83018381136001166124ba5783126001166124ba576801158e460913d0000083121561447357600083129384156143da57505081146143c85761349891156143c357600003614556565b614556565b60405163ec2b9e6760e01b8152600490fd5b91926143e7919450614556565b91821461446157600082121561445b57816000035b80156136fc576a0c097ce7bc90715b34b9f160241b0492831161443457600091670de0b6b3a7640000181315614430575090565b0390565b60405163d49c26b360e01b8152670de0b6b3a7640000600482015260248101839052604490fd5b816143fc565b6040516309fe2b4560e41b8152600490fd5b50505050600090565b0392614379565b6044906040519063120b5b4360e01b8252600482015268056bc75e2d631000006024820152fd5b50614357816145d8565b60405163a6070c2560e01b8152600490fd5b506000614334565b5050505068056bc75e2d6310000090565b0391614302565b604490856040519163d49c26b360e01b835260048301526024820152fd5b84906139d0565b6142e0826142cd565b508083146142b8565b60405162461bcd60e51b81526020600482015260086024820152676d696e2076616c7360c01b6044820152606490fd5b5081151561429a565b600081121561459b5768033dd1780914b971141981126145955761457c90600003614556565b80156136fc576a0c097ce7bc90715b34b9f160241b0590565b50600090565b680a688906bd8affffff81136145c157670de0b6b3a76400006134989160401b05613a80565b60249060405190626c1a0560e31b82526004820152fd5b68056bc75e2d6310000091906000198382098382029182808310920391808303921461466657670de0b6b3a7640000908183101561464857947faccb18165bd6fe31ae1cf318dc5b51eee0e1ba569b88cd74c1773b91fac1066994950990828211900360ee1b910360121c170290565b6044908660405191635173648d60e01b835260048301526024820152fd5b5050670de0b6b3a764000090049150565b9080156146c757697f0e10af47c1c7000000908082038281116124ba57670de0b6b3a764000093848202918204851483851417156124ba576146c2926146bc91614291565b906136df565b040490565b5050670de0b6b3a764000090565b6065546040516370a0823160e01b815230600482015290602090829060249082906001600160a01b03165afa908115610bd857600091614751575b50697f0e10af47c1c7000000908181101561474a5761473561473e91608654906136d2565b608c54906136d2565b81039081116124ba5790565b5050600090565b906020823d821161477d575b8161476a60209383613408565b8101031261477a57505138614710565b80fd5b3d915061475d565b606a546134989061479f906001600160401b0316426136d2565b610c7c6146d5565b9261384b9160a091806040519586936020850198600180881b031689526040850152606080850152816080850152848401376000838284010152601f80199101168101036080810184520182613408565b156147ff57565b60405162461bcd60e51b81526020600482015260066024820152651c185d5cd95960d21b6044820152606490fd5b90816020910312610423575180151581036104235790565b6001600160a01b039091168152602081019190915260400190565b6001600160a01b03918216815291166020820152604081019190915260600190565b919082018092116124ba57565b1561489657565b60405162461bcd60e51b81526020600482015260116024820152701c995c5d595cdd081b9bdd08195e1a5cdd607a1b6044820152606490fd5b156148d657565b60405162461bcd60e51b81526020600482015260186024820152776c6f77657220666565207468616e206d6f64656c2066656560401b6044820152606490fd5b8054600160a01b600160e01b03191660a09290921b600160a01b600160e01b0316919091179055565b6040519461494c866133d2565b8386526020918287018681526003604089019860018060a01b038097168a52606081019960018060401b03948542168c5260ff608084019116815260a083019687526149d98661499f6069543387613851565b9d8e976000988952607b8c526040892096518755519b60019c8d8801556002870195511660018060a01b0319865416178555511683614916565b5181549060ff60e01b9060e01b169060ff60e01b19161790550192518051928311614b335790839291614a0e8a969554613557565b601f8111614adb575b508491601f8411600114614a6b579596600080516020615b228339815191529692849283614a60575b50501b916000199060031b1c19161790555b6040519485523394a4606955565b015192503880614a40565b90969291601f198316858352868320925b818110614ac357509783600080516020615b22833981519152989910614aaa575b505050811b019055614a52565b015160001960f88460031b161c19169055388080614a9d565b8983015184558c985092850192918701918701614a7c565b90919293809596508352858320601f850160051c810191878610614b29575b8b97969594939291601f8a920160051c01915b828110614b1b575050614a17565b8481558c9850899101614b0d565b9091508190614afa565b634e487b7160e01b82526041600452602482fd5b60001981146124ba5760010190565b61a4b146148015614be7575b8015614bdb575b8015614bcf575b614b78574390565b60405163a3b1b31d60e01b815260208160048160645afa908115610bd857600091614ba1575090565b906020823d8211614bc7575b81614bba60209383613408565b8101031261477a57505190565b3d9150614bad565b5062066eee4614614b70565b5062066eed4614614b69565b5061a4ba4614614b62565b91600091838352602091607b83526040918285205415614ee457858552607d8452828520546001600160a01b0392908316614ea357614c33818389336147a7565b808752607c86528487205415614e65578652607c855283862054614c55614b56565b1115614e2457614c9190614cc0855193614c6e856133ed565b33855287850160018060401b039485928342168352898801958c87523691613446565b606087019081528b8b52607d8a52888b20965187546001600160a01b0319169816979097178655511684614916565b51825460ff60e01b191690151560e01b60ff60e01b16178255915180516001928301939091908211614e1057614cf68454613557565b601f8111614dca575b508590601f8311600114614d6b579282939183928994614d60575b50501b916000199060031b1c19161790555b608360845492858552528220557f957c18b5af8413899ea8a576a4d3fb16839a02c9fccfdce098b6d59ef248525b339180a3565b015192503880614d1a565b848852868820919083601f1981168a5b8a88838310614db35750505010614d9a575b505050811b019055614d2c565b015160001960f88460031b161c19169055388080614d8d565b868601518855909601959485019487935001614d7b565b848852868820601f840160051c810191888510614e06575b601f0160051c019084905b828110614dfb575050614cff565b898155018490614ded565b9091508190614de2565b634e487b7160e01b87526041600452602487fd5b835162461bcd60e51b815260048101869052601a60248201527918dbdb5b5a5d1b595b9d081b5d5cdd081899481a5b881c185cdd60321b6044820152606490fd5b845162461bcd60e51b81526004810187905260176024820152761b9bdb88195e1a5cdd195b9d0818dbdb5b5a5d1b595b9d604a1b6044820152606490fd5b835162461bcd60e51b815260048101869052601a6024820152791cdbdb1d5d1a5bdb88185b1c9958591e481cdd589b5a5d1d195960321b6044820152606490fd5b825162461bcd60e51b81526004810185905260136024820152721d185cdac8191bd95cc81b9bdd08195e1a5cdd606a1b6044820152606490fd5b15614f2557565b60405162461bcd60e51b81526020600482015260126024820152716d696e207374616b656420746f6f206c6f7760701b6044820152606490fd5b60018060a01b03166000526077602052614f89604060002054607a602052604060002054906136d2565b614f91613746565b111590565b6000818152602090607b825260409182822054938483526076825283832054818452607b835260018585200154811161569f575b80615565575b614fe790828552607b8452600186862001546136d2565b94606e54670de0b6b3a7640000908103818111615551578161500c615013928a6136df565b04886136d2565b9661502088606854614882565b6068558461502e89836136d2565b6154d1575b5050608b54865163ebe2b12b60e01b81526001600160a01b039360049290919085169087818581855afa9081156152e0579088918a916154a2575b5042116153d9575b5050808752607686526002888820015490839085608d54169081615319575b505081151580615310575b6150fc575b5050505092607b600193836150f798966150ef98958552608383528585205490607d845286862054168552607783526150e2868620918254614882565b90558352522001546136d2565b6086546136d2565b608655565b6151209061511b6a0c097ce7bc90715b34b9f160251b9361511b614785565b6136df565b049161512e83608c54614882565b608c558261513d575b806150a5565b60705481038181116152fd578161515761515e92866136df565b04846136d2565b9060895481038181116152ea57876151ce886151b28d6151ad888f978c9b9a9961518d8f9e92615194936136df565b048c6136d2565b9b8c938160655416968a52607d8952892054169a6136d2565b6136d2565b8d5194858094819363a9059cbb60e01b9b8c84528b8401614845565b03925af180156152e057918891615203936152c3575b50866065541687606654168b8d518096819582948b84528a8401614845565b03925af180156152b957908793929161529c575b50846065541690868952607b8452888660028c8320015416936152458c519788968795869485528401614845565b03925af1801561529257936150ef96936150f7989693607b93600197615275575b50939698509396819550615137565b61528b90843d8611610bd157610bc28183613408565b5038615266565b86513d87823e3d90fd5b6152b290843d8611610bd157610bc28183613408565b5038615217565b89513d8a823e3d90fd5b6152d990833d8511610bd157610bc28183613408565b50386151e4565b8a513d8b823e3d90fd5b634e487b7160e01b895260118452602489fd5b634e487b7160e01b885260118352602488fd5b508015156150a0565b909150895163b65a78b560e01b815281858201528881602481865afa9081156153cf57908992918b916153b2575b50156153a95760248b5180948193637eca406f60e01b8352888301525afa9081156152b957889161537c575b505b3880615095565b90508681813d83116153a2575b6153938183613408565b81010312610423575138615373565b503d615389565b50505086615375565b6153c99150833d8511610bd157610bc28183613408565b38615347565b8b513d8c823e3d90fd5b615401918660655416608c54918b8d5180968195829463a9059cbb60e01b84528b8401614845565b03925af180156152b957615485575b5083608b5416608c54813b15615481578891602483928c519485938492633c6b16ab60e01b8452898401525af180156152b957615454575b5086608c553886615076565b9096906001600160401b03811161546e5788529538615448565b506041602492634e487b7160e01b835252fd5b8880fd5b61549b90873d8911610bd157610bc28183613408565b5038615410565b82819392503d83116154ca575b6154b98183613408565b81010312615481578790513861506e565b503d6154af565b6155159160018060a01b036154f88b826065541692898c52607d86528c8c205416936136d2565b91898b5180968195829463a9059cbb60e01b845260048401614845565b03925af180156155475761552a575b84615033565b61554090853d8711610bd157610bc28183613408565b5038615524565b87513d88823e3d90fd5b634e487b7160e01b86526011600452602486fd5b608e54670de0b6b3a764000090810381811161555157849161558a61559192856136df565b04836136d2565b80615630575b6155a181846136d2565b6155ad575b5050614fd0565b906155f59160018060a01b036155d88160655416918b8a526076855260018b8b2001541692866136d2565b91888a5180968195829463a9059cbb60e01b845260048401614845565b03925af180156152925790614fe79291615613575b849192506155a6565b61562990853d8711610bd157610bc28183613408565b503861560a565b606554606654885163a9059cbb60e01b815292939183916001600160a01b039182169183918b918391615669918a911660048401614845565b03925af180156155475790859291615682575b50615597565b61569890833d8511610bd157610bc28183613408565b503861567c565b5082614fca565b80546001600160e01b031660e09290921b6001600160e01b031916919091179055565b6000818152607e602052604090205460735461572b92916156f6919060a01c6001600160401b0316614882565b90600052608160205261572561571c604060002054608260205260406000205490614882565b608a54906136df565b90614882565b421190565b6000828152607e6020526040812054909291906001600160a01b03908116156157ed5761575c836156c9565b6157e457828452607f602052604084209116835260205260ff6040832054166157dd576077602052600160408320015480156157d5576074548082106157cc576157a5916136d2565b908252607e602052604082205460a01c6001600160401b0316106157c65790565b50600690565b50505050600590565b505050600490565b5050600390565b50505050600290565b50505050600190565b8054600160401b811015610eef57615813916001820181556134b1565b819291549060031b9160018060a01b03809116831b921b1916179055565b63ffffffff90811660001901919082116124ba57565b9062010000811161597a576001600160401b03906158668183166159e8565b60006159376040938451906158d160248360209a8b986158c28a8401966204010960e91b8852825193818d8501956158a28160238a01896134df565b87019160238301370191600360fb1b6023840152518093868401906134df565b01036004810185520183613408565b61592760216158e2898551166159e8565b9388519384916159188a840197600560f91b89526159098c825192839189890191016134df565b840191518093868401906134df565b01036001810184520182613408565b85519283928392519283916134df565b8101039060025afa1561597057600051815193609160f51b90850152602284015260228352606083019183831090831117610eef575290565b513d6000823e3d90fd5b60405162461bcd60e51b815260206004820152601f60248201527f4d617820636f6e74656e742073697a65206973203635353336206279746573006044820152606490fd5b6001600160401b039081169081146124ba5760010190565b9081518110156134c9570160200190565b600180825b607f6001600160401b03821611615ac557506001600160401b039182169080615a158361342b565b94615a236040519687613408565b838652601f19615a328561342b565b013660208801376000915b615a73575b505050600019018181116124ba5716615a6f607f60f81b615a6383856159d7565b511660001a91836159d7565b5390565b8482169084821015615abf57615ab891607f821660801760f81b6001600160f81b03191660001a90615aa590896159d7565b5360071c6001600160391b0316916159bf565b9082615a3d565b50615a42565b60071c6001600160391b031691615adb906159bf565b916159ed56fe7375626d6974536f6c7574696f6e20636f6f6c646f776e206166746572206c6f8be0079c531659141344cd1fd0a4f28419497f9722a3daafe3b4186f6b6457e0c3d3e0544c80e3bb83f62659259ae1574f72a91515ab3cae3dd75cf77e1b0aea1aa9e4be46e24e1f2e7eeb1613c01629213cd42965d2716e18531b63e552e411a26469706673582212204fc8486be73bc7808c9bf2f17da86d31f0f009c34642445437e0c8a01593de6364736f6c63430008130033",
  "linkReferences": {},
  "deployedLinkReferences": {}
}