{
  "_format": "hh-sol-artifact-1",
  "contractName": "V2_EngineV5",
  "sourceName": "contracts/V2_EngineV5.sol",
  "abi": [
    {
      "inputs": [],
      "stateMutability": "nonpayable",
      "type": "constructor"
    },
    {
      "inputs": [
        {
          "internalType": "uint256",
          "name": "x",
          "type": "uint256"
        },
        {
          "internalType": "uint256",
          "name": "y",
          "type": "uint256"
        }
      ],
      "name": "PRBMath_MulDiv18_Overflow",
      "type": "error"
    },
    {
      "inputs": [
        {
          "internalType": "uint256",
          "name": "x",
          "type": "uint256"
        },
        {
          "internalType": "uint256",
          "name": "y",
          "type": "uint256"
        },
        {
          "internalType": "uint256",
          "name": "denominator",
          "type": "uint256"
        }
      ],
      "name": "PRBMath_MulDiv_Overflow",
      "type": "error"
    },
    {
      "inputs": [],
      "name": "PRBMath_SD59x18_Abs_MinSD59x18",
      "type": "error"
    },
    {
      "inputs": [],
      "name": "PRBMath_SD59x18_Div_InputTooSmall",
      "type": "error"
    },
    {
      "inputs": [
        {
          "internalType": "SD59x18",
          "name": "x",
          "type": "int256"
        },
        {
          "internalType": "SD59x18",
          "name": "y",
          "type": "int256"
        }
      ],
      "name": "PRBMath_SD59x18_Div_Overflow",
      "type": "error"
    },
    {
      "inputs": [
        {
          "internalType": "SD59x18",
          "name": "x",
          "type": "int256"
        }
      ],
      "name": "PRBMath_SD59x18_Exp2_InputTooBig",
      "type": "error"
    },
    {
      "inputs": [],
      "name": "PRBMath_SD59x18_Mul_InputTooSmall",
      "type": "error"
    },
    {
      "inputs": [
        {
          "internalType": "SD59x18",
          "name": "x",
          "type": "int256"
        },
        {
          "internalType": "SD59x18",
          "name": "y",
          "type": "int256"
        }
      ],
      "name": "PRBMath_SD59x18_Mul_Overflow",
      "type": "error"
    },
    {
      "inputs": [
        {
          "internalType": "UD60x18",
          "name": "x",
          "type": "uint256"
        }
      ],
      "name": "PRBMath_UD60x18_Exp2_InputTooBig",
      "type": "error"
    },
    {
      "anonymous": false,
      "inputs": [
        {
          "indexed": true,
          "internalType": "address",
          "name": "addr",
          "type": "address"
        },
        {
          "indexed": true,
          "internalType": "bytes32",
          "name": "task",
          "type": "bytes32"
        }
      ],
      "name": "ContestationSubmitted",
      "type": "event"
    },
    {
      "anonymous": false,
      "inputs": [
        {
          "indexed": true,
          "internalType": "address",
          "name": "addr",
          "type": "address"
        },
        {
          "indexed": true,
          "internalType": "bytes32",
          "name": "task",
          "type": "bytes32"
        },
        {
          "indexed": false,
          "internalType": "bool",
          "name": "yea",
          "type": "bool"
        }
      ],
      "name": "ContestationVote",
      "type": "event"
    },
    {
      "anonymous": false,
      "inputs": [
        {
          "indexed": true,
          "internalType": "bytes32",
          "name": "id",
          "type": "bytes32"
        },
        {
          "indexed": true,
          "internalType": "uint32",
          "name": "start_idx",
          "type": "uint32"
        },
        {
          "indexed": false,
          "internalType": "uint32",
          "name": "end_idx",
          "type": "uint32"
        }
      ],
      "name": "ContestationVoteFinish",
      "type": "event"
    },
    {
      "anonymous": false,
      "inputs": [
        {
          "indexed": false,
          "internalType": "uint256",
          "name": "modelFee",
          "type": "uint256"
        },
        {
          "indexed": false,
          "internalType": "uint256",
          "name": "treasuryFee",
          "type": "uint256"
        },
        {
          "indexed": false,
          "internalType": "uint256",
          "name": "remainingFee",
          "type": "uint256"
        },
        {
          "indexed": false,
          "internalType": "uint256",
          "name": "validatorFee",
          "type": "uint256"
        }
      ],
      "name": "FeesPaid",
      "type": "event"
    },
    {
      "anonymous": false,
      "inputs": [
        {
          "indexed": false,
          "internalType": "uint8",
          "name": "version",
          "type": "uint8"
        }
      ],
      "name": "Initialized",
      "type": "event"
    },
    {
      "anonymous": false,
      "inputs": [
        {
          "indexed": true,
          "internalType": "bytes32",
          "name": "id",
          "type": "bytes32"
        },
        {
          "indexed": false,
          "internalType": "address",
          "name": "addr",
          "type": "address"
        }
      ],
      "name": "ModelAddrChanged",
      "type": "event"
    },
    {
      "anonymous": false,
      "inputs": [
        {
          "indexed": true,
          "internalType": "bytes32",
          "name": "id",
          "type": "bytes32"
        },
        {
          "indexed": false,
          "internalType": "uint256",
          "name": "fee",
          "type": "uint256"
        }
      ],
      "name": "ModelFeeChanged",
      "type": "event"
    },
    {
      "anonymous": false,
      "inputs": [
        {
          "indexed": true,
          "internalType": "bytes32",
          "name": "id",
          "type": "bytes32"
        }
      ],
      "name": "ModelRegistered",
      "type": "event"
    },
    {
      "anonymous": false,
      "inputs": [
        {
          "indexed": true,
          "internalType": "address",
          "name": "previousOwner",
          "type": "address"
        },
        {
          "indexed": true,
          "internalType": "address",
          "name": "newOwner",
          "type": "address"
        }
      ],
      "name": "OwnershipTransferred",
      "type": "event"
    },
    {
      "anonymous": false,
      "inputs": [
        {
          "indexed": true,
          "internalType": "bool",
          "name": "paused",
          "type": "bool"
        }
      ],
      "name": "PausedChanged",
      "type": "event"
    },
    {
      "anonymous": false,
      "inputs": [
        {
          "indexed": true,
          "internalType": "address",
          "name": "to",
          "type": "address"
        }
      ],
      "name": "PauserTransferred",
      "type": "event"
    },
    {
      "anonymous": false,
      "inputs": [
        {
          "indexed": false,
          "internalType": "uint256",
          "name": "totalRewards",
          "type": "uint256"
        },
        {
          "indexed": false,
          "internalType": "uint256",
          "name": "treasuryReward",
          "type": "uint256"
        },
        {
          "indexed": false,
          "internalType": "uint256",
          "name": "taskOwnerReward",
          "type": "uint256"
        },
        {
          "indexed": false,
          "internalType": "uint256",
          "name": "validatorReward",
          "type": "uint256"
        }
      ],
      "name": "RewardsPaid",
      "type": "event"
    },
    {
      "anonymous": false,
      "inputs": [
        {
          "indexed": true,
          "internalType": "address",
          "name": "addr",
          "type": "address"
        },
        {
          "indexed": true,
          "internalType": "bytes32",
          "name": "commitment",
          "type": "bytes32"
        }
      ],
      "name": "SignalCommitment",
      "type": "event"
    },
    {
      "anonymous": false,
      "inputs": [
        {
          "indexed": true,
          "internalType": "address",
          "name": "addr",
          "type": "address"
        },
        {
          "indexed": true,
          "internalType": "bytes32",
          "name": "task",
          "type": "bytes32"
        }
      ],
      "name": "SolutionClaimed",
      "type": "event"
    },
    {
      "anonymous": false,
      "inputs": [
        {
          "indexed": true,
          "internalType": "bytes32",
          "name": "id",
          "type": "bytes32"
        },
        {
          "indexed": false,
          "internalType": "uint256",
          "name": "rate",
          "type": "uint256"
        }
      ],
      "name": "SolutionMineableRateChange",
      "type": "event"
    },
    {
      "anonymous": false,
      "inputs": [
        {
          "indexed": true,
          "internalType": "address",
          "name": "addr",
          "type": "address"
        },
        {
          "indexed": true,
          "internalType": "bytes32",
          "name": "task",
          "type": "bytes32"
        }
      ],
      "name": "SolutionSubmitted",
      "type": "event"
    },
    {
      "anonymous": false,
      "inputs": [
        {
          "indexed": true,
          "internalType": "uint64",
          "name": "startBlockTime",
          "type": "uint64"
        }
      ],
      "name": "StartBlockTimeChanged",
      "type": "event"
    },
    {
      "anonymous": false,
      "inputs": [
        {
          "indexed": true,
          "internalType": "bytes32",
          "name": "id",
          "type": "bytes32"
        },
        {
          "indexed": true,
          "internalType": "bytes32",
          "name": "model",
          "type": "bytes32"
        },
        {
          "indexed": false,
          "internalType": "uint256",
          "name": "fee",
          "type": "uint256"
        },
        {
          "indexed": true,
          "internalType": "address",
          "name": "sender",
          "type": "address"
        }
      ],
      "name": "TaskSubmitted",
      "type": "event"
    },
    {
      "anonymous": false,
      "inputs": [
        {
          "indexed": true,
          "internalType": "address",
          "name": "to",
          "type": "address"
        }
      ],
      "name": "TreasuryTransferred",
      "type": "event"
    },
    {
      "anonymous": false,
      "inputs": [
        {
          "indexed": true,
          "internalType": "address",
          "name": "addr",
          "type": "address"
        },
        {
          "indexed": true,
          "internalType": "address",
          "name": "validator",
          "type": "address"
        },
        {
          "indexed": false,
          "internalType": "uint256",
          "name": "amount",
          "type": "uint256"
        }
      ],
      "name": "ValidatorDeposit",
      "type": "event"
    },
    {
      "anonymous": false,
      "inputs": [
        {
          "indexed": true,
          "internalType": "address",
          "name": "addr",
          "type": "address"
        },
        {
          "indexed": true,
          "internalType": "address",
          "name": "to",
          "type": "address"
        },
        {
          "indexed": true,
          "internalType": "uint256",
          "name": "count",
          "type": "uint256"
        },
        {
          "indexed": false,
          "internalType": "uint256",
          "name": "amount",
          "type": "uint256"
        }
      ],
      "name": "ValidatorWithdraw",
      "type": "event"
    },
    {
      "anonymous": false,
      "inputs": [
        {
          "indexed": true,
          "internalType": "address",
          "name": "addr",
          "type": "address"
        },
        {
          "indexed": true,
          "internalType": "uint256",
          "name": "count",
          "type": "uint256"
        }
      ],
      "name": "ValidatorWithdrawCancelled",
      "type": "event"
    },
    {
      "anonymous": false,
      "inputs": [
        {
          "indexed": true,
          "internalType": "address",
          "name": "addr",
          "type": "address"
        },
        {
          "indexed": true,
          "internalType": "uint256",
          "name": "count",
          "type": "uint256"
        },
        {
          "indexed": false,
          "internalType": "uint256",
          "name": "unlockTime",
          "type": "uint256"
        },
        {
          "indexed": false,
          "internalType": "uint256",
          "name": "amount",
          "type": "uint256"
        }
      ],
      "name": "ValidatorWithdrawInitiated",
      "type": "event"
    },
    {
      "anonymous": false,
      "inputs": [
        {
          "indexed": false,
          "internalType": "uint256",
          "name": "version",
          "type": "uint256"
        }
      ],
      "name": "VersionChanged",
      "type": "event"
    },
    {
      "inputs": [],
      "name": "accruedFees",
      "outputs": [
        {
          "internalType": "uint256",
          "name": "",
          "type": "uint256"
        }
      ],
      "stateMutability": "view",
      "type": "function"
    },
    {
      "inputs": [],
      "name": "baseToken",
      "outputs": [
        {
          "internalType": "contract IBaseToken",
          "name": "",
          "type": "address"
        }
      ],
      "stateMutability": "view",
      "type": "function"
    },
    {
      "inputs": [
        {
          "internalType": "bytes32[]",
          "name": "taskids_",
          "type": "bytes32[]"
        },
        {
          "internalType": "bytes[]",
          "name": "cids_",
          "type": "bytes[]"
        }
      ],
      "name": "bulkSubmitSolution",
      "outputs": [],
      "stateMutability": "nonpayable",
      "type": "function"
    },
    {
      "inputs": [
        {
          "internalType": "uint8",
          "name": "version_",
          "type": "uint8"
        },
        {
          "internalType": "address",
          "name": "owner_",
          "type": "address"
        },
        {
          "internalType": "bytes32",
          "name": "model_",
          "type": "bytes32"
        },
        {
          "internalType": "uint256",
          "name": "fee_",
          "type": "uint256"
        },
        {
          "internalType": "bytes",
          "name": "input_",
          "type": "bytes"
        },
        {
          "internalType": "uint256",
          "name": "n_",
          "type": "uint256"
        }
      ],
      "name": "bulkSubmitTask",
      "outputs": [],
      "stateMutability": "nonpayable",
      "type": "function"
    },
    {
      "inputs": [
        {
          "internalType": "uint256",
          "name": "count_",
          "type": "uint256"
        }
      ],
      "name": "cancelValidatorWithdraw",
      "outputs": [],
      "stateMutability": "nonpayable",
      "type": "function"
    },
    {
      "inputs": [
        {
          "internalType": "bytes32",
          "name": "taskid_",
          "type": "bytes32"
        }
      ],
      "name": "claimSolution",
      "outputs": [],
      "stateMutability": "nonpayable",
      "type": "function"
    },
    {
      "inputs": [
        {
          "internalType": "bytes32",
          "name": "",
          "type": "bytes32"
        }
      ],
      "name": "commitments",
      "outputs": [
        {
          "internalType": "uint256",
          "name": "",
          "type": "uint256"
        }
      ],
      "stateMutability": "view",
      "type": "function"
    },
    {
      "inputs": [],
      "name": "contestationVoteExtensionTime",
      "outputs": [
        {
          "internalType": "uint256",
          "name": "",
          "type": "uint256"
        }
      ],
      "stateMutability": "view",
      "type": "function"
    },
    {
      "inputs": [
        {
          "internalType": "bytes32",
          "name": "taskid_",
          "type": "bytes32"
        },
        {
          "internalType": "uint32",
          "name": "amnt_",
          "type": "uint32"
        }
      ],
      "name": "contestationVoteFinish",
      "outputs": [],
      "stateMutability": "nonpayable",
      "type": "function"
    },
    {
      "inputs": [
        {
          "internalType": "bytes32",
          "name": "",
          "type": "bytes32"
        },
        {
          "internalType": "uint256",
          "name": "",
          "type": "uint256"
        }
      ],
      "name": "contestationVoteNays",
      "outputs": [
        {
          "internalType": "address",
          "name": "",
          "type": "address"
        }
      ],
      "stateMutability": "view",
      "type": "function"
    },
    {
      "inputs": [
        {
          "internalType": "bytes32",
          "name": "",
          "type": "bytes32"
        },
        {
          "internalType": "uint256",
          "name": "",
          "type": "uint256"
        }
      ],
      "name": "contestationVoteYeas",
      "outputs": [
        {
          "internalType": "address",
          "name": "",
          "type": "address"
        }
      ],
      "stateMutability": "view",
      "type": "function"
    },
    {
      "inputs": [
        {
          "internalType": "bytes32",
          "name": "",
          "type": "bytes32"
        },
        {
          "internalType": "address",
          "name": "",
          "type": "address"
        }
      ],
      "name": "contestationVoted",
      "outputs": [
        {
          "internalType": "bool",
          "name": "",
          "type": "bool"
        }
      ],
      "stateMutability": "view",
      "type": "function"
    },
    {
      "inputs": [
        {
          "internalType": "bytes32",
          "name": "",
          "type": "bytes32"
        }
      ],
      "name": "contestationVotedIndex",
      "outputs": [
        {
          "internalType": "uint256",
          "name": "",
          "type": "uint256"
        }
      ],
      "stateMutability": "view",
      "type": "function"
    },
    {
      "inputs": [
        {
          "internalType": "bytes32",
          "name": "",
          "type": "bytes32"
        }
      ],
      "name": "contestations",
      "outputs": [
        {
          "internalType": "address",
          "name": "validator",
          "type": "address"
        },
        {
          "internalType": "uint64",
          "name": "blocktime",
          "type": "uint64"
        },
        {
          "internalType": "uint32",
          "name": "finish_start_index",
          "type": "uint32"
        },
        {
          "internalType": "uint256",
          "name": "slashAmount",
          "type": "uint256"
        }
      ],
      "stateMutability": "view",
      "type": "function"
    },
    {
      "inputs": [
        {
          "internalType": "uint256",
          "name": "t",
          "type": "uint256"
        },
        {
          "internalType": "uint256",
          "name": "ts",
          "type": "uint256"
        }
      ],
      "name": "diffMul",
      "outputs": [
        {
          "internalType": "uint256",
          "name": "",
          "type": "uint256"
        }
      ],
      "stateMutability": "pure",
      "type": "function"
    },
    {
      "inputs": [],
      "name": "exitValidatorMinUnlockTime",
      "outputs": [
        {
          "internalType": "uint256",
          "name": "",
          "type": "uint256"
        }
      ],
      "stateMutability": "view",
      "type": "function"
    },
    {
      "inputs": [
        {
          "internalType": "address",
          "name": "sender_",
          "type": "address"
        },
        {
          "internalType": "bytes32",
          "name": "taskid_",
          "type": "bytes32"
        },
        {
          "internalType": "bytes",
          "name": "cid_",
          "type": "bytes"
        }
      ],
      "name": "generateCommitment",
      "outputs": [
        {
          "internalType": "bytes32",
          "name": "",
          "type": "bytes32"
        }
      ],
      "stateMutability": "pure",
      "type": "function"
    },
    {
      "inputs": [
        {
          "internalType": "bytes",
          "name": "content_",
          "type": "bytes"
        }
      ],
      "name": "generateIPFSCID",
      "outputs": [
        {
          "internalType": "bytes",
          "name": "",
          "type": "bytes"
        }
      ],
      "stateMutability": "pure",
      "type": "function"
    },
    {
      "inputs": [],
      "name": "getPsuedoTotalSupply",
      "outputs": [
        {
          "internalType": "uint256",
          "name": "",
          "type": "uint256"
        }
      ],
      "stateMutability": "view",
      "type": "function"
    },
    {
      "inputs": [],
      "name": "getReward",
      "outputs": [
        {
          "internalType": "uint256",
          "name": "",
          "type": "uint256"
        }
      ],
      "stateMutability": "view",
      "type": "function"
    },
    {
      "inputs": [],
      "name": "getSlashAmount",
      "outputs": [
        {
          "internalType": "uint256",
          "name": "",
          "type": "uint256"
        }
      ],
      "stateMutability": "view",
      "type": "function"
    },
    {
      "inputs": [],
      "name": "getValidatorMinimum",
      "outputs": [
        {
          "internalType": "uint256",
          "name": "",
          "type": "uint256"
        }
      ],
      "stateMutability": "view",
      "type": "function"
    },
    {
      "inputs": [
        {
          "components": [
            {
              "internalType": "uint256",
              "name": "fee",
              "type": "uint256"
            },
            {
              "internalType": "address",
              "name": "addr",
              "type": "address"
            },
            {
              "internalType": "uint256",
              "name": "rate",
              "type": "uint256"
            },
            {
              "internalType": "bytes",
              "name": "cid",
              "type": "bytes"
            }
          ],
          "internalType": "struct Model",
          "name": "o_",
          "type": "tuple"
        },
        {
          "internalType": "address",
          "name": "sender_",
          "type": "address"
        }
      ],
      "name": "hashModel",
      "outputs": [
        {
          "internalType": "bytes32",
          "name": "",
          "type": "bytes32"
        }
      ],
      "stateMutability": "pure",
      "type": "function"
    },
    {
      "inputs": [
        {
          "components": [
            {
              "internalType": "bytes32",
              "name": "model",
              "type": "bytes32"
            },
            {
              "internalType": "uint256",
              "name": "fee",
              "type": "uint256"
            },
            {
              "internalType": "address",
              "name": "owner",
              "type": "address"
            },
            {
              "internalType": "uint64",
              "name": "blocktime",
              "type": "uint64"
            },
            {
              "internalType": "uint8",
              "name": "version",
              "type": "uint8"
            },
            {
              "internalType": "bytes",
              "name": "cid",
              "type": "bytes"
            }
          ],
          "internalType": "struct Task",
          "name": "o_",
          "type": "tuple"
        },
        {
          "internalType": "address",
          "name": "sender_",
          "type": "address"
        },
        {
          "internalType": "bytes32",
          "name": "prevhash_",
          "type": "bytes32"
        }
      ],
      "name": "hashTask",
      "outputs": [
        {
          "internalType": "bytes32",
          "name": "",
          "type": "bytes32"
        }
      ],
      "stateMutability": "pure",
      "type": "function"
    },
    {
      "inputs": [],
      "name": "initialize",
      "outputs": [],
      "stateMutability": "nonpayable",
      "type": "function"
    },
    {
      "inputs": [
        {
          "internalType": "uint256",
          "name": "amount_",
          "type": "uint256"
        }
      ],
      "name": "initiateValidatorWithdraw",
      "outputs": [
        {
          "internalType": "uint256",
          "name": "",
          "type": "uint256"
        }
      ],
      "stateMutability": "nonpayable",
      "type": "function"
    },
    {
      "inputs": [
        {
          "internalType": "address",
          "name": "",
          "type": "address"
        }
      ],
      "name": "lastContestationLossTime",
      "outputs": [
        {
          "internalType": "uint256",
          "name": "",
          "type": "uint256"
        }
      ],
      "stateMutability": "view",
      "type": "function"
    },
    {
      "inputs": [
        {
          "internalType": "address",
          "name": "",
          "type": "address"
        }
      ],
      "name": "lastSolutionSubmission",
      "outputs": [
        {
          "internalType": "uint256",
          "name": "",
          "type": "uint256"
        }
      ],
      "stateMutability": "view",
      "type": "function"
    },
    {
      "inputs": [],
      "name": "maxContestationValidatorStakeSince",
      "outputs": [
        {
          "internalType": "uint256",
          "name": "",
          "type": "uint256"
        }
      ],
      "stateMutability": "view",
      "type": "function"
    },
    {
      "inputs": [],
      "name": "minClaimSolutionTime",
      "outputs": [
        {
          "internalType": "uint256",
          "name": "",
          "type": "uint256"
        }
      ],
      "stateMutability": "view",
      "type": "function"
    },
    {
      "inputs": [],
      "name": "minContestationVotePeriodTime",
      "outputs": [
        {
          "internalType": "uint256",
          "name": "",
          "type": "uint256"
        }
      ],
      "stateMutability": "view",
      "type": "function"
    },
    {
      "inputs": [],
      "name": "minRetractionWaitTime",
      "outputs": [
        {
          "internalType": "uint256",
          "name": "",
          "type": "uint256"
        }
      ],
      "stateMutability": "view",
      "type": "function"
    },
    {
      "inputs": [
        {
          "internalType": "bytes32",
          "name": "",
          "type": "bytes32"
        }
      ],
      "name": "models",
      "outputs": [
        {
          "internalType": "uint256",
          "name": "fee",
          "type": "uint256"
        },
        {
          "internalType": "address",
          "name": "addr",
          "type": "address"
        },
        {
          "internalType": "uint256",
          "name": "rate",
          "type": "uint256"
        },
        {
          "internalType": "bytes",
          "name": "cid",
          "type": "bytes"
        }
      ],
      "stateMutability": "view",
      "type": "function"
    },
    {
      "inputs": [],
      "name": "owner",
      "outputs": [
        {
          "internalType": "address",
          "name": "",
          "type": "address"
        }
      ],
      "stateMutability": "view",
      "type": "function"
    },
    {
      "inputs": [],
      "name": "paused",
      "outputs": [
        {
          "internalType": "bool",
          "name": "",
          "type": "bool"
        }
      ],
      "stateMutability": "view",
      "type": "function"
    },
    {
      "inputs": [],
      "name": "pauser",
      "outputs": [
        {
          "internalType": "address",
          "name": "",
          "type": "address"
        }
      ],
      "stateMutability": "view",
      "type": "function"
    },
    {
      "inputs": [
        {
          "internalType": "address",
          "name": "",
          "type": "address"
        },
        {
          "internalType": "uint256",
          "name": "",
          "type": "uint256"
        }
      ],
      "name": "pendingValidatorWithdrawRequests",
      "outputs": [
        {
          "internalType": "uint256",
          "name": "unlockTime",
          "type": "uint256"
        },
        {
          "internalType": "uint256",
          "name": "amount",
          "type": "uint256"
        }
      ],
      "stateMutability": "view",
      "type": "function"
    },
    {
      "inputs": [
        {
          "internalType": "address",
          "name": "",
          "type": "address"
        }
      ],
      "name": "pendingValidatorWithdrawRequestsCount",
      "outputs": [
        {
          "internalType": "uint256",
          "name": "",
          "type": "uint256"
        }
      ],
      "stateMutability": "view",
      "type": "function"
    },
    {
      "inputs": [],
      "name": "prevhash",
      "outputs": [
        {
          "internalType": "bytes32",
          "name": "",
          "type": "bytes32"
        }
      ],
      "stateMutability": "view",
      "type": "function"
    },
    {
      "inputs": [
        {
          "internalType": "address",
          "name": "addr_",
          "type": "address"
        },
        {
          "internalType": "uint256",
          "name": "fee_",
          "type": "uint256"
        },
        {
          "internalType": "bytes",
          "name": "template_",
          "type": "bytes"
        }
      ],
      "name": "registerModel",
      "outputs": [
        {
          "internalType": "bytes32",
          "name": "",
          "type": "bytes32"
        }
      ],
      "stateMutability": "nonpayable",
      "type": "function"
    },
    {
      "inputs": [],
      "name": "renounceOwnership",
      "outputs": [],
      "stateMutability": "nonpayable",
      "type": "function"
    },
    {
      "inputs": [],
      "name": "retractionFeePercentage",
      "outputs": [
        {
          "internalType": "uint256",
          "name": "",
          "type": "uint256"
        }
      ],
      "stateMutability": "view",
      "type": "function"
    },
    {
      "inputs": [
        {
          "internalType": "uint256",
          "name": "t",
          "type": "uint256"
        },
        {
          "internalType": "uint256",
          "name": "ts",
          "type": "uint256"
        }
      ],
      "name": "reward",
      "outputs": [
        {
          "internalType": "uint256",
          "name": "",
          "type": "uint256"
        }
      ],
      "stateMutability": "pure",
      "type": "function"
    },
    {
      "inputs": [
        {
          "internalType": "bytes32",
          "name": "model_",
          "type": "bytes32"
        },
        {
          "internalType": "address",
          "name": "addr_",
          "type": "address"
        }
      ],
      "name": "setModelAddr",
      "outputs": [],
      "stateMutability": "nonpayable",
      "type": "function"
    },
    {
      "inputs": [
        {
          "internalType": "bytes32",
          "name": "model_",
          "type": "bytes32"
        },
        {
          "internalType": "uint256",
          "name": "fee_",
          "type": "uint256"
        }
      ],
      "name": "setModelFee",
      "outputs": [],
      "stateMutability": "nonpayable",
      "type": "function"
    },
    {
      "inputs": [
        {
          "internalType": "bool",
          "name": "paused_",
          "type": "bool"
        }
      ],
      "name": "setPaused",
      "outputs": [],
      "stateMutability": "nonpayable",
      "type": "function"
    },
    {
      "inputs": [
        {
          "internalType": "bytes32",
          "name": "model_",
          "type": "bytes32"
        },
        {
          "internalType": "uint256",
          "name": "rate_",
          "type": "uint256"
        }
      ],
      "name": "setSolutionMineableRate",
      "outputs": [],
      "stateMutability": "nonpayable",
      "type": "function"
    },
    {
      "inputs": [
        {
          "internalType": "uint256",
          "name": "solutionModelFeePercentage_",
          "type": "uint256"
        }
      ],
      "name": "setSolutionModelFeePercentage",
      "outputs": [],
      "stateMutability": "nonpayable",
      "type": "function"
    },
    {
      "inputs": [
        {
          "internalType": "uint64",
          "name": "startBlockTime_",
          "type": "uint64"
        }
      ],
      "name": "setStartBlockTime",
      "outputs": [],
      "stateMutability": "nonpayable",
      "type": "function"
    },
    {
      "inputs": [
        {
          "internalType": "address",
          "name": "veStaking_",
          "type": "address"
        }
      ],
      "name": "setVeStaking",
      "outputs": [],
      "stateMutability": "nonpayable",
      "type": "function"
    },
    {
      "inputs": [
        {
          "internalType": "uint256",
          "name": "version_",
          "type": "uint256"
        }
      ],
      "name": "setVersion",
      "outputs": [],
      "stateMutability": "nonpayable",
      "type": "function"
    },
    {
      "inputs": [
        {
          "internalType": "address",
          "name": "voter_",
          "type": "address"
        }
      ],
      "name": "setVoter",
      "outputs": [],
      "stateMutability": "nonpayable",
      "type": "function"
    },
    {
      "inputs": [
        {
          "internalType": "bytes32",
          "name": "commitment_",
          "type": "bytes32"
        }
      ],
      "name": "signalCommitment",
      "outputs": [],
      "stateMutability": "nonpayable",
      "type": "function"
    },
    {
      "inputs": [],
      "name": "slashAmountPercentage",
      "outputs": [
        {
          "internalType": "uint256",
          "name": "",
          "type": "uint256"
        }
      ],
      "stateMutability": "view",
      "type": "function"
    },
    {
      "inputs": [],
      "name": "solutionFeePercentage",
      "outputs": [
        {
          "internalType": "uint256",
          "name": "",
          "type": "uint256"
        }
      ],
      "stateMutability": "view",
      "type": "function"
    },
    {
      "inputs": [],
      "name": "solutionModelFeePercentage",
      "outputs": [
        {
          "internalType": "uint256",
          "name": "",
          "type": "uint256"
        }
      ],
      "stateMutability": "view",
      "type": "function"
    },
    {
      "inputs": [],
      "name": "solutionRateLimit",
      "outputs": [
        {
          "internalType": "uint256",
          "name": "",
          "type": "uint256"
        }
      ],
      "stateMutability": "view",
      "type": "function"
    },
    {
      "inputs": [
        {
          "internalType": "bytes32",
          "name": "",
          "type": "bytes32"
        }
      ],
      "name": "solutions",
      "outputs": [
        {
          "internalType": "address",
          "name": "validator",
          "type": "address"
        },
        {
          "internalType": "uint64",
          "name": "blocktime",
          "type": "uint64"
        },
        {
          "internalType": "bool",
          "name": "claimed",
          "type": "bool"
        },
        {
          "internalType": "bytes",
          "name": "cid",
          "type": "bytes"
        }
      ],
      "stateMutability": "view",
      "type": "function"
    },
    {
      "inputs": [
        {
          "internalType": "bytes32",
          "name": "",
          "type": "bytes32"
        }
      ],
      "name": "solutionsStake",
      "outputs": [
        {
          "internalType": "uint256",
          "name": "",
          "type": "uint256"
        }
      ],
      "stateMutability": "view",
      "type": "function"
    },
    {
      "inputs": [],
      "name": "solutionsStakeAmount",
      "outputs": [
        {
          "internalType": "uint256",
          "name": "",
          "type": "uint256"
        }
      ],
      "stateMutability": "view",
      "type": "function"
    },
    {
      "inputs": [],
      "name": "startBlockTime",
      "outputs": [
        {
          "internalType": "uint64",
          "name": "",
          "type": "uint64"
        }
      ],
      "stateMutability": "view",
      "type": "function"
    },
    {
      "inputs": [
        {
          "internalType": "bytes32",
          "name": "taskid_",
          "type": "bytes32"
        }
      ],
      "name": "submitContestation",
      "outputs": [],
      "stateMutability": "nonpayable",
      "type": "function"
    },
    {
      "inputs": [
        {
          "internalType": "bytes32",
          "name": "taskid_",
          "type": "bytes32"
        },
        {
          "internalType": "bytes",
          "name": "cid_",
          "type": "bytes"
        }
      ],
      "name": "submitSolution",
      "outputs": [],
      "stateMutability": "nonpayable",
      "type": "function"
    },
    {
      "inputs": [
        {
          "internalType": "uint8",
          "name": "version_",
          "type": "uint8"
        },
        {
          "internalType": "address",
          "name": "owner_",
          "type": "address"
        },
        {
          "internalType": "bytes32",
          "name": "model_",
          "type": "bytes32"
        },
        {
          "internalType": "uint256",
          "name": "fee_",
          "type": "uint256"
        },
        {
          "internalType": "bytes",
          "name": "input_",
          "type": "bytes"
        }
      ],
      "name": "submitTask",
      "outputs": [],
      "stateMutability": "nonpayable",
      "type": "function"
    },
    {
      "inputs": [
        {
          "internalType": "uint256",
          "name": "t",
          "type": "uint256"
        }
      ],
      "name": "targetTs",
      "outputs": [
        {
          "internalType": "uint256",
          "name": "",
          "type": "uint256"
        }
      ],
      "stateMutability": "pure",
      "type": "function"
    },
    {
      "inputs": [],
      "name": "taskOwnerRewardPercentage",
      "outputs": [
        {
          "internalType": "uint256",
          "name": "",
          "type": "uint256"
        }
      ],
      "stateMutability": "view",
      "type": "function"
    },
    {
      "inputs": [
        {
          "internalType": "bytes32",
          "name": "",
          "type": "bytes32"
        }
      ],
      "name": "tasks",
      "outputs": [
        {
          "internalType": "bytes32",
          "name": "model",
          "type": "bytes32"
        },
        {
          "internalType": "uint256",
          "name": "fee",
          "type": "uint256"
        },
        {
          "internalType": "address",
          "name": "owner",
          "type": "address"
        },
        {
          "internalType": "uint64",
          "name": "blocktime",
          "type": "uint64"
        },
        {
          "internalType": "uint8",
          "name": "version",
          "type": "uint8"
        },
        {
          "internalType": "bytes",
          "name": "cid",
          "type": "bytes"
        }
      ],
      "stateMutability": "view",
      "type": "function"
    },
    {
      "inputs": [],
      "name": "totalHeld",
      "outputs": [
        {
          "internalType": "uint256",
          "name": "",
          "type": "uint256"
        }
      ],
      "stateMutability": "view",
      "type": "function"
    },
    {
      "inputs": [
        {
          "internalType": "address",
          "name": "to_",
          "type": "address"
        }
      ],
      "name": "transferOwnership",
      "outputs": [],
      "stateMutability": "nonpayable",
      "type": "function"
    },
    {
      "inputs": [
        {
          "internalType": "address",
          "name": "to_",
          "type": "address"
        }
      ],
      "name": "transferPauser",
      "outputs": [],
      "stateMutability": "nonpayable",
      "type": "function"
    },
    {
      "inputs": [
        {
          "internalType": "address",
          "name": "to_",
          "type": "address"
        }
      ],
      "name": "transferTreasury",
      "outputs": [],
      "stateMutability": "nonpayable",
      "type": "function"
    },
    {
      "inputs": [],
      "name": "treasury",
      "outputs": [
        {
          "internalType": "address",
          "name": "",
          "type": "address"
        }
      ],
      "stateMutability": "view",
      "type": "function"
    },
    {
      "inputs": [],
      "name": "treasuryRewardPercentage",
      "outputs": [
        {
          "internalType": "uint256",
          "name": "",
          "type": "uint256"
        }
      ],
      "stateMutability": "view",
      "type": "function"
    },
    {
      "inputs": [
        {
          "internalType": "address",
          "name": "addr_",
          "type": "address"
        },
        {
          "internalType": "bytes32",
          "name": "taskid_",
          "type": "bytes32"
        }
      ],
      "name": "validatorCanVote",
      "outputs": [
        {
          "internalType": "uint256",
          "name": "",
          "type": "uint256"
        }
      ],
      "stateMutability": "view",
      "type": "function"
    },
    {
      "inputs": [
        {
          "internalType": "address",
          "name": "validator_",
          "type": "address"
        },
        {
          "internalType": "uint256",
          "name": "amount_",
          "type": "uint256"
        }
      ],
      "name": "validatorDeposit",
      "outputs": [],
      "stateMutability": "nonpayable",
      "type": "function"
    },
    {
      "inputs": [],
      "name": "validatorMinimumPercentage",
      "outputs": [
        {
          "internalType": "uint256",
          "name": "",
          "type": "uint256"
        }
      ],
      "stateMutability": "view",
      "type": "function"
    },
    {
      "inputs": [
        {
          "internalType": "uint256",
          "name": "count_",
          "type": "uint256"
        },
        {
          "internalType": "address",
          "name": "to_",
          "type": "address"
        }
      ],
      "name": "validatorWithdraw",
      "outputs": [],
      "stateMutability": "nonpayable",
      "type": "function"
    },
    {
      "inputs": [
        {
          "internalType": "address",
          "name": "",
          "type": "address"
        }
      ],
      "name": "validatorWithdrawPendingAmount",
      "outputs": [
        {
          "internalType": "uint256",
          "name": "",
          "type": "uint256"
        }
      ],
      "stateMutability": "view",
      "type": "function"
    },
    {
      "inputs": [
        {
          "internalType": "address",
          "name": "",
          "type": "address"
        }
      ],
      "name": "validators",
      "outputs": [
        {
          "internalType": "uint256",
          "name": "staked",
          "type": "uint256"
        },
        {
          "internalType": "uint256",
          "name": "since",
          "type": "uint256"
        },
        {
          "internalType": "address",
          "name": "addr",
          "type": "address"
        }
      ],
      "stateMutability": "view",
      "type": "function"
    },
    {
      "inputs": [],
      "name": "veRewards",
      "outputs": [
        {
          "internalType": "uint256",
          "name": "",
          "type": "uint256"
        }
      ],
      "stateMutability": "view",
      "type": "function"
    },
    {
      "inputs": [],
      "name": "veStaking",
      "outputs": [
        {
          "internalType": "address",
          "name": "",
          "type": "address"
        }
      ],
      "stateMutability": "view",
      "type": "function"
    },
    {
      "inputs": [],
      "name": "version",
      "outputs": [
        {
          "internalType": "uint256",
          "name": "",
          "type": "uint256"
        }
      ],
      "stateMutability": "view",
      "type": "function"
    },
    {
      "inputs": [
        {
          "internalType": "bytes32",
          "name": "taskid_",
          "type": "bytes32"
        },
        {
          "internalType": "bool",
          "name": "yea_",
          "type": "bool"
        }
      ],
      "name": "voteOnContestation",
      "outputs": [],
      "stateMutability": "nonpayable",
      "type": "function"
    },
    {
      "inputs": [],
      "name": "voter",
      "outputs": [
        {
          "internalType": "address",
          "name": "",
          "type": "address"
        }
      ],
      "stateMutability": "view",
      "type": "function"
    },
    {
      "inputs": [
        {
          "internalType": "bytes32",
          "name": "taskid_",
          "type": "bytes32"
        }
      ],
      "name": "votingPeriodEnded",
      "outputs": [
        {
          "internalType": "bool",
          "name": "",
          "type": "bool"
        }
      ],
      "stateMutability": "view",
      "type": "function"
    },
    {
      "inputs": [],
      "name": "withdrawAccruedFees",
      "outputs": [],
      "stateMutability": "nonpayable",
      "type": "function"
    }
  ],
  "bytecode": "0x60808060405234620000c6576000549060ff8260081c1662000074575060ff8082160362000038575b604051615c019081620000cc8239f35b60ff90811916176000557f7f26b83ff96e1f2b6a682f133852f6798a09c465da95921460cefb3847402498602060405160ff8152a13862000028565b62461bcd60e51b815260206004820152602760248201527f496e697469616c697a61626c653a20636f6e747261637420697320696e697469604482015266616c697a696e6760c81b6064820152608490fd5b600080fdfe608080604052600436101561001357600080fd5b60003560e01c908162fd70821461333f5750806305d1bc261461331757806308745dd11461320357806308afe0eb146130bb5780630a98573714612f8b5780630c18d4ce14612f625780630d468d9514612f445780631466b63a14612e8657806316c38b3c14612de657806317f3e04114612dba5780631825c20e14612c955780631b75c43e14612c5b5780631f88ea1c14612c42578063218a304814612bae578063218e685914612b745780632258d10514612b595780632943a49014612b16578063303fb0d614612ae5578063393cb1c714612a9d5780633d18b91214612a825780633d57f5d914612a6757806340418adc14612a49578063408def1e146129fd57806340e8c56d146129ad5780634421ea211461294657806346c96aac1461291d5780634bc2a657146128da5780634ff03efa14612675578063506ea7de146125c4578063514c24051461255957806354fd4d501461253b57806356914caf146123ac5780635c975abb1461238657806361d027b31461235d57806365d445fb1461216d578063671f815214611e2c578063682c205814611e0e578063715018a614611dc357806372dc0ee114611da557806375c7050914611d33578063763253bb14611b4057806377286d171461184a5780637881c5e61461182f5780637b36006a146118115780638129fc1c1461171757806382b5077f146116ee57806383657795146116c7578063839df9451461169b5780638b4d7b3514610fb65780638da5cb5b14610f8d5780638e6d86fd14610f6f5780639280944414610f5157806393a090ec14610d9f57806393f1f8ac14610d2357806396bb02c314610d055780639b97511914610ce75780639fd0506d14610cbe578063a1975adf14610ca0578063a2492a9014610c82578063a4fa8d5714610c69578063a53e252514610c4b578063a8f837f314610be4578063ada82c7d14610b23578063b4dc35b714610af7578063c17ddb2a14610ad9578063c1f7272314610abb578063c24b563114610a81578063c31784be14610a63578063c55dae6314610a3a578063cbd2422d14610970578063cf596e451461094a578063d1f0c94114610900578063d2307ae4146108c6578063d278094014610879578063d2992baa14610828578063d33b2ef5146107cf578063d8a6021c14610768578063dafb4322146106b8578063dc06a89f1461069a578063e236f46b14610631578063e579f500146105a7578063f029ac3e1461051d578063f1b8989d146104ff578063f2fde38b14610446578063f43cc773146104285763fa52c7d8146103d057600080fd5b346104235760203660031901126104235760606001600160a01b03806103f4613380565b166000526077602052604060002080549160026001830154920154169060405192835260208301526040820152f35b600080fd5b34610423576000366003190112610423576020608654604051908152f35b346104235760203660031901126104235761045f613380565b610467613657565b61046f613657565b6001600160a01b039081169081156104ab57603380546001600160a01b03198116841790915516600080516020615b6c833981519152600080a3005b60405162461bcd60e51b815260206004820152602660248201527f4f776e61626c653a206e6577206f776e657220697320746865207a65726f206160448201526564647265737360d01b6064820152608490fd5b34610423576000366003190112610423576020606e54604051908152f35b346104235760207f5930669abd6e86dc60e9ac97eba465cc7616d921cbd528312d3dfb4c98f3867061054e366134bb565b600082815260768552604090206001015491939161058190336001600160a01b0391821614908115610599575b50613793565b836000526076825280604060002055604051908152a2005b90506033541633148661057b565b3461042357602036600319011261042357600435600052607b6020526040600020805461062d60018301549260ff6105e66003600284015493016135b1565b916040519586958652602086015260018060a01b038116604086015260018060401b038160a01c16606086015260e01c16608084015260c060a084015260c0830190613522565b0390f35b346104235760203660031901126104235760043560005260766020526040600020805461062d60018060a01b03600184015416926106766003600283015492016135b1565b90604051948594855260208501526040840152608060608401526080830190613522565b34610423576000366003190112610423576020606d54604051908152f35b34610423576040366003190112610423576004357feafdd1f0eea366f4be1889897ed391bb67f32c22bb7ba7d9d3db1888acfd7f6360206106f761336a565b60008481526076835260409020600101546001600160a01b03919082163314801561075b575b61072690613793565b166107328115156137d1565b60008481526076835260409081902060010180546001600160a01b0319168317905551908152a2005b506033548216331461071d565b3461042357602036600319011261042357610781613380565b610789613657565b606680546001600160a01b0319166001600160a01b039290921691821790557f6bdb9ceff405d990c9b60be9f719fbb80889d5f064e8fd76efd5bea353e90712600080a2005b3461042357602036600319011261042357600435600052607e60205260806040600020600181549101546040519160018060a01b038116835260018060401b038160a01c16602084015260e01c60408301526060820152f35b34610423576040366003190112610423576001600160a01b03610849613380565b16600052607960205260406000206024356000526020526040806000206001815491015482519182526020820152f35b346104235760403660031901126104235761089261336a565b600435600052607f60205260406000209060018060a01b0316600052602052602060ff604060002054166040519015158152f35b34610423576020366003190112610423576001600160a01b036108e7613380565b1660005260786020526020604060002054604051908152f35b346104235761090e366134bb565b9060005260816020526040600020805482101561042357602091610931916134d1565b905460405160039290921b1c6001600160a01b03168152f35b346104235760203660031901126104235760206109686004356138bc565b604051908152f35b3461042357602080600319360112610423576004359061099860ff60675460a01c1615614818565b3360005260798152604060002082600052815260406000206109d7604051916109c0836133d7565b8360018254928386520154930192835215156148af565b5133600052607a82526109f060406000209182546136f2565b90553360005260798152604060002090826000525260006001604082208281550155337ff9d5cfcdfe9803069225971ba315f4302add9b477c3441cc363bc38fdb065b90600080a3005b34610423576000366003190112610423576065546040516001600160a01b039091168152602090f35b34610423576000366003190112610423576020607054604051908152f35b34610423576020366003190112610423576001600160a01b03610aa2613380565b1660005260886020526020604060002054604051908152f35b34610423576000366003190112610423576020608954604051908152f35b34610423576000366003190112610423576020606954604051908152f35b346104235760203660031901126104235760043560005260836020526020604060002054604051908152f35b3461042357600036600319011261042357610b4660ff60675460a01c1615614818565b60655460665460685460405163a9059cbb60e01b81529260209284926001600160a01b039283169284926000928492610b83921660048401614865565b03925af18015610bd857610baa575b610ba06068546086546136f2565b6086556000606855005b610bca9060203d8111610bd1575b610bc28183613428565b81019061484d565b5080610b92565b503d610bb8565b6040513d6000823e3d90fd5b34610423576020366003190112610423576004356001600160401b0381169081900361042357610c12613657565b606a80546001600160401b031916821790557fa15d6b0930a82638ac4775bfd1b2e9f1e86be67e1bd3a09fa8a77a8f079769d7600080a2005b34610423576000366003190112610423576020607554604051908152f35b34610423576020610968610c7c366134bb565b90614697565b34610423576000366003190112610423576020608a54604051908152f35b34610423576000366003190112610423576020608754604051908152f35b34610423576000366003190112610423576067546040516001600160a01b039091168152602090f35b34610423576000366003190112610423576020608454604051908152f35b34610423576000366003190112610423576020606c54604051908152f35b346104235760207f0321e8a918b4c47bf3677852c070983825f30a47bc8d9416691454fa6a727d63610d54366134bb565b610d5f939193613657565b6000848152607683526040902060010154610d84906001600160a01b031615156136af565b836000526076825280600260406000200155604051908152a2005b3461042357604036600319011261042357610db8613380565b602435610dcd60ff60675460a01c1615614818565b6065546040516323b872dd60e01b81526001600160a01b03916020919082908290851681600081610e038a303360048501614880565b03925af18015610bd857610f34575b50610e1f836086546148a2565b60865581610e2b613766565b94169384600052607782526040600020548482821115610f05575b50505083600052607781526040600020610e6684600183015492546148a2565b60405190939060608101906001600160401b03821181831017610eef577f8d4844488c19a90828439e71d14ebad860806d04f8ef8b25a82179fab2699b89956002926040528152848101938452604081019388855288600052607786526040600020915182555160018201550191511660018060a01b03198254161790556040519283523392a3005b634e487b7160e01b600052604160045260246000fd5b610f0e916148a2565b1015610f1d575b848084610e46565b836000526077815242600160406000200155610f15565b610f4a90823d8411610bd157610bc28183613428565b5084610e12565b34610423576000366003190112610423576020607154604051908152f35b34610423576000366003190112610423576020607454604051908152f35b34610423576000366003190112610423576033546040516001600160a01b039091168152602090f35b34610423576040366003190112610423576024803563ffffffff811680910361042357610feb60ff60675460a01c1615614818565b6004356000908152607e60205260409020546001600160a01b03161561165a57611016600435615713565b1561161c5780156115e757600435600052608160205263ffffffff6040600020541691608260205263ffffffff60406000205416607e60205260406000205460e01c9363ffffffff848601116115d257600435600052607e602052600160406000200154918082116000146113f3578261108f916136ff565b6001821480156113de578182915b156113b757505060005b865b63ffffffff878901168110611259575050505050600435600052607e60205260406000205460e01c1561112c575b505b600435600052607e6020526110f481830160406000206156f0565b63ffffffff6040519183011681527f71d8c71303e35a39162e33a402c9897bf9848388537bac7d5e1b0d202eca4e66602060043592a3005b611176602060018060a01b0360655416607b82526040600020906001808060a01b0360028401541692015491600060405180968195829463a9059cbb60e01b845260048401614865565b03925af18015610bd85761123a575b50600435600052607b6020526111a56001604060002001546086546136f2565b6086556004356000526083602052604060002054906081602052604060002090815415611226575060005260018060a01b036020600020541660005260776020526111f660406000209182546148a2565b9055600435600052607d60205260018060a01b0360406000205416600052608560205242604060002055826110d7565b634e487b7160e01b60009081526032600452fd5b6112529060203d602011610bd157610bc28183613428565b5083611185565b8084849210611272575b61126d9150614b67565b6110a9565b600435600052608160205261128b8160406000206134d1565b60018060a01b0391549060031b1c1680600052607760205260406000206112b38882546148a2565b9055838261133d575060655460405163a9059cbb60e01b81529360209285926001600160a01b031691839160009183916112f1919060048401614865565b03925af1918215610bd85761126d9261131e575b5060866113138582546136f2565b90555b839150611263565b6113369060203d602011610bd157610bc28183613428565b5089611305565b61136f935060209160018060a01b036065541690600060405180978195829463a9059cbb60e01b845260048401614865565b03925af1918215610bd85761126d92611398575b5060866113918482546136f2565b9055611316565b6113b09060203d602011610bd157610bc28183613428565b5089611383565b6113d9916113c4916136f2565b63ffffffff6113d28561587b565b1690613712565b6110a7565b6113eb8260011c836136f2565b91829161109d565b91809350611400916136ff565b6001821480156115c6578182915b156115b457505060005b855b63ffffffff868801168110611456575050505050600435600052607e60205260406000205460e01c6110d957611451600435614fd2565b6110d9565b808484921061146f575b61146a9150614b67565b61141a565b60043560005260826020526114888160406000206134d1565b60018060a01b0391549060031b1c1680600052607760205260406000206114b08882546148a2565b9055838261153a575060655460405163a9059cbb60e01b81529360209285926001600160a01b031691839160009183916114ee919060048401614865565b03925af1918215610bd85761146a9261151b575b5060866115108582546136f2565b90555b839150611460565b6115339060203d602011610bd157610bc28183613428565b5088611502565b61156c935060209160018060a01b036065541690600060405180978195829463a9059cbb60e01b845260048401614865565b03925af1918215610bd85761146a92611595575b50608661158e8482546136f2565b9055611513565b6115ad9060203d602011610bd157610bc28183613428565b5088611580565b6115c1916113c4916136f2565b611418565b8160011c91829161140e565b82634e487b7160e01b60005260116004526000fd5b60405162461bcd60e51b815260206004820152600e818401526d185b5b9d081d1bdbc81cdb585b1b60921b6044820152606490fd5b60405162461bcd60e51b815260206004820152601781840152761d9bdd1a5b99c81c195c9a5bd9081b9bdd08195b991959604a1b6044820152606490fd5b60405162461bcd60e51b815260206004820152601a818401527918dbdb9d195cdd185d1a5bdb88191bd95cdb89dd08195e1a5cdd60321b6044820152606490fd5b3461042357602036600319011261042357600435600052607c6020526020604060002054604051908152f35b346104235760403660031901126104235760206109686116e5613380565b6024359061577a565b3461042357600036600319011261042357608b546040516001600160a01b039091168152602090f35b346104235760003660031901126104235760005460ff8160081c161580611804575b156117a8576006906005606b55670de0b6b3a7640000608e55660886c98b760000606c556509184e72a000606d5566038d7ea4c6800060845561ffff1916176000557f7f26b83ff96e1f2b6a682f133852f6798a09c465da95921460cefb3847402498602060405160068152a1005b60405162461bcd60e51b815260206004820152602e60248201527f496e697469616c697a61626c653a20636f6e747261637420697320616c72656160448201526d191e481a5b9a5d1a585b1a5e995960921b6064820152608490fd5b50600660ff821610611739565b34610423576000366003190112610423576020607354604051908152f35b346104235760003660031901126104235760206109686146f5565b34610423576020806003193601126104235760043561187160ff60675460a01c1615614818565b6000818152607d8084526040808320546001600160a01b03908116845260778652818420548585528387528285205482168552607a875291909320546118b6916136f2565b6118be613766565b11611afc5782600052808452816040600020541615611ac25782600052607e84528160406000205416611a8a5760008381528185526040902054607154906001600160401b039060a01c811661191483426136f2565b1115611a52578460005282865261194c61194360406000205493868516600052608589526040600020546148a2565b607354906148a2565b9160a01c1611156119f6578260005280845260ff60406000205460e01c166119bf579082916119bd9483600052526040600020805490600160e01b60ff60e01b198316179055167f0b76b4ae356796814d36b46f7c500bbd27b2cce1e6059a6fa2bebfd5a389b190600080a3614fd2565b005b60405162461bcd60e51b815260048101859052600f60248201526e185b1c9958591e4818db185a5b5959608a1b6044820152606490fd5b60405162461bcd60e51b815260048101859052602e60248201527f636c61696d536f6c7574696f6e20636f6f6c646f776e206166746572206c6f7360448201526d3a1031b7b73a32b9ba30ba34b7b760911b6064820152608490fd5b60405162461bcd60e51b815260048101879052601060248201526f6e6f7420656e6f7567682064656c617960801b6044820152606490fd5b60405162461bcd60e51b815260048101859052601060248201526f3430b99031b7b73a32b9ba30ba34b7b760811b6044820152606490fd5b60405162461bcd60e51b81526004810185905260126024820152711cdbdb1d5d1a5bdb881b9bdd08199bdd5b9960721b6044820152606490fd5b60405162461bcd60e51b815260048101859052601c60248201527b76616c696461746f72206d696e207374616b656420746f6f206c6f7760201b6044820152606490fd5b3461042357604036600319011261042357600435611b5c61336a565b611b6e60ff60675460a01c1615614818565b336000526020906079825260406000208360005282526040600020604051611b95816133d7565b611bb0600183549384845201549285830193845215156148af565b514210611d00573360005260778352604060002054815111611cc65760009060018060a01b039084611bff8360655416835160405196878094819363a9059cbb60e01b83528b60048401614865565b03925af1928315610bd8577f109aeff667601aad33abcb7c5df1617754eefd18253d586a95c198cb479b5bd493611ca9575b5080513360005260778652611c4c60406000209182546136f2565b9055611c5b81516086546136f2565b608655805133600052607a8652611c7860406000209182546136f2565b90553360005260798552604060002086600052855260006001604082208281550155519260405193845216923392a4005b611cbf90863d8811610bd157610bc28183613428565b5086611c31565b60405162461bcd60e51b81526004810184905260126024820152711cdd185ad9481a5b9cdd59999a58da595b9d60721b6044820152606490fd5b60405162461bcd60e51b815260048101849052600b60248201526a3bb0b4ba103637b733b2b960a91b6044820152606490fd5b3461042357602036600319011261042357600435600052607d60205260ff604060002061062d611d676001835493016135b1565b60405193849360018060a01b038116855260018060401b038160a01c16602086015260e01c1615156040840152608060608401526080830190613522565b34610423576000366003190112610423576020606f54604051908152f35b3461042357600036600319011261042357611ddc613657565b603380546001600160a01b031981169091556000906001600160a01b0316600080516020615b6c8339815191528280a3005b34610423576000366003190112610423576020606854604051908152f35b34610423576020806003193601126104235760043590611e5460ff60675460a01c1615614818565b611e65611e6033614f7f565b614f3e565b6000828152607d825260409020546001600160a01b03919082161561212f5782600052607e815281604060002054166120ed576000838152607d825260409020546071546001600160401b039291611ec2919060a01c84166148a2565b4210156120be5783600052607d815260ff60406000205460e01c1661209457611ee9613732565b9160405190611ef78261340d565b338252611f4e63ffffffff848401928042168452611f4660408601916000835260608701958987528b600052607e89528a604060002098511660018060a01b0319895416178855511686614936565b5116836156f0565b5160018092015584337f6958c989e915d3e41a35076e3c480363910055408055ad86ae1ee13d41c40640600080a3607f8252604060002033600052825260406000209360ff199482868254161790558560005260818352611fb3336040600020615840565b85600052607e835281604060002001543360005260778452611fdb60406000209182546136f2565b90556040519382855286600080516020615bac8339815191529586863392a386600052607d8452816040600020541660005260778452604060002054101561201f57005b85600052607d83526040600020541693607f83526040600020856000528352816040600020918254161790558460005260828252612061846040600020615840565b84600052607e825260406000200154836000526077825261208860406000209182546136f2565b905560405160008152a3005b6064906040519062461bcd60e51b8252600482015260036024820152623bba3360e91b6044820152fd5b6064906040519062461bcd60e51b825260048201526008602482015267746f6f206c61746560c01b6044820152fd5b6064906040519062461bcd60e51b82526004820152601b60248201527a636f6e746573746174696f6e20616c72656164792065786973747360281b6044820152fd5b6064906040519062461bcd60e51b8252600482015260176024820152761cdbdb1d5d1a5bdb88191bd95cc81b9bdd08195e1a5cdd604a1b6044820152fd5b34610423576040366003190112610423576001600160401b036004358181116104235761219e903690600401613547565b906024928335818111610423576121b9903690600401613547565b94906121cd60ff60675460a01c1615614818565b33600052602091608583526121ed611943604060002054607154906148a2565b42111561231457612200866084546136ff565b336000526077845261221860406000209182546136f2565b90553360005260888352612231604060002054426136f2565b670de0b6b3a7640000612246886087546136ff565b0410156122db57336000526088835242604060002055612268611e6033614f7f565b60005b86811061227457005b8060051b90888110156122c65781840135601e198536030181121561042357840191823592878411610423578601928036038413610423576122c1936122bc928a0135614c12565b614b67565b61226b565b82634e487b7160e01b60005260326004526000fd5b8260136064926040519262461bcd60e51b84526004840152820152721cdbdb1d5d1a5bdb881c985d19481b1a5b5a5d606a1b6044820152fd5b82602f6084926040519262461bcd60e51b84526004840152820152600080516020615b4c83398151915260448201526e39ba1031b7b73a32b9ba30ba34b7b760891b6064820152fd5b34610423576000366003190112610423576066546040516001600160a01b039091168152602090f35b3461042357600036600319011261042357602060ff60675460a01c166040519015158152f35b34610423576040366003190112610423576024356001600160401b038111610423576123dc9036906004016133aa565b6123ee60ff60675460a01c1615614818565b336000526020916085835261240e611943604060002054607154906148a2565b4211156124f057608454808004600114811517156124da57336000526077845261243e60406000209182546136f2565b90553360005260888352612457604060002054426136f2565b608754808004600114811517156124da57670de0b6b3a76400009004101561249f5760886119bd93336000525242604060002055612497611e6033614f7f565b600435614c12565b60405162461bcd60e51b81526004810184905260136024820152721cdbdb1d5d1a5bdb881c985d19481b1a5b5a5d606a1b6044820152606490fd5b634e487b7160e01b600052601160045260246000fd5b60405162461bcd60e51b815260048101849052602f6024820152600080516020615b4c83398151915260448201526e39ba1031b7b73a32b9ba30ba34b7b760891b6064820152608490fd5b34610423576000366003190112610423576020606b54604051908152f35b3461042357602036600319011261042357600435612575613657565b670de0b6b3a7640000811161258957608e55005b60405162461bcd60e51b81526020600482015260136024820152720e0cae4c6cadce8c2ceca40e8dede40d0d2ced606b1b6044820152606490fd5b34610423576020366003190112610423576004356125ea60ff60675460a01c1615614818565b80600052607c60205260406000205461263c57612605614b76565b81600052607c602052604060002055337f09b4c028a2e50fec6f1c6a0163c59e8fbe92b231e5c03ef3adec585e63a14b92600080a3005b60405162461bcd60e51b8152602060048201526011602482015270636f6d6d69746d656e742065786973747360781b6044820152606490fd5b346104235760603660031901126104235761268e613380565b6001600160401b039060443590828211610423576126b36126e49236906004016133aa565b6126c860ff60679593955460a01c1615614818565b6001600160a01b03928316936126df8515156137d1565b615891565b90604051936126f28561340d565b60243585526020948581019485526040810160008152606082019485526127193383613818565b9586600052607688526001948086604060002001541661289a57600088815260768a526040902093518455905185840180546001600160a01b031916919092161790555160028201559251805160039490940193918211610eef5761277e8454613577565b601f8111612851575b508590601f83116001146127ee579282939183926000946127e3575b50501b916000199060031b1c19161790555b60405190807fa4b0af38d049ba81703a0d0e46cc2ff39681210302134046237111a8fb7dee72600080a28152f35b0151925087806127a3565b90601f198316918560005283886000209360005b8a8883831061283a5750505010612821575b505050811b0190556127b5565b015160001960f88460031b161c19169055858080612814565b868601518855909601959485019487935001612802565b8460005286600020601f840160051c810191888510612890575b601f0160051c019084905b828110612884575050612787565b60008155018490612876565b909150819061286b565b60405162461bcd60e51b8152600481018a905260186024820152771b5bd9195b08185b1c9958591e481c9959da5cdd195c995960421b6044820152606490fd5b34610423576020366003190112610423576128f3613380565b6128fb613657565b608d80546001600160a01b0319166001600160a01b0392909216919091179055005b3461042357600036600319011261042357608d546040516001600160a01b039091168152602090f35b346104235760203660031901126104235761295f613380565b612967613657565b606780546001600160a01b0319166001600160a01b039290921691821790557f5a85b4270fc1e75035e6cd505418ce65e0bcc36cc7eb9ce9e6f8c6181d4cb577600080a2005b34610423576020366003190112610423576004356001600160401b038111610423576129e96129e361062d9236906004016133aa565b90615891565b604051918291602083526020830190613522565b34610423576020366003190112610423577f8c854a81cb5c93e7e482d30fb9c6f88fdbdb320f10f7a853c2263659b54e563f6020600435612a3c613657565b80606b55604051908152a1005b34610423576000366003190112610423576020608e54604051908152f35b34610423576000366003190112610423576020610968613732565b346104235760003660031901126104235760206109686147a5565b3461042357606036600319011261042357612ab6613380565b6044356001600160401b03811161042357602091612adb6109689236906004016133aa565b91602435906147c7565b3461042357612af3366134bb565b9060005260826020526040600020805482101561042357602091610931916134d1565b3461042357602036600319011261042357612b2f613380565b612b37613657565b608b80546001600160a01b0319166001600160a01b0392909216919091179055005b34610423576000366003190112610423576020610968613766565b34610423576020366003190112610423576001600160a01b03612b95613380565b1660005260856020526020604060002054604051908152f35b3461042357600319604036820112610423576001600160401b03906004359082821161042357608090823603011261042357604051612bec8161340d565b81600401358152612bff60248301613396565b602082015260448201356040820152606482013592831161042357612c2f6109689260046020953692010161349d565b6060820152612c3c61336a565b90613818565b34610423576020610968612c55366134bb565b906142b1565b34610423576020366003190112610423576001600160a01b03612c7c613380565b16600052607a6020526020604060002054604051908152f35b34610423576040366003190112610423576004356024358015159081810361042357612cc960ff60675460a01c1615614818565b612cd5611e6033614f7f565b612cdf833361577a565b612d8757600080516020615bac8339815191529083600052602090607f825260406000203360005282526040600020600160ff19825416179055600014612d6c578360005260818152612d36336040600020615840565b83600052607e81526001604060002001543360005260778252612d5f60406000209182546136f2565b90556040519283523392a3005b8360005260828152612d82336040600020615840565b612d36565b60405162461bcd60e51b815260206004820152600b60248201526a1b9bdd08185b1b1bddd95960aa1b6044820152606490fd5b346104235760203660031901126104235760043560005260806020526020604060002054604051908152f35b3461042357602036600319011261042357600435801515809103610423576067546001600160a01b0381163303612e545760ff60a01b191660a082901b60ff60a01b16176067557fd83d5281277e107f080e362699d46082adb74e7dc6a9bccbc87d8ae9533add44600080a2005b60405162461bcd60e51b815260206004820152600a6024820152693737ba103830bab9b2b960b11b6044820152606490fd5b3461042357600319606036820112610423576001600160401b0390600435908282116104235760c090823603011261042357604051612ec4816133f2565b8160040135815260248201356020820152612ee160448301613396565b604082015260648201358381168103610423576060820152608482013560ff8116810361042357608082015260a482013592831161042357612f2e6109689260046020953692010161349d565b60a0820152612f3b61336a565b60443591613871565b34610423576000366003190112610423576020608c54604051908152f35b3461042357600036600319011261042357606a546040516001600160401b039091168152602090f35b346104235760208060031936011261042357600435612fb260ff60675460a01c1615614818565b336000526077825280612fd4604060002054607a8552604060002054906136f2565b1061309c57612fe5607554426148a2565b9033600052607883526040600020805490600182018092116124da5755336000526078835260406000205491829160405161301f816133d7565b8281526001868201838152336000526079885260406000208660005288526040600020925183555191015533600052607a855260406000206130628282546148a2565b9055604051918252848201527fcc7e0e76b20394ef965d71c4111d21e1b322bb8775dc2c7acd29eb0d3c3dd96d60403392a3604051908152f35b60405162461bcd60e51b81526004810183905260006024820152604490fd5b346104235760c0366003190112610423576130d461335a565b6130dc61336a565b6044359160643591906084356001600160401b038111610423576131049036906004016133aa565b92909461316360a4359461312060ff60675460a01c1615614818565b6000838152607660205260409020600101546001600160a01b039890613149908a1615156136af565b8360005260766020526126df6040600020548910156148ef565b9160005b8581106131ed576000878760206131a48c6065541661318684866136ff565b6040519687809481936323b872dd60e01b8352303360048501614880565b03925af1918215610bd8576131ca936131c2936131cf575b506136ff565b6086546148a2565b608655005b6131e69060203d8111610bd157610bc28183613428565b50846131bc565b6131fe906122bc858986868a61495f565b613167565b346104235760a03660031901126104235761321c61335a565b61322461336a565b6064359160443591906084356001600160401b038111610423576132ad936132b393613255879336906004016133aa565b61326a60ff60679993995460a01c1615614818565b6000848152607660205260409020600101546001600160a01b039890613293908a1615156136af565b8460005260766020526126df6040600020548710156148ef565b9361495f565b6065541690602060405180936323b872dd60e01b8252816000816132dc87303360048501614880565b03925af1918215610bd8576131ca926132f9575b506086546148a2565b6133109060203d8111610bd157610bc28183613428565b50826132f0565b34610423576020366003190112610423576020613335600435615713565b6040519015158152f35b34610423576000366003190112610423576020906072548152f35b6004359060ff8216820361042357565b602435906001600160a01b038216820361042357565b600435906001600160a01b038216820361042357565b35906001600160a01b038216820361042357565b9181601f84011215610423578235916001600160401b038311610423576020838186019501011161042357565b604081019081106001600160401b03821117610eef57604052565b60c081019081106001600160401b03821117610eef57604052565b608081019081106001600160401b03821117610eef57604052565b601f909101601f19168101906001600160401b03821190821017610eef57604052565b6001600160401b038111610eef57601f01601f191660200190565b9291926134728261344b565b916134806040519384613428565b829481845281830111610423578281602093846000960137010152565b9080601f83011215610423578160206134b893359101613466565b90565b6040906003190112610423576004359060243590565b80548210156134e95760005260206000200190600090565b634e487b7160e01b600052603260045260246000fd5b60005b8381106135125750506000910152565b8181015183820152602001613502565b9060209161353b815180928185528580860191016134ff565b601f01601f1916010190565b9181601f84011215610423578235916001600160401b038311610423576020808501948460051b01011161042357565b90600182811c921680156135a7575b602083101461359157565b634e487b7160e01b600052602260045260246000fd5b91607f1691613586565b90604051918260008254926135c584613577565b90818452600194858116908160001461363457506001146135f1575b50506135ef92500383613428565b565b9093915060005260209081600020936000915b81831061361c5750506135ef935082010138806135e1565b85548884018501529485019487945091830191613604565b9150506135ef94506020925060ff191682840152151560051b82010138806135e1565b6033546001600160a01b0316330361366b57565b606460405162461bcd60e51b815260206004820152602060248201527f4f776e61626c653a2063616c6c6572206973206e6f7420746865206f776e65726044820152fd5b156136b657565b60405162461bcd60e51b81526020600482015260146024820152731b5bd9195b08191bd95cc81b9bdd08195e1a5cdd60621b6044820152606490fd5b919082039182116124da57565b818102929181159184041417156124da57565b811561371c570490565b634e487b7160e01b600052601260045260246000fd5b61373a6146f5565b606d5490670de0b6b3a7640000918203918083116124da5761375f6134b893836136ff565b04906136f2565b61376e6146f5565b606c5490670de0b6b3a7640000918203918083116124da5761375f6134b893836136ff565b1561379a57565b60405162461bcd60e51b815260206004820152600f60248201526e3737ba1036b7b232b61037bbb732b960891b6044820152606490fd5b156137d857565b60405162461bcd60e51b815260206004820152601860248201527761646472657373206d757374206265206e6f6e2d7a65726f60401b6044820152606490fd5b61386b60018060a01b0361385d8160208501511693606081519101519060405195869460208601981688526040850152606084015260808084015260a0830190613522565b03601f198101835282613428565b51902090565b909161386b9061385d83519360a0602082015191015190604051958694602086019860018060a01b0316895260408601526060850152608084015260a08084015260c0830190613522565b63bbf81e008111613946576138d090613955565b680a688906bd8affffff811161392e576138f7670de0b6b3a7640000809260401b04613aa0565b90811561371c57697f0e10af47c1c7000000917105f95e44a0e2947c3011ad48e1abf7023b57603c1b040481039081116124da5790565b6024906040519063b3b6ba1f60e01b82526004820152fd5b50697f0e10af47c1c700000090565b670de0b6b3a76400009190600019838209838202918280831092039180830392146139e3576301e1338090818310156139c057947f98f5be4dd1e14769fbd6666224dc1eb80dd2e0a3d2c8b328f57e76b7ae10395794950990828211900360f91b910360071c170290565b6064918660405192630c740aef60e31b8452600484015260248301526044820152fd5b50506301e1338090049150565b670de0b6b3a7640000916000198383099280830292838086109503948086039514613a935782851015613a7057908291096001821901821680920460028082600302188083028203028083028203028083028203028083028203028083028203028092029003029360018380600003040190848311900302920304170290565b8260649260405192630c740aef60e31b8452600484015260248301526044820152fd5b5050906134b89250613712565b600160bf1b60ff60381b82166141a8575b670de0b6b3a76400009060ff60301b83166140b0575b60ff60281b8316613fb8575b60ff60201b8316613ec0575b63ff0000008316613dc8575b62ff00008316613cd9575b61ff008316613bfa575b60ff8316613b15575b029060401c60bf031c90565b60808316613be9575b6040808416613bd6575b60208416613bc3575b60108416613bb0575b60088416613b9d575b60048416613b8a575b60028416613b77575b60018416613b64575b50613b09565b6001600160401b01909102901c38613b5e565b6001600160401b01909102811c90613b55565b6003600160401b01909102811c90613b4c565b6006600160401b01909102811c90613b43565b600b600160401b01909102811c90613b3a565b6016600160401b01909102811c90613b31565b602c600160401b01909102811c90613b28565b6059600160401b010260401c613b1e565b6180008316613cc7575b6140008316613cb5575b6120008316613ca3575b6110008316613c91575b6108008316613c7f575b6104008316613c6d575b6102008316613c5b575b610100831615613b005760b1600160401b010260401c613b00565b610163600160401b010260401c613c40565b6102c6600160401b010260401c613c36565b61058c600160401b010260401c613c2c565b610b17600160401b010260401c613c22565b61162e600160401b010260401c613c18565b612c5d600160401b010260401c613c0e565b6158b9600160401b010260401c613c04565b628000008316613db5575b624000008316613da2575b622000008316613d8f575b621000008316613d7c575b620800008316613d69575b620400008316613d56575b620200008316613d43575b62010000831615613af65761b172600160401b010260401c613af6565b680100000000000162e40260401c613d26565b6801000000000002c5c80260401c613d1b565b68010000000000058b910260401c613d10565b680100000000000b17210260401c613d05565b68010000000000162e430260401c613cfa565b680100000000002c5c860260401c613cef565b6801000000000058b90c0260401c613ce4565b63800000008316613ead575b63400000008316613e9a575b63200000008316613e87575b63100000008316613e74575b63080000008316613e61575b63040000008316613e4e575b63020000008316613e3b575b6301000000831615613aeb5768010000000000b172180260401c613aeb565b6801000000000162e4300260401c613e1c565b68010000000002c5c8600260401c613e10565b680100000000058b90c00260401c613e04565b6801000000000b17217f0260401c613df8565b680100000000162e42ff0260401c613dec565b6801000000002c5c85fe0260401c613de0565b68010000000058b90bfc0260401c613dd4565b600160271b8316613fa5575b600160261b8316613f92575b600160251b8316613f7f575b600160241b8316613f6c575b600160231b8316613f59575b600160221b8316613f46575b600160211b8316613f33575b600160201b831615613adf57680100000000b17217f80260401c613adf565b68010000000162e42ff10260401c613f14565b680100000002c5c85fe30260401c613f08565b6801000000058b90bfce0260401c613efc565b68010000000b17217fbb0260401c613ef0565b6801000000162e42fff00260401c613ee4565b68010000002c5c8601cc0260401c613ed8565b680100000058b90c0b490260401c613ecc565b6001602f1b831661409d575b6001602e1b831661408a575b6001602d1b8316614077575b6001602c1b8316614064575b6001602b1b8316614051575b6001602a1b831661403e575b600160291b831661402b575b600160281b831615613ad3576801000000b1721835510260401c613ad3565b680100000162e430e5a20260401c61400c565b6801000002c5c863b73f0260401c614000565b68010000058b90cf1e6e0260401c613ff4565b680100000b1721bcfc9a0260401c613fe8565b68010000162e43f4f8310260401c613fdc565b680100002c5c89d5ec6d0260401c613fd0565b6801000058b91b5bc9ae0260401c613fc4565b600160371b8316614195575b600160361b8316614182575b600160351b831661416f575b600160341b831661415c575b600160331b8316614149575b600160321b8316614136575b600160311b8316614123575b600160301b831615613ac75768010000b17255775c040260401c613ac7565b6801000162e525ee05470260401c614104565b68010002c5cc37da94920260401c6140f8565b680100058ba01fb9f96d0260401c6140ec565b6801000b175effdc76ba0260401c6140e0565b680100162f3904051fa10260401c6140d4565b6801002c605e2e8cec500260401c6140c8565b68010058c86da1c09ea20260401c6140bc565b6001603f1b821661429e575b670de0b6b3a7640000906001603e1b831661428b575b6001603d1b8316614278575b6001603c1b8316614265575b6001603b1b8316614252575b6001603a1b831661423f575b600160391b831661422c575b600160381b8316614219575b9050613ab1565b680100b1afa5abcbed610260401c614212565b68010163da9fb33356d80260401c614206565b680102c9a3e778060ee70260401c6141fa565b6801059b0d31585743ae0260401c6141ee565b68010b5586cf9890f62a0260401c6141e2565b6801172b83c7d517adce0260401c6141d6565b6801306fe0a31b7152df0260401c6141ca565b5068016a09e667f3bcc909607f1b6141b4565b8015158061456d575b1561453d576142c8906138bc565b90600160ff1b8082148015614534575b61448157600082121561452b57614300826000035b60008512156145245784600003906139f0565b6001600160ff1b03928382116145065760001994600091188512156144ff5750915b670cf4ad2e86166c9c83126144ee57670de0b6b3a763ffff1992808401906001818313166124da5783821480156144e6575b6144d45760008212156144ca57670de0b6b3a764000061437791600003016145f8565b908282116144a3578568056bc75e2d63100000600092181360001461449c5750925b83018381136001166124da5783126001166124da576801158e460913d0000083121561449357600083129384156143fa57505081146143e8576134b891156143e357600003614576565b614576565b60405163ec2b9e6760e01b8152600490fd5b9192614407919450614576565b91821461448157600082121561447b57816000035b801561371c576a0c097ce7bc90715b34b9f160241b0492831161445457600091670de0b6b3a7640000181315614450575090565b0390565b60405163d49c26b360e01b8152670de0b6b3a7640000600482015260248101839052604490fd5b8161441c565b6040516309fe2b4560e41b8152600490fd5b50505050600090565b0392614399565b6044906040519063120b5b4360e01b8252600482015268056bc75e2d631000006024820152fd5b50614377816145f8565b60405163a6070c2560e01b8152600490fd5b506000614354565b5050505068056bc75e2d6310000090565b0391614322565b604490856040519163d49c26b360e01b835260048301526024820152fd5b84906139f0565b614300826142ed565b508083146142d8565b60405162461bcd60e51b81526020600482015260086024820152676d696e2076616c7360c01b6044820152606490fd5b508115156142ba565b60008112156145bb5768033dd1780914b971141981126145b55761459c90600003614576565b801561371c576a0c097ce7bc90715b34b9f160241b0590565b50600090565b680a688906bd8affffff81136145e157670de0b6b3a76400006134b89160401b05613aa0565b60249060405190626c1a0560e31b82526004820152fd5b68056bc75e2d6310000091906000198382098382029182808310920391808303921461468657670de0b6b3a7640000908183101561466857947faccb18165bd6fe31ae1cf318dc5b51eee0e1ba569b88cd74c1773b91fac1066994950990828211900360ee1b910360121c170290565b6044908660405191635173648d60e01b835260048301526024820152fd5b5050670de0b6b3a764000090049150565b9080156146e757697f0e10af47c1c7000000908082038281116124da57670de0b6b3a764000093848202918204851483851417156124da576146e2926146dc916142b1565b906136ff565b040490565b5050670de0b6b3a764000090565b6065546040516370a0823160e01b815230600482015290602090829060249082906001600160a01b03165afa908115610bd857600091614771575b50697f0e10af47c1c7000000908181101561476a5761475561475e91608654906136f2565b608c54906136f2565b81039081116124da5790565b5050600090565b906020823d821161479d575b8161478a60209383613428565b8101031261479a57505138614730565b80fd5b3d915061477d565b606a546134b8906147bf906001600160401b0316426136f2565b610c7c6146f5565b9261386b9160a091806040519586936020850198600180881b031689526040850152606080850152816080850152848401376000838284010152601f80199101168101036080810184520182613428565b1561481f57565b60405162461bcd60e51b81526020600482015260066024820152651c185d5cd95960d21b6044820152606490fd5b90816020910312610423575180151581036104235790565b6001600160a01b039091168152602081019190915260400190565b6001600160a01b03918216815291166020820152604081019190915260600190565b919082018092116124da57565b156148b657565b60405162461bcd60e51b81526020600482015260116024820152701c995c5d595cdd081b9bdd08195e1a5cdd607a1b6044820152606490fd5b156148f657565b60405162461bcd60e51b81526020600482015260186024820152776c6f77657220666565207468616e206d6f64656c2066656560401b6044820152606490fd5b8054600160a01b600160e01b03191660a09290921b600160a01b600160e01b0316919091179055565b6040519461496c866133f2565b8386526020918287018681526003604089019860018060a01b038097168a52606081019960018060401b03948542168c5260ff608084019116815260a083019687526149f9866149bf6069543387613871565b9d8e976000988952607b8c526040892096518755519b60019c8d8801556002870195511660018060a01b0319865416178555511683614936565b5181549060ff60e01b9060e01b169060ff60e01b19161790550192518051928311614b535790839291614a2e8a969554613577565b601f8111614afb575b508491601f8411600114614a8b579596600080516020615b8c8339815191529692849283614a80575b50501b916000199060031b1c19161790555b6040519485523394a4606955565b015192503880614a60565b90969291601f198316858352868320925b818110614ae357509783600080516020615b8c833981519152989910614aca575b505050811b019055614a72565b015160001960f88460031b161c19169055388080614abd565b8983015184558c985092850192918701918701614a9c565b90919293809596508352858320601f850160051c810191878610614b49575b8b97969594939291601f8a920160051c01915b828110614b3b575050614a37565b8481558c9850899101614b2d565b9091508190614b1a565b634e487b7160e01b82526041600452602482fd5b60001981146124da5760010190565b61a4b146148015614c07575b8015614bfb575b8015614bef575b614b98574390565b60405163a3b1b31d60e01b815260208160048160645afa908115610bd857600091614bc1575090565b906020823d8211614be7575b81614bda60209383613428565b8101031261479a57505190565b3d9150614bcd565b5062066eee4614614b90565b5062066eed4614614b89565b5061a4ba4614614b82565b91600091838352602091607b83526040918285205415614f0457858552607d8452828520546001600160a01b0392908316614ec357614c53818389336147c7565b808752607c86528487205415614e85578652607c855283862054614c75614b76565b1115614e4457614cb190614ce0855193614c8e8561340d565b33855287850160018060401b039485928342168352898801958c87523691613466565b606087019081528b8b52607d8a52888b20965187546001600160a01b0319169816979097178655511684614936565b51825460ff60e01b191690151560e01b60ff60e01b16178255915180516001928301939091908211614e3057614d168454613577565b601f8111614dea575b508590601f8311600114614d8b579282939183928994614d80575b50501b916000199060031b1c19161790555b608360845492858552528220557f957c18b5af8413899ea8a576a4d3fb16839a02c9fccfdce098b6d59ef248525b339180a3565b015192503880614d3a565b848852868820919083601f1981168a5b8a88838310614dd35750505010614dba575b505050811b019055614d4c565b015160001960f88460031b161c19169055388080614dad565b868601518855909601959485019487935001614d9b565b848852868820601f840160051c810191888510614e26575b601f0160051c019084905b828110614e1b575050614d1f565b898155018490614e0d565b9091508190614e02565b634e487b7160e01b87526041600452602487fd5b835162461bcd60e51b815260048101869052601a60248201527918dbdb5b5a5d1b595b9d081b5d5cdd081899481a5b881c185cdd60321b6044820152606490fd5b845162461bcd60e51b81526004810187905260176024820152761b9bdb88195e1a5cdd195b9d0818dbdb5b5a5d1b595b9d604a1b6044820152606490fd5b835162461bcd60e51b815260048101869052601a6024820152791cdbdb1d5d1a5bdb88185b1c9958591e481cdd589b5a5d1d195960321b6044820152606490fd5b825162461bcd60e51b81526004810185905260136024820152721d185cdac8191bd95cc81b9bdd08195e1a5cdd606a1b6044820152606490fd5b15614f4557565b60405162461bcd60e51b81526020600482015260126024820152716d696e207374616b656420746f6f206c6f7760701b6044820152606490fd5b60018060a01b03166000526077602052614fa9604060002054607a602052604060002054906136f2565b614fb1613766565b111590565b9094939260609260808301968352602083015260408201520152565b6000818152602090607b825260409182822054938483526076825283832054818452607b8352600185852001549084908281116156e9575b80615613575b61501a81846136f2565b92606e5493670de0b6b3a76400009485038581116155ff578561504061504792846136ff565b04826136f2565b9161505283836136f2565b9288888c8c8761554b575b50505050916150a561509d8796959361509361508b6150b397600080516020615b2c8339815191529b6148a2565b6068546148a2565b90816068556136f2565b6086546136f2565b6086558a5194859485614fb6565b0390a1608b54855163ebe2b12b60e01b81526001600160a01b039760049290919089169086818581855afa90811561530c57908791899161551c575b504211615453575b5050808652607685526002878720015490839089608d54169081615389575b505081151580615380575b615157575b505050508291607791615153959452608381528383205495607d82528484205416835252209182546148a2565b9055565b61517b906151766a0c097ce7bc90715b34b9f160251b936151766147a5565b6136ff565b049061518982608c546148a2565b608c5581615198575b80615126565b607054830383811161536d57836151b26151b992856136ff565b04836136f2565b92608954810381811161535a57906151b26151d492856136ff565b6151e7816151e286866136f2565b6136f2565b9189606554168a6066541690888b518092818d816152138d63a9059cbb60e01b998a84528b8401614865565b03925af180156153335761533d575b5061525388848d8d8d8260655416928d8252607b8652600283832001541691518096819582948a84528b8401614865565b03925af180156153335785938b8b948f93948f95615316575b506152948460655416948d8452607d8852868420541695519788968795869485528401614865565b03925af1801561530c577f65ee2a4c05d8c4801cd9a8d8e592d0d3507a0f362400d63658e3e31aad1622e5936151539a9998969360779896936152e2936152ef575b508a5194859485614fb6565b0390a19181939495615192565b61530590893d8b11610bd157610bc28183613428565b50386152d6565b89513d8a823e3d90fd5b61532c90873d8911610bd157610bc28183613428565b503861526c565b8b513d8c823e3d90fd5b61535390893d8b11610bd157610bc28183613428565b5038615222565b634e487b7160e01b885260118352602488fd5b634e487b7160e01b875260118252602487fd5b50801515615121565b909150885163b65a78b560e01b815281858201528781602481865afa90811561544957908892918a9161542c575b50156154235760248a5180948193637eca406f60e01b8352888301525afa9081156154195787916153ec575b505b3880615116565b90508581813d8311615412575b6154038183613428565b810103126104235751386153e3565b503d6153f9565b88513d89823e3d90fd5b505050856153e5565b6154439150833d8511610bd157610bc28183613428565b386153b7565b8a513d8b823e3d90fd5b61547b918a60655416608c54918a8c5180968195829463a9059cbb60e01b84528b8401614865565b03925af18015615419576154ff575b5087608b5416608c54813b156154fb578791602483928b519485938492633c6b16ab60e01b8452898401525af18015615419576154ce575b5085608c5538856150f7565b9095906001600160401b0381116154e857875294386154c2565b506041602492634e487b7160e01b835252fd5b8780fd5b61551590863d8811610bd157610bc28183613428565b503861548a565b82819392503d8311615544575b6155338183613428565b810103126154fb57869051386150ef565b503d615529565b606554928152607d845281812054915163a9059cbb60e01b8152939284926001600160a01b039182169284929091839161558b918d911660048401614865565b03925af180156155f557600080516020615b2c8339815191529796959361509361508b6150b397958e6150a59661509d966155d7575b5095509597505050939596975050888c8c61505d565b816155ed92903d10610bd157610bc28183613428565b508e386155c1565b8c513d8d823e3d90fd5b634e487b7160e01b89526011600452602489fd5b608e54670de0b6b3a76400009081038181116156d5579061504061563792846136ff565b806156cd575b8561564882846136f2565b615654575b5050615010565b61569b9160018060a01b0361567e8160655416918d8c526076855260018d8d2001541692866136f2565b918a8c5180968195829463a9059cbb60e01b845260048401614865565b03925af18015615419576156b0575b8561564d565b6156c690863d8811610bd157610bc28183613428565b50386156aa565b91508161563d565b634e487b7160e01b88526011600452602488fd5b508461500a565b80546001600160e01b031660e09290921b6001600160e01b031916919091179055565b6000818152607e60205260409020546073546157759291615740919060a01c6001600160401b03166148a2565b90600052608160205261576f6157666040600020546082602052604060002054906148a2565b608a54906136ff565b906148a2565b421190565b6000828152607e6020526040812054909291906001600160a01b0390811615615837576157a683615713565b61582e57828452607f602052604084209116835260205260ff6040832054166158275760776020526001604083200154801561581f57607454808210615816576157ef916136f2565b908252607e602052604082205460a01c6001600160401b0316106158105790565b50600690565b50505050600590565b505050600490565b5050600390565b50505050600290565b50505050600190565b8054600160401b811015610eef5761585d916001820181556134d1565b819291549060031b9160018060a01b03809116831b921b1916179055565b63ffffffff90811660001901919082116124da57565b906201000081116159c4576001600160401b03906158b0818316615a32565b600061598160409384519061591b60248360209a8b9861590c8a8401966204010960e91b8852825193818d8501956158ec8160238a01896134ff565b87019160238301370191600360fb1b6023840152518093868401906134ff565b01036004810185520183613428565b615971602161592c89855116615a32565b9388519384916159628a840197600560f91b89526159538c825192839189890191016134ff565b840191518093868401906134ff565b01036001810184520182613428565b85519283928392519283916134ff565b8101039060025afa156159ba57600051815193609160f51b90850152602284015260228352606083019183831090831117610eef575290565b513d6000823e3d90fd5b60405162461bcd60e51b815260206004820152601f60248201527f4d617820636f6e74656e742073697a65206973203635353336206279746573006044820152606490fd5b6001600160401b039081169081146124da5760010190565b9081518110156134e9570160200190565b600180825b607f6001600160401b03821611615b0f57506001600160401b039182169080615a5f8361344b565b94615a6d6040519687613428565b838652601f19615a7c8561344b565b013660208801376000915b615abd575b505050600019018181116124da5716615ab9607f60f81b615aad8385615a21565b511660001a9183615a21565b5390565b8482169084821015615b0957615b0291607f821660801760f81b6001600160f81b03191660001a90615aef9089615a21565b5360071c6001600160391b031691615a09565b9082615a87565b50615a8c565b60071c6001600160391b031691615b2590615a09565b91615a3756fe7549ffd4263adb791c2272344b6ad397f6b0d29e098d92f4d816ad43a0640dc07375626d6974536f6c7574696f6e20636f6f6c646f776e206166746572206c6f8be0079c531659141344cd1fd0a4f28419497f9722a3daafe3b4186f6b6457e0c3d3e0544c80e3bb83f62659259ae1574f72a91515ab3cae3dd75cf77e1b0aea1aa9e4be46e24e1f2e7eeb1613c01629213cd42965d2716e18531b63e552e411a2646970667358221220e776521ffc396a9b6b8a0633d0b094d616a6633d5b1f1636cd447bb746ded58964736f6c63430008130033",
  "linkReferences": {},
  "deployedLinkReferences": {}
}