{
  "_format": "hh-sol-artifact-1",
  "contractName": "V2_EngineV5",
  "sourceName": "contracts/V2_EngineV5.sol",
  "abi": [
    {
      "inputs": [],
      "stateMutability": "nonpayable",
      "type": "constructor"
    },
    {
      "inputs": [
        {
          "internalType": "uint256",
          "name": "x",
          "type": "uint256"
        },
        {
          "internalType": "uint256",
          "name": "y",
          "type": "uint256"
        }
      ],
      "name": "PRBMath_MulDiv18_Overflow",
      "type": "error"
    },
    {
      "inputs": [
        {
          "internalType": "uint256",
          "name": "x",
          "type": "uint256"
        },
        {
          "internalType": "uint256",
          "name": "y",
          "type": "uint256"
        },
        {
          "internalType": "uint256",
          "name": "denominator",
          "type": "uint256"
        }
      ],
      "name": "PRBMath_MulDiv_Overflow",
      "type": "error"
    },
    {
      "inputs": [],
      "name": "PRBMath_SD59x18_Abs_MinSD59x18",
      "type": "error"
    },
    {
      "inputs": [],
      "name": "PRBMath_SD59x18_Div_InputTooSmall",
      "type": "error"
    },
    {
      "inputs": [
        {
          "internalType": "SD59x18",
          "name": "x",
          "type": "int256"
        },
        {
          "internalType": "SD59x18",
          "name": "y",
          "type": "int256"
        }
      ],
      "name": "PRBMath_SD59x18_Div_Overflow",
      "type": "error"
    },
    {
      "inputs": [
        {
          "internalType": "SD59x18",
          "name": "x",
          "type": "int256"
        }
      ],
      "name": "PRBMath_SD59x18_Exp2_InputTooBig",
      "type": "error"
    },
    {
      "inputs": [],
      "name": "PRBMath_SD59x18_Mul_InputTooSmall",
      "type": "error"
    },
    {
      "inputs": [
        {
          "internalType": "SD59x18",
          "name": "x",
          "type": "int256"
        },
        {
          "internalType": "SD59x18",
          "name": "y",
          "type": "int256"
        }
      ],
      "name": "PRBMath_SD59x18_Mul_Overflow",
      "type": "error"
    },
    {
      "inputs": [
        {
          "internalType": "UD60x18",
          "name": "x",
          "type": "uint256"
        }
      ],
      "name": "PRBMath_UD60x18_Exp2_InputTooBig",
      "type": "error"
    },
    {
      "anonymous": false,
      "inputs": [
        {
          "indexed": true,
          "internalType": "address",
          "name": "addr",
          "type": "address"
        },
        {
          "indexed": true,
          "internalType": "bytes32",
          "name": "task",
          "type": "bytes32"
        }
      ],
      "name": "ContestationSubmitted",
      "type": "event"
    },
    {
      "anonymous": false,
      "inputs": [
        {
          "indexed": true,
          "internalType": "address",
          "name": "addr",
          "type": "address"
        },
        {
          "indexed": true,
          "internalType": "bytes32",
          "name": "task",
          "type": "bytes32"
        },
        {
          "indexed": false,
          "internalType": "bool",
          "name": "yea",
          "type": "bool"
        }
      ],
      "name": "ContestationVote",
      "type": "event"
    },
    {
      "anonymous": false,
      "inputs": [
        {
          "indexed": true,
          "internalType": "bytes32",
          "name": "id",
          "type": "bytes32"
        },
        {
          "indexed": true,
          "internalType": "uint32",
          "name": "start_idx",
          "type": "uint32"
        },
        {
          "indexed": false,
          "internalType": "uint32",
          "name": "end_idx",
          "type": "uint32"
        }
      ],
      "name": "ContestationVoteFinish",
      "type": "event"
    },
    {
      "anonymous": false,
      "inputs": [
        {
          "indexed": false,
          "internalType": "uint8",
          "name": "version",
          "type": "uint8"
        }
      ],
      "name": "Initialized",
      "type": "event"
    },
    {
      "anonymous": false,
      "inputs": [
        {
          "indexed": true,
          "internalType": "bytes32",
          "name": "id",
          "type": "bytes32"
        }
      ],
      "name": "ModelRegistered",
      "type": "event"
    },
    {
      "anonymous": false,
      "inputs": [
        {
          "indexed": true,
          "internalType": "address",
          "name": "previousOwner",
          "type": "address"
        },
        {
          "indexed": true,
          "internalType": "address",
          "name": "newOwner",
          "type": "address"
        }
      ],
      "name": "OwnershipTransferred",
      "type": "event"
    },
    {
      "anonymous": false,
      "inputs": [
        {
          "indexed": true,
          "internalType": "bool",
          "name": "paused",
          "type": "bool"
        }
      ],
      "name": "PausedChanged",
      "type": "event"
    },
    {
      "anonymous": false,
      "inputs": [
        {
          "indexed": true,
          "internalType": "address",
          "name": "to",
          "type": "address"
        }
      ],
      "name": "PauserTransferred",
      "type": "event"
    },
    {
      "anonymous": false,
      "inputs": [
        {
          "indexed": true,
          "internalType": "address",
          "name": "addr",
          "type": "address"
        },
        {
          "indexed": true,
          "internalType": "bytes32",
          "name": "commitment",
          "type": "bytes32"
        }
      ],
      "name": "SignalCommitment",
      "type": "event"
    },
    {
      "anonymous": false,
      "inputs": [
        {
          "indexed": true,
          "internalType": "address",
          "name": "addr",
          "type": "address"
        },
        {
          "indexed": true,
          "internalType": "bytes32",
          "name": "task",
          "type": "bytes32"
        }
      ],
      "name": "SolutionClaimed",
      "type": "event"
    },
    {
      "anonymous": false,
      "inputs": [
        {
          "indexed": true,
          "internalType": "bytes32",
          "name": "id",
          "type": "bytes32"
        },
        {
          "indexed": false,
          "internalType": "uint256",
          "name": "rate",
          "type": "uint256"
        }
      ],
      "name": "SolutionMineableRateChange",
      "type": "event"
    },
    {
      "anonymous": false,
      "inputs": [
        {
          "indexed": true,
          "internalType": "address",
          "name": "addr",
          "type": "address"
        },
        {
          "indexed": true,
          "internalType": "bytes32",
          "name": "task",
          "type": "bytes32"
        }
      ],
      "name": "SolutionSubmitted",
      "type": "event"
    },
    {
      "anonymous": false,
      "inputs": [
        {
          "indexed": true,
          "internalType": "uint64",
          "name": "startBlockTime",
          "type": "uint64"
        }
      ],
      "name": "StartBlockTimeChanged",
      "type": "event"
    },
    {
      "anonymous": false,
      "inputs": [
        {
          "indexed": true,
          "internalType": "bytes32",
          "name": "id",
          "type": "bytes32"
        },
        {
          "indexed": true,
          "internalType": "bytes32",
          "name": "model",
          "type": "bytes32"
        },
        {
          "indexed": false,
          "internalType": "uint256",
          "name": "fee",
          "type": "uint256"
        },
        {
          "indexed": true,
          "internalType": "address",
          "name": "sender",
          "type": "address"
        }
      ],
      "name": "TaskSubmitted",
      "type": "event"
    },
    {
      "anonymous": false,
      "inputs": [
        {
          "indexed": true,
          "internalType": "address",
          "name": "to",
          "type": "address"
        }
      ],
      "name": "TreasuryTransferred",
      "type": "event"
    },
    {
      "anonymous": false,
      "inputs": [
        {
          "indexed": true,
          "internalType": "address",
          "name": "addr",
          "type": "address"
        },
        {
          "indexed": true,
          "internalType": "address",
          "name": "validator",
          "type": "address"
        },
        {
          "indexed": false,
          "internalType": "uint256",
          "name": "amount",
          "type": "uint256"
        }
      ],
      "name": "ValidatorDeposit",
      "type": "event"
    },
    {
      "anonymous": false,
      "inputs": [
        {
          "indexed": true,
          "internalType": "address",
          "name": "addr",
          "type": "address"
        },
        {
          "indexed": true,
          "internalType": "address",
          "name": "to",
          "type": "address"
        },
        {
          "indexed": true,
          "internalType": "uint256",
          "name": "count",
          "type": "uint256"
        },
        {
          "indexed": false,
          "internalType": "uint256",
          "name": "amount",
          "type": "uint256"
        }
      ],
      "name": "ValidatorWithdraw",
      "type": "event"
    },
    {
      "anonymous": false,
      "inputs": [
        {
          "indexed": true,
          "internalType": "address",
          "name": "addr",
          "type": "address"
        },
        {
          "indexed": true,
          "internalType": "uint256",
          "name": "count",
          "type": "uint256"
        }
      ],
      "name": "ValidatorWithdrawCancelled",
      "type": "event"
    },
    {
      "anonymous": false,
      "inputs": [
        {
          "indexed": true,
          "internalType": "address",
          "name": "addr",
          "type": "address"
        },
        {
          "indexed": true,
          "internalType": "uint256",
          "name": "count",
          "type": "uint256"
        },
        {
          "indexed": false,
          "internalType": "uint256",
          "name": "unlockTime",
          "type": "uint256"
        },
        {
          "indexed": false,
          "internalType": "uint256",
          "name": "amount",
          "type": "uint256"
        }
      ],
      "name": "ValidatorWithdrawInitiated",
      "type": "event"
    },
    {
      "anonymous": false,
      "inputs": [
        {
          "indexed": false,
          "internalType": "uint256",
          "name": "version",
          "type": "uint256"
        }
      ],
      "name": "VersionChanged",
      "type": "event"
    },
    {
      "inputs": [],
      "name": "accruedFees",
      "outputs": [
        {
          "internalType": "uint256",
          "name": "",
          "type": "uint256"
        }
      ],
      "stateMutability": "view",
      "type": "function"
    },
    {
      "inputs": [],
      "name": "baseToken",
      "outputs": [
        {
          "internalType": "contract IBaseToken",
          "name": "",
          "type": "address"
        }
      ],
      "stateMutability": "view",
      "type": "function"
    },
    {
      "inputs": [
        {
          "internalType": "bytes32[]",
          "name": "taskids_",
          "type": "bytes32[]"
        },
        {
          "internalType": "bytes[]",
          "name": "cids_",
          "type": "bytes[]"
        }
      ],
      "name": "bulkSubmitSolution",
      "outputs": [],
      "stateMutability": "nonpayable",
      "type": "function"
    },
    {
      "inputs": [
        {
          "internalType": "uint8",
          "name": "version_",
          "type": "uint8"
        },
        {
          "internalType": "address",
          "name": "owner_",
          "type": "address"
        },
        {
          "internalType": "bytes32",
          "name": "model_",
          "type": "bytes32"
        },
        {
          "internalType": "uint256",
          "name": "fee_",
          "type": "uint256"
        },
        {
          "internalType": "bytes",
          "name": "input_",
          "type": "bytes"
        },
        {
          "internalType": "uint256",
          "name": "n_",
          "type": "uint256"
        }
      ],
      "name": "bulkSubmitTask",
      "outputs": [],
      "stateMutability": "nonpayable",
      "type": "function"
    },
    {
      "inputs": [
        {
          "internalType": "uint256",
          "name": "count_",
          "type": "uint256"
        }
      ],
      "name": "cancelValidatorWithdraw",
      "outputs": [],
      "stateMutability": "nonpayable",
      "type": "function"
    },
    {
      "inputs": [
        {
          "internalType": "bytes32",
          "name": "taskid_",
          "type": "bytes32"
        }
      ],
      "name": "claimSolution",
      "outputs": [],
      "stateMutability": "nonpayable",
      "type": "function"
    },
    {
      "inputs": [
        {
          "internalType": "bytes32",
          "name": "",
          "type": "bytes32"
        }
      ],
      "name": "commitments",
      "outputs": [
        {
          "internalType": "uint256",
          "name": "",
          "type": "uint256"
        }
      ],
      "stateMutability": "view",
      "type": "function"
    },
    {
      "inputs": [],
      "name": "contestationVoteExtensionTime",
      "outputs": [
        {
          "internalType": "uint256",
          "name": "",
          "type": "uint256"
        }
      ],
      "stateMutability": "view",
      "type": "function"
    },
    {
      "inputs": [
        {
          "internalType": "bytes32",
          "name": "taskid_",
          "type": "bytes32"
        },
        {
          "internalType": "uint32",
          "name": "amnt_",
          "type": "uint32"
        }
      ],
      "name": "contestationVoteFinish",
      "outputs": [],
      "stateMutability": "nonpayable",
      "type": "function"
    },
    {
      "inputs": [
        {
          "internalType": "bytes32",
          "name": "",
          "type": "bytes32"
        },
        {
          "internalType": "uint256",
          "name": "",
          "type": "uint256"
        }
      ],
      "name": "contestationVoteNays",
      "outputs": [
        {
          "internalType": "address",
          "name": "",
          "type": "address"
        }
      ],
      "stateMutability": "view",
      "type": "function"
    },
    {
      "inputs": [
        {
          "internalType": "bytes32",
          "name": "",
          "type": "bytes32"
        },
        {
          "internalType": "uint256",
          "name": "",
          "type": "uint256"
        }
      ],
      "name": "contestationVoteYeas",
      "outputs": [
        {
          "internalType": "address",
          "name": "",
          "type": "address"
        }
      ],
      "stateMutability": "view",
      "type": "function"
    },
    {
      "inputs": [
        {
          "internalType": "bytes32",
          "name": "",
          "type": "bytes32"
        },
        {
          "internalType": "address",
          "name": "",
          "type": "address"
        }
      ],
      "name": "contestationVoted",
      "outputs": [
        {
          "internalType": "bool",
          "name": "",
          "type": "bool"
        }
      ],
      "stateMutability": "view",
      "type": "function"
    },
    {
      "inputs": [
        {
          "internalType": "bytes32",
          "name": "",
          "type": "bytes32"
        }
      ],
      "name": "contestationVotedIndex",
      "outputs": [
        {
          "internalType": "uint256",
          "name": "",
          "type": "uint256"
        }
      ],
      "stateMutability": "view",
      "type": "function"
    },
    {
      "inputs": [
        {
          "internalType": "bytes32",
          "name": "",
          "type": "bytes32"
        }
      ],
      "name": "contestations",
      "outputs": [
        {
          "internalType": "address",
          "name": "validator",
          "type": "address"
        },
        {
          "internalType": "uint64",
          "name": "blocktime",
          "type": "uint64"
        },
        {
          "internalType": "uint32",
          "name": "finish_start_index",
          "type": "uint32"
        },
        {
          "internalType": "uint256",
          "name": "slashAmount",
          "type": "uint256"
        }
      ],
      "stateMutability": "view",
      "type": "function"
    },
    {
      "inputs": [
        {
          "internalType": "uint256",
          "name": "t",
          "type": "uint256"
        },
        {
          "internalType": "uint256",
          "name": "ts",
          "type": "uint256"
        }
      ],
      "name": "diffMul",
      "outputs": [
        {
          "internalType": "uint256",
          "name": "",
          "type": "uint256"
        }
      ],
      "stateMutability": "pure",
      "type": "function"
    },
    {
      "inputs": [],
      "name": "exitValidatorMinUnlockTime",
      "outputs": [
        {
          "internalType": "uint256",
          "name": "",
          "type": "uint256"
        }
      ],
      "stateMutability": "view",
      "type": "function"
    },
    {
      "inputs": [
        {
          "internalType": "address",
          "name": "sender_",
          "type": "address"
        },
        {
          "internalType": "bytes32",
          "name": "taskid_",
          "type": "bytes32"
        },
        {
          "internalType": "bytes",
          "name": "cid_",
          "type": "bytes"
        }
      ],
      "name": "generateCommitment",
      "outputs": [
        {
          "internalType": "bytes32",
          "name": "",
          "type": "bytes32"
        }
      ],
      "stateMutability": "pure",
      "type": "function"
    },
    {
      "inputs": [
        {
          "internalType": "bytes",
          "name": "content_",
          "type": "bytes"
        }
      ],
      "name": "generateIPFSCID",
      "outputs": [
        {
          "internalType": "bytes",
          "name": "",
          "type": "bytes"
        }
      ],
      "stateMutability": "pure",
      "type": "function"
    },
    {
      "inputs": [],
      "name": "getPsuedoTotalSupply",
      "outputs": [
        {
          "internalType": "uint256",
          "name": "",
          "type": "uint256"
        }
      ],
      "stateMutability": "view",
      "type": "function"
    },
    {
      "inputs": [],
      "name": "getReward",
      "outputs": [
        {
          "internalType": "uint256",
          "name": "",
          "type": "uint256"
        }
      ],
      "stateMutability": "view",
      "type": "function"
    },
    {
      "inputs": [],
      "name": "getSlashAmount",
      "outputs": [
        {
          "internalType": "uint256",
          "name": "",
          "type": "uint256"
        }
      ],
      "stateMutability": "view",
      "type": "function"
    },
    {
      "inputs": [],
      "name": "getValidatorMinimum",
      "outputs": [
        {
          "internalType": "uint256",
          "name": "",
          "type": "uint256"
        }
      ],
      "stateMutability": "view",
      "type": "function"
    },
    {
      "inputs": [
        {
          "components": [
            {
              "internalType": "uint256",
              "name": "fee",
              "type": "uint256"
            },
            {
              "internalType": "address",
              "name": "addr",
              "type": "address"
            },
            {
              "internalType": "uint256",
              "name": "rate",
              "type": "uint256"
            },
            {
              "internalType": "bytes",
              "name": "cid",
              "type": "bytes"
            }
          ],
          "internalType": "struct Model",
          "name": "o_",
          "type": "tuple"
        },
        {
          "internalType": "address",
          "name": "sender_",
          "type": "address"
        }
      ],
      "name": "hashModel",
      "outputs": [
        {
          "internalType": "bytes32",
          "name": "",
          "type": "bytes32"
        }
      ],
      "stateMutability": "pure",
      "type": "function"
    },
    {
      "inputs": [
        {
          "components": [
            {
              "internalType": "bytes32",
              "name": "model",
              "type": "bytes32"
            },
            {
              "internalType": "uint256",
              "name": "fee",
              "type": "uint256"
            },
            {
              "internalType": "address",
              "name": "owner",
              "type": "address"
            },
            {
              "internalType": "uint64",
              "name": "blocktime",
              "type": "uint64"
            },
            {
              "internalType": "uint8",
              "name": "version",
              "type": "uint8"
            },
            {
              "internalType": "bytes",
              "name": "cid",
              "type": "bytes"
            }
          ],
          "internalType": "struct Task",
          "name": "o_",
          "type": "tuple"
        },
        {
          "internalType": "address",
          "name": "sender_",
          "type": "address"
        },
        {
          "internalType": "bytes32",
          "name": "prevhash_",
          "type": "bytes32"
        }
      ],
      "name": "hashTask",
      "outputs": [
        {
          "internalType": "bytes32",
          "name": "",
          "type": "bytes32"
        }
      ],
      "stateMutability": "pure",
      "type": "function"
    },
    {
      "inputs": [],
      "name": "initialize",
      "outputs": [],
      "stateMutability": "nonpayable",
      "type": "function"
    },
    {
      "inputs": [
        {
          "internalType": "uint256",
          "name": "amount_",
          "type": "uint256"
        }
      ],
      "name": "initiateValidatorWithdraw",
      "outputs": [
        {
          "internalType": "uint256",
          "name": "",
          "type": "uint256"
        }
      ],
      "stateMutability": "nonpayable",
      "type": "function"
    },
    {
      "inputs": [
        {
          "internalType": "address",
          "name": "",
          "type": "address"
        }
      ],
      "name": "lastContestationLossTime",
      "outputs": [
        {
          "internalType": "uint256",
          "name": "",
          "type": "uint256"
        }
      ],
      "stateMutability": "view",
      "type": "function"
    },
    {
      "inputs": [
        {
          "internalType": "address",
          "name": "",
          "type": "address"
        }
      ],
      "name": "lastSolutionSubmission",
      "outputs": [
        {
          "internalType": "uint256",
          "name": "",
          "type": "uint256"
        }
      ],
      "stateMutability": "view",
      "type": "function"
    },
    {
      "inputs": [],
      "name": "maxContestationValidatorStakeSince",
      "outputs": [
        {
          "internalType": "uint256",
          "name": "",
          "type": "uint256"
        }
      ],
      "stateMutability": "view",
      "type": "function"
    },
    {
      "inputs": [],
      "name": "minClaimSolutionTime",
      "outputs": [
        {
          "internalType": "uint256",
          "name": "",
          "type": "uint256"
        }
      ],
      "stateMutability": "view",
      "type": "function"
    },
    {
      "inputs": [],
      "name": "minContestationVotePeriodTime",
      "outputs": [
        {
          "internalType": "uint256",
          "name": "",
          "type": "uint256"
        }
      ],
      "stateMutability": "view",
      "type": "function"
    },
    {
      "inputs": [],
      "name": "minRetractionWaitTime",
      "outputs": [
        {
          "internalType": "uint256",
          "name": "",
          "type": "uint256"
        }
      ],
      "stateMutability": "view",
      "type": "function"
    },
    {
      "inputs": [
        {
          "internalType": "bytes32",
          "name": "",
          "type": "bytes32"
        }
      ],
      "name": "models",
      "outputs": [
        {
          "internalType": "uint256",
          "name": "fee",
          "type": "uint256"
        },
        {
          "internalType": "address",
          "name": "addr",
          "type": "address"
        },
        {
          "internalType": "uint256",
          "name": "rate",
          "type": "uint256"
        },
        {
          "internalType": "bytes",
          "name": "cid",
          "type": "bytes"
        }
      ],
      "stateMutability": "view",
      "type": "function"
    },
    {
      "inputs": [],
      "name": "owner",
      "outputs": [
        {
          "internalType": "address",
          "name": "",
          "type": "address"
        }
      ],
      "stateMutability": "view",
      "type": "function"
    },
    {
      "inputs": [],
      "name": "paused",
      "outputs": [
        {
          "internalType": "bool",
          "name": "",
          "type": "bool"
        }
      ],
      "stateMutability": "view",
      "type": "function"
    },
    {
      "inputs": [],
      "name": "pauser",
      "outputs": [
        {
          "internalType": "address",
          "name": "",
          "type": "address"
        }
      ],
      "stateMutability": "view",
      "type": "function"
    },
    {
      "inputs": [
        {
          "internalType": "address",
          "name": "",
          "type": "address"
        },
        {
          "internalType": "uint256",
          "name": "",
          "type": "uint256"
        }
      ],
      "name": "pendingValidatorWithdrawRequests",
      "outputs": [
        {
          "internalType": "uint256",
          "name": "unlockTime",
          "type": "uint256"
        },
        {
          "internalType": "uint256",
          "name": "amount",
          "type": "uint256"
        }
      ],
      "stateMutability": "view",
      "type": "function"
    },
    {
      "inputs": [
        {
          "internalType": "address",
          "name": "",
          "type": "address"
        }
      ],
      "name": "pendingValidatorWithdrawRequestsCount",
      "outputs": [
        {
          "internalType": "uint256",
          "name": "",
          "type": "uint256"
        }
      ],
      "stateMutability": "view",
      "type": "function"
    },
    {
      "inputs": [],
      "name": "prevhash",
      "outputs": [
        {
          "internalType": "bytes32",
          "name": "",
          "type": "bytes32"
        }
      ],
      "stateMutability": "view",
      "type": "function"
    },
    {
      "inputs": [
        {
          "internalType": "address",
          "name": "addr_",
          "type": "address"
        },
        {
          "internalType": "uint256",
          "name": "fee_",
          "type": "uint256"
        },
        {
          "internalType": "bytes",
          "name": "template_",
          "type": "bytes"
        }
      ],
      "name": "registerModel",
      "outputs": [
        {
          "internalType": "bytes32",
          "name": "",
          "type": "bytes32"
        }
      ],
      "stateMutability": "nonpayable",
      "type": "function"
    },
    {
      "inputs": [],
      "name": "renounceOwnership",
      "outputs": [],
      "stateMutability": "nonpayable",
      "type": "function"
    },
    {
      "inputs": [],
      "name": "retractionFeePercentage",
      "outputs": [
        {
          "internalType": "uint256",
          "name": "",
          "type": "uint256"
        }
      ],
      "stateMutability": "view",
      "type": "function"
    },
    {
      "inputs": [
        {
          "internalType": "uint256",
          "name": "t",
          "type": "uint256"
        },
        {
          "internalType": "uint256",
          "name": "ts",
          "type": "uint256"
        }
      ],
      "name": "reward",
      "outputs": [
        {
          "internalType": "uint256",
          "name": "",
          "type": "uint256"
        }
      ],
      "stateMutability": "pure",
      "type": "function"
    },
    {
      "inputs": [
        {
          "internalType": "bool",
          "name": "paused_",
          "type": "bool"
        }
      ],
      "name": "setPaused",
      "outputs": [],
      "stateMutability": "nonpayable",
      "type": "function"
    },
    {
      "inputs": [
        {
          "internalType": "bytes32",
          "name": "model_",
          "type": "bytes32"
        },
        {
          "internalType": "uint256",
          "name": "rate_",
          "type": "uint256"
        }
      ],
      "name": "setSolutionMineableRate",
      "outputs": [],
      "stateMutability": "nonpayable",
      "type": "function"
    },
    {
      "inputs": [
        {
          "internalType": "uint64",
          "name": "startBlockTime_",
          "type": "uint64"
        }
      ],
      "name": "setStartBlockTime",
      "outputs": [],
      "stateMutability": "nonpayable",
      "type": "function"
    },
    {
      "inputs": [
        {
          "internalType": "address",
          "name": "veStaking_",
          "type": "address"
        }
      ],
      "name": "setVeStaking",
      "outputs": [],
      "stateMutability": "nonpayable",
      "type": "function"
    },
    {
      "inputs": [
        {
          "internalType": "uint256",
          "name": "version_",
          "type": "uint256"
        }
      ],
      "name": "setVersion",
      "outputs": [],
      "stateMutability": "nonpayable",
      "type": "function"
    },
    {
      "inputs": [
        {
          "internalType": "address",
          "name": "voter_",
          "type": "address"
        }
      ],
      "name": "setVoter",
      "outputs": [],
      "stateMutability": "nonpayable",
      "type": "function"
    },
    {
      "inputs": [
        {
          "internalType": "bytes32",
          "name": "commitment_",
          "type": "bytes32"
        }
      ],
      "name": "signalCommitment",
      "outputs": [],
      "stateMutability": "nonpayable",
      "type": "function"
    },
    {
      "inputs": [],
      "name": "slashAmountPercentage",
      "outputs": [
        {
          "internalType": "uint256",
          "name": "",
          "type": "uint256"
        }
      ],
      "stateMutability": "view",
      "type": "function"
    },
    {
      "inputs": [],
      "name": "solutionFeePercentage",
      "outputs": [
        {
          "internalType": "uint256",
          "name": "",
          "type": "uint256"
        }
      ],
      "stateMutability": "view",
      "type": "function"
    },
    {
      "inputs": [],
      "name": "solutionRateLimit",
      "outputs": [
        {
          "internalType": "uint256",
          "name": "",
          "type": "uint256"
        }
      ],
      "stateMutability": "view",
      "type": "function"
    },
    {
      "inputs": [
        {
          "internalType": "bytes32",
          "name": "",
          "type": "bytes32"
        }
      ],
      "name": "solutions",
      "outputs": [
        {
          "internalType": "address",
          "name": "validator",
          "type": "address"
        },
        {
          "internalType": "uint64",
          "name": "blocktime",
          "type": "uint64"
        },
        {
          "internalType": "bool",
          "name": "claimed",
          "type": "bool"
        },
        {
          "internalType": "bytes",
          "name": "cid",
          "type": "bytes"
        }
      ],
      "stateMutability": "view",
      "type": "function"
    },
    {
      "inputs": [
        {
          "internalType": "bytes32",
          "name": "",
          "type": "bytes32"
        }
      ],
      "name": "solutionsStake",
      "outputs": [
        {
          "internalType": "uint256",
          "name": "",
          "type": "uint256"
        }
      ],
      "stateMutability": "view",
      "type": "function"
    },
    {
      "inputs": [],
      "name": "solutionsStakeAmount",
      "outputs": [
        {
          "internalType": "uint256",
          "name": "",
          "type": "uint256"
        }
      ],
      "stateMutability": "view",
      "type": "function"
    },
    {
      "inputs": [],
      "name": "startBlockTime",
      "outputs": [
        {
          "internalType": "uint64",
          "name": "",
          "type": "uint64"
        }
      ],
      "stateMutability": "view",
      "type": "function"
    },
    {
      "inputs": [
        {
          "internalType": "bytes32",
          "name": "taskid_",
          "type": "bytes32"
        }
      ],
      "name": "submitContestation",
      "outputs": [],
      "stateMutability": "nonpayable",
      "type": "function"
    },
    {
      "inputs": [
        {
          "internalType": "bytes32",
          "name": "taskid_",
          "type": "bytes32"
        },
        {
          "internalType": "bytes",
          "name": "cid_",
          "type": "bytes"
        }
      ],
      "name": "submitSolution",
      "outputs": [],
      "stateMutability": "nonpayable",
      "type": "function"
    },
    {
      "inputs": [
        {
          "internalType": "uint8",
          "name": "version_",
          "type": "uint8"
        },
        {
          "internalType": "address",
          "name": "owner_",
          "type": "address"
        },
        {
          "internalType": "bytes32",
          "name": "model_",
          "type": "bytes32"
        },
        {
          "internalType": "uint256",
          "name": "fee_",
          "type": "uint256"
        },
        {
          "internalType": "bytes",
          "name": "input_",
          "type": "bytes"
        }
      ],
      "name": "submitTask",
      "outputs": [],
      "stateMutability": "nonpayable",
      "type": "function"
    },
    {
      "inputs": [
        {
          "internalType": "uint256",
          "name": "t",
          "type": "uint256"
        }
      ],
      "name": "targetTs",
      "outputs": [
        {
          "internalType": "uint256",
          "name": "",
          "type": "uint256"
        }
      ],
      "stateMutability": "pure",
      "type": "function"
    },
    {
      "inputs": [],
      "name": "taskOwnerRewardPercentage",
      "outputs": [
        {
          "internalType": "uint256",
          "name": "",
          "type": "uint256"
        }
      ],
      "stateMutability": "view",
      "type": "function"
    },
    {
      "inputs": [
        {
          "internalType": "bytes32",
          "name": "",
          "type": "bytes32"
        }
      ],
      "name": "tasks",
      "outputs": [
        {
          "internalType": "bytes32",
          "name": "model",
          "type": "bytes32"
        },
        {
          "internalType": "uint256",
          "name": "fee",
          "type": "uint256"
        },
        {
          "internalType": "address",
          "name": "owner",
          "type": "address"
        },
        {
          "internalType": "uint64",
          "name": "blocktime",
          "type": "uint64"
        },
        {
          "internalType": "uint8",
          "name": "version",
          "type": "uint8"
        },
        {
          "internalType": "bytes",
          "name": "cid",
          "type": "bytes"
        }
      ],
      "stateMutability": "view",
      "type": "function"
    },
    {
      "inputs": [],
      "name": "totalHeld",
      "outputs": [
        {
          "internalType": "uint256",
          "name": "",
          "type": "uint256"
        }
      ],
      "stateMutability": "view",
      "type": "function"
    },
    {
      "inputs": [
        {
          "internalType": "address",
          "name": "to_",
          "type": "address"
        }
      ],
      "name": "transferOwnership",
      "outputs": [],
      "stateMutability": "nonpayable",
      "type": "function"
    },
    {
      "inputs": [
        {
          "internalType": "address",
          "name": "to_",
          "type": "address"
        }
      ],
      "name": "transferPauser",
      "outputs": [],
      "stateMutability": "nonpayable",
      "type": "function"
    },
    {
      "inputs": [
        {
          "internalType": "address",
          "name": "to_",
          "type": "address"
        }
      ],
      "name": "transferTreasury",
      "outputs": [],
      "stateMutability": "nonpayable",
      "type": "function"
    },
    {
      "inputs": [],
      "name": "treasury",
      "outputs": [
        {
          "internalType": "address",
          "name": "",
          "type": "address"
        }
      ],
      "stateMutability": "view",
      "type": "function"
    },
    {
      "inputs": [],
      "name": "treasuryRewardPercentage",
      "outputs": [
        {
          "internalType": "uint256",
          "name": "",
          "type": "uint256"
        }
      ],
      "stateMutability": "view",
      "type": "function"
    },
    {
      "inputs": [
        {
          "internalType": "address",
          "name": "addr_",
          "type": "address"
        },
        {
          "internalType": "bytes32",
          "name": "taskid_",
          "type": "bytes32"
        }
      ],
      "name": "validatorCanVote",
      "outputs": [
        {
          "internalType": "uint256",
          "name": "",
          "type": "uint256"
        }
      ],
      "stateMutability": "view",
      "type": "function"
    },
    {
      "inputs": [
        {
          "internalType": "address",
          "name": "validator_",
          "type": "address"
        },
        {
          "internalType": "uint256",
          "name": "amount_",
          "type": "uint256"
        }
      ],
      "name": "validatorDeposit",
      "outputs": [],
      "stateMutability": "nonpayable",
      "type": "function"
    },
    {
      "inputs": [],
      "name": "validatorMinimumPercentage",
      "outputs": [
        {
          "internalType": "uint256",
          "name": "",
          "type": "uint256"
        }
      ],
      "stateMutability": "view",
      "type": "function"
    },
    {
      "inputs": [
        {
          "internalType": "uint256",
          "name": "count_",
          "type": "uint256"
        },
        {
          "internalType": "address",
          "name": "to_",
          "type": "address"
        }
      ],
      "name": "validatorWithdraw",
      "outputs": [],
      "stateMutability": "nonpayable",
      "type": "function"
    },
    {
      "inputs": [
        {
          "internalType": "address",
          "name": "",
          "type": "address"
        }
      ],
      "name": "validatorWithdrawPendingAmount",
      "outputs": [
        {
          "internalType": "uint256",
          "name": "",
          "type": "uint256"
        }
      ],
      "stateMutability": "view",
      "type": "function"
    },
    {
      "inputs": [
        {
          "internalType": "address",
          "name": "",
          "type": "address"
        }
      ],
      "name": "validators",
      "outputs": [
        {
          "internalType": "uint256",
          "name": "staked",
          "type": "uint256"
        },
        {
          "internalType": "uint256",
          "name": "since",
          "type": "uint256"
        },
        {
          "internalType": "address",
          "name": "addr",
          "type": "address"
        }
      ],
      "stateMutability": "view",
      "type": "function"
    },
    {
      "inputs": [],
      "name": "veRewards",
      "outputs": [
        {
          "internalType": "uint256",
          "name": "",
          "type": "uint256"
        }
      ],
      "stateMutability": "view",
      "type": "function"
    },
    {
      "inputs": [],
      "name": "veStaking",
      "outputs": [
        {
          "internalType": "address",
          "name": "",
          "type": "address"
        }
      ],
      "stateMutability": "view",
      "type": "function"
    },
    {
      "inputs": [],
      "name": "version",
      "outputs": [
        {
          "internalType": "uint256",
          "name": "",
          "type": "uint256"
        }
      ],
      "stateMutability": "view",
      "type": "function"
    },
    {
      "inputs": [
        {
          "internalType": "bytes32",
          "name": "taskid_",
          "type": "bytes32"
        },
        {
          "internalType": "bool",
          "name": "yea_",
          "type": "bool"
        }
      ],
      "name": "voteOnContestation",
      "outputs": [],
      "stateMutability": "nonpayable",
      "type": "function"
    },
    {
      "inputs": [],
      "name": "voter",
      "outputs": [
        {
          "internalType": "address",
          "name": "",
          "type": "address"
        }
      ],
      "stateMutability": "view",
      "type": "function"
    },
    {
      "inputs": [
        {
          "internalType": "bytes32",
          "name": "taskid_",
          "type": "bytes32"
        }
      ],
      "name": "votingPeriodEnded",
      "outputs": [
        {
          "internalType": "bool",
          "name": "",
          "type": "bool"
        }
      ],
      "stateMutability": "view",
      "type": "function"
    },
    {
      "inputs": [],
      "name": "withdrawAccruedFees",
      "outputs": [],
      "stateMutability": "nonpayable",
      "type": "function"
    }
  ],
  "bytecode": "0x60808060405234620000c6576000549060ff8260081c1662000074575060ff8082160362000038575b60405161587c9081620000cc8239f35b60ff90811916176000557f7f26b83ff96e1f2b6a682f133852f6798a09c465da95921460cefb3847402498602060405160ff8152a13862000028565b62461bcd60e51b815260206004820152602760248201527f496e697469616c697a61626c653a20636f6e747261637420697320696e697469604482015266616c697a696e6760c81b6064820152608490fd5b600080fdfe608080604052600436101561001357600080fd5b60003560e01c908162fd70821461315e5750806305d1bc261461313657806308745dd11461302257806308afe0eb14612ed55780630a98573714612da55780630c18d4ce14612d7c5780630d468d9514612d5e5780631466b63a14612ca057806316c38b3c14612c0057806317f3e04114612bd45780631825c20e14612aaf5780631b75c43e14612a755780631f88ea1c14612a5c578063218a3048146129c8578063218e68591461298e5780632258d105146129735780632943a49014612930578063303fb0d6146128ff578063393cb1c7146128b75780633d18b9121461289c5780633d57f5d914612881578063408def1e1461283557806340e8c56d146127e55780634421ea211461277e57806346c96aac146127555780634bc2a657146127125780634ff03efa14612473578063506ea7de146123c257806354fd4d50146123a457806356914caf146122155780635c975abb146121ef57806361d027b3146121c657806365d445fb14611fd6578063671f815214611c95578063682c205814611c77578063715018a614611c2c57806372dc0ee114611c0e57806375c7050914611b9c578063763253bb146119a957806377286d17146116b35780637881c5e6146116985780637b36006a1461167a5780638129fc1c146115b157806382b5077f146115885780638365779514611561578063839df945146115355780638b4d7b3514610e505780638da5cb5b14610e275780638e6d86fd14610e095780639280944414610deb57806393a090ec14610c3957806393f1f8ac14610bbd57806396bb02c314610b9f5780639b97511914610b815780639fd0506d14610b58578063a1975adf14610b3a578063a2492a9014610b1c578063a4fa8d5714610b03578063a53e252514610ae5578063a8f837f314610a7e578063ada82c7d146109bd578063b4dc35b714610991578063c17ddb2a14610973578063c1f7272314610955578063c24b56311461091b578063c31784be146108fd578063c55dae63146108d4578063cbd2422d1461080a578063cf596e45146107e4578063d1f0c9411461079a578063d2307ae414610760578063d278094014610713578063d2992baa146106c2578063d33b2ef514610669578063d8a6021c14610602578063dc06a89f146105e4578063e236f46b1461057b578063e579f500146104f1578063f1b8989d146104d3578063f2fde38b1461041a578063f43cc773146103fc5763fa52c7d8146103a457600080fd5b346103f75760203660031901126103f75760606001600160a01b03806103c861319f565b166000526077602052604060002080549160026001830154920154169060405192835260208301526040820152f35b600080fd5b346103f75760003660031901126103f7576020608654604051908152f35b346103f75760203660031901126103f75761043361319f565b61043b613476565b610443613476565b6001600160a01b0390811690811561047f57603380546001600160a01b031981168417909155166000805160206157e7833981519152600080a3005b60405162461bcd60e51b815260206004820152602660248201527f4f776e61626c653a206e6577206f776e657220697320746865207a65726f206160448201526564647265737360d01b6064820152608490fd5b346103f75760003660031901126103f7576020606e54604051908152f35b346103f75760203660031901126103f757600435600052607b6020526040600020805461057760018301549260ff6105306003600284015493016133d0565b916040519586958652602086015260018060a01b038116604086015260018060401b038160a01c16606086015260e01c16608084015260c060a084015260c0830190613341565b0390f35b346103f75760203660031901126103f75760043560005260766020526040600020805461057760018060a01b03600184015416926105c06003600283015492016133d0565b90604051948594855260208501526040840152608060608401526080830190613341565b346103f75760003660031901126103f7576020606d54604051908152f35b346103f75760203660031901126103f75761061b61319f565b610623613476565b606680546001600160a01b0319166001600160a01b039290921691821790557f6bdb9ceff405d990c9b60be9f719fbb80889d5f064e8fd76efd5bea353e90712600080a2005b346103f75760203660031901126103f757600435600052607e60205260806040600020600181549101546040519160018060a01b038116835260018060401b038160a01c16602084015260e01c60408301526060820152f35b346103f75760403660031901126103f7576001600160a01b036106e361319f565b16600052607960205260406000206024356000526020526040806000206001815491015482519182526020820152f35b346103f75760403660031901126103f75761072c613189565b600435600052607f60205260406000209060018060a01b0316600052602052602060ff604060002054166040519015158152f35b346103f75760203660031901126103f7576001600160a01b0361078161319f565b1660005260786020526020604060002054604051908152f35b346103f7576107a8366132da565b906000526081602052604060002080548210156103f7576020916107cb916132f0565b905460405160039290921b1c6001600160a01b03168152f35b346103f75760203660031901126103f7576020610802600435613656565b604051908152f35b346103f7576020806003193601126103f7576004359061083260ff60675460a01c16156145b2565b3360005260798152604060002082600052815260406000206108716040519161085a836131f6565b836001825492838652015493019283521515614649565b5133600052607a825261088a6040600020918254613511565b90553360005260798152604060002090826000525260006001604082208281550155337ff9d5cfcdfe9803069225971ba315f4302add9b477c3441cc363bc38fdb065b90600080a3005b346103f75760003660031901126103f7576065546040516001600160a01b039091168152602090f35b346103f75760003660031901126103f7576020607054604051908152f35b346103f75760203660031901126103f7576001600160a01b0361093c61319f565b1660005260886020526020604060002054604051908152f35b346103f75760003660031901126103f7576020608954604051908152f35b346103f75760003660031901126103f7576020606954604051908152f35b346103f75760203660031901126103f75760043560005260836020526020604060002054604051908152f35b346103f75760003660031901126103f7576109e060ff60675460a01c16156145b2565b60655460665460685460405163a9059cbb60e01b81529260209284926001600160a01b039283169284926000928492610a1d9216600484016145ff565b03925af18015610a7257610a44575b610a3a606854608654613511565b6086556000606855005b610a649060203d8111610a6b575b610a5c8183613247565b8101906145e7565b5080610a2c565b503d610a52565b6040513d6000823e3d90fd5b346103f75760203660031901126103f7576004356001600160401b038116908190036103f757610aac613476565b606a80546001600160401b031916821790557fa15d6b0930a82638ac4775bfd1b2e9f1e86be67e1bd3a09fa8a77a8f079769d7600080a2005b346103f75760003660031901126103f7576020607554604051908152f35b346103f7576020610802610b16366132da565b90614431565b346103f75760003660031901126103f7576020608a54604051908152f35b346103f75760003660031901126103f7576020608754604051908152f35b346103f75760003660031901126103f7576067546040516001600160a01b039091168152602090f35b346103f75760003660031901126103f7576020608454604051908152f35b346103f75760003660031901126103f7576020606c54604051908152f35b346103f75760207f0321e8a918b4c47bf3677852c070983825f30a47bc8d9416691454fa6a727d63610bee366132da565b610bf9939193613476565b6000848152607683526040902060010154610c1e906001600160a01b031615156134ce565b836000526076825280600260406000200155604051908152a2005b346103f75760403660031901126103f757610c5261319f565b602435610c6760ff60675460a01c16156145b2565b6065546040516323b872dd60e01b81526001600160a01b03916020919082908290851681600081610c9d8a30336004850161461a565b03925af18015610a7257610dce575b50610cb98360865461463c565b60865581610cc5613585565b94169384600052607782526040600020548482821115610d9f575b50505083600052607781526040600020610d00846001830154925461463c565b60405190939060608101906001600160401b03821181831017610d89577f8d4844488c19a90828439e71d14ebad860806d04f8ef8b25a82179fab2699b89956002926040528152848101938452604081019388855288600052607786526040600020915182555160018201550191511660018060a01b03198254161790556040519283523392a3005b634e487b7160e01b600052604160045260246000fd5b610da89161463c565b1015610db7575b848084610ce0565b836000526077815242600160406000200155610daf565b610de490823d8411610a6b57610a5c8183613247565b5084610cac565b346103f75760003660031901126103f7576020607154604051908152f35b346103f75760003660031901126103f7576020607454604051908152f35b346103f75760003660031901126103f7576033546040516001600160a01b039091168152602090f35b346103f75760403660031901126103f7576024803563ffffffff81168091036103f757610e8560ff60675460a01c16156145b2565b6004356000908152607e60205260409020546001600160a01b0316156114f457610eb06004356153ae565b156114b657801561148157600435600052608160205263ffffffff6040600020541691608260205263ffffffff60406000205416607e60205260406000205460e01c9363ffffffff8486011161146c57600435600052607e6020526001604060002001549180821160001461128d5782610f299161351e565b600182148015611278578182915b1561125157505060005b865b63ffffffff8789011681106110f3575050505050600435600052607e60205260406000205460e01c15610fc6575b505b600435600052607e602052610f8e818301604060002061538b565b63ffffffff6040519183011681527f71d8c71303e35a39162e33a402c9897bf9848388537bac7d5e1b0d202eca4e66602060043592a3005b611010602060018060a01b0360655416607b82526040600020906001808060a01b0360028401541692015491600060405180968195829463a9059cbb60e01b8452600484016145ff565b03925af18015610a72576110d4575b50600435600052607b60205261103f600160406000200154608654613511565b60865560043560005260836020526040600020549060816020526040600020908154156110c0575060005260018060a01b03602060002054166000526077602052611090604060002091825461463c565b9055600435600052607d60205260018060a01b036040600020541660005260856020524260406000205582610f71565b634e487b7160e01b60009081526032600452fd5b6110ec9060203d602011610a6b57610a5c8183613247565b508361101f565b808484921061110c575b6111079150614901565b610f43565b60043560005260816020526111258160406000206132f0565b60018060a01b0391549060031b1c16806000526077602052604060002061114d88825461463c565b905583826111d7575060655460405163a9059cbb60e01b81529360209285926001600160a01b0316918391600091839161118b9190600484016145ff565b03925af1918215610a7257611107926111b8575b5060866111ad858254613511565b90555b8391506110fd565b6111d09060203d602011610a6b57610a5c8183613247565b508961119f565b611209935060209160018060a01b036065541690600060405180978195829463a9059cbb60e01b8452600484016145ff565b03925af1918215610a725761110792611232575b50608661122b848254613511565b90556111b0565b61124a9060203d602011610a6b57610a5c8183613247565b508961121d565b6112739161125e91613511565b63ffffffff61126c85615516565b1690613531565b610f41565b6112858260011c83613511565b918291610f37565b9180935061129a9161351e565b600182148015611460578182915b1561144e57505060005b855b63ffffffff8688011681106112f0575050505050600435600052607e60205260406000205460e01c610f73576112eb600435614d3e565b610f73565b8084849210611309575b6113049150614901565b6112b4565b60043560005260826020526113228160406000206132f0565b60018060a01b0391549060031b1c16806000526077602052604060002061134a88825461463c565b905583826113d4575060655460405163a9059cbb60e01b81529360209285926001600160a01b031691839160009183916113889190600484016145ff565b03925af1918215610a7257611304926113b5575b5060866113aa858254613511565b90555b8391506112fa565b6113cd9060203d602011610a6b57610a5c8183613247565b508861139c565b611406935060209160018060a01b036065541690600060405180978195829463a9059cbb60e01b8452600484016145ff565b03925af1918215610a72576113049261142f575b506086611428848254613511565b90556113ad565b6114479060203d602011610a6b57610a5c8183613247565b508861141a565b61145b9161125e91613511565b6112b2565b8160011c9182916112a8565b82634e487b7160e01b60005260116004526000fd5b60405162461bcd60e51b815260206004820152600e818401526d185b5b9d081d1bdbc81cdb585b1b60921b6044820152606490fd5b60405162461bcd60e51b815260206004820152601781840152761d9bdd1a5b99c81c195c9a5bd9081b9bdd08195b991959604a1b6044820152606490fd5b60405162461bcd60e51b815260206004820152601a818401527918dbdb9d195cdd185d1a5bdb88191bd95cdb89dd08195e1a5cdd60321b6044820152606490fd5b346103f75760203660031901126103f757600435600052607c6020526020604060002054604051908152f35b346103f75760403660031901126103f757602061080261157f61319f565b60243590615415565b346103f75760003660031901126103f757608b546040516001600160a01b039091168152602090f35b346103f75760003660031901126103f75760005460ff8160081c16158061166d575b156116115760059061ffff1916176000557f7f26b83ff96e1f2b6a682f133852f6798a09c465da95921460cefb3847402498602060405160058152a1005b60405162461bcd60e51b815260206004820152602e60248201527f496e697469616c697a61626c653a20636f6e747261637420697320616c72656160448201526d191e481a5b9a5d1a585b1a5e995960921b6064820152608490fd5b50600560ff8216106115d3565b346103f75760003660031901126103f7576020607354604051908152f35b346103f75760003660031901126103f757602061080261448f565b346103f7576020806003193601126103f7576004356116da60ff60675460a01c16156145b2565b6000818152607d8084526040808320546001600160a01b03908116845260778652818420548585528387528285205482168552607a8752919093205461171f91613511565b611727613585565b11611965578260005280845281604060002054161561192b5782600052607e845281604060002054166118f35760008381528185526040902054607154906001600160401b039060a01c811661177d8342613511565b11156118bb57846000528286526117b56117ac604060002054938685166000526085895260406000205461463c565b6073549061463c565b9160a01c16111561185f578260005280845260ff60406000205460e01c16611828579082916118269483600052526040600020805490600160e01b60ff60e01b198316179055167f0b76b4ae356796814d36b46f7c500bbd27b2cce1e6059a6fa2bebfd5a389b190600080a3614d3e565b005b60405162461bcd60e51b815260048101859052600f60248201526e185b1c9958591e4818db185a5b5959608a1b6044820152606490fd5b60405162461bcd60e51b815260048101859052602e60248201527f636c61696d536f6c7574696f6e20636f6f6c646f776e206166746572206c6f7360448201526d3a1031b7b73a32b9ba30ba34b7b760911b6064820152608490fd5b60405162461bcd60e51b815260048101879052601060248201526f6e6f7420656e6f7567682064656c617960801b6044820152606490fd5b60405162461bcd60e51b815260048101859052601060248201526f3430b99031b7b73a32b9ba30ba34b7b760811b6044820152606490fd5b60405162461bcd60e51b81526004810185905260126024820152711cdbdb1d5d1a5bdb881b9bdd08199bdd5b9960721b6044820152606490fd5b60405162461bcd60e51b815260048101859052601c60248201527b76616c696461746f72206d696e207374616b656420746f6f206c6f7760201b6044820152606490fd5b346103f75760403660031901126103f7576004356119c5613189565b6119d760ff60675460a01c16156145b2565b3360005260209060798252604060002083600052825260406000206040516119fe816131f6565b611a1960018354938484520154928583019384521515614649565b514210611b69573360005260778352604060002054815111611b2f5760009060018060a01b039084611a688360655416835160405196878094819363a9059cbb60e01b83528b600484016145ff565b03925af1928315610a72577f109aeff667601aad33abcb7c5df1617754eefd18253d586a95c198cb479b5bd493611b12575b5080513360005260778652611ab56040600020918254613511565b9055611ac48151608654613511565b608655805133600052607a8652611ae16040600020918254613511565b90553360005260798552604060002086600052855260006001604082208281550155519260405193845216923392a4005b611b2890863d8811610a6b57610a5c8183613247565b5086611a9a565b60405162461bcd60e51b81526004810184905260126024820152711cdd185ad9481a5b9cdd59999a58da595b9d60721b6044820152606490fd5b60405162461bcd60e51b815260048101849052600b60248201526a3bb0b4ba103637b733b2b960a91b6044820152606490fd5b346103f75760203660031901126103f757600435600052607d60205260ff6040600020610577611bd06001835493016133d0565b60405193849360018060a01b038116855260018060401b038160a01c16602086015260e01c1615156040840152608060608401526080830190613341565b346103f75760003660031901126103f7576020606f54604051908152f35b346103f75760003660031901126103f757611c45613476565b603380546001600160a01b031981169091556000906001600160a01b03166000805160206157e78339815191528280a3005b346103f75760003660031901126103f7576020606854604051908152f35b346103f7576020806003193601126103f75760043590611cbd60ff60675460a01c16156145b2565b611cce611cc933614d07565b614cc6565b6000828152607d825260409020546001600160a01b039190821615611f985782600052607e81528160406000205416611f56576000838152607d825260409020546071546001600160401b039291611d2b919060a01c841661463c565b421015611f275783600052607d815260ff60406000205460e01c16611efd57611d52613551565b9160405190611d608261322c565b338252611db763ffffffff848401928042168452611daf60408601916000835260608701958987528b600052607e89528a604060002098511660018060a01b03198954161788555116866146d0565b51168361538b565b5160018092015584337f6958c989e915d3e41a35076e3c480363910055408055ad86ae1ee13d41c40640600080a3607f8252604060002033600052825260406000209360ff199482868254161790558560005260818352611e1c3360406000206154db565b85600052607e835281604060002001543360005260778452611e446040600020918254613511565b905560405193828552866000805160206158278339815191529586863392a386600052607d84528160406000205416600052607784526040600020541015611e8857005b85600052607d83526040600020541693607f83526040600020856000528352816040600020918254161790558460005260828252611eca8460406000206154db565b84600052607e8252604060002001548360005260778252611ef16040600020918254613511565b905560405160008152a3005b6064906040519062461bcd60e51b8252600482015260036024820152623bba3360e91b6044820152fd5b6064906040519062461bcd60e51b825260048201526008602482015267746f6f206c61746560c01b6044820152fd5b6064906040519062461bcd60e51b82526004820152601b60248201527a636f6e746573746174696f6e20616c72656164792065786973747360281b6044820152fd5b6064906040519062461bcd60e51b8252600482015260176024820152761cdbdb1d5d1a5bdb88191bd95cc81b9bdd08195e1a5cdd604a1b6044820152fd5b346103f75760403660031901126103f7576001600160401b036004358181116103f757612007903690600401613366565b9060249283358181116103f757612022903690600401613366565b949061203660ff60675460a01c16156145b2565b33600052602091608583526120566117ac6040600020546071549061463c565b42111561217d576120698660845461351e565b33600052607784526120816040600020918254613511565b9055336000526088835261209a60406000205442613511565b670de0b6b3a76400006120af8860875461351e565b041015612144573360005260888352426040600020556120d1611cc933614d07565b60005b8681106120dd57005b8060051b908881101561212f5781840135601e19853603018112156103f7578401918235928784116103f75786019280360384136103f75761212a93612125928a013561499a565b614901565b6120d4565b82634e487b7160e01b60005260326004526000fd5b8260136064926040519262461bcd60e51b84526004840152820152721cdbdb1d5d1a5bdb881c985d19481b1a5b5a5d606a1b6044820152fd5b82602f6084926040519262461bcd60e51b845260048401528201526000805160206157c783398151915260448201526e39ba1031b7b73a32b9ba30ba34b7b760891b6064820152fd5b346103f75760003660031901126103f7576066546040516001600160a01b039091168152602090f35b346103f75760003660031901126103f757602060ff60675460a01c166040519015158152f35b346103f75760403660031901126103f7576024356001600160401b0381116103f7576122459036906004016131c9565b61225760ff60675460a01c16156145b2565b33600052602091608583526122776117ac6040600020546071549061463c565b42111561235957608454808004600114811517156123435733600052607784526122a76040600020918254613511565b905533600052608883526122c060406000205442613511565b6087548080046001148115171561234357670de0b6b3a76400009004101561230857608861182693336000525242604060002055612300611cc933614d07565b60043561499a565b60405162461bcd60e51b81526004810184905260136024820152721cdbdb1d5d1a5bdb881c985d19481b1a5b5a5d606a1b6044820152606490fd5b634e487b7160e01b600052601160045260246000fd5b60405162461bcd60e51b815260048101849052602f60248201526000805160206157c783398151915260448201526e39ba1031b7b73a32b9ba30ba34b7b760891b6064820152608490fd5b346103f75760003660031901126103f7576020606b54604051908152f35b346103f75760203660031901126103f7576004356123e860ff60675460a01c16156145b2565b80600052607c60205260406000205461243a57612403614910565b81600052607c602052604060002055337f09b4c028a2e50fec6f1c6a0163c59e8fbe92b231e5c03ef3adec585e63a14b92600080a3005b60405162461bcd60e51b8152602060048201526011602482015270636f6d6d69746d656e742065786973747360781b6044820152606490fd5b346103f75760603660031901126103f75761248c61319f565b6001600160401b03906044358281116103f7576124ad9036906004016131c9565b91906124c160ff60675460a01c16156145b2565b6001600160a01b039182169283156126d2576124dc9161552c565b90604051936124ea8561322c565b602435855260209485810194855260408101600081526060820194855261251133836135b2565b9586600052607688526001948086604060002001541661269257600088815260768a526040902093518455905185840180546001600160a01b031916919092161790555160028201559251805160039490940193918211610d89576125768454613396565b601f8111612649575b508590601f83116001146125e6579282939183926000946125db575b50501b916000199060031b1c19161790555b60405190807fa4b0af38d049ba81703a0d0e46cc2ff39681210302134046237111a8fb7dee72600080a28152f35b01519250878061259b565b90601f198316918560005283886000209360005b8a888383106126325750505010612619575b505050811b0190556125ad565b015160001960f88460031b161c1916905585808061260c565b8686015188559096019594850194879350016125fa565b8460005286600020601f840160051c810191888510612688575b601f0160051c019084905b82811061267c57505061257f565b6000815501849061266e565b9091508190612663565b60405162461bcd60e51b8152600481018a905260186024820152771b5bd9195b08185b1c9958591e481c9959da5cdd195c995960421b6044820152606490fd5b60405162461bcd60e51b815260206004820152601860248201527761646472657373206d757374206265206e6f6e2d7a65726f60401b6044820152606490fd5b346103f75760203660031901126103f75761272b61319f565b612733613476565b608d80546001600160a01b0319166001600160a01b0392909216919091179055005b346103f75760003660031901126103f757608d546040516001600160a01b039091168152602090f35b346103f75760203660031901126103f75761279761319f565b61279f613476565b606780546001600160a01b0319166001600160a01b039290921691821790557f5a85b4270fc1e75035e6cd505418ce65e0bcc36cc7eb9ce9e6f8c6181d4cb577600080a2005b346103f75760203660031901126103f7576004356001600160401b0381116103f75761282161281b6105779236906004016131c9565b9061552c565b604051918291602083526020830190613341565b346103f75760203660031901126103f7577f8c854a81cb5c93e7e482d30fb9c6f88fdbdb320f10f7a853c2263659b54e563f6020600435612874613476565b80606b55604051908152a1005b346103f75760003660031901126103f7576020610802613551565b346103f75760003660031901126103f757602061080261453f565b346103f75760603660031901126103f7576128d061319f565b6044356001600160401b0381116103f7576020916128f56108029236906004016131c9565b9160243590614561565b346103f75761290d366132da565b906000526082602052604060002080548210156103f7576020916107cb916132f0565b346103f75760203660031901126103f75761294961319f565b612951613476565b608b80546001600160a01b0319166001600160a01b0392909216919091179055005b346103f75760003660031901126103f7576020610802613585565b346103f75760203660031901126103f7576001600160a01b036129af61319f565b1660005260856020526020604060002054604051908152f35b346103f7576003196040368201126103f7576001600160401b0390600435908282116103f75760809082360301126103f757604051612a068161322c565b81600401358152612a19602483016131b5565b60208201526044820135604082015260648201359283116103f757612a49610802926004602095369201016132bc565b6060820152612a56613189565b906135b2565b346103f7576020610802612a6f366132da565b9061404b565b346103f75760203660031901126103f7576001600160a01b03612a9661319f565b16600052607a6020526020604060002054604051908152f35b346103f75760403660031901126103f757600435602435801515908181036103f757612ae360ff60675460a01c16156145b2565b612aef611cc933614d07565b612af98333615415565b612ba1576000805160206158278339815191529083600052602090607f825260406000203360005282526040600020600160ff19825416179055600014612b86578360005260818152612b503360406000206154db565b83600052607e81526001604060002001543360005260778252612b796040600020918254613511565b90556040519283523392a3005b8360005260828152612b9c3360406000206154db565b612b50565b60405162461bcd60e51b815260206004820152600b60248201526a1b9bdd08185b1b1bddd95960aa1b6044820152606490fd5b346103f75760203660031901126103f75760043560005260806020526020604060002054604051908152f35b346103f75760203660031901126103f7576004358015158091036103f7576067546001600160a01b0381163303612c6e5760ff60a01b191660a082901b60ff60a01b16176067557fd83d5281277e107f080e362699d46082adb74e7dc6a9bccbc87d8ae9533add44600080a2005b60405162461bcd60e51b815260206004820152600a6024820152693737ba103830bab9b2b960b11b6044820152606490fd5b346103f7576003196060368201126103f7576001600160401b0390600435908282116103f75760c09082360301126103f757604051612cde81613211565b8160040135815260248201356020820152612cfb604483016131b5565b6040820152606482013583811681036103f7576060820152608482013560ff811681036103f757608082015260a48201359283116103f757612d48610802926004602095369201016132bc565b60a0820152612d55613189565b6044359161360b565b346103f75760003660031901126103f7576020608c54604051908152f35b346103f75760003660031901126103f757606a546040516001600160401b039091168152602090f35b346103f7576020806003193601126103f757600435612dcc60ff60675460a01c16156145b2565b336000526077825280612dee604060002054607a855260406000205490613511565b10612eb657612dff6075544261463c565b90336000526078835260406000208054906001820180921161234357553360005260788352604060002054918291604051612e39816131f6565b8281526001868201838152336000526079885260406000208660005288526040600020925183555191015533600052607a85526040600020612e7c82825461463c565b9055604051918252848201527fcc7e0e76b20394ef965d71c4111d21e1b322bb8775dc2c7acd29eb0d3c3dd96d60403392a3604051908152f35b60405162461bcd60e51b81526004810183905260006024820152604490fd5b346103f75760c03660031901126103f757612eee613179565b612ef6613189565b6044359160643591906084356001600160401b0381116103f757612f1e9036906004016131c9565b929094612f8260a43594612f3a60ff60675460a01c16156145b2565b6000838152607660205260409020600101546001600160a01b039890612f63908a1615156134ce565b836000526076602052612f7d604060002054891015614689565b61552c565b9160005b85811061300c57600087876020612fc38c60655416612fa5848661351e565b6040519687809481936323b872dd60e01b835230336004850161461a565b03925af1918215610a7257612fe993612fe193612fee575b5061351e565b60865461463c565b608655005b6130059060203d8111610a6b57610a5c8183613247565b5084612fdb565b61301d90612125858986868a6146f9565b612f86565b346103f75760a03660031901126103f75761303b613179565b613043613189565b6064359160443591906084356001600160401b0381116103f7576130cc936130d293613074879336906004016131c9565b61308960ff60679993995460a01c16156145b2565b6000848152607660205260409020600101546001600160a01b0398906130b2908a1615156134ce565b846000526076602052612f7d604060002054871015614689565b936146f9565b6065541690602060405180936323b872dd60e01b8252816000816130fb8730336004850161461a565b03925af1918215610a7257612fe992613118575b5060865461463c565b61312f9060203d8111610a6b57610a5c8183613247565b508261310f565b346103f75760203660031901126103f75760206131546004356153ae565b6040519015158152f35b346103f75760003660031901126103f7576020906072548152f35b6004359060ff821682036103f757565b602435906001600160a01b03821682036103f757565b600435906001600160a01b03821682036103f757565b35906001600160a01b03821682036103f757565b9181601f840112156103f7578235916001600160401b0383116103f757602083818601950101116103f757565b604081019081106001600160401b03821117610d8957604052565b60c081019081106001600160401b03821117610d8957604052565b608081019081106001600160401b03821117610d8957604052565b601f909101601f19168101906001600160401b03821190821017610d8957604052565b6001600160401b038111610d8957601f01601f191660200190565b9291926132918261326a565b9161329f6040519384613247565b8294818452818301116103f7578281602093846000960137010152565b9080601f830112156103f7578160206132d793359101613285565b90565b60409060031901126103f7576004359060243590565b80548210156133085760005260206000200190600090565b634e487b7160e01b600052603260045260246000fd5b60005b8381106133315750506000910152565b8181015183820152602001613321565b9060209161335a8151809281855285808601910161331e565b601f01601f1916010190565b9181601f840112156103f7578235916001600160401b0383116103f7576020808501948460051b0101116103f757565b90600182811c921680156133c6575b60208310146133b057565b634e487b7160e01b600052602260045260246000fd5b91607f16916133a5565b90604051918260008254926133e484613396565b9081845260019485811690816000146134535750600114613410575b505061340e92500383613247565b565b9093915060005260209081600020936000915b81831061343b57505061340e93508201013880613400565b85548884018501529485019487945091830191613423565b91505061340e94506020925060ff191682840152151560051b8201013880613400565b6033546001600160a01b0316330361348a57565b606460405162461bcd60e51b815260206004820152602060248201527f4f776e61626c653a2063616c6c6572206973206e6f7420746865206f776e65726044820152fd5b156134d557565b60405162461bcd60e51b81526020600482015260146024820152731b5bd9195b08191bd95cc81b9bdd08195e1a5cdd60621b6044820152606490fd5b9190820391821161234357565b8181029291811591840414171561234357565b811561353b570490565b634e487b7160e01b600052601260045260246000fd5b61355961448f565b606d5490670de0b6b3a7640000918203918083116123435761357e6132d7938361351e565b0490613511565b61358d61448f565b606c5490670de0b6b3a7640000918203918083116123435761357e6132d7938361351e565b61360560018060a01b036135f78160208501511693606081519101519060405195869460208601981688526040850152606084015260808084015260a0830190613341565b03601f198101835282613247565b51902090565b9091613605906135f783519360a0602082015191015190604051958694602086019860018060a01b0316895260408601526060850152608084015260a08084015260c0830190613341565b63bbf81e0081116136e05761366a906136ef565b680a688906bd8affffff81116136c857613691670de0b6b3a7640000809260401b0461383a565b90811561353b57697f0e10af47c1c7000000917105f95e44a0e2947c3011ad48e1abf7023b57603c1b040481039081116123435790565b6024906040519063b3b6ba1f60e01b82526004820152fd5b50697f0e10af47c1c700000090565b670de0b6b3a764000091906000198382098382029182808310920391808303921461377d576301e13380908183101561375a57947f98f5be4dd1e14769fbd6666224dc1eb80dd2e0a3d2c8b328f57e76b7ae10395794950990828211900360f91b910360071c170290565b6064918660405192630c740aef60e31b8452600484015260248301526044820152fd5b50506301e1338090049150565b670de0b6b3a764000091600019838309928083029283808610950394808603951461382d578285101561380a57908291096001821901821680920460028082600302188083028203028083028203028083028203028083028203028083028203028092029003029360018380600003040190848311900302920304170290565b8260649260405192630c740aef60e31b8452600484015260248301526044820152fd5b5050906132d79250613531565b600160bf1b60ff60381b8216613f42575b670de0b6b3a76400009060ff60301b8316613e4a575b60ff60281b8316613d52575b60ff60201b8316613c5a575b63ff0000008316613b62575b62ff00008316613a73575b61ff008316613994575b60ff83166138af575b029060401c60bf031c90565b60808316613983575b6040808416613970575b6020841661395d575b6010841661394a575b60088416613937575b60048416613924575b60028416613911575b600184166138fe575b506138a3565b6001600160401b01909102901c386138f8565b6001600160401b01909102811c906138ef565b6003600160401b01909102811c906138e6565b6006600160401b01909102811c906138dd565b600b600160401b01909102811c906138d4565b6016600160401b01909102811c906138cb565b602c600160401b01909102811c906138c2565b6059600160401b010260401c6138b8565b6180008316613a61575b6140008316613a4f575b6120008316613a3d575b6110008316613a2b575b6108008316613a19575b6104008316613a07575b61020083166139f5575b61010083161561389a5760b1600160401b010260401c61389a565b610163600160401b010260401c6139da565b6102c6600160401b010260401c6139d0565b61058c600160401b010260401c6139c6565b610b17600160401b010260401c6139bc565b61162e600160401b010260401c6139b2565b612c5d600160401b010260401c6139a8565b6158b9600160401b010260401c61399e565b628000008316613b4f575b624000008316613b3c575b622000008316613b29575b621000008316613b16575b620800008316613b03575b620400008316613af0575b620200008316613add575b620100008316156138905761b172600160401b010260401c613890565b680100000000000162e40260401c613ac0565b6801000000000002c5c80260401c613ab5565b68010000000000058b910260401c613aaa565b680100000000000b17210260401c613a9f565b68010000000000162e430260401c613a94565b680100000000002c5c860260401c613a89565b6801000000000058b90c0260401c613a7e565b63800000008316613c47575b63400000008316613c34575b63200000008316613c21575b63100000008316613c0e575b63080000008316613bfb575b63040000008316613be8575b63020000008316613bd5575b63010000008316156138855768010000000000b172180260401c613885565b6801000000000162e4300260401c613bb6565b68010000000002c5c8600260401c613baa565b680100000000058b90c00260401c613b9e565b6801000000000b17217f0260401c613b92565b680100000000162e42ff0260401c613b86565b6801000000002c5c85fe0260401c613b7a565b68010000000058b90bfc0260401c613b6e565b600160271b8316613d3f575b600160261b8316613d2c575b600160251b8316613d19575b600160241b8316613d06575b600160231b8316613cf3575b600160221b8316613ce0575b600160211b8316613ccd575b600160201b83161561387957680100000000b17217f80260401c613879565b68010000000162e42ff10260401c613cae565b680100000002c5c85fe30260401c613ca2565b6801000000058b90bfce0260401c613c96565b68010000000b17217fbb0260401c613c8a565b6801000000162e42fff00260401c613c7e565b68010000002c5c8601cc0260401c613c72565b680100000058b90c0b490260401c613c66565b6001602f1b8316613e37575b6001602e1b8316613e24575b6001602d1b8316613e11575b6001602c1b8316613dfe575b6001602b1b8316613deb575b6001602a1b8316613dd8575b600160291b8316613dc5575b600160281b83161561386d576801000000b1721835510260401c61386d565b680100000162e430e5a20260401c613da6565b6801000002c5c863b73f0260401c613d9a565b68010000058b90cf1e6e0260401c613d8e565b680100000b1721bcfc9a0260401c613d82565b68010000162e43f4f8310260401c613d76565b680100002c5c89d5ec6d0260401c613d6a565b6801000058b91b5bc9ae0260401c613d5e565b600160371b8316613f2f575b600160361b8316613f1c575b600160351b8316613f09575b600160341b8316613ef6575b600160331b8316613ee3575b600160321b8316613ed0575b600160311b8316613ebd575b600160301b8316156138615768010000b17255775c040260401c613861565b6801000162e525ee05470260401c613e9e565b68010002c5cc37da94920260401c613e92565b680100058ba01fb9f96d0260401c613e86565b6801000b175effdc76ba0260401c613e7a565b680100162f3904051fa10260401c613e6e565b6801002c605e2e8cec500260401c613e62565b68010058c86da1c09ea20260401c613e56565b6001603f1b8216614038575b670de0b6b3a7640000906001603e1b8316614025575b6001603d1b8316614012575b6001603c1b8316613fff575b6001603b1b8316613fec575b6001603a1b8316613fd9575b600160391b8316613fc6575b600160381b8316613fb3575b905061384b565b680100b1afa5abcbed610260401c613fac565b68010163da9fb33356d80260401c613fa0565b680102c9a3e778060ee70260401c613f94565b6801059b0d31585743ae0260401c613f88565b68010b5586cf9890f62a0260401c613f7c565b6801172b83c7d517adce0260401c613f70565b6801306fe0a31b7152df0260401c613f64565b5068016a09e667f3bcc909607f1b613f4e565b80151580614307575b156142d75761406290613656565b90600160ff1b80821480156142ce575b61421b5760008212156142c55761409a826000035b60008512156142be57846000039061378a565b6001600160ff1b03928382116142a05760001994600091188512156142995750915b670cf4ad2e86166c9c831261428857670de0b6b3a763ffff199280840190600181831316612343578382148015614280575b61426e57600082121561426457670de0b6b3a76400006141119160000301614392565b9082821161423d578568056bc75e2d6310000060009218136000146142365750925b8301838113600116612343578312600116612343576801158e460913d0000083121561422d57600083129384156141945750508114614182576132d7911561417d57600003614310565b614310565b60405163ec2b9e6760e01b8152600490fd5b91926141a1919450614310565b91821461421b57600082121561421557816000035b801561353b576a0c097ce7bc90715b34b9f160241b049283116141ee57600091670de0b6b3a76400001813156141ea575090565b0390565b60405163d49c26b360e01b8152670de0b6b3a7640000600482015260248101839052604490fd5b816141b6565b6040516309fe2b4560e41b8152600490fd5b50505050600090565b0392614133565b6044906040519063120b5b4360e01b8252600482015268056bc75e2d631000006024820152fd5b5061411181614392565b60405163a6070c2560e01b8152600490fd5b5060006140ee565b5050505068056bc75e2d6310000090565b03916140bc565b604490856040519163d49c26b360e01b835260048301526024820152fd5b849061378a565b61409a82614087565b50808314614072565b60405162461bcd60e51b81526020600482015260086024820152676d696e2076616c7360c01b6044820152606490fd5b50811515614054565b60008112156143555768033dd1780914b9711419811261434f5761433690600003614310565b801561353b576a0c097ce7bc90715b34b9f160241b0590565b50600090565b680a688906bd8affffff811361437b57670de0b6b3a76400006132d79160401b0561383a565b60249060405190626c1a0560e31b82526004820152fd5b68056bc75e2d6310000091906000198382098382029182808310920391808303921461442057670de0b6b3a7640000908183101561440257947faccb18165bd6fe31ae1cf318dc5b51eee0e1ba569b88cd74c1773b91fac1066994950990828211900360ee1b910360121c170290565b6044908660405191635173648d60e01b835260048301526024820152fd5b5050670de0b6b3a764000090049150565b90801561448157697f0e10af47c1c70000009080820382811161234357670de0b6b3a764000093848202918204851483851417156123435761447c926144769161404b565b9061351e565b040490565b5050670de0b6b3a764000090565b6065546040516370a0823160e01b815230600482015290602090829060249082906001600160a01b03165afa908115610a725760009161450b575b50697f0e10af47c1c70000009081811015614504576144ef6144f89160865490613511565b608c5490613511565b81039081116123435790565b5050600090565b906020823d8211614537575b8161452460209383613247565b81010312614534575051386144ca565b80fd5b3d9150614517565b606a546132d790614559906001600160401b031642613511565b610b1661448f565b926136059160a091806040519586936020850198600180881b031689526040850152606080850152816080850152848401376000838284010152601f80199101168101036080810184520182613247565b156145b957565b60405162461bcd60e51b81526020600482015260066024820152651c185d5cd95960d21b6044820152606490fd5b908160209103126103f7575180151581036103f75790565b6001600160a01b039091168152602081019190915260400190565b6001600160a01b03918216815291166020820152604081019190915260600190565b9190820180921161234357565b1561465057565b60405162461bcd60e51b81526020600482015260116024820152701c995c5d595cdd081b9bdd08195e1a5cdd607a1b6044820152606490fd5b1561469057565b60405162461bcd60e51b81526020600482015260186024820152776c6f77657220666565207468616e206d6f64656c2066656560401b6044820152606490fd5b8054600160a01b600160e01b03191660a09290921b600160a01b600160e01b0316919091179055565b6040519461470686613211565b8386526020918287018681526003604089019860018060a01b038097168a52606081019960018060401b03948542168c5260ff608084019116815260a0830196875261479386614759606954338761360b565b9d8e976000988952607b8c526040892096518755519b60019c8d8801556002870195511660018060a01b03198654161785555116836146d0565b5181549060ff60e01b9060e01b169060ff60e01b191617905501925180519283116148ed57908392916147c88a969554613396565b601f8111614895575b508491601f8411600114614825579596600080516020615807833981519152969284928361481a575b50501b916000199060031b1c19161790555b6040519485523394a4606955565b0151925038806147fa565b90969291601f198316858352868320925b81811061487d57509783600080516020615807833981519152989910614864575b505050811b01905561480c565b015160001960f88460031b161c19169055388080614857565b8983015184558c985092850192918701918701614836565b90919293809596508352858320601f850160051c8101918786106148e3575b8b97969594939291601f8a920160051c01915b8281106148d55750506147d1565b8481558c98508991016148c7565b90915081906148b4565b634e487b7160e01b82526041600452602482fd5b60001981146123435760010190565b61a4ba4614801561498e575b8015614982575b61492b574390565b60405163a3b1b31d60e01b815260208160048160645afa908115610a7257600091614954575090565b906020823d821161497a575b8161496d60209383613247565b8101031261453457505190565b3d9150614960565b5062066eee4614614923565b5062066eed461461491c565b91600091838352602091607b83526040918285205415614c8c57858552607d8452828520546001600160a01b0392908316614c4b576149db81838933614561565b808752607c86528487205415614c0d578652607c8552838620546149fd614910565b1115614bcc57614a3990614a68855193614a168561322c565b33855287850160018060401b039485928342168352898801958c87523691613285565b606087019081528b8b52607d8a52888b20965187546001600160a01b03191698169790971786555116846146d0565b51825460ff60e01b191690151560e01b60ff60e01b16178255915180516001928301939091908211614bb857614a9e8454613396565b601f8111614b72575b508590601f8311600114614b13579282939183928994614b08575b50501b916000199060031b1c19161790555b608360845492858552528220557f957c18b5af8413899ea8a576a4d3fb16839a02c9fccfdce098b6d59ef248525b339180a3565b015192503880614ac2565b848852868820919083601f1981168a5b8a88838310614b5b5750505010614b42575b505050811b019055614ad4565b015160001960f88460031b161c19169055388080614b35565b868601518855909601959485019487935001614b23565b848852868820601f840160051c810191888510614bae575b601f0160051c019084905b828110614ba3575050614aa7565b898155018490614b95565b9091508190614b8a565b634e487b7160e01b87526041600452602487fd5b835162461bcd60e51b815260048101869052601a60248201527918dbdb5b5a5d1b595b9d081b5d5cdd081899481a5b881c185cdd60321b6044820152606490fd5b845162461bcd60e51b81526004810187905260176024820152761b9bdb88195e1a5cdd195b9d0818dbdb5b5a5d1b595b9d604a1b6044820152606490fd5b835162461bcd60e51b815260048101869052601a6024820152791cdbdb1d5d1a5bdb88185b1c9958591e481cdd589b5a5d1d195960321b6044820152606490fd5b825162461bcd60e51b81526004810185905260136024820152721d185cdac8191bd95cc81b9bdd08195e1a5cdd606a1b6044820152606490fd5b15614ccd57565b60405162461bcd60e51b81526020600482015260126024820152716d696e207374616b656420746f6f206c6f7760701b6044820152606490fd5b60018060a01b03166000526077602052614d31604060002054607a60205260406000205490613511565b614d39613585565b111590565b6000818152602090607b825260409182822054938483526076825283832054818452607b8352600185852001548111615384575b8061530d575b614d8f90828552607b845260018686200154613511565b94606e54670de0b6b3a76400009081038181116152f95781614db4614dbb928a61351e565b0488613511565b96614dc88860685461463c565b60685584614dd68983613511565b615279575b5050608b54865163ebe2b12b60e01b81526001600160a01b039360049290919085169087818581855afa908115615088579088918a9161524a575b504211615181575b5050808752607686526002888820015490839085608d541690816150c1575b5050811515806150b8575b614ea4575b5050505092607b60019383614e9f9896614e9798958552608383528585205490607d84528686205416855260778352614e8a86862091825461463c565b9055835252200154613511565b608654613511565b608655565b614ec890614ec36a0c097ce7bc90715b34b9f160251b93614ec361453f565b61351e565b0491614ed683608c5461463c565b608c5582614ee5575b80614e4d565b60705481038181116150a55781614eff614f06928661351e565b0484613511565b9060895481038181116150925787614f7688614f5a8d614f55888f978c9b9a99614f358f9e92614f3c9361351e565b048c613511565b9b8c938160655416968a52607d8952892054169a613511565b613511565b8d5194858094819363a9059cbb60e01b9b8c84528b84016145ff565b03925af1801561508857918891614fab9361506b575b50866065541687606654168b8d518096819582948b84528a84016145ff565b03925af18015615061579087939291615044575b50846065541690868952607b8452888660028c832001541693614fed8c5197889687958694855284016145ff565b03925af1801561503a5793614e979693614e9f989693607b9360019761501d575b50939698509396819550614edf565b61503390843d8611610a6b57610a5c8183613247565b503861500e565b86513d87823e3d90fd5b61505a90843d8611610a6b57610a5c8183613247565b5038614fbf565b89513d8a823e3d90fd5b61508190833d8511610a6b57610a5c8183613247565b5038614f8c565b8a513d8b823e3d90fd5b634e487b7160e01b895260118452602489fd5b634e487b7160e01b885260118352602488fd5b50801515614e48565b909150895163b65a78b560e01b815281858201528881602481865afa90811561517757908992918b9161515a575b50156151515760248b5180948193637eca406f60e01b8352888301525afa908115615061578891615124575b505b3880614e3d565b90508681813d831161514a575b61513b8183613247565b810103126103f757513861511b565b503d615131565b5050508661511d565b6151719150833d8511610a6b57610a5c8183613247565b386150ef565b8b513d8c823e3d90fd5b6151a9918660655416608c54918b8d5180968195829463a9059cbb60e01b84528b84016145ff565b03925af180156150615761522d575b5083608b5416608c54813b15615229578891602483928c519485938492633c6b16ab60e01b8452898401525af18015615061576151fc575b5086608c553886614e1e565b9096906001600160401b03811161521657885295386151f0565b506041602492634e487b7160e01b835252fd5b8880fd5b61524390873d8911610a6b57610a5c8183613247565b50386151b8565b82819392503d8311615272575b6152618183613247565b810103126152295787905138614e16565b503d615257565b6152bd9160018060a01b036152a08b826065541692898c52607d86528c8c20541693613511565b91898b5180968195829463a9059cbb60e01b8452600484016145ff565b03925af180156152ef576152d2575b84614ddb565b6152e890853d8711610a6b57610a5c8183613247565b50386152cc565b87513d88823e3d90fd5b634e487b7160e01b86526011600452602486fd5b61534a838260018060a01b038060655416908a89526076845260018a8a20015416888a5180968195829463a9059cbb60e01b8452600484016145ff565b03925af1801561503a5790614d8f9291615367575b509050614d78565b61537d90853d8711610a6b57610a5c8183613247565b503861535f565b5082614d72565b80546001600160e01b031660e09290921b6001600160e01b031916919091179055565b6000818152607e602052604090205460735461541092916153db919060a01c6001600160401b031661463c565b90600052608160205261540a61540160406000205460826020526040600020549061463c565b608a549061351e565b9061463c565b421190565b6000828152607e6020526040812054909291906001600160a01b03908116156154d257615441836153ae565b6154c957828452607f602052604084209116835260205260ff6040832054166154c2576077602052600160408320015480156154ba576074548082106154b15761548a91613511565b908252607e602052604082205460a01c6001600160401b0316106154ab5790565b50600690565b50505050600590565b505050600490565b5050600390565b50505050600290565b50505050600190565b8054600160401b811015610d89576154f8916001820181556132f0565b819291549060031b9160018060a01b03809116831b921b1916179055565b63ffffffff908116600019019190821161234357565b9062010000811161565f576001600160401b039061554b8183166156cd565b600061561c6040938451906155b660248360209a8b986155a78a8401966204010960e91b8852825193818d8501956155878160238a018961331e565b87019160238301370191600360fb1b60238401525180938684019061331e565b01036004810185520183613247565b61560c60216155c7898551166156cd565b9388519384916155fd8a840197600560f91b89526155ee8c8251928391898901910161331e565b8401915180938684019061331e565b01036001810184520182613247565b855192839283925192839161331e565b8101039060025afa1561565557600051815193609160f51b90850152602284015260228352606083019183831090831117610d89575290565b513d6000823e3d90fd5b60405162461bcd60e51b815260206004820152601f60248201527f4d617820636f6e74656e742073697a65206973203635353336206279746573006044820152606490fd5b6001600160401b039081169081146123435760010190565b908151811015613308570160200190565b600180825b607f6001600160401b038216116157aa57506001600160401b0391821690806156fa8361326a565b946157086040519687613247565b838652601f196157178561326a565b013660208801376000915b615758575b505050600019018181116123435716615754607f60f81b61574883856156bc565b511660001a91836156bc565b5390565b84821690848210156157a45761579d91607f821660801760f81b6001600160f81b03191660001a9061578a90896156bc565b5360071c6001600160391b0316916156a4565b9082615722565b50615727565b60071c6001600160391b0316916157c0906156a4565b916156d256fe7375626d6974536f6c7574696f6e20636f6f6c646f776e206166746572206c6f8be0079c531659141344cd1fd0a4f28419497f9722a3daafe3b4186f6b6457e0c3d3e0544c80e3bb83f62659259ae1574f72a91515ab3cae3dd75cf77e1b0aea1aa9e4be46e24e1f2e7eeb1613c01629213cd42965d2716e18531b63e552e411a26469706673582212205e1a04415feab7b6835b6782d32a6cbd3cc48b049bfd12bdbf1ff1df376e8ebe64736f6c63430008130033",
  "linkReferences": {},
  "deployedLinkReferences": {}
}