{
  "_format": "hh-sol-artifact-1",
  "contractName": "LookupValidatorStakedBalance",
  "sourceName": "contracts/Example/LookupValidatorStakedBalance.sol",
  "abi": [
    {
      "inputs": [
        {
          "internalType": "contract IArbius",
          "name": "_arbius",
          "type": "address"
        }
      ],
      "stateMutability": "nonpayable",
      "type": "constructor"
    },
    {
      "inputs": [
        {
          "internalType": "address",
          "name": "_validator",
          "type": "address"
        }
      ],
      "name": "lookupLookupValidatorStakedBalance",
      "outputs": [
        {
          "internalType": "uint256",
          "name": "",
          "type": "uint256"
        }
      ],
      "stateMutability": "view",
      "type": "function"
    }
  ],
  "bytecode": "0x608060405234801561001057600080fd5b5060405161024138038061024183398101604081905261002f91610054565b600080546001600160a01b0319166001600160a01b0392909216919091179055610084565b60006020828403121561006657600080fd5b81516001600160a01b038116811461007d57600080fd5b9392505050565b6101ae806100936000396000f3fe608060405234801561001057600080fd5b506004361061002b5760003560e01c8063b7c1769614610030575b600080fd5b61004361003e3660046100e4565b610055565b60405190815260200160405180910390f35b60008054604051631f4a58fb60e31b81526001600160a01b0384811660048301528392169063fa52c7d890602401606060405180830381865afa1580156100a0573d6000803e3d6000fd5b505050506040513d601f19601f820116820180604052508101906100c49190610108565b519392505050565b6001600160a01b03811681146100e157600080fd5b50565b6000602082840312156100f657600080fd5b8135610101816100cc565b9392505050565b60006060828403121561011a57600080fd5b6040516060810181811067ffffffffffffffff8211171561014b57634e487b7160e01b600052604160045260246000fd5b80604052508251815260208301516020820152604083015161016c816100cc565b6040820152939250505056fea26469706673582212205e6bb99f3f6736a323a47210f298922bf2bbe98b8ccd368b41aa72f0c6b4bf8064736f6c63430008130033",
  "linkReferences": {},
  "deployedLinkReferences": {}
}