{
  "_format": "hh-sol-artifact-1",
  "contractName": "IsMiner",
  "sourceName": "contracts/Example/IsMiner.sol",
  "abi": [
    {
      "inputs": [
        {
          "internalType": "address",
          "name": "engine_",
          "type": "address"
        }
      ],
      "stateMutability": "nonpayable",
      "type": "constructor"
    },
    {
      "inputs": [],
      "name": "engine",
      "outputs": [
        {
          "internalType": "contract IArbius",
          "name": "",
          "type": "address"
        }
      ],
      "stateMutability": "view",
      "type": "function"
    },
    {
      "inputs": [
        {
          "internalType": "address",
          "name": "addr_",
          "type": "address"
        }
      ],
      "name": "isMiner",
      "outputs": [
        {
          "internalType": "uint256",
          "name": "",
          "type": "uint256"
        }
      ],
      "stateMutability": "view",
      "type": "function"
    }
  ],
  "bytecode": "0x608060405234801561001057600080fd5b5060405161032638038061032683398101604081905261002f91610054565b600080546001600160a01b0319166001600160a01b0392909216919091179055610084565b60006020828403121561006657600080fd5b81516001600160a01b038116811461007d57600080fd5b9392505050565b610293806100936000396000f3fe608060405234801561001057600080fd5b50600436106100365760003560e01c8063701b70ac1461003b578063c9d4623f14610061575b600080fd5b61004e6100493660046101b0565b61008c565b6040519081526020015b60405180910390f35b600054610074906001600160a01b031681565b6040516001600160a01b039091168152602001610058565b60008054604051631f4a58fb60e31b81526001600160a01b0384811660048301528392169063fa52c7d890602401606060405180830381865afa1580156100d7573d6000803e3d6000fd5b505050506040513d601f19601f820116820180604052508101906100fb91906101d4565b60000151905060008060009054906101000a90046001600160a01b03166001600160a01b0316632258d1056040518163ffffffff1660e01b8152600401602060405180830381865afa158015610155573d6000803e3d6000fd5b505050506040513d601f19601f820116820180604052508101906101799190610244565b90508082101561018a57600061018d565b60015b60ff16949350505050565b6001600160a01b03811681146101ad57600080fd5b50565b6000602082840312156101c257600080fd5b81356101cd81610198565b9392505050565b6000606082840312156101e657600080fd5b6040516060810181811067ffffffffffffffff8211171561021757634e487b7160e01b600052604160045260246000fd5b80604052508251815260208301516020820152604083015161023881610198565b60408201529392505050565b60006020828403121561025657600080fd5b505191905056fea26469706673582212203d9c1f67bea9f192b38da8e1b819b868024a02bfc667836134c1754694e6bd0064736f6c63430008130033",
  "linkReferences": {},
  "deployedLinkReferences": {}
}