{
  "_format": "hh-sol-artifact-1",
  "contractName": "EngineV1",
  "sourceName": "contracts/EngineV1.sol",
  "abi": [
    {
      "inputs": [],
      "stateMutability": "nonpayable",
      "type": "constructor"
    },
    {
      "inputs": [
        {
          "internalType": "uint256",
          "name": "x",
          "type": "uint256"
        },
        {
          "internalType": "uint256",
          "name": "y",
          "type": "uint256"
        }
      ],
      "name": "PRBMath_MulDiv18_Overflow",
      "type": "error"
    },
    {
      "inputs": [
        {
          "internalType": "uint256",
          "name": "x",
          "type": "uint256"
        },
        {
          "internalType": "uint256",
          "name": "y",
          "type": "uint256"
        },
        {
          "internalType": "uint256",
          "name": "denominator",
          "type": "uint256"
        }
      ],
      "name": "PRBMath_MulDiv_Overflow",
      "type": "error"
    },
    {
      "inputs": [],
      "name": "PRBMath_SD59x18_Abs_MinSD59x18",
      "type": "error"
    },
    {
      "inputs": [],
      "name": "PRBMath_SD59x18_Div_InputTooSmall",
      "type": "error"
    },
    {
      "inputs": [
        {
          "internalType": "SD59x18",
          "name": "x",
          "type": "int256"
        },
        {
          "internalType": "SD59x18",
          "name": "y",
          "type": "int256"
        }
      ],
      "name": "PRBMath_SD59x18_Div_Overflow",
      "type": "error"
    },
    {
      "inputs": [
        {
          "internalType": "SD59x18",
          "name": "x",
          "type": "int256"
        }
      ],
      "name": "PRBMath_SD59x18_Exp2_InputTooBig",
      "type": "error"
    },
    {
      "inputs": [],
      "name": "PRBMath_SD59x18_Mul_InputTooSmall",
      "type": "error"
    },
    {
      "inputs": [
        {
          "internalType": "SD59x18",
          "name": "x",
          "type": "int256"
        },
        {
          "internalType": "SD59x18",
          "name": "y",
          "type": "int256"
        }
      ],
      "name": "PRBMath_SD59x18_Mul_Overflow",
      "type": "error"
    },
    {
      "inputs": [
        {
          "internalType": "UD60x18",
          "name": "x",
          "type": "uint256"
        }
      ],
      "name": "PRBMath_UD60x18_Exp2_InputTooBig",
      "type": "error"
    },
    {
      "anonymous": false,
      "inputs": [
        {
          "indexed": true,
          "internalType": "address",
          "name": "addr",
          "type": "address"
        },
        {
          "indexed": true,
          "internalType": "bytes32",
          "name": "task",
          "type": "bytes32"
        }
      ],
      "name": "ContestationSubmitted",
      "type": "event"
    },
    {
      "anonymous": false,
      "inputs": [
        {
          "indexed": true,
          "internalType": "address",
          "name": "addr",
          "type": "address"
        },
        {
          "indexed": true,
          "internalType": "bytes32",
          "name": "task",
          "type": "bytes32"
        },
        {
          "indexed": false,
          "internalType": "bool",
          "name": "yea",
          "type": "bool"
        }
      ],
      "name": "ContestationVote",
      "type": "event"
    },
    {
      "anonymous": false,
      "inputs": [
        {
          "indexed": true,
          "internalType": "bytes32",
          "name": "id",
          "type": "bytes32"
        },
        {
          "indexed": true,
          "internalType": "uint32",
          "name": "start_idx",
          "type": "uint32"
        },
        {
          "indexed": false,
          "internalType": "uint32",
          "name": "end_idx",
          "type": "uint32"
        }
      ],
      "name": "ContestationVoteFinish",
      "type": "event"
    },
    {
      "anonymous": false,
      "inputs": [
        {
          "indexed": true,
          "internalType": "uint256",
          "name": "amount",
          "type": "uint256"
        }
      ],
      "name": "ExitValidatorMinUnlockTimeChanged",
      "type": "event"
    },
    {
      "anonymous": false,
      "inputs": [
        {
          "indexed": false,
          "internalType": "uint8",
          "name": "version",
          "type": "uint8"
        }
      ],
      "name": "Initialized",
      "type": "event"
    },
    {
      "anonymous": false,
      "inputs": [
        {
          "indexed": true,
          "internalType": "uint256",
          "name": "amount",
          "type": "uint256"
        }
      ],
      "name": "MaxContestationValidatorStakeSinceChanged",
      "type": "event"
    },
    {
      "anonymous": false,
      "inputs": [
        {
          "indexed": true,
          "internalType": "uint256",
          "name": "amount",
          "type": "uint256"
        }
      ],
      "name": "MinClaimSolutionTimeChanged",
      "type": "event"
    },
    {
      "anonymous": false,
      "inputs": [
        {
          "indexed": true,
          "internalType": "uint256",
          "name": "amount",
          "type": "uint256"
        }
      ],
      "name": "MinContestationVotePeriodTimeChanged",
      "type": "event"
    },
    {
      "anonymous": false,
      "inputs": [
        {
          "indexed": true,
          "internalType": "uint256",
          "name": "amount",
          "type": "uint256"
        }
      ],
      "name": "MinRetractionWaitTimeChanged",
      "type": "event"
    },
    {
      "anonymous": false,
      "inputs": [
        {
          "indexed": true,
          "internalType": "bytes32",
          "name": "id",
          "type": "bytes32"
        }
      ],
      "name": "ModelRegistered",
      "type": "event"
    },
    {
      "anonymous": false,
      "inputs": [
        {
          "indexed": true,
          "internalType": "address",
          "name": "previousOwner",
          "type": "address"
        },
        {
          "indexed": true,
          "internalType": "address",
          "name": "newOwner",
          "type": "address"
        }
      ],
      "name": "OwnershipTransferred",
      "type": "event"
    },
    {
      "anonymous": false,
      "inputs": [
        {
          "indexed": true,
          "internalType": "bool",
          "name": "paused",
          "type": "bool"
        }
      ],
      "name": "PausedChanged",
      "type": "event"
    },
    {
      "anonymous": false,
      "inputs": [
        {
          "indexed": true,
          "internalType": "address",
          "name": "to",
          "type": "address"
        }
      ],
      "name": "PauserTransferred",
      "type": "event"
    },
    {
      "anonymous": false,
      "inputs": [
        {
          "indexed": true,
          "internalType": "uint256",
          "name": "amount",
          "type": "uint256"
        }
      ],
      "name": "RetractionFeePercentageChanged",
      "type": "event"
    },
    {
      "anonymous": false,
      "inputs": [
        {
          "indexed": true,
          "internalType": "address",
          "name": "addr",
          "type": "address"
        },
        {
          "indexed": true,
          "internalType": "bytes32",
          "name": "commitment",
          "type": "bytes32"
        }
      ],
      "name": "SignalCommitment",
      "type": "event"
    },
    {
      "anonymous": false,
      "inputs": [
        {
          "indexed": true,
          "internalType": "address",
          "name": "addr",
          "type": "address"
        },
        {
          "indexed": true,
          "internalType": "bytes32",
          "name": "model",
          "type": "bytes32"
        },
        {
          "indexed": false,
          "internalType": "bool",
          "name": "supported",
          "type": "bool"
        }
      ],
      "name": "SignalSupport",
      "type": "event"
    },
    {
      "anonymous": false,
      "inputs": [
        {
          "indexed": true,
          "internalType": "uint256",
          "name": "amount",
          "type": "uint256"
        }
      ],
      "name": "SlashAmountPercentageChanged",
      "type": "event"
    },
    {
      "anonymous": false,
      "inputs": [
        {
          "indexed": true,
          "internalType": "address",
          "name": "addr",
          "type": "address"
        },
        {
          "indexed": true,
          "internalType": "bytes32",
          "name": "task",
          "type": "bytes32"
        }
      ],
      "name": "SolutionClaimed",
      "type": "event"
    },
    {
      "anonymous": false,
      "inputs": [
        {
          "indexed": true,
          "internalType": "uint256",
          "name": "amount",
          "type": "uint256"
        }
      ],
      "name": "SolutionFeePercentageChanged",
      "type": "event"
    },
    {
      "anonymous": false,
      "inputs": [
        {
          "indexed": true,
          "internalType": "bytes32",
          "name": "id",
          "type": "bytes32"
        },
        {
          "indexed": false,
          "internalType": "uint256",
          "name": "rate",
          "type": "uint256"
        }
      ],
      "name": "SolutionMineableRateChange",
      "type": "event"
    },
    {
      "anonymous": false,
      "inputs": [
        {
          "indexed": true,
          "internalType": "address",
          "name": "addr",
          "type": "address"
        },
        {
          "indexed": true,
          "internalType": "bytes32",
          "name": "task",
          "type": "bytes32"
        }
      ],
      "name": "SolutionSubmitted",
      "type": "event"
    },
    {
      "anonymous": false,
      "inputs": [
        {
          "indexed": true,
          "internalType": "bytes32",
          "name": "id",
          "type": "bytes32"
        }
      ],
      "name": "TaskRetracted",
      "type": "event"
    },
    {
      "anonymous": false,
      "inputs": [
        {
          "indexed": true,
          "internalType": "bytes32",
          "name": "id",
          "type": "bytes32"
        },
        {
          "indexed": true,
          "internalType": "bytes32",
          "name": "model",
          "type": "bytes32"
        },
        {
          "indexed": false,
          "internalType": "uint256",
          "name": "fee",
          "type": "uint256"
        },
        {
          "indexed": true,
          "internalType": "address",
          "name": "sender",
          "type": "address"
        }
      ],
      "name": "TaskSubmitted",
      "type": "event"
    },
    {
      "anonymous": false,
      "inputs": [
        {
          "indexed": true,
          "internalType": "uint256",
          "name": "amount",
          "type": "uint256"
        }
      ],
      "name": "TreasuryRewardPercentageChanged",
      "type": "event"
    },
    {
      "anonymous": false,
      "inputs": [
        {
          "indexed": true,
          "internalType": "address",
          "name": "to",
          "type": "address"
        }
      ],
      "name": "TreasuryTransferred",
      "type": "event"
    },
    {
      "anonymous": false,
      "inputs": [
        {
          "indexed": true,
          "internalType": "address",
          "name": "addr",
          "type": "address"
        },
        {
          "indexed": true,
          "internalType": "address",
          "name": "validator",
          "type": "address"
        },
        {
          "indexed": false,
          "internalType": "uint256",
          "name": "amount",
          "type": "uint256"
        }
      ],
      "name": "ValidatorDeposit",
      "type": "event"
    },
    {
      "anonymous": false,
      "inputs": [
        {
          "indexed": true,
          "internalType": "uint256",
          "name": "amount",
          "type": "uint256"
        }
      ],
      "name": "ValidatorMinimumPercentageChanged",
      "type": "event"
    },
    {
      "anonymous": false,
      "inputs": [
        {
          "indexed": true,
          "internalType": "address",
          "name": "addr",
          "type": "address"
        },
        {
          "indexed": true,
          "internalType": "address",
          "name": "to",
          "type": "address"
        },
        {
          "indexed": true,
          "internalType": "uint256",
          "name": "count",
          "type": "uint256"
        },
        {
          "indexed": false,
          "internalType": "uint256",
          "name": "amount",
          "type": "uint256"
        }
      ],
      "name": "ValidatorWithdraw",
      "type": "event"
    },
    {
      "anonymous": false,
      "inputs": [
        {
          "indexed": true,
          "internalType": "address",
          "name": "addr",
          "type": "address"
        },
        {
          "indexed": true,
          "internalType": "uint256",
          "name": "count",
          "type": "uint256"
        }
      ],
      "name": "ValidatorWithdrawCancelled",
      "type": "event"
    },
    {
      "anonymous": false,
      "inputs": [
        {
          "indexed": true,
          "internalType": "address",
          "name": "addr",
          "type": "address"
        },
        {
          "indexed": true,
          "internalType": "uint256",
          "name": "count",
          "type": "uint256"
        },
        {
          "indexed": false,
          "internalType": "uint256",
          "name": "unlockTime",
          "type": "uint256"
        },
        {
          "indexed": false,
          "internalType": "uint256",
          "name": "amount",
          "type": "uint256"
        }
      ],
      "name": "ValidatorWithdrawInitiated",
      "type": "event"
    },
    {
      "anonymous": false,
      "inputs": [
        {
          "indexed": false,
          "internalType": "uint256",
          "name": "version",
          "type": "uint256"
        }
      ],
      "name": "VersionChanged",
      "type": "event"
    },
    {
      "inputs": [],
      "name": "accruedFees",
      "outputs": [
        {
          "internalType": "uint256",
          "name": "",
          "type": "uint256"
        }
      ],
      "stateMutability": "view",
      "type": "function"
    },
    {
      "inputs": [],
      "name": "baseToken",
      "outputs": [
        {
          "internalType": "contract IBaseToken",
          "name": "",
          "type": "address"
        }
      ],
      "stateMutability": "view",
      "type": "function"
    },
    {
      "inputs": [
        {
          "internalType": "uint256",
          "name": "count_",
          "type": "uint256"
        }
      ],
      "name": "cancelValidatorWithdraw",
      "outputs": [],
      "stateMutability": "nonpayable",
      "type": "function"
    },
    {
      "inputs": [
        {
          "internalType": "bytes32",
          "name": "taskid_",
          "type": "bytes32"
        }
      ],
      "name": "claimSolution",
      "outputs": [],
      "stateMutability": "nonpayable",
      "type": "function"
    },
    {
      "inputs": [
        {
          "internalType": "bytes32",
          "name": "",
          "type": "bytes32"
        }
      ],
      "name": "commitments",
      "outputs": [
        {
          "internalType": "uint256",
          "name": "",
          "type": "uint256"
        }
      ],
      "stateMutability": "view",
      "type": "function"
    },
    {
      "inputs": [
        {
          "internalType": "bytes32",
          "name": "taskid_",
          "type": "bytes32"
        },
        {
          "internalType": "uint32",
          "name": "amnt_",
          "type": "uint32"
        }
      ],
      "name": "contestationVoteFinish",
      "outputs": [],
      "stateMutability": "nonpayable",
      "type": "function"
    },
    {
      "inputs": [
        {
          "internalType": "bytes32",
          "name": "",
          "type": "bytes32"
        },
        {
          "internalType": "uint256",
          "name": "",
          "type": "uint256"
        }
      ],
      "name": "contestationVoteNays",
      "outputs": [
        {
          "internalType": "address",
          "name": "",
          "type": "address"
        }
      ],
      "stateMutability": "view",
      "type": "function"
    },
    {
      "inputs": [
        {
          "internalType": "bytes32",
          "name": "",
          "type": "bytes32"
        },
        {
          "internalType": "uint256",
          "name": "",
          "type": "uint256"
        }
      ],
      "name": "contestationVoteYeas",
      "outputs": [
        {
          "internalType": "address",
          "name": "",
          "type": "address"
        }
      ],
      "stateMutability": "view",
      "type": "function"
    },
    {
      "inputs": [
        {
          "internalType": "bytes32",
          "name": "",
          "type": "bytes32"
        },
        {
          "internalType": "address",
          "name": "",
          "type": "address"
        }
      ],
      "name": "contestationVoted",
      "outputs": [
        {
          "internalType": "bool",
          "name": "",
          "type": "bool"
        }
      ],
      "stateMutability": "view",
      "type": "function"
    },
    {
      "inputs": [
        {
          "internalType": "bytes32",
          "name": "",
          "type": "bytes32"
        }
      ],
      "name": "contestationVotedIndex",
      "outputs": [
        {
          "internalType": "uint256",
          "name": "",
          "type": "uint256"
        }
      ],
      "stateMutability": "view",
      "type": "function"
    },
    {
      "inputs": [
        {
          "internalType": "bytes32",
          "name": "",
          "type": "bytes32"
        }
      ],
      "name": "contestations",
      "outputs": [
        {
          "internalType": "address",
          "name": "validator",
          "type": "address"
        },
        {
          "internalType": "uint64",
          "name": "blocktime",
          "type": "uint64"
        },
        {
          "internalType": "uint32",
          "name": "finish_start_index",
          "type": "uint32"
        },
        {
          "internalType": "uint256",
          "name": "slashAmount",
          "type": "uint256"
        }
      ],
      "stateMutability": "view",
      "type": "function"
    },
    {
      "inputs": [
        {
          "internalType": "uint256",
          "name": "t",
          "type": "uint256"
        },
        {
          "internalType": "uint256",
          "name": "ts",
          "type": "uint256"
        }
      ],
      "name": "diffMul",
      "outputs": [
        {
          "internalType": "uint256",
          "name": "",
          "type": "uint256"
        }
      ],
      "stateMutability": "pure",
      "type": "function"
    },
    {
      "inputs": [],
      "name": "exitValidatorMinUnlockTime",
      "outputs": [
        {
          "internalType": "uint256",
          "name": "",
          "type": "uint256"
        }
      ],
      "stateMutability": "view",
      "type": "function"
    },
    {
      "inputs": [
        {
          "internalType": "address",
          "name": "sender_",
          "type": "address"
        },
        {
          "internalType": "bytes32",
          "name": "taskid_",
          "type": "bytes32"
        },
        {
          "internalType": "bytes",
          "name": "cid_",
          "type": "bytes"
        }
      ],
      "name": "generateCommitment",
      "outputs": [
        {
          "internalType": "bytes32",
          "name": "",
          "type": "bytes32"
        }
      ],
      "stateMutability": "pure",
      "type": "function"
    },
    {
      "inputs": [
        {
          "internalType": "bytes",
          "name": "content_",
          "type": "bytes"
        }
      ],
      "name": "generateIPFSCID",
      "outputs": [
        {
          "internalType": "bytes",
          "name": "",
          "type": "bytes"
        }
      ],
      "stateMutability": "pure",
      "type": "function"
    },
    {
      "inputs": [],
      "name": "getPsuedoTotalSupply",
      "outputs": [
        {
          "internalType": "uint256",
          "name": "",
          "type": "uint256"
        }
      ],
      "stateMutability": "view",
      "type": "function"
    },
    {
      "inputs": [],
      "name": "getReward",
      "outputs": [
        {
          "internalType": "uint256",
          "name": "",
          "type": "uint256"
        }
      ],
      "stateMutability": "view",
      "type": "function"
    },
    {
      "inputs": [],
      "name": "getSlashAmount",
      "outputs": [
        {
          "internalType": "uint256",
          "name": "",
          "type": "uint256"
        }
      ],
      "stateMutability": "view",
      "type": "function"
    },
    {
      "inputs": [],
      "name": "getValidatorMinimum",
      "outputs": [
        {
          "internalType": "uint256",
          "name": "",
          "type": "uint256"
        }
      ],
      "stateMutability": "view",
      "type": "function"
    },
    {
      "inputs": [
        {
          "components": [
            {
              "internalType": "uint256",
              "name": "fee",
              "type": "uint256"
            },
            {
              "internalType": "address",
              "name": "addr",
              "type": "address"
            },
            {
              "internalType": "uint256",
              "name": "rate",
              "type": "uint256"
            },
            {
              "internalType": "bytes",
              "name": "cid",
              "type": "bytes"
            }
          ],
          "internalType": "struct Model",
          "name": "o_",
          "type": "tuple"
        },
        {
          "internalType": "address",
          "name": "sender_",
          "type": "address"
        }
      ],
      "name": "hashModel",
      "outputs": [
        {
          "internalType": "bytes32",
          "name": "",
          "type": "bytes32"
        }
      ],
      "stateMutability": "pure",
      "type": "function"
    },
    {
      "inputs": [
        {
          "components": [
            {
              "internalType": "bytes32",
              "name": "model",
              "type": "bytes32"
            },
            {
              "internalType": "uint256",
              "name": "fee",
              "type": "uint256"
            },
            {
              "internalType": "address",
              "name": "owner",
              "type": "address"
            },
            {
              "internalType": "uint64",
              "name": "blocktime",
              "type": "uint64"
            },
            {
              "internalType": "uint8",
              "name": "version",
              "type": "uint8"
            },
            {
              "internalType": "bytes",
              "name": "cid",
              "type": "bytes"
            }
          ],
          "internalType": "struct Task",
          "name": "o_",
          "type": "tuple"
        },
        {
          "internalType": "address",
          "name": "sender_",
          "type": "address"
        },
        {
          "internalType": "bytes32",
          "name": "prevhash_",
          "type": "bytes32"
        }
      ],
      "name": "hashTask",
      "outputs": [
        {
          "internalType": "bytes32",
          "name": "",
          "type": "bytes32"
        }
      ],
      "stateMutability": "pure",
      "type": "function"
    },
    {
      "inputs": [
        {
          "internalType": "contract IBaseToken",
          "name": "baseToken_",
          "type": "address"
        },
        {
          "internalType": "address",
          "name": "treasury_",
          "type": "address"
        }
      ],
      "name": "initialize",
      "outputs": [],
      "stateMutability": "nonpayable",
      "type": "function"
    },
    {
      "inputs": [
        {
          "internalType": "uint256",
          "name": "amount_",
          "type": "uint256"
        }
      ],
      "name": "initiateValidatorWithdraw",
      "outputs": [
        {
          "internalType": "uint256",
          "name": "",
          "type": "uint256"
        }
      ],
      "stateMutability": "nonpayable",
      "type": "function"
    },
    {
      "inputs": [],
      "name": "maxContestationValidatorStakeSince",
      "outputs": [
        {
          "internalType": "uint256",
          "name": "",
          "type": "uint256"
        }
      ],
      "stateMutability": "view",
      "type": "function"
    },
    {
      "inputs": [],
      "name": "minClaimSolutionTime",
      "outputs": [
        {
          "internalType": "uint256",
          "name": "",
          "type": "uint256"
        }
      ],
      "stateMutability": "view",
      "type": "function"
    },
    {
      "inputs": [],
      "name": "minContestationVotePeriodTime",
      "outputs": [
        {
          "internalType": "uint256",
          "name": "",
          "type": "uint256"
        }
      ],
      "stateMutability": "view",
      "type": "function"
    },
    {
      "inputs": [],
      "name": "minRetractionWaitTime",
      "outputs": [
        {
          "internalType": "uint256",
          "name": "",
          "type": "uint256"
        }
      ],
      "stateMutability": "view",
      "type": "function"
    },
    {
      "inputs": [
        {
          "internalType": "bytes32",
          "name": "",
          "type": "bytes32"
        }
      ],
      "name": "models",
      "outputs": [
        {
          "internalType": "uint256",
          "name": "fee",
          "type": "uint256"
        },
        {
          "internalType": "address",
          "name": "addr",
          "type": "address"
        },
        {
          "internalType": "uint256",
          "name": "rate",
          "type": "uint256"
        },
        {
          "internalType": "bytes",
          "name": "cid",
          "type": "bytes"
        }
      ],
      "stateMutability": "view",
      "type": "function"
    },
    {
      "inputs": [],
      "name": "owner",
      "outputs": [
        {
          "internalType": "address",
          "name": "",
          "type": "address"
        }
      ],
      "stateMutability": "view",
      "type": "function"
    },
    {
      "inputs": [],
      "name": "paused",
      "outputs": [
        {
          "internalType": "bool",
          "name": "",
          "type": "bool"
        }
      ],
      "stateMutability": "view",
      "type": "function"
    },
    {
      "inputs": [],
      "name": "pauser",
      "outputs": [
        {
          "internalType": "address",
          "name": "",
          "type": "address"
        }
      ],
      "stateMutability": "view",
      "type": "function"
    },
    {
      "inputs": [
        {
          "internalType": "address",
          "name": "",
          "type": "address"
        },
        {
          "internalType": "uint256",
          "name": "",
          "type": "uint256"
        }
      ],
      "name": "pendingValidatorWithdrawRequests",
      "outputs": [
        {
          "internalType": "uint256",
          "name": "unlockTime",
          "type": "uint256"
        },
        {
          "internalType": "uint256",
          "name": "amount",
          "type": "uint256"
        }
      ],
      "stateMutability": "view",
      "type": "function"
    },
    {
      "inputs": [
        {
          "internalType": "address",
          "name": "",
          "type": "address"
        }
      ],
      "name": "pendingValidatorWithdrawRequestsCount",
      "outputs": [
        {
          "internalType": "uint256",
          "name": "",
          "type": "uint256"
        }
      ],
      "stateMutability": "view",
      "type": "function"
    },
    {
      "inputs": [],
      "name": "prevhash",
      "outputs": [
        {
          "internalType": "bytes32",
          "name": "",
          "type": "bytes32"
        }
      ],
      "stateMutability": "view",
      "type": "function"
    },
    {
      "inputs": [
        {
          "internalType": "address",
          "name": "addr_",
          "type": "address"
        },
        {
          "internalType": "uint256",
          "name": "fee_",
          "type": "uint256"
        },
        {
          "internalType": "bytes",
          "name": "template_",
          "type": "bytes"
        }
      ],
      "name": "registerModel",
      "outputs": [
        {
          "internalType": "bytes32",
          "name": "",
          "type": "bytes32"
        }
      ],
      "stateMutability": "nonpayable",
      "type": "function"
    },
    {
      "inputs": [],
      "name": "renounceOwnership",
      "outputs": [],
      "stateMutability": "nonpayable",
      "type": "function"
    },
    {
      "inputs": [
        {
          "internalType": "bytes32",
          "name": "taskid_",
          "type": "bytes32"
        }
      ],
      "name": "retractTask",
      "outputs": [],
      "stateMutability": "nonpayable",
      "type": "function"
    },
    {
      "inputs": [],
      "name": "retractionFeePercentage",
      "outputs": [
        {
          "internalType": "uint256",
          "name": "",
          "type": "uint256"
        }
      ],
      "stateMutability": "view",
      "type": "function"
    },
    {
      "inputs": [
        {
          "internalType": "uint256",
          "name": "t",
          "type": "uint256"
        },
        {
          "internalType": "uint256",
          "name": "ts",
          "type": "uint256"
        }
      ],
      "name": "reward",
      "outputs": [
        {
          "internalType": "uint256",
          "name": "",
          "type": "uint256"
        }
      ],
      "stateMutability": "pure",
      "type": "function"
    },
    {
      "inputs": [
        {
          "internalType": "uint256",
          "name": "amount_",
          "type": "uint256"
        }
      ],
      "name": "setExitValidatorMinUnlockTime",
      "outputs": [],
      "stateMutability": "nonpayable",
      "type": "function"
    },
    {
      "inputs": [
        {
          "internalType": "uint256",
          "name": "amount_",
          "type": "uint256"
        }
      ],
      "name": "setMaxContestationValidatorStakeSince",
      "outputs": [],
      "stateMutability": "nonpayable",
      "type": "function"
    },
    {
      "inputs": [
        {
          "internalType": "uint256",
          "name": "amount_",
          "type": "uint256"
        }
      ],
      "name": "setMinClaimSolutionTime",
      "outputs": [],
      "stateMutability": "nonpayable",
      "type": "function"
    },
    {
      "inputs": [
        {
          "internalType": "uint256",
          "name": "amount_",
          "type": "uint256"
        }
      ],
      "name": "setMinContestationVotePeriodTime",
      "outputs": [],
      "stateMutability": "nonpayable",
      "type": "function"
    },
    {
      "inputs": [
        {
          "internalType": "uint256",
          "name": "amount_",
          "type": "uint256"
        }
      ],
      "name": "setMinRetractionWaitTime",
      "outputs": [],
      "stateMutability": "nonpayable",
      "type": "function"
    },
    {
      "inputs": [
        {
          "internalType": "bool",
          "name": "paused_",
          "type": "bool"
        }
      ],
      "name": "setPaused",
      "outputs": [],
      "stateMutability": "nonpayable",
      "type": "function"
    },
    {
      "inputs": [
        {
          "internalType": "uint256",
          "name": "amount_",
          "type": "uint256"
        }
      ],
      "name": "setRetractionFeePercentage",
      "outputs": [],
      "stateMutability": "nonpayable",
      "type": "function"
    },
    {
      "inputs": [
        {
          "internalType": "uint256",
          "name": "amount_",
          "type": "uint256"
        }
      ],
      "name": "setSlashAmountPercentage",
      "outputs": [],
      "stateMutability": "nonpayable",
      "type": "function"
    },
    {
      "inputs": [
        {
          "internalType": "uint256",
          "name": "amount_",
          "type": "uint256"
        }
      ],
      "name": "setSolutionFeePercentage",
      "outputs": [],
      "stateMutability": "nonpayable",
      "type": "function"
    },
    {
      "inputs": [
        {
          "internalType": "bytes32",
          "name": "model_",
          "type": "bytes32"
        },
        {
          "internalType": "uint256",
          "name": "rate_",
          "type": "uint256"
        }
      ],
      "name": "setSolutionMineableRate",
      "outputs": [],
      "stateMutability": "nonpayable",
      "type": "function"
    },
    {
      "inputs": [
        {
          "internalType": "uint256",
          "name": "amount_",
          "type": "uint256"
        }
      ],
      "name": "setTreasuryRewardPercentage",
      "outputs": [],
      "stateMutability": "nonpayable",
      "type": "function"
    },
    {
      "inputs": [
        {
          "internalType": "uint256",
          "name": "amount_",
          "type": "uint256"
        }
      ],
      "name": "setValidatorMinimumPercentage",
      "outputs": [],
      "stateMutability": "nonpayable",
      "type": "function"
    },
    {
      "inputs": [
        {
          "internalType": "uint256",
          "name": "version_",
          "type": "uint256"
        }
      ],
      "name": "setVersion",
      "outputs": [],
      "stateMutability": "nonpayable",
      "type": "function"
    },
    {
      "inputs": [
        {
          "internalType": "bytes32",
          "name": "commitment_",
          "type": "bytes32"
        }
      ],
      "name": "signalCommitment",
      "outputs": [],
      "stateMutability": "nonpayable",
      "type": "function"
    },
    {
      "inputs": [
        {
          "internalType": "bytes32",
          "name": "model_",
          "type": "bytes32"
        },
        {
          "internalType": "bool",
          "name": "support_",
          "type": "bool"
        }
      ],
      "name": "signalSupport",
      "outputs": [],
      "stateMutability": "nonpayable",
      "type": "function"
    },
    {
      "inputs": [],
      "name": "slashAmountPercentage",
      "outputs": [
        {
          "internalType": "uint256",
          "name": "",
          "type": "uint256"
        }
      ],
      "stateMutability": "view",
      "type": "function"
    },
    {
      "inputs": [],
      "name": "solutionFeePercentage",
      "outputs": [
        {
          "internalType": "uint256",
          "name": "",
          "type": "uint256"
        }
      ],
      "stateMutability": "view",
      "type": "function"
    },
    {
      "inputs": [
        {
          "internalType": "bytes32",
          "name": "",
          "type": "bytes32"
        }
      ],
      "name": "solutions",
      "outputs": [
        {
          "internalType": "address",
          "name": "validator",
          "type": "address"
        },
        {
          "internalType": "uint64",
          "name": "blocktime",
          "type": "uint64"
        },
        {
          "internalType": "bool",
          "name": "claimed",
          "type": "bool"
        },
        {
          "internalType": "bytes",
          "name": "cid",
          "type": "bytes"
        }
      ],
      "stateMutability": "view",
      "type": "function"
    },
    {
      "inputs": [],
      "name": "startBlockTime",
      "outputs": [
        {
          "internalType": "uint64",
          "name": "",
          "type": "uint64"
        }
      ],
      "stateMutability": "view",
      "type": "function"
    },
    {
      "inputs": [
        {
          "internalType": "bytes32",
          "name": "taskid_",
          "type": "bytes32"
        }
      ],
      "name": "submitContestation",
      "outputs": [],
      "stateMutability": "nonpayable",
      "type": "function"
    },
    {
      "inputs": [
        {
          "internalType": "bytes32",
          "name": "taskid_",
          "type": "bytes32"
        },
        {
          "internalType": "bytes",
          "name": "cid_",
          "type": "bytes"
        }
      ],
      "name": "submitSolution",
      "outputs": [],
      "stateMutability": "nonpayable",
      "type": "function"
    },
    {
      "inputs": [
        {
          "internalType": "uint8",
          "name": "version_",
          "type": "uint8"
        },
        {
          "internalType": "address",
          "name": "owner_",
          "type": "address"
        },
        {
          "internalType": "bytes32",
          "name": "model_",
          "type": "bytes32"
        },
        {
          "internalType": "uint256",
          "name": "fee_",
          "type": "uint256"
        },
        {
          "internalType": "bytes",
          "name": "input_",
          "type": "bytes"
        }
      ],
      "name": "submitTask",
      "outputs": [
        {
          "internalType": "bytes32",
          "name": "",
          "type": "bytes32"
        }
      ],
      "stateMutability": "nonpayable",
      "type": "function"
    },
    {
      "inputs": [
        {
          "internalType": "uint256",
          "name": "t",
          "type": "uint256"
        }
      ],
      "name": "targetTs",
      "outputs": [
        {
          "internalType": "uint256",
          "name": "",
          "type": "uint256"
        }
      ],
      "stateMutability": "pure",
      "type": "function"
    },
    {
      "inputs": [
        {
          "internalType": "bytes32",
          "name": "",
          "type": "bytes32"
        }
      ],
      "name": "tasks",
      "outputs": [
        {
          "internalType": "bytes32",
          "name": "model",
          "type": "bytes32"
        },
        {
          "internalType": "uint256",
          "name": "fee",
          "type": "uint256"
        },
        {
          "internalType": "address",
          "name": "owner",
          "type": "address"
        },
        {
          "internalType": "uint64",
          "name": "blocktime",
          "type": "uint64"
        },
        {
          "internalType": "uint8",
          "name": "version",
          "type": "uint8"
        },
        {
          "internalType": "bytes",
          "name": "cid",
          "type": "bytes"
        }
      ],
      "stateMutability": "view",
      "type": "function"
    },
    {
      "inputs": [
        {
          "internalType": "address",
          "name": "to_",
          "type": "address"
        }
      ],
      "name": "transferOwnership",
      "outputs": [],
      "stateMutability": "nonpayable",
      "type": "function"
    },
    {
      "inputs": [
        {
          "internalType": "address",
          "name": "to_",
          "type": "address"
        }
      ],
      "name": "transferPauser",
      "outputs": [],
      "stateMutability": "nonpayable",
      "type": "function"
    },
    {
      "inputs": [
        {
          "internalType": "address",
          "name": "to_",
          "type": "address"
        }
      ],
      "name": "transferTreasury",
      "outputs": [],
      "stateMutability": "nonpayable",
      "type": "function"
    },
    {
      "inputs": [],
      "name": "treasury",
      "outputs": [
        {
          "internalType": "address",
          "name": "",
          "type": "address"
        }
      ],
      "stateMutability": "view",
      "type": "function"
    },
    {
      "inputs": [],
      "name": "treasuryRewardPercentage",
      "outputs": [
        {
          "internalType": "uint256",
          "name": "",
          "type": "uint256"
        }
      ],
      "stateMutability": "view",
      "type": "function"
    },
    {
      "inputs": [
        {
          "internalType": "address",
          "name": "addr_",
          "type": "address"
        },
        {
          "internalType": "bytes32",
          "name": "taskid_",
          "type": "bytes32"
        }
      ],
      "name": "validatorCanVote",
      "outputs": [
        {
          "internalType": "uint256",
          "name": "",
          "type": "uint256"
        }
      ],
      "stateMutability": "view",
      "type": "function"
    },
    {
      "inputs": [
        {
          "internalType": "address",
          "name": "validator_",
          "type": "address"
        },
        {
          "internalType": "uint256",
          "name": "amount_",
          "type": "uint256"
        }
      ],
      "name": "validatorDeposit",
      "outputs": [],
      "stateMutability": "nonpayable",
      "type": "function"
    },
    {
      "inputs": [],
      "name": "validatorMinimumPercentage",
      "outputs": [
        {
          "internalType": "uint256",
          "name": "",
          "type": "uint256"
        }
      ],
      "stateMutability": "view",
      "type": "function"
    },
    {
      "inputs": [
        {
          "internalType": "uint256",
          "name": "count_",
          "type": "uint256"
        },
        {
          "internalType": "address",
          "name": "to_",
          "type": "address"
        }
      ],
      "name": "validatorWithdraw",
      "outputs": [],
      "stateMutability": "nonpayable",
      "type": "function"
    },
    {
      "inputs": [
        {
          "internalType": "address",
          "name": "",
          "type": "address"
        }
      ],
      "name": "validatorWithdrawPendingAmount",
      "outputs": [
        {
          "internalType": "uint256",
          "name": "",
          "type": "uint256"
        }
      ],
      "stateMutability": "view",
      "type": "function"
    },
    {
      "inputs": [
        {
          "internalType": "address",
          "name": "",
          "type": "address"
        }
      ],
      "name": "validators",
      "outputs": [
        {
          "internalType": "uint256",
          "name": "staked",
          "type": "uint256"
        },
        {
          "internalType": "uint256",
          "name": "since",
          "type": "uint256"
        },
        {
          "internalType": "address",
          "name": "addr",
          "type": "address"
        }
      ],
      "stateMutability": "view",
      "type": "function"
    },
    {
      "inputs": [],
      "name": "version",
      "outputs": [
        {
          "internalType": "uint256",
          "name": "",
          "type": "uint256"
        }
      ],
      "stateMutability": "view",
      "type": "function"
    },
    {
      "inputs": [
        {
          "internalType": "bytes32",
          "name": "taskid_",
          "type": "bytes32"
        },
        {
          "internalType": "bool",
          "name": "yea_",
          "type": "bool"
        }
      ],
      "name": "voteOnContestation",
      "outputs": [],
      "stateMutability": "nonpayable",
      "type": "function"
    },
    {
      "inputs": [],
      "name": "withdrawAccruedFees",
      "outputs": [],
      "stateMutability": "nonpayable",
      "type": "function"
    }
  ],
  "bytecode": "0x60806040523480156200001157600080fd5b506200001c62000022565b620000e3565b600054610100900460ff16156200008f5760405162461bcd60e51b815260206004820152602760248201527f496e697469616c697a61626c653a20636f6e747261637420697320696e697469604482015266616c697a696e6760c81b606482015260840160405180910390fd5b60005460ff90811614620000e1576000805460ff191660ff9081179091556040519081527f7f26b83ff96e1f2b6a682f133852f6798a09c465da95921460cefb38474024989060200160405180910390a15b565b615b5980620000f36000396000f3fe608060405234801561001057600080fd5b506004361061045d5760003560e01c806375c705091161024c578063ada82c7d11610146578063d2780940116100c3578063e236f46b11610087578063e236f46b14610a70578063e579f50014610a93578063f1b8989d14610ab8578063f2fde38b14610ac1578063fa52c7d814610ad457600080fd5b8063d278094014610950578063d2992baa1461097e578063d33b2ef5146109c5578063d8a6021c14610a54578063dc06a89f14610a6757600080fd5b8063c55dae631161010a578063c55dae63146108e4578063cbd2422d146108f7578063cf596e451461090a578063d1f0c9411461091d578063d2307ae41461093057600080fd5b8063ada82c7d146108a4578063b66badbf146108ac578063c17ddb2a146108bf578063c31784be146108c8578063c3187978146108d157600080fd5b80638da5cb5b116101d457806396bb02c31161019857806396bb02c3146108595780639fd0506d14610862578063a4fa8d5714610875578063a53e252514610888578063aa59e7e71461089157600080fd5b80638da5cb5b146108105780638e6d86fd14610821578063928094441461082a57806393a090ec1461083357806393f1f8ac1461084657600080fd5b80637881c5e61161021b5780637881c5e6146107b95780637b36006a146107c157806383657795146107ca578063839df945146107dd5780638b4d7b35146107fd57600080fd5b806375c705091461075d578063763253bb146107805780637683dbfb1461079357806377286d17146107a657600080fd5b80633d18b9121161035d57806354fd4d50116102e557806361d027b3116102a957806361d027b31461071d578063671f815214610730578063682c205814610743578063715018a61461074c57806372dc0ee11461075457600080fd5b806354fd4d50146106b757806356914caf146106c05780635b851daa146106d35780635c975abb146106e6578063605cecf61461070a57600080fd5b80634421ea211161032c5780634421ea2114610658578063485cc9551461066b57806349094d4d1461067e5780634ff03efa14610691578063506ea7de146106a457600080fd5b80633d18b912146106155780633d57f5d91461061d578063408def1e1461062557806340e8c56d1461063857600080fd5b80631b2cf4b8116103eb57806328c2d36c116103af57806328c2d36c1461059e5780632f9b03e4146105b1578063303fb0d6146105c457806336f83c4f146105ef578063393cb1c71461060257600080fd5b80631b2cf4b81461053d5780631b75c43e146105505780631f88ea1c14610570578063218a3048146105835780632258d1051461059657600080fd5b80630c18d4ce116104325780630c18d4ce146104b95780631466b63a146104e457806316c38b3c146104f757806317f3e0411461050a5780631825c20e1461052a57600080fd5b80623f9dd614610462578062fd70821461047757806308745dd1146104935780630a985737146104a6575b600080fd5b610475610470366004614f0a565b610b30565b005b61048060725481565b6040519081526020015b60405180910390f35b6104806104a1366004614f9c565b610de8565b6104806104b4366004614f0a565b611075565b606a546104cc906001600160401b031681565b6040516001600160401b03909116815260200161048a565b6104806104f23660046150df565b6111d0565b6104756105053660046151c4565b611217565b610480610518366004614f0a565b60806020526000908152604090205481565b6104756105383660046151e1565b6112a7565b61047561054b366004614f0a565b611371565b61048061055e366004615211565b607a6020526000908152604090205481565b61048061057e36600461522e565b6113ac565b610480610591366004615250565b6114d8565b61048061151b565b6104756105ac366004614f0a565b611584565b6104756105bf366004614f0a565b6115bf565b6105d76105d236600461522e565b6115fa565b6040516001600160a01b03909116815260200161048a565b6104756105fd366004614f0a565b611632565b61048061061036600461530b565b61166d565b6104806116a6565b6104806116d0565b610475610633366004614f0a565b611715565b61064b610646366004615366565b611758565b60405161048a91906153f7565b610475610666366004615211565b611764565b61047561067936600461540a565b6117b6565b61047561068c3660046151e1565b61196b565b61048061069f36600461530b565b611a2b565b6104756106b2366004614f0a565b611bf1565b610480606b5481565b6104756106ce366004615438565b611cb3565b6104756106e1366004614f0a565b611fc7565b6067546106fa90600160a01b900460ff1681565b604051901515815260200161048a565b610475610718366004614f0a565b612002565b6066546105d7906001600160a01b031681565b61047561073e366004614f0a565b61203d565b61048060685481565b61047561234f565b610480606f5481565b61077061076b366004614f0a565b612363565b60405161048a9493929190615483565b61047561078e3660046154c8565b61242e565b6104756107a1366004614f0a565b6126a2565b6104756107b4366004614f0a565b6126dd565b6104806128dd565b61048060735481565b6104806107d83660046154ed565b61297d565b6104806107eb366004614f0a565b607c6020526000908152604090205481565b61047561080b366004615519565b612ac5565b6033546001600160a01b03166105d7565b61048060745481565b61048060715481565b6104756108413660046154ed565b6131ef565b61047561085436600461522e565b6133d1565b610480606c5481565b6067546105d7906001600160a01b031681565b61048061088336600461522e565b613464565b61048060755481565b61047561089f366004614f0a565b6134e0565b61047561351b565b6104756108ba366004614f0a565b6135c7565b61048060695481565b61048060705481565b6104756108df366004614f0a565b613602565b6065546105d7906001600160a01b031681565b610475610905366004614f0a565b61363d565b610480610918366004614f0a565b613756565b6105d761092b36600461522e565b6137ea565b61048061093e366004615211565b60786020526000908152604090205481565b6106fa61095e3660046154c8565b607f60209081526000928352604080842090915290825290205460ff1681565b6109b061098c3660046154ed565b60796020908152600092835260408084209091529082529020805460019091015482565b6040805192835260208301919091520161048a565b610a176109d3366004614f0a565b607e60205260009081526040902080546001909101546001600160a01b03821691600160a01b81046001600160401b031691600160e01b90910463ffffffff169084565b604080516001600160a01b0390951685526001600160401b03909316602085015263ffffffff90911691830191909152606082015260800161048a565b610475610a62366004615211565b613806565b610480606d5481565b610a83610a7e366004614f0a565b613858565b60405161048a9493929190615547565b610aa6610aa1366004614f0a565b613892565b60405161048a96959493929190615574565b610480606e5481565b610475610acf366004615211565b61396b565b610b0c610ae2366004615211565b6077602052600090815260409020805460018201546002909201549091906001600160a01b031683565b6040805193845260208401929092526001600160a01b03169082015260600161048a565b606754600160a01b900460ff1615610b635760405162461bcd60e51b8152600401610b5a906155c5565b60405180910390fd5b6000818152607b60205260409020600201546001600160a01b03163314610bb85760405162461bcd60e51b81526020600482015260096024820152683737ba1037bbb732b960b91b6044820152606401610b5a565b6000818152607d60205260409020546001600160a01b031615610c0c5760405162461bcd60e51b815260206004820152600c60248201526b3430b99039b7b63aba34b7b760a11b6044820152606401610b5a565b6072546000828152607b6020526040902060020154610c3b90600160a01b90046001600160401b0316426155fb565b11610c885760405162461bcd60e51b815260206004820152601860248201527f646964206e6f742077616974206c6f6e6720656e6f75676800000000000000006044820152606401610b5a565b6000670de0b6b3a7640000606f54670de0b6b3a7640000610ca991906155fb565b6000848152607b6020526040902060010154610cc5919061560e565b610ccf919061563b565b6000838152607b602052604081206001015491925090610cf09083906155fb565b60655460405163a9059cbb60e01b81529192506001600160a01b03169063a9059cbb90610d23903390869060040161565d565b6020604051808303816000875af1158015610d42573d6000803e3d6000fd5b505050506040513d601f19601f82011682018060405250810190610d669190615676565b508060686000828254610d799190615693565b90915550506000838152607b60205260408120818155600181018290556002810180546001600160e81b031916905590610db66003830182614ebc565b505060405183907f446efbf8d207f3e2ede58a6bbde7028a4e308488b6293e6461fbb7c288326e7690600090a2505050565b606754600090600160a01b900460ff1615610e155760405162461bcd60e51b8152600401610b5a906155c5565b6000858152607660205260409020600101546001600160a01b0316610e4c5760405162461bcd60e51b8152600401610b5a906156a6565b600085815260766020526040902054841015610eaa5760405162461bcd60e51b815260206004820152601860248201527f6c6f77657220666565207468616e206d6f64656c2066656500000000000000006044820152606401610b5a565b6000610eb6848461397c565b905060006040518060c00160405280888152602001878152602001896001600160a01b03168152602001426001600160401b031681526020018a60ff1681526020018381525090506000610f0d82336069546111d0565b9050336001600160a01b031688827fc3d3e0544c80e3bb83f62659259ae1574f72a91515ab3cae3dd75cf77e1b0aea8a604051610f4c91815260200190565b60405180910390a46065546040516323b872dd60e01b8152336004820152306024820152604481018990526001600160a01b03909116906323b872dd906064016020604051808303816000875af1158015610fab573d6000803e3d6000fd5b505050506040513d601f19601f82011682018060405250810190610fcf9190615676565b506000818152607b602090815260409182902084518155908401516001820155908301516002820180546060860151608087015160ff16600160e01b0260ff60e01b196001600160401b03909216600160a01b026001600160e01b03199093166001600160a01b0390951694909417919091171691909117905560a08301518391906003820190611060908261574e565b50505060698190559998505050505050505050565b606754600090600160a01b900460ff16156110a25760405162461bcd60e51b8152600401610b5a906155c5565b336000908152607a602090815260408083205460779092529091205483916110c9916155fb565b10156110f15760405162461bcd60e51b81526020600482015260006024820152604401610b5a565b6000607554426111019190615693565b3360009081526078602052604081208054929350600192909190611126908490615693565b909155505033600081815260786020908152604080832054815180830183528681528084018981528686526079855283862083875285528386209151825551600190910155938352607a90915281208054869290611185908490615693565b90915550506040805183815260208101869052829133917fcc7e0e76b20394ef965d71c4111d21e1b322bb8775dc2c7acd29eb0d3c3dd96d910160405180910390a39150505b919050565b60008282856000015186602001518760a001516040516020016111f795949392919061580d565b6040516020818303038152906040528051906020012090505b9392505050565b6067546001600160a01b0316331461125e5760405162461bcd60e51b815260206004820152600a6024820152693737ba103830bab9b2b960b11b6044820152606401610b5a565b6067805460ff60a01b1916600160a01b831515908102919091179091556040517fd83d5281277e107f080e362699d46082adb74e7dc6a9bccbc87d8ae9533add4490600090a250565b606754600160a01b900460ff16156112d15760405162461bcd60e51b8152600401610b5a906155c5565b6112d961151b565b336000908152607a60209081526040808320546077909252909120546112ff91906155fb565b101561131d5760405162461bcd60e51b8152600401610b5a9061584b565b611327338361297d565b156113625760405162461bcd60e51b815260206004820152600b60248201526a1b9bdd08185b1b1bddd95960aa1b6044820152606401610b5a565b61136d828233613ab1565b5050565b611379613bd5565b606e81905560405181907fa9dfc7ca3151b504bdbe971426324a888f97e7e7a52929484c01dff8168058ab90600090a250565b600080831180156113bd5750600082115b6113f45760405162461bcd60e51b81526020600482015260086024820152676d696e2076616c7360c01b6044820152606401610b5a565b60006113ff84613756565b9050600061140f825b8590613c2f565b9050670cf4ad2e86166c9c8112156114345768056bc75e2d63100000925050506114d2565b670de0b6b3a764000068056bc75e2d63100000600061147161146a846114648561145e8984613d05565b90613d14565b90613d05565b8490613db8565b90506801158e460913d000008112611491576000955050505050506114d2565b61149b8160001390565b156114c3576114b76114b46114af83613dc7565b613e08565b90565b955050505050506114d2565b6114b76114b461140883613e08565b92915050565b6000818360200151846000015185606001516040516020016114fd9493929190615877565b60405160208183030381529060405280519060200120905092915050565b6000806115266128dd565b9050683635c9adc5dea0000081101561154157600091505090565b670de0b6b3a7640000606c54670de0b6b3a764000061156091906155fb565b61156a908361560e565b611574919061563b565b61157e90826155fb565b91505090565b61158c613bd5565b606c81905560405181907fb2ba28b5b5aed3444b23a8597a249678dd98e0062432ef1b0f9a6caa39ceb0ad90600090a250565b6115c7613bd5565b607181905560405181907fed28aed8b87631da9bc750c8885c00f9beda7f694a23bb732d987aa80214a63f90600090a250565b6082602052816000526040600020818154811061161657600080fd5b6000918252602090912001546001600160a01b03169150829050565b61163a613bd5565b606d81905560405181907f4d3fce9ddc8266ead559213cbaaa8ebcfa0c837a2c9a1e814bae160b615d30dd90600090a250565b60008484848460405160200161168694939291906158aa565b604051602081830303815290604052805190602001209050949350505050565b606a546000906116cb906116c3906001600160401b0316426155fb565b6108836128dd565b905090565b6000806116db6128dd565b9050686c6b935b8bbd4000008110156116f657600091505090565b670de0b6b3a7640000606d54670de0b6b3a764000061156091906155fb565b61171d613bd5565b606b8190556040518181527f8c854a81cb5c93e7e482d30fb9c6f88fdbdb320f10f7a853c2263659b54e563f9060200160405180910390a150565b6060611210838361397c565b61176c613bd5565b606780546001600160a01b0319166001600160a01b0383169081179091556040517f5a85b4270fc1e75035e6cd505418ce65e0bcc36cc7eb9ce9e6f8c6181d4cb57790600090a250565b600054610100900460ff16158080156117d65750600054600160ff909116105b806117f05750303b1580156117f0575060005460ff166001145b6118535760405162461bcd60e51b815260206004820152602e60248201527f496e697469616c697a61626c653a20636f6e747261637420697320616c72656160448201526d191e481a5b9a5d1a585b1a5e995960921b6064820152608401610b5a565b6000805460ff191660011790558015611876576000805461ff0019166101001790555b61187e613eba565b606580546001600160a01b038086166001600160a01b03199283161790925560668054928516928216929092179091556067805490911633179055606a80546001600160401b03421667ffffffffffffffff199091161790556602d79883d20000606c55655af3107a4000606d5567016345785d8a0000606e819055606f8190556070556107d0607155612710607255610fa06073556078607455620151806075558015611966576000805461ff0019169055604051600181527f7f26b83ff96e1f2b6a682f133852f6798a09c465da95921460cefb38474024989060200160405180910390a15b505050565b61197361151b565b336000908152607a602090815260408083205460779092529091205461199991906155fb565b10156119b75760405162461bcd60e51b8152600401610b5a9061584b565b6000828152607660205260409020600101546001600160a01b03166119ee5760405162461bcd60e51b8152600401610b5a906156a6565b6040518115158152829033907fd17ce9337eb398b61971ca3d8c9933fc401b9669a0607afe3452612583d7c5b89060200160405180910390a35050565b606754600090600160a01b900460ff1615611a585760405162461bcd60e51b8152600401610b5a906155c5565b6001600160a01b038516611aae5760405162461bcd60e51b815260206004820152601860248201527f61646472657373206d757374206265206e6f6e2d7a65726f00000000000000006044820152606401610b5a565b6000611aba848461397c565b604080516080810182528781526001600160a01b0389166020820152600091810182905260608101839052919250611af282336114d8565b6000818152607660205260409020600101549091506001600160a01b031615611b5d5760405162461bcd60e51b815260206004820152601860248201527f6d6f64656c20616c7265616479207265676973746572656400000000000000006044820152606401610b5a565b60008181526076602090815260409182902084518155908401516001820180546001600160a01b0319166001600160a01b0390921691909117905590830151600282015560608301518391906003820190611bb8908261574e565b50506040518291507fa4b0af38d049ba81703a0d0e46cc2ff39681210302134046237111a8fb7dee7290600090a2979650505050505050565b606754600160a01b900460ff1615611c1b5760405162461bcd60e51b8152600401610b5a906155c5565b6000818152607c602052604090205415611c6b5760405162461bcd60e51b8152602060048201526011602482015270636f6d6d69746d656e742065786973747360781b6044820152606401610b5a565b611c73613ee9565b6000828152607c6020526040808220929092559051829133917f09b4c028a2e50fec6f1c6a0163c59e8fbe92b231e5c03ef3adec585e63a14b929190a350565b606754600160a01b900460ff1615611cdd5760405162461bcd60e51b8152600401610b5a906155c5565b611ce561151b565b336000908152607a6020908152604080832054607790925290912054611d0b91906155fb565b1015611d295760405162461bcd60e51b8152600401610b5a9061584b565b6000838152607b6020526040902054611d7a5760405162461bcd60e51b81526020600482015260136024820152721d185cdac8191bd95cc81b9bdd08195e1a5cdd606a1b6044820152606401610b5a565b6000838152607d60205260409020546001600160a01b031615611ddf5760405162461bcd60e51b815260206004820152601a60248201527f736f6c7574696f6e20616c7265616479207375626d69747465640000000000006044820152606401610b5a565b6000611ded3385858561166d565b6000818152607c6020526040902054909150611e4b5760405162461bcd60e51b815260206004820152601760248201527f6e6f6e206578697374656e7420636f6d6d69746d656e740000000000000000006044820152606401610b5a565b611e53613ee9565b6000828152607c602052604090205410611eaf5760405162461bcd60e51b815260206004820152601a60248201527f636f6d6d69746d656e74206d75737420626520696e20706173740000000000006044820152606401610b5a565b6040518060800160405280336001600160a01b03168152602001426001600160401b0316815260200160001515815260200184848080601f0160208091040260200160405190810160405280939291908181526020018383808284376000920182905250939094525050868152607d60209081526040918290208451815492860151938601511515600160e01b0260ff60e01b196001600160401b03909516600160a01b026001600160e01b03199094166001600160a01b0390921691909117929092179290921617815560608301519091506001820190611f91908261574e565b505060405185915033907f957c18b5af8413899ea8a576a4d3fb16839a02c9fccfdce098b6d59ef248525b90600090a350505050565b611fcf613bd5565b606f81905560405181907f248f32867b202a570ffbb94e864b6075503b4961c00317f152604ee3b8de4dda90600090a250565b61200a613bd5565b607081905560405181907f4cedc026426414a08f6f21ca64d85564bf602162bb3463dd2d3e17b58c1da58990600090a250565b606754600160a01b900460ff16156120675760405162461bcd60e51b8152600401610b5a906155c5565b61206f61151b565b336000908152607a602090815260408083205460779092529091205461209591906155fb565b10156120b35760405162461bcd60e51b8152600401610b5a9061584b565b6000818152607d60205260409020546001600160a01b03166121175760405162461bcd60e51b815260206004820152601760248201527f736f6c7574696f6e20646f6573206e6f742065786973740000000000000000006044820152606401610b5a565b6000818152607e60205260409020546001600160a01b03161561217c5760405162461bcd60e51b815260206004820152601b60248201527f636f6e746573746174696f6e20616c72656164792065786973747300000000006044820152606401610b5a565b6071546000828152607d60205260409020546121a89190600160a01b90046001600160401b0316615693565b42106121e15760405162461bcd60e51b8152602060048201526008602482015267746f6f206c61746560c01b6044820152606401610b5a565b6000818152607d6020526040902054600160e01b900460ff161561222d5760405162461bcd60e51b81526020600482015260036024820152623bba3360e91b6044820152606401610b5a565b60006122376116d0565b60408051608081018252338082526001600160401b0342811660208085019182526000858701818152606087018981528b8352607e909352878220965187549451915163ffffffff16600160e01b026001600160e01b0392909616600160a01b026001600160e01b03199095166001600160a01b03919091161793909317929092169290921784559051600190930192909255915192935084927f6958c989e915d3e41a35076e3c480363910055408055ad86ae1ee13d41c406409190a361230182600133613ab1565b6000828152607d60209081526040808320546001600160a01b031683526077909152902054811161136d576000828152607d602052604081205461136d9184916001600160a01b0316613ab1565b612357613bd5565b6123616000613f7a565b565b607d60205260009081526040902080546001820180546001600160a01b03831693600160a01b84046001600160401b031693600160e01b900460ff169290916123ab906156d4565b80601f01602080910402602001604051908101604052809291908181526020018280546123d7906156d4565b80156124245780601f106123f957610100808354040283529160200191612424565b820191906000526020600020905b81548152906001019060200180831161240757829003601f168201915b5050505050905084565b606754600160a01b900460ff16156124585760405162461bcd60e51b8152600401610b5a906155c5565b33600090815260796020908152604080832085845282529182902082518084019093528054808452600190910154918301919091526124cd5760405162461bcd60e51b81526020600482015260116024820152701c995c5d595cdd081b9bdd08195e1a5cdd607a1b6044820152606401610b5a565b805142101561250c5760405162461bcd60e51b815260206004820152600b60248201526a3bb0b4ba103637b733b2b960a91b6044820152606401610b5a565b602080820151336000908152607790925260409091205410156125665760405162461bcd60e51b81526020600482015260126024820152711cdd185ad9481a5b9cdd59999a58da595b9d60721b6044820152606401610b5a565b606554602082015160405163a9059cbb60e01b81526001600160a01b039092169163a9059cbb9161259c9186919060040161565d565b6020604051808303816000875af11580156125bb573d6000803e3d6000fd5b505050506040513d601f19601f820116820180604052508101906125df9190615676565b506020808201513360009081526077909252604082208054919290916126069084906155fb565b9091555050602080820151336000908152607a909252604082208054919290916126319084906155fb565b909155505033600081815260796020908152604080832087845282528083208381556001019290925583810151915191825285926001600160a01b0386169290917f109aeff667601aad33abcb7c5df1617754eefd18253d586a95c198cb479b5bd4910160405180910390a4505050565b6126aa613bd5565b607281905560405181907f2cf38ed7da57dd510fa6ecbfb991949cdde5c808acbe85cfa940b642def628ed90600090a250565b606754600160a01b900460ff16156127075760405162461bcd60e51b8152600401610b5a906155c5565b6000818152607d60205260409020546001600160a01b03166127605760405162461bcd60e51b81526020600482015260126024820152711cdbdb1d5d1a5bdb881b9bdd08199bdd5b9960721b6044820152606401610b5a565b6000818152607e60205260409020546001600160a01b0316156127b85760405162461bcd60e51b815260206004820152601060248201526f3430b99031b7b73a32b9ba30ba34b7b760811b6044820152606401610b5a565b6071546127c590426155fb565b6000828152607d6020526040902054600160a01b90046001600160401b0316106128245760405162461bcd60e51b815260206004820152601060248201526f6e6f7420656e6f7567682064656c617960801b6044820152606401610b5a565b6000818152607d6020526040902054600160e01b900460ff161561287c5760405162461bcd60e51b815260206004820152600f60248201526e185b1c9958591e4818db185a5b5959608a1b6044820152606401610b5a565b6000818152607d6020526040808220805460ff60e01b198116600160e01b17909155905183926001600160a01b03909216917f0b76b4ae356796814d36b46f7c500bbd27b2cce1e6059a6fa2bebfd5a389b19091a36128da81613fcc565b50565b6065546040516370a0823160e01b815230600482015260009182916001600160a01b03909116906370a0823190602401602060405180830381865afa15801561292a573d6000803e3d6000fd5b505050506040513d601f19601f8201168201806040525081019061294e91906158f2565b9050697f0e10af47c1c7000000811061296957600091505090565b61157e81697f0e10af47c1c70000006155fb565b6000818152607e60205260408120546001600160a01b03166129a1575060016114d2565b6073546000838152607e60205260409020546129cd9190600160a01b90046001600160401b0316615693565b4211156129dc575060026114d2565b6000828152607f602090815260408083206001600160a01b038716845290915290205460ff1615612a0f575060036114d2565b6001600160a01b0383166000908152607760205260408120600101549003612a39575060046114d2565b6074546001600160a01b0384166000908152607760205260409020600101541015612a66575060056114d2565b6000828152607e60209081526040808320546074546001600160a01b03881685526077909352922060010154600160a01b9092046001600160401b031691612aae91906155fb565b1115612abc575060066114d2565b50600092915050565b606754600160a01b900460ff1615612aef5760405162461bcd60e51b8152600401610b5a906155c5565b6000828152607e60205260409020546001600160a01b0316612b535760405162461bcd60e51b815260206004820152601a60248201527f636f6e746573746174696f6e20646f65736e27742065786973740000000000006044820152606401610b5a565b6073546000838152607e6020526040902054612b7f9190600160a01b90046001600160401b0316615693565b421015612bce5760405162461bcd60e51b815260206004820152601760248201527f766f74696e6720706572696f64206e6f7420656e6465640000000000000000006044820152606401610b5a565b60008163ffffffff1611612c155760405162461bcd60e51b815260206004820152600e60248201526d185b5b9d081d1bdbc81cdb585b1b60921b6044820152606401610b5a565b6000828152608160209081526040808320546082835281842054607e909352908320549092600160e01b90910463ffffffff1690612c53858361590b565b6000878152607e602052604090206001015490915063ffffffff8085169086161115612f46576000612c8b8263ffffffff871661560e565b905060008663ffffffff16600114612cb757612ca860028361563b565b612cb290836155fb565b612cb9565b815b905060008763ffffffff16600114612cf557612cd660018961592f565b63ffffffff16612ce683856155fb565b612cf0919061563b565b612cf8565b60005b905063ffffffff86165b8563ffffffff16811015612e89578863ffffffff16811015612e775760008b8152608160205260408120805483908110612d3e57612d3e61594c565b60009182526020808320909101546001600160a01b0316808352607790915260408220805491935088929091612d75908490615693565b90915550506000829003612dfe5760655460405163a9059cbb60e01b81526001600160a01b039091169063a9059cbb90612db5908490889060040161565d565b6020604051808303816000875af1158015612dd4573d6000803e3d6000fd5b505050506040513d601f19601f82011682018060405250810190612df89190615676565b50612e75565b60655460405163a9059cbb60e01b81526001600160a01b039091169063a9059cbb90612e30908490879060040161565d565b6020604051808303816000875af1158015612e4f573d6000803e3d6000fd5b505050506040513d601f19601f82011682018060405250810190612e739190615676565b505b505b80612e8181615962565b915050612d02565b5060008a8152607e6020526040812054600160e01b900463ffffffff169003612f3e5760655460008b8152607b602052604090819020600281015460019190910154915163a9059cbb60e01b81526001600160a01b039384169363a9059cbb93612ef9939091169160040161565d565b6020604051808303816000875af1158015612f18573d6000803e3d6000fd5b505050506040513d601f19601f82011682018060405250810190612f3c9190615676565b505b50505061317c565b6000612f588263ffffffff881661560e565b905060008563ffffffff16600114612f7a57612f7560028361563b565b612f7c565b815b905060008663ffffffff16600114612fb857612f9960018861592f565b63ffffffff16612fa983856155fb565b612fb3919061563b565b612fbb565b60005b905063ffffffff86165b8563ffffffff1681101561314c578763ffffffff1681101561313a5760008b81526082602052604081208054839081106130015761300161594c565b60009182526020808320909101546001600160a01b0316808352607790915260408220805491935088929091613038908490615693565b909155505060008290036130c15760655460405163a9059cbb60e01b81526001600160a01b039091169063a9059cbb90613078908490889060040161565d565b6020604051808303816000875af1158015613097573d6000803e3d6000fd5b505050506040513d601f19601f820116820180604052508101906130bb9190615676565b50613138565b60655460405163a9059cbb60e01b81526001600160a01b039091169063a9059cbb906130f3908490879060040161565d565b6020604051808303816000875af1158015613112573d6000803e3d6000fd5b505050506040513d601f19601f820116820180604052508101906131369190615676565b505b505b8061314481615962565b915050612fc5565b5060008a8152607e6020526040812054600160e01b900463ffffffff169003613178576131788a613fcc565b5050505b6000878152607e602090815260409182902080546001600160e01b0316600160e01b63ffffffff8781169182029290921790925592519081529185169189917f71d8c71303e35a39162e33a402c9897bf9848388537bac7d5e1b0d202eca4e66910160405180910390a350505050505050565b606754600160a01b900460ff16156132195760405162461bcd60e51b8152600401610b5a906155c5565b6065546040516323b872dd60e01b8152336004820152306024820152604481018390526001600160a01b03909116906323b872dd906064016020604051808303816000875af1158015613270573d6000803e3d6000fd5b505050506040513d601f19601f820116820180604052508101906132949190615676565b50600061329f61151b565b6001600160a01b038416600090815260776020526040902054909150811061330c576001600160a01b03831660009081526077602052604090205481906132e7908490615693565b1061330c576001600160a01b0383166000908152607760205260409020426001909101555b604080516060810182526001600160a01b038516600090815260776020529190912054819061333c908590615693565b81526001600160a01b038581166000818152607760208181526040808420600181018054848a015297820186905293859052918152865183558681015190955594850151600290910180546001600160a01b0319169190931617909155915184815233917f8d4844488c19a90828439e71d14ebad860806d04f8ef8b25a82179fab2699b8991015b60405180910390a3505050565b6133d9613bd5565b6000828152607660205260409020600101546001600160a01b03166134105760405162461bcd60e51b8152600401610b5a906156a6565b600082815260766020526040908190206002018290555182907f0321e8a918b4c47bf3677852c070983825f30a47bc8d9416691454fa6a727d63906134589084815260200190565b60405180910390a25050565b60008160000361347d5750670de0b6b3a76400006114d2565b670de0b6b3a7640000697f0e10af47c1c700000061349b85856113ac565b670de0b6b3a76400006134b886697f0e10af47c1c70000006155fb565b6134c2919061560e565b6134cc919061560e565b6134d6919061563b565b611210919061563b565b6134e8613bd5565b607481905560405181907fdb340415b83e58bab317964518d523baabcc1571de3b5d8fe6ebd52c704d31a990600090a250565b606754600160a01b900460ff16156135455760405162461bcd60e51b8152600401610b5a906155c5565b60655460665460685460405163a9059cbb60e01b81526001600160a01b039384169363a9059cbb9361357c9391169160040161565d565b6020604051808303816000875af115801561359b573d6000803e3d6000fd5b505050506040513d601f19601f820116820180604052508101906135bf9190615676565b506000606855565b6135cf613bd5565b607381905560405181907f3a559dce5761b4b2e6099b6dc8d51f7eb190932dc5797d8090daf1a42cd58e7d90600090a250565b61360a613bd5565b607581905560405181907f7bf73d8c24113d60e7de7e92ae237284cf5a6f8dfe31e8eee1c6d9c8890e13c990600090a250565b606754600160a01b900460ff16156136675760405162461bcd60e51b8152600401610b5a906155c5565b33600090815260796020908152604080832084845282529182902082518084019093528054808452600190910154918301919091526136dc5760405162461bcd60e51b81526020600482015260116024820152701c995c5d595cdd081b9bdd08195e1a5cdd607a1b6044820152606401610b5a565b602080820151336000908152607a909252604082208054919290916137029084906155fb565b9091555050336000818152607960209081526040808320868452909152808220828155600101829055518492917ff9d5cfcdfe9803069225971ba315f4302add9b477c3441cc363bc38fdb065b9091a35050565b600063bbf81e008211156137755750697f0e10af47c1c7000000919050565b60006137906114b461378b856301e13380614367565b61437f565b9050670de0b6b3a7640000816137b0697f0e10af47c1c70000008361560e565b6137c290670de0b6b3a764000061560e565b6137cc919061563b565b6137d6919061563b565b61121090697f0e10af47c1c70000006155fb565b6081602052816000526040600020818154811061161657600080fd5b61380e613bd5565b606680546001600160a01b0319166001600160a01b0383169081179091556040517f6bdb9ceff405d990c9b60be9f719fbb80889d5f064e8fd76efd5bea353e9071290600090a250565b607660205260009081526040902080546001820154600283015460038401805493946001600160a01b03909316939192916123ab906156d4565b607b602052600090815260409020805460018201546002830154600384018054939492936001600160a01b03831693600160a01b84046001600160401b031693600160e01b900460ff169290916138e8906156d4565b80601f0160208091040260200160405190810160405280929190818152602001828054613914906156d4565b80156139615780601f1061393657610100808354040283529160200191613961565b820191906000526020600020905b81548152906001019060200180831161394457829003601f168201915b5050505050905086565b613973613bd5565b6128da816143d5565b6060620100008211156139d15760405162461bcd60e51b815260206004820152601f60248201527f4d617820636f6e74656e742073697a65206973203635353336206279746573006044820152606401610b5a565b60006139dc8361444b565b90506000818585846040516020016139f7949392919061597b565b60405160208183030381529060405290506002613a14825161444b565b82604051602001613a269291906159d2565b60408051601f1981840301815290829052613a4091615a12565b602060405180830381855afa158015613a5d573d6000803e3d6000fd5b5050506040513d601f19601f82011682018060405250810190613a8091906158f2565b604051609160f51b602082015260228101919091526042016040516020818303038152906040529250505092915050565b6000838152607f602090815260408083206001600160a01b03851684529091529020805460ff191660011790558115613b205760008381526081602090815260408220805460018101825590835291200180546001600160a01b0319166001600160a01b038316179055613b58565b60008381526082602090815260408220805460018101825590835291200180546001600160a01b0319166001600160a01b0383161790555b6000838152607e60209081526040808320600101546001600160a01b038516845260779092528220805491929091613b919084906155fb565b9091555050604051821515815283906001600160a01b038316907f1aa9e4be46e24e1f2e7eeb1613c01629213cd42965d2716e18531b63e552e411906020016133c4565b6033546001600160a01b031633146123615760405162461bcd60e51b815260206004820181905260248201527f4f776e61626c653a2063616c6c6572206973206e6f7420746865206f776e65726044820152606401610b5a565b60008282600160ff1b821480613c485750600160ff1b81145b15613c66576040516309fe2b4560e41b815260040160405180910390fd5b60008060008412613c775783613c7c565b836000035b915060008312613c8c5782613c91565b826000035b90506000613ca883670de0b6b3a7640000846145a2565b90506001600160ff1b03811115613cdc5760405163d49c26b360e01b81526004810189905260248101889052604401610b5a565b60001985851813613cf881613cf457826000036114b4565b8290565b9998505050505050505050565b60006112106114b48385615a2e565b60008282600160ff1b821480613d2d5750600160ff1b81145b15613d4b5760405163a6070c2560e01b815260040160405180910390fd5b60008060008412613d5c5783613d61565b836000035b915060008312613d715782613d76565b826000035b90506000613d848383614676565b90506001600160ff1b03811115613cdc5760405163120b5b4360e01b81526004810189905260248101889052604401610b5a565b60006112106114b48385615a4e565b600081600160ff1b8101613dee5760405163ec2b9e6760e01b815260040160405180910390fd5b60008112613dfc5782611210565b6112106114b482615a76565b60008181811215613e695768033dd1780914b9711419811215613e2e5750600092915050565b613e62613e416114b46114af8460000390565b6ec097ce7bc90715b34b9f100000000081613e5e57613e5e615625565b0590565b9150613eb4565b680a688906bd8affffff811315613e9557604051626c1a0560e31b815260048101849052602401610b5a565b670de0b6b3a7640000604082901b05613eb06114b48261472c565b9250505b50919050565b600054610100900460ff16613ee15760405162461bcd60e51b8152600401610b5a90615a92565b612361614e8c565b60004661a4ba811480613efe575062066eed81145b80613f0b575062066eee81145b15613f735760646001600160a01b031663a3b1b31d6040518163ffffffff1660e01b8152600401602060405180830381865afa158015613f4f573d6000803e3d6000fd5b505050506040513d601f19601f8201168201806040525081019061157e91906158f2565b4391505090565b603380546001600160a01b038381166001600160a01b0319831681179093556040519116919082907f8be0079c531659141344cd1fd0a4f28419497f9722a3daafe3b4186f6b6457e090600090a35050565b6000818152607b602081815260408084208054855260768352908420549385905291905260010154811115613fff575060005b801561409d576065546000838152607b6020908152604080832054835260769091529081902060010154905163a9059cbb60e01b81526001600160a01b039283169263a9059cbb9261405892911690859060040161565d565b6020604051808303816000875af1158015614077573d6000803e3d6000fd5b505050506040513d601f19601f8201168201806040525081019061409b9190615676565b505b6000828152607b60205260408120600101546140ba9083906155fb565b90506000670de0b6b3a7640000606e54670de0b6b3a76400006140dd91906155fb565b6140e7908461560e565b6140f1919061563b565b6140fb90836155fb565b9050806068600082825461410f9190615693565b909155506000905061412182846155fb565b905080156141ba576065546000868152607d60205260409020546001600160a01b039182169163a9059cbb911661415885876155fb565b6040518363ffffffff1660e01b815260040161417592919061565d565b6020604051808303816000875af1158015614194573d6000803e3d6000fd5b505050506040513d601f19601f820116820180604052508101906141b89190615676565b505b6000858152607b602090815260408083205483526076909152902060020154801561435f576000670de0b6b3a7640000826141f36116a6565b6141fd919061560e565b614207919061563b565b9050801561435d576000670de0b6b3a7640000607054670de0b6b3a764000061423091906155fb565b61423a908461560e565b614244919061563b565b61424e90836155fb565b60655460008a8152607d60205260409020549192506001600160a01b039081169163a9059cbb911661428084866155fb565b6040518363ffffffff1660e01b815260040161429d92919061565d565b6020604051808303816000875af11580156142bc573d6000803e3d6000fd5b505050506040513d601f19601f820116820180604052508101906142e09190615676565b5060655460665460405163a9059cbb60e01b81526001600160a01b039283169263a9059cbb9261431792911690859060040161565d565b6020604051808303816000875af1158015614336573d6000803e3d6000fd5b505050506040513d601f19601f8201168201806040525081019061435a9190615676565b50505b505b505050505050565b60006112106114b484670de0b6b3a7640000856145a2565b600081680a688906bd8affffff8111156143af5760405163b3b6ba1f60e01b815260048101849052602401610b5a565b60006143c7670de0b6b3a7640000604084901b61563b565b9050613eb06114b48261472c565b6143dd613bd5565b6001600160a01b0381166144425760405162461bcd60e51b815260206004820152602660248201527f4f776e61626c653a206e6577206f776e657220697320746865207a65726f206160448201526564647265737360d01b6064820152608401610b5a565b6128da81613f7a565b60608160015b607f826001600160401b03161115614484576007826001600160401b0316901c91508061447d90615add565b9050614451565b6000816001600160401b03166001600160401b038111156144a7576144a7615015565b6040519080825280601f01601f1916602001820160405280156144d1576020820181803683370190505b50905084925060005b826001600160401b0316816001600160401b031610156145535783607f1660801760f81b82826001600160401b0316815181106145195761451961594c565b60200101906001600160f81b031916908160001a9053506007846001600160401b0316901c9350808061454b90615add565b9150506144da565b50607f60f81b81614565600185615b03565b6001600160401b03168151811061457e5761457e61594c565b0160200180519091166001600160f81b03191690600082901a905350949350505050565b60008080600019858709858702925082811083820303915050806000036145dc578382816145d2576145d2615625565b0492505050611210565b83811061460d57604051630c740aef60e31b8152600481018790526024810186905260448101859052606401610b5a565b60008486880960026001871981018816978890046003810283188082028403028082028403028082028403028082028403028082028403029081029092039091026000889003889004909101858311909403939093029303949094049190911702949350505050565b60008080600019848609848602925082811083820303915050806000036146aa5750670de0b6b3a7640000900490506114d2565b670de0b6b3a764000081106146dc57604051635173648d60e01b81526004810186905260248101859052604401610b5a565b6000670de0b6b3a764000085870962040000818503049310909103600160ee1b02919091177faccb18165bd6fe31ae1cf318dc5b51eee0e1ba569b88cd74c1773b91fac106690291505092915050565b600160bf1b67ff00000000000000821615614839576780000000000000008216156147605768016a09e667f3bcc9090260401c5b67400000000000000082161561477f576801306fe0a31b7152df0260401c5b67200000000000000082161561479e576801172b83c7d517adce0260401c5b6710000000000000008216156147bd5768010b5586cf9890f62a0260401c5b6708000000000000008216156147dc576801059b0d31585743ae0260401c5b6704000000000000008216156147fb57680102c9a3e778060ee70260401c5b67020000000000000082161561481a5768010163da9fb33356d80260401c5b67010000000000000082161561483957680100b1afa5abcbed610260401c5b66ff0000000000008216156149385766800000000000008216156148665768010058c86da1c09ea20260401c5b6640000000000000821615614884576801002c605e2e8cec500260401c5b66200000000000008216156148a257680100162f3904051fa10260401c5b66100000000000008216156148c0576801000b175effdc76ba0260401c5b66080000000000008216156148de57680100058ba01fb9f96d0260401c5b66040000000000008216156148fc5768010002c5cc37da94920260401c5b660200000000000082161561491a576801000162e525ee05470260401c5b66010000000000008216156149385768010000b17255775c040260401c5b65ff0000000000821615614a2e5765800000000000821615614963576801000058b91b5bc9ae0260401c5b6540000000000082161561498057680100002c5c89d5ec6d0260401c5b6520000000000082161561499d5768010000162e43f4f8310260401c5b651000000000008216156149ba57680100000b1721bcfc9a0260401c5b650800000000008216156149d75768010000058b90cf1e6e0260401c5b650400000000008216156149f4576801000002c5c863b73f0260401c5b65020000000000821615614a1157680100000162e430e5a20260401c5b65010000000000821615614a2e576801000000b1721835510260401c5b64ff00000000821615614b1b57648000000000821615614a5757680100000058b90c0b490260401c5b644000000000821615614a735768010000002c5c8601cc0260401c5b642000000000821615614a8f576801000000162e42fff00260401c5b641000000000821615614aab5768010000000b17217fbb0260401c5b640800000000821615614ac7576801000000058b90bfce0260401c5b640400000000821615614ae357680100000002c5c85fe30260401c5b640200000000821615614aff5768010000000162e42ff10260401c5b640100000000821615614b1b57680100000000b17217f80260401c5b63ff000000821615614bff576380000000821615614b425768010000000058b90bfc0260401c5b6340000000821615614b5d576801000000002c5c85fe0260401c5b6320000000821615614b7857680100000000162e42ff0260401c5b6310000000821615614b93576801000000000b17217f0260401c5b6308000000821615614bae57680100000000058b90c00260401c5b6304000000821615614bc95768010000000002c5c8600260401c5b6302000000821615614be4576801000000000162e4300260401c5b6301000000821615614bff5768010000000000b172180260401c5b62ff0000821615614cda5762800000821615614c24576801000000000058b90c0260401c5b62400000821615614c3e57680100000000002c5c860260401c5b62200000821615614c585768010000000000162e430260401c5b62100000821615614c7257680100000000000b17210260401c5b62080000821615614c8c5768010000000000058b910260401c5b62040000821615614ca6576801000000000002c5c80260401c5b62020000821615614cc057680100000000000162e40260401c5b62010000821615614cda576801000000000000b1720260401c5b61ff00821615614dac57618000821615614cfd57680100000000000058b90260401c5b614000821615614d165768010000000000002c5d0260401c5b612000821615614d2f576801000000000000162e0260401c5b611000821615614d485768010000000000000b170260401c5b610800821615614d61576801000000000000058c0260401c5b610400821615614d7a57680100000000000002c60260401c5b610200821615614d9357680100000000000001630260401c5b610100821615614dac57680100000000000000b10260401c5b60ff821615614e75576080821615614dcd57680100000000000000590260401c5b6040821615614de5576801000000000000002c0260401c5b6020821615614dfd57680100000000000000160260401c5b6010821615614e15576801000000000000000b0260401c5b6008821615614e2d57680100000000000000060260401c5b6004821615614e4557680100000000000000030260401c5b6002821615614e5d57680100000000000000010260401c5b6001821615614e7557680100000000000000010260401c5b670de0b6b3a76400000260409190911c60bf031c90565b600054610100900460ff16614eb35760405162461bcd60e51b8152600401610b5a90615a92565b61236133613f7a565b508054614ec8906156d4565b6000825580601f10614ed8575050565b601f0160209004906000526020600020908101906128da91905b80821115614f065760008155600101614ef2565b5090565b600060208284031215614f1c57600080fd5b5035919050565b803560ff811681146111cb57600080fd5b6001600160a01b03811681146128da57600080fd5b80356111cb81614f34565b60008083601f840112614f6657600080fd5b5081356001600160401b03811115614f7d57600080fd5b602083019150836020828501011115614f9557600080fd5b9250929050565b60008060008060008060a08789031215614fb557600080fd5b614fbe87614f23565b95506020870135614fce81614f34565b9450604087013593506060870135925060808701356001600160401b03811115614ff757600080fd5b61500389828a01614f54565b979a9699509497509295939492505050565b634e487b7160e01b600052604160045260246000fd5b60405160c081016001600160401b038111828210171561504d5761504d615015565b60405290565b600082601f83011261506457600080fd5b81356001600160401b038082111561507e5761507e615015565b604051601f8301601f19908116603f011681019082821181831017156150a6576150a6615015565b816040528381528660208588010111156150bf57600080fd5b836020870160208301376000602085830101528094505050505092915050565b6000806000606084860312156150f457600080fd5b83356001600160401b038082111561510b57600080fd5b9085019060c0828803121561511f57600080fd5b61512761502b565b8235815260208301356020820152604083013561514381614f34565b60408201526060830135828116811461515b57600080fd5b606082015261516c60808401614f23565b608082015260a08301358281111561518357600080fd5b61518f89828601615053565b60a08301525094506151a691505060208501614f49565b9150604084013590509250925092565b80151581146128da57600080fd5b6000602082840312156151d657600080fd5b8135611210816151b6565b600080604083850312156151f457600080fd5b823591506020830135615206816151b6565b809150509250929050565b60006020828403121561522357600080fd5b813561121081614f34565b6000806040838503121561524157600080fd5b50508035926020909101359150565b6000806040838503121561526357600080fd5b82356001600160401b038082111561527a57600080fd5b908401906080828703121561528e57600080fd5b6040516080810181811083821117156152a9576152a9615015565b6040528235815260208301356152be81614f34565b6020820152604083810135908201526060830135828111156152df57600080fd5b6152eb88828601615053565b606083015250935061530291505060208401614f49565b90509250929050565b6000806000806060858703121561532157600080fd5b843561532c81614f34565b93506020850135925060408501356001600160401b0381111561534e57600080fd5b61535a87828801614f54565b95989497509550505050565b6000806020838503121561537957600080fd5b82356001600160401b0381111561538f57600080fd5b61539b85828601614f54565b90969095509350505050565b60005b838110156153c25781810151838201526020016153aa565b50506000910152565b600081518084526153e38160208601602086016153a7565b601f01601f19169290920160200192915050565b60208152600061121060208301846153cb565b6000806040838503121561541d57600080fd5b823561542881614f34565b9150602083013561520681614f34565b60008060006040848603121561544d57600080fd5b8335925060208401356001600160401b0381111561546a57600080fd5b61547686828701614f54565b9497909650939450505050565b6001600160a01b03851681526001600160401b038416602082015282151560408201526080606082018190526000906154be908301846153cb565b9695505050505050565b600080604083850312156154db57600080fd5b82359150602083013561520681614f34565b6000806040838503121561550057600080fd5b823561550b81614f34565b946020939093013593505050565b6000806040838503121561552c57600080fd5b82359150602083013563ffffffff8116811461520657600080fd5b84815260018060a01b03841660208201528260408201526080606082015260006154be60808301846153cb565b86815285602082015260018060a01b03851660408201526001600160401b038416606082015260ff8316608082015260c060a082015260006155b960c08301846153cb565b98975050505050505050565b6020808252600690820152651c185d5cd95960d21b604082015260600190565b634e487b7160e01b600052601160045260246000fd5b818103818111156114d2576114d26155e5565b80820281158282048414176114d2576114d26155e5565b634e487b7160e01b600052601260045260246000fd5b60008261565857634e487b7160e01b600052601260045260246000fd5b500490565b6001600160a01b03929092168252602082015260400190565b60006020828403121561568857600080fd5b8151611210816151b6565b808201808211156114d2576114d26155e5565b6020808252601490820152731b5bd9195b08191bd95cc81b9bdd08195e1a5cdd60621b604082015260600190565b600181811c908216806156e857607f821691505b602082108103613eb457634e487b7160e01b600052602260045260246000fd5b601f82111561196657600081815260208120601f850160051c8101602086101561572f5750805b601f850160051c820191505b8181101561435f5782815560010161573b565b81516001600160401b0381111561576757615767615015565b61577b8161577584546156d4565b84615708565b602080601f8311600181146157b057600084156157985750858301515b600019600386901b1c1916600185901b17855561435f565b600085815260208120601f198616915b828110156157df578886015182559484019460019091019084016157c0565b50858210156157fd5787850151600019600388901b60f8161c191681555b5050505050600190811b01905550565b60018060a01b038616815284602082015283604082015282606082015260a06080820152600061584060a08301846153cb565b979650505050505050565b6020808252601290820152716d696e207374616b656420746f6f206c6f7760701b604082015260600190565b6001600160a01b03858116825284166020820152604081018390526080606082018190526000906154be908301846153cb565b6001600160a01b0385168152602081018490526060604082018190528101829052818360808301376000818301608090810191909152601f909201601f191601019392505050565b60006020828403121561590457600080fd5b5051919050565b63ffffffff818116838216019080821115615928576159286155e5565b5092915050565b63ffffffff828116828216039080821115615928576159286155e5565b634e487b7160e01b600052603260045260246000fd5b600060018201615974576159746155e5565b5060010190565b6204010960e91b8152845160009061599a816003850160208a016153a7565b820184866003830137600360fb1b60039186019182015283516159c48160048401602088016153a7565b016004019695505050505050565b600560f91b815282516000906159ef8160018501602088016153a7565b835190830190615a068160018401602088016153a7565b01600101949350505050565b60008251615a248184602087016153a7565b9190910192915050565b8181036000831280158383131683831282161715615928576159286155e5565b8082018281126000831280158216821582161715615a6e57615a6e6155e5565b505092915050565b6000600160ff1b8201615a8b57615a8b6155e5565b5060000390565b6020808252602b908201527f496e697469616c697a61626c653a20636f6e7472616374206973206e6f74206960408201526a6e697469616c697a696e6760a81b606082015260800190565b60006001600160401b03808316818103615af957615af96155e5565b6001019392505050565b6001600160401b03828116828216039080821115615928576159286155e556fea2646970667358221220d7be969a1809c926058ff8a4fd03e5d71df65bef02369bb562b3395ee3cea70564736f6c63430008130033",
  "linkReferences": {},
  "deployedLinkReferences": {}
}