{
  "_format": "hh-sol-artifact-1",
  "contractName": "V2_EngineV2",
  "sourceName": "contracts/V2_EngineV2.sol",
  "abi": [
    {
      "inputs": [],
      "stateMutability": "nonpayable",
      "type": "constructor"
    },
    {
      "inputs": [
        {
          "internalType": "uint256",
          "name": "x",
          "type": "uint256"
        },
        {
          "internalType": "uint256",
          "name": "y",
          "type": "uint256"
        }
      ],
      "name": "PRBMath_MulDiv18_Overflow",
      "type": "error"
    },
    {
      "inputs": [
        {
          "internalType": "uint256",
          "name": "x",
          "type": "uint256"
        },
        {
          "internalType": "uint256",
          "name": "y",
          "type": "uint256"
        },
        {
          "internalType": "uint256",
          "name": "denominator",
          "type": "uint256"
        }
      ],
      "name": "PRBMath_MulDiv_Overflow",
      "type": "error"
    },
    {
      "inputs": [],
      "name": "PRBMath_SD59x18_Abs_MinSD59x18",
      "type": "error"
    },
    {
      "inputs": [],
      "name": "PRBMath_SD59x18_Div_InputTooSmall",
      "type": "error"
    },
    {
      "inputs": [
        {
          "internalType": "SD59x18",
          "name": "x",
          "type": "int256"
        },
        {
          "internalType": "SD59x18",
          "name": "y",
          "type": "int256"
        }
      ],
      "name": "PRBMath_SD59x18_Div_Overflow",
      "type": "error"
    },
    {
      "inputs": [
        {
          "internalType": "SD59x18",
          "name": "x",
          "type": "int256"
        }
      ],
      "name": "PRBMath_SD59x18_Exp2_InputTooBig",
      "type": "error"
    },
    {
      "inputs": [],
      "name": "PRBMath_SD59x18_Mul_InputTooSmall",
      "type": "error"
    },
    {
      "inputs": [
        {
          "internalType": "SD59x18",
          "name": "x",
          "type": "int256"
        },
        {
          "internalType": "SD59x18",
          "name": "y",
          "type": "int256"
        }
      ],
      "name": "PRBMath_SD59x18_Mul_Overflow",
      "type": "error"
    },
    {
      "inputs": [
        {
          "internalType": "UD60x18",
          "name": "x",
          "type": "uint256"
        }
      ],
      "name": "PRBMath_UD60x18_Exp2_InputTooBig",
      "type": "error"
    },
    {
      "anonymous": false,
      "inputs": [
        {
          "indexed": true,
          "internalType": "address",
          "name": "addr",
          "type": "address"
        },
        {
          "indexed": true,
          "internalType": "bytes32",
          "name": "task",
          "type": "bytes32"
        }
      ],
      "name": "ContestationSubmitted",
      "type": "event"
    },
    {
      "anonymous": false,
      "inputs": [
        {
          "indexed": true,
          "internalType": "address",
          "name": "addr",
          "type": "address"
        },
        {
          "indexed": true,
          "internalType": "bytes32",
          "name": "task",
          "type": "bytes32"
        },
        {
          "indexed": false,
          "internalType": "bool",
          "name": "yea",
          "type": "bool"
        }
      ],
      "name": "ContestationVote",
      "type": "event"
    },
    {
      "anonymous": false,
      "inputs": [
        {
          "indexed": true,
          "internalType": "bytes32",
          "name": "id",
          "type": "bytes32"
        },
        {
          "indexed": true,
          "internalType": "uint32",
          "name": "start_idx",
          "type": "uint32"
        },
        {
          "indexed": false,
          "internalType": "uint32",
          "name": "end_idx",
          "type": "uint32"
        }
      ],
      "name": "ContestationVoteFinish",
      "type": "event"
    },
    {
      "anonymous": false,
      "inputs": [
        {
          "indexed": true,
          "internalType": "uint256",
          "name": "amount",
          "type": "uint256"
        }
      ],
      "name": "ExitValidatorMinUnlockTimeChanged",
      "type": "event"
    },
    {
      "anonymous": false,
      "inputs": [
        {
          "indexed": false,
          "internalType": "uint8",
          "name": "version",
          "type": "uint8"
        }
      ],
      "name": "Initialized",
      "type": "event"
    },
    {
      "anonymous": false,
      "inputs": [
        {
          "indexed": true,
          "internalType": "uint256",
          "name": "amount",
          "type": "uint256"
        }
      ],
      "name": "MaxContestationValidatorStakeSinceChanged",
      "type": "event"
    },
    {
      "anonymous": false,
      "inputs": [
        {
          "indexed": true,
          "internalType": "uint256",
          "name": "amount",
          "type": "uint256"
        }
      ],
      "name": "MinClaimSolutionTimeChanged",
      "type": "event"
    },
    {
      "anonymous": false,
      "inputs": [
        {
          "indexed": true,
          "internalType": "uint256",
          "name": "amount",
          "type": "uint256"
        }
      ],
      "name": "MinContestationVotePeriodTimeChanged",
      "type": "event"
    },
    {
      "anonymous": false,
      "inputs": [
        {
          "indexed": true,
          "internalType": "uint256",
          "name": "amount",
          "type": "uint256"
        }
      ],
      "name": "MinRetractionWaitTimeChanged",
      "type": "event"
    },
    {
      "anonymous": false,
      "inputs": [
        {
          "indexed": true,
          "internalType": "bytes32",
          "name": "id",
          "type": "bytes32"
        }
      ],
      "name": "ModelRegistered",
      "type": "event"
    },
    {
      "anonymous": false,
      "inputs": [
        {
          "indexed": true,
          "internalType": "address",
          "name": "previousOwner",
          "type": "address"
        },
        {
          "indexed": true,
          "internalType": "address",
          "name": "newOwner",
          "type": "address"
        }
      ],
      "name": "OwnershipTransferred",
      "type": "event"
    },
    {
      "anonymous": false,
      "inputs": [
        {
          "indexed": true,
          "internalType": "bool",
          "name": "paused",
          "type": "bool"
        }
      ],
      "name": "PausedChanged",
      "type": "event"
    },
    {
      "anonymous": false,
      "inputs": [
        {
          "indexed": true,
          "internalType": "address",
          "name": "to",
          "type": "address"
        }
      ],
      "name": "PauserTransferred",
      "type": "event"
    },
    {
      "anonymous": false,
      "inputs": [
        {
          "indexed": true,
          "internalType": "uint256",
          "name": "amount",
          "type": "uint256"
        }
      ],
      "name": "RetractionFeePercentageChanged",
      "type": "event"
    },
    {
      "anonymous": false,
      "inputs": [
        {
          "indexed": true,
          "internalType": "address",
          "name": "addr",
          "type": "address"
        },
        {
          "indexed": true,
          "internalType": "bytes32",
          "name": "commitment",
          "type": "bytes32"
        }
      ],
      "name": "SignalCommitment",
      "type": "event"
    },
    {
      "anonymous": false,
      "inputs": [
        {
          "indexed": true,
          "internalType": "address",
          "name": "addr",
          "type": "address"
        },
        {
          "indexed": true,
          "internalType": "bytes32",
          "name": "model",
          "type": "bytes32"
        },
        {
          "indexed": false,
          "internalType": "bool",
          "name": "supported",
          "type": "bool"
        }
      ],
      "name": "SignalSupport",
      "type": "event"
    },
    {
      "anonymous": false,
      "inputs": [
        {
          "indexed": true,
          "internalType": "uint256",
          "name": "amount",
          "type": "uint256"
        }
      ],
      "name": "SlashAmountPercentageChanged",
      "type": "event"
    },
    {
      "anonymous": false,
      "inputs": [
        {
          "indexed": true,
          "internalType": "address",
          "name": "addr",
          "type": "address"
        },
        {
          "indexed": true,
          "internalType": "bytes32",
          "name": "task",
          "type": "bytes32"
        }
      ],
      "name": "SolutionClaimed",
      "type": "event"
    },
    {
      "anonymous": false,
      "inputs": [
        {
          "indexed": true,
          "internalType": "uint256",
          "name": "amount",
          "type": "uint256"
        }
      ],
      "name": "SolutionFeePercentageChanged",
      "type": "event"
    },
    {
      "anonymous": false,
      "inputs": [
        {
          "indexed": true,
          "internalType": "bytes32",
          "name": "id",
          "type": "bytes32"
        },
        {
          "indexed": false,
          "internalType": "uint256",
          "name": "rate",
          "type": "uint256"
        }
      ],
      "name": "SolutionMineableRateChange",
      "type": "event"
    },
    {
      "anonymous": false,
      "inputs": [
        {
          "indexed": true,
          "internalType": "uint256",
          "name": "amount",
          "type": "uint256"
        }
      ],
      "name": "SolutionStakeAmountChanged",
      "type": "event"
    },
    {
      "anonymous": false,
      "inputs": [
        {
          "indexed": true,
          "internalType": "address",
          "name": "addr",
          "type": "address"
        },
        {
          "indexed": true,
          "internalType": "bytes32",
          "name": "task",
          "type": "bytes32"
        }
      ],
      "name": "SolutionSubmitted",
      "type": "event"
    },
    {
      "anonymous": false,
      "inputs": [
        {
          "indexed": true,
          "internalType": "uint64",
          "name": "startBlockTime",
          "type": "uint64"
        }
      ],
      "name": "StartBlockTimeChanged",
      "type": "event"
    },
    {
      "anonymous": false,
      "inputs": [
        {
          "indexed": true,
          "internalType": "bytes32",
          "name": "id",
          "type": "bytes32"
        }
      ],
      "name": "TaskRetracted",
      "type": "event"
    },
    {
      "anonymous": false,
      "inputs": [
        {
          "indexed": true,
          "internalType": "bytes32",
          "name": "id",
          "type": "bytes32"
        },
        {
          "indexed": true,
          "internalType": "bytes32",
          "name": "model",
          "type": "bytes32"
        },
        {
          "indexed": false,
          "internalType": "uint256",
          "name": "fee",
          "type": "uint256"
        },
        {
          "indexed": true,
          "internalType": "address",
          "name": "sender",
          "type": "address"
        }
      ],
      "name": "TaskSubmitted",
      "type": "event"
    },
    {
      "anonymous": false,
      "inputs": [
        {
          "indexed": true,
          "internalType": "uint256",
          "name": "amount",
          "type": "uint256"
        }
      ],
      "name": "TreasuryRewardPercentageChanged",
      "type": "event"
    },
    {
      "anonymous": false,
      "inputs": [
        {
          "indexed": true,
          "internalType": "address",
          "name": "to",
          "type": "address"
        }
      ],
      "name": "TreasuryTransferred",
      "type": "event"
    },
    {
      "anonymous": false,
      "inputs": [
        {
          "indexed": true,
          "internalType": "address",
          "name": "addr",
          "type": "address"
        },
        {
          "indexed": true,
          "internalType": "address",
          "name": "validator",
          "type": "address"
        },
        {
          "indexed": false,
          "internalType": "uint256",
          "name": "amount",
          "type": "uint256"
        }
      ],
      "name": "ValidatorDeposit",
      "type": "event"
    },
    {
      "anonymous": false,
      "inputs": [
        {
          "indexed": true,
          "internalType": "uint256",
          "name": "amount",
          "type": "uint256"
        }
      ],
      "name": "ValidatorMinimumPercentageChanged",
      "type": "event"
    },
    {
      "anonymous": false,
      "inputs": [
        {
          "indexed": true,
          "internalType": "address",
          "name": "addr",
          "type": "address"
        },
        {
          "indexed": true,
          "internalType": "address",
          "name": "to",
          "type": "address"
        },
        {
          "indexed": true,
          "internalType": "uint256",
          "name": "count",
          "type": "uint256"
        },
        {
          "indexed": false,
          "internalType": "uint256",
          "name": "amount",
          "type": "uint256"
        }
      ],
      "name": "ValidatorWithdraw",
      "type": "event"
    },
    {
      "anonymous": false,
      "inputs": [
        {
          "indexed": true,
          "internalType": "address",
          "name": "addr",
          "type": "address"
        },
        {
          "indexed": true,
          "internalType": "uint256",
          "name": "count",
          "type": "uint256"
        }
      ],
      "name": "ValidatorWithdrawCancelled",
      "type": "event"
    },
    {
      "anonymous": false,
      "inputs": [
        {
          "indexed": true,
          "internalType": "address",
          "name": "addr",
          "type": "address"
        },
        {
          "indexed": true,
          "internalType": "uint256",
          "name": "count",
          "type": "uint256"
        },
        {
          "indexed": false,
          "internalType": "uint256",
          "name": "unlockTime",
          "type": "uint256"
        },
        {
          "indexed": false,
          "internalType": "uint256",
          "name": "amount",
          "type": "uint256"
        }
      ],
      "name": "ValidatorWithdrawInitiated",
      "type": "event"
    },
    {
      "anonymous": false,
      "inputs": [
        {
          "indexed": false,
          "internalType": "uint256",
          "name": "version",
          "type": "uint256"
        }
      ],
      "name": "VersionChanged",
      "type": "event"
    },
    {
      "inputs": [],
      "name": "accruedFees",
      "outputs": [
        {
          "internalType": "uint256",
          "name": "",
          "type": "uint256"
        }
      ],
      "stateMutability": "view",
      "type": "function"
    },
    {
      "inputs": [],
      "name": "baseToken",
      "outputs": [
        {
          "internalType": "contract IBaseToken",
          "name": "",
          "type": "address"
        }
      ],
      "stateMutability": "view",
      "type": "function"
    },
    {
      "inputs": [
        {
          "internalType": "uint256",
          "name": "count_",
          "type": "uint256"
        }
      ],
      "name": "cancelValidatorWithdraw",
      "outputs": [],
      "stateMutability": "nonpayable",
      "type": "function"
    },
    {
      "inputs": [
        {
          "internalType": "bytes32",
          "name": "taskid_",
          "type": "bytes32"
        }
      ],
      "name": "claimSolution",
      "outputs": [],
      "stateMutability": "nonpayable",
      "type": "function"
    },
    {
      "inputs": [
        {
          "internalType": "bytes32",
          "name": "",
          "type": "bytes32"
        }
      ],
      "name": "commitments",
      "outputs": [
        {
          "internalType": "uint256",
          "name": "",
          "type": "uint256"
        }
      ],
      "stateMutability": "view",
      "type": "function"
    },
    {
      "inputs": [
        {
          "internalType": "bytes32",
          "name": "taskid_",
          "type": "bytes32"
        },
        {
          "internalType": "uint32",
          "name": "amnt_",
          "type": "uint32"
        }
      ],
      "name": "contestationVoteFinish",
      "outputs": [],
      "stateMutability": "nonpayable",
      "type": "function"
    },
    {
      "inputs": [
        {
          "internalType": "bytes32",
          "name": "",
          "type": "bytes32"
        },
        {
          "internalType": "uint256",
          "name": "",
          "type": "uint256"
        }
      ],
      "name": "contestationVoteNays",
      "outputs": [
        {
          "internalType": "address",
          "name": "",
          "type": "address"
        }
      ],
      "stateMutability": "view",
      "type": "function"
    },
    {
      "inputs": [
        {
          "internalType": "bytes32",
          "name": "",
          "type": "bytes32"
        },
        {
          "internalType": "uint256",
          "name": "",
          "type": "uint256"
        }
      ],
      "name": "contestationVoteYeas",
      "outputs": [
        {
          "internalType": "address",
          "name": "",
          "type": "address"
        }
      ],
      "stateMutability": "view",
      "type": "function"
    },
    {
      "inputs": [
        {
          "internalType": "bytes32",
          "name": "",
          "type": "bytes32"
        },
        {
          "internalType": "address",
          "name": "",
          "type": "address"
        }
      ],
      "name": "contestationVoted",
      "outputs": [
        {
          "internalType": "bool",
          "name": "",
          "type": "bool"
        }
      ],
      "stateMutability": "view",
      "type": "function"
    },
    {
      "inputs": [
        {
          "internalType": "bytes32",
          "name": "",
          "type": "bytes32"
        }
      ],
      "name": "contestationVotedIndex",
      "outputs": [
        {
          "internalType": "uint256",
          "name": "",
          "type": "uint256"
        }
      ],
      "stateMutability": "view",
      "type": "function"
    },
    {
      "inputs": [
        {
          "internalType": "bytes32",
          "name": "",
          "type": "bytes32"
        }
      ],
      "name": "contestations",
      "outputs": [
        {
          "internalType": "address",
          "name": "validator",
          "type": "address"
        },
        {
          "internalType": "uint64",
          "name": "blocktime",
          "type": "uint64"
        },
        {
          "internalType": "uint32",
          "name": "finish_start_index",
          "type": "uint32"
        },
        {
          "internalType": "uint256",
          "name": "slashAmount",
          "type": "uint256"
        }
      ],
      "stateMutability": "view",
      "type": "function"
    },
    {
      "inputs": [
        {
          "internalType": "uint256",
          "name": "t",
          "type": "uint256"
        },
        {
          "internalType": "uint256",
          "name": "ts",
          "type": "uint256"
        }
      ],
      "name": "diffMul",
      "outputs": [
        {
          "internalType": "uint256",
          "name": "",
          "type": "uint256"
        }
      ],
      "stateMutability": "pure",
      "type": "function"
    },
    {
      "inputs": [],
      "name": "exitValidatorMinUnlockTime",
      "outputs": [
        {
          "internalType": "uint256",
          "name": "",
          "type": "uint256"
        }
      ],
      "stateMutability": "view",
      "type": "function"
    },
    {
      "inputs": [
        {
          "internalType": "address",
          "name": "sender_",
          "type": "address"
        },
        {
          "internalType": "bytes32",
          "name": "taskid_",
          "type": "bytes32"
        },
        {
          "internalType": "bytes",
          "name": "cid_",
          "type": "bytes"
        }
      ],
      "name": "generateCommitment",
      "outputs": [
        {
          "internalType": "bytes32",
          "name": "",
          "type": "bytes32"
        }
      ],
      "stateMutability": "pure",
      "type": "function"
    },
    {
      "inputs": [
        {
          "internalType": "bytes",
          "name": "content_",
          "type": "bytes"
        }
      ],
      "name": "generateIPFSCID",
      "outputs": [
        {
          "internalType": "bytes",
          "name": "",
          "type": "bytes"
        }
      ],
      "stateMutability": "pure",
      "type": "function"
    },
    {
      "inputs": [],
      "name": "getPsuedoTotalSupply",
      "outputs": [
        {
          "internalType": "uint256",
          "name": "",
          "type": "uint256"
        }
      ],
      "stateMutability": "view",
      "type": "function"
    },
    {
      "inputs": [],
      "name": "getReward",
      "outputs": [
        {
          "internalType": "uint256",
          "name": "",
          "type": "uint256"
        }
      ],
      "stateMutability": "view",
      "type": "function"
    },
    {
      "inputs": [],
      "name": "getSlashAmount",
      "outputs": [
        {
          "internalType": "uint256",
          "name": "",
          "type": "uint256"
        }
      ],
      "stateMutability": "view",
      "type": "function"
    },
    {
      "inputs": [],
      "name": "getValidatorMinimum",
      "outputs": [
        {
          "internalType": "uint256",
          "name": "",
          "type": "uint256"
        }
      ],
      "stateMutability": "view",
      "type": "function"
    },
    {
      "inputs": [
        {
          "components": [
            {
              "internalType": "uint256",
              "name": "fee",
              "type": "uint256"
            },
            {
              "internalType": "address",
              "name": "addr",
              "type": "address"
            },
            {
              "internalType": "uint256",
              "name": "rate",
              "type": "uint256"
            },
            {
              "internalType": "bytes",
              "name": "cid",
              "type": "bytes"
            }
          ],
          "internalType": "struct Model",
          "name": "o_",
          "type": "tuple"
        },
        {
          "internalType": "address",
          "name": "sender_",
          "type": "address"
        }
      ],
      "name": "hashModel",
      "outputs": [
        {
          "internalType": "bytes32",
          "name": "",
          "type": "bytes32"
        }
      ],
      "stateMutability": "pure",
      "type": "function"
    },
    {
      "inputs": [
        {
          "components": [
            {
              "internalType": "bytes32",
              "name": "model",
              "type": "bytes32"
            },
            {
              "internalType": "uint256",
              "name": "fee",
              "type": "uint256"
            },
            {
              "internalType": "address",
              "name": "owner",
              "type": "address"
            },
            {
              "internalType": "uint64",
              "name": "blocktime",
              "type": "uint64"
            },
            {
              "internalType": "uint8",
              "name": "version",
              "type": "uint8"
            },
            {
              "internalType": "bytes",
              "name": "cid",
              "type": "bytes"
            }
          ],
          "internalType": "struct Task",
          "name": "o_",
          "type": "tuple"
        },
        {
          "internalType": "address",
          "name": "sender_",
          "type": "address"
        },
        {
          "internalType": "bytes32",
          "name": "prevhash_",
          "type": "bytes32"
        }
      ],
      "name": "hashTask",
      "outputs": [
        {
          "internalType": "bytes32",
          "name": "",
          "type": "bytes32"
        }
      ],
      "stateMutability": "pure",
      "type": "function"
    },
    {
      "inputs": [
        {
          "internalType": "contract IBaseToken",
          "name": "baseToken_",
          "type": "address"
        },
        {
          "internalType": "address",
          "name": "treasury_",
          "type": "address"
        }
      ],
      "name": "initialize",
      "outputs": [],
      "stateMutability": "nonpayable",
      "type": "function"
    },
    {
      "inputs": [
        {
          "internalType": "uint256",
          "name": "amount_",
          "type": "uint256"
        }
      ],
      "name": "initiateValidatorWithdraw",
      "outputs": [
        {
          "internalType": "uint256",
          "name": "",
          "type": "uint256"
        }
      ],
      "stateMutability": "nonpayable",
      "type": "function"
    },
    {
      "inputs": [
        {
          "internalType": "address",
          "name": "",
          "type": "address"
        }
      ],
      "name": "lastContestationLossTime",
      "outputs": [
        {
          "internalType": "uint256",
          "name": "",
          "type": "uint256"
        }
      ],
      "stateMutability": "view",
      "type": "function"
    },
    {
      "inputs": [],
      "name": "maxContestationValidatorStakeSince",
      "outputs": [
        {
          "internalType": "uint256",
          "name": "",
          "type": "uint256"
        }
      ],
      "stateMutability": "view",
      "type": "function"
    },
    {
      "inputs": [],
      "name": "minClaimSolutionTime",
      "outputs": [
        {
          "internalType": "uint256",
          "name": "",
          "type": "uint256"
        }
      ],
      "stateMutability": "view",
      "type": "function"
    },
    {
      "inputs": [],
      "name": "minContestationVotePeriodTime",
      "outputs": [
        {
          "internalType": "uint256",
          "name": "",
          "type": "uint256"
        }
      ],
      "stateMutability": "view",
      "type": "function"
    },
    {
      "inputs": [],
      "name": "minRetractionWaitTime",
      "outputs": [
        {
          "internalType": "uint256",
          "name": "",
          "type": "uint256"
        }
      ],
      "stateMutability": "view",
      "type": "function"
    },
    {
      "inputs": [
        {
          "internalType": "bytes32",
          "name": "",
          "type": "bytes32"
        }
      ],
      "name": "models",
      "outputs": [
        {
          "internalType": "uint256",
          "name": "fee",
          "type": "uint256"
        },
        {
          "internalType": "address",
          "name": "addr",
          "type": "address"
        },
        {
          "internalType": "uint256",
          "name": "rate",
          "type": "uint256"
        },
        {
          "internalType": "bytes",
          "name": "cid",
          "type": "bytes"
        }
      ],
      "stateMutability": "view",
      "type": "function"
    },
    {
      "inputs": [],
      "name": "owner",
      "outputs": [
        {
          "internalType": "address",
          "name": "",
          "type": "address"
        }
      ],
      "stateMutability": "view",
      "type": "function"
    },
    {
      "inputs": [],
      "name": "paused",
      "outputs": [
        {
          "internalType": "bool",
          "name": "",
          "type": "bool"
        }
      ],
      "stateMutability": "view",
      "type": "function"
    },
    {
      "inputs": [],
      "name": "pauser",
      "outputs": [
        {
          "internalType": "address",
          "name": "",
          "type": "address"
        }
      ],
      "stateMutability": "view",
      "type": "function"
    },
    {
      "inputs": [
        {
          "internalType": "address",
          "name": "",
          "type": "address"
        },
        {
          "internalType": "uint256",
          "name": "",
          "type": "uint256"
        }
      ],
      "name": "pendingValidatorWithdrawRequests",
      "outputs": [
        {
          "internalType": "uint256",
          "name": "unlockTime",
          "type": "uint256"
        },
        {
          "internalType": "uint256",
          "name": "amount",
          "type": "uint256"
        }
      ],
      "stateMutability": "view",
      "type": "function"
    },
    {
      "inputs": [
        {
          "internalType": "address",
          "name": "",
          "type": "address"
        }
      ],
      "name": "pendingValidatorWithdrawRequestsCount",
      "outputs": [
        {
          "internalType": "uint256",
          "name": "",
          "type": "uint256"
        }
      ],
      "stateMutability": "view",
      "type": "function"
    },
    {
      "inputs": [],
      "name": "prevhash",
      "outputs": [
        {
          "internalType": "bytes32",
          "name": "",
          "type": "bytes32"
        }
      ],
      "stateMutability": "view",
      "type": "function"
    },
    {
      "inputs": [
        {
          "internalType": "address",
          "name": "addr_",
          "type": "address"
        },
        {
          "internalType": "uint256",
          "name": "fee_",
          "type": "uint256"
        },
        {
          "internalType": "bytes",
          "name": "template_",
          "type": "bytes"
        }
      ],
      "name": "registerModel",
      "outputs": [
        {
          "internalType": "bytes32",
          "name": "",
          "type": "bytes32"
        }
      ],
      "stateMutability": "nonpayable",
      "type": "function"
    },
    {
      "inputs": [],
      "name": "renounceOwnership",
      "outputs": [],
      "stateMutability": "nonpayable",
      "type": "function"
    },
    {
      "inputs": [
        {
          "internalType": "bytes32",
          "name": "taskid_",
          "type": "bytes32"
        }
      ],
      "name": "retractTask",
      "outputs": [],
      "stateMutability": "nonpayable",
      "type": "function"
    },
    {
      "inputs": [],
      "name": "retractionFeePercentage",
      "outputs": [
        {
          "internalType": "uint256",
          "name": "",
          "type": "uint256"
        }
      ],
      "stateMutability": "view",
      "type": "function"
    },
    {
      "inputs": [
        {
          "internalType": "uint256",
          "name": "t",
          "type": "uint256"
        },
        {
          "internalType": "uint256",
          "name": "ts",
          "type": "uint256"
        }
      ],
      "name": "reward",
      "outputs": [
        {
          "internalType": "uint256",
          "name": "",
          "type": "uint256"
        }
      ],
      "stateMutability": "pure",
      "type": "function"
    },
    {
      "inputs": [
        {
          "internalType": "uint256",
          "name": "amount_",
          "type": "uint256"
        }
      ],
      "name": "setExitValidatorMinUnlockTime",
      "outputs": [],
      "stateMutability": "nonpayable",
      "type": "function"
    },
    {
      "inputs": [
        {
          "internalType": "uint256",
          "name": "amount_",
          "type": "uint256"
        }
      ],
      "name": "setMaxContestationValidatorStakeSince",
      "outputs": [],
      "stateMutability": "nonpayable",
      "type": "function"
    },
    {
      "inputs": [
        {
          "internalType": "uint256",
          "name": "amount_",
          "type": "uint256"
        }
      ],
      "name": "setMinClaimSolutionTime",
      "outputs": [],
      "stateMutability": "nonpayable",
      "type": "function"
    },
    {
      "inputs": [
        {
          "internalType": "uint256",
          "name": "amount_",
          "type": "uint256"
        }
      ],
      "name": "setMinContestationVotePeriodTime",
      "outputs": [],
      "stateMutability": "nonpayable",
      "type": "function"
    },
    {
      "inputs": [
        {
          "internalType": "uint256",
          "name": "amount_",
          "type": "uint256"
        }
      ],
      "name": "setMinRetractionWaitTime",
      "outputs": [],
      "stateMutability": "nonpayable",
      "type": "function"
    },
    {
      "inputs": [
        {
          "internalType": "bool",
          "name": "paused_",
          "type": "bool"
        }
      ],
      "name": "setPaused",
      "outputs": [],
      "stateMutability": "nonpayable",
      "type": "function"
    },
    {
      "inputs": [
        {
          "internalType": "uint256",
          "name": "amount_",
          "type": "uint256"
        }
      ],
      "name": "setRetractionFeePercentage",
      "outputs": [],
      "stateMutability": "nonpayable",
      "type": "function"
    },
    {
      "inputs": [
        {
          "internalType": "uint256",
          "name": "amount_",
          "type": "uint256"
        }
      ],
      "name": "setSlashAmountPercentage",
      "outputs": [],
      "stateMutability": "nonpayable",
      "type": "function"
    },
    {
      "inputs": [
        {
          "internalType": "uint256",
          "name": "amount_",
          "type": "uint256"
        }
      ],
      "name": "setSolutionFeePercentage",
      "outputs": [],
      "stateMutability": "nonpayable",
      "type": "function"
    },
    {
      "inputs": [
        {
          "internalType": "bytes32",
          "name": "model_",
          "type": "bytes32"
        },
        {
          "internalType": "uint256",
          "name": "rate_",
          "type": "uint256"
        }
      ],
      "name": "setSolutionMineableRate",
      "outputs": [],
      "stateMutability": "nonpayable",
      "type": "function"
    },
    {
      "inputs": [
        {
          "internalType": "uint256",
          "name": "amount_",
          "type": "uint256"
        }
      ],
      "name": "setSolutionStakeAmount",
      "outputs": [],
      "stateMutability": "nonpayable",
      "type": "function"
    },
    {
      "inputs": [
        {
          "internalType": "uint64",
          "name": "startBlockTime_",
          "type": "uint64"
        }
      ],
      "name": "setStartBlockTime",
      "outputs": [],
      "stateMutability": "nonpayable",
      "type": "function"
    },
    {
      "inputs": [
        {
          "internalType": "uint256",
          "name": "amount_",
          "type": "uint256"
        }
      ],
      "name": "setTreasuryRewardPercentage",
      "outputs": [],
      "stateMutability": "nonpayable",
      "type": "function"
    },
    {
      "inputs": [
        {
          "internalType": "uint256",
          "name": "amount_",
          "type": "uint256"
        }
      ],
      "name": "setValidatorMinimumPercentage",
      "outputs": [],
      "stateMutability": "nonpayable",
      "type": "function"
    },
    {
      "inputs": [
        {
          "internalType": "uint256",
          "name": "version_",
          "type": "uint256"
        }
      ],
      "name": "setVersion",
      "outputs": [],
      "stateMutability": "nonpayable",
      "type": "function"
    },
    {
      "inputs": [
        {
          "internalType": "bytes32",
          "name": "commitment_",
          "type": "bytes32"
        }
      ],
      "name": "signalCommitment",
      "outputs": [],
      "stateMutability": "nonpayable",
      "type": "function"
    },
    {
      "inputs": [
        {
          "internalType": "bytes32",
          "name": "model_",
          "type": "bytes32"
        },
        {
          "internalType": "bool",
          "name": "support_",
          "type": "bool"
        }
      ],
      "name": "signalSupport",
      "outputs": [],
      "stateMutability": "nonpayable",
      "type": "function"
    },
    {
      "inputs": [],
      "name": "slashAmountPercentage",
      "outputs": [
        {
          "internalType": "uint256",
          "name": "",
          "type": "uint256"
        }
      ],
      "stateMutability": "view",
      "type": "function"
    },
    {
      "inputs": [],
      "name": "solutionFeePercentage",
      "outputs": [
        {
          "internalType": "uint256",
          "name": "",
          "type": "uint256"
        }
      ],
      "stateMutability": "view",
      "type": "function"
    },
    {
      "inputs": [
        {
          "internalType": "bytes32",
          "name": "",
          "type": "bytes32"
        }
      ],
      "name": "solutions",
      "outputs": [
        {
          "internalType": "address",
          "name": "validator",
          "type": "address"
        },
        {
          "internalType": "uint64",
          "name": "blocktime",
          "type": "uint64"
        },
        {
          "internalType": "bool",
          "name": "claimed",
          "type": "bool"
        },
        {
          "internalType": "bytes",
          "name": "cid",
          "type": "bytes"
        }
      ],
      "stateMutability": "view",
      "type": "function"
    },
    {
      "inputs": [
        {
          "internalType": "bytes32",
          "name": "",
          "type": "bytes32"
        }
      ],
      "name": "solutionsStake",
      "outputs": [
        {
          "internalType": "uint256",
          "name": "",
          "type": "uint256"
        }
      ],
      "stateMutability": "view",
      "type": "function"
    },
    {
      "inputs": [],
      "name": "solutionsStakeAmount",
      "outputs": [
        {
          "internalType": "uint256",
          "name": "",
          "type": "uint256"
        }
      ],
      "stateMutability": "view",
      "type": "function"
    },
    {
      "inputs": [],
      "name": "startBlockTime",
      "outputs": [
        {
          "internalType": "uint64",
          "name": "",
          "type": "uint64"
        }
      ],
      "stateMutability": "view",
      "type": "function"
    },
    {
      "inputs": [
        {
          "internalType": "bytes32",
          "name": "taskid_",
          "type": "bytes32"
        }
      ],
      "name": "submitContestation",
      "outputs": [],
      "stateMutability": "nonpayable",
      "type": "function"
    },
    {
      "inputs": [
        {
          "internalType": "bytes32",
          "name": "taskid_",
          "type": "bytes32"
        },
        {
          "internalType": "bytes",
          "name": "cid_",
          "type": "bytes"
        }
      ],
      "name": "submitSolution",
      "outputs": [],
      "stateMutability": "nonpayable",
      "type": "function"
    },
    {
      "inputs": [
        {
          "internalType": "uint8",
          "name": "version_",
          "type": "uint8"
        },
        {
          "internalType": "address",
          "name": "owner_",
          "type": "address"
        },
        {
          "internalType": "bytes32",
          "name": "model_",
          "type": "bytes32"
        },
        {
          "internalType": "uint256",
          "name": "fee_",
          "type": "uint256"
        },
        {
          "internalType": "bytes",
          "name": "input_",
          "type": "bytes"
        }
      ],
      "name": "submitTask",
      "outputs": [
        {
          "internalType": "bytes32",
          "name": "",
          "type": "bytes32"
        }
      ],
      "stateMutability": "nonpayable",
      "type": "function"
    },
    {
      "inputs": [
        {
          "internalType": "uint256",
          "name": "t",
          "type": "uint256"
        }
      ],
      "name": "targetTs",
      "outputs": [
        {
          "internalType": "uint256",
          "name": "",
          "type": "uint256"
        }
      ],
      "stateMutability": "pure",
      "type": "function"
    },
    {
      "inputs": [
        {
          "internalType": "bytes32",
          "name": "",
          "type": "bytes32"
        }
      ],
      "name": "tasks",
      "outputs": [
        {
          "internalType": "bytes32",
          "name": "model",
          "type": "bytes32"
        },
        {
          "internalType": "uint256",
          "name": "fee",
          "type": "uint256"
        },
        {
          "internalType": "address",
          "name": "owner",
          "type": "address"
        },
        {
          "internalType": "uint64",
          "name": "blocktime",
          "type": "uint64"
        },
        {
          "internalType": "uint8",
          "name": "version",
          "type": "uint8"
        },
        {
          "internalType": "bytes",
          "name": "cid",
          "type": "bytes"
        }
      ],
      "stateMutability": "view",
      "type": "function"
    },
    {
      "inputs": [
        {
          "internalType": "address",
          "name": "to_",
          "type": "address"
        }
      ],
      "name": "transferOwnership",
      "outputs": [],
      "stateMutability": "nonpayable",
      "type": "function"
    },
    {
      "inputs": [
        {
          "internalType": "address",
          "name": "to_",
          "type": "address"
        }
      ],
      "name": "transferPauser",
      "outputs": [],
      "stateMutability": "nonpayable",
      "type": "function"
    },
    {
      "inputs": [
        {
          "internalType": "address",
          "name": "to_",
          "type": "address"
        }
      ],
      "name": "transferTreasury",
      "outputs": [],
      "stateMutability": "nonpayable",
      "type": "function"
    },
    {
      "inputs": [],
      "name": "treasury",
      "outputs": [
        {
          "internalType": "address",
          "name": "",
          "type": "address"
        }
      ],
      "stateMutability": "view",
      "type": "function"
    },
    {
      "inputs": [],
      "name": "treasuryRewardPercentage",
      "outputs": [
        {
          "internalType": "uint256",
          "name": "",
          "type": "uint256"
        }
      ],
      "stateMutability": "view",
      "type": "function"
    },
    {
      "inputs": [
        {
          "internalType": "address",
          "name": "addr_",
          "type": "address"
        },
        {
          "internalType": "bytes32",
          "name": "taskid_",
          "type": "bytes32"
        }
      ],
      "name": "validatorCanVote",
      "outputs": [
        {
          "internalType": "uint256",
          "name": "",
          "type": "uint256"
        }
      ],
      "stateMutability": "view",
      "type": "function"
    },
    {
      "inputs": [
        {
          "internalType": "address",
          "name": "validator_",
          "type": "address"
        },
        {
          "internalType": "uint256",
          "name": "amount_",
          "type": "uint256"
        }
      ],
      "name": "validatorDeposit",
      "outputs": [],
      "stateMutability": "nonpayable",
      "type": "function"
    },
    {
      "inputs": [],
      "name": "validatorMinimumPercentage",
      "outputs": [
        {
          "internalType": "uint256",
          "name": "",
          "type": "uint256"
        }
      ],
      "stateMutability": "view",
      "type": "function"
    },
    {
      "inputs": [
        {
          "internalType": "uint256",
          "name": "count_",
          "type": "uint256"
        },
        {
          "internalType": "address",
          "name": "to_",
          "type": "address"
        }
      ],
      "name": "validatorWithdraw",
      "outputs": [],
      "stateMutability": "nonpayable",
      "type": "function"
    },
    {
      "inputs": [
        {
          "internalType": "address",
          "name": "",
          "type": "address"
        }
      ],
      "name": "validatorWithdrawPendingAmount",
      "outputs": [
        {
          "internalType": "uint256",
          "name": "",
          "type": "uint256"
        }
      ],
      "stateMutability": "view",
      "type": "function"
    },
    {
      "inputs": [
        {
          "internalType": "address",
          "name": "",
          "type": "address"
        }
      ],
      "name": "validators",
      "outputs": [
        {
          "internalType": "uint256",
          "name": "staked",
          "type": "uint256"
        },
        {
          "internalType": "uint256",
          "name": "since",
          "type": "uint256"
        },
        {
          "internalType": "address",
          "name": "addr",
          "type": "address"
        }
      ],
      "stateMutability": "view",
      "type": "function"
    },
    {
      "inputs": [],
      "name": "version",
      "outputs": [
        {
          "internalType": "uint256",
          "name": "",
          "type": "uint256"
        }
      ],
      "stateMutability": "view",
      "type": "function"
    },
    {
      "inputs": [
        {
          "internalType": "bytes32",
          "name": "taskid_",
          "type": "bytes32"
        },
        {
          "internalType": "bool",
          "name": "yea_",
          "type": "bool"
        }
      ],
      "name": "voteOnContestation",
      "outputs": [],
      "stateMutability": "nonpayable",
      "type": "function"
    },
    {
      "inputs": [],
      "name": "withdrawAccruedFees",
      "outputs": [],
      "stateMutability": "nonpayable",
      "type": "function"
    }
  ],
  "bytecode": "0x60808060405234620000c6576000549060ff8260081c1662000074575060ff8082160362000038575b6040516157539081620000cc8239f35b60ff90811916176000557f7f26b83ff96e1f2b6a682f133852f6798a09c465da95921460cefb3847402498602060405160ff8152a13862000028565b62461bcd60e51b815260206004820152602760248201527f496e697469616c697a61626c653a20636f6e747261637420697320696e697469604482015266616c697a696e6760c81b6064820152608490fd5b600080fdfe6080604052600436101561001257600080fd5b60003560e01c80623f9dd614613695578062fd70821461367757806308745dd1146133295780630a985737146131e35780630c18d4ce146131bc5780631466b63a146130ff57806316c38b3c1461305f57806317f3e041146130335780631825c20e14612eee5780631b2cf4b814612ea75780631b75c43e14612e6d5780631f88ea1c14612e54578063218a304814612dc1578063218e685914612d875780632258d10514612d6c57806328c2d36c14612d255780632f9b03e414612cde578063303fb0d614612cad57806336f83c4f14612c66578063393cb1c714612c1e5780633d18b91214612c035780633d57f5d914612be8578063408def1e14612b9c57806340e8c56d14612b4c5780634421ea2114612ae5578063485cc9551461290457806349094d4d1461286c5780634ff03efa146125dd578063506ea7de1461252c57806354fd4d501461250e57806356914caf146120995780635b851daa146120525780635c975abb1461202c578063605cecf614611fe557806361d027b314611fbc578063671f815214611c04578063682c205814611be6578063715018a614611b8957806372dc0ee114611b6b57806375c7050914611af8578063763253bb1461190f5780637683dbfb146118c857806377286d17146115d35780637881c5e6146115b85780637b36006a1461159a5780638365779514611573578063839df945146115475780638b4d7b3514610e7a5780638da5cb5b14610e515780638e6d86fd14610e335780639280944414610e1557806393a090ec14610c6b57806393f1f8ac14610bef57806396bb02c314610bd15780639b97511914610bb35780639fd0506d14610b8a578063a4fa8d5714610b71578063a53e252514610b53578063a8f837f314610aed578063aa59e7e714610aa6578063ada82c7d146109f8578063b4dc35b7146109cc578063b66badbf14610985578063c17ddb2a14610967578063c31784be14610949578063c318797814610902578063c55dae63146108d9578063cbd2422d1461080f578063cf596e45146107e9578063d1f0c9411461079f578063d2307ae414610765578063d278094014610718578063d2992baa146106c7578063d33b2ef51461066d578063d8a6021c14610606578063dbb3c97d146105bf578063dc06a89f146105a1578063e236f46b14610538578063e579f500146104ad578063f1b8989d1461048f578063f2fde38b146103f85763fa52c7d8146103a057600080fd5b346103f35760203660031901126103f35760606001600160a01b03806103c461393d565b166000526077602052604060002080549160026001830154920154169060405192835260208301526040820152f35b600080fd5b346103f35760203660031901126103f35761041161393d565b610419613bf1565b610421613bf1565b6001600160a01b0381161561043b5761043990613c49565b005b60405162461bcd60e51b815260206004820152602660248201527f4f776e61626c653a206e6577206f776e657220697320746865207a65726f206160448201526564647265737360d01b6064820152608490fd5b346103f35760003660031901126103f3576020606e54604051908152f35b346103f35760203660031901126103f357600435600052607b6020526040600020805461053460018301549260ff6104ec600360028401549301613b4b565b916040519586958652602086015260018060a01b03811660408601526001600160401b038160a01c16606086015260e01c16608084015260c060a084015260c0830190613aec565b0390f35b346103f35760203660031901126103f35760043560005260766020526040600020805461053460018060a01b036001840154169261057d600360028301549201613b4b565b90604051948594855260208501526040840152608060608401526080830190613aec565b346103f35760003660031901126103f3576020606d54604051908152f35b346103f35760203660031901126103f3576004356105db613bf1565b806084557fa7597266328022d189bdbb20244e37e01bd5972bf8fa6a76c9b76cb666b23fbc600080a2005b346103f35760203660031901126103f35761061f61393d565b610627613bf1565b606680546001600160a01b0319166001600160a01b039290921691821790557f6bdb9ceff405d990c9b60be9f719fbb80889d5f064e8fd76efd5bea353e90712600080a2005b346103f35760203660031901126103f357600435600052607e60205260806040600020600181549101546040519160018060a01b03811683526001600160401b038160a01c16602084015260e01c60408301526060820152f35b346103f35760403660031901126103f3576001600160a01b036106e861393d565b16600052607960205260406000206024356000526020526040806000206001815491015482519182526020820152f35b346103f35760403660031901126103f357610731613927565b600435600052607f60205260406000209060018060a01b0316600052602052602060ff604060002054166040519015158152f35b346103f35760203660031901126103f3576001600160a01b0361078661393d565b1660005260786020526020604060002054604051908152f35b346103f3576107ad36613a85565b906000526081602052604060002080548210156103f3576020916107d091613a9b565b905460405160039290921b1c6001600160a01b03168152f35b346103f35760203660031901126103f3576020610807600435613ea0565b604051908152f35b346103f3576020806003193601126103f3576004359061083760ff60675460a01c1615614e4e565b3360005260798152604060002082600052815260406000206108766040519161085f836139af565b836001825492838652015493019283521515614ebf565b5133600052607a825261088f6040600020918254613d35565b90553360005260798152604060002090826000525260006001604082208281550155337ff9d5cfcdfe9803069225971ba315f4302add9b477c3441cc363bc38fdb065b90600080a3005b346103f35760003660031901126103f3576065546040516001600160a01b039091168152602090f35b346103f35760203660031901126103f35760043561091e613bf1565b806075557f7bf73d8c24113d60e7de7e92ae237284cf5a6f8dfe31e8eee1c6d9c8890e13c9600080a2005b346103f35760003660031901126103f3576020607054604051908152f35b346103f35760003660031901126103f3576020606954604051908152f35b346103f35760203660031901126103f3576004356109a1613bf1565b806073557f3a559dce5761b4b2e6099b6dc8d51f7eb190932dc5797d8090daf1a42cd58e7d600080a2005b346103f35760203660031901126103f35760043560005260836020526020604060002054604051908152f35b346103f35760003660031901126103f357610a1b60ff60675460a01c1615614e4e565b60655460665460685460405163a9059cbb60e01b81526001600160a01b03928316600482015260248101919091529160209183916044918391600091165af18015610a9a57610a6c575b6000606855005b610a8c9060203d8111610a93575b610a8481836139e5565b810190614e83565b5080610a65565b503d610a7a565b6040513d6000823e3d90fd5b346103f35760203660031901126103f357600435610ac2613bf1565b806074557fdb340415b83e58bab317964518d523baabcc1571de3b5d8fe6ebd52c704d31a9600080a2005b346103f35760203660031901126103f3576004356001600160401b0381168091036103f357610b1a613bf1565b806001600160401b0319606a541617606a557fa15d6b0930a82638ac4775bfd1b2e9f1e86be67e1bd3a09fa8a77a8f079769d7600080a2005b346103f35760003660031901126103f3576020607554604051908152f35b346103f3576020610807610b8436613a85565b90614ce8565b346103f35760003660031901126103f3576067546040516001600160a01b039091168152602090f35b346103f35760003660031901126103f3576020608454604051908152f35b346103f35760003660031901126103f3576020606c54604051908152f35b346103f35760207f0321e8a918b4c47bf3677852c070983825f30a47bc8d9416691454fa6a727d63610c2036613a85565b610c2b939193613bf1565b6000848152607683526040902060010154610c50906001600160a01b03161515613cf2565b836000526076825280600260406000200155604051908152a2005b346103f35760403660031901126103f357610c8461393d565b602435610c9960ff60675460a01c1615614e4e565b6065546040516323b872dd60e01b8152336004820152306024820152604481018390526001600160a01b03916020919082908290606490829060009088165af18015610a9a57610df8575b5081610cee613dbf565b94169384600052607782526040600020548482821115610dc9575b50505083600052607781526040600020610d298460018301549254614eb2565b9260405160608101908082106001600160401b03831117610db3577f8d4844488c19a90828439e71d14ebad860806d04f8ef8b25a82179fab2699b8995600292604052815284810193845260408101938885528860005260778652604060002091518255516001820155019151166001600160601b0360a01b8254161790556040519283523392a3005b634e487b7160e01b600052604160045260246000fd5b610dd291614eb2565b1015610de1575b848084610d09565b836000526077815242600160406000200155610dd9565b610e0e90823d8411610a9357610a8481836139e5565b5084610ce4565b346103f35760003660031901126103f3576020607154604051908152f35b346103f35760003660031901126103f3576020607454604051908152f35b346103f35760003660031901126103f3576033546040516001600160a01b039091168152602090f35b346103f35760403660031901126103f3576024803563ffffffff81168091036103f357610eaf60ff60675460a01c1615614e4e565b6004356000908152607e60205260409020546001600160a01b03161561150357600435600052607e602052610ef86001600160401b0360406000205460a01c1660735490614eb2565b42106114bf57801561148a57600435600052608160205263ffffffff6040600020541691608260205263ffffffff60406000205416607e60205260406000205460e01c9363ffffffff8486011161147557600435600052607e602052600160406000200154918082116000146112af5782610f7291613d42565b9160018214801561129a578384915b1561127357505060005b865b63ffffffff87890116811061112f575050505050600435600052607e60205260406000205460e01c15611024575b505b6004356000908152607e6020526040902080546001600160e01b031683830160e01b6001600160e01b03191617905563ffffffff6040519183011681527f71d8c71303e35a39162e33a402c9897bf9848388537bac7d5e1b0d202eca4e66602060043592a3005b606554607b6020908152604060008181206002810154600190910154925163a9059cbb60e01b81526001600160a01b03918216600482015260248101939093529193849260449284929091165af18015610a9a57611110575b5060043560005260836020526040600020549060816020526040600020908154156110fc575060005260018060a01b036020600020541660005260776020526110cc6040600020918254614eb2565b9055600435600052607d60205260018060a01b036040600020541660005260856020524260406000205582610fbb565b634e487b7160e01b60009081526032600452fd5b6111289060203d602011610a9357610a8481836139e5565b508361107d565b8084869210611148575b6111439150615472565b610f8d565b6004356000526081602052611161816040600020613a9b565b60018060a01b0391549060031b1c168060005260776020526040600020611189868254614eb2565b90558382611203575060655460405163a9059cbb60e01b81526001600160a01b039283166004820152602481019490945260209184916044918391600091165af1918215610a9a57611143926111e4575b505b859150611139565b6111fc9060203d602011610a9357610a8481836139e5565b50896111da565b60655460405163a9059cbb60e01b81526001600160a01b039384166004820152602481019290925290935060209184916044918391600091165af1918215610a9a5761114392611254575b506111dc565b61126c9060203d602011610a9357610a8481836139e5565b508961124e565b6112959161128091613d35565b63ffffffff61128e8561545c565b1690613d55565b610f8b565b6112a78460011c85613d35565b938491610f81565b918093506112bc91613d42565b91600182148015611469578384915b1561145757505060005b855b63ffffffff868801168110611313575050505050600435600052607e60205260406000205460e01c610fbd5761130e600435614fca565b610fbd565b808486921061132c575b6113279150615472565b6112d7565b6004356000526082602052611345816040600020613a9b565b60018060a01b0391549060031b1c16806000526077602052604060002061136d868254614eb2565b905583826113e7575060655460405163a9059cbb60e01b81526001600160a01b039283166004820152602481019490945260209184916044918391600091165af1918215610a9a57611327926113c8575b505b85915061131d565b6113e09060203d602011610a9357610a8481836139e5565b50886113be565b60655460405163a9059cbb60e01b81526001600160a01b039384166004820152602481019290925290935060209184916044918391600091165af1918215610a9a5761132792611438575b506113c0565b6114509060203d602011610a9357610a8481836139e5565b5088611432565b6114649161128091613d35565b6112d5565b8360011c9384916112cb565b82634e487b7160e01b60005260116004526000fd5b60405162461bcd60e51b815260206004820152600e818401526d185b5b9d081d1bdbc81cdb585b1b60921b6044820152606490fd5b60405162461bcd60e51b8152602060048201526017818401527f766f74696e6720706572696f64206e6f7420656e6465640000000000000000006044820152606490fd5b60405162461bcd60e51b815260206004820152601a818401527f636f6e746573746174696f6e20646f65736e27742065786973740000000000006044820152606490fd5b346103f35760203660031901126103f357600435600052607c6020526020604060002054604051908152f35b346103f35760403660031901126103f357602061080761159161393d565b60243590615348565b346103f35760003660031901126103f3576020607354604051908152f35b346103f35760003660031901126103f3576020610807614d46565b346103f3576020806003193601126103f3576004356115fa60ff60675460a01c1615614e4e565b6000818152607d8084526040808320546001600160a01b03908116845260778652818420548585528387528285205482168552607a8752919093205461163f91613d35565b611647613dbf565b1161188357826000528084528160406000205416156118495782600052607e8452816040600020541661181157826000528084526001600160401b038060406000205460a01c16906071549161169d8342613d35565b11156117d957846000528286526116d56116cc6040600020549386851660005260858952604060002054614eb2565b60735490614eb2565b9160a01c16111561177d578260005280845260ff60406000205460e01c16611746579082916104399483600052526040600020805490600160e01b60ff60e01b198316179055167f0b76b4ae356796814d36b46f7c500bbd27b2cce1e6059a6fa2bebfd5a389b190600080a3614fca565b60405162461bcd60e51b815260048101859052600f60248201526e185b1c9958591e4818db185a5b5959608a1b6044820152606490fd5b60405162461bcd60e51b815260048101859052602e60248201527f636c61696d536f6c7574696f6e20636f6f6c646f776e206166746572206c6f7360448201526d3a1031b7b73a32b9ba30ba34b7b760911b6064820152608490fd5b60405162461bcd60e51b815260048101879052601060248201526f6e6f7420656e6f7567682064656c617960801b6044820152606490fd5b60405162461bcd60e51b815260048101859052601060248201526f3430b99031b7b73a32b9ba30ba34b7b760811b6044820152606490fd5b60405162461bcd60e51b81526004810185905260126024820152711cdbdb1d5d1a5bdb881b9bdd08199bdd5b9960721b6044820152606490fd5b60405162461bcd60e51b815260048101859052601c60248201527f76616c696461746f72206d696e207374616b656420746f6f206c6f77000000006044820152606490fd5b346103f35760203660031901126103f3576004356118e4613bf1565b806072557f2cf38ed7da57dd510fa6ecbfb991949cdde5c808acbe85cfa940b642def628ed600080a2005b346103f35760403660031901126103f35760043561192b613927565b61193d60ff60675460a01c1615614e4e565b336000526020906079825260406000208360005282526040600020604051611964816139af565b61197f60018354938484520154928583019384521515614ebf565b514210611ac5573360005260778352604060002054815111611a8b57606554815160405163a9059cbb60e01b81526001600160a01b038581166004830152602482019290925292909185908490604490829060009087165af1928315610a9a577f109aeff667601aad33abcb7c5df1617754eefd18253d586a95c198cb479b5bd493611a6e575b5080513360005260778652611a216040600020918254613d35565b9055805133600052607a8652611a3d6040600020918254613d35565b90553360005260798552604060002086600052855260006001604082208281550155519260405193845216923392a4005b611a8490863d8811610a9357610a8481836139e5565b5086611a06565b60405162461bcd60e51b81526004810184905260126024820152711cdd185ad9481a5b9cdd59999a58da595b9d60721b6044820152606490fd5b60405162461bcd60e51b815260048101849052600b60248201526a3bb0b4ba103637b733b2b960a91b6044820152606490fd5b346103f35760203660031901126103f357600435600052607d60205260ff6040600020610534611b2c600183549301613b4b565b60405193849360018060a01b03811685526001600160401b038160a01c16602086015260e01c1615156040840152608060608401526080830190613aec565b346103f35760003660031901126103f3576020606f54604051908152f35b346103f35760003660031901126103f357611ba2613bf1565b603380546001600160a01b031981169091556000906001600160a01b03167f8be0079c531659141344cd1fd0a4f28419497f9722a3daafe3b4186f6b6457e08280a3005b346103f35760003660031901126103f3576020606854604051908152f35b346103f3576020806003193601126103f35760043590611c2c60ff60675460a01c1615614e4e565b3360005260778152611c5f611c50604060002054607a845260406000205490613d35565b611c58613dbf565b1115614f89565b6000828152607d825260409020546001600160a01b039190821615611f785782600052607e81528160406000205416611f345782600052607d81526001600160401b0390611cba8260406000205460a01c1660715490614eb2565b421015611f055783600052607d815260ff60406000205460e01c16611edb57611ce1613d75565b9160405190611cef826139ca565b338252611d8363ffffffff848401928042168452611d6360408601916000835260608701958987528b600052607e89528a60406000209851166001600160601b0360a01b895416178855511686908154906001600160401b0360a01b9060a01b16906001600160401b0360a01b1916179055565b5184546001600160e01b0316911660e01b6001600160e01b031916178355565b5160018092015584337f6958c989e915d3e41a35076e3c480363910055408055ad86ae1ee13d41c40640600080a3607f8252604060002033600052825260406000209360ff199482868254161790558560005260818352611de833604060002061541c565b85600052607e835281604060002001543360005260778452611e106040600020918254613d35565b905560405193828552867f1aa9e4be46e24e1f2e7eeb1613c01629213cd42965d2716e18531b63e552e4119586863392a386600052607d84528160406000205416600052607784526040600020541015611e6657005b85600052607d83526040600020541693607f83526040600020856000528352816040600020918254161790558460005260828252611ea884604060002061541c565b84600052607e8252604060002001548360005260778252611ecf6040600020918254613d35565b905560405160008152a3005b6064906040519062461bcd60e51b8252600482015260036024820152623bba3360e91b6044820152fd5b6064906040519062461bcd60e51b825260048201526008602482015267746f6f206c61746560c01b6044820152fd5b6064906040519062461bcd60e51b82526004820152601b60248201527f636f6e746573746174696f6e20616c72656164792065786973747300000000006044820152fd5b6064906040519062461bcd60e51b82526004820152601760248201527f736f6c7574696f6e20646f6573206e6f742065786973740000000000000000006044820152fd5b346103f35760003660031901126103f3576066546040516001600160a01b039091168152602090f35b346103f35760203660031901126103f357600435612001613bf1565b806070557f4cedc026426414a08f6f21ca64d85564bf602162bb3463dd2d3e17b58c1da589600080a2005b346103f35760003660031901126103f357602060ff60675460a01c166040519015158152f35b346103f35760203660031901126103f35760043561206e613bf1565b80606f557f248f32867b202a570ffbb94e864b6075503b4961c00317f152604ee3b8de4dda600080a2005b346103f35760403660031901126103f3576004356001600160401b03602480358281116103f3576120ce903690600401613967565b92906120e260ff60675460a01c1615614e4e565b3360005260209360778552612109611c50604060002054607a885260406000205490613d35565b85600052607b8552604060002054156124d4576000868152607d865260409020546001600160a01b03939084166124905761214682848933614dfd565b80600052607c87526040600020541561244c57600052607c865260406000205461216e614eff565b11156124085760405191612181836139ca565b3383526121fb826121a48986019682421688526040870194600086523691613a21565b6060860190815260008b8152607d8b526040902095518654975167ffffffffffffffff60a01b19918a16919091166001600160e01b0319909816979097179190961660a01b67ffffffffffffffff60a01b16178455565b51825460ff60e01b191690151560e01b60ff60e01b161782559151805160019283019390919082116123f3576122318454613b11565b601f81116123b8575b508690601f83116001146123555792829391839260009461234a575b50501b916000199060031b1c19161790555b83600052607d835260406000205416600052608582526122936116cc60406000205460715490614eb2565b4211156122ef575060776084549183600052608381528260406000205533600052526122c56040600020918254613d35565b9055337f957c18b5af8413899ea8a576a4d3fb16839a02c9fccfdce098b6d59ef248525b600080a3005b90602f6084926040519262461bcd60e51b845260048401528201527f7375626d6974536f6c7574696f6e20636f6f6c646f776e206166746572206c6f60448201526e39ba1031b7b73a32b9ba30ba34b7b760891b6064820152fd5b015192508980612256565b90601f198316918560005283896000209360005b8b888383106123a15750505010612388575b505050811b019055612268565b015160001960f88460031b161c1916905587808061237b565b868601518855909601959485019487935001612369565b6123e3908560005288600020601f850160051c8101918a86106123e9575b601f0160051c0190614e9b565b8861223a565b90915081906123d6565b85634e487b7160e01b60005260416004526000fd5b60405162461bcd60e51b815260048101879052601a818701527f636f6d6d69746d656e74206d75737420626520696e20706173740000000000006044820152606490fd5b60405162461bcd60e51b8152600481018890526017818801527f6e6f6e206578697374656e7420636f6d6d69746d656e740000000000000000006044820152606490fd5b60405162461bcd60e51b815260048101879052601a818701527f736f6c7574696f6e20616c7265616479207375626d69747465640000000000006044820152606490fd5b60405162461bcd60e51b815260048101869052601381860152721d185cdac8191bd95cc81b9bdd08195e1a5cdd606a1b6044820152606490fd5b346103f35760003660031901126103f3576020606b54604051908152f35b346103f35760203660031901126103f35760043561255260ff60675460a01c1615614e4e565b80600052607c6020526040600020546125a45761256d614eff565b81600052607c602052604060002055337f09b4c028a2e50fec6f1c6a0163c59e8fbe92b231e5c03ef3adec585e63a14b92600080a3005b60405162461bcd60e51b8152602060048201526011602482015270636f6d6d69746d656e742065786973747360781b6044820152606490fd5b346103f35760603660031901126103f3576125f661393d565b6001600160401b03906044358281116103f357612617903690600401613967565b919061262b60ff60675460a01c1615614e4e565b6001600160a01b039182169283156128275761264691615481565b9060405193612654856139ca565b602435855260209485810194855260408101600081526060820194855261267b3383613dfc565b958660005260768852600194808660406000200154166127e2579060039392918860005260768a526040600020935184558684019151166001600160601b0360a01b8254161790555160028201550192518051918211610db3576126df8454613b11565b601f81116127b2575b508590601f831160011461274f57928293918392600094612744575b50501b916000199060031b1c19161790555b60405190807fa4b0af38d049ba81703a0d0e46cc2ff39681210302134046237111a8fb7dee72600080a28152f35b015192508780612704565b90601f198316918560005283886000209360005b8a8883831061279b5750505010612782575b505050811b019055612716565b015160001960f88460031b161c19169055858080612775565b868601518855909601959485019487935001612763565b6127dc908560005287600020601f850160051c8101918986106123e957601f0160051c0190614e9b565b866126e8565b60405162461bcd60e51b8152600481018a9052601860248201527f6d6f64656c20616c7265616479207265676973746572656400000000000000006044820152606490fd5b60405162461bcd60e51b815260206004820152601860248201527f61646472657373206d757374206265206e6f6e2d7a65726f00000000000000006044820152606490fd5b346103f35760403660031901126103f357600435612888613a76565b3360005260776020526128ae611c50604060002054607a60205260406000205490613d35565b6000828152607660205260409020600101546128d4906001600160a01b03161515613cf2565b60405190151581527fd17ce9337eb398b61971ca3d8c9933fc401b9669a0607afe3452612583d7c5b860203392a3005b346103f35760403660031901126103f3576001600160a01b03600435818116908190036103f357612933613927565b916000549260ff8460081c161593848095612ad8575b8015612ac1575b15612a655760ff19811660011760005584612a53575b5061298160ff60005460081c1661297c81613c92565b613c92565b61298a33613c49565b6001600160601b0360a01b9283606554161760655516816066541617606655339060675416176067556001600160401b0342166001600160401b0319606a541617606a556602d79883d20000606c55655af3107a4000606d5567016345785d8a000080606e5580606f556070556107d0607155612710607255610fa0607355607860745562015180607555612a1b57005b61ff0019600054166000557f7f26b83ff96e1f2b6a682f133852f6798a09c465da95921460cefb3847402498602060405160018152a1005b61ffff19166101011760005584612966565b60405162461bcd60e51b815260206004820152602e60248201527f496e697469616c697a61626c653a20636f6e747261637420697320616c72656160448201526d191e481a5b9a5d1a585b1a5e995960921b6064820152608490fd5b50303b1580156129505750600160ff821614612950565b50600160ff821610612949565b346103f35760203660031901126103f357612afe61393d565b612b06613bf1565b606780546001600160a01b0319166001600160a01b039290921691821790557f5a85b4270fc1e75035e6cd505418ce65e0bcc36cc7eb9ce9e6f8c6181d4cb577600080a2005b346103f35760203660031901126103f3576004356001600160401b0381116103f357612b88612b82610534923690600401613967565b90615481565b604051918291602083526020830190613aec565b346103f35760203660031901126103f3577f8c854a81cb5c93e7e482d30fb9c6f88fdbdb320f10f7a853c2263659b54e563f6020600435612bdb613bf1565b80606b55604051908152a1005b346103f35760003660031901126103f3576020610807613d75565b346103f35760003660031901126103f3576020610807614ddd565b346103f35760603660031901126103f357612c3761393d565b6044356001600160401b0381116103f357602091612c5c610807923690600401613967565b9160243590614dfd565b346103f35760203660031901126103f357600435612c82613bf1565b80606d557f4d3fce9ddc8266ead559213cbaaa8ebcfa0c837a2c9a1e814bae160b615d30dd600080a2005b346103f357612cbb36613a85565b906000526082602052604060002080548210156103f3576020916107d091613a9b565b346103f35760203660031901126103f357600435612cfa613bf1565b806071557fed28aed8b87631da9bc750c8885c00f9beda7f694a23bb732d987aa80214a63f600080a2005b346103f35760203660031901126103f357600435612d41613bf1565b80606c557fb2ba28b5b5aed3444b23a8597a249678dd98e0062432ef1b0f9a6caa39ceb0ad600080a2005b346103f35760003660031901126103f3576020610807613dbf565b346103f35760203660031901126103f3576001600160a01b03612da861393d565b1660005260856020526020604060002054604051908152f35b346103f3576003196040368201126103f3576004356001600160401b03918282116103f35760809082360301126103f357604051612dfe816139ca565b81600401358152612e1160248301613953565b60208201526044820135604082015260648201359283116103f357612e4161080792600460209536920101613a58565b6060820152612e4e613927565b90613dfc565b346103f3576020610807612e6736613a85565b90614906565b346103f35760203660031901126103f3576001600160a01b03612e8e61393d565b16600052607a6020526020604060002054604051908152f35b346103f35760203660031901126103f357600435612ec3613bf1565b80606e557fa9dfc7ca3151b504bdbe971426324a888f97e7e7a52929484c01dff8168058ab600080a2005b346103f35760403660031901126103f357600435612f0a613a76565b612f1c60ff60675460a01c1615614e4e565b33600052602060778152612f42611c50604060002054607a845260406000205490613d35565b612f4c8333615348565b613001576000838152607f8252604080822033835283529020805460ff191660011790557f1aa9e4be46e24e1f2e7eeb1613c01629213cd42965d2716e18531b63e552e411908215612fe6578360005260818152612fae33604060002061541c565b83600052607e81526001604060002001543360005260778252612fd76040600020918254613d35565b905560405192151583523392a3005b8360005260828152612ffc33604060002061541c565b612fae565b6064906040519062461bcd60e51b82526004820152600b60248201526a1b9bdd08185b1b1bddd95960aa1b6044820152fd5b346103f35760203660031901126103f35760043560005260806020526020604060002054604051908152f35b346103f35760203660031901126103f3576004358015158091036103f3576067546001600160a01b03811633036130cd5760ff60a01b191660a082901b60ff60a01b16176067557fd83d5281277e107f080e362699d46082adb74e7dc6a9bccbc87d8ae9533add44600080a2005b60405162461bcd60e51b815260206004820152600a6024820152693737ba103830bab9b2b960b11b6044820152606490fd5b346103f3576003196060368201126103f3576004356001600160401b03918282116103f35760c09082360301126103f35760405161313c81613994565b816004013581526024820135602082015261315960448301613953565b6040820152606482013583811681036103f3576060820152608482013560ff811681036103f357608082015260a48201359283116103f3576131a661080792600460209536920101613a58565b60a08201526131b3613927565b60443591613e55565b346103f35760003660031901126103f35760206001600160401b03606a5416604051908152f35b346103f3576020806003193601126103f35760043561320a60ff60675460a01c1615614e4e565b33600052607782528061322c604060002054607a855260406000205490613d35565b1061330a5761323d60755442614eb2565b9033600052607883526040600020805490600182018092116132f457553360005260788352604060002054918291604051613277816139af565b8281526001868201838152336000526079885260406000208660005288526040600020925183555191015533600052607a855260406000206132ba828254614eb2565b9055604051918252848201527fcc7e0e76b20394ef965d71c4111d21e1b322bb8775dc2c7acd29eb0d3c3dd96d60403392a3604051908152f35b634e487b7160e01b600052601160045260246000fd5b60405162461bcd60e51b81526004810183905260006024820152604490fd5b346103f35760a03660031901126103f35760043560ff81168091036103f357613350613927565b906084356001600160401b0381116103f357613370903690600401613967565b61338260ff60675460a01c1615614e4e565b6044356000908152607660205260409020600101546133ab906001600160a01b03161515613cf2565b604435600052607660205260406000205460643510613632576133cd91615481565b90604051926133db84613994565b604435845260643560208501526001600160a01b03166040840152426001600160401b03166060840152608083015260a082015260695461341d903383613e55565b60405160643581523390827fc3d3e0544c80e3bb83f62659259ae1574f72a91515ab3cae3dd75cf77e1b0aea602060443593a46065546040516323b872dd60e01b81523360048201523060248201526064803560448301529091602091839182906000906001600160a01b03165af18015610a9a57613613575b506000818152607b602090815260409182902084518155908401516001820155908301516002820180546060860151608087015160ff60e01b60e09190911b166001600160e81b03199092166001600160a01b039094169390931767ffffffffffffffff60a01b60a094851b1617179055909201518051929091906003016001600160401b038411610db3576020936135308254613b11565b601f81116135e3575b508493601f8211600114613580579381929394600092613575575b50508160011b916000199060031b1c19161790555b80606955604051908152f35b015190508580613554565b601f1982169483600052866000209160005b8781106135cc5750836001959697106135b3575b505050811b019055613569565b015160001960f88460031b161c191690558580806135a6565b919288600181928685015181550194019201613592565b61360d908360005286600020601f840160051c8101918885106123e957601f0160051c0190614e9b565b85613539565b61362b9060203d602011610a9357610a8481836139e5565b5082613497565b60405162461bcd60e51b815260206004820152601860248201527f6c6f77657220666565207468616e206d6f64656c2066656500000000000000006044820152606490fd5b346103f35760003660031901126103f3576020607254604051908152f35b346103f3576020806003193601126103f357600435906136bd60ff60675460a01c1615614e4e565b6000828152607b825260409020600201546001600160a01b0390811633036138f65782600052607d825280604060002054166138c25782600052607b82526137196001600160401b0360026040600020015460a01c1642613d35565b607254101561387d5782600052607b825260016040600020015490606f5491670de0b6b3a76400009283038381116132f45760009361375c6137a8928794613d42565b04868552607b8352613775816001604088200154613d35565b60655460405163a9059cbb60e01b8152336004820152602481019390935291959094869392169183919082906044820190565b03925af1918215610a9a576137c592613860575b50606854614eb2565b60685581600052607b815260036040600020600081556000600182015560006002820155016137f48154613b11565b80613822575b837f446efbf8d207f3e2ede58a6bbde7028a4e308488b6293e6461fbb7c288326e76600080a2005b600092601f821160011461383c575050555b8180806137fa565b828452832091839161385990601f0160051c840160018501614e9b565b5555613834565b61387690843d8611610a9357610a8481836139e5565b50846137bc565b60405162461bcd60e51b815260048101839052601860248201527f646964206e6f742077616974206c6f6e6720656e6f75676800000000000000006044820152606490fd5b60405162461bcd60e51b815260048101839052600c60248201526b3430b99039b7b63aba34b7b760a11b6044820152606490fd5b60405162461bcd60e51b81526004810183905260096024820152683737ba1037bbb732b960b91b6044820152606490fd5b602435906001600160a01b03821682036103f357565b600435906001600160a01b03821682036103f357565b35906001600160a01b03821682036103f357565b9181601f840112156103f3578235916001600160401b0383116103f357602083818601950101116103f357565b60c081019081106001600160401b03821117610db357604052565b604081019081106001600160401b03821117610db357604052565b608081019081106001600160401b03821117610db357604052565b90601f801991011681019081106001600160401b03821117610db357604052565b6001600160401b038111610db357601f01601f191660200190565b929192613a2d82613a06565b91613a3b60405193846139e5565b8294818452818301116103f3578281602093846000960137010152565b9080601f830112156103f357816020613a7393359101613a21565b90565b6024359081151582036103f357565b60409060031901126103f3576004359060243590565b8054821015613ab35760005260206000200190600090565b634e487b7160e01b600052603260045260246000fd5b60005b838110613adc5750506000910152565b8181015183820152602001613acc565b90602091613b0581518092818552858086019101613ac9565b601f01601f1916010190565b90600182811c92168015613b41575b6020831014613b2b57565b634e487b7160e01b600052602260045260246000fd5b91607f1691613b20565b9060405191826000825492613b5f84613b11565b908184526001948581169081600014613bce5750600114613b8b575b5050613b89925003836139e5565b565b9093915060005260209081600020936000915b818310613bb6575050613b8993508201013880613b7b565b85548884018501529485019487945091830191613b9e565b915050613b8994506020925060ff191682840152151560051b8201013880613b7b565b6033546001600160a01b03163303613c0557565b606460405162461bcd60e51b815260206004820152602060248201527f4f776e61626c653a2063616c6c6572206973206e6f7420746865206f776e65726044820152fd5b603380546001600160a01b039283166001600160a01b0319821681179092559091167f8be0079c531659141344cd1fd0a4f28419497f9722a3daafe3b4186f6b6457e0600080a3565b15613c9957565b60405162461bcd60e51b815260206004820152602b60248201527f496e697469616c697a61626c653a20636f6e7472616374206973206e6f74206960448201526a6e697469616c697a696e6760a81b6064820152608490fd5b15613cf957565b60405162461bcd60e51b81526020600482015260146024820152731b5bd9195b08191bd95cc81b9bdd08195e1a5cdd60621b6044820152606490fd5b919082039182116132f457565b818102929181159184041417156132f457565b8115613d5f570490565b634e487b7160e01b600052601260045260246000fd5b613d7d614d46565b686c6b935b8bbd4000008110613db957606d5490670de0b6b3a7640000918203918083116132f457613db2613a739383613d42565b0490613d35565b50600090565b613dc7614d46565b683635c9adc5dea000008110613db957606c5490670de0b6b3a7640000918203918083116132f457613db2613a739383613d42565b613e4f60018060a01b03613e418160208501511693606081519101519060405195869460208601981688526040850152606084015260808084015260a0830190613aec565b03601f1981018352826139e5565b51902090565b9091613e4f90613e4183519360a0602082015191015190604051958694602086019860018060a01b0316895260408601526060850152608084015260a08084015260c0830190613aec565b63bbf81e008111613f2e57613eb490613f3d565b680a688906bd8affffff8111613f1657613edb670de0b6b3a7640000809260401b04614088565b908115613d5f57697f0e10af47c1c700000091785f95e44a0e2947c3011ad48e1abf7023b57000000000000000040481039081116132f45790565b6024906040519063b3b6ba1f60e01b82526004820152fd5b50697f0e10af47c1c700000090565b670de0b6b3a7640000919060001983820983820291828083109203918083039214613fcb576301e133809081831015613fa857947f98f5be4dd1e14769fbd6666224dc1eb80dd2e0a3d2c8b328f57e76b7ae10395794950990828211900360f91b910360071c170290565b6064918660405192630c740aef60e31b8452600484015260248301526044820152fd5b50506301e1338090049150565b670de0b6b3a764000091600019838309928083029283808610950394808603951461407b578285101561405857908291096001821901821680920460028082600302188083028203028083028203028083028203028083028203028083028203028092029003029360018380600003040190848311900302920304170290565b8260649260405192630c740aef60e31b8452600484015260248301526044820152fd5b505090613a739250613d55565b600160bf1b67ff0000000000000082166147dd575b670de0b6b3a76400009066ff00000000000083166146cd575b65ff000000000083166145c5575b64ff0000000083166144c5575b63ff00000083166143cd575b62ff000083166142dd575b61ff0083166141f5575b60ff8316614107575b029060401c60bf031c90565b608083166141e2575b60408084166141ce575b602084166141ba575b601084166141a6575b60088416614192575b6004841661417e575b6002841661416a575b60018416614156575b506140fb565b906801000000000000000102901c38614150565b906801000000000000000102811c90614147565b906801000000000000000302811c9061413e565b906801000000000000000602811c90614135565b906801000000000000000b02811c9061412c565b906801000000000000001602811c90614123565b906801000000000000002c02811c9061411a565b680100000000000000590260401c614110565b61800083166142ca575b61400083166142b7575b61200083166142a4575b6110008316614291575b610800831661427e575b610400831661426b575b6102008316614258575b6101008316156140f257680100000000000000b10260401c6140f2565b680100000000000001630260401c61423b565b680100000000000002c60260401c614231565b6801000000000000058c0260401c614227565b68010000000000000b170260401c61421d565b6801000000000000162e0260401c614213565b68010000000000002c5d0260401c614209565b680100000000000058b90260401c6141ff565b6280000083166143ba575b6240000083166143a7575b622000008316614394575b621000008316614381575b62080000831661436e575b62040000831661435b575b620200008316614348575b620100008316156140e8576801000000000000b1720260401c6140e8565b680100000000000162e40260401c61432a565b6801000000000002c5c80260401c61431f565b68010000000000058b910260401c614314565b680100000000000b17210260401c614309565b68010000000000162e430260401c6142fe565b680100000000002c5c860260401c6142f3565b6801000000000058b90c0260401c6142e8565b638000000083166144b2575b6340000000831661449f575b6320000000831661448c575b63100000008316614479575b63080000008316614466575b63040000008316614453575b63020000008316614440575b63010000008316156140dd5768010000000000b172180260401c6140dd565b6801000000000162e4300260401c614421565b68010000000002c5c8600260401c614415565b680100000000058b90c00260401c614409565b6801000000000b17217f0260401c6143fd565b680100000000162e42ff0260401c6143f1565b6801000000002c5c85fe0260401c6143e5565b68010000000058b90bfc0260401c6143d9565b64800000000083166145b2575b644000000000831661459f575b642000000000831661458c575b6410000000008316614579575b6408000000008316614566575b6404000000008316614553575b6402000000008316614540575b6401000000008316156140d157680100000000b17217f80260401c6140d1565b68010000000162e42ff10260401c614520565b680100000002c5c85fe30260401c614513565b6801000000058b90bfce0260401c614506565b68010000000b17217fbb0260401c6144f9565b6801000000162e42fff00260401c6144ec565b68010000002c5c8601cc0260401c6144df565b680100000058b90c0b490260401c6144d2565b6580000000000083166146ba575b6540000000000083166146a7575b652000000000008316614694575b651000000000008316614681575b65080000000000831661466e575b65040000000000831661465b575b650200000000008316614648575b650100000000008316156140c4576801000000b1721835510260401c6140c4565b680100000162e430e5a20260401c614627565b6801000002c5c863b73f0260401c614619565b68010000058b90cf1e6e0260401c61460b565b680100000b1721bcfc9a0260401c6145fd565b68010000162e43f4f8310260401c6145ef565b680100002c5c89d5ec6d0260401c6145e1565b6801000058b91b5bc9ae0260401c6145d3565b668000000000000083166147ca575b664000000000000083166147b7575b662000000000000083166147a4575b66100000000000008316614791575b6608000000000000831661477e575b6604000000000000831661476b575b66020000000000008316614758575b66010000000000008316156140b65768010000b17255775c040260401c6140b6565b6801000162e525ee05470260401c614736565b68010002c5cc37da94920260401c614727565b680100058ba01fb9f96d0260401c614718565b6801000b175effdc76ba0260401c614709565b680100162f3904051fa10260401c6146fa565b6801002c605e2e8cec500260401c6146eb565b68010058c86da1c09ea20260401c6146dc565b67800000000000000082166148f3575b670de0b6b3a76400009067400000000000000083166148e0575b67200000000000000083166148cd575b67100000000000000083166148ba575b67080000000000000083166148a7575b6704000000000000008316614894575b6702000000000000008316614881575b670100000000000000831661486e575b905061409d565b680100b1afa5abcbed610260401c614867565b68010163da9fb33356d80260401c614857565b680102c9a3e778060ee70260401c614847565b6801059b0d31585743ae0260401c614837565b68010b5586cf9890f62a0260401c614827565b6801172b83c7d517adce0260401c614817565b6801306fe0a31b7152df0260401c614807565b5068016a09e667f3bcc909607f1b6147ed565b80151580614bc3575b15614b935761491d90613ea0565b90600160ff1b8082148015614b8a575b614ad7576000821215614b8157614955826000035b6000851215614b7a578460000390613fd8565b6001600160ff1b0392838211614b5c576000199460009118851215614b555750915b670cf4ad2e86166c9c8312614b4457670de0b6b3a763ffff1992808401906001818313166132f4578382148015614b3c575b614b2a576000821215614b2057670de0b6b3a76400006149cc9160000301614c49565b90828211614af9578568056bc75e2d631000006000921813600014614af25750925b83018381136001166132f45783126001166132f4576801158e460913d00000831215614ae95760008312938415614a4f5750508114614a3d57613a739115614a3857600003614bcc565b614bcc565b60405163ec2b9e6760e01b8152600490fd5b9192614a5c919450614bcc565b918214614ad7576000821215614ad157816000035b8015613d5f576ec097ce7bc90715b34b9f100000000004928311614aaa57600091670de0b6b3a7640000181315614aa6575090565b0390565b60405163d49c26b360e01b8152670de0b6b3a7640000600482015260248101839052604490fd5b81614a71565b6040516309fe2b4560e41b8152600490fd5b50505050600090565b03926149ee565b6044906040519063120b5b4360e01b8252600482015268056bc75e2d631000006024820152fd5b506149cc81614c49565b60405163a6070c2560e01b8152600490fd5b5060006149a9565b5050505068056bc75e2d6310000090565b0391614977565b604490856040519163d49c26b360e01b835260048301526024820152fd5b8490613fd8565b61495582614942565b5080831461492d565b60405162461bcd60e51b81526020600482015260086024820152676d696e2076616c7360c01b6044820152606490fd5b5081151561490f565b6000811215614c0c5768033dd1780914b97114198112613db957614bf290600003614bcc565b8015613d5f576ec097ce7bc90715b34b9f10000000000590565b680a688906bd8affffff8113614c3257670de0b6b3a7640000613a739160401b05614088565b60249060405190626c1a0560e31b82526004820152fd5b68056bc75e2d63100000919060001983820983820291828083109203918083039214614cd757670de0b6b3a76400009081831015614cb957947faccb18165bd6fe31ae1cf318dc5b51eee0e1ba569b88cd74c1773b91fac1066994950990828211900360ee1b910360121c170290565b6044908660405191635173648d60e01b835260048301526024820152fd5b5050670de0b6b3a764000090049150565b908015614d3857697f0e10af47c1c7000000908082038281116132f457670de0b6b3a764000093848202918204851483851417156132f457614d3392614d2d91614906565b90613d42565b040490565b5050670de0b6b3a764000090565b6065546040516370a0823160e01b815230600482015290602090829060249082906001600160a01b03165afa908115610a9a57600091614da9575b50697f0e10af47c1c70000009081811015614da25781039081116132f45790565b5050600090565b906020823d8211614dd5575b81614dc2602093836139e5565b81010312614dd257505138614d81565b80fd5b3d9150614db5565b613a73614df56001600160401b03606a541642613d35565b610b84614d46565b92613e4f9160a091806040519586936020850198600180881b031689526040850152606080850152816080850152848401376000838284010152601f801991011681010360808101845201826139e5565b15614e5557565b60405162461bcd60e51b81526020600482015260066024820152651c185d5cd95960d21b6044820152606490fd5b908160209103126103f3575180151581036103f35790565b818110614ea6575050565b60008155600101614e9b565b919082018092116132f457565b15614ec657565b60405162461bcd60e51b81526020600482015260116024820152701c995c5d595cdd081b9bdd08195e1a5cdd607a1b6044820152606490fd5b61a4ba46148015614f7d575b8015614f71575b614f1a574390565b60405163a3b1b31d60e01b815260208160048160645afa908115610a9a57600091614f43575090565b906020823d8211614f69575b81614f5c602093836139e5565b81010312614dd257505190565b3d9150614f4f565b5062066eee4614614f12565b5062066eed4614614f0b565b15614f9057565b60405162461bcd60e51b81526020600482015260126024820152716d696e207374616b656420746f6f206c6f7760701b6044820152606490fd5b906000828152602090607b82526040908181205481526076835281812054858252607b84528383832060018101548311615340575b826152c6575b505061501e90868352607b855260018484200154613d35565b94606e5495670de0b6b3a764000096870387811161521b5761504c88615045889385613d42565b0483613d35565b9161505983606854614eb2565b6068556150668382613d35565b61522f575b505050808252607b84528282205482526076845260028383200154806150c4575b5081526083835281812054607d8452828220546001600160a01b031682526077909352208054929350916150c09190614eb2565b9055565b6150d687916150d1614ddd565b613d42565b0495861561508c57607054810381811161521b57906150f86150ff9289613d42565b0487613d35565b9560018060a01b0390838661515d8460655416868452607d83526151298c878b8720541696613d35565b895163a9059cbb60e01b8082526001600160a01b039097166004820152602481019190915293849283919082906044820190565b03925af1801561521157918793916151ae9a936151f4575b5060655460665488519283526001600160a01b039084161660048301526024820193909352988992909116908290869082906044820190565b03925af19586156151ea576150c09495966151cd575b8695945061508c565b6151e390863d8811610a9357610a8481836139e5565b50386151c4565b83513d84823e3d90fd5b61520a90853d8711610a9357610a8481836139e5565b5038615175565b86513d87823e3d90fd5b634e487b7160e01b84526011600452602484fd5b6152899261525660018060a01b0391826065541692878952607d8652898920541693613d35565b875163a9059cbb60e01b81526001600160a01b039093166004840152602483015290928391908290879082906044820190565b03925af180156152bc5761529f575b848161506b565b6152b590853d8711610a9357610a8481836139e5565b5038615298565b84513d85823e3d90fd5b606554905484526076825284842060010154855163a9059cbb60e01b81526001600160a01b039182166004820152602481018590529291839160449183918891165af180156152bc579061501e9291615323575b85919250615005565b61533990863d8811610a9357610a8481836139e5565b503861531a565b839250614fff565b6000828152607e60205260408120549092916001600160a01b0380831615615412576153836073546001600160401b03809560a01c16614eb2565b421161540857838552607f602052604085209116845260205260ff604084205416615400576077602052600160408420015480156153f7576074548082106153ed576153ce91613d35565b918352607e602052604083205460a01c16106153e75790565b50600690565b5050505050600590565b50505050600490565b505050600390565b5050505050600290565b5050505050600190565b805468010000000000000000811015610db35761543e91600182018155613a9b565b819291549060031b9160018060a01b03809116831b921b1916179055565b63ffffffff90811660001901919082116132f457565b60001981146132f45760010190565b906201000081116155b4576001600160401b03906154a0828216615622565b600061557160409384519061550b60248360209a8b986154fc8a8401966204010960e91b8852825193818d8501956154dc8160238a0189613ac9565b87019160238301370191600360fb1b602384015251809386840190613ac9565b010360048101855201836139e5565b615561602161551c89855116615622565b9388519384916155528a840197600560f91b89526155438c82519283918989019101613ac9565b84019151809386840190613ac9565b010360018101845201826139e5565b8551928392839251928391613ac9565b8101039060025afa156155aa57600051815193609160f51b90850152602284015260228352606083019183831090831117610db3575290565b513d6000823e3d90fd5b60405162461bcd60e51b815260206004820152601f60248201527f4d617820636f6e74656e742073697a65206973203635353336206279746573006044820152606490fd5b6001600160401b038091169081146132f45760010190565b908151811015613ab3570160200190565b600180825b607f6001600160401b0382161161570057506001600160401b03809216908061564f83613a06565b9461565d60405196876139e5565b838652601f1961566c85613a06565b013660208801376000925b6156ad575b505050600019018181116132f457166156a9607f60f81b61569d8385615611565b511660001a9183615611565b5390565b848316848110156156fa576156f3916701ffffffffffffff91607f821660801760f81b6001600160f81b03191660001a906156e8908a615611565b5360071c16926155f9565b9181615677565b5061567c565b6701ffffffffffffff6157179160071c16926155f9565b9161562756fea2646970667358221220632a2e7633546d0d7cc1561a0f0a7c3ddd0c3644c2c07601792186ff2e1bfe6e64736f6c63430008130033",
  "linkReferences": {},
  "deployedLinkReferences": {}
}