{
  "_format": "hh-sol-artifact-1",
  "contractName": "V2_EngineV2",
  "sourceName": "contracts/V2_EngineV2.sol",
  "abi": [
    {
      "inputs": [],
      "stateMutability": "nonpayable",
      "type": "constructor"
    },
    {
      "inputs": [
        {
          "internalType": "uint256",
          "name": "x",
          "type": "uint256"
        },
        {
          "internalType": "uint256",
          "name": "y",
          "type": "uint256"
        }
      ],
      "name": "PRBMath_MulDiv18_Overflow",
      "type": "error"
    },
    {
      "inputs": [
        {
          "internalType": "uint256",
          "name": "x",
          "type": "uint256"
        },
        {
          "internalType": "uint256",
          "name": "y",
          "type": "uint256"
        },
        {
          "internalType": "uint256",
          "name": "denominator",
          "type": "uint256"
        }
      ],
      "name": "PRBMath_MulDiv_Overflow",
      "type": "error"
    },
    {
      "inputs": [],
      "name": "PRBMath_SD59x18_Abs_MinSD59x18",
      "type": "error"
    },
    {
      "inputs": [],
      "name": "PRBMath_SD59x18_Div_InputTooSmall",
      "type": "error"
    },
    {
      "inputs": [
        {
          "internalType": "SD59x18",
          "name": "x",
          "type": "int256"
        },
        {
          "internalType": "SD59x18",
          "name": "y",
          "type": "int256"
        }
      ],
      "name": "PRBMath_SD59x18_Div_Overflow",
      "type": "error"
    },
    {
      "inputs": [
        {
          "internalType": "SD59x18",
          "name": "x",
          "type": "int256"
        }
      ],
      "name": "PRBMath_SD59x18_Exp2_InputTooBig",
      "type": "error"
    },
    {
      "inputs": [],
      "name": "PRBMath_SD59x18_Mul_InputTooSmall",
      "type": "error"
    },
    {
      "inputs": [
        {
          "internalType": "SD59x18",
          "name": "x",
          "type": "int256"
        },
        {
          "internalType": "SD59x18",
          "name": "y",
          "type": "int256"
        }
      ],
      "name": "PRBMath_SD59x18_Mul_Overflow",
      "type": "error"
    },
    {
      "inputs": [
        {
          "internalType": "UD60x18",
          "name": "x",
          "type": "uint256"
        }
      ],
      "name": "PRBMath_UD60x18_Exp2_InputTooBig",
      "type": "error"
    },
    {
      "anonymous": false,
      "inputs": [
        {
          "indexed": true,
          "internalType": "address",
          "name": "addr",
          "type": "address"
        },
        {
          "indexed": true,
          "internalType": "bytes32",
          "name": "task",
          "type": "bytes32"
        }
      ],
      "name": "ContestationSubmitted",
      "type": "event"
    },
    {
      "anonymous": false,
      "inputs": [
        {
          "indexed": true,
          "internalType": "address",
          "name": "addr",
          "type": "address"
        },
        {
          "indexed": true,
          "internalType": "bytes32",
          "name": "task",
          "type": "bytes32"
        },
        {
          "indexed": false,
          "internalType": "bool",
          "name": "yea",
          "type": "bool"
        }
      ],
      "name": "ContestationVote",
      "type": "event"
    },
    {
      "anonymous": false,
      "inputs": [
        {
          "indexed": true,
          "internalType": "bytes32",
          "name": "id",
          "type": "bytes32"
        },
        {
          "indexed": true,
          "internalType": "uint32",
          "name": "start_idx",
          "type": "uint32"
        },
        {
          "indexed": false,
          "internalType": "uint32",
          "name": "end_idx",
          "type": "uint32"
        }
      ],
      "name": "ContestationVoteFinish",
      "type": "event"
    },
    {
      "anonymous": false,
      "inputs": [
        {
          "indexed": true,
          "internalType": "uint256",
          "name": "amount",
          "type": "uint256"
        }
      ],
      "name": "ExitValidatorMinUnlockTimeChanged",
      "type": "event"
    },
    {
      "anonymous": false,
      "inputs": [
        {
          "indexed": false,
          "internalType": "uint8",
          "name": "version",
          "type": "uint8"
        }
      ],
      "name": "Initialized",
      "type": "event"
    },
    {
      "anonymous": false,
      "inputs": [
        {
          "indexed": true,
          "internalType": "uint256",
          "name": "amount",
          "type": "uint256"
        }
      ],
      "name": "MaxContestationValidatorStakeSinceChanged",
      "type": "event"
    },
    {
      "anonymous": false,
      "inputs": [
        {
          "indexed": true,
          "internalType": "uint256",
          "name": "amount",
          "type": "uint256"
        }
      ],
      "name": "MinClaimSolutionTimeChanged",
      "type": "event"
    },
    {
      "anonymous": false,
      "inputs": [
        {
          "indexed": true,
          "internalType": "uint256",
          "name": "amount",
          "type": "uint256"
        }
      ],
      "name": "MinContestationVotePeriodTimeChanged",
      "type": "event"
    },
    {
      "anonymous": false,
      "inputs": [
        {
          "indexed": true,
          "internalType": "uint256",
          "name": "amount",
          "type": "uint256"
        }
      ],
      "name": "MinRetractionWaitTimeChanged",
      "type": "event"
    },
    {
      "anonymous": false,
      "inputs": [
        {
          "indexed": true,
          "internalType": "bytes32",
          "name": "id",
          "type": "bytes32"
        }
      ],
      "name": "ModelRegistered",
      "type": "event"
    },
    {
      "anonymous": false,
      "inputs": [
        {
          "indexed": true,
          "internalType": "address",
          "name": "previousOwner",
          "type": "address"
        },
        {
          "indexed": true,
          "internalType": "address",
          "name": "newOwner",
          "type": "address"
        }
      ],
      "name": "OwnershipTransferred",
      "type": "event"
    },
    {
      "anonymous": false,
      "inputs": [
        {
          "indexed": true,
          "internalType": "bool",
          "name": "paused",
          "type": "bool"
        }
      ],
      "name": "PausedChanged",
      "type": "event"
    },
    {
      "anonymous": false,
      "inputs": [
        {
          "indexed": true,
          "internalType": "address",
          "name": "to",
          "type": "address"
        }
      ],
      "name": "PauserTransferred",
      "type": "event"
    },
    {
      "anonymous": false,
      "inputs": [
        {
          "indexed": true,
          "internalType": "uint256",
          "name": "amount",
          "type": "uint256"
        }
      ],
      "name": "RetractionFeePercentageChanged",
      "type": "event"
    },
    {
      "anonymous": false,
      "inputs": [
        {
          "indexed": true,
          "internalType": "address",
          "name": "addr",
          "type": "address"
        },
        {
          "indexed": true,
          "internalType": "bytes32",
          "name": "commitment",
          "type": "bytes32"
        }
      ],
      "name": "SignalCommitment",
      "type": "event"
    },
    {
      "anonymous": false,
      "inputs": [
        {
          "indexed": true,
          "internalType": "address",
          "name": "addr",
          "type": "address"
        },
        {
          "indexed": true,
          "internalType": "bytes32",
          "name": "model",
          "type": "bytes32"
        },
        {
          "indexed": false,
          "internalType": "bool",
          "name": "supported",
          "type": "bool"
        }
      ],
      "name": "SignalSupport",
      "type": "event"
    },
    {
      "anonymous": false,
      "inputs": [
        {
          "indexed": true,
          "internalType": "uint256",
          "name": "amount",
          "type": "uint256"
        }
      ],
      "name": "SlashAmountPercentageChanged",
      "type": "event"
    },
    {
      "anonymous": false,
      "inputs": [
        {
          "indexed": true,
          "internalType": "address",
          "name": "addr",
          "type": "address"
        },
        {
          "indexed": true,
          "internalType": "bytes32",
          "name": "task",
          "type": "bytes32"
        }
      ],
      "name": "SolutionClaimed",
      "type": "event"
    },
    {
      "anonymous": false,
      "inputs": [
        {
          "indexed": true,
          "internalType": "uint256",
          "name": "amount",
          "type": "uint256"
        }
      ],
      "name": "SolutionFeePercentageChanged",
      "type": "event"
    },
    {
      "anonymous": false,
      "inputs": [
        {
          "indexed": true,
          "internalType": "bytes32",
          "name": "id",
          "type": "bytes32"
        },
        {
          "indexed": false,
          "internalType": "uint256",
          "name": "rate",
          "type": "uint256"
        }
      ],
      "name": "SolutionMineableRateChange",
      "type": "event"
    },
    {
      "anonymous": false,
      "inputs": [
        {
          "indexed": true,
          "internalType": "uint256",
          "name": "amount",
          "type": "uint256"
        }
      ],
      "name": "SolutionStakeAmountChanged",
      "type": "event"
    },
    {
      "anonymous": false,
      "inputs": [
        {
          "indexed": true,
          "internalType": "address",
          "name": "addr",
          "type": "address"
        },
        {
          "indexed": true,
          "internalType": "bytes32",
          "name": "task",
          "type": "bytes32"
        }
      ],
      "name": "SolutionSubmitted",
      "type": "event"
    },
    {
      "anonymous": false,
      "inputs": [
        {
          "indexed": true,
          "internalType": "uint64",
          "name": "startBlockTime",
          "type": "uint64"
        }
      ],
      "name": "StartBlockTimeChanged",
      "type": "event"
    },
    {
      "anonymous": false,
      "inputs": [
        {
          "indexed": true,
          "internalType": "bytes32",
          "name": "id",
          "type": "bytes32"
        }
      ],
      "name": "TaskRetracted",
      "type": "event"
    },
    {
      "anonymous": false,
      "inputs": [
        {
          "indexed": true,
          "internalType": "bytes32",
          "name": "id",
          "type": "bytes32"
        },
        {
          "indexed": true,
          "internalType": "bytes32",
          "name": "model",
          "type": "bytes32"
        },
        {
          "indexed": false,
          "internalType": "uint256",
          "name": "fee",
          "type": "uint256"
        },
        {
          "indexed": true,
          "internalType": "address",
          "name": "sender",
          "type": "address"
        }
      ],
      "name": "TaskSubmitted",
      "type": "event"
    },
    {
      "anonymous": false,
      "inputs": [
        {
          "indexed": true,
          "internalType": "uint256",
          "name": "amount",
          "type": "uint256"
        }
      ],
      "name": "TreasuryRewardPercentageChanged",
      "type": "event"
    },
    {
      "anonymous": false,
      "inputs": [
        {
          "indexed": true,
          "internalType": "address",
          "name": "to",
          "type": "address"
        }
      ],
      "name": "TreasuryTransferred",
      "type": "event"
    },
    {
      "anonymous": false,
      "inputs": [
        {
          "indexed": true,
          "internalType": "address",
          "name": "addr",
          "type": "address"
        },
        {
          "indexed": true,
          "internalType": "address",
          "name": "validator",
          "type": "address"
        },
        {
          "indexed": false,
          "internalType": "uint256",
          "name": "amount",
          "type": "uint256"
        }
      ],
      "name": "ValidatorDeposit",
      "type": "event"
    },
    {
      "anonymous": false,
      "inputs": [
        {
          "indexed": true,
          "internalType": "uint256",
          "name": "amount",
          "type": "uint256"
        }
      ],
      "name": "ValidatorMinimumPercentageChanged",
      "type": "event"
    },
    {
      "anonymous": false,
      "inputs": [
        {
          "indexed": true,
          "internalType": "address",
          "name": "addr",
          "type": "address"
        },
        {
          "indexed": true,
          "internalType": "address",
          "name": "to",
          "type": "address"
        },
        {
          "indexed": true,
          "internalType": "uint256",
          "name": "count",
          "type": "uint256"
        },
        {
          "indexed": false,
          "internalType": "uint256",
          "name": "amount",
          "type": "uint256"
        }
      ],
      "name": "ValidatorWithdraw",
      "type": "event"
    },
    {
      "anonymous": false,
      "inputs": [
        {
          "indexed": true,
          "internalType": "address",
          "name": "addr",
          "type": "address"
        },
        {
          "indexed": true,
          "internalType": "uint256",
          "name": "count",
          "type": "uint256"
        }
      ],
      "name": "ValidatorWithdrawCancelled",
      "type": "event"
    },
    {
      "anonymous": false,
      "inputs": [
        {
          "indexed": true,
          "internalType": "address",
          "name": "addr",
          "type": "address"
        },
        {
          "indexed": true,
          "internalType": "uint256",
          "name": "count",
          "type": "uint256"
        },
        {
          "indexed": false,
          "internalType": "uint256",
          "name": "unlockTime",
          "type": "uint256"
        },
        {
          "indexed": false,
          "internalType": "uint256",
          "name": "amount",
          "type": "uint256"
        }
      ],
      "name": "ValidatorWithdrawInitiated",
      "type": "event"
    },
    {
      "anonymous": false,
      "inputs": [
        {
          "indexed": false,
          "internalType": "uint256",
          "name": "version",
          "type": "uint256"
        }
      ],
      "name": "VersionChanged",
      "type": "event"
    },
    {
      "inputs": [],
      "name": "accruedFees",
      "outputs": [
        {
          "internalType": "uint256",
          "name": "",
          "type": "uint256"
        }
      ],
      "stateMutability": "view",
      "type": "function"
    },
    {
      "inputs": [],
      "name": "baseToken",
      "outputs": [
        {
          "internalType": "contract IBaseToken",
          "name": "",
          "type": "address"
        }
      ],
      "stateMutability": "view",
      "type": "function"
    },
    {
      "inputs": [
        {
          "internalType": "uint256",
          "name": "count_",
          "type": "uint256"
        }
      ],
      "name": "cancelValidatorWithdraw",
      "outputs": [],
      "stateMutability": "nonpayable",
      "type": "function"
    },
    {
      "inputs": [
        {
          "internalType": "bytes32",
          "name": "taskid_",
          "type": "bytes32"
        }
      ],
      "name": "claimSolution",
      "outputs": [],
      "stateMutability": "nonpayable",
      "type": "function"
    },
    {
      "inputs": [
        {
          "internalType": "bytes32",
          "name": "",
          "type": "bytes32"
        }
      ],
      "name": "commitments",
      "outputs": [
        {
          "internalType": "uint256",
          "name": "",
          "type": "uint256"
        }
      ],
      "stateMutability": "view",
      "type": "function"
    },
    {
      "inputs": [
        {
          "internalType": "bytes32",
          "name": "taskid_",
          "type": "bytes32"
        },
        {
          "internalType": "uint32",
          "name": "amnt_",
          "type": "uint32"
        }
      ],
      "name": "contestationVoteFinish",
      "outputs": [],
      "stateMutability": "nonpayable",
      "type": "function"
    },
    {
      "inputs": [
        {
          "internalType": "bytes32",
          "name": "",
          "type": "bytes32"
        },
        {
          "internalType": "uint256",
          "name": "",
          "type": "uint256"
        }
      ],
      "name": "contestationVoteNays",
      "outputs": [
        {
          "internalType": "address",
          "name": "",
          "type": "address"
        }
      ],
      "stateMutability": "view",
      "type": "function"
    },
    {
      "inputs": [
        {
          "internalType": "bytes32",
          "name": "",
          "type": "bytes32"
        },
        {
          "internalType": "uint256",
          "name": "",
          "type": "uint256"
        }
      ],
      "name": "contestationVoteYeas",
      "outputs": [
        {
          "internalType": "address",
          "name": "",
          "type": "address"
        }
      ],
      "stateMutability": "view",
      "type": "function"
    },
    {
      "inputs": [
        {
          "internalType": "bytes32",
          "name": "",
          "type": "bytes32"
        },
        {
          "internalType": "address",
          "name": "",
          "type": "address"
        }
      ],
      "name": "contestationVoted",
      "outputs": [
        {
          "internalType": "bool",
          "name": "",
          "type": "bool"
        }
      ],
      "stateMutability": "view",
      "type": "function"
    },
    {
      "inputs": [
        {
          "internalType": "bytes32",
          "name": "",
          "type": "bytes32"
        }
      ],
      "name": "contestationVotedIndex",
      "outputs": [
        {
          "internalType": "uint256",
          "name": "",
          "type": "uint256"
        }
      ],
      "stateMutability": "view",
      "type": "function"
    },
    {
      "inputs": [
        {
          "internalType": "bytes32",
          "name": "",
          "type": "bytes32"
        }
      ],
      "name": "contestations",
      "outputs": [
        {
          "internalType": "address",
          "name": "validator",
          "type": "address"
        },
        {
          "internalType": "uint64",
          "name": "blocktime",
          "type": "uint64"
        },
        {
          "internalType": "uint32",
          "name": "finish_start_index",
          "type": "uint32"
        },
        {
          "internalType": "uint256",
          "name": "slashAmount",
          "type": "uint256"
        }
      ],
      "stateMutability": "view",
      "type": "function"
    },
    {
      "inputs": [
        {
          "internalType": "uint256",
          "name": "t",
          "type": "uint256"
        },
        {
          "internalType": "uint256",
          "name": "ts",
          "type": "uint256"
        }
      ],
      "name": "diffMul",
      "outputs": [
        {
          "internalType": "uint256",
          "name": "",
          "type": "uint256"
        }
      ],
      "stateMutability": "pure",
      "type": "function"
    },
    {
      "inputs": [],
      "name": "exitValidatorMinUnlockTime",
      "outputs": [
        {
          "internalType": "uint256",
          "name": "",
          "type": "uint256"
        }
      ],
      "stateMutability": "view",
      "type": "function"
    },
    {
      "inputs": [
        {
          "internalType": "address",
          "name": "sender_",
          "type": "address"
        },
        {
          "internalType": "bytes32",
          "name": "taskid_",
          "type": "bytes32"
        },
        {
          "internalType": "bytes",
          "name": "cid_",
          "type": "bytes"
        }
      ],
      "name": "generateCommitment",
      "outputs": [
        {
          "internalType": "bytes32",
          "name": "",
          "type": "bytes32"
        }
      ],
      "stateMutability": "pure",
      "type": "function"
    },
    {
      "inputs": [
        {
          "internalType": "bytes",
          "name": "content_",
          "type": "bytes"
        }
      ],
      "name": "generateIPFSCID",
      "outputs": [
        {
          "internalType": "bytes",
          "name": "",
          "type": "bytes"
        }
      ],
      "stateMutability": "pure",
      "type": "function"
    },
    {
      "inputs": [],
      "name": "getPsuedoTotalSupply",
      "outputs": [
        {
          "internalType": "uint256",
          "name": "",
          "type": "uint256"
        }
      ],
      "stateMutability": "view",
      "type": "function"
    },
    {
      "inputs": [],
      "name": "getReward",
      "outputs": [
        {
          "internalType": "uint256",
          "name": "",
          "type": "uint256"
        }
      ],
      "stateMutability": "view",
      "type": "function"
    },
    {
      "inputs": [],
      "name": "getSlashAmount",
      "outputs": [
        {
          "internalType": "uint256",
          "name": "",
          "type": "uint256"
        }
      ],
      "stateMutability": "view",
      "type": "function"
    },
    {
      "inputs": [],
      "name": "getValidatorMinimum",
      "outputs": [
        {
          "internalType": "uint256",
          "name": "",
          "type": "uint256"
        }
      ],
      "stateMutability": "view",
      "type": "function"
    },
    {
      "inputs": [
        {
          "components": [
            {
              "internalType": "uint256",
              "name": "fee",
              "type": "uint256"
            },
            {
              "internalType": "address",
              "name": "addr",
              "type": "address"
            },
            {
              "internalType": "uint256",
              "name": "rate",
              "type": "uint256"
            },
            {
              "internalType": "bytes",
              "name": "cid",
              "type": "bytes"
            }
          ],
          "internalType": "struct Model",
          "name": "o_",
          "type": "tuple"
        },
        {
          "internalType": "address",
          "name": "sender_",
          "type": "address"
        }
      ],
      "name": "hashModel",
      "outputs": [
        {
          "internalType": "bytes32",
          "name": "",
          "type": "bytes32"
        }
      ],
      "stateMutability": "pure",
      "type": "function"
    },
    {
      "inputs": [
        {
          "components": [
            {
              "internalType": "bytes32",
              "name": "model",
              "type": "bytes32"
            },
            {
              "internalType": "uint256",
              "name": "fee",
              "type": "uint256"
            },
            {
              "internalType": "address",
              "name": "owner",
              "type": "address"
            },
            {
              "internalType": "uint64",
              "name": "blocktime",
              "type": "uint64"
            },
            {
              "internalType": "uint8",
              "name": "version",
              "type": "uint8"
            },
            {
              "internalType": "bytes",
              "name": "cid",
              "type": "bytes"
            }
          ],
          "internalType": "struct Task",
          "name": "o_",
          "type": "tuple"
        },
        {
          "internalType": "address",
          "name": "sender_",
          "type": "address"
        },
        {
          "internalType": "bytes32",
          "name": "prevhash_",
          "type": "bytes32"
        }
      ],
      "name": "hashTask",
      "outputs": [
        {
          "internalType": "bytes32",
          "name": "",
          "type": "bytes32"
        }
      ],
      "stateMutability": "pure",
      "type": "function"
    },
    {
      "inputs": [
        {
          "internalType": "contract IBaseToken",
          "name": "baseToken_",
          "type": "address"
        },
        {
          "internalType": "address",
          "name": "treasury_",
          "type": "address"
        }
      ],
      "name": "initialize",
      "outputs": [],
      "stateMutability": "nonpayable",
      "type": "function"
    },
    {
      "inputs": [
        {
          "internalType": "uint256",
          "name": "amount_",
          "type": "uint256"
        }
      ],
      "name": "initiateValidatorWithdraw",
      "outputs": [
        {
          "internalType": "uint256",
          "name": "",
          "type": "uint256"
        }
      ],
      "stateMutability": "nonpayable",
      "type": "function"
    },
    {
      "inputs": [
        {
          "internalType": "address",
          "name": "",
          "type": "address"
        }
      ],
      "name": "lastContestationLossTime",
      "outputs": [
        {
          "internalType": "uint256",
          "name": "",
          "type": "uint256"
        }
      ],
      "stateMutability": "view",
      "type": "function"
    },
    {
      "inputs": [],
      "name": "maxContestationValidatorStakeSince",
      "outputs": [
        {
          "internalType": "uint256",
          "name": "",
          "type": "uint256"
        }
      ],
      "stateMutability": "view",
      "type": "function"
    },
    {
      "inputs": [],
      "name": "minClaimSolutionTime",
      "outputs": [
        {
          "internalType": "uint256",
          "name": "",
          "type": "uint256"
        }
      ],
      "stateMutability": "view",
      "type": "function"
    },
    {
      "inputs": [],
      "name": "minContestationVotePeriodTime",
      "outputs": [
        {
          "internalType": "uint256",
          "name": "",
          "type": "uint256"
        }
      ],
      "stateMutability": "view",
      "type": "function"
    },
    {
      "inputs": [],
      "name": "minRetractionWaitTime",
      "outputs": [
        {
          "internalType": "uint256",
          "name": "",
          "type": "uint256"
        }
      ],
      "stateMutability": "view",
      "type": "function"
    },
    {
      "inputs": [
        {
          "internalType": "bytes32",
          "name": "",
          "type": "bytes32"
        }
      ],
      "name": "models",
      "outputs": [
        {
          "internalType": "uint256",
          "name": "fee",
          "type": "uint256"
        },
        {
          "internalType": "address",
          "name": "addr",
          "type": "address"
        },
        {
          "internalType": "uint256",
          "name": "rate",
          "type": "uint256"
        },
        {
          "internalType": "bytes",
          "name": "cid",
          "type": "bytes"
        }
      ],
      "stateMutability": "view",
      "type": "function"
    },
    {
      "inputs": [],
      "name": "owner",
      "outputs": [
        {
          "internalType": "address",
          "name": "",
          "type": "address"
        }
      ],
      "stateMutability": "view",
      "type": "function"
    },
    {
      "inputs": [],
      "name": "paused",
      "outputs": [
        {
          "internalType": "bool",
          "name": "",
          "type": "bool"
        }
      ],
      "stateMutability": "view",
      "type": "function"
    },
    {
      "inputs": [],
      "name": "pauser",
      "outputs": [
        {
          "internalType": "address",
          "name": "",
          "type": "address"
        }
      ],
      "stateMutability": "view",
      "type": "function"
    },
    {
      "inputs": [
        {
          "internalType": "address",
          "name": "",
          "type": "address"
        },
        {
          "internalType": "uint256",
          "name": "",
          "type": "uint256"
        }
      ],
      "name": "pendingValidatorWithdrawRequests",
      "outputs": [
        {
          "internalType": "uint256",
          "name": "unlockTime",
          "type": "uint256"
        },
        {
          "internalType": "uint256",
          "name": "amount",
          "type": "uint256"
        }
      ],
      "stateMutability": "view",
      "type": "function"
    },
    {
      "inputs": [
        {
          "internalType": "address",
          "name": "",
          "type": "address"
        }
      ],
      "name": "pendingValidatorWithdrawRequestsCount",
      "outputs": [
        {
          "internalType": "uint256",
          "name": "",
          "type": "uint256"
        }
      ],
      "stateMutability": "view",
      "type": "function"
    },
    {
      "inputs": [],
      "name": "prevhash",
      "outputs": [
        {
          "internalType": "bytes32",
          "name": "",
          "type": "bytes32"
        }
      ],
      "stateMutability": "view",
      "type": "function"
    },
    {
      "inputs": [
        {
          "internalType": "address",
          "name": "addr_",
          "type": "address"
        },
        {
          "internalType": "uint256",
          "name": "fee_",
          "type": "uint256"
        },
        {
          "internalType": "bytes",
          "name": "template_",
          "type": "bytes"
        }
      ],
      "name": "registerModel",
      "outputs": [
        {
          "internalType": "bytes32",
          "name": "",
          "type": "bytes32"
        }
      ],
      "stateMutability": "nonpayable",
      "type": "function"
    },
    {
      "inputs": [],
      "name": "renounceOwnership",
      "outputs": [],
      "stateMutability": "nonpayable",
      "type": "function"
    },
    {
      "inputs": [
        {
          "internalType": "bytes32",
          "name": "taskid_",
          "type": "bytes32"
        }
      ],
      "name": "retractTask",
      "outputs": [],
      "stateMutability": "nonpayable",
      "type": "function"
    },
    {
      "inputs": [],
      "name": "retractionFeePercentage",
      "outputs": [
        {
          "internalType": "uint256",
          "name": "",
          "type": "uint256"
        }
      ],
      "stateMutability": "view",
      "type": "function"
    },
    {
      "inputs": [
        {
          "internalType": "uint256",
          "name": "t",
          "type": "uint256"
        },
        {
          "internalType": "uint256",
          "name": "ts",
          "type": "uint256"
        }
      ],
      "name": "reward",
      "outputs": [
        {
          "internalType": "uint256",
          "name": "",
          "type": "uint256"
        }
      ],
      "stateMutability": "pure",
      "type": "function"
    },
    {
      "inputs": [
        {
          "internalType": "uint256",
          "name": "amount_",
          "type": "uint256"
        }
      ],
      "name": "setExitValidatorMinUnlockTime",
      "outputs": [],
      "stateMutability": "nonpayable",
      "type": "function"
    },
    {
      "inputs": [
        {
          "internalType": "uint256",
          "name": "amount_",
          "type": "uint256"
        }
      ],
      "name": "setMaxContestationValidatorStakeSince",
      "outputs": [],
      "stateMutability": "nonpayable",
      "type": "function"
    },
    {
      "inputs": [
        {
          "internalType": "uint256",
          "name": "amount_",
          "type": "uint256"
        }
      ],
      "name": "setMinClaimSolutionTime",
      "outputs": [],
      "stateMutability": "nonpayable",
      "type": "function"
    },
    {
      "inputs": [
        {
          "internalType": "uint256",
          "name": "amount_",
          "type": "uint256"
        }
      ],
      "name": "setMinContestationVotePeriodTime",
      "outputs": [],
      "stateMutability": "nonpayable",
      "type": "function"
    },
    {
      "inputs": [
        {
          "internalType": "uint256",
          "name": "amount_",
          "type": "uint256"
        }
      ],
      "name": "setMinRetractionWaitTime",
      "outputs": [],
      "stateMutability": "nonpayable",
      "type": "function"
    },
    {
      "inputs": [
        {
          "internalType": "bool",
          "name": "paused_",
          "type": "bool"
        }
      ],
      "name": "setPaused",
      "outputs": [],
      "stateMutability": "nonpayable",
      "type": "function"
    },
    {
      "inputs": [
        {
          "internalType": "uint256",
          "name": "amount_",
          "type": "uint256"
        }
      ],
      "name": "setRetractionFeePercentage",
      "outputs": [],
      "stateMutability": "nonpayable",
      "type": "function"
    },
    {
      "inputs": [
        {
          "internalType": "uint256",
          "name": "amount_",
          "type": "uint256"
        }
      ],
      "name": "setSlashAmountPercentage",
      "outputs": [],
      "stateMutability": "nonpayable",
      "type": "function"
    },
    {
      "inputs": [
        {
          "internalType": "uint256",
          "name": "amount_",
          "type": "uint256"
        }
      ],
      "name": "setSolutionFeePercentage",
      "outputs": [],
      "stateMutability": "nonpayable",
      "type": "function"
    },
    {
      "inputs": [
        {
          "internalType": "bytes32",
          "name": "model_",
          "type": "bytes32"
        },
        {
          "internalType": "uint256",
          "name": "rate_",
          "type": "uint256"
        }
      ],
      "name": "setSolutionMineableRate",
      "outputs": [],
      "stateMutability": "nonpayable",
      "type": "function"
    },
    {
      "inputs": [
        {
          "internalType": "uint256",
          "name": "amount_",
          "type": "uint256"
        }
      ],
      "name": "setSolutionStakeAmount",
      "outputs": [],
      "stateMutability": "nonpayable",
      "type": "function"
    },
    {
      "inputs": [
        {
          "internalType": "uint64",
          "name": "startBlockTime_",
          "type": "uint64"
        }
      ],
      "name": "setStartBlockTime",
      "outputs": [],
      "stateMutability": "nonpayable",
      "type": "function"
    },
    {
      "inputs": [
        {
          "internalType": "uint256",
          "name": "amount_",
          "type": "uint256"
        }
      ],
      "name": "setTreasuryRewardPercentage",
      "outputs": [],
      "stateMutability": "nonpayable",
      "type": "function"
    },
    {
      "inputs": [
        {
          "internalType": "uint256",
          "name": "amount_",
          "type": "uint256"
        }
      ],
      "name": "setValidatorMinimumPercentage",
      "outputs": [],
      "stateMutability": "nonpayable",
      "type": "function"
    },
    {
      "inputs": [
        {
          "internalType": "uint256",
          "name": "version_",
          "type": "uint256"
        }
      ],
      "name": "setVersion",
      "outputs": [],
      "stateMutability": "nonpayable",
      "type": "function"
    },
    {
      "inputs": [
        {
          "internalType": "bytes32",
          "name": "commitment_",
          "type": "bytes32"
        }
      ],
      "name": "signalCommitment",
      "outputs": [],
      "stateMutability": "nonpayable",
      "type": "function"
    },
    {
      "inputs": [
        {
          "internalType": "bytes32",
          "name": "model_",
          "type": "bytes32"
        },
        {
          "internalType": "bool",
          "name": "support_",
          "type": "bool"
        }
      ],
      "name": "signalSupport",
      "outputs": [],
      "stateMutability": "nonpayable",
      "type": "function"
    },
    {
      "inputs": [],
      "name": "slashAmountPercentage",
      "outputs": [
        {
          "internalType": "uint256",
          "name": "",
          "type": "uint256"
        }
      ],
      "stateMutability": "view",
      "type": "function"
    },
    {
      "inputs": [],
      "name": "solutionFeePercentage",
      "outputs": [
        {
          "internalType": "uint256",
          "name": "",
          "type": "uint256"
        }
      ],
      "stateMutability": "view",
      "type": "function"
    },
    {
      "inputs": [
        {
          "internalType": "bytes32",
          "name": "",
          "type": "bytes32"
        }
      ],
      "name": "solutions",
      "outputs": [
        {
          "internalType": "address",
          "name": "validator",
          "type": "address"
        },
        {
          "internalType": "uint64",
          "name": "blocktime",
          "type": "uint64"
        },
        {
          "internalType": "bool",
          "name": "claimed",
          "type": "bool"
        },
        {
          "internalType": "bytes",
          "name": "cid",
          "type": "bytes"
        }
      ],
      "stateMutability": "view",
      "type": "function"
    },
    {
      "inputs": [
        {
          "internalType": "bytes32",
          "name": "",
          "type": "bytes32"
        }
      ],
      "name": "solutionsStake",
      "outputs": [
        {
          "internalType": "uint256",
          "name": "",
          "type": "uint256"
        }
      ],
      "stateMutability": "view",
      "type": "function"
    },
    {
      "inputs": [],
      "name": "solutionsStakeAmount",
      "outputs": [
        {
          "internalType": "uint256",
          "name": "",
          "type": "uint256"
        }
      ],
      "stateMutability": "view",
      "type": "function"
    },
    {
      "inputs": [],
      "name": "startBlockTime",
      "outputs": [
        {
          "internalType": "uint64",
          "name": "",
          "type": "uint64"
        }
      ],
      "stateMutability": "view",
      "type": "function"
    },
    {
      "inputs": [
        {
          "internalType": "bytes32",
          "name": "taskid_",
          "type": "bytes32"
        }
      ],
      "name": "submitContestation",
      "outputs": [],
      "stateMutability": "nonpayable",
      "type": "function"
    },
    {
      "inputs": [
        {
          "internalType": "bytes32",
          "name": "taskid_",
          "type": "bytes32"
        },
        {
          "internalType": "bytes",
          "name": "cid_",
          "type": "bytes"
        }
      ],
      "name": "submitSolution",
      "outputs": [],
      "stateMutability": "nonpayable",
      "type": "function"
    },
    {
      "inputs": [
        {
          "internalType": "uint8",
          "name": "version_",
          "type": "uint8"
        },
        {
          "internalType": "address",
          "name": "owner_",
          "type": "address"
        },
        {
          "internalType": "bytes32",
          "name": "model_",
          "type": "bytes32"
        },
        {
          "internalType": "uint256",
          "name": "fee_",
          "type": "uint256"
        },
        {
          "internalType": "bytes",
          "name": "input_",
          "type": "bytes"
        }
      ],
      "name": "submitTask",
      "outputs": [
        {
          "internalType": "bytes32",
          "name": "",
          "type": "bytes32"
        }
      ],
      "stateMutability": "nonpayable",
      "type": "function"
    },
    {
      "inputs": [
        {
          "internalType": "uint256",
          "name": "t",
          "type": "uint256"
        }
      ],
      "name": "targetTs",
      "outputs": [
        {
          "internalType": "uint256",
          "name": "",
          "type": "uint256"
        }
      ],
      "stateMutability": "pure",
      "type": "function"
    },
    {
      "inputs": [
        {
          "internalType": "bytes32",
          "name": "",
          "type": "bytes32"
        }
      ],
      "name": "tasks",
      "outputs": [
        {
          "internalType": "bytes32",
          "name": "model",
          "type": "bytes32"
        },
        {
          "internalType": "uint256",
          "name": "fee",
          "type": "uint256"
        },
        {
          "internalType": "address",
          "name": "owner",
          "type": "address"
        },
        {
          "internalType": "uint64",
          "name": "blocktime",
          "type": "uint64"
        },
        {
          "internalType": "uint8",
          "name": "version",
          "type": "uint8"
        },
        {
          "internalType": "bytes",
          "name": "cid",
          "type": "bytes"
        }
      ],
      "stateMutability": "view",
      "type": "function"
    },
    {
      "inputs": [
        {
          "internalType": "address",
          "name": "to_",
          "type": "address"
        }
      ],
      "name": "transferOwnership",
      "outputs": [],
      "stateMutability": "nonpayable",
      "type": "function"
    },
    {
      "inputs": [
        {
          "internalType": "address",
          "name": "to_",
          "type": "address"
        }
      ],
      "name": "transferPauser",
      "outputs": [],
      "stateMutability": "nonpayable",
      "type": "function"
    },
    {
      "inputs": [
        {
          "internalType": "address",
          "name": "to_",
          "type": "address"
        }
      ],
      "name": "transferTreasury",
      "outputs": [],
      "stateMutability": "nonpayable",
      "type": "function"
    },
    {
      "inputs": [],
      "name": "treasury",
      "outputs": [
        {
          "internalType": "address",
          "name": "",
          "type": "address"
        }
      ],
      "stateMutability": "view",
      "type": "function"
    },
    {
      "inputs": [],
      "name": "treasuryRewardPercentage",
      "outputs": [
        {
          "internalType": "uint256",
          "name": "",
          "type": "uint256"
        }
      ],
      "stateMutability": "view",
      "type": "function"
    },
    {
      "inputs": [
        {
          "internalType": "address",
          "name": "addr_",
          "type": "address"
        },
        {
          "internalType": "bytes32",
          "name": "taskid_",
          "type": "bytes32"
        }
      ],
      "name": "validatorCanVote",
      "outputs": [
        {
          "internalType": "uint256",
          "name": "",
          "type": "uint256"
        }
      ],
      "stateMutability": "view",
      "type": "function"
    },
    {
      "inputs": [
        {
          "internalType": "address",
          "name": "validator_",
          "type": "address"
        },
        {
          "internalType": "uint256",
          "name": "amount_",
          "type": "uint256"
        }
      ],
      "name": "validatorDeposit",
      "outputs": [],
      "stateMutability": "nonpayable",
      "type": "function"
    },
    {
      "inputs": [],
      "name": "validatorMinimumPercentage",
      "outputs": [
        {
          "internalType": "uint256",
          "name": "",
          "type": "uint256"
        }
      ],
      "stateMutability": "view",
      "type": "function"
    },
    {
      "inputs": [
        {
          "internalType": "uint256",
          "name": "count_",
          "type": "uint256"
        },
        {
          "internalType": "address",
          "name": "to_",
          "type": "address"
        }
      ],
      "name": "validatorWithdraw",
      "outputs": [],
      "stateMutability": "nonpayable",
      "type": "function"
    },
    {
      "inputs": [
        {
          "internalType": "address",
          "name": "",
          "type": "address"
        }
      ],
      "name": "validatorWithdrawPendingAmount",
      "outputs": [
        {
          "internalType": "uint256",
          "name": "",
          "type": "uint256"
        }
      ],
      "stateMutability": "view",
      "type": "function"
    },
    {
      "inputs": [
        {
          "internalType": "address",
          "name": "",
          "type": "address"
        }
      ],
      "name": "validators",
      "outputs": [
        {
          "internalType": "uint256",
          "name": "staked",
          "type": "uint256"
        },
        {
          "internalType": "uint256",
          "name": "since",
          "type": "uint256"
        },
        {
          "internalType": "address",
          "name": "addr",
          "type": "address"
        }
      ],
      "stateMutability": "view",
      "type": "function"
    },
    {
      "inputs": [],
      "name": "version",
      "outputs": [
        {
          "internalType": "uint256",
          "name": "",
          "type": "uint256"
        }
      ],
      "stateMutability": "view",
      "type": "function"
    },
    {
      "inputs": [
        {
          "internalType": "bytes32",
          "name": "taskid_",
          "type": "bytes32"
        },
        {
          "internalType": "bool",
          "name": "yea_",
          "type": "bool"
        }
      ],
      "name": "voteOnContestation",
      "outputs": [],
      "stateMutability": "nonpayable",
      "type": "function"
    },
    {
      "inputs": [],
      "name": "withdrawAccruedFees",
      "outputs": [],
      "stateMutability": "nonpayable",
      "type": "function"
    }
  ],
  "bytecode": "0x60808060405234620000c6576000549060ff8260081c1662000074575060ff8082160362000038575b6040516156519081620000cc8239f35b60ff90811916176000557f7f26b83ff96e1f2b6a682f133852f6798a09c465da95921460cefb3847402498602060405160ff8152a13862000028565b62461bcd60e51b815260206004820152602760248201527f496e697469616c697a61626c653a20636f6e747261637420697320696e697469604482015266616c697a696e6760c81b6064820152608490fd5b600080fdfe6080604052600436101561001257600080fd5b60003560e01c80623f9dd6146135a4578062fd70821461358657806308745dd1146132425780630a985737146130fc5780630c18d4ce146130d35780631466b63a1461301557806316c38b3c14612f7557806317f3e04114612f495780631825c20e14612e165780631b2cf4b814612dcf5780631b75c43e14612d955780631f88ea1c14612d7c578063218a304814612ce8578063218e685914612cae5780632258d10514612c9357806328c2d36c14612c4c5780632f9b03e414612c05578063303fb0d614612bd457806336f83c4f14612b8d578063393cb1c714612b455780633d18b91214612b2a5780633d57f5d914612b0f578063408def1e14612ac357806340e8c56d14612a735780634421ea2114612a0c578063485cc9551461283057806349094d4d146127985780634ff03efa14612512578063506ea7de1461246157806354fd4d501461244357806356914caf146120005780635b851daa14611fb95780635c975abb14611f93578063605cecf614611f4c57806361d027b314611f23578063671f815214611bc0578063682c205814611ba2578063715018a614611b5757806372dc0ee114611b3957806375c7050914611ac7578063763253bb146118e45780637683dbfb1461189d57806377286d17146115a95780637881c5e61461158e5780637b36006a146115705780638365779514611549578063839df9451461151d5780638b4d7b3514610e745780638da5cb5b14610e4b5780638e6d86fd14610e2d5780639280944414610e0f57806393a090ec14610c6c57806393f1f8ac14610bf057806396bb02c314610bd25780639b97511914610bb45780639fd0506d14610b8b578063a4fa8d5714610b72578063a53e252514610b54578063a8f837f314610aed578063aa59e7e714610aa6578063ada82c7d146109f6578063b4dc35b7146109ca578063b66badbf14610983578063c17ddb2a14610965578063c31784be14610947578063c318797814610900578063c55dae63146108d7578063cbd2422d1461080d578063cf596e45146107e7578063d1f0c9411461079d578063d2307ae414610763578063d278094014610716578063d2992baa146106c5578063d33b2ef51461066c578063d8a6021c14610605578063dbb3c97d146105be578063dc06a89f146105a0578063e236f46b14610537578063e579f500146104ad578063f1b8989d1461048f578063f2fde38b146103f85763fa52c7d8146103a057600080fd5b346103f35760203660031901126103f35760606001600160a01b03806103c4613838565b166000526077602052604060002080549160026001830154920154169060405192835260208301526040820152f35b600080fd5b346103f35760203660031901126103f357610411613838565b610419613aee565b610421613aee565b6001600160a01b0381161561043b5761043990613b46565b005b60405162461bcd60e51b815260206004820152602660248201527f4f776e61626c653a206e6577206f776e657220697320746865207a65726f206160448201526564647265737360d01b6064820152608490fd5b346103f35760003660031901126103f3576020606e54604051908152f35b346103f35760203660031901126103f357600435600052607b6020526040600020805461053360018301549260ff6104ec600360028401549301613a48565b916040519586958652602086015260018060a01b038116604086015260018060401b038160a01c16606086015260e01c16608084015260c060a084015260c08301906139e9565b0390f35b346103f35760203660031901126103f35760043560005260766020526040600020805461053360018060a01b036001840154169261057c600360028301549201613a48565b906040519485948552602085015260408401526080606084015260808301906139e9565b346103f35760003660031901126103f3576020606d54604051908152f35b346103f35760203660031901126103f3576004356105da613aee565b806084557fa7597266328022d189bdbb20244e37e01bd5972bf8fa6a76c9b76cb666b23fbc600080a2005b346103f35760203660031901126103f35761061e613838565b610626613aee565b606680546001600160a01b0319166001600160a01b039290921691821790557f6bdb9ceff405d990c9b60be9f719fbb80889d5f064e8fd76efd5bea353e90712600080a2005b346103f35760203660031901126103f357600435600052607e60205260806040600020600181549101546040519160018060a01b038116835260018060401b038160a01c16602084015260e01c60408301526060820152f35b346103f35760403660031901126103f3576001600160a01b036106e6613838565b16600052607960205260406000206024356000526020526040806000206001815491015482519182526020820152f35b346103f35760403660031901126103f35761072f613822565b600435600052607f60205260406000209060018060a01b0316600052602052602060ff604060002054166040519015158152f35b346103f35760203660031901126103f3576001600160a01b03610784613838565b1660005260786020526020604060002054604051908152f35b346103f3576107ab36613982565b906000526081602052604060002080548210156103f3576020916107ce91613998565b905460405160039290921b1c6001600160a01b03168152f35b346103f35760203660031901126103f3576020610805600435613d8b565b604051908152f35b346103f3576020806003193601126103f3576004359061083560ff60675460a01c1615614cc8565b3360005260798152604060002082600052815260406000206108746040519161085d836138aa565b836001825492838652015493019283521515614d76565b5133600052607a825261088d6040600020918254613c20565b90553360005260798152604060002090826000525260006001604082208281550155337ff9d5cfcdfe9803069225971ba315f4302add9b477c3441cc363bc38fdb065b90600080a3005b346103f35760003660031901126103f3576065546040516001600160a01b039091168152602090f35b346103f35760203660031901126103f35760043561091c613aee565b806075557f7bf73d8c24113d60e7de7e92ae237284cf5a6f8dfe31e8eee1c6d9c8890e13c9600080a2005b346103f35760003660031901126103f3576020607054604051908152f35b346103f35760003660031901126103f3576020606954604051908152f35b346103f35760203660031901126103f35760043561099f613aee565b806073557f3a559dce5761b4b2e6099b6dc8d51f7eb190932dc5797d8090daf1a42cd58e7d600080a2005b346103f35760203660031901126103f35760043560005260836020526020604060002054604051908152f35b346103f35760003660031901126103f357610a1960ff60675460a01c1615614cc8565b60655460665460685460405163a9059cbb60e01b81529260209284926001600160a01b039283169284926000928492610a56921660048401614d15565b03925af18015610a9a57610a6c575b6000606855005b610a8c9060203d8111610a93575b610a8481836138e0565b810190614cfd565b5080610a65565b503d610a7a565b6040513d6000823e3d90fd5b346103f35760203660031901126103f357600435610ac2613aee565b806074557fdb340415b83e58bab317964518d523baabcc1571de3b5d8fe6ebd52c704d31a9600080a2005b346103f35760203660031901126103f3576004356001600160401b038116908190036103f357610b1b613aee565b606a80546001600160401b031916821790557fa15d6b0930a82638ac4775bfd1b2e9f1e86be67e1bd3a09fa8a77a8f079769d7600080a2005b346103f35760003660031901126103f3576020607554604051908152f35b346103f3576020610805610b8536613982565b90614b60565b346103f35760003660031901126103f3576067546040516001600160a01b039091168152602090f35b346103f35760003660031901126103f3576020608454604051908152f35b346103f35760003660031901126103f3576020606c54604051908152f35b346103f35760207f0321e8a918b4c47bf3677852c070983825f30a47bc8d9416691454fa6a727d63610c2136613982565b610c2c939193613aee565b6000848152607683526040902060010154610c51906001600160a01b03161515613bdd565b836000526076825280600260406000200155604051908152a2005b346103f35760403660031901126103f357610c85613838565b602435610c9a60ff60675460a01c1615614cc8565b6065546040516323b872dd60e01b81526001600160a01b03916020919082908290851681600081610cd08a303360048501614d47565b03925af18015610a9a57610df2575b5081610ce9613caa565b94169384600052607782526040600020548482821115610dc3575b50505083600052607781526040600020610d248460018301549254614d69565b60405190939060608101906001600160401b03821181831017610dad577f8d4844488c19a90828439e71d14ebad860806d04f8ef8b25a82179fab2699b89956002926040528152848101938452604081019388855288600052607786526040600020915182555160018201550191511660018060a01b03198254161790556040519283523392a3005b634e487b7160e01b600052604160045260246000fd5b610dcc91614d69565b1015610ddb575b848084610d04565b836000526077815242600160406000200155610dd3565b610e0890823d8411610a9357610a8481836138e0565b5084610cdf565b346103f35760003660031901126103f3576020607154604051908152f35b346103f35760003660031901126103f3576020607454604051908152f35b346103f35760003660031901126103f3576033546040516001600160a01b039091168152602090f35b346103f35760403660031901126103f3576024803563ffffffff81168091036103f357610ea960ff60675460a01c1615614cc8565b6004356000908152607e60205260409020546001600160a01b0316156114dc576004356000908152607e6020526040902054607354610ef39160a01c6001600160401b0316614d69565b421061149e57801561146957600435600052608160205263ffffffff6040600020541691608260205263ffffffff60406000205416607e60205260406000205460e01c9363ffffffff8486011161145457600435600052607e602052600160406000200154918082116000146112925782610f6d91613c2d565b9160018214801561127d578384915b1561125657505060005b865b63ffffffff878901168110611116575050505050600435600052607e60205260406000205460e01c1561100b575b505b600435600052607e602052610fd381830160406000206151e8565b63ffffffff6040519183011681527f71d8c71303e35a39162e33a402c9897bf9848388537bac7d5e1b0d202eca4e66602060043592a3005b611055602060018060a01b0360655416607b82526040600020906001808060a01b0360028401541692015491600060405180968195829463a9059cbb60e01b845260048401614d15565b03925af18015610a9a576110f7575b5060043560005260836020526040600020549060816020526040600020908154156110e3575060005260018060a01b036020600020541660005260776020526110b36040600020918254614d69565b9055600435600052607d60205260018060a01b036040600020541660005260856020524260406000205582610fb6565b634e487b7160e01b60009081526032600452fd5b61110f9060203d602011610a9357610a8481836138e0565b5083611064565b808486921061112f575b61112a9150615332565b610f88565b6004356000526081602052611148816040600020613998565b60018060a01b0391549060031b1c168060005260776020526040600020611170868254614d69565b905583826111eb575060655460405163a9059cbb60e01b81529360209285926001600160a01b031691839160009183916111ae919060048401614d15565b03925af1918215610a9a5761112a926111cc575b505b859150611120565b6111e49060203d602011610a9357610a8481836138e0565b50896111c2565b61121d935060209160018060a01b036065541690600060405180978195829463a9059cbb60e01b845260048401614d15565b03925af1918215610a9a5761112a92611237575b506111c4565b61124f9060203d602011610a9357610a8481836138e0565b5089611231565b6112789161126391613c20565b63ffffffff6112718561531c565b1690613c40565b610f86565b61128a8460011c85613c20565b938491610f7c565b9180935061129f91613c2d565b91600182148015611448578384915b1561143657505060005b855b63ffffffff8688011681106112f6575050505050600435600052607e60205260406000205460e01c610fb8576112f1600435614eaa565b610fb8565b808486921061130f575b61130a9150615332565b6112ba565b6004356000526082602052611328816040600020613998565b60018060a01b0391549060031b1c168060005260776020526040600020611350868254614d69565b905583826113cb575060655460405163a9059cbb60e01b81529360209285926001600160a01b0316918391600091839161138e919060048401614d15565b03925af1918215610a9a5761130a926113ac575b505b859150611300565b6113c49060203d602011610a9357610a8481836138e0565b50886113a2565b6113fd935060209160018060a01b036065541690600060405180978195829463a9059cbb60e01b845260048401614d15565b03925af1918215610a9a5761130a92611417575b506113a4565b61142f9060203d602011610a9357610a8481836138e0565b5088611411565b6114439161126391613c20565b6112b8565b8360011c9384916112ae565b82634e487b7160e01b60005260116004526000fd5b60405162461bcd60e51b815260206004820152600e818401526d185b5b9d081d1bdbc81cdb585b1b60921b6044820152606490fd5b60405162461bcd60e51b815260206004820152601781840152761d9bdd1a5b99c81c195c9a5bd9081b9bdd08195b991959604a1b6044820152606490fd5b60405162461bcd60e51b815260206004820152601a818401527918dbdb9d195cdd185d1a5bdb88191bd95cdb89dd08195e1a5cdd60321b6044820152606490fd5b346103f35760203660031901126103f357600435600052607c6020526020604060002054604051908152f35b346103f35760403660031901126103f3576020610805611567613838565b6024359061520b565b346103f35760003660031901126103f3576020607354604051908152f35b346103f35760003660031901126103f3576020610805614bbe565b346103f3576020806003193601126103f3576004356115d060ff60675460a01c1615614cc8565b6000818152607d8084526040808320546001600160a01b03908116845260778652818420548585528387528285205482168552607a8752919093205461161591613c20565b61161d613caa565b11611859578260005280845281604060002054161561181f5782600052607e845281604060002054166117e75760008381528185526040902054607154906001600160401b039060a01c81166116738342613c20565b11156117af57846000528286526116ab6116a26040600020549386851660005260858952604060002054614d69565b60735490614d69565b9160a01c161115611753578260005280845260ff60406000205460e01c1661171c579082916104399483600052526040600020805490600160e01b60ff60e01b198316179055167f0b76b4ae356796814d36b46f7c500bbd27b2cce1e6059a6fa2bebfd5a389b190600080a3614eaa565b60405162461bcd60e51b815260048101859052600f60248201526e185b1c9958591e4818db185a5b5959608a1b6044820152606490fd5b60405162461bcd60e51b815260048101859052602e60248201527f636c61696d536f6c7574696f6e20636f6f6c646f776e206166746572206c6f7360448201526d3a1031b7b73a32b9ba30ba34b7b760911b6064820152608490fd5b60405162461bcd60e51b815260048101879052601060248201526f6e6f7420656e6f7567682064656c617960801b6044820152606490fd5b60405162461bcd60e51b815260048101859052601060248201526f3430b99031b7b73a32b9ba30ba34b7b760811b6044820152606490fd5b60405162461bcd60e51b81526004810185905260126024820152711cdbdb1d5d1a5bdb881b9bdd08199bdd5b9960721b6044820152606490fd5b60405162461bcd60e51b815260048101859052601c60248201527b76616c696461746f72206d696e207374616b656420746f6f206c6f7760201b6044820152606490fd5b346103f35760203660031901126103f3576004356118b9613aee565b806072557f2cf38ed7da57dd510fa6ecbfb991949cdde5c808acbe85cfa940b642def628ed600080a2005b346103f35760403660031901126103f357600435611900613822565b61191260ff60675460a01c1615614cc8565b336000526020906079825260406000208360005282526040600020604051611939816138aa565b61195460018354938484520154928583019384521515614d76565b514210611a94573360005260778352604060002054815111611a5a5760009060018060a01b0390846119a38360655416835160405196878094819363a9059cbb60e01b83528b60048401614d15565b03925af1928315610a9a577f109aeff667601aad33abcb7c5df1617754eefd18253d586a95c198cb479b5bd493611a3d575b50805133600052607786526119f06040600020918254613c20565b9055805133600052607a8652611a0c6040600020918254613c20565b90553360005260798552604060002086600052855260006001604082208281550155519260405193845216923392a4005b611a5390863d8811610a9357610a8481836138e0565b50866119d5565b60405162461bcd60e51b81526004810184905260126024820152711cdd185ad9481a5b9cdd59999a58da595b9d60721b6044820152606490fd5b60405162461bcd60e51b815260048101849052600b60248201526a3bb0b4ba103637b733b2b960a91b6044820152606490fd5b346103f35760203660031901126103f357600435600052607d60205260ff6040600020610533611afb600183549301613a48565b60405193849360018060a01b038116855260018060401b038160a01c16602086015260e01c16151560408401526080606084015260808301906139e9565b346103f35760003660031901126103f3576020606f54604051908152f35b346103f35760003660031901126103f357611b70613aee565b603380546001600160a01b031981169091556000906001600160a01b03166000805160206155dc8339815191528280a3005b346103f35760003660031901126103f3576020606854604051908152f35b346103f3576020806003193601126103f35760043590611be860ff60675460a01c1615614cc8565b3360005260778152611c1b611c0c604060002054607a845260406000205490613c20565b611c14613caa565b1115614e69565b6000828152607d825260409020546001600160a01b039190821615611ee55782600052607e81528160406000205416611ea3576000838152607d825260409020546071546001600160401b039291611c78919060a01c8416614d69565b421015611e745783600052607d815260ff60406000205460e01c16611e4a57611c9f613c60565b9160405190611cad826138c5565b338252611d0463ffffffff848401928042168452611cfc60408601916000835260608701958987528b600052607e89528a604060002098511660018060a01b0319895416178855511686614db6565b5116836151e8565b5160018092015584337f6958c989e915d3e41a35076e3c480363910055408055ad86ae1ee13d41c40640600080a3607f8252604060002033600052825260406000209360ff199482868254161790558560005260818352611d693360406000206152e1565b85600052607e835281604060002001543360005260778452611d916040600020918254613c20565b905560405193828552866000805160206155fc8339815191529586863392a386600052607d84528160406000205416600052607784526040600020541015611dd557005b85600052607d83526040600020541693607f83526040600020856000528352816040600020918254161790558460005260828252611e178460406000206152e1565b84600052607e8252604060002001548360005260778252611e3e6040600020918254613c20565b905560405160008152a3005b6064906040519062461bcd60e51b8252600482015260036024820152623bba3360e91b6044820152fd5b6064906040519062461bcd60e51b825260048201526008602482015267746f6f206c61746560c01b6044820152fd5b6064906040519062461bcd60e51b82526004820152601b60248201527a636f6e746573746174696f6e20616c72656164792065786973747360281b6044820152fd5b6064906040519062461bcd60e51b8252600482015260176024820152761cdbdb1d5d1a5bdb88191bd95cc81b9bdd08195e1a5cdd604a1b6044820152fd5b346103f35760003660031901126103f3576066546040516001600160a01b039091168152602090f35b346103f35760203660031901126103f357600435611f68613aee565b806070557f4cedc026426414a08f6f21ca64d85564bf602162bb3463dd2d3e17b58c1da589600080a2005b346103f35760003660031901126103f357602060ff60675460a01c166040519015158152f35b346103f35760203660031901126103f357600435611fd5613aee565b80606f557f248f32867b202a570ffbb94e864b6075503b4961c00317f152604ee3b8de4dda600080a2005b346103f35760403660031901126103f3576004356001600160401b03602480358281116103f357612035903690600401613862565b929061204960ff60675460a01c1615614cc8565b3360005260209360778552612070611c0c604060002054607a885260406000205490613c20565b85600052607b855260406000205415612409576000868152607d865260409020546001600160a01b03939084166123c8576120ad82848933614c77565b80600052607c87526040600020541561238a57600052607c86526040600020546120d5614ddf565b111561234957604051916120e8836138c5565b33835261213c8261210b898601968242168852604087019460008652369161391e565b6060860190815260008b8152607d8b5260409020955186546001600160a01b03191690891617865595511684614db6565b51825460ff60e01b191690151560e01b60ff60e01b16178255915180516001928301939091908211612334576121728454613a0e565b601f81116122f9575b508690601f83116001146122965792829391839260009461228b575b50501b916000199060031b1c19161790555b83600052607d835260406000205416600052608582526121d46116a260406000205460715490614d69565b421115612230575060776084549183600052608381528260406000205533600052526122066040600020918254613c20565b9055337f957c18b5af8413899ea8a576a4d3fb16839a02c9fccfdce098b6d59ef248525b600080a3005b90602f6084926040519262461bcd60e51b845260048401528201527f7375626d6974536f6c7574696f6e20636f6f6c646f776e206166746572206c6f60448201526e39ba1031b7b73a32b9ba30ba34b7b760891b6064820152fd5b015192508980612197565b90601f198316918560005283896000209360005b8b888383106122e257505050106122c9575b505050811b0190556121a9565b015160001960f88460031b161c191690558780806122bc565b8686015188559096019594850194879350016122aa565b612324908560005288600020601f850160051c8101918a861061232a575b601f0160051c0190614d30565b8861217b565b9091508190612317565b85634e487b7160e01b60005260416004526000fd5b60405162461bcd60e51b815260048101879052601a818701527918dbdb5b5a5d1b595b9d081b5d5cdd081899481a5b881c185cdd60321b6044820152606490fd5b60405162461bcd60e51b815260048101889052601781880152761b9bdb88195e1a5cdd195b9d0818dbdb5b5a5d1b595b9d604a1b6044820152606490fd5b60405162461bcd60e51b815260048101879052601a81870152791cdbdb1d5d1a5bdb88185b1c9958591e481cdd589b5a5d1d195960321b6044820152606490fd5b60405162461bcd60e51b815260048101869052601381860152721d185cdac8191bd95cc81b9bdd08195e1a5cdd606a1b6044820152606490fd5b346103f35760003660031901126103f3576020606b54604051908152f35b346103f35760203660031901126103f35760043561248760ff60675460a01c1615614cc8565b80600052607c6020526040600020546124d9576124a2614ddf565b81600052607c602052604060002055337f09b4c028a2e50fec6f1c6a0163c59e8fbe92b231e5c03ef3adec585e63a14b92600080a3005b60405162461bcd60e51b8152602060048201526011602482015270636f6d6d69746d656e742065786973747360781b6044820152606490fd5b346103f35760603660031901126103f35761252b613838565b6001600160401b03906044358281116103f35761254c903690600401613862565b919061256060ff60675460a01c1615614cc8565b6001600160a01b039182169283156127585761257b91615341565b9060405193612589856138c5565b60243585526020948581019485526040810160008152606082019485526125b03383613ce7565b9586600052607688526001948086604060002001541661271857600088815260768a526040902093518455905185840180546001600160a01b031916919092161790555160028201559251805160039490940193918211610dad576126158454613a0e565b601f81116126e8575b508590601f83116001146126855792829391839260009461267a575b50501b916000199060031b1c19161790555b60405190807fa4b0af38d049ba81703a0d0e46cc2ff39681210302134046237111a8fb7dee72600080a28152f35b01519250878061263a565b90601f198316918560005283886000209360005b8a888383106126d157505050106126b8575b505050811b01905561264c565b015160001960f88460031b161c191690558580806126ab565b868601518855909601959485019487935001612699565b612712908560005287600020601f850160051c81019189861061232a57601f0160051c0190614d30565b8661261e565b60405162461bcd60e51b8152600481018a905260186024820152771b5bd9195b08185b1c9958591e481c9959da5cdd195c995960421b6044820152606490fd5b60405162461bcd60e51b815260206004820152601860248201527761646472657373206d757374206265206e6f6e2d7a65726f60401b6044820152606490fd5b346103f35760403660031901126103f3576004356127b4613973565b3360005260776020526127da611c0c604060002054607a60205260406000205490613c20565b600082815260766020526040902060010154612800906001600160a01b03161515613bdd565b60405190151581527fd17ce9337eb398b61971ca3d8c9933fc401b9669a0607afe3452612583d7c5b860203392a3005b346103f35760403660031901126103f3576001600160a01b03600435818116908190036103f35761285f613822565b916000549260ff8460081c1615938480956129ff575b80156129e8575b1561298c5760ff1981166001176000558461297a575b506128ad60ff60005460081c166128a881613b7d565b613b7d565b6128b633613b46565b60018060a01b031992836065541617606555168160665416176066553390606754161760675560018060401b03421660018060401b0319606a541617606a556602d79883d20000606c55655af3107a4000606d5567016345785d8a000080606e5580606f556070556107d0607155612710607255610fa060735560786074556201518060755561294257005b61ff0019600054166000557f7f26b83ff96e1f2b6a682f133852f6798a09c465da95921460cefb3847402498602060405160018152a1005b61ffff19166101011760005584612892565b60405162461bcd60e51b815260206004820152602e60248201527f496e697469616c697a61626c653a20636f6e747261637420697320616c72656160448201526d191e481a5b9a5d1a585b1a5e995960921b6064820152608490fd5b50303b15801561287c5750600160ff82161461287c565b50600160ff821610612875565b346103f35760203660031901126103f357612a25613838565b612a2d613aee565b606780546001600160a01b0319166001600160a01b039290921691821790557f5a85b4270fc1e75035e6cd505418ce65e0bcc36cc7eb9ce9e6f8c6181d4cb577600080a2005b346103f35760203660031901126103f3576004356001600160401b0381116103f357612aaf612aa9610533923690600401613862565b90615341565b6040519182916020835260208301906139e9565b346103f35760203660031901126103f3577f8c854a81cb5c93e7e482d30fb9c6f88fdbdb320f10f7a853c2263659b54e563f6020600435612b02613aee565b80606b55604051908152a1005b346103f35760003660031901126103f3576020610805613c60565b346103f35760003660031901126103f3576020610805614c55565b346103f35760603660031901126103f357612b5e613838565b6044356001600160401b0381116103f357602091612b83610805923690600401613862565b9160243590614c77565b346103f35760203660031901126103f357600435612ba9613aee565b80606d557f4d3fce9ddc8266ead559213cbaaa8ebcfa0c837a2c9a1e814bae160b615d30dd600080a2005b346103f357612be236613982565b906000526082602052604060002080548210156103f3576020916107ce91613998565b346103f35760203660031901126103f357600435612c21613aee565b806071557fed28aed8b87631da9bc750c8885c00f9beda7f694a23bb732d987aa80214a63f600080a2005b346103f35760203660031901126103f357600435612c68613aee565b80606c557fb2ba28b5b5aed3444b23a8597a249678dd98e0062432ef1b0f9a6caa39ceb0ad600080a2005b346103f35760003660031901126103f3576020610805613caa565b346103f35760203660031901126103f3576001600160a01b03612ccf613838565b1660005260856020526020604060002054604051908152f35b346103f3576003196040368201126103f3576001600160401b0390600435908282116103f35760809082360301126103f357604051612d26816138c5565b81600401358152612d396024830161384e565b60208201526044820135604082015260648201359283116103f357612d6961080592600460209536920101613955565b6060820152612d76613822565b90613ce7565b346103f3576020610805612d8f36613982565b90614780565b346103f35760203660031901126103f3576001600160a01b03612db6613838565b16600052607a6020526020604060002054604051908152f35b346103f35760203660031901126103f357600435612deb613aee565b80606e557fa9dfc7ca3151b504bdbe971426324a888f97e7e7a52929484c01dff8168058ab600080a2005b346103f35760403660031901126103f357600435612e32613973565b612e4460ff60675460a01c1615614cc8565b33600052602060778152612e6a611c0c604060002054607a845260406000205490613c20565b612e74833361520b565b612f17576000838152607f8252604080822033835283529020805460ff191660011790556000805160206155fc833981519152908215612efc578360005260818152612ec43360406000206152e1565b83600052607e81526001604060002001543360005260778252612eed6040600020918254613c20565b905560405192151583523392a3005b8360005260828152612f123360406000206152e1565b612ec4565b6064906040519062461bcd60e51b82526004820152600b60248201526a1b9bdd08185b1b1bddd95960aa1b6044820152fd5b346103f35760203660031901126103f35760043560005260806020526020604060002054604051908152f35b346103f35760203660031901126103f3576004358015158091036103f3576067546001600160a01b0381163303612fe35760ff60a01b191660a082901b60ff60a01b16176067557fd83d5281277e107f080e362699d46082adb74e7dc6a9bccbc87d8ae9533add44600080a2005b60405162461bcd60e51b815260206004820152600a6024820152693737ba103830bab9b2b960b11b6044820152606490fd5b346103f3576003196060368201126103f3576001600160401b0390600435908282116103f35760c09082360301126103f3576040516130538161388f565b81600401358152602482013560208201526130706044830161384e565b6040820152606482013583811681036103f3576060820152608482013560ff811681036103f357608082015260a48201359283116103f3576130bd61080592600460209536920101613955565b60a08201526130ca613822565b60443591613d40565b346103f35760003660031901126103f357606a546040516001600160401b039091168152602090f35b346103f3576020806003193601126103f35760043561312360ff60675460a01c1615614cc8565b336000526077825280613145604060002054607a855260406000205490613c20565b106132235761315660755442614d69565b90336000526078835260406000208054906001820180921161320d57553360005260788352604060002054918291604051613190816138aa565b8281526001868201838152336000526079885260406000208660005288526040600020925183555191015533600052607a855260406000206131d3828254614d69565b9055604051918252848201527fcc7e0e76b20394ef965d71c4111d21e1b322bb8775dc2c7acd29eb0d3c3dd96d60403392a3604051908152f35b634e487b7160e01b600052601160045260246000fd5b60405162461bcd60e51b81526004810183905260006024820152604490fd5b346103f35760a03660031901126103f35760043560ff81168091036103f357613269613822565b906084356001600160401b0381116103f357613289903690600401613862565b61329b60ff60675460a01c1615614cc8565b6044356000908152607660205260409020600101546132c4906001600160a01b03161515613bdd565b604435600052607660205260406000205460643510613546576132e691615341565b90604051926132f48461388f565b604435845260643560208501526001600160a01b03166040840152426001600160401b03166060840152608083015260a0820152606954613336903383613d40565b60405160643581523390827fc3d3e0544c80e3bb83f62659259ae1574f72a91515ab3cae3dd75cf77e1b0aea602060443593a46065546040516323b872dd60e01b81529060209082906001600160a01b03168160008161339d606435303360048501614d47565b03925af18015610a9a57613527575b5080600052607b60205260a060036040600020845181556020850151600182015560028101600180851b03604087015116600180861b031982541617815561340060018060401b0360608801511682614db6565b6080860151815460ff60e01b191660e09190911b60ff60e01b161790559190930151805193909291016001600160401b038411610dad576020936134448254613a0e565b601f81116134f7575b508493601f8211600114613494579381929394600092613489575b50508160011b916000199060031b1c19161790555b80606955604051908152f35b015190508580613468565b601f1982169483600052866000209160005b8781106134e05750836001959697106134c7575b505050811b01905561347d565b015160001960f88460031b161c191690558580806134ba565b9192886001819286850151815501940192016134a6565b613521908360005286600020601f840160051c81019188851061232a57601f0160051c0190614d30565b8561344d565b61353f9060203d602011610a9357610a8481836138e0565b50826133ac565b60405162461bcd60e51b81526020600482015260186024820152776c6f77657220666565207468616e206d6f64656c2066656560401b6044820152606490fd5b346103f35760003660031901126103f3576020607254604051908152f35b346103f3576020806003193601126103f357600435906135cc60ff60675460a01c1615614cc8565b6000828152607b825260409020600201546001600160a01b0390811633036137f15782600052607d825280604060002054166137bd576000838152607b835260409020600201546136299060a01c6001600160401b031642613c20565b607254101561377d5782600052607b825260016040600020015490606f5491670de0b6b3a764000092830383811161320d5760009361366c6136a8928794613c2d565b04868552607b8352613685816001604088200154613c20565b93606554169060405195868094819363a9059cbb60e01b83523360048401614d15565b03925af1918215610a9a576136c592613760575b50606854614d69565b60685581600052607b815260036040600020600081556000600182015560006002820155016136f48154613a0e565b80613722575b837f446efbf8d207f3e2ede58a6bbde7028a4e308488b6293e6461fbb7c288326e76600080a2005b600092601f821160011461373c575050555b8180806136fa565b828452832091839161375990601f0160051c840160018501614d30565b5555613734565b61377690843d8611610a9357610a8481836138e0565b50846136bc565b60405162461bcd60e51b81526004810183905260186024820152770c8d2c840dcdee840eec2d2e840d8dedcce40cadcdeeaced60431b6044820152606490fd5b60405162461bcd60e51b815260048101839052600c60248201526b3430b99039b7b63aba34b7b760a11b6044820152606490fd5b60405162461bcd60e51b81526004810183905260096024820152683737ba1037bbb732b960b91b6044820152606490fd5b602435906001600160a01b03821682036103f357565b600435906001600160a01b03821682036103f357565b35906001600160a01b03821682036103f357565b9181601f840112156103f3578235916001600160401b0383116103f357602083818601950101116103f357565b60c081019081106001600160401b03821117610dad57604052565b604081019081106001600160401b03821117610dad57604052565b608081019081106001600160401b03821117610dad57604052565b601f909101601f19168101906001600160401b03821190821017610dad57604052565b6001600160401b038111610dad57601f01601f191660200190565b92919261392a82613903565b9161393860405193846138e0565b8294818452818301116103f3578281602093846000960137010152565b9080601f830112156103f3578160206139709335910161391e565b90565b6024359081151582036103f357565b60409060031901126103f3576004359060243590565b80548210156139b05760005260206000200190600090565b634e487b7160e01b600052603260045260246000fd5b60005b8381106139d95750506000910152565b81810151838201526020016139c9565b90602091613a02815180928185528580860191016139c6565b601f01601f1916010190565b90600182811c92168015613a3e575b6020831014613a2857565b634e487b7160e01b600052602260045260246000fd5b91607f1691613a1d565b9060405191826000825492613a5c84613a0e565b908184526001948581169081600014613acb5750600114613a88575b5050613a86925003836138e0565b565b9093915060005260209081600020936000915b818310613ab3575050613a8693508201013880613a78565b85548884018501529485019487945091830191613a9b565b915050613a8694506020925060ff191682840152151560051b8201013880613a78565b6033546001600160a01b03163303613b0257565b606460405162461bcd60e51b815260206004820152602060248201527f4f776e61626c653a2063616c6c6572206973206e6f7420746865206f776e65726044820152fd5b603380546001600160a01b039283166001600160a01b0319821681179092559091166000805160206155dc833981519152600080a3565b15613b8457565b60405162461bcd60e51b815260206004820152602b60248201527f496e697469616c697a61626c653a20636f6e7472616374206973206e6f74206960448201526a6e697469616c697a696e6760a81b6064820152608490fd5b15613be457565b60405162461bcd60e51b81526020600482015260146024820152731b5bd9195b08191bd95cc81b9bdd08195e1a5cdd60621b6044820152606490fd5b9190820391821161320d57565b8181029291811591840414171561320d57565b8115613c4a570490565b634e487b7160e01b600052601260045260246000fd5b613c68614bbe565b686c6b935b8bbd4000008110613ca457606d5490670de0b6b3a76400009182039180831161320d57613c9d6139709383613c2d565b0490613c20565b50600090565b613cb2614bbe565b683635c9adc5dea000008110613ca457606c5490670de0b6b3a76400009182039180831161320d57613c9d6139709383613c2d565b613d3a60018060a01b03613d2c8160208501511693606081519101519060405195869460208601981688526040850152606084015260808084015260a08301906139e9565b03601f1981018352826138e0565b51902090565b9091613d3a90613d2c83519360a0602082015191015190604051958694602086019860018060a01b0316895260408601526060850152608084015260a08084015260c08301906139e9565b63bbf81e008111613e1557613d9f90613e24565b680a688906bd8affffff8111613dfd57613dc6670de0b6b3a7640000809260401b04613f6f565b908115613c4a57697f0e10af47c1c7000000917105f95e44a0e2947c3011ad48e1abf7023b57603c1b0404810390811161320d5790565b6024906040519063b3b6ba1f60e01b82526004820152fd5b50697f0e10af47c1c700000090565b670de0b6b3a7640000919060001983820983820291828083109203918083039214613eb2576301e133809081831015613e8f57947f98f5be4dd1e14769fbd6666224dc1eb80dd2e0a3d2c8b328f57e76b7ae10395794950990828211900360f91b910360071c170290565b6064918660405192630c740aef60e31b8452600484015260248301526044820152fd5b50506301e1338090049150565b670de0b6b3a7640000916000198383099280830292838086109503948086039514613f625782851015613f3f57908291096001821901821680920460028082600302188083028203028083028203028083028203028083028203028083028203028092029003029360018380600003040190848311900302920304170290565b8260649260405192630c740aef60e31b8452600484015260248301526044820152fd5b5050906139709250613c40565b600160bf1b60ff60381b8216614677575b670de0b6b3a76400009060ff60301b831661457f575b60ff60281b8316614487575b60ff60201b831661438f575b63ff0000008316614297575b62ff000083166141a8575b61ff0083166140c9575b60ff8316613fe4575b029060401c60bf031c90565b608083166140b8575b60408084166140a5575b60208416614092575b6010841661407f575b6008841661406c575b60048416614059575b60028416614046575b60018416614033575b50613fd8565b6001600160401b01909102901c3861402d565b6001600160401b01909102811c90614024565b6003600160401b01909102811c9061401b565b6006600160401b01909102811c90614012565b600b600160401b01909102811c90614009565b6016600160401b01909102811c90614000565b602c600160401b01909102811c90613ff7565b6059600160401b010260401c613fed565b6180008316614196575b6140008316614184575b6120008316614172575b6110008316614160575b610800831661414e575b610400831661413c575b610200831661412a575b610100831615613fcf5760b1600160401b010260401c613fcf565b610163600160401b010260401c61410f565b6102c6600160401b010260401c614105565b61058c600160401b010260401c6140fb565b610b17600160401b010260401c6140f1565b61162e600160401b010260401c6140e7565b612c5d600160401b010260401c6140dd565b6158b9600160401b010260401c6140d3565b628000008316614284575b624000008316614271575b62200000831661425e575b62100000831661424b575b620800008316614238575b620400008316614225575b620200008316614212575b62010000831615613fc55761b172600160401b010260401c613fc5565b680100000000000162e40260401c6141f5565b6801000000000002c5c80260401c6141ea565b68010000000000058b910260401c6141df565b680100000000000b17210260401c6141d4565b68010000000000162e430260401c6141c9565b680100000000002c5c860260401c6141be565b6801000000000058b90c0260401c6141b3565b6380000000831661437c575b63400000008316614369575b63200000008316614356575b63100000008316614343575b63080000008316614330575b6304000000831661431d575b6302000000831661430a575b6301000000831615613fba5768010000000000b172180260401c613fba565b6801000000000162e4300260401c6142eb565b68010000000002c5c8600260401c6142df565b680100000000058b90c00260401c6142d3565b6801000000000b17217f0260401c6142c7565b680100000000162e42ff0260401c6142bb565b6801000000002c5c85fe0260401c6142af565b68010000000058b90bfc0260401c6142a3565b600160271b8316614474575b600160261b8316614461575b600160251b831661444e575b600160241b831661443b575b600160231b8316614428575b600160221b8316614415575b600160211b8316614402575b600160201b831615613fae57680100000000b17217f80260401c613fae565b68010000000162e42ff10260401c6143e3565b680100000002c5c85fe30260401c6143d7565b6801000000058b90bfce0260401c6143cb565b68010000000b17217fbb0260401c6143bf565b6801000000162e42fff00260401c6143b3565b68010000002c5c8601cc0260401c6143a7565b680100000058b90c0b490260401c61439b565b6001602f1b831661456c575b6001602e1b8316614559575b6001602d1b8316614546575b6001602c1b8316614533575b6001602b1b8316614520575b6001602a1b831661450d575b600160291b83166144fa575b600160281b831615613fa2576801000000b1721835510260401c613fa2565b680100000162e430e5a20260401c6144db565b6801000002c5c863b73f0260401c6144cf565b68010000058b90cf1e6e0260401c6144c3565b680100000b1721bcfc9a0260401c6144b7565b68010000162e43f4f8310260401c6144ab565b680100002c5c89d5ec6d0260401c61449f565b6801000058b91b5bc9ae0260401c614493565b600160371b8316614664575b600160361b8316614651575b600160351b831661463e575b600160341b831661462b575b600160331b8316614618575b600160321b8316614605575b600160311b83166145f2575b600160301b831615613f965768010000b17255775c040260401c613f96565b6801000162e525ee05470260401c6145d3565b68010002c5cc37da94920260401c6145c7565b680100058ba01fb9f96d0260401c6145bb565b6801000b175effdc76ba0260401c6145af565b680100162f3904051fa10260401c6145a3565b6801002c605e2e8cec500260401c614597565b68010058c86da1c09ea20260401c61458b565b6001603f1b821661476d575b670de0b6b3a7640000906001603e1b831661475a575b6001603d1b8316614747575b6001603c1b8316614734575b6001603b1b8316614721575b6001603a1b831661470e575b600160391b83166146fb575b600160381b83166146e8575b9050613f80565b680100b1afa5abcbed610260401c6146e1565b68010163da9fb33356d80260401c6146d5565b680102c9a3e778060ee70260401c6146c9565b6801059b0d31585743ae0260401c6146bd565b68010b5586cf9890f62a0260401c6146b1565b6801172b83c7d517adce0260401c6146a5565b6801306fe0a31b7152df0260401c614699565b5068016a09e667f3bcc909607f1b614683565b80151580614a3c575b15614a0c5761479790613d8b565b90600160ff1b8082148015614a03575b6149505760008212156149fa576147cf826000035b60008512156149f3578460000390613ebf565b6001600160ff1b03928382116149d55760001994600091188512156149ce5750915b670cf4ad2e86166c9c83126149bd57670de0b6b3a763ffff19928084019060018183131661320d5783821480156149b5575b6149a357600082121561499957670de0b6b3a76400006148469160000301614ac1565b90828211614972578568056bc75e2d63100000600092181360001461496b5750925b830183811360011661320d57831260011661320d576801158e460913d0000083121561496257600083129384156148c957505081146148b75761397091156148b257600003614a45565b614a45565b60405163ec2b9e6760e01b8152600490fd5b91926148d6919450614a45565b91821461495057600082121561494a57816000035b8015613c4a576a0c097ce7bc90715b34b9f160241b0492831161492357600091670de0b6b3a764000018131561491f575090565b0390565b60405163d49c26b360e01b8152670de0b6b3a7640000600482015260248101839052604490fd5b816148eb565b6040516309fe2b4560e41b8152600490fd5b50505050600090565b0392614868565b6044906040519063120b5b4360e01b8252600482015268056bc75e2d631000006024820152fd5b5061484681614ac1565b60405163a6070c2560e01b8152600490fd5b506000614823565b5050505068056bc75e2d6310000090565b03916147f1565b604490856040519163d49c26b360e01b835260048301526024820152fd5b8490613ebf565b6147cf826147bc565b508083146147a7565b60405162461bcd60e51b81526020600482015260086024820152676d696e2076616c7360c01b6044820152606490fd5b50811515614789565b6000811215614a845768033dd1780914b97114198112613ca457614a6b90600003614a45565b8015613c4a576a0c097ce7bc90715b34b9f160241b0590565b680a688906bd8affffff8113614aaa57670de0b6b3a76400006139709160401b05613f6f565b60249060405190626c1a0560e31b82526004820152fd5b68056bc75e2d63100000919060001983820983820291828083109203918083039214614b4f57670de0b6b3a76400009081831015614b3157947faccb18165bd6fe31ae1cf318dc5b51eee0e1ba569b88cd74c1773b91fac1066994950990828211900360ee1b910360121c170290565b6044908660405191635173648d60e01b835260048301526024820152fd5b5050670de0b6b3a764000090049150565b908015614bb057697f0e10af47c1c70000009080820382811161320d57670de0b6b3a7640000938482029182048514838514171561320d57614bab92614ba591614780565b90613c2d565b040490565b5050670de0b6b3a764000090565b6065546040516370a0823160e01b815230600482015290602090829060249082906001600160a01b03165afa908115610a9a57600091614c21575b50697f0e10af47c1c70000009081811015614c1a57810390811161320d5790565b5050600090565b906020823d8211614c4d575b81614c3a602093836138e0565b81010312614c4a57505138614bf9565b80fd5b3d9150614c2d565b606a5461397090614c6f906001600160401b031642613c20565b610b85614bbe565b92613d3a9160a091806040519586936020850198600180881b031689526040850152606080850152816080850152848401376000838284010152601f801991011681010360808101845201826138e0565b15614ccf57565b60405162461bcd60e51b81526020600482015260066024820152651c185d5cd95960d21b6044820152606490fd5b908160209103126103f3575180151581036103f35790565b6001600160a01b039091168152602081019190915260400190565b818110614d3b575050565b60008155600101614d30565b6001600160a01b03918216815291166020820152604081019190915260600190565b9190820180921161320d57565b15614d7d57565b60405162461bcd60e51b81526020600482015260116024820152701c995c5d595cdd081b9bdd08195e1a5cdd607a1b6044820152606490fd5b8054600160a01b600160e01b03191660a09290921b600160a01b600160e01b0316919091179055565b61a4ba46148015614e5d575b8015614e51575b614dfa574390565b60405163a3b1b31d60e01b815260208160048160645afa908115610a9a57600091614e23575090565b906020823d8211614e49575b81614e3c602093836138e0565b81010312614c4a57505190565b3d9150614e2f565b5062066eee4614614df2565b5062066eed4614614deb565b15614e7057565b60405162461bcd60e51b81526020600482015260126024820152716d696e207374616b656420746f6f206c6f7760701b6044820152606490fd5b906000828152602090607b82526040908181205481526076835281812054858252607b845283838320600181015483116151e0575b82615161575b5050614efe90868352607b855260018484200154613c20565b94606e5495670de0b6b3a76400009687038781116150cc57614f2c88614f25889385613c2d565b0483613c20565b91614f3983606854614d69565b606855614f468382613c20565b6150e0575b505050808252607b8452828220548252607684526002838320015480614fa4575b5081526083835281812054607d8452828220546001600160a01b03168252607790935220805492935091614fa09190614d69565b9055565b614fb68791614fb1614c55565b613c2d565b04958615614f6c5760705481038181116150cc5790614fd8614fdf9289613c2d565b0487613c20565b9560018060a01b039083866150268460655416868452607d83526150098c878b8720541696613c20565b895194858094819363a9059cbb60e01b998a845260048401614d15565b03925af180156150c2579187939161505f9a936150a5575b5085826065541692606654169188519b8c9586948593845260048401614d15565b03925af195861561509b57614fa094959661507e575b86959450614f6c565b61509490863d8811610a9357610a8481836138e0565b5038615075565b83513d84823e3d90fd5b6150bb90853d8711610a9357610a8481836138e0565b503861503e565b86513d87823e3d90fd5b634e487b7160e01b84526011600452602484fd5b6151249261510760018060a01b0391826065541692878952607d8652898920541693613c20565b9186885180968195829463a9059cbb60e01b845260048401614d15565b03925af180156151575761513a575b8481614f4b565b61515090853d8711610a9357610a8481836138e0565b5038615133565b84513d85823e3d90fd5b606554905484526076825284842060010154855163a9059cbb60e01b8152929183916001600160a01b03918216918391889183916151a5918a911660048401614d15565b03925af180156151575790614efe92916151c3575b85919250614ee5565b6151d990863d8811610a9357610a8481836138e0565b50386151ba565b839250614edf565b80546001600160e01b031660e09290921b6001600160e01b031916919091179055565b6000828152607e60205260408120549092916001600160a01b03808316156152d7576073546001600160401b0393615248919060a01c8516614d69565b42116152cd57838552607f602052604085209116845260205260ff6040842054166152c5576077602052600160408420015480156152bc576074548082106152b25761529391613c20565b918352607e602052604083205460a01c16106152ac5790565b50600690565b5050505050600590565b50505050600490565b505050600390565b5050505050600290565b5050505050600190565b8054600160401b811015610dad576152fe91600182018155613998565b819291549060031b9160018060a01b03809116831b921b1916179055565b63ffffffff908116600019019190821161320d57565b600019811461320d5760010190565b90620100008111615474576001600160401b03906153608183166154e2565b60006154316040938451906153cb60248360209a8b986153bc8a8401966204010960e91b8852825193818d85019561539c8160238a01896139c6565b87019160238301370191600360fb1b6023840152518093868401906139c6565b010360048101855201836138e0565b61542160216153dc898551166154e2565b9388519384916154128a840197600560f91b89526154038c825192839189890191016139c6565b840191518093868401906139c6565b010360018101845201826138e0565b85519283928392519283916139c6565b8101039060025afa1561546a57600051815193609160f51b90850152602284015260228352606083019183831090831117610dad575290565b513d6000823e3d90fd5b60405162461bcd60e51b815260206004820152601f60248201527f4d617820636f6e74656e742073697a65206973203635353336206279746573006044820152606490fd5b6001600160401b0390811690811461320d5760010190565b9081518110156139b0570160200190565b600180825b607f6001600160401b038216116155bf57506001600160401b03918216908061550f83613903565b9461551d60405196876138e0565b838652601f1961552c85613903565b013660208801376000915b61556d575b5050506000190181811161320d5716615569607f60f81b61555d83856154d1565b511660001a91836154d1565b5390565b84821690848210156155b9576155b291607f821660801760f81b6001600160f81b03191660001a9061559f90896154d1565b5360071c6001600160391b0316916154b9565b9082615537565b5061553c565b60071c6001600160391b0316916155d5906154b9565b916154e756fe8be0079c531659141344cd1fd0a4f28419497f9722a3daafe3b4186f6b6457e01aa9e4be46e24e1f2e7eeb1613c01629213cd42965d2716e18531b63e552e411a26469706673582212207f347fad8eff98d11b4d0bc92aab0dc3cacc01ab16173d35a515a2b663fcb61964736f6c63430008130033",
  "linkReferences": {},
  "deployedLinkReferences": {}
}